{
	"UmiversePayment_flattened.sol": {
		"UmiversePayment": {
			"abi": [
				{
					"inputs": [
						{
							"internalType": "address",
							"name": "_usdcTokenAddress",
							"type": "address"
						},
						{
							"internalType": "address",
							"name": "_rewardPoolAddress",
							"type": "address"
						},
						{
							"internalType": "address",
							"name": "_signerAddress",
							"type": "address"
						}
					],
					"stateMutability": "nonpayable",
					"type": "constructor"
				},
				{
					"anonymous": false,
					"inputs": [
						{
							"indexed": true,
							"internalType": "address",
							"name": "recipient",
							"type": "address"
						},
						{
							"indexed": false,
							"internalType": "uint256",
							"name": "orderId",
							"type": "uint256"
						},
						{
							"indexed": false,
							"internalType": "uint256",
							"name": "amount",
							"type": "uint256"
						},
						{
							"indexed": false,
							"internalType": "bytes",
							"name": "_signature",
							"type": "bytes"
						}
					],
					"name": "PaymentSent",
					"type": "event"
				},
				{
					"anonymous": false,
					"inputs": [
						{
							"indexed": false,
							"internalType": "uint256",
							"name": "amount",
							"type": "uint256"
						}
					],
					"name": "TokensWithdrawn",
					"type": "event"
				},
				{
					"inputs": [
						{
							"internalType": "address",
							"name": "_usdcTokenAddress",
							"type": "address"
						},
						{
							"internalType": "address",
							"name": "_rewardPoolAddress",
							"type": "address"
						},
						{
							"internalType": "address",
							"name": "_signerAddress",
							"type": "address"
						}
					],
					"name": "config",
					"outputs": [],
					"stateMutability": "nonpayable",
					"type": "function"
				},
				{
					"inputs": [
						{
							"internalType": "address",
							"name": "_from",
							"type": "address"
						},
						{
							"internalType": "address",
							"name": "_recipient",
							"type": "address"
						},
						{
							"internalType": "uint256",
							"name": "_orderId",
							"type": "uint256"
						},
						{
							"internalType": "uint256",
							"name": "_amount",
							"type": "uint256"
						},
						{
							"internalType": "uint256",
							"name": "_timestamp",
							"type": "uint256"
						}
					],
					"name": "getMessageHash",
					"outputs": [
						{
							"internalType": "bytes32",
							"name": "",
							"type": "bytes32"
						}
					],
					"stateMutability": "pure",
					"type": "function"
				},
				{
					"inputs": [
						{
							"internalType": "string",
							"name": "token",
							"type": "string"
						}
					],
					"name": "isTokenSupported",
					"outputs": [
						{
							"internalType": "bool",
							"name": "",
							"type": "bool"
						}
					],
					"stateMutability": "pure",
					"type": "function"
				},
				{
					"inputs": [],
					"name": "nextOrderId",
					"outputs": [
						{
							"internalType": "uint256",
							"name": "",
							"type": "uint256"
						}
					],
					"stateMutability": "view",
					"type": "function"
				},
				{
					"inputs": [
						{
							"internalType": "uint256",
							"name": "",
							"type": "uint256"
						}
					],
					"name": "orders",
					"outputs": [
						{
							"internalType": "address",
							"name": "recipient",
							"type": "address"
						},
						{
							"internalType": "uint256",
							"name": "orderId",
							"type": "uint256"
						},
						{
							"internalType": "uint256",
							"name": "amount",
							"type": "uint256"
						},
						{
							"internalType": "uint256",
							"name": "fee",
							"type": "uint256"
						},
						{
							"internalType": "uint256",
							"name": "timestamp",
							"type": "uint256"
						}
					],
					"stateMutability": "view",
					"type": "function"
				},
				{
					"inputs": [],
					"name": "owner",
					"outputs": [
						{
							"internalType": "address",
							"name": "",
							"type": "address"
						}
					],
					"stateMutability": "view",
					"type": "function"
				},
				{
					"inputs": [
						{
							"internalType": "bytes32",
							"name": "_ethSignedMessageHash",
							"type": "bytes32"
						},
						{
							"internalType": "bytes",
							"name": "_signature",
							"type": "bytes"
						}
					],
					"name": "recoverSignerPublic",
					"outputs": [
						{
							"internalType": "address",
							"name": "",
							"type": "address"
						}
					],
					"stateMutability": "pure",
					"type": "function"
				},
				{
					"inputs": [],
					"name": "rewardPoolAddress",
					"outputs": [
						{
							"internalType": "address",
							"name": "",
							"type": "address"
						}
					],
					"stateMutability": "view",
					"type": "function"
				},
				{
					"inputs": [
						{
							"internalType": "address",
							"name": "from",
							"type": "address"
						},
						{
							"internalType": "address",
							"name": "recipient",
							"type": "address"
						},
						{
							"internalType": "uint256",
							"name": "orderId",
							"type": "uint256"
						},
						{
							"internalType": "uint256",
							"name": "amount",
							"type": "uint256"
						},
						{
							"internalType": "uint256",
							"name": "_timestamp",
							"type": "uint256"
						},
						{
							"internalType": "bytes",
							"name": "_signature",
							"type": "bytes"
						}
					],
					"name": "sendUSDC",
					"outputs": [],
					"stateMutability": "nonpayable",
					"type": "function"
				},
				{
					"inputs": [],
					"name": "signerAddress",
					"outputs": [
						{
							"internalType": "address",
							"name": "",
							"type": "address"
						}
					],
					"stateMutability": "view",
					"type": "function"
				},
				{
					"inputs": [],
					"name": "usdcToken",
					"outputs": [
						{
							"internalType": "contract IERC20",
							"name": "",
							"type": "address"
						}
					],
					"stateMutability": "view",
					"type": "function"
				},
				{
					"inputs": [
						{
							"internalType": "uint256",
							"name": "amount",
							"type": "uint256"
						}
					],
					"name": "withdrawTokens",
					"outputs": [],
					"stateMutability": "nonpayable",
					"type": "function"
				}
			],
			"devdoc": {
				"kind": "dev",
				"methods": {},
				"version": 1
			},
			"evm": {
				"assembly": "    /* \"UmiversePayment_flattened.sol\":3973:9364  contract UmiversePayment {... */\n  mstore(0x40, 0x80)\n    /* \"UmiversePayment_flattened.sol\":4502:4503  1 */\n  0x01\n    /* \"UmiversePayment_flattened.sol\":4473:4503  uint256 public nextOrderId = 1 */\n  0x05\n  sstore\n    /* \"UmiversePayment_flattened.sol\":4510:4771  constructor(address _usdcTokenAddress, address _rewardPoolAddress, address _signerAddress) {... */\n  callvalue\n  dup1\n  iszero\n  tag_1\n  jumpi\n  0x00\n  dup1\n  revert\ntag_1:\n  pop\n  mload(0x40)\n  sub(codesize, bytecodeSize)\n  dup1\n  bytecodeSize\n  dup4\n  codecopy\n  dup2\n  add\n  0x40\n  dup2\n  swap1\n  mstore\n  tag_2\n  swap2\n  tag_3\n  jump\t// in\ntag_2:\n    /* \"UmiversePayment_flattened.sol\":4611:4616  owner */\n  0x00\n    /* \"UmiversePayment_flattened.sol\":4611:4629  owner = msg.sender */\n  dup1\n  sload\n    /* \"UmiversePayment_flattened.sol\":4619:4629  msg.sender */\n  caller\n  not(sub(shl(0xa0, 0x01), 0x01))\n    /* \"UmiversePayment_flattened.sol\":4611:4629  owner = msg.sender */\n  swap2\n  dup3\n  and\n  or\n  swap1\n  swap2\n  sstore\n  0x01\n    /* \"UmiversePayment_flattened.sol\":4639:4677  rewardPoolAddress = _rewardPoolAddress */\n  dup1\n  sload\n  dup3\n  and\n  sub(shl(0xa0, 0x01), 0x01)\n  swap5\n  dup6\n  and\n  or\n  swap1\n  sstore\n    /* \"UmiversePayment_flattened.sol\":4687:4700  signerAddress */\n  0x02\n    /* \"UmiversePayment_flattened.sol\":4687:4717  signerAddress = _signerAddress */\n  dup1\n  sload\n  dup3\n  and\n  swap3\n  dup5\n  and\n  swap3\n  swap1\n  swap3\n  or\n  swap1\n  swap2\n  sstore\n    /* \"UmiversePayment_flattened.sol\":4727:4736  usdcToken */\n  0x03\n    /* \"UmiversePayment_flattened.sol\":4727:4764  usdcToken = IERC20(_usdcTokenAddress) */\n  dup1\n  sload\n  swap1\n  swap2\n  and\n  swap3\n  swap1\n  swap2\n  and\n  swap2\n  swap1\n  swap2\n  or\n  swap1\n  sstore\n    /* \"UmiversePayment_flattened.sol\":3973:9364  contract UmiversePayment {... */\n  jump(tag_8)\n    /* \"#utility.yul\":14:191   */\ntag_7:\n    /* \"#utility.yul\":93:106   */\n  dup1\n  mload\n  sub(shl(0xa0, 0x01), 0x01)\n    /* \"#utility.yul\":135:166   */\n  dup2\n  and\n    /* \"#utility.yul\":125:167   */\n  dup2\n  eq\n    /* \"#utility.yul\":115:185   */\n  tag_10\n  jumpi\n    /* \"#utility.yul\":181:182   */\n  0x00\n    /* \"#utility.yul\":178:179   */\n  dup1\n    /* \"#utility.yul\":171:183   */\n  revert\n    /* \"#utility.yul\":115:185   */\ntag_10:\n    /* \"#utility.yul\":14:191   */\n  swap2\n  swap1\n  pop\n  jump\t// out\n    /* \"#utility.yul\":196:574   */\ntag_3:\n    /* \"#utility.yul\":284:290   */\n  0x00\n    /* \"#utility.yul\":292:298   */\n  dup1\n    /* \"#utility.yul\":300:306   */\n  0x00\n    /* \"#utility.yul\":353:355   */\n  0x60\n    /* \"#utility.yul\":341:350   */\n  dup5\n    /* \"#utility.yul\":332:339   */\n  dup7\n    /* \"#utility.yul\":328:351   */\n  sub\n    /* \"#utility.yul\":324:356   */\n  slt\n    /* \"#utility.yul\":321:373   */\n  iszero\n  tag_12\n  jumpi\n    /* \"#utility.yul\":369:370   */\n  0x00\n    /* \"#utility.yul\":366:367   */\n  dup1\n    /* \"#utility.yul\":359:371   */\n  revert\n    /* \"#utility.yul\":321:373   */\ntag_12:\n    /* \"#utility.yul\":392:432   */\n  tag_13\n    /* \"#utility.yul\":422:431   */\n  dup5\n    /* \"#utility.yul\":392:432   */\n  tag_7\n  jump\t// in\ntag_13:\n    /* \"#utility.yul\":382:432   */\n  swap3\n  pop\n    /* \"#utility.yul\":451:500   */\n  tag_14\n    /* \"#utility.yul\":496:498   */\n  0x20\n    /* \"#utility.yul\":485:494   */\n  dup6\n    /* \"#utility.yul\":481:499   */\n  add\n    /* \"#utility.yul\":451:500   */\n  tag_7\n  jump\t// in\ntag_14:\n    /* \"#utility.yul\":441:500   */\n  swap2\n  pop\n    /* \"#utility.yul\":519:568   */\n  tag_15\n    /* \"#utility.yul\":564:566   */\n  0x40\n    /* \"#utility.yul\":553:562   */\n  dup6\n    /* \"#utility.yul\":549:567   */\n  add\n    /* \"#utility.yul\":519:568   */\n  tag_7\n  jump\t// in\ntag_15:\n    /* \"#utility.yul\":509:568   */\n  swap1\n  pop\n    /* \"#utility.yul\":196:574   */\n  swap3\n  pop\n  swap3\n  pop\n  swap3\n  jump\t// out\ntag_8:\n    /* \"UmiversePayment_flattened.sol\":3973:9364  contract UmiversePayment {... */\n  dataSize(sub_0)\n  dup1\n  dataOffset(sub_0)\n  0x00\n  codecopy\n  0x00\n  return\nstop\n\nsub_0: assembly {\n        /* \"UmiversePayment_flattened.sol\":3973:9364  contract UmiversePayment {... */\n      mstore(0x40, 0x80)\n      callvalue\n      dup1\n      iszero\n      tag_1\n      jumpi\n      0x00\n      dup1\n      revert\n    tag_1:\n      pop\n      jumpi(tag_2, lt(calldatasize, 0x04))\n      shr(0xe0, calldataload(0x00))\n      dup1\n      0x7ccbf83e\n      gt\n      tag_15\n      jumpi\n      dup1\n      0x7ccbf83e\n      eq\n      tag_9\n      jumpi\n      dup1\n      0x845a51ec\n      eq\n      tag_10\n      jumpi\n      dup1\n      0x87336111\n      eq\n      tag_11\n      jumpi\n      dup1\n      0x8da5cb5b\n      eq\n      tag_12\n      jumpi\n      dup1\n      0x9f2585a1\n      eq\n      tag_13\n      jumpi\n      dup1\n      0xa85c38ef\n      eq\n      tag_14\n      jumpi\n      0x00\n      dup1\n      revert\n    tag_15:\n      dup1\n      0x0d3652ec\n      eq\n      tag_3\n      jumpi\n      dup1\n      0x11eac855\n      eq\n      tag_4\n      jumpi\n      dup1\n      0x2a58b330\n      eq\n      tag_5\n      jumpi\n      dup1\n      0x315a095d\n      eq\n      tag_6\n      jumpi\n      dup1\n      0x59e1abaa\n      eq\n      tag_7\n      jumpi\n      dup1\n      0x5b7633d0\n      eq\n      tag_8\n      jumpi\n    tag_2:\n      0x00\n      dup1\n      revert\n        /* \"UmiversePayment_flattened.sol\":8432:8744  function isTokenSupported(string memory token) public pure returns (bool) {... */\n    tag_3:\n      tag_16\n      tag_17\n      calldatasize\n      0x04\n      tag_18\n      jump\t// in\n    tag_17:\n      tag_19\n      jump\t// in\n    tag_16:\n      mload(0x40)\n        /* \"#utility.yul\":1404:1418   */\n      swap1\n      iszero\n        /* \"#utility.yul\":1397:1419   */\n      iszero\n        /* \"#utility.yul\":1379:1420   */\n      dup2\n      mstore\n        /* \"#utility.yul\":1367:1369   */\n      0x20\n        /* \"#utility.yul\":1352:1370   */\n      add\n        /* \"UmiversePayment_flattened.sol\":8432:8744  function isTokenSupported(string memory token) public pure returns (bool) {... */\n    tag_20:\n      mload(0x40)\n      dup1\n      swap2\n      sub\n      swap1\n      return\n        /* \"UmiversePayment_flattened.sol\":4103:4126  IERC20 public usdcToken */\n    tag_4:\n      sload(0x03)\n      tag_22\n      swap1\n      sub(shl(0xa0, 0x01), 0x01)\n      and\n      dup2\n      jump\n    tag_22:\n      mload(0x40)\n      sub(shl(0xa0, 0x01), 0x01)\n        /* \"#utility.yul\":1609:1641   */\n      swap1\n      swap2\n      and\n        /* \"#utility.yul\":1591:1642   */\n      dup2\n      mstore\n        /* \"#utility.yul\":1579:1581   */\n      0x20\n        /* \"#utility.yul\":1564:1582   */\n      add\n        /* \"UmiversePayment_flattened.sol\":4103:4126  IERC20 public usdcToken */\n      tag_20\n        /* \"#utility.yul\":1431:1648   */\n      jump\n        /* \"UmiversePayment_flattened.sol\":4473:4503  uint256 public nextOrderId = 1 */\n    tag_5:\n      tag_26\n      sload(0x05)\n      dup2\n      jump\n    tag_26:\n      mload(0x40)\n        /* \"#utility.yul\":1799:1824   */\n      swap1\n      dup2\n      mstore\n        /* \"#utility.yul\":1787:1789   */\n      0x20\n        /* \"#utility.yul\":1772:1790   */\n      add\n        /* \"UmiversePayment_flattened.sol\":4473:4503  uint256 public nextOrderId = 1 */\n      tag_20\n        /* \"#utility.yul\":1653:1830   */\n      jump\n        /* \"UmiversePayment_flattened.sol\":6221:6449  function withdrawTokens(uint256 amount) external onlyOwner {... */\n    tag_6:\n      tag_30\n      tag_31\n      calldatasize\n      0x04\n      tag_32\n      jump\t// in\n    tag_31:\n      tag_33\n      jump\t// in\n    tag_30:\n      stop\n        /* \"UmiversePayment_flattened.sol\":6470:6921  function getMessageHash(... */\n    tag_7:\n      tag_26\n      tag_35\n      calldatasize\n      0x04\n      tag_36\n      jump\t// in\n    tag_35:\n      tag_37\n      jump\t// in\n        /* \"UmiversePayment_flattened.sol\":4068:4096  address public signerAddress */\n    tag_8:\n      sload(0x02)\n      tag_22\n      swap1\n      sub(shl(0xa0, 0x01), 0x01)\n      and\n      dup2\n      jump\n        /* \"UmiversePayment_flattened.sol\":5169:6215  function sendUSDC(address from, address recipient, uint256 orderId, uint256 amount, uint256 _timestamp, bytes memory _signature) external {... */\n    tag_9:\n      tag_30\n      tag_45\n      calldatasize\n      0x04\n      tag_46\n      jump\t// in\n    tag_45:\n      tag_47\n      jump\t// in\n        /* \"UmiversePayment_flattened.sol\":4030:4062  address public rewardPoolAddress */\n    tag_10:\n      sload(0x01)\n      tag_22\n      swap1\n      sub(shl(0xa0, 0x01), 0x01)\n      and\n      dup2\n      jump\n        /* \"UmiversePayment_flattened.sol\":4790:5043  function config(address _usdcTokenAddress, address _rewardPoolAddress, address _signerAddress) public onlyOwner{... */\n    tag_11:\n      tag_30\n      tag_52\n      calldatasize\n      0x04\n      tag_53\n      jump\t// in\n    tag_52:\n      tag_54\n      jump\t// in\n        /* \"UmiversePayment_flattened.sol\":4004:4024  address public owner */\n    tag_12:\n      sload(0x00)\n      tag_22\n      swap1\n      sub(shl(0xa0, 0x01), 0x01)\n      and\n      dup2\n      jump\n        /* \"UmiversePayment_flattened.sol\":8154:8426  function recoverSignerPublic(... */\n    tag_13:\n      tag_22\n      tag_59\n      calldatasize\n      0x04\n      tag_60\n      jump\t// in\n    tag_59:\n      tag_61\n      jump\t// in\n        /* \"UmiversePayment_flattened.sol\":4428:4467  mapping(uint256 => Order) public orders */\n    tag_14:\n      tag_63\n      tag_64\n      calldatasize\n      0x04\n      tag_32\n      jump\t// in\n    tag_64:\n      0x04\n      0x20\n      dup2\n      swap1\n      mstore\n      0x00\n      swap2\n      dup3\n      mstore\n      0x40\n      swap1\n      swap2\n      keccak256\n      dup1\n      sload\n      0x01\n      dup3\n      add\n      sload\n      0x02\n      dup4\n      add\n      sload\n      0x03\n      dup5\n      add\n      sload\n      swap4\n      swap1\n      swap5\n      add\n      sload\n      sub(shl(0xa0, 0x01), 0x01)\n      swap1\n      swap3\n      and\n      swap4\n      swap1\n      swap3\n      swap1\n      swap2\n      dup6\n      jump\n    tag_63:\n      0x40\n      dup1\n      mload\n      sub(shl(0xa0, 0x01), 0x01)\n        /* \"#utility.yul\":4974:5006   */\n      swap1\n      swap7\n      and\n        /* \"#utility.yul\":4956:5007   */\n      dup7\n      mstore\n        /* \"#utility.yul\":5038:5040   */\n      0x20\n        /* \"#utility.yul\":5023:5041   */\n      dup7\n      add\n        /* \"#utility.yul\":5016:5050   */\n      swap5\n      swap1\n      swap5\n      mstore\n        /* \"#utility.yul\":5066:5084   */\n      swap3\n      dup5\n      add\n        /* \"#utility.yul\":5059:5093   */\n      swap2\n      swap1\n      swap2\n      mstore\n        /* \"#utility.yul\":5124:5126   */\n      0x60\n        /* \"#utility.yul\":5109:5127   */\n      dup4\n      add\n        /* \"#utility.yul\":5102:5136   */\n      mstore\n        /* \"#utility.yul\":5167:5170   */\n      0x80\n        /* \"#utility.yul\":5152:5171   */\n      dup3\n      add\n        /* \"#utility.yul\":5145:5180   */\n      mstore\n        /* \"#utility.yul\":4943:4946   */\n      0xa0\n        /* \"#utility.yul\":4928:4947   */\n      add\n        /* \"UmiversePayment_flattened.sol\":4428:4467  mapping(uint256 => Order) public orders */\n      tag_20\n        /* \"#utility.yul\":4697:5186   */\n      jump\n        /* \"UmiversePayment_flattened.sol\":8432:8744  function isTokenSupported(string memory token) public pure returns (bool) {... */\n    tag_19:\n        /* \"UmiversePayment_flattened.sol\":8500:8504  bool */\n      0x00\n        /* \"UmiversePayment_flattened.sol\":8524:8553  compareStrings(token, \"usdt\") */\n      tag_69\n        /* \"UmiversePayment_flattened.sol\":8539:8544  token */\n      dup3\n        /* \"UmiversePayment_flattened.sol\":8524:8553  compareStrings(token, \"usdt\") */\n      mload(0x40)\n      dup1\n      0x40\n      add\n      0x40\n      mstore\n      dup1\n      0x04\n      dup2\n      mstore\n      0x20\n      add\n      shl(0xe2, 0x1d5cd91d)\n      dup2\n      mstore\n      pop\n        /* \"UmiversePayment_flattened.sol\":8524:8538  compareStrings */\n      tag_70\n        /* \"UmiversePayment_flattened.sol\":8524:8553  compareStrings(token, \"usdt\") */\n      jump\t// in\n    tag_69:\n        /* \"UmiversePayment_flattened.sol\":8524:8598  compareStrings(token, \"usdt\") ||... */\n      dup1\n      tag_72\n      jumpi\n      pop\n        /* \"UmiversePayment_flattened.sol\":8569:8598  compareStrings(token, \"usdc\") */\n      tag_72\n        /* \"UmiversePayment_flattened.sol\":8584:8589  token */\n      dup3\n        /* \"UmiversePayment_flattened.sol\":8569:8598  compareStrings(token, \"usdc\") */\n      mload(0x40)\n      dup1\n      0x40\n      add\n      0x40\n      mstore\n      dup1\n      0x04\n      dup2\n      mstore\n      0x20\n      add\n      shl(0xe0, 0x75736463)\n      dup2\n      mstore\n      pop\n        /* \"UmiversePayment_flattened.sol\":8569:8583  compareStrings */\n      tag_70\n        /* \"UmiversePayment_flattened.sol\":8569:8598  compareStrings(token, \"usdc\") */\n      jump\t// in\n    tag_72:\n        /* \"UmiversePayment_flattened.sol\":8524:8642  compareStrings(token, \"usdt\") ||... */\n      dup1\n      tag_74\n      jumpi\n      pop\n        /* \"UmiversePayment_flattened.sol\":8614:8642  compareStrings(token, \"umi\") */\n      tag_74\n        /* \"UmiversePayment_flattened.sol\":8629:8634  token */\n      dup3\n        /* \"UmiversePayment_flattened.sol\":8614:8642  compareStrings(token, \"umi\") */\n      mload(0x40)\n      dup1\n      0x40\n      add\n      0x40\n      mstore\n      dup1\n      0x03\n      dup2\n      mstore\n      0x20\n      add\n      shl(0xe8, 0x756d69)\n      dup2\n      mstore\n      pop\n        /* \"UmiversePayment_flattened.sol\":8614:8628  compareStrings */\n      tag_70\n        /* \"UmiversePayment_flattened.sol\":8614:8642  compareStrings(token, \"umi\") */\n      jump\t// in\n    tag_74:\n        /* \"UmiversePayment_flattened.sol\":8524:8692  compareStrings(token, \"usdt\") ||... */\n      dup1\n      tag_76\n      jumpi\n      pop\n        /* \"UmiversePayment_flattened.sol\":8658:8692  compareStrings(token, \"divepoint\") */\n      tag_76\n        /* \"UmiversePayment_flattened.sol\":8673:8678  token */\n      dup3\n        /* \"UmiversePayment_flattened.sol\":8658:8692  compareStrings(token, \"divepoint\") */\n      mload(0x40)\n      dup1\n      0x40\n      add\n      0x40\n      mstore\n      dup1\n      0x09\n      dup2\n      mstore\n      0x20\n      add\n      shl(0xba, 0x191a5d995c1bda5b9d)\n      dup2\n      mstore\n      pop\n        /* \"UmiversePayment_flattened.sol\":8658:8672  compareStrings */\n      tag_70\n        /* \"UmiversePayment_flattened.sol\":8658:8692  compareStrings(token, \"divepoint\") */\n      jump\t// in\n    tag_76:\n        /* \"UmiversePayment_flattened.sol\":8524:8736  compareStrings(token, \"usdt\") ||... */\n      dup1\n      tag_78\n      jumpi\n      pop\n        /* \"UmiversePayment_flattened.sol\":8708:8736  compareStrings(token, \"eth\") */\n      tag_78\n        /* \"UmiversePayment_flattened.sol\":8723:8728  token */\n      dup3\n        /* \"UmiversePayment_flattened.sol\":8708:8736  compareStrings(token, \"eth\") */\n      mload(0x40)\n      dup1\n      0x40\n      add\n      0x40\n      mstore\n      dup1\n      0x03\n      dup2\n      mstore\n      0x20\n      add\n      shl(0xeb, 0x0cae8d)\n      dup2\n      mstore\n      pop\n        /* \"UmiversePayment_flattened.sol\":8708:8722  compareStrings */\n      tag_70\n        /* \"UmiversePayment_flattened.sol\":8708:8736  compareStrings(token, \"eth\") */\n      jump\t// in\n    tag_78:\n        /* \"UmiversePayment_flattened.sol\":8516:8737  return (compareStrings(token, \"usdt\") ||... */\n      swap3\n        /* \"UmiversePayment_flattened.sol\":8432:8744  function isTokenSupported(string memory token) public pure returns (bool) {... */\n      swap2\n      pop\n      pop\n      jump\t// out\n        /* \"UmiversePayment_flattened.sol\":6221:6449  function withdrawTokens(uint256 amount) external onlyOwner {... */\n    tag_33:\n        /* \"UmiversePayment_flattened.sol\":5102:5107  owner */\n      and(sub(shl(0xa0, 0x01), 0x01), sload(0x00))\n        /* \"UmiversePayment_flattened.sol\":5088:5098  msg.sender */\n      caller\n        /* \"UmiversePayment_flattened.sol\":5088:5107  msg.sender == owner */\n      eq\n        /* \"UmiversePayment_flattened.sol\":5080:5145  require(msg.sender == owner, \"Only owner can call this function\") */\n      tag_80\n      jumpi\n      mload(0x40)\n      shl(0xe5, 0x461bcd)\n      dup2\n      mstore\n      0x04\n      add\n      tag_81\n      swap1\n      tag_82\n      jump\t// in\n    tag_81:\n      mload(0x40)\n      dup1\n      swap2\n      sub\n      swap1\n      revert\n    tag_80:\n        /* \"UmiversePayment_flattened.sol\":6307:6308  0 */\n      0x00\n        /* \"UmiversePayment_flattened.sol\":6298:6304  amount */\n      dup2\n        /* \"UmiversePayment_flattened.sol\":6298:6308  amount > 0 */\n      gt\n        /* \"UmiversePayment_flattened.sol\":6290:6327  require(amount > 0, \"Invalid amount\") */\n      tag_84\n      jumpi\n      mload(0x40)\n      shl(0xe5, 0x461bcd)\n      dup2\n      mstore\n        /* \"#utility.yul\":5795:5797   */\n      0x20\n        /* \"UmiversePayment_flattened.sol\":6290:6327  require(amount > 0, \"Invalid amount\") */\n      0x04\n      dup3\n      add\n        /* \"#utility.yul\":5777:5798   */\n      mstore\n        /* \"#utility.yul\":5834:5836   */\n      0x0e\n        /* \"#utility.yul\":5814:5832   */\n      0x24\n      dup3\n      add\n        /* \"#utility.yul\":5807:5837   */\n      mstore\n      shl(0x92, 0x125b9d985b1a5908185b5bdd5b9d)\n        /* \"#utility.yul\":5853:5871   */\n      0x44\n      dup3\n      add\n        /* \"#utility.yul\":5846:5890   */\n      mstore\n        /* \"#utility.yul\":5907:5925   */\n      0x64\n      add\n        /* \"UmiversePayment_flattened.sol\":6290:6327  require(amount > 0, \"Invalid amount\") */\n      tag_81\n        /* \"#utility.yul\":5593:5931   */\n      jump\n        /* \"UmiversePayment_flattened.sol\":6290:6327  require(amount > 0, \"Invalid amount\") */\n    tag_84:\n        /* \"UmiversePayment_flattened.sol\":6345:6354  usdcToken */\n      sload(0x03)\n      0x00\n        /* \"UmiversePayment_flattened.sol\":6364:6369  owner */\n      sload\n        /* \"UmiversePayment_flattened.sol\":6345:6378  usdcToken.transfer(owner, amount) */\n      mload(0x40)\n      shl(0xe0, 0xa9059cbb)\n      dup2\n      mstore\n      sub(shl(0xa0, 0x01), 0x01)\n        /* \"UmiversePayment_flattened.sol\":6364:6369  owner */\n      swap2\n      dup3\n      and\n        /* \"UmiversePayment_flattened.sol\":6345:6378  usdcToken.transfer(owner, amount) */\n      0x04\n      dup3\n      add\n        /* \"#utility.yul\":6110:6161   */\n      mstore\n        /* \"#utility.yul\":6177:6195   */\n      0x24\n      dup2\n      add\n        /* \"#utility.yul\":6170:6204   */\n      dup5\n      swap1\n      mstore\n        /* \"UmiversePayment_flattened.sol\":6345:6354  usdcToken */\n      swap2\n      and\n      swap1\n        /* \"UmiversePayment_flattened.sol\":6345:6363  usdcToken.transfer */\n      0xa9059cbb\n      swap1\n        /* \"#utility.yul\":6083:6101   */\n      0x44\n      add\n        /* \"UmiversePayment_flattened.sol\":6345:6378  usdcToken.transfer(owner, amount) */\n      0x20\n      mload(0x40)\n      dup1\n      dup4\n      sub\n      dup2\n      0x00\n      dup8\n      gas\n      call\n      iszero\n      dup1\n      iszero\n      tag_90\n      jumpi\n      returndatasize\n      0x00\n      dup1\n      returndatacopy\n      revert(0x00, returndatasize)\n    tag_90:\n      pop\n      pop\n      pop\n      pop\n      mload(0x40)\n      returndatasize\n      not(0x1f)\n      0x1f\n      dup3\n      add\n      and\n      dup3\n      add\n      dup1\n      0x40\n      mstore\n      pop\n      dup2\n      add\n      swap1\n      tag_91\n      swap2\n      swap1\n      tag_92\n      jump\t// in\n    tag_91:\n        /* \"UmiversePayment_flattened.sol\":6337:6404  require(usdcToken.transfer(owner, amount), \"Token transfer failed\") */\n      tag_93\n      jumpi\n      mload(0x40)\n      shl(0xe5, 0x461bcd)\n      dup2\n      mstore\n        /* \"#utility.yul\":6699:6701   */\n      0x20\n        /* \"UmiversePayment_flattened.sol\":6337:6404  require(usdcToken.transfer(owner, amount), \"Token transfer failed\") */\n      0x04\n      dup3\n      add\n        /* \"#utility.yul\":6681:6702   */\n      mstore\n        /* \"#utility.yul\":6738:6740   */\n      0x15\n        /* \"#utility.yul\":6718:6736   */\n      0x24\n      dup3\n      add\n        /* \"#utility.yul\":6711:6741   */\n      mstore\n      shl(0x5a, 0x151bdad95b881d1c985b9cd9995c8819985a5b1959)\n        /* \"#utility.yul\":6757:6775   */\n      0x44\n      dup3\n      add\n        /* \"#utility.yul\":6750:6801   */\n      mstore\n        /* \"#utility.yul\":6818:6836   */\n      0x64\n      add\n        /* \"UmiversePayment_flattened.sol\":6337:6404  require(usdcToken.transfer(owner, amount), \"Token transfer failed\") */\n      tag_81\n        /* \"#utility.yul\":6497:6842   */\n      jump\n        /* \"UmiversePayment_flattened.sol\":6337:6404  require(usdcToken.transfer(owner, amount), \"Token transfer failed\") */\n    tag_93:\n        /* \"UmiversePayment_flattened.sol\":6419:6442  TokensWithdrawn(amount) */\n      mload(0x40)\n        /* \"#utility.yul\":1799:1824   */\n      dup2\n      dup2\n      mstore\n        /* \"UmiversePayment_flattened.sol\":6419:6442  TokensWithdrawn(amount) */\n      0x9c6393f251205f9e03559951cab4c9ae71767b6174f77944a5b0c2fa51fbda9f\n      swap1\n        /* \"#utility.yul\":1787:1789   */\n      0x20\n        /* \"#utility.yul\":1772:1790   */\n      add\n        /* \"UmiversePayment_flattened.sol\":6419:6442  TokensWithdrawn(amount) */\n      mload(0x40)\n      dup1\n      swap2\n      sub\n      swap1\n      log1\n        /* \"UmiversePayment_flattened.sol\":6221:6449  function withdrawTokens(uint256 amount) external onlyOwner {... */\n      pop\n      jump\t// out\n        /* \"UmiversePayment_flattened.sol\":6470:6921  function getMessageHash(... */\n    tag_37:\n        /* \"UmiversePayment_flattened.sol\":6716:6900  abi.encodePacked(... */\n      mload(0x40)\n      not(0xffffffffffffffffffffffff)\n        /* \"#utility.yul\":7158:7160   */\n      0x60\n        /* \"#utility.yul\":7154:7169   */\n      dup8\n      dup2\n      shl\n        /* \"#utility.yul\":7150:7174   */\n      dup3\n      and\n        /* \"UmiversePayment_flattened.sol\":6716:6900  abi.encodePacked(... */\n      0x20\n      dup5\n      add\n        /* \"#utility.yul\":7138:7175   */\n      mstore\n        /* \"#utility.yul\":7209:7224   */\n      dup7\n      swap1\n      shl\n        /* \"#utility.yul\":7205:7229   */\n      and\n        /* \"#utility.yul\":7191:7203   */\n      0x34\n      dup3\n      add\n        /* \"#utility.yul\":7184:7230   */\n      mstore\n        /* \"#utility.yul\":7246:7258   */\n      0x48\n      dup2\n      add\n        /* \"#utility.yul\":7239:7267   */\n      dup5\n      swap1\n      mstore\n        /* \"#utility.yul\":7283:7295   */\n      0x68\n      dup2\n      add\n        /* \"#utility.yul\":7276:7304   */\n      dup4\n      swap1\n      mstore\n        /* \"#utility.yul\":7320:7333   */\n      0x88\n      dup2\n      add\n        /* \"#utility.yul\":7313:7342   */\n      dup3\n      swap1\n      mstore\n        /* \"UmiversePayment_flattened.sol\":6651:6658  bytes32 */\n      0x00\n      swap1\n        /* \"#utility.yul\":7358:7371   */\n      0xa8\n      add\n        /* \"UmiversePayment_flattened.sol\":6716:6900  abi.encodePacked(... */\n      mload(0x40)\n      0x20\n      dup2\n      dup4\n      sub\n      sub\n      dup2\n      mstore\n      swap1\n      0x40\n      mstore\n        /* \"UmiversePayment_flattened.sol\":6689:6914  keccak256(... */\n      dup1\n      mload\n      swap1\n      0x20\n      add\n      keccak256\n        /* \"UmiversePayment_flattened.sol\":6670:6914  return... */\n      swap1\n      pop\n        /* \"UmiversePayment_flattened.sol\":6470:6921  function getMessageHash(... */\n      swap6\n      swap5\n      pop\n      pop\n      pop\n      pop\n      pop\n      jump\t// out\n        /* \"UmiversePayment_flattened.sol\":5169:6215  function sendUSDC(address from, address recipient, uint256 orderId, uint256 amount, uint256 _timestamp, bytes memory _signature) external {... */\n    tag_47:\n        /* \"UmiversePayment_flattened.sol\":5334:5335  0 */\n      0x00\n        /* \"UmiversePayment_flattened.sol\":5325:5331  amount */\n      dup4\n        /* \"UmiversePayment_flattened.sol\":5325:5335  amount > 0 */\n      gt\n        /* \"UmiversePayment_flattened.sol\":5317:5354  require(amount > 0, \"Invalid amount\") */\n      tag_101\n      jumpi\n      mload(0x40)\n      shl(0xe5, 0x461bcd)\n      dup2\n      mstore\n        /* \"#utility.yul\":5795:5797   */\n      0x20\n        /* \"UmiversePayment_flattened.sol\":5317:5354  require(amount > 0, \"Invalid amount\") */\n      0x04\n      dup3\n      add\n        /* \"#utility.yul\":5777:5798   */\n      mstore\n        /* \"#utility.yul\":5834:5836   */\n      0x0e\n        /* \"#utility.yul\":5814:5832   */\n      0x24\n      dup3\n      add\n        /* \"#utility.yul\":5807:5837   */\n      mstore\n      shl(0x92, 0x125b9d985b1a5908185b5bdd5b9d)\n        /* \"#utility.yul\":5853:5871   */\n      0x44\n      dup3\n      add\n        /* \"#utility.yul\":5846:5890   */\n      mstore\n        /* \"#utility.yul\":5907:5925   */\n      0x64\n      add\n        /* \"UmiversePayment_flattened.sol\":5317:5354  require(amount > 0, \"Invalid amount\") */\n      tag_81\n        /* \"#utility.yul\":5593:5931   */\n      jump\n        /* \"UmiversePayment_flattened.sol\":5317:5354  require(amount > 0, \"Invalid amount\") */\n    tag_101:\n      sub(shl(0xa0, 0x01), 0x01)\n        /* \"UmiversePayment_flattened.sol\":5372:5390  from != address(0) */\n      dup7\n      and\n        /* \"UmiversePayment_flattened.sol\":5364:5423  require(from != address(0), \"CV: from to the zero address\") */\n      tag_103\n      jumpi\n      mload(0x40)\n      shl(0xe5, 0x461bcd)\n      dup2\n      mstore\n        /* \"#utility.yul\":7584:7586   */\n      0x20\n        /* \"UmiversePayment_flattened.sol\":5364:5423  require(from != address(0), \"CV: from to the zero address\") */\n      0x04\n      dup3\n      add\n        /* \"#utility.yul\":7566:7587   */\n      mstore\n        /* \"#utility.yul\":7623:7625   */\n      0x1c\n        /* \"#utility.yul\":7603:7621   */\n      0x24\n      dup3\n      add\n        /* \"#utility.yul\":7596:7626   */\n      mstore\n        /* \"#utility.yul\":7662:7692   */\n      0x43563a2066726f6d20746f20746865207a65726f206164647265737300000000\n        /* \"#utility.yul\":7642:7660   */\n      0x44\n      dup3\n      add\n        /* \"#utility.yul\":7635:7693   */\n      mstore\n        /* \"#utility.yul\":7710:7728   */\n      0x64\n      add\n        /* \"UmiversePayment_flattened.sol\":5364:5423  require(from != address(0), \"CV: from to the zero address\") */\n      tag_81\n        /* \"#utility.yul\":7382:7734   */\n      jump\n        /* \"UmiversePayment_flattened.sol\":5364:5423  require(from != address(0), \"CV: from to the zero address\") */\n    tag_103:\n        /* \"UmiversePayment_flattened.sol\":5454:5628  verify(... */\n      tag_106\n        /* \"UmiversePayment_flattened.sol\":5478:5482  from */\n      dup7\n        /* \"UmiversePayment_flattened.sol\":5500:5509  recipient */\n      dup7\n        /* \"UmiversePayment_flattened.sol\":5527:5534  orderId */\n      dup7\n        /* \"UmiversePayment_flattened.sol\":5552:5558  amount */\n      dup7\n        /* \"UmiversePayment_flattened.sol\":5576:5586  _timestamp */\n      dup7\n        /* \"UmiversePayment_flattened.sol\":5604:5614  _signature */\n      dup7\n        /* \"UmiversePayment_flattened.sol\":5454:5460  verify */\n      tag_107\n        /* \"UmiversePayment_flattened.sol\":5454:5628  verify(... */\n      jump\t// in\n    tag_106:\n        /* \"UmiversePayment_flattened.sol\":5433:5676  require(... */\n      tag_108\n      jumpi\n      mload(0x40)\n      shl(0xe5, 0x461bcd)\n      dup2\n      mstore\n        /* \"#utility.yul\":7941:7943   */\n      0x20\n        /* \"UmiversePayment_flattened.sol\":5433:5676  require(... */\n      0x04\n      dup3\n      add\n        /* \"#utility.yul\":7923:7944   */\n      mstore\n        /* \"#utility.yul\":7980:7982   */\n      0x16\n        /* \"#utility.yul\":7960:7978   */\n      0x24\n      dup3\n      add\n        /* \"#utility.yul\":7953:7983   */\n      mstore\n      shl(0x50, 0x43563a20696e76616c6964205f7369676e6174757265)\n        /* \"#utility.yul\":7999:8017   */\n      0x44\n      dup3\n      add\n        /* \"#utility.yul\":7992:8044   */\n      mstore\n        /* \"#utility.yul\":8061:8079   */\n      0x64\n      add\n        /* \"UmiversePayment_flattened.sol\":5433:5676  require(... */\n      tag_81\n        /* \"#utility.yul\":7739:8085   */\n      jump\n        /* \"UmiversePayment_flattened.sol\":5433:5676  require(... */\n    tag_108:\n        /* \"UmiversePayment_flattened.sol\":5694:5703  usdcToken */\n      sload(0x03)\n        /* \"UmiversePayment_flattened.sol\":5694:5745  usdcToken.transferFrom(from, address(this), amount) */\n      mload(0x40)\n      shl(0xe0, 0x23b872dd)\n      dup2\n      mstore\n      sub(shl(0xa0, 0x01), 0x01)\n        /* \"#utility.yul\":8348:8363   */\n      dup9\n      dup2\n      and\n        /* \"UmiversePayment_flattened.sol\":5694:5745  usdcToken.transferFrom(from, address(this), amount) */\n      0x04\n      dup4\n      add\n        /* \"#utility.yul\":8330:8364   */\n      mstore\n        /* \"UmiversePayment_flattened.sol\":5731:5735  this */\n      address\n        /* \"#utility.yul\":8380:8398   */\n      0x24\n      dup4\n      add\n        /* \"#utility.yul\":8373:8416   */\n      mstore\n        /* \"#utility.yul\":8432:8450   */\n      0x44\n      dup3\n      add\n        /* \"#utility.yul\":8425:8459   */\n      dup7\n      swap1\n      mstore\n        /* \"UmiversePayment_flattened.sol\":5694:5703  usdcToken */\n      swap1\n      swap2\n      and\n      swap1\n        /* \"UmiversePayment_flattened.sol\":5694:5716  usdcToken.transferFrom */\n      0x23b872dd\n      swap1\n        /* \"#utility.yul\":8265:8283   */\n      0x64\n      add\n        /* \"UmiversePayment_flattened.sol\":5694:5745  usdcToken.transferFrom(from, address(this), amount) */\n      0x20\n      mload(0x40)\n      dup1\n      dup4\n      sub\n      dup2\n      0x00\n      dup8\n      gas\n      call\n      iszero\n      dup1\n      iszero\n      tag_114\n      jumpi\n      returndatasize\n      0x00\n      dup1\n      returndatacopy\n      revert(0x00, returndatasize)\n    tag_114:\n      pop\n      pop\n      pop\n      pop\n      mload(0x40)\n      returndatasize\n      not(0x1f)\n      0x1f\n      dup3\n      add\n      and\n      dup3\n      add\n      dup1\n      0x40\n      mstore\n      pop\n      dup2\n      add\n      swap1\n      tag_115\n      swap2\n      swap1\n      tag_92\n      jump\t// in\n    tag_115:\n        /* \"UmiversePayment_flattened.sol\":5686:5770  require(usdcToken.transferFrom(from, address(this), amount), \"USDC transfer failed\") */\n      tag_116\n      jumpi\n      mload(0x40)\n      shl(0xe5, 0x461bcd)\n      dup2\n      mstore\n        /* \"#utility.yul\":8672:8674   */\n      0x20\n        /* \"UmiversePayment_flattened.sol\":5686:5770  require(usdcToken.transferFrom(from, address(this), amount), \"USDC transfer failed\") */\n      0x04\n      dup3\n      add\n        /* \"#utility.yul\":8654:8675   */\n      mstore\n        /* \"#utility.yul\":8711:8713   */\n      0x14\n        /* \"#utility.yul\":8691:8709   */\n      0x24\n      dup3\n      add\n        /* \"#utility.yul\":8684:8714   */\n      mstore\n      shl(0x62, 0x1554d110c81d1c985b9cd9995c8819985a5b1959)\n        /* \"#utility.yul\":8730:8748   */\n      0x44\n      dup3\n      add\n        /* \"#utility.yul\":8723:8773   */\n      mstore\n        /* \"#utility.yul\":8790:8808   */\n      0x64\n      add\n        /* \"UmiversePayment_flattened.sol\":5686:5770  require(usdcToken.transferFrom(from, address(this), amount), \"USDC transfer failed\") */\n      tag_81\n        /* \"#utility.yul\":8470:8814   */\n      jump\n        /* \"UmiversePayment_flattened.sol\":5686:5770  require(usdcToken.transferFrom(from, address(this), amount), \"USDC transfer failed\") */\n    tag_116:\n        /* \"UmiversePayment_flattened.sol\":5789:5809  uint256 developerFee */\n      0x00\n        /* \"UmiversePayment_flattened.sol\":5812:5824  amount / 100 */\n      tag_119\n        /* \"UmiversePayment_flattened.sol\":5821:5824  100 */\n      0x64\n        /* \"UmiversePayment_flattened.sol\":5812:5818  amount */\n      dup6\n        /* \"UmiversePayment_flattened.sol\":5812:5824  amount / 100 */\n      tag_120\n      jump\t// in\n    tag_119:\n        /* \"UmiversePayment_flattened.sol\":5789:5824  uint256 developerFee = amount / 100 */\n      swap1\n      pop\n        /* \"UmiversePayment_flattened.sol\":5844:5867  uint256 recipientAmount */\n      0x00\n        /* \"UmiversePayment_flattened.sol\":5870:5891  amount - developerFee */\n      tag_121\n        /* \"UmiversePayment_flattened.sol\":5789:5824  uint256 developerFee = amount / 100 */\n      dup3\n        /* \"UmiversePayment_flattened.sol\":5870:5876  amount */\n      dup7\n        /* \"UmiversePayment_flattened.sol\":5870:5891  amount - developerFee */\n      tag_122\n      jump\t// in\n    tag_121:\n        /* \"UmiversePayment_flattened.sol\":5902:5911  usdcToken */\n      sload(0x03)\n      0x01\n        /* \"UmiversePayment_flattened.sol\":5921:5938  rewardPoolAddress */\n      sload\n        /* \"UmiversePayment_flattened.sol\":5902:5953  usdcToken.transfer(rewardPoolAddress, developerFee) */\n      mload(0x40)\n      shl(0xe0, 0xa9059cbb)\n      dup2\n      mstore\n      sub(shl(0xa0, 0x01), 0x01)\n        /* \"UmiversePayment_flattened.sol\":5921:5938  rewardPoolAddress */\n      swap2\n      dup3\n      and\n        /* \"UmiversePayment_flattened.sol\":5902:5953  usdcToken.transfer(rewardPoolAddress, developerFee) */\n      0x04\n      dup3\n      add\n        /* \"#utility.yul\":6110:6161   */\n      mstore\n        /* \"#utility.yul\":6177:6195   */\n      0x24\n      dup2\n      add\n        /* \"#utility.yul\":6170:6204   */\n      dup7\n      swap1\n      mstore\n        /* \"UmiversePayment_flattened.sol\":5844:5891  uint256 recipientAmount = amount - developerFee */\n      swap3\n      swap4\n      pop\n        /* \"UmiversePayment_flattened.sol\":5902:5911  usdcToken */\n      and\n      swap1\n        /* \"UmiversePayment_flattened.sol\":5902:5920  usdcToken.transfer */\n      0xa9059cbb\n      swap1\n        /* \"#utility.yul\":6083:6101   */\n      0x44\n      add\n        /* \"UmiversePayment_flattened.sol\":5902:5953  usdcToken.transfer(rewardPoolAddress, developerFee) */\n      0x20\n      mload(0x40)\n      dup1\n      dup4\n      sub\n      dup2\n      0x00\n      dup8\n      gas\n      call\n      iszero\n      dup1\n      iszero\n      tag_125\n      jumpi\n      returndatasize\n      0x00\n      dup1\n      returndatacopy\n      revert(0x00, returndatasize)\n    tag_125:\n      pop\n      pop\n      pop\n      pop\n      mload(0x40)\n      returndatasize\n      not(0x1f)\n      0x1f\n      dup3\n      add\n      and\n      dup3\n      add\n      dup1\n      0x40\n      mstore\n      pop\n      dup2\n      add\n      swap1\n      tag_126\n      swap2\n      swap1\n      tag_92\n      jump\t// in\n    tag_126:\n      pop\n        /* \"UmiversePayment_flattened.sol\":5963:5972  usdcToken */\n      sload(0x03)\n        /* \"UmiversePayment_flattened.sol\":5963:6009  usdcToken.transfer(recipient, recipientAmount) */\n      mload(0x40)\n      shl(0xe0, 0xa9059cbb)\n      dup2\n      mstore\n      sub(shl(0xa0, 0x01), 0x01)\n        /* \"#utility.yul\":6128:6160   */\n      dup10\n      dup2\n      and\n        /* \"UmiversePayment_flattened.sol\":5963:6009  usdcToken.transfer(recipient, recipientAmount) */\n      0x04\n      dup4\n      add\n        /* \"#utility.yul\":6110:6161   */\n      mstore\n        /* \"#utility.yul\":6177:6195   */\n      0x24\n      dup3\n      add\n        /* \"#utility.yul\":6170:6204   */\n      dup5\n      swap1\n      mstore\n        /* \"UmiversePayment_flattened.sol\":5963:5972  usdcToken */\n      swap1\n      swap2\n      and\n      swap1\n        /* \"UmiversePayment_flattened.sol\":5963:5981  usdcToken.transfer */\n      0xa9059cbb\n      swap1\n        /* \"#utility.yul\":6083:6101   */\n      0x44\n      add\n        /* \"UmiversePayment_flattened.sol\":5963:6009  usdcToken.transfer(recipient, recipientAmount) */\n      0x20\n      mload(0x40)\n      dup1\n      dup4\n      sub\n      dup2\n      0x00\n      dup8\n      gas\n      call\n      iszero\n      dup1\n      iszero\n      tag_129\n      jumpi\n      returndatasize\n      0x00\n      dup1\n      returndatacopy\n      revert(0x00, returndatasize)\n    tag_129:\n      pop\n      pop\n      pop\n      pop\n      mload(0x40)\n      returndatasize\n      not(0x1f)\n      0x1f\n      dup3\n      add\n      and\n      dup3\n      add\n      dup1\n      0x40\n      mstore\n      pop\n      dup2\n      add\n      swap1\n      tag_130\n      swap2\n      swap1\n      tag_92\n      jump\t// in\n    tag_130:\n      pop\n        /* \"UmiversePayment_flattened.sol\":6038:6106  Order(recipient, orderId, recipientAmount, developerFee, _timestamp) */\n      0x40\n      dup1\n      mload\n      0xa0\n      dup2\n      add\n      dup3\n      mstore\n      sub(shl(0xa0, 0x01), 0x01)\n      dup10\n      dup2\n      and\n      dup3\n      mstore\n      0x20\n      dup1\n      dup4\n      add\n      dup11\n      dup2\n      mstore\n      dup4\n      dup6\n      add\n      dup7\n      dup2\n      mstore\n      0x60\n      dup6\n      add\n      dup9\n      dup2\n      mstore\n      0x80\n      dup7\n      add\n      dup12\n      dup2\n      mstore\n      0x00\n        /* \"UmiversePayment_flattened.sol\":6020:6035  orders[orderId] */\n      dup15\n      dup2\n      mstore\n        /* \"UmiversePayment_flattened.sol\":6020:6026  orders */\n      0x04\n        /* \"UmiversePayment_flattened.sol\":6020:6035  orders[orderId] */\n      swap6\n      dup7\n      swap1\n      mstore\n      swap8\n      dup9\n      keccak256\n        /* \"UmiversePayment_flattened.sol\":6020:6106  orders[orderId] = Order(recipient, orderId, recipientAmount, developerFee, _timestamp) */\n      swap7\n      mload\n      dup8\n      sload\n      not(sub(shl(0xa0, 0x01), 0x01))\n      and\n      swap7\n      and\n      swap6\n      swap1\n      swap6\n      or\n      dup7\n      sstore\n      swap2\n      mload\n      0x01\n      dup1\n      dup8\n      add\n      swap2\n      swap1\n      swap2\n      sstore\n      swap1\n      mload\n      0x02\n      dup7\n      add\n      sstore\n      swap1\n      mload\n      0x03\n      dup6\n      add\n      sstore\n      swap2\n      mload\n      swap3\n      add\n      swap2\n      swap1\n      swap2\n      sstore\n        /* \"UmiversePayment_flattened.sol\":6116:6127  nextOrderId */\n      0x05\n        /* \"UmiversePayment_flattened.sol\":6116:6132  nextOrderId += 1 */\n      dup1\n      sload\n      swap2\n      swap3\n        /* \"UmiversePayment_flattened.sol\":6116:6127  nextOrderId */\n      swap1\n      swap2\n        /* \"UmiversePayment_flattened.sol\":6116:6132  nextOrderId += 1 */\n      tag_131\n      swap1\n      dup5\n      swap1\n      tag_132\n      jump\t// in\n    tag_131:\n      swap3\n      pop\n      pop\n      dup2\n      swap1\n      sstore\n      pop\n        /* \"UmiversePayment_flattened.sol\":6160:6169  recipient */\n      dup7\n      sub(shl(0xa0, 0x01), 0x01)\n        /* \"UmiversePayment_flattened.sol\":6148:6208  PaymentSent(recipient, orderId, recipientAmount, _signature) */\n      and\n      0x5128abb3a2724995d76ed092bf6bf634c1dd514c7c674eb3bbb1016c60559b33\n        /* \"UmiversePayment_flattened.sol\":6171:6178  orderId */\n      dup8\n        /* \"UmiversePayment_flattened.sol\":6180:6195  recipientAmount */\n      dup4\n        /* \"UmiversePayment_flattened.sol\":6197:6207  _signature */\n      dup7\n        /* \"UmiversePayment_flattened.sol\":6148:6208  PaymentSent(recipient, orderId, recipientAmount, _signature) */\n      mload(0x40)\n      tag_133\n      swap4\n      swap3\n      swap2\n      swap1\n      tag_134\n      jump\t// in\n    tag_133:\n      mload(0x40)\n      dup1\n      swap2\n      sub\n      swap1\n      log2\n        /* \"UmiversePayment_flattened.sol\":5307:6215  {... */\n      pop\n      pop\n        /* \"UmiversePayment_flattened.sol\":5169:6215  function sendUSDC(address from, address recipient, uint256 orderId, uint256 amount, uint256 _timestamp, bytes memory _signature) external {... */\n      pop\n      pop\n      pop\n      pop\n      pop\n      pop\n      jump\t// out\n        /* \"UmiversePayment_flattened.sol\":4790:5043  function config(address _usdcTokenAddress, address _rewardPoolAddress, address _signerAddress) public onlyOwner{... */\n    tag_54:\n        /* \"UmiversePayment_flattened.sol\":5102:5107  owner */\n      and(sub(shl(0xa0, 0x01), 0x01), sload(0x00))\n        /* \"UmiversePayment_flattened.sol\":5088:5098  msg.sender */\n      caller\n        /* \"UmiversePayment_flattened.sol\":5088:5107  msg.sender == owner */\n      eq\n        /* \"UmiversePayment_flattened.sol\":5080:5145  require(msg.sender == owner, \"Only owner can call this function\") */\n      tag_136\n      jumpi\n      mload(0x40)\n      shl(0xe5, 0x461bcd)\n      dup2\n      mstore\n      0x04\n      add\n      tag_81\n      swap1\n      tag_82\n      jump\t// in\n    tag_136:\n        /* \"UmiversePayment_flattened.sol\":4911:4928  rewardPoolAddress */\n      0x01\n        /* \"UmiversePayment_flattened.sol\":4911:4949  rewardPoolAddress = _rewardPoolAddress */\n      dup1\n      sload\n      sub(shl(0xa0, 0x01), 0x01)\n      swap4\n      dup5\n      and\n      not(sub(shl(0xa0, 0x01), 0x01))\n      swap2\n      dup3\n      and\n      or\n      swap1\n      swap2\n      sstore\n        /* \"UmiversePayment_flattened.sol\":4959:4972  signerAddress */\n      0x02\n        /* \"UmiversePayment_flattened.sol\":4959:4989  signerAddress = _signerAddress */\n      dup1\n      sload\n      swap3\n      dup5\n      and\n      swap3\n      dup3\n      and\n      swap3\n      swap1\n      swap3\n      or\n      swap1\n      swap2\n      sstore\n        /* \"UmiversePayment_flattened.sol\":4999:5008  usdcToken */\n      0x03\n        /* \"UmiversePayment_flattened.sol\":4999:5036  usdcToken = IERC20(_usdcTokenAddress) */\n      dup1\n      sload\n      swap4\n      swap1\n      swap3\n      and\n      swap3\n      and\n      swap2\n      swap1\n      swap2\n      or\n      swap1\n      sstore\n        /* \"UmiversePayment_flattened.sol\":4790:5043  function config(address _usdcTokenAddress, address _rewardPoolAddress, address _signerAddress) public onlyOwner{... */\n      jump\t// out\n        /* \"UmiversePayment_flattened.sol\":8154:8426  function recoverSignerPublic(... */\n    tag_61:\n        /* \"UmiversePayment_flattened.sol\":8282:8289  address */\n      0x00\n        /* \"UmiversePayment_flattened.sol\":8302:8311  bytes32 r */\n      dup1\n        /* \"UmiversePayment_flattened.sol\":8313:8322  bytes32 s */\n      0x00\n        /* \"UmiversePayment_flattened.sol\":8324:8331  uint8 v */\n      dup1\n        /* \"UmiversePayment_flattened.sol\":8335:8361  splitSignature(_signature) */\n      tag_140\n        /* \"UmiversePayment_flattened.sol\":8350:8360  _signature */\n      dup6\n        /* \"UmiversePayment_flattened.sol\":8335:8349  splitSignature */\n      tag_141\n        /* \"UmiversePayment_flattened.sol\":8335:8361  splitSignature(_signature) */\n      jump\t// in\n    tag_140:\n        /* \"UmiversePayment_flattened.sol\":8378:8419  ecrecover(_ethSignedMessageHash, v, r, s) */\n      0x40\n      dup1\n      mload\n      0x00\n      dup2\n      mstore\n      0x20\n      dup2\n      add\n      dup1\n      dup4\n      mstore\n        /* \"#utility.yul\":10456:10481   */\n      dup12\n      swap1\n      mstore\n        /* \"#utility.yul\":10529:10533   */\n      0xff\n        /* \"#utility.yul\":10517:10534   */\n      dup4\n      and\n        /* \"#utility.yul\":10497:10515   */\n      swap2\n      dup2\n      add\n        /* \"#utility.yul\":10490:10535   */\n      swap2\n      swap1\n      swap2\n      mstore\n        /* \"#utility.yul\":10551:10569   */\n      0x60\n      dup2\n      add\n        /* \"#utility.yul\":10544:10578   */\n      dup5\n      swap1\n      mstore\n        /* \"#utility.yul\":10594:10612   */\n      0x80\n      dup2\n      add\n        /* \"#utility.yul\":10587:10621   */\n      dup4\n      swap1\n      mstore\n        /* \"UmiversePayment_flattened.sol\":8301:8361  (bytes32 r, bytes32 s, uint8 v) = splitSignature(_signature) */\n      swap3\n      swap6\n      pop\n      swap1\n      swap4\n      pop\n      swap2\n      pop\n        /* \"UmiversePayment_flattened.sol\":8378:8419  ecrecover(_ethSignedMessageHash, v, r, s) */\n      0x01\n      swap1\n        /* \"#utility.yul\":10428:10447   */\n      0xa0\n      add\n        /* \"UmiversePayment_flattened.sol\":8378:8419  ecrecover(_ethSignedMessageHash, v, r, s) */\n      0x20\n      mload(0x40)\n      0x20\n      dup2\n      sub\n      swap1\n      dup1\n      dup5\n      sub\n      swap1\n      dup6\n      gas\n      staticcall\n      iszero\n      dup1\n      iszero\n      tag_145\n      jumpi\n      returndatasize\n      0x00\n      dup1\n      returndatacopy\n      revert(0x00, returndatasize)\n    tag_145:\n      pop\n      pop\n      mload(add(not(0x1f), mload(0x40)))\n      swap8\n        /* \"UmiversePayment_flattened.sol\":8154:8426  function recoverSignerPublic(... */\n      swap7\n      pop\n      pop\n      pop\n      pop\n      pop\n      pop\n      pop\n      jump\t// out\n        /* \"UmiversePayment_flattened.sol\":8750:8967  function compareStrings(string memory a, string memory b)... */\n    tag_70:\n        /* \"UmiversePayment_flattened.sol\":8855:8859  bool */\n      0x00\n        /* \"UmiversePayment_flattened.sol\":8956:8957  b */\n      dup2\n        /* \"UmiversePayment_flattened.sol\":8939:8958  abi.encodePacked(b) */\n      add(0x20, mload(0x40))\n      tag_147\n      swap2\n      swap1\n      tag_148\n      jump\t// in\n    tag_147:\n      mload(0x40)\n      0x20\n      dup2\n      dup4\n      sub\n      sub\n      dup2\n      mstore\n      swap1\n      0x40\n      mstore\n        /* \"UmiversePayment_flattened.sol\":8929:8959  keccak256(abi.encodePacked(b)) */\n      dup1\n      mload\n      swap1\n      0x20\n      add\n      keccak256\n        /* \"UmiversePayment_flattened.sol\":8910:8911  a */\n      dup4\n        /* \"UmiversePayment_flattened.sol\":8893:8912  abi.encodePacked(a) */\n      add(0x20, mload(0x40))\n      tag_149\n      swap2\n      swap1\n      tag_148\n      jump\t// in\n    tag_149:\n      mload(0x40)\n      0x20\n      dup2\n      dup4\n      sub\n      sub\n      dup2\n      mstore\n      swap1\n      0x40\n      mstore\n        /* \"UmiversePayment_flattened.sol\":8883:8913  keccak256(abi.encodePacked(a)) */\n      dup1\n      mload\n      swap1\n      0x20\n      add\n      keccak256\n        /* \"UmiversePayment_flattened.sol\":8883:8959  keccak256(abi.encodePacked(a)) ==... */\n      eq\n        /* \"UmiversePayment_flattened.sol\":8875:8960  return (keccak256(abi.encodePacked(a)) ==... */\n      swap1\n      pop\n        /* \"UmiversePayment_flattened.sol\":8750:8967  function compareStrings(string memory a, string memory b)... */\n      swap3\n      swap2\n      pop\n      pop\n      jump\t// out\n        /* \"UmiversePayment_flattened.sol\":7007:7552  function verify(... */\n    tag_107:\n        /* \"UmiversePayment_flattened.sol\":7215:7219  bool */\n      0x00\n        /* \"UmiversePayment_flattened.sol\":7231:7250  bytes32 messageHash */\n      dup1\n        /* \"UmiversePayment_flattened.sol\":7253:7387  getMessageHash(... */\n      tag_151\n        /* \"UmiversePayment_flattened.sol\":7281:7286  _from */\n      dup9\n        /* \"UmiversePayment_flattened.sol\":7300:7310  _recipient */\n      dup9\n        /* \"UmiversePayment_flattened.sol\":7324:7332  _orderId */\n      dup9\n        /* \"UmiversePayment_flattened.sol\":7346:7353  _amount */\n      dup9\n        /* \"UmiversePayment_flattened.sol\":7367:7377  _timestamp */\n      dup9\n        /* \"UmiversePayment_flattened.sol\":7253:7267  getMessageHash */\n      tag_37\n        /* \"UmiversePayment_flattened.sol\":7253:7387  getMessageHash(... */\n      jump\t// in\n    tag_151:\n        /* \"UmiversePayment_flattened.sol\":7231:7387  bytes32 messageHash = getMessageHash(... */\n      swap1\n      pop\n        /* \"UmiversePayment_flattened.sol\":7397:7425  bytes32 ethSignedMessageHash */\n      0x00\n        /* \"UmiversePayment_flattened.sol\":7428:7464  getEthSignedMessageHash(messageHash) */\n      tag_152\n        /* \"UmiversePayment_flattened.sol\":7452:7463  messageHash */\n      dup3\n        /* \"UmiversePayment_flattened.sol\":7729:7853  abi.encodePacked(... */\n      mload(0x40)\n        /* \"#utility.yul\":11508:11574   */\n      0x19457468657265756d205369676e6564204d6573736167653a0a333200000000\n        /* \"UmiversePayment_flattened.sol\":7729:7853  abi.encodePacked(... */\n      0x20\n      dup3\n      add\n        /* \"#utility.yul\":11496:11575   */\n      mstore\n        /* \"#utility.yul\":11591:11603   */\n      0x3c\n      dup2\n      add\n        /* \"#utility.yul\":11584:11612   */\n      dup3\n      swap1\n      mstore\n        /* \"UmiversePayment_flattened.sol\":7660:7667  bytes32 */\n      0x00\n      swap1\n        /* \"#utility.yul\":11628:11640   */\n      0x5c\n      add\n        /* \"UmiversePayment_flattened.sol\":7729:7853  abi.encodePacked(... */\n      mload(0x40)\n      0x20\n      dup2\n      dup4\n      sub\n      sub\n      dup2\n      mstore\n      swap1\n      0x40\n      mstore\n        /* \"UmiversePayment_flattened.sol\":7702:7867  keccak256(... */\n      dup1\n      mload\n      swap1\n      0x20\n      add\n      keccak256\n        /* \"UmiversePayment_flattened.sol\":7683:7867  return... */\n      swap1\n      pop\n        /* \"UmiversePayment_flattened.sol\":7558:7874  function getEthSignedMessageHash(bytes32 _messageHash)... */\n      swap2\n      swap1\n      pop\n      jump\n        /* \"UmiversePayment_flattened.sol\":7428:7464  getEthSignedMessageHash(messageHash) */\n    tag_152:\n        /* \"UmiversePayment_flattened.sol\":7532:7545  signerAddress */\n      sload(0x02)\n        /* \"UmiversePayment_flattened.sol\":7397:7464  bytes32 ethSignedMessageHash = getEthSignedMessageHash(messageHash) */\n      swap1\n      swap2\n      pop\n      sub(shl(0xa0, 0x01), 0x01)\n        /* \"UmiversePayment_flattened.sol\":7532:7545  signerAddress */\n      and\n        /* \"UmiversePayment_flattened.sol\":7481:7528  recoverSigner(ethSignedMessageHash, _signature) */\n      tag_154\n        /* \"UmiversePayment_flattened.sol\":7397:7464  bytes32 ethSignedMessageHash = getEthSignedMessageHash(messageHash) */\n      dup3\n        /* \"UmiversePayment_flattened.sol\":7517:7527  _signature */\n      dup7\n        /* \"UmiversePayment_flattened.sol\":7481:7494  recoverSigner */\n      tag_61\n        /* \"UmiversePayment_flattened.sol\":7481:7528  recoverSigner(ethSignedMessageHash, _signature) */\n      jump\t// in\n    tag_154:\n      sub(shl(0xa0, 0x01), 0x01)\n        /* \"UmiversePayment_flattened.sol\":7481:7545  recoverSigner(ethSignedMessageHash, _signature) == signerAddress */\n      and\n      eq\n      swap10\n        /* \"UmiversePayment_flattened.sol\":7007:7552  function verify(... */\n      swap9\n      pop\n      pop\n      pop\n      pop\n      pop\n      pop\n      pop\n      pop\n      pop\n      jump\t// out\n        /* \"UmiversePayment_flattened.sol\":8973:9362  function splitSignature(bytes memory sig)... */\n    tag_141:\n        /* \"UmiversePayment_flattened.sol\":9075:9084  bytes32 r */\n      0x00\n        /* \"UmiversePayment_flattened.sol\":9098:9107  bytes32 s */\n      dup1\n        /* \"UmiversePayment_flattened.sol\":9121:9128  uint8 v */\n      0x00\n        /* \"UmiversePayment_flattened.sol\":9161:9164  sig */\n      dup4\n        /* \"UmiversePayment_flattened.sol\":9161:9171  sig.length */\n      mload\n        /* \"UmiversePayment_flattened.sol\":9175:9177  65 */\n      0x41\n        /* \"UmiversePayment_flattened.sol\":9161:9177  sig.length == 65 */\n      eq\n        /* \"UmiversePayment_flattened.sol\":9153:9206  require(sig.length == 65, \"invalid signature length\") */\n      tag_157\n      jumpi\n      mload(0x40)\n      shl(0xe5, 0x461bcd)\n      dup2\n      mstore\n        /* \"#utility.yul\":11115:11117   */\n      0x20\n        /* \"UmiversePayment_flattened.sol\":9153:9206  require(sig.length == 65, \"invalid signature length\") */\n      0x04\n      dup3\n      add\n        /* \"#utility.yul\":11097:11118   */\n      mstore\n        /* \"#utility.yul\":11154:11156   */\n      0x18\n        /* \"#utility.yul\":11134:11152   */\n      0x24\n      dup3\n      add\n        /* \"#utility.yul\":11127:11157   */\n      mstore\n        /* \"#utility.yul\":11193:11219   */\n      0x696e76616c6964207369676e6174757265206c656e6774680000000000000000\n        /* \"#utility.yul\":11173:11191   */\n      0x44\n      dup3\n      add\n        /* \"#utility.yul\":11166:11220   */\n      mstore\n        /* \"#utility.yul\":11237:11255   */\n      0x64\n      add\n        /* \"UmiversePayment_flattened.sol\":9153:9206  require(sig.length == 65, \"invalid signature length\") */\n      tag_81\n        /* \"#utility.yul\":10913:11261   */\n      jump\n        /* \"UmiversePayment_flattened.sol\":9153:9206  require(sig.length == 65, \"invalid signature length\") */\n    tag_157:\n      pop\n      pop\n      pop\n        /* \"UmiversePayment_flattened.sol\":9259:9261  32 */\n      0x20\n        /* \"UmiversePayment_flattened.sol\":9250:9262  add(sig, 32) */\n      dup2\n      add\n        /* \"UmiversePayment_flattened.sol\":9244:9263  mload(add(sig, 32)) */\n      mload\n        /* \"UmiversePayment_flattened.sol\":9296:9298  64 */\n      0x40\n        /* \"UmiversePayment_flattened.sol\":9287:9299  add(sig, 64) */\n      dup3\n      add\n        /* \"UmiversePayment_flattened.sol\":9281:9300  mload(add(sig, 64)) */\n      mload\n        /* \"UmiversePayment_flattened.sol\":9341:9343  96 */\n      0x60\n        /* \"UmiversePayment_flattened.sol\":9332:9344  add(sig, 96) */\n      swap1\n      swap3\n      add\n        /* \"UmiversePayment_flattened.sol\":9326:9345  mload(add(sig, 96)) */\n      mload\n        /* \"UmiversePayment_flattened.sol\":9244:9263  mload(add(sig, 32)) */\n      swap1\n      swap3\n        /* \"UmiversePayment_flattened.sol\":9323:9324  0 */\n      0x00\n        /* \"UmiversePayment_flattened.sol\":9318:9346  byte(0, mload(add(sig, 96))) */\n      swap2\n      swap1\n      swap2\n      byte\n      swap1\n        /* \"UmiversePayment_flattened.sol\":8973:9362  function splitSignature(bytes memory sig)... */\n      jump\t// out\n        /* \"#utility.yul\":14:141   */\n    tag_168:\n        /* \"#utility.yul\":75:85   */\n      0x4e487b71\n        /* \"#utility.yul\":70:73   */\n      0xe0\n        /* \"#utility.yul\":66:86   */\n      shl\n        /* \"#utility.yul\":63:64   */\n      0x00\n        /* \"#utility.yul\":56:87   */\n      mstore\n        /* \"#utility.yul\":106:110   */\n      0x41\n        /* \"#utility.yul\":103:104   */\n      0x04\n        /* \"#utility.yul\":96:111   */\n      mstore\n        /* \"#utility.yul\":130:134   */\n      0x24\n        /* \"#utility.yul\":127:128   */\n      0x00\n        /* \"#utility.yul\":120:135   */\n      revert\n        /* \"#utility.yul\":146:778   */\n    tag_169:\n        /* \"#utility.yul\":211:216   */\n      0x00\n        /* \"#utility.yul\":241:259   */\n      0xffffffffffffffff\n        /* \"#utility.yul\":282:284   */\n      dup1\n        /* \"#utility.yul\":274:280   */\n      dup5\n        /* \"#utility.yul\":271:285   */\n      gt\n        /* \"#utility.yul\":268:308   */\n      iszero\n      tag_178\n      jumpi\n        /* \"#utility.yul\":288:306   */\n      tag_178\n      tag_168\n      jump\t// in\n    tag_178:\n        /* \"#utility.yul\":363:365   */\n      0x40\n        /* \"#utility.yul\":357:366   */\n      mload\n        /* \"#utility.yul\":331:333   */\n      0x1f\n        /* \"#utility.yul\":417:432   */\n      dup6\n      add\n      not(0x1f)\n        /* \"#utility.yul\":413:437   */\n      swap1\n      dup2\n      and\n        /* \"#utility.yul\":439:441   */\n      0x3f\n        /* \"#utility.yul\":409:442   */\n      add\n        /* \"#utility.yul\":405:447   */\n      and\n        /* \"#utility.yul\":393:448   */\n      dup2\n      add\n      swap1\n        /* \"#utility.yul\":463:481   */\n      dup3\n      dup3\n      gt\n        /* \"#utility.yul\":483:505   */\n      dup2\n      dup4\n      lt\n        /* \"#utility.yul\":460:506   */\n      or\n        /* \"#utility.yul\":457:529   */\n      iszero\n      tag_180\n      jumpi\n        /* \"#utility.yul\":509:527   */\n      tag_180\n      tag_168\n      jump\t// in\n    tag_180:\n        /* \"#utility.yul\":549:559   */\n      dup2\n        /* \"#utility.yul\":545:547   */\n      0x40\n        /* \"#utility.yul\":538:560   */\n      mstore\n        /* \"#utility.yul\":578:584   */\n      dup1\n        /* \"#utility.yul\":569:584   */\n      swap4\n      pop\n        /* \"#utility.yul\":608:614   */\n      dup6\n        /* \"#utility.yul\":600:606   */\n      dup2\n        /* \"#utility.yul\":593:615   */\n      mstore\n        /* \"#utility.yul\":648:651   */\n      dup7\n        /* \"#utility.yul\":639:645   */\n      dup7\n        /* \"#utility.yul\":634:637   */\n      dup7\n        /* \"#utility.yul\":630:646   */\n      add\n        /* \"#utility.yul\":627:652   */\n      gt\n        /* \"#utility.yul\":624:669   */\n      iszero\n      tag_181\n      jumpi\n        /* \"#utility.yul\":665:666   */\n      0x00\n        /* \"#utility.yul\":662:663   */\n      dup1\n        /* \"#utility.yul\":655:667   */\n      revert\n        /* \"#utility.yul\":624:669   */\n    tag_181:\n        /* \"#utility.yul\":715:721   */\n      dup6\n        /* \"#utility.yul\":710:713   */\n      dup6\n        /* \"#utility.yul\":703:707   */\n      0x20\n        /* \"#utility.yul\":695:701   */\n      dup4\n        /* \"#utility.yul\":691:708   */\n      add\n        /* \"#utility.yul\":678:722   */\n      calldatacopy\n        /* \"#utility.yul\":770:771   */\n      0x00\n        /* \"#utility.yul\":763:767   */\n      0x20\n        /* \"#utility.yul\":754:760   */\n      dup8\n        /* \"#utility.yul\":746:752   */\n      dup4\n        /* \"#utility.yul\":742:761   */\n      add\n        /* \"#utility.yul\":738:768   */\n      add\n        /* \"#utility.yul\":731:772   */\n      mstore\n      pop\n      pop\n      pop\n        /* \"#utility.yul\":146:778   */\n      swap4\n      swap3\n      pop\n      pop\n      pop\n      jump\t// out\n        /* \"#utility.yul\":783:1234   */\n    tag_18:\n        /* \"#utility.yul\":852:858   */\n      0x00\n        /* \"#utility.yul\":905:907   */\n      0x20\n        /* \"#utility.yul\":893:902   */\n      dup3\n        /* \"#utility.yul\":884:891   */\n      dup5\n        /* \"#utility.yul\":880:903   */\n      sub\n        /* \"#utility.yul\":876:908   */\n      slt\n        /* \"#utility.yul\":873:925   */\n      iszero\n      tag_183\n      jumpi\n        /* \"#utility.yul\":921:922   */\n      0x00\n        /* \"#utility.yul\":918:919   */\n      dup1\n        /* \"#utility.yul\":911:923   */\n      revert\n        /* \"#utility.yul\":873:925   */\n    tag_183:\n        /* \"#utility.yul\":961:970   */\n      dup2\n        /* \"#utility.yul\":948:971   */\n      calldataload\n        /* \"#utility.yul\":994:1012   */\n      0xffffffffffffffff\n        /* \"#utility.yul\":986:992   */\n      dup2\n        /* \"#utility.yul\":983:1013   */\n      gt\n        /* \"#utility.yul\":980:1030   */\n      iszero\n      tag_184\n      jumpi\n        /* \"#utility.yul\":1026:1027   */\n      0x00\n        /* \"#utility.yul\":1023:1024   */\n      dup1\n        /* \"#utility.yul\":1016:1028   */\n      revert\n        /* \"#utility.yul\":980:1030   */\n    tag_184:\n        /* \"#utility.yul\":1049:1071   */\n      dup3\n      add\n        /* \"#utility.yul\":1102:1106   */\n      0x1f\n        /* \"#utility.yul\":1094:1107   */\n      dup2\n      add\n        /* \"#utility.yul\":1090:1117   */\n      dup5\n      sgt\n        /* \"#utility.yul\":1080:1135   */\n      tag_185\n      jumpi\n        /* \"#utility.yul\":1131:1132   */\n      0x00\n        /* \"#utility.yul\":1128:1129   */\n      dup1\n        /* \"#utility.yul\":1121:1133   */\n      revert\n        /* \"#utility.yul\":1080:1135   */\n    tag_185:\n        /* \"#utility.yul\":1154:1228   */\n      tag_186\n        /* \"#utility.yul\":1220:1227   */\n      dup5\n        /* \"#utility.yul\":1215:1217   */\n      dup3\n        /* \"#utility.yul\":1202:1218   */\n      calldataload\n        /* \"#utility.yul\":1197:1199   */\n      0x20\n        /* \"#utility.yul\":1193:1195   */\n      dup5\n        /* \"#utility.yul\":1189:1200   */\n      add\n        /* \"#utility.yul\":1154:1228   */\n      tag_169\n      jump\t// in\n    tag_186:\n        /* \"#utility.yul\":1144:1228   */\n      swap5\n        /* \"#utility.yul\":783:1234   */\n      swap4\n      pop\n      pop\n      pop\n      pop\n      jump\t// out\n        /* \"#utility.yul\":1835:2015   */\n    tag_32:\n        /* \"#utility.yul\":1894:1900   */\n      0x00\n        /* \"#utility.yul\":1947:1949   */\n      0x20\n        /* \"#utility.yul\":1935:1944   */\n      dup3\n        /* \"#utility.yul\":1926:1933   */\n      dup5\n        /* \"#utility.yul\":1922:1945   */\n      sub\n        /* \"#utility.yul\":1918:1950   */\n      slt\n        /* \"#utility.yul\":1915:1967   */\n      iszero\n      tag_191\n      jumpi\n        /* \"#utility.yul\":1963:1964   */\n      0x00\n        /* \"#utility.yul\":1960:1961   */\n      dup1\n        /* \"#utility.yul\":1953:1965   */\n      revert\n        /* \"#utility.yul\":1915:1967   */\n    tag_191:\n      pop\n        /* \"#utility.yul\":1986:2009   */\n      calldataload\n      swap2\n        /* \"#utility.yul\":1835:2015   */\n      swap1\n      pop\n      jump\t// out\n        /* \"#utility.yul\":2020:2193   */\n    tag_170:\n        /* \"#utility.yul\":2088:2108   */\n      dup1\n      calldataload\n      sub(shl(0xa0, 0x01), 0x01)\n        /* \"#utility.yul\":2137:2168   */\n      dup2\n      and\n        /* \"#utility.yul\":2127:2169   */\n      dup2\n      eq\n        /* \"#utility.yul\":2117:2187   */\n      tag_193\n      jumpi\n        /* \"#utility.yul\":2183:2184   */\n      0x00\n        /* \"#utility.yul\":2180:2181   */\n      dup1\n        /* \"#utility.yul\":2173:2185   */\n      revert\n        /* \"#utility.yul\":2117:2187   */\n    tag_193:\n        /* \"#utility.yul\":2020:2193   */\n      swap2\n      swap1\n      pop\n      jump\t// out\n        /* \"#utility.yul\":2198:2664   */\n    tag_36:\n        /* \"#utility.yul\":2293:2299   */\n      0x00\n        /* \"#utility.yul\":2301:2307   */\n      dup1\n        /* \"#utility.yul\":2309:2315   */\n      0x00\n        /* \"#utility.yul\":2317:2323   */\n      dup1\n        /* \"#utility.yul\":2325:2331   */\n      0x00\n        /* \"#utility.yul\":2378:2381   */\n      0xa0\n        /* \"#utility.yul\":2366:2375   */\n      dup7\n        /* \"#utility.yul\":2357:2364   */\n      dup9\n        /* \"#utility.yul\":2353:2376   */\n      sub\n        /* \"#utility.yul\":2349:2382   */\n      slt\n        /* \"#utility.yul\":2346:2399   */\n      iszero\n      tag_195\n      jumpi\n        /* \"#utility.yul\":2395:2396   */\n      0x00\n        /* \"#utility.yul\":2392:2393   */\n      dup1\n        /* \"#utility.yul\":2385:2397   */\n      revert\n        /* \"#utility.yul\":2346:2399   */\n    tag_195:\n        /* \"#utility.yul\":2418:2447   */\n      tag_196\n        /* \"#utility.yul\":2437:2446   */\n      dup7\n        /* \"#utility.yul\":2418:2447   */\n      tag_170\n      jump\t// in\n    tag_196:\n        /* \"#utility.yul\":2408:2447   */\n      swap5\n      pop\n        /* \"#utility.yul\":2466:2504   */\n      tag_197\n        /* \"#utility.yul\":2500:2502   */\n      0x20\n        /* \"#utility.yul\":2489:2498   */\n      dup8\n        /* \"#utility.yul\":2485:2503   */\n      add\n        /* \"#utility.yul\":2466:2504   */\n      tag_170\n      jump\t// in\n    tag_197:\n        /* \"#utility.yul\":2198:2664   */\n      swap5\n      swap8\n        /* \"#utility.yul\":2456:2504   */\n      swap5\n      swap7\n      pop\n      pop\n      pop\n      pop\n        /* \"#utility.yul\":2551:2553   */\n      0x40\n        /* \"#utility.yul\":2536:2554   */\n      dup4\n      add\n        /* \"#utility.yul\":2523:2555   */\n      calldataload\n      swap3\n        /* \"#utility.yul\":2602:2604   */\n      0x60\n        /* \"#utility.yul\":2587:2605   */\n      dup2\n      add\n        /* \"#utility.yul\":2574:2606   */\n      calldataload\n      swap3\n        /* \"#utility.yul\":2653:2656   */\n      0x80\n        /* \"#utility.yul\":2638:2657   */\n      swap1\n      swap2\n      add\n        /* \"#utility.yul\":2625:2658   */\n      calldataload\n      swap2\n      pop\n        /* \"#utility.yul\":2198:2664   */\n      jump\t// out\n        /* \"#utility.yul\":3059:3280   */\n    tag_171:\n        /* \"#utility.yul\":3101:3106   */\n      0x00\n        /* \"#utility.yul\":3154:3157   */\n      dup3\n        /* \"#utility.yul\":3147:3151   */\n      0x1f\n        /* \"#utility.yul\":3139:3145   */\n      dup4\n        /* \"#utility.yul\":3135:3152   */\n      add\n        /* \"#utility.yul\":3131:3158   */\n      slt\n        /* \"#utility.yul\":3121:3176   */\n      tag_201\n      jumpi\n        /* \"#utility.yul\":3172:3173   */\n      0x00\n        /* \"#utility.yul\":3169:3170   */\n      dup1\n        /* \"#utility.yul\":3162:3174   */\n      revert\n        /* \"#utility.yul\":3121:3176   */\n    tag_201:\n        /* \"#utility.yul\":3194:3274   */\n      tag_202\n        /* \"#utility.yul\":3270:3273   */\n      dup4\n        /* \"#utility.yul\":3261:3267   */\n      dup4\n        /* \"#utility.yul\":3248:3268   */\n      calldataload\n        /* \"#utility.yul\":3241:3245   */\n      0x20\n        /* \"#utility.yul\":3233:3239   */\n      dup6\n        /* \"#utility.yul\":3229:3246   */\n      add\n        /* \"#utility.yul\":3194:3274   */\n      tag_169\n      jump\t// in\n    tag_202:\n        /* \"#utility.yul\":3185:3274   */\n      swap4\n        /* \"#utility.yul\":3059:3280   */\n      swap3\n      pop\n      pop\n      pop\n      jump\t// out\n        /* \"#utility.yul\":3285:3960   */\n    tag_46:\n        /* \"#utility.yul\":3398:3404   */\n      0x00\n        /* \"#utility.yul\":3406:3412   */\n      dup1\n        /* \"#utility.yul\":3414:3420   */\n      0x00\n        /* \"#utility.yul\":3422:3428   */\n      dup1\n        /* \"#utility.yul\":3430:3436   */\n      0x00\n        /* \"#utility.yul\":3438:3444   */\n      dup1\n        /* \"#utility.yul\":3491:3494   */\n      0xc0\n        /* \"#utility.yul\":3479:3488   */\n      dup8\n        /* \"#utility.yul\":3470:3477   */\n      dup10\n        /* \"#utility.yul\":3466:3489   */\n      sub\n        /* \"#utility.yul\":3462:3495   */\n      slt\n        /* \"#utility.yul\":3459:3512   */\n      iszero\n      tag_204\n      jumpi\n        /* \"#utility.yul\":3508:3509   */\n      0x00\n        /* \"#utility.yul\":3505:3506   */\n      dup1\n        /* \"#utility.yul\":3498:3510   */\n      revert\n        /* \"#utility.yul\":3459:3512   */\n    tag_204:\n        /* \"#utility.yul\":3531:3560   */\n      tag_205\n        /* \"#utility.yul\":3550:3559   */\n      dup8\n        /* \"#utility.yul\":3531:3560   */\n      tag_170\n      jump\t// in\n    tag_205:\n        /* \"#utility.yul\":3521:3560   */\n      swap6\n      pop\n        /* \"#utility.yul\":3579:3617   */\n      tag_206\n        /* \"#utility.yul\":3613:3615   */\n      0x20\n        /* \"#utility.yul\":3602:3611   */\n      dup9\n        /* \"#utility.yul\":3598:3616   */\n      add\n        /* \"#utility.yul\":3579:3617   */\n      tag_170\n      jump\t// in\n    tag_206:\n        /* \"#utility.yul\":3569:3617   */\n      swap5\n      pop\n        /* \"#utility.yul\":3664:3666   */\n      0x40\n        /* \"#utility.yul\":3653:3662   */\n      dup8\n        /* \"#utility.yul\":3649:3667   */\n      add\n        /* \"#utility.yul\":3636:3668   */\n      calldataload\n        /* \"#utility.yul\":3626:3668   */\n      swap4\n      pop\n        /* \"#utility.yul\":3715:3717   */\n      0x60\n        /* \"#utility.yul\":3704:3713   */\n      dup8\n        /* \"#utility.yul\":3700:3718   */\n      add\n        /* \"#utility.yul\":3687:3719   */\n      calldataload\n        /* \"#utility.yul\":3677:3719   */\n      swap3\n      pop\n        /* \"#utility.yul\":3766:3769   */\n      0x80\n        /* \"#utility.yul\":3755:3764   */\n      dup8\n        /* \"#utility.yul\":3751:3770   */\n      add\n        /* \"#utility.yul\":3738:3771   */\n      calldataload\n        /* \"#utility.yul\":3728:3771   */\n      swap2\n      pop\n        /* \"#utility.yul\":3822:3825   */\n      0xa0\n        /* \"#utility.yul\":3811:3820   */\n      dup8\n        /* \"#utility.yul\":3807:3826   */\n      add\n        /* \"#utility.yul\":3794:3827   */\n      calldataload\n        /* \"#utility.yul\":3850:3868   */\n      0xffffffffffffffff\n        /* \"#utility.yul\":3842:3848   */\n      dup2\n        /* \"#utility.yul\":3839:3869   */\n      gt\n        /* \"#utility.yul\":3836:3886   */\n      iszero\n      tag_207\n      jumpi\n        /* \"#utility.yul\":3882:3883   */\n      0x00\n        /* \"#utility.yul\":3879:3880   */\n      dup1\n        /* \"#utility.yul\":3872:3884   */\n      revert\n        /* \"#utility.yul\":3836:3886   */\n    tag_207:\n        /* \"#utility.yul\":3905:3954   */\n      tag_208\n        /* \"#utility.yul\":3946:3953   */\n      dup10\n        /* \"#utility.yul\":3937:3943   */\n      dup3\n        /* \"#utility.yul\":3926:3935   */\n      dup11\n        /* \"#utility.yul\":3922:3944   */\n      add\n        /* \"#utility.yul\":3905:3954   */\n      tag_171\n      jump\t// in\n    tag_208:\n        /* \"#utility.yul\":3895:3954   */\n      swap2\n      pop\n      pop\n        /* \"#utility.yul\":3285:3960   */\n      swap3\n      swap6\n      pop\n      swap3\n      swap6\n      pop\n      swap3\n      swap6\n      jump\t// out\n        /* \"#utility.yul\":3965:4299   */\n    tag_53:\n        /* \"#utility.yul\":4042:4048   */\n      0x00\n        /* \"#utility.yul\":4050:4056   */\n      dup1\n        /* \"#utility.yul\":4058:4064   */\n      0x00\n        /* \"#utility.yul\":4111:4113   */\n      0x60\n        /* \"#utility.yul\":4099:4108   */\n      dup5\n        /* \"#utility.yul\":4090:4097   */\n      dup7\n        /* \"#utility.yul\":4086:4109   */\n      sub\n        /* \"#utility.yul\":4082:4114   */\n      slt\n        /* \"#utility.yul\":4079:4131   */\n      iszero\n      tag_210\n      jumpi\n        /* \"#utility.yul\":4127:4128   */\n      0x00\n        /* \"#utility.yul\":4124:4125   */\n      dup1\n        /* \"#utility.yul\":4117:4129   */\n      revert\n        /* \"#utility.yul\":4079:4131   */\n    tag_210:\n        /* \"#utility.yul\":4150:4179   */\n      tag_211\n        /* \"#utility.yul\":4169:4178   */\n      dup5\n        /* \"#utility.yul\":4150:4179   */\n      tag_170\n      jump\t// in\n    tag_211:\n        /* \"#utility.yul\":4140:4179   */\n      swap3\n      pop\n        /* \"#utility.yul\":4198:4236   */\n      tag_212\n        /* \"#utility.yul\":4232:4234   */\n      0x20\n        /* \"#utility.yul\":4221:4230   */\n      dup6\n        /* \"#utility.yul\":4217:4235   */\n      add\n        /* \"#utility.yul\":4198:4236   */\n      tag_170\n      jump\t// in\n    tag_212:\n        /* \"#utility.yul\":4188:4236   */\n      swap2\n      pop\n        /* \"#utility.yul\":4255:4293   */\n      tag_213\n        /* \"#utility.yul\":4289:4291   */\n      0x40\n        /* \"#utility.yul\":4278:4287   */\n      dup6\n        /* \"#utility.yul\":4274:4292   */\n      add\n        /* \"#utility.yul\":4255:4293   */\n      tag_170\n      jump\t// in\n    tag_213:\n        /* \"#utility.yul\":4245:4293   */\n      swap1\n      pop\n        /* \"#utility.yul\":3965:4299   */\n      swap3\n      pop\n      swap3\n      pop\n      swap3\n      jump\t// out\n        /* \"#utility.yul\":4304:4692   */\n    tag_60:\n        /* \"#utility.yul\":4381:4387   */\n      0x00\n        /* \"#utility.yul\":4389:4395   */\n      dup1\n        /* \"#utility.yul\":4442:4444   */\n      0x40\n        /* \"#utility.yul\":4430:4439   */\n      dup4\n        /* \"#utility.yul\":4421:4428   */\n      dup6\n        /* \"#utility.yul\":4417:4440   */\n      sub\n        /* \"#utility.yul\":4413:4445   */\n      slt\n        /* \"#utility.yul\":4410:4462   */\n      iszero\n      tag_215\n      jumpi\n        /* \"#utility.yul\":4458:4459   */\n      0x00\n        /* \"#utility.yul\":4455:4456   */\n      dup1\n        /* \"#utility.yul\":4448:4460   */\n      revert\n        /* \"#utility.yul\":4410:4462   */\n    tag_215:\n        /* \"#utility.yul\":4494:4503   */\n      dup3\n        /* \"#utility.yul\":4481:4504   */\n      calldataload\n        /* \"#utility.yul\":4471:4504   */\n      swap2\n      pop\n        /* \"#utility.yul\":4555:4557   */\n      0x20\n        /* \"#utility.yul\":4544:4553   */\n      dup4\n        /* \"#utility.yul\":4540:4558   */\n      add\n        /* \"#utility.yul\":4527:4559   */\n      calldataload\n        /* \"#utility.yul\":4582:4600   */\n      0xffffffffffffffff\n        /* \"#utility.yul\":4574:4580   */\n      dup2\n        /* \"#utility.yul\":4571:4601   */\n      gt\n        /* \"#utility.yul\":4568:4618   */\n      iszero\n      tag_216\n      jumpi\n        /* \"#utility.yul\":4614:4615   */\n      0x00\n        /* \"#utility.yul\":4611:4612   */\n      dup1\n        /* \"#utility.yul\":4604:4616   */\n      revert\n        /* \"#utility.yul\":4568:4618   */\n    tag_216:\n        /* \"#utility.yul\":4637:4686   */\n      tag_217\n        /* \"#utility.yul\":4678:4685   */\n      dup6\n        /* \"#utility.yul\":4669:4675   */\n      dup3\n        /* \"#utility.yul\":4658:4667   */\n      dup7\n        /* \"#utility.yul\":4654:4676   */\n      add\n        /* \"#utility.yul\":4637:4686   */\n      tag_171\n      jump\t// in\n    tag_217:\n        /* \"#utility.yul\":4627:4686   */\n      swap2\n      pop\n      pop\n        /* \"#utility.yul\":4304:4692   */\n      swap3\n      pop\n      swap3\n      swap1\n      pop\n      jump\t// out\n        /* \"#utility.yul\":5191:5588   */\n    tag_82:\n        /* \"#utility.yul\":5393:5395   */\n      0x20\n        /* \"#utility.yul\":5375:5396   */\n      dup1\n      dup3\n      mstore\n        /* \"#utility.yul\":5432:5434   */\n      0x21\n        /* \"#utility.yul\":5412:5430   */\n      swap1\n      dup3\n      add\n        /* \"#utility.yul\":5405:5435   */\n      mstore\n        /* \"#utility.yul\":5471:5505   */\n      0x4f6e6c79206f776e65722063616e2063616c6c20746869732066756e6374696f\n        /* \"#utility.yul\":5466:5468   */\n      0x40\n        /* \"#utility.yul\":5451:5469   */\n      dup3\n      add\n        /* \"#utility.yul\":5444:5506   */\n      mstore\n      shl(0xf9, 0x37)\n        /* \"#utility.yul\":5537:5539   */\n      0x60\n        /* \"#utility.yul\":5522:5540   */\n      dup3\n      add\n        /* \"#utility.yul\":5515:5546   */\n      mstore\n        /* \"#utility.yul\":5578:5581   */\n      0x80\n        /* \"#utility.yul\":5563:5582   */\n      add\n      swap1\n        /* \"#utility.yul\":5191:5588   */\n      jump\t// out\n        /* \"#utility.yul\":6215:6492   */\n    tag_92:\n        /* \"#utility.yul\":6282:6288   */\n      0x00\n        /* \"#utility.yul\":6335:6337   */\n      0x20\n        /* \"#utility.yul\":6323:6332   */\n      dup3\n        /* \"#utility.yul\":6314:6321   */\n      dup5\n        /* \"#utility.yul\":6310:6333   */\n      sub\n        /* \"#utility.yul\":6306:6338   */\n      slt\n        /* \"#utility.yul\":6303:6355   */\n      iszero\n      tag_223\n      jumpi\n        /* \"#utility.yul\":6351:6352   */\n      0x00\n        /* \"#utility.yul\":6348:6349   */\n      dup1\n        /* \"#utility.yul\":6341:6353   */\n      revert\n        /* \"#utility.yul\":6303:6355   */\n    tag_223:\n        /* \"#utility.yul\":6383:6392   */\n      dup2\n        /* \"#utility.yul\":6377:6393   */\n      mload\n        /* \"#utility.yul\":6436:6441   */\n      dup1\n        /* \"#utility.yul\":6429:6442   */\n      iszero\n        /* \"#utility.yul\":6422:6443   */\n      iszero\n        /* \"#utility.yul\":6415:6420   */\n      dup2\n        /* \"#utility.yul\":6412:6444   */\n      eq\n        /* \"#utility.yul\":6402:6462   */\n      tag_202\n      jumpi\n        /* \"#utility.yul\":6458:6459   */\n      0x00\n        /* \"#utility.yul\":6455:6456   */\n      dup1\n        /* \"#utility.yul\":6448:6460   */\n      revert\n        /* \"#utility.yul\":8819:8946   */\n    tag_172:\n        /* \"#utility.yul\":8880:8890   */\n      0x4e487b71\n        /* \"#utility.yul\":8875:8878   */\n      0xe0\n        /* \"#utility.yul\":8871:8891   */\n      shl\n        /* \"#utility.yul\":8868:8869   */\n      0x00\n        /* \"#utility.yul\":8861:8892   */\n      mstore\n        /* \"#utility.yul\":8911:8915   */\n      0x11\n        /* \"#utility.yul\":8908:8909   */\n      0x04\n        /* \"#utility.yul\":8901:8916   */\n      mstore\n        /* \"#utility.yul\":8935:8939   */\n      0x24\n        /* \"#utility.yul\":8932:8933   */\n      0x00\n        /* \"#utility.yul\":8925:8940   */\n      revert\n        /* \"#utility.yul\":8951:9168   */\n    tag_120:\n        /* \"#utility.yul\":8991:8992   */\n      0x00\n        /* \"#utility.yul\":9017:9018   */\n      dup3\n        /* \"#utility.yul\":9007:9139   */\n      tag_233\n      jumpi\n        /* \"#utility.yul\":9061:9071   */\n      0x4e487b71\n        /* \"#utility.yul\":9056:9059   */\n      0xe0\n        /* \"#utility.yul\":9052:9072   */\n      shl\n        /* \"#utility.yul\":9049:9050   */\n      0x00\n        /* \"#utility.yul\":9042:9073   */\n      mstore\n        /* \"#utility.yul\":9096:9100   */\n      0x12\n        /* \"#utility.yul\":9093:9094   */\n      0x04\n        /* \"#utility.yul\":9086:9101   */\n      mstore\n        /* \"#utility.yul\":9124:9128   */\n      0x24\n        /* \"#utility.yul\":9121:9122   */\n      0x00\n        /* \"#utility.yul\":9114:9129   */\n      revert\n        /* \"#utility.yul\":9007:9139   */\n    tag_233:\n      pop\n        /* \"#utility.yul\":9153:9162   */\n      div\n      swap1\n        /* \"#utility.yul\":8951:9168   */\n      jump\t// out\n        /* \"#utility.yul\":9173:9298   */\n    tag_122:\n        /* \"#utility.yul\":9213:9217   */\n      0x00\n        /* \"#utility.yul\":9241:9242   */\n      dup3\n        /* \"#utility.yul\":9238:9239   */\n      dup3\n        /* \"#utility.yul\":9235:9243   */\n      lt\n        /* \"#utility.yul\":9232:9266   */\n      iszero\n      tag_236\n      jumpi\n        /* \"#utility.yul\":9246:9264   */\n      tag_236\n      tag_172\n      jump\t// in\n    tag_236:\n      pop\n        /* \"#utility.yul\":9283:9292   */\n      sub\n      swap1\n        /* \"#utility.yul\":9173:9298   */\n      jump\t// out\n        /* \"#utility.yul\":9303:9431   */\n    tag_132:\n        /* \"#utility.yul\":9343:9346   */\n      0x00\n        /* \"#utility.yul\":9374:9375   */\n      dup3\n        /* \"#utility.yul\":9370:9376   */\n      not\n        /* \"#utility.yul\":9367:9368   */\n      dup3\n        /* \"#utility.yul\":9364:9377   */\n      gt\n        /* \"#utility.yul\":9361:9400   */\n      iszero\n      tag_239\n      jumpi\n        /* \"#utility.yul\":9380:9398   */\n      tag_239\n      tag_172\n      jump\t// in\n    tag_239:\n      pop\n        /* \"#utility.yul\":9416:9425   */\n      add\n      swap1\n        /* \"#utility.yul\":9303:9431   */\n      jump\t// out\n        /* \"#utility.yul\":9436:9694   */\n    tag_173:\n        /* \"#utility.yul\":9508:9509   */\n      0x00\n        /* \"#utility.yul\":9518:9631   */\n    tag_241:\n        /* \"#utility.yul\":9532:9538   */\n      dup4\n        /* \"#utility.yul\":9529:9530   */\n      dup2\n        /* \"#utility.yul\":9526:9539   */\n      lt\n        /* \"#utility.yul\":9518:9631   */\n      iszero\n      tag_243\n      jumpi\n        /* \"#utility.yul\":9608:9619   */\n      dup2\n      dup2\n      add\n        /* \"#utility.yul\":9602:9620   */\n      mload\n        /* \"#utility.yul\":9589:9600   */\n      dup4\n      dup3\n      add\n        /* \"#utility.yul\":9582:9621   */\n      mstore\n        /* \"#utility.yul\":9554:9556   */\n      0x20\n        /* \"#utility.yul\":9547:9557   */\n      add\n        /* \"#utility.yul\":9518:9631   */\n      jump(tag_241)\n    tag_243:\n        /* \"#utility.yul\":9649:9655   */\n      dup4\n        /* \"#utility.yul\":9646:9647   */\n      dup2\n        /* \"#utility.yul\":9643:9656   */\n      gt\n        /* \"#utility.yul\":9640:9688   */\n      iszero\n      tag_244\n      jumpi\n        /* \"#utility.yul\":9684:9685   */\n      0x00\n        /* \"#utility.yul\":9675:9681   */\n      dup5\n        /* \"#utility.yul\":9670:9673   */\n      dup5\n        /* \"#utility.yul\":9666:9682   */\n      add\n        /* \"#utility.yul\":9659:9686   */\n      mstore\n        /* \"#utility.yul\":9640:9688   */\n    tag_244:\n      pop\n        /* \"#utility.yul\":9436:9694   */\n      pop\n      pop\n      pop\n      jump\t// out\n        /* \"#utility.yul\":9699:10224   */\n    tag_134:\n        /* \"#utility.yul\":9902:9908   */\n      dup4\n        /* \"#utility.yul\":9891:9900   */\n      dup2\n        /* \"#utility.yul\":9884:9909   */\n      mstore\n        /* \"#utility.yul\":9945:9951   */\n      dup3\n        /* \"#utility.yul\":9940:9942   */\n      0x20\n        /* \"#utility.yul\":9929:9938   */\n      dup3\n        /* \"#utility.yul\":9925:9943   */\n      add\n        /* \"#utility.yul\":9918:9952   */\n      mstore\n        /* \"#utility.yul\":9988:9990   */\n      0x60\n        /* \"#utility.yul\":9983:9985   */\n      0x40\n        /* \"#utility.yul\":9972:9981   */\n      dup3\n        /* \"#utility.yul\":9968:9986   */\n      add\n        /* \"#utility.yul\":9961:9991   */\n      mstore\n        /* \"#utility.yul\":9865:9869   */\n      0x00\n        /* \"#utility.yul\":10020:10026   */\n      dup3\n        /* \"#utility.yul\":10014:10027   */\n      mload\n        /* \"#utility.yul\":10063:10069   */\n      dup1\n        /* \"#utility.yul\":10058:10060   */\n      0x60\n        /* \"#utility.yul\":10047:10056   */\n      dup5\n        /* \"#utility.yul\":10043:10061   */\n      add\n        /* \"#utility.yul\":10036:10070   */\n      mstore\n        /* \"#utility.yul\":10079:10146   */\n      tag_246\n        /* \"#utility.yul\":10139:10145   */\n      dup2\n        /* \"#utility.yul\":10133:10136   */\n      0x80\n        /* \"#utility.yul\":10122:10131   */\n      dup6\n        /* \"#utility.yul\":10118:10137   */\n      add\n        /* \"#utility.yul\":10113:10115   */\n      0x20\n        /* \"#utility.yul\":10105:10111   */\n      dup8\n        /* \"#utility.yul\":10101:10116   */\n      add\n        /* \"#utility.yul\":10079:10146   */\n      tag_173\n      jump\t// in\n    tag_246:\n        /* \"#utility.yul\":10207:10209   */\n      0x1f\n        /* \"#utility.yul\":10186:10201   */\n      add\n      not(0x1f)\n        /* \"#utility.yul\":10182:10211   */\n      and\n        /* \"#utility.yul\":10167:10212   */\n      swap2\n      swap1\n      swap2\n      add\n        /* \"#utility.yul\":10214:10217   */\n      0x80\n        /* \"#utility.yul\":10163:10218   */\n      add\n      swap5\n        /* \"#utility.yul\":9699:10224   */\n      swap4\n      pop\n      pop\n      pop\n      pop\n      jump\t// out\n        /* \"#utility.yul\":10632:10908   */\n    tag_148:\n        /* \"#utility.yul\":10763:10766   */\n      0x00\n        /* \"#utility.yul\":10801:10807   */\n      dup3\n        /* \"#utility.yul\":10795:10808   */\n      mload\n        /* \"#utility.yul\":10817:10870   */\n      tag_249\n        /* \"#utility.yul\":10863:10869   */\n      dup2\n        /* \"#utility.yul\":10858:10861   */\n      dup5\n        /* \"#utility.yul\":10851:10855   */\n      0x20\n        /* \"#utility.yul\":10843:10849   */\n      dup8\n        /* \"#utility.yul\":10839:10856   */\n      add\n        /* \"#utility.yul\":10817:10870   */\n      tag_173\n      jump\t// in\n    tag_249:\n        /* \"#utility.yul\":10886:10902   */\n      swap2\n      swap1\n      swap2\n      add\n      swap3\n        /* \"#utility.yul\":10632:10908   */\n      swap2\n      pop\n      pop\n      jump\t// out\n\n    auxdata: 0xa2646970667358221220049ab2718892c540446da6270d71796b3cf3a0cc58f4ee0ed3d2c403294fb7c964736f6c634300080d0033\n}\n",
				"bytecode": {
					"linkReferences": {},
					"object": "6080604052600160055534801561001557600080fd5b50604051610fd6380380610fd68339810160408190526100349161009f565b60008054336001600160a01b0319918216179091556001805482166001600160a01b039485161790556002805482169284169290921790915560038054909116929091169190911790556100e2565b80516001600160a01b038116811461009a57600080fd5b919050565b6000806000606084860312156100b457600080fd5b6100bd84610083565b92506100cb60208501610083565b91506100d960408501610083565b90509250925092565b610ee5806100f16000396000f3fe608060405234801561001057600080fd5b50600436106100b45760003560e01c80637ccbf83e116100715780637ccbf83e1461015e578063845a51ec1461017157806387336111146101845780638da5cb5b146101975780639f2585a1146101aa578063a85c38ef146101bd57600080fd5b80630d3652ec146100b957806311eac855146100e15780632a58b3301461010c578063315a095d1461012357806359e1abaa146101385780635b7633d01461014b575b600080fd5b6100cc6100c7366004610b5a565b610237565b60405190151581526020015b60405180910390f35b6003546100f4906001600160a01b031681565b6040516001600160a01b0390911681526020016100d8565b61011560055481565b6040519081526020016100d8565b610136610131366004610bab565b610318565b005b610115610146366004610be0565b61047f565b6002546100f4906001600160a01b031681565b61013661016c366004610c54565b6104e1565b6001546100f4906001600160a01b031681565b610136610192366004610cce565b61087b565b6000546100f4906001600160a01b031681565b6100f46101b8366004610d11565b6108e7565b6102056101cb366004610bab565b6004602081905260009182526040909120805460018201546002830154600384015493909401546001600160a01b03909216939092909185565b604080516001600160a01b0390961686526020860194909452928401919091526060830152608082015260a0016100d8565b600061025f82604051806040016040528060048152602001631d5cd91d60e21b815250610966565b8061028b575061028b82604051806040016040528060048152602001637573646360e01b815250610966565b806102b657506102b68260405180604001604052806003815260200162756d6960e81b815250610966565b806102e757506102e78260405180604001604052806009815260200168191a5d995c1bda5b9d60ba1b815250610966565b80610312575061031282604051806040016040528060038152602001620cae8d60eb1b815250610966565b92915050565b6000546001600160a01b0316331461034b5760405162461bcd60e51b815260040161034290610d58565b60405180910390fd5b6000811161038c5760405162461bcd60e51b815260206004820152600e60248201526d125b9d985b1a5908185b5bdd5b9d60921b6044820152606401610342565b60035460005460405163a9059cbb60e01b81526001600160a01b0391821660048201526024810184905291169063a9059cbb906044016020604051808303816000875af11580156103e1573d6000803e3d6000fd5b505050506040513d601f19601f820116820180604052508101906104059190610d99565b6104495760405162461bcd60e51b8152602060048201526015602482015274151bdad95b881d1c985b9cd9995c8819985a5b1959605a1b6044820152606401610342565b6040518181527f9c6393f251205f9e03559951cab4c9ae71767b6174f77944a5b0c2fa51fbda9f9060200160405180910390a150565b6040516bffffffffffffffffffffffff19606087811b8216602084015286901b16603482015260488101849052606881018390526088810182905260009060a80160405160208183030381529060405280519060200120905095945050505050565b600083116105225760405162461bcd60e51b815260206004820152600e60248201526d125b9d985b1a5908185b5bdd5b9d60921b6044820152606401610342565b6001600160a01b0386166105785760405162461bcd60e51b815260206004820152601c60248201527f43563a2066726f6d20746f20746865207a65726f2061646472657373000000006044820152606401610342565b6105868686868686866109bf565b6105cb5760405162461bcd60e51b815260206004820152601660248201527543563a20696e76616c6964205f7369676e617475726560501b6044820152606401610342565b6003546040516323b872dd60e01b81526001600160a01b03888116600483015230602483015260448201869052909116906323b872dd906064016020604051808303816000875af1158015610624573d6000803e3d6000fd5b505050506040513d601f19601f820116820180604052508101906106489190610d99565b61068b5760405162461bcd60e51b81526020600482015260146024820152731554d110c81d1c985b9cd9995c8819985a5b195960621b6044820152606401610342565b6000610698606485610dd1565b905060006106a68286610df3565b60035460015460405163a9059cbb60e01b81526001600160a01b03918216600482015260248101869052929350169063a9059cbb906044016020604051808303816000875af11580156106fd573d6000803e3d6000fd5b505050506040513d601f19601f820116820180604052508101906107219190610d99565b5060035460405163a9059cbb60e01b81526001600160a01b038981166004830152602482018490529091169063a9059cbb906044016020604051808303816000875af1158015610775573d6000803e3d6000fd5b505050506040513d601f19601f820116820180604052508101906107999190610d99565b506040805160a0810182526001600160a01b03898116825260208083018a815283850186815260608501888152608086018b815260008e8152600495869052978820965187546001600160a01b03191696169590951786559151600180870191909155905160028601559051600385015591519201919091556005805491929091610825908490610e0a565b92505081905550866001600160a01b03167f5128abb3a2724995d76ed092bf6bf634c1dd514c7c674eb3bbb1016c60559b3387838660405161086993929190610e52565b60405180910390a25050505050505050565b6000546001600160a01b031633146108a55760405162461bcd60e51b815260040161034290610d58565b600180546001600160a01b039384166001600160a01b031991821617909155600280549284169282169290921790915560038054939092169216919091179055565b6000806000806108f685610a5a565b6040805160008152602081018083528b905260ff8316918101919091526060810184905260808101839052929550909350915060019060a0016020604051602081039080840390855afa158015610951573d6000803e3d6000fd5b5050604051601f190151979650505050505050565b6000816040516020016109799190610e93565b60405160208183030381529060405280519060200120836040516020016109a09190610e93565b6040516020818303038152906040528051906020012014905092915050565b6000806109cf888888888861047f565b90506000610a2a826040517f19457468657265756d205369676e6564204d6573736167653a0a3332000000006020820152603c8101829052600090605c01604051602081830303815290604052805190602001209050919050565b6002549091506001600160a01b0316610a4382866108e7565b6001600160a01b0316149998505050505050505050565b60008060008351604114610ab05760405162461bcd60e51b815260206004820152601860248201527f696e76616c6964207369676e6174757265206c656e67746800000000000000006044820152606401610342565b50505060208101516040820151606090920151909260009190911a90565b634e487b7160e01b600052604160045260246000fd5b600067ffffffffffffffff80841115610aff57610aff610ace565b604051601f8501601f19908116603f01168101908282118183101715610b2757610b27610ace565b81604052809350858152868686011115610b4057600080fd5b858560208301376000602087830101525050509392505050565b600060208284031215610b6c57600080fd5b813567ffffffffffffffff811115610b8357600080fd5b8201601f81018413610b9457600080fd5b610ba384823560208401610ae4565b949350505050565b600060208284031215610bbd57600080fd5b5035919050565b80356001600160a01b0381168114610bdb57600080fd5b919050565b600080600080600060a08688031215610bf857600080fd5b610c0186610bc4565b9450610c0f60208701610bc4565b94979496505050506040830135926060810135926080909101359150565b600082601f830112610c3e57600080fd5b610c4d83833560208501610ae4565b9392505050565b60008060008060008060c08789031215610c6d57600080fd5b610c7687610bc4565b9550610c8460208801610bc4565b945060408701359350606087013592506080870135915060a087013567ffffffffffffffff811115610cb557600080fd5b610cc189828a01610c2d565b9150509295509295509295565b600080600060608486031215610ce357600080fd5b610cec84610bc4565b9250610cfa60208501610bc4565b9150610d0860408501610bc4565b90509250925092565b60008060408385031215610d2457600080fd5b82359150602083013567ffffffffffffffff811115610d4257600080fd5b610d4e85828601610c2d565b9150509250929050565b60208082526021908201527f4f6e6c79206f776e65722063616e2063616c6c20746869732066756e6374696f6040820152603760f91b606082015260800190565b600060208284031215610dab57600080fd5b81518015158114610c4d57600080fd5b634e487b7160e01b600052601160045260246000fd5b600082610dee57634e487b7160e01b600052601260045260246000fd5b500490565b600082821015610e0557610e05610dbb565b500390565b60008219821115610e1d57610e1d610dbb565b500190565b60005b83811015610e3d578181015183820152602001610e25565b83811115610e4c576000848401525b50505050565b8381528260208201526060604082015260008251806060840152610e7d816080850160208701610e22565b601f01601f191691909101608001949350505050565b60008251610ea5818460208701610e22565b919091019291505056fea2646970667358221220049ab2718892c540446da6270d71796b3cf3a0cc58f4ee0ed3d2c403294fb7c964736f6c634300080d0033",
					"opcodes": "PUSH1 0x80 PUSH1 0x40 MSTORE PUSH1 0x1 PUSH1 0x5 SSTORE CALLVALUE DUP1 ISZERO PUSH2 0x15 JUMPI PUSH1 0x0 DUP1 REVERT JUMPDEST POP PUSH1 0x40 MLOAD PUSH2 0xFD6 CODESIZE SUB DUP1 PUSH2 0xFD6 DUP4 CODECOPY DUP2 ADD PUSH1 0x40 DUP2 SWAP1 MSTORE PUSH2 0x34 SWAP2 PUSH2 0x9F JUMP JUMPDEST PUSH1 0x0 DUP1 SLOAD CALLER PUSH1 0x1 PUSH1 0x1 PUSH1 0xA0 SHL SUB NOT SWAP2 DUP3 AND OR SWAP1 SWAP2 SSTORE PUSH1 0x1 DUP1 SLOAD DUP3 AND PUSH1 0x1 PUSH1 0x1 PUSH1 0xA0 SHL SUB SWAP5 DUP6 AND OR SWAP1 SSTORE PUSH1 0x2 DUP1 SLOAD DUP3 AND SWAP3 DUP5 AND SWAP3 SWAP1 SWAP3 OR SWAP1 SWAP2 SSTORE PUSH1 0x3 DUP1 SLOAD SWAP1 SWAP2 AND SWAP3 SWAP1 SWAP2 AND SWAP2 SWAP1 SWAP2 OR SWAP1 SSTORE PUSH2 0xE2 JUMP JUMPDEST DUP1 MLOAD PUSH1 0x1 PUSH1 0x1 PUSH1 0xA0 SHL SUB DUP2 AND DUP2 EQ PUSH2 0x9A JUMPI PUSH1 0x0 DUP1 REVERT JUMPDEST SWAP2 SWAP1 POP JUMP JUMPDEST PUSH1 0x0 DUP1 PUSH1 0x0 PUSH1 0x60 DUP5 DUP7 SUB SLT ISZERO PUSH2 0xB4 JUMPI PUSH1 0x0 DUP1 REVERT JUMPDEST PUSH2 0xBD DUP5 PUSH2 0x83 JUMP JUMPDEST SWAP3 POP PUSH2 0xCB PUSH1 0x20 DUP6 ADD PUSH2 0x83 JUMP JUMPDEST SWAP2 POP PUSH2 0xD9 PUSH1 0x40 DUP6 ADD PUSH2 0x83 JUMP JUMPDEST SWAP1 POP SWAP3 POP SWAP3 POP SWAP3 JUMP JUMPDEST PUSH2 0xEE5 DUP1 PUSH2 0xF1 PUSH1 0x0 CODECOPY PUSH1 0x0 RETURN INVALID PUSH1 0x80 PUSH1 0x40 MSTORE CALLVALUE DUP1 ISZERO PUSH2 0x10 JUMPI PUSH1 0x0 DUP1 REVERT JUMPDEST POP PUSH1 0x4 CALLDATASIZE LT PUSH2 0xB4 JUMPI PUSH1 0x0 CALLDATALOAD PUSH1 0xE0 SHR DUP1 PUSH4 0x7CCBF83E GT PUSH2 0x71 JUMPI DUP1 PUSH4 0x7CCBF83E EQ PUSH2 0x15E JUMPI DUP1 PUSH4 0x845A51EC EQ PUSH2 0x171 JUMPI DUP1 PUSH4 0x87336111 EQ PUSH2 0x184 JUMPI DUP1 PUSH4 0x8DA5CB5B EQ PUSH2 0x197 JUMPI DUP1 PUSH4 0x9F2585A1 EQ PUSH2 0x1AA JUMPI DUP1 PUSH4 0xA85C38EF EQ PUSH2 0x1BD JUMPI PUSH1 0x0 DUP1 REVERT JUMPDEST DUP1 PUSH4 0xD3652EC EQ PUSH2 0xB9 JUMPI DUP1 PUSH4 0x11EAC855 EQ PUSH2 0xE1 JUMPI DUP1 PUSH4 0x2A58B330 EQ PUSH2 0x10C JUMPI DUP1 PUSH4 0x315A095D EQ PUSH2 0x123 JUMPI DUP1 PUSH4 0x59E1ABAA EQ PUSH2 0x138 JUMPI DUP1 PUSH4 0x5B7633D0 EQ PUSH2 0x14B JUMPI JUMPDEST PUSH1 0x0 DUP1 REVERT JUMPDEST PUSH2 0xCC PUSH2 0xC7 CALLDATASIZE PUSH1 0x4 PUSH2 0xB5A JUMP JUMPDEST PUSH2 0x237 JUMP JUMPDEST PUSH1 0x40 MLOAD SWAP1 ISZERO ISZERO DUP2 MSTORE PUSH1 0x20 ADD JUMPDEST PUSH1 0x40 MLOAD DUP1 SWAP2 SUB SWAP1 RETURN JUMPDEST PUSH1 0x3 SLOAD PUSH2 0xF4 SWAP1 PUSH1 0x1 PUSH1 0x1 PUSH1 0xA0 SHL SUB AND DUP2 JUMP JUMPDEST PUSH1 0x40 MLOAD PUSH1 0x1 PUSH1 0x1 PUSH1 0xA0 SHL SUB SWAP1 SWAP2 AND DUP2 MSTORE PUSH1 0x20 ADD PUSH2 0xD8 JUMP JUMPDEST PUSH2 0x115 PUSH1 0x5 SLOAD DUP2 JUMP JUMPDEST PUSH1 0x40 MLOAD SWAP1 DUP2 MSTORE PUSH1 0x20 ADD PUSH2 0xD8 JUMP JUMPDEST PUSH2 0x136 PUSH2 0x131 CALLDATASIZE PUSH1 0x4 PUSH2 0xBAB JUMP JUMPDEST PUSH2 0x318 JUMP JUMPDEST STOP JUMPDEST PUSH2 0x115 PUSH2 0x146 CALLDATASIZE PUSH1 0x4 PUSH2 0xBE0 JUMP JUMPDEST PUSH2 0x47F JUMP JUMPDEST PUSH1 0x2 SLOAD PUSH2 0xF4 SWAP1 PUSH1 0x1 PUSH1 0x1 PUSH1 0xA0 SHL SUB AND DUP2 JUMP JUMPDEST PUSH2 0x136 PUSH2 0x16C CALLDATASIZE PUSH1 0x4 PUSH2 0xC54 JUMP JUMPDEST PUSH2 0x4E1 JUMP JUMPDEST PUSH1 0x1 SLOAD PUSH2 0xF4 SWAP1 PUSH1 0x1 PUSH1 0x1 PUSH1 0xA0 SHL SUB AND DUP2 JUMP JUMPDEST PUSH2 0x136 PUSH2 0x192 CALLDATASIZE PUSH1 0x4 PUSH2 0xCCE JUMP JUMPDEST PUSH2 0x87B JUMP JUMPDEST PUSH1 0x0 SLOAD PUSH2 0xF4 SWAP1 PUSH1 0x1 PUSH1 0x1 PUSH1 0xA0 SHL SUB AND DUP2 JUMP JUMPDEST PUSH2 0xF4 PUSH2 0x1B8 CALLDATASIZE PUSH1 0x4 PUSH2 0xD11 JUMP JUMPDEST PUSH2 0x8E7 JUMP JUMPDEST PUSH2 0x205 PUSH2 0x1CB CALLDATASIZE PUSH1 0x4 PUSH2 0xBAB JUMP JUMPDEST PUSH1 0x4 PUSH1 0x20 DUP2 SWAP1 MSTORE PUSH1 0x0 SWAP2 DUP3 MSTORE PUSH1 0x40 SWAP1 SWAP2 KECCAK256 DUP1 SLOAD PUSH1 0x1 DUP3 ADD SLOAD PUSH1 0x2 DUP4 ADD SLOAD PUSH1 0x3 DUP5 ADD SLOAD SWAP4 SWAP1 SWAP5 ADD SLOAD PUSH1 0x1 PUSH1 0x1 PUSH1 0xA0 SHL SUB SWAP1 SWAP3 AND SWAP4 SWAP1 SWAP3 SWAP1 SWAP2 DUP6 JUMP JUMPDEST PUSH1 0x40 DUP1 MLOAD PUSH1 0x1 PUSH1 0x1 PUSH1 0xA0 SHL SUB SWAP1 SWAP7 AND DUP7 MSTORE PUSH1 0x20 DUP7 ADD SWAP5 SWAP1 SWAP5 MSTORE SWAP3 DUP5 ADD SWAP2 SWAP1 SWAP2 MSTORE PUSH1 0x60 DUP4 ADD MSTORE PUSH1 0x80 DUP3 ADD MSTORE PUSH1 0xA0 ADD PUSH2 0xD8 JUMP JUMPDEST PUSH1 0x0 PUSH2 0x25F DUP3 PUSH1 0x40 MLOAD DUP1 PUSH1 0x40 ADD PUSH1 0x40 MSTORE DUP1 PUSH1 0x4 DUP2 MSTORE PUSH1 0x20 ADD PUSH4 0x1D5CD91D PUSH1 0xE2 SHL DUP2 MSTORE POP PUSH2 0x966 JUMP JUMPDEST DUP1 PUSH2 0x28B JUMPI POP PUSH2 0x28B DUP3 PUSH1 0x40 MLOAD DUP1 PUSH1 0x40 ADD PUSH1 0x40 MSTORE DUP1 PUSH1 0x4 DUP2 MSTORE PUSH1 0x20 ADD PUSH4 0x75736463 PUSH1 0xE0 SHL DUP2 MSTORE POP PUSH2 0x966 JUMP JUMPDEST DUP1 PUSH2 0x2B6 JUMPI POP PUSH2 0x2B6 DUP3 PUSH1 0x40 MLOAD DUP1 PUSH1 0x40 ADD PUSH1 0x40 MSTORE DUP1 PUSH1 0x3 DUP2 MSTORE PUSH1 0x20 ADD PUSH3 0x756D69 PUSH1 0xE8 SHL DUP2 MSTORE POP PUSH2 0x966 JUMP JUMPDEST DUP1 PUSH2 0x2E7 JUMPI POP PUSH2 0x2E7 DUP3 PUSH1 0x40 MLOAD DUP1 PUSH1 0x40 ADD PUSH1 0x40 MSTORE DUP1 PUSH1 0x9 DUP2 MSTORE PUSH1 0x20 ADD PUSH9 0x191A5D995C1BDA5B9D PUSH1 0xBA SHL DUP2 MSTORE POP PUSH2 0x966 JUMP JUMPDEST DUP1 PUSH2 0x312 JUMPI POP PUSH2 0x312 DUP3 PUSH1 0x40 MLOAD DUP1 PUSH1 0x40 ADD PUSH1 0x40 MSTORE DUP1 PUSH1 0x3 DUP2 MSTORE PUSH1 0x20 ADD PUSH3 0xCAE8D PUSH1 0xEB SHL DUP2 MSTORE POP PUSH2 0x966 JUMP JUMPDEST SWAP3 SWAP2 POP POP JUMP JUMPDEST PUSH1 0x0 SLOAD PUSH1 0x1 PUSH1 0x1 PUSH1 0xA0 SHL SUB AND CALLER EQ PUSH2 0x34B JUMPI PUSH1 0x40 MLOAD PUSH3 0x461BCD PUSH1 0xE5 SHL DUP2 MSTORE PUSH1 0x4 ADD PUSH2 0x342 SWAP1 PUSH2 0xD58 JUMP JUMPDEST PUSH1 0x40 MLOAD DUP1 SWAP2 SUB SWAP1 REVERT JUMPDEST PUSH1 0x0 DUP2 GT PUSH2 0x38C JUMPI PUSH1 0x40 MLOAD PUSH3 0x461BCD PUSH1 0xE5 SHL DUP2 MSTORE PUSH1 0x20 PUSH1 0x4 DUP3 ADD MSTORE PUSH1 0xE PUSH1 0x24 DUP3 ADD MSTORE PUSH14 0x125B9D985B1A5908185B5BDD5B9D PUSH1 0x92 SHL PUSH1 0x44 DUP3 ADD MSTORE PUSH1 0x64 ADD PUSH2 0x342 JUMP JUMPDEST PUSH1 0x3 SLOAD PUSH1 0x0 SLOAD PUSH1 0x40 MLOAD PUSH4 0xA9059CBB PUSH1 0xE0 SHL DUP2 MSTORE PUSH1 0x1 PUSH1 0x1 PUSH1 0xA0 SHL SUB SWAP2 DUP3 AND PUSH1 0x4 DUP3 ADD MSTORE PUSH1 0x24 DUP2 ADD DUP5 SWAP1 MSTORE SWAP2 AND SWAP1 PUSH4 0xA9059CBB SWAP1 PUSH1 0x44 ADD PUSH1 0x20 PUSH1 0x40 MLOAD DUP1 DUP4 SUB DUP2 PUSH1 0x0 DUP8 GAS CALL ISZERO DUP1 ISZERO PUSH2 0x3E1 JUMPI RETURNDATASIZE PUSH1 0x0 DUP1 RETURNDATACOPY RETURNDATASIZE PUSH1 0x0 REVERT JUMPDEST POP POP POP POP PUSH1 0x40 MLOAD RETURNDATASIZE PUSH1 0x1F NOT PUSH1 0x1F DUP3 ADD AND DUP3 ADD DUP1 PUSH1 0x40 MSTORE POP DUP2 ADD SWAP1 PUSH2 0x405 SWAP2 SWAP1 PUSH2 0xD99 JUMP JUMPDEST PUSH2 0x449 JUMPI PUSH1 0x40 MLOAD PUSH3 0x461BCD PUSH1 0xE5 SHL DUP2 MSTORE PUSH1 0x20 PUSH1 0x4 DUP3 ADD MSTORE PUSH1 0x15 PUSH1 0x24 DUP3 ADD MSTORE PUSH21 0x151BDAD95B881D1C985B9CD9995C8819985A5B1959 PUSH1 0x5A SHL PUSH1 0x44 DUP3 ADD MSTORE PUSH1 0x64 ADD PUSH2 0x342 JUMP JUMPDEST PUSH1 0x40 MLOAD DUP2 DUP2 MSTORE PUSH32 0x9C6393F251205F9E03559951CAB4C9AE71767B6174F77944A5B0C2FA51FBDA9F SWAP1 PUSH1 0x20 ADD PUSH1 0x40 MLOAD DUP1 SWAP2 SUB SWAP1 LOG1 POP JUMP JUMPDEST PUSH1 0x40 MLOAD PUSH12 0xFFFFFFFFFFFFFFFFFFFFFFFF NOT PUSH1 0x60 DUP8 DUP2 SHL DUP3 AND PUSH1 0x20 DUP5 ADD MSTORE DUP7 SWAP1 SHL AND PUSH1 0x34 DUP3 ADD MSTORE PUSH1 0x48 DUP2 ADD DUP5 SWAP1 MSTORE PUSH1 0x68 DUP2 ADD DUP4 SWAP1 MSTORE PUSH1 0x88 DUP2 ADD DUP3 SWAP1 MSTORE PUSH1 0x0 SWAP1 PUSH1 0xA8 ADD PUSH1 0x40 MLOAD PUSH1 0x20 DUP2 DUP4 SUB SUB DUP2 MSTORE SWAP1 PUSH1 0x40 MSTORE DUP1 MLOAD SWAP1 PUSH1 0x20 ADD KECCAK256 SWAP1 POP SWAP6 SWAP5 POP POP POP POP POP JUMP JUMPDEST PUSH1 0x0 DUP4 GT PUSH2 0x522 JUMPI PUSH1 0x40 MLOAD PUSH3 0x461BCD PUSH1 0xE5 SHL DUP2 MSTORE PUSH1 0x20 PUSH1 0x4 DUP3 ADD MSTORE PUSH1 0xE PUSH1 0x24 DUP3 ADD MSTORE PUSH14 0x125B9D985B1A5908185B5BDD5B9D PUSH1 0x92 SHL PUSH1 0x44 DUP3 ADD MSTORE PUSH1 0x64 ADD PUSH2 0x342 JUMP JUMPDEST PUSH1 0x1 PUSH1 0x1 PUSH1 0xA0 SHL SUB DUP7 AND PUSH2 0x578 JUMPI PUSH1 0x40 MLOAD PUSH3 0x461BCD PUSH1 0xE5 SHL DUP2 MSTORE PUSH1 0x20 PUSH1 0x4 DUP3 ADD MSTORE PUSH1 0x1C PUSH1 0x24 DUP3 ADD MSTORE PUSH32 0x43563A2066726F6D20746F20746865207A65726F206164647265737300000000 PUSH1 0x44 DUP3 ADD MSTORE PUSH1 0x64 ADD PUSH2 0x342 JUMP JUMPDEST PUSH2 0x586 DUP7 DUP7 DUP7 DUP7 DUP7 DUP7 PUSH2 0x9BF JUMP JUMPDEST PUSH2 0x5CB JUMPI PUSH1 0x40 MLOAD PUSH3 0x461BCD PUSH1 0xE5 SHL DUP2 MSTORE PUSH1 0x20 PUSH1 0x4 DUP3 ADD MSTORE PUSH1 0x16 PUSH1 0x24 DUP3 ADD MSTORE PUSH22 0x43563A20696E76616C6964205F7369676E6174757265 PUSH1 0x50 SHL PUSH1 0x44 DUP3 ADD MSTORE PUSH1 0x64 ADD PUSH2 0x342 JUMP JUMPDEST PUSH1 0x3 SLOAD PUSH1 0x40 MLOAD PUSH4 0x23B872DD PUSH1 0xE0 SHL DUP2 MSTORE PUSH1 0x1 PUSH1 0x1 PUSH1 0xA0 SHL SUB DUP9 DUP2 AND PUSH1 0x4 DUP4 ADD MSTORE ADDRESS PUSH1 0x24 DUP4 ADD MSTORE PUSH1 0x44 DUP3 ADD DUP7 SWAP1 MSTORE SWAP1 SWAP2 AND SWAP1 PUSH4 0x23B872DD SWAP1 PUSH1 0x64 ADD PUSH1 0x20 PUSH1 0x40 MLOAD DUP1 DUP4 SUB DUP2 PUSH1 0x0 DUP8 GAS CALL ISZERO DUP1 ISZERO PUSH2 0x624 JUMPI RETURNDATASIZE PUSH1 0x0 DUP1 RETURNDATACOPY RETURNDATASIZE PUSH1 0x0 REVERT JUMPDEST POP POP POP POP PUSH1 0x40 MLOAD RETURNDATASIZE PUSH1 0x1F NOT PUSH1 0x1F DUP3 ADD AND DUP3 ADD DUP1 PUSH1 0x40 MSTORE POP DUP2 ADD SWAP1 PUSH2 0x648 SWAP2 SWAP1 PUSH2 0xD99 JUMP JUMPDEST PUSH2 0x68B JUMPI PUSH1 0x40 MLOAD PUSH3 0x461BCD PUSH1 0xE5 SHL DUP2 MSTORE PUSH1 0x20 PUSH1 0x4 DUP3 ADD MSTORE PUSH1 0x14 PUSH1 0x24 DUP3 ADD MSTORE PUSH20 0x1554D110C81D1C985B9CD9995C8819985A5B1959 PUSH1 0x62 SHL PUSH1 0x44 DUP3 ADD MSTORE PUSH1 0x64 ADD PUSH2 0x342 JUMP JUMPDEST PUSH1 0x0 PUSH2 0x698 PUSH1 0x64 DUP6 PUSH2 0xDD1 JUMP JUMPDEST SWAP1 POP PUSH1 0x0 PUSH2 0x6A6 DUP3 DUP7 PUSH2 0xDF3 JUMP JUMPDEST PUSH1 0x3 SLOAD PUSH1 0x1 SLOAD PUSH1 0x40 MLOAD PUSH4 0xA9059CBB PUSH1 0xE0 SHL DUP2 MSTORE PUSH1 0x1 PUSH1 0x1 PUSH1 0xA0 SHL SUB SWAP2 DUP3 AND PUSH1 0x4 DUP3 ADD MSTORE PUSH1 0x24 DUP2 ADD DUP7 SWAP1 MSTORE SWAP3 SWAP4 POP AND SWAP1 PUSH4 0xA9059CBB SWAP1 PUSH1 0x44 ADD PUSH1 0x20 PUSH1 0x40 MLOAD DUP1 DUP4 SUB DUP2 PUSH1 0x0 DUP8 GAS CALL ISZERO DUP1 ISZERO PUSH2 0x6FD JUMPI RETURNDATASIZE PUSH1 0x0 DUP1 RETURNDATACOPY RETURNDATASIZE PUSH1 0x0 REVERT JUMPDEST POP POP POP POP PUSH1 0x40 MLOAD RETURNDATASIZE PUSH1 0x1F NOT PUSH1 0x1F DUP3 ADD AND DUP3 ADD DUP1 PUSH1 0x40 MSTORE POP DUP2 ADD SWAP1 PUSH2 0x721 SWAP2 SWAP1 PUSH2 0xD99 JUMP JUMPDEST POP PUSH1 0x3 SLOAD PUSH1 0x40 MLOAD PUSH4 0xA9059CBB PUSH1 0xE0 SHL DUP2 MSTORE PUSH1 0x1 PUSH1 0x1 PUSH1 0xA0 SHL SUB DUP10 DUP2 AND PUSH1 0x4 DUP4 ADD MSTORE PUSH1 0x24 DUP3 ADD DUP5 SWAP1 MSTORE SWAP1 SWAP2 AND SWAP1 PUSH4 0xA9059CBB SWAP1 PUSH1 0x44 ADD PUSH1 0x20 PUSH1 0x40 MLOAD DUP1 DUP4 SUB DUP2 PUSH1 0x0 DUP8 GAS CALL ISZERO DUP1 ISZERO PUSH2 0x775 JUMPI RETURNDATASIZE PUSH1 0x0 DUP1 RETURNDATACOPY RETURNDATASIZE PUSH1 0x0 REVERT JUMPDEST POP POP POP POP PUSH1 0x40 MLOAD RETURNDATASIZE PUSH1 0x1F NOT PUSH1 0x1F DUP3 ADD AND DUP3 ADD DUP1 PUSH1 0x40 MSTORE POP DUP2 ADD SWAP1 PUSH2 0x799 SWAP2 SWAP1 PUSH2 0xD99 JUMP JUMPDEST POP PUSH1 0x40 DUP1 MLOAD PUSH1 0xA0 DUP2 ADD DUP3 MSTORE PUSH1 0x1 PUSH1 0x1 PUSH1 0xA0 SHL SUB DUP10 DUP2 AND DUP3 MSTORE PUSH1 0x20 DUP1 DUP4 ADD DUP11 DUP2 MSTORE DUP4 DUP6 ADD DUP7 DUP2 MSTORE PUSH1 0x60 DUP6 ADD DUP9 DUP2 MSTORE PUSH1 0x80 DUP7 ADD DUP12 DUP2 MSTORE PUSH1 0x0 DUP15 DUP2 MSTORE PUSH1 0x4 SWAP6 DUP7 SWAP1 MSTORE SWAP8 DUP9 KECCAK256 SWAP7 MLOAD DUP8 SLOAD PUSH1 0x1 PUSH1 0x1 PUSH1 0xA0 SHL SUB NOT AND SWAP7 AND SWAP6 SWAP1 SWAP6 OR DUP7 SSTORE SWAP2 MLOAD PUSH1 0x1 DUP1 DUP8 ADD SWAP2 SWAP1 SWAP2 SSTORE SWAP1 MLOAD PUSH1 0x2 DUP7 ADD SSTORE SWAP1 MLOAD PUSH1 0x3 DUP6 ADD SSTORE SWAP2 MLOAD SWAP3 ADD SWAP2 SWAP1 SWAP2 SSTORE PUSH1 0x5 DUP1 SLOAD SWAP2 SWAP3 SWAP1 SWAP2 PUSH2 0x825 SWAP1 DUP5 SWAP1 PUSH2 0xE0A JUMP JUMPDEST SWAP3 POP POP DUP2 SWAP1 SSTORE POP DUP7 PUSH1 0x1 PUSH1 0x1 PUSH1 0xA0 SHL SUB AND PUSH32 0x5128ABB3A2724995D76ED092BF6BF634C1DD514C7C674EB3BBB1016C60559B33 DUP8 DUP4 DUP7 PUSH1 0x40 MLOAD PUSH2 0x869 SWAP4 SWAP3 SWAP2 SWAP1 PUSH2 0xE52 JUMP JUMPDEST PUSH1 0x40 MLOAD DUP1 SWAP2 SUB SWAP1 LOG2 POP POP POP POP POP POP POP POP JUMP JUMPDEST PUSH1 0x0 SLOAD PUSH1 0x1 PUSH1 0x1 PUSH1 0xA0 SHL SUB AND CALLER EQ PUSH2 0x8A5 JUMPI PUSH1 0x40 MLOAD PUSH3 0x461BCD PUSH1 0xE5 SHL DUP2 MSTORE PUSH1 0x4 ADD PUSH2 0x342 SWAP1 PUSH2 0xD58 JUMP JUMPDEST PUSH1 0x1 DUP1 SLOAD PUSH1 0x1 PUSH1 0x1 PUSH1 0xA0 SHL SUB SWAP4 DUP5 AND PUSH1 0x1 PUSH1 0x1 PUSH1 0xA0 SHL SUB NOT SWAP2 DUP3 AND OR SWAP1 SWAP2 SSTORE PUSH1 0x2 DUP1 SLOAD SWAP3 DUP5 AND SWAP3 DUP3 AND SWAP3 SWAP1 SWAP3 OR SWAP1 SWAP2 SSTORE PUSH1 0x3 DUP1 SLOAD SWAP4 SWAP1 SWAP3 AND SWAP3 AND SWAP2 SWAP1 SWAP2 OR SWAP1 SSTORE JUMP JUMPDEST PUSH1 0x0 DUP1 PUSH1 0x0 DUP1 PUSH2 0x8F6 DUP6 PUSH2 0xA5A JUMP JUMPDEST PUSH1 0x40 DUP1 MLOAD PUSH1 0x0 DUP2 MSTORE PUSH1 0x20 DUP2 ADD DUP1 DUP4 MSTORE DUP12 SWAP1 MSTORE PUSH1 0xFF DUP4 AND SWAP2 DUP2 ADD SWAP2 SWAP1 SWAP2 MSTORE PUSH1 0x60 DUP2 ADD DUP5 SWAP1 MSTORE PUSH1 0x80 DUP2 ADD DUP4 SWAP1 MSTORE SWAP3 SWAP6 POP SWAP1 SWAP4 POP SWAP2 POP PUSH1 0x1 SWAP1 PUSH1 0xA0 ADD PUSH1 0x20 PUSH1 0x40 MLOAD PUSH1 0x20 DUP2 SUB SWAP1 DUP1 DUP5 SUB SWAP1 DUP6 GAS STATICCALL ISZERO DUP1 ISZERO PUSH2 0x951 JUMPI RETURNDATASIZE PUSH1 0x0 DUP1 RETURNDATACOPY RETURNDATASIZE PUSH1 0x0 REVERT JUMPDEST POP POP PUSH1 0x40 MLOAD PUSH1 0x1F NOT ADD MLOAD SWAP8 SWAP7 POP POP POP POP POP POP POP JUMP JUMPDEST PUSH1 0x0 DUP2 PUSH1 0x40 MLOAD PUSH1 0x20 ADD PUSH2 0x979 SWAP2 SWAP1 PUSH2 0xE93 JUMP JUMPDEST PUSH1 0x40 MLOAD PUSH1 0x20 DUP2 DUP4 SUB SUB DUP2 MSTORE SWAP1 PUSH1 0x40 MSTORE DUP1 MLOAD SWAP1 PUSH1 0x20 ADD KECCAK256 DUP4 PUSH1 0x40 MLOAD PUSH1 0x20 ADD PUSH2 0x9A0 SWAP2 SWAP1 PUSH2 0xE93 JUMP JUMPDEST PUSH1 0x40 MLOAD PUSH1 0x20 DUP2 DUP4 SUB SUB DUP2 MSTORE SWAP1 PUSH1 0x40 MSTORE DUP1 MLOAD SWAP1 PUSH1 0x20 ADD KECCAK256 EQ SWAP1 POP SWAP3 SWAP2 POP POP JUMP JUMPDEST PUSH1 0x0 DUP1 PUSH2 0x9CF DUP9 DUP9 DUP9 DUP9 DUP9 PUSH2 0x47F JUMP JUMPDEST SWAP1 POP PUSH1 0x0 PUSH2 0xA2A DUP3 PUSH1 0x40 MLOAD PUSH32 0x19457468657265756D205369676E6564204D6573736167653A0A333200000000 PUSH1 0x20 DUP3 ADD MSTORE PUSH1 0x3C DUP2 ADD DUP3 SWAP1 MSTORE PUSH1 0x0 SWAP1 PUSH1 0x5C ADD PUSH1 0x40 MLOAD PUSH1 0x20 DUP2 DUP4 SUB SUB DUP2 MSTORE SWAP1 PUSH1 0x40 MSTORE DUP1 MLOAD SWAP1 PUSH1 0x20 ADD KECCAK256 SWAP1 POP SWAP2 SWAP1 POP JUMP JUMPDEST PUSH1 0x2 SLOAD SWAP1 SWAP2 POP PUSH1 0x1 PUSH1 0x1 PUSH1 0xA0 SHL SUB AND PUSH2 0xA43 DUP3 DUP7 PUSH2 0x8E7 JUMP JUMPDEST PUSH1 0x1 PUSH1 0x1 PUSH1 0xA0 SHL SUB AND EQ SWAP10 SWAP9 POP POP POP POP POP POP POP POP POP JUMP JUMPDEST PUSH1 0x0 DUP1 PUSH1 0x0 DUP4 MLOAD PUSH1 0x41 EQ PUSH2 0xAB0 JUMPI PUSH1 0x40 MLOAD PUSH3 0x461BCD PUSH1 0xE5 SHL DUP2 MSTORE PUSH1 0x20 PUSH1 0x4 DUP3 ADD MSTORE PUSH1 0x18 PUSH1 0x24 DUP3 ADD MSTORE PUSH32 0x696E76616C6964207369676E6174757265206C656E6774680000000000000000 PUSH1 0x44 DUP3 ADD MSTORE PUSH1 0x64 ADD PUSH2 0x342 JUMP JUMPDEST POP POP POP PUSH1 0x20 DUP2 ADD MLOAD PUSH1 0x40 DUP3 ADD MLOAD PUSH1 0x60 SWAP1 SWAP3 ADD MLOAD SWAP1 SWAP3 PUSH1 0x0 SWAP2 SWAP1 SWAP2 BYTE SWAP1 JUMP JUMPDEST PUSH4 0x4E487B71 PUSH1 0xE0 SHL PUSH1 0x0 MSTORE PUSH1 0x41 PUSH1 0x4 MSTORE PUSH1 0x24 PUSH1 0x0 REVERT JUMPDEST PUSH1 0x0 PUSH8 0xFFFFFFFFFFFFFFFF DUP1 DUP5 GT ISZERO PUSH2 0xAFF JUMPI PUSH2 0xAFF PUSH2 0xACE JUMP JUMPDEST PUSH1 0x40 MLOAD PUSH1 0x1F DUP6 ADD PUSH1 0x1F NOT SWAP1 DUP2 AND PUSH1 0x3F ADD AND DUP2 ADD SWAP1 DUP3 DUP3 GT DUP2 DUP4 LT OR ISZERO PUSH2 0xB27 JUMPI PUSH2 0xB27 PUSH2 0xACE JUMP JUMPDEST DUP2 PUSH1 0x40 MSTORE DUP1 SWAP4 POP DUP6 DUP2 MSTORE DUP7 DUP7 DUP7 ADD GT ISZERO PUSH2 0xB40 JUMPI PUSH1 0x0 DUP1 REVERT JUMPDEST DUP6 DUP6 PUSH1 0x20 DUP4 ADD CALLDATACOPY PUSH1 0x0 PUSH1 0x20 DUP8 DUP4 ADD ADD MSTORE POP POP POP SWAP4 SWAP3 POP POP POP JUMP JUMPDEST PUSH1 0x0 PUSH1 0x20 DUP3 DUP5 SUB SLT ISZERO PUSH2 0xB6C JUMPI PUSH1 0x0 DUP1 REVERT JUMPDEST DUP2 CALLDATALOAD PUSH8 0xFFFFFFFFFFFFFFFF DUP2 GT ISZERO PUSH2 0xB83 JUMPI PUSH1 0x0 DUP1 REVERT JUMPDEST DUP3 ADD PUSH1 0x1F DUP2 ADD DUP5 SGT PUSH2 0xB94 JUMPI PUSH1 0x0 DUP1 REVERT JUMPDEST PUSH2 0xBA3 DUP5 DUP3 CALLDATALOAD PUSH1 0x20 DUP5 ADD PUSH2 0xAE4 JUMP JUMPDEST SWAP5 SWAP4 POP POP POP POP JUMP JUMPDEST PUSH1 0x0 PUSH1 0x20 DUP3 DUP5 SUB SLT ISZERO PUSH2 0xBBD JUMPI PUSH1 0x0 DUP1 REVERT JUMPDEST POP CALLDATALOAD SWAP2 SWAP1 POP JUMP JUMPDEST DUP1 CALLDATALOAD PUSH1 0x1 PUSH1 0x1 PUSH1 0xA0 SHL SUB DUP2 AND DUP2 EQ PUSH2 0xBDB JUMPI PUSH1 0x0 DUP1 REVERT JUMPDEST SWAP2 SWAP1 POP JUMP JUMPDEST PUSH1 0x0 DUP1 PUSH1 0x0 DUP1 PUSH1 0x0 PUSH1 0xA0 DUP7 DUP9 SUB SLT ISZERO PUSH2 0xBF8 JUMPI PUSH1 0x0 DUP1 REVERT JUMPDEST PUSH2 0xC01 DUP7 PUSH2 0xBC4 JUMP JUMPDEST SWAP5 POP PUSH2 0xC0F PUSH1 0x20 DUP8 ADD PUSH2 0xBC4 JUMP JUMPDEST SWAP5 SWAP8 SWAP5 SWAP7 POP POP POP POP PUSH1 0x40 DUP4 ADD CALLDATALOAD SWAP3 PUSH1 0x60 DUP2 ADD CALLDATALOAD SWAP3 PUSH1 0x80 SWAP1 SWAP2 ADD CALLDATALOAD SWAP2 POP JUMP JUMPDEST PUSH1 0x0 DUP3 PUSH1 0x1F DUP4 ADD SLT PUSH2 0xC3E JUMPI PUSH1 0x0 DUP1 REVERT JUMPDEST PUSH2 0xC4D DUP4 DUP4 CALLDATALOAD PUSH1 0x20 DUP6 ADD PUSH2 0xAE4 JUMP JUMPDEST SWAP4 SWAP3 POP POP POP JUMP JUMPDEST PUSH1 0x0 DUP1 PUSH1 0x0 DUP1 PUSH1 0x0 DUP1 PUSH1 0xC0 DUP8 DUP10 SUB SLT ISZERO PUSH2 0xC6D JUMPI PUSH1 0x0 DUP1 REVERT JUMPDEST PUSH2 0xC76 DUP8 PUSH2 0xBC4 JUMP JUMPDEST SWAP6 POP PUSH2 0xC84 PUSH1 0x20 DUP9 ADD PUSH2 0xBC4 JUMP JUMPDEST SWAP5 POP PUSH1 0x40 DUP8 ADD CALLDATALOAD SWAP4 POP PUSH1 0x60 DUP8 ADD CALLDATALOAD SWAP3 POP PUSH1 0x80 DUP8 ADD CALLDATALOAD SWAP2 POP PUSH1 0xA0 DUP8 ADD CALLDATALOAD PUSH8 0xFFFFFFFFFFFFFFFF DUP2 GT ISZERO PUSH2 0xCB5 JUMPI PUSH1 0x0 DUP1 REVERT JUMPDEST PUSH2 0xCC1 DUP10 DUP3 DUP11 ADD PUSH2 0xC2D JUMP JUMPDEST SWAP2 POP POP SWAP3 SWAP6 POP SWAP3 SWAP6 POP SWAP3 SWAP6 JUMP JUMPDEST PUSH1 0x0 DUP1 PUSH1 0x0 PUSH1 0x60 DUP5 DUP7 SUB SLT ISZERO PUSH2 0xCE3 JUMPI PUSH1 0x0 DUP1 REVERT JUMPDEST PUSH2 0xCEC DUP5 PUSH2 0xBC4 JUMP JUMPDEST SWAP3 POP PUSH2 0xCFA PUSH1 0x20 DUP6 ADD PUSH2 0xBC4 JUMP JUMPDEST SWAP2 POP PUSH2 0xD08 PUSH1 0x40 DUP6 ADD PUSH2 0xBC4 JUMP JUMPDEST SWAP1 POP SWAP3 POP SWAP3 POP SWAP3 JUMP JUMPDEST PUSH1 0x0 DUP1 PUSH1 0x40 DUP4 DUP6 SUB SLT ISZERO PUSH2 0xD24 JUMPI PUSH1 0x0 DUP1 REVERT JUMPDEST DUP3 CALLDATALOAD SWAP2 POP PUSH1 0x20 DUP4 ADD CALLDATALOAD PUSH8 0xFFFFFFFFFFFFFFFF DUP2 GT ISZERO PUSH2 0xD42 JUMPI PUSH1 0x0 DUP1 REVERT JUMPDEST PUSH2 0xD4E DUP6 DUP3 DUP7 ADD PUSH2 0xC2D JUMP JUMPDEST SWAP2 POP POP SWAP3 POP SWAP3 SWAP1 POP JUMP JUMPDEST PUSH1 0x20 DUP1 DUP3 MSTORE PUSH1 0x21 SWAP1 DUP3 ADD MSTORE PUSH32 0x4F6E6C79206F776E65722063616E2063616C6C20746869732066756E6374696F PUSH1 0x40 DUP3 ADD MSTORE PUSH1 0x37 PUSH1 0xF9 SHL PUSH1 0x60 DUP3 ADD MSTORE PUSH1 0x80 ADD SWAP1 JUMP JUMPDEST PUSH1 0x0 PUSH1 0x20 DUP3 DUP5 SUB SLT ISZERO PUSH2 0xDAB JUMPI PUSH1 0x0 DUP1 REVERT JUMPDEST DUP2 MLOAD DUP1 ISZERO ISZERO DUP2 EQ PUSH2 0xC4D JUMPI PUSH1 0x0 DUP1 REVERT JUMPDEST PUSH4 0x4E487B71 PUSH1 0xE0 SHL PUSH1 0x0 MSTORE PUSH1 0x11 PUSH1 0x4 MSTORE PUSH1 0x24 PUSH1 0x0 REVERT JUMPDEST PUSH1 0x0 DUP3 PUSH2 0xDEE JUMPI PUSH4 0x4E487B71 PUSH1 0xE0 SHL PUSH1 0x0 MSTORE PUSH1 0x12 PUSH1 0x4 MSTORE PUSH1 0x24 PUSH1 0x0 REVERT JUMPDEST POP DIV SWAP1 JUMP JUMPDEST PUSH1 0x0 DUP3 DUP3 LT ISZERO PUSH2 0xE05 JUMPI PUSH2 0xE05 PUSH2 0xDBB JUMP JUMPDEST POP SUB SWAP1 JUMP JUMPDEST PUSH1 0x0 DUP3 NOT DUP3 GT ISZERO PUSH2 0xE1D JUMPI PUSH2 0xE1D PUSH2 0xDBB JUMP JUMPDEST POP ADD SWAP1 JUMP JUMPDEST PUSH1 0x0 JUMPDEST DUP4 DUP2 LT ISZERO PUSH2 0xE3D JUMPI DUP2 DUP2 ADD MLOAD DUP4 DUP3 ADD MSTORE PUSH1 0x20 ADD PUSH2 0xE25 JUMP JUMPDEST DUP4 DUP2 GT ISZERO PUSH2 0xE4C JUMPI PUSH1 0x0 DUP5 DUP5 ADD MSTORE JUMPDEST POP POP POP POP JUMP JUMPDEST DUP4 DUP2 MSTORE DUP3 PUSH1 0x20 DUP3 ADD MSTORE PUSH1 0x60 PUSH1 0x40 DUP3 ADD MSTORE PUSH1 0x0 DUP3 MLOAD DUP1 PUSH1 0x60 DUP5 ADD MSTORE PUSH2 0xE7D DUP2 PUSH1 0x80 DUP6 ADD PUSH1 0x20 DUP8 ADD PUSH2 0xE22 JUMP JUMPDEST PUSH1 0x1F ADD PUSH1 0x1F NOT AND SWAP2 SWAP1 SWAP2 ADD PUSH1 0x80 ADD SWAP5 SWAP4 POP POP POP POP JUMP JUMPDEST PUSH1 0x0 DUP3 MLOAD PUSH2 0xEA5 DUP2 DUP5 PUSH1 0x20 DUP8 ADD PUSH2 0xE22 JUMP JUMPDEST SWAP2 SWAP1 SWAP2 ADD SWAP3 SWAP2 POP POP JUMP INVALID LOG2 PUSH5 0x6970667358 0x22 SLT KECCAK256 DIV SWAP11 0xB2 PUSH18 0x8892C540446DA6270D71796B3CF3A0CC58F4 0xEE 0xE 0xD3 0xD2 0xC4 SUB 0x29 0x4F 0xB7 0xC9 PUSH5 0x736F6C6343 STOP ADDMOD 0xD STOP CALLER "
				},
				"gasEstimates": {
					"creation": {
						"codeDepositCost": "762600",
						"executionCost": "infinite",
						"totalCost": "infinite"
					},
					"external": {
						"config(address,address,address)": "infinite",
						"getMessageHash(address,address,uint256,uint256,uint256)": "infinite",
						"isTokenSupported(string)": "infinite",
						"nextOrderId()": "2340",
						"orders(uint256)": "11140",
						"owner()": "2403",
						"recoverSignerPublic(bytes32,bytes)": "infinite",
						"rewardPoolAddress()": "2359",
						"sendUSDC(address,address,uint256,uint256,uint256,bytes)": "infinite",
						"signerAddress()": "2448",
						"usdcToken()": "2360",
						"withdrawTokens(uint256)": "infinite"
					},
					"internal": {
						"compareStrings(string memory,string memory)": "infinite",
						"getEthSignedMessageHash(bytes32)": "infinite",
						"recoverSigner(bytes32,bytes memory)": "infinite",
						"splitSignature(bytes memory)": "infinite",
						"verify(address,address,uint256,uint256,uint256,bytes memory)": "infinite"
					}
				},
				"methodIdentifiers": {
					"config(address,address,address)": "87336111",
					"getMessageHash(address,address,uint256,uint256,uint256)": "59e1abaa",
					"isTokenSupported(string)": "0d3652ec",
					"nextOrderId()": "2a58b330",
					"orders(uint256)": "a85c38ef",
					"owner()": "8da5cb5b",
					"recoverSignerPublic(bytes32,bytes)": "9f2585a1",
					"rewardPoolAddress()": "845a51ec",
					"sendUSDC(address,address,uint256,uint256,uint256,bytes)": "7ccbf83e",
					"signerAddress()": "5b7633d0",
					"usdcToken()": "11eac855",
					"withdrawTokens(uint256)": "315a095d"
				}
			},
			"storageLayout": {
				"storage": [
					{
						"astId": 161,
						"contract": "UmiversePayment_flattened.sol:UmiversePayment",
						"label": "owner",
						"offset": 0,
						"slot": "0",
						"type": "t_address"
					},
					{
						"astId": 163,
						"contract": "UmiversePayment_flattened.sol:UmiversePayment",
						"label": "rewardPoolAddress",
						"offset": 0,
						"slot": "1",
						"type": "t_address"
					},
					{
						"astId": 165,
						"contract": "UmiversePayment_flattened.sol:UmiversePayment",
						"label": "signerAddress",
						"offset": 0,
						"slot": "2",
						"type": "t_address"
					},
					{
						"astId": 168,
						"contract": "UmiversePayment_flattened.sol:UmiversePayment",
						"label": "usdcToken",
						"offset": 0,
						"slot": "3",
						"type": "t_contract(IERC20)158"
					},
					{
						"astId": 198,
						"contract": "UmiversePayment_flattened.sol:UmiversePayment",
						"label": "orders",
						"offset": 0,
						"slot": "4",
						"type": "t_mapping(t_uint256,t_struct(Order)193_storage)"
					},
					{
						"astId": 201,
						"contract": "UmiversePayment_flattened.sol:UmiversePayment",
						"label": "nextOrderId",
						"offset": 0,
						"slot": "5",
						"type": "t_uint256"
					}
				],
				"types": {
					"t_address": {
						"encoding": "inplace",
						"label": "address",
						"numberOfBytes": "20"
					},
					"t_contract(IERC20)158": {
						"encoding": "inplace",
						"label": "contract IERC20",
						"numberOfBytes": "20"
					},
					"t_mapping(t_uint256,t_struct(Order)193_storage)": {
						"encoding": "mapping",
						"key": "t_uint256",
						"label": "mapping(uint256 => struct UmiversePayment.Order)",
						"numberOfBytes": "32",
						"value": "t_struct(Order)193_storage"
					},
					"t_struct(Order)193_storage": {
						"encoding": "inplace",
						"label": "struct UmiversePayment.Order",
						"members": [
							{
								"astId": 184,
								"contract": "UmiversePayment_flattened.sol:UmiversePayment",
								"label": "recipient",
								"offset": 0,
								"slot": "0",
								"type": "t_address"
							},
							{
								"astId": 186,
								"contract": "UmiversePayment_flattened.sol:UmiversePayment",
								"label": "orderId",
								"offset": 0,
								"slot": "1",
								"type": "t_uint256"
							},
							{
								"astId": 188,
								"contract": "UmiversePayment_flattened.sol:UmiversePayment",
								"label": "amount",
								"offset": 0,
								"slot": "2",
								"type": "t_uint256"
							},
							{
								"astId": 190,
								"contract": "UmiversePayment_flattened.sol:UmiversePayment",
								"label": "fee",
								"offset": 0,
								"slot": "3",
								"type": "t_uint256"
							},
							{
								"astId": 192,
								"contract": "UmiversePayment_flattened.sol:UmiversePayment",
								"label": "timestamp",
								"offset": 0,
								"slot": "4",
								"type": "t_uint256"
							}
						],
						"numberOfBytes": "160"
					},
					"t_uint256": {
						"encoding": "inplace",
						"label": "uint256",
						"numberOfBytes": "32"
					}
				}
			},
			"userdoc": {
				"kind": "user",
				"methods": {},
				"version": 1
			}
		}
	}
}