{
	"UmiverseVerify.sol": {
		"UmiverseVerify": {
			"abi": [
				{
					"inputs": [
						{
							"internalType": "uint256",
							"name": "_timestamp",
							"type": "uint256"
						}
					],
					"name": "getMessageHash",
					"outputs": [
						{
							"internalType": "bytes32",
							"name": "",
							"type": "bytes32"
						}
					],
					"stateMutability": "pure",
					"type": "function"
				},
				{
					"inputs": [
						{
							"internalType": "address",
							"name": "_signer",
							"type": "address"
						},
						{
							"internalType": "uint256",
							"name": "_timestamp",
							"type": "uint256"
						},
						{
							"internalType": "bytes",
							"name": "_signature",
							"type": "bytes"
						}
					],
					"name": "verify",
					"outputs": [
						{
							"internalType": "bool",
							"name": "",
							"type": "bool"
						}
					],
					"stateMutability": "pure",
					"type": "function"
				}
			],
			"devdoc": {
				"kind": "dev",
				"methods": {},
				"version": 1
			},
			"evm": {
				"assembly": "    /* \"UmiverseVerify.sol\":120:822  contract UmiverseVerify {... */\n  mstore(0x40, 0x80)\n  callvalue\n  dup1\n  iszero\n  tag_1\n  jumpi\n  0x00\n  dup1\n  revert\ntag_1:\n  pop\n  dataSize(sub_0)\n  dup1\n  dataOffset(sub_0)\n  0x00\n  codecopy\n  0x00\n  return\nstop\n\nsub_0: assembly {\n        /* \"UmiverseVerify.sol\":120:822  contract UmiverseVerify {... */\n      mstore(0x40, 0x80)\n      callvalue\n      dup1\n      iszero\n      tag_1\n      jumpi\n      0x00\n      dup1\n      revert\n    tag_1:\n      pop\n      jumpi(tag_2, lt(calldatasize, 0x04))\n      shr(0xe0, calldataload(0x00))\n      dup1\n      0x6f576e06\n      eq\n      tag_3\n      jumpi\n      dup1\n      0xba86a10d\n      eq\n      tag_4\n      jumpi\n    tag_2:\n      0x00\n      dup1\n      revert\n        /* \"UmiverseVerify.sol\":421:814  function verify(... */\n    tag_3:\n      tag_5\n      0x04\n      dup1\n      calldatasize\n      sub\n      dup2\n      add\n      swap1\n      tag_6\n      swap2\n      swap1\n      tag_7\n      jump\t// in\n    tag_6:\n      tag_8\n      jump\t// in\n    tag_5:\n      mload(0x40)\n      tag_9\n      swap2\n      swap1\n      tag_10\n      jump\t// in\n    tag_9:\n      mload(0x40)\n      dup1\n      swap2\n      sub\n      swap1\n      return\n        /* \"UmiverseVerify.sol\":184:415  function getMessageHash(... */\n    tag_4:\n      tag_11\n      0x04\n      dup1\n      calldatasize\n      sub\n      dup2\n      add\n      swap1\n      tag_12\n      swap2\n      swap1\n      tag_13\n      jump\t// in\n    tag_12:\n      tag_14\n      jump\t// in\n    tag_11:\n      mload(0x40)\n      tag_15\n      swap2\n      swap1\n      tag_16\n      jump\t// in\n    tag_15:\n      mload(0x40)\n      dup1\n      swap2\n      sub\n      swap1\n      return\n        /* \"UmiverseVerify.sol\":421:814  function verify(... */\n    tag_8:\n        /* \"UmiverseVerify.sol\":549:553  bool */\n      0x00\n        /* \"UmiverseVerify.sol\":565:584  bytes32 messageHash */\n      dup1\n        /* \"UmiverseVerify.sol\":587:635  getMessageHash(... */\n      tag_18\n        /* \"UmiverseVerify.sol\":615:625  _timestamp */\n      dup5\n        /* \"UmiverseVerify.sol\":587:601  getMessageHash */\n      tag_14\n        /* \"UmiverseVerify.sol\":587:635  getMessageHash(... */\n      jump\t// in\n    tag_18:\n        /* \"UmiverseVerify.sol\":565:635  bytes32 messageHash = getMessageHash(... */\n      swap1\n      pop\n        /* \"UmiverseVerify.sol\":645:673  bytes32 ethSignedMessageHash */\n      0x00\n        /* \"UmiverseVerify.sol\":676:722  Signature.getEthSignedMessageHash(messageHash) */\n      tag_19\n        /* \"UmiverseVerify.sol\":710:721  messageHash */\n      dup3\n        /* \"UmiverseVerify.sol\":676:709  Signature.getEthSignedMessageHash */\n      tag_20\n        /* \"UmiverseVerify.sol\":676:722  Signature.getEthSignedMessageHash(messageHash) */\n      jump\t// in\n    tag_19:\n        /* \"UmiverseVerify.sol\":645:722  bytes32 ethSignedMessageHash = Signature.getEthSignedMessageHash(messageHash) */\n      swap1\n      pop\n        /* \"UmiverseVerify.sol\":800:807  _signer */\n      dup6\n        /* \"UmiverseVerify.sol\":739:807  Signature.recoverSigner(ethSignedMessageHash, _signature) == _signer */\n      0xffffffffffffffffffffffffffffffffffffffff\n      and\n        /* \"UmiverseVerify.sol\":739:796  Signature.recoverSigner(ethSignedMessageHash, _signature) */\n      tag_21\n        /* \"UmiverseVerify.sol\":763:783  ethSignedMessageHash */\n      dup3\n        /* \"UmiverseVerify.sol\":785:795  _signature */\n      dup7\n        /* \"UmiverseVerify.sol\":739:762  Signature.recoverSigner */\n      tag_22\n        /* \"UmiverseVerify.sol\":739:796  Signature.recoverSigner(ethSignedMessageHash, _signature) */\n      jump\t// in\n    tag_21:\n        /* \"UmiverseVerify.sol\":739:807  Signature.recoverSigner(ethSignedMessageHash, _signature) == _signer */\n      0xffffffffffffffffffffffffffffffffffffffff\n      and\n      eq\n        /* \"UmiverseVerify.sol\":732:807  return Signature.recoverSigner(ethSignedMessageHash, _signature) == _signer */\n      swap3\n      pop\n      pop\n      pop\n        /* \"UmiverseVerify.sol\":421:814  function verify(... */\n      swap4\n      swap3\n      pop\n      pop\n      pop\n      jump\t// out\n        /* \"UmiverseVerify.sol\":184:415  function getMessageHash(... */\n    tag_14:\n        /* \"UmiverseVerify.sol\":263:270  bytes32 */\n      0x00\n        /* \"UmiverseVerify.sol\":366:376  _timestamp */\n      dup2\n        /* \"UmiverseVerify.sol\":328:394  abi.encodePacked(... */\n      add(0x20, mload(0x40))\n      tag_24\n      swap2\n      swap1\n      tag_25\n      jump\t// in\n    tag_24:\n      mload(0x40)\n      0x20\n      dup2\n      dup4\n      sub\n      sub\n      dup2\n      mstore\n      swap1\n      0x40\n      mstore\n        /* \"UmiverseVerify.sol\":301:408  keccak256(... */\n      dup1\n      mload\n      swap1\n      0x20\n      add\n      keccak256\n        /* \"UmiverseVerify.sol\":282:408  return... */\n      swap1\n      pop\n        /* \"UmiverseVerify.sol\":184:415  function getMessageHash(... */\n      swap2\n      swap1\n      pop\n      jump\t// out\n        /* \"lib/Signature.sol\":81:397  function getEthSignedMessageHash(bytes32 _messageHash)... */\n    tag_20:\n        /* \"lib/Signature.sol\":183:190  bytes32 */\n      0x00\n        /* \"lib/Signature.sol\":346:358  _messageHash */\n      dup2\n        /* \"lib/Signature.sol\":252:376  abi.encodePacked(... */\n      add(0x20, mload(0x40))\n      tag_27\n      swap2\n      swap1\n      tag_28\n      jump\t// in\n    tag_27:\n      mload(0x40)\n      0x20\n      dup2\n      dup4\n      sub\n      sub\n      dup2\n      mstore\n      swap1\n      0x40\n      mstore\n        /* \"lib/Signature.sol\":225:390  keccak256(... */\n      dup1\n      mload\n      swap1\n      0x20\n      add\n      keccak256\n        /* \"lib/Signature.sol\":206:390  return... */\n      swap1\n      pop\n        /* \"lib/Signature.sol\":81:397  function getEthSignedMessageHash(bytes32 _messageHash)... */\n      swap2\n      swap1\n      pop\n      jump\t// out\n        /* \"lib/Signature.sol\":403:671  function recoverSigner(... */\n    tag_22:\n        /* \"lib/Signature.sol\":527:534  address */\n      0x00\n        /* \"lib/Signature.sol\":547:556  bytes32 r */\n      dup1\n        /* \"lib/Signature.sol\":558:567  bytes32 s */\n      0x00\n        /* \"lib/Signature.sol\":569:576  uint8 v */\n      dup1\n        /* \"lib/Signature.sol\":580:606  splitSignature(_signature) */\n      tag_30\n        /* \"lib/Signature.sol\":595:605  _signature */\n      dup6\n        /* \"lib/Signature.sol\":580:594  splitSignature */\n      tag_31\n        /* \"lib/Signature.sol\":580:606  splitSignature(_signature) */\n      jump\t// in\n    tag_30:\n        /* \"lib/Signature.sol\":546:606  (bytes32 r, bytes32 s, uint8 v) = splitSignature(_signature) */\n      swap3\n      pop\n      swap3\n      pop\n      swap3\n      pop\n        /* \"lib/Signature.sol\":623:664  ecrecover(_ethSignedMessageHash, v, r, s) */\n      0x01\n        /* \"lib/Signature.sol\":633:654  _ethSignedMessageHash */\n      dup7\n        /* \"lib/Signature.sol\":656:657  v */\n      dup3\n        /* \"lib/Signature.sol\":659:660  r */\n      dup6\n        /* \"lib/Signature.sol\":662:663  s */\n      dup6\n        /* \"lib/Signature.sol\":623:664  ecrecover(_ethSignedMessageHash, v, r, s) */\n      mload(0x40)\n      0x00\n      dup2\n      mstore\n      0x20\n      add\n      0x40\n      mstore\n      mload(0x40)\n      tag_32\n      swap5\n      swap4\n      swap3\n      swap2\n      swap1\n      tag_33\n      jump\t// in\n    tag_32:\n      0x20\n      mload(0x40)\n      0x20\n      dup2\n      sub\n      swap1\n      dup1\n      dup5\n      sub\n      swap1\n      dup6\n      gas\n      staticcall\n      iszero\n      dup1\n      iszero\n      tag_35\n      jumpi\n      returndatasize\n      0x00\n      dup1\n      returndatacopy\n      revert(0x00, returndatasize)\n    tag_35:\n      pop\n      pop\n      pop\n      mload(sub(mload(0x40), 0x20))\n        /* \"lib/Signature.sol\":616:664  return ecrecover(_ethSignedMessageHash, v, r, s) */\n      swap4\n      pop\n      pop\n      pop\n      pop\n        /* \"lib/Signature.sol\":403:671  function recoverSigner(... */\n      swap3\n      swap2\n      pop\n      pop\n      jump\t// out\n        /* \"lib/Signature.sol\":955:1344  function splitSignature(bytes memory sig)... */\n    tag_31:\n        /* \"lib/Signature.sol\":1057:1066  bytes32 r */\n      0x00\n        /* \"lib/Signature.sol\":1080:1089  bytes32 s */\n      dup1\n        /* \"lib/Signature.sol\":1103:1110  uint8 v */\n      0x00\n        /* \"lib/Signature.sol\":1157:1159  65 */\n      0x41\n        /* \"lib/Signature.sol\":1143:1146  sig */\n      dup5\n        /* \"lib/Signature.sol\":1143:1153  sig.length */\n      mload\n        /* \"lib/Signature.sol\":1143:1159  sig.length == 65 */\n      eq\n        /* \"lib/Signature.sol\":1135:1188  require(sig.length == 65, \"invalid signature length\") */\n      tag_37\n      jumpi\n      mload(0x40)\n      0x08c379a000000000000000000000000000000000000000000000000000000000\n      dup2\n      mstore\n      0x04\n      add\n      tag_38\n      swap1\n      tag_39\n      jump\t// in\n    tag_38:\n      mload(0x40)\n      dup1\n      swap2\n      sub\n      swap1\n      revert\n    tag_37:\n        /* \"lib/Signature.sol\":1241:1243  32 */\n      0x20\n        /* \"lib/Signature.sol\":1236:1239  sig */\n      dup5\n        /* \"lib/Signature.sol\":1232:1244  add(sig, 32) */\n      add\n        /* \"lib/Signature.sol\":1226:1245  mload(add(sig, 32)) */\n      mload\n        /* \"lib/Signature.sol\":1221:1245  r := mload(add(sig, 32)) */\n      swap3\n      pop\n        /* \"lib/Signature.sol\":1278:1280  64 */\n      0x40\n        /* \"lib/Signature.sol\":1273:1276  sig */\n      dup5\n        /* \"lib/Signature.sol\":1269:1281  add(sig, 64) */\n      add\n        /* \"lib/Signature.sol\":1263:1282  mload(add(sig, 64)) */\n      mload\n        /* \"lib/Signature.sol\":1258:1282  s := mload(add(sig, 64)) */\n      swap2\n      pop\n        /* \"lib/Signature.sol\":1323:1325  96 */\n      0x60\n        /* \"lib/Signature.sol\":1318:1321  sig */\n      dup5\n        /* \"lib/Signature.sol\":1314:1326  add(sig, 96) */\n      add\n        /* \"lib/Signature.sol\":1308:1327  mload(add(sig, 96)) */\n      mload\n        /* \"lib/Signature.sol\":1305:1306  0 */\n      0x00\n        /* \"lib/Signature.sol\":1300:1328  byte(0, mload(add(sig, 96))) */\n      byte\n        /* \"lib/Signature.sol\":1295:1328  v := byte(0, mload(add(sig, 96))) */\n      swap1\n      pop\n        /* \"lib/Signature.sol\":955:1344  function splitSignature(bytes memory sig)... */\n      swap2\n      swap4\n      swap1\n      swap3\n      pop\n      jump\t// out\n        /* \"#utility.yul\":7:82   */\n    tag_40:\n        /* \"#utility.yul\":40:46   */\n      0x00\n        /* \"#utility.yul\":73:75   */\n      0x40\n        /* \"#utility.yul\":67:76   */\n      mload\n        /* \"#utility.yul\":57:76   */\n      swap1\n      pop\n        /* \"#utility.yul\":7:82   */\n      swap1\n      jump\t// out\n        /* \"#utility.yul\":88:205   */\n    tag_41:\n        /* \"#utility.yul\":197:198   */\n      0x00\n        /* \"#utility.yul\":194:195   */\n      dup1\n        /* \"#utility.yul\":187:199   */\n      revert\n        /* \"#utility.yul\":211:328   */\n    tag_42:\n        /* \"#utility.yul\":320:321   */\n      0x00\n        /* \"#utility.yul\":317:318   */\n      dup1\n        /* \"#utility.yul\":310:322   */\n      revert\n        /* \"#utility.yul\":334:460   */\n    tag_43:\n        /* \"#utility.yul\":371:378   */\n      0x00\n        /* \"#utility.yul\":411:453   */\n      0xffffffffffffffffffffffffffffffffffffffff\n        /* \"#utility.yul\":404:409   */\n      dup3\n        /* \"#utility.yul\":400:454   */\n      and\n        /* \"#utility.yul\":389:454   */\n      swap1\n      pop\n        /* \"#utility.yul\":334:460   */\n      swap2\n      swap1\n      pop\n      jump\t// out\n        /* \"#utility.yul\":466:562   */\n    tag_44:\n        /* \"#utility.yul\":503:510   */\n      0x00\n        /* \"#utility.yul\":532:556   */\n      tag_82\n        /* \"#utility.yul\":550:555   */\n      dup3\n        /* \"#utility.yul\":532:556   */\n      tag_43\n      jump\t// in\n    tag_82:\n        /* \"#utility.yul\":521:556   */\n      swap1\n      pop\n        /* \"#utility.yul\":466:562   */\n      swap2\n      swap1\n      pop\n      jump\t// out\n        /* \"#utility.yul\":568:690   */\n    tag_45:\n        /* \"#utility.yul\":641:665   */\n      tag_84\n        /* \"#utility.yul\":659:664   */\n      dup2\n        /* \"#utility.yul\":641:665   */\n      tag_44\n      jump\t// in\n    tag_84:\n        /* \"#utility.yul\":634:639   */\n      dup2\n        /* \"#utility.yul\":631:666   */\n      eq\n        /* \"#utility.yul\":621:684   */\n      tag_85\n      jumpi\n        /* \"#utility.yul\":680:681   */\n      0x00\n        /* \"#utility.yul\":677:678   */\n      dup1\n        /* \"#utility.yul\":670:682   */\n      revert\n        /* \"#utility.yul\":621:684   */\n    tag_85:\n        /* \"#utility.yul\":568:690   */\n      pop\n      jump\t// out\n        /* \"#utility.yul\":696:835   */\n    tag_46:\n        /* \"#utility.yul\":742:747   */\n      0x00\n        /* \"#utility.yul\":780:786   */\n      dup2\n        /* \"#utility.yul\":767:787   */\n      calldataload\n        /* \"#utility.yul\":758:787   */\n      swap1\n      pop\n        /* \"#utility.yul\":796:829   */\n      tag_87\n        /* \"#utility.yul\":823:828   */\n      dup2\n        /* \"#utility.yul\":796:829   */\n      tag_45\n      jump\t// in\n    tag_87:\n        /* \"#utility.yul\":696:835   */\n      swap3\n      swap2\n      pop\n      pop\n      jump\t// out\n        /* \"#utility.yul\":841:918   */\n    tag_47:\n        /* \"#utility.yul\":878:885   */\n      0x00\n        /* \"#utility.yul\":907:912   */\n      dup2\n        /* \"#utility.yul\":896:912   */\n      swap1\n      pop\n        /* \"#utility.yul\":841:918   */\n      swap2\n      swap1\n      pop\n      jump\t// out\n        /* \"#utility.yul\":924:1046   */\n    tag_48:\n        /* \"#utility.yul\":997:1021   */\n      tag_90\n        /* \"#utility.yul\":1015:1020   */\n      dup2\n        /* \"#utility.yul\":997:1021   */\n      tag_47\n      jump\t// in\n    tag_90:\n        /* \"#utility.yul\":990:995   */\n      dup2\n        /* \"#utility.yul\":987:1022   */\n      eq\n        /* \"#utility.yul\":977:1040   */\n      tag_91\n      jumpi\n        /* \"#utility.yul\":1036:1037   */\n      0x00\n        /* \"#utility.yul\":1033:1034   */\n      dup1\n        /* \"#utility.yul\":1026:1038   */\n      revert\n        /* \"#utility.yul\":977:1040   */\n    tag_91:\n        /* \"#utility.yul\":924:1046   */\n      pop\n      jump\t// out\n        /* \"#utility.yul\":1052:1191   */\n    tag_49:\n        /* \"#utility.yul\":1098:1103   */\n      0x00\n        /* \"#utility.yul\":1136:1142   */\n      dup2\n        /* \"#utility.yul\":1123:1143   */\n      calldataload\n        /* \"#utility.yul\":1114:1143   */\n      swap1\n      pop\n        /* \"#utility.yul\":1152:1185   */\n      tag_93\n        /* \"#utility.yul\":1179:1184   */\n      dup2\n        /* \"#utility.yul\":1152:1185   */\n      tag_48\n      jump\t// in\n    tag_93:\n        /* \"#utility.yul\":1052:1191   */\n      swap3\n      swap2\n      pop\n      pop\n      jump\t// out\n        /* \"#utility.yul\":1197:1314   */\n    tag_50:\n        /* \"#utility.yul\":1306:1307   */\n      0x00\n        /* \"#utility.yul\":1303:1304   */\n      dup1\n        /* \"#utility.yul\":1296:1308   */\n      revert\n        /* \"#utility.yul\":1320:1437   */\n    tag_51:\n        /* \"#utility.yul\":1429:1430   */\n      0x00\n        /* \"#utility.yul\":1426:1427   */\n      dup1\n        /* \"#utility.yul\":1419:1431   */\n      revert\n        /* \"#utility.yul\":1443:1545   */\n    tag_52:\n        /* \"#utility.yul\":1484:1490   */\n      0x00\n        /* \"#utility.yul\":1535:1537   */\n      0x1f\n        /* \"#utility.yul\":1531:1538   */\n      not\n        /* \"#utility.yul\":1526:1528   */\n      0x1f\n        /* \"#utility.yul\":1519:1524   */\n      dup4\n        /* \"#utility.yul\":1515:1529   */\n      add\n        /* \"#utility.yul\":1511:1539   */\n      and\n        /* \"#utility.yul\":1501:1539   */\n      swap1\n      pop\n        /* \"#utility.yul\":1443:1545   */\n      swap2\n      swap1\n      pop\n      jump\t// out\n        /* \"#utility.yul\":1551:1731   */\n    tag_53:\n        /* \"#utility.yul\":1599:1676   */\n      0x4e487b7100000000000000000000000000000000000000000000000000000000\n        /* \"#utility.yul\":1596:1597   */\n      0x00\n        /* \"#utility.yul\":1589:1677   */\n      mstore\n        /* \"#utility.yul\":1696:1700   */\n      0x41\n        /* \"#utility.yul\":1693:1694   */\n      0x04\n        /* \"#utility.yul\":1686:1701   */\n      mstore\n        /* \"#utility.yul\":1720:1724   */\n      0x24\n        /* \"#utility.yul\":1717:1718   */\n      0x00\n        /* \"#utility.yul\":1710:1725   */\n      revert\n        /* \"#utility.yul\":1737:2018   */\n    tag_54:\n        /* \"#utility.yul\":1820:1847   */\n      tag_99\n        /* \"#utility.yul\":1842:1846   */\n      dup3\n        /* \"#utility.yul\":1820:1847   */\n      tag_52\n      jump\t// in\n    tag_99:\n        /* \"#utility.yul\":1812:1818   */\n      dup2\n        /* \"#utility.yul\":1808:1848   */\n      add\n        /* \"#utility.yul\":1950:1956   */\n      dup2\n        /* \"#utility.yul\":1938:1948   */\n      dup2\n        /* \"#utility.yul\":1935:1957   */\n      lt\n        /* \"#utility.yul\":1914:1932   */\n      0xffffffffffffffff\n        /* \"#utility.yul\":1902:1912   */\n      dup3\n        /* \"#utility.yul\":1899:1933   */\n      gt\n        /* \"#utility.yul\":1896:1958   */\n      or\n        /* \"#utility.yul\":1893:1981   */\n      iszero\n      tag_100\n      jumpi\n        /* \"#utility.yul\":1961:1979   */\n      tag_101\n      tag_53\n      jump\t// in\n    tag_101:\n        /* \"#utility.yul\":1893:1981   */\n    tag_100:\n        /* \"#utility.yul\":2001:2011   */\n      dup1\n        /* \"#utility.yul\":1997:1999   */\n      0x40\n        /* \"#utility.yul\":1990:2012   */\n      mstore\n        /* \"#utility.yul\":1780:2018   */\n      pop\n        /* \"#utility.yul\":1737:2018   */\n      pop\n      pop\n      jump\t// out\n        /* \"#utility.yul\":2024:2153   */\n    tag_55:\n        /* \"#utility.yul\":2058:2064   */\n      0x00\n        /* \"#utility.yul\":2085:2105   */\n      tag_103\n      tag_40\n      jump\t// in\n    tag_103:\n        /* \"#utility.yul\":2075:2105   */\n      swap1\n      pop\n        /* \"#utility.yul\":2114:2147   */\n      tag_104\n        /* \"#utility.yul\":2142:2146   */\n      dup3\n        /* \"#utility.yul\":2134:2140   */\n      dup3\n        /* \"#utility.yul\":2114:2147   */\n      tag_54\n      jump\t// in\n    tag_104:\n        /* \"#utility.yul\":2024:2153   */\n      swap2\n      swap1\n      pop\n      jump\t// out\n        /* \"#utility.yul\":2159:2466   */\n    tag_56:\n        /* \"#utility.yul\":2220:2224   */\n      0x00\n        /* \"#utility.yul\":2310:2328   */\n      0xffffffffffffffff\n        /* \"#utility.yul\":2302:2308   */\n      dup3\n        /* \"#utility.yul\":2299:2329   */\n      gt\n        /* \"#utility.yul\":2296:2352   */\n      iszero\n      tag_106\n      jumpi\n        /* \"#utility.yul\":2332:2350   */\n      tag_107\n      tag_53\n      jump\t// in\n    tag_107:\n        /* \"#utility.yul\":2296:2352   */\n    tag_106:\n        /* \"#utility.yul\":2370:2399   */\n      tag_108\n        /* \"#utility.yul\":2392:2398   */\n      dup3\n        /* \"#utility.yul\":2370:2399   */\n      tag_52\n      jump\t// in\n    tag_108:\n        /* \"#utility.yul\":2362:2399   */\n      swap1\n      pop\n        /* \"#utility.yul\":2454:2458   */\n      0x20\n        /* \"#utility.yul\":2448:2452   */\n      dup2\n        /* \"#utility.yul\":2444:2459   */\n      add\n        /* \"#utility.yul\":2436:2459   */\n      swap1\n      pop\n        /* \"#utility.yul\":2159:2466   */\n      swap2\n      swap1\n      pop\n      jump\t// out\n        /* \"#utility.yul\":2472:2620   */\n    tag_57:\n        /* \"#utility.yul\":2570:2576   */\n      dup3\n        /* \"#utility.yul\":2565:2568   */\n      dup2\n        /* \"#utility.yul\":2560:2563   */\n      dup4\n        /* \"#utility.yul\":2547:2577   */\n      calldatacopy\n        /* \"#utility.yul\":2611:2612   */\n      0x00\n        /* \"#utility.yul\":2602:2608   */\n      dup4\n        /* \"#utility.yul\":2597:2600   */\n      dup4\n        /* \"#utility.yul\":2593:2609   */\n      add\n        /* \"#utility.yul\":2586:2613   */\n      mstore\n        /* \"#utility.yul\":2472:2620   */\n      pop\n      pop\n      pop\n      jump\t// out\n        /* \"#utility.yul\":2626:3049   */\n    tag_58:\n        /* \"#utility.yul\":2703:2708   */\n      0x00\n        /* \"#utility.yul\":2728:2793   */\n      tag_111\n        /* \"#utility.yul\":2744:2792   */\n      tag_112\n        /* \"#utility.yul\":2785:2791   */\n      dup5\n        /* \"#utility.yul\":2744:2792   */\n      tag_56\n      jump\t// in\n    tag_112:\n        /* \"#utility.yul\":2728:2793   */\n      tag_55\n      jump\t// in\n    tag_111:\n        /* \"#utility.yul\":2719:2793   */\n      swap1\n      pop\n        /* \"#utility.yul\":2816:2822   */\n      dup3\n        /* \"#utility.yul\":2809:2814   */\n      dup2\n        /* \"#utility.yul\":2802:2823   */\n      mstore\n        /* \"#utility.yul\":2854:2858   */\n      0x20\n        /* \"#utility.yul\":2847:2852   */\n      dup2\n        /* \"#utility.yul\":2843:2859   */\n      add\n        /* \"#utility.yul\":2892:2895   */\n      dup5\n        /* \"#utility.yul\":2883:2889   */\n      dup5\n        /* \"#utility.yul\":2878:2881   */\n      dup5\n        /* \"#utility.yul\":2874:2890   */\n      add\n        /* \"#utility.yul\":2871:2896   */\n      gt\n        /* \"#utility.yul\":2868:2980   */\n      iszero\n      tag_113\n      jumpi\n        /* \"#utility.yul\":2899:2978   */\n      tag_114\n      tag_51\n      jump\t// in\n    tag_114:\n        /* \"#utility.yul\":2868:2980   */\n    tag_113:\n        /* \"#utility.yul\":2989:3043   */\n      tag_115\n        /* \"#utility.yul\":3036:3042   */\n      dup5\n        /* \"#utility.yul\":3031:3034   */\n      dup3\n        /* \"#utility.yul\":3026:3029   */\n      dup6\n        /* \"#utility.yul\":2989:3043   */\n      tag_57\n      jump\t// in\n    tag_115:\n        /* \"#utility.yul\":2709:3049   */\n      pop\n        /* \"#utility.yul\":2626:3049   */\n      swap4\n      swap3\n      pop\n      pop\n      pop\n      jump\t// out\n        /* \"#utility.yul\":3068:3406   */\n    tag_59:\n        /* \"#utility.yul\":3123:3128   */\n      0x00\n        /* \"#utility.yul\":3172:3175   */\n      dup3\n        /* \"#utility.yul\":3165:3169   */\n      0x1f\n        /* \"#utility.yul\":3157:3163   */\n      dup4\n        /* \"#utility.yul\":3153:3170   */\n      add\n        /* \"#utility.yul\":3149:3176   */\n      slt\n        /* \"#utility.yul\":3139:3261   */\n      tag_117\n      jumpi\n        /* \"#utility.yul\":3180:3259   */\n      tag_118\n      tag_50\n      jump\t// in\n    tag_118:\n        /* \"#utility.yul\":3139:3261   */\n    tag_117:\n        /* \"#utility.yul\":3297:3303   */\n      dup2\n        /* \"#utility.yul\":3284:3304   */\n      calldataload\n        /* \"#utility.yul\":3322:3400   */\n      tag_119\n        /* \"#utility.yul\":3396:3399   */\n      dup5\n        /* \"#utility.yul\":3388:3394   */\n      dup3\n        /* \"#utility.yul\":3381:3385   */\n      0x20\n        /* \"#utility.yul\":3373:3379   */\n      dup7\n        /* \"#utility.yul\":3369:3386   */\n      add\n        /* \"#utility.yul\":3322:3400   */\n      tag_58\n      jump\t// in\n    tag_119:\n        /* \"#utility.yul\":3313:3400   */\n      swap2\n      pop\n        /* \"#utility.yul\":3129:3406   */\n      pop\n        /* \"#utility.yul\":3068:3406   */\n      swap3\n      swap2\n      pop\n      pop\n      jump\t// out\n        /* \"#utility.yul\":3412:4209   */\n    tag_7:\n        /* \"#utility.yul\":3498:3504   */\n      0x00\n        /* \"#utility.yul\":3506:3512   */\n      dup1\n        /* \"#utility.yul\":3514:3520   */\n      0x00\n        /* \"#utility.yul\":3563:3565   */\n      0x60\n        /* \"#utility.yul\":3551:3560   */\n      dup5\n        /* \"#utility.yul\":3542:3549   */\n      dup7\n        /* \"#utility.yul\":3538:3561   */\n      sub\n        /* \"#utility.yul\":3534:3566   */\n      slt\n        /* \"#utility.yul\":3531:3650   */\n      iszero\n      tag_121\n      jumpi\n        /* \"#utility.yul\":3569:3648   */\n      tag_122\n      tag_41\n      jump\t// in\n    tag_122:\n        /* \"#utility.yul\":3531:3650   */\n    tag_121:\n        /* \"#utility.yul\":3689:3690   */\n      0x00\n        /* \"#utility.yul\":3714:3767   */\n      tag_123\n        /* \"#utility.yul\":3759:3766   */\n      dup7\n        /* \"#utility.yul\":3750:3756   */\n      dup3\n        /* \"#utility.yul\":3739:3748   */\n      dup8\n        /* \"#utility.yul\":3735:3757   */\n      add\n        /* \"#utility.yul\":3714:3767   */\n      tag_46\n      jump\t// in\n    tag_123:\n        /* \"#utility.yul\":3704:3767   */\n      swap4\n      pop\n        /* \"#utility.yul\":3660:3777   */\n      pop\n        /* \"#utility.yul\":3816:3818   */\n      0x20\n        /* \"#utility.yul\":3842:3895   */\n      tag_124\n        /* \"#utility.yul\":3887:3894   */\n      dup7\n        /* \"#utility.yul\":3878:3884   */\n      dup3\n        /* \"#utility.yul\":3867:3876   */\n      dup8\n        /* \"#utility.yul\":3863:3885   */\n      add\n        /* \"#utility.yul\":3842:3895   */\n      tag_49\n      jump\t// in\n    tag_124:\n        /* \"#utility.yul\":3832:3895   */\n      swap3\n      pop\n        /* \"#utility.yul\":3787:3905   */\n      pop\n        /* \"#utility.yul\":3972:3974   */\n      0x40\n        /* \"#utility.yul\":3961:3970   */\n      dup5\n        /* \"#utility.yul\":3957:3975   */\n      add\n        /* \"#utility.yul\":3944:3976   */\n      calldataload\n        /* \"#utility.yul\":4003:4021   */\n      0xffffffffffffffff\n        /* \"#utility.yul\":3995:4001   */\n      dup2\n        /* \"#utility.yul\":3992:4022   */\n      gt\n        /* \"#utility.yul\":3989:4106   */\n      iszero\n      tag_125\n      jumpi\n        /* \"#utility.yul\":4025:4104   */\n      tag_126\n      tag_42\n      jump\t// in\n    tag_126:\n        /* \"#utility.yul\":3989:4106   */\n    tag_125:\n        /* \"#utility.yul\":4130:4192   */\n      tag_127\n        /* \"#utility.yul\":4184:4191   */\n      dup7\n        /* \"#utility.yul\":4175:4181   */\n      dup3\n        /* \"#utility.yul\":4164:4173   */\n      dup8\n        /* \"#utility.yul\":4160:4182   */\n      add\n        /* \"#utility.yul\":4130:4192   */\n      tag_59\n      jump\t// in\n    tag_127:\n        /* \"#utility.yul\":4120:4192   */\n      swap2\n      pop\n        /* \"#utility.yul\":3915:4202   */\n      pop\n        /* \"#utility.yul\":3412:4209   */\n      swap3\n      pop\n      swap3\n      pop\n      swap3\n      jump\t// out\n        /* \"#utility.yul\":4215:4305   */\n    tag_60:\n        /* \"#utility.yul\":4249:4256   */\n      0x00\n        /* \"#utility.yul\":4292:4297   */\n      dup2\n        /* \"#utility.yul\":4285:4298   */\n      iszero\n        /* \"#utility.yul\":4278:4299   */\n      iszero\n        /* \"#utility.yul\":4267:4299   */\n      swap1\n      pop\n        /* \"#utility.yul\":4215:4305   */\n      swap2\n      swap1\n      pop\n      jump\t// out\n        /* \"#utility.yul\":4311:4420   */\n    tag_61:\n        /* \"#utility.yul\":4392:4413   */\n      tag_130\n        /* \"#utility.yul\":4407:4412   */\n      dup2\n        /* \"#utility.yul\":4392:4413   */\n      tag_60\n      jump\t// in\n    tag_130:\n        /* \"#utility.yul\":4387:4390   */\n      dup3\n        /* \"#utility.yul\":4380:4414   */\n      mstore\n        /* \"#utility.yul\":4311:4420   */\n      pop\n      pop\n      jump\t// out\n        /* \"#utility.yul\":4426:4636   */\n    tag_10:\n        /* \"#utility.yul\":4513:4517   */\n      0x00\n        /* \"#utility.yul\":4551:4553   */\n      0x20\n        /* \"#utility.yul\":4540:4549   */\n      dup3\n        /* \"#utility.yul\":4536:4554   */\n      add\n        /* \"#utility.yul\":4528:4554   */\n      swap1\n      pop\n        /* \"#utility.yul\":4564:4629   */\n      tag_132\n        /* \"#utility.yul\":4626:4627   */\n      0x00\n        /* \"#utility.yul\":4615:4624   */\n      dup4\n        /* \"#utility.yul\":4611:4628   */\n      add\n        /* \"#utility.yul\":4602:4608   */\n      dup5\n        /* \"#utility.yul\":4564:4629   */\n      tag_61\n      jump\t// in\n    tag_132:\n        /* \"#utility.yul\":4426:4636   */\n      swap3\n      swap2\n      pop\n      pop\n      jump\t// out\n        /* \"#utility.yul\":4642:4971   */\n    tag_13:\n        /* \"#utility.yul\":4701:4707   */\n      0x00\n        /* \"#utility.yul\":4750:4752   */\n      0x20\n        /* \"#utility.yul\":4738:4747   */\n      dup3\n        /* \"#utility.yul\":4729:4736   */\n      dup5\n        /* \"#utility.yul\":4725:4748   */\n      sub\n        /* \"#utility.yul\":4721:4753   */\n      slt\n        /* \"#utility.yul\":4718:4837   */\n      iszero\n      tag_134\n      jumpi\n        /* \"#utility.yul\":4756:4835   */\n      tag_135\n      tag_41\n      jump\t// in\n    tag_135:\n        /* \"#utility.yul\":4718:4837   */\n    tag_134:\n        /* \"#utility.yul\":4876:4877   */\n      0x00\n        /* \"#utility.yul\":4901:4954   */\n      tag_136\n        /* \"#utility.yul\":4946:4953   */\n      dup5\n        /* \"#utility.yul\":4937:4943   */\n      dup3\n        /* \"#utility.yul\":4926:4935   */\n      dup6\n        /* \"#utility.yul\":4922:4944   */\n      add\n        /* \"#utility.yul\":4901:4954   */\n      tag_49\n      jump\t// in\n    tag_136:\n        /* \"#utility.yul\":4891:4954   */\n      swap2\n      pop\n        /* \"#utility.yul\":4847:4964   */\n      pop\n        /* \"#utility.yul\":4642:4971   */\n      swap3\n      swap2\n      pop\n      pop\n      jump\t// out\n        /* \"#utility.yul\":4977:5054   */\n    tag_62:\n        /* \"#utility.yul\":5014:5021   */\n      0x00\n        /* \"#utility.yul\":5043:5048   */\n      dup2\n        /* \"#utility.yul\":5032:5048   */\n      swap1\n      pop\n        /* \"#utility.yul\":4977:5054   */\n      swap2\n      swap1\n      pop\n      jump\t// out\n        /* \"#utility.yul\":5060:5178   */\n    tag_63:\n        /* \"#utility.yul\":5147:5171   */\n      tag_139\n        /* \"#utility.yul\":5165:5170   */\n      dup2\n        /* \"#utility.yul\":5147:5171   */\n      tag_62\n      jump\t// in\n    tag_139:\n        /* \"#utility.yul\":5142:5145   */\n      dup3\n        /* \"#utility.yul\":5135:5172   */\n      mstore\n        /* \"#utility.yul\":5060:5178   */\n      pop\n      pop\n      jump\t// out\n        /* \"#utility.yul\":5184:5406   */\n    tag_16:\n        /* \"#utility.yul\":5277:5281   */\n      0x00\n        /* \"#utility.yul\":5315:5317   */\n      0x20\n        /* \"#utility.yul\":5304:5313   */\n      dup3\n        /* \"#utility.yul\":5300:5318   */\n      add\n        /* \"#utility.yul\":5292:5318   */\n      swap1\n      pop\n        /* \"#utility.yul\":5328:5399   */\n      tag_141\n        /* \"#utility.yul\":5396:5397   */\n      0x00\n        /* \"#utility.yul\":5385:5394   */\n      dup4\n        /* \"#utility.yul\":5381:5398   */\n      add\n        /* \"#utility.yul\":5372:5378   */\n      dup5\n        /* \"#utility.yul\":5328:5399   */\n      tag_63\n      jump\t// in\n    tag_141:\n        /* \"#utility.yul\":5184:5406   */\n      swap3\n      swap2\n      pop\n      pop\n      jump\t// out\n        /* \"#utility.yul\":5412:5491   */\n    tag_64:\n        /* \"#utility.yul\":5451:5458   */\n      0x00\n        /* \"#utility.yul\":5480:5485   */\n      dup2\n        /* \"#utility.yul\":5469:5485   */\n      swap1\n      pop\n        /* \"#utility.yul\":5412:5491   */\n      swap2\n      swap1\n      pop\n      jump\t// out\n        /* \"#utility.yul\":5497:5654   */\n    tag_65:\n        /* \"#utility.yul\":5602:5647   */\n      tag_144\n        /* \"#utility.yul\":5622:5646   */\n      tag_145\n        /* \"#utility.yul\":5640:5645   */\n      dup3\n        /* \"#utility.yul\":5622:5646   */\n      tag_47\n      jump\t// in\n    tag_145:\n        /* \"#utility.yul\":5602:5647   */\n      tag_64\n      jump\t// in\n    tag_144:\n        /* \"#utility.yul\":5597:5600   */\n      dup3\n        /* \"#utility.yul\":5590:5648   */\n      mstore\n        /* \"#utility.yul\":5497:5654   */\n      pop\n      pop\n      jump\t// out\n        /* \"#utility.yul\":5660:5916   */\n    tag_25:\n        /* \"#utility.yul\":5772:5775   */\n      0x00\n        /* \"#utility.yul\":5787:5862   */\n      tag_147\n        /* \"#utility.yul\":5858:5861   */\n      dup3\n        /* \"#utility.yul\":5849:5855   */\n      dup5\n        /* \"#utility.yul\":5787:5862   */\n      tag_65\n      jump\t// in\n    tag_147:\n        /* \"#utility.yul\":5887:5889   */\n      0x20\n        /* \"#utility.yul\":5882:5885   */\n      dup3\n        /* \"#utility.yul\":5878:5890   */\n      add\n        /* \"#utility.yul\":5871:5890   */\n      swap2\n      pop\n        /* \"#utility.yul\":5907:5910   */\n      dup2\n        /* \"#utility.yul\":5900:5910   */\n      swap1\n      pop\n        /* \"#utility.yul\":5660:5916   */\n      swap3\n      swap2\n      pop\n      pop\n      jump\t// out\n        /* \"#utility.yul\":5922:6070   */\n    tag_66:\n        /* \"#utility.yul\":6024:6035   */\n      0x00\n        /* \"#utility.yul\":6061:6064   */\n      dup2\n        /* \"#utility.yul\":6046:6064   */\n      swap1\n      pop\n        /* \"#utility.yul\":5922:6070   */\n      swap3\n      swap2\n      pop\n      pop\n      jump\t// out\n        /* \"#utility.yul\":6076:6290   */\n    tag_67:\n        /* \"#utility.yul\":6216:6282   */\n      0x19457468657265756d205369676e6564204d6573736167653a0a333200000000\n        /* \"#utility.yul\":6212:6213   */\n      0x00\n        /* \"#utility.yul\":6204:6210   */\n      dup3\n        /* \"#utility.yul\":6200:6214   */\n      add\n        /* \"#utility.yul\":6193:6283   */\n      mstore\n        /* \"#utility.yul\":6076:6290   */\n      pop\n      jump\t// out\n        /* \"#utility.yul\":6296:6698   */\n    tag_68:\n        /* \"#utility.yul\":6456:6459   */\n      0x00\n        /* \"#utility.yul\":6477:6562   */\n      tag_151\n        /* \"#utility.yul\":6559:6561   */\n      0x1c\n        /* \"#utility.yul\":6554:6557   */\n      dup4\n        /* \"#utility.yul\":6477:6562   */\n      tag_66\n      jump\t// in\n    tag_151:\n        /* \"#utility.yul\":6470:6562   */\n      swap2\n      pop\n        /* \"#utility.yul\":6571:6664   */\n      tag_152\n        /* \"#utility.yul\":6660:6663   */\n      dup3\n        /* \"#utility.yul\":6571:6664   */\n      tag_67\n      jump\t// in\n    tag_152:\n        /* \"#utility.yul\":6689:6691   */\n      0x1c\n        /* \"#utility.yul\":6684:6687   */\n      dup3\n        /* \"#utility.yul\":6680:6692   */\n      add\n        /* \"#utility.yul\":6673:6692   */\n      swap1\n      pop\n        /* \"#utility.yul\":6296:6698   */\n      swap2\n      swap1\n      pop\n      jump\t// out\n        /* \"#utility.yul\":6704:6783   */\n    tag_69:\n        /* \"#utility.yul\":6743:6750   */\n      0x00\n        /* \"#utility.yul\":6772:6777   */\n      dup2\n        /* \"#utility.yul\":6761:6777   */\n      swap1\n      pop\n        /* \"#utility.yul\":6704:6783   */\n      swap2\n      swap1\n      pop\n      jump\t// out\n        /* \"#utility.yul\":6789:6946   */\n    tag_70:\n        /* \"#utility.yul\":6894:6939   */\n      tag_155\n        /* \"#utility.yul\":6914:6938   */\n      tag_156\n        /* \"#utility.yul\":6932:6937   */\n      dup3\n        /* \"#utility.yul\":6914:6938   */\n      tag_62\n      jump\t// in\n    tag_156:\n        /* \"#utility.yul\":6894:6939   */\n      tag_69\n      jump\t// in\n    tag_155:\n        /* \"#utility.yul\":6889:6892   */\n      dup3\n        /* \"#utility.yul\":6882:6940   */\n      mstore\n        /* \"#utility.yul\":6789:6946   */\n      pop\n      pop\n      jump\t// out\n        /* \"#utility.yul\":6952:7474   */\n    tag_28:\n        /* \"#utility.yul\":7165:7168   */\n      0x00\n        /* \"#utility.yul\":7187:7335   */\n      tag_158\n        /* \"#utility.yul\":7331:7334   */\n      dup3\n        /* \"#utility.yul\":7187:7335   */\n      tag_68\n      jump\t// in\n    tag_158:\n        /* \"#utility.yul\":7180:7335   */\n      swap2\n      pop\n        /* \"#utility.yul\":7345:7420   */\n      tag_159\n        /* \"#utility.yul\":7416:7419   */\n      dup3\n        /* \"#utility.yul\":7407:7413   */\n      dup5\n        /* \"#utility.yul\":7345:7420   */\n      tag_70\n      jump\t// in\n    tag_159:\n        /* \"#utility.yul\":7445:7447   */\n      0x20\n        /* \"#utility.yul\":7440:7443   */\n      dup3\n        /* \"#utility.yul\":7436:7448   */\n      add\n        /* \"#utility.yul\":7429:7448   */\n      swap2\n      pop\n        /* \"#utility.yul\":7465:7468   */\n      dup2\n        /* \"#utility.yul\":7458:7468   */\n      swap1\n      pop\n        /* \"#utility.yul\":6952:7474   */\n      swap3\n      swap2\n      pop\n      pop\n      jump\t// out\n        /* \"#utility.yul\":7480:7566   */\n    tag_71:\n        /* \"#utility.yul\":7515:7522   */\n      0x00\n        /* \"#utility.yul\":7555:7559   */\n      0xff\n        /* \"#utility.yul\":7548:7553   */\n      dup3\n        /* \"#utility.yul\":7544:7560   */\n      and\n        /* \"#utility.yul\":7533:7560   */\n      swap1\n      pop\n        /* \"#utility.yul\":7480:7566   */\n      swap2\n      swap1\n      pop\n      jump\t// out\n        /* \"#utility.yul\":7572:7684   */\n    tag_72:\n        /* \"#utility.yul\":7655:7677   */\n      tag_162\n        /* \"#utility.yul\":7671:7676   */\n      dup2\n        /* \"#utility.yul\":7655:7677   */\n      tag_71\n      jump\t// in\n    tag_162:\n        /* \"#utility.yul\":7650:7653   */\n      dup3\n        /* \"#utility.yul\":7643:7678   */\n      mstore\n        /* \"#utility.yul\":7572:7684   */\n      pop\n      pop\n      jump\t// out\n        /* \"#utility.yul\":7690:8235   */\n    tag_33:\n        /* \"#utility.yul\":7863:7867   */\n      0x00\n        /* \"#utility.yul\":7901:7904   */\n      0x80\n        /* \"#utility.yul\":7890:7899   */\n      dup3\n        /* \"#utility.yul\":7886:7905   */\n      add\n        /* \"#utility.yul\":7878:7905   */\n      swap1\n      pop\n        /* \"#utility.yul\":7915:7986   */\n      tag_164\n        /* \"#utility.yul\":7983:7984   */\n      0x00\n        /* \"#utility.yul\":7972:7981   */\n      dup4\n        /* \"#utility.yul\":7968:7985   */\n      add\n        /* \"#utility.yul\":7959:7965   */\n      dup8\n        /* \"#utility.yul\":7915:7986   */\n      tag_63\n      jump\t// in\n    tag_164:\n        /* \"#utility.yul\":7996:8064   */\n      tag_165\n        /* \"#utility.yul\":8060:8062   */\n      0x20\n        /* \"#utility.yul\":8049:8058   */\n      dup4\n        /* \"#utility.yul\":8045:8063   */\n      add\n        /* \"#utility.yul\":8036:8042   */\n      dup7\n        /* \"#utility.yul\":7996:8064   */\n      tag_72\n      jump\t// in\n    tag_165:\n        /* \"#utility.yul\":8074:8146   */\n      tag_166\n        /* \"#utility.yul\":8142:8144   */\n      0x40\n        /* \"#utility.yul\":8131:8140   */\n      dup4\n        /* \"#utility.yul\":8127:8145   */\n      add\n        /* \"#utility.yul\":8118:8124   */\n      dup6\n        /* \"#utility.yul\":8074:8146   */\n      tag_63\n      jump\t// in\n    tag_166:\n        /* \"#utility.yul\":8156:8228   */\n      tag_167\n        /* \"#utility.yul\":8224:8226   */\n      0x60\n        /* \"#utility.yul\":8213:8222   */\n      dup4\n        /* \"#utility.yul\":8209:8227   */\n      add\n        /* \"#utility.yul\":8200:8206   */\n      dup5\n        /* \"#utility.yul\":8156:8228   */\n      tag_63\n      jump\t// in\n    tag_167:\n        /* \"#utility.yul\":7690:8235   */\n      swap6\n      swap5\n      pop\n      pop\n      pop\n      pop\n      pop\n      jump\t// out\n        /* \"#utility.yul\":8241:8410   */\n    tag_73:\n        /* \"#utility.yul\":8325:8336   */\n      0x00\n        /* \"#utility.yul\":8359:8365   */\n      dup3\n        /* \"#utility.yul\":8354:8357   */\n      dup3\n        /* \"#utility.yul\":8347:8366   */\n      mstore\n        /* \"#utility.yul\":8399:8403   */\n      0x20\n        /* \"#utility.yul\":8394:8397   */\n      dup3\n        /* \"#utility.yul\":8390:8404   */\n      add\n        /* \"#utility.yul\":8375:8404   */\n      swap1\n      pop\n        /* \"#utility.yul\":8241:8410   */\n      swap3\n      swap2\n      pop\n      pop\n      jump\t// out\n        /* \"#utility.yul\":8416:8590   */\n    tag_74:\n        /* \"#utility.yul\":8556:8582   */\n      0x696e76616c6964207369676e6174757265206c656e6774680000000000000000\n        /* \"#utility.yul\":8552:8553   */\n      0x00\n        /* \"#utility.yul\":8544:8550   */\n      dup3\n        /* \"#utility.yul\":8540:8554   */\n      add\n        /* \"#utility.yul\":8533:8583   */\n      mstore\n        /* \"#utility.yul\":8416:8590   */\n      pop\n      jump\t// out\n        /* \"#utility.yul\":8596:8962   */\n    tag_75:\n        /* \"#utility.yul\":8738:8741   */\n      0x00\n        /* \"#utility.yul\":8759:8826   */\n      tag_171\n        /* \"#utility.yul\":8823:8825   */\n      0x18\n        /* \"#utility.yul\":8818:8821   */\n      dup4\n        /* \"#utility.yul\":8759:8826   */\n      tag_73\n      jump\t// in\n    tag_171:\n        /* \"#utility.yul\":8752:8826   */\n      swap2\n      pop\n        /* \"#utility.yul\":8835:8928   */\n      tag_172\n        /* \"#utility.yul\":8924:8927   */\n      dup3\n        /* \"#utility.yul\":8835:8928   */\n      tag_74\n      jump\t// in\n    tag_172:\n        /* \"#utility.yul\":8953:8955   */\n      0x20\n        /* \"#utility.yul\":8948:8951   */\n      dup3\n        /* \"#utility.yul\":8944:8956   */\n      add\n        /* \"#utility.yul\":8937:8956   */\n      swap1\n      pop\n        /* \"#utility.yul\":8596:8962   */\n      swap2\n      swap1\n      pop\n      jump\t// out\n        /* \"#utility.yul\":8968:9387   */\n    tag_39:\n        /* \"#utility.yul\":9134:9138   */\n      0x00\n        /* \"#utility.yul\":9172:9174   */\n      0x20\n        /* \"#utility.yul\":9161:9170   */\n      dup3\n        /* \"#utility.yul\":9157:9175   */\n      add\n        /* \"#utility.yul\":9149:9175   */\n      swap1\n      pop\n        /* \"#utility.yul\":9221:9230   */\n      dup2\n        /* \"#utility.yul\":9215:9219   */\n      dup2\n        /* \"#utility.yul\":9211:9231   */\n      sub\n        /* \"#utility.yul\":9207:9208   */\n      0x00\n        /* \"#utility.yul\":9196:9205   */\n      dup4\n        /* \"#utility.yul\":9192:9209   */\n      add\n        /* \"#utility.yul\":9185:9232   */\n      mstore\n        /* \"#utility.yul\":9249:9380   */\n      tag_174\n        /* \"#utility.yul\":9375:9379   */\n      dup2\n        /* \"#utility.yul\":9249:9380   */\n      tag_75\n      jump\t// in\n    tag_174:\n        /* \"#utility.yul\":9241:9380   */\n      swap1\n      pop\n        /* \"#utility.yul\":8968:9387   */\n      swap2\n      swap1\n      pop\n      jump\t// out\n\n    auxdata: 0xa2646970667358221220e56b7429b274a7dc8641d2ebfd29dbc6263d4150e8e88a645053a1dec1e6282564736f6c63430008190033\n}\n",
				"bytecode": {
					"linkReferences": {},
					"object": "6080604052348015600e575f80fd5b506106d58061001c5f395ff3fe608060405234801561000f575f80fd5b5060043610610034575f3560e01c80636f576e0614610038578063ba86a10d14610068575b5f80fd5b610052600480360381019061004d91906103fb565b610098565b60405161005f9190610481565b60405180910390f35b610082600480360381019061007d919061049a565b6100f4565b60405161008f91906104dd565b60405180910390f35b5f806100a3846100f4565b90505f6100af82610123565b90508573ffffffffffffffffffffffffffffffffffffffff166100d28286610152565b73ffffffffffffffffffffffffffffffffffffffff1614925050509392505050565b5f816040516020016101069190610516565b604051602081830303815290604052805190602001209050919050565b5f8160405160200161013591906105a4565b604051602081830303815290604052805190602001209050919050565b5f805f8061015f856101bc565b9250925092506001868285856040515f815260200160405260405161018794939291906105e4565b6020604051602081039080840390855afa1580156101a7573d5f803e3d5ffd5b50505060206040510351935050505092915050565b5f805f6041845114610203576040517f08c379a00000000000000000000000000000000000000000000000000000000081526004016101fa90610681565b60405180910390fd5b602084015192506040840151915060608401515f1a90509193909250565b5f604051905090565b5f80fd5b5f80fd5b5f73ffffffffffffffffffffffffffffffffffffffff82169050919050565b5f61025b82610232565b9050919050565b61026b81610251565b8114610275575f80fd5b50565b5f8135905061028681610262565b92915050565b5f819050919050565b61029e8161028c565b81146102a8575f80fd5b50565b5f813590506102b981610295565b92915050565b5f80fd5b5f80fd5b5f601f19601f8301169050919050565b7f4e487b71000000000000000000000000000000000000000000000000000000005f52604160045260245ffd5b61030d826102c7565b810181811067ffffffffffffffff8211171561032c5761032b6102d7565b5b80604052505050565b5f61033e610221565b905061034a8282610304565b919050565b5f67ffffffffffffffff821115610369576103686102d7565b5b610372826102c7565b9050602081019050919050565b828183375f83830152505050565b5f61039f61039a8461034f565b610335565b9050828152602081018484840111156103bb576103ba6102c3565b5b6103c684828561037f565b509392505050565b5f82601f8301126103e2576103e16102bf565b5b81356103f284826020860161038d565b91505092915050565b5f805f606084860312156104125761041161022a565b5b5f61041f86828701610278565b9350506020610430868287016102ab565b925050604084013567ffffffffffffffff8111156104515761045061022e565b5b61045d868287016103ce565b9150509250925092565b5f8115159050919050565b61047b81610467565b82525050565b5f6020820190506104945f830184610472565b92915050565b5f602082840312156104af576104ae61022a565b5b5f6104bc848285016102ab565b91505092915050565b5f819050919050565b6104d7816104c5565b82525050565b5f6020820190506104f05f8301846104ce565b92915050565b5f819050919050565b61051061050b8261028c565b6104f6565b82525050565b5f61052182846104ff565b60208201915081905092915050565b5f81905092915050565b7f19457468657265756d205369676e6564204d6573736167653a0a3332000000005f82015250565b5f61056e601c83610530565b91506105798261053a565b601c82019050919050565b5f819050919050565b61059e610599826104c5565b610584565b82525050565b5f6105ae82610562565b91506105ba828461058d565b60208201915081905092915050565b5f60ff82169050919050565b6105de816105c9565b82525050565b5f6080820190506105f75f8301876104ce565b61060460208301866105d5565b61061160408301856104ce565b61061e60608301846104ce565b95945050505050565b5f82825260208201905092915050565b7f696e76616c6964207369676e6174757265206c656e67746800000000000000005f82015250565b5f61066b601883610627565b915061067682610637565b602082019050919050565b5f6020820190508181035f8301526106988161065f565b905091905056fea2646970667358221220e56b7429b274a7dc8641d2ebfd29dbc6263d4150e8e88a645053a1dec1e6282564736f6c63430008190033",
					"opcodes": "PUSH1 0x80 PUSH1 0x40 MSTORE CALLVALUE DUP1 ISZERO PUSH1 0xE JUMPI PUSH0 DUP1 REVERT JUMPDEST POP PUSH2 0x6D5 DUP1 PUSH2 0x1C PUSH0 CODECOPY PUSH0 RETURN INVALID PUSH1 0x80 PUSH1 0x40 MSTORE CALLVALUE DUP1 ISZERO PUSH2 0xF JUMPI PUSH0 DUP1 REVERT JUMPDEST POP PUSH1 0x4 CALLDATASIZE LT PUSH2 0x34 JUMPI PUSH0 CALLDATALOAD PUSH1 0xE0 SHR DUP1 PUSH4 0x6F576E06 EQ PUSH2 0x38 JUMPI DUP1 PUSH4 0xBA86A10D EQ PUSH2 0x68 JUMPI JUMPDEST PUSH0 DUP1 REVERT JUMPDEST PUSH2 0x52 PUSH1 0x4 DUP1 CALLDATASIZE SUB DUP2 ADD SWAP1 PUSH2 0x4D SWAP2 SWAP1 PUSH2 0x3FB JUMP JUMPDEST PUSH2 0x98 JUMP JUMPDEST PUSH1 0x40 MLOAD PUSH2 0x5F SWAP2 SWAP1 PUSH2 0x481 JUMP JUMPDEST PUSH1 0x40 MLOAD DUP1 SWAP2 SUB SWAP1 RETURN JUMPDEST PUSH2 0x82 PUSH1 0x4 DUP1 CALLDATASIZE SUB DUP2 ADD SWAP1 PUSH2 0x7D SWAP2 SWAP1 PUSH2 0x49A JUMP JUMPDEST PUSH2 0xF4 JUMP JUMPDEST PUSH1 0x40 MLOAD PUSH2 0x8F SWAP2 SWAP1 PUSH2 0x4DD JUMP JUMPDEST PUSH1 0x40 MLOAD DUP1 SWAP2 SUB SWAP1 RETURN JUMPDEST PUSH0 DUP1 PUSH2 0xA3 DUP5 PUSH2 0xF4 JUMP JUMPDEST SWAP1 POP PUSH0 PUSH2 0xAF DUP3 PUSH2 0x123 JUMP JUMPDEST SWAP1 POP DUP6 PUSH20 0xFFFFFFFFFFFFFFFFFFFFFFFFFFFFFFFFFFFFFFFF AND PUSH2 0xD2 DUP3 DUP7 PUSH2 0x152 JUMP JUMPDEST PUSH20 0xFFFFFFFFFFFFFFFFFFFFFFFFFFFFFFFFFFFFFFFF AND EQ SWAP3 POP POP POP SWAP4 SWAP3 POP POP POP JUMP JUMPDEST PUSH0 DUP2 PUSH1 0x40 MLOAD PUSH1 0x20 ADD PUSH2 0x106 SWAP2 SWAP1 PUSH2 0x516 JUMP JUMPDEST PUSH1 0x40 MLOAD PUSH1 0x20 DUP2 DUP4 SUB SUB DUP2 MSTORE SWAP1 PUSH1 0x40 MSTORE DUP1 MLOAD SWAP1 PUSH1 0x20 ADD KECCAK256 SWAP1 POP SWAP2 SWAP1 POP JUMP JUMPDEST PUSH0 DUP2 PUSH1 0x40 MLOAD PUSH1 0x20 ADD PUSH2 0x135 SWAP2 SWAP1 PUSH2 0x5A4 JUMP JUMPDEST PUSH1 0x40 MLOAD PUSH1 0x20 DUP2 DUP4 SUB SUB DUP2 MSTORE SWAP1 PUSH1 0x40 MSTORE DUP1 MLOAD SWAP1 PUSH1 0x20 ADD KECCAK256 SWAP1 POP SWAP2 SWAP1 POP JUMP JUMPDEST PUSH0 DUP1 PUSH0 DUP1 PUSH2 0x15F DUP6 PUSH2 0x1BC JUMP JUMPDEST SWAP3 POP SWAP3 POP SWAP3 POP PUSH1 0x1 DUP7 DUP3 DUP6 DUP6 PUSH1 0x40 MLOAD PUSH0 DUP2 MSTORE PUSH1 0x20 ADD PUSH1 0x40 MSTORE PUSH1 0x40 MLOAD PUSH2 0x187 SWAP5 SWAP4 SWAP3 SWAP2 SWAP1 PUSH2 0x5E4 JUMP JUMPDEST PUSH1 0x20 PUSH1 0x40 MLOAD PUSH1 0x20 DUP2 SUB SWAP1 DUP1 DUP5 SUB SWAP1 DUP6 GAS STATICCALL ISZERO DUP1 ISZERO PUSH2 0x1A7 JUMPI RETURNDATASIZE PUSH0 DUP1 RETURNDATACOPY RETURNDATASIZE PUSH0 REVERT JUMPDEST POP POP POP PUSH1 0x20 PUSH1 0x40 MLOAD SUB MLOAD SWAP4 POP POP POP POP SWAP3 SWAP2 POP POP JUMP JUMPDEST PUSH0 DUP1 PUSH0 PUSH1 0x41 DUP5 MLOAD EQ PUSH2 0x203 JUMPI PUSH1 0x40 MLOAD PUSH32 0x8C379A000000000000000000000000000000000000000000000000000000000 DUP2 MSTORE PUSH1 0x4 ADD PUSH2 0x1FA SWAP1 PUSH2 0x681 JUMP JUMPDEST PUSH1 0x40 MLOAD DUP1 SWAP2 SUB SWAP1 REVERT JUMPDEST PUSH1 0x20 DUP5 ADD MLOAD SWAP3 POP PUSH1 0x40 DUP5 ADD MLOAD SWAP2 POP PUSH1 0x60 DUP5 ADD MLOAD PUSH0 BYTE SWAP1 POP SWAP2 SWAP4 SWAP1 SWAP3 POP JUMP JUMPDEST PUSH0 PUSH1 0x40 MLOAD SWAP1 POP SWAP1 JUMP JUMPDEST PUSH0 DUP1 REVERT JUMPDEST PUSH0 DUP1 REVERT JUMPDEST PUSH0 PUSH20 0xFFFFFFFFFFFFFFFFFFFFFFFFFFFFFFFFFFFFFFFF DUP3 AND SWAP1 POP SWAP2 SWAP1 POP JUMP JUMPDEST PUSH0 PUSH2 0x25B DUP3 PUSH2 0x232 JUMP JUMPDEST SWAP1 POP SWAP2 SWAP1 POP JUMP JUMPDEST PUSH2 0x26B DUP2 PUSH2 0x251 JUMP JUMPDEST DUP2 EQ PUSH2 0x275 JUMPI PUSH0 DUP1 REVERT JUMPDEST POP JUMP JUMPDEST PUSH0 DUP2 CALLDATALOAD SWAP1 POP PUSH2 0x286 DUP2 PUSH2 0x262 JUMP JUMPDEST SWAP3 SWAP2 POP POP JUMP JUMPDEST PUSH0 DUP2 SWAP1 POP SWAP2 SWAP1 POP JUMP JUMPDEST PUSH2 0x29E DUP2 PUSH2 0x28C JUMP JUMPDEST DUP2 EQ PUSH2 0x2A8 JUMPI PUSH0 DUP1 REVERT JUMPDEST POP JUMP JUMPDEST PUSH0 DUP2 CALLDATALOAD SWAP1 POP PUSH2 0x2B9 DUP2 PUSH2 0x295 JUMP JUMPDEST SWAP3 SWAP2 POP POP JUMP JUMPDEST PUSH0 DUP1 REVERT JUMPDEST PUSH0 DUP1 REVERT JUMPDEST PUSH0 PUSH1 0x1F NOT PUSH1 0x1F DUP4 ADD AND SWAP1 POP SWAP2 SWAP1 POP JUMP JUMPDEST PUSH32 0x4E487B7100000000000000000000000000000000000000000000000000000000 PUSH0 MSTORE PUSH1 0x41 PUSH1 0x4 MSTORE PUSH1 0x24 PUSH0 REVERT JUMPDEST PUSH2 0x30D DUP3 PUSH2 0x2C7 JUMP JUMPDEST DUP2 ADD DUP2 DUP2 LT PUSH8 0xFFFFFFFFFFFFFFFF DUP3 GT OR ISZERO PUSH2 0x32C JUMPI PUSH2 0x32B PUSH2 0x2D7 JUMP JUMPDEST JUMPDEST DUP1 PUSH1 0x40 MSTORE POP POP POP JUMP JUMPDEST PUSH0 PUSH2 0x33E PUSH2 0x221 JUMP JUMPDEST SWAP1 POP PUSH2 0x34A DUP3 DUP3 PUSH2 0x304 JUMP JUMPDEST SWAP2 SWAP1 POP JUMP JUMPDEST PUSH0 PUSH8 0xFFFFFFFFFFFFFFFF DUP3 GT ISZERO PUSH2 0x369 JUMPI PUSH2 0x368 PUSH2 0x2D7 JUMP JUMPDEST JUMPDEST PUSH2 0x372 DUP3 PUSH2 0x2C7 JUMP JUMPDEST SWAP1 POP PUSH1 0x20 DUP2 ADD SWAP1 POP SWAP2 SWAP1 POP JUMP JUMPDEST DUP3 DUP2 DUP4 CALLDATACOPY PUSH0 DUP4 DUP4 ADD MSTORE POP POP POP JUMP JUMPDEST PUSH0 PUSH2 0x39F PUSH2 0x39A DUP5 PUSH2 0x34F JUMP JUMPDEST PUSH2 0x335 JUMP JUMPDEST SWAP1 POP DUP3 DUP2 MSTORE PUSH1 0x20 DUP2 ADD DUP5 DUP5 DUP5 ADD GT ISZERO PUSH2 0x3BB JUMPI PUSH2 0x3BA PUSH2 0x2C3 JUMP JUMPDEST JUMPDEST PUSH2 0x3C6 DUP5 DUP3 DUP6 PUSH2 0x37F JUMP JUMPDEST POP SWAP4 SWAP3 POP POP POP JUMP JUMPDEST PUSH0 DUP3 PUSH1 0x1F DUP4 ADD SLT PUSH2 0x3E2 JUMPI PUSH2 0x3E1 PUSH2 0x2BF JUMP JUMPDEST JUMPDEST DUP2 CALLDATALOAD PUSH2 0x3F2 DUP5 DUP3 PUSH1 0x20 DUP7 ADD PUSH2 0x38D JUMP JUMPDEST SWAP2 POP POP SWAP3 SWAP2 POP POP JUMP JUMPDEST PUSH0 DUP1 PUSH0 PUSH1 0x60 DUP5 DUP7 SUB SLT ISZERO PUSH2 0x412 JUMPI PUSH2 0x411 PUSH2 0x22A JUMP JUMPDEST JUMPDEST PUSH0 PUSH2 0x41F DUP7 DUP3 DUP8 ADD PUSH2 0x278 JUMP JUMPDEST SWAP4 POP POP PUSH1 0x20 PUSH2 0x430 DUP7 DUP3 DUP8 ADD PUSH2 0x2AB JUMP JUMPDEST SWAP3 POP POP PUSH1 0x40 DUP5 ADD CALLDATALOAD PUSH8 0xFFFFFFFFFFFFFFFF DUP2 GT ISZERO PUSH2 0x451 JUMPI PUSH2 0x450 PUSH2 0x22E JUMP JUMPDEST JUMPDEST PUSH2 0x45D DUP7 DUP3 DUP8 ADD PUSH2 0x3CE JUMP JUMPDEST SWAP2 POP POP SWAP3 POP SWAP3 POP SWAP3 JUMP JUMPDEST PUSH0 DUP2 ISZERO ISZERO SWAP1 POP SWAP2 SWAP1 POP JUMP JUMPDEST PUSH2 0x47B DUP2 PUSH2 0x467 JUMP JUMPDEST DUP3 MSTORE POP POP JUMP JUMPDEST PUSH0 PUSH1 0x20 DUP3 ADD SWAP1 POP PUSH2 0x494 PUSH0 DUP4 ADD DUP5 PUSH2 0x472 JUMP JUMPDEST SWAP3 SWAP2 POP POP JUMP JUMPDEST PUSH0 PUSH1 0x20 DUP3 DUP5 SUB SLT ISZERO PUSH2 0x4AF JUMPI PUSH2 0x4AE PUSH2 0x22A JUMP JUMPDEST JUMPDEST PUSH0 PUSH2 0x4BC DUP5 DUP3 DUP6 ADD PUSH2 0x2AB JUMP JUMPDEST SWAP2 POP POP SWAP3 SWAP2 POP POP JUMP JUMPDEST PUSH0 DUP2 SWAP1 POP SWAP2 SWAP1 POP JUMP JUMPDEST PUSH2 0x4D7 DUP2 PUSH2 0x4C5 JUMP JUMPDEST DUP3 MSTORE POP POP JUMP JUMPDEST PUSH0 PUSH1 0x20 DUP3 ADD SWAP1 POP PUSH2 0x4F0 PUSH0 DUP4 ADD DUP5 PUSH2 0x4CE JUMP JUMPDEST SWAP3 SWAP2 POP POP JUMP JUMPDEST PUSH0 DUP2 SWAP1 POP SWAP2 SWAP1 POP JUMP JUMPDEST PUSH2 0x510 PUSH2 0x50B DUP3 PUSH2 0x28C JUMP JUMPDEST PUSH2 0x4F6 JUMP JUMPDEST DUP3 MSTORE POP POP JUMP JUMPDEST PUSH0 PUSH2 0x521 DUP3 DUP5 PUSH2 0x4FF JUMP JUMPDEST PUSH1 0x20 DUP3 ADD SWAP2 POP DUP2 SWAP1 POP SWAP3 SWAP2 POP POP JUMP JUMPDEST PUSH0 DUP2 SWAP1 POP SWAP3 SWAP2 POP POP JUMP JUMPDEST PUSH32 0x19457468657265756D205369676E6564204D6573736167653A0A333200000000 PUSH0 DUP3 ADD MSTORE POP JUMP JUMPDEST PUSH0 PUSH2 0x56E PUSH1 0x1C DUP4 PUSH2 0x530 JUMP JUMPDEST SWAP2 POP PUSH2 0x579 DUP3 PUSH2 0x53A JUMP JUMPDEST PUSH1 0x1C DUP3 ADD SWAP1 POP SWAP2 SWAP1 POP JUMP JUMPDEST PUSH0 DUP2 SWAP1 POP SWAP2 SWAP1 POP JUMP JUMPDEST PUSH2 0x59E PUSH2 0x599 DUP3 PUSH2 0x4C5 JUMP JUMPDEST PUSH2 0x584 JUMP JUMPDEST DUP3 MSTORE POP POP JUMP JUMPDEST PUSH0 PUSH2 0x5AE DUP3 PUSH2 0x562 JUMP JUMPDEST SWAP2 POP PUSH2 0x5BA DUP3 DUP5 PUSH2 0x58D JUMP JUMPDEST PUSH1 0x20 DUP3 ADD SWAP2 POP DUP2 SWAP1 POP SWAP3 SWAP2 POP POP JUMP JUMPDEST PUSH0 PUSH1 0xFF DUP3 AND SWAP1 POP SWAP2 SWAP1 POP JUMP JUMPDEST PUSH2 0x5DE DUP2 PUSH2 0x5C9 JUMP JUMPDEST DUP3 MSTORE POP POP JUMP JUMPDEST PUSH0 PUSH1 0x80 DUP3 ADD SWAP1 POP PUSH2 0x5F7 PUSH0 DUP4 ADD DUP8 PUSH2 0x4CE JUMP JUMPDEST PUSH2 0x604 PUSH1 0x20 DUP4 ADD DUP7 PUSH2 0x5D5 JUMP JUMPDEST PUSH2 0x611 PUSH1 0x40 DUP4 ADD DUP6 PUSH2 0x4CE JUMP JUMPDEST PUSH2 0x61E PUSH1 0x60 DUP4 ADD DUP5 PUSH2 0x4CE JUMP JUMPDEST SWAP6 SWAP5 POP POP POP POP POP JUMP JUMPDEST PUSH0 DUP3 DUP3 MSTORE PUSH1 0x20 DUP3 ADD SWAP1 POP SWAP3 SWAP2 POP POP JUMP JUMPDEST PUSH32 0x696E76616C6964207369676E6174757265206C656E6774680000000000000000 PUSH0 DUP3 ADD MSTORE POP JUMP JUMPDEST PUSH0 PUSH2 0x66B PUSH1 0x18 DUP4 PUSH2 0x627 JUMP JUMPDEST SWAP2 POP PUSH2 0x676 DUP3 PUSH2 0x637 JUMP JUMPDEST PUSH1 0x20 DUP3 ADD SWAP1 POP SWAP2 SWAP1 POP JUMP JUMPDEST PUSH0 PUSH1 0x20 DUP3 ADD SWAP1 POP DUP2 DUP2 SUB PUSH0 DUP4 ADD MSTORE PUSH2 0x698 DUP2 PUSH2 0x65F JUMP JUMPDEST SWAP1 POP SWAP2 SWAP1 POP JUMP INVALID LOG2 PUSH5 0x6970667358 0x22 SLT KECCAK256 0xE5 PUSH12 0x7429B274A7DC8641D2EBFD29 0xDB 0xC6 0x26 RETURNDATASIZE COINBASE POP 0xE8 0xE8 DUP11 PUSH5 0x5053A1DEC1 0xE6 0x28 0x25 PUSH5 0x736F6C6343 STOP ADDMOD NOT STOP CALLER "
				},
				"gasEstimates": {
					"creation": {
						"codeDepositCost": "349800",
						"executionCost": "384",
						"totalCost": "350184"
					},
					"external": {
						"getMessageHash(uint256)": "infinite",
						"verify(address,uint256,bytes)": "infinite"
					}
				},
				"methodIdentifiers": {
					"getMessageHash(uint256)": "ba86a10d",
					"verify(address,uint256,bytes)": "6f576e06"
				}
			},
			"storageLayout": {
				"storage": [],
				"types": null
			},
			"userdoc": {
				"kind": "user",
				"methods": {},
				"version": 1
			}
		}
	}
}