{
	"UmiverseNFT.sol": {
		"UMIVERSE": {
			"abi": [
				{
					"inputs": [
						{
							"internalType": "string",
							"name": "_uri",
							"type": "string"
						},
						{
							"internalType": "string",
							"name": "_name",
							"type": "string"
						},
						{
							"internalType": "string",
							"name": "_symbol",
							"type": "string"
						}
					],
					"stateMutability": "nonpayable",
					"type": "constructor"
				},
				{
					"inputs": [],
					"name": "ApprovalCallerNotOwnerNorApproved",
					"type": "error"
				},
				{
					"inputs": [],
					"name": "ApprovalQueryForNonexistentToken",
					"type": "error"
				},
				{
					"inputs": [],
					"name": "BalanceQueryForZeroAddress",
					"type": "error"
				},
				{
					"inputs": [],
					"name": "MintERC2309QuantityExceedsLimit",
					"type": "error"
				},
				{
					"inputs": [],
					"name": "MintToZeroAddress",
					"type": "error"
				},
				{
					"inputs": [],
					"name": "MintZeroQuantity",
					"type": "error"
				},
				{
					"inputs": [],
					"name": "OwnerQueryForNonexistentToken",
					"type": "error"
				},
				{
					"inputs": [],
					"name": "OwnershipNotInitializedForExtraData",
					"type": "error"
				},
				{
					"inputs": [],
					"name": "TransferCallerNotOwnerNorApproved",
					"type": "error"
				},
				{
					"inputs": [],
					"name": "TransferFromIncorrectOwner",
					"type": "error"
				},
				{
					"inputs": [],
					"name": "TransferToNonERC721ReceiverImplementer",
					"type": "error"
				},
				{
					"inputs": [],
					"name": "TransferToZeroAddress",
					"type": "error"
				},
				{
					"inputs": [],
					"name": "URIQueryForNonexistentToken",
					"type": "error"
				},
				{
					"anonymous": false,
					"inputs": [
						{
							"indexed": true,
							"internalType": "address",
							"name": "owner",
							"type": "address"
						},
						{
							"indexed": true,
							"internalType": "address",
							"name": "approved",
							"type": "address"
						},
						{
							"indexed": true,
							"internalType": "uint256",
							"name": "tokenId",
							"type": "uint256"
						}
					],
					"name": "Approval",
					"type": "event"
				},
				{
					"anonymous": false,
					"inputs": [
						{
							"indexed": true,
							"internalType": "address",
							"name": "owner",
							"type": "address"
						},
						{
							"indexed": true,
							"internalType": "address",
							"name": "operator",
							"type": "address"
						},
						{
							"indexed": false,
							"internalType": "bool",
							"name": "approved",
							"type": "bool"
						}
					],
					"name": "ApprovalForAll",
					"type": "event"
				},
				{
					"anonymous": false,
					"inputs": [
						{
							"indexed": true,
							"internalType": "uint256",
							"name": "fromTokenId",
							"type": "uint256"
						},
						{
							"indexed": false,
							"internalType": "uint256",
							"name": "toTokenId",
							"type": "uint256"
						},
						{
							"indexed": true,
							"internalType": "address",
							"name": "from",
							"type": "address"
						},
						{
							"indexed": true,
							"internalType": "address",
							"name": "to",
							"type": "address"
						}
					],
					"name": "ConsecutiveTransfer",
					"type": "event"
				},
				{
					"anonymous": false,
					"inputs": [
						{
							"indexed": true,
							"internalType": "address",
							"name": "previousOwner",
							"type": "address"
						},
						{
							"indexed": true,
							"internalType": "address",
							"name": "newOwner",
							"type": "address"
						}
					],
					"name": "OwnershipTransferred",
					"type": "event"
				},
				{
					"anonymous": false,
					"inputs": [
						{
							"indexed": true,
							"internalType": "address",
							"name": "from",
							"type": "address"
						},
						{
							"indexed": true,
							"internalType": "address",
							"name": "to",
							"type": "address"
						},
						{
							"indexed": true,
							"internalType": "uint256",
							"name": "tokenId",
							"type": "uint256"
						}
					],
					"name": "Transfer",
					"type": "event"
				},
				{
					"inputs": [
						{
							"internalType": "address",
							"name": "to",
							"type": "address"
						},
						{
							"internalType": "uint256",
							"name": "tokenId",
							"type": "uint256"
						}
					],
					"name": "approve",
					"outputs": [],
					"stateMutability": "payable",
					"type": "function"
				},
				{
					"inputs": [
						{
							"internalType": "address",
							"name": "owner",
							"type": "address"
						}
					],
					"name": "balanceOf",
					"outputs": [
						{
							"internalType": "uint256",
							"name": "",
							"type": "uint256"
						}
					],
					"stateMutability": "view",
					"type": "function"
				},
				{
					"inputs": [
						{
							"internalType": "uint256[]",
							"name": "nftids",
							"type": "uint256[]"
						}
					],
					"name": "batchMint",
					"outputs": [],
					"stateMutability": "nonpayable",
					"type": "function"
				},
				{
					"inputs": [
						{
							"internalType": "uint256",
							"name": "tokenId",
							"type": "uint256"
						}
					],
					"name": "getApproved",
					"outputs": [
						{
							"internalType": "address",
							"name": "",
							"type": "address"
						}
					],
					"stateMutability": "view",
					"type": "function"
				},
				{
					"inputs": [],
					"name": "getCurrentIndex",
					"outputs": [
						{
							"internalType": "uint256",
							"name": "",
							"type": "uint256"
						}
					],
					"stateMutability": "view",
					"type": "function"
				},
				{
					"inputs": [
						{
							"internalType": "address",
							"name": "owner",
							"type": "address"
						},
						{
							"internalType": "address",
							"name": "operator",
							"type": "address"
						}
					],
					"name": "isApprovedForAll",
					"outputs": [
						{
							"internalType": "bool",
							"name": "",
							"type": "bool"
						}
					],
					"stateMutability": "view",
					"type": "function"
				},
				{
					"inputs": [
						{
							"internalType": "uint256",
							"name": "nftid",
							"type": "uint256"
						}
					],
					"name": "mint",
					"outputs": [],
					"stateMutability": "nonpayable",
					"type": "function"
				},
				{
					"inputs": [],
					"name": "name",
					"outputs": [
						{
							"internalType": "string",
							"name": "",
							"type": "string"
						}
					],
					"stateMutability": "view",
					"type": "function"
				},
				{
					"inputs": [
						{
							"internalType": "uint256",
							"name": "",
							"type": "uint256"
						}
					],
					"name": "nftExist",
					"outputs": [
						{
							"internalType": "bool",
							"name": "",
							"type": "bool"
						}
					],
					"stateMutability": "view",
					"type": "function"
				},
				{
					"inputs": [],
					"name": "owner",
					"outputs": [
						{
							"internalType": "address",
							"name": "",
							"type": "address"
						}
					],
					"stateMutability": "view",
					"type": "function"
				},
				{
					"inputs": [
						{
							"internalType": "uint256",
							"name": "tokenId",
							"type": "uint256"
						}
					],
					"name": "ownerOf",
					"outputs": [
						{
							"internalType": "address",
							"name": "",
							"type": "address"
						}
					],
					"stateMutability": "view",
					"type": "function"
				},
				{
					"inputs": [
						{
							"internalType": "uint256",
							"name": "tokenId",
							"type": "uint256"
						}
					],
					"name": "redeem",
					"outputs": [],
					"stateMutability": "nonpayable",
					"type": "function"
				},
				{
					"inputs": [],
					"name": "renounceOwnership",
					"outputs": [],
					"stateMutability": "nonpayable",
					"type": "function"
				},
				{
					"inputs": [
						{
							"internalType": "address",
							"name": "from",
							"type": "address"
						},
						{
							"internalType": "address",
							"name": "to",
							"type": "address"
						},
						{
							"internalType": "uint256",
							"name": "tokenId",
							"type": "uint256"
						}
					],
					"name": "safeTransferFrom",
					"outputs": [],
					"stateMutability": "payable",
					"type": "function"
				},
				{
					"inputs": [
						{
							"internalType": "address",
							"name": "from",
							"type": "address"
						},
						{
							"internalType": "address",
							"name": "to",
							"type": "address"
						},
						{
							"internalType": "uint256",
							"name": "tokenId",
							"type": "uint256"
						},
						{
							"internalType": "bytes",
							"name": "_data",
							"type": "bytes"
						}
					],
					"name": "safeTransferFrom",
					"outputs": [],
					"stateMutability": "payable",
					"type": "function"
				},
				{
					"inputs": [
						{
							"internalType": "address",
							"name": "operator",
							"type": "address"
						},
						{
							"internalType": "bool",
							"name": "approved",
							"type": "bool"
						}
					],
					"name": "setApprovalForAll",
					"outputs": [],
					"stateMutability": "nonpayable",
					"type": "function"
				},
				{
					"inputs": [
						{
							"internalType": "string",
							"name": "baseURI",
							"type": "string"
						}
					],
					"name": "setBaseURI",
					"outputs": [],
					"stateMutability": "nonpayable",
					"type": "function"
				},
				{
					"inputs": [
						{
							"internalType": "bytes4",
							"name": "interfaceId",
							"type": "bytes4"
						}
					],
					"name": "supportsInterface",
					"outputs": [
						{
							"internalType": "bool",
							"name": "",
							"type": "bool"
						}
					],
					"stateMutability": "view",
					"type": "function"
				},
				{
					"inputs": [],
					"name": "symbol",
					"outputs": [
						{
							"internalType": "string",
							"name": "",
							"type": "string"
						}
					],
					"stateMutability": "view",
					"type": "function"
				},
				{
					"inputs": [
						{
							"internalType": "uint256",
							"name": "",
							"type": "uint256"
						}
					],
					"name": "tokenMapper",
					"outputs": [
						{
							"internalType": "uint256",
							"name": "",
							"type": "uint256"
						}
					],
					"stateMutability": "view",
					"type": "function"
				},
				{
					"inputs": [
						{
							"internalType": "uint256",
							"name": "",
							"type": "uint256"
						}
					],
					"name": "tokenMapper2",
					"outputs": [
						{
							"internalType": "uint256",
							"name": "",
							"type": "uint256"
						}
					],
					"stateMutability": "view",
					"type": "function"
				},
				{
					"inputs": [
						{
							"internalType": "uint256",
							"name": "tokenId",
							"type": "uint256"
						}
					],
					"name": "tokenURI",
					"outputs": [
						{
							"internalType": "string",
							"name": "",
							"type": "string"
						}
					],
					"stateMutability": "view",
					"type": "function"
				},
				{
					"inputs": [],
					"name": "totalSupply",
					"outputs": [
						{
							"internalType": "uint256",
							"name": "",
							"type": "uint256"
						}
					],
					"stateMutability": "view",
					"type": "function"
				},
				{
					"inputs": [
						{
							"internalType": "address",
							"name": "from",
							"type": "address"
						},
						{
							"internalType": "address",
							"name": "to",
							"type": "address"
						},
						{
							"internalType": "uint256",
							"name": "tokenId",
							"type": "uint256"
						}
					],
					"name": "transferFrom",
					"outputs": [],
					"stateMutability": "payable",
					"type": "function"
				},
				{
					"inputs": [
						{
							"internalType": "address",
							"name": "newOwner",
							"type": "address"
						}
					],
					"name": "transferOwnership",
					"outputs": [],
					"stateMutability": "nonpayable",
					"type": "function"
				}
			],
			"devdoc": {
				"kind": "dev",
				"methods": {
					"approve(address,uint256)": {
						"details": "Gives permission to `to` to transfer `tokenId` token to another account. The approval is cleared when the token is transferred. Only a single account can be approved at a time, so approving the zero address clears previous approvals. Requirements: - The caller must own the token or be an approved operator. - `tokenId` must exist. Emits an {Approval} event."
					},
					"balanceOf(address)": {
						"details": "Returns the number of tokens in `owner`'s account."
					},
					"getApproved(uint256)": {
						"details": "Returns the account approved for `tokenId` token. Requirements: - `tokenId` must exist."
					},
					"isApprovedForAll(address,address)": {
						"details": "Returns if the `operator` is allowed to manage all of the assets of `owner`. See {setApprovalForAll}."
					},
					"name()": {
						"details": "Returns the token collection name."
					},
					"owner()": {
						"details": "Returns the address of the current owner."
					},
					"ownerOf(uint256)": {
						"details": "Returns the owner of the `tokenId` token. Requirements: - `tokenId` must exist."
					},
					"renounceOwnership()": {
						"details": "Leaves the contract without owner. It will not be possible to call `onlyOwner` functions anymore. Can only be called by the current owner. NOTE: Renouncing ownership will leave the contract without an owner, thereby removing any functionality that is only available to the owner."
					},
					"safeTransferFrom(address,address,uint256)": {
						"details": "Equivalent to `safeTransferFrom(from, to, tokenId, '')`."
					},
					"safeTransferFrom(address,address,uint256,bytes)": {
						"details": "Safely transfers `tokenId` token from `from` to `to`. Requirements: - `from` cannot be the zero address. - `to` cannot be the zero address. - `tokenId` token must exist and be owned by `from`. - If the caller is not `from`, it must be approved to move this token by either {approve} or {setApprovalForAll}. - If `to` refers to a smart contract, it must implement {IERC721Receiver-onERC721Received}, which is called upon a safe transfer. Emits a {Transfer} event."
					},
					"setApprovalForAll(address,bool)": {
						"details": "Approve or remove `operator` as an operator for the caller. Operators can call {transferFrom} or {safeTransferFrom} for any token owned by the caller. Requirements: - The `operator` cannot be the caller. Emits an {ApprovalForAll} event."
					},
					"supportsInterface(bytes4)": {
						"details": "Returns true if this contract implements the interface defined by `interfaceId`. See the corresponding [EIP section](https://eips.ethereum.org/EIPS/eip-165#how-interfaces-are-identified) to learn more about how these ids are created. This function call must use less than 30000 gas."
					},
					"symbol()": {
						"details": "Returns the token collection symbol."
					},
					"tokenURI(uint256)": {
						"details": "Returns the Uniform Resource Identifier (URI) for `tokenId` token."
					},
					"totalSupply()": {
						"details": "Returns the total number of tokens in existence. Burned tokens will reduce the count. To get the total number of tokens minted, please see {_totalMinted}."
					},
					"transferFrom(address,address,uint256)": {
						"details": "Transfers `tokenId` from `from` to `to`. Requirements: - `from` cannot be the zero address. - `to` cannot be the zero address. - `tokenId` token must be owned by `from`. - If the caller is not `from`, it must be approved to move this token by either {approve} or {setApprovalForAll}. Emits a {Transfer} event."
					},
					"transferOwnership(address)": {
						"details": "Transfers ownership of the contract to a new account (`newOwner`). Can only be called by the current owner."
					}
				},
				"version": 1
			},
			"evm": {
				"assembly": "    /* \"UmiverseNFT.sol\":152:2181  contract UMIVERSE is Ownable, ERC721A {... */\n  mstore(0x40, 0x80)\n    /* \"UmiverseNFT.sol\":481:616  constructor(string memory _uri,string memory _name,string memory _symbol) ERC721A(_name, _symbol) {... */\n  callvalue\n  dup1\n  iszero\n  tag_1\n  jumpi\n  0x00\n  dup1\n  revert\ntag_1:\n  pop\n  mload(0x40)\n  sub(codesize, bytecodeSize)\n  dup1\n  bytecodeSize\n  dup4\n  codecopy\n  dup2\n  dup2\n  add\n  0x40\n  mstore\n  dup2\n  add\n  swap1\n  tag_2\n  swap2\n  swap1\n  tag_3\n  jump\t// in\ntag_2:\n    /* \"UmiverseNFT.sol\":563:568  _name */\n  dup2\n    /* \"UmiverseNFT.sol\":570:577  _symbol */\n  dup2\n    /* \"@openzeppelin/contracts/access/Ownable.sol\":936:968  _transferOwnership(_msgSender()) */\n  tag_8\n    /* \"@openzeppelin/contracts/access/Ownable.sol\":955:967  _msgSender() */\n  tag_9\n    /* \"@openzeppelin/contracts/access/Ownable.sol\":955:965  _msgSender */\n  shl(0x20, tag_10)\n    /* \"@openzeppelin/contracts/access/Ownable.sol\":955:967  _msgSender() */\n  0x20\n  shr\n  jump\t// in\ntag_9:\n    /* \"@openzeppelin/contracts/access/Ownable.sol\":936:954  _transferOwnership */\n  shl(0x20, tag_11)\n    /* \"@openzeppelin/contracts/access/Ownable.sol\":936:968  _transferOwnership(_msgSender()) */\n  0x20\n  shr\n  jump\t// in\ntag_8:\n    /* \"erc721a/contracts/ERC721A.sol\":5020:5025  name_ */\n  dup2\n    /* \"erc721a/contracts/ERC721A.sol\":5012:5017  _name */\n  0x03\n    /* \"erc721a/contracts/ERC721A.sol\":5012:5025  _name = name_ */\n  swap1\n  dup1\n  mload\n  swap1\n  0x20\n  add\n  swap1\n  tag_13\n  swap3\n  swap2\n  swap1\n  tag_14\n  jump\t// in\ntag_13:\n  pop\n    /* \"erc721a/contracts/ERC721A.sol\":5045:5052  symbol_ */\n  dup1\n    /* \"erc721a/contracts/ERC721A.sol\":5035:5042  _symbol */\n  0x04\n    /* \"erc721a/contracts/ERC721A.sol\":5035:5052  _symbol = symbol_ */\n  swap1\n  dup1\n  mload\n  swap1\n  0x20\n  add\n  swap1\n  tag_15\n  swap3\n  swap2\n  swap1\n  tag_14\n  jump\t// in\ntag_15:\n  pop\n    /* \"erc721a/contracts/ERC721A.sol\":5078:5093  _startTokenId() */\n  tag_16\n    /* \"erc721a/contracts/ERC721A.sol\":5078:5091  _startTokenId */\n  shl(0x20, tag_17)\n    /* \"erc721a/contracts/ERC721A.sol\":5078:5093  _startTokenId() */\n  0x20\n  shr\n  jump\t// in\ntag_16:\n    /* \"erc721a/contracts/ERC721A.sol\":5062:5075  _currentIndex */\n  0x01\n    /* \"erc721a/contracts/ERC721A.sol\":5062:5093  _currentIndex = _startTokenId() */\n  dup2\n  swap1\n  sstore\n  pop\n    /* \"erc721a/contracts/ERC721A.sol\":4946:5100  constructor(string memory name_, string memory symbol_) {... */\n  pop\n  pop\n    /* \"UmiverseNFT.sol\":605:609  _uri */\n  dup3\n    /* \"UmiverseNFT.sol\":589:602  _baseTokenURI */\n  0x09\n    /* \"UmiverseNFT.sol\":589:609  _baseTokenURI = _uri */\n  swap1\n  dup1\n  mload\n  swap1\n  0x20\n  add\n  swap1\n  tag_19\n  swap3\n  swap2\n  swap1\n  tag_14\n  jump\t// in\ntag_19:\n  pop\n    /* \"UmiverseNFT.sol\":481:616  constructor(string memory _uri,string memory _name,string memory _symbol) ERC721A(_name, _symbol) {... */\n  pop\n  pop\n  pop\n    /* \"UmiverseNFT.sol\":152:2181  contract UMIVERSE is Ownable, ERC721A {... */\n  jump(tag_20)\n    /* \"@openzeppelin/contracts/utils/Context.sol\":640:736  function _msgSender() internal view virtual returns (address) {... */\ntag_10:\n    /* \"@openzeppelin/contracts/utils/Context.sol\":693:700  address */\n  0x00\n    /* \"@openzeppelin/contracts/utils/Context.sol\":719:729  msg.sender */\n  caller\n    /* \"@openzeppelin/contracts/utils/Context.sol\":712:729  return msg.sender */\n  swap1\n  pop\n    /* \"@openzeppelin/contracts/utils/Context.sol\":640:736  function _msgSender() internal view virtual returns (address) {... */\n  swap1\n  jump\t// out\n    /* \"@openzeppelin/contracts/access/Ownable.sol\":2433:2620  function _transferOwnership(address newOwner) internal virtual {... */\ntag_11:\n    /* \"@openzeppelin/contracts/access/Ownable.sol\":2506:2522  address oldOwner */\n  0x00\n    /* \"@openzeppelin/contracts/access/Ownable.sol\":2525:2531  _owner */\n  dup1\n  0x00\n  swap1\n  sload\n  swap1\n  0x0100\n  exp\n  swap1\n  div\n  0xffffffffffffffffffffffffffffffffffffffff\n  and\n    /* \"@openzeppelin/contracts/access/Ownable.sol\":2506:2531  address oldOwner = _owner */\n  swap1\n  pop\n    /* \"@openzeppelin/contracts/access/Ownable.sol\":2550:2558  newOwner */\n  dup2\n    /* \"@openzeppelin/contracts/access/Ownable.sol\":2541:2547  _owner */\n  0x00\n  dup1\n    /* \"@openzeppelin/contracts/access/Ownable.sol\":2541:2558  _owner = newOwner */\n  0x0100\n  exp\n  dup2\n  sload\n  dup2\n  0xffffffffffffffffffffffffffffffffffffffff\n  mul\n  not\n  and\n  swap1\n  dup4\n  0xffffffffffffffffffffffffffffffffffffffff\n  and\n  mul\n  or\n  swap1\n  sstore\n  pop\n    /* \"@openzeppelin/contracts/access/Ownable.sol\":2604:2612  newOwner */\n  dup2\n    /* \"@openzeppelin/contracts/access/Ownable.sol\":2573:2613  OwnershipTransferred(oldOwner, newOwner) */\n  0xffffffffffffffffffffffffffffffffffffffff\n  and\n    /* \"@openzeppelin/contracts/access/Ownable.sol\":2594:2602  oldOwner */\n  dup2\n    /* \"@openzeppelin/contracts/access/Ownable.sol\":2573:2613  OwnershipTransferred(oldOwner, newOwner) */\n  0xffffffffffffffffffffffffffffffffffffffff\n  and\n  0x8be0079c531659141344cd1fd0a4f28419497f9722a3daafe3b4186f6b6457e0\n  mload(0x40)\n  mload(0x40)\n  dup1\n  swap2\n  sub\n  swap1\n  log3\n    /* \"@openzeppelin/contracts/access/Ownable.sol\":2496:2620  {... */\n  pop\n    /* \"@openzeppelin/contracts/access/Ownable.sol\":2433:2620  function _transferOwnership(address newOwner) internal virtual {... */\n  pop\n  jump\t// out\n    /* \"erc721a/contracts/ERC721A.sol\":5426:5516  function _startTokenId() internal view virtual returns (uint256) {... */\ntag_17:\n    /* \"erc721a/contracts/ERC721A.sol\":5482:5489  uint256 */\n  0x00\n    /* \"erc721a/contracts/ERC721A.sol\":5426:5516  function _startTokenId() internal view virtual returns (uint256) {... */\n  swap1\n  jump\t// out\n    /* \"UmiverseNFT.sol\":152:2181  contract UMIVERSE is Ownable, ERC721A {... */\ntag_14:\n  dup3\n  dup1\n  sload\n  tag_24\n  swap1\n  tag_25\n  jump\t// in\ntag_24:\n  swap1\n  0x00\n  mstore\n  keccak256(0x00, 0x20)\n  swap1\n  0x1f\n  add\n  0x20\n  swap1\n  div\n  dup2\n  add\n  swap3\n  dup3\n  tag_27\n  jumpi\n  0x00\n  dup6\n  sstore\n  jump(tag_26)\ntag_27:\n  dup3\n  0x1f\n  lt\n  tag_28\n  jumpi\n  dup1\n  mload\n  not(0xff)\n  and\n  dup4\n  dup1\n  add\n  or\n  dup6\n  sstore\n  jump(tag_26)\ntag_28:\n  dup3\n  dup1\n  add\n  0x01\n  add\n  dup6\n  sstore\n  dup3\n  iszero\n  tag_26\n  jumpi\n  swap2\n  dup3\n  add\ntag_29:\n  dup3\n  dup2\n  gt\n  iszero\n  tag_30\n  jumpi\n  dup3\n  mload\n  dup3\n  sstore\n  swap2\n  0x20\n  add\n  swap2\n  swap1\n  0x01\n  add\n  swap1\n  jump(tag_29)\ntag_30:\ntag_26:\n  pop\n  swap1\n  pop\n  tag_31\n  swap2\n  swap1\n  tag_32\n  jump\t// in\ntag_31:\n  pop\n  swap1\n  jump\t// out\ntag_32:\ntag_33:\n  dup1\n  dup3\n  gt\n  iszero\n  tag_34\n  jumpi\n  0x00\n  dup2\n  0x00\n  swap1\n  sstore\n  pop\n  0x01\n  add\n  jump(tag_33)\ntag_34:\n  pop\n  swap1\n  jump\t// out\n    /* \"#utility.yul\":7:82   */\ntag_35:\n    /* \"#utility.yul\":40:46   */\n  0x00\n    /* \"#utility.yul\":73:75   */\n  0x40\n    /* \"#utility.yul\":67:76   */\n  mload\n    /* \"#utility.yul\":57:76   */\n  swap1\n  pop\n    /* \"#utility.yul\":7:82   */\n  swap1\n  jump\t// out\n    /* \"#utility.yul\":88:205   */\ntag_36:\n    /* \"#utility.yul\":197:198   */\n  0x00\n    /* \"#utility.yul\":194:195   */\n  dup1\n    /* \"#utility.yul\":187:199   */\n  revert\n    /* \"#utility.yul\":211:328   */\ntag_37:\n    /* \"#utility.yul\":320:321   */\n  0x00\n    /* \"#utility.yul\":317:318   */\n  dup1\n    /* \"#utility.yul\":310:322   */\n  revert\n    /* \"#utility.yul\":334:451   */\ntag_38:\n    /* \"#utility.yul\":443:444   */\n  0x00\n    /* \"#utility.yul\":440:441   */\n  dup1\n    /* \"#utility.yul\":433:445   */\n  revert\n    /* \"#utility.yul\":457:574   */\ntag_39:\n    /* \"#utility.yul\":566:567   */\n  0x00\n    /* \"#utility.yul\":563:564   */\n  dup1\n    /* \"#utility.yul\":556:568   */\n  revert\n    /* \"#utility.yul\":580:682   */\ntag_40:\n    /* \"#utility.yul\":621:627   */\n  0x00\n    /* \"#utility.yul\":672:674   */\n  0x1f\n    /* \"#utility.yul\":668:675   */\n  not\n    /* \"#utility.yul\":663:665   */\n  0x1f\n    /* \"#utility.yul\":656:661   */\n  dup4\n    /* \"#utility.yul\":652:666   */\n  add\n    /* \"#utility.yul\":648:676   */\n  and\n    /* \"#utility.yul\":638:676   */\n  swap1\n  pop\n    /* \"#utility.yul\":580:682   */\n  swap2\n  swap1\n  pop\n  jump\t// out\n    /* \"#utility.yul\":688:868   */\ntag_41:\n    /* \"#utility.yul\":736:813   */\n  0x4e487b7100000000000000000000000000000000000000000000000000000000\n    /* \"#utility.yul\":733:734   */\n  0x00\n    /* \"#utility.yul\":726:814   */\n  mstore\n    /* \"#utility.yul\":833:837   */\n  0x41\n    /* \"#utility.yul\":830:831   */\n  0x04\n    /* \"#utility.yul\":823:838   */\n  mstore\n    /* \"#utility.yul\":857:861   */\n  0x24\n    /* \"#utility.yul\":854:855   */\n  0x00\n    /* \"#utility.yul\":847:862   */\n  revert\n    /* \"#utility.yul\":874:1155   */\ntag_42:\n    /* \"#utility.yul\":957:984   */\n  tag_58\n    /* \"#utility.yul\":979:983   */\n  dup3\n    /* \"#utility.yul\":957:984   */\n  tag_40\n  jump\t// in\ntag_58:\n    /* \"#utility.yul\":949:955   */\n  dup2\n    /* \"#utility.yul\":945:985   */\n  add\n    /* \"#utility.yul\":1087:1093   */\n  dup2\n    /* \"#utility.yul\":1075:1085   */\n  dup2\n    /* \"#utility.yul\":1072:1094   */\n  lt\n    /* \"#utility.yul\":1051:1069   */\n  0xffffffffffffffff\n    /* \"#utility.yul\":1039:1049   */\n  dup3\n    /* \"#utility.yul\":1036:1070   */\n  gt\n    /* \"#utility.yul\":1033:1095   */\n  or\n    /* \"#utility.yul\":1030:1118   */\n  iszero\n  tag_59\n  jumpi\n    /* \"#utility.yul\":1098:1116   */\n  tag_60\n  tag_41\n  jump\t// in\ntag_60:\n    /* \"#utility.yul\":1030:1118   */\ntag_59:\n    /* \"#utility.yul\":1138:1148   */\n  dup1\n    /* \"#utility.yul\":1134:1136   */\n  0x40\n    /* \"#utility.yul\":1127:1149   */\n  mstore\n    /* \"#utility.yul\":917:1155   */\n  pop\n    /* \"#utility.yul\":874:1155   */\n  pop\n  pop\n  jump\t// out\n    /* \"#utility.yul\":1161:1290   */\ntag_43:\n    /* \"#utility.yul\":1195:1201   */\n  0x00\n    /* \"#utility.yul\":1222:1242   */\n  tag_62\n  tag_35\n  jump\t// in\ntag_62:\n    /* \"#utility.yul\":1212:1242   */\n  swap1\n  pop\n    /* \"#utility.yul\":1251:1284   */\n  tag_63\n    /* \"#utility.yul\":1279:1283   */\n  dup3\n    /* \"#utility.yul\":1271:1277   */\n  dup3\n    /* \"#utility.yul\":1251:1284   */\n  tag_42\n  jump\t// in\ntag_63:\n    /* \"#utility.yul\":1161:1290   */\n  swap2\n  swap1\n  pop\n  jump\t// out\n    /* \"#utility.yul\":1296:1604   */\ntag_44:\n    /* \"#utility.yul\":1358:1362   */\n  0x00\n    /* \"#utility.yul\":1448:1466   */\n  0xffffffffffffffff\n    /* \"#utility.yul\":1440:1446   */\n  dup3\n    /* \"#utility.yul\":1437:1467   */\n  gt\n    /* \"#utility.yul\":1434:1490   */\n  iszero\n  tag_65\n  jumpi\n    /* \"#utility.yul\":1470:1488   */\n  tag_66\n  tag_41\n  jump\t// in\ntag_66:\n    /* \"#utility.yul\":1434:1490   */\ntag_65:\n    /* \"#utility.yul\":1508:1537   */\n  tag_67\n    /* \"#utility.yul\":1530:1536   */\n  dup3\n    /* \"#utility.yul\":1508:1537   */\n  tag_40\n  jump\t// in\ntag_67:\n    /* \"#utility.yul\":1500:1537   */\n  swap1\n  pop\n    /* \"#utility.yul\":1592:1596   */\n  0x20\n    /* \"#utility.yul\":1586:1590   */\n  dup2\n    /* \"#utility.yul\":1582:1597   */\n  add\n    /* \"#utility.yul\":1574:1597   */\n  swap1\n  pop\n    /* \"#utility.yul\":1296:1604   */\n  swap2\n  swap1\n  pop\n  jump\t// out\n    /* \"#utility.yul\":1610:1917   */\ntag_45:\n    /* \"#utility.yul\":1678:1679   */\n  0x00\n    /* \"#utility.yul\":1688:1801   */\ntag_69:\n    /* \"#utility.yul\":1702:1708   */\n  dup4\n    /* \"#utility.yul\":1699:1700   */\n  dup2\n    /* \"#utility.yul\":1696:1709   */\n  lt\n    /* \"#utility.yul\":1688:1801   */\n  iszero\n  tag_71\n  jumpi\n    /* \"#utility.yul\":1787:1788   */\n  dup1\n    /* \"#utility.yul\":1782:1785   */\n  dup3\n    /* \"#utility.yul\":1778:1789   */\n  add\n    /* \"#utility.yul\":1772:1790   */\n  mload\n    /* \"#utility.yul\":1768:1769   */\n  dup2\n    /* \"#utility.yul\":1763:1766   */\n  dup5\n    /* \"#utility.yul\":1759:1770   */\n  add\n    /* \"#utility.yul\":1752:1791   */\n  mstore\n    /* \"#utility.yul\":1724:1726   */\n  0x20\n    /* \"#utility.yul\":1721:1722   */\n  dup2\n    /* \"#utility.yul\":1717:1727   */\n  add\n    /* \"#utility.yul\":1712:1727   */\n  swap1\n  pop\n    /* \"#utility.yul\":1688:1801   */\n  jump(tag_69)\ntag_71:\n    /* \"#utility.yul\":1819:1825   */\n  dup4\n    /* \"#utility.yul\":1816:1817   */\n  dup2\n    /* \"#utility.yul\":1813:1826   */\n  gt\n    /* \"#utility.yul\":1810:1911   */\n  iszero\n  tag_72\n  jumpi\n    /* \"#utility.yul\":1899:1900   */\n  0x00\n    /* \"#utility.yul\":1890:1896   */\n  dup5\n    /* \"#utility.yul\":1885:1888   */\n  dup5\n    /* \"#utility.yul\":1881:1897   */\n  add\n    /* \"#utility.yul\":1874:1901   */\n  mstore\n    /* \"#utility.yul\":1810:1911   */\ntag_72:\n    /* \"#utility.yul\":1659:1917   */\n  pop\n    /* \"#utility.yul\":1610:1917   */\n  pop\n  pop\n  pop\n  jump\t// out\n    /* \"#utility.yul\":1923:2344   */\ntag_46:\n    /* \"#utility.yul\":2012:2017   */\n  0x00\n    /* \"#utility.yul\":2037:2103   */\n  tag_74\n    /* \"#utility.yul\":2053:2102   */\n  tag_75\n    /* \"#utility.yul\":2095:2101   */\n  dup5\n    /* \"#utility.yul\":2053:2102   */\n  tag_44\n  jump\t// in\ntag_75:\n    /* \"#utility.yul\":2037:2103   */\n  tag_43\n  jump\t// in\ntag_74:\n    /* \"#utility.yul\":2028:2103   */\n  swap1\n  pop\n    /* \"#utility.yul\":2126:2132   */\n  dup3\n    /* \"#utility.yul\":2119:2124   */\n  dup2\n    /* \"#utility.yul\":2112:2133   */\n  mstore\n    /* \"#utility.yul\":2164:2168   */\n  0x20\n    /* \"#utility.yul\":2157:2162   */\n  dup2\n    /* \"#utility.yul\":2153:2169   */\n  add\n    /* \"#utility.yul\":2202:2205   */\n  dup5\n    /* \"#utility.yul\":2193:2199   */\n  dup5\n    /* \"#utility.yul\":2188:2191   */\n  dup5\n    /* \"#utility.yul\":2184:2200   */\n  add\n    /* \"#utility.yul\":2181:2206   */\n  gt\n    /* \"#utility.yul\":2178:2290   */\n  iszero\n  tag_76\n  jumpi\n    /* \"#utility.yul\":2209:2288   */\n  tag_77\n  tag_39\n  jump\t// in\ntag_77:\n    /* \"#utility.yul\":2178:2290   */\ntag_76:\n    /* \"#utility.yul\":2299:2338   */\n  tag_78\n    /* \"#utility.yul\":2331:2337   */\n  dup5\n    /* \"#utility.yul\":2326:2329   */\n  dup3\n    /* \"#utility.yul\":2321:2324   */\n  dup6\n    /* \"#utility.yul\":2299:2338   */\n  tag_45\n  jump\t// in\ntag_78:\n    /* \"#utility.yul\":2018:2344   */\n  pop\n    /* \"#utility.yul\":1923:2344   */\n  swap4\n  swap3\n  pop\n  pop\n  pop\n  jump\t// out\n    /* \"#utility.yul\":2364:2719   */\ntag_47:\n    /* \"#utility.yul\":2431:2436   */\n  0x00\n    /* \"#utility.yul\":2480:2483   */\n  dup3\n    /* \"#utility.yul\":2473:2477   */\n  0x1f\n    /* \"#utility.yul\":2465:2471   */\n  dup4\n    /* \"#utility.yul\":2461:2478   */\n  add\n    /* \"#utility.yul\":2457:2484   */\n  slt\n    /* \"#utility.yul\":2447:2569   */\n  tag_80\n  jumpi\n    /* \"#utility.yul\":2488:2567   */\n  tag_81\n  tag_38\n  jump\t// in\ntag_81:\n    /* \"#utility.yul\":2447:2569   */\ntag_80:\n    /* \"#utility.yul\":2598:2604   */\n  dup2\n    /* \"#utility.yul\":2592:2605   */\n  mload\n    /* \"#utility.yul\":2623:2713   */\n  tag_82\n    /* \"#utility.yul\":2709:2712   */\n  dup5\n    /* \"#utility.yul\":2701:2707   */\n  dup3\n    /* \"#utility.yul\":2694:2698   */\n  0x20\n    /* \"#utility.yul\":2686:2692   */\n  dup7\n    /* \"#utility.yul\":2682:2699   */\n  add\n    /* \"#utility.yul\":2623:2713   */\n  tag_46\n  jump\t// in\ntag_82:\n    /* \"#utility.yul\":2614:2713   */\n  swap2\n  pop\n    /* \"#utility.yul\":2437:2719   */\n  pop\n    /* \"#utility.yul\":2364:2719   */\n  swap3\n  swap2\n  pop\n  pop\n  jump\t// out\n    /* \"#utility.yul\":2725:3907   */\ntag_3:\n    /* \"#utility.yul\":2843:2849   */\n  0x00\n    /* \"#utility.yul\":2851:2857   */\n  dup1\n    /* \"#utility.yul\":2859:2865   */\n  0x00\n    /* \"#utility.yul\":2908:2910   */\n  0x60\n    /* \"#utility.yul\":2896:2905   */\n  dup5\n    /* \"#utility.yul\":2887:2894   */\n  dup7\n    /* \"#utility.yul\":2883:2906   */\n  sub\n    /* \"#utility.yul\":2879:2911   */\n  slt\n    /* \"#utility.yul\":2876:2995   */\n  iszero\n  tag_84\n  jumpi\n    /* \"#utility.yul\":2914:2993   */\n  tag_85\n  tag_36\n  jump\t// in\ntag_85:\n    /* \"#utility.yul\":2876:2995   */\ntag_84:\n    /* \"#utility.yul\":3055:3056   */\n  0x00\n    /* \"#utility.yul\":3044:3053   */\n  dup5\n    /* \"#utility.yul\":3040:3057   */\n  add\n    /* \"#utility.yul\":3034:3058   */\n  mload\n    /* \"#utility.yul\":3085:3103   */\n  0xffffffffffffffff\n    /* \"#utility.yul\":3077:3083   */\n  dup2\n    /* \"#utility.yul\":3074:3104   */\n  gt\n    /* \"#utility.yul\":3071:3188   */\n  iszero\n  tag_86\n  jumpi\n    /* \"#utility.yul\":3107:3186   */\n  tag_87\n  tag_37\n  jump\t// in\ntag_87:\n    /* \"#utility.yul\":3071:3188   */\ntag_86:\n    /* \"#utility.yul\":3212:3286   */\n  tag_88\n    /* \"#utility.yul\":3278:3285   */\n  dup7\n    /* \"#utility.yul\":3269:3275   */\n  dup3\n    /* \"#utility.yul\":3258:3267   */\n  dup8\n    /* \"#utility.yul\":3254:3276   */\n  add\n    /* \"#utility.yul\":3212:3286   */\n  tag_47\n  jump\t// in\ntag_88:\n    /* \"#utility.yul\":3202:3286   */\n  swap4\n  pop\n    /* \"#utility.yul\":3005:3296   */\n  pop\n    /* \"#utility.yul\":3356:3358   */\n  0x20\n    /* \"#utility.yul\":3345:3354   */\n  dup5\n    /* \"#utility.yul\":3341:3359   */\n  add\n    /* \"#utility.yul\":3335:3360   */\n  mload\n    /* \"#utility.yul\":3387:3405   */\n  0xffffffffffffffff\n    /* \"#utility.yul\":3379:3385   */\n  dup2\n    /* \"#utility.yul\":3376:3406   */\n  gt\n    /* \"#utility.yul\":3373:3490   */\n  iszero\n  tag_89\n  jumpi\n    /* \"#utility.yul\":3409:3488   */\n  tag_90\n  tag_37\n  jump\t// in\ntag_90:\n    /* \"#utility.yul\":3373:3490   */\ntag_89:\n    /* \"#utility.yul\":3514:3588   */\n  tag_91\n    /* \"#utility.yul\":3580:3587   */\n  dup7\n    /* \"#utility.yul\":3571:3577   */\n  dup3\n    /* \"#utility.yul\":3560:3569   */\n  dup8\n    /* \"#utility.yul\":3556:3578   */\n  add\n    /* \"#utility.yul\":3514:3588   */\n  tag_47\n  jump\t// in\ntag_91:\n    /* \"#utility.yul\":3504:3588   */\n  swap3\n  pop\n    /* \"#utility.yul\":3306:3598   */\n  pop\n    /* \"#utility.yul\":3658:3660   */\n  0x40\n    /* \"#utility.yul\":3647:3656   */\n  dup5\n    /* \"#utility.yul\":3643:3661   */\n  add\n    /* \"#utility.yul\":3637:3662   */\n  mload\n    /* \"#utility.yul\":3689:3707   */\n  0xffffffffffffffff\n    /* \"#utility.yul\":3681:3687   */\n  dup2\n    /* \"#utility.yul\":3678:3708   */\n  gt\n    /* \"#utility.yul\":3675:3792   */\n  iszero\n  tag_92\n  jumpi\n    /* \"#utility.yul\":3711:3790   */\n  tag_93\n  tag_37\n  jump\t// in\ntag_93:\n    /* \"#utility.yul\":3675:3792   */\ntag_92:\n    /* \"#utility.yul\":3816:3890   */\n  tag_94\n    /* \"#utility.yul\":3882:3889   */\n  dup7\n    /* \"#utility.yul\":3873:3879   */\n  dup3\n    /* \"#utility.yul\":3862:3871   */\n  dup8\n    /* \"#utility.yul\":3858:3880   */\n  add\n    /* \"#utility.yul\":3816:3890   */\n  tag_47\n  jump\t// in\ntag_94:\n    /* \"#utility.yul\":3806:3890   */\n  swap2\n  pop\n    /* \"#utility.yul\":3608:3900   */\n  pop\n    /* \"#utility.yul\":2725:3907   */\n  swap3\n  pop\n  swap3\n  pop\n  swap3\n  jump\t// out\n    /* \"#utility.yul\":3913:4093   */\ntag_48:\n    /* \"#utility.yul\":3961:4038   */\n  0x4e487b7100000000000000000000000000000000000000000000000000000000\n    /* \"#utility.yul\":3958:3959   */\n  0x00\n    /* \"#utility.yul\":3951:4039   */\n  mstore\n    /* \"#utility.yul\":4058:4062   */\n  0x22\n    /* \"#utility.yul\":4055:4056   */\n  0x04\n    /* \"#utility.yul\":4048:4063   */\n  mstore\n    /* \"#utility.yul\":4082:4086   */\n  0x24\n    /* \"#utility.yul\":4079:4080   */\n  0x00\n    /* \"#utility.yul\":4072:4087   */\n  revert\n    /* \"#utility.yul\":4099:4419   */\ntag_25:\n    /* \"#utility.yul\":4143:4149   */\n  0x00\n    /* \"#utility.yul\":4180:4181   */\n  0x02\n    /* \"#utility.yul\":4174:4178   */\n  dup3\n    /* \"#utility.yul\":4170:4182   */\n  div\n    /* \"#utility.yul\":4160:4182   */\n  swap1\n  pop\n    /* \"#utility.yul\":4227:4228   */\n  0x01\n    /* \"#utility.yul\":4221:4225   */\n  dup3\n    /* \"#utility.yul\":4217:4229   */\n  and\n    /* \"#utility.yul\":4248:4266   */\n  dup1\n    /* \"#utility.yul\":4238:4319   */\n  tag_97\n  jumpi\n    /* \"#utility.yul\":4304:4308   */\n  0x7f\n    /* \"#utility.yul\":4296:4302   */\n  dup3\n    /* \"#utility.yul\":4292:4309   */\n  and\n    /* \"#utility.yul\":4282:4309   */\n  swap2\n  pop\n    /* \"#utility.yul\":4238:4319   */\ntag_97:\n    /* \"#utility.yul\":4366:4368   */\n  0x20\n    /* \"#utility.yul\":4358:4364   */\n  dup3\n    /* \"#utility.yul\":4355:4369   */\n  lt\n    /* \"#utility.yul\":4335:4353   */\n  dup2\n    /* \"#utility.yul\":4332:4370   */\n  sub\n    /* \"#utility.yul\":4329:4413   */\n  tag_98\n  jumpi\n    /* \"#utility.yul\":4385:4403   */\n  tag_99\n  tag_48\n  jump\t// in\ntag_99:\n    /* \"#utility.yul\":4329:4413   */\ntag_98:\n    /* \"#utility.yul\":4150:4419   */\n  pop\n    /* \"#utility.yul\":4099:4419   */\n  swap2\n  swap1\n  pop\n  jump\t// out\n    /* \"UmiverseNFT.sol\":152:2181  contract UMIVERSE is Ownable, ERC721A {... */\ntag_20:\n  dataSize(sub_0)\n  dup1\n  dataOffset(sub_0)\n  0x00\n  codecopy\n  0x00\n  return\nstop\n\nsub_0: assembly {\n        /* \"UmiverseNFT.sol\":152:2181  contract UMIVERSE is Ownable, ERC721A {... */\n      mstore(0x40, 0x80)\n      jumpi(tag_1, lt(calldatasize, 0x04))\n      shr(0xe0, calldataload(0x00))\n      dup1\n      0x715018a6\n      gt\n      tag_27\n      jumpi\n      dup1\n      0xa65e06e8\n      gt\n      tag_28\n      jumpi\n      dup1\n      0xc87b56dd\n      gt\n      tag_29\n      jumpi\n      dup1\n      0xc87b56dd\n      eq\n      tag_23\n      jumpi\n      dup1\n      0xdb006a75\n      eq\n      tag_24\n      jumpi\n      dup1\n      0xe985e9c5\n      eq\n      tag_25\n      jumpi\n      dup1\n      0xf2fde38b\n      eq\n      tag_26\n      jumpi\n      jump(tag_1)\n    tag_29:\n      dup1\n      0xa65e06e8\n      eq\n      tag_20\n      jumpi\n      dup1\n      0xb73b99a2\n      eq\n      tag_21\n      jumpi\n      dup1\n      0xb88d4fde\n      eq\n      tag_22\n      jumpi\n      jump(tag_1)\n    tag_28:\n      dup1\n      0x715018a6\n      eq\n      tag_14\n      jumpi\n      dup1\n      0x8da5cb5b\n      eq\n      tag_15\n      jumpi\n      dup1\n      0x8ffbe96b\n      eq\n      tag_16\n      jumpi\n      dup1\n      0x95d89b41\n      eq\n      tag_17\n      jumpi\n      dup1\n      0xa0712d68\n      eq\n      tag_18\n      jumpi\n      dup1\n      0xa22cb465\n      eq\n      tag_19\n      jumpi\n      jump(tag_1)\n    tag_27:\n      dup1\n      0x23b872dd\n      gt\n      tag_30\n      jumpi\n      dup1\n      0x23b872dd\n      eq\n      tag_8\n      jumpi\n      dup1\n      0x42842e0e\n      eq\n      tag_9\n      jumpi\n      dup1\n      0x51e164b7\n      eq\n      tag_10\n      jumpi\n      dup1\n      0x55f804b3\n      eq\n      tag_11\n      jumpi\n      dup1\n      0x6352211e\n      eq\n      tag_12\n      jumpi\n      dup1\n      0x70a08231\n      eq\n      tag_13\n      jumpi\n      jump(tag_1)\n    tag_30:\n      dup1\n      0x01ffc9a7\n      eq\n      tag_2\n      jumpi\n      dup1\n      0x06fdde03\n      eq\n      tag_3\n      jumpi\n      dup1\n      0x081812fc\n      eq\n      tag_4\n      jumpi\n      dup1\n      0x095ea7b3\n      eq\n      tag_5\n      jumpi\n      dup1\n      0x0d9005ae\n      eq\n      tag_6\n      jumpi\n      dup1\n      0x18160ddd\n      eq\n      tag_7\n      jumpi\n    tag_1:\n      0x00\n      dup1\n      revert\n        /* \"erc721a/contracts/ERC721A.sol\":9155:9785  function supportsInterface(bytes4 interfaceId) public view virtual override returns (bool) {... */\n    tag_2:\n      callvalue\n      dup1\n      iszero\n      tag_31\n      jumpi\n      0x00\n      dup1\n      revert\n    tag_31:\n      pop\n      tag_32\n      0x04\n      dup1\n      calldatasize\n      sub\n      dup2\n      add\n      swap1\n      tag_33\n      swap2\n      swap1\n      tag_34\n      jump\t// in\n    tag_33:\n      tag_35\n      jump\t// in\n    tag_32:\n      mload(0x40)\n      tag_36\n      swap2\n      swap1\n      tag_37\n      jump\t// in\n    tag_36:\n      mload(0x40)\n      dup1\n      swap2\n      sub\n      swap1\n      return\n        /* \"erc721a/contracts/ERC721A.sol\":10039:10137  function name() public view virtual override returns (string memory) {... */\n    tag_3:\n      callvalue\n      dup1\n      iszero\n      tag_38\n      jumpi\n      0x00\n      dup1\n      revert\n    tag_38:\n      pop\n      tag_39\n      tag_40\n      jump\t// in\n    tag_39:\n      mload(0x40)\n      tag_41\n      swap2\n      swap1\n      tag_42\n      jump\t// in\n    tag_41:\n      mload(0x40)\n      dup1\n      swap2\n      sub\n      swap1\n      return\n        /* \"erc721a/contracts/ERC721A.sol\":16360:16574  function getApproved(uint256 tokenId) public view virtual override returns (address) {... */\n    tag_4:\n      callvalue\n      dup1\n      iszero\n      tag_43\n      jumpi\n      0x00\n      dup1\n      revert\n    tag_43:\n      pop\n      tag_44\n      0x04\n      dup1\n      calldatasize\n      sub\n      dup2\n      add\n      swap1\n      tag_45\n      swap2\n      swap1\n      tag_46\n      jump\t// in\n    tag_45:\n      tag_47\n      jump\t// in\n    tag_44:\n      mload(0x40)\n      tag_48\n      swap2\n      swap1\n      tag_49\n      jump\t// in\n    tag_48:\n      mload(0x40)\n      dup1\n      swap2\n      sub\n      swap1\n      return\n        /* \"erc721a/contracts/ERC721A.sol\":15812:16210  function approve(address to, uint256 tokenId) public payable virtual override {... */\n    tag_5:\n      tag_50\n      0x04\n      dup1\n      calldatasize\n      sub\n      dup2\n      add\n      swap1\n      tag_51\n      swap2\n      swap1\n      tag_52\n      jump\t// in\n    tag_51:\n      tag_53\n      jump\t// in\n    tag_50:\n      stop\n        /* \"UmiverseNFT.sol\":751:845  function getCurrentIndex() public view returns (uint256){... */\n    tag_6:\n      callvalue\n      dup1\n      iszero\n      tag_54\n      jumpi\n      0x00\n      dup1\n      revert\n    tag_54:\n      pop\n      tag_55\n      tag_56\n      jump\t// in\n    tag_55:\n      mload(0x40)\n      tag_57\n      swap2\n      swap1\n      tag_58\n      jump\t// in\n    tag_57:\n      mload(0x40)\n      dup1\n      swap2\n      sub\n      swap1\n      return\n        /* \"erc721a/contracts/ERC721A.sol\":5894:6211  function totalSupply() public view virtual override returns (uint256) {... */\n    tag_7:\n      callvalue\n      dup1\n      iszero\n      tag_59\n      jumpi\n      0x00\n      dup1\n      revert\n    tag_59:\n      pop\n      tag_60\n      tag_61\n      jump\t// in\n    tag_60:\n      mload(0x40)\n      tag_62\n      swap2\n      swap1\n      tag_58\n      jump\t// in\n    tag_62:\n      mload(0x40)\n      dup1\n      swap2\n      sub\n      swap1\n      return\n        /* \"erc721a/contracts/ERC721A.sol\":19903:22667  function transferFrom(... */\n    tag_8:\n      tag_63\n      0x04\n      dup1\n      calldatasize\n      sub\n      dup2\n      add\n      swap1\n      tag_64\n      swap2\n      swap1\n      tag_65\n      jump\t// in\n    tag_64:\n      tag_66\n      jump\t// in\n    tag_63:\n      stop\n        /* \"erc721a/contracts/ERC721A.sol\":22758:22945  function safeTransferFrom(... */\n    tag_9:\n      tag_67\n      0x04\n      dup1\n      calldatasize\n      sub\n      dup2\n      add\n      swap1\n      tag_68\n      swap2\n      swap1\n      tag_65\n      jump\t// in\n    tag_68:\n      tag_69\n      jump\t// in\n    tag_67:\n      stop\n        /* \"UmiverseNFT.sol\":326:373  mapping(uint256 => uint256) public tokenMapper2 */\n    tag_10:\n      callvalue\n      dup1\n      iszero\n      tag_70\n      jumpi\n      0x00\n      dup1\n      revert\n    tag_70:\n      pop\n      tag_71\n      0x04\n      dup1\n      calldatasize\n      sub\n      dup2\n      add\n      swap1\n      tag_72\n      swap2\n      swap1\n      tag_46\n      jump\t// in\n    tag_72:\n      tag_73\n      jump\t// in\n    tag_71:\n      mload(0x40)\n      tag_74\n      swap2\n      swap1\n      tag_58\n      jump\t// in\n    tag_74:\n      mload(0x40)\n      dup1\n      swap2\n      sub\n      swap1\n      return\n        /* \"UmiverseNFT.sol\":1551:1655  function setBaseURI(string calldata baseURI) external onlyOwner {... */\n    tag_11:\n      callvalue\n      dup1\n      iszero\n      tag_75\n      jumpi\n      0x00\n      dup1\n      revert\n    tag_75:\n      pop\n      tag_76\n      0x04\n      dup1\n      calldatasize\n      sub\n      dup2\n      add\n      swap1\n      tag_77\n      swap2\n      swap1\n      tag_78\n      jump\t// in\n    tag_77:\n      tag_79\n      jump\t// in\n    tag_76:\n      stop\n        /* \"erc721a/contracts/ERC721A.sol\":11391:11541  function ownerOf(uint256 tokenId) public view virtual override returns (address) {... */\n    tag_12:\n      callvalue\n      dup1\n      iszero\n      tag_80\n      jumpi\n      0x00\n      dup1\n      revert\n    tag_80:\n      pop\n      tag_81\n      0x04\n      dup1\n      calldatasize\n      sub\n      dup2\n      add\n      swap1\n      tag_82\n      swap2\n      swap1\n      tag_46\n      jump\t// in\n    tag_82:\n      tag_83\n      jump\t// in\n    tag_81:\n      mload(0x40)\n      tag_84\n      swap2\n      swap1\n      tag_49\n      jump\t// in\n    tag_84:\n      mload(0x40)\n      dup1\n      swap2\n      sub\n      swap1\n      return\n        /* \"erc721a/contracts/ERC721A.sol\":7045:7275  function balanceOf(address owner) public view virtual override returns (uint256) {... */\n    tag_13:\n      callvalue\n      dup1\n      iszero\n      tag_85\n      jumpi\n      0x00\n      dup1\n      revert\n    tag_85:\n      pop\n      tag_86\n      0x04\n      dup1\n      calldatasize\n      sub\n      dup2\n      add\n      swap1\n      tag_87\n      swap2\n      swap1\n      tag_88\n      jump\t// in\n    tag_87:\n      tag_89\n      jump\t// in\n    tag_86:\n      mload(0x40)\n      tag_90\n      swap2\n      swap1\n      tag_58\n      jump\t// in\n    tag_90:\n      mload(0x40)\n      dup1\n      swap2\n      sub\n      swap1\n      return\n        /* \"@openzeppelin/contracts/access/Ownable.sol\":1831:1932  function renounceOwnership() public virtual onlyOwner {... */\n    tag_14:\n      callvalue\n      dup1\n      iszero\n      tag_91\n      jumpi\n      0x00\n      dup1\n      revert\n    tag_91:\n      pop\n      tag_92\n      tag_93\n      jump\t// in\n    tag_92:\n      stop\n        /* \"@openzeppelin/contracts/access/Ownable.sol\":1201:1286  function owner() public view virtual returns (address) {... */\n    tag_15:\n      callvalue\n      dup1\n      iszero\n      tag_94\n      jumpi\n      0x00\n      dup1\n      revert\n    tag_94:\n      pop\n      tag_95\n      tag_96\n      jump\t// in\n    tag_95:\n      mload(0x40)\n      tag_97\n      swap2\n      swap1\n      tag_49\n      jump\t// in\n    tag_97:\n      mload(0x40)\n      dup1\n      swap2\n      sub\n      swap1\n      return\n        /* \"UmiverseNFT.sol\":1135:1545  function batchMint(uint256[] memory nftids) public{... */\n    tag_16:\n      callvalue\n      dup1\n      iszero\n      tag_98\n      jumpi\n      0x00\n      dup1\n      revert\n    tag_98:\n      pop\n      tag_99\n      0x04\n      dup1\n      calldatasize\n      sub\n      dup2\n      add\n      swap1\n      tag_100\n      swap2\n      swap1\n      tag_101\n      jump\t// in\n    tag_100:\n      tag_102\n      jump\t// in\n    tag_99:\n      stop\n        /* \"erc721a/contracts/ERC721A.sol\":10208:10310  function symbol() public view virtual override returns (string memory) {... */\n    tag_17:\n      callvalue\n      dup1\n      iszero\n      tag_103\n      jumpi\n      0x00\n      dup1\n      revert\n    tag_103:\n      pop\n      tag_104\n      tag_105\n      jump\t// in\n    tag_104:\n      mload(0x40)\n      tag_106\n      swap2\n      swap1\n      tag_42\n      jump\t// in\n    tag_106:\n      mload(0x40)\n      dup1\n      swap2\n      sub\n      swap1\n      return\n        /* \"UmiverseNFT.sol\":851:1129  function mint(uint256 nftid) public... */\n    tag_18:\n      callvalue\n      dup1\n      iszero\n      tag_107\n      jumpi\n      0x00\n      dup1\n      revert\n    tag_107:\n      pop\n      tag_108\n      0x04\n      dup1\n      calldatasize\n      sub\n      dup2\n      add\n      swap1\n      tag_109\n      swap2\n      swap1\n      tag_46\n      jump\t// in\n    tag_109:\n      tag_110\n      jump\t// in\n    tag_108:\n      stop\n        /* \"erc721a/contracts/ERC721A.sol\":16901:17132  function setApprovalForAll(address operator, bool approved) public virtual override {... */\n    tag_19:\n      callvalue\n      dup1\n      iszero\n      tag_111\n      jumpi\n      0x00\n      dup1\n      revert\n    tag_111:\n      pop\n      tag_112\n      0x04\n      dup1\n      calldatasize\n      sub\n      dup2\n      add\n      swap1\n      tag_113\n      swap2\n      swap1\n      tag_114\n      jump\t// in\n    tag_113:\n      tag_115\n      jump\t// in\n    tag_112:\n      stop\n        /* \"UmiverseNFT.sol\":434:474  mapping(uint256 => bool) public nftExist */\n    tag_20:\n      callvalue\n      dup1\n      iszero\n      tag_116\n      jumpi\n      0x00\n      dup1\n      revert\n    tag_116:\n      pop\n      tag_117\n      0x04\n      dup1\n      calldatasize\n      sub\n      dup2\n      add\n      swap1\n      tag_118\n      swap2\n      swap1\n      tag_46\n      jump\t// in\n    tag_118:\n      tag_119\n      jump\t// in\n    tag_117:\n      mload(0x40)\n      tag_120\n      swap2\n      swap1\n      tag_37\n      jump\t// in\n    tag_120:\n      mload(0x40)\n      dup1\n      swap2\n      sub\n      swap1\n      return\n        /* \"UmiverseNFT.sol\":250:296  mapping(uint256 => uint256) public tokenMapper */\n    tag_21:\n      callvalue\n      dup1\n      iszero\n      tag_121\n      jumpi\n      0x00\n      dup1\n      revert\n    tag_121:\n      pop\n      tag_122\n      0x04\n      dup1\n      calldatasize\n      sub\n      dup2\n      add\n      swap1\n      tag_123\n      swap2\n      swap1\n      tag_46\n      jump\t// in\n    tag_123:\n      tag_124\n      jump\t// in\n    tag_122:\n      mload(0x40)\n      tag_125\n      swap2\n      swap1\n      tag_58\n      jump\t// in\n    tag_125:\n      mload(0x40)\n      dup1\n      swap2\n      sub\n      swap1\n      return\n        /* \"erc721a/contracts/ERC721A.sol\":23526:23922  function safeTransferFrom(... */\n    tag_22:\n      tag_126\n      0x04\n      dup1\n      calldatasize\n      sub\n      dup2\n      add\n      swap1\n      tag_127\n      swap2\n      swap1\n      tag_128\n      jump\t// in\n    tag_127:\n      tag_129\n      jump\t// in\n    tag_126:\n      stop\n        /* \"UmiverseNFT.sol\":1778:2091  function tokenURI(uint256 tokenId) public view virtual override returns (string memory) {... */\n    tag_23:\n      callvalue\n      dup1\n      iszero\n      tag_130\n      jumpi\n      0x00\n      dup1\n      revert\n    tag_130:\n      pop\n      tag_131\n      0x04\n      dup1\n      calldatasize\n      sub\n      dup2\n      add\n      swap1\n      tag_132\n      swap2\n      swap1\n      tag_46\n      jump\t// in\n    tag_132:\n      tag_133\n      jump\t// in\n    tag_131:\n      mload(0x40)\n      tag_134\n      swap2\n      swap1\n      tag_42\n      jump\t// in\n    tag_134:\n      mload(0x40)\n      dup1\n      swap2\n      sub\n      swap1\n      return\n        /* \"UmiverseNFT.sol\":2097:2179  function redeem(uint256 tokenId) external onlyOwner{... */\n    tag_24:\n      callvalue\n      dup1\n      iszero\n      tag_135\n      jumpi\n      0x00\n      dup1\n      revert\n    tag_135:\n      pop\n      tag_136\n      0x04\n      dup1\n      calldatasize\n      sub\n      dup2\n      add\n      swap1\n      tag_137\n      swap2\n      swap1\n      tag_46\n      jump\t// in\n    tag_137:\n      tag_138\n      jump\t// in\n    tag_136:\n      stop\n        /* \"erc721a/contracts/ERC721A.sol\":17282:17444  function isApprovedForAll(address owner, address operator) public view virtual override returns (bool) {... */\n    tag_25:\n      callvalue\n      dup1\n      iszero\n      tag_139\n      jumpi\n      0x00\n      dup1\n      revert\n    tag_139:\n      pop\n      tag_140\n      0x04\n      dup1\n      calldatasize\n      sub\n      dup2\n      add\n      swap1\n      tag_141\n      swap2\n      swap1\n      tag_142\n      jump\t// in\n    tag_141:\n      tag_143\n      jump\t// in\n    tag_140:\n      mload(0x40)\n      tag_144\n      swap2\n      swap1\n      tag_37\n      jump\t// in\n    tag_144:\n      mload(0x40)\n      dup1\n      swap2\n      sub\n      swap1\n      return\n        /* \"@openzeppelin/contracts/access/Ownable.sol\":2081:2279  function transferOwnership(address newOwner) public virtual onlyOwner {... */\n    tag_26:\n      callvalue\n      dup1\n      iszero\n      tag_145\n      jumpi\n      0x00\n      dup1\n      revert\n    tag_145:\n      pop\n      tag_146\n      0x04\n      dup1\n      calldatasize\n      sub\n      dup2\n      add\n      swap1\n      tag_147\n      swap2\n      swap1\n      tag_88\n      jump\t// in\n    tag_147:\n      tag_148\n      jump\t// in\n    tag_146:\n      stop\n        /* \"erc721a/contracts/ERC721A.sol\":9155:9785  function supportsInterface(bytes4 interfaceId) public view virtual override returns (bool) {... */\n    tag_35:\n        /* \"erc721a/contracts/ERC721A.sol\":9240:9244  bool */\n      0x00\n        /* \"erc721a/contracts/ERC721A.sol\":9573:9583  0x01ffc9a7 */\n      0x01ffc9a7\n        /* \"erc721a/contracts/ERC721A.sol\":9558:9583  interfaceId == 0x01ffc9a7 */\n      0xe0\n      shl\n        /* \"erc721a/contracts/ERC721A.sol\":9558:9569  interfaceId */\n      dup3\n        /* \"erc721a/contracts/ERC721A.sol\":9558:9583  interfaceId == 0x01ffc9a7 */\n      not(0xffffffffffffffffffffffffffffffffffffffffffffffffffffffff)\n      and\n      eq\n        /* \"erc721a/contracts/ERC721A.sol\":9558:9659  interfaceId == 0x01ffc9a7 || // ERC165 interface ID for ERC165.... */\n      dup1\n      tag_150\n      jumpi\n      pop\n        /* \"erc721a/contracts/ERC721A.sol\":9649:9659  0x80ac58cd */\n      0x80ac58cd\n        /* \"erc721a/contracts/ERC721A.sol\":9634:9659  interfaceId == 0x80ac58cd */\n      0xe0\n      shl\n        /* \"erc721a/contracts/ERC721A.sol\":9634:9645  interfaceId */\n      dup3\n        /* \"erc721a/contracts/ERC721A.sol\":9634:9659  interfaceId == 0x80ac58cd */\n      not(0xffffffffffffffffffffffffffffffffffffffffffffffffffffffff)\n      and\n      eq\n        /* \"erc721a/contracts/ERC721A.sol\":9558:9659  interfaceId == 0x01ffc9a7 || // ERC165 interface ID for ERC165.... */\n    tag_150:\n        /* \"erc721a/contracts/ERC721A.sol\":9558:9735  interfaceId == 0x01ffc9a7 || // ERC165 interface ID for ERC165.... */\n      dup1\n      tag_151\n      jumpi\n      pop\n        /* \"erc721a/contracts/ERC721A.sol\":9725:9735  0x5b5e139f */\n      0x5b5e139f\n        /* \"erc721a/contracts/ERC721A.sol\":9710:9735  interfaceId == 0x5b5e139f */\n      0xe0\n      shl\n        /* \"erc721a/contracts/ERC721A.sol\":9710:9721  interfaceId */\n      dup3\n        /* \"erc721a/contracts/ERC721A.sol\":9710:9735  interfaceId == 0x5b5e139f */\n      not(0xffffffffffffffffffffffffffffffffffffffffffffffffffffffff)\n      and\n      eq\n        /* \"erc721a/contracts/ERC721A.sol\":9558:9735  interfaceId == 0x01ffc9a7 || // ERC165 interface ID for ERC165.... */\n    tag_151:\n        /* \"erc721a/contracts/ERC721A.sol\":9539:9735  return... */\n      swap1\n      pop\n        /* \"erc721a/contracts/ERC721A.sol\":9155:9785  function supportsInterface(bytes4 interfaceId) public view virtual override returns (bool) {... */\n      swap2\n      swap1\n      pop\n      jump\t// out\n        /* \"erc721a/contracts/ERC721A.sol\":10039:10137  function name() public view virtual override returns (string memory) {... */\n    tag_40:\n        /* \"erc721a/contracts/ERC721A.sol\":10093:10106  string memory */\n      0x60\n        /* \"erc721a/contracts/ERC721A.sol\":10125:10130  _name */\n      0x03\n        /* \"erc721a/contracts/ERC721A.sol\":10118:10130  return _name */\n      dup1\n      sload\n      tag_153\n      swap1\n      tag_154\n      jump\t// in\n    tag_153:\n      dup1\n      0x1f\n      add\n      0x20\n      dup1\n      swap2\n      div\n      mul\n      0x20\n      add\n      mload(0x40)\n      swap1\n      dup2\n      add\n      0x40\n      mstore\n      dup1\n      swap3\n      swap2\n      swap1\n      dup2\n      dup2\n      mstore\n      0x20\n      add\n      dup3\n      dup1\n      sload\n      tag_155\n      swap1\n      tag_154\n      jump\t// in\n    tag_155:\n      dup1\n      iszero\n      tag_156\n      jumpi\n      dup1\n      0x1f\n      lt\n      tag_157\n      jumpi\n      0x0100\n      dup1\n      dup4\n      sload\n      div\n      mul\n      dup4\n      mstore\n      swap2\n      0x20\n      add\n      swap2\n      jump(tag_156)\n    tag_157:\n      dup3\n      add\n      swap2\n      swap1\n      0x00\n      mstore\n      keccak256(0x00, 0x20)\n      swap1\n    tag_158:\n      dup2\n      sload\n      dup2\n      mstore\n      swap1\n      0x01\n      add\n      swap1\n      0x20\n      add\n      dup1\n      dup4\n      gt\n      tag_158\n      jumpi\n      dup3\n      swap1\n      sub\n      0x1f\n      and\n      dup3\n      add\n      swap2\n    tag_156:\n      pop\n      pop\n      pop\n      pop\n      pop\n      swap1\n      pop\n        /* \"erc721a/contracts/ERC721A.sol\":10039:10137  function name() public view virtual override returns (string memory) {... */\n      swap1\n      jump\t// out\n        /* \"erc721a/contracts/ERC721A.sol\":16360:16574  function getApproved(uint256 tokenId) public view virtual override returns (address) {... */\n    tag_47:\n        /* \"erc721a/contracts/ERC721A.sol\":16436:16443  address */\n      0x00\n        /* \"erc721a/contracts/ERC721A.sol\":16460:16476  _exists(tokenId) */\n      tag_160\n        /* \"erc721a/contracts/ERC721A.sol\":16468:16475  tokenId */\n      dup3\n        /* \"erc721a/contracts/ERC721A.sol\":16460:16467  _exists */\n      tag_161\n        /* \"erc721a/contracts/ERC721A.sol\":16460:16476  _exists(tokenId) */\n      jump\t// in\n    tag_160:\n        /* \"erc721a/contracts/ERC721A.sol\":16455:16519  if (!_exists(tokenId)) revert ApprovalQueryForNonexistentToken() */\n      tag_162\n      jumpi\n        /* \"erc721a/contracts/ERC721A.sol\":16485:16519  ApprovalQueryForNonexistentToken() */\n      mload(0x40)\n      0xcf4700e400000000000000000000000000000000000000000000000000000000\n      dup2\n      mstore\n      0x04\n      add\n      mload(0x40)\n      dup1\n      swap2\n      sub\n      swap1\n      revert\n        /* \"erc721a/contracts/ERC721A.sol\":16455:16519  if (!_exists(tokenId)) revert ApprovalQueryForNonexistentToken() */\n    tag_162:\n        /* \"erc721a/contracts/ERC721A.sol\":16537:16552  _tokenApprovals */\n      0x07\n        /* \"erc721a/contracts/ERC721A.sol\":16537:16561  _tokenApprovals[tokenId] */\n      0x00\n        /* \"erc721a/contracts/ERC721A.sol\":16553:16560  tokenId */\n      dup4\n        /* \"erc721a/contracts/ERC721A.sol\":16537:16561  _tokenApprovals[tokenId] */\n      dup2\n      mstore\n      0x20\n      add\n      swap1\n      dup2\n      mstore\n      0x20\n      add\n      0x00\n      keccak256\n        /* \"erc721a/contracts/ERC721A.sol\":16537:16567  _tokenApprovals[tokenId].value */\n      0x00\n      add\n      0x00\n      swap1\n      sload\n      swap1\n      0x0100\n      exp\n      swap1\n      div\n      0xffffffffffffffffffffffffffffffffffffffff\n      and\n        /* \"erc721a/contracts/ERC721A.sol\":16530:16567  return _tokenApprovals[tokenId].value */\n      swap1\n      pop\n        /* \"erc721a/contracts/ERC721A.sol\":16360:16574  function getApproved(uint256 tokenId) public view virtual override returns (address) {... */\n      swap2\n      swap1\n      pop\n      jump\t// out\n        /* \"erc721a/contracts/ERC721A.sol\":15812:16210  function approve(address to, uint256 tokenId) public payable virtual override {... */\n    tag_53:\n        /* \"erc721a/contracts/ERC721A.sol\":15900:15913  address owner */\n      0x00\n        /* \"erc721a/contracts/ERC721A.sol\":15916:15932  ownerOf(tokenId) */\n      tag_164\n        /* \"erc721a/contracts/ERC721A.sol\":15924:15931  tokenId */\n      dup3\n        /* \"erc721a/contracts/ERC721A.sol\":15916:15923  ownerOf */\n      tag_83\n        /* \"erc721a/contracts/ERC721A.sol\":15916:15932  ownerOf(tokenId) */\n      jump\t// in\n    tag_164:\n        /* \"erc721a/contracts/ERC721A.sol\":15900:15932  address owner = ownerOf(tokenId) */\n      swap1\n      pop\n        /* \"erc721a/contracts/ERC721A.sol\":15970:15975  owner */\n      dup1\n        /* \"erc721a/contracts/ERC721A.sol\":15947:15975  _msgSenderERC721A() != owner */\n      0xffffffffffffffffffffffffffffffffffffffff\n      and\n        /* \"erc721a/contracts/ERC721A.sol\":15947:15966  _msgSenderERC721A() */\n      tag_165\n        /* \"erc721a/contracts/ERC721A.sol\":15947:15964  _msgSenderERC721A */\n      tag_166\n        /* \"erc721a/contracts/ERC721A.sol\":15947:15966  _msgSenderERC721A() */\n      jump\t// in\n    tag_165:\n        /* \"erc721a/contracts/ERC721A.sol\":15947:15975  _msgSenderERC721A() != owner */\n      0xffffffffffffffffffffffffffffffffffffffff\n      and\n      eq\n        /* \"erc721a/contracts/ERC721A.sol\":15943:16115  if (_msgSenderERC721A() != owner)... */\n      tag_167\n      jumpi\n        /* \"erc721a/contracts/ERC721A.sol\":15994:16038  isApprovedForAll(owner, _msgSenderERC721A()) */\n      tag_168\n        /* \"erc721a/contracts/ERC721A.sol\":16011:16016  owner */\n      dup2\n        /* \"erc721a/contracts/ERC721A.sol\":16018:16037  _msgSenderERC721A() */\n      tag_169\n        /* \"erc721a/contracts/ERC721A.sol\":16018:16035  _msgSenderERC721A */\n      tag_166\n        /* \"erc721a/contracts/ERC721A.sol\":16018:16037  _msgSenderERC721A() */\n      jump\t// in\n    tag_169:\n        /* \"erc721a/contracts/ERC721A.sol\":15994:16010  isApprovedForAll */\n      tag_143\n        /* \"erc721a/contracts/ERC721A.sol\":15994:16038  isApprovedForAll(owner, _msgSenderERC721A()) */\n      jump\t// in\n    tag_168:\n        /* \"erc721a/contracts/ERC721A.sol\":15989:16115  if (!isApprovedForAll(owner, _msgSenderERC721A())) {... */\n      tag_170\n      jumpi\n        /* \"erc721a/contracts/ERC721A.sol\":16065:16100  ApprovalCallerNotOwnerNorApproved() */\n      mload(0x40)\n      0xcfb3b94200000000000000000000000000000000000000000000000000000000\n      dup2\n      mstore\n      0x04\n      add\n      mload(0x40)\n      dup1\n      swap2\n      sub\n      swap1\n      revert\n        /* \"erc721a/contracts/ERC721A.sol\":15989:16115  if (!isApprovedForAll(owner, _msgSenderERC721A())) {... */\n    tag_170:\n        /* \"erc721a/contracts/ERC721A.sol\":15943:16115  if (_msgSenderERC721A() != owner)... */\n    tag_167:\n        /* \"erc721a/contracts/ERC721A.sol\":16158:16160  to */\n      dup3\n        /* \"erc721a/contracts/ERC721A.sol\":16125:16140  _tokenApprovals */\n      0x07\n        /* \"erc721a/contracts/ERC721A.sol\":16125:16149  _tokenApprovals[tokenId] */\n      0x00\n        /* \"erc721a/contracts/ERC721A.sol\":16141:16148  tokenId */\n      dup5\n        /* \"erc721a/contracts/ERC721A.sol\":16125:16149  _tokenApprovals[tokenId] */\n      dup2\n      mstore\n      0x20\n      add\n      swap1\n      dup2\n      mstore\n      0x20\n      add\n      0x00\n      keccak256\n        /* \"erc721a/contracts/ERC721A.sol\":16125:16155  _tokenApprovals[tokenId].value */\n      0x00\n      add\n      0x00\n        /* \"erc721a/contracts/ERC721A.sol\":16125:16160  _tokenApprovals[tokenId].value = to */\n      0x0100\n      exp\n      dup2\n      sload\n      dup2\n      0xffffffffffffffffffffffffffffffffffffffff\n      mul\n      not\n      and\n      swap1\n      dup4\n      0xffffffffffffffffffffffffffffffffffffffff\n      and\n      mul\n      or\n      swap1\n      sstore\n      pop\n        /* \"erc721a/contracts/ERC721A.sol\":16195:16202  tokenId */\n      dup2\n        /* \"erc721a/contracts/ERC721A.sol\":16191:16193  to */\n      dup4\n        /* \"erc721a/contracts/ERC721A.sol\":16175:16203  Approval(owner, to, tokenId) */\n      0xffffffffffffffffffffffffffffffffffffffff\n      and\n        /* \"erc721a/contracts/ERC721A.sol\":16184:16189  owner */\n      dup3\n        /* \"erc721a/contracts/ERC721A.sol\":16175:16203  Approval(owner, to, tokenId) */\n      0xffffffffffffffffffffffffffffffffffffffff\n      and\n      0x8c5be1e5ebec7d5bd14f71427d1e84f3dd0314c0f7b2291e5b200ac8c7c3b925\n      mload(0x40)\n      mload(0x40)\n      dup1\n      swap2\n      sub\n      swap1\n      log4\n        /* \"erc721a/contracts/ERC721A.sol\":15890:16210  {... */\n      pop\n        /* \"erc721a/contracts/ERC721A.sol\":15812:16210  function approve(address to, uint256 tokenId) public payable virtual override {... */\n      pop\n      pop\n      jump\t// out\n        /* \"UmiverseNFT.sol\":751:845  function getCurrentIndex() public view returns (uint256){... */\n    tag_56:\n        /* \"UmiverseNFT.sol\":799:806  uint256 */\n      0x00\n        /* \"UmiverseNFT.sol\":824:838  _nextTokenId() */\n      tag_172\n        /* \"UmiverseNFT.sol\":824:836  _nextTokenId */\n      tag_173\n        /* \"UmiverseNFT.sol\":824:838  _nextTokenId() */\n      jump\t// in\n    tag_172:\n        /* \"UmiverseNFT.sol\":817:838  return _nextTokenId() */\n      swap1\n      pop\n        /* \"UmiverseNFT.sol\":751:845  function getCurrentIndex() public view returns (uint256){... */\n      swap1\n      jump\t// out\n        /* \"erc721a/contracts/ERC721A.sol\":5894:6211  function totalSupply() public view virtual override returns (uint256) {... */\n    tag_61:\n        /* \"erc721a/contracts/ERC721A.sol\":5955:5962  uint256 */\n      0x00\n        /* \"erc721a/contracts/ERC721A.sol\":6179:6194  _startTokenId() */\n      tag_175\n        /* \"erc721a/contracts/ERC721A.sol\":6179:6192  _startTokenId */\n      tag_176\n        /* \"erc721a/contracts/ERC721A.sol\":6179:6194  _startTokenId() */\n      jump\t// in\n    tag_175:\n        /* \"erc721a/contracts/ERC721A.sol\":6164:6176  _burnCounter */\n      sload(0x02)\n        /* \"erc721a/contracts/ERC721A.sol\":6148:6161  _currentIndex */\n      sload(0x01)\n        /* \"erc721a/contracts/ERC721A.sol\":6148:6176  _currentIndex - _burnCounter */\n      sub\n        /* \"erc721a/contracts/ERC721A.sol\":6148:6194  _currentIndex - _burnCounter - _startTokenId() */\n      sub\n        /* \"erc721a/contracts/ERC721A.sol\":6141:6194  return _currentIndex - _burnCounter - _startTokenId() */\n      swap1\n      pop\n        /* \"erc721a/contracts/ERC721A.sol\":5894:6211  function totalSupply() public view virtual override returns (uint256) {... */\n      swap1\n      jump\t// out\n        /* \"erc721a/contracts/ERC721A.sol\":19903:22667  function transferFrom(... */\n    tag_66:\n        /* \"erc721a/contracts/ERC721A.sol\":20040:20067  uint256 prevOwnershipPacked */\n      0x00\n        /* \"erc721a/contracts/ERC721A.sol\":20070:20097  _packedOwnershipOf(tokenId) */\n      tag_178\n        /* \"erc721a/contracts/ERC721A.sol\":20089:20096  tokenId */\n      dup3\n        /* \"erc721a/contracts/ERC721A.sol\":20070:20088  _packedOwnershipOf */\n      tag_179\n        /* \"erc721a/contracts/ERC721A.sol\":20070:20097  _packedOwnershipOf(tokenId) */\n      jump\t// in\n    tag_178:\n        /* \"erc721a/contracts/ERC721A.sol\":20040:20097  uint256 prevOwnershipPacked = _packedOwnershipOf(tokenId) */\n      swap1\n      pop\n        /* \"erc721a/contracts/ERC721A.sol\":20153:20157  from */\n      dup4\n        /* \"erc721a/contracts/ERC721A.sol\":20112:20157  address(uint160(prevOwnershipPacked)) != from */\n      0xffffffffffffffffffffffffffffffffffffffff\n      and\n        /* \"erc721a/contracts/ERC721A.sol\":20128:20147  prevOwnershipPacked */\n      dup2\n        /* \"erc721a/contracts/ERC721A.sol\":20112:20157  address(uint160(prevOwnershipPacked)) != from */\n      0xffffffffffffffffffffffffffffffffffffffff\n      and\n      eq\n        /* \"erc721a/contracts/ERC721A.sol\":20108:20194  if (address(uint160(prevOwnershipPacked)) != from) revert TransferFromIncorrectOwner() */\n      tag_180\n      jumpi\n        /* \"erc721a/contracts/ERC721A.sol\":20166:20194  TransferFromIncorrectOwner() */\n      mload(0x40)\n      0xa114810000000000000000000000000000000000000000000000000000000000\n      dup2\n      mstore\n      0x04\n      add\n      mload(0x40)\n      dup1\n      swap2\n      sub\n      swap1\n      revert\n        /* \"erc721a/contracts/ERC721A.sol\":20108:20194  if (address(uint160(prevOwnershipPacked)) != from) revert TransferFromIncorrectOwner() */\n    tag_180:\n        /* \"erc721a/contracts/ERC721A.sol\":20206:20233  uint256 approvedAddressSlot */\n      0x00\n        /* \"erc721a/contracts/ERC721A.sol\":20235:20258  address approvedAddress */\n      dup1\n        /* \"erc721a/contracts/ERC721A.sol\":20262:20297  _getApprovedSlotAndAddress(tokenId) */\n      tag_181\n        /* \"erc721a/contracts/ERC721A.sol\":20289:20296  tokenId */\n      dup5\n        /* \"erc721a/contracts/ERC721A.sol\":20262:20288  _getApprovedSlotAndAddress */\n      tag_182\n        /* \"erc721a/contracts/ERC721A.sol\":20262:20297  _getApprovedSlotAndAddress(tokenId) */\n      jump\t// in\n    tag_181:\n        /* \"erc721a/contracts/ERC721A.sol\":20205:20297  (uint256 approvedAddressSlot, address approvedAddress) = _getApprovedSlotAndAddress(tokenId) */\n      swap2\n      pop\n      swap2\n      pop\n        /* \"erc721a/contracts/ERC721A.sol\":20394:20462  _isSenderApprovedOrOwner(approvedAddress, from, _msgSenderERC721A()) */\n      tag_183\n        /* \"erc721a/contracts/ERC721A.sol\":20419:20434  approvedAddress */\n      dup2\n        /* \"erc721a/contracts/ERC721A.sol\":20436:20440  from */\n      dup8\n        /* \"erc721a/contracts/ERC721A.sol\":20442:20461  _msgSenderERC721A() */\n      tag_184\n        /* \"erc721a/contracts/ERC721A.sol\":20442:20459  _msgSenderERC721A */\n      tag_166\n        /* \"erc721a/contracts/ERC721A.sol\":20442:20461  _msgSenderERC721A() */\n      jump\t// in\n    tag_184:\n        /* \"erc721a/contracts/ERC721A.sol\":20394:20418  _isSenderApprovedOrOwner */\n      tag_185\n        /* \"erc721a/contracts/ERC721A.sol\":20394:20462  _isSenderApprovedOrOwner(approvedAddress, from, _msgSenderERC721A()) */\n      jump\t// in\n    tag_183:\n        /* \"erc721a/contracts/ERC721A.sol\":20389:20568  if (!_isSenderApprovedOrOwner(approvedAddress, from, _msgSenderERC721A()))... */\n      tag_186\n      jumpi\n        /* \"erc721a/contracts/ERC721A.sol\":20481:20524  isApprovedForAll(from, _msgSenderERC721A()) */\n      tag_187\n        /* \"erc721a/contracts/ERC721A.sol\":20498:20502  from */\n      dup7\n        /* \"erc721a/contracts/ERC721A.sol\":20504:20523  _msgSenderERC721A() */\n      tag_188\n        /* \"erc721a/contracts/ERC721A.sol\":20504:20521  _msgSenderERC721A */\n      tag_166\n        /* \"erc721a/contracts/ERC721A.sol\":20504:20523  _msgSenderERC721A() */\n      jump\t// in\n    tag_188:\n        /* \"erc721a/contracts/ERC721A.sol\":20481:20497  isApprovedForAll */\n      tag_143\n        /* \"erc721a/contracts/ERC721A.sol\":20481:20524  isApprovedForAll(from, _msgSenderERC721A()) */\n      jump\t// in\n    tag_187:\n        /* \"erc721a/contracts/ERC721A.sol\":20476:20568  if (!isApprovedForAll(from, _msgSenderERC721A())) revert TransferCallerNotOwnerNorApproved() */\n      tag_189\n      jumpi\n        /* \"erc721a/contracts/ERC721A.sol\":20533:20568  TransferCallerNotOwnerNorApproved() */\n      mload(0x40)\n      0x59c896be00000000000000000000000000000000000000000000000000000000\n      dup2\n      mstore\n      0x04\n      add\n      mload(0x40)\n      dup1\n      swap2\n      sub\n      swap1\n      revert\n        /* \"erc721a/contracts/ERC721A.sol\":20476:20568  if (!isApprovedForAll(from, _msgSenderERC721A())) revert TransferCallerNotOwnerNorApproved() */\n    tag_189:\n        /* \"erc721a/contracts/ERC721A.sol\":20389:20568  if (!_isSenderApprovedOrOwner(approvedAddress, from, _msgSenderERC721A()))... */\n    tag_186:\n        /* \"erc721a/contracts/ERC721A.sol\":20597:20598  0 */\n      0x00\n        /* \"erc721a/contracts/ERC721A.sol\":20583:20599  to == address(0) */\n      0xffffffffffffffffffffffffffffffffffffffff\n      and\n        /* \"erc721a/contracts/ERC721A.sol\":20583:20585  to */\n      dup6\n        /* \"erc721a/contracts/ERC721A.sol\":20583:20599  to == address(0) */\n      0xffffffffffffffffffffffffffffffffffffffff\n      and\n      sub\n        /* \"erc721a/contracts/ERC721A.sol\":20579:20631  if (to == address(0)) revert TransferToZeroAddress() */\n      tag_190\n      jumpi\n        /* \"erc721a/contracts/ERC721A.sol\":20608:20631  TransferToZeroAddress() */\n      mload(0x40)\n      0xea553b3400000000000000000000000000000000000000000000000000000000\n      dup2\n      mstore\n      0x04\n      add\n      mload(0x40)\n      dup1\n      swap2\n      sub\n      swap1\n      revert\n        /* \"erc721a/contracts/ERC721A.sol\":20579:20631  if (to == address(0)) revert TransferToZeroAddress() */\n    tag_190:\n        /* \"erc721a/contracts/ERC721A.sol\":20642:20685  _beforeTokenTransfers(from, to, tokenId, 1) */\n      tag_191\n        /* \"erc721a/contracts/ERC721A.sol\":20664:20668  from */\n      dup7\n        /* \"erc721a/contracts/ERC721A.sol\":20670:20672  to */\n      dup7\n        /* \"erc721a/contracts/ERC721A.sol\":20674:20681  tokenId */\n      dup7\n        /* \"erc721a/contracts/ERC721A.sol\":20683:20684  1 */\n      0x01\n        /* \"erc721a/contracts/ERC721A.sol\":20642:20663  _beforeTokenTransfers */\n      tag_192\n        /* \"erc721a/contracts/ERC721A.sol\":20642:20685  _beforeTokenTransfers(from, to, tokenId, 1) */\n      jump\t// in\n    tag_191:\n        /* \"erc721a/contracts/ERC721A.sol\":20774:20789  approvedAddress */\n      dup1\n        /* \"erc721a/contracts/ERC721A.sol\":20771:20928  if approvedAddress {... */\n      iszero\n      tag_193\n      jumpi\n        /* \"erc721a/contracts/ERC721A.sol\":20912:20913  0 */\n      0x00\n        /* \"erc721a/contracts/ERC721A.sol\":20891:20910  approvedAddressSlot */\n      dup3\n        /* \"erc721a/contracts/ERC721A.sol\":20884:20914  sstore(approvedAddressSlot, 0) */\n      sstore\n        /* \"erc721a/contracts/ERC721A.sol\":20771:20928  if approvedAddress {... */\n    tag_193:\n        /* \"erc721a/contracts/ERC721A.sol\":21300:21318  _packedAddressData */\n      0x06\n        /* \"erc721a/contracts/ERC721A.sol\":21300:21324  _packedAddressData[from] */\n      0x00\n        /* \"erc721a/contracts/ERC721A.sol\":21319:21323  from */\n      dup8\n        /* \"erc721a/contracts/ERC721A.sol\":21300:21324  _packedAddressData[from] */\n      0xffffffffffffffffffffffffffffffffffffffff\n      and\n      0xffffffffffffffffffffffffffffffffffffffff\n      and\n      dup2\n      mstore\n      0x20\n      add\n      swap1\n      dup2\n      mstore\n      0x20\n      add\n      0x00\n      keccak256\n      0x00\n        /* \"erc721a/contracts/ERC721A.sol\":21298:21324  --_packedAddressData[from] */\n      dup2\n      sload\n      0x01\n      swap1\n      sub\n      swap2\n      swap1\n      pop\n      dup2\n      swap1\n      sstore\n      pop\n        /* \"erc721a/contracts/ERC721A.sol\":21368:21386  _packedAddressData */\n      0x06\n        /* \"erc721a/contracts/ERC721A.sol\":21368:21390  _packedAddressData[to] */\n      0x00\n        /* \"erc721a/contracts/ERC721A.sol\":21387:21389  to */\n      dup7\n        /* \"erc721a/contracts/ERC721A.sol\":21368:21390  _packedAddressData[to] */\n      0xffffffffffffffffffffffffffffffffffffffff\n      and\n      0xffffffffffffffffffffffffffffffffffffffff\n      and\n      dup2\n      mstore\n      0x20\n      add\n      swap1\n      dup2\n      mstore\n      0x20\n      add\n      0x00\n      keccak256\n      0x00\n        /* \"erc721a/contracts/ERC721A.sol\":21366:21390  ++_packedAddressData[to] */\n      dup2\n      sload\n      0x01\n      add\n      swap2\n      swap1\n      pop\n      dup2\n      swap1\n      sstore\n      pop\n        /* \"erc721a/contracts/ERC721A.sol\":21683:21826  _packOwnershipData(... */\n      tag_194\n        /* \"erc721a/contracts/ERC721A.sol\":21719:21721  to */\n      dup6\n        /* \"erc721a/contracts/ERC721A.sol\":21767:21812  _nextExtraData(from, to, prevOwnershipPacked) */\n      tag_195\n        /* \"erc721a/contracts/ERC721A.sol\":21782:21786  from */\n      dup9\n        /* \"erc721a/contracts/ERC721A.sol\":21788:21790  to */\n      dup9\n        /* \"erc721a/contracts/ERC721A.sol\":21792:21811  prevOwnershipPacked */\n      dup8\n        /* \"erc721a/contracts/ERC721A.sol\":21767:21781  _nextExtraData */\n      tag_196\n        /* \"erc721a/contracts/ERC721A.sol\":21767:21812  _nextExtraData(from, to, prevOwnershipPacked) */\n      jump\t// in\n    tag_195:\n        /* \"erc721a/contracts/ERC721A.sol\":2392:2400  1 << 225 */\n      0x0200000000000000000000000000000000000000000000000000000000\n        /* \"erc721a/contracts/ERC721A.sol\":21739:21812  _BITMASK_NEXT_INITIALIZED | _nextExtraData(from, to, prevOwnershipPacked) */\n      or\n        /* \"erc721a/contracts/ERC721A.sol\":21683:21701  _packOwnershipData */\n      tag_197\n        /* \"erc721a/contracts/ERC721A.sol\":21683:21826  _packOwnershipData(... */\n      jump\t// in\n    tag_194:\n        /* \"erc721a/contracts/ERC721A.sol\":21654:21671  _packedOwnerships */\n      0x05\n        /* \"erc721a/contracts/ERC721A.sol\":21654:21680  _packedOwnerships[tokenId] */\n      0x00\n        /* \"erc721a/contracts/ERC721A.sol\":21672:21679  tokenId */\n      dup7\n        /* \"erc721a/contracts/ERC721A.sol\":21654:21680  _packedOwnerships[tokenId] */\n      dup2\n      mstore\n      0x20\n      add\n      swap1\n      dup2\n      mstore\n      0x20\n      add\n      0x00\n      keccak256\n        /* \"erc721a/contracts/ERC721A.sol\":21654:21826  _packedOwnerships[tokenId] = _packOwnershipData(... */\n      dup2\n      swap1\n      sstore\n      pop\n        /* \"erc721a/contracts/ERC721A.sol\":21994:21995  0 */\n      0x00\n        /* \"erc721a/contracts/ERC721A.sol\":2392:2400  1 << 225 */\n      0x0200000000000000000000000000000000000000000000000000000000\n        /* \"erc721a/contracts/ERC721A.sol\":21943:21962  prevOwnershipPacked */\n      dup5\n        /* \"erc721a/contracts/ERC721A.sol\":21943:21990  prevOwnershipPacked & _BITMASK_NEXT_INITIALIZED */\n      and\n        /* \"erc721a/contracts/ERC721A.sol\":21943:21995  prevOwnershipPacked & _BITMASK_NEXT_INITIALIZED == 0 */\n      sub\n        /* \"erc721a/contracts/ERC721A.sol\":21939:22556  if (prevOwnershipPacked & _BITMASK_NEXT_INITIALIZED == 0) {... */\n      tag_198\n      jumpi\n        /* \"erc721a/contracts/ERC721A.sol\":22015:22034  uint256 nextTokenId */\n      0x00\n        /* \"erc721a/contracts/ERC721A.sol\":22047:22048  1 */\n      0x01\n        /* \"erc721a/contracts/ERC721A.sol\":22037:22044  tokenId */\n      dup6\n        /* \"erc721a/contracts/ERC721A.sol\":22037:22048  tokenId + 1 */\n      add\n        /* \"erc721a/contracts/ERC721A.sol\":22015:22048  uint256 nextTokenId = tokenId + 1 */\n      swap1\n      pop\n        /* \"erc721a/contracts/ERC721A.sol\":22202:22203  0 */\n      0x00\n        /* \"erc721a/contracts/ERC721A.sol\":22168:22185  _packedOwnerships */\n      0x05\n        /* \"erc721a/contracts/ERC721A.sol\":22168:22198  _packedOwnerships[nextTokenId] */\n      0x00\n        /* \"erc721a/contracts/ERC721A.sol\":22186:22197  nextTokenId */\n      dup4\n        /* \"erc721a/contracts/ERC721A.sol\":22168:22198  _packedOwnerships[nextTokenId] */\n      dup2\n      mstore\n      0x20\n      add\n      swap1\n      dup2\n      mstore\n      0x20\n      add\n      0x00\n      keccak256\n      sload\n        /* \"erc721a/contracts/ERC721A.sol\":22168:22203  _packedOwnerships[nextTokenId] == 0 */\n      sub\n        /* \"erc721a/contracts/ERC721A.sol\":22164:22542  if (_packedOwnerships[nextTokenId] == 0) {... */\n      tag_199\n      jumpi\n        /* \"erc721a/contracts/ERC721A.sol\":22304:22317  _currentIndex */\n      sload(0x01)\n        /* \"erc721a/contracts/ERC721A.sol\":22289:22300  nextTokenId */\n      dup2\n        /* \"erc721a/contracts/ERC721A.sol\":22289:22317  nextTokenId != _currentIndex */\n      eq\n        /* \"erc721a/contracts/ERC721A.sol\":22285:22524  if (nextTokenId != _currentIndex) {... */\n      tag_200\n      jumpi\n        /* \"erc721a/contracts/ERC721A.sol\":22482:22501  prevOwnershipPacked */\n      dup4\n        /* \"erc721a/contracts/ERC721A.sol\":22449:22466  _packedOwnerships */\n      0x05\n        /* \"erc721a/contracts/ERC721A.sol\":22449:22479  _packedOwnerships[nextTokenId] */\n      0x00\n        /* \"erc721a/contracts/ERC721A.sol\":22467:22478  nextTokenId */\n      dup4\n        /* \"erc721a/contracts/ERC721A.sol\":22449:22479  _packedOwnerships[nextTokenId] */\n      dup2\n      mstore\n      0x20\n      add\n      swap1\n      dup2\n      mstore\n      0x20\n      add\n      0x00\n      keccak256\n        /* \"erc721a/contracts/ERC721A.sol\":22449:22501  _packedOwnerships[nextTokenId] = prevOwnershipPacked */\n      dup2\n      swap1\n      sstore\n      pop\n        /* \"erc721a/contracts/ERC721A.sol\":22285:22524  if (nextTokenId != _currentIndex) {... */\n    tag_200:\n        /* \"erc721a/contracts/ERC721A.sol\":22164:22542  if (_packedOwnerships[nextTokenId] == 0) {... */\n    tag_199:\n        /* \"erc721a/contracts/ERC721A.sol\":21997:22556  {... */\n      pop\n        /* \"erc721a/contracts/ERC721A.sol\":21939:22556  if (prevOwnershipPacked & _BITMASK_NEXT_INITIALIZED == 0) {... */\n    tag_198:\n        /* \"erc721a/contracts/ERC721A.sol\":22600:22607  tokenId */\n      dup4\n        /* \"erc721a/contracts/ERC721A.sol\":22596:22598  to */\n      dup6\n        /* \"erc721a/contracts/ERC721A.sol\":22581:22608  Transfer(from, to, tokenId) */\n      0xffffffffffffffffffffffffffffffffffffffff\n      and\n        /* \"erc721a/contracts/ERC721A.sol\":22590:22594  from */\n      dup8\n        /* \"erc721a/contracts/ERC721A.sol\":22581:22608  Transfer(from, to, tokenId) */\n      0xffffffffffffffffffffffffffffffffffffffff\n      and\n      0xddf252ad1be2c89b69c2b068fc378daa952ba7f163c4a11628f55a4df523b3ef\n      mload(0x40)\n      mload(0x40)\n      dup1\n      swap2\n      sub\n      swap1\n      log4\n        /* \"erc721a/contracts/ERC721A.sol\":22618:22660  _afterTokenTransfers(from, to, tokenId, 1) */\n      tag_201\n        /* \"erc721a/contracts/ERC721A.sol\":22639:22643  from */\n      dup7\n        /* \"erc721a/contracts/ERC721A.sol\":22645:22647  to */\n      dup7\n        /* \"erc721a/contracts/ERC721A.sol\":22649:22656  tokenId */\n      dup7\n        /* \"erc721a/contracts/ERC721A.sol\":22658:22659  1 */\n      0x01\n        /* \"erc721a/contracts/ERC721A.sol\":22618:22638  _afterTokenTransfers */\n      tag_202\n        /* \"erc721a/contracts/ERC721A.sol\":22618:22660  _afterTokenTransfers(from, to, tokenId, 1) */\n      jump\t// in\n    tag_201:\n        /* \"erc721a/contracts/ERC721A.sol\":20030:22667  {... */\n      pop\n      pop\n      pop\n        /* \"erc721a/contracts/ERC721A.sol\":19903:22667  function transferFrom(... */\n      pop\n      pop\n      pop\n      jump\t// out\n        /* \"erc721a/contracts/ERC721A.sol\":22758:22945  function safeTransferFrom(... */\n    tag_69:\n        /* \"erc721a/contracts/ERC721A.sol\":22899:22938  safeTransferFrom(from, to, tokenId, '') */\n      tag_204\n        /* \"erc721a/contracts/ERC721A.sol\":22916:22920  from */\n      dup4\n        /* \"erc721a/contracts/ERC721A.sol\":22922:22924  to */\n      dup4\n        /* \"erc721a/contracts/ERC721A.sol\":22926:22933  tokenId */\n      dup4\n        /* \"erc721a/contracts/ERC721A.sol\":22899:22938  safeTransferFrom(from, to, tokenId, '') */\n      mload(0x40)\n      dup1\n      0x20\n      add\n      0x40\n      mstore\n      dup1\n      0x00\n      dup2\n      mstore\n      pop\n        /* \"erc721a/contracts/ERC721A.sol\":22899:22915  safeTransferFrom */\n      tag_129\n        /* \"erc721a/contracts/ERC721A.sol\":22899:22938  safeTransferFrom(from, to, tokenId, '') */\n      jump\t// in\n    tag_204:\n        /* \"erc721a/contracts/ERC721A.sol\":22758:22945  function safeTransferFrom(... */\n      pop\n      pop\n      pop\n      jump\t// out\n        /* \"UmiverseNFT.sol\":326:373  mapping(uint256 => uint256) public tokenMapper2 */\n    tag_73:\n      mstore(0x20, 0x0b)\n      dup1\n      0x00\n      mstore\n      keccak256(0x00, 0x40)\n      0x00\n      swap2\n      pop\n      swap1\n      pop\n      sload\n      dup2\n      jump\t// out\n        /* \"UmiverseNFT.sol\":1551:1655  function setBaseURI(string calldata baseURI) external onlyOwner {... */\n    tag_79:\n        /* \"@openzeppelin/contracts/access/Ownable.sol\":1094:1107  _checkOwner() */\n      tag_206\n        /* \"@openzeppelin/contracts/access/Ownable.sol\":1094:1105  _checkOwner */\n      tag_207\n        /* \"@openzeppelin/contracts/access/Ownable.sol\":1094:1107  _checkOwner() */\n      jump\t// in\n    tag_206:\n        /* \"UmiverseNFT.sol\":1641:1648  baseURI */\n      dup2\n      dup2\n        /* \"UmiverseNFT.sol\":1625:1638  _baseTokenURI */\n      0x09\n        /* \"UmiverseNFT.sol\":1625:1648  _baseTokenURI = baseURI */\n      swap2\n      swap1\n      tag_209\n      swap3\n      swap2\n      swap1\n      tag_210\n      jump\t// in\n    tag_209:\n      pop\n        /* \"UmiverseNFT.sol\":1551:1655  function setBaseURI(string calldata baseURI) external onlyOwner {... */\n      pop\n      pop\n      jump\t// out\n        /* \"erc721a/contracts/ERC721A.sol\":11391:11541  function ownerOf(uint256 tokenId) public view virtual override returns (address) {... */\n    tag_83:\n        /* \"erc721a/contracts/ERC721A.sol\":11463:11470  address */\n      0x00\n        /* \"erc721a/contracts/ERC721A.sol\":11505:11532  _packedOwnershipOf(tokenId) */\n      tag_212\n        /* \"erc721a/contracts/ERC721A.sol\":11524:11531  tokenId */\n      dup3\n        /* \"erc721a/contracts/ERC721A.sol\":11505:11523  _packedOwnershipOf */\n      tag_179\n        /* \"erc721a/contracts/ERC721A.sol\":11505:11532  _packedOwnershipOf(tokenId) */\n      jump\t// in\n    tag_212:\n        /* \"erc721a/contracts/ERC721A.sol\":11482:11534  return address(uint160(_packedOwnershipOf(tokenId))) */\n      swap1\n      pop\n        /* \"erc721a/contracts/ERC721A.sol\":11391:11541  function ownerOf(uint256 tokenId) public view virtual override returns (address) {... */\n      swap2\n      swap1\n      pop\n      jump\t// out\n        /* \"erc721a/contracts/ERC721A.sol\":7045:7275  function balanceOf(address owner) public view virtual override returns (uint256) {... */\n    tag_89:\n        /* \"erc721a/contracts/ERC721A.sol\":7117:7124  uint256 */\n      0x00\n        /* \"erc721a/contracts/ERC721A.sol\":7157:7158  0 */\n      dup1\n        /* \"erc721a/contracts/ERC721A.sol\":7140:7159  owner == address(0) */\n      0xffffffffffffffffffffffffffffffffffffffff\n      and\n        /* \"erc721a/contracts/ERC721A.sol\":7140:7145  owner */\n      dup3\n        /* \"erc721a/contracts/ERC721A.sol\":7140:7159  owner == address(0) */\n      0xffffffffffffffffffffffffffffffffffffffff\n      and\n      sub\n        /* \"erc721a/contracts/ERC721A.sol\":7136:7196  if (owner == address(0)) revert BalanceQueryForZeroAddress() */\n      tag_214\n      jumpi\n        /* \"erc721a/contracts/ERC721A.sol\":7168:7196  BalanceQueryForZeroAddress() */\n      mload(0x40)\n      0x8f4eb60400000000000000000000000000000000000000000000000000000000\n      dup2\n      mstore\n      0x04\n      add\n      mload(0x40)\n      dup1\n      swap2\n      sub\n      swap1\n      revert\n        /* \"erc721a/contracts/ERC721A.sol\":7136:7196  if (owner == address(0)) revert BalanceQueryForZeroAddress() */\n    tag_214:\n        /* \"erc721a/contracts/ERC721A.sol\":1360:1373  (1 << 64) - 1 */\n      0xffffffffffffffff\n        /* \"erc721a/contracts/ERC721A.sol\":7213:7231  _packedAddressData */\n      0x06\n        /* \"erc721a/contracts/ERC721A.sol\":7213:7238  _packedAddressData[owner] */\n      0x00\n        /* \"erc721a/contracts/ERC721A.sol\":7232:7237  owner */\n      dup5\n        /* \"erc721a/contracts/ERC721A.sol\":7213:7238  _packedAddressData[owner] */\n      0xffffffffffffffffffffffffffffffffffffffff\n      and\n      0xffffffffffffffffffffffffffffffffffffffff\n      and\n      dup2\n      mstore\n      0x20\n      add\n      swap1\n      dup2\n      mstore\n      0x20\n      add\n      0x00\n      keccak256\n      sload\n        /* \"erc721a/contracts/ERC721A.sol\":7213:7268  _packedAddressData[owner] & _BITMASK_ADDRESS_DATA_ENTRY */\n      and\n        /* \"erc721a/contracts/ERC721A.sol\":7206:7268  return _packedAddressData[owner] & _BITMASK_ADDRESS_DATA_ENTRY */\n      swap1\n      pop\n        /* \"erc721a/contracts/ERC721A.sol\":7045:7275  function balanceOf(address owner) public view virtual override returns (uint256) {... */\n      swap2\n      swap1\n      pop\n      jump\t// out\n        /* \"@openzeppelin/contracts/access/Ownable.sol\":1831:1932  function renounceOwnership() public virtual onlyOwner {... */\n    tag_93:\n        /* \"@openzeppelin/contracts/access/Ownable.sol\":1094:1107  _checkOwner() */\n      tag_216\n        /* \"@openzeppelin/contracts/access/Ownable.sol\":1094:1105  _checkOwner */\n      tag_207\n        /* \"@openzeppelin/contracts/access/Ownable.sol\":1094:1107  _checkOwner() */\n      jump\t// in\n    tag_216:\n        /* \"@openzeppelin/contracts/access/Ownable.sol\":1895:1925  _transferOwnership(address(0)) */\n      tag_218\n        /* \"@openzeppelin/contracts/access/Ownable.sol\":1922:1923  0 */\n      0x00\n        /* \"@openzeppelin/contracts/access/Ownable.sol\":1895:1913  _transferOwnership */\n      tag_219\n        /* \"@openzeppelin/contracts/access/Ownable.sol\":1895:1925  _transferOwnership(address(0)) */\n      jump\t// in\n    tag_218:\n        /* \"@openzeppelin/contracts/access/Ownable.sol\":1831:1932  function renounceOwnership() public virtual onlyOwner {... */\n      jump\t// out\n        /* \"@openzeppelin/contracts/access/Ownable.sol\":1201:1286  function owner() public view virtual returns (address) {... */\n    tag_96:\n        /* \"@openzeppelin/contracts/access/Ownable.sol\":1247:1254  address */\n      0x00\n        /* \"@openzeppelin/contracts/access/Ownable.sol\":1273:1279  _owner */\n      dup1\n      0x00\n      swap1\n      sload\n      swap1\n      0x0100\n      exp\n      swap1\n      div\n      0xffffffffffffffffffffffffffffffffffffffff\n      and\n        /* \"@openzeppelin/contracts/access/Ownable.sol\":1266:1279  return _owner */\n      swap1\n      pop\n        /* \"@openzeppelin/contracts/access/Ownable.sol\":1201:1286  function owner() public view virtual returns (address) {... */\n      swap1\n      jump\t// out\n        /* \"UmiverseNFT.sol\":1135:1545  function batchMint(uint256[] memory nftids) public{... */\n    tag_102:\n        /* \"UmiverseNFT.sol\":1199:1208  uint256 i */\n      0x00\n        /* \"UmiverseNFT.sol\":1195:1539  for(uint256 i=0; i<nftids.length; i++){... */\n    tag_222:\n        /* \"UmiverseNFT.sol\":1214:1220  nftids */\n      dup2\n        /* \"UmiverseNFT.sol\":1214:1227  nftids.length */\n      mload\n        /* \"UmiverseNFT.sol\":1212:1213  i */\n      dup2\n        /* \"UmiverseNFT.sol\":1212:1227  i<nftids.length */\n      lt\n        /* \"UmiverseNFT.sol\":1195:1539  for(uint256 i=0; i<nftids.length; i++){... */\n      iszero\n      tag_223\n      jumpi\n        /* \"UmiverseNFT.sol\":1247:1260  uint256 nftid */\n      0x00\n        /* \"UmiverseNFT.sol\":1263:1269  nftids */\n      dup3\n        /* \"UmiverseNFT.sol\":1270:1271  i */\n      dup3\n        /* \"UmiverseNFT.sol\":1263:1272  nftids[i] */\n      dup2\n      mload\n      dup2\n      lt\n      tag_225\n      jumpi\n      tag_226\n      tag_227\n      jump\t// in\n    tag_226:\n    tag_225:\n      0x20\n      mul\n      0x20\n      add\n      add\n      mload\n        /* \"UmiverseNFT.sol\":1247:1272  uint256 nftid = nftids[i] */\n      swap1\n      pop\n        /* \"UmiverseNFT.sol\":1295:1303  nftExist */\n      0x0d\n        /* \"UmiverseNFT.sol\":1295:1310  nftExist[nftid] */\n      0x00\n        /* \"UmiverseNFT.sol\":1304:1309  nftid */\n      dup3\n        /* \"UmiverseNFT.sol\":1295:1310  nftExist[nftid] */\n      dup2\n      mstore\n      0x20\n      add\n      swap1\n      dup2\n      mstore\n      0x20\n      add\n      0x00\n      keccak256\n      0x00\n      swap1\n      sload\n      swap1\n      0x0100\n      exp\n      swap1\n      div\n      0xff\n      and\n        /* \"UmiverseNFT.sol\":1294:1310  !nftExist[nftid] */\n      iszero\n        /* \"UmiverseNFT.sol\":1286:1329  require(!nftExist[nftid], \"nftid exist!!!\") */\n      tag_228\n      jumpi\n      mload(0x40)\n      0x08c379a000000000000000000000000000000000000000000000000000000000\n      dup2\n      mstore\n      0x04\n      add\n      tag_229\n      swap1\n      tag_230\n      jump\t// in\n    tag_229:\n      mload(0x40)\n      dup1\n      swap2\n      sub\n      swap1\n      revert\n    tag_228:\n        /* \"UmiverseNFT.sol\":1365:1374  _tokenIds */\n      sload(0x0c)\n        /* \"UmiverseNFT.sol\":1344:1355  tokenMapper */\n      0x0a\n        /* \"UmiverseNFT.sol\":1344:1362  tokenMapper[nftid] */\n      0x00\n        /* \"UmiverseNFT.sol\":1356:1361  nftid */\n      dup4\n        /* \"UmiverseNFT.sol\":1344:1362  tokenMapper[nftid] */\n      dup2\n      mstore\n      0x20\n      add\n      swap1\n      dup2\n      mstore\n      0x20\n      add\n      0x00\n      keccak256\n        /* \"UmiverseNFT.sol\":1344:1374  tokenMapper[nftid] = _tokenIds */\n      dup2\n      swap1\n      sstore\n      pop\n        /* \"UmiverseNFT.sol\":1414:1419  nftid */\n      dup1\n        /* \"UmiverseNFT.sol\":1388:1400  tokenMapper2 */\n      0x0b\n        /* \"UmiverseNFT.sol\":1388:1411  tokenMapper2[_tokenIds] */\n      0x00\n        /* \"UmiverseNFT.sol\":1401:1410  _tokenIds */\n      sload(0x0c)\n        /* \"UmiverseNFT.sol\":1388:1411  tokenMapper2[_tokenIds] */\n      dup2\n      mstore\n      0x20\n      add\n      swap1\n      dup2\n      mstore\n      0x20\n      add\n      0x00\n      keccak256\n        /* \"UmiverseNFT.sol\":1388:1419  tokenMapper2[_tokenIds] = nftid */\n      dup2\n      swap1\n      sstore\n      pop\n        /* \"UmiverseNFT.sol\":1452:1456  true */\n      0x01\n        /* \"UmiverseNFT.sol\":1434:1442  nftExist */\n      0x0d\n        /* \"UmiverseNFT.sol\":1434:1449  nftExist[nftid] */\n      0x00\n        /* \"UmiverseNFT.sol\":1443:1448  nftid */\n      dup4\n        /* \"UmiverseNFT.sol\":1434:1449  nftExist[nftid] */\n      dup2\n      mstore\n      0x20\n      add\n      swap1\n      dup2\n      mstore\n      0x20\n      add\n      0x00\n      keccak256\n      0x00\n        /* \"UmiverseNFT.sol\":1434:1456  nftExist[nftid] = true */\n      0x0100\n      exp\n      dup2\n      sload\n      dup2\n      0xff\n      mul\n      not\n      and\n      swap1\n      dup4\n      iszero\n      iszero\n      mul\n      or\n      swap1\n      sstore\n      pop\n        /* \"UmiverseNFT.sol\":1470:1503  _safeMint(address(msg.sender), 1) */\n      tag_231\n        /* \"UmiverseNFT.sol\":1488:1498  msg.sender */\n      caller\n        /* \"UmiverseNFT.sol\":1501:1502  1 */\n      0x01\n        /* \"UmiverseNFT.sol\":1470:1479  _safeMint */\n      tag_232\n        /* \"UmiverseNFT.sol\":1470:1503  _safeMint(address(msg.sender), 1) */\n      jump\t// in\n    tag_231:\n        /* \"UmiverseNFT.sol\":1517:1526  _tokenIds */\n      0x0c\n      0x00\n        /* \"UmiverseNFT.sol\":1517:1528  _tokenIds++ */\n      dup2\n      sload\n      dup1\n      swap3\n      swap2\n      swap1\n      tag_233\n      swap1\n      tag_234\n      jump\t// in\n    tag_233:\n      swap2\n      swap1\n      pop\n      sstore\n      pop\n        /* \"UmiverseNFT.sol\":1233:1539  {... */\n      pop\n        /* \"UmiverseNFT.sol\":1229:1232  i++ */\n      dup1\n      dup1\n      tag_235\n      swap1\n      tag_234\n      jump\t// in\n    tag_235:\n      swap2\n      pop\n      pop\n        /* \"UmiverseNFT.sol\":1195:1539  for(uint256 i=0; i<nftids.length; i++){... */\n      jump(tag_222)\n    tag_223:\n      pop\n        /* \"UmiverseNFT.sol\":1135:1545  function batchMint(uint256[] memory nftids) public{... */\n      pop\n      jump\t// out\n        /* \"erc721a/contracts/ERC721A.sol\":10208:10310  function symbol() public view virtual override returns (string memory) {... */\n    tag_105:\n        /* \"erc721a/contracts/ERC721A.sol\":10264:10277  string memory */\n      0x60\n        /* \"erc721a/contracts/ERC721A.sol\":10296:10303  _symbol */\n      0x04\n        /* \"erc721a/contracts/ERC721A.sol\":10289:10303  return _symbol */\n      dup1\n      sload\n      tag_237\n      swap1\n      tag_154\n      jump\t// in\n    tag_237:\n      dup1\n      0x1f\n      add\n      0x20\n      dup1\n      swap2\n      div\n      mul\n      0x20\n      add\n      mload(0x40)\n      swap1\n      dup2\n      add\n      0x40\n      mstore\n      dup1\n      swap3\n      swap2\n      swap1\n      dup2\n      dup2\n      mstore\n      0x20\n      add\n      dup3\n      dup1\n      sload\n      tag_238\n      swap1\n      tag_154\n      jump\t// in\n    tag_238:\n      dup1\n      iszero\n      tag_239\n      jumpi\n      dup1\n      0x1f\n      lt\n      tag_240\n      jumpi\n      0x0100\n      dup1\n      dup4\n      sload\n      div\n      mul\n      dup4\n      mstore\n      swap2\n      0x20\n      add\n      swap2\n      jump(tag_239)\n    tag_240:\n      dup3\n      add\n      swap2\n      swap1\n      0x00\n      mstore\n      keccak256(0x00, 0x20)\n      swap1\n    tag_241:\n      dup2\n      sload\n      dup2\n      mstore\n      swap1\n      0x01\n      add\n      swap1\n      0x20\n      add\n      dup1\n      dup4\n      gt\n      tag_241\n      jumpi\n      dup3\n      swap1\n      sub\n      0x1f\n      and\n      dup3\n      add\n      swap2\n    tag_239:\n      pop\n      pop\n      pop\n      pop\n      pop\n      swap1\n      pop\n        /* \"erc721a/contracts/ERC721A.sol\":10208:10310  function symbol() public view virtual override returns (string memory) {... */\n      swap1\n      jump\t// out\n        /* \"UmiverseNFT.sol\":851:1129  function mint(uint256 nftid) public... */\n    tag_110:\n        /* \"UmiverseNFT.sol\":910:918  nftExist */\n      0x0d\n        /* \"UmiverseNFT.sol\":910:925  nftExist[nftid] */\n      0x00\n        /* \"UmiverseNFT.sol\":919:924  nftid */\n      dup3\n        /* \"UmiverseNFT.sol\":910:925  nftExist[nftid] */\n      dup2\n      mstore\n      0x20\n      add\n      swap1\n      dup2\n      mstore\n      0x20\n      add\n      0x00\n      keccak256\n      0x00\n      swap1\n      sload\n      swap1\n      0x0100\n      exp\n      swap1\n      div\n      0xff\n      and\n        /* \"UmiverseNFT.sol\":909:925  !nftExist[nftid] */\n      iszero\n        /* \"UmiverseNFT.sol\":901:944  require(!nftExist[nftid], \"nftid exist!!!\") */\n      tag_243\n      jumpi\n      mload(0x40)\n      0x08c379a000000000000000000000000000000000000000000000000000000000\n      dup2\n      mstore\n      0x04\n      add\n      tag_244\n      swap1\n      tag_230\n      jump\t// in\n    tag_244:\n      mload(0x40)\n      dup1\n      swap2\n      sub\n      swap1\n      revert\n    tag_243:\n        /* \"UmiverseNFT.sol\":976:985  _tokenIds */\n      sload(0x0c)\n        /* \"UmiverseNFT.sol\":955:966  tokenMapper */\n      0x0a\n        /* \"UmiverseNFT.sol\":955:973  tokenMapper[nftid] */\n      0x00\n        /* \"UmiverseNFT.sol\":967:972  nftid */\n      dup4\n        /* \"UmiverseNFT.sol\":955:973  tokenMapper[nftid] */\n      dup2\n      mstore\n      0x20\n      add\n      swap1\n      dup2\n      mstore\n      0x20\n      add\n      0x00\n      keccak256\n        /* \"UmiverseNFT.sol\":955:985  tokenMapper[nftid] = _tokenIds */\n      dup2\n      swap1\n      sstore\n      pop\n        /* \"UmiverseNFT.sol\":1021:1026  nftid */\n      dup1\n        /* \"UmiverseNFT.sol\":995:1007  tokenMapper2 */\n      0x0b\n        /* \"UmiverseNFT.sol\":995:1018  tokenMapper2[_tokenIds] */\n      0x00\n        /* \"UmiverseNFT.sol\":1008:1017  _tokenIds */\n      sload(0x0c)\n        /* \"UmiverseNFT.sol\":995:1018  tokenMapper2[_tokenIds] */\n      dup2\n      mstore\n      0x20\n      add\n      swap1\n      dup2\n      mstore\n      0x20\n      add\n      0x00\n      keccak256\n        /* \"UmiverseNFT.sol\":995:1026  tokenMapper2[_tokenIds] = nftid */\n      dup2\n      swap1\n      sstore\n      pop\n        /* \"UmiverseNFT.sol\":1054:1058  true */\n      0x01\n        /* \"UmiverseNFT.sol\":1036:1044  nftExist */\n      0x0d\n        /* \"UmiverseNFT.sol\":1036:1051  nftExist[nftid] */\n      0x00\n        /* \"UmiverseNFT.sol\":1045:1050  nftid */\n      dup4\n        /* \"UmiverseNFT.sol\":1036:1051  nftExist[nftid] */\n      dup2\n      mstore\n      0x20\n      add\n      swap1\n      dup2\n      mstore\n      0x20\n      add\n      0x00\n      keccak256\n      0x00\n        /* \"UmiverseNFT.sol\":1036:1058  nftExist[nftid] = true */\n      0x0100\n      exp\n      dup2\n      sload\n      dup2\n      0xff\n      mul\n      not\n      and\n      swap1\n      dup4\n      iszero\n      iszero\n      mul\n      or\n      swap1\n      sstore\n      pop\n        /* \"UmiverseNFT.sol\":1068:1101  _safeMint(address(msg.sender), 1) */\n      tag_245\n        /* \"UmiverseNFT.sol\":1086:1096  msg.sender */\n      caller\n        /* \"UmiverseNFT.sol\":1099:1100  1 */\n      0x01\n        /* \"UmiverseNFT.sol\":1068:1077  _safeMint */\n      tag_232\n        /* \"UmiverseNFT.sol\":1068:1101  _safeMint(address(msg.sender), 1) */\n      jump\t// in\n    tag_245:\n        /* \"UmiverseNFT.sol\":1111:1120  _tokenIds */\n      0x0c\n      0x00\n        /* \"UmiverseNFT.sol\":1111:1122  _tokenIds++ */\n      dup2\n      sload\n      dup1\n      swap3\n      swap2\n      swap1\n      tag_246\n      swap1\n      tag_234\n      jump\t// in\n    tag_246:\n      swap2\n      swap1\n      pop\n      sstore\n      pop\n        /* \"UmiverseNFT.sol\":851:1129  function mint(uint256 nftid) public... */\n      pop\n      jump\t// out\n        /* \"erc721a/contracts/ERC721A.sol\":16901:17132  function setApprovalForAll(address operator, bool approved) public virtual override {... */\n    tag_115:\n        /* \"erc721a/contracts/ERC721A.sol\":17047:17055  approved */\n      dup1\n        /* \"erc721a/contracts/ERC721A.sol\":16995:17013  _operatorApprovals */\n      0x08\n        /* \"erc721a/contracts/ERC721A.sol\":16995:17034  _operatorApprovals[_msgSenderERC721A()] */\n      0x00\n        /* \"erc721a/contracts/ERC721A.sol\":17014:17033  _msgSenderERC721A() */\n      tag_248\n        /* \"erc721a/contracts/ERC721A.sol\":17014:17031  _msgSenderERC721A */\n      tag_166\n        /* \"erc721a/contracts/ERC721A.sol\":17014:17033  _msgSenderERC721A() */\n      jump\t// in\n    tag_248:\n        /* \"erc721a/contracts/ERC721A.sol\":16995:17034  _operatorApprovals[_msgSenderERC721A()] */\n      0xffffffffffffffffffffffffffffffffffffffff\n      and\n      0xffffffffffffffffffffffffffffffffffffffff\n      and\n      dup2\n      mstore\n      0x20\n      add\n      swap1\n      dup2\n      mstore\n      0x20\n      add\n      0x00\n      keccak256\n        /* \"erc721a/contracts/ERC721A.sol\":16995:17044  _operatorApprovals[_msgSenderERC721A()][operator] */\n      0x00\n        /* \"erc721a/contracts/ERC721A.sol\":17035:17043  operator */\n      dup5\n        /* \"erc721a/contracts/ERC721A.sol\":16995:17044  _operatorApprovals[_msgSenderERC721A()][operator] */\n      0xffffffffffffffffffffffffffffffffffffffff\n      and\n      0xffffffffffffffffffffffffffffffffffffffff\n      and\n      dup2\n      mstore\n      0x20\n      add\n      swap1\n      dup2\n      mstore\n      0x20\n      add\n      0x00\n      keccak256\n      0x00\n        /* \"erc721a/contracts/ERC721A.sol\":16995:17055  _operatorApprovals[_msgSenderERC721A()][operator] = approved */\n      0x0100\n      exp\n      dup2\n      sload\n      dup2\n      0xff\n      mul\n      not\n      and\n      swap1\n      dup4\n      iszero\n      iszero\n      mul\n      or\n      swap1\n      sstore\n      pop\n        /* \"erc721a/contracts/ERC721A.sol\":17106:17114  operator */\n      dup2\n        /* \"erc721a/contracts/ERC721A.sol\":17070:17125  ApprovalForAll(_msgSenderERC721A(), operator, approved) */\n      0xffffffffffffffffffffffffffffffffffffffff\n      and\n        /* \"erc721a/contracts/ERC721A.sol\":17085:17104  _msgSenderERC721A() */\n      tag_249\n        /* \"erc721a/contracts/ERC721A.sol\":17085:17102  _msgSenderERC721A */\n      tag_166\n        /* \"erc721a/contracts/ERC721A.sol\":17085:17104  _msgSenderERC721A() */\n      jump\t// in\n    tag_249:\n        /* \"erc721a/contracts/ERC721A.sol\":17070:17125  ApprovalForAll(_msgSenderERC721A(), operator, approved) */\n      0xffffffffffffffffffffffffffffffffffffffff\n      and\n      0x17307eab39ab6107e8899845ad3d59bd9653f200f220920489ca2b5937696c31\n        /* \"erc721a/contracts/ERC721A.sol\":17116:17124  approved */\n      dup4\n        /* \"erc721a/contracts/ERC721A.sol\":17070:17125  ApprovalForAll(_msgSenderERC721A(), operator, approved) */\n      mload(0x40)\n      tag_250\n      swap2\n      swap1\n      tag_37\n      jump\t// in\n    tag_250:\n      mload(0x40)\n      dup1\n      swap2\n      sub\n      swap1\n      log3\n        /* \"erc721a/contracts/ERC721A.sol\":16901:17132  function setApprovalForAll(address operator, bool approved) public virtual override {... */\n      pop\n      pop\n      jump\t// out\n        /* \"UmiverseNFT.sol\":434:474  mapping(uint256 => bool) public nftExist */\n    tag_119:\n      mstore(0x20, 0x0d)\n      dup1\n      0x00\n      mstore\n      keccak256(0x00, 0x40)\n      0x00\n      swap2\n      pop\n      sload\n      swap1\n      0x0100\n      exp\n      swap1\n      div\n      0xff\n      and\n      dup2\n      jump\t// out\n        /* \"UmiverseNFT.sol\":250:296  mapping(uint256 => uint256) public tokenMapper */\n    tag_124:\n      mstore(0x20, 0x0a)\n      dup1\n      0x00\n      mstore\n      keccak256(0x00, 0x40)\n      0x00\n      swap2\n      pop\n      swap1\n      pop\n      sload\n      dup2\n      jump\t// out\n        /* \"erc721a/contracts/ERC721A.sol\":23526:23922  function safeTransferFrom(... */\n    tag_129:\n        /* \"erc721a/contracts/ERC721A.sol\":23695:23726  transferFrom(from, to, tokenId) */\n      tag_252\n        /* \"erc721a/contracts/ERC721A.sol\":23708:23712  from */\n      dup5\n        /* \"erc721a/contracts/ERC721A.sol\":23714:23716  to */\n      dup5\n        /* \"erc721a/contracts/ERC721A.sol\":23718:23725  tokenId */\n      dup5\n        /* \"erc721a/contracts/ERC721A.sol\":23695:23707  transferFrom */\n      tag_66\n        /* \"erc721a/contracts/ERC721A.sol\":23695:23726  transferFrom(from, to, tokenId) */\n      jump\t// in\n    tag_252:\n        /* \"erc721a/contracts/ERC721A.sol\":23758:23759  0 */\n      0x00\n        /* \"erc721a/contracts/ERC721A.sol\":23740:23742  to */\n      dup4\n        /* \"erc721a/contracts/ERC721A.sol\":23740:23754  to.code.length */\n      0xffffffffffffffffffffffffffffffffffffffff\n      and\n      extcodesize\n        /* \"erc721a/contracts/ERC721A.sol\":23740:23759  to.code.length != 0 */\n      eq\n        /* \"erc721a/contracts/ERC721A.sol\":23736:23916  if (to.code.length != 0)... */\n      tag_253\n      jumpi\n        /* \"erc721a/contracts/ERC721A.sol\":23778:23834  _checkContractOnERC721Received(from, to, tokenId, _data) */\n      tag_254\n        /* \"erc721a/contracts/ERC721A.sol\":23809:23813  from */\n      dup5\n        /* \"erc721a/contracts/ERC721A.sol\":23815:23817  to */\n      dup5\n        /* \"erc721a/contracts/ERC721A.sol\":23819:23826  tokenId */\n      dup5\n        /* \"erc721a/contracts/ERC721A.sol\":23828:23833  _data */\n      dup5\n        /* \"erc721a/contracts/ERC721A.sol\":23778:23808  _checkContractOnERC721Received */\n      tag_255\n        /* \"erc721a/contracts/ERC721A.sol\":23778:23834  _checkContractOnERC721Received(from, to, tokenId, _data) */\n      jump\t// in\n    tag_254:\n        /* \"erc721a/contracts/ERC721A.sol\":23773:23916  if (!_checkContractOnERC721Received(from, to, tokenId, _data)) {... */\n      tag_256\n      jumpi\n        /* \"erc721a/contracts/ERC721A.sol\":23861:23901  TransferToNonERC721ReceiverImplementer() */\n      mload(0x40)\n      0xd1a57ed600000000000000000000000000000000000000000000000000000000\n      dup2\n      mstore\n      0x04\n      add\n      mload(0x40)\n      dup1\n      swap2\n      sub\n      swap1\n      revert\n        /* \"erc721a/contracts/ERC721A.sol\":23773:23916  if (!_checkContractOnERC721Received(from, to, tokenId, _data)) {... */\n    tag_256:\n        /* \"erc721a/contracts/ERC721A.sol\":23736:23916  if (to.code.length != 0)... */\n    tag_253:\n        /* \"erc721a/contracts/ERC721A.sol\":23526:23922  function safeTransferFrom(... */\n      pop\n      pop\n      pop\n      pop\n      jump\t// out\n        /* \"UmiverseNFT.sol\":1778:2091  function tokenURI(uint256 tokenId) public view virtual override returns (string memory) {... */\n    tag_133:\n        /* \"UmiverseNFT.sol\":1851:1864  string memory */\n      0x60\n        /* \"UmiverseNFT.sol\":1881:1897  _exists(tokenId) */\n      tag_258\n        /* \"UmiverseNFT.sol\":1889:1896  tokenId */\n      dup3\n        /* \"UmiverseNFT.sol\":1881:1888  _exists */\n      tag_161\n        /* \"UmiverseNFT.sol\":1881:1897  _exists(tokenId) */\n      jump\t// in\n    tag_258:\n        /* \"UmiverseNFT.sol\":1876:1935  if (!_exists(tokenId)) revert URIQueryForNonexistentToken() */\n      tag_259\n      jumpi\n        /* \"UmiverseNFT.sol\":1906:1935  URIQueryForNonexistentToken() */\n      mload(0x40)\n      0xa14c4b5000000000000000000000000000000000000000000000000000000000\n      dup2\n      mstore\n      0x04\n      add\n      mload(0x40)\n      dup1\n      swap2\n      sub\n      swap1\n      revert\n        /* \"UmiverseNFT.sol\":1876:1935  if (!_exists(tokenId)) revert URIQueryForNonexistentToken() */\n    tag_259:\n        /* \"UmiverseNFT.sol\":1946:1967  string memory baseURI */\n      0x00\n        /* \"UmiverseNFT.sol\":1970:1980  _baseURI() */\n      tag_260\n        /* \"UmiverseNFT.sol\":1970:1978  _baseURI */\n      tag_261\n        /* \"UmiverseNFT.sol\":1970:1980  _baseURI() */\n      jump\t// in\n    tag_260:\n        /* \"UmiverseNFT.sol\":1946:1980  string memory baseURI = _baseURI() */\n      swap1\n      pop\n        /* \"UmiverseNFT.sol\":2022:2023  0 */\n      0x00\n        /* \"UmiverseNFT.sol\":2003:2010  baseURI */\n      dup2\n        /* \"UmiverseNFT.sol\":1997:2018  bytes(baseURI).length */\n      mload\n        /* \"UmiverseNFT.sol\":1997:2023  bytes(baseURI).length != 0 */\n      sub\n        /* \"UmiverseNFT.sol\":1997:2084  bytes(baseURI).length != 0 ? string(abi.encodePacked(baseURI, _toString(tokenId))) : '' */\n      tag_262\n      jumpi\n      mload(0x40)\n      dup1\n      0x20\n      add\n      0x40\n      mstore\n      dup1\n      0x00\n      dup2\n      mstore\n      pop\n      jump(tag_263)\n    tag_262:\n        /* \"UmiverseNFT.sol\":2050:2057  baseURI */\n      dup1\n        /* \"UmiverseNFT.sol\":2059:2077  _toString(tokenId) */\n      tag_264\n        /* \"UmiverseNFT.sol\":2069:2076  tokenId */\n      dup5\n        /* \"UmiverseNFT.sol\":2059:2068  _toString */\n      tag_265\n        /* \"UmiverseNFT.sol\":2059:2077  _toString(tokenId) */\n      jump\t// in\n    tag_264:\n        /* \"UmiverseNFT.sol\":2033:2078  abi.encodePacked(baseURI, _toString(tokenId)) */\n      add(0x20, mload(0x40))\n      tag_266\n      swap3\n      swap2\n      swap1\n      tag_267\n      jump\t// in\n    tag_266:\n      mload(0x40)\n      0x20\n      dup2\n      dup4\n      sub\n      sub\n      dup2\n      mstore\n      swap1\n      0x40\n      mstore\n        /* \"UmiverseNFT.sol\":1997:2084  bytes(baseURI).length != 0 ? string(abi.encodePacked(baseURI, _toString(tokenId))) : '' */\n    tag_263:\n        /* \"UmiverseNFT.sol\":1990:2084  return bytes(baseURI).length != 0 ? string(abi.encodePacked(baseURI, _toString(tokenId))) : '' */\n      swap2\n      pop\n      pop\n        /* \"UmiverseNFT.sol\":1778:2091  function tokenURI(uint256 tokenId) public view virtual override returns (string memory) {... */\n      swap2\n      swap1\n      pop\n      jump\t// out\n        /* \"UmiverseNFT.sol\":2097:2179  function redeem(uint256 tokenId) external onlyOwner{... */\n    tag_138:\n        /* \"@openzeppelin/contracts/access/Ownable.sol\":1094:1107  _checkOwner() */\n      tag_269\n        /* \"@openzeppelin/contracts/access/Ownable.sol\":1094:1105  _checkOwner */\n      tag_207\n        /* \"@openzeppelin/contracts/access/Ownable.sol\":1094:1107  _checkOwner() */\n      jump\t// in\n    tag_269:\n        /* \"UmiverseNFT.sol\":2158:2172  _burn(tokenId) */\n      tag_271\n        /* \"UmiverseNFT.sol\":2164:2171  tokenId */\n      dup2\n        /* \"UmiverseNFT.sol\":2158:2163  _burn */\n      tag_272\n        /* \"UmiverseNFT.sol\":2158:2172  _burn(tokenId) */\n      jump\t// in\n    tag_271:\n        /* \"UmiverseNFT.sol\":2097:2179  function redeem(uint256 tokenId) external onlyOwner{... */\n      pop\n      jump\t// out\n        /* \"erc721a/contracts/ERC721A.sol\":17282:17444  function isApprovedForAll(address owner, address operator) public view virtual override returns (bool) {... */\n    tag_143:\n        /* \"erc721a/contracts/ERC721A.sol\":17379:17383  bool */\n      0x00\n        /* \"erc721a/contracts/ERC721A.sol\":17402:17420  _operatorApprovals */\n      0x08\n        /* \"erc721a/contracts/ERC721A.sol\":17402:17427  _operatorApprovals[owner] */\n      0x00\n        /* \"erc721a/contracts/ERC721A.sol\":17421:17426  owner */\n      dup5\n        /* \"erc721a/contracts/ERC721A.sol\":17402:17427  _operatorApprovals[owner] */\n      0xffffffffffffffffffffffffffffffffffffffff\n      and\n      0xffffffffffffffffffffffffffffffffffffffff\n      and\n      dup2\n      mstore\n      0x20\n      add\n      swap1\n      dup2\n      mstore\n      0x20\n      add\n      0x00\n      keccak256\n        /* \"erc721a/contracts/ERC721A.sol\":17402:17437  _operatorApprovals[owner][operator] */\n      0x00\n        /* \"erc721a/contracts/ERC721A.sol\":17428:17436  operator */\n      dup4\n        /* \"erc721a/contracts/ERC721A.sol\":17402:17437  _operatorApprovals[owner][operator] */\n      0xffffffffffffffffffffffffffffffffffffffff\n      and\n      0xffffffffffffffffffffffffffffffffffffffff\n      and\n      dup2\n      mstore\n      0x20\n      add\n      swap1\n      dup2\n      mstore\n      0x20\n      add\n      0x00\n      keccak256\n      0x00\n      swap1\n      sload\n      swap1\n      0x0100\n      exp\n      swap1\n      div\n      0xff\n      and\n        /* \"erc721a/contracts/ERC721A.sol\":17395:17437  return _operatorApprovals[owner][operator] */\n      swap1\n      pop\n        /* \"erc721a/contracts/ERC721A.sol\":17282:17444  function isApprovedForAll(address owner, address operator) public view virtual override returns (bool) {... */\n      swap3\n      swap2\n      pop\n      pop\n      jump\t// out\n        /* \"@openzeppelin/contracts/access/Ownable.sol\":2081:2279  function transferOwnership(address newOwner) public virtual onlyOwner {... */\n    tag_148:\n        /* \"@openzeppelin/contracts/access/Ownable.sol\":1094:1107  _checkOwner() */\n      tag_275\n        /* \"@openzeppelin/contracts/access/Ownable.sol\":1094:1105  _checkOwner */\n      tag_207\n        /* \"@openzeppelin/contracts/access/Ownable.sol\":1094:1107  _checkOwner() */\n      jump\t// in\n    tag_275:\n        /* \"@openzeppelin/contracts/access/Ownable.sol\":2189:2190  0 */\n      0x00\n        /* \"@openzeppelin/contracts/access/Ownable.sol\":2169:2191  newOwner != address(0) */\n      0xffffffffffffffffffffffffffffffffffffffff\n      and\n        /* \"@openzeppelin/contracts/access/Ownable.sol\":2169:2177  newOwner */\n      dup2\n        /* \"@openzeppelin/contracts/access/Ownable.sol\":2169:2191  newOwner != address(0) */\n      0xffffffffffffffffffffffffffffffffffffffff\n      and\n      sub\n        /* \"@openzeppelin/contracts/access/Ownable.sol\":2161:2234  require(newOwner != address(0), \"Ownable: new owner is the zero address\") */\n      tag_277\n      jumpi\n      mload(0x40)\n      0x08c379a000000000000000000000000000000000000000000000000000000000\n      dup2\n      mstore\n      0x04\n      add\n      tag_278\n      swap1\n      tag_279\n      jump\t// in\n    tag_278:\n      mload(0x40)\n      dup1\n      swap2\n      sub\n      swap1\n      revert\n    tag_277:\n        /* \"@openzeppelin/contracts/access/Ownable.sol\":2244:2272  _transferOwnership(newOwner) */\n      tag_280\n        /* \"@openzeppelin/contracts/access/Ownable.sol\":2263:2271  newOwner */\n      dup2\n        /* \"@openzeppelin/contracts/access/Ownable.sol\":2244:2262  _transferOwnership */\n      tag_219\n        /* \"@openzeppelin/contracts/access/Ownable.sol\":2244:2272  _transferOwnership(newOwner) */\n      jump\t// in\n    tag_280:\n        /* \"@openzeppelin/contracts/access/Ownable.sol\":2081:2279  function transferOwnership(address newOwner) public virtual onlyOwner {... */\n      pop\n      jump\t// out\n        /* \"erc721a/contracts/ERC721A.sol\":17693:17970  function _exists(uint256 tokenId) internal view virtual returns (bool) {... */\n    tag_161:\n        /* \"erc721a/contracts/ERC721A.sol\":17758:17762  bool */\n      0x00\n        /* \"erc721a/contracts/ERC721A.sol\":17812:17819  tokenId */\n      dup2\n        /* \"erc721a/contracts/ERC721A.sol\":17793:17808  _startTokenId() */\n      tag_282\n        /* \"erc721a/contracts/ERC721A.sol\":17793:17806  _startTokenId */\n      tag_176\n        /* \"erc721a/contracts/ERC721A.sol\":17793:17808  _startTokenId() */\n      jump\t// in\n    tag_282:\n        /* \"erc721a/contracts/ERC721A.sol\":17793:17819  _startTokenId() <= tokenId */\n      gt\n      iszero\n        /* \"erc721a/contracts/ERC721A.sol\":17793:17858  _startTokenId() <= tokenId &&... */\n      dup1\n      iszero\n      tag_283\n      jumpi\n      pop\n        /* \"erc721a/contracts/ERC721A.sol\":17845:17858  _currentIndex */\n      sload(0x01)\n        /* \"erc721a/contracts/ERC721A.sol\":17835:17842  tokenId */\n      dup3\n        /* \"erc721a/contracts/ERC721A.sol\":17835:17858  tokenId < _currentIndex */\n      lt\n        /* \"erc721a/contracts/ERC721A.sol\":17793:17858  _startTokenId() <= tokenId &&... */\n    tag_283:\n        /* \"erc721a/contracts/ERC721A.sol\":17793:17944  _startTokenId() <= tokenId &&... */\n      dup1\n      iszero\n      tag_284\n      jumpi\n      pop\n        /* \"erc721a/contracts/ERC721A.sol\":17943:17944  0 */\n      0x00\n        /* \"erc721a/contracts/ERC721A.sol\":2118:2126  1 << 224 */\n      0x0100000000000000000000000000000000000000000000000000000000\n        /* \"erc721a/contracts/ERC721A.sol\":17895:17912  _packedOwnerships */\n      0x05\n        /* \"erc721a/contracts/ERC721A.sol\":17895:17921  _packedOwnerships[tokenId] */\n      0x00\n        /* \"erc721a/contracts/ERC721A.sol\":17913:17920  tokenId */\n      dup6\n        /* \"erc721a/contracts/ERC721A.sol\":17895:17921  _packedOwnerships[tokenId] */\n      dup2\n      mstore\n      0x20\n      add\n      swap1\n      dup2\n      mstore\n      0x20\n      add\n      0x00\n      keccak256\n      sload\n        /* \"erc721a/contracts/ERC721A.sol\":17895:17939  _packedOwnerships[tokenId] & _BITMASK_BURNED */\n      and\n        /* \"erc721a/contracts/ERC721A.sol\":17895:17944  _packedOwnerships[tokenId] & _BITMASK_BURNED == 0 */\n      eq\n        /* \"erc721a/contracts/ERC721A.sol\":17793:17944  _startTokenId() <= tokenId &&... */\n    tag_284:\n        /* \"erc721a/contracts/ERC721A.sol\":17774:17944  return... */\n      swap1\n      pop\n        /* \"erc721a/contracts/ERC721A.sol\":17693:17970  function _exists(uint256 tokenId) internal view virtual returns (bool) {... */\n      swap2\n      swap1\n      pop\n      jump\t// out\n        /* \"erc721a/contracts/ERC721A.sol\":39437:39540  function _msgSenderERC721A() internal view virtual returns (address) {... */\n    tag_166:\n        /* \"erc721a/contracts/ERC721A.sol\":39497:39504  address */\n      0x00\n        /* \"erc721a/contracts/ERC721A.sol\":39523:39533  msg.sender */\n      caller\n        /* \"erc721a/contracts/ERC721A.sol\":39516:39533  return msg.sender */\n      swap1\n      pop\n        /* \"erc721a/contracts/ERC721A.sol\":39437:39540  function _msgSenderERC721A() internal view virtual returns (address) {... */\n      swap1\n      jump\t// out\n        /* \"erc721a/contracts/ERC721A.sol\":5590:5691  function _nextTokenId() internal view virtual returns (uint256) {... */\n    tag_173:\n        /* \"erc721a/contracts/ERC721A.sol\":5645:5652  uint256 */\n      0x00\n        /* \"erc721a/contracts/ERC721A.sol\":5671:5684  _currentIndex */\n      sload(0x01)\n        /* \"erc721a/contracts/ERC721A.sol\":5664:5684  return _currentIndex */\n      swap1\n      pop\n        /* \"erc721a/contracts/ERC721A.sol\":5590:5691  function _nextTokenId() internal view virtual returns (uint256) {... */\n      swap1\n      jump\t// out\n        /* \"erc721a/contracts/ERC721A.sol\":5426:5516  function _startTokenId() internal view virtual returns (uint256) {... */\n    tag_176:\n        /* \"erc721a/contracts/ERC721A.sol\":5482:5489  uint256 */\n      0x00\n        /* \"erc721a/contracts/ERC721A.sol\":5426:5516  function _startTokenId() internal view virtual returns (uint256) {... */\n      swap1\n      jump\t// out\n        /* \"erc721a/contracts/ERC721A.sol\":12515:13764  function _packedOwnershipOf(uint256 tokenId) private view returns (uint256) {... */\n    tag_179:\n        /* \"erc721a/contracts/ERC721A.sol\":12582:12589  uint256 */\n      0x00\n        /* \"erc721a/contracts/ERC721A.sol\":12601:12613  uint256 curr */\n      dup1\n        /* \"erc721a/contracts/ERC721A.sol\":12616:12623  tokenId */\n      dup3\n        /* \"erc721a/contracts/ERC721A.sol\":12601:12623  uint256 curr = tokenId */\n      swap1\n      pop\n        /* \"erc721a/contracts/ERC721A.sol\":12681:12685  curr */\n      dup1\n        /* \"erc721a/contracts/ERC721A.sol\":12662:12677  _startTokenId() */\n      tag_289\n        /* \"erc721a/contracts/ERC721A.sol\":12662:12675  _startTokenId */\n      tag_176\n        /* \"erc721a/contracts/ERC721A.sol\":12662:12677  _startTokenId() */\n      jump\t// in\n    tag_289:\n        /* \"erc721a/contracts/ERC721A.sol\":12662:12685  _startTokenId() <= curr */\n      gt\n        /* \"erc721a/contracts/ERC721A.sol\":12658:13700  if (_startTokenId() <= curr)... */\n      tag_290\n      jumpi\n        /* \"erc721a/contracts/ERC721A.sol\":12714:12727  _currentIndex */\n      sload(0x01)\n        /* \"erc721a/contracts/ERC721A.sol\":12707:12711  curr */\n      dup2\n        /* \"erc721a/contracts/ERC721A.sol\":12707:12727  curr < _currentIndex */\n      lt\n        /* \"erc721a/contracts/ERC721A.sol\":12703:13700  if (curr < _currentIndex) {... */\n      iszero\n      tag_291\n      jumpi\n        /* \"erc721a/contracts/ERC721A.sol\":12751:12765  uint256 packed */\n      0x00\n        /* \"erc721a/contracts/ERC721A.sol\":12768:12785  _packedOwnerships */\n      0x05\n        /* \"erc721a/contracts/ERC721A.sol\":12768:12791  _packedOwnerships[curr] */\n      0x00\n        /* \"erc721a/contracts/ERC721A.sol\":12786:12790  curr */\n      dup4\n        /* \"erc721a/contracts/ERC721A.sol\":12768:12791  _packedOwnerships[curr] */\n      dup2\n      mstore\n      0x20\n      add\n      swap1\n      dup2\n      mstore\n      0x20\n      add\n      0x00\n      keccak256\n      sload\n        /* \"erc721a/contracts/ERC721A.sol\":12751:12791  uint256 packed = _packedOwnerships[curr] */\n      swap1\n      pop\n        /* \"erc721a/contracts/ERC721A.sol\":12883:12884  0 */\n      0x00\n        /* \"erc721a/contracts/ERC721A.sol\":2118:2126  1 << 224 */\n      0x0100000000000000000000000000000000000000000000000000000000\n        /* \"erc721a/contracts/ERC721A.sol\":12855:12861  packed */\n      dup3\n        /* \"erc721a/contracts/ERC721A.sol\":12855:12879  packed & _BITMASK_BURNED */\n      and\n        /* \"erc721a/contracts/ERC721A.sol\":12855:12884  packed & _BITMASK_BURNED == 0 */\n      sub\n        /* \"erc721a/contracts/ERC721A.sol\":12851:13682  if (packed & _BITMASK_BURNED == 0) {... */\n      tag_292\n      jumpi\n        /* \"erc721a/contracts/ERC721A.sol\":13510:13621  while (packed == 0) {... */\n    tag_293:\n        /* \"erc721a/contracts/ERC721A.sol\":13527:13528  0 */\n      0x00\n        /* \"erc721a/contracts/ERC721A.sol\":13517:13523  packed */\n      dup2\n        /* \"erc721a/contracts/ERC721A.sol\":13517:13528  packed == 0 */\n      sub\n        /* \"erc721a/contracts/ERC721A.sol\":13510:13621  while (packed == 0) {... */\n      tag_294\n      jumpi\n        /* \"erc721a/contracts/ERC721A.sol\":13569:13586  _packedOwnerships */\n      0x05\n        /* \"erc721a/contracts/ERC721A.sol\":13569:13594  _packedOwnerships[--curr] */\n      0x00\n        /* \"erc721a/contracts/ERC721A.sol\":13587:13593  --curr */\n      dup4\n      0x01\n      swap1\n      sub\n      swap4\n      pop\n      dup4\n        /* \"erc721a/contracts/ERC721A.sol\":13569:13594  _packedOwnerships[--curr] */\n      dup2\n      mstore\n      0x20\n      add\n      swap1\n      dup2\n      mstore\n      0x20\n      add\n      0x00\n      keccak256\n      sload\n        /* \"erc721a/contracts/ERC721A.sol\":13560:13594  packed = _packedOwnerships[--curr] */\n      swap1\n      pop\n        /* \"erc721a/contracts/ERC721A.sol\":13510:13621  while (packed == 0) {... */\n      jump(tag_293)\n    tag_294:\n        /* \"erc721a/contracts/ERC721A.sol\":13653:13659  packed */\n      dup1\n        /* \"erc721a/contracts/ERC721A.sol\":13646:13659  return packed */\n      swap3\n      pop\n      pop\n      pop\n      jump(tag_288)\n        /* \"erc721a/contracts/ERC721A.sol\":12851:13682  if (packed & _BITMASK_BURNED == 0) {... */\n    tag_292:\n        /* \"erc721a/contracts/ERC721A.sol\":12729:13700  {... */\n      pop\n        /* \"erc721a/contracts/ERC721A.sol\":12703:13700  if (curr < _currentIndex) {... */\n    tag_291:\n        /* \"erc721a/contracts/ERC721A.sol\":12658:13700  if (_startTokenId() <= curr)... */\n    tag_290:\n        /* \"erc721a/contracts/ERC721A.sol\":13726:13757  OwnerQueryForNonexistentToken() */\n      mload(0x40)\n      0xdf2d9b4200000000000000000000000000000000000000000000000000000000\n      dup2\n      mstore\n      0x04\n      add\n      mload(0x40)\n      dup1\n      swap2\n      sub\n      swap1\n      revert\n        /* \"erc721a/contracts/ERC721A.sol\":12515:13764  function _packedOwnershipOf(uint256 tokenId) private view returns (uint256) {... */\n    tag_288:\n      swap2\n      swap1\n      pop\n      jump\t// out\n        /* \"erc721a/contracts/ERC721A.sol\":18828:19302  function _getApprovedSlotAndAddress(uint256 tokenId)... */\n    tag_182:\n        /* \"erc721a/contracts/ERC721A.sol\":18927:18954  uint256 approvedAddressSlot */\n      0x00\n        /* \"erc721a/contracts/ERC721A.sol\":18956:18979  address approvedAddress */\n      dup1\n        /* \"erc721a/contracts/ERC721A.sol\":18995:19033  TokenApprovalRef storage tokenApproval */\n      0x00\n        /* \"erc721a/contracts/ERC721A.sol\":19036:19051  _tokenApprovals */\n      0x07\n        /* \"erc721a/contracts/ERC721A.sol\":19036:19060  _tokenApprovals[tokenId] */\n      0x00\n        /* \"erc721a/contracts/ERC721A.sol\":19052:19059  tokenId */\n      dup6\n        /* \"erc721a/contracts/ERC721A.sol\":19036:19060  _tokenApprovals[tokenId] */\n      dup2\n      mstore\n      0x20\n      add\n      swap1\n      dup2\n      mstore\n      0x20\n      add\n      0x00\n      keccak256\n        /* \"erc721a/contracts/ERC721A.sol\":18995:19060  TokenApprovalRef storage tokenApproval = _tokenApprovals[tokenId] */\n      swap1\n      pop\n        /* \"erc721a/contracts/ERC721A.sol\":19210:19228  tokenApproval.slot */\n      dup1\n        /* \"erc721a/contracts/ERC721A.sol\":19187:19228  approvedAddressSlot := tokenApproval.slot */\n      swap3\n      pop\n        /* \"erc721a/contracts/ERC721A.sol\":19266:19285  approvedAddressSlot */\n      dup3\n        /* \"erc721a/contracts/ERC721A.sol\":19260:19286  sload(approvedAddressSlot) */\n      sload\n        /* \"erc721a/contracts/ERC721A.sol\":19241:19286  approvedAddress := sload(approvedAddressSlot) */\n      swap2\n      pop\n        /* \"erc721a/contracts/ERC721A.sol\":19173:19296  {... */\n      pop\n        /* \"erc721a/contracts/ERC721A.sol\":18828:19302  function _getApprovedSlotAndAddress(uint256 tokenId)... */\n      swap2\n      pop\n      swap2\n      jump\t// out\n        /* \"erc721a/contracts/ERC721A.sol\":18074:18720  function _isSenderApprovedOrOwner(... */\n    tag_185:\n        /* \"erc721a/contracts/ERC721A.sol\":18219:18230  bool result */\n      0x00\n        /* \"erc721a/contracts/ERC721A.sol\":18381:18397  _BITMASK_ADDRESS */\n      0xffffffffffffffffffffffffffffffffffffffff\n        /* \"erc721a/contracts/ERC721A.sol\":18374:18379  owner */\n      dup4\n        /* \"erc721a/contracts/ERC721A.sol\":18370:18398  and(owner, _BITMASK_ADDRESS) */\n      and\n        /* \"erc721a/contracts/ERC721A.sol\":18361:18398  owner := and(owner, _BITMASK_ADDRESS) */\n      swap3\n      pop\n        /* \"erc721a/contracts/ERC721A.sol\":18539:18555  _BITMASK_ADDRESS */\n      0xffffffffffffffffffffffffffffffffffffffff\n        /* \"erc721a/contracts/ERC721A.sol\":18528:18537  msgSender */\n      dup3\n        /* \"erc721a/contracts/ERC721A.sol\":18524:18556  and(msgSender, _BITMASK_ADDRESS) */\n      and\n        /* \"erc721a/contracts/ERC721A.sol\":18511:18556  msgSender := and(msgSender, _BITMASK_ADDRESS) */\n      swap2\n      pop\n        /* \"erc721a/contracts/ERC721A.sol\":18687:18702  approvedAddress */\n      dup4\n        /* \"erc721a/contracts/ERC721A.sol\":18676:18685  msgSender */\n      dup3\n        /* \"erc721a/contracts/ERC721A.sol\":18673:18703  eq(msgSender, approvedAddress) */\n      eq\n        /* \"erc721a/contracts/ERC721A.sol\":18665:18670  owner */\n      dup4\n        /* \"erc721a/contracts/ERC721A.sol\":18654:18663  msgSender */\n      dup4\n        /* \"erc721a/contracts/ERC721A.sol\":18651:18671  eq(msgSender, owner) */\n      eq\n        /* \"erc721a/contracts/ERC721A.sol\":18648:18704  or(eq(msgSender, owner), eq(msgSender, approvedAddress)) */\n      or\n        /* \"erc721a/contracts/ERC721A.sol\":18638:18704  result := or(eq(msgSender, owner), eq(msgSender, approvedAddress)) */\n      swap1\n      pop\n        /* \"erc721a/contracts/ERC721A.sol\":18074:18720  function _isSenderApprovedOrOwner(... */\n      swap4\n      swap3\n      pop\n      pop\n      pop\n      jump\t// out\n        /* \"erc721a/contracts/ERC721A.sol\":24566:24720  function _beforeTokenTransfers(... */\n    tag_192:\n      pop\n      pop\n      pop\n      pop\n      jump\t// out\n        /* \"erc721a/contracts/ERC721A.sol\":38764:39068  function _nextExtraData(... */\n    tag_196:\n        /* \"erc721a/contracts/ERC721A.sol\":38895:38902  uint256 */\n      0x00\n        /* \"erc721a/contracts/ERC721A.sol\":38914:38930  uint24 extraData */\n      dup1\n        /* \"erc721a/contracts/ERC721A.sol\":2513:2516  232 */\n      0xe8\n        /* \"erc721a/contracts/ERC721A.sol\":38940:38959  prevOwnershipPacked */\n      dup4\n        /* \"erc721a/contracts/ERC721A.sol\":38940:38981  prevOwnershipPacked >> _BITPOS_EXTRA_DATA */\n      swap1\n      shr\n        /* \"erc721a/contracts/ERC721A.sol\":38914:38982  uint24 extraData = uint24(prevOwnershipPacked >> _BITPOS_EXTRA_DATA) */\n      swap1\n      pop\n        /* \"erc721a/contracts/ERC721A.sol\":2513:2516  232 */\n      0xe8\n        /* \"erc721a/contracts/ERC721A.sol\":39007:39038  _extraData(from, to, extraData) */\n      tag_299\n        /* \"erc721a/contracts/ERC721A.sol\":39018:39022  from */\n      dup7\n        /* \"erc721a/contracts/ERC721A.sol\":39024:39026  to */\n      dup7\n        /* \"erc721a/contracts/ERC721A.sol\":39028:39037  extraData */\n      dup5\n        /* \"erc721a/contracts/ERC721A.sol\":39007:39017  _extraData */\n      tag_300\n        /* \"erc721a/contracts/ERC721A.sol\":39007:39038  _extraData(from, to, extraData) */\n      jump\t// in\n    tag_299:\n        /* \"erc721a/contracts/ERC721A.sol\":38999:39039  uint256(_extraData(from, to, extraData)) */\n      0xffffff\n      and\n        /* \"erc721a/contracts/ERC721A.sol\":38999:39061  uint256(_extraData(from, to, extraData)) << _BITPOS_EXTRA_DATA */\n      swap1\n      shl\n        /* \"erc721a/contracts/ERC721A.sol\":38992:39061  return uint256(_extraData(from, to, extraData)) << _BITPOS_EXTRA_DATA */\n      swap2\n      pop\n      pop\n        /* \"erc721a/contracts/ERC721A.sol\":38764:39068  function _nextExtraData(... */\n      swap4\n      swap3\n      pop\n      pop\n      pop\n      jump\t// out\n        /* \"erc721a/contracts/ERC721A.sol\":14297:14740  function _packOwnershipData(address owner, uint256 flags) private view returns (uint256 result) {... */\n    tag_197:\n        /* \"erc721a/contracts/ERC721A.sol\":14377:14391  uint256 result */\n      0x00\n        /* \"erc721a/contracts/ERC721A.sol\":14542:14558  _BITMASK_ADDRESS */\n      0xffffffffffffffffffffffffffffffffffffffff\n        /* \"erc721a/contracts/ERC721A.sol\":14535:14540  owner */\n      dup4\n        /* \"erc721a/contracts/ERC721A.sol\":14531:14559  and(owner, _BITMASK_ADDRESS) */\n      and\n        /* \"erc721a/contracts/ERC721A.sol\":14522:14559  owner := and(owner, _BITMASK_ADDRESS) */\n      swap3\n      pop\n        /* \"erc721a/contracts/ERC721A.sol\":14717:14722  flags */\n      dup2\n        /* \"erc721a/contracts/ERC721A.sol\":14703:14714  timestamp() */\n      timestamp\n        /* \"erc721a/contracts/ERC721A.sol\":14678:14701  _BITPOS_START_TIMESTAMP */\n      0xa0\n        /* \"erc721a/contracts/ERC721A.sol\":14674:14715  shl(_BITPOS_START_TIMESTAMP, timestamp()) */\n      shl\n        /* \"erc721a/contracts/ERC721A.sol\":14671:14723  or(shl(_BITPOS_START_TIMESTAMP, timestamp()), flags) */\n      or\n        /* \"erc721a/contracts/ERC721A.sol\":14664:14669  owner */\n      dup4\n        /* \"erc721a/contracts/ERC721A.sol\":14661:14724  or(owner, or(shl(_BITPOS_START_TIMESTAMP, timestamp()), flags)) */\n      or\n        /* \"erc721a/contracts/ERC721A.sol\":14651:14724  result := or(owner, or(shl(_BITPOS_START_TIMESTAMP, timestamp()), flags)) */\n      swap1\n      pop\n        /* \"erc721a/contracts/ERC721A.sol\":14297:14740  function _packOwnershipData(address owner, uint256 flags) private view returns (uint256 result) {... */\n      swap3\n      swap2\n      pop\n      pop\n      jump\t// out\n        /* \"erc721a/contracts/ERC721A.sol\":25367:25520  function _afterTokenTransfers(... */\n    tag_202:\n      pop\n      pop\n      pop\n      pop\n      jump\t// out\n        /* \"@openzeppelin/contracts/access/Ownable.sol\":1359:1489  function _checkOwner() internal view virtual {... */\n    tag_207:\n        /* \"@openzeppelin/contracts/access/Ownable.sol\":1433:1445  _msgSender() */\n      tag_304\n        /* \"@openzeppelin/contracts/access/Ownable.sol\":1433:1443  _msgSender */\n      tag_305\n        /* \"@openzeppelin/contracts/access/Ownable.sol\":1433:1445  _msgSender() */\n      jump\t// in\n    tag_304:\n        /* \"@openzeppelin/contracts/access/Ownable.sol\":1422:1445  owner() == _msgSender() */\n      0xffffffffffffffffffffffffffffffffffffffff\n      and\n        /* \"@openzeppelin/contracts/access/Ownable.sol\":1422:1429  owner() */\n      tag_306\n        /* \"@openzeppelin/contracts/access/Ownable.sol\":1422:1427  owner */\n      tag_96\n        /* \"@openzeppelin/contracts/access/Ownable.sol\":1422:1429  owner() */\n      jump\t// in\n    tag_306:\n        /* \"@openzeppelin/contracts/access/Ownable.sol\":1422:1445  owner() == _msgSender() */\n      0xffffffffffffffffffffffffffffffffffffffff\n      and\n      eq\n        /* \"@openzeppelin/contracts/access/Ownable.sol\":1414:1482  require(owner() == _msgSender(), \"Ownable: caller is not the owner\") */\n      tag_307\n      jumpi\n      mload(0x40)\n      0x08c379a000000000000000000000000000000000000000000000000000000000\n      dup2\n      mstore\n      0x04\n      add\n      tag_308\n      swap1\n      tag_309\n      jump\t// in\n    tag_308:\n      mload(0x40)\n      dup1\n      swap2\n      sub\n      swap1\n      revert\n    tag_307:\n        /* \"@openzeppelin/contracts/access/Ownable.sol\":1359:1489  function _checkOwner() internal view virtual {... */\n      jump\t// out\n        /* \"@openzeppelin/contracts/access/Ownable.sol\":2433:2620  function _transferOwnership(address newOwner) internal virtual {... */\n    tag_219:\n        /* \"@openzeppelin/contracts/access/Ownable.sol\":2506:2522  address oldOwner */\n      0x00\n        /* \"@openzeppelin/contracts/access/Ownable.sol\":2525:2531  _owner */\n      dup1\n      0x00\n      swap1\n      sload\n      swap1\n      0x0100\n      exp\n      swap1\n      div\n      0xffffffffffffffffffffffffffffffffffffffff\n      and\n        /* \"@openzeppelin/contracts/access/Ownable.sol\":2506:2531  address oldOwner = _owner */\n      swap1\n      pop\n        /* \"@openzeppelin/contracts/access/Ownable.sol\":2550:2558  newOwner */\n      dup2\n        /* \"@openzeppelin/contracts/access/Ownable.sol\":2541:2547  _owner */\n      0x00\n      dup1\n        /* \"@openzeppelin/contracts/access/Ownable.sol\":2541:2558  _owner = newOwner */\n      0x0100\n      exp\n      dup2\n      sload\n      dup2\n      0xffffffffffffffffffffffffffffffffffffffff\n      mul\n      not\n      and\n      swap1\n      dup4\n      0xffffffffffffffffffffffffffffffffffffffff\n      and\n      mul\n      or\n      swap1\n      sstore\n      pop\n        /* \"@openzeppelin/contracts/access/Ownable.sol\":2604:2612  newOwner */\n      dup2\n        /* \"@openzeppelin/contracts/access/Ownable.sol\":2573:2613  OwnershipTransferred(oldOwner, newOwner) */\n      0xffffffffffffffffffffffffffffffffffffffff\n      and\n        /* \"@openzeppelin/contracts/access/Ownable.sol\":2594:2602  oldOwner */\n      dup2\n        /* \"@openzeppelin/contracts/access/Ownable.sol\":2573:2613  OwnershipTransferred(oldOwner, newOwner) */\n      0xffffffffffffffffffffffffffffffffffffffff\n      and\n      0x8be0079c531659141344cd1fd0a4f28419497f9722a3daafe3b4186f6b6457e0\n      mload(0x40)\n      mload(0x40)\n      dup1\n      swap2\n      sub\n      swap1\n      log3\n        /* \"@openzeppelin/contracts/access/Ownable.sol\":2496:2620  {... */\n      pop\n        /* \"@openzeppelin/contracts/access/Ownable.sol\":2433:2620  function _transferOwnership(address newOwner) internal virtual {... */\n      pop\n      jump\t// out\n        /* \"erc721a/contracts/ERC721A.sol\":33423:33533  function _safeMint(address to, uint256 quantity) internal virtual {... */\n    tag_232:\n        /* \"erc721a/contracts/ERC721A.sol\":33499:33526  _safeMint(to, quantity, '') */\n      tag_312\n        /* \"erc721a/contracts/ERC721A.sol\":33509:33511  to */\n      dup3\n        /* \"erc721a/contracts/ERC721A.sol\":33513:33521  quantity */\n      dup3\n        /* \"erc721a/contracts/ERC721A.sol\":33499:33526  _safeMint(to, quantity, '') */\n      mload(0x40)\n      dup1\n      0x20\n      add\n      0x40\n      mstore\n      dup1\n      0x00\n      dup2\n      mstore\n      pop\n        /* \"erc721a/contracts/ERC721A.sol\":33499:33508  _safeMint */\n      tag_313\n        /* \"erc721a/contracts/ERC721A.sol\":33499:33526  _safeMint(to, quantity, '') */\n      jump\t// in\n    tag_312:\n        /* \"erc721a/contracts/ERC721A.sol\":33423:33533  function _safeMint(address to, uint256 quantity) internal virtual {... */\n      pop\n      pop\n      jump\t// out\n        /* \"erc721a/contracts/ERC721A.sol\":25948:26645  function _checkContractOnERC721Received(... */\n    tag_255:\n        /* \"erc721a/contracts/ERC721A.sol\":26106:26110  bool */\n      0x00\n        /* \"erc721a/contracts/ERC721A.sol\":26151:26153  to */\n      dup4\n        /* \"erc721a/contracts/ERC721A.sol\":26126:26171  ERC721A__IERC721Receiver(to).onERC721Received */\n      0xffffffffffffffffffffffffffffffffffffffff\n      and\n      0x150b7a02\n        /* \"erc721a/contracts/ERC721A.sol\":26172:26191  _msgSenderERC721A() */\n      tag_315\n        /* \"erc721a/contracts/ERC721A.sol\":26172:26189  _msgSenderERC721A */\n      tag_166\n        /* \"erc721a/contracts/ERC721A.sol\":26172:26191  _msgSenderERC721A() */\n      jump\t// in\n    tag_315:\n        /* \"erc721a/contracts/ERC721A.sol\":26193:26197  from */\n      dup8\n        /* \"erc721a/contracts/ERC721A.sol\":26199:26206  tokenId */\n      dup7\n        /* \"erc721a/contracts/ERC721A.sol\":26208:26213  _data */\n      dup7\n        /* \"erc721a/contracts/ERC721A.sol\":26126:26214  ERC721A__IERC721Receiver(to).onERC721Received(_msgSenderERC721A(), from, tokenId, _data) */\n      mload(0x40)\n      dup6\n      0xffffffff\n      and\n      0xe0\n      shl\n      dup2\n      mstore\n      0x04\n      add\n      tag_316\n      swap5\n      swap4\n      swap3\n      swap2\n      swap1\n      tag_317\n      jump\t// in\n    tag_316:\n      0x20\n      mload(0x40)\n      dup1\n      dup4\n      sub\n      dup2\n      0x00\n      dup8\n      gas\n      call\n      swap3\n      pop\n      pop\n      pop\n      dup1\n      iszero\n      tag_318\n      jumpi\n      pop\n      mload(0x40)\n      returndatasize\n      not(0x1f)\n      0x1f\n      dup3\n      add\n      and\n      dup3\n      add\n      dup1\n      0x40\n      mstore\n      pop\n      dup2\n      add\n      swap1\n      tag_319\n      swap2\n      swap1\n      tag_320\n      jump\t// in\n    tag_319:\n      0x01\n    tag_318:\n        /* \"erc721a/contracts/ERC721A.sol\":26122:26639  try ERC721A__IERC721Receiver(to).onERC721Received(_msgSenderERC721A(), from, tokenId, _data) returns (... */\n      tag_321\n      jumpi\n      returndatasize\n      dup1\n      0x00\n      dup2\n      eq\n      tag_326\n      jumpi\n      mload(0x40)\n      swap2\n      pop\n      and(add(returndatasize, 0x3f), not(0x1f))\n      dup3\n      add\n      0x40\n      mstore\n      returndatasize\n      dup3\n      mstore\n      returndatasize\n      0x00\n      0x20\n      dup5\n      add\n      returndatacopy\n      jump(tag_325)\n    tag_326:\n      0x60\n      swap2\n      pop\n    tag_325:\n      pop\n        /* \"erc721a/contracts/ERC721A.sol\":26421:26422  0 */\n      0x00\n        /* \"erc721a/contracts/ERC721A.sol\":26404:26410  reason */\n      dup2\n        /* \"erc721a/contracts/ERC721A.sol\":26404:26417  reason.length */\n      mload\n        /* \"erc721a/contracts/ERC721A.sol\":26404:26422  reason.length == 0 */\n      sub\n        /* \"erc721a/contracts/ERC721A.sol\":26400:26629  if (reason.length == 0) {... */\n      tag_327\n      jumpi\n        /* \"erc721a/contracts/ERC721A.sol\":26449:26489  TransferToNonERC721ReceiverImplementer() */\n      mload(0x40)\n      0xd1a57ed600000000000000000000000000000000000000000000000000000000\n      dup2\n      mstore\n      0x04\n      add\n      mload(0x40)\n      dup1\n      swap2\n      sub\n      swap1\n      revert\n        /* \"erc721a/contracts/ERC721A.sol\":26400:26629  if (reason.length == 0) {... */\n    tag_327:\n        /* \"erc721a/contracts/ERC721A.sol\":26589:26595  reason */\n      dup1\n        /* \"erc721a/contracts/ERC721A.sol\":26583:26596  mload(reason) */\n      mload\n        /* \"erc721a/contracts/ERC721A.sol\":26574:26580  reason */\n      dup2\n        /* \"erc721a/contracts/ERC721A.sol\":26570:26572  32 */\n      0x20\n        /* \"erc721a/contracts/ERC721A.sol\":26566:26581  add(32, reason) */\n      add\n        /* \"erc721a/contracts/ERC721A.sol\":26559:26597  revert(add(32, reason), mload(reason)) */\n      revert\n        /* \"erc721a/contracts/ERC721A.sol\":26122:26639  try ERC721A__IERC721Receiver(to).onERC721Received(_msgSenderERC721A(), from, tokenId, _data) returns (... */\n    tag_321:\n        /* \"erc721a/contracts/ERC721A.sol\":26292:26346  ERC721A__IERC721Receiver(to).onERC721Received.selector */\n      shl(0xe0, 0x150b7a02)\n        /* \"erc721a/contracts/ERC721A.sol\":26282:26346  retval == ERC721A__IERC721Receiver(to).onERC721Received.selector */\n      not(0xffffffffffffffffffffffffffffffffffffffffffffffffffffffff)\n      and\n        /* \"erc721a/contracts/ERC721A.sol\":26282:26288  retval */\n      dup2\n        /* \"erc721a/contracts/ERC721A.sol\":26282:26346  retval == ERC721A__IERC721Receiver(to).onERC721Received.selector */\n      not(0xffffffffffffffffffffffffffffffffffffffffffffffffffffffff)\n      and\n      eq\n        /* \"erc721a/contracts/ERC721A.sol\":26275:26346  return retval == ERC721A__IERC721Receiver(to).onERC721Received.selector */\n      swap2\n      pop\n      pop\n        /* \"erc721a/contracts/ERC721A.sol\":25948:26645  function _checkContractOnERC721Received(... */\n      swap5\n      swap4\n      pop\n      pop\n      pop\n      pop\n      jump\t// out\n        /* \"UmiverseNFT.sol\":1661:1772  function _baseURI() internal view virtual override returns(string memory) {... */\n    tag_261:\n        /* \"UmiverseNFT.sol\":1720:1733  string memory */\n      0x60\n        /* \"UmiverseNFT.sol\":1752:1765  _baseTokenURI */\n      0x09\n        /* \"UmiverseNFT.sol\":1745:1765  return _baseTokenURI */\n      dup1\n      sload\n      tag_331\n      swap1\n      tag_154\n      jump\t// in\n    tag_331:\n      dup1\n      0x1f\n      add\n      0x20\n      dup1\n      swap2\n      div\n      mul\n      0x20\n      add\n      mload(0x40)\n      swap1\n      dup2\n      add\n      0x40\n      mstore\n      dup1\n      swap3\n      swap2\n      swap1\n      dup2\n      dup2\n      mstore\n      0x20\n      add\n      dup3\n      dup1\n      sload\n      tag_332\n      swap1\n      tag_154\n      jump\t// in\n    tag_332:\n      dup1\n      iszero\n      tag_333\n      jumpi\n      dup1\n      0x1f\n      lt\n      tag_334\n      jumpi\n      0x0100\n      dup1\n      dup4\n      sload\n      div\n      mul\n      dup4\n      mstore\n      swap2\n      0x20\n      add\n      swap2\n      jump(tag_333)\n    tag_334:\n      dup3\n      add\n      swap2\n      swap1\n      0x00\n      mstore\n      keccak256(0x00, 0x20)\n      swap1\n    tag_335:\n      dup2\n      sload\n      dup2\n      mstore\n      swap1\n      0x01\n      add\n      swap1\n      0x20\n      add\n      dup1\n      dup4\n      gt\n      tag_335\n      jumpi\n      dup3\n      swap1\n      sub\n      0x1f\n      and\n      dup3\n      add\n      swap2\n    tag_333:\n      pop\n      pop\n      pop\n      pop\n      pop\n      swap1\n      pop\n        /* \"UmiverseNFT.sol\":1661:1772  function _baseURI() internal view virtual override returns(string memory) {... */\n      swap1\n      jump\t// out\n        /* \"erc721a/contracts/ERC721A.sol\":39637:41345  function _toString(uint256 value) internal pure virtual returns (string memory str) {... */\n    tag_265:\n        /* \"erc721a/contracts/ERC721A.sol\":39702:39719  string memory str */\n      0x60\n        /* \"erc721a/contracts/ERC721A.sol\":40130:40134  0xa0 */\n      0xa0\n        /* \"erc721a/contracts/ERC721A.sol\":40123:40127  0x40 */\n      0x40\n        /* \"erc721a/contracts/ERC721A.sol\":40117:40128  mload(0x40) */\n      mload\n        /* \"erc721a/contracts/ERC721A.sol\":40113:40135  add(mload(0x40), 0xa0) */\n      add\n        /* \"erc721a/contracts/ERC721A.sol\":40220:40221  m */\n      dup1\n        /* \"erc721a/contracts/ERC721A.sol\":40214:40218  0x40 */\n      0x40\n        /* \"erc721a/contracts/ERC721A.sol\":40207:40222  mstore(0x40, m) */\n      mstore\n        /* \"erc721a/contracts/ERC721A.sol\":40293:40297  0x20 */\n      0x20\n        /* \"erc721a/contracts/ERC721A.sol\":40290:40291  m */\n      dup2\n        /* \"erc721a/contracts/ERC721A.sol\":40286:40298  sub(m, 0x20) */\n      sub\n        /* \"erc721a/contracts/ERC721A.sol\":40279:40298  str := sub(m, 0x20) */\n      swap2\n      pop\n        /* \"erc721a/contracts/ERC721A.sol\":40373:40374  0 */\n      0x00\n        /* \"erc721a/contracts/ERC721A.sol\":40368:40371  str */\n      dup3\n        /* \"erc721a/contracts/ERC721A.sol\":40361:40375  mstore(str, 0) */\n      mstore\n        /* \"erc721a/contracts/ERC721A.sol\":40474:40477  str */\n      dup2\n        /* \"erc721a/contracts/ERC721A.sol\":40708:40713  value */\n      dup4\n        /* \"erc721a/contracts/ERC721A.sol\":40690:41109  for { let temp := value } 1 {} {... */\n    tag_337:\n        /* \"erc721a/contracts/ERC721A.sol\":40716:40717  1 */\n      0x01\n        /* \"erc721a/contracts/ERC721A.sol\":40690:41109  for { let temp := value } 1 {} {... */\n      iszero\n      tag_339\n      jumpi\n        /* \"erc721a/contracts/ERC721A.sol\":40755:40756  1 */\n      0x01\n        /* \"erc721a/contracts/ERC721A.sol\":40750:40753  str */\n      dup5\n        /* \"erc721a/contracts/ERC721A.sol\":40746:40757  sub(str, 1) */\n      sub\n        /* \"erc721a/contracts/ERC721A.sol\":40739:40757  str := sub(str, 1) */\n      swap4\n      pop\n        /* \"erc721a/contracts/ERC721A.sol\":40923:40925  10 */\n      0x0a\n        /* \"erc721a/contracts/ERC721A.sol\":40917:40921  temp */\n      dup2\n        /* \"erc721a/contracts/ERC721A.sol\":40913:40926  mod(temp, 10) */\n      mod\n        /* \"erc721a/contracts/ERC721A.sol\":40909:40911  48 */\n      0x30\n        /* \"erc721a/contracts/ERC721A.sol\":40905:40927  add(48, mod(temp, 10)) */\n      add\n        /* \"erc721a/contracts/ERC721A.sol\":40900:40903  str */\n      dup5\n        /* \"erc721a/contracts/ERC721A.sol\":40892:40928  mstore8(str, add(48, mod(temp, 10))) */\n      mstore8\n        /* \"erc721a/contracts/ERC721A.sol\":41015:41017  10 */\n      0x0a\n        /* \"erc721a/contracts/ERC721A.sol\":41009:41013  temp */\n      dup2\n        /* \"erc721a/contracts/ERC721A.sol\":41005:41018  div(temp, 10) */\n      div\n        /* \"erc721a/contracts/ERC721A.sol\":40997:41018  temp := div(temp, 10) */\n      swap1\n      pop\n        /* \"erc721a/contracts/ERC721A.sol\":41080:41084  temp */\n      dup1\n        /* \"erc721a/contracts/ERC721A.sol\":40690:41109  for { let temp := value } 1 {} {... */\n      tag_337\n        /* \"erc721a/contracts/ERC721A.sol\":41070:41095  if iszero(temp) { break } */\n      jumpi\n        /* \"erc721a/contracts/ERC721A.sol\":40690:41109  for { let temp := value } 1 {} {... */\n    tag_339:\n        /* \"erc721a/contracts/ERC721A.sol\":40694:40715  { let temp := value } */\n      pop\n        /* \"erc721a/contracts/ERC721A.sol\":41146:41149  str */\n      dup3\n        /* \"erc721a/contracts/ERC721A.sol\":41141:41144  end */\n      dup2\n        /* \"erc721a/contracts/ERC721A.sol\":41137:41150  sub(end, str) */\n      sub\n        /* \"erc721a/contracts/ERC721A.sol\":41259:41263  0x20 */\n      0x20\n        /* \"erc721a/contracts/ERC721A.sol\":41254:41257  str */\n      dup5\n        /* \"erc721a/contracts/ERC721A.sol\":41250:41264  sub(str, 0x20) */\n      sub\n        /* \"erc721a/contracts/ERC721A.sol\":41243:41264  str := sub(str, 0x20) */\n      swap4\n      pop\n        /* \"erc721a/contracts/ERC721A.sol\":41322:41328  length */\n      dup1\n        /* \"erc721a/contracts/ERC721A.sol\":41317:41320  str */\n      dup5\n        /* \"erc721a/contracts/ERC721A.sol\":41310:41329  mstore(str, length) */\n      mstore\n        /* \"erc721a/contracts/ERC721A.sol\":39740:41339  {... */\n      pop\n      pop\n      pop\n        /* \"erc721a/contracts/ERC721A.sol\":39637:41345  function _toString(uint256 value) internal pure virtual returns (string memory str) {... */\n      swap2\n      swap1\n      pop\n      jump\t// out\n        /* \"erc721a/contracts/ERC721A.sol\":33791:33878  function _burn(uint256 tokenId) internal virtual {... */\n    tag_272:\n        /* \"erc721a/contracts/ERC721A.sol\":33850:33871  _burn(tokenId, false) */\n      tag_342\n        /* \"erc721a/contracts/ERC721A.sol\":33856:33863  tokenId */\n      dup2\n        /* \"erc721a/contracts/ERC721A.sol\":33865:33870  false */\n      0x00\n        /* \"erc721a/contracts/ERC721A.sol\":33850:33855  _burn */\n      tag_343\n        /* \"erc721a/contracts/ERC721A.sol\":33850:33871  _burn(tokenId, false) */\n      jump\t// in\n    tag_342:\n        /* \"erc721a/contracts/ERC721A.sol\":33791:33878  function _burn(uint256 tokenId) internal virtual {... */\n      pop\n      jump\t// out\n        /* \"erc721a/contracts/ERC721A.sol\":38475:38618  function _extraData(... */\n    tag_300:\n        /* \"erc721a/contracts/ERC721A.sol\":38608:38614  uint24 */\n      0x00\n        /* \"erc721a/contracts/ERC721A.sol\":38475:38618  function _extraData(... */\n      swap4\n      swap3\n      pop\n      pop\n      pop\n      jump\t// out\n        /* \"@openzeppelin/contracts/utils/Context.sol\":640:736  function _msgSender() internal view virtual returns (address) {... */\n    tag_305:\n        /* \"@openzeppelin/contracts/utils/Context.sol\":693:700  address */\n      0x00\n        /* \"@openzeppelin/contracts/utils/Context.sol\":719:729  msg.sender */\n      caller\n        /* \"@openzeppelin/contracts/utils/Context.sol\":712:729  return msg.sender */\n      swap1\n      pop\n        /* \"@openzeppelin/contracts/utils/Context.sol\":640:736  function _msgSender() internal view virtual returns (address) {... */\n      swap1\n      jump\t// out\n        /* \"erc721a/contracts/ERC721A.sol\":32675:33344  function _safeMint(... */\n    tag_313:\n        /* \"erc721a/contracts/ERC721A.sol\":32801:32820  _mint(to, quantity) */\n      tag_347\n        /* \"erc721a/contracts/ERC721A.sol\":32807:32809  to */\n      dup4\n        /* \"erc721a/contracts/ERC721A.sol\":32811:32819  quantity */\n      dup4\n        /* \"erc721a/contracts/ERC721A.sol\":32801:32806  _mint */\n      tag_348\n        /* \"erc721a/contracts/ERC721A.sol\":32801:32820  _mint(to, quantity) */\n      jump\t// in\n    tag_347:\n        /* \"erc721a/contracts/ERC721A.sol\":32877:32878  0 */\n      0x00\n        /* \"erc721a/contracts/ERC721A.sol\":32859:32861  to */\n      dup4\n        /* \"erc721a/contracts/ERC721A.sol\":32859:32873  to.code.length */\n      0xffffffffffffffffffffffffffffffffffffffff\n      and\n      extcodesize\n        /* \"erc721a/contracts/ERC721A.sol\":32859:32878  to.code.length != 0 */\n      eq\n        /* \"erc721a/contracts/ERC721A.sol\":32855:33328  if (to.code.length != 0) {... */\n      tag_349\n      jumpi\n        /* \"erc721a/contracts/ERC721A.sol\":32898:32909  uint256 end */\n      0x00\n        /* \"erc721a/contracts/ERC721A.sol\":32912:32925  _currentIndex */\n      sload(0x01)\n        /* \"erc721a/contracts/ERC721A.sol\":32898:32925  uint256 end = _currentIndex */\n      swap1\n      pop\n        /* \"erc721a/contracts/ERC721A.sol\":32943:32956  uint256 index */\n      0x00\n        /* \"erc721a/contracts/ERC721A.sol\":32965:32973  quantity */\n      dup4\n        /* \"erc721a/contracts/ERC721A.sol\":32959:32962  end */\n      dup3\n        /* \"erc721a/contracts/ERC721A.sol\":32959:32973  end - quantity */\n      sub\n        /* \"erc721a/contracts/ERC721A.sol\":32943:32973  uint256 index = end - quantity */\n      swap1\n      pop\n        /* \"erc721a/contracts/ERC721A.sol\":32991:33220  do {... */\n    tag_350:\n        /* \"erc721a/contracts/ERC721A.sol\":33021:33083  _checkContractOnERC721Received(address(0), to, index++, _data) */\n      tag_353\n        /* \"erc721a/contracts/ERC721A.sol\":33060:33061  0 */\n      0x00\n        /* \"erc721a/contracts/ERC721A.sol\":33064:33066  to */\n      dup7\n        /* \"erc721a/contracts/ERC721A.sol\":33068:33075  index++ */\n      dup4\n      dup1\n      0x01\n      add\n      swap5\n      pop\n        /* \"erc721a/contracts/ERC721A.sol\":33077:33082  _data */\n      dup7\n        /* \"erc721a/contracts/ERC721A.sol\":33021:33051  _checkContractOnERC721Received */\n      tag_255\n        /* \"erc721a/contracts/ERC721A.sol\":33021:33083  _checkContractOnERC721Received(address(0), to, index++, _data) */\n      jump\t// in\n    tag_353:\n        /* \"erc721a/contracts/ERC721A.sol\":33016:33181  if (!_checkContractOnERC721Received(address(0), to, index++, _data)) {... */\n      tag_354\n      jumpi\n        /* \"erc721a/contracts/ERC721A.sol\":33118:33158  TransferToNonERC721ReceiverImplementer() */\n      mload(0x40)\n      0xd1a57ed600000000000000000000000000000000000000000000000000000000\n      dup2\n      mstore\n      0x04\n      add\n      mload(0x40)\n      dup1\n      swap2\n      sub\n      swap1\n      revert\n        /* \"erc721a/contracts/ERC721A.sol\":33016:33181  if (!_checkContractOnERC721Received(address(0), to, index++, _data)) {... */\n    tag_354:\n        /* \"erc721a/contracts/ERC721A.sol\":33215:33218  end */\n      dup2\n        /* \"erc721a/contracts/ERC721A.sol\":33207:33212  index */\n      dup2\n        /* \"erc721a/contracts/ERC721A.sol\":33207:33218  index < end */\n      lt\n        /* \"erc721a/contracts/ERC721A.sol\":32991:33220  do {... */\n      tag_350\n      jumpi\n        /* \"erc721a/contracts/ERC721A.sol\":33300:33303  end */\n      dup2\n        /* \"erc721a/contracts/ERC721A.sol\":33283:33296  _currentIndex */\n      sload(0x01)\n        /* \"erc721a/contracts/ERC721A.sol\":33283:33303  _currentIndex != end */\n      eq\n        /* \"erc721a/contracts/ERC721A.sol\":33279:33313  if (_currentIndex != end) revert() */\n      tag_355\n      jumpi\n        /* \"erc721a/contracts/ERC721A.sol\":33305:33313  revert() */\n      0x00\n      dup1\n      revert\n        /* \"erc721a/contracts/ERC721A.sol\":33279:33313  if (_currentIndex != end) revert() */\n    tag_355:\n        /* \"erc721a/contracts/ERC721A.sol\":32880:33328  {... */\n      pop\n      pop\n        /* \"erc721a/contracts/ERC721A.sol\":32855:33328  if (to.code.length != 0) {... */\n    tag_349:\n        /* \"erc721a/contracts/ERC721A.sol\":32675:33344  function _safeMint(... */\n      pop\n      pop\n      pop\n      jump\t// out\n        /* \"erc721a/contracts/ERC721A.sol\":34095:37110  function _burn(uint256 tokenId, bool approvalCheck) internal virtual {... */\n    tag_343:\n        /* \"erc721a/contracts/ERC721A.sol\":34174:34201  uint256 prevOwnershipPacked */\n      0x00\n        /* \"erc721a/contracts/ERC721A.sol\":34204:34231  _packedOwnershipOf(tokenId) */\n      tag_357\n        /* \"erc721a/contracts/ERC721A.sol\":34223:34230  tokenId */\n      dup4\n        /* \"erc721a/contracts/ERC721A.sol\":34204:34222  _packedOwnershipOf */\n      tag_179\n        /* \"erc721a/contracts/ERC721A.sol\":34204:34231  _packedOwnershipOf(tokenId) */\n      jump\t// in\n    tag_357:\n        /* \"erc721a/contracts/ERC721A.sol\":34174:34231  uint256 prevOwnershipPacked = _packedOwnershipOf(tokenId) */\n      swap1\n      pop\n        /* \"erc721a/contracts/ERC721A.sol\":34242:34254  address from */\n      0x00\n        /* \"erc721a/contracts/ERC721A.sol\":34273:34292  prevOwnershipPacked */\n      dup2\n        /* \"erc721a/contracts/ERC721A.sol\":34242:34294  address from = address(uint160(prevOwnershipPacked)) */\n      swap1\n      pop\n        /* \"erc721a/contracts/ERC721A.sol\":34306:34333  uint256 approvedAddressSlot */\n      0x00\n        /* \"erc721a/contracts/ERC721A.sol\":34335:34358  address approvedAddress */\n      dup1\n        /* \"erc721a/contracts/ERC721A.sol\":34362:34397  _getApprovedSlotAndAddress(tokenId) */\n      tag_358\n        /* \"erc721a/contracts/ERC721A.sol\":34389:34396  tokenId */\n      dup7\n        /* \"erc721a/contracts/ERC721A.sol\":34362:34388  _getApprovedSlotAndAddress */\n      tag_182\n        /* \"erc721a/contracts/ERC721A.sol\":34362:34397  _getApprovedSlotAndAddress(tokenId) */\n      jump\t// in\n    tag_358:\n        /* \"erc721a/contracts/ERC721A.sol\":34305:34397  (uint256 approvedAddressSlot, address approvedAddress) = _getApprovedSlotAndAddress(tokenId) */\n      swap2\n      pop\n      swap2\n      pop\n        /* \"erc721a/contracts/ERC721A.sol\":34412:34425  approvalCheck */\n      dup5\n        /* \"erc721a/contracts/ERC721A.sol\":34408:34720  if (approvalCheck) {... */\n      iszero\n      tag_359\n      jumpi\n        /* \"erc721a/contracts/ERC721A.sol\":34531:34599  _isSenderApprovedOrOwner(approvedAddress, from, _msgSenderERC721A()) */\n      tag_360\n        /* \"erc721a/contracts/ERC721A.sol\":34556:34571  approvedAddress */\n      dup2\n        /* \"erc721a/contracts/ERC721A.sol\":34573:34577  from */\n      dup5\n        /* \"erc721a/contracts/ERC721A.sol\":34579:34598  _msgSenderERC721A() */\n      tag_361\n        /* \"erc721a/contracts/ERC721A.sol\":34579:34596  _msgSenderERC721A */\n      tag_166\n        /* \"erc721a/contracts/ERC721A.sol\":34579:34598  _msgSenderERC721A() */\n      jump\t// in\n    tag_361:\n        /* \"erc721a/contracts/ERC721A.sol\":34531:34555  _isSenderApprovedOrOwner */\n      tag_185\n        /* \"erc721a/contracts/ERC721A.sol\":34531:34599  _isSenderApprovedOrOwner(approvedAddress, from, _msgSenderERC721A()) */\n      jump\t// in\n    tag_360:\n        /* \"erc721a/contracts/ERC721A.sol\":34526:34709  if (!_isSenderApprovedOrOwner(approvedAddress, from, _msgSenderERC721A()))... */\n      tag_362\n      jumpi\n        /* \"erc721a/contracts/ERC721A.sol\":34622:34665  isApprovedForAll(from, _msgSenderERC721A()) */\n      tag_363\n        /* \"erc721a/contracts/ERC721A.sol\":34639:34643  from */\n      dup4\n        /* \"erc721a/contracts/ERC721A.sol\":34645:34664  _msgSenderERC721A() */\n      tag_364\n        /* \"erc721a/contracts/ERC721A.sol\":34645:34662  _msgSenderERC721A */\n      tag_166\n        /* \"erc721a/contracts/ERC721A.sol\":34645:34664  _msgSenderERC721A() */\n      jump\t// in\n    tag_364:\n        /* \"erc721a/contracts/ERC721A.sol\":34622:34638  isApprovedForAll */\n      tag_143\n        /* \"erc721a/contracts/ERC721A.sol\":34622:34665  isApprovedForAll(from, _msgSenderERC721A()) */\n      jump\t// in\n    tag_363:\n        /* \"erc721a/contracts/ERC721A.sol\":34617:34709  if (!isApprovedForAll(from, _msgSenderERC721A())) revert TransferCallerNotOwnerNorApproved() */\n      tag_365\n      jumpi\n        /* \"erc721a/contracts/ERC721A.sol\":34674:34709  TransferCallerNotOwnerNorApproved() */\n      mload(0x40)\n      0x59c896be00000000000000000000000000000000000000000000000000000000\n      dup2\n      mstore\n      0x04\n      add\n      mload(0x40)\n      dup1\n      swap2\n      sub\n      swap1\n      revert\n        /* \"erc721a/contracts/ERC721A.sol\":34617:34709  if (!isApprovedForAll(from, _msgSenderERC721A())) revert TransferCallerNotOwnerNorApproved() */\n    tag_365:\n        /* \"erc721a/contracts/ERC721A.sol\":34526:34709  if (!_isSenderApprovedOrOwner(approvedAddress, from, _msgSenderERC721A()))... */\n    tag_362:\n        /* \"erc721a/contracts/ERC721A.sol\":34408:34720  if (approvalCheck) {... */\n    tag_359:\n        /* \"erc721a/contracts/ERC721A.sol\":34730:34781  _beforeTokenTransfers(from, address(0), tokenId, 1) */\n      tag_366\n        /* \"erc721a/contracts/ERC721A.sol\":34752:34756  from */\n      dup4\n        /* \"erc721a/contracts/ERC721A.sol\":34766:34767  0 */\n      0x00\n        /* \"erc721a/contracts/ERC721A.sol\":34770:34777  tokenId */\n      dup9\n        /* \"erc721a/contracts/ERC721A.sol\":34779:34780  1 */\n      0x01\n        /* \"erc721a/contracts/ERC721A.sol\":34730:34751  _beforeTokenTransfers */\n      tag_192\n        /* \"erc721a/contracts/ERC721A.sol\":34730:34781  _beforeTokenTransfers(from, address(0), tokenId, 1) */\n      jump\t// in\n    tag_366:\n        /* \"erc721a/contracts/ERC721A.sol\":34870:34885  approvedAddress */\n      dup1\n        /* \"erc721a/contracts/ERC721A.sol\":34867:35024  if approvedAddress {... */\n      iszero\n      tag_367\n      jumpi\n        /* \"erc721a/contracts/ERC721A.sol\":35008:35009  0 */\n      0x00\n        /* \"erc721a/contracts/ERC721A.sol\":34987:35006  approvedAddressSlot */\n      dup3\n        /* \"erc721a/contracts/ERC721A.sol\":34980:35010  sstore(approvedAddressSlot, 0) */\n      sstore\n        /* \"erc721a/contracts/ERC721A.sol\":34867:35024  if approvedAddress {... */\n    tag_367:\n        /* \"erc721a/contracts/ERC721A.sol\":35672:35673  1 */\n      0x01\n        /* \"erc721a/contracts/ERC721A.sol\":1619:1622  128 */\n      0x80\n        /* \"erc721a/contracts/ERC721A.sol\":35642:35643  1 */\n      0x01\n        /* \"erc721a/contracts/ERC721A.sol\":35642:35668  1 << _BITPOS_NUMBER_BURNED */\n      swap1\n      shl\n        /* \"erc721a/contracts/ERC721A.sol\":35641:35673  (1 << _BITPOS_NUMBER_BURNED) - 1 */\n      sub\n        /* \"erc721a/contracts/ERC721A.sol\":35613:35631  _packedAddressData */\n      0x06\n        /* \"erc721a/contracts/ERC721A.sol\":35613:35637  _packedAddressData[from] */\n      0x00\n        /* \"erc721a/contracts/ERC721A.sol\":35632:35636  from */\n      dup6\n        /* \"erc721a/contracts/ERC721A.sol\":35613:35637  _packedAddressData[from] */\n      0xffffffffffffffffffffffffffffffffffffffff\n      and\n      0xffffffffffffffffffffffffffffffffffffffff\n      and\n      dup2\n      mstore\n      0x20\n      add\n      swap1\n      dup2\n      mstore\n      0x20\n      add\n      0x00\n      keccak256\n      0x00\n        /* \"erc721a/contracts/ERC721A.sol\":35613:35673  _packedAddressData[from] += (1 << _BITPOS_NUMBER_BURNED) - 1 */\n      dup3\n      dup3\n      sload\n      add\n      swap3\n      pop\n      pop\n      dup2\n      swap1\n      sstore\n      pop\n        /* \"erc721a/contracts/ERC721A.sol\":35933:36106  _packOwnershipData(... */\n      tag_368\n        /* \"erc721a/contracts/ERC721A.sol\":35969:35973  from */\n      dup4\n        /* \"erc721a/contracts/ERC721A.sol\":36039:36092  _nextExtraData(from, address(0), prevOwnershipPacked) */\n      tag_369\n        /* \"erc721a/contracts/ERC721A.sol\":36054:36058  from */\n      dup6\n        /* \"erc721a/contracts/ERC721A.sol\":36068:36069  0 */\n      0x00\n        /* \"erc721a/contracts/ERC721A.sol\":36072:36091  prevOwnershipPacked */\n      dup9\n        /* \"erc721a/contracts/ERC721A.sol\":36039:36053  _nextExtraData */\n      tag_196\n        /* \"erc721a/contracts/ERC721A.sol\":36039:36092  _nextExtraData(from, address(0), prevOwnershipPacked) */\n      jump\t// in\n    tag_369:\n        /* \"erc721a/contracts/ERC721A.sol\":2392:2400  1 << 225 */\n      0x0200000000000000000000000000000000000000000000000000000000\n        /* \"erc721a/contracts/ERC721A.sol\":2118:2126  1 << 224 */\n      0x0100000000000000000000000000000000000000000000000000000000\n        /* \"erc721a/contracts/ERC721A.sol\":35992:36035  _BITMASK_BURNED | _BITMASK_NEXT_INITIALIZED */\n      or\n        /* \"erc721a/contracts/ERC721A.sol\":35991:36092  (_BITMASK_BURNED | _BITMASK_NEXT_INITIALIZED) | _nextExtraData(from, address(0), prevOwnershipPacked) */\n      or\n        /* \"erc721a/contracts/ERC721A.sol\":35933:35951  _packOwnershipData */\n      tag_197\n        /* \"erc721a/contracts/ERC721A.sol\":35933:36106  _packOwnershipData(... */\n      jump\t// in\n    tag_368:\n        /* \"erc721a/contracts/ERC721A.sol\":35904:35921  _packedOwnerships */\n      0x05\n        /* \"erc721a/contracts/ERC721A.sol\":35904:35930  _packedOwnerships[tokenId] */\n      0x00\n        /* \"erc721a/contracts/ERC721A.sol\":35922:35929  tokenId */\n      dup9\n        /* \"erc721a/contracts/ERC721A.sol\":35904:35930  _packedOwnerships[tokenId] */\n      dup2\n      mstore\n      0x20\n      add\n      swap1\n      dup2\n      mstore\n      0x20\n      add\n      0x00\n      keccak256\n        /* \"erc721a/contracts/ERC721A.sol\":35904:36106  _packedOwnerships[tokenId] = _packOwnershipData(... */\n      dup2\n      swap1\n      sstore\n      pop\n        /* \"erc721a/contracts/ERC721A.sol\":36274:36275  0 */\n      0x00\n        /* \"erc721a/contracts/ERC721A.sol\":2392:2400  1 << 225 */\n      0x0200000000000000000000000000000000000000000000000000000000\n        /* \"erc721a/contracts/ERC721A.sol\":36223:36242  prevOwnershipPacked */\n      dup6\n        /* \"erc721a/contracts/ERC721A.sol\":36223:36270  prevOwnershipPacked & _BITMASK_NEXT_INITIALIZED */\n      and\n        /* \"erc721a/contracts/ERC721A.sol\":36223:36275  prevOwnershipPacked & _BITMASK_NEXT_INITIALIZED == 0 */\n      sub\n        /* \"erc721a/contracts/ERC721A.sol\":36219:36836  if (prevOwnershipPacked & _BITMASK_NEXT_INITIALIZED == 0) {... */\n      tag_370\n      jumpi\n        /* \"erc721a/contracts/ERC721A.sol\":36295:36314  uint256 nextTokenId */\n      0x00\n        /* \"erc721a/contracts/ERC721A.sol\":36327:36328  1 */\n      0x01\n        /* \"erc721a/contracts/ERC721A.sol\":36317:36324  tokenId */\n      dup8\n        /* \"erc721a/contracts/ERC721A.sol\":36317:36328  tokenId + 1 */\n      add\n        /* \"erc721a/contracts/ERC721A.sol\":36295:36328  uint256 nextTokenId = tokenId + 1 */\n      swap1\n      pop\n        /* \"erc721a/contracts/ERC721A.sol\":36482:36483  0 */\n      0x00\n        /* \"erc721a/contracts/ERC721A.sol\":36448:36465  _packedOwnerships */\n      0x05\n        /* \"erc721a/contracts/ERC721A.sol\":36448:36478  _packedOwnerships[nextTokenId] */\n      0x00\n        /* \"erc721a/contracts/ERC721A.sol\":36466:36477  nextTokenId */\n      dup4\n        /* \"erc721a/contracts/ERC721A.sol\":36448:36478  _packedOwnerships[nextTokenId] */\n      dup2\n      mstore\n      0x20\n      add\n      swap1\n      dup2\n      mstore\n      0x20\n      add\n      0x00\n      keccak256\n      sload\n        /* \"erc721a/contracts/ERC721A.sol\":36448:36483  _packedOwnerships[nextTokenId] == 0 */\n      sub\n        /* \"erc721a/contracts/ERC721A.sol\":36444:36822  if (_packedOwnerships[nextTokenId] == 0) {... */\n      tag_371\n      jumpi\n        /* \"erc721a/contracts/ERC721A.sol\":36584:36597  _currentIndex */\n      sload(0x01)\n        /* \"erc721a/contracts/ERC721A.sol\":36569:36580  nextTokenId */\n      dup2\n        /* \"erc721a/contracts/ERC721A.sol\":36569:36597  nextTokenId != _currentIndex */\n      eq\n        /* \"erc721a/contracts/ERC721A.sol\":36565:36804  if (nextTokenId != _currentIndex) {... */\n      tag_372\n      jumpi\n        /* \"erc721a/contracts/ERC721A.sol\":36762:36781  prevOwnershipPacked */\n      dup5\n        /* \"erc721a/contracts/ERC721A.sol\":36729:36746  _packedOwnerships */\n      0x05\n        /* \"erc721a/contracts/ERC721A.sol\":36729:36759  _packedOwnerships[nextTokenId] */\n      0x00\n        /* \"erc721a/contracts/ERC721A.sol\":36747:36758  nextTokenId */\n      dup4\n        /* \"erc721a/contracts/ERC721A.sol\":36729:36759  _packedOwnerships[nextTokenId] */\n      dup2\n      mstore\n      0x20\n      add\n      swap1\n      dup2\n      mstore\n      0x20\n      add\n      0x00\n      keccak256\n        /* \"erc721a/contracts/ERC721A.sol\":36729:36781  _packedOwnerships[nextTokenId] = prevOwnershipPacked */\n      dup2\n      swap1\n      sstore\n      pop\n        /* \"erc721a/contracts/ERC721A.sol\":36565:36804  if (nextTokenId != _currentIndex) {... */\n    tag_372:\n        /* \"erc721a/contracts/ERC721A.sol\":36444:36822  if (_packedOwnerships[nextTokenId] == 0) {... */\n    tag_371:\n        /* \"erc721a/contracts/ERC721A.sol\":36277:36836  {... */\n      pop\n        /* \"erc721a/contracts/ERC721A.sol\":36219:36836  if (prevOwnershipPacked & _BITMASK_NEXT_INITIALIZED == 0) {... */\n    tag_370:\n        /* \"erc721a/contracts/ERC721A.sol\":36888:36895  tokenId */\n      dup6\n        /* \"erc721a/contracts/ERC721A.sol\":36884:36885  0 */\n      0x00\n        /* \"erc721a/contracts/ERC721A.sol\":36861:36896  Transfer(from, address(0), tokenId) */\n      0xffffffffffffffffffffffffffffffffffffffff\n      and\n        /* \"erc721a/contracts/ERC721A.sol\":36870:36874  from */\n      dup5\n        /* \"erc721a/contracts/ERC721A.sol\":36861:36896  Transfer(from, address(0), tokenId) */\n      0xffffffffffffffffffffffffffffffffffffffff\n      and\n      0xddf252ad1be2c89b69c2b068fc378daa952ba7f163c4a11628f55a4df523b3ef\n      mload(0x40)\n      mload(0x40)\n      dup1\n      swap2\n      sub\n      swap1\n      log4\n        /* \"erc721a/contracts/ERC721A.sol\":36906:36956  _afterTokenTransfers(from, address(0), tokenId, 1) */\n      tag_373\n        /* \"erc721a/contracts/ERC721A.sol\":36927:36931  from */\n      dup4\n        /* \"erc721a/contracts/ERC721A.sol\":36941:36942  0 */\n      0x00\n        /* \"erc721a/contracts/ERC721A.sol\":36945:36952  tokenId */\n      dup9\n        /* \"erc721a/contracts/ERC721A.sol\":36954:36955  1 */\n      0x01\n        /* \"erc721a/contracts/ERC721A.sol\":36906:36926  _afterTokenTransfers */\n      tag_202\n        /* \"erc721a/contracts/ERC721A.sol\":36906:36956  _afterTokenTransfers(from, address(0), tokenId, 1) */\n      jump\t// in\n    tag_373:\n        /* \"erc721a/contracts/ERC721A.sol\":37079:37091  _burnCounter */\n      0x02\n      0x00\n        /* \"erc721a/contracts/ERC721A.sol\":37079:37093  _burnCounter++ */\n      dup2\n      sload\n      dup1\n      swap3\n      swap2\n      swap1\n      0x01\n      add\n      swap2\n      swap1\n      pop\n      sstore\n      pop\n        /* \"erc721a/contracts/ERC721A.sol\":34164:37110  {... */\n      pop\n      pop\n      pop\n      pop\n        /* \"erc721a/contracts/ERC721A.sol\":34095:37110  function _burn(uint256 tokenId, bool approvalCheck) internal virtual {... */\n      pop\n      pop\n      jump\t// out\n        /* \"erc721a/contracts/ERC721A.sol\":27091:29993  function _mint(address to, uint256 quantity) internal virtual {... */\n    tag_348:\n        /* \"erc721a/contracts/ERC721A.sol\":27163:27183  uint256 startTokenId */\n      0x00\n        /* \"erc721a/contracts/ERC721A.sol\":27186:27199  _currentIndex */\n      sload(0x01)\n        /* \"erc721a/contracts/ERC721A.sol\":27163:27199  uint256 startTokenId = _currentIndex */\n      swap1\n      pop\n        /* \"erc721a/contracts/ERC721A.sol\":27225:27226  0 */\n      0x00\n        /* \"erc721a/contracts/ERC721A.sol\":27213:27221  quantity */\n      dup3\n        /* \"erc721a/contracts/ERC721A.sol\":27213:27226  quantity == 0 */\n      sub\n        /* \"erc721a/contracts/ERC721A.sol\":27209:27253  if (quantity == 0) revert MintZeroQuantity() */\n      tag_375\n      jumpi\n        /* \"erc721a/contracts/ERC721A.sol\":27235:27253  MintZeroQuantity() */\n      mload(0x40)\n      0xb562e8dd00000000000000000000000000000000000000000000000000000000\n      dup2\n      mstore\n      0x04\n      add\n      mload(0x40)\n      dup1\n      swap2\n      sub\n      swap1\n      revert\n        /* \"erc721a/contracts/ERC721A.sol\":27209:27253  if (quantity == 0) revert MintZeroQuantity() */\n    tag_375:\n        /* \"erc721a/contracts/ERC721A.sol\":27264:27325  _beforeTokenTransfers(address(0), to, startTokenId, quantity) */\n      tag_376\n        /* \"erc721a/contracts/ERC721A.sol\":27294:27295  0 */\n      0x00\n        /* \"erc721a/contracts/ERC721A.sol\":27298:27300  to */\n      dup5\n        /* \"erc721a/contracts/ERC721A.sol\":27302:27314  startTokenId */\n      dup4\n        /* \"erc721a/contracts/ERC721A.sol\":27316:27324  quantity */\n      dup6\n        /* \"erc721a/contracts/ERC721A.sol\":27264:27285  _beforeTokenTransfers */\n      tag_192\n        /* \"erc721a/contracts/ERC721A.sol\":27264:27325  _beforeTokenTransfers(address(0), to, startTokenId, quantity) */\n      jump\t// in\n    tag_376:\n        /* \"erc721a/contracts/ERC721A.sol\":27797:27798  1 */\n      0x01\n        /* \"erc721a/contracts/ERC721A.sol\":1495:1497  64 */\n      0x40\n        /* \"erc721a/contracts/ERC721A.sol\":27767:27768  1 */\n      0x01\n        /* \"erc721a/contracts/ERC721A.sol\":27767:27793  1 << _BITPOS_NUMBER_MINTED */\n      swap1\n      shl\n        /* \"erc721a/contracts/ERC721A.sol\":27766:27798  (1 << _BITPOS_NUMBER_MINTED) | 1 */\n      or\n        /* \"erc721a/contracts/ERC721A.sol\":27754:27762  quantity */\n      dup3\n        /* \"erc721a/contracts/ERC721A.sol\":27754:27799  quantity * ((1 << _BITPOS_NUMBER_MINTED) | 1) */\n      mul\n        /* \"erc721a/contracts/ERC721A.sol\":27728:27746  _packedAddressData */\n      0x06\n        /* \"erc721a/contracts/ERC721A.sol\":27728:27750  _packedAddressData[to] */\n      0x00\n        /* \"erc721a/contracts/ERC721A.sol\":27747:27749  to */\n      dup6\n        /* \"erc721a/contracts/ERC721A.sol\":27728:27750  _packedAddressData[to] */\n      0xffffffffffffffffffffffffffffffffffffffff\n      and\n      0xffffffffffffffffffffffffffffffffffffffff\n      and\n      dup2\n      mstore\n      0x20\n      add\n      swap1\n      dup2\n      mstore\n      0x20\n      add\n      0x00\n      keccak256\n      0x00\n        /* \"erc721a/contracts/ERC721A.sol\":27728:27799  _packedAddressData[to] += quantity * ((1 << _BITPOS_NUMBER_MINTED) | 1) */\n      dup3\n      dup3\n      sload\n      add\n      swap3\n      pop\n      pop\n      dup2\n      swap1\n      sstore\n      pop\n        /* \"erc721a/contracts/ERC721A.sol\":28069:28205  _packOwnershipData(... */\n      tag_377\n        /* \"erc721a/contracts/ERC721A.sol\":28105:28107  to */\n      dup4\n        /* \"erc721a/contracts/ERC721A.sol\":28158:28191  _nextExtraData(address(0), to, 0) */\n      tag_378\n        /* \"erc721a/contracts/ERC721A.sol\":28181:28182  0 */\n      0x00\n        /* \"erc721a/contracts/ERC721A.sol\":28185:28187  to */\n      dup7\n        /* \"erc721a/contracts/ERC721A.sol\":28189:28190  0 */\n      0x00\n        /* \"erc721a/contracts/ERC721A.sol\":28158:28172  _nextExtraData */\n      tag_196\n        /* \"erc721a/contracts/ERC721A.sol\":28158:28191  _nextExtraData(address(0), to, 0) */\n      jump\t// in\n    tag_378:\n        /* \"erc721a/contracts/ERC721A.sol\":28125:28155  _nextInitializedFlag(quantity) */\n      tag_379\n        /* \"erc721a/contracts/ERC721A.sol\":28146:28154  quantity */\n      dup6\n        /* \"erc721a/contracts/ERC721A.sol\":28125:28145  _nextInitializedFlag */\n      tag_380\n        /* \"erc721a/contracts/ERC721A.sol\":28125:28155  _nextInitializedFlag(quantity) */\n      jump\t// in\n    tag_379:\n        /* \"erc721a/contracts/ERC721A.sol\":28125:28191  _nextInitializedFlag(quantity) | _nextExtraData(address(0), to, 0) */\n      or\n        /* \"erc721a/contracts/ERC721A.sol\":28069:28087  _packOwnershipData */\n      tag_197\n        /* \"erc721a/contracts/ERC721A.sol\":28069:28205  _packOwnershipData(... */\n      jump\t// in\n    tag_377:\n        /* \"erc721a/contracts/ERC721A.sol\":28035:28052  _packedOwnerships */\n      0x05\n        /* \"erc721a/contracts/ERC721A.sol\":28035:28066  _packedOwnerships[startTokenId] */\n      0x00\n        /* \"erc721a/contracts/ERC721A.sol\":28053:28065  startTokenId */\n      dup4\n        /* \"erc721a/contracts/ERC721A.sol\":28035:28066  _packedOwnerships[startTokenId] */\n      dup2\n      mstore\n      0x20\n      add\n      swap1\n      dup2\n      mstore\n      0x20\n      add\n      0x00\n      keccak256\n        /* \"erc721a/contracts/ERC721A.sol\":28035:28205  _packedOwnerships[startTokenId] = _packOwnershipData(... */\n      dup2\n      swap1\n      sstore\n      pop\n        /* \"erc721a/contracts/ERC721A.sol\":28220:28236  uint256 toMasked */\n      0x00\n        /* \"erc721a/contracts/ERC721A.sol\":28250:28261  uint256 end */\n      dup1\n        /* \"erc721a/contracts/ERC721A.sol\":28279:28287  quantity */\n      dup4\n        /* \"erc721a/contracts/ERC721A.sol\":28264:28276  startTokenId */\n      dup4\n        /* \"erc721a/contracts/ERC721A.sol\":28264:28287  startTokenId + quantity */\n      add\n        /* \"erc721a/contracts/ERC721A.sol\":28250:28287  uint256 end = startTokenId + quantity */\n      swap1\n      pop\n        /* \"erc721a/contracts/ERC721A.sol\":28792:28808  _BITMASK_ADDRESS */\n      0xffffffffffffffffffffffffffffffffffffffff\n        /* \"erc721a/contracts/ERC721A.sol\":28788:28790  to */\n      dup6\n        /* \"erc721a/contracts/ERC721A.sol\":28784:28809  and(to, _BITMASK_ADDRESS) */\n      and\n        /* \"erc721a/contracts/ERC721A.sol\":28772:28809  toMasked := and(to, _BITMASK_ADDRESS) */\n      swap2\n      pop\n        /* \"erc721a/contracts/ERC721A.sol\":29156:29168  startTokenId */\n      dup3\n        /* \"erc721a/contracts/ERC721A.sol\":29117:29125  toMasked */\n      dup3\n        /* \"erc721a/contracts/ERC721A.sol\":29077:29078  0 */\n      0x00\n        /* \"erc721a/contracts/ERC721A.sol\":29016:29041  _TRANSFER_EVENT_SIGNATURE */\n      0xddf252ad1be2c89b69c2b068fc378daa952ba7f163c4a11628f55a4df523b3ef\n        /* \"erc721a/contracts/ERC721A.sol\":28958:28959  0 */\n      0x00\n        /* \"erc721a/contracts/ERC721A.sol\":28898:28899  0 */\n      dup1\n        /* \"erc721a/contracts/ERC721A.sol\":28872:29200  log4(... */\n      log4\n        /* \"erc721a/contracts/ERC721A.sol\":29520:29521  1 */\n      0x01\n        /* \"erc721a/contracts/ERC721A.sol\":29506:29518  startTokenId */\n      dup4\n        /* \"erc721a/contracts/ERC721A.sol\":29502:29522  add(startTokenId, 1) */\n      add\n        /* \"erc721a/contracts/ERC721A.sol\":29461:29800  for {... */\n    tag_381:\n        /* \"erc721a/contracts/ERC721A.sol\":29560:29563  end */\n      dup2\n        /* \"erc721a/contracts/ERC721A.sol\":29551:29558  tokenId */\n      dup2\n        /* \"erc721a/contracts/ERC721A.sol\":29548:29564  eq(tokenId, end) */\n      eq\n        /* \"erc721a/contracts/ERC721A.sol\":29461:29800  for {... */\n      tag_383\n      jumpi\n        /* \"erc721a/contracts/ERC721A.sol\":29774:29781  tokenId */\n      dup1\n        /* \"erc721a/contracts/ERC721A.sol\":29764:29772  toMasked */\n      dup4\n        /* \"erc721a/contracts/ERC721A.sol\":29761:29762  0 */\n      0x00\n        /* \"erc721a/contracts/ERC721A.sol\":29734:29759  _TRANSFER_EVENT_SIGNATURE */\n      0xddf252ad1be2c89b69c2b068fc378daa952ba7f163c4a11628f55a4df523b3ef\n        /* \"erc721a/contracts/ERC721A.sol\":29731:29732  0 */\n      0x00\n        /* \"erc721a/contracts/ERC721A.sol\":29728:29729  0 */\n      dup1\n        /* \"erc721a/contracts/ERC721A.sol\":29723:29782  log4(0, 0, _TRANSFER_EVENT_SIGNATURE, 0, toMasked, tokenId) */\n      log4\n        /* \"erc721a/contracts/ERC721A.sol\":29612:29613  1 */\n      0x01\n        /* \"erc721a/contracts/ERC721A.sol\":29603:29610  tokenId */\n      dup2\n        /* \"erc721a/contracts/ERC721A.sol\":29599:29614  add(tokenId, 1) */\n      add\n        /* \"erc721a/contracts/ERC721A.sol\":29588:29614  tokenId := add(tokenId, 1) */\n      swap1\n      pop\n        /* \"erc721a/contracts/ERC721A.sol\":29461:29800  for {... */\n      jump(tag_381)\n    tag_383:\n        /* \"erc721a/contracts/ERC721A.sol\":29465:29540  {... */\n      pop\n        /* \"erc721a/contracts/ERC721A.sol\":29843:29844  0 */\n      0x00\n        /* \"erc721a/contracts/ERC721A.sol\":29831:29839  toMasked */\n      dup3\n        /* \"erc721a/contracts/ERC721A.sol\":29831:29844  toMasked == 0 */\n      sub\n        /* \"erc721a/contracts/ERC721A.sol\":29827:29872  if (toMasked == 0) revert MintToZeroAddress() */\n      tag_384\n      jumpi\n        /* \"erc721a/contracts/ERC721A.sol\":29853:29872  MintToZeroAddress() */\n      mload(0x40)\n      0x2e07630000000000000000000000000000000000000000000000000000000000\n      dup2\n      mstore\n      0x04\n      add\n      mload(0x40)\n      dup1\n      swap2\n      sub\n      swap1\n      revert\n        /* \"erc721a/contracts/ERC721A.sol\":29827:29872  if (toMasked == 0) revert MintToZeroAddress() */\n    tag_384:\n        /* \"erc721a/contracts/ERC721A.sol\":29903:29906  end */\n      dup1\n        /* \"erc721a/contracts/ERC721A.sol\":29887:29900  _currentIndex */\n      0x01\n        /* \"erc721a/contracts/ERC721A.sol\":29887:29906  _currentIndex = end */\n      dup2\n      swap1\n      sstore\n      pop\n        /* \"erc721a/contracts/ERC721A.sol\":27508:29917  unchecked {... */\n      pop\n      pop\n        /* \"erc721a/contracts/ERC721A.sol\":29926:29986  _afterTokenTransfers(address(0), to, startTokenId, quantity) */\n      tag_385\n        /* \"erc721a/contracts/ERC721A.sol\":29955:29956  0 */\n      0x00\n        /* \"erc721a/contracts/ERC721A.sol\":29959:29961  to */\n      dup5\n        /* \"erc721a/contracts/ERC721A.sol\":29963:29975  startTokenId */\n      dup4\n        /* \"erc721a/contracts/ERC721A.sol\":29977:29985  quantity */\n      dup6\n        /* \"erc721a/contracts/ERC721A.sol\":29926:29946  _afterTokenTransfers */\n      tag_202\n        /* \"erc721a/contracts/ERC721A.sol\":29926:29986  _afterTokenTransfers(address(0), to, startTokenId, quantity) */\n      jump\t// in\n    tag_385:\n        /* \"erc721a/contracts/ERC721A.sol\":27153:29993  {... */\n      pop\n        /* \"erc721a/contracts/ERC721A.sol\":27091:29993  function _mint(address to, uint256 quantity) internal virtual {... */\n      pop\n      pop\n      jump\t// out\n        /* \"erc721a/contracts/ERC721A.sol\":14837:15155  function _nextInitializedFlag(uint256 quantity) private pure returns (uint256 result) {... */\n    tag_380:\n        /* \"erc721a/contracts/ERC721A.sol\":14907:14921  uint256 result */\n      0x00\n        /* \"erc721a/contracts/ERC721A.sol\":15136:15137  1 */\n      0x01\n        /* \"erc721a/contracts/ERC721A.sol\":15126:15134  quantity */\n      dup3\n        /* \"erc721a/contracts/ERC721A.sol\":15123:15138  eq(quantity, 1) */\n      eq\n        /* \"erc721a/contracts/ERC721A.sol\":15097:15121  _BITPOS_NEXT_INITIALIZED */\n      0xe1\n        /* \"erc721a/contracts/ERC721A.sol\":15093:15139  shl(_BITPOS_NEXT_INITIALIZED, eq(quantity, 1)) */\n      shl\n        /* \"erc721a/contracts/ERC721A.sol\":15083:15139  result := shl(_BITPOS_NEXT_INITIALIZED, eq(quantity, 1)) */\n      swap1\n      pop\n        /* \"erc721a/contracts/ERC721A.sol\":14837:15155  function _nextInitializedFlag(uint256 quantity) private pure returns (uint256 result) {... */\n      swap2\n      swap1\n      pop\n      jump\t// out\n    tag_210:\n      dup3\n      dup1\n      sload\n      tag_387\n      swap1\n      tag_154\n      jump\t// in\n    tag_387:\n      swap1\n      0x00\n      mstore\n      keccak256(0x00, 0x20)\n      swap1\n      0x1f\n      add\n      0x20\n      swap1\n      div\n      dup2\n      add\n      swap3\n      dup3\n      tag_389\n      jumpi\n      0x00\n      dup6\n      sstore\n      jump(tag_388)\n    tag_389:\n      dup3\n      0x1f\n      lt\n      tag_390\n      jumpi\n      dup1\n      calldataload\n      not(0xff)\n      and\n      dup4\n      dup1\n      add\n      or\n      dup6\n      sstore\n      jump(tag_388)\n    tag_390:\n      dup3\n      dup1\n      add\n      0x01\n      add\n      dup6\n      sstore\n      dup3\n      iszero\n      tag_388\n      jumpi\n      swap2\n      dup3\n      add\n    tag_391:\n      dup3\n      dup2\n      gt\n      iszero\n      tag_392\n      jumpi\n      dup3\n      calldataload\n      dup3\n      sstore\n      swap2\n      0x20\n      add\n      swap2\n      swap1\n      0x01\n      add\n      swap1\n      jump(tag_391)\n    tag_392:\n    tag_388:\n      pop\n      swap1\n      pop\n      tag_393\n      swap2\n      swap1\n      tag_394\n      jump\t// in\n    tag_393:\n      pop\n      swap1\n      jump\t// out\n    tag_394:\n    tag_395:\n      dup1\n      dup3\n      gt\n      iszero\n      tag_396\n      jumpi\n      0x00\n      dup2\n      0x00\n      swap1\n      sstore\n      pop\n      0x01\n      add\n      jump(tag_395)\n    tag_396:\n      pop\n      swap1\n      jump\t// out\n        /* \"#utility.yul\":7:82   */\n    tag_397:\n        /* \"#utility.yul\":40:46   */\n      0x00\n        /* \"#utility.yul\":73:75   */\n      0x40\n        /* \"#utility.yul\":67:76   */\n      mload\n        /* \"#utility.yul\":57:76   */\n      swap1\n      pop\n        /* \"#utility.yul\":7:82   */\n      swap1\n      jump\t// out\n        /* \"#utility.yul\":88:205   */\n    tag_398:\n        /* \"#utility.yul\":197:198   */\n      0x00\n        /* \"#utility.yul\":194:195   */\n      dup1\n        /* \"#utility.yul\":187:199   */\n      revert\n        /* \"#utility.yul\":211:328   */\n    tag_399:\n        /* \"#utility.yul\":320:321   */\n      0x00\n        /* \"#utility.yul\":317:318   */\n      dup1\n        /* \"#utility.yul\":310:322   */\n      revert\n        /* \"#utility.yul\":334:483   */\n    tag_400:\n        /* \"#utility.yul\":370:377   */\n      0x00\n        /* \"#utility.yul\":410:476   */\n      0xffffffff00000000000000000000000000000000000000000000000000000000\n        /* \"#utility.yul\":403:408   */\n      dup3\n        /* \"#utility.yul\":399:477   */\n      and\n        /* \"#utility.yul\":388:477   */\n      swap1\n      pop\n        /* \"#utility.yul\":334:483   */\n      swap2\n      swap1\n      pop\n      jump\t// out\n        /* \"#utility.yul\":489:609   */\n    tag_401:\n        /* \"#utility.yul\":561:584   */\n      tag_456\n        /* \"#utility.yul\":578:583   */\n      dup2\n        /* \"#utility.yul\":561:584   */\n      tag_400\n      jump\t// in\n    tag_456:\n        /* \"#utility.yul\":554:559   */\n      dup2\n        /* \"#utility.yul\":551:585   */\n      eq\n        /* \"#utility.yul\":541:603   */\n      tag_457\n      jumpi\n        /* \"#utility.yul\":599:600   */\n      0x00\n        /* \"#utility.yul\":596:597   */\n      dup1\n        /* \"#utility.yul\":589:601   */\n      revert\n        /* \"#utility.yul\":541:603   */\n    tag_457:\n        /* \"#utility.yul\":489:609   */\n      pop\n      jump\t// out\n        /* \"#utility.yul\":615:752   */\n    tag_402:\n        /* \"#utility.yul\":660:665   */\n      0x00\n        /* \"#utility.yul\":698:704   */\n      dup2\n        /* \"#utility.yul\":685:705   */\n      calldataload\n        /* \"#utility.yul\":676:705   */\n      swap1\n      pop\n        /* \"#utility.yul\":714:746   */\n      tag_459\n        /* \"#utility.yul\":740:745   */\n      dup2\n        /* \"#utility.yul\":714:746   */\n      tag_401\n      jump\t// in\n    tag_459:\n        /* \"#utility.yul\":615:752   */\n      swap3\n      swap2\n      pop\n      pop\n      jump\t// out\n        /* \"#utility.yul\":758:1085   */\n    tag_34:\n        /* \"#utility.yul\":816:822   */\n      0x00\n        /* \"#utility.yul\":865:867   */\n      0x20\n        /* \"#utility.yul\":853:862   */\n      dup3\n        /* \"#utility.yul\":844:851   */\n      dup5\n        /* \"#utility.yul\":840:863   */\n      sub\n        /* \"#utility.yul\":836:868   */\n      slt\n        /* \"#utility.yul\":833:952   */\n      iszero\n      tag_461\n      jumpi\n        /* \"#utility.yul\":871:950   */\n      tag_462\n      tag_398\n      jump\t// in\n    tag_462:\n        /* \"#utility.yul\":833:952   */\n    tag_461:\n        /* \"#utility.yul\":991:992   */\n      0x00\n        /* \"#utility.yul\":1016:1068   */\n      tag_463\n        /* \"#utility.yul\":1060:1067   */\n      dup5\n        /* \"#utility.yul\":1051:1057   */\n      dup3\n        /* \"#utility.yul\":1040:1049   */\n      dup6\n        /* \"#utility.yul\":1036:1058   */\n      add\n        /* \"#utility.yul\":1016:1068   */\n      tag_402\n      jump\t// in\n    tag_463:\n        /* \"#utility.yul\":1006:1068   */\n      swap2\n      pop\n        /* \"#utility.yul\":962:1078   */\n      pop\n        /* \"#utility.yul\":758:1085   */\n      swap3\n      swap2\n      pop\n      pop\n      jump\t// out\n        /* \"#utility.yul\":1091:1181   */\n    tag_403:\n        /* \"#utility.yul\":1125:1132   */\n      0x00\n        /* \"#utility.yul\":1168:1173   */\n      dup2\n        /* \"#utility.yul\":1161:1174   */\n      iszero\n        /* \"#utility.yul\":1154:1175   */\n      iszero\n        /* \"#utility.yul\":1143:1175   */\n      swap1\n      pop\n        /* \"#utility.yul\":1091:1181   */\n      swap2\n      swap1\n      pop\n      jump\t// out\n        /* \"#utility.yul\":1187:1296   */\n    tag_404:\n        /* \"#utility.yul\":1268:1289   */\n      tag_466\n        /* \"#utility.yul\":1283:1288   */\n      dup2\n        /* \"#utility.yul\":1268:1289   */\n      tag_403\n      jump\t// in\n    tag_466:\n        /* \"#utility.yul\":1263:1266   */\n      dup3\n        /* \"#utility.yul\":1256:1290   */\n      mstore\n        /* \"#utility.yul\":1187:1296   */\n      pop\n      pop\n      jump\t// out\n        /* \"#utility.yul\":1302:1512   */\n    tag_37:\n        /* \"#utility.yul\":1389:1393   */\n      0x00\n        /* \"#utility.yul\":1427:1429   */\n      0x20\n        /* \"#utility.yul\":1416:1425   */\n      dup3\n        /* \"#utility.yul\":1412:1430   */\n      add\n        /* \"#utility.yul\":1404:1430   */\n      swap1\n      pop\n        /* \"#utility.yul\":1440:1505   */\n      tag_468\n        /* \"#utility.yul\":1502:1503   */\n      0x00\n        /* \"#utility.yul\":1491:1500   */\n      dup4\n        /* \"#utility.yul\":1487:1504   */\n      add\n        /* \"#utility.yul\":1478:1484   */\n      dup5\n        /* \"#utility.yul\":1440:1505   */\n      tag_404\n      jump\t// in\n    tag_468:\n        /* \"#utility.yul\":1302:1512   */\n      swap3\n      swap2\n      pop\n      pop\n      jump\t// out\n        /* \"#utility.yul\":1518:1617   */\n    tag_405:\n        /* \"#utility.yul\":1570:1576   */\n      0x00\n        /* \"#utility.yul\":1604:1609   */\n      dup2\n        /* \"#utility.yul\":1598:1610   */\n      mload\n        /* \"#utility.yul\":1588:1610   */\n      swap1\n      pop\n        /* \"#utility.yul\":1518:1617   */\n      swap2\n      swap1\n      pop\n      jump\t// out\n        /* \"#utility.yul\":1623:1792   */\n    tag_406:\n        /* \"#utility.yul\":1707:1718   */\n      0x00\n        /* \"#utility.yul\":1741:1747   */\n      dup3\n        /* \"#utility.yul\":1736:1739   */\n      dup3\n        /* \"#utility.yul\":1729:1748   */\n      mstore\n        /* \"#utility.yul\":1781:1785   */\n      0x20\n        /* \"#utility.yul\":1776:1779   */\n      dup3\n        /* \"#utility.yul\":1772:1786   */\n      add\n        /* \"#utility.yul\":1757:1786   */\n      swap1\n      pop\n        /* \"#utility.yul\":1623:1792   */\n      swap3\n      swap2\n      pop\n      pop\n      jump\t// out\n        /* \"#utility.yul\":1798:2105   */\n    tag_407:\n        /* \"#utility.yul\":1866:1867   */\n      0x00\n        /* \"#utility.yul\":1876:1989   */\n    tag_472:\n        /* \"#utility.yul\":1890:1896   */\n      dup4\n        /* \"#utility.yul\":1887:1888   */\n      dup2\n        /* \"#utility.yul\":1884:1897   */\n      lt\n        /* \"#utility.yul\":1876:1989   */\n      iszero\n      tag_474\n      jumpi\n        /* \"#utility.yul\":1975:1976   */\n      dup1\n        /* \"#utility.yul\":1970:1973   */\n      dup3\n        /* \"#utility.yul\":1966:1977   */\n      add\n        /* \"#utility.yul\":1960:1978   */\n      mload\n        /* \"#utility.yul\":1956:1957   */\n      dup2\n        /* \"#utility.yul\":1951:1954   */\n      dup5\n        /* \"#utility.yul\":1947:1958   */\n      add\n        /* \"#utility.yul\":1940:1979   */\n      mstore\n        /* \"#utility.yul\":1912:1914   */\n      0x20\n        /* \"#utility.yul\":1909:1910   */\n      dup2\n        /* \"#utility.yul\":1905:1915   */\n      add\n        /* \"#utility.yul\":1900:1915   */\n      swap1\n      pop\n        /* \"#utility.yul\":1876:1989   */\n      jump(tag_472)\n    tag_474:\n        /* \"#utility.yul\":2007:2013   */\n      dup4\n        /* \"#utility.yul\":2004:2005   */\n      dup2\n        /* \"#utility.yul\":2001:2014   */\n      gt\n        /* \"#utility.yul\":1998:2099   */\n      iszero\n      tag_475\n      jumpi\n        /* \"#utility.yul\":2087:2088   */\n      0x00\n        /* \"#utility.yul\":2078:2084   */\n      dup5\n        /* \"#utility.yul\":2073:2076   */\n      dup5\n        /* \"#utility.yul\":2069:2085   */\n      add\n        /* \"#utility.yul\":2062:2089   */\n      mstore\n        /* \"#utility.yul\":1998:2099   */\n    tag_475:\n        /* \"#utility.yul\":1847:2105   */\n      pop\n        /* \"#utility.yul\":1798:2105   */\n      pop\n      pop\n      pop\n      jump\t// out\n        /* \"#utility.yul\":2111:2213   */\n    tag_408:\n        /* \"#utility.yul\":2152:2158   */\n      0x00\n        /* \"#utility.yul\":2203:2205   */\n      0x1f\n        /* \"#utility.yul\":2199:2206   */\n      not\n        /* \"#utility.yul\":2194:2196   */\n      0x1f\n        /* \"#utility.yul\":2187:2192   */\n      dup4\n        /* \"#utility.yul\":2183:2197   */\n      add\n        /* \"#utility.yul\":2179:2207   */\n      and\n        /* \"#utility.yul\":2169:2207   */\n      swap1\n      pop\n        /* \"#utility.yul\":2111:2213   */\n      swap2\n      swap1\n      pop\n      jump\t// out\n        /* \"#utility.yul\":2219:2583   */\n    tag_409:\n        /* \"#utility.yul\":2307:2310   */\n      0x00\n        /* \"#utility.yul\":2335:2374   */\n      tag_478\n        /* \"#utility.yul\":2368:2373   */\n      dup3\n        /* \"#utility.yul\":2335:2374   */\n      tag_405\n      jump\t// in\n    tag_478:\n        /* \"#utility.yul\":2390:2461   */\n      tag_479\n        /* \"#utility.yul\":2454:2460   */\n      dup2\n        /* \"#utility.yul\":2449:2452   */\n      dup6\n        /* \"#utility.yul\":2390:2461   */\n      tag_406\n      jump\t// in\n    tag_479:\n        /* \"#utility.yul\":2383:2461   */\n      swap4\n      pop\n        /* \"#utility.yul\":2470:2522   */\n      tag_480\n        /* \"#utility.yul\":2515:2521   */\n      dup2\n        /* \"#utility.yul\":2510:2513   */\n      dup6\n        /* \"#utility.yul\":2503:2507   */\n      0x20\n        /* \"#utility.yul\":2496:2501   */\n      dup7\n        /* \"#utility.yul\":2492:2508   */\n      add\n        /* \"#utility.yul\":2470:2522   */\n      tag_407\n      jump\t// in\n    tag_480:\n        /* \"#utility.yul\":2547:2576   */\n      tag_481\n        /* \"#utility.yul\":2569:2575   */\n      dup2\n        /* \"#utility.yul\":2547:2576   */\n      tag_408\n      jump\t// in\n    tag_481:\n        /* \"#utility.yul\":2542:2545   */\n      dup5\n        /* \"#utility.yul\":2538:2577   */\n      add\n        /* \"#utility.yul\":2531:2577   */\n      swap2\n      pop\n        /* \"#utility.yul\":2311:2583   */\n      pop\n        /* \"#utility.yul\":2219:2583   */\n      swap3\n      swap2\n      pop\n      pop\n      jump\t// out\n        /* \"#utility.yul\":2589:2902   */\n    tag_42:\n        /* \"#utility.yul\":2702:2706   */\n      0x00\n        /* \"#utility.yul\":2740:2742   */\n      0x20\n        /* \"#utility.yul\":2729:2738   */\n      dup3\n        /* \"#utility.yul\":2725:2743   */\n      add\n        /* \"#utility.yul\":2717:2743   */\n      swap1\n      pop\n        /* \"#utility.yul\":2789:2798   */\n      dup2\n        /* \"#utility.yul\":2783:2787   */\n      dup2\n        /* \"#utility.yul\":2779:2799   */\n      sub\n        /* \"#utility.yul\":2775:2776   */\n      0x00\n        /* \"#utility.yul\":2764:2773   */\n      dup4\n        /* \"#utility.yul\":2760:2777   */\n      add\n        /* \"#utility.yul\":2753:2800   */\n      mstore\n        /* \"#utility.yul\":2817:2895   */\n      tag_483\n        /* \"#utility.yul\":2890:2894   */\n      dup2\n        /* \"#utility.yul\":2881:2887   */\n      dup5\n        /* \"#utility.yul\":2817:2895   */\n      tag_409\n      jump\t// in\n    tag_483:\n        /* \"#utility.yul\":2809:2895   */\n      swap1\n      pop\n        /* \"#utility.yul\":2589:2902   */\n      swap3\n      swap2\n      pop\n      pop\n      jump\t// out\n        /* \"#utility.yul\":2908:2985   */\n    tag_410:\n        /* \"#utility.yul\":2945:2952   */\n      0x00\n        /* \"#utility.yul\":2974:2979   */\n      dup2\n        /* \"#utility.yul\":2963:2979   */\n      swap1\n      pop\n        /* \"#utility.yul\":2908:2985   */\n      swap2\n      swap1\n      pop\n      jump\t// out\n        /* \"#utility.yul\":2991:3113   */\n    tag_411:\n        /* \"#utility.yul\":3064:3088   */\n      tag_486\n        /* \"#utility.yul\":3082:3087   */\n      dup2\n        /* \"#utility.yul\":3064:3088   */\n      tag_410\n      jump\t// in\n    tag_486:\n        /* \"#utility.yul\":3057:3062   */\n      dup2\n        /* \"#utility.yul\":3054:3089   */\n      eq\n        /* \"#utility.yul\":3044:3107   */\n      tag_487\n      jumpi\n        /* \"#utility.yul\":3103:3104   */\n      0x00\n        /* \"#utility.yul\":3100:3101   */\n      dup1\n        /* \"#utility.yul\":3093:3105   */\n      revert\n        /* \"#utility.yul\":3044:3107   */\n    tag_487:\n        /* \"#utility.yul\":2991:3113   */\n      pop\n      jump\t// out\n        /* \"#utility.yul\":3119:3258   */\n    tag_412:\n        /* \"#utility.yul\":3165:3170   */\n      0x00\n        /* \"#utility.yul\":3203:3209   */\n      dup2\n        /* \"#utility.yul\":3190:3210   */\n      calldataload\n        /* \"#utility.yul\":3181:3210   */\n      swap1\n      pop\n        /* \"#utility.yul\":3219:3252   */\n      tag_489\n        /* \"#utility.yul\":3246:3251   */\n      dup2\n        /* \"#utility.yul\":3219:3252   */\n      tag_411\n      jump\t// in\n    tag_489:\n        /* \"#utility.yul\":3119:3258   */\n      swap3\n      swap2\n      pop\n      pop\n      jump\t// out\n        /* \"#utility.yul\":3264:3593   */\n    tag_46:\n        /* \"#utility.yul\":3323:3329   */\n      0x00\n        /* \"#utility.yul\":3372:3374   */\n      0x20\n        /* \"#utility.yul\":3360:3369   */\n      dup3\n        /* \"#utility.yul\":3351:3358   */\n      dup5\n        /* \"#utility.yul\":3347:3370   */\n      sub\n        /* \"#utility.yul\":3343:3375   */\n      slt\n        /* \"#utility.yul\":3340:3459   */\n      iszero\n      tag_491\n      jumpi\n        /* \"#utility.yul\":3378:3457   */\n      tag_492\n      tag_398\n      jump\t// in\n    tag_492:\n        /* \"#utility.yul\":3340:3459   */\n    tag_491:\n        /* \"#utility.yul\":3498:3499   */\n      0x00\n        /* \"#utility.yul\":3523:3576   */\n      tag_493\n        /* \"#utility.yul\":3568:3575   */\n      dup5\n        /* \"#utility.yul\":3559:3565   */\n      dup3\n        /* \"#utility.yul\":3548:3557   */\n      dup6\n        /* \"#utility.yul\":3544:3566   */\n      add\n        /* \"#utility.yul\":3523:3576   */\n      tag_412\n      jump\t// in\n    tag_493:\n        /* \"#utility.yul\":3513:3576   */\n      swap2\n      pop\n        /* \"#utility.yul\":3469:3586   */\n      pop\n        /* \"#utility.yul\":3264:3593   */\n      swap3\n      swap2\n      pop\n      pop\n      jump\t// out\n        /* \"#utility.yul\":3599:3725   */\n    tag_413:\n        /* \"#utility.yul\":3636:3643   */\n      0x00\n        /* \"#utility.yul\":3676:3718   */\n      0xffffffffffffffffffffffffffffffffffffffff\n        /* \"#utility.yul\":3669:3674   */\n      dup3\n        /* \"#utility.yul\":3665:3719   */\n      and\n        /* \"#utility.yul\":3654:3719   */\n      swap1\n      pop\n        /* \"#utility.yul\":3599:3725   */\n      swap2\n      swap1\n      pop\n      jump\t// out\n        /* \"#utility.yul\":3731:3827   */\n    tag_414:\n        /* \"#utility.yul\":3768:3775   */\n      0x00\n        /* \"#utility.yul\":3797:3821   */\n      tag_496\n        /* \"#utility.yul\":3815:3820   */\n      dup3\n        /* \"#utility.yul\":3797:3821   */\n      tag_413\n      jump\t// in\n    tag_496:\n        /* \"#utility.yul\":3786:3821   */\n      swap1\n      pop\n        /* \"#utility.yul\":3731:3827   */\n      swap2\n      swap1\n      pop\n      jump\t// out\n        /* \"#utility.yul\":3833:3951   */\n    tag_415:\n        /* \"#utility.yul\":3920:3944   */\n      tag_498\n        /* \"#utility.yul\":3938:3943   */\n      dup2\n        /* \"#utility.yul\":3920:3944   */\n      tag_414\n      jump\t// in\n    tag_498:\n        /* \"#utility.yul\":3915:3918   */\n      dup3\n        /* \"#utility.yul\":3908:3945   */\n      mstore\n        /* \"#utility.yul\":3833:3951   */\n      pop\n      pop\n      jump\t// out\n        /* \"#utility.yul\":3957:4179   */\n    tag_49:\n        /* \"#utility.yul\":4050:4054   */\n      0x00\n        /* \"#utility.yul\":4088:4090   */\n      0x20\n        /* \"#utility.yul\":4077:4086   */\n      dup3\n        /* \"#utility.yul\":4073:4091   */\n      add\n        /* \"#utility.yul\":4065:4091   */\n      swap1\n      pop\n        /* \"#utility.yul\":4101:4172   */\n      tag_500\n        /* \"#utility.yul\":4169:4170   */\n      0x00\n        /* \"#utility.yul\":4158:4167   */\n      dup4\n        /* \"#utility.yul\":4154:4171   */\n      add\n        /* \"#utility.yul\":4145:4151   */\n      dup5\n        /* \"#utility.yul\":4101:4172   */\n      tag_415\n      jump\t// in\n    tag_500:\n        /* \"#utility.yul\":3957:4179   */\n      swap3\n      swap2\n      pop\n      pop\n      jump\t// out\n        /* \"#utility.yul\":4185:4307   */\n    tag_416:\n        /* \"#utility.yul\":4258:4282   */\n      tag_502\n        /* \"#utility.yul\":4276:4281   */\n      dup2\n        /* \"#utility.yul\":4258:4282   */\n      tag_414\n      jump\t// in\n    tag_502:\n        /* \"#utility.yul\":4251:4256   */\n      dup2\n        /* \"#utility.yul\":4248:4283   */\n      eq\n        /* \"#utility.yul\":4238:4301   */\n      tag_503\n      jumpi\n        /* \"#utility.yul\":4297:4298   */\n      0x00\n        /* \"#utility.yul\":4294:4295   */\n      dup1\n        /* \"#utility.yul\":4287:4299   */\n      revert\n        /* \"#utility.yul\":4238:4301   */\n    tag_503:\n        /* \"#utility.yul\":4185:4307   */\n      pop\n      jump\t// out\n        /* \"#utility.yul\":4313:4452   */\n    tag_417:\n        /* \"#utility.yul\":4359:4364   */\n      0x00\n        /* \"#utility.yul\":4397:4403   */\n      dup2\n        /* \"#utility.yul\":4384:4404   */\n      calldataload\n        /* \"#utility.yul\":4375:4404   */\n      swap1\n      pop\n        /* \"#utility.yul\":4413:4446   */\n      tag_505\n        /* \"#utility.yul\":4440:4445   */\n      dup2\n        /* \"#utility.yul\":4413:4446   */\n      tag_416\n      jump\t// in\n    tag_505:\n        /* \"#utility.yul\":4313:4452   */\n      swap3\n      swap2\n      pop\n      pop\n      jump\t// out\n        /* \"#utility.yul\":4458:4932   */\n    tag_52:\n        /* \"#utility.yul\":4526:4532   */\n      0x00\n        /* \"#utility.yul\":4534:4540   */\n      dup1\n        /* \"#utility.yul\":4583:4585   */\n      0x40\n        /* \"#utility.yul\":4571:4580   */\n      dup4\n        /* \"#utility.yul\":4562:4569   */\n      dup6\n        /* \"#utility.yul\":4558:4581   */\n      sub\n        /* \"#utility.yul\":4554:4586   */\n      slt\n        /* \"#utility.yul\":4551:4670   */\n      iszero\n      tag_507\n      jumpi\n        /* \"#utility.yul\":4589:4668   */\n      tag_508\n      tag_398\n      jump\t// in\n    tag_508:\n        /* \"#utility.yul\":4551:4670   */\n    tag_507:\n        /* \"#utility.yul\":4709:4710   */\n      0x00\n        /* \"#utility.yul\":4734:4787   */\n      tag_509\n        /* \"#utility.yul\":4779:4786   */\n      dup6\n        /* \"#utility.yul\":4770:4776   */\n      dup3\n        /* \"#utility.yul\":4759:4768   */\n      dup7\n        /* \"#utility.yul\":4755:4777   */\n      add\n        /* \"#utility.yul\":4734:4787   */\n      tag_417\n      jump\t// in\n    tag_509:\n        /* \"#utility.yul\":4724:4787   */\n      swap3\n      pop\n        /* \"#utility.yul\":4680:4797   */\n      pop\n        /* \"#utility.yul\":4836:4838   */\n      0x20\n        /* \"#utility.yul\":4862:4915   */\n      tag_510\n        /* \"#utility.yul\":4907:4914   */\n      dup6\n        /* \"#utility.yul\":4898:4904   */\n      dup3\n        /* \"#utility.yul\":4887:4896   */\n      dup7\n        /* \"#utility.yul\":4883:4905   */\n      add\n        /* \"#utility.yul\":4862:4915   */\n      tag_412\n      jump\t// in\n    tag_510:\n        /* \"#utility.yul\":4852:4915   */\n      swap2\n      pop\n        /* \"#utility.yul\":4807:4925   */\n      pop\n        /* \"#utility.yul\":4458:4932   */\n      swap3\n      pop\n      swap3\n      swap1\n      pop\n      jump\t// out\n        /* \"#utility.yul\":4938:5056   */\n    tag_418:\n        /* \"#utility.yul\":5025:5049   */\n      tag_512\n        /* \"#utility.yul\":5043:5048   */\n      dup2\n        /* \"#utility.yul\":5025:5049   */\n      tag_410\n      jump\t// in\n    tag_512:\n        /* \"#utility.yul\":5020:5023   */\n      dup3\n        /* \"#utility.yul\":5013:5050   */\n      mstore\n        /* \"#utility.yul\":4938:5056   */\n      pop\n      pop\n      jump\t// out\n        /* \"#utility.yul\":5062:5284   */\n    tag_58:\n        /* \"#utility.yul\":5155:5159   */\n      0x00\n        /* \"#utility.yul\":5193:5195   */\n      0x20\n        /* \"#utility.yul\":5182:5191   */\n      dup3\n        /* \"#utility.yul\":5178:5196   */\n      add\n        /* \"#utility.yul\":5170:5196   */\n      swap1\n      pop\n        /* \"#utility.yul\":5206:5277   */\n      tag_514\n        /* \"#utility.yul\":5274:5275   */\n      0x00\n        /* \"#utility.yul\":5263:5272   */\n      dup4\n        /* \"#utility.yul\":5259:5276   */\n      add\n        /* \"#utility.yul\":5250:5256   */\n      dup5\n        /* \"#utility.yul\":5206:5277   */\n      tag_418\n      jump\t// in\n    tag_514:\n        /* \"#utility.yul\":5062:5284   */\n      swap3\n      swap2\n      pop\n      pop\n      jump\t// out\n        /* \"#utility.yul\":5290:5909   */\n    tag_65:\n        /* \"#utility.yul\":5367:5373   */\n      0x00\n        /* \"#utility.yul\":5375:5381   */\n      dup1\n        /* \"#utility.yul\":5383:5389   */\n      0x00\n        /* \"#utility.yul\":5432:5434   */\n      0x60\n        /* \"#utility.yul\":5420:5429   */\n      dup5\n        /* \"#utility.yul\":5411:5418   */\n      dup7\n        /* \"#utility.yul\":5407:5430   */\n      sub\n        /* \"#utility.yul\":5403:5435   */\n      slt\n        /* \"#utility.yul\":5400:5519   */\n      iszero\n      tag_516\n      jumpi\n        /* \"#utility.yul\":5438:5517   */\n      tag_517\n      tag_398\n      jump\t// in\n    tag_517:\n        /* \"#utility.yul\":5400:5519   */\n    tag_516:\n        /* \"#utility.yul\":5558:5559   */\n      0x00\n        /* \"#utility.yul\":5583:5636   */\n      tag_518\n        /* \"#utility.yul\":5628:5635   */\n      dup7\n        /* \"#utility.yul\":5619:5625   */\n      dup3\n        /* \"#utility.yul\":5608:5617   */\n      dup8\n        /* \"#utility.yul\":5604:5626   */\n      add\n        /* \"#utility.yul\":5583:5636   */\n      tag_417\n      jump\t// in\n    tag_518:\n        /* \"#utility.yul\":5573:5636   */\n      swap4\n      pop\n        /* \"#utility.yul\":5529:5646   */\n      pop\n        /* \"#utility.yul\":5685:5687   */\n      0x20\n        /* \"#utility.yul\":5711:5764   */\n      tag_519\n        /* \"#utility.yul\":5756:5763   */\n      dup7\n        /* \"#utility.yul\":5747:5753   */\n      dup3\n        /* \"#utility.yul\":5736:5745   */\n      dup8\n        /* \"#utility.yul\":5732:5754   */\n      add\n        /* \"#utility.yul\":5711:5764   */\n      tag_417\n      jump\t// in\n    tag_519:\n        /* \"#utility.yul\":5701:5764   */\n      swap3\n      pop\n        /* \"#utility.yul\":5656:5774   */\n      pop\n        /* \"#utility.yul\":5813:5815   */\n      0x40\n        /* \"#utility.yul\":5839:5892   */\n      tag_520\n        /* \"#utility.yul\":5884:5891   */\n      dup7\n        /* \"#utility.yul\":5875:5881   */\n      dup3\n        /* \"#utility.yul\":5864:5873   */\n      dup8\n        /* \"#utility.yul\":5860:5882   */\n      add\n        /* \"#utility.yul\":5839:5892   */\n      tag_412\n      jump\t// in\n    tag_520:\n        /* \"#utility.yul\":5829:5892   */\n      swap2\n      pop\n        /* \"#utility.yul\":5784:5902   */\n      pop\n        /* \"#utility.yul\":5290:5909   */\n      swap3\n      pop\n      swap3\n      pop\n      swap3\n      jump\t// out\n        /* \"#utility.yul\":5915:6032   */\n    tag_419:\n        /* \"#utility.yul\":6024:6025   */\n      0x00\n        /* \"#utility.yul\":6021:6022   */\n      dup1\n        /* \"#utility.yul\":6014:6026   */\n      revert\n        /* \"#utility.yul\":6038:6155   */\n    tag_420:\n        /* \"#utility.yul\":6147:6148   */\n      0x00\n        /* \"#utility.yul\":6144:6145   */\n      dup1\n        /* \"#utility.yul\":6137:6149   */\n      revert\n        /* \"#utility.yul\":6161:6278   */\n    tag_421:\n        /* \"#utility.yul\":6270:6271   */\n      0x00\n        /* \"#utility.yul\":6267:6268   */\n      dup1\n        /* \"#utility.yul\":6260:6272   */\n      revert\n        /* \"#utility.yul\":6298:6851   */\n    tag_422:\n        /* \"#utility.yul\":6356:6364   */\n      0x00\n        /* \"#utility.yul\":6366:6372   */\n      dup1\n        /* \"#utility.yul\":6416:6419   */\n      dup4\n        /* \"#utility.yul\":6409:6413   */\n      0x1f\n        /* \"#utility.yul\":6401:6407   */\n      dup5\n        /* \"#utility.yul\":6397:6414   */\n      add\n        /* \"#utility.yul\":6393:6420   */\n      slt\n        /* \"#utility.yul\":6383:6505   */\n      tag_525\n      jumpi\n        /* \"#utility.yul\":6424:6503   */\n      tag_526\n      tag_419\n      jump\t// in\n    tag_526:\n        /* \"#utility.yul\":6383:6505   */\n    tag_525:\n        /* \"#utility.yul\":6537:6543   */\n      dup3\n        /* \"#utility.yul\":6524:6544   */\n      calldataload\n        /* \"#utility.yul\":6514:6544   */\n      swap1\n      pop\n        /* \"#utility.yul\":6567:6585   */\n      0xffffffffffffffff\n        /* \"#utility.yul\":6559:6565   */\n      dup2\n        /* \"#utility.yul\":6556:6586   */\n      gt\n        /* \"#utility.yul\":6553:6670   */\n      iszero\n      tag_527\n      jumpi\n        /* \"#utility.yul\":6589:6668   */\n      tag_528\n      tag_420\n      jump\t// in\n    tag_528:\n        /* \"#utility.yul\":6553:6670   */\n    tag_527:\n        /* \"#utility.yul\":6703:6707   */\n      0x20\n        /* \"#utility.yul\":6695:6701   */\n      dup4\n        /* \"#utility.yul\":6691:6708   */\n      add\n        /* \"#utility.yul\":6679:6708   */\n      swap2\n      pop\n        /* \"#utility.yul\":6757:6760   */\n      dup4\n        /* \"#utility.yul\":6749:6753   */\n      0x01\n        /* \"#utility.yul\":6741:6747   */\n      dup3\n        /* \"#utility.yul\":6737:6754   */\n      mul\n        /* \"#utility.yul\":6727:6735   */\n      dup4\n        /* \"#utility.yul\":6723:6755   */\n      add\n        /* \"#utility.yul\":6720:6761   */\n      gt\n        /* \"#utility.yul\":6717:6845   */\n      iszero\n      tag_529\n      jumpi\n        /* \"#utility.yul\":6764:6843   */\n      tag_530\n      tag_421\n      jump\t// in\n    tag_530:\n        /* \"#utility.yul\":6717:6845   */\n    tag_529:\n        /* \"#utility.yul\":6298:6851   */\n      swap3\n      pop\n      swap3\n      swap1\n      pop\n      jump\t// out\n        /* \"#utility.yul\":6857:7386   */\n    tag_78:\n        /* \"#utility.yul\":6928:6934   */\n      0x00\n        /* \"#utility.yul\":6936:6942   */\n      dup1\n        /* \"#utility.yul\":6985:6987   */\n      0x20\n        /* \"#utility.yul\":6973:6982   */\n      dup4\n        /* \"#utility.yul\":6964:6971   */\n      dup6\n        /* \"#utility.yul\":6960:6983   */\n      sub\n        /* \"#utility.yul\":6956:6988   */\n      slt\n        /* \"#utility.yul\":6953:7072   */\n      iszero\n      tag_532\n      jumpi\n        /* \"#utility.yul\":6991:7070   */\n      tag_533\n      tag_398\n      jump\t// in\n    tag_533:\n        /* \"#utility.yul\":6953:7072   */\n    tag_532:\n        /* \"#utility.yul\":7139:7140   */\n      0x00\n        /* \"#utility.yul\":7128:7137   */\n      dup4\n        /* \"#utility.yul\":7124:7141   */\n      add\n        /* \"#utility.yul\":7111:7142   */\n      calldataload\n        /* \"#utility.yul\":7169:7187   */\n      0xffffffffffffffff\n        /* \"#utility.yul\":7161:7167   */\n      dup2\n        /* \"#utility.yul\":7158:7188   */\n      gt\n        /* \"#utility.yul\":7155:7272   */\n      iszero\n      tag_534\n      jumpi\n        /* \"#utility.yul\":7191:7270   */\n      tag_535\n      tag_399\n      jump\t// in\n    tag_535:\n        /* \"#utility.yul\":7155:7272   */\n    tag_534:\n        /* \"#utility.yul\":7304:7369   */\n      tag_536\n        /* \"#utility.yul\":7361:7368   */\n      dup6\n        /* \"#utility.yul\":7352:7358   */\n      dup3\n        /* \"#utility.yul\":7341:7350   */\n      dup7\n        /* \"#utility.yul\":7337:7359   */\n      add\n        /* \"#utility.yul\":7304:7369   */\n      tag_422\n      jump\t// in\n    tag_536:\n        /* \"#utility.yul\":7286:7369   */\n      swap3\n      pop\n      swap3\n      pop\n        /* \"#utility.yul\":7082:7379   */\n      pop\n        /* \"#utility.yul\":6857:7386   */\n      swap3\n      pop\n      swap3\n      swap1\n      pop\n      jump\t// out\n        /* \"#utility.yul\":7392:7721   */\n    tag_88:\n        /* \"#utility.yul\":7451:7457   */\n      0x00\n        /* \"#utility.yul\":7500:7502   */\n      0x20\n        /* \"#utility.yul\":7488:7497   */\n      dup3\n        /* \"#utility.yul\":7479:7486   */\n      dup5\n        /* \"#utility.yul\":7475:7498   */\n      sub\n        /* \"#utility.yul\":7471:7503   */\n      slt\n        /* \"#utility.yul\":7468:7587   */\n      iszero\n      tag_538\n      jumpi\n        /* \"#utility.yul\":7506:7585   */\n      tag_539\n      tag_398\n      jump\t// in\n    tag_539:\n        /* \"#utility.yul\":7468:7587   */\n    tag_538:\n        /* \"#utility.yul\":7626:7627   */\n      0x00\n        /* \"#utility.yul\":7651:7704   */\n      tag_540\n        /* \"#utility.yul\":7696:7703   */\n      dup5\n        /* \"#utility.yul\":7687:7693   */\n      dup3\n        /* \"#utility.yul\":7676:7685   */\n      dup6\n        /* \"#utility.yul\":7672:7694   */\n      add\n        /* \"#utility.yul\":7651:7704   */\n      tag_417\n      jump\t// in\n    tag_540:\n        /* \"#utility.yul\":7641:7704   */\n      swap2\n      pop\n        /* \"#utility.yul\":7597:7714   */\n      pop\n        /* \"#utility.yul\":7392:7721   */\n      swap3\n      swap2\n      pop\n      pop\n      jump\t// out\n        /* \"#utility.yul\":7727:7907   */\n    tag_423:\n        /* \"#utility.yul\":7775:7852   */\n      0x4e487b7100000000000000000000000000000000000000000000000000000000\n        /* \"#utility.yul\":7772:7773   */\n      0x00\n        /* \"#utility.yul\":7765:7853   */\n      mstore\n        /* \"#utility.yul\":7872:7876   */\n      0x41\n        /* \"#utility.yul\":7869:7870   */\n      0x04\n        /* \"#utility.yul\":7862:7877   */\n      mstore\n        /* \"#utility.yul\":7896:7900   */\n      0x24\n        /* \"#utility.yul\":7893:7894   */\n      0x00\n        /* \"#utility.yul\":7886:7901   */\n      revert\n        /* \"#utility.yul\":7913:8194   */\n    tag_424:\n        /* \"#utility.yul\":7996:8023   */\n      tag_543\n        /* \"#utility.yul\":8018:8022   */\n      dup3\n        /* \"#utility.yul\":7996:8023   */\n      tag_408\n      jump\t// in\n    tag_543:\n        /* \"#utility.yul\":7988:7994   */\n      dup2\n        /* \"#utility.yul\":7984:8024   */\n      add\n        /* \"#utility.yul\":8126:8132   */\n      dup2\n        /* \"#utility.yul\":8114:8124   */\n      dup2\n        /* \"#utility.yul\":8111:8133   */\n      lt\n        /* \"#utility.yul\":8090:8108   */\n      0xffffffffffffffff\n        /* \"#utility.yul\":8078:8088   */\n      dup3\n        /* \"#utility.yul\":8075:8109   */\n      gt\n        /* \"#utility.yul\":8072:8134   */\n      or\n        /* \"#utility.yul\":8069:8157   */\n      iszero\n      tag_544\n      jumpi\n        /* \"#utility.yul\":8137:8155   */\n      tag_545\n      tag_423\n      jump\t// in\n    tag_545:\n        /* \"#utility.yul\":8069:8157   */\n    tag_544:\n        /* \"#utility.yul\":8177:8187   */\n      dup1\n        /* \"#utility.yul\":8173:8175   */\n      0x40\n        /* \"#utility.yul\":8166:8188   */\n      mstore\n        /* \"#utility.yul\":7956:8194   */\n      pop\n        /* \"#utility.yul\":7913:8194   */\n      pop\n      pop\n      jump\t// out\n        /* \"#utility.yul\":8200:8329   */\n    tag_425:\n        /* \"#utility.yul\":8234:8240   */\n      0x00\n        /* \"#utility.yul\":8261:8281   */\n      tag_547\n      tag_397\n      jump\t// in\n    tag_547:\n        /* \"#utility.yul\":8251:8281   */\n      swap1\n      pop\n        /* \"#utility.yul\":8290:8323   */\n      tag_548\n        /* \"#utility.yul\":8318:8322   */\n      dup3\n        /* \"#utility.yul\":8310:8316   */\n      dup3\n        /* \"#utility.yul\":8290:8323   */\n      tag_424\n      jump\t// in\n    tag_548:\n        /* \"#utility.yul\":8200:8329   */\n      swap2\n      swap1\n      pop\n      jump\t// out\n        /* \"#utility.yul\":8335:8646   */\n    tag_426:\n        /* \"#utility.yul\":8412:8416   */\n      0x00\n        /* \"#utility.yul\":8502:8520   */\n      0xffffffffffffffff\n        /* \"#utility.yul\":8494:8500   */\n      dup3\n        /* \"#utility.yul\":8491:8521   */\n      gt\n        /* \"#utility.yul\":8488:8544   */\n      iszero\n      tag_550\n      jumpi\n        /* \"#utility.yul\":8524:8542   */\n      tag_551\n      tag_423\n      jump\t// in\n    tag_551:\n        /* \"#utility.yul\":8488:8544   */\n    tag_550:\n        /* \"#utility.yul\":8574:8578   */\n      0x20\n        /* \"#utility.yul\":8566:8572   */\n      dup3\n        /* \"#utility.yul\":8562:8579   */\n      mul\n        /* \"#utility.yul\":8554:8579   */\n      swap1\n      pop\n        /* \"#utility.yul\":8634:8638   */\n      0x20\n        /* \"#utility.yul\":8628:8632   */\n      dup2\n        /* \"#utility.yul\":8624:8639   */\n      add\n        /* \"#utility.yul\":8616:8639   */\n      swap1\n      pop\n        /* \"#utility.yul\":8335:8646   */\n      swap2\n      swap1\n      pop\n      jump\t// out\n        /* \"#utility.yul\":8669:9379   */\n    tag_427:\n        /* \"#utility.yul\":8765:8770   */\n      0x00\n        /* \"#utility.yul\":8790:8871   */\n      tag_553\n        /* \"#utility.yul\":8806:8870   */\n      tag_554\n        /* \"#utility.yul\":8863:8869   */\n      dup5\n        /* \"#utility.yul\":8806:8870   */\n      tag_426\n      jump\t// in\n    tag_554:\n        /* \"#utility.yul\":8790:8871   */\n      tag_425\n      jump\t// in\n    tag_553:\n        /* \"#utility.yul\":8781:8871   */\n      swap1\n      pop\n        /* \"#utility.yul\":8891:8896   */\n      dup1\n        /* \"#utility.yul\":8920:8926   */\n      dup4\n        /* \"#utility.yul\":8913:8918   */\n      dup3\n        /* \"#utility.yul\":8906:8927   */\n      mstore\n        /* \"#utility.yul\":8954:8958   */\n      0x20\n        /* \"#utility.yul\":8947:8952   */\n      dup3\n        /* \"#utility.yul\":8943:8959   */\n      add\n        /* \"#utility.yul\":8936:8959   */\n      swap1\n      pop\n        /* \"#utility.yul\":9007:9011   */\n      0x20\n        /* \"#utility.yul\":8999:9005   */\n      dup5\n        /* \"#utility.yul\":8995:9012   */\n      mul\n        /* \"#utility.yul\":8987:8993   */\n      dup4\n        /* \"#utility.yul\":8983:9013   */\n      add\n        /* \"#utility.yul\":9036:9039   */\n      dup6\n        /* \"#utility.yul\":9028:9034   */\n      dup2\n        /* \"#utility.yul\":9025:9040   */\n      gt\n        /* \"#utility.yul\":9022:9144   */\n      iszero\n      tag_555\n      jumpi\n        /* \"#utility.yul\":9055:9134   */\n      tag_556\n      tag_421\n      jump\t// in\n    tag_556:\n        /* \"#utility.yul\":9022:9144   */\n    tag_555:\n        /* \"#utility.yul\":9170:9176   */\n      dup4\n        /* \"#utility.yul\":9153:9373   */\n    tag_557:\n        /* \"#utility.yul\":9187:9193   */\n      dup2\n        /* \"#utility.yul\":9182:9185   */\n      dup2\n        /* \"#utility.yul\":9179:9194   */\n      lt\n        /* \"#utility.yul\":9153:9373   */\n      iszero\n      tag_559\n      jumpi\n        /* \"#utility.yul\":9262:9265   */\n      dup1\n        /* \"#utility.yul\":9291:9328   */\n      tag_560\n        /* \"#utility.yul\":9324:9327   */\n      dup9\n        /* \"#utility.yul\":9312:9322   */\n      dup3\n        /* \"#utility.yul\":9291:9328   */\n      tag_412\n      jump\t// in\n    tag_560:\n        /* \"#utility.yul\":9286:9289   */\n      dup5\n        /* \"#utility.yul\":9279:9329   */\n      mstore\n        /* \"#utility.yul\":9358:9362   */\n      0x20\n        /* \"#utility.yul\":9353:9356   */\n      dup5\n        /* \"#utility.yul\":9349:9363   */\n      add\n        /* \"#utility.yul\":9342:9363   */\n      swap4\n      pop\n        /* \"#utility.yul\":9229:9373   */\n      pop\n        /* \"#utility.yul\":9213:9217   */\n      0x20\n        /* \"#utility.yul\":9208:9211   */\n      dup2\n        /* \"#utility.yul\":9204:9218   */\n      add\n        /* \"#utility.yul\":9197:9218   */\n      swap1\n      pop\n        /* \"#utility.yul\":9153:9373   */\n      jump(tag_557)\n    tag_559:\n        /* \"#utility.yul\":9157:9178   */\n      pop\n        /* \"#utility.yul\":8771:9379   */\n      pop\n      pop\n        /* \"#utility.yul\":8669:9379   */\n      swap4\n      swap3\n      pop\n      pop\n      pop\n      jump\t// out\n        /* \"#utility.yul\":9402:9772   */\n    tag_428:\n        /* \"#utility.yul\":9473:9478   */\n      0x00\n        /* \"#utility.yul\":9522:9525   */\n      dup3\n        /* \"#utility.yul\":9515:9519   */\n      0x1f\n        /* \"#utility.yul\":9507:9513   */\n      dup4\n        /* \"#utility.yul\":9503:9520   */\n      add\n        /* \"#utility.yul\":9499:9526   */\n      slt\n        /* \"#utility.yul\":9489:9611   */\n      tag_562\n      jumpi\n        /* \"#utility.yul\":9530:9609   */\n      tag_563\n      tag_419\n      jump\t// in\n    tag_563:\n        /* \"#utility.yul\":9489:9611   */\n    tag_562:\n        /* \"#utility.yul\":9647:9653   */\n      dup2\n        /* \"#utility.yul\":9634:9654   */\n      calldataload\n        /* \"#utility.yul\":9672:9766   */\n      tag_564\n        /* \"#utility.yul\":9762:9765   */\n      dup5\n        /* \"#utility.yul\":9754:9760   */\n      dup3\n        /* \"#utility.yul\":9747:9751   */\n      0x20\n        /* \"#utility.yul\":9739:9745   */\n      dup7\n        /* \"#utility.yul\":9735:9752   */\n      add\n        /* \"#utility.yul\":9672:9766   */\n      tag_427\n      jump\t// in\n    tag_564:\n        /* \"#utility.yul\":9663:9766   */\n      swap2\n      pop\n        /* \"#utility.yul\":9479:9772   */\n      pop\n        /* \"#utility.yul\":9402:9772   */\n      swap3\n      swap2\n      pop\n      pop\n      jump\t// out\n        /* \"#utility.yul\":9778:10317   */\n    tag_101:\n        /* \"#utility.yul\":9862:9868   */\n      0x00\n        /* \"#utility.yul\":9911:9913   */\n      0x20\n        /* \"#utility.yul\":9899:9908   */\n      dup3\n        /* \"#utility.yul\":9890:9897   */\n      dup5\n        /* \"#utility.yul\":9886:9909   */\n      sub\n        /* \"#utility.yul\":9882:9914   */\n      slt\n        /* \"#utility.yul\":9879:9998   */\n      iszero\n      tag_566\n      jumpi\n        /* \"#utility.yul\":9917:9996   */\n      tag_567\n      tag_398\n      jump\t// in\n    tag_567:\n        /* \"#utility.yul\":9879:9998   */\n    tag_566:\n        /* \"#utility.yul\":10065:10066   */\n      0x00\n        /* \"#utility.yul\":10054:10063   */\n      dup3\n        /* \"#utility.yul\":10050:10067   */\n      add\n        /* \"#utility.yul\":10037:10068   */\n      calldataload\n        /* \"#utility.yul\":10095:10113   */\n      0xffffffffffffffff\n        /* \"#utility.yul\":10087:10093   */\n      dup2\n        /* \"#utility.yul\":10084:10114   */\n      gt\n        /* \"#utility.yul\":10081:10198   */\n      iszero\n      tag_568\n      jumpi\n        /* \"#utility.yul\":10117:10196   */\n      tag_569\n      tag_399\n      jump\t// in\n    tag_569:\n        /* \"#utility.yul\":10081:10198   */\n    tag_568:\n        /* \"#utility.yul\":10222:10300   */\n      tag_570\n        /* \"#utility.yul\":10292:10299   */\n      dup5\n        /* \"#utility.yul\":10283:10289   */\n      dup3\n        /* \"#utility.yul\":10272:10281   */\n      dup6\n        /* \"#utility.yul\":10268:10290   */\n      add\n        /* \"#utility.yul\":10222:10300   */\n      tag_428\n      jump\t// in\n    tag_570:\n        /* \"#utility.yul\":10212:10300   */\n      swap2\n      pop\n        /* \"#utility.yul\":10008:10310   */\n      pop\n        /* \"#utility.yul\":9778:10317   */\n      swap3\n      swap2\n      pop\n      pop\n      jump\t// out\n        /* \"#utility.yul\":10323:10439   */\n    tag_429:\n        /* \"#utility.yul\":10393:10414   */\n      tag_572\n        /* \"#utility.yul\":10408:10413   */\n      dup2\n        /* \"#utility.yul\":10393:10414   */\n      tag_403\n      jump\t// in\n    tag_572:\n        /* \"#utility.yul\":10386:10391   */\n      dup2\n        /* \"#utility.yul\":10383:10415   */\n      eq\n        /* \"#utility.yul\":10373:10433   */\n      tag_573\n      jumpi\n        /* \"#utility.yul\":10429:10430   */\n      0x00\n        /* \"#utility.yul\":10426:10427   */\n      dup1\n        /* \"#utility.yul\":10419:10431   */\n      revert\n        /* \"#utility.yul\":10373:10433   */\n    tag_573:\n        /* \"#utility.yul\":10323:10439   */\n      pop\n      jump\t// out\n        /* \"#utility.yul\":10445:10578   */\n    tag_430:\n        /* \"#utility.yul\":10488:10493   */\n      0x00\n        /* \"#utility.yul\":10526:10532   */\n      dup2\n        /* \"#utility.yul\":10513:10533   */\n      calldataload\n        /* \"#utility.yul\":10504:10533   */\n      swap1\n      pop\n        /* \"#utility.yul\":10542:10572   */\n      tag_575\n        /* \"#utility.yul\":10566:10571   */\n      dup2\n        /* \"#utility.yul\":10542:10572   */\n      tag_429\n      jump\t// in\n    tag_575:\n        /* \"#utility.yul\":10445:10578   */\n      swap3\n      swap2\n      pop\n      pop\n      jump\t// out\n        /* \"#utility.yul\":10584:11052   */\n    tag_114:\n        /* \"#utility.yul\":10649:10655   */\n      0x00\n        /* \"#utility.yul\":10657:10663   */\n      dup1\n        /* \"#utility.yul\":10706:10708   */\n      0x40\n        /* \"#utility.yul\":10694:10703   */\n      dup4\n        /* \"#utility.yul\":10685:10692   */\n      dup6\n        /* \"#utility.yul\":10681:10704   */\n      sub\n        /* \"#utility.yul\":10677:10709   */\n      slt\n        /* \"#utility.yul\":10674:10793   */\n      iszero\n      tag_577\n      jumpi\n        /* \"#utility.yul\":10712:10791   */\n      tag_578\n      tag_398\n      jump\t// in\n    tag_578:\n        /* \"#utility.yul\":10674:10793   */\n    tag_577:\n        /* \"#utility.yul\":10832:10833   */\n      0x00\n        /* \"#utility.yul\":10857:10910   */\n      tag_579\n        /* \"#utility.yul\":10902:10909   */\n      dup6\n        /* \"#utility.yul\":10893:10899   */\n      dup3\n        /* \"#utility.yul\":10882:10891   */\n      dup7\n        /* \"#utility.yul\":10878:10900   */\n      add\n        /* \"#utility.yul\":10857:10910   */\n      tag_417\n      jump\t// in\n    tag_579:\n        /* \"#utility.yul\":10847:10910   */\n      swap3\n      pop\n        /* \"#utility.yul\":10803:10920   */\n      pop\n        /* \"#utility.yul\":10959:10961   */\n      0x20\n        /* \"#utility.yul\":10985:11035   */\n      tag_580\n        /* \"#utility.yul\":11027:11034   */\n      dup6\n        /* \"#utility.yul\":11018:11024   */\n      dup3\n        /* \"#utility.yul\":11007:11016   */\n      dup7\n        /* \"#utility.yul\":11003:11025   */\n      add\n        /* \"#utility.yul\":10985:11035   */\n      tag_430\n      jump\t// in\n    tag_580:\n        /* \"#utility.yul\":10975:11035   */\n      swap2\n      pop\n        /* \"#utility.yul\":10930:11045   */\n      pop\n        /* \"#utility.yul\":10584:11052   */\n      swap3\n      pop\n      swap3\n      swap1\n      pop\n      jump\t// out\n        /* \"#utility.yul\":11058:11175   */\n    tag_431:\n        /* \"#utility.yul\":11167:11168   */\n      0x00\n        /* \"#utility.yul\":11164:11165   */\n      dup1\n        /* \"#utility.yul\":11157:11169   */\n      revert\n        /* \"#utility.yul\":11181:11488   */\n    tag_432:\n        /* \"#utility.yul\":11242:11246   */\n      0x00\n        /* \"#utility.yul\":11332:11350   */\n      0xffffffffffffffff\n        /* \"#utility.yul\":11324:11330   */\n      dup3\n        /* \"#utility.yul\":11321:11351   */\n      gt\n        /* \"#utility.yul\":11318:11374   */\n      iszero\n      tag_583\n      jumpi\n        /* \"#utility.yul\":11354:11372   */\n      tag_584\n      tag_423\n      jump\t// in\n    tag_584:\n        /* \"#utility.yul\":11318:11374   */\n    tag_583:\n        /* \"#utility.yul\":11392:11421   */\n      tag_585\n        /* \"#utility.yul\":11414:11420   */\n      dup3\n        /* \"#utility.yul\":11392:11421   */\n      tag_408\n      jump\t// in\n    tag_585:\n        /* \"#utility.yul\":11384:11421   */\n      swap1\n      pop\n        /* \"#utility.yul\":11476:11480   */\n      0x20\n        /* \"#utility.yul\":11470:11474   */\n      dup2\n        /* \"#utility.yul\":11466:11481   */\n      add\n        /* \"#utility.yul\":11458:11481   */\n      swap1\n      pop\n        /* \"#utility.yul\":11181:11488   */\n      swap2\n      swap1\n      pop\n      jump\t// out\n        /* \"#utility.yul\":11494:11648   */\n    tag_433:\n        /* \"#utility.yul\":11578:11584   */\n      dup3\n        /* \"#utility.yul\":11573:11576   */\n      dup2\n        /* \"#utility.yul\":11568:11571   */\n      dup4\n        /* \"#utility.yul\":11555:11585   */\n      calldatacopy\n        /* \"#utility.yul\":11640:11641   */\n      0x00\n        /* \"#utility.yul\":11631:11637   */\n      dup4\n        /* \"#utility.yul\":11626:11629   */\n      dup4\n        /* \"#utility.yul\":11622:11638   */\n      add\n        /* \"#utility.yul\":11615:11642   */\n      mstore\n        /* \"#utility.yul\":11494:11648   */\n      pop\n      pop\n      pop\n      jump\t// out\n        /* \"#utility.yul\":11654:12064   */\n    tag_434:\n        /* \"#utility.yul\":11731:11736   */\n      0x00\n        /* \"#utility.yul\":11756:11821   */\n      tag_588\n        /* \"#utility.yul\":11772:11820   */\n      tag_589\n        /* \"#utility.yul\":11813:11819   */\n      dup5\n        /* \"#utility.yul\":11772:11820   */\n      tag_432\n      jump\t// in\n    tag_589:\n        /* \"#utility.yul\":11756:11821   */\n      tag_425\n      jump\t// in\n    tag_588:\n        /* \"#utility.yul\":11747:11821   */\n      swap1\n      pop\n        /* \"#utility.yul\":11844:11850   */\n      dup3\n        /* \"#utility.yul\":11837:11842   */\n      dup2\n        /* \"#utility.yul\":11830:11851   */\n      mstore\n        /* \"#utility.yul\":11882:11886   */\n      0x20\n        /* \"#utility.yul\":11875:11880   */\n      dup2\n        /* \"#utility.yul\":11871:11887   */\n      add\n        /* \"#utility.yul\":11920:11923   */\n      dup5\n        /* \"#utility.yul\":11911:11917   */\n      dup5\n        /* \"#utility.yul\":11906:11909   */\n      dup5\n        /* \"#utility.yul\":11902:11918   */\n      add\n        /* \"#utility.yul\":11899:11924   */\n      gt\n        /* \"#utility.yul\":11896:12008   */\n      iszero\n      tag_590\n      jumpi\n        /* \"#utility.yul\":11927:12006   */\n      tag_591\n      tag_431\n      jump\t// in\n    tag_591:\n        /* \"#utility.yul\":11896:12008   */\n    tag_590:\n        /* \"#utility.yul\":12017:12058   */\n      tag_592\n        /* \"#utility.yul\":12051:12057   */\n      dup5\n        /* \"#utility.yul\":12046:12049   */\n      dup3\n        /* \"#utility.yul\":12041:12044   */\n      dup6\n        /* \"#utility.yul\":12017:12058   */\n      tag_433\n      jump\t// in\n    tag_592:\n        /* \"#utility.yul\":11737:12064   */\n      pop\n        /* \"#utility.yul\":11654:12064   */\n      swap4\n      swap3\n      pop\n      pop\n      pop\n      jump\t// out\n        /* \"#utility.yul\":12083:12421   */\n    tag_435:\n        /* \"#utility.yul\":12138:12143   */\n      0x00\n        /* \"#utility.yul\":12187:12190   */\n      dup3\n        /* \"#utility.yul\":12180:12184   */\n      0x1f\n        /* \"#utility.yul\":12172:12178   */\n      dup4\n        /* \"#utility.yul\":12168:12185   */\n      add\n        /* \"#utility.yul\":12164:12191   */\n      slt\n        /* \"#utility.yul\":12154:12276   */\n      tag_594\n      jumpi\n        /* \"#utility.yul\":12195:12274   */\n      tag_595\n      tag_419\n      jump\t// in\n    tag_595:\n        /* \"#utility.yul\":12154:12276   */\n    tag_594:\n        /* \"#utility.yul\":12312:12318   */\n      dup2\n        /* \"#utility.yul\":12299:12319   */\n      calldataload\n        /* \"#utility.yul\":12337:12415   */\n      tag_596\n        /* \"#utility.yul\":12411:12414   */\n      dup5\n        /* \"#utility.yul\":12403:12409   */\n      dup3\n        /* \"#utility.yul\":12396:12400   */\n      0x20\n        /* \"#utility.yul\":12388:12394   */\n      dup7\n        /* \"#utility.yul\":12384:12401   */\n      add\n        /* \"#utility.yul\":12337:12415   */\n      tag_434\n      jump\t// in\n    tag_596:\n        /* \"#utility.yul\":12328:12415   */\n      swap2\n      pop\n        /* \"#utility.yul\":12144:12421   */\n      pop\n        /* \"#utility.yul\":12083:12421   */\n      swap3\n      swap2\n      pop\n      pop\n      jump\t// out\n        /* \"#utility.yul\":12427:13370   */\n    tag_128:\n        /* \"#utility.yul\":12522:12528   */\n      0x00\n        /* \"#utility.yul\":12530:12536   */\n      dup1\n        /* \"#utility.yul\":12538:12544   */\n      0x00\n        /* \"#utility.yul\":12546:12552   */\n      dup1\n        /* \"#utility.yul\":12595:12598   */\n      0x80\n        /* \"#utility.yul\":12583:12592   */\n      dup6\n        /* \"#utility.yul\":12574:12581   */\n      dup8\n        /* \"#utility.yul\":12570:12593   */\n      sub\n        /* \"#utility.yul\":12566:12599   */\n      slt\n        /* \"#utility.yul\":12563:12683   */\n      iszero\n      tag_598\n      jumpi\n        /* \"#utility.yul\":12602:12681   */\n      tag_599\n      tag_398\n      jump\t// in\n    tag_599:\n        /* \"#utility.yul\":12563:12683   */\n    tag_598:\n        /* \"#utility.yul\":12722:12723   */\n      0x00\n        /* \"#utility.yul\":12747:12800   */\n      tag_600\n        /* \"#utility.yul\":12792:12799   */\n      dup8\n        /* \"#utility.yul\":12783:12789   */\n      dup3\n        /* \"#utility.yul\":12772:12781   */\n      dup9\n        /* \"#utility.yul\":12768:12790   */\n      add\n        /* \"#utility.yul\":12747:12800   */\n      tag_417\n      jump\t// in\n    tag_600:\n        /* \"#utility.yul\":12737:12800   */\n      swap5\n      pop\n        /* \"#utility.yul\":12693:12810   */\n      pop\n        /* \"#utility.yul\":12849:12851   */\n      0x20\n        /* \"#utility.yul\":12875:12928   */\n      tag_601\n        /* \"#utility.yul\":12920:12927   */\n      dup8\n        /* \"#utility.yul\":12911:12917   */\n      dup3\n        /* \"#utility.yul\":12900:12909   */\n      dup9\n        /* \"#utility.yul\":12896:12918   */\n      add\n        /* \"#utility.yul\":12875:12928   */\n      tag_417\n      jump\t// in\n    tag_601:\n        /* \"#utility.yul\":12865:12928   */\n      swap4\n      pop\n        /* \"#utility.yul\":12820:12938   */\n      pop\n        /* \"#utility.yul\":12977:12979   */\n      0x40\n        /* \"#utility.yul\":13003:13056   */\n      tag_602\n        /* \"#utility.yul\":13048:13055   */\n      dup8\n        /* \"#utility.yul\":13039:13045   */\n      dup3\n        /* \"#utility.yul\":13028:13037   */\n      dup9\n        /* \"#utility.yul\":13024:13046   */\n      add\n        /* \"#utility.yul\":13003:13056   */\n      tag_412\n      jump\t// in\n    tag_602:\n        /* \"#utility.yul\":12993:13056   */\n      swap3\n      pop\n        /* \"#utility.yul\":12948:13066   */\n      pop\n        /* \"#utility.yul\":13133:13135   */\n      0x60\n        /* \"#utility.yul\":13122:13131   */\n      dup6\n        /* \"#utility.yul\":13118:13136   */\n      add\n        /* \"#utility.yul\":13105:13137   */\n      calldataload\n        /* \"#utility.yul\":13164:13182   */\n      0xffffffffffffffff\n        /* \"#utility.yul\":13156:13162   */\n      dup2\n        /* \"#utility.yul\":13153:13183   */\n      gt\n        /* \"#utility.yul\":13150:13267   */\n      iszero\n      tag_603\n      jumpi\n        /* \"#utility.yul\":13186:13265   */\n      tag_604\n      tag_399\n      jump\t// in\n    tag_604:\n        /* \"#utility.yul\":13150:13267   */\n    tag_603:\n        /* \"#utility.yul\":13291:13353   */\n      tag_605\n        /* \"#utility.yul\":13345:13352   */\n      dup8\n        /* \"#utility.yul\":13336:13342   */\n      dup3\n        /* \"#utility.yul\":13325:13334   */\n      dup9\n        /* \"#utility.yul\":13321:13343   */\n      add\n        /* \"#utility.yul\":13291:13353   */\n      tag_435\n      jump\t// in\n    tag_605:\n        /* \"#utility.yul\":13281:13353   */\n      swap2\n      pop\n        /* \"#utility.yul\":13076:13363   */\n      pop\n        /* \"#utility.yul\":12427:13370   */\n      swap3\n      swap6\n      swap2\n      swap5\n      pop\n      swap3\n      pop\n      jump\t// out\n        /* \"#utility.yul\":13376:13850   */\n    tag_142:\n        /* \"#utility.yul\":13444:13450   */\n      0x00\n        /* \"#utility.yul\":13452:13458   */\n      dup1\n        /* \"#utility.yul\":13501:13503   */\n      0x40\n        /* \"#utility.yul\":13489:13498   */\n      dup4\n        /* \"#utility.yul\":13480:13487   */\n      dup6\n        /* \"#utility.yul\":13476:13499   */\n      sub\n        /* \"#utility.yul\":13472:13504   */\n      slt\n        /* \"#utility.yul\":13469:13588   */\n      iszero\n      tag_607\n      jumpi\n        /* \"#utility.yul\":13507:13586   */\n      tag_608\n      tag_398\n      jump\t// in\n    tag_608:\n        /* \"#utility.yul\":13469:13588   */\n    tag_607:\n        /* \"#utility.yul\":13627:13628   */\n      0x00\n        /* \"#utility.yul\":13652:13705   */\n      tag_609\n        /* \"#utility.yul\":13697:13704   */\n      dup6\n        /* \"#utility.yul\":13688:13694   */\n      dup3\n        /* \"#utility.yul\":13677:13686   */\n      dup7\n        /* \"#utility.yul\":13673:13695   */\n      add\n        /* \"#utility.yul\":13652:13705   */\n      tag_417\n      jump\t// in\n    tag_609:\n        /* \"#utility.yul\":13642:13705   */\n      swap3\n      pop\n        /* \"#utility.yul\":13598:13715   */\n      pop\n        /* \"#utility.yul\":13754:13756   */\n      0x20\n        /* \"#utility.yul\":13780:13833   */\n      tag_610\n        /* \"#utility.yul\":13825:13832   */\n      dup6\n        /* \"#utility.yul\":13816:13822   */\n      dup3\n        /* \"#utility.yul\":13805:13814   */\n      dup7\n        /* \"#utility.yul\":13801:13823   */\n      add\n        /* \"#utility.yul\":13780:13833   */\n      tag_417\n      jump\t// in\n    tag_610:\n        /* \"#utility.yul\":13770:13833   */\n      swap2\n      pop\n        /* \"#utility.yul\":13725:13843   */\n      pop\n        /* \"#utility.yul\":13376:13850   */\n      swap3\n      pop\n      swap3\n      swap1\n      pop\n      jump\t// out\n        /* \"#utility.yul\":13856:14036   */\n    tag_436:\n        /* \"#utility.yul\":13904:13981   */\n      0x4e487b7100000000000000000000000000000000000000000000000000000000\n        /* \"#utility.yul\":13901:13902   */\n      0x00\n        /* \"#utility.yul\":13894:13982   */\n      mstore\n        /* \"#utility.yul\":14001:14005   */\n      0x22\n        /* \"#utility.yul\":13998:13999   */\n      0x04\n        /* \"#utility.yul\":13991:14006   */\n      mstore\n        /* \"#utility.yul\":14025:14029   */\n      0x24\n        /* \"#utility.yul\":14022:14023   */\n      0x00\n        /* \"#utility.yul\":14015:14030   */\n      revert\n        /* \"#utility.yul\":14042:14362   */\n    tag_154:\n        /* \"#utility.yul\":14086:14092   */\n      0x00\n        /* \"#utility.yul\":14123:14124   */\n      0x02\n        /* \"#utility.yul\":14117:14121   */\n      dup3\n        /* \"#utility.yul\":14113:14125   */\n      div\n        /* \"#utility.yul\":14103:14125   */\n      swap1\n      pop\n        /* \"#utility.yul\":14170:14171   */\n      0x01\n        /* \"#utility.yul\":14164:14168   */\n      dup3\n        /* \"#utility.yul\":14160:14172   */\n      and\n        /* \"#utility.yul\":14191:14209   */\n      dup1\n        /* \"#utility.yul\":14181:14262   */\n      tag_613\n      jumpi\n        /* \"#utility.yul\":14247:14251   */\n      0x7f\n        /* \"#utility.yul\":14239:14245   */\n      dup3\n        /* \"#utility.yul\":14235:14252   */\n      and\n        /* \"#utility.yul\":14225:14252   */\n      swap2\n      pop\n        /* \"#utility.yul\":14181:14262   */\n    tag_613:\n        /* \"#utility.yul\":14309:14311   */\n      0x20\n        /* \"#utility.yul\":14301:14307   */\n      dup3\n        /* \"#utility.yul\":14298:14312   */\n      lt\n        /* \"#utility.yul\":14278:14296   */\n      dup2\n        /* \"#utility.yul\":14275:14313   */\n      sub\n        /* \"#utility.yul\":14272:14356   */\n      tag_614\n      jumpi\n        /* \"#utility.yul\":14328:14346   */\n      tag_615\n      tag_436\n      jump\t// in\n    tag_615:\n        /* \"#utility.yul\":14272:14356   */\n    tag_614:\n        /* \"#utility.yul\":14093:14362   */\n      pop\n        /* \"#utility.yul\":14042:14362   */\n      swap2\n      swap1\n      pop\n      jump\t// out\n        /* \"#utility.yul\":14368:14548   */\n    tag_227:\n        /* \"#utility.yul\":14416:14493   */\n      0x4e487b7100000000000000000000000000000000000000000000000000000000\n        /* \"#utility.yul\":14413:14414   */\n      0x00\n        /* \"#utility.yul\":14406:14494   */\n      mstore\n        /* \"#utility.yul\":14513:14517   */\n      0x32\n        /* \"#utility.yul\":14510:14511   */\n      0x04\n        /* \"#utility.yul\":14503:14518   */\n      mstore\n        /* \"#utility.yul\":14537:14541   */\n      0x24\n        /* \"#utility.yul\":14534:14535   */\n      0x00\n        /* \"#utility.yul\":14527:14542   */\n      revert\n        /* \"#utility.yul\":14554:14718   */\n    tag_437:\n        /* \"#utility.yul\":14694:14710   */\n      0x6e66746964206578697374212121000000000000000000000000000000000000\n        /* \"#utility.yul\":14690:14691   */\n      0x00\n        /* \"#utility.yul\":14682:14688   */\n      dup3\n        /* \"#utility.yul\":14678:14692   */\n      add\n        /* \"#utility.yul\":14671:14711   */\n      mstore\n        /* \"#utility.yul\":14554:14718   */\n      pop\n      jump\t// out\n        /* \"#utility.yul\":14724:15090   */\n    tag_438:\n        /* \"#utility.yul\":14866:14869   */\n      0x00\n        /* \"#utility.yul\":14887:14954   */\n      tag_619\n        /* \"#utility.yul\":14951:14953   */\n      0x0e\n        /* \"#utility.yul\":14946:14949   */\n      dup4\n        /* \"#utility.yul\":14887:14954   */\n      tag_406\n      jump\t// in\n    tag_619:\n        /* \"#utility.yul\":14880:14954   */\n      swap2\n      pop\n        /* \"#utility.yul\":14963:15056   */\n      tag_620\n        /* \"#utility.yul\":15052:15055   */\n      dup3\n        /* \"#utility.yul\":14963:15056   */\n      tag_437\n      jump\t// in\n    tag_620:\n        /* \"#utility.yul\":15081:15083   */\n      0x20\n        /* \"#utility.yul\":15076:15079   */\n      dup3\n        /* \"#utility.yul\":15072:15084   */\n      add\n        /* \"#utility.yul\":15065:15084   */\n      swap1\n      pop\n        /* \"#utility.yul\":14724:15090   */\n      swap2\n      swap1\n      pop\n      jump\t// out\n        /* \"#utility.yul\":15096:15515   */\n    tag_230:\n        /* \"#utility.yul\":15262:15266   */\n      0x00\n        /* \"#utility.yul\":15300:15302   */\n      0x20\n        /* \"#utility.yul\":15289:15298   */\n      dup3\n        /* \"#utility.yul\":15285:15303   */\n      add\n        /* \"#utility.yul\":15277:15303   */\n      swap1\n      pop\n        /* \"#utility.yul\":15349:15358   */\n      dup2\n        /* \"#utility.yul\":15343:15347   */\n      dup2\n        /* \"#utility.yul\":15339:15359   */\n      sub\n        /* \"#utility.yul\":15335:15336   */\n      0x00\n        /* \"#utility.yul\":15324:15333   */\n      dup4\n        /* \"#utility.yul\":15320:15337   */\n      add\n        /* \"#utility.yul\":15313:15360   */\n      mstore\n        /* \"#utility.yul\":15377:15508   */\n      tag_622\n        /* \"#utility.yul\":15503:15507   */\n      dup2\n        /* \"#utility.yul\":15377:15508   */\n      tag_438\n      jump\t// in\n    tag_622:\n        /* \"#utility.yul\":15369:15508   */\n      swap1\n      pop\n        /* \"#utility.yul\":15096:15515   */\n      swap2\n      swap1\n      pop\n      jump\t// out\n        /* \"#utility.yul\":15521:15701   */\n    tag_439:\n        /* \"#utility.yul\":15569:15646   */\n      0x4e487b7100000000000000000000000000000000000000000000000000000000\n        /* \"#utility.yul\":15566:15567   */\n      0x00\n        /* \"#utility.yul\":15559:15647   */\n      mstore\n        /* \"#utility.yul\":15666:15670   */\n      0x11\n        /* \"#utility.yul\":15663:15664   */\n      0x04\n        /* \"#utility.yul\":15656:15671   */\n      mstore\n        /* \"#utility.yul\":15690:15694   */\n      0x24\n        /* \"#utility.yul\":15687:15688   */\n      0x00\n        /* \"#utility.yul\":15680:15695   */\n      revert\n        /* \"#utility.yul\":15707:15940   */\n    tag_234:\n        /* \"#utility.yul\":15746:15749   */\n      0x00\n        /* \"#utility.yul\":15769:15793   */\n      tag_625\n        /* \"#utility.yul\":15787:15792   */\n      dup3\n        /* \"#utility.yul\":15769:15793   */\n      tag_410\n      jump\t// in\n    tag_625:\n        /* \"#utility.yul\":15760:15793   */\n      swap2\n      pop\n        /* \"#utility.yul\":15815:15881   */\n      0xffffffffffffffffffffffffffffffffffffffffffffffffffffffffffffffff\n        /* \"#utility.yul\":15808:15813   */\n      dup3\n        /* \"#utility.yul\":15805:15882   */\n      sub\n        /* \"#utility.yul\":15802:15905   */\n      tag_626\n      jumpi\n        /* \"#utility.yul\":15885:15903   */\n      tag_627\n      tag_439\n      jump\t// in\n    tag_627:\n        /* \"#utility.yul\":15802:15905   */\n    tag_626:\n        /* \"#utility.yul\":15932:15933   */\n      0x01\n        /* \"#utility.yul\":15925:15930   */\n      dup3\n        /* \"#utility.yul\":15921:15934   */\n      add\n        /* \"#utility.yul\":15914:15934   */\n      swap1\n      pop\n        /* \"#utility.yul\":15707:15940   */\n      swap2\n      swap1\n      pop\n      jump\t// out\n        /* \"#utility.yul\":15946:16094   */\n    tag_440:\n        /* \"#utility.yul\":16048:16059   */\n      0x00\n        /* \"#utility.yul\":16085:16088   */\n      dup2\n        /* \"#utility.yul\":16070:16088   */\n      swap1\n      pop\n        /* \"#utility.yul\":15946:16094   */\n      swap3\n      swap2\n      pop\n      pop\n      jump\t// out\n        /* \"#utility.yul\":16100:16477   */\n    tag_441:\n        /* \"#utility.yul\":16206:16209   */\n      0x00\n        /* \"#utility.yul\":16234:16273   */\n      tag_630\n        /* \"#utility.yul\":16267:16272   */\n      dup3\n        /* \"#utility.yul\":16234:16273   */\n      tag_405\n      jump\t// in\n    tag_630:\n        /* \"#utility.yul\":16289:16378   */\n      tag_631\n        /* \"#utility.yul\":16371:16377   */\n      dup2\n        /* \"#utility.yul\":16366:16369   */\n      dup6\n        /* \"#utility.yul\":16289:16378   */\n      tag_440\n      jump\t// in\n    tag_631:\n        /* \"#utility.yul\":16282:16378   */\n      swap4\n      pop\n        /* \"#utility.yul\":16387:16439   */\n      tag_632\n        /* \"#utility.yul\":16432:16438   */\n      dup2\n        /* \"#utility.yul\":16427:16430   */\n      dup6\n        /* \"#utility.yul\":16420:16424   */\n      0x20\n        /* \"#utility.yul\":16413:16418   */\n      dup7\n        /* \"#utility.yul\":16409:16425   */\n      add\n        /* \"#utility.yul\":16387:16439   */\n      tag_407\n      jump\t// in\n    tag_632:\n        /* \"#utility.yul\":16464:16470   */\n      dup1\n        /* \"#utility.yul\":16459:16462   */\n      dup5\n        /* \"#utility.yul\":16455:16471   */\n      add\n        /* \"#utility.yul\":16448:16471   */\n      swap2\n      pop\n        /* \"#utility.yul\":16210:16477   */\n      pop\n        /* \"#utility.yul\":16100:16477   */\n      swap3\n      swap2\n      pop\n      pop\n      jump\t// out\n        /* \"#utility.yul\":16483:16918   */\n    tag_267:\n        /* \"#utility.yul\":16663:16666   */\n      0x00\n        /* \"#utility.yul\":16685:16780   */\n      tag_634\n        /* \"#utility.yul\":16776:16779   */\n      dup3\n        /* \"#utility.yul\":16767:16773   */\n      dup6\n        /* \"#utility.yul\":16685:16780   */\n      tag_441\n      jump\t// in\n    tag_634:\n        /* \"#utility.yul\":16678:16780   */\n      swap2\n      pop\n        /* \"#utility.yul\":16797:16892   */\n      tag_635\n        /* \"#utility.yul\":16888:16891   */\n      dup3\n        /* \"#utility.yul\":16879:16885   */\n      dup5\n        /* \"#utility.yul\":16797:16892   */\n      tag_441\n      jump\t// in\n    tag_635:\n        /* \"#utility.yul\":16790:16892   */\n      swap2\n      pop\n        /* \"#utility.yul\":16909:16912   */\n      dup2\n        /* \"#utility.yul\":16902:16912   */\n      swap1\n      pop\n        /* \"#utility.yul\":16483:16918   */\n      swap4\n      swap3\n      pop\n      pop\n      pop\n      jump\t// out\n        /* \"#utility.yul\":16924:17149   */\n    tag_442:\n        /* \"#utility.yul\":17064:17098   */\n      0x4f776e61626c653a206e6577206f776e657220697320746865207a65726f2061\n        /* \"#utility.yul\":17060:17061   */\n      0x00\n        /* \"#utility.yul\":17052:17058   */\n      dup3\n        /* \"#utility.yul\":17048:17062   */\n      add\n        /* \"#utility.yul\":17041:17099   */\n      mstore\n        /* \"#utility.yul\":17133:17141   */\n      0x6464726573730000000000000000000000000000000000000000000000000000\n        /* \"#utility.yul\":17128:17130   */\n      0x20\n        /* \"#utility.yul\":17120:17126   */\n      dup3\n        /* \"#utility.yul\":17116:17131   */\n      add\n        /* \"#utility.yul\":17109:17142   */\n      mstore\n        /* \"#utility.yul\":16924:17149   */\n      pop\n      jump\t// out\n        /* \"#utility.yul\":17155:17521   */\n    tag_443:\n        /* \"#utility.yul\":17297:17300   */\n      0x00\n        /* \"#utility.yul\":17318:17385   */\n      tag_638\n        /* \"#utility.yul\":17382:17384   */\n      0x26\n        /* \"#utility.yul\":17377:17380   */\n      dup4\n        /* \"#utility.yul\":17318:17385   */\n      tag_406\n      jump\t// in\n    tag_638:\n        /* \"#utility.yul\":17311:17385   */\n      swap2\n      pop\n        /* \"#utility.yul\":17394:17487   */\n      tag_639\n        /* \"#utility.yul\":17483:17486   */\n      dup3\n        /* \"#utility.yul\":17394:17487   */\n      tag_442\n      jump\t// in\n    tag_639:\n        /* \"#utility.yul\":17512:17514   */\n      0x40\n        /* \"#utility.yul\":17507:17510   */\n      dup3\n        /* \"#utility.yul\":17503:17515   */\n      add\n        /* \"#utility.yul\":17496:17515   */\n      swap1\n      pop\n        /* \"#utility.yul\":17155:17521   */\n      swap2\n      swap1\n      pop\n      jump\t// out\n        /* \"#utility.yul\":17527:17946   */\n    tag_279:\n        /* \"#utility.yul\":17693:17697   */\n      0x00\n        /* \"#utility.yul\":17731:17733   */\n      0x20\n        /* \"#utility.yul\":17720:17729   */\n      dup3\n        /* \"#utility.yul\":17716:17734   */\n      add\n        /* \"#utility.yul\":17708:17734   */\n      swap1\n      pop\n        /* \"#utility.yul\":17780:17789   */\n      dup2\n        /* \"#utility.yul\":17774:17778   */\n      dup2\n        /* \"#utility.yul\":17770:17790   */\n      sub\n        /* \"#utility.yul\":17766:17767   */\n      0x00\n        /* \"#utility.yul\":17755:17764   */\n      dup4\n        /* \"#utility.yul\":17751:17768   */\n      add\n        /* \"#utility.yul\":17744:17791   */\n      mstore\n        /* \"#utility.yul\":17808:17939   */\n      tag_641\n        /* \"#utility.yul\":17934:17938   */\n      dup2\n        /* \"#utility.yul\":17808:17939   */\n      tag_443\n      jump\t// in\n    tag_641:\n        /* \"#utility.yul\":17800:17939   */\n      swap1\n      pop\n        /* \"#utility.yul\":17527:17946   */\n      swap2\n      swap1\n      pop\n      jump\t// out\n        /* \"#utility.yul\":17952:18134   */\n    tag_444:\n        /* \"#utility.yul\":18092:18126   */\n      0x4f776e61626c653a2063616c6c6572206973206e6f7420746865206f776e6572\n        /* \"#utility.yul\":18088:18089   */\n      0x00\n        /* \"#utility.yul\":18080:18086   */\n      dup3\n        /* \"#utility.yul\":18076:18090   */\n      add\n        /* \"#utility.yul\":18069:18127   */\n      mstore\n        /* \"#utility.yul\":17952:18134   */\n      pop\n      jump\t// out\n        /* \"#utility.yul\":18140:18506   */\n    tag_445:\n        /* \"#utility.yul\":18282:18285   */\n      0x00\n        /* \"#utility.yul\":18303:18370   */\n      tag_644\n        /* \"#utility.yul\":18367:18369   */\n      0x20\n        /* \"#utility.yul\":18362:18365   */\n      dup4\n        /* \"#utility.yul\":18303:18370   */\n      tag_406\n      jump\t// in\n    tag_644:\n        /* \"#utility.yul\":18296:18370   */\n      swap2\n      pop\n        /* \"#utility.yul\":18379:18472   */\n      tag_645\n        /* \"#utility.yul\":18468:18471   */\n      dup3\n        /* \"#utility.yul\":18379:18472   */\n      tag_444\n      jump\t// in\n    tag_645:\n        /* \"#utility.yul\":18497:18499   */\n      0x20\n        /* \"#utility.yul\":18492:18495   */\n      dup3\n        /* \"#utility.yul\":18488:18500   */\n      add\n        /* \"#utility.yul\":18481:18500   */\n      swap1\n      pop\n        /* \"#utility.yul\":18140:18506   */\n      swap2\n      swap1\n      pop\n      jump\t// out\n        /* \"#utility.yul\":18512:18931   */\n    tag_309:\n        /* \"#utility.yul\":18678:18682   */\n      0x00\n        /* \"#utility.yul\":18716:18718   */\n      0x20\n        /* \"#utility.yul\":18705:18714   */\n      dup3\n        /* \"#utility.yul\":18701:18719   */\n      add\n        /* \"#utility.yul\":18693:18719   */\n      swap1\n      pop\n        /* \"#utility.yul\":18765:18774   */\n      dup2\n        /* \"#utility.yul\":18759:18763   */\n      dup2\n        /* \"#utility.yul\":18755:18775   */\n      sub\n        /* \"#utility.yul\":18751:18752   */\n      0x00\n        /* \"#utility.yul\":18740:18749   */\n      dup4\n        /* \"#utility.yul\":18736:18753   */\n      add\n        /* \"#utility.yul\":18729:18776   */\n      mstore\n        /* \"#utility.yul\":18793:18924   */\n      tag_647\n        /* \"#utility.yul\":18919:18923   */\n      dup2\n        /* \"#utility.yul\":18793:18924   */\n      tag_445\n      jump\t// in\n    tag_647:\n        /* \"#utility.yul\":18785:18924   */\n      swap1\n      pop\n        /* \"#utility.yul\":18512:18931   */\n      swap2\n      swap1\n      pop\n      jump\t// out\n        /* \"#utility.yul\":18937:19035   */\n    tag_446:\n        /* \"#utility.yul\":18988:18994   */\n      0x00\n        /* \"#utility.yul\":19022:19027   */\n      dup2\n        /* \"#utility.yul\":19016:19028   */\n      mload\n        /* \"#utility.yul\":19006:19028   */\n      swap1\n      pop\n        /* \"#utility.yul\":18937:19035   */\n      swap2\n      swap1\n      pop\n      jump\t// out\n        /* \"#utility.yul\":19041:19209   */\n    tag_447:\n        /* \"#utility.yul\":19124:19135   */\n      0x00\n        /* \"#utility.yul\":19158:19164   */\n      dup3\n        /* \"#utility.yul\":19153:19156   */\n      dup3\n        /* \"#utility.yul\":19146:19165   */\n      mstore\n        /* \"#utility.yul\":19198:19202   */\n      0x20\n        /* \"#utility.yul\":19193:19196   */\n      dup3\n        /* \"#utility.yul\":19189:19203   */\n      add\n        /* \"#utility.yul\":19174:19203   */\n      swap1\n      pop\n        /* \"#utility.yul\":19041:19209   */\n      swap3\n      swap2\n      pop\n      pop\n      jump\t// out\n        /* \"#utility.yul\":19215:19575   */\n    tag_448:\n        /* \"#utility.yul\":19301:19304   */\n      0x00\n        /* \"#utility.yul\":19329:19367   */\n      tag_651\n        /* \"#utility.yul\":19361:19366   */\n      dup3\n        /* \"#utility.yul\":19329:19367   */\n      tag_446\n      jump\t// in\n    tag_651:\n        /* \"#utility.yul\":19383:19453   */\n      tag_652\n        /* \"#utility.yul\":19446:19452   */\n      dup2\n        /* \"#utility.yul\":19441:19444   */\n      dup6\n        /* \"#utility.yul\":19383:19453   */\n      tag_447\n      jump\t// in\n    tag_652:\n        /* \"#utility.yul\":19376:19453   */\n      swap4\n      pop\n        /* \"#utility.yul\":19462:19514   */\n      tag_653\n        /* \"#utility.yul\":19507:19513   */\n      dup2\n        /* \"#utility.yul\":19502:19505   */\n      dup6\n        /* \"#utility.yul\":19495:19499   */\n      0x20\n        /* \"#utility.yul\":19488:19493   */\n      dup7\n        /* \"#utility.yul\":19484:19500   */\n      add\n        /* \"#utility.yul\":19462:19514   */\n      tag_407\n      jump\t// in\n    tag_653:\n        /* \"#utility.yul\":19539:19568   */\n      tag_654\n        /* \"#utility.yul\":19561:19567   */\n      dup2\n        /* \"#utility.yul\":19539:19568   */\n      tag_408\n      jump\t// in\n    tag_654:\n        /* \"#utility.yul\":19534:19537   */\n      dup5\n        /* \"#utility.yul\":19530:19569   */\n      add\n        /* \"#utility.yul\":19523:19569   */\n      swap2\n      pop\n        /* \"#utility.yul\":19305:19575   */\n      pop\n        /* \"#utility.yul\":19215:19575   */\n      swap3\n      swap2\n      pop\n      pop\n      jump\t// out\n        /* \"#utility.yul\":19581:20221   */\n    tag_317:\n        /* \"#utility.yul\":19776:19780   */\n      0x00\n        /* \"#utility.yul\":19814:19817   */\n      0x80\n        /* \"#utility.yul\":19803:19812   */\n      dup3\n        /* \"#utility.yul\":19799:19818   */\n      add\n        /* \"#utility.yul\":19791:19818   */\n      swap1\n      pop\n        /* \"#utility.yul\":19828:19899   */\n      tag_656\n        /* \"#utility.yul\":19896:19897   */\n      0x00\n        /* \"#utility.yul\":19885:19894   */\n      dup4\n        /* \"#utility.yul\":19881:19898   */\n      add\n        /* \"#utility.yul\":19872:19878   */\n      dup8\n        /* \"#utility.yul\":19828:19899   */\n      tag_415\n      jump\t// in\n    tag_656:\n        /* \"#utility.yul\":19909:19981   */\n      tag_657\n        /* \"#utility.yul\":19977:19979   */\n      0x20\n        /* \"#utility.yul\":19966:19975   */\n      dup4\n        /* \"#utility.yul\":19962:19980   */\n      add\n        /* \"#utility.yul\":19953:19959   */\n      dup7\n        /* \"#utility.yul\":19909:19981   */\n      tag_415\n      jump\t// in\n    tag_657:\n        /* \"#utility.yul\":19991:20063   */\n      tag_658\n        /* \"#utility.yul\":20059:20061   */\n      0x40\n        /* \"#utility.yul\":20048:20057   */\n      dup4\n        /* \"#utility.yul\":20044:20062   */\n      add\n        /* \"#utility.yul\":20035:20041   */\n      dup6\n        /* \"#utility.yul\":19991:20063   */\n      tag_418\n      jump\t// in\n    tag_658:\n        /* \"#utility.yul\":20110:20119   */\n      dup2\n        /* \"#utility.yul\":20104:20108   */\n      dup2\n        /* \"#utility.yul\":20100:20120   */\n      sub\n        /* \"#utility.yul\":20095:20097   */\n      0x60\n        /* \"#utility.yul\":20084:20093   */\n      dup4\n        /* \"#utility.yul\":20080:20098   */\n      add\n        /* \"#utility.yul\":20073:20121   */\n      mstore\n        /* \"#utility.yul\":20138:20214   */\n      tag_659\n        /* \"#utility.yul\":20209:20213   */\n      dup2\n        /* \"#utility.yul\":20200:20206   */\n      dup5\n        /* \"#utility.yul\":20138:20214   */\n      tag_448\n      jump\t// in\n    tag_659:\n        /* \"#utility.yul\":20130:20214   */\n      swap1\n      pop\n        /* \"#utility.yul\":19581:20221   */\n      swap6\n      swap5\n      pop\n      pop\n      pop\n      pop\n      pop\n      jump\t// out\n        /* \"#utility.yul\":20227:20368   */\n    tag_449:\n        /* \"#utility.yul\":20283:20288   */\n      0x00\n        /* \"#utility.yul\":20314:20320   */\n      dup2\n        /* \"#utility.yul\":20308:20321   */\n      mload\n        /* \"#utility.yul\":20299:20321   */\n      swap1\n      pop\n        /* \"#utility.yul\":20330:20362   */\n      tag_661\n        /* \"#utility.yul\":20356:20361   */\n      dup2\n        /* \"#utility.yul\":20330:20362   */\n      tag_401\n      jump\t// in\n    tag_661:\n        /* \"#utility.yul\":20227:20368   */\n      swap3\n      swap2\n      pop\n      pop\n      jump\t// out\n        /* \"#utility.yul\":20374:20723   */\n    tag_320:\n        /* \"#utility.yul\":20443:20449   */\n      0x00\n        /* \"#utility.yul\":20492:20494   */\n      0x20\n        /* \"#utility.yul\":20480:20489   */\n      dup3\n        /* \"#utility.yul\":20471:20478   */\n      dup5\n        /* \"#utility.yul\":20467:20490   */\n      sub\n        /* \"#utility.yul\":20463:20495   */\n      slt\n        /* \"#utility.yul\":20460:20579   */\n      iszero\n      tag_663\n      jumpi\n        /* \"#utility.yul\":20498:20577   */\n      tag_664\n      tag_398\n      jump\t// in\n    tag_664:\n        /* \"#utility.yul\":20460:20579   */\n    tag_663:\n        /* \"#utility.yul\":20618:20619   */\n      0x00\n        /* \"#utility.yul\":20643:20706   */\n      tag_665\n        /* \"#utility.yul\":20698:20705   */\n      dup5\n        /* \"#utility.yul\":20689:20695   */\n      dup3\n        /* \"#utility.yul\":20678:20687   */\n      dup6\n        /* \"#utility.yul\":20674:20696   */\n      add\n        /* \"#utility.yul\":20643:20706   */\n      tag_449\n      jump\t// in\n    tag_665:\n        /* \"#utility.yul\":20633:20706   */\n      swap2\n      pop\n        /* \"#utility.yul\":20589:20716   */\n      pop\n        /* \"#utility.yul\":20374:20723   */\n      swap3\n      swap2\n      pop\n      pop\n      jump\t// out\n\n    auxdata: 0xa26469706673582212208872237838e0d6dd2a6b06201aa4dda9819c3e35fde87bae34697f207a075c3b64736f6c634300080d0033\n}\n",
				"bytecode": {
					"linkReferences": {},
					"object": "60806040523480156200001157600080fd5b5060405162002f2038038062002f208339818101604052810190620000379190620003e3565b8181620000596200004d620000c560201b60201c565b620000cd60201b60201c565b81600390805190602001906200007192919062000196565b5080600490805190602001906200008a92919062000196565b506200009b6200019160201b60201c565b60018190555050508260099080519060200190620000bb92919062000196565b5050505062000500565b600033905090565b60008060009054906101000a900473ffffffffffffffffffffffffffffffffffffffff169050816000806101000a81548173ffffffffffffffffffffffffffffffffffffffff021916908373ffffffffffffffffffffffffffffffffffffffff1602179055508173ffffffffffffffffffffffffffffffffffffffff168173ffffffffffffffffffffffffffffffffffffffff167f8be0079c531659141344cd1fd0a4f28419497f9722a3daafe3b4186f6b6457e060405160405180910390a35050565b600090565b828054620001a490620004cb565b90600052602060002090601f016020900481019282620001c8576000855562000214565b82601f10620001e357805160ff191683800117855562000214565b8280016001018555821562000214579182015b8281111562000213578251825591602001919060010190620001f6565b5b50905062000223919062000227565b5090565b5b808211156200024257600081600090555060010162000228565b5090565b6000604051905090565b600080fd5b600080fd5b600080fd5b600080fd5b6000601f19601f8301169050919050565b7f4e487b7100000000000000000000000000000000000000000000000000000000600052604160045260246000fd5b620002af8262000264565b810181811067ffffffffffffffff82111715620002d157620002d062000275565b5b80604052505050565b6000620002e662000246565b9050620002f48282620002a4565b919050565b600067ffffffffffffffff82111562000317576200031662000275565b5b620003228262000264565b9050602081019050919050565b60005b838110156200034f57808201518184015260208101905062000332565b838111156200035f576000848401525b50505050565b60006200037c6200037684620002f9565b620002da565b9050828152602081018484840111156200039b576200039a6200025f565b5b620003a88482856200032f565b509392505050565b600082601f830112620003c857620003c76200025a565b5b8151620003da84826020860162000365565b91505092915050565b600080600060608486031215620003ff57620003fe62000250565b5b600084015167ffffffffffffffff81111562000420576200041f62000255565b5b6200042e86828701620003b0565b935050602084015167ffffffffffffffff81111562000452576200045162000255565b5b6200046086828701620003b0565b925050604084015167ffffffffffffffff81111562000484576200048362000255565b5b6200049286828701620003b0565b9150509250925092565b7f4e487b7100000000000000000000000000000000000000000000000000000000600052602260045260246000fd5b60006002820490506001821680620004e457607f821691505b602082108103620004fa57620004f96200049c565b5b50919050565b612a1080620005106000396000f3fe6080604052600436106101665760003560e01c8063715018a6116100d1578063a65e06e81161008a578063c87b56dd11610064578063c87b56dd14610518578063db006a7514610555578063e985e9c51461057e578063f2fde38b146105bb57610166565b8063a65e06e814610482578063b73b99a2146104bf578063b88d4fde146104fc57610166565b8063715018a61461039a5780638da5cb5b146103b15780638ffbe96b146103dc57806395d89b4114610405578063a0712d6814610430578063a22cb4651461045957610166565b806323b872dd1161012357806323b872dd1461028257806342842e0e1461029e57806351e164b7146102ba57806355f804b3146102f75780636352211e1461032057806370a082311461035d57610166565b806301ffc9a71461016b57806306fdde03146101a8578063081812fc146101d3578063095ea7b3146102105780630d9005ae1461022c57806318160ddd14610257575b600080fd5b34801561017757600080fd5b50610192600480360381019061018d9190611f17565b6105e4565b60405161019f9190611f5f565b60405180910390f35b3480156101b457600080fd5b506101bd610676565b6040516101ca9190612013565b60405180910390f35b3480156101df57600080fd5b506101fa60048036038101906101f5919061206b565b610708565b60405161020791906120d9565b60405180910390f35b61022a60048036038101906102259190612120565b610787565b005b34801561023857600080fd5b506102416108cb565b60405161024e919061216f565b60405180910390f35b34801561026357600080fd5b5061026c6108da565b604051610279919061216f565b60405180910390f35b61029c6004803603810190610297919061218a565b6108f1565b005b6102b860048036038101906102b3919061218a565b610c13565b005b3480156102c657600080fd5b506102e160048036038101906102dc919061206b565b610c33565b6040516102ee919061216f565b60405180910390f35b34801561030357600080fd5b5061031e60048036038101906103199190612242565b610c4b565b005b34801561032c57600080fd5b506103476004803603810190610342919061206b565b610c69565b60405161035491906120d9565b60405180910390f35b34801561036957600080fd5b50610384600480360381019061037f919061228f565b610c7b565b604051610391919061216f565b60405180910390f35b3480156103a657600080fd5b506103af610d33565b005b3480156103bd57600080fd5b506103c6610d47565b6040516103d391906120d9565b60405180910390f35b3480156103e857600080fd5b5061040360048036038101906103fe91906123fa565b610d70565b005b34801561041157600080fd5b5061041a610e97565b6040516104279190612013565b60405180910390f35b34801561043c57600080fd5b506104576004803603810190610452919061206b565b610f29565b005b34801561046557600080fd5b50610480600480360381019061047b919061246f565b611010565b005b34801561048e57600080fd5b506104a960048036038101906104a4919061206b565b61111b565b6040516104b69190611f5f565b60405180910390f35b3480156104cb57600080fd5b506104e660048036038101906104e1919061206b565b61113b565b6040516104f3919061216f565b60405180910390f35b61051660048036038101906105119190612564565b611153565b005b34801561052457600080fd5b5061053f600480360381019061053a919061206b565b6111c6565b60405161054c9190612013565b60405180910390f35b34801561056157600080fd5b5061057c6004803603810190610577919061206b565b611264565b005b34801561058a57600080fd5b506105a560048036038101906105a091906125e7565b611278565b6040516105b29190611f5f565b60405180910390f35b3480156105c757600080fd5b506105e260048036038101906105dd919061228f565b61130c565b005b60006301ffc9a760e01b827bffffffffffffffffffffffffffffffffffffffffffffffffffffffff1916148061063f57506380ac58cd60e01b827bffffffffffffffffffffffffffffffffffffffffffffffffffffffff1916145b8061066f5750635b5e139f60e01b827bffffffffffffffffffffffffffffffffffffffffffffffffffffffff1916145b9050919050565b60606003805461068590612656565b80601f01602080910402602001604051908101604052809291908181526020018280546106b190612656565b80156106fe5780601f106106d3576101008083540402835291602001916106fe565b820191906000526020600020905b8154815290600101906020018083116106e157829003601f168201915b5050505050905090565b60006107138261138f565b610749576040517fcf4700e400000000000000000000000000000000000000000000000000000000815260040160405180910390fd5b6007600083815260200190815260200160002060000160009054906101000a900473ffffffffffffffffffffffffffffffffffffffff169050919050565b600061079282610c69565b90508073ffffffffffffffffffffffffffffffffffffffff166107b36113ee565b73ffffffffffffffffffffffffffffffffffffffff1614610816576107df816107da6113ee565b611278565b610815576040517fcfb3b94200000000000000000000000000000000000000000000000000000000815260040160405180910390fd5b5b826007600084815260200190815260200160002060000160006101000a81548173ffffffffffffffffffffffffffffffffffffffff021916908373ffffffffffffffffffffffffffffffffffffffff160217905550818373ffffffffffffffffffffffffffffffffffffffff168273ffffffffffffffffffffffffffffffffffffffff167f8c5be1e5ebec7d5bd14f71427d1e84f3dd0314c0f7b2291e5b200ac8c7c3b92560405160405180910390a4505050565b60006108d56113f6565b905090565b60006108e4611400565b6002546001540303905090565b60006108fc82611405565b90508373ffffffffffffffffffffffffffffffffffffffff168173ffffffffffffffffffffffffffffffffffffffff1614610963576040517fa114810000000000000000000000000000000000000000000000000000000000815260040160405180910390fd5b60008061096f846114d1565b9150915061098581876109806113ee565b6114f8565b6109d15761099a866109956113ee565b611278565b6109d0576040517f59c896be00000000000000000000000000000000000000000000000000000000815260040160405180910390fd5b5b600073ffffffffffffffffffffffffffffffffffffffff168573ffffffffffffffffffffffffffffffffffffffff1603610a37576040517fea553b3400000000000000000000000000000000000000000000000000000000815260040160405180910390fd5b610a44868686600161153c565b8015610a4f57600082555b600660008773ffffffffffffffffffffffffffffffffffffffff1673ffffffffffffffffffffffffffffffffffffffff168152602001908152602001600020600081546001900391905081905550600660008673ffffffffffffffffffffffffffffffffffffffff1673ffffffffffffffffffffffffffffffffffffffff1681526020019081526020016000206000815460010191905081905550610b1d85610af9888887611542565b7c02000000000000000000000000000000000000000000000000000000001761156a565b600560008681526020019081526020016000208190555060007c0200000000000000000000000000000000000000000000000000000000841603610ba35760006001850190506000600560008381526020019081526020016000205403610ba1576001548114610ba0578360056000838152602001908152602001600020819055505b5b505b838573ffffffffffffffffffffffffffffffffffffffff168773ffffffffffffffffffffffffffffffffffffffff167fddf252ad1be2c89b69c2b068fc378daa952ba7f163c4a11628f55a4df523b3ef60405160405180910390a4610c0b8686866001611595565b505050505050565b610c2e83838360405180602001604052806000815250611153565b505050565b600b6020528060005260406000206000915090505481565b610c5361159b565b818160099190610c64929190611e08565b505050565b6000610c7482611405565b9050919050565b60008073ffffffffffffffffffffffffffffffffffffffff168273ffffffffffffffffffffffffffffffffffffffff1603610ce2576040517f8f4eb60400000000000000000000000000000000000000000000000000000000815260040160405180910390fd5b67ffffffffffffffff600660008473ffffffffffffffffffffffffffffffffffffffff1673ffffffffffffffffffffffffffffffffffffffff16815260200190815260200160002054169050919050565b610d3b61159b565b610d456000611619565b565b60008060009054906101000a900473ffffffffffffffffffffffffffffffffffffffff16905090565b60005b8151811015610e93576000828281518110610d9157610d90612687565b5b60200260200101519050600d600082815260200190815260200160002060009054906101000a900460ff1615610dfc576040517f08c379a0000000000000000000000000000000000000000000000000000000008152600401610df390612702565b60405180910390fd5b600c54600a60008381526020019081526020016000208190555080600b6000600c548152602001908152602001600020819055506001600d600083815260200190815260200160002060006101000a81548160ff021916908315150217905550610e673360016116dd565b600c6000815480929190610e7a90612751565b9190505550508080610e8b90612751565b915050610d73565b5050565b606060048054610ea690612656565b80601f0160208091040260200160405190810160405280929190818152602001828054610ed290612656565b8015610f1f5780601f10610ef457610100808354040283529160200191610f1f565b820191906000526020600020905b815481529060010190602001808311610f0257829003601f168201915b5050505050905090565b600d600082815260200190815260200160002060009054906101000a900460ff1615610f8a576040517f08c379a0000000000000000000000000000000000000000000000000000000008152600401610f8190612702565b60405180910390fd5b600c54600a60008381526020019081526020016000208190555080600b6000600c548152602001908152602001600020819055506001600d600083815260200190815260200160002060006101000a81548160ff021916908315150217905550610ff53360016116dd565b600c600081548092919061100890612751565b919050555050565b806008600061101d6113ee565b73ffffffffffffffffffffffffffffffffffffffff1673ffffffffffffffffffffffffffffffffffffffff16815260200190815260200160002060008473ffffffffffffffffffffffffffffffffffffffff1673ffffffffffffffffffffffffffffffffffffffff16815260200190815260200160002060006101000a81548160ff0219169083151502179055508173ffffffffffffffffffffffffffffffffffffffff166110ca6113ee565b73ffffffffffffffffffffffffffffffffffffffff167f17307eab39ab6107e8899845ad3d59bd9653f200f220920489ca2b5937696c318360405161110f9190611f5f565b60405180910390a35050565b600d6020528060005260406000206000915054906101000a900460ff1681565b600a6020528060005260406000206000915090505481565b61115e8484846108f1565b60008373ffffffffffffffffffffffffffffffffffffffff163b146111c057611189848484846116fb565b6111bf576040517fd1a57ed600000000000000000000000000000000000000000000000000000000815260040160405180910390fd5b5b50505050565b60606111d18261138f565b611207576040517fa14c4b5000000000000000000000000000000000000000000000000000000000815260040160405180910390fd5b600061121161184b565b90506000815103611231576040518060200160405280600081525061125c565b8061123b846118dd565b60405160200161124c9291906127d5565b6040516020818303038152906040525b915050919050565b61126c61159b565b6112758161192d565b50565b6000600860008473ffffffffffffffffffffffffffffffffffffffff1673ffffffffffffffffffffffffffffffffffffffff16815260200190815260200160002060008373ffffffffffffffffffffffffffffffffffffffff1673ffffffffffffffffffffffffffffffffffffffff16815260200190815260200160002060009054906101000a900460ff16905092915050565b61131461159b565b600073ffffffffffffffffffffffffffffffffffffffff168173ffffffffffffffffffffffffffffffffffffffff1603611383576040517f08c379a000000000000000000000000000000000000000000000000000000000815260040161137a9061286b565b60405180910390fd5b61138c81611619565b50565b60008161139a611400565b111580156113a9575060015482105b80156113e7575060007c0100000000000000000000000000000000000000000000000000000000600560008581526020019081526020016000205416145b9050919050565b600033905090565b6000600154905090565b600090565b60008082905080611414611400565b1161149a576001548110156114995760006005600083815260200190815260200160002054905060007c0100000000000000000000000000000000000000000000000000000000821603611497575b6000810361148d576005600083600190039350838152602001908152602001600020549050611463565b80925050506114cc565b505b5b6040517fdf2d9b4200000000000000000000000000000000000000000000000000000000815260040160405180910390fd5b919050565b60008060006007600085815260200190815260200160002090508092508254915050915091565b600073ffffffffffffffffffffffffffffffffffffffff8316925073ffffffffffffffffffffffffffffffffffffffff821691508382148383141790509392505050565b50505050565b60008060e883901c905060e861155986868461193b565b62ffffff16901b9150509392505050565b600073ffffffffffffffffffffffffffffffffffffffff83169250814260a01b178317905092915050565b50505050565b6115a3611944565b73ffffffffffffffffffffffffffffffffffffffff166115c1610d47565b73ffffffffffffffffffffffffffffffffffffffff1614611617576040517f08c379a000000000000000000000000000000000000000000000000000000000815260040161160e906128d7565b60405180910390fd5b565b60008060009054906101000a900473ffffffffffffffffffffffffffffffffffffffff169050816000806101000a81548173ffffffffffffffffffffffffffffffffffffffff021916908373ffffffffffffffffffffffffffffffffffffffff1602179055508173ffffffffffffffffffffffffffffffffffffffff168173ffffffffffffffffffffffffffffffffffffffff167f8be0079c531659141344cd1fd0a4f28419497f9722a3daafe3b4186f6b6457e060405160405180910390a35050565b6116f782826040518060200160405280600081525061194c565b5050565b60008373ffffffffffffffffffffffffffffffffffffffff1663150b7a026117216113ee565b8786866040518563ffffffff1660e01b8152600401611743949392919061294c565b6020604051808303816000875af192505050801561177f57506040513d601f19601f8201168201806040525081019061177c91906129ad565b60015b6117f8573d80600081146117af576040519150601f19603f3d011682016040523d82523d6000602084013e6117b4565b606091505b5060008151036117f0576040517fd1a57ed600000000000000000000000000000000000000000000000000000000815260040160405180910390fd5b805181602001fd5b63150b7a0260e01b7bffffffffffffffffffffffffffffffffffffffffffffffffffffffff1916817bffffffffffffffffffffffffffffffffffffffffffffffffffffffff191614915050949350505050565b60606009805461185a90612656565b80601f016020809104026020016040519081016040528092919081815260200182805461188690612656565b80156118d35780601f106118a8576101008083540402835291602001916118d3565b820191906000526020600020905b8154815290600101906020018083116118b657829003601f168201915b5050505050905090565b606060a060405101806040526020810391506000825281835b60011561191857600184039350600a81066030018453600a81049050806118f6575b50828103602084039350808452505050919050565b6119388160006119ea565b50565b60009392505050565b600033905090565b6119568383611c3c565b60008373ffffffffffffffffffffffffffffffffffffffff163b146119e55760006001549050600083820390505b61199760008683806001019450866116fb565b6119cd576040517fd1a57ed600000000000000000000000000000000000000000000000000000000815260040160405180910390fd5b8181106119845781600154146119e257600080fd5b50505b505050565b60006119f583611405565b90506000819050600080611a08866114d1565b915091508415611a7157611a248184611a1f6113ee565b6114f8565b611a7057611a3983611a346113ee565b611278565b611a6f576040517f59c896be00000000000000000000000000000000000000000000000000000000815260040160405180910390fd5b5b5b611a7f83600088600161153c565b8015611a8a57600082555b600160806001901b03600660008573ffffffffffffffffffffffffffffffffffffffff1673ffffffffffffffffffffffffffffffffffffffff16815260200190815260200160002060008282540192505081905550611b3283611aef85600088611542565b7c02000000000000000000000000000000000000000000000000000000007c0100000000000000000000000000000000000000000000000000000000171761156a565b600560008881526020019081526020016000208190555060007c0200000000000000000000000000000000000000000000000000000000851603611bb85760006001870190506000600560008381526020019081526020016000205403611bb6576001548114611bb5578460056000838152602001908152602001600020819055505b5b505b85600073ffffffffffffffffffffffffffffffffffffffff168473ffffffffffffffffffffffffffffffffffffffff167fddf252ad1be2c89b69c2b068fc378daa952ba7f163c4a11628f55a4df523b3ef60405160405180910390a4611c22836000886001611595565b600260008154809291906001019190505550505050505050565b6000600154905060008203611c7d576040517fb562e8dd00000000000000000000000000000000000000000000000000000000815260040160405180910390fd5b611c8a600084838561153c565b600160406001901b178202600660008573ffffffffffffffffffffffffffffffffffffffff1673ffffffffffffffffffffffffffffffffffffffff16815260200190815260200160002060008282540192505081905550611d0183611cf26000866000611542565b611cfb85611df8565b1761156a565b6005600083815260200190815260200160002081905550600080838301905073ffffffffffffffffffffffffffffffffffffffff85169150828260007fddf252ad1be2c89b69c2b068fc378daa952ba7f163c4a11628f55a4df523b3ef600080a4600183015b818114611da257808360007fddf252ad1be2c89b69c2b068fc378daa952ba7f163c4a11628f55a4df523b3ef600080a4600181019050611d67565b5060008203611ddd576040517f2e07630000000000000000000000000000000000000000000000000000000000815260040160405180910390fd5b806001819055505050611df36000848385611595565b505050565b60006001821460e11b9050919050565b828054611e1490612656565b90600052602060002090601f016020900481019282611e365760008555611e7d565b82601f10611e4f57803560ff1916838001178555611e7d565b82800160010185558215611e7d579182015b82811115611e7c578235825591602001919060010190611e61565b5b509050611e8a9190611e8e565b5090565b5b80821115611ea7576000816000905550600101611e8f565b5090565b6000604051905090565b600080fd5b600080fd5b60007fffffffff0000000000000000000000000000000000000000000000000000000082169050919050565b611ef481611ebf565b8114611eff57600080fd5b50565b600081359050611f1181611eeb565b92915050565b600060208284031215611f2d57611f2c611eb5565b5b6000611f3b84828501611f02565b91505092915050565b60008115159050919050565b611f5981611f44565b82525050565b6000602082019050611f746000830184611f50565b92915050565b600081519050919050565b600082825260208201905092915050565b60005b83811015611fb4578082015181840152602081019050611f99565b83811115611fc3576000848401525b50505050565b6000601f19601f8301169050919050565b6000611fe582611f7a565b611fef8185611f85565b9350611fff818560208601611f96565b61200881611fc9565b840191505092915050565b6000602082019050818103600083015261202d8184611fda565b905092915050565b6000819050919050565b61204881612035565b811461205357600080fd5b50565b6000813590506120658161203f565b92915050565b60006020828403121561208157612080611eb5565b5b600061208f84828501612056565b91505092915050565b600073ffffffffffffffffffffffffffffffffffffffff82169050919050565b60006120c382612098565b9050919050565b6120d3816120b8565b82525050565b60006020820190506120ee60008301846120ca565b92915050565b6120fd816120b8565b811461210857600080fd5b50565b60008135905061211a816120f4565b92915050565b6000806040838503121561213757612136611eb5565b5b60006121458582860161210b565b925050602061215685828601612056565b9150509250929050565b61216981612035565b82525050565b60006020820190506121846000830184612160565b92915050565b6000806000606084860312156121a3576121a2611eb5565b5b60006121b18682870161210b565b93505060206121c28682870161210b565b92505060406121d386828701612056565b9150509250925092565b600080fd5b600080fd5b600080fd5b60008083601f840112612202576122016121dd565b5b8235905067ffffffffffffffff81111561221f5761221e6121e2565b5b60208301915083600182028301111561223b5761223a6121e7565b5b9250929050565b6000806020838503121561225957612258611eb5565b5b600083013567ffffffffffffffff81111561227757612276611eba565b5b612283858286016121ec565b92509250509250929050565b6000602082840312156122a5576122a4611eb5565b5b60006122b38482850161210b565b91505092915050565b7f4e487b7100000000000000000000000000000000000000000000000000000000600052604160045260246000fd5b6122f482611fc9565b810181811067ffffffffffffffff82111715612313576123126122bc565b5b80604052505050565b6000612326611eab565b905061233282826122eb565b919050565b600067ffffffffffffffff821115612352576123516122bc565b5b602082029050602081019050919050565b600061237661237184612337565b61231c565b90508083825260208201905060208402830185811115612399576123986121e7565b5b835b818110156123c257806123ae8882612056565b84526020840193505060208101905061239b565b5050509392505050565b600082601f8301126123e1576123e06121dd565b5b81356123f1848260208601612363565b91505092915050565b6000602082840312156124105761240f611eb5565b5b600082013567ffffffffffffffff81111561242e5761242d611eba565b5b61243a848285016123cc565b91505092915050565b61244c81611f44565b811461245757600080fd5b50565b60008135905061246981612443565b92915050565b6000806040838503121561248657612485611eb5565b5b60006124948582860161210b565b92505060206124a58582860161245a565b9150509250929050565b600080fd5b600067ffffffffffffffff8211156124cf576124ce6122bc565b5b6124d882611fc9565b9050602081019050919050565b82818337600083830152505050565b6000612507612502846124b4565b61231c565b905082815260208101848484011115612523576125226124af565b5b61252e8482856124e5565b509392505050565b600082601f83011261254b5761254a6121dd565b5b813561255b8482602086016124f4565b91505092915050565b6000806000806080858703121561257e5761257d611eb5565b5b600061258c8782880161210b565b945050602061259d8782880161210b565b93505060406125ae87828801612056565b925050606085013567ffffffffffffffff8111156125cf576125ce611eba565b5b6125db87828801612536565b91505092959194509250565b600080604083850312156125fe576125fd611eb5565b5b600061260c8582860161210b565b925050602061261d8582860161210b565b9150509250929050565b7f4e487b7100000000000000000000000000000000000000000000000000000000600052602260045260246000fd5b6000600282049050600182168061266e57607f821691505b60208210810361268157612680612627565b5b50919050565b7f4e487b7100000000000000000000000000000000000000000000000000000000600052603260045260246000fd5b7f6e66746964206578697374212121000000000000000000000000000000000000600082015250565b60006126ec600e83611f85565b91506126f7826126b6565b602082019050919050565b6000602082019050818103600083015261271b816126df565b9050919050565b7f4e487b7100000000000000000000000000000000000000000000000000000000600052601160045260246000fd5b600061275c82612035565b91507fffffffffffffffffffffffffffffffffffffffffffffffffffffffffffffffff820361278e5761278d612722565b5b600182019050919050565b600081905092915050565b60006127af82611f7a565b6127b98185612799565b93506127c9818560208601611f96565b80840191505092915050565b60006127e182856127a4565b91506127ed82846127a4565b91508190509392505050565b7f4f776e61626c653a206e6577206f776e657220697320746865207a65726f206160008201527f6464726573730000000000000000000000000000000000000000000000000000602082015250565b6000612855602683611f85565b9150612860826127f9565b604082019050919050565b6000602082019050818103600083015261288481612848565b9050919050565b7f4f776e61626c653a2063616c6c6572206973206e6f7420746865206f776e6572600082015250565b60006128c1602083611f85565b91506128cc8261288b565b602082019050919050565b600060208201905081810360008301526128f0816128b4565b9050919050565b600081519050919050565b600082825260208201905092915050565b600061291e826128f7565b6129288185612902565b9350612938818560208601611f96565b61294181611fc9565b840191505092915050565b600060808201905061296160008301876120ca565b61296e60208301866120ca565b61297b6040830185612160565b818103606083015261298d8184612913565b905095945050505050565b6000815190506129a781611eeb565b92915050565b6000602082840312156129c3576129c2611eb5565b5b60006129d184828501612998565b9150509291505056fea26469706673582212208872237838e0d6dd2a6b06201aa4dda9819c3e35fde87bae34697f207a075c3b64736f6c634300080d0033",
					"opcodes": "PUSH1 0x80 PUSH1 0x40 MSTORE CALLVALUE DUP1 ISZERO PUSH3 0x11 JUMPI PUSH1 0x0 DUP1 REVERT JUMPDEST POP PUSH1 0x40 MLOAD PUSH3 0x2F20 CODESIZE SUB DUP1 PUSH3 0x2F20 DUP4 CODECOPY DUP2 DUP2 ADD PUSH1 0x40 MSTORE DUP2 ADD SWAP1 PUSH3 0x37 SWAP2 SWAP1 PUSH3 0x3E3 JUMP JUMPDEST DUP2 DUP2 PUSH3 0x59 PUSH3 0x4D PUSH3 0xC5 PUSH1 0x20 SHL PUSH1 0x20 SHR JUMP JUMPDEST PUSH3 0xCD PUSH1 0x20 SHL PUSH1 0x20 SHR JUMP JUMPDEST DUP2 PUSH1 0x3 SWAP1 DUP1 MLOAD SWAP1 PUSH1 0x20 ADD SWAP1 PUSH3 0x71 SWAP3 SWAP2 SWAP1 PUSH3 0x196 JUMP JUMPDEST POP DUP1 PUSH1 0x4 SWAP1 DUP1 MLOAD SWAP1 PUSH1 0x20 ADD SWAP1 PUSH3 0x8A SWAP3 SWAP2 SWAP1 PUSH3 0x196 JUMP JUMPDEST POP PUSH3 0x9B PUSH3 0x191 PUSH1 0x20 SHL PUSH1 0x20 SHR JUMP JUMPDEST PUSH1 0x1 DUP2 SWAP1 SSTORE POP POP POP DUP3 PUSH1 0x9 SWAP1 DUP1 MLOAD SWAP1 PUSH1 0x20 ADD SWAP1 PUSH3 0xBB SWAP3 SWAP2 SWAP1 PUSH3 0x196 JUMP JUMPDEST POP POP POP POP PUSH3 0x500 JUMP JUMPDEST PUSH1 0x0 CALLER SWAP1 POP SWAP1 JUMP JUMPDEST PUSH1 0x0 DUP1 PUSH1 0x0 SWAP1 SLOAD SWAP1 PUSH2 0x100 EXP SWAP1 DIV PUSH20 0xFFFFFFFFFFFFFFFFFFFFFFFFFFFFFFFFFFFFFFFF AND SWAP1 POP DUP2 PUSH1 0x0 DUP1 PUSH2 0x100 EXP DUP2 SLOAD DUP2 PUSH20 0xFFFFFFFFFFFFFFFFFFFFFFFFFFFFFFFFFFFFFFFF MUL NOT AND SWAP1 DUP4 PUSH20 0xFFFFFFFFFFFFFFFFFFFFFFFFFFFFFFFFFFFFFFFF AND MUL OR SWAP1 SSTORE POP DUP2 PUSH20 0xFFFFFFFFFFFFFFFFFFFFFFFFFFFFFFFFFFFFFFFF AND DUP2 PUSH20 0xFFFFFFFFFFFFFFFFFFFFFFFFFFFFFFFFFFFFFFFF AND PUSH32 0x8BE0079C531659141344CD1FD0A4F28419497F9722A3DAAFE3B4186F6B6457E0 PUSH1 0x40 MLOAD PUSH1 0x40 MLOAD DUP1 SWAP2 SUB SWAP1 LOG3 POP POP JUMP JUMPDEST PUSH1 0x0 SWAP1 JUMP JUMPDEST DUP3 DUP1 SLOAD PUSH3 0x1A4 SWAP1 PUSH3 0x4CB JUMP JUMPDEST SWAP1 PUSH1 0x0 MSTORE PUSH1 0x20 PUSH1 0x0 KECCAK256 SWAP1 PUSH1 0x1F ADD PUSH1 0x20 SWAP1 DIV DUP2 ADD SWAP3 DUP3 PUSH3 0x1C8 JUMPI PUSH1 0x0 DUP6 SSTORE PUSH3 0x214 JUMP JUMPDEST DUP3 PUSH1 0x1F LT PUSH3 0x1E3 JUMPI DUP1 MLOAD PUSH1 0xFF NOT AND DUP4 DUP1 ADD OR DUP6 SSTORE PUSH3 0x214 JUMP JUMPDEST DUP3 DUP1 ADD PUSH1 0x1 ADD DUP6 SSTORE DUP3 ISZERO PUSH3 0x214 JUMPI SWAP2 DUP3 ADD JUMPDEST DUP3 DUP2 GT ISZERO PUSH3 0x213 JUMPI DUP3 MLOAD DUP3 SSTORE SWAP2 PUSH1 0x20 ADD SWAP2 SWAP1 PUSH1 0x1 ADD SWAP1 PUSH3 0x1F6 JUMP JUMPDEST JUMPDEST POP SWAP1 POP PUSH3 0x223 SWAP2 SWAP1 PUSH3 0x227 JUMP JUMPDEST POP SWAP1 JUMP JUMPDEST JUMPDEST DUP1 DUP3 GT ISZERO PUSH3 0x242 JUMPI PUSH1 0x0 DUP2 PUSH1 0x0 SWAP1 SSTORE POP PUSH1 0x1 ADD PUSH3 0x228 JUMP JUMPDEST POP SWAP1 JUMP JUMPDEST PUSH1 0x0 PUSH1 0x40 MLOAD SWAP1 POP SWAP1 JUMP JUMPDEST PUSH1 0x0 DUP1 REVERT JUMPDEST PUSH1 0x0 DUP1 REVERT JUMPDEST PUSH1 0x0 DUP1 REVERT JUMPDEST PUSH1 0x0 DUP1 REVERT JUMPDEST PUSH1 0x0 PUSH1 0x1F NOT PUSH1 0x1F DUP4 ADD AND SWAP1 POP SWAP2 SWAP1 POP JUMP JUMPDEST PUSH32 0x4E487B7100000000000000000000000000000000000000000000000000000000 PUSH1 0x0 MSTORE PUSH1 0x41 PUSH1 0x4 MSTORE PUSH1 0x24 PUSH1 0x0 REVERT JUMPDEST PUSH3 0x2AF DUP3 PUSH3 0x264 JUMP JUMPDEST DUP2 ADD DUP2 DUP2 LT PUSH8 0xFFFFFFFFFFFFFFFF DUP3 GT OR ISZERO PUSH3 0x2D1 JUMPI PUSH3 0x2D0 PUSH3 0x275 JUMP JUMPDEST JUMPDEST DUP1 PUSH1 0x40 MSTORE POP POP POP JUMP JUMPDEST PUSH1 0x0 PUSH3 0x2E6 PUSH3 0x246 JUMP JUMPDEST SWAP1 POP PUSH3 0x2F4 DUP3 DUP3 PUSH3 0x2A4 JUMP JUMPDEST SWAP2 SWAP1 POP JUMP JUMPDEST PUSH1 0x0 PUSH8 0xFFFFFFFFFFFFFFFF DUP3 GT ISZERO PUSH3 0x317 JUMPI PUSH3 0x316 PUSH3 0x275 JUMP JUMPDEST JUMPDEST PUSH3 0x322 DUP3 PUSH3 0x264 JUMP JUMPDEST SWAP1 POP PUSH1 0x20 DUP2 ADD SWAP1 POP SWAP2 SWAP1 POP JUMP JUMPDEST PUSH1 0x0 JUMPDEST DUP4 DUP2 LT ISZERO PUSH3 0x34F JUMPI DUP1 DUP3 ADD MLOAD DUP2 DUP5 ADD MSTORE PUSH1 0x20 DUP2 ADD SWAP1 POP PUSH3 0x332 JUMP JUMPDEST DUP4 DUP2 GT ISZERO PUSH3 0x35F JUMPI PUSH1 0x0 DUP5 DUP5 ADD MSTORE JUMPDEST POP POP POP POP JUMP JUMPDEST PUSH1 0x0 PUSH3 0x37C PUSH3 0x376 DUP5 PUSH3 0x2F9 JUMP JUMPDEST PUSH3 0x2DA JUMP JUMPDEST SWAP1 POP DUP3 DUP2 MSTORE PUSH1 0x20 DUP2 ADD DUP5 DUP5 DUP5 ADD GT ISZERO PUSH3 0x39B JUMPI PUSH3 0x39A PUSH3 0x25F JUMP JUMPDEST JUMPDEST PUSH3 0x3A8 DUP5 DUP3 DUP6 PUSH3 0x32F JUMP JUMPDEST POP SWAP4 SWAP3 POP POP POP JUMP JUMPDEST PUSH1 0x0 DUP3 PUSH1 0x1F DUP4 ADD SLT PUSH3 0x3C8 JUMPI PUSH3 0x3C7 PUSH3 0x25A JUMP JUMPDEST JUMPDEST DUP2 MLOAD PUSH3 0x3DA DUP5 DUP3 PUSH1 0x20 DUP7 ADD PUSH3 0x365 JUMP JUMPDEST SWAP2 POP POP SWAP3 SWAP2 POP POP JUMP JUMPDEST PUSH1 0x0 DUP1 PUSH1 0x0 PUSH1 0x60 DUP5 DUP7 SUB SLT ISZERO PUSH3 0x3FF JUMPI PUSH3 0x3FE PUSH3 0x250 JUMP JUMPDEST JUMPDEST PUSH1 0x0 DUP5 ADD MLOAD PUSH8 0xFFFFFFFFFFFFFFFF DUP2 GT ISZERO PUSH3 0x420 JUMPI PUSH3 0x41F PUSH3 0x255 JUMP JUMPDEST JUMPDEST PUSH3 0x42E DUP7 DUP3 DUP8 ADD PUSH3 0x3B0 JUMP JUMPDEST SWAP4 POP POP PUSH1 0x20 DUP5 ADD MLOAD PUSH8 0xFFFFFFFFFFFFFFFF DUP2 GT ISZERO PUSH3 0x452 JUMPI PUSH3 0x451 PUSH3 0x255 JUMP JUMPDEST JUMPDEST PUSH3 0x460 DUP7 DUP3 DUP8 ADD PUSH3 0x3B0 JUMP JUMPDEST SWAP3 POP POP PUSH1 0x40 DUP5 ADD MLOAD PUSH8 0xFFFFFFFFFFFFFFFF DUP2 GT ISZERO PUSH3 0x484 JUMPI PUSH3 0x483 PUSH3 0x255 JUMP JUMPDEST JUMPDEST PUSH3 0x492 DUP7 DUP3 DUP8 ADD PUSH3 0x3B0 JUMP JUMPDEST SWAP2 POP POP SWAP3 POP SWAP3 POP SWAP3 JUMP JUMPDEST PUSH32 0x4E487B7100000000000000000000000000000000000000000000000000000000 PUSH1 0x0 MSTORE PUSH1 0x22 PUSH1 0x4 MSTORE PUSH1 0x24 PUSH1 0x0 REVERT JUMPDEST PUSH1 0x0 PUSH1 0x2 DUP3 DIV SWAP1 POP PUSH1 0x1 DUP3 AND DUP1 PUSH3 0x4E4 JUMPI PUSH1 0x7F DUP3 AND SWAP2 POP JUMPDEST PUSH1 0x20 DUP3 LT DUP2 SUB PUSH3 0x4FA JUMPI PUSH3 0x4F9 PUSH3 0x49C JUMP JUMPDEST JUMPDEST POP SWAP2 SWAP1 POP JUMP JUMPDEST PUSH2 0x2A10 DUP1 PUSH3 0x510 PUSH1 0x0 CODECOPY PUSH1 0x0 RETURN INVALID PUSH1 0x80 PUSH1 0x40 MSTORE PUSH1 0x4 CALLDATASIZE LT PUSH2 0x166 JUMPI PUSH1 0x0 CALLDATALOAD PUSH1 0xE0 SHR DUP1 PUSH4 0x715018A6 GT PUSH2 0xD1 JUMPI DUP1 PUSH4 0xA65E06E8 GT PUSH2 0x8A JUMPI DUP1 PUSH4 0xC87B56DD GT PUSH2 0x64 JUMPI DUP1 PUSH4 0xC87B56DD EQ PUSH2 0x518 JUMPI DUP1 PUSH4 0xDB006A75 EQ PUSH2 0x555 JUMPI DUP1 PUSH4 0xE985E9C5 EQ PUSH2 0x57E JUMPI DUP1 PUSH4 0xF2FDE38B EQ PUSH2 0x5BB JUMPI PUSH2 0x166 JUMP JUMPDEST DUP1 PUSH4 0xA65E06E8 EQ PUSH2 0x482 JUMPI DUP1 PUSH4 0xB73B99A2 EQ PUSH2 0x4BF JUMPI DUP1 PUSH4 0xB88D4FDE EQ PUSH2 0x4FC JUMPI PUSH2 0x166 JUMP JUMPDEST DUP1 PUSH4 0x715018A6 EQ PUSH2 0x39A JUMPI DUP1 PUSH4 0x8DA5CB5B EQ PUSH2 0x3B1 JUMPI DUP1 PUSH4 0x8FFBE96B EQ PUSH2 0x3DC JUMPI DUP1 PUSH4 0x95D89B41 EQ PUSH2 0x405 JUMPI DUP1 PUSH4 0xA0712D68 EQ PUSH2 0x430 JUMPI DUP1 PUSH4 0xA22CB465 EQ PUSH2 0x459 JUMPI PUSH2 0x166 JUMP JUMPDEST DUP1 PUSH4 0x23B872DD GT PUSH2 0x123 JUMPI DUP1 PUSH4 0x23B872DD EQ PUSH2 0x282 JUMPI DUP1 PUSH4 0x42842E0E EQ PUSH2 0x29E JUMPI DUP1 PUSH4 0x51E164B7 EQ PUSH2 0x2BA JUMPI DUP1 PUSH4 0x55F804B3 EQ PUSH2 0x2F7 JUMPI DUP1 PUSH4 0x6352211E EQ PUSH2 0x320 JUMPI DUP1 PUSH4 0x70A08231 EQ PUSH2 0x35D JUMPI PUSH2 0x166 JUMP JUMPDEST DUP1 PUSH4 0x1FFC9A7 EQ PUSH2 0x16B JUMPI DUP1 PUSH4 0x6FDDE03 EQ PUSH2 0x1A8 JUMPI DUP1 PUSH4 0x81812FC EQ PUSH2 0x1D3 JUMPI DUP1 PUSH4 0x95EA7B3 EQ PUSH2 0x210 JUMPI DUP1 PUSH4 0xD9005AE EQ PUSH2 0x22C JUMPI DUP1 PUSH4 0x18160DDD EQ PUSH2 0x257 JUMPI JUMPDEST PUSH1 0x0 DUP1 REVERT JUMPDEST CALLVALUE DUP1 ISZERO PUSH2 0x177 JUMPI PUSH1 0x0 DUP1 REVERT JUMPDEST POP PUSH2 0x192 PUSH1 0x4 DUP1 CALLDATASIZE SUB DUP2 ADD SWAP1 PUSH2 0x18D SWAP2 SWAP1 PUSH2 0x1F17 JUMP JUMPDEST PUSH2 0x5E4 JUMP JUMPDEST PUSH1 0x40 MLOAD PUSH2 0x19F SWAP2 SWAP1 PUSH2 0x1F5F JUMP JUMPDEST PUSH1 0x40 MLOAD DUP1 SWAP2 SUB SWAP1 RETURN JUMPDEST CALLVALUE DUP1 ISZERO PUSH2 0x1B4 JUMPI PUSH1 0x0 DUP1 REVERT JUMPDEST POP PUSH2 0x1BD PUSH2 0x676 JUMP JUMPDEST PUSH1 0x40 MLOAD PUSH2 0x1CA SWAP2 SWAP1 PUSH2 0x2013 JUMP JUMPDEST PUSH1 0x40 MLOAD DUP1 SWAP2 SUB SWAP1 RETURN JUMPDEST CALLVALUE DUP1 ISZERO PUSH2 0x1DF JUMPI PUSH1 0x0 DUP1 REVERT JUMPDEST POP PUSH2 0x1FA PUSH1 0x4 DUP1 CALLDATASIZE SUB DUP2 ADD SWAP1 PUSH2 0x1F5 SWAP2 SWAP1 PUSH2 0x206B JUMP JUMPDEST PUSH2 0x708 JUMP JUMPDEST PUSH1 0x40 MLOAD PUSH2 0x207 SWAP2 SWAP1 PUSH2 0x20D9 JUMP JUMPDEST PUSH1 0x40 MLOAD DUP1 SWAP2 SUB SWAP1 RETURN JUMPDEST PUSH2 0x22A PUSH1 0x4 DUP1 CALLDATASIZE SUB DUP2 ADD SWAP1 PUSH2 0x225 SWAP2 SWAP1 PUSH2 0x2120 JUMP JUMPDEST PUSH2 0x787 JUMP JUMPDEST STOP JUMPDEST CALLVALUE DUP1 ISZERO PUSH2 0x238 JUMPI PUSH1 0x0 DUP1 REVERT JUMPDEST POP PUSH2 0x241 PUSH2 0x8CB JUMP JUMPDEST PUSH1 0x40 MLOAD PUSH2 0x24E SWAP2 SWAP1 PUSH2 0x216F JUMP JUMPDEST PUSH1 0x40 MLOAD DUP1 SWAP2 SUB SWAP1 RETURN JUMPDEST CALLVALUE DUP1 ISZERO PUSH2 0x263 JUMPI PUSH1 0x0 DUP1 REVERT JUMPDEST POP PUSH2 0x26C PUSH2 0x8DA JUMP JUMPDEST PUSH1 0x40 MLOAD PUSH2 0x279 SWAP2 SWAP1 PUSH2 0x216F JUMP JUMPDEST PUSH1 0x40 MLOAD DUP1 SWAP2 SUB SWAP1 RETURN JUMPDEST PUSH2 0x29C PUSH1 0x4 DUP1 CALLDATASIZE SUB DUP2 ADD SWAP1 PUSH2 0x297 SWAP2 SWAP1 PUSH2 0x218A JUMP JUMPDEST PUSH2 0x8F1 JUMP JUMPDEST STOP JUMPDEST PUSH2 0x2B8 PUSH1 0x4 DUP1 CALLDATASIZE SUB DUP2 ADD SWAP1 PUSH2 0x2B3 SWAP2 SWAP1 PUSH2 0x218A JUMP JUMPDEST PUSH2 0xC13 JUMP JUMPDEST STOP JUMPDEST CALLVALUE DUP1 ISZERO PUSH2 0x2C6 JUMPI PUSH1 0x0 DUP1 REVERT JUMPDEST POP PUSH2 0x2E1 PUSH1 0x4 DUP1 CALLDATASIZE SUB DUP2 ADD SWAP1 PUSH2 0x2DC SWAP2 SWAP1 PUSH2 0x206B JUMP JUMPDEST PUSH2 0xC33 JUMP JUMPDEST PUSH1 0x40 MLOAD PUSH2 0x2EE SWAP2 SWAP1 PUSH2 0x216F JUMP JUMPDEST PUSH1 0x40 MLOAD DUP1 SWAP2 SUB SWAP1 RETURN JUMPDEST CALLVALUE DUP1 ISZERO PUSH2 0x303 JUMPI PUSH1 0x0 DUP1 REVERT JUMPDEST POP PUSH2 0x31E PUSH1 0x4 DUP1 CALLDATASIZE SUB DUP2 ADD SWAP1 PUSH2 0x319 SWAP2 SWAP1 PUSH2 0x2242 JUMP JUMPDEST PUSH2 0xC4B JUMP JUMPDEST STOP JUMPDEST CALLVALUE DUP1 ISZERO PUSH2 0x32C JUMPI PUSH1 0x0 DUP1 REVERT JUMPDEST POP PUSH2 0x347 PUSH1 0x4 DUP1 CALLDATASIZE SUB DUP2 ADD SWAP1 PUSH2 0x342 SWAP2 SWAP1 PUSH2 0x206B JUMP JUMPDEST PUSH2 0xC69 JUMP JUMPDEST PUSH1 0x40 MLOAD PUSH2 0x354 SWAP2 SWAP1 PUSH2 0x20D9 JUMP JUMPDEST PUSH1 0x40 MLOAD DUP1 SWAP2 SUB SWAP1 RETURN JUMPDEST CALLVALUE DUP1 ISZERO PUSH2 0x369 JUMPI PUSH1 0x0 DUP1 REVERT JUMPDEST POP PUSH2 0x384 PUSH1 0x4 DUP1 CALLDATASIZE SUB DUP2 ADD SWAP1 PUSH2 0x37F SWAP2 SWAP1 PUSH2 0x228F JUMP JUMPDEST PUSH2 0xC7B JUMP JUMPDEST PUSH1 0x40 MLOAD PUSH2 0x391 SWAP2 SWAP1 PUSH2 0x216F JUMP JUMPDEST PUSH1 0x40 MLOAD DUP1 SWAP2 SUB SWAP1 RETURN JUMPDEST CALLVALUE DUP1 ISZERO PUSH2 0x3A6 JUMPI PUSH1 0x0 DUP1 REVERT JUMPDEST POP PUSH2 0x3AF PUSH2 0xD33 JUMP JUMPDEST STOP JUMPDEST CALLVALUE DUP1 ISZERO PUSH2 0x3BD JUMPI PUSH1 0x0 DUP1 REVERT JUMPDEST POP PUSH2 0x3C6 PUSH2 0xD47 JUMP JUMPDEST PUSH1 0x40 MLOAD PUSH2 0x3D3 SWAP2 SWAP1 PUSH2 0x20D9 JUMP JUMPDEST PUSH1 0x40 MLOAD DUP1 SWAP2 SUB SWAP1 RETURN JUMPDEST CALLVALUE DUP1 ISZERO PUSH2 0x3E8 JUMPI PUSH1 0x0 DUP1 REVERT JUMPDEST POP PUSH2 0x403 PUSH1 0x4 DUP1 CALLDATASIZE SUB DUP2 ADD SWAP1 PUSH2 0x3FE SWAP2 SWAP1 PUSH2 0x23FA JUMP JUMPDEST PUSH2 0xD70 JUMP JUMPDEST STOP JUMPDEST CALLVALUE DUP1 ISZERO PUSH2 0x411 JUMPI PUSH1 0x0 DUP1 REVERT JUMPDEST POP PUSH2 0x41A PUSH2 0xE97 JUMP JUMPDEST PUSH1 0x40 MLOAD PUSH2 0x427 SWAP2 SWAP1 PUSH2 0x2013 JUMP JUMPDEST PUSH1 0x40 MLOAD DUP1 SWAP2 SUB SWAP1 RETURN JUMPDEST CALLVALUE DUP1 ISZERO PUSH2 0x43C JUMPI PUSH1 0x0 DUP1 REVERT JUMPDEST POP PUSH2 0x457 PUSH1 0x4 DUP1 CALLDATASIZE SUB DUP2 ADD SWAP1 PUSH2 0x452 SWAP2 SWAP1 PUSH2 0x206B JUMP JUMPDEST PUSH2 0xF29 JUMP JUMPDEST STOP JUMPDEST CALLVALUE DUP1 ISZERO PUSH2 0x465 JUMPI PUSH1 0x0 DUP1 REVERT JUMPDEST POP PUSH2 0x480 PUSH1 0x4 DUP1 CALLDATASIZE SUB DUP2 ADD SWAP1 PUSH2 0x47B SWAP2 SWAP1 PUSH2 0x246F JUMP JUMPDEST PUSH2 0x1010 JUMP JUMPDEST STOP JUMPDEST CALLVALUE DUP1 ISZERO PUSH2 0x48E JUMPI PUSH1 0x0 DUP1 REVERT JUMPDEST POP PUSH2 0x4A9 PUSH1 0x4 DUP1 CALLDATASIZE SUB DUP2 ADD SWAP1 PUSH2 0x4A4 SWAP2 SWAP1 PUSH2 0x206B JUMP JUMPDEST PUSH2 0x111B JUMP JUMPDEST PUSH1 0x40 MLOAD PUSH2 0x4B6 SWAP2 SWAP1 PUSH2 0x1F5F JUMP JUMPDEST PUSH1 0x40 MLOAD DUP1 SWAP2 SUB SWAP1 RETURN JUMPDEST CALLVALUE DUP1 ISZERO PUSH2 0x4CB JUMPI PUSH1 0x0 DUP1 REVERT JUMPDEST POP PUSH2 0x4E6 PUSH1 0x4 DUP1 CALLDATASIZE SUB DUP2 ADD SWAP1 PUSH2 0x4E1 SWAP2 SWAP1 PUSH2 0x206B JUMP JUMPDEST PUSH2 0x113B JUMP JUMPDEST PUSH1 0x40 MLOAD PUSH2 0x4F3 SWAP2 SWAP1 PUSH2 0x216F JUMP JUMPDEST PUSH1 0x40 MLOAD DUP1 SWAP2 SUB SWAP1 RETURN JUMPDEST PUSH2 0x516 PUSH1 0x4 DUP1 CALLDATASIZE SUB DUP2 ADD SWAP1 PUSH2 0x511 SWAP2 SWAP1 PUSH2 0x2564 JUMP JUMPDEST PUSH2 0x1153 JUMP JUMPDEST STOP JUMPDEST CALLVALUE DUP1 ISZERO PUSH2 0x524 JUMPI PUSH1 0x0 DUP1 REVERT JUMPDEST POP PUSH2 0x53F PUSH1 0x4 DUP1 CALLDATASIZE SUB DUP2 ADD SWAP1 PUSH2 0x53A SWAP2 SWAP1 PUSH2 0x206B JUMP JUMPDEST PUSH2 0x11C6 JUMP JUMPDEST PUSH1 0x40 MLOAD PUSH2 0x54C SWAP2 SWAP1 PUSH2 0x2013 JUMP JUMPDEST PUSH1 0x40 MLOAD DUP1 SWAP2 SUB SWAP1 RETURN JUMPDEST CALLVALUE DUP1 ISZERO PUSH2 0x561 JUMPI PUSH1 0x0 DUP1 REVERT JUMPDEST POP PUSH2 0x57C PUSH1 0x4 DUP1 CALLDATASIZE SUB DUP2 ADD SWAP1 PUSH2 0x577 SWAP2 SWAP1 PUSH2 0x206B JUMP JUMPDEST PUSH2 0x1264 JUMP JUMPDEST STOP JUMPDEST CALLVALUE DUP1 ISZERO PUSH2 0x58A JUMPI PUSH1 0x0 DUP1 REVERT JUMPDEST POP PUSH2 0x5A5 PUSH1 0x4 DUP1 CALLDATASIZE SUB DUP2 ADD SWAP1 PUSH2 0x5A0 SWAP2 SWAP1 PUSH2 0x25E7 JUMP JUMPDEST PUSH2 0x1278 JUMP JUMPDEST PUSH1 0x40 MLOAD PUSH2 0x5B2 SWAP2 SWAP1 PUSH2 0x1F5F JUMP JUMPDEST PUSH1 0x40 MLOAD DUP1 SWAP2 SUB SWAP1 RETURN JUMPDEST CALLVALUE DUP1 ISZERO PUSH2 0x5C7 JUMPI PUSH1 0x0 DUP1 REVERT JUMPDEST POP PUSH2 0x5E2 PUSH1 0x4 DUP1 CALLDATASIZE SUB DUP2 ADD SWAP1 PUSH2 0x5DD SWAP2 SWAP1 PUSH2 0x228F JUMP JUMPDEST PUSH2 0x130C JUMP JUMPDEST STOP JUMPDEST PUSH1 0x0 PUSH4 0x1FFC9A7 PUSH1 0xE0 SHL DUP3 PUSH28 0xFFFFFFFFFFFFFFFFFFFFFFFFFFFFFFFFFFFFFFFFFFFFFFFFFFFFFFFF NOT AND EQ DUP1 PUSH2 0x63F JUMPI POP PUSH4 0x80AC58CD PUSH1 0xE0 SHL DUP3 PUSH28 0xFFFFFFFFFFFFFFFFFFFFFFFFFFFFFFFFFFFFFFFFFFFFFFFFFFFFFFFF NOT AND EQ JUMPDEST DUP1 PUSH2 0x66F JUMPI POP PUSH4 0x5B5E139F PUSH1 0xE0 SHL DUP3 PUSH28 0xFFFFFFFFFFFFFFFFFFFFFFFFFFFFFFFFFFFFFFFFFFFFFFFFFFFFFFFF NOT AND EQ JUMPDEST SWAP1 POP SWAP2 SWAP1 POP JUMP JUMPDEST PUSH1 0x60 PUSH1 0x3 DUP1 SLOAD PUSH2 0x685 SWAP1 PUSH2 0x2656 JUMP JUMPDEST DUP1 PUSH1 0x1F ADD PUSH1 0x20 DUP1 SWAP2 DIV MUL PUSH1 0x20 ADD PUSH1 0x40 MLOAD SWAP1 DUP2 ADD PUSH1 0x40 MSTORE DUP1 SWAP3 SWAP2 SWAP1 DUP2 DUP2 MSTORE PUSH1 0x20 ADD DUP3 DUP1 SLOAD PUSH2 0x6B1 SWAP1 PUSH2 0x2656 JUMP JUMPDEST DUP1 ISZERO PUSH2 0x6FE JUMPI DUP1 PUSH1 0x1F LT PUSH2 0x6D3 JUMPI PUSH2 0x100 DUP1 DUP4 SLOAD DIV MUL DUP4 MSTORE SWAP2 PUSH1 0x20 ADD SWAP2 PUSH2 0x6FE JUMP JUMPDEST DUP3 ADD SWAP2 SWAP1 PUSH1 0x0 MSTORE PUSH1 0x20 PUSH1 0x0 KECCAK256 SWAP1 JUMPDEST DUP2 SLOAD DUP2 MSTORE SWAP1 PUSH1 0x1 ADD SWAP1 PUSH1 0x20 ADD DUP1 DUP4 GT PUSH2 0x6E1 JUMPI DUP3 SWAP1 SUB PUSH1 0x1F AND DUP3 ADD SWAP2 JUMPDEST POP POP POP POP POP SWAP1 POP SWAP1 JUMP JUMPDEST PUSH1 0x0 PUSH2 0x713 DUP3 PUSH2 0x138F JUMP JUMPDEST PUSH2 0x749 JUMPI PUSH1 0x40 MLOAD PUSH32 0xCF4700E400000000000000000000000000000000000000000000000000000000 DUP2 MSTORE PUSH1 0x4 ADD PUSH1 0x40 MLOAD DUP1 SWAP2 SUB SWAP1 REVERT JUMPDEST PUSH1 0x7 PUSH1 0x0 DUP4 DUP2 MSTORE PUSH1 0x20 ADD SWAP1 DUP2 MSTORE PUSH1 0x20 ADD PUSH1 0x0 KECCAK256 PUSH1 0x0 ADD PUSH1 0x0 SWAP1 SLOAD SWAP1 PUSH2 0x100 EXP SWAP1 DIV PUSH20 0xFFFFFFFFFFFFFFFFFFFFFFFFFFFFFFFFFFFFFFFF AND SWAP1 POP SWAP2 SWAP1 POP JUMP JUMPDEST PUSH1 0x0 PUSH2 0x792 DUP3 PUSH2 0xC69 JUMP JUMPDEST SWAP1 POP DUP1 PUSH20 0xFFFFFFFFFFFFFFFFFFFFFFFFFFFFFFFFFFFFFFFF AND PUSH2 0x7B3 PUSH2 0x13EE JUMP JUMPDEST PUSH20 0xFFFFFFFFFFFFFFFFFFFFFFFFFFFFFFFFFFFFFFFF AND EQ PUSH2 0x816 JUMPI PUSH2 0x7DF DUP2 PUSH2 0x7DA PUSH2 0x13EE JUMP JUMPDEST PUSH2 0x1278 JUMP JUMPDEST PUSH2 0x815 JUMPI PUSH1 0x40 MLOAD PUSH32 0xCFB3B94200000000000000000000000000000000000000000000000000000000 DUP2 MSTORE PUSH1 0x4 ADD PUSH1 0x40 MLOAD DUP1 SWAP2 SUB SWAP1 REVERT JUMPDEST JUMPDEST DUP3 PUSH1 0x7 PUSH1 0x0 DUP5 DUP2 MSTORE PUSH1 0x20 ADD SWAP1 DUP2 MSTORE PUSH1 0x20 ADD PUSH1 0x0 KECCAK256 PUSH1 0x0 ADD PUSH1 0x0 PUSH2 0x100 EXP DUP2 SLOAD DUP2 PUSH20 0xFFFFFFFFFFFFFFFFFFFFFFFFFFFFFFFFFFFFFFFF MUL NOT AND SWAP1 DUP4 PUSH20 0xFFFFFFFFFFFFFFFFFFFFFFFFFFFFFFFFFFFFFFFF AND MUL OR SWAP1 SSTORE POP DUP2 DUP4 PUSH20 0xFFFFFFFFFFFFFFFFFFFFFFFFFFFFFFFFFFFFFFFF AND DUP3 PUSH20 0xFFFFFFFFFFFFFFFFFFFFFFFFFFFFFFFFFFFFFFFF AND PUSH32 0x8C5BE1E5EBEC7D5BD14F71427D1E84F3DD0314C0F7B2291E5B200AC8C7C3B925 PUSH1 0x40 MLOAD PUSH1 0x40 MLOAD DUP1 SWAP2 SUB SWAP1 LOG4 POP POP POP JUMP JUMPDEST PUSH1 0x0 PUSH2 0x8D5 PUSH2 0x13F6 JUMP JUMPDEST SWAP1 POP SWAP1 JUMP JUMPDEST PUSH1 0x0 PUSH2 0x8E4 PUSH2 0x1400 JUMP JUMPDEST PUSH1 0x2 SLOAD PUSH1 0x1 SLOAD SUB SUB SWAP1 POP SWAP1 JUMP JUMPDEST PUSH1 0x0 PUSH2 0x8FC DUP3 PUSH2 0x1405 JUMP JUMPDEST SWAP1 POP DUP4 PUSH20 0xFFFFFFFFFFFFFFFFFFFFFFFFFFFFFFFFFFFFFFFF AND DUP2 PUSH20 0xFFFFFFFFFFFFFFFFFFFFFFFFFFFFFFFFFFFFFFFF AND EQ PUSH2 0x963 JUMPI PUSH1 0x40 MLOAD PUSH32 0xA114810000000000000000000000000000000000000000000000000000000000 DUP2 MSTORE PUSH1 0x4 ADD PUSH1 0x40 MLOAD DUP1 SWAP2 SUB SWAP1 REVERT JUMPDEST PUSH1 0x0 DUP1 PUSH2 0x96F DUP5 PUSH2 0x14D1 JUMP JUMPDEST SWAP2 POP SWAP2 POP PUSH2 0x985 DUP2 DUP8 PUSH2 0x980 PUSH2 0x13EE JUMP JUMPDEST PUSH2 0x14F8 JUMP JUMPDEST PUSH2 0x9D1 JUMPI PUSH2 0x99A DUP7 PUSH2 0x995 PUSH2 0x13EE JUMP JUMPDEST PUSH2 0x1278 JUMP JUMPDEST PUSH2 0x9D0 JUMPI PUSH1 0x40 MLOAD PUSH32 0x59C896BE00000000000000000000000000000000000000000000000000000000 DUP2 MSTORE PUSH1 0x4 ADD PUSH1 0x40 MLOAD DUP1 SWAP2 SUB SWAP1 REVERT JUMPDEST JUMPDEST PUSH1 0x0 PUSH20 0xFFFFFFFFFFFFFFFFFFFFFFFFFFFFFFFFFFFFFFFF AND DUP6 PUSH20 0xFFFFFFFFFFFFFFFFFFFFFFFFFFFFFFFFFFFFFFFF AND SUB PUSH2 0xA37 JUMPI PUSH1 0x40 MLOAD PUSH32 0xEA553B3400000000000000000000000000000000000000000000000000000000 DUP2 MSTORE PUSH1 0x4 ADD PUSH1 0x40 MLOAD DUP1 SWAP2 SUB SWAP1 REVERT JUMPDEST PUSH2 0xA44 DUP7 DUP7 DUP7 PUSH1 0x1 PUSH2 0x153C JUMP JUMPDEST DUP1 ISZERO PUSH2 0xA4F JUMPI PUSH1 0x0 DUP3 SSTORE JUMPDEST PUSH1 0x6 PUSH1 0x0 DUP8 PUSH20 0xFFFFFFFFFFFFFFFFFFFFFFFFFFFFFFFFFFFFFFFF AND PUSH20 0xFFFFFFFFFFFFFFFFFFFFFFFFFFFFFFFFFFFFFFFF AND DUP2 MSTORE PUSH1 0x20 ADD SWAP1 DUP2 MSTORE PUSH1 0x20 ADD PUSH1 0x0 KECCAK256 PUSH1 0x0 DUP2 SLOAD PUSH1 0x1 SWAP1 SUB SWAP2 SWAP1 POP DUP2 SWAP1 SSTORE POP PUSH1 0x6 PUSH1 0x0 DUP7 PUSH20 0xFFFFFFFFFFFFFFFFFFFFFFFFFFFFFFFFFFFFFFFF AND PUSH20 0xFFFFFFFFFFFFFFFFFFFFFFFFFFFFFFFFFFFFFFFF AND DUP2 MSTORE PUSH1 0x20 ADD SWAP1 DUP2 MSTORE PUSH1 0x20 ADD PUSH1 0x0 KECCAK256 PUSH1 0x0 DUP2 SLOAD PUSH1 0x1 ADD SWAP2 SWAP1 POP DUP2 SWAP1 SSTORE POP PUSH2 0xB1D DUP6 PUSH2 0xAF9 DUP9 DUP9 DUP8 PUSH2 0x1542 JUMP JUMPDEST PUSH29 0x200000000000000000000000000000000000000000000000000000000 OR PUSH2 0x156A JUMP JUMPDEST PUSH1 0x5 PUSH1 0x0 DUP7 DUP2 MSTORE PUSH1 0x20 ADD SWAP1 DUP2 MSTORE PUSH1 0x20 ADD PUSH1 0x0 KECCAK256 DUP2 SWAP1 SSTORE POP PUSH1 0x0 PUSH29 0x200000000000000000000000000000000000000000000000000000000 DUP5 AND SUB PUSH2 0xBA3 JUMPI PUSH1 0x0 PUSH1 0x1 DUP6 ADD SWAP1 POP PUSH1 0x0 PUSH1 0x5 PUSH1 0x0 DUP4 DUP2 MSTORE PUSH1 0x20 ADD SWAP1 DUP2 MSTORE PUSH1 0x20 ADD PUSH1 0x0 KECCAK256 SLOAD SUB PUSH2 0xBA1 JUMPI PUSH1 0x1 SLOAD DUP2 EQ PUSH2 0xBA0 JUMPI DUP4 PUSH1 0x5 PUSH1 0x0 DUP4 DUP2 MSTORE PUSH1 0x20 ADD SWAP1 DUP2 MSTORE PUSH1 0x20 ADD PUSH1 0x0 KECCAK256 DUP2 SWAP1 SSTORE POP JUMPDEST JUMPDEST POP JUMPDEST DUP4 DUP6 PUSH20 0xFFFFFFFFFFFFFFFFFFFFFFFFFFFFFFFFFFFFFFFF AND DUP8 PUSH20 0xFFFFFFFFFFFFFFFFFFFFFFFFFFFFFFFFFFFFFFFF AND PUSH32 0xDDF252AD1BE2C89B69C2B068FC378DAA952BA7F163C4A11628F55A4DF523B3EF PUSH1 0x40 MLOAD PUSH1 0x40 MLOAD DUP1 SWAP2 SUB SWAP1 LOG4 PUSH2 0xC0B DUP7 DUP7 DUP7 PUSH1 0x1 PUSH2 0x1595 JUMP JUMPDEST POP POP POP POP POP POP JUMP JUMPDEST PUSH2 0xC2E DUP4 DUP4 DUP4 PUSH1 0x40 MLOAD DUP1 PUSH1 0x20 ADD PUSH1 0x40 MSTORE DUP1 PUSH1 0x0 DUP2 MSTORE POP PUSH2 0x1153 JUMP JUMPDEST POP POP POP JUMP JUMPDEST PUSH1 0xB PUSH1 0x20 MSTORE DUP1 PUSH1 0x0 MSTORE PUSH1 0x40 PUSH1 0x0 KECCAK256 PUSH1 0x0 SWAP2 POP SWAP1 POP SLOAD DUP2 JUMP JUMPDEST PUSH2 0xC53 PUSH2 0x159B JUMP JUMPDEST DUP2 DUP2 PUSH1 0x9 SWAP2 SWAP1 PUSH2 0xC64 SWAP3 SWAP2 SWAP1 PUSH2 0x1E08 JUMP JUMPDEST POP POP POP JUMP JUMPDEST PUSH1 0x0 PUSH2 0xC74 DUP3 PUSH2 0x1405 JUMP JUMPDEST SWAP1 POP SWAP2 SWAP1 POP JUMP JUMPDEST PUSH1 0x0 DUP1 PUSH20 0xFFFFFFFFFFFFFFFFFFFFFFFFFFFFFFFFFFFFFFFF AND DUP3 PUSH20 0xFFFFFFFFFFFFFFFFFFFFFFFFFFFFFFFFFFFFFFFF AND SUB PUSH2 0xCE2 JUMPI PUSH1 0x40 MLOAD PUSH32 0x8F4EB60400000000000000000000000000000000000000000000000000000000 DUP2 MSTORE PUSH1 0x4 ADD PUSH1 0x40 MLOAD DUP1 SWAP2 SUB SWAP1 REVERT JUMPDEST PUSH8 0xFFFFFFFFFFFFFFFF PUSH1 0x6 PUSH1 0x0 DUP5 PUSH20 0xFFFFFFFFFFFFFFFFFFFFFFFFFFFFFFFFFFFFFFFF AND PUSH20 0xFFFFFFFFFFFFFFFFFFFFFFFFFFFFFFFFFFFFFFFF AND DUP2 MSTORE PUSH1 0x20 ADD SWAP1 DUP2 MSTORE PUSH1 0x20 ADD PUSH1 0x0 KECCAK256 SLOAD AND SWAP1 POP SWAP2 SWAP1 POP JUMP JUMPDEST PUSH2 0xD3B PUSH2 0x159B JUMP JUMPDEST PUSH2 0xD45 PUSH1 0x0 PUSH2 0x1619 JUMP JUMPDEST JUMP JUMPDEST PUSH1 0x0 DUP1 PUSH1 0x0 SWAP1 SLOAD SWAP1 PUSH2 0x100 EXP SWAP1 DIV PUSH20 0xFFFFFFFFFFFFFFFFFFFFFFFFFFFFFFFFFFFFFFFF AND SWAP1 POP SWAP1 JUMP JUMPDEST PUSH1 0x0 JUMPDEST DUP2 MLOAD DUP2 LT ISZERO PUSH2 0xE93 JUMPI PUSH1 0x0 DUP3 DUP3 DUP2 MLOAD DUP2 LT PUSH2 0xD91 JUMPI PUSH2 0xD90 PUSH2 0x2687 JUMP JUMPDEST JUMPDEST PUSH1 0x20 MUL PUSH1 0x20 ADD ADD MLOAD SWAP1 POP PUSH1 0xD PUSH1 0x0 DUP3 DUP2 MSTORE PUSH1 0x20 ADD SWAP1 DUP2 MSTORE PUSH1 0x20 ADD PUSH1 0x0 KECCAK256 PUSH1 0x0 SWAP1 SLOAD SWAP1 PUSH2 0x100 EXP SWAP1 DIV PUSH1 0xFF AND ISZERO PUSH2 0xDFC JUMPI PUSH1 0x40 MLOAD PUSH32 0x8C379A000000000000000000000000000000000000000000000000000000000 DUP2 MSTORE PUSH1 0x4 ADD PUSH2 0xDF3 SWAP1 PUSH2 0x2702 JUMP JUMPDEST PUSH1 0x40 MLOAD DUP1 SWAP2 SUB SWAP1 REVERT JUMPDEST PUSH1 0xC SLOAD PUSH1 0xA PUSH1 0x0 DUP4 DUP2 MSTORE PUSH1 0x20 ADD SWAP1 DUP2 MSTORE PUSH1 0x20 ADD PUSH1 0x0 KECCAK256 DUP2 SWAP1 SSTORE POP DUP1 PUSH1 0xB PUSH1 0x0 PUSH1 0xC SLOAD DUP2 MSTORE PUSH1 0x20 ADD SWAP1 DUP2 MSTORE PUSH1 0x20 ADD PUSH1 0x0 KECCAK256 DUP2 SWAP1 SSTORE POP PUSH1 0x1 PUSH1 0xD PUSH1 0x0 DUP4 DUP2 MSTORE PUSH1 0x20 ADD SWAP1 DUP2 MSTORE PUSH1 0x20 ADD PUSH1 0x0 KECCAK256 PUSH1 0x0 PUSH2 0x100 EXP DUP2 SLOAD DUP2 PUSH1 0xFF MUL NOT AND SWAP1 DUP4 ISZERO ISZERO MUL OR SWAP1 SSTORE POP PUSH2 0xE67 CALLER PUSH1 0x1 PUSH2 0x16DD JUMP JUMPDEST PUSH1 0xC PUSH1 0x0 DUP2 SLOAD DUP1 SWAP3 SWAP2 SWAP1 PUSH2 0xE7A SWAP1 PUSH2 0x2751 JUMP JUMPDEST SWAP2 SWAP1 POP SSTORE POP POP DUP1 DUP1 PUSH2 0xE8B SWAP1 PUSH2 0x2751 JUMP JUMPDEST SWAP2 POP POP PUSH2 0xD73 JUMP JUMPDEST POP POP JUMP JUMPDEST PUSH1 0x60 PUSH1 0x4 DUP1 SLOAD PUSH2 0xEA6 SWAP1 PUSH2 0x2656 JUMP JUMPDEST DUP1 PUSH1 0x1F ADD PUSH1 0x20 DUP1 SWAP2 DIV MUL PUSH1 0x20 ADD PUSH1 0x40 MLOAD SWAP1 DUP2 ADD PUSH1 0x40 MSTORE DUP1 SWAP3 SWAP2 SWAP1 DUP2 DUP2 MSTORE PUSH1 0x20 ADD DUP3 DUP1 SLOAD PUSH2 0xED2 SWAP1 PUSH2 0x2656 JUMP JUMPDEST DUP1 ISZERO PUSH2 0xF1F JUMPI DUP1 PUSH1 0x1F LT PUSH2 0xEF4 JUMPI PUSH2 0x100 DUP1 DUP4 SLOAD DIV MUL DUP4 MSTORE SWAP2 PUSH1 0x20 ADD SWAP2 PUSH2 0xF1F JUMP JUMPDEST DUP3 ADD SWAP2 SWAP1 PUSH1 0x0 MSTORE PUSH1 0x20 PUSH1 0x0 KECCAK256 SWAP1 JUMPDEST DUP2 SLOAD DUP2 MSTORE SWAP1 PUSH1 0x1 ADD SWAP1 PUSH1 0x20 ADD DUP1 DUP4 GT PUSH2 0xF02 JUMPI DUP3 SWAP1 SUB PUSH1 0x1F AND DUP3 ADD SWAP2 JUMPDEST POP POP POP POP POP SWAP1 POP SWAP1 JUMP JUMPDEST PUSH1 0xD PUSH1 0x0 DUP3 DUP2 MSTORE PUSH1 0x20 ADD SWAP1 DUP2 MSTORE PUSH1 0x20 ADD PUSH1 0x0 KECCAK256 PUSH1 0x0 SWAP1 SLOAD SWAP1 PUSH2 0x100 EXP SWAP1 DIV PUSH1 0xFF AND ISZERO PUSH2 0xF8A JUMPI PUSH1 0x40 MLOAD PUSH32 0x8C379A000000000000000000000000000000000000000000000000000000000 DUP2 MSTORE PUSH1 0x4 ADD PUSH2 0xF81 SWAP1 PUSH2 0x2702 JUMP JUMPDEST PUSH1 0x40 MLOAD DUP1 SWAP2 SUB SWAP1 REVERT JUMPDEST PUSH1 0xC SLOAD PUSH1 0xA PUSH1 0x0 DUP4 DUP2 MSTORE PUSH1 0x20 ADD SWAP1 DUP2 MSTORE PUSH1 0x20 ADD PUSH1 0x0 KECCAK256 DUP2 SWAP1 SSTORE POP DUP1 PUSH1 0xB PUSH1 0x0 PUSH1 0xC SLOAD DUP2 MSTORE PUSH1 0x20 ADD SWAP1 DUP2 MSTORE PUSH1 0x20 ADD PUSH1 0x0 KECCAK256 DUP2 SWAP1 SSTORE POP PUSH1 0x1 PUSH1 0xD PUSH1 0x0 DUP4 DUP2 MSTORE PUSH1 0x20 ADD SWAP1 DUP2 MSTORE PUSH1 0x20 ADD PUSH1 0x0 KECCAK256 PUSH1 0x0 PUSH2 0x100 EXP DUP2 SLOAD DUP2 PUSH1 0xFF MUL NOT AND SWAP1 DUP4 ISZERO ISZERO MUL OR SWAP1 SSTORE POP PUSH2 0xFF5 CALLER PUSH1 0x1 PUSH2 0x16DD JUMP JUMPDEST PUSH1 0xC PUSH1 0x0 DUP2 SLOAD DUP1 SWAP3 SWAP2 SWAP1 PUSH2 0x1008 SWAP1 PUSH2 0x2751 JUMP JUMPDEST SWAP2 SWAP1 POP SSTORE POP POP JUMP JUMPDEST DUP1 PUSH1 0x8 PUSH1 0x0 PUSH2 0x101D PUSH2 0x13EE JUMP JUMPDEST PUSH20 0xFFFFFFFFFFFFFFFFFFFFFFFFFFFFFFFFFFFFFFFF AND PUSH20 0xFFFFFFFFFFFFFFFFFFFFFFFFFFFFFFFFFFFFFFFF AND DUP2 MSTORE PUSH1 0x20 ADD SWAP1 DUP2 MSTORE PUSH1 0x20 ADD PUSH1 0x0 KECCAK256 PUSH1 0x0 DUP5 PUSH20 0xFFFFFFFFFFFFFFFFFFFFFFFFFFFFFFFFFFFFFFFF AND PUSH20 0xFFFFFFFFFFFFFFFFFFFFFFFFFFFFFFFFFFFFFFFF AND DUP2 MSTORE PUSH1 0x20 ADD SWAP1 DUP2 MSTORE PUSH1 0x20 ADD PUSH1 0x0 KECCAK256 PUSH1 0x0 PUSH2 0x100 EXP DUP2 SLOAD DUP2 PUSH1 0xFF MUL NOT AND SWAP1 DUP4 ISZERO ISZERO MUL OR SWAP1 SSTORE POP DUP2 PUSH20 0xFFFFFFFFFFFFFFFFFFFFFFFFFFFFFFFFFFFFFFFF AND PUSH2 0x10CA PUSH2 0x13EE JUMP JUMPDEST PUSH20 0xFFFFFFFFFFFFFFFFFFFFFFFFFFFFFFFFFFFFFFFF AND PUSH32 0x17307EAB39AB6107E8899845AD3D59BD9653F200F220920489CA2B5937696C31 DUP4 PUSH1 0x40 MLOAD PUSH2 0x110F SWAP2 SWAP1 PUSH2 0x1F5F JUMP JUMPDEST PUSH1 0x40 MLOAD DUP1 SWAP2 SUB SWAP1 LOG3 POP POP JUMP JUMPDEST PUSH1 0xD PUSH1 0x20 MSTORE DUP1 PUSH1 0x0 MSTORE PUSH1 0x40 PUSH1 0x0 KECCAK256 PUSH1 0x0 SWAP2 POP SLOAD SWAP1 PUSH2 0x100 EXP SWAP1 DIV PUSH1 0xFF AND DUP2 JUMP JUMPDEST PUSH1 0xA PUSH1 0x20 MSTORE DUP1 PUSH1 0x0 MSTORE PUSH1 0x40 PUSH1 0x0 KECCAK256 PUSH1 0x0 SWAP2 POP SWAP1 POP SLOAD DUP2 JUMP JUMPDEST PUSH2 0x115E DUP5 DUP5 DUP5 PUSH2 0x8F1 JUMP JUMPDEST PUSH1 0x0 DUP4 PUSH20 0xFFFFFFFFFFFFFFFFFFFFFFFFFFFFFFFFFFFFFFFF AND EXTCODESIZE EQ PUSH2 0x11C0 JUMPI PUSH2 0x1189 DUP5 DUP5 DUP5 DUP5 PUSH2 0x16FB JUMP JUMPDEST PUSH2 0x11BF JUMPI PUSH1 0x40 MLOAD PUSH32 0xD1A57ED600000000000000000000000000000000000000000000000000000000 DUP2 MSTORE PUSH1 0x4 ADD PUSH1 0x40 MLOAD DUP1 SWAP2 SUB SWAP1 REVERT JUMPDEST JUMPDEST POP POP POP POP JUMP JUMPDEST PUSH1 0x60 PUSH2 0x11D1 DUP3 PUSH2 0x138F JUMP JUMPDEST PUSH2 0x1207 JUMPI PUSH1 0x40 MLOAD PUSH32 0xA14C4B5000000000000000000000000000000000000000000000000000000000 DUP2 MSTORE PUSH1 0x4 ADD PUSH1 0x40 MLOAD DUP1 SWAP2 SUB SWAP1 REVERT JUMPDEST PUSH1 0x0 PUSH2 0x1211 PUSH2 0x184B JUMP JUMPDEST SWAP1 POP PUSH1 0x0 DUP2 MLOAD SUB PUSH2 0x1231 JUMPI PUSH1 0x40 MLOAD DUP1 PUSH1 0x20 ADD PUSH1 0x40 MSTORE DUP1 PUSH1 0x0 DUP2 MSTORE POP PUSH2 0x125C JUMP JUMPDEST DUP1 PUSH2 0x123B DUP5 PUSH2 0x18DD JUMP JUMPDEST PUSH1 0x40 MLOAD PUSH1 0x20 ADD PUSH2 0x124C SWAP3 SWAP2 SWAP1 PUSH2 0x27D5 JUMP JUMPDEST PUSH1 0x40 MLOAD PUSH1 0x20 DUP2 DUP4 SUB SUB DUP2 MSTORE SWAP1 PUSH1 0x40 MSTORE JUMPDEST SWAP2 POP POP SWAP2 SWAP1 POP JUMP JUMPDEST PUSH2 0x126C PUSH2 0x159B JUMP JUMPDEST PUSH2 0x1275 DUP2 PUSH2 0x192D JUMP JUMPDEST POP JUMP JUMPDEST PUSH1 0x0 PUSH1 0x8 PUSH1 0x0 DUP5 PUSH20 0xFFFFFFFFFFFFFFFFFFFFFFFFFFFFFFFFFFFFFFFF AND PUSH20 0xFFFFFFFFFFFFFFFFFFFFFFFFFFFFFFFFFFFFFFFF AND DUP2 MSTORE PUSH1 0x20 ADD SWAP1 DUP2 MSTORE PUSH1 0x20 ADD PUSH1 0x0 KECCAK256 PUSH1 0x0 DUP4 PUSH20 0xFFFFFFFFFFFFFFFFFFFFFFFFFFFFFFFFFFFFFFFF AND PUSH20 0xFFFFFFFFFFFFFFFFFFFFFFFFFFFFFFFFFFFFFFFF AND DUP2 MSTORE PUSH1 0x20 ADD SWAP1 DUP2 MSTORE PUSH1 0x20 ADD PUSH1 0x0 KECCAK256 PUSH1 0x0 SWAP1 SLOAD SWAP1 PUSH2 0x100 EXP SWAP1 DIV PUSH1 0xFF AND SWAP1 POP SWAP3 SWAP2 POP POP JUMP JUMPDEST PUSH2 0x1314 PUSH2 0x159B JUMP JUMPDEST PUSH1 0x0 PUSH20 0xFFFFFFFFFFFFFFFFFFFFFFFFFFFFFFFFFFFFFFFF AND DUP2 PUSH20 0xFFFFFFFFFFFFFFFFFFFFFFFFFFFFFFFFFFFFFFFF AND SUB PUSH2 0x1383 JUMPI PUSH1 0x40 MLOAD PUSH32 0x8C379A000000000000000000000000000000000000000000000000000000000 DUP2 MSTORE PUSH1 0x4 ADD PUSH2 0x137A SWAP1 PUSH2 0x286B JUMP JUMPDEST PUSH1 0x40 MLOAD DUP1 SWAP2 SUB SWAP1 REVERT JUMPDEST PUSH2 0x138C DUP2 PUSH2 0x1619 JUMP JUMPDEST POP JUMP JUMPDEST PUSH1 0x0 DUP2 PUSH2 0x139A PUSH2 0x1400 JUMP JUMPDEST GT ISZERO DUP1 ISZERO PUSH2 0x13A9 JUMPI POP PUSH1 0x1 SLOAD DUP3 LT JUMPDEST DUP1 ISZERO PUSH2 0x13E7 JUMPI POP PUSH1 0x0 PUSH29 0x100000000000000000000000000000000000000000000000000000000 PUSH1 0x5 PUSH1 0x0 DUP6 DUP2 MSTORE PUSH1 0x20 ADD SWAP1 DUP2 MSTORE PUSH1 0x20 ADD PUSH1 0x0 KECCAK256 SLOAD AND EQ JUMPDEST SWAP1 POP SWAP2 SWAP1 POP JUMP JUMPDEST PUSH1 0x0 CALLER SWAP1 POP SWAP1 JUMP JUMPDEST PUSH1 0x0 PUSH1 0x1 SLOAD SWAP1 POP SWAP1 JUMP JUMPDEST PUSH1 0x0 SWAP1 JUMP JUMPDEST PUSH1 0x0 DUP1 DUP3 SWAP1 POP DUP1 PUSH2 0x1414 PUSH2 0x1400 JUMP JUMPDEST GT PUSH2 0x149A JUMPI PUSH1 0x1 SLOAD DUP2 LT ISZERO PUSH2 0x1499 JUMPI PUSH1 0x0 PUSH1 0x5 PUSH1 0x0 DUP4 DUP2 MSTORE PUSH1 0x20 ADD SWAP1 DUP2 MSTORE PUSH1 0x20 ADD PUSH1 0x0 KECCAK256 SLOAD SWAP1 POP PUSH1 0x0 PUSH29 0x100000000000000000000000000000000000000000000000000000000 DUP3 AND SUB PUSH2 0x1497 JUMPI JUMPDEST PUSH1 0x0 DUP2 SUB PUSH2 0x148D JUMPI PUSH1 0x5 PUSH1 0x0 DUP4 PUSH1 0x1 SWAP1 SUB SWAP4 POP DUP4 DUP2 MSTORE PUSH1 0x20 ADD SWAP1 DUP2 MSTORE PUSH1 0x20 ADD PUSH1 0x0 KECCAK256 SLOAD SWAP1 POP PUSH2 0x1463 JUMP JUMPDEST DUP1 SWAP3 POP POP POP PUSH2 0x14CC JUMP JUMPDEST POP JUMPDEST JUMPDEST PUSH1 0x40 MLOAD PUSH32 0xDF2D9B4200000000000000000000000000000000000000000000000000000000 DUP2 MSTORE PUSH1 0x4 ADD PUSH1 0x40 MLOAD DUP1 SWAP2 SUB SWAP1 REVERT JUMPDEST SWAP2 SWAP1 POP JUMP JUMPDEST PUSH1 0x0 DUP1 PUSH1 0x0 PUSH1 0x7 PUSH1 0x0 DUP6 DUP2 MSTORE PUSH1 0x20 ADD SWAP1 DUP2 MSTORE PUSH1 0x20 ADD PUSH1 0x0 KECCAK256 SWAP1 POP DUP1 SWAP3 POP DUP3 SLOAD SWAP2 POP POP SWAP2 POP SWAP2 JUMP JUMPDEST PUSH1 0x0 PUSH20 0xFFFFFFFFFFFFFFFFFFFFFFFFFFFFFFFFFFFFFFFF DUP4 AND SWAP3 POP PUSH20 0xFFFFFFFFFFFFFFFFFFFFFFFFFFFFFFFFFFFFFFFF DUP3 AND SWAP2 POP DUP4 DUP3 EQ DUP4 DUP4 EQ OR SWAP1 POP SWAP4 SWAP3 POP POP POP JUMP JUMPDEST POP POP POP POP JUMP JUMPDEST PUSH1 0x0 DUP1 PUSH1 0xE8 DUP4 SWAP1 SHR SWAP1 POP PUSH1 0xE8 PUSH2 0x1559 DUP7 DUP7 DUP5 PUSH2 0x193B JUMP JUMPDEST PUSH3 0xFFFFFF AND SWAP1 SHL SWAP2 POP POP SWAP4 SWAP3 POP POP POP JUMP JUMPDEST PUSH1 0x0 PUSH20 0xFFFFFFFFFFFFFFFFFFFFFFFFFFFFFFFFFFFFFFFF DUP4 AND SWAP3 POP DUP2 TIMESTAMP PUSH1 0xA0 SHL OR DUP4 OR SWAP1 POP SWAP3 SWAP2 POP POP JUMP JUMPDEST POP POP POP POP JUMP JUMPDEST PUSH2 0x15A3 PUSH2 0x1944 JUMP JUMPDEST PUSH20 0xFFFFFFFFFFFFFFFFFFFFFFFFFFFFFFFFFFFFFFFF AND PUSH2 0x15C1 PUSH2 0xD47 JUMP JUMPDEST PUSH20 0xFFFFFFFFFFFFFFFFFFFFFFFFFFFFFFFFFFFFFFFF AND EQ PUSH2 0x1617 JUMPI PUSH1 0x40 MLOAD PUSH32 0x8C379A000000000000000000000000000000000000000000000000000000000 DUP2 MSTORE PUSH1 0x4 ADD PUSH2 0x160E SWAP1 PUSH2 0x28D7 JUMP JUMPDEST PUSH1 0x40 MLOAD DUP1 SWAP2 SUB SWAP1 REVERT JUMPDEST JUMP JUMPDEST PUSH1 0x0 DUP1 PUSH1 0x0 SWAP1 SLOAD SWAP1 PUSH2 0x100 EXP SWAP1 DIV PUSH20 0xFFFFFFFFFFFFFFFFFFFFFFFFFFFFFFFFFFFFFFFF AND SWAP1 POP DUP2 PUSH1 0x0 DUP1 PUSH2 0x100 EXP DUP2 SLOAD DUP2 PUSH20 0xFFFFFFFFFFFFFFFFFFFFFFFFFFFFFFFFFFFFFFFF MUL NOT AND SWAP1 DUP4 PUSH20 0xFFFFFFFFFFFFFFFFFFFFFFFFFFFFFFFFFFFFFFFF AND MUL OR SWAP1 SSTORE POP DUP2 PUSH20 0xFFFFFFFFFFFFFFFFFFFFFFFFFFFFFFFFFFFFFFFF AND DUP2 PUSH20 0xFFFFFFFFFFFFFFFFFFFFFFFFFFFFFFFFFFFFFFFF AND PUSH32 0x8BE0079C531659141344CD1FD0A4F28419497F9722A3DAAFE3B4186F6B6457E0 PUSH1 0x40 MLOAD PUSH1 0x40 MLOAD DUP1 SWAP2 SUB SWAP1 LOG3 POP POP JUMP JUMPDEST PUSH2 0x16F7 DUP3 DUP3 PUSH1 0x40 MLOAD DUP1 PUSH1 0x20 ADD PUSH1 0x40 MSTORE DUP1 PUSH1 0x0 DUP2 MSTORE POP PUSH2 0x194C JUMP JUMPDEST POP POP JUMP JUMPDEST PUSH1 0x0 DUP4 PUSH20 0xFFFFFFFFFFFFFFFFFFFFFFFFFFFFFFFFFFFFFFFF AND PUSH4 0x150B7A02 PUSH2 0x1721 PUSH2 0x13EE JUMP JUMPDEST DUP8 DUP7 DUP7 PUSH1 0x40 MLOAD DUP6 PUSH4 0xFFFFFFFF AND PUSH1 0xE0 SHL DUP2 MSTORE PUSH1 0x4 ADD PUSH2 0x1743 SWAP5 SWAP4 SWAP3 SWAP2 SWAP1 PUSH2 0x294C JUMP JUMPDEST PUSH1 0x20 PUSH1 0x40 MLOAD DUP1 DUP4 SUB DUP2 PUSH1 0x0 DUP8 GAS CALL SWAP3 POP POP POP DUP1 ISZERO PUSH2 0x177F JUMPI POP PUSH1 0x40 MLOAD RETURNDATASIZE PUSH1 0x1F NOT PUSH1 0x1F DUP3 ADD AND DUP3 ADD DUP1 PUSH1 0x40 MSTORE POP DUP2 ADD SWAP1 PUSH2 0x177C SWAP2 SWAP1 PUSH2 0x29AD JUMP JUMPDEST PUSH1 0x1 JUMPDEST PUSH2 0x17F8 JUMPI RETURNDATASIZE DUP1 PUSH1 0x0 DUP2 EQ PUSH2 0x17AF JUMPI PUSH1 0x40 MLOAD SWAP2 POP PUSH1 0x1F NOT PUSH1 0x3F RETURNDATASIZE ADD AND DUP3 ADD PUSH1 0x40 MSTORE RETURNDATASIZE DUP3 MSTORE RETURNDATASIZE PUSH1 0x0 PUSH1 0x20 DUP5 ADD RETURNDATACOPY PUSH2 0x17B4 JUMP JUMPDEST PUSH1 0x60 SWAP2 POP JUMPDEST POP PUSH1 0x0 DUP2 MLOAD SUB PUSH2 0x17F0 JUMPI PUSH1 0x40 MLOAD PUSH32 0xD1A57ED600000000000000000000000000000000000000000000000000000000 DUP2 MSTORE PUSH1 0x4 ADD PUSH1 0x40 MLOAD DUP1 SWAP2 SUB SWAP1 REVERT JUMPDEST DUP1 MLOAD DUP2 PUSH1 0x20 ADD REVERT JUMPDEST PUSH4 0x150B7A02 PUSH1 0xE0 SHL PUSH28 0xFFFFFFFFFFFFFFFFFFFFFFFFFFFFFFFFFFFFFFFFFFFFFFFFFFFFFFFF NOT AND DUP2 PUSH28 0xFFFFFFFFFFFFFFFFFFFFFFFFFFFFFFFFFFFFFFFFFFFFFFFFFFFFFFFF NOT AND EQ SWAP2 POP POP SWAP5 SWAP4 POP POP POP POP JUMP JUMPDEST PUSH1 0x60 PUSH1 0x9 DUP1 SLOAD PUSH2 0x185A SWAP1 PUSH2 0x2656 JUMP JUMPDEST DUP1 PUSH1 0x1F ADD PUSH1 0x20 DUP1 SWAP2 DIV MUL PUSH1 0x20 ADD PUSH1 0x40 MLOAD SWAP1 DUP2 ADD PUSH1 0x40 MSTORE DUP1 SWAP3 SWAP2 SWAP1 DUP2 DUP2 MSTORE PUSH1 0x20 ADD DUP3 DUP1 SLOAD PUSH2 0x1886 SWAP1 PUSH2 0x2656 JUMP JUMPDEST DUP1 ISZERO PUSH2 0x18D3 JUMPI DUP1 PUSH1 0x1F LT PUSH2 0x18A8 JUMPI PUSH2 0x100 DUP1 DUP4 SLOAD DIV MUL DUP4 MSTORE SWAP2 PUSH1 0x20 ADD SWAP2 PUSH2 0x18D3 JUMP JUMPDEST DUP3 ADD SWAP2 SWAP1 PUSH1 0x0 MSTORE PUSH1 0x20 PUSH1 0x0 KECCAK256 SWAP1 JUMPDEST DUP2 SLOAD DUP2 MSTORE SWAP1 PUSH1 0x1 ADD SWAP1 PUSH1 0x20 ADD DUP1 DUP4 GT PUSH2 0x18B6 JUMPI DUP3 SWAP1 SUB PUSH1 0x1F AND DUP3 ADD SWAP2 JUMPDEST POP POP POP POP POP SWAP1 POP SWAP1 JUMP JUMPDEST PUSH1 0x60 PUSH1 0xA0 PUSH1 0x40 MLOAD ADD DUP1 PUSH1 0x40 MSTORE PUSH1 0x20 DUP2 SUB SWAP2 POP PUSH1 0x0 DUP3 MSTORE DUP2 DUP4 JUMPDEST PUSH1 0x1 ISZERO PUSH2 0x1918 JUMPI PUSH1 0x1 DUP5 SUB SWAP4 POP PUSH1 0xA DUP2 MOD PUSH1 0x30 ADD DUP5 MSTORE8 PUSH1 0xA DUP2 DIV SWAP1 POP DUP1 PUSH2 0x18F6 JUMPI JUMPDEST POP DUP3 DUP2 SUB PUSH1 0x20 DUP5 SUB SWAP4 POP DUP1 DUP5 MSTORE POP POP POP SWAP2 SWAP1 POP JUMP JUMPDEST PUSH2 0x1938 DUP2 PUSH1 0x0 PUSH2 0x19EA JUMP JUMPDEST POP JUMP JUMPDEST PUSH1 0x0 SWAP4 SWAP3 POP POP POP JUMP JUMPDEST PUSH1 0x0 CALLER SWAP1 POP SWAP1 JUMP JUMPDEST PUSH2 0x1956 DUP4 DUP4 PUSH2 0x1C3C JUMP JUMPDEST PUSH1 0x0 DUP4 PUSH20 0xFFFFFFFFFFFFFFFFFFFFFFFFFFFFFFFFFFFFFFFF AND EXTCODESIZE EQ PUSH2 0x19E5 JUMPI PUSH1 0x0 PUSH1 0x1 SLOAD SWAP1 POP PUSH1 0x0 DUP4 DUP3 SUB SWAP1 POP JUMPDEST PUSH2 0x1997 PUSH1 0x0 DUP7 DUP4 DUP1 PUSH1 0x1 ADD SWAP5 POP DUP7 PUSH2 0x16FB JUMP JUMPDEST PUSH2 0x19CD JUMPI PUSH1 0x40 MLOAD PUSH32 0xD1A57ED600000000000000000000000000000000000000000000000000000000 DUP2 MSTORE PUSH1 0x4 ADD PUSH1 0x40 MLOAD DUP1 SWAP2 SUB SWAP1 REVERT JUMPDEST DUP2 DUP2 LT PUSH2 0x1984 JUMPI DUP2 PUSH1 0x1 SLOAD EQ PUSH2 0x19E2 JUMPI PUSH1 0x0 DUP1 REVERT JUMPDEST POP POP JUMPDEST POP POP POP JUMP JUMPDEST PUSH1 0x0 PUSH2 0x19F5 DUP4 PUSH2 0x1405 JUMP JUMPDEST SWAP1 POP PUSH1 0x0 DUP2 SWAP1 POP PUSH1 0x0 DUP1 PUSH2 0x1A08 DUP7 PUSH2 0x14D1 JUMP JUMPDEST SWAP2 POP SWAP2 POP DUP5 ISZERO PUSH2 0x1A71 JUMPI PUSH2 0x1A24 DUP2 DUP5 PUSH2 0x1A1F PUSH2 0x13EE JUMP JUMPDEST PUSH2 0x14F8 JUMP JUMPDEST PUSH2 0x1A70 JUMPI PUSH2 0x1A39 DUP4 PUSH2 0x1A34 PUSH2 0x13EE JUMP JUMPDEST PUSH2 0x1278 JUMP JUMPDEST PUSH2 0x1A6F JUMPI PUSH1 0x40 MLOAD PUSH32 0x59C896BE00000000000000000000000000000000000000000000000000000000 DUP2 MSTORE PUSH1 0x4 ADD PUSH1 0x40 MLOAD DUP1 SWAP2 SUB SWAP1 REVERT JUMPDEST JUMPDEST JUMPDEST PUSH2 0x1A7F DUP4 PUSH1 0x0 DUP9 PUSH1 0x1 PUSH2 0x153C JUMP JUMPDEST DUP1 ISZERO PUSH2 0x1A8A JUMPI PUSH1 0x0 DUP3 SSTORE JUMPDEST PUSH1 0x1 PUSH1 0x80 PUSH1 0x1 SWAP1 SHL SUB PUSH1 0x6 PUSH1 0x0 DUP6 PUSH20 0xFFFFFFFFFFFFFFFFFFFFFFFFFFFFFFFFFFFFFFFF AND PUSH20 0xFFFFFFFFFFFFFFFFFFFFFFFFFFFFFFFFFFFFFFFF AND DUP2 MSTORE PUSH1 0x20 ADD SWAP1 DUP2 MSTORE PUSH1 0x20 ADD PUSH1 0x0 KECCAK256 PUSH1 0x0 DUP3 DUP3 SLOAD ADD SWAP3 POP POP DUP2 SWAP1 SSTORE POP PUSH2 0x1B32 DUP4 PUSH2 0x1AEF DUP6 PUSH1 0x0 DUP9 PUSH2 0x1542 JUMP JUMPDEST PUSH29 0x200000000000000000000000000000000000000000000000000000000 PUSH29 0x100000000000000000000000000000000000000000000000000000000 OR OR PUSH2 0x156A JUMP JUMPDEST PUSH1 0x5 PUSH1 0x0 DUP9 DUP2 MSTORE PUSH1 0x20 ADD SWAP1 DUP2 MSTORE PUSH1 0x20 ADD PUSH1 0x0 KECCAK256 DUP2 SWAP1 SSTORE POP PUSH1 0x0 PUSH29 0x200000000000000000000000000000000000000000000000000000000 DUP6 AND SUB PUSH2 0x1BB8 JUMPI PUSH1 0x0 PUSH1 0x1 DUP8 ADD SWAP1 POP PUSH1 0x0 PUSH1 0x5 PUSH1 0x0 DUP4 DUP2 MSTORE PUSH1 0x20 ADD SWAP1 DUP2 MSTORE PUSH1 0x20 ADD PUSH1 0x0 KECCAK256 SLOAD SUB PUSH2 0x1BB6 JUMPI PUSH1 0x1 SLOAD DUP2 EQ PUSH2 0x1BB5 JUMPI DUP5 PUSH1 0x5 PUSH1 0x0 DUP4 DUP2 MSTORE PUSH1 0x20 ADD SWAP1 DUP2 MSTORE PUSH1 0x20 ADD PUSH1 0x0 KECCAK256 DUP2 SWAP1 SSTORE POP JUMPDEST JUMPDEST POP JUMPDEST DUP6 PUSH1 0x0 PUSH20 0xFFFFFFFFFFFFFFFFFFFFFFFFFFFFFFFFFFFFFFFF AND DUP5 PUSH20 0xFFFFFFFFFFFFFFFFFFFFFFFFFFFFFFFFFFFFFFFF AND PUSH32 0xDDF252AD1BE2C89B69C2B068FC378DAA952BA7F163C4A11628F55A4DF523B3EF PUSH1 0x40 MLOAD PUSH1 0x40 MLOAD DUP1 SWAP2 SUB SWAP1 LOG4 PUSH2 0x1C22 DUP4 PUSH1 0x0 DUP9 PUSH1 0x1 PUSH2 0x1595 JUMP JUMPDEST PUSH1 0x2 PUSH1 0x0 DUP2 SLOAD DUP1 SWAP3 SWAP2 SWAP1 PUSH1 0x1 ADD SWAP2 SWAP1 POP SSTORE POP POP POP POP POP POP POP JUMP JUMPDEST PUSH1 0x0 PUSH1 0x1 SLOAD SWAP1 POP PUSH1 0x0 DUP3 SUB PUSH2 0x1C7D JUMPI PUSH1 0x40 MLOAD PUSH32 0xB562E8DD00000000000000000000000000000000000000000000000000000000 DUP2 MSTORE PUSH1 0x4 ADD PUSH1 0x40 MLOAD DUP1 SWAP2 SUB SWAP1 REVERT JUMPDEST PUSH2 0x1C8A PUSH1 0x0 DUP5 DUP4 DUP6 PUSH2 0x153C JUMP JUMPDEST PUSH1 0x1 PUSH1 0x40 PUSH1 0x1 SWAP1 SHL OR DUP3 MUL PUSH1 0x6 PUSH1 0x0 DUP6 PUSH20 0xFFFFFFFFFFFFFFFFFFFFFFFFFFFFFFFFFFFFFFFF AND PUSH20 0xFFFFFFFFFFFFFFFFFFFFFFFFFFFFFFFFFFFFFFFF AND DUP2 MSTORE PUSH1 0x20 ADD SWAP1 DUP2 MSTORE PUSH1 0x20 ADD PUSH1 0x0 KECCAK256 PUSH1 0x0 DUP3 DUP3 SLOAD ADD SWAP3 POP POP DUP2 SWAP1 SSTORE POP PUSH2 0x1D01 DUP4 PUSH2 0x1CF2 PUSH1 0x0 DUP7 PUSH1 0x0 PUSH2 0x1542 JUMP JUMPDEST PUSH2 0x1CFB DUP6 PUSH2 0x1DF8 JUMP JUMPDEST OR PUSH2 0x156A JUMP JUMPDEST PUSH1 0x5 PUSH1 0x0 DUP4 DUP2 MSTORE PUSH1 0x20 ADD SWAP1 DUP2 MSTORE PUSH1 0x20 ADD PUSH1 0x0 KECCAK256 DUP2 SWAP1 SSTORE POP PUSH1 0x0 DUP1 DUP4 DUP4 ADD SWAP1 POP PUSH20 0xFFFFFFFFFFFFFFFFFFFFFFFFFFFFFFFFFFFFFFFF DUP6 AND SWAP2 POP DUP3 DUP3 PUSH1 0x0 PUSH32 0xDDF252AD1BE2C89B69C2B068FC378DAA952BA7F163C4A11628F55A4DF523B3EF PUSH1 0x0 DUP1 LOG4 PUSH1 0x1 DUP4 ADD JUMPDEST DUP2 DUP2 EQ PUSH2 0x1DA2 JUMPI DUP1 DUP4 PUSH1 0x0 PUSH32 0xDDF252AD1BE2C89B69C2B068FC378DAA952BA7F163C4A11628F55A4DF523B3EF PUSH1 0x0 DUP1 LOG4 PUSH1 0x1 DUP2 ADD SWAP1 POP PUSH2 0x1D67 JUMP JUMPDEST POP PUSH1 0x0 DUP3 SUB PUSH2 0x1DDD JUMPI PUSH1 0x40 MLOAD PUSH32 0x2E07630000000000000000000000000000000000000000000000000000000000 DUP2 MSTORE PUSH1 0x4 ADD PUSH1 0x40 MLOAD DUP1 SWAP2 SUB SWAP1 REVERT JUMPDEST DUP1 PUSH1 0x1 DUP2 SWAP1 SSTORE POP POP POP PUSH2 0x1DF3 PUSH1 0x0 DUP5 DUP4 DUP6 PUSH2 0x1595 JUMP JUMPDEST POP POP POP JUMP JUMPDEST PUSH1 0x0 PUSH1 0x1 DUP3 EQ PUSH1 0xE1 SHL SWAP1 POP SWAP2 SWAP1 POP JUMP JUMPDEST DUP3 DUP1 SLOAD PUSH2 0x1E14 SWAP1 PUSH2 0x2656 JUMP JUMPDEST SWAP1 PUSH1 0x0 MSTORE PUSH1 0x20 PUSH1 0x0 KECCAK256 SWAP1 PUSH1 0x1F ADD PUSH1 0x20 SWAP1 DIV DUP2 ADD SWAP3 DUP3 PUSH2 0x1E36 JUMPI PUSH1 0x0 DUP6 SSTORE PUSH2 0x1E7D JUMP JUMPDEST DUP3 PUSH1 0x1F LT PUSH2 0x1E4F JUMPI DUP1 CALLDATALOAD PUSH1 0xFF NOT AND DUP4 DUP1 ADD OR DUP6 SSTORE PUSH2 0x1E7D JUMP JUMPDEST DUP3 DUP1 ADD PUSH1 0x1 ADD DUP6 SSTORE DUP3 ISZERO PUSH2 0x1E7D JUMPI SWAP2 DUP3 ADD JUMPDEST DUP3 DUP2 GT ISZERO PUSH2 0x1E7C JUMPI DUP3 CALLDATALOAD DUP3 SSTORE SWAP2 PUSH1 0x20 ADD SWAP2 SWAP1 PUSH1 0x1 ADD SWAP1 PUSH2 0x1E61 JUMP JUMPDEST JUMPDEST POP SWAP1 POP PUSH2 0x1E8A SWAP2 SWAP1 PUSH2 0x1E8E JUMP JUMPDEST POP SWAP1 JUMP JUMPDEST JUMPDEST DUP1 DUP3 GT ISZERO PUSH2 0x1EA7 JUMPI PUSH1 0x0 DUP2 PUSH1 0x0 SWAP1 SSTORE POP PUSH1 0x1 ADD PUSH2 0x1E8F JUMP JUMPDEST POP SWAP1 JUMP JUMPDEST PUSH1 0x0 PUSH1 0x40 MLOAD SWAP1 POP SWAP1 JUMP JUMPDEST PUSH1 0x0 DUP1 REVERT JUMPDEST PUSH1 0x0 DUP1 REVERT JUMPDEST PUSH1 0x0 PUSH32 0xFFFFFFFF00000000000000000000000000000000000000000000000000000000 DUP3 AND SWAP1 POP SWAP2 SWAP1 POP JUMP JUMPDEST PUSH2 0x1EF4 DUP2 PUSH2 0x1EBF JUMP JUMPDEST DUP2 EQ PUSH2 0x1EFF JUMPI PUSH1 0x0 DUP1 REVERT JUMPDEST POP JUMP JUMPDEST PUSH1 0x0 DUP2 CALLDATALOAD SWAP1 POP PUSH2 0x1F11 DUP2 PUSH2 0x1EEB JUMP JUMPDEST SWAP3 SWAP2 POP POP JUMP JUMPDEST PUSH1 0x0 PUSH1 0x20 DUP3 DUP5 SUB SLT ISZERO PUSH2 0x1F2D JUMPI PUSH2 0x1F2C PUSH2 0x1EB5 JUMP JUMPDEST JUMPDEST PUSH1 0x0 PUSH2 0x1F3B DUP5 DUP3 DUP6 ADD PUSH2 0x1F02 JUMP JUMPDEST SWAP2 POP POP SWAP3 SWAP2 POP POP JUMP JUMPDEST PUSH1 0x0 DUP2 ISZERO ISZERO SWAP1 POP SWAP2 SWAP1 POP JUMP JUMPDEST PUSH2 0x1F59 DUP2 PUSH2 0x1F44 JUMP JUMPDEST DUP3 MSTORE POP POP JUMP JUMPDEST PUSH1 0x0 PUSH1 0x20 DUP3 ADD SWAP1 POP PUSH2 0x1F74 PUSH1 0x0 DUP4 ADD DUP5 PUSH2 0x1F50 JUMP JUMPDEST SWAP3 SWAP2 POP POP JUMP JUMPDEST PUSH1 0x0 DUP2 MLOAD SWAP1 POP SWAP2 SWAP1 POP JUMP JUMPDEST PUSH1 0x0 DUP3 DUP3 MSTORE PUSH1 0x20 DUP3 ADD SWAP1 POP SWAP3 SWAP2 POP POP JUMP JUMPDEST PUSH1 0x0 JUMPDEST DUP4 DUP2 LT ISZERO PUSH2 0x1FB4 JUMPI DUP1 DUP3 ADD MLOAD DUP2 DUP5 ADD MSTORE PUSH1 0x20 DUP2 ADD SWAP1 POP PUSH2 0x1F99 JUMP JUMPDEST DUP4 DUP2 GT ISZERO PUSH2 0x1FC3 JUMPI PUSH1 0x0 DUP5 DUP5 ADD MSTORE JUMPDEST POP POP POP POP JUMP JUMPDEST PUSH1 0x0 PUSH1 0x1F NOT PUSH1 0x1F DUP4 ADD AND SWAP1 POP SWAP2 SWAP1 POP JUMP JUMPDEST PUSH1 0x0 PUSH2 0x1FE5 DUP3 PUSH2 0x1F7A JUMP JUMPDEST PUSH2 0x1FEF DUP2 DUP6 PUSH2 0x1F85 JUMP JUMPDEST SWAP4 POP PUSH2 0x1FFF DUP2 DUP6 PUSH1 0x20 DUP7 ADD PUSH2 0x1F96 JUMP JUMPDEST PUSH2 0x2008 DUP2 PUSH2 0x1FC9 JUMP JUMPDEST DUP5 ADD SWAP2 POP POP SWAP3 SWAP2 POP POP JUMP JUMPDEST PUSH1 0x0 PUSH1 0x20 DUP3 ADD SWAP1 POP DUP2 DUP2 SUB PUSH1 0x0 DUP4 ADD MSTORE PUSH2 0x202D DUP2 DUP5 PUSH2 0x1FDA JUMP JUMPDEST SWAP1 POP SWAP3 SWAP2 POP POP JUMP JUMPDEST PUSH1 0x0 DUP2 SWAP1 POP SWAP2 SWAP1 POP JUMP JUMPDEST PUSH2 0x2048 DUP2 PUSH2 0x2035 JUMP JUMPDEST DUP2 EQ PUSH2 0x2053 JUMPI PUSH1 0x0 DUP1 REVERT JUMPDEST POP JUMP JUMPDEST PUSH1 0x0 DUP2 CALLDATALOAD SWAP1 POP PUSH2 0x2065 DUP2 PUSH2 0x203F JUMP JUMPDEST SWAP3 SWAP2 POP POP JUMP JUMPDEST PUSH1 0x0 PUSH1 0x20 DUP3 DUP5 SUB SLT ISZERO PUSH2 0x2081 JUMPI PUSH2 0x2080 PUSH2 0x1EB5 JUMP JUMPDEST JUMPDEST PUSH1 0x0 PUSH2 0x208F DUP5 DUP3 DUP6 ADD PUSH2 0x2056 JUMP JUMPDEST SWAP2 POP POP SWAP3 SWAP2 POP POP JUMP JUMPDEST PUSH1 0x0 PUSH20 0xFFFFFFFFFFFFFFFFFFFFFFFFFFFFFFFFFFFFFFFF DUP3 AND SWAP1 POP SWAP2 SWAP1 POP JUMP JUMPDEST PUSH1 0x0 PUSH2 0x20C3 DUP3 PUSH2 0x2098 JUMP JUMPDEST SWAP1 POP SWAP2 SWAP1 POP JUMP JUMPDEST PUSH2 0x20D3 DUP2 PUSH2 0x20B8 JUMP JUMPDEST DUP3 MSTORE POP POP JUMP JUMPDEST PUSH1 0x0 PUSH1 0x20 DUP3 ADD SWAP1 POP PUSH2 0x20EE PUSH1 0x0 DUP4 ADD DUP5 PUSH2 0x20CA JUMP JUMPDEST SWAP3 SWAP2 POP POP JUMP JUMPDEST PUSH2 0x20FD DUP2 PUSH2 0x20B8 JUMP JUMPDEST DUP2 EQ PUSH2 0x2108 JUMPI PUSH1 0x0 DUP1 REVERT JUMPDEST POP JUMP JUMPDEST PUSH1 0x0 DUP2 CALLDATALOAD SWAP1 POP PUSH2 0x211A DUP2 PUSH2 0x20F4 JUMP JUMPDEST SWAP3 SWAP2 POP POP JUMP JUMPDEST PUSH1 0x0 DUP1 PUSH1 0x40 DUP4 DUP6 SUB SLT ISZERO PUSH2 0x2137 JUMPI PUSH2 0x2136 PUSH2 0x1EB5 JUMP JUMPDEST JUMPDEST PUSH1 0x0 PUSH2 0x2145 DUP6 DUP3 DUP7 ADD PUSH2 0x210B JUMP JUMPDEST SWAP3 POP POP PUSH1 0x20 PUSH2 0x2156 DUP6 DUP3 DUP7 ADD PUSH2 0x2056 JUMP JUMPDEST SWAP2 POP POP SWAP3 POP SWAP3 SWAP1 POP JUMP JUMPDEST PUSH2 0x2169 DUP2 PUSH2 0x2035 JUMP JUMPDEST DUP3 MSTORE POP POP JUMP JUMPDEST PUSH1 0x0 PUSH1 0x20 DUP3 ADD SWAP1 POP PUSH2 0x2184 PUSH1 0x0 DUP4 ADD DUP5 PUSH2 0x2160 JUMP JUMPDEST SWAP3 SWAP2 POP POP JUMP JUMPDEST PUSH1 0x0 DUP1 PUSH1 0x0 PUSH1 0x60 DUP5 DUP7 SUB SLT ISZERO PUSH2 0x21A3 JUMPI PUSH2 0x21A2 PUSH2 0x1EB5 JUMP JUMPDEST JUMPDEST PUSH1 0x0 PUSH2 0x21B1 DUP7 DUP3 DUP8 ADD PUSH2 0x210B JUMP JUMPDEST SWAP4 POP POP PUSH1 0x20 PUSH2 0x21C2 DUP7 DUP3 DUP8 ADD PUSH2 0x210B JUMP JUMPDEST SWAP3 POP POP PUSH1 0x40 PUSH2 0x21D3 DUP7 DUP3 DUP8 ADD PUSH2 0x2056 JUMP JUMPDEST SWAP2 POP POP SWAP3 POP SWAP3 POP SWAP3 JUMP JUMPDEST PUSH1 0x0 DUP1 REVERT JUMPDEST PUSH1 0x0 DUP1 REVERT JUMPDEST PUSH1 0x0 DUP1 REVERT JUMPDEST PUSH1 0x0 DUP1 DUP4 PUSH1 0x1F DUP5 ADD SLT PUSH2 0x2202 JUMPI PUSH2 0x2201 PUSH2 0x21DD JUMP JUMPDEST JUMPDEST DUP3 CALLDATALOAD SWAP1 POP PUSH8 0xFFFFFFFFFFFFFFFF DUP2 GT ISZERO PUSH2 0x221F JUMPI PUSH2 0x221E PUSH2 0x21E2 JUMP JUMPDEST JUMPDEST PUSH1 0x20 DUP4 ADD SWAP2 POP DUP4 PUSH1 0x1 DUP3 MUL DUP4 ADD GT ISZERO PUSH2 0x223B JUMPI PUSH2 0x223A PUSH2 0x21E7 JUMP JUMPDEST JUMPDEST SWAP3 POP SWAP3 SWAP1 POP JUMP JUMPDEST PUSH1 0x0 DUP1 PUSH1 0x20 DUP4 DUP6 SUB SLT ISZERO PUSH2 0x2259 JUMPI PUSH2 0x2258 PUSH2 0x1EB5 JUMP JUMPDEST JUMPDEST PUSH1 0x0 DUP4 ADD CALLDATALOAD PUSH8 0xFFFFFFFFFFFFFFFF DUP2 GT ISZERO PUSH2 0x2277 JUMPI PUSH2 0x2276 PUSH2 0x1EBA JUMP JUMPDEST JUMPDEST PUSH2 0x2283 DUP6 DUP3 DUP7 ADD PUSH2 0x21EC JUMP JUMPDEST SWAP3 POP SWAP3 POP POP SWAP3 POP SWAP3 SWAP1 POP JUMP JUMPDEST PUSH1 0x0 PUSH1 0x20 DUP3 DUP5 SUB SLT ISZERO PUSH2 0x22A5 JUMPI PUSH2 0x22A4 PUSH2 0x1EB5 JUMP JUMPDEST JUMPDEST PUSH1 0x0 PUSH2 0x22B3 DUP5 DUP3 DUP6 ADD PUSH2 0x210B JUMP JUMPDEST SWAP2 POP POP SWAP3 SWAP2 POP POP JUMP JUMPDEST PUSH32 0x4E487B7100000000000000000000000000000000000000000000000000000000 PUSH1 0x0 MSTORE PUSH1 0x41 PUSH1 0x4 MSTORE PUSH1 0x24 PUSH1 0x0 REVERT JUMPDEST PUSH2 0x22F4 DUP3 PUSH2 0x1FC9 JUMP JUMPDEST DUP2 ADD DUP2 DUP2 LT PUSH8 0xFFFFFFFFFFFFFFFF DUP3 GT OR ISZERO PUSH2 0x2313 JUMPI PUSH2 0x2312 PUSH2 0x22BC JUMP JUMPDEST JUMPDEST DUP1 PUSH1 0x40 MSTORE POP POP POP JUMP JUMPDEST PUSH1 0x0 PUSH2 0x2326 PUSH2 0x1EAB JUMP JUMPDEST SWAP1 POP PUSH2 0x2332 DUP3 DUP3 PUSH2 0x22EB JUMP JUMPDEST SWAP2 SWAP1 POP JUMP JUMPDEST PUSH1 0x0 PUSH8 0xFFFFFFFFFFFFFFFF DUP3 GT ISZERO PUSH2 0x2352 JUMPI PUSH2 0x2351 PUSH2 0x22BC JUMP JUMPDEST JUMPDEST PUSH1 0x20 DUP3 MUL SWAP1 POP PUSH1 0x20 DUP2 ADD SWAP1 POP SWAP2 SWAP1 POP JUMP JUMPDEST PUSH1 0x0 PUSH2 0x2376 PUSH2 0x2371 DUP5 PUSH2 0x2337 JUMP JUMPDEST PUSH2 0x231C JUMP JUMPDEST SWAP1 POP DUP1 DUP4 DUP3 MSTORE PUSH1 0x20 DUP3 ADD SWAP1 POP PUSH1 0x20 DUP5 MUL DUP4 ADD DUP6 DUP2 GT ISZERO PUSH2 0x2399 JUMPI PUSH2 0x2398 PUSH2 0x21E7 JUMP JUMPDEST JUMPDEST DUP4 JUMPDEST DUP2 DUP2 LT ISZERO PUSH2 0x23C2 JUMPI DUP1 PUSH2 0x23AE DUP9 DUP3 PUSH2 0x2056 JUMP JUMPDEST DUP5 MSTORE PUSH1 0x20 DUP5 ADD SWAP4 POP POP PUSH1 0x20 DUP2 ADD SWAP1 POP PUSH2 0x239B JUMP JUMPDEST POP POP POP SWAP4 SWAP3 POP POP POP JUMP JUMPDEST PUSH1 0x0 DUP3 PUSH1 0x1F DUP4 ADD SLT PUSH2 0x23E1 JUMPI PUSH2 0x23E0 PUSH2 0x21DD JUMP JUMPDEST JUMPDEST DUP2 CALLDATALOAD PUSH2 0x23F1 DUP5 DUP3 PUSH1 0x20 DUP7 ADD PUSH2 0x2363 JUMP JUMPDEST SWAP2 POP POP SWAP3 SWAP2 POP POP JUMP JUMPDEST PUSH1 0x0 PUSH1 0x20 DUP3 DUP5 SUB SLT ISZERO PUSH2 0x2410 JUMPI PUSH2 0x240F PUSH2 0x1EB5 JUMP JUMPDEST JUMPDEST PUSH1 0x0 DUP3 ADD CALLDATALOAD PUSH8 0xFFFFFFFFFFFFFFFF DUP2 GT ISZERO PUSH2 0x242E JUMPI PUSH2 0x242D PUSH2 0x1EBA JUMP JUMPDEST JUMPDEST PUSH2 0x243A DUP5 DUP3 DUP6 ADD PUSH2 0x23CC JUMP JUMPDEST SWAP2 POP POP SWAP3 SWAP2 POP POP JUMP JUMPDEST PUSH2 0x244C DUP2 PUSH2 0x1F44 JUMP JUMPDEST DUP2 EQ PUSH2 0x2457 JUMPI PUSH1 0x0 DUP1 REVERT JUMPDEST POP JUMP JUMPDEST PUSH1 0x0 DUP2 CALLDATALOAD SWAP1 POP PUSH2 0x2469 DUP2 PUSH2 0x2443 JUMP JUMPDEST SWAP3 SWAP2 POP POP JUMP JUMPDEST PUSH1 0x0 DUP1 PUSH1 0x40 DUP4 DUP6 SUB SLT ISZERO PUSH2 0x2486 JUMPI PUSH2 0x2485 PUSH2 0x1EB5 JUMP JUMPDEST JUMPDEST PUSH1 0x0 PUSH2 0x2494 DUP6 DUP3 DUP7 ADD PUSH2 0x210B JUMP JUMPDEST SWAP3 POP POP PUSH1 0x20 PUSH2 0x24A5 DUP6 DUP3 DUP7 ADD PUSH2 0x245A JUMP JUMPDEST SWAP2 POP POP SWAP3 POP SWAP3 SWAP1 POP JUMP JUMPDEST PUSH1 0x0 DUP1 REVERT JUMPDEST PUSH1 0x0 PUSH8 0xFFFFFFFFFFFFFFFF DUP3 GT ISZERO PUSH2 0x24CF JUMPI PUSH2 0x24CE PUSH2 0x22BC JUMP JUMPDEST JUMPDEST PUSH2 0x24D8 DUP3 PUSH2 0x1FC9 JUMP JUMPDEST SWAP1 POP PUSH1 0x20 DUP2 ADD SWAP1 POP SWAP2 SWAP1 POP JUMP JUMPDEST DUP3 DUP2 DUP4 CALLDATACOPY PUSH1 0x0 DUP4 DUP4 ADD MSTORE POP POP POP JUMP JUMPDEST PUSH1 0x0 PUSH2 0x2507 PUSH2 0x2502 DUP5 PUSH2 0x24B4 JUMP JUMPDEST PUSH2 0x231C JUMP JUMPDEST SWAP1 POP DUP3 DUP2 MSTORE PUSH1 0x20 DUP2 ADD DUP5 DUP5 DUP5 ADD GT ISZERO PUSH2 0x2523 JUMPI PUSH2 0x2522 PUSH2 0x24AF JUMP JUMPDEST JUMPDEST PUSH2 0x252E DUP5 DUP3 DUP6 PUSH2 0x24E5 JUMP JUMPDEST POP SWAP4 SWAP3 POP POP POP JUMP JUMPDEST PUSH1 0x0 DUP3 PUSH1 0x1F DUP4 ADD SLT PUSH2 0x254B JUMPI PUSH2 0x254A PUSH2 0x21DD JUMP JUMPDEST JUMPDEST DUP2 CALLDATALOAD PUSH2 0x255B DUP5 DUP3 PUSH1 0x20 DUP7 ADD PUSH2 0x24F4 JUMP JUMPDEST SWAP2 POP POP SWAP3 SWAP2 POP POP JUMP JUMPDEST PUSH1 0x0 DUP1 PUSH1 0x0 DUP1 PUSH1 0x80 DUP6 DUP8 SUB SLT ISZERO PUSH2 0x257E JUMPI PUSH2 0x257D PUSH2 0x1EB5 JUMP JUMPDEST JUMPDEST PUSH1 0x0 PUSH2 0x258C DUP8 DUP3 DUP9 ADD PUSH2 0x210B JUMP JUMPDEST SWAP5 POP POP PUSH1 0x20 PUSH2 0x259D DUP8 DUP3 DUP9 ADD PUSH2 0x210B JUMP JUMPDEST SWAP4 POP POP PUSH1 0x40 PUSH2 0x25AE DUP8 DUP3 DUP9 ADD PUSH2 0x2056 JUMP JUMPDEST SWAP3 POP POP PUSH1 0x60 DUP6 ADD CALLDATALOAD PUSH8 0xFFFFFFFFFFFFFFFF DUP2 GT ISZERO PUSH2 0x25CF JUMPI PUSH2 0x25CE PUSH2 0x1EBA JUMP JUMPDEST JUMPDEST PUSH2 0x25DB DUP8 DUP3 DUP9 ADD PUSH2 0x2536 JUMP JUMPDEST SWAP2 POP POP SWAP3 SWAP6 SWAP2 SWAP5 POP SWAP3 POP JUMP JUMPDEST PUSH1 0x0 DUP1 PUSH1 0x40 DUP4 DUP6 SUB SLT ISZERO PUSH2 0x25FE JUMPI PUSH2 0x25FD PUSH2 0x1EB5 JUMP JUMPDEST JUMPDEST PUSH1 0x0 PUSH2 0x260C DUP6 DUP3 DUP7 ADD PUSH2 0x210B JUMP JUMPDEST SWAP3 POP POP PUSH1 0x20 PUSH2 0x261D DUP6 DUP3 DUP7 ADD PUSH2 0x210B JUMP JUMPDEST SWAP2 POP POP SWAP3 POP SWAP3 SWAP1 POP JUMP JUMPDEST PUSH32 0x4E487B7100000000000000000000000000000000000000000000000000000000 PUSH1 0x0 MSTORE PUSH1 0x22 PUSH1 0x4 MSTORE PUSH1 0x24 PUSH1 0x0 REVERT JUMPDEST PUSH1 0x0 PUSH1 0x2 DUP3 DIV SWAP1 POP PUSH1 0x1 DUP3 AND DUP1 PUSH2 0x266E JUMPI PUSH1 0x7F DUP3 AND SWAP2 POP JUMPDEST PUSH1 0x20 DUP3 LT DUP2 SUB PUSH2 0x2681 JUMPI PUSH2 0x2680 PUSH2 0x2627 JUMP JUMPDEST JUMPDEST POP SWAP2 SWAP1 POP JUMP JUMPDEST PUSH32 0x4E487B7100000000000000000000000000000000000000000000000000000000 PUSH1 0x0 MSTORE PUSH1 0x32 PUSH1 0x4 MSTORE PUSH1 0x24 PUSH1 0x0 REVERT JUMPDEST PUSH32 0x6E66746964206578697374212121000000000000000000000000000000000000 PUSH1 0x0 DUP3 ADD MSTORE POP JUMP JUMPDEST PUSH1 0x0 PUSH2 0x26EC PUSH1 0xE DUP4 PUSH2 0x1F85 JUMP JUMPDEST SWAP2 POP PUSH2 0x26F7 DUP3 PUSH2 0x26B6 JUMP JUMPDEST PUSH1 0x20 DUP3 ADD SWAP1 POP SWAP2 SWAP1 POP JUMP JUMPDEST PUSH1 0x0 PUSH1 0x20 DUP3 ADD SWAP1 POP DUP2 DUP2 SUB PUSH1 0x0 DUP4 ADD MSTORE PUSH2 0x271B DUP2 PUSH2 0x26DF JUMP JUMPDEST SWAP1 POP SWAP2 SWAP1 POP JUMP JUMPDEST PUSH32 0x4E487B7100000000000000000000000000000000000000000000000000000000 PUSH1 0x0 MSTORE PUSH1 0x11 PUSH1 0x4 MSTORE PUSH1 0x24 PUSH1 0x0 REVERT JUMPDEST PUSH1 0x0 PUSH2 0x275C DUP3 PUSH2 0x2035 JUMP JUMPDEST SWAP2 POP PUSH32 0xFFFFFFFFFFFFFFFFFFFFFFFFFFFFFFFFFFFFFFFFFFFFFFFFFFFFFFFFFFFFFFFF DUP3 SUB PUSH2 0x278E JUMPI PUSH2 0x278D PUSH2 0x2722 JUMP JUMPDEST JUMPDEST PUSH1 0x1 DUP3 ADD SWAP1 POP SWAP2 SWAP1 POP JUMP JUMPDEST PUSH1 0x0 DUP2 SWAP1 POP SWAP3 SWAP2 POP POP JUMP JUMPDEST PUSH1 0x0 PUSH2 0x27AF DUP3 PUSH2 0x1F7A JUMP JUMPDEST PUSH2 0x27B9 DUP2 DUP6 PUSH2 0x2799 JUMP JUMPDEST SWAP4 POP PUSH2 0x27C9 DUP2 DUP6 PUSH1 0x20 DUP7 ADD PUSH2 0x1F96 JUMP JUMPDEST DUP1 DUP5 ADD SWAP2 POP POP SWAP3 SWAP2 POP POP JUMP JUMPDEST PUSH1 0x0 PUSH2 0x27E1 DUP3 DUP6 PUSH2 0x27A4 JUMP JUMPDEST SWAP2 POP PUSH2 0x27ED DUP3 DUP5 PUSH2 0x27A4 JUMP JUMPDEST SWAP2 POP DUP2 SWAP1 POP SWAP4 SWAP3 POP POP POP JUMP JUMPDEST PUSH32 0x4F776E61626C653A206E6577206F776E657220697320746865207A65726F2061 PUSH1 0x0 DUP3 ADD MSTORE PUSH32 0x6464726573730000000000000000000000000000000000000000000000000000 PUSH1 0x20 DUP3 ADD MSTORE POP JUMP JUMPDEST PUSH1 0x0 PUSH2 0x2855 PUSH1 0x26 DUP4 PUSH2 0x1F85 JUMP JUMPDEST SWAP2 POP PUSH2 0x2860 DUP3 PUSH2 0x27F9 JUMP JUMPDEST PUSH1 0x40 DUP3 ADD SWAP1 POP SWAP2 SWAP1 POP JUMP JUMPDEST PUSH1 0x0 PUSH1 0x20 DUP3 ADD SWAP1 POP DUP2 DUP2 SUB PUSH1 0x0 DUP4 ADD MSTORE PUSH2 0x2884 DUP2 PUSH2 0x2848 JUMP JUMPDEST SWAP1 POP SWAP2 SWAP1 POP JUMP JUMPDEST PUSH32 0x4F776E61626C653A2063616C6C6572206973206E6F7420746865206F776E6572 PUSH1 0x0 DUP3 ADD MSTORE POP JUMP JUMPDEST PUSH1 0x0 PUSH2 0x28C1 PUSH1 0x20 DUP4 PUSH2 0x1F85 JUMP JUMPDEST SWAP2 POP PUSH2 0x28CC DUP3 PUSH2 0x288B JUMP JUMPDEST PUSH1 0x20 DUP3 ADD SWAP1 POP SWAP2 SWAP1 POP JUMP JUMPDEST PUSH1 0x0 PUSH1 0x20 DUP3 ADD SWAP1 POP DUP2 DUP2 SUB PUSH1 0x0 DUP4 ADD MSTORE PUSH2 0x28F0 DUP2 PUSH2 0x28B4 JUMP JUMPDEST SWAP1 POP SWAP2 SWAP1 POP JUMP JUMPDEST PUSH1 0x0 DUP2 MLOAD SWAP1 POP SWAP2 SWAP1 POP JUMP JUMPDEST PUSH1 0x0 DUP3 DUP3 MSTORE PUSH1 0x20 DUP3 ADD SWAP1 POP SWAP3 SWAP2 POP POP JUMP JUMPDEST PUSH1 0x0 PUSH2 0x291E DUP3 PUSH2 0x28F7 JUMP JUMPDEST PUSH2 0x2928 DUP2 DUP6 PUSH2 0x2902 JUMP JUMPDEST SWAP4 POP PUSH2 0x2938 DUP2 DUP6 PUSH1 0x20 DUP7 ADD PUSH2 0x1F96 JUMP JUMPDEST PUSH2 0x2941 DUP2 PUSH2 0x1FC9 JUMP JUMPDEST DUP5 ADD SWAP2 POP POP SWAP3 SWAP2 POP POP JUMP JUMPDEST PUSH1 0x0 PUSH1 0x80 DUP3 ADD SWAP1 POP PUSH2 0x2961 PUSH1 0x0 DUP4 ADD DUP8 PUSH2 0x20CA JUMP JUMPDEST PUSH2 0x296E PUSH1 0x20 DUP4 ADD DUP7 PUSH2 0x20CA JUMP JUMPDEST PUSH2 0x297B PUSH1 0x40 DUP4 ADD DUP6 PUSH2 0x2160 JUMP JUMPDEST DUP2 DUP2 SUB PUSH1 0x60 DUP4 ADD MSTORE PUSH2 0x298D DUP2 DUP5 PUSH2 0x2913 JUMP JUMPDEST SWAP1 POP SWAP6 SWAP5 POP POP POP POP POP JUMP JUMPDEST PUSH1 0x0 DUP2 MLOAD SWAP1 POP PUSH2 0x29A7 DUP2 PUSH2 0x1EEB JUMP JUMPDEST SWAP3 SWAP2 POP POP JUMP JUMPDEST PUSH1 0x0 PUSH1 0x20 DUP3 DUP5 SUB SLT ISZERO PUSH2 0x29C3 JUMPI PUSH2 0x29C2 PUSH2 0x1EB5 JUMP JUMPDEST JUMPDEST PUSH1 0x0 PUSH2 0x29D1 DUP5 DUP3 DUP6 ADD PUSH2 0x2998 JUMP JUMPDEST SWAP2 POP POP SWAP3 SWAP2 POP POP JUMP INVALID LOG2 PUSH5 0x6970667358 0x22 SLT KECCAK256 DUP9 PUSH19 0x237838E0D6DD2A6B06201AA4DDA9819C3E35FD 0xE8 PUSH28 0xAE34697F207A075C3B64736F6C634300080D00330000000000000000 "
				},
				"gasEstimates": {
					"creation": {
						"codeDepositCost": "2153600",
						"executionCost": "infinite",
						"totalCost": "infinite"
					},
					"external": {
						"approve(address,uint256)": "infinite",
						"balanceOf(address)": "3015",
						"batchMint(uint256[])": "infinite",
						"getApproved(uint256)": "7381",
						"getCurrentIndex()": "2584",
						"isApprovedForAll(address,address)": "infinite",
						"mint(uint256)": "infinite",
						"name()": "infinite",
						"nftExist(uint256)": "2841",
						"owner()": "2567",
						"ownerOf(uint256)": "infinite",
						"redeem(uint256)": "infinite",
						"renounceOwnership()": "30421",
						"safeTransferFrom(address,address,uint256)": "infinite",
						"safeTransferFrom(address,address,uint256,bytes)": "infinite",
						"setApprovalForAll(address,bool)": "infinite",
						"setBaseURI(string)": "infinite",
						"supportsInterface(bytes4)": "745",
						"symbol()": "infinite",
						"tokenMapper(uint256)": "infinite",
						"tokenMapper2(uint256)": "infinite",
						"tokenURI(uint256)": "infinite",
						"totalSupply()": "4710",
						"transferFrom(address,address,uint256)": "infinite",
						"transferOwnership(address)": "30854"
					},
					"internal": {
						"_baseURI()": "infinite"
					}
				},
				"methodIdentifiers": {
					"approve(address,uint256)": "095ea7b3",
					"balanceOf(address)": "70a08231",
					"batchMint(uint256[])": "8ffbe96b",
					"getApproved(uint256)": "081812fc",
					"getCurrentIndex()": "0d9005ae",
					"isApprovedForAll(address,address)": "e985e9c5",
					"mint(uint256)": "a0712d68",
					"name()": "06fdde03",
					"nftExist(uint256)": "a65e06e8",
					"owner()": "8da5cb5b",
					"ownerOf(uint256)": "6352211e",
					"redeem(uint256)": "db006a75",
					"renounceOwnership()": "715018a6",
					"safeTransferFrom(address,address,uint256)": "42842e0e",
					"safeTransferFrom(address,address,uint256,bytes)": "b88d4fde",
					"setApprovalForAll(address,bool)": "a22cb465",
					"setBaseURI(string)": "55f804b3",
					"supportsInterface(bytes4)": "01ffc9a7",
					"symbol()": "95d89b41",
					"tokenMapper(uint256)": "b73b99a2",
					"tokenMapper2(uint256)": "51e164b7",
					"tokenURI(uint256)": "c87b56dd",
					"totalSupply()": "18160ddd",
					"transferFrom(address,address,uint256)": "23b872dd",
					"transferOwnership(address)": "f2fde38b"
				}
			},
			"storageLayout": {
				"storage": [
					{
						"astId": 7,
						"contract": "UmiverseNFT.sol:UMIVERSE",
						"label": "_owner",
						"offset": 0,
						"slot": "0",
						"type": "t_address"
					},
					{
						"astId": 474,
						"contract": "UmiverseNFT.sol:UMIVERSE",
						"label": "_currentIndex",
						"offset": 0,
						"slot": "1",
						"type": "t_uint256"
					},
					{
						"astId": 476,
						"contract": "UmiverseNFT.sol:UMIVERSE",
						"label": "_burnCounter",
						"offset": 0,
						"slot": "2",
						"type": "t_uint256"
					},
					{
						"astId": 478,
						"contract": "UmiverseNFT.sol:UMIVERSE",
						"label": "_name",
						"offset": 0,
						"slot": "3",
						"type": "t_string_storage"
					},
					{
						"astId": 480,
						"contract": "UmiverseNFT.sol:UMIVERSE",
						"label": "_symbol",
						"offset": 0,
						"slot": "4",
						"type": "t_string_storage"
					},
					{
						"astId": 484,
						"contract": "UmiverseNFT.sol:UMIVERSE",
						"label": "_packedOwnerships",
						"offset": 0,
						"slot": "5",
						"type": "t_mapping(t_uint256,t_uint256)"
					},
					{
						"astId": 488,
						"contract": "UmiverseNFT.sol:UMIVERSE",
						"label": "_packedAddressData",
						"offset": 0,
						"slot": "6",
						"type": "t_mapping(t_address,t_uint256)"
					},
					{
						"astId": 493,
						"contract": "UmiverseNFT.sol:UMIVERSE",
						"label": "_tokenApprovals",
						"offset": 0,
						"slot": "7",
						"type": "t_mapping(t_uint256,t_struct(TokenApprovalRef)406_storage)"
					},
					{
						"astId": 499,
						"contract": "UmiverseNFT.sol:UMIVERSE",
						"label": "_operatorApprovals",
						"offset": 0,
						"slot": "8",
						"type": "t_mapping(t_address,t_mapping(t_address,t_bool))"
					},
					{
						"astId": 144,
						"contract": "UmiverseNFT.sol:UMIVERSE",
						"label": "_baseTokenURI",
						"offset": 0,
						"slot": "9",
						"type": "t_string_storage"
					},
					{
						"astId": 148,
						"contract": "UmiverseNFT.sol:UMIVERSE",
						"label": "tokenMapper",
						"offset": 0,
						"slot": "10",
						"type": "t_mapping(t_uint256,t_uint256)"
					},
					{
						"astId": 152,
						"contract": "UmiverseNFT.sol:UMIVERSE",
						"label": "tokenMapper2",
						"offset": 0,
						"slot": "11",
						"type": "t_mapping(t_uint256,t_uint256)"
					},
					{
						"astId": 154,
						"contract": "UmiverseNFT.sol:UMIVERSE",
						"label": "_tokenIds",
						"offset": 0,
						"slot": "12",
						"type": "t_uint256"
					},
					{
						"astId": 158,
						"contract": "UmiverseNFT.sol:UMIVERSE",
						"label": "nftExist",
						"offset": 0,
						"slot": "13",
						"type": "t_mapping(t_uint256,t_bool)"
					}
				],
				"types": {
					"t_address": {
						"encoding": "inplace",
						"label": "address",
						"numberOfBytes": "20"
					},
					"t_bool": {
						"encoding": "inplace",
						"label": "bool",
						"numberOfBytes": "1"
					},
					"t_mapping(t_address,t_bool)": {
						"encoding": "mapping",
						"key": "t_address",
						"label": "mapping(address => bool)",
						"numberOfBytes": "32",
						"value": "t_bool"
					},
					"t_mapping(t_address,t_mapping(t_address,t_bool))": {
						"encoding": "mapping",
						"key": "t_address",
						"label": "mapping(address => mapping(address => bool))",
						"numberOfBytes": "32",
						"value": "t_mapping(t_address,t_bool)"
					},
					"t_mapping(t_address,t_uint256)": {
						"encoding": "mapping",
						"key": "t_address",
						"label": "mapping(address => uint256)",
						"numberOfBytes": "32",
						"value": "t_uint256"
					},
					"t_mapping(t_uint256,t_bool)": {
						"encoding": "mapping",
						"key": "t_uint256",
						"label": "mapping(uint256 => bool)",
						"numberOfBytes": "32",
						"value": "t_bool"
					},
					"t_mapping(t_uint256,t_struct(TokenApprovalRef)406_storage)": {
						"encoding": "mapping",
						"key": "t_uint256",
						"label": "mapping(uint256 => struct ERC721A.TokenApprovalRef)",
						"numberOfBytes": "32",
						"value": "t_struct(TokenApprovalRef)406_storage"
					},
					"t_mapping(t_uint256,t_uint256)": {
						"encoding": "mapping",
						"key": "t_uint256",
						"label": "mapping(uint256 => uint256)",
						"numberOfBytes": "32",
						"value": "t_uint256"
					},
					"t_string_storage": {
						"encoding": "bytes",
						"label": "string",
						"numberOfBytes": "32"
					},
					"t_struct(TokenApprovalRef)406_storage": {
						"encoding": "inplace",
						"label": "struct ERC721A.TokenApprovalRef",
						"members": [
							{
								"astId": 405,
								"contract": "UmiverseNFT.sol:UMIVERSE",
								"label": "value",
								"offset": 0,
								"slot": "0",
								"type": "t_address"
							}
						],
						"numberOfBytes": "32"
					},
					"t_uint256": {
						"encoding": "inplace",
						"label": "uint256",
						"numberOfBytes": "32"
					}
				}
			},
			"userdoc": {
				"errors": {
					"ApprovalCallerNotOwnerNorApproved()": [
						{
							"notice": "The caller must own the token or be an approved operator."
						}
					],
					"ApprovalQueryForNonexistentToken()": [
						{
							"notice": "The token does not exist."
						}
					],
					"BalanceQueryForZeroAddress()": [
						{
							"notice": "Cannot query the balance for the zero address."
						}
					],
					"MintERC2309QuantityExceedsLimit()": [
						{
							"notice": "The `quantity` minted with ERC2309 exceeds the safety limit."
						}
					],
					"MintToZeroAddress()": [
						{
							"notice": "Cannot mint to the zero address."
						}
					],
					"MintZeroQuantity()": [
						{
							"notice": "The quantity of tokens minted must be more than zero."
						}
					],
					"OwnerQueryForNonexistentToken()": [
						{
							"notice": "The token does not exist."
						}
					],
					"OwnershipNotInitializedForExtraData()": [
						{
							"notice": "The `extraData` cannot be set on an unintialized ownership slot."
						}
					],
					"TransferCallerNotOwnerNorApproved()": [
						{
							"notice": "The caller must own the token or be an approved operator."
						}
					],
					"TransferFromIncorrectOwner()": [
						{
							"notice": "The token must be owned by `from`."
						}
					],
					"TransferToNonERC721ReceiverImplementer()": [
						{
							"notice": "Cannot safely transfer to a contract that does not implement the ERC721Receiver interface."
						}
					],
					"TransferToZeroAddress()": [
						{
							"notice": "Cannot transfer to the zero address."
						}
					],
					"URIQueryForNonexistentToken()": [
						{
							"notice": "The token does not exist."
						}
					]
				},
				"kind": "user",
				"methods": {},
				"version": 1
			}
		}
	}
}