{
	"UmiverseVerifyV2.sol": {
		"UmiverseVerifyV2": {
			"abi": [
				{
					"inputs": [
						{
							"internalType": "address",
							"name": "signer",
							"type": "address"
						},
						{
							"internalType": "bytes32",
							"name": "hash",
							"type": "bytes32"
						},
						{
							"internalType": "bytes",
							"name": "signature",
							"type": "bytes"
						}
					],
					"name": "isValidERC1271Signature",
					"outputs": [
						{
							"internalType": "bool",
							"name": "",
							"type": "bool"
						}
					],
					"stateMutability": "view",
					"type": "function"
				},
				{
					"inputs": [
						{
							"internalType": "address",
							"name": "signer",
							"type": "address"
						},
						{
							"internalType": "bytes32",
							"name": "hash",
							"type": "bytes32"
						},
						{
							"internalType": "bytes",
							"name": "signature",
							"type": "bytes"
						}
					],
					"name": "isValidSignature",
					"outputs": [
						{
							"internalType": "bool",
							"name": "",
							"type": "bool"
						}
					],
					"stateMutability": "view",
					"type": "function"
				}
			],
			"devdoc": {
				"kind": "dev",
				"methods": {},
				"version": 1
			},
			"evm": {
				"assembly": "    /* \"UmiverseVerifyV2.sol\":132:567  contract UmiverseVerifyV2 {... */\n  mstore(0x40, 0x80)\n  callvalue\n  dup1\n  iszero\n  tag_1\n  jumpi\n  0x00\n  dup1\n  revert\ntag_1:\n  pop\n  dataSize(sub_0)\n  dup1\n  dataOffset(sub_0)\n  0x00\n  codecopy\n  0x00\n  return\nstop\n\nsub_0: assembly {\n        /* \"UmiverseVerifyV2.sol\":132:567  contract UmiverseVerifyV2 {... */\n      mstore(0x40, 0x80)\n      callvalue\n      dup1\n      iszero\n      tag_1\n      jumpi\n      0x00\n      dup1\n      revert\n    tag_1:\n      pop\n      jumpi(tag_2, lt(calldatasize, 0x04))\n      shr(0xe0, calldataload(0x00))\n      dup1\n      0x235110ca\n      eq\n      tag_3\n      jumpi\n      dup1\n      0x238a4d1e\n      eq\n      tag_4\n      jumpi\n    tag_2:\n      0x00\n      dup1\n      revert\n        /* \"UmiverseVerifyV2.sol\":164:369  function isValidERC1271Signature(address signer, bytes32 hash, bytes memory signature) public view returns (bool){... */\n    tag_3:\n      tag_5\n      0x04\n      dup1\n      calldatasize\n      sub\n      dup2\n      add\n      swap1\n      tag_6\n      swap2\n      swap1\n      tag_7\n      jump\t// in\n    tag_6:\n      tag_8\n      jump\t// in\n    tag_5:\n      mload(0x40)\n      tag_9\n      swap2\n      swap1\n      tag_10\n      jump\t// in\n    tag_9:\n      mload(0x40)\n      dup1\n      swap2\n      sub\n      swap1\n      return\n        /* \"UmiverseVerifyV2.sol\":374:565  function isValidSignature(address signer, bytes32 hash, bytes memory signature) public view returns (bool){... */\n    tag_4:\n      tag_11\n      0x04\n      dup1\n      calldatasize\n      sub\n      dup2\n      add\n      swap1\n      tag_12\n      swap2\n      swap1\n      tag_7\n      jump\t// in\n    tag_12:\n      tag_13\n      jump\t// in\n    tag_11:\n      mload(0x40)\n      tag_14\n      swap2\n      swap1\n      tag_10\n      jump\t// in\n    tag_14:\n      mload(0x40)\n      dup1\n      swap2\n      sub\n      swap1\n      return\n        /* \"UmiverseVerifyV2.sol\":164:369  function isValidERC1271Signature(address signer, bytes32 hash, bytes memory signature) public view returns (bool){... */\n    tag_8:\n        /* \"UmiverseVerifyV2.sol\":272:276  bool */\n      0x00\n        /* \"UmiverseVerifyV2.sol\":294:362  SignatureChecker.isValidERC1271SignatureNow(signer, hash, signature) */\n      tag_16\n        /* \"UmiverseVerifyV2.sol\":338:344  signer */\n      dup5\n        /* \"UmiverseVerifyV2.sol\":346:350  hash */\n      dup5\n        /* \"UmiverseVerifyV2.sol\":352:361  signature */\n      dup5\n        /* \"UmiverseVerifyV2.sol\":294:337  SignatureChecker.isValidERC1271SignatureNow */\n      tag_17\n        /* \"UmiverseVerifyV2.sol\":294:362  SignatureChecker.isValidERC1271SignatureNow(signer, hash, signature) */\n      jump\t// in\n    tag_16:\n        /* \"UmiverseVerifyV2.sol\":287:362  return SignatureChecker.isValidERC1271SignatureNow(signer, hash, signature) */\n      swap1\n      pop\n        /* \"UmiverseVerifyV2.sol\":164:369  function isValidERC1271Signature(address signer, bytes32 hash, bytes memory signature) public view returns (bool){... */\n      swap4\n      swap3\n      pop\n      pop\n      pop\n      jump\t// out\n        /* \"UmiverseVerifyV2.sol\":374:565  function isValidSignature(address signer, bytes32 hash, bytes memory signature) public view returns (bool){... */\n    tag_13:\n        /* \"UmiverseVerifyV2.sol\":475:479  bool */\n      0x00\n        /* \"UmiverseVerifyV2.sol\":497:558  SignatureChecker.isValidSignatureNow(signer, hash, signature) */\n      tag_19\n        /* \"UmiverseVerifyV2.sol\":534:540  signer */\n      dup5\n        /* \"UmiverseVerifyV2.sol\":542:546  hash */\n      dup5\n        /* \"UmiverseVerifyV2.sol\":548:557  signature */\n      dup5\n        /* \"UmiverseVerifyV2.sol\":497:533  SignatureChecker.isValidSignatureNow */\n      tag_20\n        /* \"UmiverseVerifyV2.sol\":497:558  SignatureChecker.isValidSignatureNow(signer, hash, signature) */\n      jump\t// in\n    tag_19:\n        /* \"UmiverseVerifyV2.sol\":490:558  return SignatureChecker.isValidSignatureNow(signer, hash, signature) */\n      swap1\n      pop\n        /* \"UmiverseVerifyV2.sol\":374:565  function isValidSignature(address signer, bytes32 hash, bytes memory signature) public view returns (bool){... */\n      swap4\n      swap3\n      pop\n      pop\n      pop\n      jump\t// out\n        /* \"@openzeppelin/contracts/utils/cryptography/SignatureChecker.sol\":1813:2271  function isValidERC1271SignatureNow(... */\n    tag_17:\n        /* \"@openzeppelin/contracts/utils/cryptography/SignatureChecker.sol\":1956:1960  bool */\n      0x00\n        /* \"@openzeppelin/contracts/utils/cryptography/SignatureChecker.sol\":1973:1985  bool success */\n      dup1\n        /* \"@openzeppelin/contracts/utils/cryptography/SignatureChecker.sol\":1987:2006  bytes memory result */\n      0x00\n        /* \"@openzeppelin/contracts/utils/cryptography/SignatureChecker.sol\":2010:2016  signer */\n      dup6\n        /* \"@openzeppelin/contracts/utils/cryptography/SignatureChecker.sol\":2010:2027  signer.staticcall */\n      0xffffffffffffffffffffffffffffffffffffffff\n      and\n        /* \"@openzeppelin/contracts/utils/cryptography/SignatureChecker.sol\":2084:2088  hash */\n      dup6\n        /* \"@openzeppelin/contracts/utils/cryptography/SignatureChecker.sol\":2090:2099  signature */\n      dup6\n        /* \"@openzeppelin/contracts/utils/cryptography/SignatureChecker.sol\":2041:2101  abi.encodeCall(IERC1271.isValidSignature, (hash, signature)) */\n      add(0x24, mload(0x40))\n      tag_22\n      swap3\n      swap2\n      swap1\n      tag_23\n      jump\t// in\n    tag_22:\n      mload(0x40)\n      0x20\n      dup2\n      dup4\n      sub\n      sub\n      dup2\n      mstore\n      swap1\n      0x40\n      mstore\n      shl(0xe0, 0x1626ba7e)\n      0x20\n      dup3\n      add\n      dup1\n      mload\n      0xffffffffffffffffffffffffffffffffffffffffffffffffffffffff\n      dup4\n      dup2\n      dup4\n      and\n      or\n      dup4\n      mstore\n      pop\n      pop\n      pop\n      pop\n        /* \"@openzeppelin/contracts/utils/cryptography/SignatureChecker.sol\":2010:2111  signer.staticcall(... */\n      mload(0x40)\n      tag_24\n      swap2\n      swap1\n      tag_25\n      jump\t// in\n    tag_24:\n      0x00\n      mload(0x40)\n      dup1\n      dup4\n      sub\n      dup2\n      dup6\n      gas\n      staticcall\n      swap2\n      pop\n      pop\n      returndatasize\n      dup1\n      0x00\n      dup2\n      eq\n      tag_28\n      jumpi\n      mload(0x40)\n      swap2\n      pop\n      and(add(returndatasize, 0x3f), not(0x1f))\n      dup3\n      add\n      0x40\n      mstore\n      returndatasize\n      dup3\n      mstore\n      returndatasize\n      0x00\n      0x20\n      dup5\n      add\n      returndatacopy\n      jump(tag_27)\n    tag_28:\n      0x60\n      swap2\n      pop\n    tag_27:\n      pop\n        /* \"@openzeppelin/contracts/utils/cryptography/SignatureChecker.sol\":1972:2111  (bool success, bytes memory result) = signer.staticcall(... */\n      swap2\n      pop\n      swap2\n      pop\n        /* \"@openzeppelin/contracts/utils/cryptography/SignatureChecker.sol\":2129:2136  success */\n      dup2\n        /* \"@openzeppelin/contracts/utils/cryptography/SignatureChecker.sol\":2129:2171  success &&... */\n      dup1\n      iszero\n      tag_29\n      jumpi\n      pop\n        /* \"@openzeppelin/contracts/utils/cryptography/SignatureChecker.sol\":2169:2171  32 */\n      0x20\n        /* \"@openzeppelin/contracts/utils/cryptography/SignatureChecker.sol\":2152:2158  result */\n      dup2\n        /* \"@openzeppelin/contracts/utils/cryptography/SignatureChecker.sol\":2152:2165  result.length */\n      mload\n        /* \"@openzeppelin/contracts/utils/cryptography/SignatureChecker.sol\":2152:2171  result.length >= 32 */\n      lt\n      iszero\n        /* \"@openzeppelin/contracts/utils/cryptography/SignatureChecker.sol\":2129:2171  success &&... */\n    tag_29:\n        /* \"@openzeppelin/contracts/utils/cryptography/SignatureChecker.sol\":2129:2263  success &&... */\n      dup1\n      iszero\n      tag_30\n      jumpi\n      pop\n        /* \"@openzeppelin/contracts/utils/cryptography/SignatureChecker.sol\":2228:2262  IERC1271.isValidSignature.selector */\n      shl(0xe0, 0x1626ba7e)\n        /* \"@openzeppelin/contracts/utils/cryptography/SignatureChecker.sol\":2220:2263  bytes32(IERC1271.isValidSignature.selector) */\n      not(0xffffffffffffffffffffffffffffffffffffffffffffffffffffffff)\n      and\n        /* \"@openzeppelin/contracts/utils/cryptography/SignatureChecker.sol\":2198:2204  result */\n      dup2\n        /* \"@openzeppelin/contracts/utils/cryptography/SignatureChecker.sol\":2187:2216  abi.decode(result, (bytes32)) */\n      dup1\n      0x20\n      add\n      swap1\n      mload\n      dup2\n      add\n      swap1\n      tag_31\n      swap2\n      swap1\n      tag_32\n      jump\t// in\n    tag_31:\n        /* \"@openzeppelin/contracts/utils/cryptography/SignatureChecker.sol\":2187:2263  abi.decode(result, (bytes32)) == bytes32(IERC1271.isValidSignature.selector) */\n      eq\n        /* \"@openzeppelin/contracts/utils/cryptography/SignatureChecker.sol\":2129:2263  success &&... */\n    tag_30:\n        /* \"@openzeppelin/contracts/utils/cryptography/SignatureChecker.sol\":2121:2264  return (success &&... */\n      swap3\n      pop\n      pop\n      pop\n        /* \"@openzeppelin/contracts/utils/cryptography/SignatureChecker.sol\":1813:2271  function isValidERC1271SignatureNow(... */\n      swap4\n      swap3\n      pop\n      pop\n      pop\n      jump\t// out\n        /* \"@openzeppelin/contracts/utils/cryptography/SignatureChecker.sol\":1039:1407  function isValidSignatureNow(address signer, bytes32 hash, bytes memory signature) internal view returns (bool) {... */\n    tag_20:\n        /* \"@openzeppelin/contracts/utils/cryptography/SignatureChecker.sol\":1145:1149  bool */\n      0x00\n        /* \"@openzeppelin/contracts/utils/cryptography/SignatureChecker.sol\":1162:1179  address recovered */\n      dup1\n        /* \"@openzeppelin/contracts/utils/cryptography/SignatureChecker.sol\":1181:1205  ECDSA.RecoverError error */\n      0x00\n        /* \"@openzeppelin/contracts/utils/cryptography/SignatureChecker.sol\":1211:1244  ECDSA.tryRecover(hash, signature) */\n      tag_34\n        /* \"@openzeppelin/contracts/utils/cryptography/SignatureChecker.sol\":1228:1232  hash */\n      dup6\n        /* \"@openzeppelin/contracts/utils/cryptography/SignatureChecker.sol\":1234:1243  signature */\n      dup6\n        /* \"@openzeppelin/contracts/utils/cryptography/SignatureChecker.sol\":1211:1227  ECDSA.tryRecover */\n      tag_35\n        /* \"@openzeppelin/contracts/utils/cryptography/SignatureChecker.sol\":1211:1244  ECDSA.tryRecover(hash, signature) */\n      jump\t// in\n    tag_34:\n        /* \"@openzeppelin/contracts/utils/cryptography/SignatureChecker.sol\":1161:1244  (address recovered, ECDSA.RecoverError error, ) = ECDSA.tryRecover(hash, signature) */\n      pop\n      swap2\n      pop\n      swap2\n      pop\n        /* \"@openzeppelin/contracts/utils/cryptography/SignatureChecker.sol\":1283:1309  ECDSA.RecoverError.NoError */\n      0x00\n        /* \"@openzeppelin/contracts/utils/cryptography/SignatureChecker.sol\":1274:1309  error == ECDSA.RecoverError.NoError */\n      0x03\n      dup2\n      gt\n      iszero\n      tag_36\n      jumpi\n      tag_37\n      tag_38\n      jump\t// in\n    tag_37:\n    tag_36:\n        /* \"@openzeppelin/contracts/utils/cryptography/SignatureChecker.sol\":1274:1279  error */\n      dup2\n        /* \"@openzeppelin/contracts/utils/cryptography/SignatureChecker.sol\":1274:1309  error == ECDSA.RecoverError.NoError */\n      0x03\n      dup2\n      gt\n      iszero\n      tag_39\n      jumpi\n      tag_40\n      tag_38\n      jump\t// in\n    tag_40:\n    tag_39:\n      eq\n        /* \"@openzeppelin/contracts/utils/cryptography/SignatureChecker.sol\":1274:1332  error == ECDSA.RecoverError.NoError && recovered == signer */\n      dup1\n      iszero\n      tag_41\n      jumpi\n      pop\n        /* \"@openzeppelin/contracts/utils/cryptography/SignatureChecker.sol\":1326:1332  signer */\n      dup6\n        /* \"@openzeppelin/contracts/utils/cryptography/SignatureChecker.sol\":1313:1332  recovered == signer */\n      0xffffffffffffffffffffffffffffffffffffffff\n      and\n        /* \"@openzeppelin/contracts/utils/cryptography/SignatureChecker.sol\":1313:1322  recovered */\n      dup3\n        /* \"@openzeppelin/contracts/utils/cryptography/SignatureChecker.sol\":1313:1332  recovered == signer */\n      0xffffffffffffffffffffffffffffffffffffffff\n      and\n      eq\n        /* \"@openzeppelin/contracts/utils/cryptography/SignatureChecker.sol\":1274:1332  error == ECDSA.RecoverError.NoError && recovered == signer */\n    tag_41:\n        /* \"@openzeppelin/contracts/utils/cryptography/SignatureChecker.sol\":1273:1400  (error == ECDSA.RecoverError.NoError && recovered == signer) ||... */\n      dup1\n      tag_42\n      jumpi\n      pop\n        /* \"@openzeppelin/contracts/utils/cryptography/SignatureChecker.sol\":1349:1400  isValidERC1271SignatureNow(signer, hash, signature) */\n      tag_43\n        /* \"@openzeppelin/contracts/utils/cryptography/SignatureChecker.sol\":1376:1382  signer */\n      dup7\n        /* \"@openzeppelin/contracts/utils/cryptography/SignatureChecker.sol\":1384:1388  hash */\n      dup7\n        /* \"@openzeppelin/contracts/utils/cryptography/SignatureChecker.sol\":1390:1399  signature */\n      dup7\n        /* \"@openzeppelin/contracts/utils/cryptography/SignatureChecker.sol\":1349:1375  isValidERC1271SignatureNow */\n      tag_17\n        /* \"@openzeppelin/contracts/utils/cryptography/SignatureChecker.sol\":1349:1400  isValidERC1271SignatureNow(signer, hash, signature) */\n      jump\t// in\n    tag_43:\n        /* \"@openzeppelin/contracts/utils/cryptography/SignatureChecker.sol\":1273:1400  (error == ECDSA.RecoverError.NoError && recovered == signer) ||... */\n    tag_42:\n        /* \"@openzeppelin/contracts/utils/cryptography/SignatureChecker.sol\":1254:1400  return... */\n      swap3\n      pop\n      pop\n      pop\n        /* \"@openzeppelin/contracts/utils/cryptography/SignatureChecker.sol\":1039:1407  function isValidSignatureNow(address signer, bytes32 hash, bytes memory signature) internal view returns (bool) {... */\n      swap4\n      swap3\n      pop\n      pop\n      pop\n      jump\t// out\n        /* \"@openzeppelin/contracts/utils/cryptography/ECDSA.sol\":2129:2895  function tryRecover(bytes32 hash, bytes memory signature) internal pure returns (address, RecoverError, bytes32) {... */\n    tag_35:\n        /* \"@openzeppelin/contracts/utils/cryptography/ECDSA.sol\":2210:2217  address */\n      0x00\n        /* \"@openzeppelin/contracts/utils/cryptography/ECDSA.sol\":2219:2231  RecoverError */\n      dup1\n        /* \"@openzeppelin/contracts/utils/cryptography/ECDSA.sol\":2233:2240  bytes32 */\n      0x00\n        /* \"@openzeppelin/contracts/utils/cryptography/ECDSA.sol\":2276:2278  65 */\n      0x41\n        /* \"@openzeppelin/contracts/utils/cryptography/ECDSA.sol\":2256:2265  signature */\n      dup5\n        /* \"@openzeppelin/contracts/utils/cryptography/ECDSA.sol\":2256:2272  signature.length */\n      mload\n        /* \"@openzeppelin/contracts/utils/cryptography/ECDSA.sol\":2256:2278  signature.length == 65 */\n      sub\n        /* \"@openzeppelin/contracts/utils/cryptography/ECDSA.sol\":2252:2889  if (signature.length == 65) {... */\n      tag_45\n      jumpi\n        /* \"@openzeppelin/contracts/utils/cryptography/ECDSA.sol\":2294:2303  bytes32 r */\n      0x00\n        /* \"@openzeppelin/contracts/utils/cryptography/ECDSA.sol\":2317:2326  bytes32 s */\n      dup1\n        /* \"@openzeppelin/contracts/utils/cryptography/ECDSA.sol\":2340:2347  uint8 v */\n      0x00\n        /* \"@openzeppelin/contracts/utils/cryptography/ECDSA.sol\":2592:2596  0x20 */\n      0x20\n        /* \"@openzeppelin/contracts/utils/cryptography/ECDSA.sol\":2581:2590  signature */\n      dup8\n        /* \"@openzeppelin/contracts/utils/cryptography/ECDSA.sol\":2577:2597  add(signature, 0x20) */\n      add\n        /* \"@openzeppelin/contracts/utils/cryptography/ECDSA.sol\":2571:2598  mload(add(signature, 0x20)) */\n      mload\n        /* \"@openzeppelin/contracts/utils/cryptography/ECDSA.sol\":2566:2598  r := mload(add(signature, 0x20)) */\n      swap3\n      pop\n        /* \"@openzeppelin/contracts/utils/cryptography/ECDSA.sol\":2641:2645  0x40 */\n      0x40\n        /* \"@openzeppelin/contracts/utils/cryptography/ECDSA.sol\":2630:2639  signature */\n      dup8\n        /* \"@openzeppelin/contracts/utils/cryptography/ECDSA.sol\":2626:2646  add(signature, 0x40) */\n      add\n        /* \"@openzeppelin/contracts/utils/cryptography/ECDSA.sol\":2620:2647  mload(add(signature, 0x40)) */\n      mload\n        /* \"@openzeppelin/contracts/utils/cryptography/ECDSA.sol\":2615:2647  s := mload(add(signature, 0x40)) */\n      swap2\n      pop\n        /* \"@openzeppelin/contracts/utils/cryptography/ECDSA.sol\":2698:2702  0x60 */\n      0x60\n        /* \"@openzeppelin/contracts/utils/cryptography/ECDSA.sol\":2687:2696  signature */\n      dup8\n        /* \"@openzeppelin/contracts/utils/cryptography/ECDSA.sol\":2683:2703  add(signature, 0x60) */\n      add\n        /* \"@openzeppelin/contracts/utils/cryptography/ECDSA.sol\":2677:2704  mload(add(signature, 0x60)) */\n      mload\n        /* \"@openzeppelin/contracts/utils/cryptography/ECDSA.sol\":2674:2675  0 */\n      0x00\n        /* \"@openzeppelin/contracts/utils/cryptography/ECDSA.sol\":2669:2705  byte(0, mload(add(signature, 0x60))) */\n      byte\n        /* \"@openzeppelin/contracts/utils/cryptography/ECDSA.sol\":2664:2705  v := byte(0, mload(add(signature, 0x60))) */\n      swap1\n      pop\n        /* \"@openzeppelin/contracts/utils/cryptography/ECDSA.sol\":2739:2764  tryRecover(hash, v, r, s) */\n      tag_46\n        /* \"@openzeppelin/contracts/utils/cryptography/ECDSA.sol\":2750:2754  hash */\n      dup9\n        /* \"@openzeppelin/contracts/utils/cryptography/ECDSA.sol\":2756:2757  v */\n      dup3\n        /* \"@openzeppelin/contracts/utils/cryptography/ECDSA.sol\":2759:2760  r */\n      dup6\n        /* \"@openzeppelin/contracts/utils/cryptography/ECDSA.sol\":2762:2763  s */\n      dup6\n        /* \"@openzeppelin/contracts/utils/cryptography/ECDSA.sol\":2739:2749  tryRecover */\n      tag_47\n        /* \"@openzeppelin/contracts/utils/cryptography/ECDSA.sol\":2739:2764  tryRecover(hash, v, r, s) */\n      jump\t// in\n    tag_46:\n        /* \"@openzeppelin/contracts/utils/cryptography/ECDSA.sol\":2732:2764  return tryRecover(hash, v, r, s) */\n      swap6\n      pop\n      swap6\n      pop\n      swap6\n      pop\n      pop\n      pop\n      pop\n      jump(tag_44)\n        /* \"@openzeppelin/contracts/utils/cryptography/ECDSA.sol\":2252:2889  if (signature.length == 65) {... */\n    tag_45:\n        /* \"@openzeppelin/contracts/utils/cryptography/ECDSA.sol\":2811:2812  0 */\n      0x00\n        /* \"@openzeppelin/contracts/utils/cryptography/ECDSA.sol\":2815:2850  RecoverError.InvalidSignatureLength */\n      0x02\n        /* \"@openzeppelin/contracts/utils/cryptography/ECDSA.sol\":2860:2869  signature */\n      dup6\n        /* \"@openzeppelin/contracts/utils/cryptography/ECDSA.sol\":2860:2876  signature.length */\n      mload\n        /* \"@openzeppelin/contracts/utils/cryptography/ECDSA.sol\":2852:2877  bytes32(signature.length) */\n      0x00\n      shl\n        /* \"@openzeppelin/contracts/utils/cryptography/ECDSA.sol\":2795:2878  return (address(0), RecoverError.InvalidSignatureLength, bytes32(signature.length)) */\n      swap3\n      pop\n      swap3\n      pop\n      swap3\n      pop\n        /* \"@openzeppelin/contracts/utils/cryptography/ECDSA.sol\":2129:2895  function tryRecover(bytes32 hash, bytes memory signature) internal pure returns (address, RecoverError, bytes32) {... */\n    tag_44:\n      swap3\n      pop\n      swap3\n      pop\n      swap3\n      jump\t// out\n        /* \"@openzeppelin/contracts/utils/cryptography/ECDSA.sol\":5140:6670  function tryRecover(... */\n    tag_47:\n        /* \"@openzeppelin/contracts/utils/cryptography/ECDSA.sol\":5266:5273  address */\n      0x00\n        /* \"@openzeppelin/contracts/utils/cryptography/ECDSA.sol\":5275:5287  RecoverError */\n      dup1\n        /* \"@openzeppelin/contracts/utils/cryptography/ECDSA.sol\":5289:5296  bytes32 */\n      0x00\n        /* \"@openzeppelin/contracts/utils/cryptography/ECDSA.sol\":6199:6265  0x7FFFFFFFFFFFFFFFFFFFFFFFFFFFFFFF5D576E7357A4501DDFE92F46681B20A0 */\n      0x7fffffffffffffffffffffffffffffff5d576e7357a4501ddfe92f46681b20a0\n        /* \"@openzeppelin/contracts/utils/cryptography/ECDSA.sol\":6194:6195  s */\n      dup5\n        /* \"@openzeppelin/contracts/utils/cryptography/ECDSA.sol\":6186:6196  uint256(s) */\n      0x00\n      shr\n        /* \"@openzeppelin/contracts/utils/cryptography/ECDSA.sol\":6186:6265  uint256(s) > 0x7FFFFFFFFFFFFFFFFFFFFFFFFFFFFFFF5D576E7357A4501DDFE92F46681B20A0 */\n      gt\n        /* \"@openzeppelin/contracts/utils/cryptography/ECDSA.sol\":6182:6346  if (uint256(s) > 0x7FFFFFFFFFFFFFFFFFFFFFFFFFFFFFFF5D576E7357A4501DDFE92F46681B20A0) {... */\n      iszero\n      tag_50\n      jumpi\n        /* \"@openzeppelin/contracts/utils/cryptography/ECDSA.sol\":6297:6298  0 */\n      0x00\n        /* \"@openzeppelin/contracts/utils/cryptography/ECDSA.sol\":6301:6331  RecoverError.InvalidSignatureS */\n      0x03\n        /* \"@openzeppelin/contracts/utils/cryptography/ECDSA.sol\":6333:6334  s */\n      dup6\n        /* \"@openzeppelin/contracts/utils/cryptography/ECDSA.sol\":6281:6335  return (address(0), RecoverError.InvalidSignatureS, s) */\n      swap3\n      pop\n      swap3\n      pop\n      swap3\n      pop\n      jump(tag_49)\n        /* \"@openzeppelin/contracts/utils/cryptography/ECDSA.sol\":6182:6346  if (uint256(s) > 0x7FFFFFFFFFFFFFFFFFFFFFFFFFFFFFFF5D576E7357A4501DDFE92F46681B20A0) {... */\n    tag_50:\n        /* \"@openzeppelin/contracts/utils/cryptography/ECDSA.sol\":6440:6454  address signer */\n      0x00\n        /* \"@openzeppelin/contracts/utils/cryptography/ECDSA.sol\":6457:6481  ecrecover(hash, v, r, s) */\n      0x01\n        /* \"@openzeppelin/contracts/utils/cryptography/ECDSA.sol\":6467:6471  hash */\n      dup9\n        /* \"@openzeppelin/contracts/utils/cryptography/ECDSA.sol\":6473:6474  v */\n      dup9\n        /* \"@openzeppelin/contracts/utils/cryptography/ECDSA.sol\":6476:6477  r */\n      dup9\n        /* \"@openzeppelin/contracts/utils/cryptography/ECDSA.sol\":6479:6480  s */\n      dup9\n        /* \"@openzeppelin/contracts/utils/cryptography/ECDSA.sol\":6457:6481  ecrecover(hash, v, r, s) */\n      mload(0x40)\n      0x00\n      dup2\n      mstore\n      0x20\n      add\n      0x40\n      mstore\n      mload(0x40)\n      tag_51\n      swap5\n      swap4\n      swap3\n      swap2\n      swap1\n      tag_52\n      jump\t// in\n    tag_51:\n      0x20\n      mload(0x40)\n      0x20\n      dup2\n      sub\n      swap1\n      dup1\n      dup5\n      sub\n      swap1\n      dup6\n      gas\n      staticcall\n      iszero\n      dup1\n      iszero\n      tag_54\n      jumpi\n      returndatasize\n      0x00\n      dup1\n      returndatacopy\n      revert(0x00, returndatasize)\n    tag_54:\n      pop\n      pop\n      pop\n      mload(sub(mload(0x40), 0x20))\n        /* \"@openzeppelin/contracts/utils/cryptography/ECDSA.sol\":6440:6481  address signer = ecrecover(hash, v, r, s) */\n      swap1\n      pop\n        /* \"@openzeppelin/contracts/utils/cryptography/ECDSA.sol\":6513:6514  0 */\n      0x00\n        /* \"@openzeppelin/contracts/utils/cryptography/ECDSA.sol\":6495:6515  signer == address(0) */\n      0xffffffffffffffffffffffffffffffffffffffff\n      and\n        /* \"@openzeppelin/contracts/utils/cryptography/ECDSA.sol\":6495:6501  signer */\n      dup2\n        /* \"@openzeppelin/contracts/utils/cryptography/ECDSA.sol\":6495:6515  signer == address(0) */\n      0xffffffffffffffffffffffffffffffffffffffff\n      and\n      sub\n        /* \"@openzeppelin/contracts/utils/cryptography/ECDSA.sol\":6491:6604  if (signer == address(0)) {... */\n      tag_55\n      jumpi\n        /* \"@openzeppelin/contracts/utils/cryptography/ECDSA.sol\":6547:6548  0 */\n      0x00\n        /* \"@openzeppelin/contracts/utils/cryptography/ECDSA.sol\":6551:6580  RecoverError.InvalidSignature */\n      0x01\n        /* \"@openzeppelin/contracts/utils/cryptography/ECDSA.sol\":6590:6591  0 */\n      0x00\n        /* \"@openzeppelin/contracts/utils/cryptography/ECDSA.sol\":6582:6592  bytes32(0) */\n      dup1\n      shl\n        /* \"@openzeppelin/contracts/utils/cryptography/ECDSA.sol\":6531:6593  return (address(0), RecoverError.InvalidSignature, bytes32(0)) */\n      swap4\n      pop\n      swap4\n      pop\n      swap4\n      pop\n      pop\n      jump(tag_49)\n        /* \"@openzeppelin/contracts/utils/cryptography/ECDSA.sol\":6491:6604  if (signer == address(0)) {... */\n    tag_55:\n        /* \"@openzeppelin/contracts/utils/cryptography/ECDSA.sol\":6622:6628  signer */\n      dup1\n        /* \"@openzeppelin/contracts/utils/cryptography/ECDSA.sol\":6630:6650  RecoverError.NoError */\n      0x00\n        /* \"@openzeppelin/contracts/utils/cryptography/ECDSA.sol\":6660:6661  0 */\n      dup1\n        /* \"@openzeppelin/contracts/utils/cryptography/ECDSA.sol\":6652:6662  bytes32(0) */\n      0x00\n      shl\n        /* \"@openzeppelin/contracts/utils/cryptography/ECDSA.sol\":6614:6663  return (signer, RecoverError.NoError, bytes32(0)) */\n      swap4\n      pop\n      swap4\n      pop\n      swap4\n      pop\n      pop\n        /* \"@openzeppelin/contracts/utils/cryptography/ECDSA.sol\":5140:6670  function tryRecover(... */\n    tag_49:\n      swap5\n      pop\n      swap5\n      pop\n      swap5\n      swap2\n      pop\n      pop\n      jump\t// out\n        /* \"#utility.yul\":7:82   */\n    tag_56:\n        /* \"#utility.yul\":40:46   */\n      0x00\n        /* \"#utility.yul\":73:75   */\n      0x40\n        /* \"#utility.yul\":67:76   */\n      mload\n        /* \"#utility.yul\":57:76   */\n      swap1\n      pop\n        /* \"#utility.yul\":7:82   */\n      swap1\n      jump\t// out\n        /* \"#utility.yul\":88:205   */\n    tag_57:\n        /* \"#utility.yul\":197:198   */\n      0x00\n        /* \"#utility.yul\":194:195   */\n      dup1\n        /* \"#utility.yul\":187:199   */\n      revert\n        /* \"#utility.yul\":211:328   */\n    tag_58:\n        /* \"#utility.yul\":320:321   */\n      0x00\n        /* \"#utility.yul\":317:318   */\n      dup1\n        /* \"#utility.yul\":310:322   */\n      revert\n        /* \"#utility.yul\":334:460   */\n    tag_59:\n        /* \"#utility.yul\":371:378   */\n      0x00\n        /* \"#utility.yul\":411:453   */\n      0xffffffffffffffffffffffffffffffffffffffff\n        /* \"#utility.yul\":404:409   */\n      dup3\n        /* \"#utility.yul\":400:454   */\n      and\n        /* \"#utility.yul\":389:454   */\n      swap1\n      pop\n        /* \"#utility.yul\":334:460   */\n      swap2\n      swap1\n      pop\n      jump\t// out\n        /* \"#utility.yul\":466:562   */\n    tag_60:\n        /* \"#utility.yul\":503:510   */\n      0x00\n        /* \"#utility.yul\":532:556   */\n      tag_94\n        /* \"#utility.yul\":550:555   */\n      dup3\n        /* \"#utility.yul\":532:556   */\n      tag_59\n      jump\t// in\n    tag_94:\n        /* \"#utility.yul\":521:556   */\n      swap1\n      pop\n        /* \"#utility.yul\":466:562   */\n      swap2\n      swap1\n      pop\n      jump\t// out\n        /* \"#utility.yul\":568:690   */\n    tag_61:\n        /* \"#utility.yul\":641:665   */\n      tag_96\n        /* \"#utility.yul\":659:664   */\n      dup2\n        /* \"#utility.yul\":641:665   */\n      tag_60\n      jump\t// in\n    tag_96:\n        /* \"#utility.yul\":634:639   */\n      dup2\n        /* \"#utility.yul\":631:666   */\n      eq\n        /* \"#utility.yul\":621:684   */\n      tag_97\n      jumpi\n        /* \"#utility.yul\":680:681   */\n      0x00\n        /* \"#utility.yul\":677:678   */\n      dup1\n        /* \"#utility.yul\":670:682   */\n      revert\n        /* \"#utility.yul\":621:684   */\n    tag_97:\n        /* \"#utility.yul\":568:690   */\n      pop\n      jump\t// out\n        /* \"#utility.yul\":696:835   */\n    tag_62:\n        /* \"#utility.yul\":742:747   */\n      0x00\n        /* \"#utility.yul\":780:786   */\n      dup2\n        /* \"#utility.yul\":767:787   */\n      calldataload\n        /* \"#utility.yul\":758:787   */\n      swap1\n      pop\n        /* \"#utility.yul\":796:829   */\n      tag_99\n        /* \"#utility.yul\":823:828   */\n      dup2\n        /* \"#utility.yul\":796:829   */\n      tag_61\n      jump\t// in\n    tag_99:\n        /* \"#utility.yul\":696:835   */\n      swap3\n      swap2\n      pop\n      pop\n      jump\t// out\n        /* \"#utility.yul\":841:918   */\n    tag_63:\n        /* \"#utility.yul\":878:885   */\n      0x00\n        /* \"#utility.yul\":907:912   */\n      dup2\n        /* \"#utility.yul\":896:912   */\n      swap1\n      pop\n        /* \"#utility.yul\":841:918   */\n      swap2\n      swap1\n      pop\n      jump\t// out\n        /* \"#utility.yul\":924:1046   */\n    tag_64:\n        /* \"#utility.yul\":997:1021   */\n      tag_102\n        /* \"#utility.yul\":1015:1020   */\n      dup2\n        /* \"#utility.yul\":997:1021   */\n      tag_63\n      jump\t// in\n    tag_102:\n        /* \"#utility.yul\":990:995   */\n      dup2\n        /* \"#utility.yul\":987:1022   */\n      eq\n        /* \"#utility.yul\":977:1040   */\n      tag_103\n      jumpi\n        /* \"#utility.yul\":1036:1037   */\n      0x00\n        /* \"#utility.yul\":1033:1034   */\n      dup1\n        /* \"#utility.yul\":1026:1038   */\n      revert\n        /* \"#utility.yul\":977:1040   */\n    tag_103:\n        /* \"#utility.yul\":924:1046   */\n      pop\n      jump\t// out\n        /* \"#utility.yul\":1052:1191   */\n    tag_65:\n        /* \"#utility.yul\":1098:1103   */\n      0x00\n        /* \"#utility.yul\":1136:1142   */\n      dup2\n        /* \"#utility.yul\":1123:1143   */\n      calldataload\n        /* \"#utility.yul\":1114:1143   */\n      swap1\n      pop\n        /* \"#utility.yul\":1152:1185   */\n      tag_105\n        /* \"#utility.yul\":1179:1184   */\n      dup2\n        /* \"#utility.yul\":1152:1185   */\n      tag_64\n      jump\t// in\n    tag_105:\n        /* \"#utility.yul\":1052:1191   */\n      swap3\n      swap2\n      pop\n      pop\n      jump\t// out\n        /* \"#utility.yul\":1197:1314   */\n    tag_66:\n        /* \"#utility.yul\":1306:1307   */\n      0x00\n        /* \"#utility.yul\":1303:1304   */\n      dup1\n        /* \"#utility.yul\":1296:1308   */\n      revert\n        /* \"#utility.yul\":1320:1437   */\n    tag_67:\n        /* \"#utility.yul\":1429:1430   */\n      0x00\n        /* \"#utility.yul\":1426:1427   */\n      dup1\n        /* \"#utility.yul\":1419:1431   */\n      revert\n        /* \"#utility.yul\":1443:1545   */\n    tag_68:\n        /* \"#utility.yul\":1484:1490   */\n      0x00\n        /* \"#utility.yul\":1535:1537   */\n      0x1f\n        /* \"#utility.yul\":1531:1538   */\n      not\n        /* \"#utility.yul\":1526:1528   */\n      0x1f\n        /* \"#utility.yul\":1519:1524   */\n      dup4\n        /* \"#utility.yul\":1515:1529   */\n      add\n        /* \"#utility.yul\":1511:1539   */\n      and\n        /* \"#utility.yul\":1501:1539   */\n      swap1\n      pop\n        /* \"#utility.yul\":1443:1545   */\n      swap2\n      swap1\n      pop\n      jump\t// out\n        /* \"#utility.yul\":1551:1731   */\n    tag_69:\n        /* \"#utility.yul\":1599:1676   */\n      0x4e487b7100000000000000000000000000000000000000000000000000000000\n        /* \"#utility.yul\":1596:1597   */\n      0x00\n        /* \"#utility.yul\":1589:1677   */\n      mstore\n        /* \"#utility.yul\":1696:1700   */\n      0x41\n        /* \"#utility.yul\":1693:1694   */\n      0x04\n        /* \"#utility.yul\":1686:1701   */\n      mstore\n        /* \"#utility.yul\":1720:1724   */\n      0x24\n        /* \"#utility.yul\":1717:1718   */\n      0x00\n        /* \"#utility.yul\":1710:1725   */\n      revert\n        /* \"#utility.yul\":1737:2018   */\n    tag_70:\n        /* \"#utility.yul\":1820:1847   */\n      tag_111\n        /* \"#utility.yul\":1842:1846   */\n      dup3\n        /* \"#utility.yul\":1820:1847   */\n      tag_68\n      jump\t// in\n    tag_111:\n        /* \"#utility.yul\":1812:1818   */\n      dup2\n        /* \"#utility.yul\":1808:1848   */\n      add\n        /* \"#utility.yul\":1950:1956   */\n      dup2\n        /* \"#utility.yul\":1938:1948   */\n      dup2\n        /* \"#utility.yul\":1935:1957   */\n      lt\n        /* \"#utility.yul\":1914:1932   */\n      0xffffffffffffffff\n        /* \"#utility.yul\":1902:1912   */\n      dup3\n        /* \"#utility.yul\":1899:1933   */\n      gt\n        /* \"#utility.yul\":1896:1958   */\n      or\n        /* \"#utility.yul\":1893:1981   */\n      iszero\n      tag_112\n      jumpi\n        /* \"#utility.yul\":1961:1979   */\n      tag_113\n      tag_69\n      jump\t// in\n    tag_113:\n        /* \"#utility.yul\":1893:1981   */\n    tag_112:\n        /* \"#utility.yul\":2001:2011   */\n      dup1\n        /* \"#utility.yul\":1997:1999   */\n      0x40\n        /* \"#utility.yul\":1990:2012   */\n      mstore\n        /* \"#utility.yul\":1780:2018   */\n      pop\n        /* \"#utility.yul\":1737:2018   */\n      pop\n      pop\n      jump\t// out\n        /* \"#utility.yul\":2024:2153   */\n    tag_71:\n        /* \"#utility.yul\":2058:2064   */\n      0x00\n        /* \"#utility.yul\":2085:2105   */\n      tag_115\n      tag_56\n      jump\t// in\n    tag_115:\n        /* \"#utility.yul\":2075:2105   */\n      swap1\n      pop\n        /* \"#utility.yul\":2114:2147   */\n      tag_116\n        /* \"#utility.yul\":2142:2146   */\n      dup3\n        /* \"#utility.yul\":2134:2140   */\n      dup3\n        /* \"#utility.yul\":2114:2147   */\n      tag_70\n      jump\t// in\n    tag_116:\n        /* \"#utility.yul\":2024:2153   */\n      swap2\n      swap1\n      pop\n      jump\t// out\n        /* \"#utility.yul\":2159:2466   */\n    tag_72:\n        /* \"#utility.yul\":2220:2224   */\n      0x00\n        /* \"#utility.yul\":2310:2328   */\n      0xffffffffffffffff\n        /* \"#utility.yul\":2302:2308   */\n      dup3\n        /* \"#utility.yul\":2299:2329   */\n      gt\n        /* \"#utility.yul\":2296:2352   */\n      iszero\n      tag_118\n      jumpi\n        /* \"#utility.yul\":2332:2350   */\n      tag_119\n      tag_69\n      jump\t// in\n    tag_119:\n        /* \"#utility.yul\":2296:2352   */\n    tag_118:\n        /* \"#utility.yul\":2370:2399   */\n      tag_120\n        /* \"#utility.yul\":2392:2398   */\n      dup3\n        /* \"#utility.yul\":2370:2399   */\n      tag_68\n      jump\t// in\n    tag_120:\n        /* \"#utility.yul\":2362:2399   */\n      swap1\n      pop\n        /* \"#utility.yul\":2454:2458   */\n      0x20\n        /* \"#utility.yul\":2448:2452   */\n      dup2\n        /* \"#utility.yul\":2444:2459   */\n      add\n        /* \"#utility.yul\":2436:2459   */\n      swap1\n      pop\n        /* \"#utility.yul\":2159:2466   */\n      swap2\n      swap1\n      pop\n      jump\t// out\n        /* \"#utility.yul\":2472:2618   */\n    tag_73:\n        /* \"#utility.yul\":2569:2575   */\n      dup3\n        /* \"#utility.yul\":2564:2567   */\n      dup2\n        /* \"#utility.yul\":2559:2562   */\n      dup4\n        /* \"#utility.yul\":2546:2576   */\n      calldatacopy\n        /* \"#utility.yul\":2610:2611   */\n      0x00\n        /* \"#utility.yul\":2601:2607   */\n      dup4\n        /* \"#utility.yul\":2596:2599   */\n      dup4\n        /* \"#utility.yul\":2592:2608   */\n      add\n        /* \"#utility.yul\":2585:2612   */\n      mstore\n        /* \"#utility.yul\":2472:2618   */\n      pop\n      pop\n      pop\n      jump\t// out\n        /* \"#utility.yul\":2624:3047   */\n    tag_74:\n        /* \"#utility.yul\":2701:2706   */\n      0x00\n        /* \"#utility.yul\":2726:2791   */\n      tag_123\n        /* \"#utility.yul\":2742:2790   */\n      tag_124\n        /* \"#utility.yul\":2783:2789   */\n      dup5\n        /* \"#utility.yul\":2742:2790   */\n      tag_72\n      jump\t// in\n    tag_124:\n        /* \"#utility.yul\":2726:2791   */\n      tag_71\n      jump\t// in\n    tag_123:\n        /* \"#utility.yul\":2717:2791   */\n      swap1\n      pop\n        /* \"#utility.yul\":2814:2820   */\n      dup3\n        /* \"#utility.yul\":2807:2812   */\n      dup2\n        /* \"#utility.yul\":2800:2821   */\n      mstore\n        /* \"#utility.yul\":2852:2856   */\n      0x20\n        /* \"#utility.yul\":2845:2850   */\n      dup2\n        /* \"#utility.yul\":2841:2857   */\n      add\n        /* \"#utility.yul\":2890:2893   */\n      dup5\n        /* \"#utility.yul\":2881:2887   */\n      dup5\n        /* \"#utility.yul\":2876:2879   */\n      dup5\n        /* \"#utility.yul\":2872:2888   */\n      add\n        /* \"#utility.yul\":2869:2894   */\n      gt\n        /* \"#utility.yul\":2866:2978   */\n      iszero\n      tag_125\n      jumpi\n        /* \"#utility.yul\":2897:2976   */\n      tag_126\n      tag_67\n      jump\t// in\n    tag_126:\n        /* \"#utility.yul\":2866:2978   */\n    tag_125:\n        /* \"#utility.yul\":2987:3041   */\n      tag_127\n        /* \"#utility.yul\":3034:3040   */\n      dup5\n        /* \"#utility.yul\":3029:3032   */\n      dup3\n        /* \"#utility.yul\":3024:3027   */\n      dup6\n        /* \"#utility.yul\":2987:3041   */\n      tag_73\n      jump\t// in\n    tag_127:\n        /* \"#utility.yul\":2707:3047   */\n      pop\n        /* \"#utility.yul\":2624:3047   */\n      swap4\n      swap3\n      pop\n      pop\n      pop\n      jump\t// out\n        /* \"#utility.yul\":3066:3404   */\n    tag_75:\n        /* \"#utility.yul\":3121:3126   */\n      0x00\n        /* \"#utility.yul\":3170:3173   */\n      dup3\n        /* \"#utility.yul\":3163:3167   */\n      0x1f\n        /* \"#utility.yul\":3155:3161   */\n      dup4\n        /* \"#utility.yul\":3151:3168   */\n      add\n        /* \"#utility.yul\":3147:3174   */\n      slt\n        /* \"#utility.yul\":3137:3259   */\n      tag_129\n      jumpi\n        /* \"#utility.yul\":3178:3257   */\n      tag_130\n      tag_66\n      jump\t// in\n    tag_130:\n        /* \"#utility.yul\":3137:3259   */\n    tag_129:\n        /* \"#utility.yul\":3295:3301   */\n      dup2\n        /* \"#utility.yul\":3282:3302   */\n      calldataload\n        /* \"#utility.yul\":3320:3398   */\n      tag_131\n        /* \"#utility.yul\":3394:3397   */\n      dup5\n        /* \"#utility.yul\":3386:3392   */\n      dup3\n        /* \"#utility.yul\":3379:3383   */\n      0x20\n        /* \"#utility.yul\":3371:3377   */\n      dup7\n        /* \"#utility.yul\":3367:3384   */\n      add\n        /* \"#utility.yul\":3320:3398   */\n      tag_74\n      jump\t// in\n    tag_131:\n        /* \"#utility.yul\":3311:3398   */\n      swap2\n      pop\n        /* \"#utility.yul\":3127:3404   */\n      pop\n        /* \"#utility.yul\":3066:3404   */\n      swap3\n      swap2\n      pop\n      pop\n      jump\t// out\n        /* \"#utility.yul\":3410:4207   */\n    tag_7:\n        /* \"#utility.yul\":3496:3502   */\n      0x00\n        /* \"#utility.yul\":3504:3510   */\n      dup1\n        /* \"#utility.yul\":3512:3518   */\n      0x00\n        /* \"#utility.yul\":3561:3563   */\n      0x60\n        /* \"#utility.yul\":3549:3558   */\n      dup5\n        /* \"#utility.yul\":3540:3547   */\n      dup7\n        /* \"#utility.yul\":3536:3559   */\n      sub\n        /* \"#utility.yul\":3532:3564   */\n      slt\n        /* \"#utility.yul\":3529:3648   */\n      iszero\n      tag_133\n      jumpi\n        /* \"#utility.yul\":3567:3646   */\n      tag_134\n      tag_57\n      jump\t// in\n    tag_134:\n        /* \"#utility.yul\":3529:3648   */\n    tag_133:\n        /* \"#utility.yul\":3687:3688   */\n      0x00\n        /* \"#utility.yul\":3712:3765   */\n      tag_135\n        /* \"#utility.yul\":3757:3764   */\n      dup7\n        /* \"#utility.yul\":3748:3754   */\n      dup3\n        /* \"#utility.yul\":3737:3746   */\n      dup8\n        /* \"#utility.yul\":3733:3755   */\n      add\n        /* \"#utility.yul\":3712:3765   */\n      tag_62\n      jump\t// in\n    tag_135:\n        /* \"#utility.yul\":3702:3765   */\n      swap4\n      pop\n        /* \"#utility.yul\":3658:3775   */\n      pop\n        /* \"#utility.yul\":3814:3816   */\n      0x20\n        /* \"#utility.yul\":3840:3893   */\n      tag_136\n        /* \"#utility.yul\":3885:3892   */\n      dup7\n        /* \"#utility.yul\":3876:3882   */\n      dup3\n        /* \"#utility.yul\":3865:3874   */\n      dup8\n        /* \"#utility.yul\":3861:3883   */\n      add\n        /* \"#utility.yul\":3840:3893   */\n      tag_65\n      jump\t// in\n    tag_136:\n        /* \"#utility.yul\":3830:3893   */\n      swap3\n      pop\n        /* \"#utility.yul\":3785:3903   */\n      pop\n        /* \"#utility.yul\":3970:3972   */\n      0x40\n        /* \"#utility.yul\":3959:3968   */\n      dup5\n        /* \"#utility.yul\":3955:3973   */\n      add\n        /* \"#utility.yul\":3942:3974   */\n      calldataload\n        /* \"#utility.yul\":4001:4019   */\n      0xffffffffffffffff\n        /* \"#utility.yul\":3993:3999   */\n      dup2\n        /* \"#utility.yul\":3990:4020   */\n      gt\n        /* \"#utility.yul\":3987:4104   */\n      iszero\n      tag_137\n      jumpi\n        /* \"#utility.yul\":4023:4102   */\n      tag_138\n      tag_58\n      jump\t// in\n    tag_138:\n        /* \"#utility.yul\":3987:4104   */\n    tag_137:\n        /* \"#utility.yul\":4128:4190   */\n      tag_139\n        /* \"#utility.yul\":4182:4189   */\n      dup7\n        /* \"#utility.yul\":4173:4179   */\n      dup3\n        /* \"#utility.yul\":4162:4171   */\n      dup8\n        /* \"#utility.yul\":4158:4180   */\n      add\n        /* \"#utility.yul\":4128:4190   */\n      tag_75\n      jump\t// in\n    tag_139:\n        /* \"#utility.yul\":4118:4190   */\n      swap2\n      pop\n        /* \"#utility.yul\":3913:4200   */\n      pop\n        /* \"#utility.yul\":3410:4207   */\n      swap3\n      pop\n      swap3\n      pop\n      swap3\n      jump\t// out\n        /* \"#utility.yul\":4213:4303   */\n    tag_76:\n        /* \"#utility.yul\":4247:4254   */\n      0x00\n        /* \"#utility.yul\":4290:4295   */\n      dup2\n        /* \"#utility.yul\":4283:4296   */\n      iszero\n        /* \"#utility.yul\":4276:4297   */\n      iszero\n        /* \"#utility.yul\":4265:4297   */\n      swap1\n      pop\n        /* \"#utility.yul\":4213:4303   */\n      swap2\n      swap1\n      pop\n      jump\t// out\n        /* \"#utility.yul\":4309:4418   */\n    tag_77:\n        /* \"#utility.yul\":4390:4411   */\n      tag_142\n        /* \"#utility.yul\":4405:4410   */\n      dup2\n        /* \"#utility.yul\":4390:4411   */\n      tag_76\n      jump\t// in\n    tag_142:\n        /* \"#utility.yul\":4385:4388   */\n      dup3\n        /* \"#utility.yul\":4378:4412   */\n      mstore\n        /* \"#utility.yul\":4309:4418   */\n      pop\n      pop\n      jump\t// out\n        /* \"#utility.yul\":4424:4634   */\n    tag_10:\n        /* \"#utility.yul\":4511:4515   */\n      0x00\n        /* \"#utility.yul\":4549:4551   */\n      0x20\n        /* \"#utility.yul\":4538:4547   */\n      dup3\n        /* \"#utility.yul\":4534:4552   */\n      add\n        /* \"#utility.yul\":4526:4552   */\n      swap1\n      pop\n        /* \"#utility.yul\":4562:4627   */\n      tag_144\n        /* \"#utility.yul\":4624:4625   */\n      0x00\n        /* \"#utility.yul\":4613:4622   */\n      dup4\n        /* \"#utility.yul\":4609:4626   */\n      add\n        /* \"#utility.yul\":4600:4606   */\n      dup5\n        /* \"#utility.yul\":4562:4627   */\n      tag_77\n      jump\t// in\n    tag_144:\n        /* \"#utility.yul\":4424:4634   */\n      swap3\n      swap2\n      pop\n      pop\n      jump\t// out\n        /* \"#utility.yul\":4640:4758   */\n    tag_78:\n        /* \"#utility.yul\":4727:4751   */\n      tag_146\n        /* \"#utility.yul\":4745:4750   */\n      dup2\n        /* \"#utility.yul\":4727:4751   */\n      tag_63\n      jump\t// in\n    tag_146:\n        /* \"#utility.yul\":4722:4725   */\n      dup3\n        /* \"#utility.yul\":4715:4752   */\n      mstore\n        /* \"#utility.yul\":4640:4758   */\n      pop\n      pop\n      jump\t// out\n        /* \"#utility.yul\":4764:4862   */\n    tag_79:\n        /* \"#utility.yul\":4815:4821   */\n      0x00\n        /* \"#utility.yul\":4849:4854   */\n      dup2\n        /* \"#utility.yul\":4843:4855   */\n      mload\n        /* \"#utility.yul\":4833:4855   */\n      swap1\n      pop\n        /* \"#utility.yul\":4764:4862   */\n      swap2\n      swap1\n      pop\n      jump\t// out\n        /* \"#utility.yul\":4868:5036   */\n    tag_80:\n        /* \"#utility.yul\":4951:4962   */\n      0x00\n        /* \"#utility.yul\":4985:4991   */\n      dup3\n        /* \"#utility.yul\":4980:4983   */\n      dup3\n        /* \"#utility.yul\":4973:4992   */\n      mstore\n        /* \"#utility.yul\":5025:5029   */\n      0x20\n        /* \"#utility.yul\":5020:5023   */\n      dup3\n        /* \"#utility.yul\":5016:5030   */\n      add\n        /* \"#utility.yul\":5001:5030   */\n      swap1\n      pop\n        /* \"#utility.yul\":4868:5036   */\n      swap3\n      swap2\n      pop\n      pop\n      jump\t// out\n        /* \"#utility.yul\":5042:5288   */\n    tag_81:\n        /* \"#utility.yul\":5123:5124   */\n      0x00\n        /* \"#utility.yul\":5133:5246   */\n    tag_150:\n        /* \"#utility.yul\":5147:5153   */\n      dup4\n        /* \"#utility.yul\":5144:5145   */\n      dup2\n        /* \"#utility.yul\":5141:5154   */\n      lt\n        /* \"#utility.yul\":5133:5246   */\n      iszero\n      tag_152\n      jumpi\n        /* \"#utility.yul\":5232:5233   */\n      dup1\n        /* \"#utility.yul\":5227:5230   */\n      dup3\n        /* \"#utility.yul\":5223:5234   */\n      add\n        /* \"#utility.yul\":5217:5235   */\n      mload\n        /* \"#utility.yul\":5213:5214   */\n      dup2\n        /* \"#utility.yul\":5208:5211   */\n      dup5\n        /* \"#utility.yul\":5204:5215   */\n      add\n        /* \"#utility.yul\":5197:5236   */\n      mstore\n        /* \"#utility.yul\":5169:5171   */\n      0x20\n        /* \"#utility.yul\":5166:5167   */\n      dup2\n        /* \"#utility.yul\":5162:5172   */\n      add\n        /* \"#utility.yul\":5157:5172   */\n      swap1\n      pop\n        /* \"#utility.yul\":5133:5246   */\n      jump(tag_150)\n    tag_152:\n        /* \"#utility.yul\":5280:5281   */\n      0x00\n        /* \"#utility.yul\":5271:5277   */\n      dup5\n        /* \"#utility.yul\":5266:5269   */\n      dup5\n        /* \"#utility.yul\":5262:5278   */\n      add\n        /* \"#utility.yul\":5255:5282   */\n      mstore\n        /* \"#utility.yul\":5104:5288   */\n      pop\n        /* \"#utility.yul\":5042:5288   */\n      pop\n      pop\n      pop\n      jump\t// out\n        /* \"#utility.yul\":5294:5667   */\n    tag_82:\n        /* \"#utility.yul\":5380:5383   */\n      0x00\n        /* \"#utility.yul\":5408:5446   */\n      tag_154\n        /* \"#utility.yul\":5440:5445   */\n      dup3\n        /* \"#utility.yul\":5408:5446   */\n      tag_79\n      jump\t// in\n    tag_154:\n        /* \"#utility.yul\":5462:5532   */\n      tag_155\n        /* \"#utility.yul\":5525:5531   */\n      dup2\n        /* \"#utility.yul\":5520:5523   */\n      dup6\n        /* \"#utility.yul\":5462:5532   */\n      tag_80\n      jump\t// in\n    tag_155:\n        /* \"#utility.yul\":5455:5532   */\n      swap4\n      pop\n        /* \"#utility.yul\":5541:5606   */\n      tag_156\n        /* \"#utility.yul\":5599:5605   */\n      dup2\n        /* \"#utility.yul\":5594:5597   */\n      dup6\n        /* \"#utility.yul\":5587:5591   */\n      0x20\n        /* \"#utility.yul\":5580:5585   */\n      dup7\n        /* \"#utility.yul\":5576:5592   */\n      add\n        /* \"#utility.yul\":5541:5606   */\n      tag_81\n      jump\t// in\n    tag_156:\n        /* \"#utility.yul\":5631:5660   */\n      tag_157\n        /* \"#utility.yul\":5653:5659   */\n      dup2\n        /* \"#utility.yul\":5631:5660   */\n      tag_68\n      jump\t// in\n    tag_157:\n        /* \"#utility.yul\":5626:5629   */\n      dup5\n        /* \"#utility.yul\":5622:5661   */\n      add\n        /* \"#utility.yul\":5615:5661   */\n      swap2\n      pop\n        /* \"#utility.yul\":5384:5667   */\n      pop\n        /* \"#utility.yul\":5294:5667   */\n      swap3\n      swap2\n      pop\n      pop\n      jump\t// out\n        /* \"#utility.yul\":5673:6092   */\n    tag_23:\n        /* \"#utility.yul\":5812:5816   */\n      0x00\n        /* \"#utility.yul\":5850:5852   */\n      0x40\n        /* \"#utility.yul\":5839:5848   */\n      dup3\n        /* \"#utility.yul\":5835:5853   */\n      add\n        /* \"#utility.yul\":5827:5853   */\n      swap1\n      pop\n        /* \"#utility.yul\":5863:5934   */\n      tag_159\n        /* \"#utility.yul\":5931:5932   */\n      0x00\n        /* \"#utility.yul\":5920:5929   */\n      dup4\n        /* \"#utility.yul\":5916:5933   */\n      add\n        /* \"#utility.yul\":5907:5913   */\n      dup6\n        /* \"#utility.yul\":5863:5934   */\n      tag_78\n      jump\t// in\n    tag_159:\n        /* \"#utility.yul\":5981:5990   */\n      dup2\n        /* \"#utility.yul\":5975:5979   */\n      dup2\n        /* \"#utility.yul\":5971:5991   */\n      sub\n        /* \"#utility.yul\":5966:5968   */\n      0x20\n        /* \"#utility.yul\":5955:5964   */\n      dup4\n        /* \"#utility.yul\":5951:5969   */\n      add\n        /* \"#utility.yul\":5944:5992   */\n      mstore\n        /* \"#utility.yul\":6009:6085   */\n      tag_160\n        /* \"#utility.yul\":6080:6084   */\n      dup2\n        /* \"#utility.yul\":6071:6077   */\n      dup5\n        /* \"#utility.yul\":6009:6085   */\n      tag_82\n      jump\t// in\n    tag_160:\n        /* \"#utility.yul\":6001:6085   */\n      swap1\n      pop\n        /* \"#utility.yul\":5673:6092   */\n      swap4\n      swap3\n      pop\n      pop\n      pop\n      jump\t// out\n        /* \"#utility.yul\":6098:6245   */\n    tag_83:\n        /* \"#utility.yul\":6199:6210   */\n      0x00\n        /* \"#utility.yul\":6236:6239   */\n      dup2\n        /* \"#utility.yul\":6221:6239   */\n      swap1\n      pop\n        /* \"#utility.yul\":6098:6245   */\n      swap3\n      swap2\n      pop\n      pop\n      jump\t// out\n        /* \"#utility.yul\":6251:6637   */\n    tag_84:\n        /* \"#utility.yul\":6355:6358   */\n      0x00\n        /* \"#utility.yul\":6383:6421   */\n      tag_163\n        /* \"#utility.yul\":6415:6420   */\n      dup3\n        /* \"#utility.yul\":6383:6421   */\n      tag_79\n      jump\t// in\n    tag_163:\n        /* \"#utility.yul\":6437:6525   */\n      tag_164\n        /* \"#utility.yul\":6518:6524   */\n      dup2\n        /* \"#utility.yul\":6513:6516   */\n      dup6\n        /* \"#utility.yul\":6437:6525   */\n      tag_83\n      jump\t// in\n    tag_164:\n        /* \"#utility.yul\":6430:6525   */\n      swap4\n      pop\n        /* \"#utility.yul\":6534:6599   */\n      tag_165\n        /* \"#utility.yul\":6592:6598   */\n      dup2\n        /* \"#utility.yul\":6587:6590   */\n      dup6\n        /* \"#utility.yul\":6580:6584   */\n      0x20\n        /* \"#utility.yul\":6573:6578   */\n      dup7\n        /* \"#utility.yul\":6569:6585   */\n      add\n        /* \"#utility.yul\":6534:6599   */\n      tag_81\n      jump\t// in\n    tag_165:\n        /* \"#utility.yul\":6624:6630   */\n      dup1\n        /* \"#utility.yul\":6619:6622   */\n      dup5\n        /* \"#utility.yul\":6615:6631   */\n      add\n        /* \"#utility.yul\":6608:6631   */\n      swap2\n      pop\n        /* \"#utility.yul\":6359:6637   */\n      pop\n        /* \"#utility.yul\":6251:6637   */\n      swap3\n      swap2\n      pop\n      pop\n      jump\t// out\n        /* \"#utility.yul\":6643:6914   */\n    tag_25:\n        /* \"#utility.yul\":6773:6776   */\n      0x00\n        /* \"#utility.yul\":6795:6888   */\n      tag_167\n        /* \"#utility.yul\":6884:6887   */\n      dup3\n        /* \"#utility.yul\":6875:6881   */\n      dup5\n        /* \"#utility.yul\":6795:6888   */\n      tag_84\n      jump\t// in\n    tag_167:\n        /* \"#utility.yul\":6788:6888   */\n      swap2\n      pop\n        /* \"#utility.yul\":6905:6908   */\n      dup2\n        /* \"#utility.yul\":6898:6908   */\n      swap1\n      pop\n        /* \"#utility.yul\":6643:6914   */\n      swap3\n      swap2\n      pop\n      pop\n      jump\t// out\n        /* \"#utility.yul\":6920:7063   */\n    tag_85:\n        /* \"#utility.yul\":6977:6982   */\n      0x00\n        /* \"#utility.yul\":7008:7014   */\n      dup2\n        /* \"#utility.yul\":7002:7015   */\n      mload\n        /* \"#utility.yul\":6993:7015   */\n      swap1\n      pop\n        /* \"#utility.yul\":7024:7057   */\n      tag_169\n        /* \"#utility.yul\":7051:7056   */\n      dup2\n        /* \"#utility.yul\":7024:7057   */\n      tag_64\n      jump\t// in\n    tag_169:\n        /* \"#utility.yul\":6920:7063   */\n      swap3\n      swap2\n      pop\n      pop\n      jump\t// out\n        /* \"#utility.yul\":7069:7420   */\n    tag_32:\n        /* \"#utility.yul\":7139:7145   */\n      0x00\n        /* \"#utility.yul\":7188:7190   */\n      0x20\n        /* \"#utility.yul\":7176:7185   */\n      dup3\n        /* \"#utility.yul\":7167:7174   */\n      dup5\n        /* \"#utility.yul\":7163:7186   */\n      sub\n        /* \"#utility.yul\":7159:7191   */\n      slt\n        /* \"#utility.yul\":7156:7275   */\n      iszero\n      tag_171\n      jumpi\n        /* \"#utility.yul\":7194:7273   */\n      tag_172\n      tag_57\n      jump\t// in\n    tag_172:\n        /* \"#utility.yul\":7156:7275   */\n    tag_171:\n        /* \"#utility.yul\":7314:7315   */\n      0x00\n        /* \"#utility.yul\":7339:7403   */\n      tag_173\n        /* \"#utility.yul\":7395:7402   */\n      dup5\n        /* \"#utility.yul\":7386:7392   */\n      dup3\n        /* \"#utility.yul\":7375:7384   */\n      dup6\n        /* \"#utility.yul\":7371:7393   */\n      add\n        /* \"#utility.yul\":7339:7403   */\n      tag_85\n      jump\t// in\n    tag_173:\n        /* \"#utility.yul\":7329:7403   */\n      swap2\n      pop\n        /* \"#utility.yul\":7285:7413   */\n      pop\n        /* \"#utility.yul\":7069:7420   */\n      swap3\n      swap2\n      pop\n      pop\n      jump\t// out\n        /* \"#utility.yul\":7426:7606   */\n    tag_38:\n        /* \"#utility.yul\":7474:7551   */\n      0x4e487b7100000000000000000000000000000000000000000000000000000000\n        /* \"#utility.yul\":7471:7472   */\n      0x00\n        /* \"#utility.yul\":7464:7552   */\n      mstore\n        /* \"#utility.yul\":7571:7575   */\n      0x21\n        /* \"#utility.yul\":7568:7569   */\n      0x04\n        /* \"#utility.yul\":7561:7576   */\n      mstore\n        /* \"#utility.yul\":7595:7599   */\n      0x24\n        /* \"#utility.yul\":7592:7593   */\n      0x00\n        /* \"#utility.yul\":7585:7600   */\n      revert\n        /* \"#utility.yul\":7612:7698   */\n    tag_86:\n        /* \"#utility.yul\":7647:7654   */\n      0x00\n        /* \"#utility.yul\":7687:7691   */\n      0xff\n        /* \"#utility.yul\":7680:7685   */\n      dup3\n        /* \"#utility.yul\":7676:7692   */\n      and\n        /* \"#utility.yul\":7665:7692   */\n      swap1\n      pop\n        /* \"#utility.yul\":7612:7698   */\n      swap2\n      swap1\n      pop\n      jump\t// out\n        /* \"#utility.yul\":7704:7816   */\n    tag_87:\n        /* \"#utility.yul\":7787:7809   */\n      tag_177\n        /* \"#utility.yul\":7803:7808   */\n      dup2\n        /* \"#utility.yul\":7787:7809   */\n      tag_86\n      jump\t// in\n    tag_177:\n        /* \"#utility.yul\":7782:7785   */\n      dup3\n        /* \"#utility.yul\":7775:7810   */\n      mstore\n        /* \"#utility.yul\":7704:7816   */\n      pop\n      pop\n      jump\t// out\n        /* \"#utility.yul\":7822:8367   */\n    tag_52:\n        /* \"#utility.yul\":7995:7999   */\n      0x00\n        /* \"#utility.yul\":8033:8036   */\n      0x80\n        /* \"#utility.yul\":8022:8031   */\n      dup3\n        /* \"#utility.yul\":8018:8037   */\n      add\n        /* \"#utility.yul\":8010:8037   */\n      swap1\n      pop\n        /* \"#utility.yul\":8047:8118   */\n      tag_179\n        /* \"#utility.yul\":8115:8116   */\n      0x00\n        /* \"#utility.yul\":8104:8113   */\n      dup4\n        /* \"#utility.yul\":8100:8117   */\n      add\n        /* \"#utility.yul\":8091:8097   */\n      dup8\n        /* \"#utility.yul\":8047:8118   */\n      tag_78\n      jump\t// in\n    tag_179:\n        /* \"#utility.yul\":8128:8196   */\n      tag_180\n        /* \"#utility.yul\":8192:8194   */\n      0x20\n        /* \"#utility.yul\":8181:8190   */\n      dup4\n        /* \"#utility.yul\":8177:8195   */\n      add\n        /* \"#utility.yul\":8168:8174   */\n      dup7\n        /* \"#utility.yul\":8128:8196   */\n      tag_87\n      jump\t// in\n    tag_180:\n        /* \"#utility.yul\":8206:8278   */\n      tag_181\n        /* \"#utility.yul\":8274:8276   */\n      0x40\n        /* \"#utility.yul\":8263:8272   */\n      dup4\n        /* \"#utility.yul\":8259:8277   */\n      add\n        /* \"#utility.yul\":8250:8256   */\n      dup6\n        /* \"#utility.yul\":8206:8278   */\n      tag_78\n      jump\t// in\n    tag_181:\n        /* \"#utility.yul\":8288:8360   */\n      tag_182\n        /* \"#utility.yul\":8356:8358   */\n      0x60\n        /* \"#utility.yul\":8345:8354   */\n      dup4\n        /* \"#utility.yul\":8341:8359   */\n      add\n        /* \"#utility.yul\":8332:8338   */\n      dup5\n        /* \"#utility.yul\":8288:8360   */\n      tag_78\n      jump\t// in\n    tag_182:\n        /* \"#utility.yul\":7822:8367   */\n      swap6\n      swap5\n      pop\n      pop\n      pop\n      pop\n      pop\n      jump\t// out\n\n    auxdata: 0xa26469706673582212208e4bce124ce5b891472c704164710c20763e7eb99bd9a64749b4eff7b6b1547d64736f6c63430008140033\n}\n",
				"bytecode": {
					"linkReferences": {},
					"object": "608060405234801561000f575f80fd5b5061082a8061001d5f395ff3fe608060405234801561000f575f80fd5b5060043610610034575f3560e01c8063235110ca14610038578063238a4d1e14610068575b5f80fd5b610052600480360381019061004d9190610584565b610098565b60405161005f919061060a565b60405180910390f35b610082600480360381019061007d9190610584565b6100ad565b60405161008f919061060a565b60405180910390f35b5f6100a48484846100c2565b90509392505050565b5f6100b98484846101e1565b90509392505050565b5f805f8573ffffffffffffffffffffffffffffffffffffffff1685856040516024016100ef9291906106ac565b604051602081830303815290604052631626ba7e60e01b6020820180517bffffffffffffffffffffffffffffffffffffffffffffffffffffffff83818316178352505050506040516101419190610714565b5f60405180830381855afa9150503d805f8114610179576040519150601f19603f3d011682016040523d82523d5f602084013e61017e565b606091505b509150915081801561019257506020815110155b80156101d65750631626ba7e60e01b7bffffffffffffffffffffffffffffffffffffffffffffffffffffffff1916818060200190518101906101d4919061073e565b145b925050509392505050565b5f805f6101ee858561026e565b50915091505f600381111561020657610205610769565b5b81600381111561021957610218610769565b5b14801561025157508573ffffffffffffffffffffffffffffffffffffffff168273ffffffffffffffffffffffffffffffffffffffff16145b8061026357506102628686866100c2565b5b925050509392505050565b5f805f60418451036102ae575f805f602087015192506040870151915060608701515f1a90506102a0888285856102c3565b9550955095505050506102bc565b5f600285515f1b9250925092505b9250925092565b5f805f7f7fffffffffffffffffffffffffffffff5d576e7357a4501ddfe92f46681b20a0845f1c11156102ff575f6003859250925092506103a0565b5f6001888888886040515f815260200160405260405161032294939291906107b1565b6020604051602081039080840390855afa158015610342573d5f803e3d5ffd5b5050506020604051035190505f73ffffffffffffffffffffffffffffffffffffffff168173ffffffffffffffffffffffffffffffffffffffff1603610393575f60015f801b935093509350506103a0565b805f805f1b935093509350505b9450945094915050565b5f604051905090565b5f80fd5b5f80fd5b5f73ffffffffffffffffffffffffffffffffffffffff82169050919050565b5f6103e4826103bb565b9050919050565b6103f4816103da565b81146103fe575f80fd5b50565b5f8135905061040f816103eb565b92915050565b5f819050919050565b61042781610415565b8114610431575f80fd5b50565b5f813590506104428161041e565b92915050565b5f80fd5b5f80fd5b5f601f19601f8301169050919050565b7f4e487b71000000000000000000000000000000000000000000000000000000005f52604160045260245ffd5b61049682610450565b810181811067ffffffffffffffff821117156104b5576104b4610460565b5b80604052505050565b5f6104c76103aa565b90506104d3828261048d565b919050565b5f67ffffffffffffffff8211156104f2576104f1610460565b5b6104fb82610450565b9050602081019050919050565b828183375f83830152505050565b5f610528610523846104d8565b6104be565b9050828152602081018484840111156105445761054361044c565b5b61054f848285610508565b509392505050565b5f82601f83011261056b5761056a610448565b5b813561057b848260208601610516565b91505092915050565b5f805f6060848603121561059b5761059a6103b3565b5b5f6105a886828701610401565b93505060206105b986828701610434565b925050604084013567ffffffffffffffff8111156105da576105d96103b7565b5b6105e686828701610557565b9150509250925092565b5f8115159050919050565b610604816105f0565b82525050565b5f60208201905061061d5f8301846105fb565b92915050565b61062c81610415565b82525050565b5f81519050919050565b5f82825260208201905092915050565b5f5b8381101561066957808201518184015260208101905061064e565b5f8484015250505050565b5f61067e82610632565b610688818561063c565b935061069881856020860161064c565b6106a181610450565b840191505092915050565b5f6040820190506106bf5f830185610623565b81810360208301526106d18184610674565b90509392505050565b5f81905092915050565b5f6106ee82610632565b6106f881856106da565b935061070881856020860161064c565b80840191505092915050565b5f61071f82846106e4565b915081905092915050565b5f815190506107388161041e565b92915050565b5f60208284031215610753576107526103b3565b5b5f6107608482850161072a565b91505092915050565b7f4e487b71000000000000000000000000000000000000000000000000000000005f52602160045260245ffd5b5f60ff82169050919050565b6107ab81610796565b82525050565b5f6080820190506107c45f830187610623565b6107d160208301866107a2565b6107de6040830185610623565b6107eb6060830184610623565b9594505050505056fea26469706673582212208e4bce124ce5b891472c704164710c20763e7eb99bd9a64749b4eff7b6b1547d64736f6c63430008140033",
					"opcodes": "PUSH1 0x80 PUSH1 0x40 MSTORE CALLVALUE DUP1 ISZERO PUSH2 0xF JUMPI PUSH0 DUP1 REVERT JUMPDEST POP PUSH2 0x82A DUP1 PUSH2 0x1D PUSH0 CODECOPY PUSH0 RETURN INVALID PUSH1 0x80 PUSH1 0x40 MSTORE CALLVALUE DUP1 ISZERO PUSH2 0xF JUMPI PUSH0 DUP1 REVERT JUMPDEST POP PUSH1 0x4 CALLDATASIZE LT PUSH2 0x34 JUMPI PUSH0 CALLDATALOAD PUSH1 0xE0 SHR DUP1 PUSH4 0x235110CA EQ PUSH2 0x38 JUMPI DUP1 PUSH4 0x238A4D1E EQ PUSH2 0x68 JUMPI JUMPDEST PUSH0 DUP1 REVERT JUMPDEST PUSH2 0x52 PUSH1 0x4 DUP1 CALLDATASIZE SUB DUP2 ADD SWAP1 PUSH2 0x4D SWAP2 SWAP1 PUSH2 0x584 JUMP JUMPDEST PUSH2 0x98 JUMP JUMPDEST PUSH1 0x40 MLOAD PUSH2 0x5F SWAP2 SWAP1 PUSH2 0x60A JUMP JUMPDEST PUSH1 0x40 MLOAD DUP1 SWAP2 SUB SWAP1 RETURN JUMPDEST PUSH2 0x82 PUSH1 0x4 DUP1 CALLDATASIZE SUB DUP2 ADD SWAP1 PUSH2 0x7D SWAP2 SWAP1 PUSH2 0x584 JUMP JUMPDEST PUSH2 0xAD JUMP JUMPDEST PUSH1 0x40 MLOAD PUSH2 0x8F SWAP2 SWAP1 PUSH2 0x60A JUMP JUMPDEST PUSH1 0x40 MLOAD DUP1 SWAP2 SUB SWAP1 RETURN JUMPDEST PUSH0 PUSH2 0xA4 DUP5 DUP5 DUP5 PUSH2 0xC2 JUMP JUMPDEST SWAP1 POP SWAP4 SWAP3 POP POP POP JUMP JUMPDEST PUSH0 PUSH2 0xB9 DUP5 DUP5 DUP5 PUSH2 0x1E1 JUMP JUMPDEST SWAP1 POP SWAP4 SWAP3 POP POP POP JUMP JUMPDEST PUSH0 DUP1 PUSH0 DUP6 PUSH20 0xFFFFFFFFFFFFFFFFFFFFFFFFFFFFFFFFFFFFFFFF AND DUP6 DUP6 PUSH1 0x40 MLOAD PUSH1 0x24 ADD PUSH2 0xEF SWAP3 SWAP2 SWAP1 PUSH2 0x6AC JUMP JUMPDEST PUSH1 0x40 MLOAD PUSH1 0x20 DUP2 DUP4 SUB SUB DUP2 MSTORE SWAP1 PUSH1 0x40 MSTORE PUSH4 0x1626BA7E PUSH1 0xE0 SHL PUSH1 0x20 DUP3 ADD DUP1 MLOAD PUSH28 0xFFFFFFFFFFFFFFFFFFFFFFFFFFFFFFFFFFFFFFFFFFFFFFFFFFFFFFFF DUP4 DUP2 DUP4 AND OR DUP4 MSTORE POP POP POP POP PUSH1 0x40 MLOAD PUSH2 0x141 SWAP2 SWAP1 PUSH2 0x714 JUMP JUMPDEST PUSH0 PUSH1 0x40 MLOAD DUP1 DUP4 SUB DUP2 DUP6 GAS STATICCALL SWAP2 POP POP RETURNDATASIZE DUP1 PUSH0 DUP2 EQ PUSH2 0x179 JUMPI PUSH1 0x40 MLOAD SWAP2 POP PUSH1 0x1F NOT PUSH1 0x3F RETURNDATASIZE ADD AND DUP3 ADD PUSH1 0x40 MSTORE RETURNDATASIZE DUP3 MSTORE RETURNDATASIZE PUSH0 PUSH1 0x20 DUP5 ADD RETURNDATACOPY PUSH2 0x17E JUMP JUMPDEST PUSH1 0x60 SWAP2 POP JUMPDEST POP SWAP2 POP SWAP2 POP DUP2 DUP1 ISZERO PUSH2 0x192 JUMPI POP PUSH1 0x20 DUP2 MLOAD LT ISZERO JUMPDEST DUP1 ISZERO PUSH2 0x1D6 JUMPI POP PUSH4 0x1626BA7E PUSH1 0xE0 SHL PUSH28 0xFFFFFFFFFFFFFFFFFFFFFFFFFFFFFFFFFFFFFFFFFFFFFFFFFFFFFFFF NOT AND DUP2 DUP1 PUSH1 0x20 ADD SWAP1 MLOAD DUP2 ADD SWAP1 PUSH2 0x1D4 SWAP2 SWAP1 PUSH2 0x73E JUMP JUMPDEST EQ JUMPDEST SWAP3 POP POP POP SWAP4 SWAP3 POP POP POP JUMP JUMPDEST PUSH0 DUP1 PUSH0 PUSH2 0x1EE DUP6 DUP6 PUSH2 0x26E JUMP JUMPDEST POP SWAP2 POP SWAP2 POP PUSH0 PUSH1 0x3 DUP2 GT ISZERO PUSH2 0x206 JUMPI PUSH2 0x205 PUSH2 0x769 JUMP JUMPDEST JUMPDEST DUP2 PUSH1 0x3 DUP2 GT ISZERO PUSH2 0x219 JUMPI PUSH2 0x218 PUSH2 0x769 JUMP JUMPDEST JUMPDEST EQ DUP1 ISZERO PUSH2 0x251 JUMPI POP DUP6 PUSH20 0xFFFFFFFFFFFFFFFFFFFFFFFFFFFFFFFFFFFFFFFF AND DUP3 PUSH20 0xFFFFFFFFFFFFFFFFFFFFFFFFFFFFFFFFFFFFFFFF AND EQ JUMPDEST DUP1 PUSH2 0x263 JUMPI POP PUSH2 0x262 DUP7 DUP7 DUP7 PUSH2 0xC2 JUMP JUMPDEST JUMPDEST SWAP3 POP POP POP SWAP4 SWAP3 POP POP POP JUMP JUMPDEST PUSH0 DUP1 PUSH0 PUSH1 0x41 DUP5 MLOAD SUB PUSH2 0x2AE JUMPI PUSH0 DUP1 PUSH0 PUSH1 0x20 DUP8 ADD MLOAD SWAP3 POP PUSH1 0x40 DUP8 ADD MLOAD SWAP2 POP PUSH1 0x60 DUP8 ADD MLOAD PUSH0 BYTE SWAP1 POP PUSH2 0x2A0 DUP9 DUP3 DUP6 DUP6 PUSH2 0x2C3 JUMP JUMPDEST SWAP6 POP SWAP6 POP SWAP6 POP POP POP POP PUSH2 0x2BC JUMP JUMPDEST PUSH0 PUSH1 0x2 DUP6 MLOAD PUSH0 SHL SWAP3 POP SWAP3 POP SWAP3 POP JUMPDEST SWAP3 POP SWAP3 POP SWAP3 JUMP JUMPDEST PUSH0 DUP1 PUSH0 PUSH32 0x7FFFFFFFFFFFFFFFFFFFFFFFFFFFFFFF5D576E7357A4501DDFE92F46681B20A0 DUP5 PUSH0 SHR GT ISZERO PUSH2 0x2FF JUMPI PUSH0 PUSH1 0x3 DUP6 SWAP3 POP SWAP3 POP SWAP3 POP PUSH2 0x3A0 JUMP JUMPDEST PUSH0 PUSH1 0x1 DUP9 DUP9 DUP9 DUP9 PUSH1 0x40 MLOAD PUSH0 DUP2 MSTORE PUSH1 0x20 ADD PUSH1 0x40 MSTORE PUSH1 0x40 MLOAD PUSH2 0x322 SWAP5 SWAP4 SWAP3 SWAP2 SWAP1 PUSH2 0x7B1 JUMP JUMPDEST PUSH1 0x20 PUSH1 0x40 MLOAD PUSH1 0x20 DUP2 SUB SWAP1 DUP1 DUP5 SUB SWAP1 DUP6 GAS STATICCALL ISZERO DUP1 ISZERO PUSH2 0x342 JUMPI RETURNDATASIZE PUSH0 DUP1 RETURNDATACOPY RETURNDATASIZE PUSH0 REVERT JUMPDEST POP POP POP PUSH1 0x20 PUSH1 0x40 MLOAD SUB MLOAD SWAP1 POP PUSH0 PUSH20 0xFFFFFFFFFFFFFFFFFFFFFFFFFFFFFFFFFFFFFFFF AND DUP2 PUSH20 0xFFFFFFFFFFFFFFFFFFFFFFFFFFFFFFFFFFFFFFFF AND SUB PUSH2 0x393 JUMPI PUSH0 PUSH1 0x1 PUSH0 DUP1 SHL SWAP4 POP SWAP4 POP SWAP4 POP POP PUSH2 0x3A0 JUMP JUMPDEST DUP1 PUSH0 DUP1 PUSH0 SHL SWAP4 POP SWAP4 POP SWAP4 POP POP JUMPDEST SWAP5 POP SWAP5 POP SWAP5 SWAP2 POP POP JUMP JUMPDEST PUSH0 PUSH1 0x40 MLOAD SWAP1 POP SWAP1 JUMP JUMPDEST PUSH0 DUP1 REVERT JUMPDEST PUSH0 DUP1 REVERT JUMPDEST PUSH0 PUSH20 0xFFFFFFFFFFFFFFFFFFFFFFFFFFFFFFFFFFFFFFFF DUP3 AND SWAP1 POP SWAP2 SWAP1 POP JUMP JUMPDEST PUSH0 PUSH2 0x3E4 DUP3 PUSH2 0x3BB JUMP JUMPDEST SWAP1 POP SWAP2 SWAP1 POP JUMP JUMPDEST PUSH2 0x3F4 DUP2 PUSH2 0x3DA JUMP JUMPDEST DUP2 EQ PUSH2 0x3FE JUMPI PUSH0 DUP1 REVERT JUMPDEST POP JUMP JUMPDEST PUSH0 DUP2 CALLDATALOAD SWAP1 POP PUSH2 0x40F DUP2 PUSH2 0x3EB JUMP JUMPDEST SWAP3 SWAP2 POP POP JUMP JUMPDEST PUSH0 DUP2 SWAP1 POP SWAP2 SWAP1 POP JUMP JUMPDEST PUSH2 0x427 DUP2 PUSH2 0x415 JUMP JUMPDEST DUP2 EQ PUSH2 0x431 JUMPI PUSH0 DUP1 REVERT JUMPDEST POP JUMP JUMPDEST PUSH0 DUP2 CALLDATALOAD SWAP1 POP PUSH2 0x442 DUP2 PUSH2 0x41E JUMP JUMPDEST SWAP3 SWAP2 POP POP JUMP JUMPDEST PUSH0 DUP1 REVERT JUMPDEST PUSH0 DUP1 REVERT JUMPDEST PUSH0 PUSH1 0x1F NOT PUSH1 0x1F DUP4 ADD AND SWAP1 POP SWAP2 SWAP1 POP JUMP JUMPDEST PUSH32 0x4E487B7100000000000000000000000000000000000000000000000000000000 PUSH0 MSTORE PUSH1 0x41 PUSH1 0x4 MSTORE PUSH1 0x24 PUSH0 REVERT JUMPDEST PUSH2 0x496 DUP3 PUSH2 0x450 JUMP JUMPDEST DUP2 ADD DUP2 DUP2 LT PUSH8 0xFFFFFFFFFFFFFFFF DUP3 GT OR ISZERO PUSH2 0x4B5 JUMPI PUSH2 0x4B4 PUSH2 0x460 JUMP JUMPDEST JUMPDEST DUP1 PUSH1 0x40 MSTORE POP POP POP JUMP JUMPDEST PUSH0 PUSH2 0x4C7 PUSH2 0x3AA JUMP JUMPDEST SWAP1 POP PUSH2 0x4D3 DUP3 DUP3 PUSH2 0x48D JUMP JUMPDEST SWAP2 SWAP1 POP JUMP JUMPDEST PUSH0 PUSH8 0xFFFFFFFFFFFFFFFF DUP3 GT ISZERO PUSH2 0x4F2 JUMPI PUSH2 0x4F1 PUSH2 0x460 JUMP JUMPDEST JUMPDEST PUSH2 0x4FB DUP3 PUSH2 0x450 JUMP JUMPDEST SWAP1 POP PUSH1 0x20 DUP2 ADD SWAP1 POP SWAP2 SWAP1 POP JUMP JUMPDEST DUP3 DUP2 DUP4 CALLDATACOPY PUSH0 DUP4 DUP4 ADD MSTORE POP POP POP JUMP JUMPDEST PUSH0 PUSH2 0x528 PUSH2 0x523 DUP5 PUSH2 0x4D8 JUMP JUMPDEST PUSH2 0x4BE JUMP JUMPDEST SWAP1 POP DUP3 DUP2 MSTORE PUSH1 0x20 DUP2 ADD DUP5 DUP5 DUP5 ADD GT ISZERO PUSH2 0x544 JUMPI PUSH2 0x543 PUSH2 0x44C JUMP JUMPDEST JUMPDEST PUSH2 0x54F DUP5 DUP3 DUP6 PUSH2 0x508 JUMP JUMPDEST POP SWAP4 SWAP3 POP POP POP JUMP JUMPDEST PUSH0 DUP3 PUSH1 0x1F DUP4 ADD SLT PUSH2 0x56B JUMPI PUSH2 0x56A PUSH2 0x448 JUMP JUMPDEST JUMPDEST DUP2 CALLDATALOAD PUSH2 0x57B DUP5 DUP3 PUSH1 0x20 DUP7 ADD PUSH2 0x516 JUMP JUMPDEST SWAP2 POP POP SWAP3 SWAP2 POP POP JUMP JUMPDEST PUSH0 DUP1 PUSH0 PUSH1 0x60 DUP5 DUP7 SUB SLT ISZERO PUSH2 0x59B JUMPI PUSH2 0x59A PUSH2 0x3B3 JUMP JUMPDEST JUMPDEST PUSH0 PUSH2 0x5A8 DUP7 DUP3 DUP8 ADD PUSH2 0x401 JUMP JUMPDEST SWAP4 POP POP PUSH1 0x20 PUSH2 0x5B9 DUP7 DUP3 DUP8 ADD PUSH2 0x434 JUMP JUMPDEST SWAP3 POP POP PUSH1 0x40 DUP5 ADD CALLDATALOAD PUSH8 0xFFFFFFFFFFFFFFFF DUP2 GT ISZERO PUSH2 0x5DA JUMPI PUSH2 0x5D9 PUSH2 0x3B7 JUMP JUMPDEST JUMPDEST PUSH2 0x5E6 DUP7 DUP3 DUP8 ADD PUSH2 0x557 JUMP JUMPDEST SWAP2 POP POP SWAP3 POP SWAP3 POP SWAP3 JUMP JUMPDEST PUSH0 DUP2 ISZERO ISZERO SWAP1 POP SWAP2 SWAP1 POP JUMP JUMPDEST PUSH2 0x604 DUP2 PUSH2 0x5F0 JUMP JUMPDEST DUP3 MSTORE POP POP JUMP JUMPDEST PUSH0 PUSH1 0x20 DUP3 ADD SWAP1 POP PUSH2 0x61D PUSH0 DUP4 ADD DUP5 PUSH2 0x5FB JUMP JUMPDEST SWAP3 SWAP2 POP POP JUMP JUMPDEST PUSH2 0x62C DUP2 PUSH2 0x415 JUMP JUMPDEST DUP3 MSTORE POP POP JUMP JUMPDEST PUSH0 DUP2 MLOAD SWAP1 POP SWAP2 SWAP1 POP JUMP JUMPDEST PUSH0 DUP3 DUP3 MSTORE PUSH1 0x20 DUP3 ADD SWAP1 POP SWAP3 SWAP2 POP POP JUMP JUMPDEST PUSH0 JUMPDEST DUP4 DUP2 LT ISZERO PUSH2 0x669 JUMPI DUP1 DUP3 ADD MLOAD DUP2 DUP5 ADD MSTORE PUSH1 0x20 DUP2 ADD SWAP1 POP PUSH2 0x64E JUMP JUMPDEST PUSH0 DUP5 DUP5 ADD MSTORE POP POP POP POP JUMP JUMPDEST PUSH0 PUSH2 0x67E DUP3 PUSH2 0x632 JUMP JUMPDEST PUSH2 0x688 DUP2 DUP6 PUSH2 0x63C JUMP JUMPDEST SWAP4 POP PUSH2 0x698 DUP2 DUP6 PUSH1 0x20 DUP7 ADD PUSH2 0x64C JUMP JUMPDEST PUSH2 0x6A1 DUP2 PUSH2 0x450 JUMP JUMPDEST DUP5 ADD SWAP2 POP POP SWAP3 SWAP2 POP POP JUMP JUMPDEST PUSH0 PUSH1 0x40 DUP3 ADD SWAP1 POP PUSH2 0x6BF PUSH0 DUP4 ADD DUP6 PUSH2 0x623 JUMP JUMPDEST DUP2 DUP2 SUB PUSH1 0x20 DUP4 ADD MSTORE PUSH2 0x6D1 DUP2 DUP5 PUSH2 0x674 JUMP JUMPDEST SWAP1 POP SWAP4 SWAP3 POP POP POP JUMP JUMPDEST PUSH0 DUP2 SWAP1 POP SWAP3 SWAP2 POP POP JUMP JUMPDEST PUSH0 PUSH2 0x6EE DUP3 PUSH2 0x632 JUMP JUMPDEST PUSH2 0x6F8 DUP2 DUP6 PUSH2 0x6DA JUMP JUMPDEST SWAP4 POP PUSH2 0x708 DUP2 DUP6 PUSH1 0x20 DUP7 ADD PUSH2 0x64C JUMP JUMPDEST DUP1 DUP5 ADD SWAP2 POP POP SWAP3 SWAP2 POP POP JUMP JUMPDEST PUSH0 PUSH2 0x71F DUP3 DUP5 PUSH2 0x6E4 JUMP JUMPDEST SWAP2 POP DUP2 SWAP1 POP SWAP3 SWAP2 POP POP JUMP JUMPDEST PUSH0 DUP2 MLOAD SWAP1 POP PUSH2 0x738 DUP2 PUSH2 0x41E JUMP JUMPDEST SWAP3 SWAP2 POP POP JUMP JUMPDEST PUSH0 PUSH1 0x20 DUP3 DUP5 SUB SLT ISZERO PUSH2 0x753 JUMPI PUSH2 0x752 PUSH2 0x3B3 JUMP JUMPDEST JUMPDEST PUSH0 PUSH2 0x760 DUP5 DUP3 DUP6 ADD PUSH2 0x72A JUMP JUMPDEST SWAP2 POP POP SWAP3 SWAP2 POP POP JUMP JUMPDEST PUSH32 0x4E487B7100000000000000000000000000000000000000000000000000000000 PUSH0 MSTORE PUSH1 0x21 PUSH1 0x4 MSTORE PUSH1 0x24 PUSH0 REVERT JUMPDEST PUSH0 PUSH1 0xFF DUP3 AND SWAP1 POP SWAP2 SWAP1 POP JUMP JUMPDEST PUSH2 0x7AB DUP2 PUSH2 0x796 JUMP JUMPDEST DUP3 MSTORE POP POP JUMP JUMPDEST PUSH0 PUSH1 0x80 DUP3 ADD SWAP1 POP PUSH2 0x7C4 PUSH0 DUP4 ADD DUP8 PUSH2 0x623 JUMP JUMPDEST PUSH2 0x7D1 PUSH1 0x20 DUP4 ADD DUP7 PUSH2 0x7A2 JUMP JUMPDEST PUSH2 0x7DE PUSH1 0x40 DUP4 ADD DUP6 PUSH2 0x623 JUMP JUMPDEST PUSH2 0x7EB PUSH1 0x60 DUP4 ADD DUP5 PUSH2 0x623 JUMP JUMPDEST SWAP6 SWAP5 POP POP POP POP POP JUMP INVALID LOG2 PUSH5 0x6970667358 0x22 SLT KECCAK256 DUP15 0x4B 0xCE SLT 0x4C 0xE5 0xB8 SWAP2 SELFBALANCE 0x2C PUSH17 0x4164710C20763E7EB99BD9A64749B4EFF7 0xB6 0xB1 SLOAD PUSH30 0x64736F6C6343000814003300000000000000000000000000000000000000 "
				},
				"gasEstimates": {
					"creation": {
						"codeDepositCost": "418000",
						"executionCost": "453",
						"totalCost": "418453"
					},
					"external": {
						"isValidERC1271Signature(address,bytes32,bytes)": "infinite",
						"isValidSignature(address,bytes32,bytes)": "infinite"
					}
				},
				"methodIdentifiers": {
					"isValidERC1271Signature(address,bytes32,bytes)": "235110ca",
					"isValidSignature(address,bytes32,bytes)": "238a4d1e"
				}
			},
			"storageLayout": {
				"storage": [],
				"types": null
			},
			"userdoc": {
				"kind": "user",
				"methods": {},
				"version": 1
			}
		}
	}
}