{
	"UmiversePaymentV2.sol": {
		"UmiversePaymentV2": {
			"abi": [
				{
					"inputs": [
						{
							"internalType": "address",
							"name": "trustedForwarder",
							"type": "address"
						},
						{
							"internalType": "address",
							"name": "_rewardPoolAddress",
							"type": "address"
						},
						{
							"internalType": "address",
							"name": "_feeAddress",
							"type": "address"
						},
						{
							"internalType": "address",
							"name": "_signerAddress",
							"type": "address"
						}
					],
					"stateMutability": "nonpayable",
					"type": "constructor"
				},
				{
					"anonymous": false,
					"inputs": [
						{
							"indexed": true,
							"internalType": "address",
							"name": "recipient",
							"type": "address"
						},
						{
							"indexed": false,
							"internalType": "uint256",
							"name": "orderId",
							"type": "uint256"
						},
						{
							"indexed": false,
							"internalType": "uint256",
							"name": "amount",
							"type": "uint256"
						},
						{
							"indexed": false,
							"internalType": "string",
							"name": "_priceType",
							"type": "string"
						},
						{
							"indexed": false,
							"internalType": "bytes",
							"name": "_signature",
							"type": "bytes"
						}
					],
					"name": "PaymentSent",
					"type": "event"
				},
				{
					"anonymous": false,
					"inputs": [
						{
							"indexed": false,
							"internalType": "uint256",
							"name": "amount",
							"type": "uint256"
						}
					],
					"name": "TokensWithdrawn",
					"type": "event"
				},
				{
					"inputs": [
						{
							"internalType": "address",
							"name": "_feeAddress",
							"type": "address"
						},
						{
							"internalType": "address",
							"name": "_rewardPoolAddress",
							"type": "address"
						},
						{
							"internalType": "address",
							"name": "_signerAddress",
							"type": "address"
						}
					],
					"name": "config",
					"outputs": [],
					"stateMutability": "nonpayable",
					"type": "function"
				},
				{
					"inputs": [],
					"name": "eth",
					"outputs": [
						{
							"internalType": "contract IERC20",
							"name": "",
							"type": "address"
						}
					],
					"stateMutability": "view",
					"type": "function"
				},
				{
					"inputs": [],
					"name": "feeAddress",
					"outputs": [
						{
							"internalType": "address",
							"name": "",
							"type": "address"
						}
					],
					"stateMutability": "view",
					"type": "function"
				},
				{
					"inputs": [
						{
							"internalType": "address",
							"name": "_from",
							"type": "address"
						},
						{
							"internalType": "address",
							"name": "_recipient",
							"type": "address"
						},
						{
							"internalType": "uint256",
							"name": "_orderId",
							"type": "uint256"
						},
						{
							"internalType": "uint256",
							"name": "_amount",
							"type": "uint256"
						},
						{
							"internalType": "string",
							"name": "priceType",
							"type": "string"
						},
						{
							"internalType": "uint256",
							"name": "_timestamp",
							"type": "uint256"
						}
					],
					"name": "getMessageHash",
					"outputs": [
						{
							"internalType": "bytes32",
							"name": "",
							"type": "bytes32"
						}
					],
					"stateMutability": "pure",
					"type": "function"
				},
				{
					"inputs": [
						{
							"internalType": "string",
							"name": "token",
							"type": "string"
						}
					],
					"name": "isTokenSupported",
					"outputs": [
						{
							"internalType": "bool",
							"name": "",
							"type": "bool"
						}
					],
					"stateMutability": "pure",
					"type": "function"
				},
				{
					"inputs": [
						{
							"internalType": "address",
							"name": "forwarder",
							"type": "address"
						}
					],
					"name": "isTrustedForwarder",
					"outputs": [
						{
							"internalType": "bool",
							"name": "",
							"type": "bool"
						}
					],
					"stateMutability": "view",
					"type": "function"
				},
				{
					"inputs": [],
					"name": "nextOrderId",
					"outputs": [
						{
							"internalType": "uint256",
							"name": "",
							"type": "uint256"
						}
					],
					"stateMutability": "view",
					"type": "function"
				},
				{
					"inputs": [
						{
							"internalType": "uint256",
							"name": "",
							"type": "uint256"
						}
					],
					"name": "orders",
					"outputs": [
						{
							"internalType": "address",
							"name": "recipient",
							"type": "address"
						},
						{
							"internalType": "uint256",
							"name": "orderId",
							"type": "uint256"
						},
						{
							"internalType": "uint256",
							"name": "amount",
							"type": "uint256"
						},
						{
							"internalType": "string",
							"name": "_priceType",
							"type": "string"
						},
						{
							"internalType": "uint256",
							"name": "timestamp",
							"type": "uint256"
						}
					],
					"stateMutability": "view",
					"type": "function"
				},
				{
					"inputs": [],
					"name": "owner",
					"outputs": [
						{
							"internalType": "address",
							"name": "",
							"type": "address"
						}
					],
					"stateMutability": "view",
					"type": "function"
				},
				{
					"inputs": [],
					"name": "presaleFeeToDeveloper",
					"outputs": [
						{
							"internalType": "uint256",
							"name": "",
							"type": "uint256"
						}
					],
					"stateMutability": "view",
					"type": "function"
				},
				{
					"inputs": [],
					"name": "presaleFeeToRewardFund",
					"outputs": [
						{
							"internalType": "uint256",
							"name": "",
							"type": "uint256"
						}
					],
					"stateMutability": "view",
					"type": "function"
				},
				{
					"inputs": [],
					"name": "presaleFeeToUmi",
					"outputs": [
						{
							"internalType": "uint256",
							"name": "",
							"type": "uint256"
						}
					],
					"stateMutability": "view",
					"type": "function"
				},
				{
					"inputs": [
						{
							"internalType": "bytes32",
							"name": "_ethSignedMessageHash",
							"type": "bytes32"
						},
						{
							"internalType": "bytes",
							"name": "_signature",
							"type": "bytes"
						}
					],
					"name": "recoverSignerPublic",
					"outputs": [
						{
							"internalType": "address",
							"name": "",
							"type": "address"
						}
					],
					"stateMutability": "pure",
					"type": "function"
				},
				{
					"inputs": [],
					"name": "rewardPoolAddress",
					"outputs": [
						{
							"internalType": "address",
							"name": "",
							"type": "address"
						}
					],
					"stateMutability": "view",
					"type": "function"
				},
				{
					"inputs": [
						{
							"internalType": "address",
							"name": "from",
							"type": "address"
						},
						{
							"internalType": "address",
							"name": "recipient",
							"type": "address"
						},
						{
							"internalType": "uint256",
							"name": "orderId",
							"type": "uint256"
						},
						{
							"internalType": "uint256",
							"name": "amount",
							"type": "uint256"
						},
						{
							"internalType": "string",
							"name": "_priceType",
							"type": "string"
						},
						{
							"internalType": "uint256",
							"name": "_timestamp",
							"type": "uint256"
						},
						{
							"internalType": "bytes",
							"name": "_signature",
							"type": "bytes"
						}
					],
					"name": "sendPayment",
					"outputs": [],
					"stateMutability": "nonpayable",
					"type": "function"
				},
				{
					"inputs": [
						{
							"internalType": "address",
							"name": "_eth",
							"type": "address"
						}
					],
					"name": "setEth",
					"outputs": [],
					"stateMutability": "nonpayable",
					"type": "function"
				},
				{
					"inputs": [
						{
							"internalType": "uint256",
							"name": "_presaleFeeToDeveloper",
							"type": "uint256"
						},
						{
							"internalType": "uint256",
							"name": "_presaleFeeToUmi",
							"type": "uint256"
						},
						{
							"internalType": "uint256",
							"name": "_presaleFeeToRewardFund",
							"type": "uint256"
						}
					],
					"name": "setFee",
					"outputs": [],
					"stateMutability": "nonpayable",
					"type": "function"
				},
				{
					"inputs": [
						{
							"internalType": "address",
							"name": "_umi",
							"type": "address"
						}
					],
					"name": "setUmi",
					"outputs": [],
					"stateMutability": "nonpayable",
					"type": "function"
				},
				{
					"inputs": [
						{
							"internalType": "address",
							"name": "_usdc",
							"type": "address"
						}
					],
					"name": "setUsdc",
					"outputs": [],
					"stateMutability": "nonpayable",
					"type": "function"
				},
				{
					"inputs": [
						{
							"internalType": "address",
							"name": "_usdt",
							"type": "address"
						}
					],
					"name": "setUsdt",
					"outputs": [],
					"stateMutability": "nonpayable",
					"type": "function"
				},
				{
					"inputs": [],
					"name": "signerAddress",
					"outputs": [
						{
							"internalType": "address",
							"name": "",
							"type": "address"
						}
					],
					"stateMutability": "view",
					"type": "function"
				},
				{
					"inputs": [],
					"name": "umi",
					"outputs": [
						{
							"internalType": "contract IERC20",
							"name": "",
							"type": "address"
						}
					],
					"stateMutability": "view",
					"type": "function"
				},
				{
					"inputs": [],
					"name": "usdc",
					"outputs": [
						{
							"internalType": "contract IERC20",
							"name": "",
							"type": "address"
						}
					],
					"stateMutability": "view",
					"type": "function"
				},
				{
					"inputs": [],
					"name": "usdt",
					"outputs": [
						{
							"internalType": "contract IERC20",
							"name": "",
							"type": "address"
						}
					],
					"stateMutability": "view",
					"type": "function"
				},
				{
					"inputs": [
						{
							"internalType": "contract IERC20",
							"name": "token",
							"type": "address"
						},
						{
							"internalType": "uint256",
							"name": "amount",
							"type": "uint256"
						}
					],
					"name": "withdrawTokens",
					"outputs": [],
					"stateMutability": "nonpayable",
					"type": "function"
				}
			],
			"devdoc": {
				"kind": "dev",
				"methods": {},
				"version": 1
			},
			"evm": {
				"assembly": "    /* \"UmiversePaymentV2.sol\":269:8936  contract UmiversePaymentV2 is ERC2771Context {... */\n  mstore(0x40, 0xa0)\n    /* \"UmiversePaymentV2.sol\":453:456  490 */\n  0x01ea\n    /* \"UmiversePaymentV2.sol\":414:456  uint256 public presaleFeeToDeveloper = 490 */\n  0x02\n  sstore\n    /* \"UmiversePaymentV2.sol\":495:498  210 */\n  0xd2\n    /* \"UmiversePaymentV2.sol\":462:498  uint256 public presaleFeeToUmi = 210 */\n  0x03\n  sstore\n    /* \"UmiversePaymentV2.sol\":544:547  300 */\n  0x012c\n    /* \"UmiversePaymentV2.sol\":504:547  uint256 public presaleFeeToRewardFund = 300 */\n  0x04\n  sstore\n    /* \"UmiversePaymentV2.sol\":673:715  0x21b81F2Cc97334031EfAfF3b93d8F846e02Ad0bc */\n  0x21b81f2cc97334031efaff3b93d8f846e02ad0bc\n    /* \"UmiversePaymentV2.sol\":645:716  IERC20 public usdt = IERC20(0x21b81F2Cc97334031EfAfF3b93d8F846e02Ad0bc) */\n  0x07\n  exp(0x0100, 0x00)\n  dup2\n  sload\n  dup2\n  0xffffffffffffffffffffffffffffffffffffffff\n  mul\n  not\n  and\n  swap1\n  dup4\n  0xffffffffffffffffffffffffffffffffffffffff\n  and\n  mul\n  or\n  swap1\n  sstore\n  pop\n    /* \"UmiversePaymentV2.sol\":750:792  0x63Eb5CCD29905BDeB83f1889C84d4Bf884038d2F */\n  0x63eb5ccd29905bdeb83f1889c84d4bf884038d2f\n    /* \"UmiversePaymentV2.sol\":722:793  IERC20 public usdc = IERC20(0x63Eb5CCD29905BDeB83f1889C84d4Bf884038d2F) */\n  0x08\n  exp(0x0100, 0x00)\n  dup2\n  sload\n  dup2\n  0xffffffffffffffffffffffffffffffffffffffff\n  mul\n  not\n  and\n  swap1\n  dup4\n  0xffffffffffffffffffffffffffffffffffffffff\n  and\n  mul\n  or\n  swap1\n  sstore\n  pop\n    /* \"UmiversePaymentV2.sol\":834:835  0 */\n  0x00\n    /* \"UmiversePaymentV2.sol\":799:837  IERC20 public umi = IERC20(address(0)) */\n  0x09\n  exp(0x0100, 0x00)\n  dup2\n  sload\n  dup2\n  0xffffffffffffffffffffffffffffffffffffffff\n  mul\n  not\n  and\n  swap1\n  dup4\n  0xffffffffffffffffffffffffffffffffffffffff\n  and\n  mul\n  or\n  swap1\n  sstore\n  pop\n    /* \"UmiversePaymentV2.sol\":878:879  0 */\n  0x00\n    /* \"UmiversePaymentV2.sol\":843:881  IERC20 public eth = IERC20(address(0)) */\n  0x0a\n  exp(0x0100, 0x00)\n  dup2\n  sload\n  dup2\n  0xffffffffffffffffffffffffffffffffffffffff\n  mul\n  not\n  and\n  swap1\n  dup4\n  0xffffffffffffffffffffffffffffffffffffffff\n  and\n  mul\n  or\n  swap1\n  sstore\n  pop\n    /* \"UmiversePaymentV2.sol\":1328:1329  1 */\n  0x01\n    /* \"UmiversePaymentV2.sol\":1299:1329  uint256 public nextOrderId = 1 */\n  0x0c\n  sstore\n    /* \"UmiversePaymentV2.sol\":1336:1675  constructor(... */\n  callvalue\n  dup1\n  iszero\n  tag_1\n  jumpi\n  0x00\n  dup1\n  revert\ntag_1:\n  pop\n  mload(0x40)\n  sub(codesize, bytecodeSize)\n  dup1\n  bytecodeSize\n  dup4\n  codecopy\n  dup2\n  dup2\n  add\n  0x40\n  mstore\n  dup2\n  add\n  swap1\n  tag_2\n  swap2\n  swap1\n  tag_3\n  jump\t// in\ntag_2:\n    /* \"UmiversePaymentV2.sol\":1500:1516  trustedForwarder */\n  dup4\n    /* \"@gelatonetwork/relay-context/contracts/vendor/ERC2771Context.sol\":460:476  trustedForwarder */\n  dup1\n    /* \"@gelatonetwork/relay-context/contracts/vendor/ERC2771Context.sol\":440:476  _trustedForwarder = trustedForwarder */\n  0xffffffffffffffffffffffffffffffffffffffff\n  and\n  0x80\n  dup2\n  0xffffffffffffffffffffffffffffffffffffffff\n  and\n  dup2\n  mstore\n  pop\n  pop\n    /* \"@gelatonetwork/relay-context/contracts/vendor/ERC2771Context.sol\":392:483  constructor(address trustedForwarder) {... */\n  pop\n    /* \"UmiversePaymentV2.sol\":1536:1546  msg.sender */\n  caller\n    /* \"UmiversePaymentV2.sol\":1528:1533  owner */\n  0x00\n  dup1\n    /* \"UmiversePaymentV2.sol\":1528:1546  owner = msg.sender */\n  0x0100\n  exp\n  dup2\n  sload\n  dup2\n  0xffffffffffffffffffffffffffffffffffffffff\n  mul\n  not\n  and\n  swap1\n  dup4\n  0xffffffffffffffffffffffffffffffffffffffff\n  and\n  mul\n  or\n  swap1\n  sstore\n  pop\n    /* \"UmiversePaymentV2.sol\":1576:1594  _rewardPoolAddress */\n  dup3\n    /* \"UmiversePaymentV2.sol\":1556:1573  rewardPoolAddress */\n  0x06\n  0x00\n    /* \"UmiversePaymentV2.sol\":1556:1594  rewardPoolAddress = _rewardPoolAddress */\n  0x0100\n  exp\n  dup2\n  sload\n  dup2\n  0xffffffffffffffffffffffffffffffffffffffff\n  mul\n  not\n  and\n  swap1\n  dup4\n  0xffffffffffffffffffffffffffffffffffffffff\n  and\n  mul\n  or\n  swap1\n  sstore\n  pop\n    /* \"UmiversePaymentV2.sol\":1617:1628  _feeAddress */\n  dup2\n    /* \"UmiversePaymentV2.sol\":1604:1614  feeAddress */\n  0x05\n  0x00\n    /* \"UmiversePaymentV2.sol\":1604:1628  feeAddress = _feeAddress */\n  0x0100\n  exp\n  dup2\n  sload\n  dup2\n  0xffffffffffffffffffffffffffffffffffffffff\n  mul\n  not\n  and\n  swap1\n  dup4\n  0xffffffffffffffffffffffffffffffffffffffff\n  and\n  mul\n  or\n  swap1\n  sstore\n  pop\n    /* \"UmiversePaymentV2.sol\":1654:1668  _signerAddress */\n  dup1\n    /* \"UmiversePaymentV2.sol\":1638:1651  signerAddress */\n  0x01\n  0x00\n    /* \"UmiversePaymentV2.sol\":1638:1668  signerAddress = _signerAddress */\n  0x0100\n  exp\n  dup2\n  sload\n  dup2\n  0xffffffffffffffffffffffffffffffffffffffff\n  mul\n  not\n  and\n  swap1\n  dup4\n  0xffffffffffffffffffffffffffffffffffffffff\n  and\n  mul\n  or\n  swap1\n  sstore\n  pop\n    /* \"UmiversePaymentV2.sol\":1336:1675  constructor(... */\n  pop\n  pop\n  pop\n  pop\n    /* \"UmiversePaymentV2.sol\":269:8936  contract UmiversePaymentV2 is ERC2771Context {... */\n  jump(tag_8)\n    /* \"#utility.yul\":88:205   */\ntag_10:\n    /* \"#utility.yul\":197:198   */\n  0x00\n    /* \"#utility.yul\":194:195   */\n  dup1\n    /* \"#utility.yul\":187:199   */\n  revert\n    /* \"#utility.yul\":334:460   */\ntag_12:\n    /* \"#utility.yul\":371:378   */\n  0x00\n    /* \"#utility.yul\":411:453   */\n  0xffffffffffffffffffffffffffffffffffffffff\n    /* \"#utility.yul\":404:409   */\n  dup3\n    /* \"#utility.yul\":400:454   */\n  and\n    /* \"#utility.yul\":389:454   */\n  swap1\n  pop\n    /* \"#utility.yul\":334:460   */\n  swap2\n  swap1\n  pop\n  jump\t// out\n    /* \"#utility.yul\":466:562   */\ntag_13:\n    /* \"#utility.yul\":503:510   */\n  0x00\n    /* \"#utility.yul\":532:556   */\n  tag_22\n    /* \"#utility.yul\":550:555   */\n  dup3\n    /* \"#utility.yul\":532:556   */\n  tag_12\n  jump\t// in\ntag_22:\n    /* \"#utility.yul\":521:556   */\n  swap1\n  pop\n    /* \"#utility.yul\":466:562   */\n  swap2\n  swap1\n  pop\n  jump\t// out\n    /* \"#utility.yul\":568:690   */\ntag_14:\n    /* \"#utility.yul\":641:665   */\n  tag_24\n    /* \"#utility.yul\":659:664   */\n  dup2\n    /* \"#utility.yul\":641:665   */\n  tag_13\n  jump\t// in\ntag_24:\n    /* \"#utility.yul\":634:639   */\n  dup2\n    /* \"#utility.yul\":631:666   */\n  eq\n    /* \"#utility.yul\":621:684   */\n  tag_25\n  jumpi\n    /* \"#utility.yul\":680:681   */\n  0x00\n    /* \"#utility.yul\":677:678   */\n  dup1\n    /* \"#utility.yul\":670:682   */\n  revert\n    /* \"#utility.yul\":621:684   */\ntag_25:\n    /* \"#utility.yul\":568:690   */\n  pop\n  jump\t// out\n    /* \"#utility.yul\":696:839   */\ntag_15:\n    /* \"#utility.yul\":753:758   */\n  0x00\n    /* \"#utility.yul\":784:790   */\n  dup2\n    /* \"#utility.yul\":778:791   */\n  mload\n    /* \"#utility.yul\":769:791   */\n  swap1\n  pop\n    /* \"#utility.yul\":800:833   */\n  tag_27\n    /* \"#utility.yul\":827:832   */\n  dup2\n    /* \"#utility.yul\":800:833   */\n  tag_14\n  jump\t// in\ntag_27:\n    /* \"#utility.yul\":696:839   */\n  swap3\n  swap2\n  pop\n  pop\n  jump\t// out\n    /* \"#utility.yul\":845:1665   */\ntag_3:\n    /* \"#utility.yul\":942:948   */\n  0x00\n    /* \"#utility.yul\":950:956   */\n  dup1\n    /* \"#utility.yul\":958:964   */\n  0x00\n    /* \"#utility.yul\":966:972   */\n  dup1\n    /* \"#utility.yul\":1015:1018   */\n  0x80\n    /* \"#utility.yul\":1003:1012   */\n  dup6\n    /* \"#utility.yul\":994:1001   */\n  dup8\n    /* \"#utility.yul\":990:1013   */\n  sub\n    /* \"#utility.yul\":986:1019   */\n  slt\n    /* \"#utility.yul\":983:1103   */\n  iszero\n  tag_29\n  jumpi\n    /* \"#utility.yul\":1022:1101   */\n  tag_30\n  tag_10\n  jump\t// in\ntag_30:\n    /* \"#utility.yul\":983:1103   */\ntag_29:\n    /* \"#utility.yul\":1142:1143   */\n  0x00\n    /* \"#utility.yul\":1167:1231   */\n  tag_31\n    /* \"#utility.yul\":1223:1230   */\n  dup8\n    /* \"#utility.yul\":1214:1220   */\n  dup3\n    /* \"#utility.yul\":1203:1212   */\n  dup9\n    /* \"#utility.yul\":1199:1221   */\n  add\n    /* \"#utility.yul\":1167:1231   */\n  tag_15\n  jump\t// in\ntag_31:\n    /* \"#utility.yul\":1157:1231   */\n  swap5\n  pop\n    /* \"#utility.yul\":1113:1241   */\n  pop\n    /* \"#utility.yul\":1280:1282   */\n  0x20\n    /* \"#utility.yul\":1306:1370   */\n  tag_32\n    /* \"#utility.yul\":1362:1369   */\n  dup8\n    /* \"#utility.yul\":1353:1359   */\n  dup3\n    /* \"#utility.yul\":1342:1351   */\n  dup9\n    /* \"#utility.yul\":1338:1360   */\n  add\n    /* \"#utility.yul\":1306:1370   */\n  tag_15\n  jump\t// in\ntag_32:\n    /* \"#utility.yul\":1296:1370   */\n  swap4\n  pop\n    /* \"#utility.yul\":1251:1380   */\n  pop\n    /* \"#utility.yul\":1419:1421   */\n  0x40\n    /* \"#utility.yul\":1445:1509   */\n  tag_33\n    /* \"#utility.yul\":1501:1508   */\n  dup8\n    /* \"#utility.yul\":1492:1498   */\n  dup3\n    /* \"#utility.yul\":1481:1490   */\n  dup9\n    /* \"#utility.yul\":1477:1499   */\n  add\n    /* \"#utility.yul\":1445:1509   */\n  tag_15\n  jump\t// in\ntag_33:\n    /* \"#utility.yul\":1435:1509   */\n  swap3\n  pop\n    /* \"#utility.yul\":1390:1519   */\n  pop\n    /* \"#utility.yul\":1558:1560   */\n  0x60\n    /* \"#utility.yul\":1584:1648   */\n  tag_34\n    /* \"#utility.yul\":1640:1647   */\n  dup8\n    /* \"#utility.yul\":1631:1637   */\n  dup3\n    /* \"#utility.yul\":1620:1629   */\n  dup9\n    /* \"#utility.yul\":1616:1638   */\n  add\n    /* \"#utility.yul\":1584:1648   */\n  tag_15\n  jump\t// in\ntag_34:\n    /* \"#utility.yul\":1574:1648   */\n  swap2\n  pop\n    /* \"#utility.yul\":1529:1658   */\n  pop\n    /* \"#utility.yul\":845:1665   */\n  swap3\n  swap6\n  swap2\n  swap5\n  pop\n  swap3\n  pop\n  jump\t// out\n    /* \"UmiversePaymentV2.sol\":269:8936  contract UmiversePaymentV2 is ERC2771Context {... */\ntag_8:\n  mload(0x80)\n  codecopy(0x00, dataOffset(sub_0), dataSize(sub_0))\n  0x00\n  assignImmutable(\"0x13600b294191fc92924bb3ce4b969c1e7e2bab8f4c93c3fc6d0a51733df3c060\")\n  return(0x00, dataSize(sub_0))\nstop\n\nsub_0: assembly {\n        /* \"UmiversePaymentV2.sol\":269:8936  contract UmiversePaymentV2 is ERC2771Context {... */\n      mstore(0x40, 0x80)\n      callvalue\n      dup1\n      iszero\n      tag_1\n      jumpi\n      0x00\n      dup1\n      revert\n    tag_1:\n      pop\n      jumpi(tag_2, lt(calldatasize, 0x04))\n      shr(0xe0, calldataload(0x00))\n      dup1\n      0x845a51ec\n      gt\n      tag_28\n      jumpi\n      dup1\n      0x9f2585a1\n      gt\n      tag_29\n      jumpi\n      dup1\n      0xcb146879\n      gt\n      tag_30\n      jumpi\n      dup1\n      0xcb146879\n      eq\n      tag_24\n      jumpi\n      dup1\n      0xd1faf157\n      eq\n      tag_25\n      jumpi\n      dup1\n      0xd339db94\n      eq\n      tag_26\n      jumpi\n      dup1\n      0xf746a042\n      eq\n      tag_27\n      jumpi\n      jump(tag_2)\n    tag_30:\n      dup1\n      0x9f2585a1\n      eq\n      tag_21\n      jumpi\n      dup1\n      0xa85c38ef\n      eq\n      tag_22\n      jumpi\n      dup1\n      0xbbb99baa\n      eq\n      tag_23\n      jumpi\n      jump(tag_2)\n    tag_29:\n      dup1\n      0x845a51ec\n      eq\n      tag_15\n      jumpi\n      dup1\n      0x87336111\n      eq\n      tag_16\n      jumpi\n      dup1\n      0x8b225f06\n      eq\n      tag_17\n      jumpi\n      dup1\n      0x8c7c9e0c\n      eq\n      tag_18\n      jumpi\n      dup1\n      0x8da5cb5b\n      eq\n      tag_19\n      jumpi\n      dup1\n      0x94dd453a\n      eq\n      tag_20\n      jumpi\n      jump(tag_2)\n    tag_28:\n      dup1\n      0x3e413bee\n      gt\n      tag_31\n      jumpi\n      dup1\n      0x3e413bee\n      eq\n      tag_9\n      jumpi\n      dup1\n      0x41275358\n      eq\n      tag_10\n      jumpi\n      dup1\n      0x572b6c05\n      eq\n      tag_11\n      jumpi\n      dup1\n      0x58979bfe\n      eq\n      tag_12\n      jumpi\n      dup1\n      0x5b65b9ab\n      eq\n      tag_13\n      jumpi\n      dup1\n      0x5b7633d0\n      eq\n      tag_14\n      jumpi\n      jump(tag_2)\n    tag_31:\n      dup1\n      0x06b091f9\n      eq\n      tag_3\n      jumpi\n      dup1\n      0x0d3652ec\n      eq\n      tag_4\n      jumpi\n      dup1\n      0x122c6fd7\n      eq\n      tag_5\n      jumpi\n      dup1\n      0x14754e66\n      eq\n      tag_6\n      jumpi\n      dup1\n      0x2a58b330\n      eq\n      tag_7\n      jumpi\n      dup1\n      0x2f48ab7d\n      eq\n      tag_8\n      jumpi\n    tag_2:\n      0x00\n      dup1\n      revert\n        /* \"UmiversePaymentV2.sol\":4734:4972  function withdrawTokens(IERC20 token, uint256 amount) external onlyOwner {... */\n    tag_3:\n      tag_32\n      0x04\n      dup1\n      calldatasize\n      sub\n      dup2\n      add\n      swap1\n      tag_33\n      swap2\n      swap1\n      tag_34\n      jump\t// in\n    tag_33:\n      tag_35\n      jump\t// in\n    tag_32:\n      stop\n        /* \"UmiversePaymentV2.sol\":8004:8316  function isTokenSupported(string memory token) public pure returns (bool) {... */\n    tag_4:\n      tag_36\n      0x04\n      dup1\n      calldatasize\n      sub\n      dup2\n      add\n      swap1\n      tag_37\n      swap2\n      swap1\n      tag_38\n      jump\t// in\n    tag_37:\n      tag_39\n      jump\t// in\n    tag_36:\n      mload(0x40)\n      tag_40\n      swap2\n      swap1\n      tag_41\n      jump\t// in\n    tag_40:\n      mload(0x40)\n      dup1\n      swap2\n      sub\n      swap1\n      return\n        /* \"UmiversePaymentV2.sol\":2469:2551  function setEth(address _eth) public onlyOwner {... */\n    tag_5:\n      tag_42\n      0x04\n      dup1\n      calldatasize\n      sub\n      dup2\n      add\n      swap1\n      tag_43\n      swap2\n      swap1\n      tag_44\n      jump\t// in\n    tag_43:\n      tag_45\n      jump\t// in\n    tag_42:\n      stop\n        /* \"UmiversePaymentV2.sol\":504:547  uint256 public presaleFeeToRewardFund = 300 */\n    tag_6:\n      tag_46\n      tag_47\n      jump\t// in\n    tag_46:\n      mload(0x40)\n      tag_48\n      swap2\n      swap1\n      tag_49\n      jump\t// in\n    tag_48:\n      mload(0x40)\n      dup1\n      swap2\n      sub\n      swap1\n      return\n        /* \"UmiversePaymentV2.sol\":1299:1329  uint256 public nextOrderId = 1 */\n    tag_7:\n      tag_50\n      tag_51\n      jump\t// in\n    tag_50:\n      mload(0x40)\n      tag_52\n      swap2\n      swap1\n      tag_49\n      jump\t// in\n    tag_52:\n      mload(0x40)\n      dup1\n      swap2\n      sub\n      swap1\n      return\n        /* \"UmiversePaymentV2.sol\":645:716  IERC20 public usdt = IERC20(0x21b81F2Cc97334031EfAfF3b93d8F846e02Ad0bc) */\n    tag_8:\n      tag_53\n      tag_54\n      jump\t// in\n    tag_53:\n      mload(0x40)\n      tag_55\n      swap2\n      swap1\n      tag_56\n      jump\t// in\n    tag_55:\n      mload(0x40)\n      dup1\n      swap2\n      sub\n      swap1\n      return\n        /* \"UmiversePaymentV2.sol\":722:793  IERC20 public usdc = IERC20(0x63Eb5CCD29905BDeB83f1889C84d4Bf884038d2F) */\n    tag_9:\n      tag_57\n      tag_58\n      jump\t// in\n    tag_57:\n      mload(0x40)\n      tag_59\n      swap2\n      swap1\n      tag_56\n      jump\t// in\n    tag_59:\n      mload(0x40)\n      dup1\n      swap2\n      sub\n      swap1\n      return\n        /* \"UmiversePaymentV2.sol\":554:579  address public feeAddress */\n    tag_10:\n      tag_60\n      tag_61\n      jump\t// in\n    tag_60:\n      mload(0x40)\n      tag_62\n      swap2\n      swap1\n      tag_63\n      jump\t// in\n    tag_62:\n      mload(0x40)\n      dup1\n      swap2\n      sub\n      swap1\n      return\n        /* \"@gelatonetwork/relay-context/contracts/vendor/ERC2771Context.sol\":489:661  function isTrustedForwarder(address forwarder)... */\n    tag_11:\n      tag_64\n      0x04\n      dup1\n      calldatasize\n      sub\n      dup2\n      add\n      swap1\n      tag_65\n      swap2\n      swap1\n      tag_44\n      jump\t// in\n    tag_65:\n      tag_66\n      jump\t// in\n    tag_64:\n      mload(0x40)\n      tag_67\n      swap2\n      swap1\n      tag_41\n      jump\t// in\n    tag_67:\n      mload(0x40)\n      dup1\n      swap2\n      sub\n      swap1\n      return\n        /* \"UmiversePaymentV2.sol\":2197:2283  function setUsdt(address _usdt) public onlyOwner {... */\n    tag_12:\n      tag_68\n      0x04\n      dup1\n      calldatasize\n      sub\n      dup2\n      add\n      swap1\n      tag_69\n      swap2\n      swap1\n      tag_44\n      jump\t// in\n    tag_69:\n      tag_70\n      jump\t// in\n    tag_68:\n      stop\n        /* \"UmiversePaymentV2.sol\":1872:2191  function setFee(... */\n    tag_13:\n      tag_71\n      0x04\n      dup1\n      calldatasize\n      sub\n      dup2\n      add\n      swap1\n      tag_72\n      swap2\n      swap1\n      tag_73\n      jump\t// in\n    tag_72:\n      tag_74\n      jump\t// in\n    tag_71:\n      stop\n        /* \"UmiversePaymentV2.sol\":379:407  address public signerAddress */\n    tag_14:\n      tag_75\n      tag_76\n      jump\t// in\n    tag_75:\n      mload(0x40)\n      tag_77\n      swap2\n      swap1\n      tag_63\n      jump\t// in\n    tag_77:\n      mload(0x40)\n      dup1\n      swap2\n      sub\n      swap1\n      return\n        /* \"UmiversePaymentV2.sol\":592:624  address public rewardPoolAddress */\n    tag_15:\n      tag_78\n      tag_79\n      jump\t// in\n    tag_78:\n      mload(0x40)\n      tag_80\n      swap2\n      swap1\n      tag_63\n      jump\t// in\n    tag_80:\n      mload(0x40)\n      dup1\n      swap2\n      sub\n      swap1\n      return\n        /* \"UmiversePaymentV2.sol\":2571:2836  function config(... */\n    tag_16:\n      tag_81\n      0x04\n      dup1\n      calldatasize\n      sub\n      dup2\n      add\n      swap1\n      tag_82\n      swap2\n      swap1\n      tag_83\n      jump\t// in\n    tag_82:\n      tag_84\n      jump\t// in\n    tag_81:\n      stop\n        /* \"UmiversePaymentV2.sol\":2381:2463  function setUmi(address _umi) public onlyOwner {... */\n    tag_17:\n      tag_85\n      0x04\n      dup1\n      calldatasize\n      sub\n      dup2\n      add\n      swap1\n      tag_86\n      swap2\n      swap1\n      tag_44\n      jump\t// in\n    tag_86:\n      tag_87\n      jump\t// in\n    tag_85:\n      stop\n        /* \"UmiversePaymentV2.sol\":843:881  IERC20 public eth = IERC20(address(0)) */\n    tag_18:\n      tag_88\n      tag_89\n      jump\t// in\n    tag_88:\n      mload(0x40)\n      tag_90\n      swap2\n      swap1\n      tag_56\n      jump\t// in\n    tag_90:\n      mload(0x40)\n      dup1\n      swap2\n      sub\n      swap1\n      return\n        /* \"UmiversePaymentV2.sol\":353:373  address public owner */\n    tag_19:\n      tag_91\n      tag_92\n      jump\t// in\n    tag_91:\n      mload(0x40)\n      tag_93\n      swap2\n      swap1\n      tag_63\n      jump\t// in\n    tag_93:\n      mload(0x40)\n      dup1\n      swap2\n      sub\n      swap1\n      return\n        /* \"UmiversePaymentV2.sol\":799:837  IERC20 public umi = IERC20(address(0)) */\n    tag_20:\n      tag_94\n      tag_95\n      jump\t// in\n    tag_94:\n      mload(0x40)\n      tag_96\n      swap2\n      swap1\n      tag_56\n      jump\t// in\n    tag_96:\n      mload(0x40)\n      dup1\n      swap2\n      sub\n      swap1\n      return\n        /* \"UmiversePaymentV2.sol\":7726:7998  function recoverSignerPublic(... */\n    tag_21:\n      tag_97\n      0x04\n      dup1\n      calldatasize\n      sub\n      dup2\n      add\n      swap1\n      tag_98\n      swap2\n      swap1\n      tag_99\n      jump\t// in\n    tag_98:\n      tag_100\n      jump\t// in\n    tag_97:\n      mload(0x40)\n      tag_101\n      swap2\n      swap1\n      tag_63\n      jump\t// in\n    tag_101:\n      mload(0x40)\n      dup1\n      swap2\n      sub\n      swap1\n      return\n        /* \"UmiversePaymentV2.sol\":1254:1293  mapping(uint256 => Order) public orders */\n    tag_22:\n      tag_102\n      0x04\n      dup1\n      calldatasize\n      sub\n      dup2\n      add\n      swap1\n      tag_103\n      swap2\n      swap1\n      tag_104\n      jump\t// in\n    tag_103:\n      tag_105\n      jump\t// in\n    tag_102:\n      mload(0x40)\n      tag_106\n      swap6\n      swap5\n      swap4\n      swap3\n      swap2\n      swap1\n      tag_107\n      jump\t// in\n    tag_106:\n      mload(0x40)\n      dup1\n      swap2\n      sub\n      swap1\n      return\n        /* \"UmiversePaymentV2.sol\":5922:6437  function getMessageHash(... */\n    tag_23:\n      tag_108\n      0x04\n      dup1\n      calldatasize\n      sub\n      dup2\n      add\n      swap1\n      tag_109\n      swap2\n      swap1\n      tag_110\n      jump\t// in\n    tag_109:\n      tag_111\n      jump\t// in\n    tag_108:\n      mload(0x40)\n      tag_112\n      swap2\n      swap1\n      tag_113\n      jump\t// in\n    tag_112:\n      mload(0x40)\n      dup1\n      swap2\n      sub\n      swap1\n      return\n        /* \"UmiversePaymentV2.sol\":2289:2375  function setUsdc(address _usdc) public onlyOwner {... */\n    tag_24:\n      tag_114\n      0x04\n      dup1\n      calldatasize\n      sub\n      dup2\n      add\n      swap1\n      tag_115\n      swap2\n      swap1\n      tag_44\n      jump\t// in\n    tag_115:\n      tag_116\n      jump\t// in\n    tag_114:\n      stop\n        /* \"UmiversePaymentV2.sol\":414:456  uint256 public presaleFeeToDeveloper = 490 */\n    tag_25:\n      tag_117\n      tag_118\n      jump\t// in\n    tag_117:\n      mload(0x40)\n      tag_119\n      swap2\n      swap1\n      tag_49\n      jump\t// in\n    tag_119:\n      mload(0x40)\n      dup1\n      swap2\n      sub\n      swap1\n      return\n        /* \"UmiversePaymentV2.sol\":462:498  uint256 public presaleFeeToUmi = 210 */\n    tag_26:\n      tag_120\n      tag_121\n      jump\t// in\n    tag_120:\n      mload(0x40)\n      tag_122\n      swap2\n      swap1\n      tag_49\n      jump\t// in\n    tag_122:\n      mload(0x40)\n      dup1\n      swap2\n      sub\n      swap1\n      return\n        /* \"UmiversePaymentV2.sol\":2962:4728  function sendPayment(... */\n    tag_27:\n      tag_123\n      0x04\n      dup1\n      calldatasize\n      sub\n      dup2\n      add\n      swap1\n      tag_124\n      swap2\n      swap1\n      tag_125\n      jump\t// in\n    tag_124:\n      tag_126\n      jump\t// in\n    tag_123:\n      stop\n        /* \"UmiversePaymentV2.sol\":4734:4972  function withdrawTokens(IERC20 token, uint256 amount) external onlyOwner {... */\n    tag_35:\n        /* \"UmiversePaymentV2.sol\":2895:2900  owner */\n      0x00\n      dup1\n      sload\n      swap1\n      0x0100\n      exp\n      swap1\n      div\n      0xffffffffffffffffffffffffffffffffffffffff\n      and\n        /* \"UmiversePaymentV2.sol\":2881:2900  msg.sender == owner */\n      0xffffffffffffffffffffffffffffffffffffffff\n      and\n        /* \"UmiversePaymentV2.sol\":2881:2891  msg.sender */\n      caller\n        /* \"UmiversePaymentV2.sol\":2881:2900  msg.sender == owner */\n      0xffffffffffffffffffffffffffffffffffffffff\n      and\n      eq\n        /* \"UmiversePaymentV2.sol\":2873:2938  require(msg.sender == owner, \"Only owner can call this function\") */\n      tag_128\n      jumpi\n      mload(0x40)\n      0x08c379a000000000000000000000000000000000000000000000000000000000\n      dup2\n      mstore\n      0x04\n      add\n      tag_129\n      swap1\n      tag_130\n      jump\t// in\n    tag_129:\n      mload(0x40)\n      dup1\n      swap2\n      sub\n      swap1\n      revert\n    tag_128:\n        /* \"UmiversePaymentV2.sol\":4834:4835  0 */\n      0x00\n        /* \"UmiversePaymentV2.sol\":4825:4831  amount */\n      dup2\n        /* \"UmiversePaymentV2.sol\":4825:4835  amount > 0 */\n      gt\n        /* \"UmiversePaymentV2.sol\":4817:4854  require(amount > 0, \"Invalid amount\") */\n      tag_132\n      jumpi\n      mload(0x40)\n      0x08c379a000000000000000000000000000000000000000000000000000000000\n      dup2\n      mstore\n      0x04\n      add\n      tag_133\n      swap1\n      tag_134\n      jump\t// in\n    tag_133:\n      mload(0x40)\n      dup1\n      swap2\n      sub\n      swap1\n      revert\n    tag_132:\n        /* \"UmiversePaymentV2.sol\":4872:4877  token */\n      dup2\n        /* \"UmiversePaymentV2.sol\":4872:4886  token.transfer */\n      0xffffffffffffffffffffffffffffffffffffffff\n      and\n      0xa9059cbb\n        /* \"UmiversePaymentV2.sol\":4887:4892  owner */\n      0x00\n      dup1\n      sload\n      swap1\n      0x0100\n      exp\n      swap1\n      div\n      0xffffffffffffffffffffffffffffffffffffffff\n      and\n        /* \"UmiversePaymentV2.sol\":4894:4900  amount */\n      dup4\n        /* \"UmiversePaymentV2.sol\":4872:4901  token.transfer(owner, amount) */\n      mload(0x40)\n      dup4\n      0xffffffff\n      and\n      0xe0\n      shl\n      dup2\n      mstore\n      0x04\n      add\n      tag_135\n      swap3\n      swap2\n      swap1\n      tag_136\n      jump\t// in\n    tag_135:\n      0x20\n      mload(0x40)\n      dup1\n      dup4\n      sub\n      dup2\n      0x00\n      dup8\n      gas\n      call\n      iszero\n      dup1\n      iszero\n      tag_138\n      jumpi\n      returndatasize\n      0x00\n      dup1\n      returndatacopy\n      revert(0x00, returndatasize)\n    tag_138:\n      pop\n      pop\n      pop\n      pop\n      mload(0x40)\n      returndatasize\n      not(0x1f)\n      0x1f\n      dup3\n      add\n      and\n      dup3\n      add\n      dup1\n      0x40\n      mstore\n      pop\n      dup2\n      add\n      swap1\n      tag_139\n      swap2\n      swap1\n      tag_140\n      jump\t// in\n    tag_139:\n        /* \"UmiversePaymentV2.sol\":4864:4927  require(token.transfer(owner, amount), \"Token transfer failed\") */\n      tag_141\n      jumpi\n      mload(0x40)\n      0x08c379a000000000000000000000000000000000000000000000000000000000\n      dup2\n      mstore\n      0x04\n      add\n      tag_142\n      swap1\n      tag_143\n      jump\t// in\n    tag_142:\n      mload(0x40)\n      dup1\n      swap2\n      sub\n      swap1\n      revert\n    tag_141:\n        /* \"UmiversePaymentV2.sol\":4942:4965  TokensWithdrawn(amount) */\n      0x9c6393f251205f9e03559951cab4c9ae71767b6174f77944a5b0c2fa51fbda9f\n        /* \"UmiversePaymentV2.sol\":4958:4964  amount */\n      dup2\n        /* \"UmiversePaymentV2.sol\":4942:4965  TokensWithdrawn(amount) */\n      mload(0x40)\n      tag_144\n      swap2\n      swap1\n      tag_49\n      jump\t// in\n    tag_144:\n      mload(0x40)\n      dup1\n      swap2\n      sub\n      swap1\n      log1\n        /* \"UmiversePaymentV2.sol\":4734:4972  function withdrawTokens(IERC20 token, uint256 amount) external onlyOwner {... */\n      pop\n      pop\n      jump\t// out\n        /* \"UmiversePaymentV2.sol\":8004:8316  function isTokenSupported(string memory token) public pure returns (bool) {... */\n    tag_39:\n        /* \"UmiversePaymentV2.sol\":8072:8076  bool */\n      0x00\n        /* \"UmiversePaymentV2.sol\":8096:8125  compareStrings(token, \"usdt\") */\n      tag_146\n        /* \"UmiversePaymentV2.sol\":8111:8116  token */\n      dup3\n        /* \"UmiversePaymentV2.sol\":8096:8125  compareStrings(token, \"usdt\") */\n      mload(0x40)\n      dup1\n      0x40\n      add\n      0x40\n      mstore\n      dup1\n      0x04\n      dup2\n      mstore\n      0x20\n      add\n      0x7573647400000000000000000000000000000000000000000000000000000000\n      dup2\n      mstore\n      pop\n        /* \"UmiversePaymentV2.sol\":8096:8110  compareStrings */\n      tag_147\n        /* \"UmiversePaymentV2.sol\":8096:8125  compareStrings(token, \"usdt\") */\n      jump\t// in\n    tag_146:\n        /* \"UmiversePaymentV2.sol\":8096:8170  compareStrings(token, \"usdt\") ||... */\n      dup1\n      tag_148\n      jumpi\n      pop\n        /* \"UmiversePaymentV2.sol\":8141:8170  compareStrings(token, \"usdc\") */\n      tag_149\n        /* \"UmiversePaymentV2.sol\":8156:8161  token */\n      dup3\n        /* \"UmiversePaymentV2.sol\":8141:8170  compareStrings(token, \"usdc\") */\n      mload(0x40)\n      dup1\n      0x40\n      add\n      0x40\n      mstore\n      dup1\n      0x04\n      dup2\n      mstore\n      0x20\n      add\n      0x7573646300000000000000000000000000000000000000000000000000000000\n      dup2\n      mstore\n      pop\n        /* \"UmiversePaymentV2.sol\":8141:8155  compareStrings */\n      tag_147\n        /* \"UmiversePaymentV2.sol\":8141:8170  compareStrings(token, \"usdc\") */\n      jump\t// in\n    tag_149:\n        /* \"UmiversePaymentV2.sol\":8096:8170  compareStrings(token, \"usdt\") ||... */\n    tag_148:\n        /* \"UmiversePaymentV2.sol\":8096:8214  compareStrings(token, \"usdt\") ||... */\n      dup1\n      tag_150\n      jumpi\n      pop\n        /* \"UmiversePaymentV2.sol\":8186:8214  compareStrings(token, \"umi\") */\n      tag_151\n        /* \"UmiversePaymentV2.sol\":8201:8206  token */\n      dup3\n        /* \"UmiversePaymentV2.sol\":8186:8214  compareStrings(token, \"umi\") */\n      mload(0x40)\n      dup1\n      0x40\n      add\n      0x40\n      mstore\n      dup1\n      0x03\n      dup2\n      mstore\n      0x20\n      add\n      0x756d690000000000000000000000000000000000000000000000000000000000\n      dup2\n      mstore\n      pop\n        /* \"UmiversePaymentV2.sol\":8186:8200  compareStrings */\n      tag_147\n        /* \"UmiversePaymentV2.sol\":8186:8214  compareStrings(token, \"umi\") */\n      jump\t// in\n    tag_151:\n        /* \"UmiversePaymentV2.sol\":8096:8214  compareStrings(token, \"usdt\") ||... */\n    tag_150:\n        /* \"UmiversePaymentV2.sol\":8096:8264  compareStrings(token, \"usdt\") ||... */\n      dup1\n      tag_152\n      jumpi\n      pop\n        /* \"UmiversePaymentV2.sol\":8230:8264  compareStrings(token, \"divepoint\") */\n      tag_153\n        /* \"UmiversePaymentV2.sol\":8245:8250  token */\n      dup3\n        /* \"UmiversePaymentV2.sol\":8230:8264  compareStrings(token, \"divepoint\") */\n      mload(0x40)\n      dup1\n      0x40\n      add\n      0x40\n      mstore\n      dup1\n      0x09\n      dup2\n      mstore\n      0x20\n      add\n      0x64697665706f696e740000000000000000000000000000000000000000000000\n      dup2\n      mstore\n      pop\n        /* \"UmiversePaymentV2.sol\":8230:8244  compareStrings */\n      tag_147\n        /* \"UmiversePaymentV2.sol\":8230:8264  compareStrings(token, \"divepoint\") */\n      jump\t// in\n    tag_153:\n        /* \"UmiversePaymentV2.sol\":8096:8264  compareStrings(token, \"usdt\") ||... */\n    tag_152:\n        /* \"UmiversePaymentV2.sol\":8096:8308  compareStrings(token, \"usdt\") ||... */\n      dup1\n      tag_154\n      jumpi\n      pop\n        /* \"UmiversePaymentV2.sol\":8280:8308  compareStrings(token, \"eth\") */\n      tag_155\n        /* \"UmiversePaymentV2.sol\":8295:8300  token */\n      dup3\n        /* \"UmiversePaymentV2.sol\":8280:8308  compareStrings(token, \"eth\") */\n      mload(0x40)\n      dup1\n      0x40\n      add\n      0x40\n      mstore\n      dup1\n      0x03\n      dup2\n      mstore\n      0x20\n      add\n      0x6574680000000000000000000000000000000000000000000000000000000000\n      dup2\n      mstore\n      pop\n        /* \"UmiversePaymentV2.sol\":8280:8294  compareStrings */\n      tag_147\n        /* \"UmiversePaymentV2.sol\":8280:8308  compareStrings(token, \"eth\") */\n      jump\t// in\n    tag_155:\n        /* \"UmiversePaymentV2.sol\":8096:8308  compareStrings(token, \"usdt\") ||... */\n    tag_154:\n        /* \"UmiversePaymentV2.sol\":8088:8309  return (compareStrings(token, \"usdt\") ||... */\n      swap1\n      pop\n        /* \"UmiversePaymentV2.sol\":8004:8316  function isTokenSupported(string memory token) public pure returns (bool) {... */\n      swap2\n      swap1\n      pop\n      jump\t// out\n        /* \"UmiversePaymentV2.sol\":2469:2551  function setEth(address _eth) public onlyOwner {... */\n    tag_45:\n        /* \"UmiversePaymentV2.sol\":2895:2900  owner */\n      0x00\n      dup1\n      sload\n      swap1\n      0x0100\n      exp\n      swap1\n      div\n      0xffffffffffffffffffffffffffffffffffffffff\n      and\n        /* \"UmiversePaymentV2.sol\":2881:2900  msg.sender == owner */\n      0xffffffffffffffffffffffffffffffffffffffff\n      and\n        /* \"UmiversePaymentV2.sol\":2881:2891  msg.sender */\n      caller\n        /* \"UmiversePaymentV2.sol\":2881:2900  msg.sender == owner */\n      0xffffffffffffffffffffffffffffffffffffffff\n      and\n      eq\n        /* \"UmiversePaymentV2.sol\":2873:2938  require(msg.sender == owner, \"Only owner can call this function\") */\n      tag_157\n      jumpi\n      mload(0x40)\n      0x08c379a000000000000000000000000000000000000000000000000000000000\n      dup2\n      mstore\n      0x04\n      add\n      tag_158\n      swap1\n      tag_130\n      jump\t// in\n    tag_158:\n      mload(0x40)\n      dup1\n      swap2\n      sub\n      swap1\n      revert\n    tag_157:\n        /* \"UmiversePaymentV2.sol\":2539:2543  _eth */\n      dup1\n        /* \"UmiversePaymentV2.sol\":2526:2529  eth */\n      0x0a\n      0x00\n        /* \"UmiversePaymentV2.sol\":2526:2544  eth = IERC20(_eth) */\n      0x0100\n      exp\n      dup2\n      sload\n      dup2\n      0xffffffffffffffffffffffffffffffffffffffff\n      mul\n      not\n      and\n      swap1\n      dup4\n      0xffffffffffffffffffffffffffffffffffffffff\n      and\n      mul\n      or\n      swap1\n      sstore\n      pop\n        /* \"UmiversePaymentV2.sol\":2469:2551  function setEth(address _eth) public onlyOwner {... */\n      pop\n      jump\t// out\n        /* \"UmiversePaymentV2.sol\":504:547  uint256 public presaleFeeToRewardFund = 300 */\n    tag_47:\n      sload(0x04)\n      dup2\n      jump\t// out\n        /* \"UmiversePaymentV2.sol\":1299:1329  uint256 public nextOrderId = 1 */\n    tag_51:\n      sload(0x0c)\n      dup2\n      jump\t// out\n        /* \"UmiversePaymentV2.sol\":645:716  IERC20 public usdt = IERC20(0x21b81F2Cc97334031EfAfF3b93d8F846e02Ad0bc) */\n    tag_54:\n      0x07\n      0x00\n      swap1\n      sload\n      swap1\n      0x0100\n      exp\n      swap1\n      div\n      0xffffffffffffffffffffffffffffffffffffffff\n      and\n      dup2\n      jump\t// out\n        /* \"UmiversePaymentV2.sol\":722:793  IERC20 public usdc = IERC20(0x63Eb5CCD29905BDeB83f1889C84d4Bf884038d2F) */\n    tag_58:\n      0x08\n      0x00\n      swap1\n      sload\n      swap1\n      0x0100\n      exp\n      swap1\n      div\n      0xffffffffffffffffffffffffffffffffffffffff\n      and\n      dup2\n      jump\t// out\n        /* \"UmiversePaymentV2.sol\":554:579  address public feeAddress */\n    tag_61:\n      0x05\n      0x00\n      swap1\n      sload\n      swap1\n      0x0100\n      exp\n      swap1\n      div\n      0xffffffffffffffffffffffffffffffffffffffff\n      and\n      dup2\n      jump\t// out\n        /* \"@gelatonetwork/relay-context/contracts/vendor/ERC2771Context.sol\":489:661  function isTrustedForwarder(address forwarder)... */\n    tag_66:\n        /* \"@gelatonetwork/relay-context/contracts/vendor/ERC2771Context.sol\":597:601  bool */\n      0x00\n        /* \"@gelatonetwork/relay-context/contracts/vendor/ERC2771Context.sol\":637:654  _trustedForwarder */\n      immutable(\"0x13600b294191fc92924bb3ce4b969c1e7e2bab8f4c93c3fc6d0a51733df3c060\")\n        /* \"@gelatonetwork/relay-context/contracts/vendor/ERC2771Context.sol\":624:654  forwarder == _trustedForwarder */\n      0xffffffffffffffffffffffffffffffffffffffff\n      and\n        /* \"@gelatonetwork/relay-context/contracts/vendor/ERC2771Context.sol\":624:633  forwarder */\n      dup3\n        /* \"@gelatonetwork/relay-context/contracts/vendor/ERC2771Context.sol\":624:654  forwarder == _trustedForwarder */\n      0xffffffffffffffffffffffffffffffffffffffff\n      and\n      eq\n        /* \"@gelatonetwork/relay-context/contracts/vendor/ERC2771Context.sol\":617:654  return forwarder == _trustedForwarder */\n      swap1\n      pop\n        /* \"@gelatonetwork/relay-context/contracts/vendor/ERC2771Context.sol\":489:661  function isTrustedForwarder(address forwarder)... */\n      swap2\n      swap1\n      pop\n      jump\t// out\n        /* \"UmiversePaymentV2.sol\":2197:2283  function setUsdt(address _usdt) public onlyOwner {... */\n    tag_70:\n        /* \"UmiversePaymentV2.sol\":2895:2900  owner */\n      0x00\n      dup1\n      sload\n      swap1\n      0x0100\n      exp\n      swap1\n      div\n      0xffffffffffffffffffffffffffffffffffffffff\n      and\n        /* \"UmiversePaymentV2.sol\":2881:2900  msg.sender == owner */\n      0xffffffffffffffffffffffffffffffffffffffff\n      and\n        /* \"UmiversePaymentV2.sol\":2881:2891  msg.sender */\n      caller\n        /* \"UmiversePaymentV2.sol\":2881:2900  msg.sender == owner */\n      0xffffffffffffffffffffffffffffffffffffffff\n      and\n      eq\n        /* \"UmiversePaymentV2.sol\":2873:2938  require(msg.sender == owner, \"Only owner can call this function\") */\n      tag_162\n      jumpi\n      mload(0x40)\n      0x08c379a000000000000000000000000000000000000000000000000000000000\n      dup2\n      mstore\n      0x04\n      add\n      tag_163\n      swap1\n      tag_130\n      jump\t// in\n    tag_163:\n      mload(0x40)\n      dup1\n      swap2\n      sub\n      swap1\n      revert\n    tag_162:\n        /* \"UmiversePaymentV2.sol\":2270:2275  _usdt */\n      dup1\n        /* \"UmiversePaymentV2.sol\":2256:2260  usdt */\n      0x07\n      0x00\n        /* \"UmiversePaymentV2.sol\":2256:2276  usdt = IERC20(_usdt) */\n      0x0100\n      exp\n      dup2\n      sload\n      dup2\n      0xffffffffffffffffffffffffffffffffffffffff\n      mul\n      not\n      and\n      swap1\n      dup4\n      0xffffffffffffffffffffffffffffffffffffffff\n      and\n      mul\n      or\n      swap1\n      sstore\n      pop\n        /* \"UmiversePaymentV2.sol\":2197:2283  function setUsdt(address _usdt) public onlyOwner {... */\n      pop\n      jump\t// out\n        /* \"UmiversePaymentV2.sol\":1872:2191  function setFee(... */\n    tag_74:\n        /* \"UmiversePaymentV2.sol\":2895:2900  owner */\n      0x00\n      dup1\n      sload\n      swap1\n      0x0100\n      exp\n      swap1\n      div\n      0xffffffffffffffffffffffffffffffffffffffff\n      and\n        /* \"UmiversePaymentV2.sol\":2881:2900  msg.sender == owner */\n      0xffffffffffffffffffffffffffffffffffffffff\n      and\n        /* \"UmiversePaymentV2.sol\":2881:2891  msg.sender */\n      caller\n        /* \"UmiversePaymentV2.sol\":2881:2900  msg.sender == owner */\n      0xffffffffffffffffffffffffffffffffffffffff\n      and\n      eq\n        /* \"UmiversePaymentV2.sol\":2873:2938  require(msg.sender == owner, \"Only owner can call this function\") */\n      tag_166\n      jumpi\n      mload(0x40)\n      0x08c379a000000000000000000000000000000000000000000000000000000000\n      dup2\n      mstore\n      0x04\n      add\n      tag_167\n      swap1\n      tag_130\n      jump\t// in\n    tag_167:\n      mload(0x40)\n      dup1\n      swap2\n      sub\n      swap1\n      revert\n    tag_166:\n        /* \"UmiversePaymentV2.sol\":2060:2082  _presaleFeeToDeveloper */\n      dup3\n        /* \"UmiversePaymentV2.sol\":2036:2057  presaleFeeToDeveloper */\n      0x02\n        /* \"UmiversePaymentV2.sol\":2036:2082  presaleFeeToDeveloper = _presaleFeeToDeveloper */\n      dup2\n      swap1\n      sstore\n      pop\n        /* \"UmiversePaymentV2.sol\":2110:2126  _presaleFeeToUmi */\n      dup2\n        /* \"UmiversePaymentV2.sol\":2092:2107  presaleFeeToUmi */\n      0x03\n        /* \"UmiversePaymentV2.sol\":2092:2126  presaleFeeToUmi = _presaleFeeToUmi */\n      dup2\n      swap1\n      sstore\n      pop\n        /* \"UmiversePaymentV2.sol\":2161:2184  _presaleFeeToRewardFund */\n      dup1\n        /* \"UmiversePaymentV2.sol\":2136:2158  presaleFeeToRewardFund */\n      0x04\n        /* \"UmiversePaymentV2.sol\":2136:2184  presaleFeeToRewardFund = _presaleFeeToRewardFund */\n      dup2\n      swap1\n      sstore\n      pop\n        /* \"UmiversePaymentV2.sol\":1872:2191  function setFee(... */\n      pop\n      pop\n      pop\n      jump\t// out\n        /* \"UmiversePaymentV2.sol\":379:407  address public signerAddress */\n    tag_76:\n      0x01\n      0x00\n      swap1\n      sload\n      swap1\n      0x0100\n      exp\n      swap1\n      div\n      0xffffffffffffffffffffffffffffffffffffffff\n      and\n      dup2\n      jump\t// out\n        /* \"UmiversePaymentV2.sol\":592:624  address public rewardPoolAddress */\n    tag_79:\n      0x06\n      0x00\n      swap1\n      sload\n      swap1\n      0x0100\n      exp\n      swap1\n      div\n      0xffffffffffffffffffffffffffffffffffffffff\n      and\n      dup2\n      jump\t// out\n        /* \"UmiversePaymentV2.sol\":2571:2836  function config(... */\n    tag_84:\n        /* \"UmiversePaymentV2.sol\":2895:2900  owner */\n      0x00\n      dup1\n      sload\n      swap1\n      0x0100\n      exp\n      swap1\n      div\n      0xffffffffffffffffffffffffffffffffffffffff\n      and\n        /* \"UmiversePaymentV2.sol\":2881:2900  msg.sender == owner */\n      0xffffffffffffffffffffffffffffffffffffffff\n      and\n        /* \"UmiversePaymentV2.sol\":2881:2891  msg.sender */\n      caller\n        /* \"UmiversePaymentV2.sol\":2881:2900  msg.sender == owner */\n      0xffffffffffffffffffffffffffffffffffffffff\n      and\n      eq\n        /* \"UmiversePaymentV2.sol\":2873:2938  require(msg.sender == owner, \"Only owner can call this function\") */\n      tag_170\n      jumpi\n      mload(0x40)\n      0x08c379a000000000000000000000000000000000000000000000000000000000\n      dup2\n      mstore\n      0x04\n      add\n      tag_171\n      swap1\n      tag_130\n      jump\t// in\n    tag_171:\n      mload(0x40)\n      dup1\n      swap2\n      sub\n      swap1\n      revert\n    tag_170:\n        /* \"UmiversePaymentV2.sol\":2730:2741  _feeAddress */\n      dup3\n        /* \"UmiversePaymentV2.sol\":2717:2727  feeAddress */\n      0x05\n      0x00\n        /* \"UmiversePaymentV2.sol\":2717:2741  feeAddress = _feeAddress */\n      0x0100\n      exp\n      dup2\n      sload\n      dup2\n      0xffffffffffffffffffffffffffffffffffffffff\n      mul\n      not\n      and\n      swap1\n      dup4\n      0xffffffffffffffffffffffffffffffffffffffff\n      and\n      mul\n      or\n      swap1\n      sstore\n      pop\n        /* \"UmiversePaymentV2.sol\":2771:2789  _rewardPoolAddress */\n      dup2\n        /* \"UmiversePaymentV2.sol\":2751:2768  rewardPoolAddress */\n      0x06\n      0x00\n        /* \"UmiversePaymentV2.sol\":2751:2789  rewardPoolAddress = _rewardPoolAddress */\n      0x0100\n      exp\n      dup2\n      sload\n      dup2\n      0xffffffffffffffffffffffffffffffffffffffff\n      mul\n      not\n      and\n      swap1\n      dup4\n      0xffffffffffffffffffffffffffffffffffffffff\n      and\n      mul\n      or\n      swap1\n      sstore\n      pop\n        /* \"UmiversePaymentV2.sol\":2815:2829  _signerAddress */\n      dup1\n        /* \"UmiversePaymentV2.sol\":2799:2812  signerAddress */\n      0x01\n      0x00\n        /* \"UmiversePaymentV2.sol\":2799:2829  signerAddress = _signerAddress */\n      0x0100\n      exp\n      dup2\n      sload\n      dup2\n      0xffffffffffffffffffffffffffffffffffffffff\n      mul\n      not\n      and\n      swap1\n      dup4\n      0xffffffffffffffffffffffffffffffffffffffff\n      and\n      mul\n      or\n      swap1\n      sstore\n      pop\n        /* \"UmiversePaymentV2.sol\":2571:2836  function config(... */\n      pop\n      pop\n      pop\n      jump\t// out\n        /* \"UmiversePaymentV2.sol\":2381:2463  function setUmi(address _umi) public onlyOwner {... */\n    tag_87:\n        /* \"UmiversePaymentV2.sol\":2895:2900  owner */\n      0x00\n      dup1\n      sload\n      swap1\n      0x0100\n      exp\n      swap1\n      div\n      0xffffffffffffffffffffffffffffffffffffffff\n      and\n        /* \"UmiversePaymentV2.sol\":2881:2900  msg.sender == owner */\n      0xffffffffffffffffffffffffffffffffffffffff\n      and\n        /* \"UmiversePaymentV2.sol\":2881:2891  msg.sender */\n      caller\n        /* \"UmiversePaymentV2.sol\":2881:2900  msg.sender == owner */\n      0xffffffffffffffffffffffffffffffffffffffff\n      and\n      eq\n        /* \"UmiversePaymentV2.sol\":2873:2938  require(msg.sender == owner, \"Only owner can call this function\") */\n      tag_174\n      jumpi\n      mload(0x40)\n      0x08c379a000000000000000000000000000000000000000000000000000000000\n      dup2\n      mstore\n      0x04\n      add\n      tag_175\n      swap1\n      tag_130\n      jump\t// in\n    tag_175:\n      mload(0x40)\n      dup1\n      swap2\n      sub\n      swap1\n      revert\n    tag_174:\n        /* \"UmiversePaymentV2.sol\":2451:2455  _umi */\n      dup1\n        /* \"UmiversePaymentV2.sol\":2438:2441  umi */\n      0x09\n      0x00\n        /* \"UmiversePaymentV2.sol\":2438:2456  umi = IERC20(_umi) */\n      0x0100\n      exp\n      dup2\n      sload\n      dup2\n      0xffffffffffffffffffffffffffffffffffffffff\n      mul\n      not\n      and\n      swap1\n      dup4\n      0xffffffffffffffffffffffffffffffffffffffff\n      and\n      mul\n      or\n      swap1\n      sstore\n      pop\n        /* \"UmiversePaymentV2.sol\":2381:2463  function setUmi(address _umi) public onlyOwner {... */\n      pop\n      jump\t// out\n        /* \"UmiversePaymentV2.sol\":843:881  IERC20 public eth = IERC20(address(0)) */\n    tag_89:\n      0x0a\n      0x00\n      swap1\n      sload\n      swap1\n      0x0100\n      exp\n      swap1\n      div\n      0xffffffffffffffffffffffffffffffffffffffff\n      and\n      dup2\n      jump\t// out\n        /* \"UmiversePaymentV2.sol\":353:373  address public owner */\n    tag_92:\n      0x00\n      dup1\n      sload\n      swap1\n      0x0100\n      exp\n      swap1\n      div\n      0xffffffffffffffffffffffffffffffffffffffff\n      and\n      dup2\n      jump\t// out\n        /* \"UmiversePaymentV2.sol\":799:837  IERC20 public umi = IERC20(address(0)) */\n    tag_95:\n      0x09\n      0x00\n      swap1\n      sload\n      swap1\n      0x0100\n      exp\n      swap1\n      div\n      0xffffffffffffffffffffffffffffffffffffffff\n      and\n      dup2\n      jump\t// out\n        /* \"UmiversePaymentV2.sol\":7726:7998  function recoverSignerPublic(... */\n    tag_100:\n        /* \"UmiversePaymentV2.sol\":7854:7861  address */\n      0x00\n        /* \"UmiversePaymentV2.sol\":7874:7883  bytes32 r */\n      dup1\n        /* \"UmiversePaymentV2.sol\":7885:7894  bytes32 s */\n      0x00\n        /* \"UmiversePaymentV2.sol\":7896:7903  uint8 v */\n      dup1\n        /* \"UmiversePaymentV2.sol\":7907:7933  splitSignature(_signature) */\n      tag_178\n        /* \"UmiversePaymentV2.sol\":7922:7932  _signature */\n      dup6\n        /* \"UmiversePaymentV2.sol\":7907:7921  splitSignature */\n      tag_179\n        /* \"UmiversePaymentV2.sol\":7907:7933  splitSignature(_signature) */\n      jump\t// in\n    tag_178:\n        /* \"UmiversePaymentV2.sol\":7873:7933  (bytes32 r, bytes32 s, uint8 v) = splitSignature(_signature) */\n      swap3\n      pop\n      swap3\n      pop\n      swap3\n      pop\n        /* \"UmiversePaymentV2.sol\":7950:7991  ecrecover(_ethSignedMessageHash, v, r, s) */\n      0x01\n        /* \"UmiversePaymentV2.sol\":7960:7981  _ethSignedMessageHash */\n      dup7\n        /* \"UmiversePaymentV2.sol\":7983:7984  v */\n      dup3\n        /* \"UmiversePaymentV2.sol\":7986:7987  r */\n      dup6\n        /* \"UmiversePaymentV2.sol\":7989:7990  s */\n      dup6\n        /* \"UmiversePaymentV2.sol\":7950:7991  ecrecover(_ethSignedMessageHash, v, r, s) */\n      mload(0x40)\n      0x00\n      dup2\n      mstore\n      0x20\n      add\n      0x40\n      mstore\n      mload(0x40)\n      tag_180\n      swap5\n      swap4\n      swap3\n      swap2\n      swap1\n      tag_181\n      jump\t// in\n    tag_180:\n      0x20\n      mload(0x40)\n      0x20\n      dup2\n      sub\n      swap1\n      dup1\n      dup5\n      sub\n      swap1\n      dup6\n      gas\n      staticcall\n      iszero\n      dup1\n      iszero\n      tag_183\n      jumpi\n      returndatasize\n      0x00\n      dup1\n      returndatacopy\n      revert(0x00, returndatasize)\n    tag_183:\n      pop\n      pop\n      pop\n      mload(sub(mload(0x40), 0x20))\n        /* \"UmiversePaymentV2.sol\":7943:7991  return ecrecover(_ethSignedMessageHash, v, r, s) */\n      swap4\n      pop\n      pop\n      pop\n      pop\n        /* \"UmiversePaymentV2.sol\":7726:7998  function recoverSignerPublic(... */\n      swap3\n      swap2\n      pop\n      pop\n      jump\t// out\n        /* \"UmiversePaymentV2.sol\":1254:1293  mapping(uint256 => Order) public orders */\n    tag_105:\n      mstore(0x20, 0x0b)\n      dup1\n      0x00\n      mstore\n      keccak256(0x00, 0x40)\n      0x00\n      swap2\n      pop\n      swap1\n      pop\n      dup1\n      0x00\n      add\n      0x00\n      swap1\n      sload\n      swap1\n      0x0100\n      exp\n      swap1\n      div\n      0xffffffffffffffffffffffffffffffffffffffff\n      and\n      swap1\n      dup1\n      0x01\n      add\n      sload\n      swap1\n      dup1\n      0x02\n      add\n      sload\n      swap1\n      dup1\n      0x03\n      add\n      dup1\n      sload\n      tag_184\n      swap1\n      tag_185\n      jump\t// in\n    tag_184:\n      dup1\n      0x1f\n      add\n      0x20\n      dup1\n      swap2\n      div\n      mul\n      0x20\n      add\n      mload(0x40)\n      swap1\n      dup2\n      add\n      0x40\n      mstore\n      dup1\n      swap3\n      swap2\n      swap1\n      dup2\n      dup2\n      mstore\n      0x20\n      add\n      dup3\n      dup1\n      sload\n      tag_186\n      swap1\n      tag_185\n      jump\t// in\n    tag_186:\n      dup1\n      iszero\n      tag_187\n      jumpi\n      dup1\n      0x1f\n      lt\n      tag_188\n      jumpi\n      0x0100\n      dup1\n      dup4\n      sload\n      div\n      mul\n      dup4\n      mstore\n      swap2\n      0x20\n      add\n      swap2\n      jump(tag_187)\n    tag_188:\n      dup3\n      add\n      swap2\n      swap1\n      0x00\n      mstore\n      keccak256(0x00, 0x20)\n      swap1\n    tag_189:\n      dup2\n      sload\n      dup2\n      mstore\n      swap1\n      0x01\n      add\n      swap1\n      0x20\n      add\n      dup1\n      dup4\n      gt\n      tag_189\n      jumpi\n      dup3\n      swap1\n      sub\n      0x1f\n      and\n      dup3\n      add\n      swap2\n    tag_187:\n      pop\n      pop\n      pop\n      pop\n      pop\n      swap1\n      dup1\n      0x04\n      add\n      sload\n      swap1\n      pop\n      dup6\n      jump\t// out\n        /* \"UmiversePaymentV2.sol\":5922:6437  function getMessageHash(... */\n    tag_111:\n        /* \"UmiversePaymentV2.sol\":6136:6143  bytes32 */\n      0x00\n        /* \"UmiversePaymentV2.sol\":6239:6244  _from */\n      dup7\n        /* \"UmiversePaymentV2.sol\":6266:6276  _recipient */\n      dup7\n        /* \"UmiversePaymentV2.sol\":6298:6306  _orderId */\n      dup7\n        /* \"UmiversePaymentV2.sol\":6328:6335  _amount */\n      dup7\n        /* \"UmiversePaymentV2.sol\":6357:6366  priceType */\n      dup7\n        /* \"UmiversePaymentV2.sol\":6388:6398  _timestamp */\n      dup7\n        /* \"UmiversePaymentV2.sol\":6201:6416  abi.encodePacked(... */\n      add(0x20, mload(0x40))\n      tag_191\n      swap7\n      swap6\n      swap5\n      swap4\n      swap3\n      swap2\n      swap1\n      tag_192\n      jump\t// in\n    tag_191:\n      mload(0x40)\n      0x20\n      dup2\n      dup4\n      sub\n      sub\n      dup2\n      mstore\n      swap1\n      0x40\n      mstore\n        /* \"UmiversePaymentV2.sol\":6174:6430  keccak256(... */\n      dup1\n      mload\n      swap1\n      0x20\n      add\n      keccak256\n        /* \"UmiversePaymentV2.sol\":6155:6430  return... */\n      swap1\n      pop\n        /* \"UmiversePaymentV2.sol\":5922:6437  function getMessageHash(... */\n      swap7\n      swap6\n      pop\n      pop\n      pop\n      pop\n      pop\n      pop\n      jump\t// out\n        /* \"UmiversePaymentV2.sol\":2289:2375  function setUsdc(address _usdc) public onlyOwner {... */\n    tag_116:\n        /* \"UmiversePaymentV2.sol\":2895:2900  owner */\n      0x00\n      dup1\n      sload\n      swap1\n      0x0100\n      exp\n      swap1\n      div\n      0xffffffffffffffffffffffffffffffffffffffff\n      and\n        /* \"UmiversePaymentV2.sol\":2881:2900  msg.sender == owner */\n      0xffffffffffffffffffffffffffffffffffffffff\n      and\n        /* \"UmiversePaymentV2.sol\":2881:2891  msg.sender */\n      caller\n        /* \"UmiversePaymentV2.sol\":2881:2900  msg.sender == owner */\n      0xffffffffffffffffffffffffffffffffffffffff\n      and\n      eq\n        /* \"UmiversePaymentV2.sol\":2873:2938  require(msg.sender == owner, \"Only owner can call this function\") */\n      tag_194\n      jumpi\n      mload(0x40)\n      0x08c379a000000000000000000000000000000000000000000000000000000000\n      dup2\n      mstore\n      0x04\n      add\n      tag_195\n      swap1\n      tag_130\n      jump\t// in\n    tag_195:\n      mload(0x40)\n      dup1\n      swap2\n      sub\n      swap1\n      revert\n    tag_194:\n        /* \"UmiversePaymentV2.sol\":2362:2367  _usdc */\n      dup1\n        /* \"UmiversePaymentV2.sol\":2348:2352  usdc */\n      0x08\n      0x00\n        /* \"UmiversePaymentV2.sol\":2348:2368  usdc = IERC20(_usdc) */\n      0x0100\n      exp\n      dup2\n      sload\n      dup2\n      0xffffffffffffffffffffffffffffffffffffffff\n      mul\n      not\n      and\n      swap1\n      dup4\n      0xffffffffffffffffffffffffffffffffffffffff\n      and\n      mul\n      or\n      swap1\n      sstore\n      pop\n        /* \"UmiversePaymentV2.sol\":2289:2375  function setUsdc(address _usdc) public onlyOwner {... */\n      pop\n      jump\t// out\n        /* \"UmiversePaymentV2.sol\":414:456  uint256 public presaleFeeToDeveloper = 490 */\n    tag_118:\n      sload(0x02)\n      dup2\n      jump\t// out\n        /* \"UmiversePaymentV2.sol\":462:498  uint256 public presaleFeeToUmi = 210 */\n    tag_121:\n      sload(0x03)\n      dup2\n      jump\t// out\n        /* \"UmiversePaymentV2.sol\":2962:4728  function sendPayment(... */\n    tag_126:\n        /* \"UmiversePaymentV2.sol\":1744:1774  isTrustedForwarder(msg.sender) */\n      tag_198\n        /* \"UmiversePaymentV2.sol\":1763:1773  msg.sender */\n      caller\n        /* \"UmiversePaymentV2.sol\":1744:1762  isTrustedForwarder */\n      tag_66\n        /* \"UmiversePaymentV2.sol\":1744:1774  isTrustedForwarder(msg.sender) */\n      jump\t// in\n    tag_198:\n        /* \"UmiversePaymentV2.sol\":1723:1834  require(... */\n      tag_199\n      jumpi\n      mload(0x40)\n      0x08c379a000000000000000000000000000000000000000000000000000000000\n      dup2\n      mstore\n      0x04\n      add\n      tag_200\n      swap1\n      tag_201\n      jump\t// in\n    tag_200:\n      mload(0x40)\n      dup1\n      swap2\n      sub\n      swap1\n      revert\n    tag_199:\n        /* \"UmiversePaymentV2.sol\":3239:3240  0 */\n      0x00\n        /* \"UmiversePaymentV2.sol\":3230:3236  amount */\n      dup5\n        /* \"UmiversePaymentV2.sol\":3230:3240  amount > 0 */\n      gt\n        /* \"UmiversePaymentV2.sol\":3222:3259  require(amount > 0, \"Invalid amount\") */\n      tag_203\n      jumpi\n      mload(0x40)\n      0x08c379a000000000000000000000000000000000000000000000000000000000\n      dup2\n      mstore\n      0x04\n      add\n      tag_204\n      swap1\n      tag_134\n      jump\t// in\n    tag_204:\n      mload(0x40)\n      dup1\n      swap2\n      sub\n      swap1\n      revert\n    tag_203:\n        /* \"UmiversePaymentV2.sol\":3293:3294  0 */\n      0x00\n        /* \"UmiversePaymentV2.sol\":3277:3295  from != address(0) */\n      0xffffffffffffffffffffffffffffffffffffffff\n      and\n        /* \"UmiversePaymentV2.sol\":3277:3281  from */\n      dup8\n        /* \"UmiversePaymentV2.sol\":3277:3295  from != address(0) */\n      0xffffffffffffffffffffffffffffffffffffffff\n      and\n      sub\n        /* \"UmiversePaymentV2.sol\":3269:3328  require(from != address(0), \"CV: from to the zero address\") */\n      tag_205\n      jumpi\n      mload(0x40)\n      0x08c379a000000000000000000000000000000000000000000000000000000000\n      dup2\n      mstore\n      0x04\n      add\n      tag_206\n      swap1\n      tag_207\n      jump\t// in\n    tag_206:\n      mload(0x40)\n      dup1\n      swap2\n      sub\n      swap1\n      revert\n    tag_205:\n        /* \"UmiversePaymentV2.sol\":3359:3561  verify(... */\n      tag_208\n        /* \"UmiversePaymentV2.sol\":3383:3387  from */\n      dup8\n        /* \"UmiversePaymentV2.sol\":3405:3414  recipient */\n      dup8\n        /* \"UmiversePaymentV2.sol\":3432:3439  orderId */\n      dup8\n        /* \"UmiversePaymentV2.sol\":3457:3463  amount */\n      dup8\n        /* \"UmiversePaymentV2.sol\":3481:3491  _priceType */\n      dup8\n        /* \"UmiversePaymentV2.sol\":3509:3519  _timestamp */\n      dup8\n        /* \"UmiversePaymentV2.sol\":3537:3547  _signature */\n      dup8\n        /* \"UmiversePaymentV2.sol\":3359:3365  verify */\n      tag_209\n        /* \"UmiversePaymentV2.sol\":3359:3561  verify(... */\n      jump\t// in\n    tag_208:\n        /* \"UmiversePaymentV2.sol\":3338:3609  require(... */\n      tag_210\n      jumpi\n      mload(0x40)\n      0x08c379a000000000000000000000000000000000000000000000000000000000\n      dup2\n      mstore\n      0x04\n      add\n      tag_211\n      swap1\n      tag_212\n      jump\t// in\n    tag_211:\n      mload(0x40)\n      dup1\n      swap2\n      sub\n      swap1\n      revert\n    tag_210:\n        /* \"UmiversePaymentV2.sol\":3620:3636  IERC20 sendToken */\n      0x00\n        /* \"UmiversePaymentV2.sol\":3659:3660  0 */\n      dup1\n        /* \"UmiversePaymentV2.sol\":3650:3656  amount */\n      dup6\n        /* \"UmiversePaymentV2.sol\":3650:3660  amount > 0 */\n      gt\n        /* \"UmiversePaymentV2.sol\":3646:4461  if (amount > 0) {... */\n      iszero\n      tag_213\n      jumpi\n        /* \"UmiversePaymentV2.sol\":3680:3714  compareStrings(_priceType, \"usdt\") */\n      tag_214\n        /* \"UmiversePaymentV2.sol\":3695:3705  _priceType */\n      dup5\n        /* \"UmiversePaymentV2.sol\":3680:3714  compareStrings(_priceType, \"usdt\") */\n      mload(0x40)\n      dup1\n      0x40\n      add\n      0x40\n      mstore\n      dup1\n      0x04\n      dup2\n      mstore\n      0x20\n      add\n      0x7573647400000000000000000000000000000000000000000000000000000000\n      dup2\n      mstore\n      pop\n        /* \"UmiversePaymentV2.sol\":3680:3694  compareStrings */\n      tag_147\n        /* \"UmiversePaymentV2.sol\":3680:3714  compareStrings(_priceType, \"usdt\") */\n      jump\t// in\n    tag_214:\n        /* \"UmiversePaymentV2.sol\":3676:3846  if (compareStrings(_priceType, \"usdt\")) {... */\n      iszero\n      tag_215\n      jumpi\n        /* \"UmiversePaymentV2.sol\":3767:3768  0 */\n      0x00\n        /* \"UmiversePaymentV2.sol\":3742:3769  address(usdt) != address(0) */\n      0xffffffffffffffffffffffffffffffffffffffff\n      and\n        /* \"UmiversePaymentV2.sol\":3750:3754  usdt */\n      0x07\n      0x00\n      swap1\n      sload\n      swap1\n      0x0100\n      exp\n      swap1\n      div\n      0xffffffffffffffffffffffffffffffffffffffff\n      and\n        /* \"UmiversePaymentV2.sol\":3742:3769  address(usdt) != address(0) */\n      0xffffffffffffffffffffffffffffffffffffffff\n      and\n      sub\n        /* \"UmiversePaymentV2.sol\":3734:3797  require(address(usdt) != address(0), \"usdt address not config\") */\n      tag_216\n      jumpi\n      mload(0x40)\n      0x08c379a000000000000000000000000000000000000000000000000000000000\n      dup2\n      mstore\n      0x04\n      add\n      tag_217\n      swap1\n      tag_218\n      jump\t// in\n    tag_217:\n      mload(0x40)\n      dup1\n      swap2\n      sub\n      swap1\n      revert\n    tag_216:\n        /* \"UmiversePaymentV2.sol\":3827:3831  usdt */\n      0x07\n      0x00\n      swap1\n      sload\n      swap1\n      0x0100\n      exp\n      swap1\n      div\n      0xffffffffffffffffffffffffffffffffffffffff\n      and\n        /* \"UmiversePaymentV2.sol\":3815:3831  sendToken = usdt */\n      swap1\n      pop\n        /* \"UmiversePaymentV2.sol\":3676:3846  if (compareStrings(_priceType, \"usdt\")) {... */\n    tag_215:\n        /* \"UmiversePaymentV2.sol\":3863:3897  compareStrings(_priceType, \"usdc\") */\n      tag_219\n        /* \"UmiversePaymentV2.sol\":3878:3888  _priceType */\n      dup5\n        /* \"UmiversePaymentV2.sol\":3863:3897  compareStrings(_priceType, \"usdc\") */\n      mload(0x40)\n      dup1\n      0x40\n      add\n      0x40\n      mstore\n      dup1\n      0x04\n      dup2\n      mstore\n      0x20\n      add\n      0x7573646300000000000000000000000000000000000000000000000000000000\n      dup2\n      mstore\n      pop\n        /* \"UmiversePaymentV2.sol\":3863:3877  compareStrings */\n      tag_147\n        /* \"UmiversePaymentV2.sol\":3863:3897  compareStrings(_priceType, \"usdc\") */\n      jump\t// in\n    tag_219:\n        /* \"UmiversePaymentV2.sol\":3859:4029  if (compareStrings(_priceType, \"usdc\")) {... */\n      iszero\n      tag_220\n      jumpi\n        /* \"UmiversePaymentV2.sol\":3950:3951  0 */\n      0x00\n        /* \"UmiversePaymentV2.sol\":3925:3952  address(usdc) != address(0) */\n      0xffffffffffffffffffffffffffffffffffffffff\n      and\n        /* \"UmiversePaymentV2.sol\":3933:3937  usdc */\n      0x08\n      0x00\n      swap1\n      sload\n      swap1\n      0x0100\n      exp\n      swap1\n      div\n      0xffffffffffffffffffffffffffffffffffffffff\n      and\n        /* \"UmiversePaymentV2.sol\":3925:3952  address(usdc) != address(0) */\n      0xffffffffffffffffffffffffffffffffffffffff\n      and\n      sub\n        /* \"UmiversePaymentV2.sol\":3917:3980  require(address(usdc) != address(0), \"usdc address not config\") */\n      tag_221\n      jumpi\n      mload(0x40)\n      0x08c379a000000000000000000000000000000000000000000000000000000000\n      dup2\n      mstore\n      0x04\n      add\n      tag_222\n      swap1\n      tag_223\n      jump\t// in\n    tag_222:\n      mload(0x40)\n      dup1\n      swap2\n      sub\n      swap1\n      revert\n    tag_221:\n        /* \"UmiversePaymentV2.sol\":4010:4014  usdc */\n      0x08\n      0x00\n      swap1\n      sload\n      swap1\n      0x0100\n      exp\n      swap1\n      div\n      0xffffffffffffffffffffffffffffffffffffffff\n      and\n        /* \"UmiversePaymentV2.sol\":3998:4014  sendToken = usdc */\n      swap1\n      pop\n        /* \"UmiversePaymentV2.sol\":3859:4029  if (compareStrings(_priceType, \"usdc\")) {... */\n    tag_220:\n        /* \"UmiversePaymentV2.sol\":4047:4080  compareStrings(_priceType, \"eth\") */\n      tag_224\n        /* \"UmiversePaymentV2.sol\":4062:4072  _priceType */\n      dup5\n        /* \"UmiversePaymentV2.sol\":4047:4080  compareStrings(_priceType, \"eth\") */\n      mload(0x40)\n      dup1\n      0x40\n      add\n      0x40\n      mstore\n      dup1\n      0x03\n      dup2\n      mstore\n      0x20\n      add\n      0x6574680000000000000000000000000000000000000000000000000000000000\n      dup2\n      mstore\n      pop\n        /* \"UmiversePaymentV2.sol\":4047:4061  compareStrings */\n      tag_147\n        /* \"UmiversePaymentV2.sol\":4047:4080  compareStrings(_priceType, \"eth\") */\n      jump\t// in\n    tag_224:\n        /* \"UmiversePaymentV2.sol\":4043:4209  if (compareStrings(_priceType, \"eth\")) {... */\n      iszero\n      tag_225\n      jumpi\n        /* \"UmiversePaymentV2.sol\":4132:4133  0 */\n      0x00\n        /* \"UmiversePaymentV2.sol\":4108:4134  address(eth) != address(0) */\n      0xffffffffffffffffffffffffffffffffffffffff\n      and\n        /* \"UmiversePaymentV2.sol\":4116:4119  eth */\n      0x0a\n      0x00\n      swap1\n      sload\n      swap1\n      0x0100\n      exp\n      swap1\n      div\n      0xffffffffffffffffffffffffffffffffffffffff\n      and\n        /* \"UmiversePaymentV2.sol\":4108:4134  address(eth) != address(0) */\n      0xffffffffffffffffffffffffffffffffffffffff\n      and\n      sub\n        /* \"UmiversePaymentV2.sol\":4100:4161  require(address(eth) != address(0), \"eth address not config\") */\n      tag_226\n      jumpi\n      mload(0x40)\n      0x08c379a000000000000000000000000000000000000000000000000000000000\n      dup2\n      mstore\n      0x04\n      add\n      tag_227\n      swap1\n      tag_228\n      jump\t// in\n    tag_227:\n      mload(0x40)\n      dup1\n      swap2\n      sub\n      swap1\n      revert\n    tag_226:\n        /* \"UmiversePaymentV2.sol\":4191:4194  eth */\n      0x0a\n      0x00\n      swap1\n      sload\n      swap1\n      0x0100\n      exp\n      swap1\n      div\n      0xffffffffffffffffffffffffffffffffffffffff\n      and\n        /* \"UmiversePaymentV2.sol\":4179:4194  sendToken = eth */\n      swap1\n      pop\n        /* \"UmiversePaymentV2.sol\":4043:4209  if (compareStrings(_priceType, \"eth\")) {... */\n    tag_225:\n        /* \"UmiversePaymentV2.sol\":4227:4260  compareStrings(_priceType, \"umi\") */\n      tag_229\n        /* \"UmiversePaymentV2.sol\":4242:4252  _priceType */\n      dup5\n        /* \"UmiversePaymentV2.sol\":4227:4260  compareStrings(_priceType, \"umi\") */\n      mload(0x40)\n      dup1\n      0x40\n      add\n      0x40\n      mstore\n      dup1\n      0x03\n      dup2\n      mstore\n      0x20\n      add\n      0x756d690000000000000000000000000000000000000000000000000000000000\n      dup2\n      mstore\n      pop\n        /* \"UmiversePaymentV2.sol\":4227:4241  compareStrings */\n      tag_147\n        /* \"UmiversePaymentV2.sol\":4227:4260  compareStrings(_priceType, \"umi\") */\n      jump\t// in\n    tag_229:\n        /* \"UmiversePaymentV2.sol\":4223:4389  if (compareStrings(_priceType, \"umi\")) {... */\n      iszero\n      tag_230\n      jumpi\n        /* \"UmiversePaymentV2.sol\":4312:4313  0 */\n      0x00\n        /* \"UmiversePaymentV2.sol\":4288:4314  address(umi) != address(0) */\n      0xffffffffffffffffffffffffffffffffffffffff\n      and\n        /* \"UmiversePaymentV2.sol\":4296:4299  umi */\n      0x09\n      0x00\n      swap1\n      sload\n      swap1\n      0x0100\n      exp\n      swap1\n      div\n      0xffffffffffffffffffffffffffffffffffffffff\n      and\n        /* \"UmiversePaymentV2.sol\":4288:4314  address(umi) != address(0) */\n      0xffffffffffffffffffffffffffffffffffffffff\n      and\n      sub\n        /* \"UmiversePaymentV2.sol\":4280:4341  require(address(umi) != address(0), \"umi address not config\") */\n      tag_231\n      jumpi\n      mload(0x40)\n      0x08c379a000000000000000000000000000000000000000000000000000000000\n      dup2\n      mstore\n      0x04\n      add\n      tag_232\n      swap1\n      tag_233\n      jump\t// in\n    tag_232:\n      mload(0x40)\n      dup1\n      swap2\n      sub\n      swap1\n      revert\n    tag_231:\n        /* \"UmiversePaymentV2.sol\":4371:4374  umi */\n      0x09\n      0x00\n      swap1\n      sload\n      swap1\n      0x0100\n      exp\n      swap1\n      div\n      0xffffffffffffffffffffffffffffffffffffffff\n      and\n        /* \"UmiversePaymentV2.sol\":4359:4374  sendToken = umi */\n      swap1\n      pop\n        /* \"UmiversePaymentV2.sol\":4223:4389  if (compareStrings(_priceType, \"umi\")) {... */\n    tag_230:\n        /* \"UmiversePaymentV2.sol\":4402:4450  processTrade(sendToken, from, recipient, amount) */\n      tag_234\n        /* \"UmiversePaymentV2.sol\":4415:4424  sendToken */\n      dup2\n        /* \"UmiversePaymentV2.sol\":4426:4430  from */\n      dup10\n        /* \"UmiversePaymentV2.sol\":4432:4441  recipient */\n      dup10\n        /* \"UmiversePaymentV2.sol\":4443:4449  amount */\n      dup9\n        /* \"UmiversePaymentV2.sol\":4402:4414  processTrade */\n      tag_235\n        /* \"UmiversePaymentV2.sol\":4402:4450  processTrade(sendToken, from, recipient, amount) */\n      jump\t// in\n    tag_234:\n        /* \"UmiversePaymentV2.sol\":3646:4461  if (amount > 0) {... */\n    tag_213:\n        /* \"UmiversePaymentV2.sol\":4489:4616  Order(... */\n      mload(0x40)\n      dup1\n      0xa0\n      add\n      0x40\n      mstore\n      dup1\n        /* \"UmiversePaymentV2.sol\":4508:4517  recipient */\n      dup9\n        /* \"UmiversePaymentV2.sol\":4489:4616  Order(... */\n      0xffffffffffffffffffffffffffffffffffffffff\n      and\n      dup2\n      mstore\n      0x20\n      add\n        /* \"UmiversePaymentV2.sol\":4531:4538  orderId */\n      dup8\n        /* \"UmiversePaymentV2.sol\":4489:4616  Order(... */\n      dup2\n      mstore\n      0x20\n      add\n        /* \"UmiversePaymentV2.sol\":4552:4558  amount */\n      dup7\n        /* \"UmiversePaymentV2.sol\":4489:4616  Order(... */\n      dup2\n      mstore\n      0x20\n      add\n        /* \"UmiversePaymentV2.sol\":4572:4582  _priceType */\n      dup6\n        /* \"UmiversePaymentV2.sol\":4489:4616  Order(... */\n      dup2\n      mstore\n      0x20\n      add\n        /* \"UmiversePaymentV2.sol\":4596:4606  _timestamp */\n      dup5\n        /* \"UmiversePaymentV2.sol\":4489:4616  Order(... */\n      dup2\n      mstore\n      pop\n        /* \"UmiversePaymentV2.sol\":4471:4477  orders */\n      0x0b\n        /* \"UmiversePaymentV2.sol\":4471:4486  orders[orderId] */\n      0x00\n        /* \"UmiversePaymentV2.sol\":4478:4485  orderId */\n      dup9\n        /* \"UmiversePaymentV2.sol\":4471:4486  orders[orderId] */\n      dup2\n      mstore\n      0x20\n      add\n      swap1\n      dup2\n      mstore\n      0x20\n      add\n      0x00\n      keccak256\n        /* \"UmiversePaymentV2.sol\":4471:4616  orders[orderId] = Order(... */\n      0x00\n      dup3\n      add\n      mload\n      dup2\n      0x00\n      add\n      exp(0x0100, 0x00)\n      dup2\n      sload\n      dup2\n      0xffffffffffffffffffffffffffffffffffffffff\n      mul\n      not\n      and\n      swap1\n      dup4\n      0xffffffffffffffffffffffffffffffffffffffff\n      and\n      mul\n      or\n      swap1\n      sstore\n      pop\n      0x20\n      dup3\n      add\n      mload\n      dup2\n      0x01\n      add\n      sstore\n      0x40\n      dup3\n      add\n      mload\n      dup2\n      0x02\n      add\n      sstore\n      0x60\n      dup3\n      add\n      mload\n      dup2\n      0x03\n      add\n      swap1\n      dup2\n      tag_236\n      swap2\n      swap1\n      tag_237\n      jump\t// in\n    tag_236:\n      pop\n      0x80\n      dup3\n      add\n      mload\n      dup2\n      0x04\n      add\n      sstore\n      swap1\n      pop\n      pop\n        /* \"UmiversePaymentV2.sol\":4641:4642  1 */\n      0x01\n        /* \"UmiversePaymentV2.sol\":4626:4637  nextOrderId */\n      0x0c\n      0x00\n        /* \"UmiversePaymentV2.sol\":4626:4642  nextOrderId += 1 */\n      dup3\n      dup3\n      sload\n      tag_238\n      swap2\n      swap1\n      tag_239\n      jump\t// in\n    tag_238:\n      swap3\n      pop\n      pop\n      dup2\n      swap1\n      sstore\n      pop\n        /* \"UmiversePaymentV2.sol\":4670:4679  recipient */\n      dup7\n        /* \"UmiversePaymentV2.sol\":4658:4721  PaymentSent(recipient, orderId, amount, _priceType, _signature) */\n      0xffffffffffffffffffffffffffffffffffffffff\n      and\n      0x767f580fbd26b93b2d869747edc8fb17bfd4888aa055a655ee2d25eac1e77b45\n        /* \"UmiversePaymentV2.sol\":4681:4688  orderId */\n      dup8\n        /* \"UmiversePaymentV2.sol\":4690:4696  amount */\n      dup8\n        /* \"UmiversePaymentV2.sol\":4698:4708  _priceType */\n      dup8\n        /* \"UmiversePaymentV2.sol\":4710:4720  _signature */\n      dup7\n        /* \"UmiversePaymentV2.sol\":4658:4721  PaymentSent(recipient, orderId, amount, _priceType, _signature) */\n      mload(0x40)\n      tag_240\n      swap5\n      swap4\n      swap3\n      swap2\n      swap1\n      tag_241\n      jump\t// in\n    tag_240:\n      mload(0x40)\n      dup1\n      swap2\n      sub\n      swap1\n      log2\n        /* \"UmiversePaymentV2.sol\":3212:4728  {... */\n      pop\n        /* \"UmiversePaymentV2.sol\":2962:4728  function sendPayment(... */\n      pop\n      pop\n      pop\n      pop\n      pop\n      pop\n      pop\n      jump\t// out\n        /* \"UmiversePaymentV2.sol\":8322:8539  function compareStrings(string memory a, string memory b)... */\n    tag_147:\n        /* \"UmiversePaymentV2.sol\":8427:8431  bool */\n      0x00\n        /* \"UmiversePaymentV2.sol\":8528:8529  b */\n      dup2\n        /* \"UmiversePaymentV2.sol\":8511:8530  abi.encodePacked(b) */\n      add(0x20, mload(0x40))\n      tag_243\n      swap2\n      swap1\n      tag_244\n      jump\t// in\n    tag_243:\n      mload(0x40)\n      0x20\n      dup2\n      dup4\n      sub\n      sub\n      dup2\n      mstore\n      swap1\n      0x40\n      mstore\n        /* \"UmiversePaymentV2.sol\":8501:8531  keccak256(abi.encodePacked(b)) */\n      dup1\n      mload\n      swap1\n      0x20\n      add\n      keccak256\n        /* \"UmiversePaymentV2.sol\":8482:8483  a */\n      dup4\n        /* \"UmiversePaymentV2.sol\":8465:8484  abi.encodePacked(a) */\n      add(0x20, mload(0x40))\n      tag_245\n      swap2\n      swap1\n      tag_244\n      jump\t// in\n    tag_245:\n      mload(0x40)\n      0x20\n      dup2\n      dup4\n      sub\n      sub\n      dup2\n      mstore\n      swap1\n      0x40\n      mstore\n        /* \"UmiversePaymentV2.sol\":8455:8485  keccak256(abi.encodePacked(a)) */\n      dup1\n      mload\n      swap1\n      0x20\n      add\n      keccak256\n        /* \"UmiversePaymentV2.sol\":8455:8531  keccak256(abi.encodePacked(a)) ==... */\n      eq\n        /* \"UmiversePaymentV2.sol\":8447:8532  return (keccak256(abi.encodePacked(a)) ==... */\n      swap1\n      pop\n        /* \"UmiversePaymentV2.sol\":8322:8539  function compareStrings(string memory a, string memory b)... */\n      swap3\n      swap2\n      pop\n      pop\n      jump\t// out\n        /* \"UmiversePaymentV2.sol\":8545:8934  function splitSignature(bytes memory sig)... */\n    tag_179:\n        /* \"UmiversePaymentV2.sol\":8647:8656  bytes32 r */\n      0x00\n        /* \"UmiversePaymentV2.sol\":8670:8679  bytes32 s */\n      dup1\n        /* \"UmiversePaymentV2.sol\":8693:8700  uint8 v */\n      0x00\n        /* \"UmiversePaymentV2.sol\":8747:8749  65 */\n      0x41\n        /* \"UmiversePaymentV2.sol\":8733:8736  sig */\n      dup5\n        /* \"UmiversePaymentV2.sol\":8733:8743  sig.length */\n      mload\n        /* \"UmiversePaymentV2.sol\":8733:8749  sig.length == 65 */\n      eq\n        /* \"UmiversePaymentV2.sol\":8725:8778  require(sig.length == 65, \"invalid signature length\") */\n      tag_247\n      jumpi\n      mload(0x40)\n      0x08c379a000000000000000000000000000000000000000000000000000000000\n      dup2\n      mstore\n      0x04\n      add\n      tag_248\n      swap1\n      tag_249\n      jump\t// in\n    tag_248:\n      mload(0x40)\n      dup1\n      swap2\n      sub\n      swap1\n      revert\n    tag_247:\n        /* \"UmiversePaymentV2.sol\":8831:8833  32 */\n      0x20\n        /* \"UmiversePaymentV2.sol\":8826:8829  sig */\n      dup5\n        /* \"UmiversePaymentV2.sol\":8822:8834  add(sig, 32) */\n      add\n        /* \"UmiversePaymentV2.sol\":8816:8835  mload(add(sig, 32)) */\n      mload\n        /* \"UmiversePaymentV2.sol\":8811:8835  r := mload(add(sig, 32)) */\n      swap3\n      pop\n        /* \"UmiversePaymentV2.sol\":8868:8870  64 */\n      0x40\n        /* \"UmiversePaymentV2.sol\":8863:8866  sig */\n      dup5\n        /* \"UmiversePaymentV2.sol\":8859:8871  add(sig, 64) */\n      add\n        /* \"UmiversePaymentV2.sol\":8853:8872  mload(add(sig, 64)) */\n      mload\n        /* \"UmiversePaymentV2.sol\":8848:8872  s := mload(add(sig, 64)) */\n      swap2\n      pop\n        /* \"UmiversePaymentV2.sol\":8913:8915  96 */\n      0x60\n        /* \"UmiversePaymentV2.sol\":8908:8911  sig */\n      dup5\n        /* \"UmiversePaymentV2.sol\":8904:8916  add(sig, 96) */\n      add\n        /* \"UmiversePaymentV2.sol\":8898:8917  mload(add(sig, 96)) */\n      mload\n        /* \"UmiversePaymentV2.sol\":8895:8896  0 */\n      0x00\n        /* \"UmiversePaymentV2.sol\":8890:8918  byte(0, mload(add(sig, 96))) */\n      byte\n        /* \"UmiversePaymentV2.sol\":8885:8918  v := byte(0, mload(add(sig, 96))) */\n      swap1\n      pop\n        /* \"UmiversePaymentV2.sol\":8545:8934  function splitSignature(bytes memory sig)... */\n      swap2\n      swap4\n      swap1\n      swap3\n      pop\n      jump\t// out\n        /* \"UmiversePaymentV2.sol\":6523:7124  function verify(... */\n    tag_209:\n        /* \"UmiversePaymentV2.sol\":6764:6768  bool */\n      0x00\n        /* \"UmiversePaymentV2.sol\":6780:6799  bytes32 messageHash */\n      dup1\n        /* \"UmiversePaymentV2.sol\":6802:6959  getMessageHash(... */\n      tag_251\n        /* \"UmiversePaymentV2.sol\":6830:6835  _from */\n      dup10\n        /* \"UmiversePaymentV2.sol\":6849:6859  _recipient */\n      dup10\n        /* \"UmiversePaymentV2.sol\":6873:6881  _orderId */\n      dup10\n        /* \"UmiversePaymentV2.sol\":6895:6902  _amount */\n      dup10\n        /* \"UmiversePaymentV2.sol\":6916:6925  priceType */\n      dup10\n        /* \"UmiversePaymentV2.sol\":6939:6949  _timestamp */\n      dup10\n        /* \"UmiversePaymentV2.sol\":6802:6816  getMessageHash */\n      tag_111\n        /* \"UmiversePaymentV2.sol\":6802:6959  getMessageHash(... */\n      jump\t// in\n    tag_251:\n        /* \"UmiversePaymentV2.sol\":6780:6959  bytes32 messageHash = getMessageHash(... */\n      swap1\n      pop\n        /* \"UmiversePaymentV2.sol\":6969:6997  bytes32 ethSignedMessageHash */\n      0x00\n        /* \"UmiversePaymentV2.sol\":7000:7036  getEthSignedMessageHash(messageHash) */\n      tag_252\n        /* \"UmiversePaymentV2.sol\":7024:7035  messageHash */\n      dup3\n        /* \"UmiversePaymentV2.sol\":7000:7023  getEthSignedMessageHash */\n      tag_253\n        /* \"UmiversePaymentV2.sol\":7000:7036  getEthSignedMessageHash(messageHash) */\n      jump\t// in\n    tag_252:\n        /* \"UmiversePaymentV2.sol\":6969:7036  bytes32 ethSignedMessageHash = getEthSignedMessageHash(messageHash) */\n      swap1\n      pop\n        /* \"UmiversePaymentV2.sol\":7104:7117  signerAddress */\n      0x01\n      0x00\n      swap1\n      sload\n      swap1\n      0x0100\n      exp\n      swap1\n      div\n      0xffffffffffffffffffffffffffffffffffffffff\n      and\n        /* \"UmiversePaymentV2.sol\":7053:7117  recoverSigner(ethSignedMessageHash, _signature) == signerAddress */\n      0xffffffffffffffffffffffffffffffffffffffff\n      and\n        /* \"UmiversePaymentV2.sol\":7053:7100  recoverSigner(ethSignedMessageHash, _signature) */\n      tag_254\n        /* \"UmiversePaymentV2.sol\":7067:7087  ethSignedMessageHash */\n      dup3\n        /* \"UmiversePaymentV2.sol\":7089:7099  _signature */\n      dup7\n        /* \"UmiversePaymentV2.sol\":7053:7066  recoverSigner */\n      tag_255\n        /* \"UmiversePaymentV2.sol\":7053:7100  recoverSigner(ethSignedMessageHash, _signature) */\n      jump\t// in\n    tag_254:\n        /* \"UmiversePaymentV2.sol\":7053:7117  recoverSigner(ethSignedMessageHash, _signature) == signerAddress */\n      0xffffffffffffffffffffffffffffffffffffffff\n      and\n      eq\n        /* \"UmiversePaymentV2.sol\":7046:7117  return recoverSigner(ethSignedMessageHash, _signature) == signerAddress */\n      swap3\n      pop\n      pop\n      pop\n        /* \"UmiversePaymentV2.sol\":6523:7124  function verify(... */\n      swap8\n      swap7\n      pop\n      pop\n      pop\n      pop\n      pop\n      pop\n      pop\n      jump\t// out\n        /* \"UmiversePaymentV2.sol\":4978:5902  function processTrade(... */\n    tag_235:\n        /* \"UmiversePaymentV2.sol\":5121:5140  uint256 toDeveloper */\n      0x00\n        /* \"UmiversePaymentV2.sol\":5154:5167  uint256 toUmi */\n      dup1\n        /* \"UmiversePaymentV2.sol\":5181:5201  uint256 toRewardFund */\n      0x00\n        /* \"UmiversePaymentV2.sol\":5215:5220  token */\n      dup7\n        /* \"UmiversePaymentV2.sol\":5215:5233  token.transferFrom */\n      0xffffffffffffffffffffffffffffffffffffffff\n      and\n      0x23b872dd\n        /* \"UmiversePaymentV2.sol\":5234:5240  sender */\n      dup8\n        /* \"UmiversePaymentV2.sol\":5250:5254  this */\n      address\n        /* \"UmiversePaymentV2.sol\":5257:5263  amount */\n      dup8\n        /* \"UmiversePaymentV2.sol\":5215:5264  token.transferFrom(sender, address(this), amount) */\n      mload(0x40)\n      dup5\n      0xffffffff\n      and\n      0xe0\n      shl\n      dup2\n      mstore\n      0x04\n      add\n      tag_257\n      swap4\n      swap3\n      swap2\n      swap1\n      tag_258\n      jump\t// in\n    tag_257:\n      0x20\n      mload(0x40)\n      dup1\n      dup4\n      sub\n      dup2\n      0x00\n      dup8\n      gas\n      call\n      iszero\n      dup1\n      iszero\n      tag_260\n      jumpi\n      returndatasize\n      0x00\n      dup1\n      returndatacopy\n      revert(0x00, returndatasize)\n    tag_260:\n      pop\n      pop\n      pop\n      pop\n      mload(0x40)\n      returndatasize\n      not(0x1f)\n      0x1f\n      dup3\n      add\n      and\n      dup3\n      add\n      dup1\n      0x40\n      mstore\n      pop\n      dup2\n      add\n      swap1\n      tag_261\n      swap2\n      swap1\n      tag_140\n      jump\t// in\n    tag_261:\n      pop\n        /* \"UmiversePaymentV2.sol\":5288:5331  amount.mul(presaleFeeToDeveloper).div(1000) */\n      tag_262\n        /* \"UmiversePaymentV2.sol\":5326:5330  1000 */\n      0x03e8\n        /* \"UmiversePaymentV2.sol\":5288:5321  amount.mul(presaleFeeToDeveloper) */\n      tag_263\n        /* \"UmiversePaymentV2.sol\":5299:5320  presaleFeeToDeveloper */\n      sload(0x02)\n        /* \"UmiversePaymentV2.sol\":5288:5294  amount */\n      dup8\n        /* \"UmiversePaymentV2.sol\":5288:5298  amount.mul */\n      tag_264\n      swap1\n        /* \"UmiversePaymentV2.sol\":5288:5321  amount.mul(presaleFeeToDeveloper) */\n      swap2\n      swap1\n      0xffffffff\n      and\n      jump\t// in\n    tag_263:\n        /* \"UmiversePaymentV2.sol\":5288:5325  amount.mul(presaleFeeToDeveloper).div */\n      tag_265\n      swap1\n        /* \"UmiversePaymentV2.sol\":5288:5331  amount.mul(presaleFeeToDeveloper).div(1000) */\n      swap2\n      swap1\n      0xffffffff\n      and\n      jump\t// in\n    tag_262:\n        /* \"UmiversePaymentV2.sol\":5274:5331  toDeveloper = amount.mul(presaleFeeToDeveloper).div(1000) */\n      swap3\n      pop\n        /* \"UmiversePaymentV2.sol\":5349:5386  amount.mul(presaleFeeToUmi).div(1000) */\n      tag_266\n        /* \"UmiversePaymentV2.sol\":5381:5385  1000 */\n      0x03e8\n        /* \"UmiversePaymentV2.sol\":5349:5376  amount.mul(presaleFeeToUmi) */\n      tag_267\n        /* \"UmiversePaymentV2.sol\":5360:5375  presaleFeeToUmi */\n      sload(0x03)\n        /* \"UmiversePaymentV2.sol\":5349:5355  amount */\n      dup8\n        /* \"UmiversePaymentV2.sol\":5349:5359  amount.mul */\n      tag_264\n      swap1\n        /* \"UmiversePaymentV2.sol\":5349:5376  amount.mul(presaleFeeToUmi) */\n      swap2\n      swap1\n      0xffffffff\n      and\n      jump\t// in\n    tag_267:\n        /* \"UmiversePaymentV2.sol\":5349:5380  amount.mul(presaleFeeToUmi).div */\n      tag_265\n      swap1\n        /* \"UmiversePaymentV2.sol\":5349:5386  amount.mul(presaleFeeToUmi).div(1000) */\n      swap2\n      swap1\n      0xffffffff\n      and\n      jump\t// in\n    tag_266:\n        /* \"UmiversePaymentV2.sol\":5341:5386  toUmi = amount.mul(presaleFeeToUmi).div(1000) */\n      swap2\n      pop\n        /* \"UmiversePaymentV2.sol\":5411:5455  amount.mul(presaleFeeToRewardFund).div(1000) */\n      tag_268\n        /* \"UmiversePaymentV2.sol\":5450:5454  1000 */\n      0x03e8\n        /* \"UmiversePaymentV2.sol\":5411:5445  amount.mul(presaleFeeToRewardFund) */\n      tag_269\n        /* \"UmiversePaymentV2.sol\":5422:5444  presaleFeeToRewardFund */\n      sload(0x04)\n        /* \"UmiversePaymentV2.sol\":5411:5417  amount */\n      dup8\n        /* \"UmiversePaymentV2.sol\":5411:5421  amount.mul */\n      tag_264\n      swap1\n        /* \"UmiversePaymentV2.sol\":5411:5445  amount.mul(presaleFeeToRewardFund) */\n      swap2\n      swap1\n      0xffffffff\n      and\n      jump\t// in\n    tag_269:\n        /* \"UmiversePaymentV2.sol\":5411:5449  amount.mul(presaleFeeToRewardFund).div */\n      tag_265\n      swap1\n        /* \"UmiversePaymentV2.sol\":5411:5455  amount.mul(presaleFeeToRewardFund).div(1000) */\n      swap2\n      swap1\n      0xffffffff\n      and\n      jump\t// in\n    tag_268:\n        /* \"UmiversePaymentV2.sol\":5396:5455  toRewardFund = amount.mul(presaleFeeToRewardFund).div(1000) */\n      swap1\n      pop\n        /* \"UmiversePaymentV2.sol\":5466:5482  uint256 toSeller */\n      0x00\n        /* \"UmiversePaymentV2.sol\":5516:5528  toRewardFund */\n      dup2\n        /* \"UmiversePaymentV2.sol\":5508:5513  toUmi */\n      dup4\n        /* \"UmiversePaymentV2.sol\":5494:5505  toDeveloper */\n      dup6\n        /* \"UmiversePaymentV2.sol\":5485:5491  amount */\n      dup8\n        /* \"UmiversePaymentV2.sol\":5485:5505  amount - toDeveloper */\n      tag_270\n      swap2\n      swap1\n      tag_271\n      jump\t// in\n    tag_270:\n        /* \"UmiversePaymentV2.sol\":5485:5513  amount - toDeveloper - toUmi */\n      tag_272\n      swap2\n      swap1\n      tag_271\n      jump\t// in\n    tag_272:\n        /* \"UmiversePaymentV2.sol\":5485:5528  amount - toDeveloper - toUmi - toRewardFund */\n      tag_273\n      swap2\n      swap1\n      tag_271\n      jump\t// in\n    tag_273:\n        /* \"UmiversePaymentV2.sol\":5466:5528  uint256 toSeller = amount - toDeveloper - toUmi - toRewardFund */\n      swap1\n      pop\n        /* \"UmiversePaymentV2.sol\":5557:5558  0 */\n      0x00\n        /* \"UmiversePaymentV2.sol\":5543:5554  toDeveloper */\n      dup5\n        /* \"UmiversePaymentV2.sol\":5543:5558  toDeveloper > 0 */\n      gt\n        /* \"UmiversePaymentV2.sol\":5539:5622  if (toDeveloper > 0) {... */\n      iszero\n      tag_274\n      jumpi\n        /* \"UmiversePaymentV2.sol\":5574:5579  token */\n      dup8\n        /* \"UmiversePaymentV2.sol\":5574:5588  token.transfer */\n      0xffffffffffffffffffffffffffffffffffffffff\n      and\n      0xa9059cbb\n        /* \"UmiversePaymentV2.sol\":5589:5597  receiver */\n      dup8\n        /* \"UmiversePaymentV2.sol\":5599:5610  toDeveloper */\n      dup7\n        /* \"UmiversePaymentV2.sol\":5574:5611  token.transfer(receiver, toDeveloper) */\n      mload(0x40)\n      dup4\n      0xffffffff\n      and\n      0xe0\n      shl\n      dup2\n      mstore\n      0x04\n      add\n      tag_275\n      swap3\n      swap2\n      swap1\n      tag_136\n      jump\t// in\n    tag_275:\n      0x20\n      mload(0x40)\n      dup1\n      dup4\n      sub\n      dup2\n      0x00\n      dup8\n      gas\n      call\n      iszero\n      dup1\n      iszero\n      tag_277\n      jumpi\n      returndatasize\n      0x00\n      dup1\n      returndatacopy\n      revert(0x00, returndatasize)\n    tag_277:\n      pop\n      pop\n      pop\n      pop\n      mload(0x40)\n      returndatasize\n      not(0x1f)\n      0x1f\n      dup3\n      add\n      and\n      dup3\n      add\n      dup1\n      0x40\n      mstore\n      pop\n      dup2\n      add\n      swap1\n      tag_278\n      swap2\n      swap1\n      tag_140\n      jump\t// in\n    tag_278:\n      pop\n        /* \"UmiversePaymentV2.sol\":5539:5622  if (toDeveloper > 0) {... */\n    tag_274:\n        /* \"UmiversePaymentV2.sol\":5644:5645  0 */\n      0x00\n        /* \"UmiversePaymentV2.sol\":5636:5641  toUmi */\n      dup4\n        /* \"UmiversePaymentV2.sol\":5636:5645  toUmi > 0 */\n      gt\n        /* \"UmiversePaymentV2.sol\":5632:5705  if (toUmi > 0) {... */\n      iszero\n      tag_279\n      jumpi\n        /* \"UmiversePaymentV2.sol\":5661:5666  token */\n      dup8\n        /* \"UmiversePaymentV2.sol\":5661:5675  token.transfer */\n      0xffffffffffffffffffffffffffffffffffffffff\n      and\n      0xa9059cbb\n        /* \"UmiversePaymentV2.sol\":5676:5686  feeAddress */\n      0x05\n      0x00\n      swap1\n      sload\n      swap1\n      0x0100\n      exp\n      swap1\n      div\n      0xffffffffffffffffffffffffffffffffffffffff\n      and\n        /* \"UmiversePaymentV2.sol\":5688:5693  toUmi */\n      dup6\n        /* \"UmiversePaymentV2.sol\":5661:5694  token.transfer(feeAddress, toUmi) */\n      mload(0x40)\n      dup4\n      0xffffffff\n      and\n      0xe0\n      shl\n      dup2\n      mstore\n      0x04\n      add\n      tag_280\n      swap3\n      swap2\n      swap1\n      tag_136\n      jump\t// in\n    tag_280:\n      0x20\n      mload(0x40)\n      dup1\n      dup4\n      sub\n      dup2\n      0x00\n      dup8\n      gas\n      call\n      iszero\n      dup1\n      iszero\n      tag_282\n      jumpi\n      returndatasize\n      0x00\n      dup1\n      returndatacopy\n      revert(0x00, returndatasize)\n    tag_282:\n      pop\n      pop\n      pop\n      pop\n      mload(0x40)\n      returndatasize\n      not(0x1f)\n      0x1f\n      dup3\n      add\n      and\n      dup3\n      add\n      dup1\n      0x40\n      mstore\n      pop\n      dup2\n      add\n      swap1\n      tag_283\n      swap2\n      swap1\n      tag_140\n      jump\t// in\n    tag_283:\n      pop\n        /* \"UmiversePaymentV2.sol\":5632:5705  if (toUmi > 0) {... */\n    tag_279:\n        /* \"UmiversePaymentV2.sol\":5734:5735  0 */\n      0x00\n        /* \"UmiversePaymentV2.sol\":5719:5731  toRewardFund */\n      dup3\n        /* \"UmiversePaymentV2.sol\":5719:5735  toRewardFund > 0 */\n      gt\n        /* \"UmiversePaymentV2.sol\":5715:5809  if (toRewardFund > 0) {... */\n      iszero\n      tag_284\n      jumpi\n        /* \"UmiversePaymentV2.sol\":5751:5756  token */\n      dup8\n        /* \"UmiversePaymentV2.sol\":5751:5765  token.transfer */\n      0xffffffffffffffffffffffffffffffffffffffff\n      and\n      0xa9059cbb\n        /* \"UmiversePaymentV2.sol\":5766:5783  rewardPoolAddress */\n      0x06\n      0x00\n      swap1\n      sload\n      swap1\n      0x0100\n      exp\n      swap1\n      div\n      0xffffffffffffffffffffffffffffffffffffffff\n      and\n        /* \"UmiversePaymentV2.sol\":5785:5797  toRewardFund */\n      dup5\n        /* \"UmiversePaymentV2.sol\":5751:5798  token.transfer(rewardPoolAddress, toRewardFund) */\n      mload(0x40)\n      dup4\n      0xffffffff\n      and\n      0xe0\n      shl\n      dup2\n      mstore\n      0x04\n      add\n      tag_285\n      swap3\n      swap2\n      swap1\n      tag_136\n      jump\t// in\n    tag_285:\n      0x20\n      mload(0x40)\n      dup1\n      dup4\n      sub\n      dup2\n      0x00\n      dup8\n      gas\n      call\n      iszero\n      dup1\n      iszero\n      tag_287\n      jumpi\n      returndatasize\n      0x00\n      dup1\n      returndatacopy\n      revert(0x00, returndatasize)\n    tag_287:\n      pop\n      pop\n      pop\n      pop\n      mload(0x40)\n      returndatasize\n      not(0x1f)\n      0x1f\n      dup3\n      add\n      and\n      dup3\n      add\n      dup1\n      0x40\n      mstore\n      pop\n      dup2\n      add\n      swap1\n      tag_288\n      swap2\n      swap1\n      tag_140\n      jump\t// in\n    tag_288:\n      pop\n        /* \"UmiversePaymentV2.sol\":5715:5809  if (toRewardFund > 0) {... */\n    tag_284:\n        /* \"UmiversePaymentV2.sol\":5834:5835  0 */\n      0x00\n        /* \"UmiversePaymentV2.sol\":5823:5831  toSeller */\n      dup2\n        /* \"UmiversePaymentV2.sol\":5823:5835  toSeller > 0 */\n      gt\n        /* \"UmiversePaymentV2.sol\":5819:5896  if (toSeller > 0) {... */\n      iszero\n      tag_289\n      jumpi\n        /* \"UmiversePaymentV2.sol\":5851:5856  token */\n      dup8\n        /* \"UmiversePaymentV2.sol\":5851:5865  token.transfer */\n      0xffffffffffffffffffffffffffffffffffffffff\n      and\n      0xa9059cbb\n        /* \"UmiversePaymentV2.sol\":5866:5874  receiver */\n      dup8\n        /* \"UmiversePaymentV2.sol\":5876:5884  toSeller */\n      dup4\n        /* \"UmiversePaymentV2.sol\":5851:5885  token.transfer(receiver, toSeller) */\n      mload(0x40)\n      dup4\n      0xffffffff\n      and\n      0xe0\n      shl\n      dup2\n      mstore\n      0x04\n      add\n      tag_290\n      swap3\n      swap2\n      swap1\n      tag_136\n      jump\t// in\n    tag_290:\n      0x20\n      mload(0x40)\n      dup1\n      dup4\n      sub\n      dup2\n      0x00\n      dup8\n      gas\n      call\n      iszero\n      dup1\n      iszero\n      tag_292\n      jumpi\n      returndatasize\n      0x00\n      dup1\n      returndatacopy\n      revert(0x00, returndatasize)\n    tag_292:\n      pop\n      pop\n      pop\n      pop\n      mload(0x40)\n      returndatasize\n      not(0x1f)\n      0x1f\n      dup3\n      add\n      and\n      dup3\n      add\n      dup1\n      0x40\n      mstore\n      pop\n      dup2\n      add\n      swap1\n      tag_293\n      swap2\n      swap1\n      tag_140\n      jump\t// in\n    tag_293:\n      pop\n        /* \"UmiversePaymentV2.sol\":5819:5896  if (toSeller > 0) {... */\n    tag_289:\n        /* \"UmiversePaymentV2.sol\":5111:5902  {... */\n      pop\n      pop\n      pop\n      pop\n        /* \"UmiversePaymentV2.sol\":4978:5902  function processTrade(... */\n      pop\n      pop\n      pop\n      pop\n      jump\t// out\n        /* \"UmiversePaymentV2.sol\":7130:7446  function getEthSignedMessageHash(bytes32 _messageHash)... */\n    tag_253:\n        /* \"UmiversePaymentV2.sol\":7232:7239  bytes32 */\n      0x00\n        /* \"UmiversePaymentV2.sol\":7395:7407  _messageHash */\n      dup2\n        /* \"UmiversePaymentV2.sol\":7301:7425  abi.encodePacked(... */\n      add(0x20, mload(0x40))\n      tag_295\n      swap2\n      swap1\n      tag_296\n      jump\t// in\n    tag_295:\n      mload(0x40)\n      0x20\n      dup2\n      dup4\n      sub\n      sub\n      dup2\n      mstore\n      swap1\n      0x40\n      mstore\n        /* \"UmiversePaymentV2.sol\":7274:7439  keccak256(... */\n      dup1\n      mload\n      swap1\n      0x20\n      add\n      keccak256\n        /* \"UmiversePaymentV2.sol\":7255:7439  return... */\n      swap1\n      pop\n        /* \"UmiversePaymentV2.sol\":7130:7446  function getEthSignedMessageHash(bytes32 _messageHash)... */\n      swap2\n      swap1\n      pop\n      jump\t// out\n        /* \"UmiversePaymentV2.sol\":7452:7720  function recoverSigner(... */\n    tag_255:\n        /* \"UmiversePaymentV2.sol\":7576:7583  address */\n      0x00\n        /* \"UmiversePaymentV2.sol\":7596:7605  bytes32 r */\n      dup1\n        /* \"UmiversePaymentV2.sol\":7607:7616  bytes32 s */\n      0x00\n        /* \"UmiversePaymentV2.sol\":7618:7625  uint8 v */\n      dup1\n        /* \"UmiversePaymentV2.sol\":7629:7655  splitSignature(_signature) */\n      tag_298\n        /* \"UmiversePaymentV2.sol\":7644:7654  _signature */\n      dup6\n        /* \"UmiversePaymentV2.sol\":7629:7643  splitSignature */\n      tag_179\n        /* \"UmiversePaymentV2.sol\":7629:7655  splitSignature(_signature) */\n      jump\t// in\n    tag_298:\n        /* \"UmiversePaymentV2.sol\":7595:7655  (bytes32 r, bytes32 s, uint8 v) = splitSignature(_signature) */\n      swap3\n      pop\n      swap3\n      pop\n      swap3\n      pop\n        /* \"UmiversePaymentV2.sol\":7672:7713  ecrecover(_ethSignedMessageHash, v, r, s) */\n      0x01\n        /* \"UmiversePaymentV2.sol\":7682:7703  _ethSignedMessageHash */\n      dup7\n        /* \"UmiversePaymentV2.sol\":7705:7706  v */\n      dup3\n        /* \"UmiversePaymentV2.sol\":7708:7709  r */\n      dup6\n        /* \"UmiversePaymentV2.sol\":7711:7712  s */\n      dup6\n        /* \"UmiversePaymentV2.sol\":7672:7713  ecrecover(_ethSignedMessageHash, v, r, s) */\n      mload(0x40)\n      0x00\n      dup2\n      mstore\n      0x20\n      add\n      0x40\n      mstore\n      mload(0x40)\n      tag_299\n      swap5\n      swap4\n      swap3\n      swap2\n      swap1\n      tag_181\n      jump\t// in\n    tag_299:\n      0x20\n      mload(0x40)\n      0x20\n      dup2\n      sub\n      swap1\n      dup1\n      dup5\n      sub\n      swap1\n      dup6\n      gas\n      staticcall\n      iszero\n      dup1\n      iszero\n      tag_301\n      jumpi\n      returndatasize\n      0x00\n      dup1\n      returndatacopy\n      revert(0x00, returndatasize)\n    tag_301:\n      pop\n      pop\n      pop\n      mload(sub(mload(0x40), 0x20))\n        /* \"UmiversePaymentV2.sol\":7665:7713  return ecrecover(_ethSignedMessageHash, v, r, s) */\n      swap4\n      pop\n      pop\n      pop\n      pop\n        /* \"UmiversePaymentV2.sol\":7452:7720  function recoverSigner(... */\n      swap3\n      swap2\n      pop\n      pop\n      jump\t// out\n        /* \"lib/SafeMath.sol\":2179:2638  function mul(uint256 a, uint256 b) internal pure returns (uint256) {... */\n    tag_264:\n        /* \"lib/SafeMath.sol\":2237:2244  uint256 */\n      0x00\n        /* \"lib/SafeMath.sol\":2483:2484  0 */\n      dup1\n        /* \"lib/SafeMath.sol\":2478:2479  a */\n      dup4\n        /* \"lib/SafeMath.sol\":2478:2484  a == 0 */\n      sub\n        /* \"lib/SafeMath.sol\":2474:2519  if (a == 0) {... */\n      tag_303\n      jumpi\n        /* \"lib/SafeMath.sol\":2507:2508  0 */\n      0x00\n        /* \"lib/SafeMath.sol\":2500:2508  return 0 */\n      swap1\n      pop\n      jump(tag_302)\n        /* \"lib/SafeMath.sol\":2474:2519  if (a == 0) {... */\n    tag_303:\n        /* \"lib/SafeMath.sol\":2529:2538  uint256 c */\n      0x00\n        /* \"lib/SafeMath.sol\":2545:2546  b */\n      dup3\n        /* \"lib/SafeMath.sol\":2541:2542  a */\n      dup5\n        /* \"lib/SafeMath.sol\":2541:2546  a * b */\n      tag_304\n      swap2\n      swap1\n      tag_305\n      jump\t// in\n    tag_304:\n        /* \"lib/SafeMath.sol\":2529:2546  uint256 c = a * b */\n      swap1\n      pop\n        /* \"lib/SafeMath.sol\":2573:2574  b */\n      dup3\n        /* \"lib/SafeMath.sol\":2568:2569  a */\n      dup5\n        /* \"lib/SafeMath.sol\":2564:2565  c */\n      dup3\n        /* \"lib/SafeMath.sol\":2564:2569  c / a */\n      tag_306\n      swap2\n      swap1\n      tag_307\n      jump\t// in\n    tag_306:\n        /* \"lib/SafeMath.sol\":2564:2574  c / a == b */\n      eq\n        /* \"lib/SafeMath.sol\":2556:2612  require(c / a == b, \"SafeMath: multiplication overflow\") */\n      tag_308\n      jumpi\n      mload(0x40)\n      0x08c379a000000000000000000000000000000000000000000000000000000000\n      dup2\n      mstore\n      0x04\n      add\n      tag_309\n      swap1\n      tag_310\n      jump\t// in\n    tag_309:\n      mload(0x40)\n      dup1\n      swap2\n      sub\n      swap1\n      revert\n    tag_308:\n        /* \"lib/SafeMath.sol\":2630:2631  c */\n      dup1\n        /* \"lib/SafeMath.sol\":2623:2631  return c */\n      swap2\n      pop\n      pop\n        /* \"lib/SafeMath.sol\":2179:2638  function mul(uint256 a, uint256 b) internal pure returns (uint256) {... */\n    tag_302:\n      swap3\n      swap2\n      pop\n      pop\n      jump\t// out\n        /* \"lib/SafeMath.sol\":3100:3230  function div(uint256 a, uint256 b) internal pure returns (uint256) {... */\n    tag_265:\n        /* \"lib/SafeMath.sol\":3158:3165  uint256 */\n      0x00\n        /* \"lib/SafeMath.sol\":3184:3223  div(a, b, \"SafeMath: division by zero\") */\n      tag_312\n        /* \"lib/SafeMath.sol\":3188:3189  a */\n      dup4\n        /* \"lib/SafeMath.sol\":3191:3192  b */\n      dup4\n        /* \"lib/SafeMath.sol\":3184:3223  div(a, b, \"SafeMath: division by zero\") */\n      mload(0x40)\n      dup1\n      0x40\n      add\n      0x40\n      mstore\n      dup1\n      0x1a\n      dup2\n      mstore\n      0x20\n      add\n      0x536166654d6174683a206469766973696f6e206279207a65726f000000000000\n      dup2\n      mstore\n      pop\n        /* \"lib/SafeMath.sol\":3184:3187  div */\n      tag_313\n        /* \"lib/SafeMath.sol\":3184:3223  div(a, b, \"SafeMath: division by zero\") */\n      jump\t// in\n    tag_312:\n        /* \"lib/SafeMath.sol\":3177:3223  return div(a, b, \"SafeMath: division by zero\") */\n      swap1\n      pop\n        /* \"lib/SafeMath.sol\":3100:3230  function div(uint256 a, uint256 b) internal pure returns (uint256) {... */\n      swap3\n      swap2\n      pop\n      pop\n      jump\t// out\n        /* \"lib/SafeMath.sol\":3712:3984  function div(uint256 a, uint256 b, string memory errorMessage) internal pure returns (uint256) {... */\n    tag_313:\n        /* \"lib/SafeMath.sol\":3798:3805  uint256 */\n      0x00\n        /* \"lib/SafeMath.sol\":3829:3830  0 */\n      dup1\n        /* \"lib/SafeMath.sol\":3825:3826  b */\n      dup4\n        /* \"lib/SafeMath.sol\":3825:3830  b > 0 */\n      gt\n        /* \"lib/SafeMath.sol\":3832:3844  errorMessage */\n      dup3\n        /* \"lib/SafeMath.sol\":3817:3845  require(b > 0, errorMessage) */\n      swap1\n      tag_315\n      jumpi\n      mload(0x40)\n      0x08c379a000000000000000000000000000000000000000000000000000000000\n      dup2\n      mstore\n      0x04\n      add\n      tag_316\n      swap2\n      swap1\n      tag_317\n      jump\t// in\n    tag_316:\n      mload(0x40)\n      dup1\n      swap2\n      sub\n      swap1\n      revert\n    tag_315:\n      pop\n        /* \"lib/SafeMath.sol\":3855:3864  uint256 c */\n      0x00\n        /* \"lib/SafeMath.sol\":3871:3872  b */\n      dup4\n        /* \"lib/SafeMath.sol\":3867:3868  a */\n      dup6\n        /* \"lib/SafeMath.sol\":3867:3872  a / b */\n      tag_318\n      swap2\n      swap1\n      tag_307\n      jump\t// in\n    tag_318:\n        /* \"lib/SafeMath.sol\":3855:3872  uint256 c = a / b */\n      swap1\n      pop\n        /* \"lib/SafeMath.sol\":3976:3977  c */\n      dup1\n        /* \"lib/SafeMath.sol\":3969:3977  return c */\n      swap2\n      pop\n      pop\n        /* \"lib/SafeMath.sol\":3712:3984  function div(uint256 a, uint256 b, string memory errorMessage) internal pure returns (uint256) {... */\n      swap4\n      swap3\n      pop\n      pop\n      pop\n      jump\t// out\n        /* \"#utility.yul\":7:82   */\n    tag_319:\n        /* \"#utility.yul\":40:46   */\n      0x00\n        /* \"#utility.yul\":73:75   */\n      0x40\n        /* \"#utility.yul\":67:76   */\n      mload\n        /* \"#utility.yul\":57:76   */\n      swap1\n      pop\n        /* \"#utility.yul\":7:82   */\n      swap1\n      jump\t// out\n        /* \"#utility.yul\":88:205   */\n    tag_320:\n        /* \"#utility.yul\":197:198   */\n      0x00\n        /* \"#utility.yul\":194:195   */\n      dup1\n        /* \"#utility.yul\":187:199   */\n      revert\n        /* \"#utility.yul\":211:328   */\n    tag_321:\n        /* \"#utility.yul\":320:321   */\n      0x00\n        /* \"#utility.yul\":317:318   */\n      dup1\n        /* \"#utility.yul\":310:322   */\n      revert\n        /* \"#utility.yul\":334:460   */\n    tag_322:\n        /* \"#utility.yul\":371:378   */\n      0x00\n        /* \"#utility.yul\":411:453   */\n      0xffffffffffffffffffffffffffffffffffffffff\n        /* \"#utility.yul\":404:409   */\n      dup3\n        /* \"#utility.yul\":400:454   */\n      and\n        /* \"#utility.yul\":389:454   */\n      swap1\n      pop\n        /* \"#utility.yul\":334:460   */\n      swap2\n      swap1\n      pop\n      jump\t// out\n        /* \"#utility.yul\":466:562   */\n    tag_323:\n        /* \"#utility.yul\":503:510   */\n      0x00\n        /* \"#utility.yul\":532:556   */\n      tag_428\n        /* \"#utility.yul\":550:555   */\n      dup3\n        /* \"#utility.yul\":532:556   */\n      tag_322\n      jump\t// in\n    tag_428:\n        /* \"#utility.yul\":521:556   */\n      swap1\n      pop\n        /* \"#utility.yul\":466:562   */\n      swap2\n      swap1\n      pop\n      jump\t// out\n        /* \"#utility.yul\":568:678   */\n    tag_324:\n        /* \"#utility.yul\":619:626   */\n      0x00\n        /* \"#utility.yul\":648:672   */\n      tag_430\n        /* \"#utility.yul\":666:671   */\n      dup3\n        /* \"#utility.yul\":648:672   */\n      tag_323\n      jump\t// in\n    tag_430:\n        /* \"#utility.yul\":637:672   */\n      swap1\n      pop\n        /* \"#utility.yul\":568:678   */\n      swap2\n      swap1\n      pop\n      jump\t// out\n        /* \"#utility.yul\":684:834   */\n    tag_325:\n        /* \"#utility.yul\":771:809   */\n      tag_432\n        /* \"#utility.yul\":803:808   */\n      dup2\n        /* \"#utility.yul\":771:809   */\n      tag_324\n      jump\t// in\n    tag_432:\n        /* \"#utility.yul\":764:769   */\n      dup2\n        /* \"#utility.yul\":761:810   */\n      eq\n        /* \"#utility.yul\":751:828   */\n      tag_433\n      jumpi\n        /* \"#utility.yul\":824:825   */\n      0x00\n        /* \"#utility.yul\":821:822   */\n      dup1\n        /* \"#utility.yul\":814:826   */\n      revert\n        /* \"#utility.yul\":751:828   */\n    tag_433:\n        /* \"#utility.yul\":684:834   */\n      pop\n      jump\t// out\n        /* \"#utility.yul\":840:1007   */\n    tag_326:\n        /* \"#utility.yul\":900:905   */\n      0x00\n        /* \"#utility.yul\":938:944   */\n      dup2\n        /* \"#utility.yul\":925:945   */\n      calldataload\n        /* \"#utility.yul\":916:945   */\n      swap1\n      pop\n        /* \"#utility.yul\":954:1001   */\n      tag_435\n        /* \"#utility.yul\":995:1000   */\n      dup2\n        /* \"#utility.yul\":954:1001   */\n      tag_325\n      jump\t// in\n    tag_435:\n        /* \"#utility.yul\":840:1007   */\n      swap3\n      swap2\n      pop\n      pop\n      jump\t// out\n        /* \"#utility.yul\":1013:1090   */\n    tag_327:\n        /* \"#utility.yul\":1050:1057   */\n      0x00\n        /* \"#utility.yul\":1079:1084   */\n      dup2\n        /* \"#utility.yul\":1068:1084   */\n      swap1\n      pop\n        /* \"#utility.yul\":1013:1090   */\n      swap2\n      swap1\n      pop\n      jump\t// out\n        /* \"#utility.yul\":1096:1218   */\n    tag_328:\n        /* \"#utility.yul\":1169:1193   */\n      tag_438\n        /* \"#utility.yul\":1187:1192   */\n      dup2\n        /* \"#utility.yul\":1169:1193   */\n      tag_327\n      jump\t// in\n    tag_438:\n        /* \"#utility.yul\":1162:1167   */\n      dup2\n        /* \"#utility.yul\":1159:1194   */\n      eq\n        /* \"#utility.yul\":1149:1212   */\n      tag_439\n      jumpi\n        /* \"#utility.yul\":1208:1209   */\n      0x00\n        /* \"#utility.yul\":1205:1206   */\n      dup1\n        /* \"#utility.yul\":1198:1210   */\n      revert\n        /* \"#utility.yul\":1149:1212   */\n    tag_439:\n        /* \"#utility.yul\":1096:1218   */\n      pop\n      jump\t// out\n        /* \"#utility.yul\":1224:1363   */\n    tag_329:\n        /* \"#utility.yul\":1270:1275   */\n      0x00\n        /* \"#utility.yul\":1308:1314   */\n      dup2\n        /* \"#utility.yul\":1295:1315   */\n      calldataload\n        /* \"#utility.yul\":1286:1315   */\n      swap1\n      pop\n        /* \"#utility.yul\":1324:1357   */\n      tag_441\n        /* \"#utility.yul\":1351:1356   */\n      dup2\n        /* \"#utility.yul\":1324:1357   */\n      tag_328\n      jump\t// in\n    tag_441:\n        /* \"#utility.yul\":1224:1363   */\n      swap3\n      swap2\n      pop\n      pop\n      jump\t// out\n        /* \"#utility.yul\":1369:1871   */\n    tag_34:\n        /* \"#utility.yul\":1451:1457   */\n      0x00\n        /* \"#utility.yul\":1459:1465   */\n      dup1\n        /* \"#utility.yul\":1508:1510   */\n      0x40\n        /* \"#utility.yul\":1496:1505   */\n      dup4\n        /* \"#utility.yul\":1487:1494   */\n      dup6\n        /* \"#utility.yul\":1483:1506   */\n      sub\n        /* \"#utility.yul\":1479:1511   */\n      slt\n        /* \"#utility.yul\":1476:1595   */\n      iszero\n      tag_443\n      jumpi\n        /* \"#utility.yul\":1514:1593   */\n      tag_444\n      tag_320\n      jump\t// in\n    tag_444:\n        /* \"#utility.yul\":1476:1595   */\n    tag_443:\n        /* \"#utility.yul\":1634:1635   */\n      0x00\n        /* \"#utility.yul\":1659:1726   */\n      tag_445\n        /* \"#utility.yul\":1718:1725   */\n      dup6\n        /* \"#utility.yul\":1709:1715   */\n      dup3\n        /* \"#utility.yul\":1698:1707   */\n      dup7\n        /* \"#utility.yul\":1694:1716   */\n      add\n        /* \"#utility.yul\":1659:1726   */\n      tag_326\n      jump\t// in\n    tag_445:\n        /* \"#utility.yul\":1649:1726   */\n      swap3\n      pop\n        /* \"#utility.yul\":1605:1736   */\n      pop\n        /* \"#utility.yul\":1775:1777   */\n      0x20\n        /* \"#utility.yul\":1801:1854   */\n      tag_446\n        /* \"#utility.yul\":1846:1853   */\n      dup6\n        /* \"#utility.yul\":1837:1843   */\n      dup3\n        /* \"#utility.yul\":1826:1835   */\n      dup7\n        /* \"#utility.yul\":1822:1844   */\n      add\n        /* \"#utility.yul\":1801:1854   */\n      tag_329\n      jump\t// in\n    tag_446:\n        /* \"#utility.yul\":1791:1854   */\n      swap2\n      pop\n        /* \"#utility.yul\":1746:1864   */\n      pop\n        /* \"#utility.yul\":1369:1871   */\n      swap3\n      pop\n      swap3\n      swap1\n      pop\n      jump\t// out\n        /* \"#utility.yul\":1877:1994   */\n    tag_330:\n        /* \"#utility.yul\":1986:1987   */\n      0x00\n        /* \"#utility.yul\":1983:1984   */\n      dup1\n        /* \"#utility.yul\":1976:1988   */\n      revert\n        /* \"#utility.yul\":2000:2117   */\n    tag_331:\n        /* \"#utility.yul\":2109:2110   */\n      0x00\n        /* \"#utility.yul\":2106:2107   */\n      dup1\n        /* \"#utility.yul\":2099:2111   */\n      revert\n        /* \"#utility.yul\":2123:2225   */\n    tag_332:\n        /* \"#utility.yul\":2164:2170   */\n      0x00\n        /* \"#utility.yul\":2215:2217   */\n      0x1f\n        /* \"#utility.yul\":2211:2218   */\n      not\n        /* \"#utility.yul\":2206:2208   */\n      0x1f\n        /* \"#utility.yul\":2199:2204   */\n      dup4\n        /* \"#utility.yul\":2195:2209   */\n      add\n        /* \"#utility.yul\":2191:2219   */\n      and\n        /* \"#utility.yul\":2181:2219   */\n      swap1\n      pop\n        /* \"#utility.yul\":2123:2225   */\n      swap2\n      swap1\n      pop\n      jump\t// out\n        /* \"#utility.yul\":2231:2411   */\n    tag_333:\n        /* \"#utility.yul\":2279:2356   */\n      0x4e487b7100000000000000000000000000000000000000000000000000000000\n        /* \"#utility.yul\":2276:2277   */\n      0x00\n        /* \"#utility.yul\":2269:2357   */\n      mstore\n        /* \"#utility.yul\":2376:2380   */\n      0x41\n        /* \"#utility.yul\":2373:2374   */\n      0x04\n        /* \"#utility.yul\":2366:2381   */\n      mstore\n        /* \"#utility.yul\":2400:2404   */\n      0x24\n        /* \"#utility.yul\":2397:2398   */\n      0x00\n        /* \"#utility.yul\":2390:2405   */\n      revert\n        /* \"#utility.yul\":2417:2698   */\n    tag_334:\n        /* \"#utility.yul\":2500:2527   */\n      tag_452\n        /* \"#utility.yul\":2522:2526   */\n      dup3\n        /* \"#utility.yul\":2500:2527   */\n      tag_332\n      jump\t// in\n    tag_452:\n        /* \"#utility.yul\":2492:2498   */\n      dup2\n        /* \"#utility.yul\":2488:2528   */\n      add\n        /* \"#utility.yul\":2630:2636   */\n      dup2\n        /* \"#utility.yul\":2618:2628   */\n      dup2\n        /* \"#utility.yul\":2615:2637   */\n      lt\n        /* \"#utility.yul\":2594:2612   */\n      0xffffffffffffffff\n        /* \"#utility.yul\":2582:2592   */\n      dup3\n        /* \"#utility.yul\":2579:2613   */\n      gt\n        /* \"#utility.yul\":2576:2638   */\n      or\n        /* \"#utility.yul\":2573:2661   */\n      iszero\n      tag_453\n      jumpi\n        /* \"#utility.yul\":2641:2659   */\n      tag_454\n      tag_333\n      jump\t// in\n    tag_454:\n        /* \"#utility.yul\":2573:2661   */\n    tag_453:\n        /* \"#utility.yul\":2681:2691   */\n      dup1\n        /* \"#utility.yul\":2677:2679   */\n      0x40\n        /* \"#utility.yul\":2670:2692   */\n      mstore\n        /* \"#utility.yul\":2460:2698   */\n      pop\n        /* \"#utility.yul\":2417:2698   */\n      pop\n      pop\n      jump\t// out\n        /* \"#utility.yul\":2704:2833   */\n    tag_335:\n        /* \"#utility.yul\":2738:2744   */\n      0x00\n        /* \"#utility.yul\":2765:2785   */\n      tag_456\n      tag_319\n      jump\t// in\n    tag_456:\n        /* \"#utility.yul\":2755:2785   */\n      swap1\n      pop\n        /* \"#utility.yul\":2794:2827   */\n      tag_457\n        /* \"#utility.yul\":2822:2826   */\n      dup3\n        /* \"#utility.yul\":2814:2820   */\n      dup3\n        /* \"#utility.yul\":2794:2827   */\n      tag_334\n      jump\t// in\n    tag_457:\n        /* \"#utility.yul\":2704:2833   */\n      swap2\n      swap1\n      pop\n      jump\t// out\n        /* \"#utility.yul\":2839:3147   */\n    tag_336:\n        /* \"#utility.yul\":2901:2905   */\n      0x00\n        /* \"#utility.yul\":2991:3009   */\n      0xffffffffffffffff\n        /* \"#utility.yul\":2983:2989   */\n      dup3\n        /* \"#utility.yul\":2980:3010   */\n      gt\n        /* \"#utility.yul\":2977:3033   */\n      iszero\n      tag_459\n      jumpi\n        /* \"#utility.yul\":3013:3031   */\n      tag_460\n      tag_333\n      jump\t// in\n    tag_460:\n        /* \"#utility.yul\":2977:3033   */\n    tag_459:\n        /* \"#utility.yul\":3051:3080   */\n      tag_461\n        /* \"#utility.yul\":3073:3079   */\n      dup3\n        /* \"#utility.yul\":3051:3080   */\n      tag_332\n      jump\t// in\n    tag_461:\n        /* \"#utility.yul\":3043:3080   */\n      swap1\n      pop\n        /* \"#utility.yul\":3135:3139   */\n      0x20\n        /* \"#utility.yul\":3129:3133   */\n      dup2\n        /* \"#utility.yul\":3125:3140   */\n      add\n        /* \"#utility.yul\":3117:3140   */\n      swap1\n      pop\n        /* \"#utility.yul\":2839:3147   */\n      swap2\n      swap1\n      pop\n      jump\t// out\n        /* \"#utility.yul\":3153:3299   */\n    tag_337:\n        /* \"#utility.yul\":3250:3256   */\n      dup3\n        /* \"#utility.yul\":3245:3248   */\n      dup2\n        /* \"#utility.yul\":3240:3243   */\n      dup4\n        /* \"#utility.yul\":3227:3257   */\n      calldatacopy\n        /* \"#utility.yul\":3291:3292   */\n      0x00\n        /* \"#utility.yul\":3282:3288   */\n      dup4\n        /* \"#utility.yul\":3277:3280   */\n      dup4\n        /* \"#utility.yul\":3273:3289   */\n      add\n        /* \"#utility.yul\":3266:3293   */\n      mstore\n        /* \"#utility.yul\":3153:3299   */\n      pop\n      pop\n      pop\n      jump\t// out\n        /* \"#utility.yul\":3305:3730   */\n    tag_338:\n        /* \"#utility.yul\":3383:3388   */\n      0x00\n        /* \"#utility.yul\":3408:3474   */\n      tag_464\n        /* \"#utility.yul\":3424:3473   */\n      tag_465\n        /* \"#utility.yul\":3466:3472   */\n      dup5\n        /* \"#utility.yul\":3424:3473   */\n      tag_336\n      jump\t// in\n    tag_465:\n        /* \"#utility.yul\":3408:3474   */\n      tag_335\n      jump\t// in\n    tag_464:\n        /* \"#utility.yul\":3399:3474   */\n      swap1\n      pop\n        /* \"#utility.yul\":3497:3503   */\n      dup3\n        /* \"#utility.yul\":3490:3495   */\n      dup2\n        /* \"#utility.yul\":3483:3504   */\n      mstore\n        /* \"#utility.yul\":3535:3539   */\n      0x20\n        /* \"#utility.yul\":3528:3533   */\n      dup2\n        /* \"#utility.yul\":3524:3540   */\n      add\n        /* \"#utility.yul\":3573:3576   */\n      dup5\n        /* \"#utility.yul\":3564:3570   */\n      dup5\n        /* \"#utility.yul\":3559:3562   */\n      dup5\n        /* \"#utility.yul\":3555:3571   */\n      add\n        /* \"#utility.yul\":3552:3577   */\n      gt\n        /* \"#utility.yul\":3549:3661   */\n      iszero\n      tag_466\n      jumpi\n        /* \"#utility.yul\":3580:3659   */\n      tag_467\n      tag_331\n      jump\t// in\n    tag_467:\n        /* \"#utility.yul\":3549:3661   */\n    tag_466:\n        /* \"#utility.yul\":3670:3724   */\n      tag_468\n        /* \"#utility.yul\":3717:3723   */\n      dup5\n        /* \"#utility.yul\":3712:3715   */\n      dup3\n        /* \"#utility.yul\":3707:3710   */\n      dup6\n        /* \"#utility.yul\":3670:3724   */\n      tag_337\n      jump\t// in\n    tag_468:\n        /* \"#utility.yul\":3389:3730   */\n      pop\n        /* \"#utility.yul\":3305:3730   */\n      swap4\n      swap3\n      pop\n      pop\n      pop\n      jump\t// out\n        /* \"#utility.yul\":3750:4090   */\n    tag_339:\n        /* \"#utility.yul\":3806:3811   */\n      0x00\n        /* \"#utility.yul\":3855:3858   */\n      dup3\n        /* \"#utility.yul\":3848:3852   */\n      0x1f\n        /* \"#utility.yul\":3840:3846   */\n      dup4\n        /* \"#utility.yul\":3836:3853   */\n      add\n        /* \"#utility.yul\":3832:3859   */\n      slt\n        /* \"#utility.yul\":3822:3944   */\n      tag_470\n      jumpi\n        /* \"#utility.yul\":3863:3942   */\n      tag_471\n      tag_330\n      jump\t// in\n    tag_471:\n        /* \"#utility.yul\":3822:3944   */\n    tag_470:\n        /* \"#utility.yul\":3980:3986   */\n      dup2\n        /* \"#utility.yul\":3967:3987   */\n      calldataload\n        /* \"#utility.yul\":4005:4084   */\n      tag_472\n        /* \"#utility.yul\":4080:4083   */\n      dup5\n        /* \"#utility.yul\":4072:4078   */\n      dup3\n        /* \"#utility.yul\":4065:4069   */\n      0x20\n        /* \"#utility.yul\":4057:4063   */\n      dup7\n        /* \"#utility.yul\":4053:4070   */\n      add\n        /* \"#utility.yul\":4005:4084   */\n      tag_338\n      jump\t// in\n    tag_472:\n        /* \"#utility.yul\":3996:4084   */\n      swap2\n      pop\n        /* \"#utility.yul\":3812:4090   */\n      pop\n        /* \"#utility.yul\":3750:4090   */\n      swap3\n      swap2\n      pop\n      pop\n      jump\t// out\n        /* \"#utility.yul\":4096:4605   */\n    tag_38:\n        /* \"#utility.yul\":4165:4171   */\n      0x00\n        /* \"#utility.yul\":4214:4216   */\n      0x20\n        /* \"#utility.yul\":4202:4211   */\n      dup3\n        /* \"#utility.yul\":4193:4200   */\n      dup5\n        /* \"#utility.yul\":4189:4212   */\n      sub\n        /* \"#utility.yul\":4185:4217   */\n      slt\n        /* \"#utility.yul\":4182:4301   */\n      iszero\n      tag_474\n      jumpi\n        /* \"#utility.yul\":4220:4299   */\n      tag_475\n      tag_320\n      jump\t// in\n    tag_475:\n        /* \"#utility.yul\":4182:4301   */\n    tag_474:\n        /* \"#utility.yul\":4368:4369   */\n      0x00\n        /* \"#utility.yul\":4357:4366   */\n      dup3\n        /* \"#utility.yul\":4353:4370   */\n      add\n        /* \"#utility.yul\":4340:4371   */\n      calldataload\n        /* \"#utility.yul\":4398:4416   */\n      0xffffffffffffffff\n        /* \"#utility.yul\":4390:4396   */\n      dup2\n        /* \"#utility.yul\":4387:4417   */\n      gt\n        /* \"#utility.yul\":4384:4501   */\n      iszero\n      tag_476\n      jumpi\n        /* \"#utility.yul\":4420:4499   */\n      tag_477\n      tag_321\n      jump\t// in\n    tag_477:\n        /* \"#utility.yul\":4384:4501   */\n    tag_476:\n        /* \"#utility.yul\":4525:4588   */\n      tag_478\n        /* \"#utility.yul\":4580:4587   */\n      dup5\n        /* \"#utility.yul\":4571:4577   */\n      dup3\n        /* \"#utility.yul\":4560:4569   */\n      dup6\n        /* \"#utility.yul\":4556:4578   */\n      add\n        /* \"#utility.yul\":4525:4588   */\n      tag_339\n      jump\t// in\n    tag_478:\n        /* \"#utility.yul\":4515:4588   */\n      swap2\n      pop\n        /* \"#utility.yul\":4311:4598   */\n      pop\n        /* \"#utility.yul\":4096:4605   */\n      swap3\n      swap2\n      pop\n      pop\n      jump\t// out\n        /* \"#utility.yul\":4611:4701   */\n    tag_340:\n        /* \"#utility.yul\":4645:4652   */\n      0x00\n        /* \"#utility.yul\":4688:4693   */\n      dup2\n        /* \"#utility.yul\":4681:4694   */\n      iszero\n        /* \"#utility.yul\":4674:4695   */\n      iszero\n        /* \"#utility.yul\":4663:4695   */\n      swap1\n      pop\n        /* \"#utility.yul\":4611:4701   */\n      swap2\n      swap1\n      pop\n      jump\t// out\n        /* \"#utility.yul\":4707:4816   */\n    tag_341:\n        /* \"#utility.yul\":4788:4809   */\n      tag_481\n        /* \"#utility.yul\":4803:4808   */\n      dup2\n        /* \"#utility.yul\":4788:4809   */\n      tag_340\n      jump\t// in\n    tag_481:\n        /* \"#utility.yul\":4783:4786   */\n      dup3\n        /* \"#utility.yul\":4776:4810   */\n      mstore\n        /* \"#utility.yul\":4707:4816   */\n      pop\n      pop\n      jump\t// out\n        /* \"#utility.yul\":4822:5032   */\n    tag_41:\n        /* \"#utility.yul\":4909:4913   */\n      0x00\n        /* \"#utility.yul\":4947:4949   */\n      0x20\n        /* \"#utility.yul\":4936:4945   */\n      dup3\n        /* \"#utility.yul\":4932:4950   */\n      add\n        /* \"#utility.yul\":4924:4950   */\n      swap1\n      pop\n        /* \"#utility.yul\":4960:5025   */\n      tag_483\n        /* \"#utility.yul\":5022:5023   */\n      0x00\n        /* \"#utility.yul\":5011:5020   */\n      dup4\n        /* \"#utility.yul\":5007:5024   */\n      add\n        /* \"#utility.yul\":4998:5004   */\n      dup5\n        /* \"#utility.yul\":4960:5025   */\n      tag_341\n      jump\t// in\n    tag_483:\n        /* \"#utility.yul\":4822:5032   */\n      swap3\n      swap2\n      pop\n      pop\n      jump\t// out\n        /* \"#utility.yul\":5038:5160   */\n    tag_342:\n        /* \"#utility.yul\":5111:5135   */\n      tag_485\n        /* \"#utility.yul\":5129:5134   */\n      dup2\n        /* \"#utility.yul\":5111:5135   */\n      tag_323\n      jump\t// in\n    tag_485:\n        /* \"#utility.yul\":5104:5109   */\n      dup2\n        /* \"#utility.yul\":5101:5136   */\n      eq\n        /* \"#utility.yul\":5091:5154   */\n      tag_486\n      jumpi\n        /* \"#utility.yul\":5150:5151   */\n      0x00\n        /* \"#utility.yul\":5147:5148   */\n      dup1\n        /* \"#utility.yul\":5140:5152   */\n      revert\n        /* \"#utility.yul\":5091:5154   */\n    tag_486:\n        /* \"#utility.yul\":5038:5160   */\n      pop\n      jump\t// out\n        /* \"#utility.yul\":5166:5305   */\n    tag_343:\n        /* \"#utility.yul\":5212:5217   */\n      0x00\n        /* \"#utility.yul\":5250:5256   */\n      dup2\n        /* \"#utility.yul\":5237:5257   */\n      calldataload\n        /* \"#utility.yul\":5228:5257   */\n      swap1\n      pop\n        /* \"#utility.yul\":5266:5299   */\n      tag_488\n        /* \"#utility.yul\":5293:5298   */\n      dup2\n        /* \"#utility.yul\":5266:5299   */\n      tag_342\n      jump\t// in\n    tag_488:\n        /* \"#utility.yul\":5166:5305   */\n      swap3\n      swap2\n      pop\n      pop\n      jump\t// out\n        /* \"#utility.yul\":5311:5640   */\n    tag_44:\n        /* \"#utility.yul\":5370:5376   */\n      0x00\n        /* \"#utility.yul\":5419:5421   */\n      0x20\n        /* \"#utility.yul\":5407:5416   */\n      dup3\n        /* \"#utility.yul\":5398:5405   */\n      dup5\n        /* \"#utility.yul\":5394:5417   */\n      sub\n        /* \"#utility.yul\":5390:5422   */\n      slt\n        /* \"#utility.yul\":5387:5506   */\n      iszero\n      tag_490\n      jumpi\n        /* \"#utility.yul\":5425:5504   */\n      tag_491\n      tag_320\n      jump\t// in\n    tag_491:\n        /* \"#utility.yul\":5387:5506   */\n    tag_490:\n        /* \"#utility.yul\":5545:5546   */\n      0x00\n        /* \"#utility.yul\":5570:5623   */\n      tag_492\n        /* \"#utility.yul\":5615:5622   */\n      dup5\n        /* \"#utility.yul\":5606:5612   */\n      dup3\n        /* \"#utility.yul\":5595:5604   */\n      dup6\n        /* \"#utility.yul\":5591:5613   */\n      add\n        /* \"#utility.yul\":5570:5623   */\n      tag_343\n      jump\t// in\n    tag_492:\n        /* \"#utility.yul\":5560:5623   */\n      swap2\n      pop\n        /* \"#utility.yul\":5516:5633   */\n      pop\n        /* \"#utility.yul\":5311:5640   */\n      swap3\n      swap2\n      pop\n      pop\n      jump\t// out\n        /* \"#utility.yul\":5646:5764   */\n    tag_344:\n        /* \"#utility.yul\":5733:5757   */\n      tag_494\n        /* \"#utility.yul\":5751:5756   */\n      dup2\n        /* \"#utility.yul\":5733:5757   */\n      tag_327\n      jump\t// in\n    tag_494:\n        /* \"#utility.yul\":5728:5731   */\n      dup3\n        /* \"#utility.yul\":5721:5758   */\n      mstore\n        /* \"#utility.yul\":5646:5764   */\n      pop\n      pop\n      jump\t// out\n        /* \"#utility.yul\":5770:5992   */\n    tag_49:\n        /* \"#utility.yul\":5863:5867   */\n      0x00\n        /* \"#utility.yul\":5901:5903   */\n      0x20\n        /* \"#utility.yul\":5890:5899   */\n      dup3\n        /* \"#utility.yul\":5886:5904   */\n      add\n        /* \"#utility.yul\":5878:5904   */\n      swap1\n      pop\n        /* \"#utility.yul\":5914:5985   */\n      tag_496\n        /* \"#utility.yul\":5982:5983   */\n      0x00\n        /* \"#utility.yul\":5971:5980   */\n      dup4\n        /* \"#utility.yul\":5967:5984   */\n      add\n        /* \"#utility.yul\":5958:5964   */\n      dup5\n        /* \"#utility.yul\":5914:5985   */\n      tag_344\n      jump\t// in\n    tag_496:\n        /* \"#utility.yul\":5770:5992   */\n      swap3\n      swap2\n      pop\n      pop\n      jump\t// out\n        /* \"#utility.yul\":5998:6058   */\n    tag_345:\n        /* \"#utility.yul\":6026:6029   */\n      0x00\n        /* \"#utility.yul\":6047:6052   */\n      dup2\n        /* \"#utility.yul\":6040:6052   */\n      swap1\n      pop\n        /* \"#utility.yul\":5998:6058   */\n      swap2\n      swap1\n      pop\n      jump\t// out\n        /* \"#utility.yul\":6064:6206   */\n    tag_346:\n        /* \"#utility.yul\":6114:6123   */\n      0x00\n        /* \"#utility.yul\":6147:6200   */\n      tag_499\n        /* \"#utility.yul\":6165:6199   */\n      tag_500\n        /* \"#utility.yul\":6174:6198   */\n      tag_501\n        /* \"#utility.yul\":6192:6197   */\n      dup5\n        /* \"#utility.yul\":6174:6198   */\n      tag_322\n      jump\t// in\n    tag_501:\n        /* \"#utility.yul\":6165:6199   */\n      tag_345\n      jump\t// in\n    tag_500:\n        /* \"#utility.yul\":6147:6200   */\n      tag_322\n      jump\t// in\n    tag_499:\n        /* \"#utility.yul\":6134:6200   */\n      swap1\n      pop\n        /* \"#utility.yul\":6064:6206   */\n      swap2\n      swap1\n      pop\n      jump\t// out\n        /* \"#utility.yul\":6212:6338   */\n    tag_347:\n        /* \"#utility.yul\":6262:6271   */\n      0x00\n        /* \"#utility.yul\":6295:6332   */\n      tag_503\n        /* \"#utility.yul\":6326:6331   */\n      dup3\n        /* \"#utility.yul\":6295:6332   */\n      tag_346\n      jump\t// in\n    tag_503:\n        /* \"#utility.yul\":6282:6332   */\n      swap1\n      pop\n        /* \"#utility.yul\":6212:6338   */\n      swap2\n      swap1\n      pop\n      jump\t// out\n        /* \"#utility.yul\":6344:6484   */\n    tag_348:\n        /* \"#utility.yul\":6408:6417   */\n      0x00\n        /* \"#utility.yul\":6441:6478   */\n      tag_505\n        /* \"#utility.yul\":6472:6477   */\n      dup3\n        /* \"#utility.yul\":6441:6478   */\n      tag_347\n      jump\t// in\n    tag_505:\n        /* \"#utility.yul\":6428:6478   */\n      swap1\n      pop\n        /* \"#utility.yul\":6344:6484   */\n      swap2\n      swap1\n      pop\n      jump\t// out\n        /* \"#utility.yul\":6490:6649   */\n    tag_349:\n        /* \"#utility.yul\":6591:6642   */\n      tag_507\n        /* \"#utility.yul\":6636:6641   */\n      dup2\n        /* \"#utility.yul\":6591:6642   */\n      tag_348\n      jump\t// in\n    tag_507:\n        /* \"#utility.yul\":6586:6589   */\n      dup3\n        /* \"#utility.yul\":6579:6643   */\n      mstore\n        /* \"#utility.yul\":6490:6649   */\n      pop\n      pop\n      jump\t// out\n        /* \"#utility.yul\":6655:6905   */\n    tag_56:\n        /* \"#utility.yul\":6762:6766   */\n      0x00\n        /* \"#utility.yul\":6800:6802   */\n      0x20\n        /* \"#utility.yul\":6789:6798   */\n      dup3\n        /* \"#utility.yul\":6785:6803   */\n      add\n        /* \"#utility.yul\":6777:6803   */\n      swap1\n      pop\n        /* \"#utility.yul\":6813:6898   */\n      tag_509\n        /* \"#utility.yul\":6895:6896   */\n      0x00\n        /* \"#utility.yul\":6884:6893   */\n      dup4\n        /* \"#utility.yul\":6880:6897   */\n      add\n        /* \"#utility.yul\":6871:6877   */\n      dup5\n        /* \"#utility.yul\":6813:6898   */\n      tag_349\n      jump\t// in\n    tag_509:\n        /* \"#utility.yul\":6655:6905   */\n      swap3\n      swap2\n      pop\n      pop\n      jump\t// out\n        /* \"#utility.yul\":6911:7029   */\n    tag_350:\n        /* \"#utility.yul\":6998:7022   */\n      tag_511\n        /* \"#utility.yul\":7016:7021   */\n      dup2\n        /* \"#utility.yul\":6998:7022   */\n      tag_323\n      jump\t// in\n    tag_511:\n        /* \"#utility.yul\":6993:6996   */\n      dup3\n        /* \"#utility.yul\":6986:7023   */\n      mstore\n        /* \"#utility.yul\":6911:7029   */\n      pop\n      pop\n      jump\t// out\n        /* \"#utility.yul\":7035:7257   */\n    tag_63:\n        /* \"#utility.yul\":7128:7132   */\n      0x00\n        /* \"#utility.yul\":7166:7168   */\n      0x20\n        /* \"#utility.yul\":7155:7164   */\n      dup3\n        /* \"#utility.yul\":7151:7169   */\n      add\n        /* \"#utility.yul\":7143:7169   */\n      swap1\n      pop\n        /* \"#utility.yul\":7179:7250   */\n      tag_513\n        /* \"#utility.yul\":7247:7248   */\n      0x00\n        /* \"#utility.yul\":7236:7245   */\n      dup4\n        /* \"#utility.yul\":7232:7249   */\n      add\n        /* \"#utility.yul\":7223:7229   */\n      dup5\n        /* \"#utility.yul\":7179:7250   */\n      tag_350\n      jump\t// in\n    tag_513:\n        /* \"#utility.yul\":7035:7257   */\n      swap3\n      swap2\n      pop\n      pop\n      jump\t// out\n        /* \"#utility.yul\":7263:7882   */\n    tag_73:\n        /* \"#utility.yul\":7340:7346   */\n      0x00\n        /* \"#utility.yul\":7348:7354   */\n      dup1\n        /* \"#utility.yul\":7356:7362   */\n      0x00\n        /* \"#utility.yul\":7405:7407   */\n      0x60\n        /* \"#utility.yul\":7393:7402   */\n      dup5\n        /* \"#utility.yul\":7384:7391   */\n      dup7\n        /* \"#utility.yul\":7380:7403   */\n      sub\n        /* \"#utility.yul\":7376:7408   */\n      slt\n        /* \"#utility.yul\":7373:7492   */\n      iszero\n      tag_515\n      jumpi\n        /* \"#utility.yul\":7411:7490   */\n      tag_516\n      tag_320\n      jump\t// in\n    tag_516:\n        /* \"#utility.yul\":7373:7492   */\n    tag_515:\n        /* \"#utility.yul\":7531:7532   */\n      0x00\n        /* \"#utility.yul\":7556:7609   */\n      tag_517\n        /* \"#utility.yul\":7601:7608   */\n      dup7\n        /* \"#utility.yul\":7592:7598   */\n      dup3\n        /* \"#utility.yul\":7581:7590   */\n      dup8\n        /* \"#utility.yul\":7577:7599   */\n      add\n        /* \"#utility.yul\":7556:7609   */\n      tag_329\n      jump\t// in\n    tag_517:\n        /* \"#utility.yul\":7546:7609   */\n      swap4\n      pop\n        /* \"#utility.yul\":7502:7619   */\n      pop\n        /* \"#utility.yul\":7658:7660   */\n      0x20\n        /* \"#utility.yul\":7684:7737   */\n      tag_518\n        /* \"#utility.yul\":7729:7736   */\n      dup7\n        /* \"#utility.yul\":7720:7726   */\n      dup3\n        /* \"#utility.yul\":7709:7718   */\n      dup8\n        /* \"#utility.yul\":7705:7727   */\n      add\n        /* \"#utility.yul\":7684:7737   */\n      tag_329\n      jump\t// in\n    tag_518:\n        /* \"#utility.yul\":7674:7737   */\n      swap3\n      pop\n        /* \"#utility.yul\":7629:7747   */\n      pop\n        /* \"#utility.yul\":7786:7788   */\n      0x40\n        /* \"#utility.yul\":7812:7865   */\n      tag_519\n        /* \"#utility.yul\":7857:7864   */\n      dup7\n        /* \"#utility.yul\":7848:7854   */\n      dup3\n        /* \"#utility.yul\":7837:7846   */\n      dup8\n        /* \"#utility.yul\":7833:7855   */\n      add\n        /* \"#utility.yul\":7812:7865   */\n      tag_329\n      jump\t// in\n    tag_519:\n        /* \"#utility.yul\":7802:7865   */\n      swap2\n      pop\n        /* \"#utility.yul\":7757:7875   */\n      pop\n        /* \"#utility.yul\":7263:7882   */\n      swap3\n      pop\n      swap3\n      pop\n      swap3\n      jump\t// out\n        /* \"#utility.yul\":7888:8507   */\n    tag_83:\n        /* \"#utility.yul\":7965:7971   */\n      0x00\n        /* \"#utility.yul\":7973:7979   */\n      dup1\n        /* \"#utility.yul\":7981:7987   */\n      0x00\n        /* \"#utility.yul\":8030:8032   */\n      0x60\n        /* \"#utility.yul\":8018:8027   */\n      dup5\n        /* \"#utility.yul\":8009:8016   */\n      dup7\n        /* \"#utility.yul\":8005:8028   */\n      sub\n        /* \"#utility.yul\":8001:8033   */\n      slt\n        /* \"#utility.yul\":7998:8117   */\n      iszero\n      tag_521\n      jumpi\n        /* \"#utility.yul\":8036:8115   */\n      tag_522\n      tag_320\n      jump\t// in\n    tag_522:\n        /* \"#utility.yul\":7998:8117   */\n    tag_521:\n        /* \"#utility.yul\":8156:8157   */\n      0x00\n        /* \"#utility.yul\":8181:8234   */\n      tag_523\n        /* \"#utility.yul\":8226:8233   */\n      dup7\n        /* \"#utility.yul\":8217:8223   */\n      dup3\n        /* \"#utility.yul\":8206:8215   */\n      dup8\n        /* \"#utility.yul\":8202:8224   */\n      add\n        /* \"#utility.yul\":8181:8234   */\n      tag_343\n      jump\t// in\n    tag_523:\n        /* \"#utility.yul\":8171:8234   */\n      swap4\n      pop\n        /* \"#utility.yul\":8127:8244   */\n      pop\n        /* \"#utility.yul\":8283:8285   */\n      0x20\n        /* \"#utility.yul\":8309:8362   */\n      tag_524\n        /* \"#utility.yul\":8354:8361   */\n      dup7\n        /* \"#utility.yul\":8345:8351   */\n      dup3\n        /* \"#utility.yul\":8334:8343   */\n      dup8\n        /* \"#utility.yul\":8330:8352   */\n      add\n        /* \"#utility.yul\":8309:8362   */\n      tag_343\n      jump\t// in\n    tag_524:\n        /* \"#utility.yul\":8299:8362   */\n      swap3\n      pop\n        /* \"#utility.yul\":8254:8372   */\n      pop\n        /* \"#utility.yul\":8411:8413   */\n      0x40\n        /* \"#utility.yul\":8437:8490   */\n      tag_525\n        /* \"#utility.yul\":8482:8489   */\n      dup7\n        /* \"#utility.yul\":8473:8479   */\n      dup3\n        /* \"#utility.yul\":8462:8471   */\n      dup8\n        /* \"#utility.yul\":8458:8480   */\n      add\n        /* \"#utility.yul\":8437:8490   */\n      tag_343\n      jump\t// in\n    tag_525:\n        /* \"#utility.yul\":8427:8490   */\n      swap2\n      pop\n        /* \"#utility.yul\":8382:8500   */\n      pop\n        /* \"#utility.yul\":7888:8507   */\n      swap3\n      pop\n      swap3\n      pop\n      swap3\n      jump\t// out\n        /* \"#utility.yul\":8513:8590   */\n    tag_351:\n        /* \"#utility.yul\":8550:8557   */\n      0x00\n        /* \"#utility.yul\":8579:8584   */\n      dup2\n        /* \"#utility.yul\":8568:8584   */\n      swap1\n      pop\n        /* \"#utility.yul\":8513:8590   */\n      swap2\n      swap1\n      pop\n      jump\t// out\n        /* \"#utility.yul\":8596:8718   */\n    tag_352:\n        /* \"#utility.yul\":8669:8693   */\n      tag_528\n        /* \"#utility.yul\":8687:8692   */\n      dup2\n        /* \"#utility.yul\":8669:8693   */\n      tag_351\n      jump\t// in\n    tag_528:\n        /* \"#utility.yul\":8662:8667   */\n      dup2\n        /* \"#utility.yul\":8659:8694   */\n      eq\n        /* \"#utility.yul\":8649:8712   */\n      tag_529\n      jumpi\n        /* \"#utility.yul\":8708:8709   */\n      0x00\n        /* \"#utility.yul\":8705:8706   */\n      dup1\n        /* \"#utility.yul\":8698:8710   */\n      revert\n        /* \"#utility.yul\":8649:8712   */\n    tag_529:\n        /* \"#utility.yul\":8596:8718   */\n      pop\n      jump\t// out\n        /* \"#utility.yul\":8724:8863   */\n    tag_353:\n        /* \"#utility.yul\":8770:8775   */\n      0x00\n        /* \"#utility.yul\":8808:8814   */\n      dup2\n        /* \"#utility.yul\":8795:8815   */\n      calldataload\n        /* \"#utility.yul\":8786:8815   */\n      swap1\n      pop\n        /* \"#utility.yul\":8824:8857   */\n      tag_531\n        /* \"#utility.yul\":8851:8856   */\n      dup2\n        /* \"#utility.yul\":8824:8857   */\n      tag_352\n      jump\t// in\n    tag_531:\n        /* \"#utility.yul\":8724:8863   */\n      swap3\n      swap2\n      pop\n      pop\n      jump\t// out\n        /* \"#utility.yul\":8869:9176   */\n    tag_354:\n        /* \"#utility.yul\":8930:8934   */\n      0x00\n        /* \"#utility.yul\":9020:9038   */\n      0xffffffffffffffff\n        /* \"#utility.yul\":9012:9018   */\n      dup3\n        /* \"#utility.yul\":9009:9039   */\n      gt\n        /* \"#utility.yul\":9006:9062   */\n      iszero\n      tag_533\n      jumpi\n        /* \"#utility.yul\":9042:9060   */\n      tag_534\n      tag_333\n      jump\t// in\n    tag_534:\n        /* \"#utility.yul\":9006:9062   */\n    tag_533:\n        /* \"#utility.yul\":9080:9109   */\n      tag_535\n        /* \"#utility.yul\":9102:9108   */\n      dup3\n        /* \"#utility.yul\":9080:9109   */\n      tag_332\n      jump\t// in\n    tag_535:\n        /* \"#utility.yul\":9072:9109   */\n      swap1\n      pop\n        /* \"#utility.yul\":9164:9168   */\n      0x20\n        /* \"#utility.yul\":9158:9162   */\n      dup2\n        /* \"#utility.yul\":9154:9169   */\n      add\n        /* \"#utility.yul\":9146:9169   */\n      swap1\n      pop\n        /* \"#utility.yul\":8869:9176   */\n      swap2\n      swap1\n      pop\n      jump\t// out\n        /* \"#utility.yul\":9182:9605   */\n    tag_355:\n        /* \"#utility.yul\":9259:9264   */\n      0x00\n        /* \"#utility.yul\":9284:9349   */\n      tag_537\n        /* \"#utility.yul\":9300:9348   */\n      tag_538\n        /* \"#utility.yul\":9341:9347   */\n      dup5\n        /* \"#utility.yul\":9300:9348   */\n      tag_354\n      jump\t// in\n    tag_538:\n        /* \"#utility.yul\":9284:9349   */\n      tag_335\n      jump\t// in\n    tag_537:\n        /* \"#utility.yul\":9275:9349   */\n      swap1\n      pop\n        /* \"#utility.yul\":9372:9378   */\n      dup3\n        /* \"#utility.yul\":9365:9370   */\n      dup2\n        /* \"#utility.yul\":9358:9379   */\n      mstore\n        /* \"#utility.yul\":9410:9414   */\n      0x20\n        /* \"#utility.yul\":9403:9408   */\n      dup2\n        /* \"#utility.yul\":9399:9415   */\n      add\n        /* \"#utility.yul\":9448:9451   */\n      dup5\n        /* \"#utility.yul\":9439:9445   */\n      dup5\n        /* \"#utility.yul\":9434:9437   */\n      dup5\n        /* \"#utility.yul\":9430:9446   */\n      add\n        /* \"#utility.yul\":9427:9452   */\n      gt\n        /* \"#utility.yul\":9424:9536   */\n      iszero\n      tag_539\n      jumpi\n        /* \"#utility.yul\":9455:9534   */\n      tag_540\n      tag_331\n      jump\t// in\n    tag_540:\n        /* \"#utility.yul\":9424:9536   */\n    tag_539:\n        /* \"#utility.yul\":9545:9599   */\n      tag_541\n        /* \"#utility.yul\":9592:9598   */\n      dup5\n        /* \"#utility.yul\":9587:9590   */\n      dup3\n        /* \"#utility.yul\":9582:9585   */\n      dup6\n        /* \"#utility.yul\":9545:9599   */\n      tag_337\n      jump\t// in\n    tag_541:\n        /* \"#utility.yul\":9265:9605   */\n      pop\n        /* \"#utility.yul\":9182:9605   */\n      swap4\n      swap3\n      pop\n      pop\n      pop\n      jump\t// out\n        /* \"#utility.yul\":9624:9962   */\n    tag_356:\n        /* \"#utility.yul\":9679:9684   */\n      0x00\n        /* \"#utility.yul\":9728:9731   */\n      dup3\n        /* \"#utility.yul\":9721:9725   */\n      0x1f\n        /* \"#utility.yul\":9713:9719   */\n      dup4\n        /* \"#utility.yul\":9709:9726   */\n      add\n        /* \"#utility.yul\":9705:9732   */\n      slt\n        /* \"#utility.yul\":9695:9817   */\n      tag_543\n      jumpi\n        /* \"#utility.yul\":9736:9815   */\n      tag_544\n      tag_330\n      jump\t// in\n    tag_544:\n        /* \"#utility.yul\":9695:9817   */\n    tag_543:\n        /* \"#utility.yul\":9853:9859   */\n      dup2\n        /* \"#utility.yul\":9840:9860   */\n      calldataload\n        /* \"#utility.yul\":9878:9956   */\n      tag_545\n        /* \"#utility.yul\":9952:9955   */\n      dup5\n        /* \"#utility.yul\":9944:9950   */\n      dup3\n        /* \"#utility.yul\":9937:9941   */\n      0x20\n        /* \"#utility.yul\":9929:9935   */\n      dup7\n        /* \"#utility.yul\":9925:9942   */\n      add\n        /* \"#utility.yul\":9878:9956   */\n      tag_355\n      jump\t// in\n    tag_545:\n        /* \"#utility.yul\":9869:9956   */\n      swap2\n      pop\n        /* \"#utility.yul\":9685:9962   */\n      pop\n        /* \"#utility.yul\":9624:9962   */\n      swap3\n      swap2\n      pop\n      pop\n      jump\t// out\n        /* \"#utility.yul\":9968:10620   */\n    tag_99:\n        /* \"#utility.yul\":10045:10051   */\n      0x00\n        /* \"#utility.yul\":10053:10059   */\n      dup1\n        /* \"#utility.yul\":10102:10104   */\n      0x40\n        /* \"#utility.yul\":10090:10099   */\n      dup4\n        /* \"#utility.yul\":10081:10088   */\n      dup6\n        /* \"#utility.yul\":10077:10100   */\n      sub\n        /* \"#utility.yul\":10073:10105   */\n      slt\n        /* \"#utility.yul\":10070:10189   */\n      iszero\n      tag_547\n      jumpi\n        /* \"#utility.yul\":10108:10187   */\n      tag_548\n      tag_320\n      jump\t// in\n    tag_548:\n        /* \"#utility.yul\":10070:10189   */\n    tag_547:\n        /* \"#utility.yul\":10228:10229   */\n      0x00\n        /* \"#utility.yul\":10253:10306   */\n      tag_549\n        /* \"#utility.yul\":10298:10305   */\n      dup6\n        /* \"#utility.yul\":10289:10295   */\n      dup3\n        /* \"#utility.yul\":10278:10287   */\n      dup7\n        /* \"#utility.yul\":10274:10296   */\n      add\n        /* \"#utility.yul\":10253:10306   */\n      tag_353\n      jump\t// in\n    tag_549:\n        /* \"#utility.yul\":10243:10306   */\n      swap3\n      pop\n        /* \"#utility.yul\":10199:10316   */\n      pop\n        /* \"#utility.yul\":10383:10385   */\n      0x20\n        /* \"#utility.yul\":10372:10381   */\n      dup4\n        /* \"#utility.yul\":10368:10386   */\n      add\n        /* \"#utility.yul\":10355:10387   */\n      calldataload\n        /* \"#utility.yul\":10414:10432   */\n      0xffffffffffffffff\n        /* \"#utility.yul\":10406:10412   */\n      dup2\n        /* \"#utility.yul\":10403:10433   */\n      gt\n        /* \"#utility.yul\":10400:10517   */\n      iszero\n      tag_550\n      jumpi\n        /* \"#utility.yul\":10436:10515   */\n      tag_551\n      tag_321\n      jump\t// in\n    tag_551:\n        /* \"#utility.yul\":10400:10517   */\n    tag_550:\n        /* \"#utility.yul\":10541:10603   */\n      tag_552\n        /* \"#utility.yul\":10595:10602   */\n      dup6\n        /* \"#utility.yul\":10586:10592   */\n      dup3\n        /* \"#utility.yul\":10575:10584   */\n      dup7\n        /* \"#utility.yul\":10571:10593   */\n      add\n        /* \"#utility.yul\":10541:10603   */\n      tag_356\n      jump\t// in\n    tag_552:\n        /* \"#utility.yul\":10531:10603   */\n      swap2\n      pop\n        /* \"#utility.yul\":10326:10613   */\n      pop\n        /* \"#utility.yul\":9968:10620   */\n      swap3\n      pop\n      swap3\n      swap1\n      pop\n      jump\t// out\n        /* \"#utility.yul\":10626:10955   */\n    tag_104:\n        /* \"#utility.yul\":10685:10691   */\n      0x00\n        /* \"#utility.yul\":10734:10736   */\n      0x20\n        /* \"#utility.yul\":10722:10731   */\n      dup3\n        /* \"#utility.yul\":10713:10720   */\n      dup5\n        /* \"#utility.yul\":10709:10732   */\n      sub\n        /* \"#utility.yul\":10705:10737   */\n      slt\n        /* \"#utility.yul\":10702:10821   */\n      iszero\n      tag_554\n      jumpi\n        /* \"#utility.yul\":10740:10819   */\n      tag_555\n      tag_320\n      jump\t// in\n    tag_555:\n        /* \"#utility.yul\":10702:10821   */\n    tag_554:\n        /* \"#utility.yul\":10860:10861   */\n      0x00\n        /* \"#utility.yul\":10885:10938   */\n      tag_556\n        /* \"#utility.yul\":10930:10937   */\n      dup5\n        /* \"#utility.yul\":10921:10927   */\n      dup3\n        /* \"#utility.yul\":10910:10919   */\n      dup6\n        /* \"#utility.yul\":10906:10928   */\n      add\n        /* \"#utility.yul\":10885:10938   */\n      tag_329\n      jump\t// in\n    tag_556:\n        /* \"#utility.yul\":10875:10938   */\n      swap2\n      pop\n        /* \"#utility.yul\":10831:10948   */\n      pop\n        /* \"#utility.yul\":10626:10955   */\n      swap3\n      swap2\n      pop\n      pop\n      jump\t// out\n        /* \"#utility.yul\":10961:11060   */\n    tag_357:\n        /* \"#utility.yul\":11013:11019   */\n      0x00\n        /* \"#utility.yul\":11047:11052   */\n      dup2\n        /* \"#utility.yul\":11041:11053   */\n      mload\n        /* \"#utility.yul\":11031:11053   */\n      swap1\n      pop\n        /* \"#utility.yul\":10961:11060   */\n      swap2\n      swap1\n      pop\n      jump\t// out\n        /* \"#utility.yul\":11066:11235   */\n    tag_358:\n        /* \"#utility.yul\":11150:11161   */\n      0x00\n        /* \"#utility.yul\":11184:11190   */\n      dup3\n        /* \"#utility.yul\":11179:11182   */\n      dup3\n        /* \"#utility.yul\":11172:11191   */\n      mstore\n        /* \"#utility.yul\":11224:11228   */\n      0x20\n        /* \"#utility.yul\":11219:11222   */\n      dup3\n        /* \"#utility.yul\":11215:11229   */\n      add\n        /* \"#utility.yul\":11200:11229   */\n      swap1\n      pop\n        /* \"#utility.yul\":11066:11235   */\n      swap3\n      swap2\n      pop\n      pop\n      jump\t// out\n        /* \"#utility.yul\":11241:11487   */\n    tag_359:\n        /* \"#utility.yul\":11322:11323   */\n      0x00\n        /* \"#utility.yul\":11332:11445   */\n    tag_560:\n        /* \"#utility.yul\":11346:11352   */\n      dup4\n        /* \"#utility.yul\":11343:11344   */\n      dup2\n        /* \"#utility.yul\":11340:11353   */\n      lt\n        /* \"#utility.yul\":11332:11445   */\n      iszero\n      tag_562\n      jumpi\n        /* \"#utility.yul\":11431:11432   */\n      dup1\n        /* \"#utility.yul\":11426:11429   */\n      dup3\n        /* \"#utility.yul\":11422:11433   */\n      add\n        /* \"#utility.yul\":11416:11434   */\n      mload\n        /* \"#utility.yul\":11412:11413   */\n      dup2\n        /* \"#utility.yul\":11407:11410   */\n      dup5\n        /* \"#utility.yul\":11403:11414   */\n      add\n        /* \"#utility.yul\":11396:11435   */\n      mstore\n        /* \"#utility.yul\":11368:11370   */\n      0x20\n        /* \"#utility.yul\":11365:11366   */\n      dup2\n        /* \"#utility.yul\":11361:11371   */\n      add\n        /* \"#utility.yul\":11356:11371   */\n      swap1\n      pop\n        /* \"#utility.yul\":11332:11445   */\n      jump(tag_560)\n    tag_562:\n        /* \"#utility.yul\":11479:11480   */\n      0x00\n        /* \"#utility.yul\":11470:11476   */\n      dup5\n        /* \"#utility.yul\":11465:11468   */\n      dup5\n        /* \"#utility.yul\":11461:11477   */\n      add\n        /* \"#utility.yul\":11454:11481   */\n      mstore\n        /* \"#utility.yul\":11303:11487   */\n      pop\n        /* \"#utility.yul\":11241:11487   */\n      pop\n      pop\n      pop\n      jump\t// out\n        /* \"#utility.yul\":11493:11870   */\n    tag_360:\n        /* \"#utility.yul\":11581:11584   */\n      0x00\n        /* \"#utility.yul\":11609:11648   */\n      tag_564\n        /* \"#utility.yul\":11642:11647   */\n      dup3\n        /* \"#utility.yul\":11609:11648   */\n      tag_357\n      jump\t// in\n    tag_564:\n        /* \"#utility.yul\":11664:11735   */\n      tag_565\n        /* \"#utility.yul\":11728:11734   */\n      dup2\n        /* \"#utility.yul\":11723:11726   */\n      dup6\n        /* \"#utility.yul\":11664:11735   */\n      tag_358\n      jump\t// in\n    tag_565:\n        /* \"#utility.yul\":11657:11735   */\n      swap4\n      pop\n        /* \"#utility.yul\":11744:11809   */\n      tag_566\n        /* \"#utility.yul\":11802:11808   */\n      dup2\n        /* \"#utility.yul\":11797:11800   */\n      dup6\n        /* \"#utility.yul\":11790:11794   */\n      0x20\n        /* \"#utility.yul\":11783:11788   */\n      dup7\n        /* \"#utility.yul\":11779:11795   */\n      add\n        /* \"#utility.yul\":11744:11809   */\n      tag_359\n      jump\t// in\n    tag_566:\n        /* \"#utility.yul\":11834:11863   */\n      tag_567\n        /* \"#utility.yul\":11856:11862   */\n      dup2\n        /* \"#utility.yul\":11834:11863   */\n      tag_332\n      jump\t// in\n    tag_567:\n        /* \"#utility.yul\":11829:11832   */\n      dup5\n        /* \"#utility.yul\":11825:11864   */\n      add\n        /* \"#utility.yul\":11818:11864   */\n      swap2\n      pop\n        /* \"#utility.yul\":11585:11870   */\n      pop\n        /* \"#utility.yul\":11493:11870   */\n      swap3\n      swap2\n      pop\n      pop\n      jump\t// out\n        /* \"#utility.yul\":11876:12631   */\n    tag_107:\n        /* \"#utility.yul\":12101:12105   */\n      0x00\n        /* \"#utility.yul\":12139:12142   */\n      0xa0\n        /* \"#utility.yul\":12128:12137   */\n      dup3\n        /* \"#utility.yul\":12124:12143   */\n      add\n        /* \"#utility.yul\":12116:12143   */\n      swap1\n      pop\n        /* \"#utility.yul\":12153:12224   */\n      tag_569\n        /* \"#utility.yul\":12221:12222   */\n      0x00\n        /* \"#utility.yul\":12210:12219   */\n      dup4\n        /* \"#utility.yul\":12206:12223   */\n      add\n        /* \"#utility.yul\":12197:12203   */\n      dup9\n        /* \"#utility.yul\":12153:12224   */\n      tag_350\n      jump\t// in\n    tag_569:\n        /* \"#utility.yul\":12234:12306   */\n      tag_570\n        /* \"#utility.yul\":12302:12304   */\n      0x20\n        /* \"#utility.yul\":12291:12300   */\n      dup4\n        /* \"#utility.yul\":12287:12305   */\n      add\n        /* \"#utility.yul\":12278:12284   */\n      dup8\n        /* \"#utility.yul\":12234:12306   */\n      tag_344\n      jump\t// in\n    tag_570:\n        /* \"#utility.yul\":12316:12388   */\n      tag_571\n        /* \"#utility.yul\":12384:12386   */\n      0x40\n        /* \"#utility.yul\":12373:12382   */\n      dup4\n        /* \"#utility.yul\":12369:12387   */\n      add\n        /* \"#utility.yul\":12360:12366   */\n      dup7\n        /* \"#utility.yul\":12316:12388   */\n      tag_344\n      jump\t// in\n    tag_571:\n        /* \"#utility.yul\":12435:12444   */\n      dup2\n        /* \"#utility.yul\":12429:12433   */\n      dup2\n        /* \"#utility.yul\":12425:12445   */\n      sub\n        /* \"#utility.yul\":12420:12422   */\n      0x60\n        /* \"#utility.yul\":12409:12418   */\n      dup4\n        /* \"#utility.yul\":12405:12423   */\n      add\n        /* \"#utility.yul\":12398:12446   */\n      mstore\n        /* \"#utility.yul\":12463:12541   */\n      tag_572\n        /* \"#utility.yul\":12536:12540   */\n      dup2\n        /* \"#utility.yul\":12527:12533   */\n      dup6\n        /* \"#utility.yul\":12463:12541   */\n      tag_360\n      jump\t// in\n    tag_572:\n        /* \"#utility.yul\":12455:12541   */\n      swap1\n      pop\n        /* \"#utility.yul\":12551:12624   */\n      tag_573\n        /* \"#utility.yul\":12619:12622   */\n      0x80\n        /* \"#utility.yul\":12608:12617   */\n      dup4\n        /* \"#utility.yul\":12604:12623   */\n      add\n        /* \"#utility.yul\":12595:12601   */\n      dup5\n        /* \"#utility.yul\":12551:12624   */\n      tag_344\n      jump\t// in\n    tag_573:\n        /* \"#utility.yul\":11876:12631   */\n      swap7\n      swap6\n      pop\n      pop\n      pop\n      pop\n      pop\n      pop\n      jump\t// out\n        /* \"#utility.yul\":12637:13874   */\n    tag_110:\n        /* \"#utility.yul\":12751:12757   */\n      0x00\n        /* \"#utility.yul\":12759:12765   */\n      dup1\n        /* \"#utility.yul\":12767:12773   */\n      0x00\n        /* \"#utility.yul\":12775:12781   */\n      dup1\n        /* \"#utility.yul\":12783:12789   */\n      0x00\n        /* \"#utility.yul\":12791:12797   */\n      dup1\n        /* \"#utility.yul\":12840:12843   */\n      0xc0\n        /* \"#utility.yul\":12828:12837   */\n      dup8\n        /* \"#utility.yul\":12819:12826   */\n      dup10\n        /* \"#utility.yul\":12815:12838   */\n      sub\n        /* \"#utility.yul\":12811:12844   */\n      slt\n        /* \"#utility.yul\":12808:12928   */\n      iszero\n      tag_575\n      jumpi\n        /* \"#utility.yul\":12847:12926   */\n      tag_576\n      tag_320\n      jump\t// in\n    tag_576:\n        /* \"#utility.yul\":12808:12928   */\n    tag_575:\n        /* \"#utility.yul\":12967:12968   */\n      0x00\n        /* \"#utility.yul\":12992:13045   */\n      tag_577\n        /* \"#utility.yul\":13037:13044   */\n      dup10\n        /* \"#utility.yul\":13028:13034   */\n      dup3\n        /* \"#utility.yul\":13017:13026   */\n      dup11\n        /* \"#utility.yul\":13013:13035   */\n      add\n        /* \"#utility.yul\":12992:13045   */\n      tag_343\n      jump\t// in\n    tag_577:\n        /* \"#utility.yul\":12982:13045   */\n      swap7\n      pop\n        /* \"#utility.yul\":12938:13055   */\n      pop\n        /* \"#utility.yul\":13094:13096   */\n      0x20\n        /* \"#utility.yul\":13120:13173   */\n      tag_578\n        /* \"#utility.yul\":13165:13172   */\n      dup10\n        /* \"#utility.yul\":13156:13162   */\n      dup3\n        /* \"#utility.yul\":13145:13154   */\n      dup11\n        /* \"#utility.yul\":13141:13163   */\n      add\n        /* \"#utility.yul\":13120:13173   */\n      tag_343\n      jump\t// in\n    tag_578:\n        /* \"#utility.yul\":13110:13173   */\n      swap6\n      pop\n        /* \"#utility.yul\":13065:13183   */\n      pop\n        /* \"#utility.yul\":13222:13224   */\n      0x40\n        /* \"#utility.yul\":13248:13301   */\n      tag_579\n        /* \"#utility.yul\":13293:13300   */\n      dup10\n        /* \"#utility.yul\":13284:13290   */\n      dup3\n        /* \"#utility.yul\":13273:13282   */\n      dup11\n        /* \"#utility.yul\":13269:13291   */\n      add\n        /* \"#utility.yul\":13248:13301   */\n      tag_329\n      jump\t// in\n    tag_579:\n        /* \"#utility.yul\":13238:13301   */\n      swap5\n      pop\n        /* \"#utility.yul\":13193:13311   */\n      pop\n        /* \"#utility.yul\":13350:13352   */\n      0x60\n        /* \"#utility.yul\":13376:13429   */\n      tag_580\n        /* \"#utility.yul\":13421:13428   */\n      dup10\n        /* \"#utility.yul\":13412:13418   */\n      dup3\n        /* \"#utility.yul\":13401:13410   */\n      dup11\n        /* \"#utility.yul\":13397:13419   */\n      add\n        /* \"#utility.yul\":13376:13429   */\n      tag_329\n      jump\t// in\n    tag_580:\n        /* \"#utility.yul\":13366:13429   */\n      swap4\n      pop\n        /* \"#utility.yul\":13321:13439   */\n      pop\n        /* \"#utility.yul\":13506:13509   */\n      0x80\n        /* \"#utility.yul\":13495:13504   */\n      dup8\n        /* \"#utility.yul\":13491:13510   */\n      add\n        /* \"#utility.yul\":13478:13511   */\n      calldataload\n        /* \"#utility.yul\":13538:13556   */\n      0xffffffffffffffff\n        /* \"#utility.yul\":13530:13536   */\n      dup2\n        /* \"#utility.yul\":13527:13557   */\n      gt\n        /* \"#utility.yul\":13524:13641   */\n      iszero\n      tag_581\n      jumpi\n        /* \"#utility.yul\":13560:13639   */\n      tag_582\n      tag_321\n      jump\t// in\n    tag_582:\n        /* \"#utility.yul\":13524:13641   */\n    tag_581:\n        /* \"#utility.yul\":13665:13728   */\n      tag_583\n        /* \"#utility.yul\":13720:13727   */\n      dup10\n        /* \"#utility.yul\":13711:13717   */\n      dup3\n        /* \"#utility.yul\":13700:13709   */\n      dup11\n        /* \"#utility.yul\":13696:13718   */\n      add\n        /* \"#utility.yul\":13665:13728   */\n      tag_339\n      jump\t// in\n    tag_583:\n        /* \"#utility.yul\":13655:13728   */\n      swap3\n      pop\n        /* \"#utility.yul\":13449:13738   */\n      pop\n        /* \"#utility.yul\":13777:13780   */\n      0xa0\n        /* \"#utility.yul\":13804:13857   */\n      tag_584\n        /* \"#utility.yul\":13849:13856   */\n      dup10\n        /* \"#utility.yul\":13840:13846   */\n      dup3\n        /* \"#utility.yul\":13829:13838   */\n      dup11\n        /* \"#utility.yul\":13825:13847   */\n      add\n        /* \"#utility.yul\":13804:13857   */\n      tag_329\n      jump\t// in\n    tag_584:\n        /* \"#utility.yul\":13794:13857   */\n      swap2\n      pop\n        /* \"#utility.yul\":13748:13867   */\n      pop\n        /* \"#utility.yul\":12637:13874   */\n      swap3\n      swap6\n      pop\n      swap3\n      swap6\n      pop\n      swap3\n      swap6\n      jump\t// out\n        /* \"#utility.yul\":13880:13998   */\n    tag_361:\n        /* \"#utility.yul\":13967:13991   */\n      tag_586\n        /* \"#utility.yul\":13985:13990   */\n      dup2\n        /* \"#utility.yul\":13967:13991   */\n      tag_351\n      jump\t// in\n    tag_586:\n        /* \"#utility.yul\":13962:13965   */\n      dup3\n        /* \"#utility.yul\":13955:13992   */\n      mstore\n        /* \"#utility.yul\":13880:13998   */\n      pop\n      pop\n      jump\t// out\n        /* \"#utility.yul\":14004:14226   */\n    tag_113:\n        /* \"#utility.yul\":14097:14101   */\n      0x00\n        /* \"#utility.yul\":14135:14137   */\n      0x20\n        /* \"#utility.yul\":14124:14133   */\n      dup3\n        /* \"#utility.yul\":14120:14138   */\n      add\n        /* \"#utility.yul\":14112:14138   */\n      swap1\n      pop\n        /* \"#utility.yul\":14148:14219   */\n      tag_588\n        /* \"#utility.yul\":14216:14217   */\n      0x00\n        /* \"#utility.yul\":14205:14214   */\n      dup4\n        /* \"#utility.yul\":14201:14218   */\n      add\n        /* \"#utility.yul\":14192:14198   */\n      dup5\n        /* \"#utility.yul\":14148:14219   */\n      tag_361\n      jump\t// in\n    tag_588:\n        /* \"#utility.yul\":14004:14226   */\n      swap3\n      swap2\n      pop\n      pop\n      jump\t// out\n        /* \"#utility.yul\":14232:15793   */\n    tag_125:\n        /* \"#utility.yul\":14364:14370   */\n      0x00\n        /* \"#utility.yul\":14372:14378   */\n      dup1\n        /* \"#utility.yul\":14380:14386   */\n      0x00\n        /* \"#utility.yul\":14388:14394   */\n      dup1\n        /* \"#utility.yul\":14396:14402   */\n      0x00\n        /* \"#utility.yul\":14404:14410   */\n      dup1\n        /* \"#utility.yul\":14412:14418   */\n      0x00\n        /* \"#utility.yul\":14461:14464   */\n      0xe0\n        /* \"#utility.yul\":14449:14458   */\n      dup9\n        /* \"#utility.yul\":14440:14447   */\n      dup11\n        /* \"#utility.yul\":14436:14459   */\n      sub\n        /* \"#utility.yul\":14432:14465   */\n      slt\n        /* \"#utility.yul\":14429:14549   */\n      iszero\n      tag_590\n      jumpi\n        /* \"#utility.yul\":14468:14547   */\n      tag_591\n      tag_320\n      jump\t// in\n    tag_591:\n        /* \"#utility.yul\":14429:14549   */\n    tag_590:\n        /* \"#utility.yul\":14588:14589   */\n      0x00\n        /* \"#utility.yul\":14613:14666   */\n      tag_592\n        /* \"#utility.yul\":14658:14665   */\n      dup11\n        /* \"#utility.yul\":14649:14655   */\n      dup3\n        /* \"#utility.yul\":14638:14647   */\n      dup12\n        /* \"#utility.yul\":14634:14656   */\n      add\n        /* \"#utility.yul\":14613:14666   */\n      tag_343\n      jump\t// in\n    tag_592:\n        /* \"#utility.yul\":14603:14666   */\n      swap8\n      pop\n        /* \"#utility.yul\":14559:14676   */\n      pop\n        /* \"#utility.yul\":14715:14717   */\n      0x20\n        /* \"#utility.yul\":14741:14794   */\n      tag_593\n        /* \"#utility.yul\":14786:14793   */\n      dup11\n        /* \"#utility.yul\":14777:14783   */\n      dup3\n        /* \"#utility.yul\":14766:14775   */\n      dup12\n        /* \"#utility.yul\":14762:14784   */\n      add\n        /* \"#utility.yul\":14741:14794   */\n      tag_343\n      jump\t// in\n    tag_593:\n        /* \"#utility.yul\":14731:14794   */\n      swap7\n      pop\n        /* \"#utility.yul\":14686:14804   */\n      pop\n        /* \"#utility.yul\":14843:14845   */\n      0x40\n        /* \"#utility.yul\":14869:14922   */\n      tag_594\n        /* \"#utility.yul\":14914:14921   */\n      dup11\n        /* \"#utility.yul\":14905:14911   */\n      dup3\n        /* \"#utility.yul\":14894:14903   */\n      dup12\n        /* \"#utility.yul\":14890:14912   */\n      add\n        /* \"#utility.yul\":14869:14922   */\n      tag_329\n      jump\t// in\n    tag_594:\n        /* \"#utility.yul\":14859:14922   */\n      swap6\n      pop\n        /* \"#utility.yul\":14814:14932   */\n      pop\n        /* \"#utility.yul\":14971:14973   */\n      0x60\n        /* \"#utility.yul\":14997:15050   */\n      tag_595\n        /* \"#utility.yul\":15042:15049   */\n      dup11\n        /* \"#utility.yul\":15033:15039   */\n      dup3\n        /* \"#utility.yul\":15022:15031   */\n      dup12\n        /* \"#utility.yul\":15018:15040   */\n      add\n        /* \"#utility.yul\":14997:15050   */\n      tag_329\n      jump\t// in\n    tag_595:\n        /* \"#utility.yul\":14987:15050   */\n      swap5\n      pop\n        /* \"#utility.yul\":14942:15060   */\n      pop\n        /* \"#utility.yul\":15127:15130   */\n      0x80\n        /* \"#utility.yul\":15116:15125   */\n      dup9\n        /* \"#utility.yul\":15112:15131   */\n      add\n        /* \"#utility.yul\":15099:15132   */\n      calldataload\n        /* \"#utility.yul\":15159:15177   */\n      0xffffffffffffffff\n        /* \"#utility.yul\":15151:15157   */\n      dup2\n        /* \"#utility.yul\":15148:15178   */\n      gt\n        /* \"#utility.yul\":15145:15262   */\n      iszero\n      tag_596\n      jumpi\n        /* \"#utility.yul\":15181:15260   */\n      tag_597\n      tag_321\n      jump\t// in\n    tag_597:\n        /* \"#utility.yul\":15145:15262   */\n    tag_596:\n        /* \"#utility.yul\":15286:15349   */\n      tag_598\n        /* \"#utility.yul\":15341:15348   */\n      dup11\n        /* \"#utility.yul\":15332:15338   */\n      dup3\n        /* \"#utility.yul\":15321:15330   */\n      dup12\n        /* \"#utility.yul\":15317:15339   */\n      add\n        /* \"#utility.yul\":15286:15349   */\n      tag_339\n      jump\t// in\n    tag_598:\n        /* \"#utility.yul\":15276:15349   */\n      swap4\n      pop\n        /* \"#utility.yul\":15070:15359   */\n      pop\n        /* \"#utility.yul\":15398:15401   */\n      0xa0\n        /* \"#utility.yul\":15425:15478   */\n      tag_599\n        /* \"#utility.yul\":15470:15477   */\n      dup11\n        /* \"#utility.yul\":15461:15467   */\n      dup3\n        /* \"#utility.yul\":15450:15459   */\n      dup12\n        /* \"#utility.yul\":15446:15468   */\n      add\n        /* \"#utility.yul\":15425:15478   */\n      tag_329\n      jump\t// in\n    tag_599:\n        /* \"#utility.yul\":15415:15478   */\n      swap3\n      pop\n        /* \"#utility.yul\":15369:15488   */\n      pop\n        /* \"#utility.yul\":15555:15558   */\n      0xc0\n        /* \"#utility.yul\":15544:15553   */\n      dup9\n        /* \"#utility.yul\":15540:15559   */\n      add\n        /* \"#utility.yul\":15527:15560   */\n      calldataload\n        /* \"#utility.yul\":15587:15605   */\n      0xffffffffffffffff\n        /* \"#utility.yul\":15579:15585   */\n      dup2\n        /* \"#utility.yul\":15576:15606   */\n      gt\n        /* \"#utility.yul\":15573:15690   */\n      iszero\n      tag_600\n      jumpi\n        /* \"#utility.yul\":15609:15688   */\n      tag_601\n      tag_321\n      jump\t// in\n    tag_601:\n        /* \"#utility.yul\":15573:15690   */\n    tag_600:\n        /* \"#utility.yul\":15714:15776   */\n      tag_602\n        /* \"#utility.yul\":15768:15775   */\n      dup11\n        /* \"#utility.yul\":15759:15765   */\n      dup3\n        /* \"#utility.yul\":15748:15757   */\n      dup12\n        /* \"#utility.yul\":15744:15766   */\n      add\n        /* \"#utility.yul\":15714:15776   */\n      tag_356\n      jump\t// in\n    tag_602:\n        /* \"#utility.yul\":15704:15776   */\n      swap2\n      pop\n        /* \"#utility.yul\":15498:15786   */\n      pop\n        /* \"#utility.yul\":14232:15793   */\n      swap3\n      swap6\n      swap9\n      swap2\n      swap5\n      swap8\n      pop\n      swap3\n      swap6\n      pop\n      jump\t// out\n        /* \"#utility.yul\":15799:16019   */\n    tag_362:\n        /* \"#utility.yul\":15939:15973   */\n      0x4f6e6c79206f776e65722063616e2063616c6c20746869732066756e6374696f\n        /* \"#utility.yul\":15935:15936   */\n      0x00\n        /* \"#utility.yul\":15927:15933   */\n      dup3\n        /* \"#utility.yul\":15923:15937   */\n      add\n        /* \"#utility.yul\":15916:15974   */\n      mstore\n        /* \"#utility.yul\":16008:16011   */\n      0x6e00000000000000000000000000000000000000000000000000000000000000\n        /* \"#utility.yul\":16003:16005   */\n      0x20\n        /* \"#utility.yul\":15995:16001   */\n      dup3\n        /* \"#utility.yul\":15991:16006   */\n      add\n        /* \"#utility.yul\":15984:16012   */\n      mstore\n        /* \"#utility.yul\":15799:16019   */\n      pop\n      jump\t// out\n        /* \"#utility.yul\":16025:16391   */\n    tag_363:\n        /* \"#utility.yul\":16167:16170   */\n      0x00\n        /* \"#utility.yul\":16188:16255   */\n      tag_605\n        /* \"#utility.yul\":16252:16254   */\n      0x21\n        /* \"#utility.yul\":16247:16250   */\n      dup4\n        /* \"#utility.yul\":16188:16255   */\n      tag_358\n      jump\t// in\n    tag_605:\n        /* \"#utility.yul\":16181:16255   */\n      swap2\n      pop\n        /* \"#utility.yul\":16264:16357   */\n      tag_606\n        /* \"#utility.yul\":16353:16356   */\n      dup3\n        /* \"#utility.yul\":16264:16357   */\n      tag_362\n      jump\t// in\n    tag_606:\n        /* \"#utility.yul\":16382:16384   */\n      0x40\n        /* \"#utility.yul\":16377:16380   */\n      dup3\n        /* \"#utility.yul\":16373:16385   */\n      add\n        /* \"#utility.yul\":16366:16385   */\n      swap1\n      pop\n        /* \"#utility.yul\":16025:16391   */\n      swap2\n      swap1\n      pop\n      jump\t// out\n        /* \"#utility.yul\":16397:16816   */\n    tag_130:\n        /* \"#utility.yul\":16563:16567   */\n      0x00\n        /* \"#utility.yul\":16601:16603   */\n      0x20\n        /* \"#utility.yul\":16590:16599   */\n      dup3\n        /* \"#utility.yul\":16586:16604   */\n      add\n        /* \"#utility.yul\":16578:16604   */\n      swap1\n      pop\n        /* \"#utility.yul\":16650:16659   */\n      dup2\n        /* \"#utility.yul\":16644:16648   */\n      dup2\n        /* \"#utility.yul\":16640:16660   */\n      sub\n        /* \"#utility.yul\":16636:16637   */\n      0x00\n        /* \"#utility.yul\":16625:16634   */\n      dup4\n        /* \"#utility.yul\":16621:16638   */\n      add\n        /* \"#utility.yul\":16614:16661   */\n      mstore\n        /* \"#utility.yul\":16678:16809   */\n      tag_608\n        /* \"#utility.yul\":16804:16808   */\n      dup2\n        /* \"#utility.yul\":16678:16809   */\n      tag_363\n      jump\t// in\n    tag_608:\n        /* \"#utility.yul\":16670:16809   */\n      swap1\n      pop\n        /* \"#utility.yul\":16397:16816   */\n      swap2\n      swap1\n      pop\n      jump\t// out\n        /* \"#utility.yul\":16822:16986   */\n    tag_364:\n        /* \"#utility.yul\":16962:16978   */\n      0x496e76616c696420616d6f756e74000000000000000000000000000000000000\n        /* \"#utility.yul\":16958:16959   */\n      0x00\n        /* \"#utility.yul\":16950:16956   */\n      dup3\n        /* \"#utility.yul\":16946:16960   */\n      add\n        /* \"#utility.yul\":16939:16979   */\n      mstore\n        /* \"#utility.yul\":16822:16986   */\n      pop\n      jump\t// out\n        /* \"#utility.yul\":16992:17358   */\n    tag_365:\n        /* \"#utility.yul\":17134:17137   */\n      0x00\n        /* \"#utility.yul\":17155:17222   */\n      tag_611\n        /* \"#utility.yul\":17219:17221   */\n      0x0e\n        /* \"#utility.yul\":17214:17217   */\n      dup4\n        /* \"#utility.yul\":17155:17222   */\n      tag_358\n      jump\t// in\n    tag_611:\n        /* \"#utility.yul\":17148:17222   */\n      swap2\n      pop\n        /* \"#utility.yul\":17231:17324   */\n      tag_612\n        /* \"#utility.yul\":17320:17323   */\n      dup3\n        /* \"#utility.yul\":17231:17324   */\n      tag_364\n      jump\t// in\n    tag_612:\n        /* \"#utility.yul\":17349:17351   */\n      0x20\n        /* \"#utility.yul\":17344:17347   */\n      dup3\n        /* \"#utility.yul\":17340:17352   */\n      add\n        /* \"#utility.yul\":17333:17352   */\n      swap1\n      pop\n        /* \"#utility.yul\":16992:17358   */\n      swap2\n      swap1\n      pop\n      jump\t// out\n        /* \"#utility.yul\":17364:17783   */\n    tag_134:\n        /* \"#utility.yul\":17530:17534   */\n      0x00\n        /* \"#utility.yul\":17568:17570   */\n      0x20\n        /* \"#utility.yul\":17557:17566   */\n      dup3\n        /* \"#utility.yul\":17553:17571   */\n      add\n        /* \"#utility.yul\":17545:17571   */\n      swap1\n      pop\n        /* \"#utility.yul\":17617:17626   */\n      dup2\n        /* \"#utility.yul\":17611:17615   */\n      dup2\n        /* \"#utility.yul\":17607:17627   */\n      sub\n        /* \"#utility.yul\":17603:17604   */\n      0x00\n        /* \"#utility.yul\":17592:17601   */\n      dup4\n        /* \"#utility.yul\":17588:17605   */\n      add\n        /* \"#utility.yul\":17581:17628   */\n      mstore\n        /* \"#utility.yul\":17645:17776   */\n      tag_614\n        /* \"#utility.yul\":17771:17775   */\n      dup2\n        /* \"#utility.yul\":17645:17776   */\n      tag_365\n      jump\t// in\n    tag_614:\n        /* \"#utility.yul\":17637:17776   */\n      swap1\n      pop\n        /* \"#utility.yul\":17364:17783   */\n      swap2\n      swap1\n      pop\n      jump\t// out\n        /* \"#utility.yul\":17789:18121   */\n    tag_136:\n        /* \"#utility.yul\":17910:17914   */\n      0x00\n        /* \"#utility.yul\":17948:17950   */\n      0x40\n        /* \"#utility.yul\":17937:17946   */\n      dup3\n        /* \"#utility.yul\":17933:17951   */\n      add\n        /* \"#utility.yul\":17925:17951   */\n      swap1\n      pop\n        /* \"#utility.yul\":17961:18032   */\n      tag_616\n        /* \"#utility.yul\":18029:18030   */\n      0x00\n        /* \"#utility.yul\":18018:18027   */\n      dup4\n        /* \"#utility.yul\":18014:18031   */\n      add\n        /* \"#utility.yul\":18005:18011   */\n      dup6\n        /* \"#utility.yul\":17961:18032   */\n      tag_350\n      jump\t// in\n    tag_616:\n        /* \"#utility.yul\":18042:18114   */\n      tag_617\n        /* \"#utility.yul\":18110:18112   */\n      0x20\n        /* \"#utility.yul\":18099:18108   */\n      dup4\n        /* \"#utility.yul\":18095:18113   */\n      add\n        /* \"#utility.yul\":18086:18092   */\n      dup5\n        /* \"#utility.yul\":18042:18114   */\n      tag_344\n      jump\t// in\n    tag_617:\n        /* \"#utility.yul\":17789:18121   */\n      swap4\n      swap3\n      pop\n      pop\n      pop\n      jump\t// out\n        /* \"#utility.yul\":18127:18243   */\n    tag_366:\n        /* \"#utility.yul\":18197:18218   */\n      tag_619\n        /* \"#utility.yul\":18212:18217   */\n      dup2\n        /* \"#utility.yul\":18197:18218   */\n      tag_340\n      jump\t// in\n    tag_619:\n        /* \"#utility.yul\":18190:18195   */\n      dup2\n        /* \"#utility.yul\":18187:18219   */\n      eq\n        /* \"#utility.yul\":18177:18237   */\n      tag_620\n      jumpi\n        /* \"#utility.yul\":18233:18234   */\n      0x00\n        /* \"#utility.yul\":18230:18231   */\n      dup1\n        /* \"#utility.yul\":18223:18235   */\n      revert\n        /* \"#utility.yul\":18177:18237   */\n    tag_620:\n        /* \"#utility.yul\":18127:18243   */\n      pop\n      jump\t// out\n        /* \"#utility.yul\":18249:18386   */\n    tag_367:\n        /* \"#utility.yul\":18303:18308   */\n      0x00\n        /* \"#utility.yul\":18334:18340   */\n      dup2\n        /* \"#utility.yul\":18328:18341   */\n      mload\n        /* \"#utility.yul\":18319:18341   */\n      swap1\n      pop\n        /* \"#utility.yul\":18350:18380   */\n      tag_622\n        /* \"#utility.yul\":18374:18379   */\n      dup2\n        /* \"#utility.yul\":18350:18380   */\n      tag_366\n      jump\t// in\n    tag_622:\n        /* \"#utility.yul\":18249:18386   */\n      swap3\n      swap2\n      pop\n      pop\n      jump\t// out\n        /* \"#utility.yul\":18392:18737   */\n    tag_140:\n        /* \"#utility.yul\":18459:18465   */\n      0x00\n        /* \"#utility.yul\":18508:18510   */\n      0x20\n        /* \"#utility.yul\":18496:18505   */\n      dup3\n        /* \"#utility.yul\":18487:18494   */\n      dup5\n        /* \"#utility.yul\":18483:18506   */\n      sub\n        /* \"#utility.yul\":18479:18511   */\n      slt\n        /* \"#utility.yul\":18476:18595   */\n      iszero\n      tag_624\n      jumpi\n        /* \"#utility.yul\":18514:18593   */\n      tag_625\n      tag_320\n      jump\t// in\n    tag_625:\n        /* \"#utility.yul\":18476:18595   */\n    tag_624:\n        /* \"#utility.yul\":18634:18635   */\n      0x00\n        /* \"#utility.yul\":18659:18720   */\n      tag_626\n        /* \"#utility.yul\":18712:18719   */\n      dup5\n        /* \"#utility.yul\":18703:18709   */\n      dup3\n        /* \"#utility.yul\":18692:18701   */\n      dup6\n        /* \"#utility.yul\":18688:18710   */\n      add\n        /* \"#utility.yul\":18659:18720   */\n      tag_367\n      jump\t// in\n    tag_626:\n        /* \"#utility.yul\":18649:18720   */\n      swap2\n      pop\n        /* \"#utility.yul\":18605:18730   */\n      pop\n        /* \"#utility.yul\":18392:18737   */\n      swap3\n      swap2\n      pop\n      pop\n      jump\t// out\n        /* \"#utility.yul\":18743:18914   */\n    tag_368:\n        /* \"#utility.yul\":18883:18906   */\n      0x546f6b656e207472616e73666572206661696c65640000000000000000000000\n        /* \"#utility.yul\":18879:18880   */\n      0x00\n        /* \"#utility.yul\":18871:18877   */\n      dup3\n        /* \"#utility.yul\":18867:18881   */\n      add\n        /* \"#utility.yul\":18860:18907   */\n      mstore\n        /* \"#utility.yul\":18743:18914   */\n      pop\n      jump\t// out\n        /* \"#utility.yul\":18920:19286   */\n    tag_369:\n        /* \"#utility.yul\":19062:19065   */\n      0x00\n        /* \"#utility.yul\":19083:19150   */\n      tag_629\n        /* \"#utility.yul\":19147:19149   */\n      0x15\n        /* \"#utility.yul\":19142:19145   */\n      dup4\n        /* \"#utility.yul\":19083:19150   */\n      tag_358\n      jump\t// in\n    tag_629:\n        /* \"#utility.yul\":19076:19150   */\n      swap2\n      pop\n        /* \"#utility.yul\":19159:19252   */\n      tag_630\n        /* \"#utility.yul\":19248:19251   */\n      dup3\n        /* \"#utility.yul\":19159:19252   */\n      tag_368\n      jump\t// in\n    tag_630:\n        /* \"#utility.yul\":19277:19279   */\n      0x20\n        /* \"#utility.yul\":19272:19275   */\n      dup3\n        /* \"#utility.yul\":19268:19280   */\n      add\n        /* \"#utility.yul\":19261:19280   */\n      swap1\n      pop\n        /* \"#utility.yul\":18920:19286   */\n      swap2\n      swap1\n      pop\n      jump\t// out\n        /* \"#utility.yul\":19292:19711   */\n    tag_143:\n        /* \"#utility.yul\":19458:19462   */\n      0x00\n        /* \"#utility.yul\":19496:19498   */\n      0x20\n        /* \"#utility.yul\":19485:19494   */\n      dup3\n        /* \"#utility.yul\":19481:19499   */\n      add\n        /* \"#utility.yul\":19473:19499   */\n      swap1\n      pop\n        /* \"#utility.yul\":19545:19554   */\n      dup2\n        /* \"#utility.yul\":19539:19543   */\n      dup2\n        /* \"#utility.yul\":19535:19555   */\n      sub\n        /* \"#utility.yul\":19531:19532   */\n      0x00\n        /* \"#utility.yul\":19520:19529   */\n      dup4\n        /* \"#utility.yul\":19516:19533   */\n      add\n        /* \"#utility.yul\":19509:19556   */\n      mstore\n        /* \"#utility.yul\":19573:19704   */\n      tag_632\n        /* \"#utility.yul\":19699:19703   */\n      dup2\n        /* \"#utility.yul\":19573:19704   */\n      tag_369\n      jump\t// in\n    tag_632:\n        /* \"#utility.yul\":19565:19704   */\n      swap1\n      pop\n        /* \"#utility.yul\":19292:19711   */\n      swap2\n      swap1\n      pop\n      jump\t// out\n        /* \"#utility.yul\":19717:19803   */\n    tag_370:\n        /* \"#utility.yul\":19752:19759   */\n      0x00\n        /* \"#utility.yul\":19792:19796   */\n      0xff\n        /* \"#utility.yul\":19785:19790   */\n      dup3\n        /* \"#utility.yul\":19781:19797   */\n      and\n        /* \"#utility.yul\":19770:19797   */\n      swap1\n      pop\n        /* \"#utility.yul\":19717:19803   */\n      swap2\n      swap1\n      pop\n      jump\t// out\n        /* \"#utility.yul\":19809:19921   */\n    tag_371:\n        /* \"#utility.yul\":19892:19914   */\n      tag_635\n        /* \"#utility.yul\":19908:19913   */\n      dup2\n        /* \"#utility.yul\":19892:19914   */\n      tag_370\n      jump\t// in\n    tag_635:\n        /* \"#utility.yul\":19887:19890   */\n      dup3\n        /* \"#utility.yul\":19880:19915   */\n      mstore\n        /* \"#utility.yul\":19809:19921   */\n      pop\n      pop\n      jump\t// out\n        /* \"#utility.yul\":19927:20472   */\n    tag_181:\n        /* \"#utility.yul\":20100:20104   */\n      0x00\n        /* \"#utility.yul\":20138:20141   */\n      0x80\n        /* \"#utility.yul\":20127:20136   */\n      dup3\n        /* \"#utility.yul\":20123:20142   */\n      add\n        /* \"#utility.yul\":20115:20142   */\n      swap1\n      pop\n        /* \"#utility.yul\":20152:20223   */\n      tag_637\n        /* \"#utility.yul\":20220:20221   */\n      0x00\n        /* \"#utility.yul\":20209:20218   */\n      dup4\n        /* \"#utility.yul\":20205:20222   */\n      add\n        /* \"#utility.yul\":20196:20202   */\n      dup8\n        /* \"#utility.yul\":20152:20223   */\n      tag_361\n      jump\t// in\n    tag_637:\n        /* \"#utility.yul\":20233:20301   */\n      tag_638\n        /* \"#utility.yul\":20297:20299   */\n      0x20\n        /* \"#utility.yul\":20286:20295   */\n      dup4\n        /* \"#utility.yul\":20282:20300   */\n      add\n        /* \"#utility.yul\":20273:20279   */\n      dup7\n        /* \"#utility.yul\":20233:20301   */\n      tag_371\n      jump\t// in\n    tag_638:\n        /* \"#utility.yul\":20311:20383   */\n      tag_639\n        /* \"#utility.yul\":20379:20381   */\n      0x40\n        /* \"#utility.yul\":20368:20377   */\n      dup4\n        /* \"#utility.yul\":20364:20382   */\n      add\n        /* \"#utility.yul\":20355:20361   */\n      dup6\n        /* \"#utility.yul\":20311:20383   */\n      tag_361\n      jump\t// in\n    tag_639:\n        /* \"#utility.yul\":20393:20465   */\n      tag_640\n        /* \"#utility.yul\":20461:20463   */\n      0x60\n        /* \"#utility.yul\":20450:20459   */\n      dup4\n        /* \"#utility.yul\":20446:20464   */\n      add\n        /* \"#utility.yul\":20437:20443   */\n      dup5\n        /* \"#utility.yul\":20393:20465   */\n      tag_361\n      jump\t// in\n    tag_640:\n        /* \"#utility.yul\":19927:20472   */\n      swap6\n      swap5\n      pop\n      pop\n      pop\n      pop\n      pop\n      jump\t// out\n        /* \"#utility.yul\":20478:20658   */\n    tag_372:\n        /* \"#utility.yul\":20526:20603   */\n      0x4e487b7100000000000000000000000000000000000000000000000000000000\n        /* \"#utility.yul\":20523:20524   */\n      0x00\n        /* \"#utility.yul\":20516:20604   */\n      mstore\n        /* \"#utility.yul\":20623:20627   */\n      0x22\n        /* \"#utility.yul\":20620:20621   */\n      0x04\n        /* \"#utility.yul\":20613:20628   */\n      mstore\n        /* \"#utility.yul\":20647:20651   */\n      0x24\n        /* \"#utility.yul\":20644:20645   */\n      0x00\n        /* \"#utility.yul\":20637:20652   */\n      revert\n        /* \"#utility.yul\":20664:20984   */\n    tag_185:\n        /* \"#utility.yul\":20708:20714   */\n      0x00\n        /* \"#utility.yul\":20745:20746   */\n      0x02\n        /* \"#utility.yul\":20739:20743   */\n      dup3\n        /* \"#utility.yul\":20735:20747   */\n      div\n        /* \"#utility.yul\":20725:20747   */\n      swap1\n      pop\n        /* \"#utility.yul\":20792:20793   */\n      0x01\n        /* \"#utility.yul\":20786:20790   */\n      dup3\n        /* \"#utility.yul\":20782:20794   */\n      and\n        /* \"#utility.yul\":20813:20831   */\n      dup1\n        /* \"#utility.yul\":20803:20884   */\n      tag_643\n      jumpi\n        /* \"#utility.yul\":20869:20873   */\n      0x7f\n        /* \"#utility.yul\":20861:20867   */\n      dup3\n        /* \"#utility.yul\":20857:20874   */\n      and\n        /* \"#utility.yul\":20847:20874   */\n      swap2\n      pop\n        /* \"#utility.yul\":20803:20884   */\n    tag_643:\n        /* \"#utility.yul\":20931:20933   */\n      0x20\n        /* \"#utility.yul\":20923:20929   */\n      dup3\n        /* \"#utility.yul\":20920:20934   */\n      lt\n        /* \"#utility.yul\":20900:20918   */\n      dup2\n        /* \"#utility.yul\":20897:20935   */\n      sub\n        /* \"#utility.yul\":20894:20978   */\n      tag_644\n      jumpi\n        /* \"#utility.yul\":20950:20968   */\n      tag_645\n      tag_372\n      jump\t// in\n    tag_645:\n        /* \"#utility.yul\":20894:20978   */\n    tag_644:\n        /* \"#utility.yul\":20715:20984   */\n      pop\n        /* \"#utility.yul\":20664:20984   */\n      swap2\n      swap1\n      pop\n      jump\t// out\n        /* \"#utility.yul\":20990:21084   */\n    tag_373:\n        /* \"#utility.yul\":21023:21031   */\n      0x00\n        /* \"#utility.yul\":21071:21076   */\n      dup2\n        /* \"#utility.yul\":21067:21069   */\n      0x60\n        /* \"#utility.yul\":21063:21077   */\n      shl\n        /* \"#utility.yul\":21042:21077   */\n      swap1\n      pop\n        /* \"#utility.yul\":20990:21084   */\n      swap2\n      swap1\n      pop\n      jump\t// out\n        /* \"#utility.yul\":21090:21184   */\n    tag_374:\n        /* \"#utility.yul\":21129:21136   */\n      0x00\n        /* \"#utility.yul\":21158:21178   */\n      tag_648\n        /* \"#utility.yul\":21172:21177   */\n      dup3\n        /* \"#utility.yul\":21158:21178   */\n      tag_373\n      jump\t// in\n    tag_648:\n        /* \"#utility.yul\":21147:21178   */\n      swap1\n      pop\n        /* \"#utility.yul\":21090:21184   */\n      swap2\n      swap1\n      pop\n      jump\t// out\n        /* \"#utility.yul\":21190:21290   */\n    tag_375:\n        /* \"#utility.yul\":21229:21236   */\n      0x00\n        /* \"#utility.yul\":21258:21284   */\n      tag_650\n        /* \"#utility.yul\":21278:21283   */\n      dup3\n        /* \"#utility.yul\":21258:21284   */\n      tag_374\n      jump\t// in\n    tag_650:\n        /* \"#utility.yul\":21247:21284   */\n      swap1\n      pop\n        /* \"#utility.yul\":21190:21290   */\n      swap2\n      swap1\n      pop\n      jump\t// out\n        /* \"#utility.yul\":21296:21453   */\n    tag_376:\n        /* \"#utility.yul\":21401:21446   */\n      tag_652\n        /* \"#utility.yul\":21421:21445   */\n      tag_653\n        /* \"#utility.yul\":21439:21444   */\n      dup3\n        /* \"#utility.yul\":21421:21445   */\n      tag_323\n      jump\t// in\n    tag_653:\n        /* \"#utility.yul\":21401:21446   */\n      tag_375\n      jump\t// in\n    tag_652:\n        /* \"#utility.yul\":21396:21399   */\n      dup3\n        /* \"#utility.yul\":21389:21447   */\n      mstore\n        /* \"#utility.yul\":21296:21453   */\n      pop\n      pop\n      jump\t// out\n        /* \"#utility.yul\":21459:21538   */\n    tag_377:\n        /* \"#utility.yul\":21498:21505   */\n      0x00\n        /* \"#utility.yul\":21527:21532   */\n      dup2\n        /* \"#utility.yul\":21516:21532   */\n      swap1\n      pop\n        /* \"#utility.yul\":21459:21538   */\n      swap2\n      swap1\n      pop\n      jump\t// out\n        /* \"#utility.yul\":21544:21701   */\n    tag_378:\n        /* \"#utility.yul\":21649:21694   */\n      tag_656\n        /* \"#utility.yul\":21669:21693   */\n      tag_657\n        /* \"#utility.yul\":21687:21692   */\n      dup3\n        /* \"#utility.yul\":21669:21693   */\n      tag_327\n      jump\t// in\n    tag_657:\n        /* \"#utility.yul\":21649:21694   */\n      tag_377\n      jump\t// in\n    tag_656:\n        /* \"#utility.yul\":21644:21647   */\n      dup3\n        /* \"#utility.yul\":21637:21695   */\n      mstore\n        /* \"#utility.yul\":21544:21701   */\n      pop\n      pop\n      jump\t// out\n        /* \"#utility.yul\":21707:21855   */\n    tag_379:\n        /* \"#utility.yul\":21809:21820   */\n      0x00\n        /* \"#utility.yul\":21846:21849   */\n      dup2\n        /* \"#utility.yul\":21831:21849   */\n      swap1\n      pop\n        /* \"#utility.yul\":21707:21855   */\n      swap3\n      swap2\n      pop\n      pop\n      jump\t// out\n        /* \"#utility.yul\":21861:22251   */\n    tag_380:\n        /* \"#utility.yul\":21967:21970   */\n      0x00\n        /* \"#utility.yul\":21995:22034   */\n      tag_660\n        /* \"#utility.yul\":22028:22033   */\n      dup3\n        /* \"#utility.yul\":21995:22034   */\n      tag_357\n      jump\t// in\n    tag_660:\n        /* \"#utility.yul\":22050:22139   */\n      tag_661\n        /* \"#utility.yul\":22132:22138   */\n      dup2\n        /* \"#utility.yul\":22127:22130   */\n      dup6\n        /* \"#utility.yul\":22050:22139   */\n      tag_379\n      jump\t// in\n    tag_661:\n        /* \"#utility.yul\":22043:22139   */\n      swap4\n      pop\n        /* \"#utility.yul\":22148:22213   */\n      tag_662\n        /* \"#utility.yul\":22206:22212   */\n      dup2\n        /* \"#utility.yul\":22201:22204   */\n      dup6\n        /* \"#utility.yul\":22194:22198   */\n      0x20\n        /* \"#utility.yul\":22187:22192   */\n      dup7\n        /* \"#utility.yul\":22183:22199   */\n      add\n        /* \"#utility.yul\":22148:22213   */\n      tag_359\n      jump\t// in\n    tag_662:\n        /* \"#utility.yul\":22238:22244   */\n      dup1\n        /* \"#utility.yul\":22233:22236   */\n      dup5\n        /* \"#utility.yul\":22229:22245   */\n      add\n        /* \"#utility.yul\":22222:22245   */\n      swap2\n      pop\n        /* \"#utility.yul\":21971:22251   */\n      pop\n        /* \"#utility.yul\":21861:22251   */\n      swap3\n      swap2\n      pop\n      pop\n      jump\t// out\n        /* \"#utility.yul\":22257:23237   */\n    tag_192:\n        /* \"#utility.yul\":22529:22532   */\n      0x00\n        /* \"#utility.yul\":22544:22619   */\n      tag_664\n        /* \"#utility.yul\":22615:22618   */\n      dup3\n        /* \"#utility.yul\":22606:22612   */\n      dup10\n        /* \"#utility.yul\":22544:22619   */\n      tag_376\n      jump\t// in\n    tag_664:\n        /* \"#utility.yul\":22644:22646   */\n      0x14\n        /* \"#utility.yul\":22639:22642   */\n      dup3\n        /* \"#utility.yul\":22635:22647   */\n      add\n        /* \"#utility.yul\":22628:22647   */\n      swap2\n      pop\n        /* \"#utility.yul\":22657:22732   */\n      tag_665\n        /* \"#utility.yul\":22728:22731   */\n      dup3\n        /* \"#utility.yul\":22719:22725   */\n      dup9\n        /* \"#utility.yul\":22657:22732   */\n      tag_376\n      jump\t// in\n    tag_665:\n        /* \"#utility.yul\":22757:22759   */\n      0x14\n        /* \"#utility.yul\":22752:22755   */\n      dup3\n        /* \"#utility.yul\":22748:22760   */\n      add\n        /* \"#utility.yul\":22741:22760   */\n      swap2\n      pop\n        /* \"#utility.yul\":22770:22845   */\n      tag_666\n        /* \"#utility.yul\":22841:22844   */\n      dup3\n        /* \"#utility.yul\":22832:22838   */\n      dup8\n        /* \"#utility.yul\":22770:22845   */\n      tag_378\n      jump\t// in\n    tag_666:\n        /* \"#utility.yul\":22870:22872   */\n      0x20\n        /* \"#utility.yul\":22865:22868   */\n      dup3\n        /* \"#utility.yul\":22861:22873   */\n      add\n        /* \"#utility.yul\":22854:22873   */\n      swap2\n      pop\n        /* \"#utility.yul\":22883:22958   */\n      tag_667\n        /* \"#utility.yul\":22954:22957   */\n      dup3\n        /* \"#utility.yul\":22945:22951   */\n      dup7\n        /* \"#utility.yul\":22883:22958   */\n      tag_378\n      jump\t// in\n    tag_667:\n        /* \"#utility.yul\":22983:22985   */\n      0x20\n        /* \"#utility.yul\":22978:22981   */\n      dup3\n        /* \"#utility.yul\":22974:22986   */\n      add\n        /* \"#utility.yul\":22967:22986   */\n      swap2\n      pop\n        /* \"#utility.yul\":23003:23098   */\n      tag_668\n        /* \"#utility.yul\":23094:23097   */\n      dup3\n        /* \"#utility.yul\":23085:23091   */\n      dup6\n        /* \"#utility.yul\":23003:23098   */\n      tag_380\n      jump\t// in\n    tag_668:\n        /* \"#utility.yul\":22996:23098   */\n      swap2\n      pop\n        /* \"#utility.yul\":23108:23183   */\n      tag_669\n        /* \"#utility.yul\":23179:23182   */\n      dup3\n        /* \"#utility.yul\":23170:23176   */\n      dup5\n        /* \"#utility.yul\":23108:23183   */\n      tag_378\n      jump\t// in\n    tag_669:\n        /* \"#utility.yul\":23208:23210   */\n      0x20\n        /* \"#utility.yul\":23203:23206   */\n      dup3\n        /* \"#utility.yul\":23199:23211   */\n      add\n        /* \"#utility.yul\":23192:23211   */\n      swap2\n      pop\n        /* \"#utility.yul\":23228:23231   */\n      dup2\n        /* \"#utility.yul\":23221:23231   */\n      swap1\n      pop\n        /* \"#utility.yul\":22257:23237   */\n      swap8\n      swap7\n      pop\n      pop\n      pop\n      pop\n      pop\n      pop\n      pop\n      jump\t// out\n        /* \"#utility.yul\":23243:23464   */\n    tag_381:\n        /* \"#utility.yul\":23383:23417   */\n      0x4f6e6c792063616c6c61626c65206279205472757374656420466f7277617264\n        /* \"#utility.yul\":23379:23380   */\n      0x00\n        /* \"#utility.yul\":23371:23377   */\n      dup3\n        /* \"#utility.yul\":23367:23381   */\n      add\n        /* \"#utility.yul\":23360:23418   */\n      mstore\n        /* \"#utility.yul\":23452:23456   */\n      0x6572000000000000000000000000000000000000000000000000000000000000\n        /* \"#utility.yul\":23447:23449   */\n      0x20\n        /* \"#utility.yul\":23439:23445   */\n      dup3\n        /* \"#utility.yul\":23435:23450   */\n      add\n        /* \"#utility.yul\":23428:23457   */\n      mstore\n        /* \"#utility.yul\":23243:23464   */\n      pop\n      jump\t// out\n        /* \"#utility.yul\":23470:23836   */\n    tag_382:\n        /* \"#utility.yul\":23612:23615   */\n      0x00\n        /* \"#utility.yul\":23633:23700   */\n      tag_672\n        /* \"#utility.yul\":23697:23699   */\n      0x22\n        /* \"#utility.yul\":23692:23695   */\n      dup4\n        /* \"#utility.yul\":23633:23700   */\n      tag_358\n      jump\t// in\n    tag_672:\n        /* \"#utility.yul\":23626:23700   */\n      swap2\n      pop\n        /* \"#utility.yul\":23709:23802   */\n      tag_673\n        /* \"#utility.yul\":23798:23801   */\n      dup3\n        /* \"#utility.yul\":23709:23802   */\n      tag_381\n      jump\t// in\n    tag_673:\n        /* \"#utility.yul\":23827:23829   */\n      0x40\n        /* \"#utility.yul\":23822:23825   */\n      dup3\n        /* \"#utility.yul\":23818:23830   */\n      add\n        /* \"#utility.yul\":23811:23830   */\n      swap1\n      pop\n        /* \"#utility.yul\":23470:23836   */\n      swap2\n      swap1\n      pop\n      jump\t// out\n        /* \"#utility.yul\":23842:24261   */\n    tag_201:\n        /* \"#utility.yul\":24008:24012   */\n      0x00\n        /* \"#utility.yul\":24046:24048   */\n      0x20\n        /* \"#utility.yul\":24035:24044   */\n      dup3\n        /* \"#utility.yul\":24031:24049   */\n      add\n        /* \"#utility.yul\":24023:24049   */\n      swap1\n      pop\n        /* \"#utility.yul\":24095:24104   */\n      dup2\n        /* \"#utility.yul\":24089:24093   */\n      dup2\n        /* \"#utility.yul\":24085:24105   */\n      sub\n        /* \"#utility.yul\":24081:24082   */\n      0x00\n        /* \"#utility.yul\":24070:24079   */\n      dup4\n        /* \"#utility.yul\":24066:24083   */\n      add\n        /* \"#utility.yul\":24059:24106   */\n      mstore\n        /* \"#utility.yul\":24123:24254   */\n      tag_675\n        /* \"#utility.yul\":24249:24253   */\n      dup2\n        /* \"#utility.yul\":24123:24254   */\n      tag_382\n      jump\t// in\n    tag_675:\n        /* \"#utility.yul\":24115:24254   */\n      swap1\n      pop\n        /* \"#utility.yul\":23842:24261   */\n      swap2\n      swap1\n      pop\n      jump\t// out\n        /* \"#utility.yul\":24267:24445   */\n    tag_383:\n        /* \"#utility.yul\":24407:24437   */\n      0x43563a2066726f6d20746f20746865207a65726f206164647265737300000000\n        /* \"#utility.yul\":24403:24404   */\n      0x00\n        /* \"#utility.yul\":24395:24401   */\n      dup3\n        /* \"#utility.yul\":24391:24405   */\n      add\n        /* \"#utility.yul\":24384:24438   */\n      mstore\n        /* \"#utility.yul\":24267:24445   */\n      pop\n      jump\t// out\n        /* \"#utility.yul\":24451:24817   */\n    tag_384:\n        /* \"#utility.yul\":24593:24596   */\n      0x00\n        /* \"#utility.yul\":24614:24681   */\n      tag_678\n        /* \"#utility.yul\":24678:24680   */\n      0x1c\n        /* \"#utility.yul\":24673:24676   */\n      dup4\n        /* \"#utility.yul\":24614:24681   */\n      tag_358\n      jump\t// in\n    tag_678:\n        /* \"#utility.yul\":24607:24681   */\n      swap2\n      pop\n        /* \"#utility.yul\":24690:24783   */\n      tag_679\n        /* \"#utility.yul\":24779:24782   */\n      dup3\n        /* \"#utility.yul\":24690:24783   */\n      tag_383\n      jump\t// in\n    tag_679:\n        /* \"#utility.yul\":24808:24810   */\n      0x20\n        /* \"#utility.yul\":24803:24806   */\n      dup3\n        /* \"#utility.yul\":24799:24811   */\n      add\n        /* \"#utility.yul\":24792:24811   */\n      swap1\n      pop\n        /* \"#utility.yul\":24451:24817   */\n      swap2\n      swap1\n      pop\n      jump\t// out\n        /* \"#utility.yul\":24823:25242   */\n    tag_207:\n        /* \"#utility.yul\":24989:24993   */\n      0x00\n        /* \"#utility.yul\":25027:25029   */\n      0x20\n        /* \"#utility.yul\":25016:25025   */\n      dup3\n        /* \"#utility.yul\":25012:25030   */\n      add\n        /* \"#utility.yul\":25004:25030   */\n      swap1\n      pop\n        /* \"#utility.yul\":25076:25085   */\n      dup2\n        /* \"#utility.yul\":25070:25074   */\n      dup2\n        /* \"#utility.yul\":25066:25086   */\n      sub\n        /* \"#utility.yul\":25062:25063   */\n      0x00\n        /* \"#utility.yul\":25051:25060   */\n      dup4\n        /* \"#utility.yul\":25047:25064   */\n      add\n        /* \"#utility.yul\":25040:25087   */\n      mstore\n        /* \"#utility.yul\":25104:25235   */\n      tag_681\n        /* \"#utility.yul\":25230:25234   */\n      dup2\n        /* \"#utility.yul\":25104:25235   */\n      tag_384\n      jump\t// in\n    tag_681:\n        /* \"#utility.yul\":25096:25235   */\n      swap1\n      pop\n        /* \"#utility.yul\":24823:25242   */\n      swap2\n      swap1\n      pop\n      jump\t// out\n        /* \"#utility.yul\":25248:25420   */\n    tag_385:\n        /* \"#utility.yul\":25388:25412   */\n      0x43563a20696e76616c6964205f7369676e617475726500000000000000000000\n        /* \"#utility.yul\":25384:25385   */\n      0x00\n        /* \"#utility.yul\":25376:25382   */\n      dup3\n        /* \"#utility.yul\":25372:25386   */\n      add\n        /* \"#utility.yul\":25365:25413   */\n      mstore\n        /* \"#utility.yul\":25248:25420   */\n      pop\n      jump\t// out\n        /* \"#utility.yul\":25426:25792   */\n    tag_386:\n        /* \"#utility.yul\":25568:25571   */\n      0x00\n        /* \"#utility.yul\":25589:25656   */\n      tag_684\n        /* \"#utility.yul\":25653:25655   */\n      0x16\n        /* \"#utility.yul\":25648:25651   */\n      dup4\n        /* \"#utility.yul\":25589:25656   */\n      tag_358\n      jump\t// in\n    tag_684:\n        /* \"#utility.yul\":25582:25656   */\n      swap2\n      pop\n        /* \"#utility.yul\":25665:25758   */\n      tag_685\n        /* \"#utility.yul\":25754:25757   */\n      dup3\n        /* \"#utility.yul\":25665:25758   */\n      tag_385\n      jump\t// in\n    tag_685:\n        /* \"#utility.yul\":25783:25785   */\n      0x20\n        /* \"#utility.yul\":25778:25781   */\n      dup3\n        /* \"#utility.yul\":25774:25786   */\n      add\n        /* \"#utility.yul\":25767:25786   */\n      swap1\n      pop\n        /* \"#utility.yul\":25426:25792   */\n      swap2\n      swap1\n      pop\n      jump\t// out\n        /* \"#utility.yul\":25798:26217   */\n    tag_212:\n        /* \"#utility.yul\":25964:25968   */\n      0x00\n        /* \"#utility.yul\":26002:26004   */\n      0x20\n        /* \"#utility.yul\":25991:26000   */\n      dup3\n        /* \"#utility.yul\":25987:26005   */\n      add\n        /* \"#utility.yul\":25979:26005   */\n      swap1\n      pop\n        /* \"#utility.yul\":26051:26060   */\n      dup2\n        /* \"#utility.yul\":26045:26049   */\n      dup2\n        /* \"#utility.yul\":26041:26061   */\n      sub\n        /* \"#utility.yul\":26037:26038   */\n      0x00\n        /* \"#utility.yul\":26026:26035   */\n      dup4\n        /* \"#utility.yul\":26022:26039   */\n      add\n        /* \"#utility.yul\":26015:26062   */\n      mstore\n        /* \"#utility.yul\":26079:26210   */\n      tag_687\n        /* \"#utility.yul\":26205:26209   */\n      dup2\n        /* \"#utility.yul\":26079:26210   */\n      tag_386\n      jump\t// in\n    tag_687:\n        /* \"#utility.yul\":26071:26210   */\n      swap1\n      pop\n        /* \"#utility.yul\":25798:26217   */\n      swap2\n      swap1\n      pop\n      jump\t// out\n        /* \"#utility.yul\":26223:26396   */\n    tag_387:\n        /* \"#utility.yul\":26363:26388   */\n      0x757364742061646472657373206e6f7420636f6e666967000000000000000000\n        /* \"#utility.yul\":26359:26360   */\n      0x00\n        /* \"#utility.yul\":26351:26357   */\n      dup3\n        /* \"#utility.yul\":26347:26361   */\n      add\n        /* \"#utility.yul\":26340:26389   */\n      mstore\n        /* \"#utility.yul\":26223:26396   */\n      pop\n      jump\t// out\n        /* \"#utility.yul\":26402:26768   */\n    tag_388:\n        /* \"#utility.yul\":26544:26547   */\n      0x00\n        /* \"#utility.yul\":26565:26632   */\n      tag_690\n        /* \"#utility.yul\":26629:26631   */\n      0x17\n        /* \"#utility.yul\":26624:26627   */\n      dup4\n        /* \"#utility.yul\":26565:26632   */\n      tag_358\n      jump\t// in\n    tag_690:\n        /* \"#utility.yul\":26558:26632   */\n      swap2\n      pop\n        /* \"#utility.yul\":26641:26734   */\n      tag_691\n        /* \"#utility.yul\":26730:26733   */\n      dup3\n        /* \"#utility.yul\":26641:26734   */\n      tag_387\n      jump\t// in\n    tag_691:\n        /* \"#utility.yul\":26759:26761   */\n      0x20\n        /* \"#utility.yul\":26754:26757   */\n      dup3\n        /* \"#utility.yul\":26750:26762   */\n      add\n        /* \"#utility.yul\":26743:26762   */\n      swap1\n      pop\n        /* \"#utility.yul\":26402:26768   */\n      swap2\n      swap1\n      pop\n      jump\t// out\n        /* \"#utility.yul\":26774:27193   */\n    tag_218:\n        /* \"#utility.yul\":26940:26944   */\n      0x00\n        /* \"#utility.yul\":26978:26980   */\n      0x20\n        /* \"#utility.yul\":26967:26976   */\n      dup3\n        /* \"#utility.yul\":26963:26981   */\n      add\n        /* \"#utility.yul\":26955:26981   */\n      swap1\n      pop\n        /* \"#utility.yul\":27027:27036   */\n      dup2\n        /* \"#utility.yul\":27021:27025   */\n      dup2\n        /* \"#utility.yul\":27017:27037   */\n      sub\n        /* \"#utility.yul\":27013:27014   */\n      0x00\n        /* \"#utility.yul\":27002:27011   */\n      dup4\n        /* \"#utility.yul\":26998:27015   */\n      add\n        /* \"#utility.yul\":26991:27038   */\n      mstore\n        /* \"#utility.yul\":27055:27186   */\n      tag_693\n        /* \"#utility.yul\":27181:27185   */\n      dup2\n        /* \"#utility.yul\":27055:27186   */\n      tag_388\n      jump\t// in\n    tag_693:\n        /* \"#utility.yul\":27047:27186   */\n      swap1\n      pop\n        /* \"#utility.yul\":26774:27193   */\n      swap2\n      swap1\n      pop\n      jump\t// out\n        /* \"#utility.yul\":27199:27372   */\n    tag_389:\n        /* \"#utility.yul\":27339:27364   */\n      0x757364632061646472657373206e6f7420636f6e666967000000000000000000\n        /* \"#utility.yul\":27335:27336   */\n      0x00\n        /* \"#utility.yul\":27327:27333   */\n      dup3\n        /* \"#utility.yul\":27323:27337   */\n      add\n        /* \"#utility.yul\":27316:27365   */\n      mstore\n        /* \"#utility.yul\":27199:27372   */\n      pop\n      jump\t// out\n        /* \"#utility.yul\":27378:27744   */\n    tag_390:\n        /* \"#utility.yul\":27520:27523   */\n      0x00\n        /* \"#utility.yul\":27541:27608   */\n      tag_696\n        /* \"#utility.yul\":27605:27607   */\n      0x17\n        /* \"#utility.yul\":27600:27603   */\n      dup4\n        /* \"#utility.yul\":27541:27608   */\n      tag_358\n      jump\t// in\n    tag_696:\n        /* \"#utility.yul\":27534:27608   */\n      swap2\n      pop\n        /* \"#utility.yul\":27617:27710   */\n      tag_697\n        /* \"#utility.yul\":27706:27709   */\n      dup3\n        /* \"#utility.yul\":27617:27710   */\n      tag_389\n      jump\t// in\n    tag_697:\n        /* \"#utility.yul\":27735:27737   */\n      0x20\n        /* \"#utility.yul\":27730:27733   */\n      dup3\n        /* \"#utility.yul\":27726:27738   */\n      add\n        /* \"#utility.yul\":27719:27738   */\n      swap1\n      pop\n        /* \"#utility.yul\":27378:27744   */\n      swap2\n      swap1\n      pop\n      jump\t// out\n        /* \"#utility.yul\":27750:28169   */\n    tag_223:\n        /* \"#utility.yul\":27916:27920   */\n      0x00\n        /* \"#utility.yul\":27954:27956   */\n      0x20\n        /* \"#utility.yul\":27943:27952   */\n      dup3\n        /* \"#utility.yul\":27939:27957   */\n      add\n        /* \"#utility.yul\":27931:27957   */\n      swap1\n      pop\n        /* \"#utility.yul\":28003:28012   */\n      dup2\n        /* \"#utility.yul\":27997:28001   */\n      dup2\n        /* \"#utility.yul\":27993:28013   */\n      sub\n        /* \"#utility.yul\":27989:27990   */\n      0x00\n        /* \"#utility.yul\":27978:27987   */\n      dup4\n        /* \"#utility.yul\":27974:27991   */\n      add\n        /* \"#utility.yul\":27967:28014   */\n      mstore\n        /* \"#utility.yul\":28031:28162   */\n      tag_699\n        /* \"#utility.yul\":28157:28161   */\n      dup2\n        /* \"#utility.yul\":28031:28162   */\n      tag_390\n      jump\t// in\n    tag_699:\n        /* \"#utility.yul\":28023:28162   */\n      swap1\n      pop\n        /* \"#utility.yul\":27750:28169   */\n      swap2\n      swap1\n      pop\n      jump\t// out\n        /* \"#utility.yul\":28175:28347   */\n    tag_391:\n        /* \"#utility.yul\":28315:28339   */\n      0x6574682061646472657373206e6f7420636f6e66696700000000000000000000\n        /* \"#utility.yul\":28311:28312   */\n      0x00\n        /* \"#utility.yul\":28303:28309   */\n      dup3\n        /* \"#utility.yul\":28299:28313   */\n      add\n        /* \"#utility.yul\":28292:28340   */\n      mstore\n        /* \"#utility.yul\":28175:28347   */\n      pop\n      jump\t// out\n        /* \"#utility.yul\":28353:28719   */\n    tag_392:\n        /* \"#utility.yul\":28495:28498   */\n      0x00\n        /* \"#utility.yul\":28516:28583   */\n      tag_702\n        /* \"#utility.yul\":28580:28582   */\n      0x16\n        /* \"#utility.yul\":28575:28578   */\n      dup4\n        /* \"#utility.yul\":28516:28583   */\n      tag_358\n      jump\t// in\n    tag_702:\n        /* \"#utility.yul\":28509:28583   */\n      swap2\n      pop\n        /* \"#utility.yul\":28592:28685   */\n      tag_703\n        /* \"#utility.yul\":28681:28684   */\n      dup3\n        /* \"#utility.yul\":28592:28685   */\n      tag_391\n      jump\t// in\n    tag_703:\n        /* \"#utility.yul\":28710:28712   */\n      0x20\n        /* \"#utility.yul\":28705:28708   */\n      dup3\n        /* \"#utility.yul\":28701:28713   */\n      add\n        /* \"#utility.yul\":28694:28713   */\n      swap1\n      pop\n        /* \"#utility.yul\":28353:28719   */\n      swap2\n      swap1\n      pop\n      jump\t// out\n        /* \"#utility.yul\":28725:29144   */\n    tag_228:\n        /* \"#utility.yul\":28891:28895   */\n      0x00\n        /* \"#utility.yul\":28929:28931   */\n      0x20\n        /* \"#utility.yul\":28918:28927   */\n      dup3\n        /* \"#utility.yul\":28914:28932   */\n      add\n        /* \"#utility.yul\":28906:28932   */\n      swap1\n      pop\n        /* \"#utility.yul\":28978:28987   */\n      dup2\n        /* \"#utility.yul\":28972:28976   */\n      dup2\n        /* \"#utility.yul\":28968:28988   */\n      sub\n        /* \"#utility.yul\":28964:28965   */\n      0x00\n        /* \"#utility.yul\":28953:28962   */\n      dup4\n        /* \"#utility.yul\":28949:28966   */\n      add\n        /* \"#utility.yul\":28942:28989   */\n      mstore\n        /* \"#utility.yul\":29006:29137   */\n      tag_705\n        /* \"#utility.yul\":29132:29136   */\n      dup2\n        /* \"#utility.yul\":29006:29137   */\n      tag_392\n      jump\t// in\n    tag_705:\n        /* \"#utility.yul\":28998:29137   */\n      swap1\n      pop\n        /* \"#utility.yul\":28725:29144   */\n      swap2\n      swap1\n      pop\n      jump\t// out\n        /* \"#utility.yul\":29150:29322   */\n    tag_393:\n        /* \"#utility.yul\":29290:29314   */\n      0x756d692061646472657373206e6f7420636f6e66696700000000000000000000\n        /* \"#utility.yul\":29286:29287   */\n      0x00\n        /* \"#utility.yul\":29278:29284   */\n      dup3\n        /* \"#utility.yul\":29274:29288   */\n      add\n        /* \"#utility.yul\":29267:29315   */\n      mstore\n        /* \"#utility.yul\":29150:29322   */\n      pop\n      jump\t// out\n        /* \"#utility.yul\":29328:29694   */\n    tag_394:\n        /* \"#utility.yul\":29470:29473   */\n      0x00\n        /* \"#utility.yul\":29491:29558   */\n      tag_708\n        /* \"#utility.yul\":29555:29557   */\n      0x16\n        /* \"#utility.yul\":29550:29553   */\n      dup4\n        /* \"#utility.yul\":29491:29558   */\n      tag_358\n      jump\t// in\n    tag_708:\n        /* \"#utility.yul\":29484:29558   */\n      swap2\n      pop\n        /* \"#utility.yul\":29567:29660   */\n      tag_709\n        /* \"#utility.yul\":29656:29659   */\n      dup3\n        /* \"#utility.yul\":29567:29660   */\n      tag_393\n      jump\t// in\n    tag_709:\n        /* \"#utility.yul\":29685:29687   */\n      0x20\n        /* \"#utility.yul\":29680:29683   */\n      dup3\n        /* \"#utility.yul\":29676:29688   */\n      add\n        /* \"#utility.yul\":29669:29688   */\n      swap1\n      pop\n        /* \"#utility.yul\":29328:29694   */\n      swap2\n      swap1\n      pop\n      jump\t// out\n        /* \"#utility.yul\":29700:30119   */\n    tag_233:\n        /* \"#utility.yul\":29866:29870   */\n      0x00\n        /* \"#utility.yul\":29904:29906   */\n      0x20\n        /* \"#utility.yul\":29893:29902   */\n      dup3\n        /* \"#utility.yul\":29889:29907   */\n      add\n        /* \"#utility.yul\":29881:29907   */\n      swap1\n      pop\n        /* \"#utility.yul\":29953:29962   */\n      dup2\n        /* \"#utility.yul\":29947:29951   */\n      dup2\n        /* \"#utility.yul\":29943:29963   */\n      sub\n        /* \"#utility.yul\":29939:29940   */\n      0x00\n        /* \"#utility.yul\":29928:29937   */\n      dup4\n        /* \"#utility.yul\":29924:29941   */\n      add\n        /* \"#utility.yul\":29917:29964   */\n      mstore\n        /* \"#utility.yul\":29981:30112   */\n      tag_711\n        /* \"#utility.yul\":30107:30111   */\n      dup2\n        /* \"#utility.yul\":29981:30112   */\n      tag_394\n      jump\t// in\n    tag_711:\n        /* \"#utility.yul\":29973:30112   */\n      swap1\n      pop\n        /* \"#utility.yul\":29700:30119   */\n      swap2\n      swap1\n      pop\n      jump\t// out\n        /* \"#utility.yul\":30125:30266   */\n    tag_395:\n        /* \"#utility.yul\":30174:30178   */\n      0x00\n        /* \"#utility.yul\":30197:30200   */\n      dup2\n        /* \"#utility.yul\":30189:30200   */\n      swap1\n      pop\n        /* \"#utility.yul\":30220:30223   */\n      dup2\n        /* \"#utility.yul\":30217:30218   */\n      0x00\n        /* \"#utility.yul\":30210:30224   */\n      mstore\n        /* \"#utility.yul\":30254:30258   */\n      0x20\n        /* \"#utility.yul\":30251:30252   */\n      0x00\n        /* \"#utility.yul\":30241:30259   */\n      keccak256\n        /* \"#utility.yul\":30233:30259   */\n      swap1\n      pop\n        /* \"#utility.yul\":30125:30266   */\n      swap2\n      swap1\n      pop\n      jump\t// out\n        /* \"#utility.yul\":30272:30365   */\n    tag_396:\n        /* \"#utility.yul\":30309:30315   */\n      0x00\n        /* \"#utility.yul\":30356:30358   */\n      0x20\n        /* \"#utility.yul\":30351:30353   */\n      0x1f\n        /* \"#utility.yul\":30344:30349   */\n      dup4\n        /* \"#utility.yul\":30340:30354   */\n      add\n        /* \"#utility.yul\":30336:30359   */\n      div\n        /* \"#utility.yul\":30326:30359   */\n      swap1\n      pop\n        /* \"#utility.yul\":30272:30365   */\n      swap2\n      swap1\n      pop\n      jump\t// out\n        /* \"#utility.yul\":30371:30478   */\n    tag_397:\n        /* \"#utility.yul\":30415:30423   */\n      0x00\n        /* \"#utility.yul\":30465:30470   */\n      dup3\n        /* \"#utility.yul\":30459:30463   */\n      dup3\n        /* \"#utility.yul\":30455:30471   */\n      shl\n        /* \"#utility.yul\":30434:30471   */\n      swap1\n      pop\n        /* \"#utility.yul\":30371:30478   */\n      swap3\n      swap2\n      pop\n      pop\n      jump\t// out\n        /* \"#utility.yul\":30484:30877   */\n    tag_398:\n        /* \"#utility.yul\":30553:30559   */\n      0x00\n        /* \"#utility.yul\":30603:30604   */\n      0x08\n        /* \"#utility.yul\":30591:30601   */\n      dup4\n        /* \"#utility.yul\":30587:30605   */\n      mul\n        /* \"#utility.yul\":30626:30723   */\n      tag_716\n        /* \"#utility.yul\":30656:30722   */\n      0xffffffffffffffffffffffffffffffffffffffffffffffffffffffffffffffff\n        /* \"#utility.yul\":30645:30654   */\n      dup3\n        /* \"#utility.yul\":30626:30723   */\n      tag_397\n      jump\t// in\n    tag_716:\n        /* \"#utility.yul\":30744:30783   */\n      tag_717\n        /* \"#utility.yul\":30774:30782   */\n      dup7\n        /* \"#utility.yul\":30763:30772   */\n      dup4\n        /* \"#utility.yul\":30744:30783   */\n      tag_397\n      jump\t// in\n    tag_717:\n        /* \"#utility.yul\":30732:30783   */\n      swap6\n      pop\n        /* \"#utility.yul\":30816:30820   */\n      dup1\n        /* \"#utility.yul\":30812:30821   */\n      not\n        /* \"#utility.yul\":30805:30810   */\n      dup5\n        /* \"#utility.yul\":30801:30822   */\n      and\n        /* \"#utility.yul\":30792:30822   */\n      swap4\n      pop\n        /* \"#utility.yul\":30865:30869   */\n      dup1\n        /* \"#utility.yul\":30855:30863   */\n      dup7\n        /* \"#utility.yul\":30851:30870   */\n      and\n        /* \"#utility.yul\":30844:30849   */\n      dup5\n        /* \"#utility.yul\":30841:30871   */\n      or\n        /* \"#utility.yul\":30831:30871   */\n      swap3\n      pop\n        /* \"#utility.yul\":30560:30877   */\n      pop\n      pop\n        /* \"#utility.yul\":30484:30877   */\n      swap4\n      swap3\n      pop\n      pop\n      pop\n      jump\t// out\n        /* \"#utility.yul\":30883:31025   */\n    tag_399:\n        /* \"#utility.yul\":30933:30942   */\n      0x00\n        /* \"#utility.yul\":30966:31019   */\n      tag_719\n        /* \"#utility.yul\":30984:31018   */\n      tag_720\n        /* \"#utility.yul\":30993:31017   */\n      tag_721\n        /* \"#utility.yul\":31011:31016   */\n      dup5\n        /* \"#utility.yul\":30993:31017   */\n      tag_327\n      jump\t// in\n    tag_721:\n        /* \"#utility.yul\":30984:31018   */\n      tag_345\n      jump\t// in\n    tag_720:\n        /* \"#utility.yul\":30966:31019   */\n      tag_327\n      jump\t// in\n    tag_719:\n        /* \"#utility.yul\":30953:31019   */\n      swap1\n      pop\n        /* \"#utility.yul\":30883:31025   */\n      swap2\n      swap1\n      pop\n      jump\t// out\n        /* \"#utility.yul\":31031:31106   */\n    tag_400:\n        /* \"#utility.yul\":31074:31077   */\n      0x00\n        /* \"#utility.yul\":31095:31100   */\n      dup2\n        /* \"#utility.yul\":31088:31100   */\n      swap1\n      pop\n        /* \"#utility.yul\":31031:31106   */\n      swap2\n      swap1\n      pop\n      jump\t// out\n        /* \"#utility.yul\":31112:31381   */\n    tag_401:\n        /* \"#utility.yul\":31222:31261   */\n      tag_724\n        /* \"#utility.yul\":31253:31260   */\n      dup4\n        /* \"#utility.yul\":31222:31261   */\n      tag_399\n      jump\t// in\n    tag_724:\n        /* \"#utility.yul\":31283:31374   */\n      tag_725\n        /* \"#utility.yul\":31332:31373   */\n      tag_726\n        /* \"#utility.yul\":31356:31372   */\n      dup3\n        /* \"#utility.yul\":31332:31373   */\n      tag_400\n      jump\t// in\n    tag_726:\n        /* \"#utility.yul\":31324:31330   */\n      dup5\n        /* \"#utility.yul\":31317:31321   */\n      dup5\n        /* \"#utility.yul\":31311:31322   */\n      sload\n        /* \"#utility.yul\":31283:31374   */\n      tag_398\n      jump\t// in\n    tag_725:\n        /* \"#utility.yul\":31277:31281   */\n      dup3\n        /* \"#utility.yul\":31270:31375   */\n      sstore\n        /* \"#utility.yul\":31188:31381   */\n      pop\n        /* \"#utility.yul\":31112:31381   */\n      pop\n      pop\n      pop\n      jump\t// out\n        /* \"#utility.yul\":31387:31460   */\n    tag_402:\n        /* \"#utility.yul\":31432:31435   */\n      0x00\n        /* \"#utility.yul\":31387:31460   */\n      swap1\n      jump\t// out\n        /* \"#utility.yul\":31466:31655   */\n    tag_403:\n        /* \"#utility.yul\":31543:31575   */\n      tag_729\n      tag_402\n      jump\t// in\n    tag_729:\n        /* \"#utility.yul\":31584:31649   */\n      tag_730\n        /* \"#utility.yul\":31642:31648   */\n      dup2\n        /* \"#utility.yul\":31634:31640   */\n      dup5\n        /* \"#utility.yul\":31628:31632   */\n      dup5\n        /* \"#utility.yul\":31584:31649   */\n      tag_401\n      jump\t// in\n    tag_730:\n        /* \"#utility.yul\":31519:31655   */\n      pop\n        /* \"#utility.yul\":31466:31655   */\n      pop\n      pop\n      jump\t// out\n        /* \"#utility.yul\":31661:31847   */\n    tag_404:\n        /* \"#utility.yul\":31721:31841   */\n    tag_732:\n        /* \"#utility.yul\":31738:31741   */\n      dup2\n        /* \"#utility.yul\":31731:31736   */\n      dup2\n        /* \"#utility.yul\":31728:31742   */\n      lt\n        /* \"#utility.yul\":31721:31841   */\n      iszero\n      tag_734\n      jumpi\n        /* \"#utility.yul\":31792:31831   */\n      tag_735\n        /* \"#utility.yul\":31829:31830   */\n      0x00\n        /* \"#utility.yul\":31822:31827   */\n      dup3\n        /* \"#utility.yul\":31792:31831   */\n      tag_403\n      jump\t// in\n    tag_735:\n        /* \"#utility.yul\":31765:31766   */\n      0x01\n        /* \"#utility.yul\":31758:31763   */\n      dup2\n        /* \"#utility.yul\":31754:31767   */\n      add\n        /* \"#utility.yul\":31745:31767   */\n      swap1\n      pop\n        /* \"#utility.yul\":31721:31841   */\n      jump(tag_732)\n    tag_734:\n        /* \"#utility.yul\":31661:31847   */\n      pop\n      pop\n      jump\t// out\n        /* \"#utility.yul\":31853:32396   */\n    tag_405:\n        /* \"#utility.yul\":31954:31956   */\n      0x1f\n        /* \"#utility.yul\":31949:31952   */\n      dup3\n        /* \"#utility.yul\":31946:31957   */\n      gt\n        /* \"#utility.yul\":31943:32389   */\n      iszero\n      tag_737\n      jumpi\n        /* \"#utility.yul\":31988:32026   */\n      tag_738\n        /* \"#utility.yul\":32020:32025   */\n      dup2\n        /* \"#utility.yul\":31988:32026   */\n      tag_395\n      jump\t// in\n    tag_738:\n        /* \"#utility.yul\":32072:32101   */\n      tag_739\n        /* \"#utility.yul\":32090:32100   */\n      dup5\n        /* \"#utility.yul\":32072:32101   */\n      tag_396\n      jump\t// in\n    tag_739:\n        /* \"#utility.yul\":32062:32070   */\n      dup2\n        /* \"#utility.yul\":32058:32102   */\n      add\n        /* \"#utility.yul\":32255:32257   */\n      0x20\n        /* \"#utility.yul\":32243:32253   */\n      dup6\n        /* \"#utility.yul\":32240:32258   */\n      lt\n        /* \"#utility.yul\":32237:32286   */\n      iszero\n      tag_740\n      jumpi\n        /* \"#utility.yul\":32276:32284   */\n      dup2\n        /* \"#utility.yul\":32261:32284   */\n      swap1\n      pop\n        /* \"#utility.yul\":32237:32286   */\n    tag_740:\n        /* \"#utility.yul\":32299:32379   */\n      tag_741\n        /* \"#utility.yul\":32355:32377   */\n      tag_742\n        /* \"#utility.yul\":32373:32376   */\n      dup6\n        /* \"#utility.yul\":32355:32377   */\n      tag_396\n      jump\t// in\n    tag_742:\n        /* \"#utility.yul\":32345:32353   */\n      dup4\n        /* \"#utility.yul\":32341:32378   */\n      add\n        /* \"#utility.yul\":32328:32339   */\n      dup3\n        /* \"#utility.yul\":32299:32379   */\n      tag_404\n      jump\t// in\n    tag_741:\n        /* \"#utility.yul\":31958:32389   */\n      pop\n      pop\n        /* \"#utility.yul\":31943:32389   */\n    tag_737:\n        /* \"#utility.yul\":31853:32396   */\n      pop\n      pop\n      pop\n      jump\t// out\n        /* \"#utility.yul\":32402:32519   */\n    tag_406:\n        /* \"#utility.yul\":32456:32464   */\n      0x00\n        /* \"#utility.yul\":32506:32511   */\n      dup3\n        /* \"#utility.yul\":32500:32504   */\n      dup3\n        /* \"#utility.yul\":32496:32512   */\n      shr\n        /* \"#utility.yul\":32475:32512   */\n      swap1\n      pop\n        /* \"#utility.yul\":32402:32519   */\n      swap3\n      swap2\n      pop\n      pop\n      jump\t// out\n        /* \"#utility.yul\":32525:32694   */\n    tag_407:\n        /* \"#utility.yul\":32569:32575   */\n      0x00\n        /* \"#utility.yul\":32602:32653   */\n      tag_745\n        /* \"#utility.yul\":32650:32651   */\n      0x00\n        /* \"#utility.yul\":32646:32652   */\n      not\n        /* \"#utility.yul\":32638:32643   */\n      dup5\n        /* \"#utility.yul\":32635:32636   */\n      0x08\n        /* \"#utility.yul\":32631:32644   */\n      mul\n        /* \"#utility.yul\":32602:32653   */\n      tag_406\n      jump\t// in\n    tag_745:\n        /* \"#utility.yul\":32598:32654   */\n      not\n        /* \"#utility.yul\":32683:32687   */\n      dup1\n        /* \"#utility.yul\":32677:32681   */\n      dup4\n        /* \"#utility.yul\":32673:32688   */\n      and\n        /* \"#utility.yul\":32663:32688   */\n      swap2\n      pop\n        /* \"#utility.yul\":32576:32694   */\n      pop\n        /* \"#utility.yul\":32525:32694   */\n      swap3\n      swap2\n      pop\n      pop\n      jump\t// out\n        /* \"#utility.yul\":32699:32994   */\n    tag_408:\n        /* \"#utility.yul\":32775:32779   */\n      0x00\n        /* \"#utility.yul\":32921:32950   */\n      tag_747\n        /* \"#utility.yul\":32946:32949   */\n      dup4\n        /* \"#utility.yul\":32940:32944   */\n      dup4\n        /* \"#utility.yul\":32921:32950   */\n      tag_407\n      jump\t// in\n    tag_747:\n        /* \"#utility.yul\":32913:32950   */\n      swap2\n      pop\n        /* \"#utility.yul\":32983:32986   */\n      dup3\n        /* \"#utility.yul\":32980:32981   */\n      0x02\n        /* \"#utility.yul\":32976:32987   */\n      mul\n        /* \"#utility.yul\":32970:32974   */\n      dup3\n        /* \"#utility.yul\":32967:32988   */\n      or\n        /* \"#utility.yul\":32959:32988   */\n      swap1\n      pop\n        /* \"#utility.yul\":32699:32994   */\n      swap3\n      swap2\n      pop\n      pop\n      jump\t// out\n        /* \"#utility.yul\":32999:34394   */\n    tag_237:\n        /* \"#utility.yul\":33116:33153   */\n      tag_749\n        /* \"#utility.yul\":33149:33152   */\n      dup3\n        /* \"#utility.yul\":33116:33153   */\n      tag_357\n      jump\t// in\n    tag_749:\n        /* \"#utility.yul\":33218:33236   */\n      0xffffffffffffffff\n        /* \"#utility.yul\":33210:33216   */\n      dup2\n        /* \"#utility.yul\":33207:33237   */\n      gt\n        /* \"#utility.yul\":33204:33260   */\n      iszero\n      tag_750\n      jumpi\n        /* \"#utility.yul\":33240:33258   */\n      tag_751\n      tag_333\n      jump\t// in\n    tag_751:\n        /* \"#utility.yul\":33204:33260   */\n    tag_750:\n        /* \"#utility.yul\":33284:33322   */\n      tag_752\n        /* \"#utility.yul\":33316:33320   */\n      dup3\n        /* \"#utility.yul\":33310:33321   */\n      sload\n        /* \"#utility.yul\":33284:33322   */\n      tag_185\n      jump\t// in\n    tag_752:\n        /* \"#utility.yul\":33369:33436   */\n      tag_753\n        /* \"#utility.yul\":33429:33435   */\n      dup3\n        /* \"#utility.yul\":33421:33427   */\n      dup3\n        /* \"#utility.yul\":33415:33419   */\n      dup6\n        /* \"#utility.yul\":33369:33436   */\n      tag_405\n      jump\t// in\n    tag_753:\n        /* \"#utility.yul\":33463:33464   */\n      0x00\n        /* \"#utility.yul\":33487:33491   */\n      0x20\n        /* \"#utility.yul\":33474:33491   */\n      swap1\n      pop\n        /* \"#utility.yul\":33519:33521   */\n      0x1f\n        /* \"#utility.yul\":33511:33517   */\n      dup4\n        /* \"#utility.yul\":33508:33522   */\n      gt\n        /* \"#utility.yul\":33536:33537   */\n      0x01\n        /* \"#utility.yul\":33531:34149   */\n      dup2\n      eq\n      tag_755\n      jumpi\n        /* \"#utility.yul\":34193:34194   */\n      0x00\n        /* \"#utility.yul\":34210:34216   */\n      dup5\n        /* \"#utility.yul\":34207:34284   */\n      iszero\n      tag_756\n      jumpi\n        /* \"#utility.yul\":34259:34268   */\n      dup3\n        /* \"#utility.yul\":34254:34257   */\n      dup8\n        /* \"#utility.yul\":34250:34269   */\n      add\n        /* \"#utility.yul\":34244:34270   */\n      mload\n        /* \"#utility.yul\":34235:34270   */\n      swap1\n      pop\n        /* \"#utility.yul\":34207:34284   */\n    tag_756:\n        /* \"#utility.yul\":34310:34377   */\n      tag_757\n        /* \"#utility.yul\":34370:34376   */\n      dup6\n        /* \"#utility.yul\":34363:34368   */\n      dup3\n        /* \"#utility.yul\":34310:34377   */\n      tag_408\n      jump\t// in\n    tag_757:\n        /* \"#utility.yul\":34304:34308   */\n      dup7\n        /* \"#utility.yul\":34297:34378   */\n      sstore\n        /* \"#utility.yul\":34166:34388   */\n      pop\n        /* \"#utility.yul\":33501:34388   */\n      jump(tag_754)\n        /* \"#utility.yul\":33531:34149   */\n    tag_755:\n        /* \"#utility.yul\":33583:33587   */\n      0x1f\n        /* \"#utility.yul\":33579:33588   */\n      not\n        /* \"#utility.yul\":33571:33577   */\n      dup5\n        /* \"#utility.yul\":33567:33589   */\n      and\n        /* \"#utility.yul\":33617:33654   */\n      tag_758\n        /* \"#utility.yul\":33649:33653   */\n      dup7\n        /* \"#utility.yul\":33617:33654   */\n      tag_395\n      jump\t// in\n    tag_758:\n        /* \"#utility.yul\":33676:33677   */\n      0x00\n        /* \"#utility.yul\":33690:33898   */\n    tag_759:\n        /* \"#utility.yul\":33704:33711   */\n      dup3\n        /* \"#utility.yul\":33701:33702   */\n      dup2\n        /* \"#utility.yul\":33698:33712   */\n      lt\n        /* \"#utility.yul\":33690:33898   */\n      iszero\n      tag_761\n      jumpi\n        /* \"#utility.yul\":33783:33792   */\n      dup5\n        /* \"#utility.yul\":33778:33781   */\n      dup10\n        /* \"#utility.yul\":33774:33793   */\n      add\n        /* \"#utility.yul\":33768:33794   */\n      mload\n        /* \"#utility.yul\":33760:33766   */\n      dup3\n        /* \"#utility.yul\":33753:33795   */\n      sstore\n        /* \"#utility.yul\":33834:33835   */\n      0x01\n        /* \"#utility.yul\":33826:33832   */\n      dup3\n        /* \"#utility.yul\":33822:33836   */\n      add\n        /* \"#utility.yul\":33812:33836   */\n      swap2\n      pop\n        /* \"#utility.yul\":33881:33883   */\n      0x20\n        /* \"#utility.yul\":33870:33879   */\n      dup6\n        /* \"#utility.yul\":33866:33884   */\n      add\n        /* \"#utility.yul\":33853:33884   */\n      swap5\n      pop\n        /* \"#utility.yul\":33727:33731   */\n      0x20\n        /* \"#utility.yul\":33724:33725   */\n      dup2\n        /* \"#utility.yul\":33720:33732   */\n      add\n        /* \"#utility.yul\":33715:33732   */\n      swap1\n      pop\n        /* \"#utility.yul\":33690:33898   */\n      jump(tag_759)\n    tag_761:\n        /* \"#utility.yul\":33926:33932   */\n      dup7\n        /* \"#utility.yul\":33917:33924   */\n      dup4\n        /* \"#utility.yul\":33914:33933   */\n      lt\n        /* \"#utility.yul\":33911:34090   */\n      iszero\n      tag_762\n      jumpi\n        /* \"#utility.yul\":33984:33993   */\n      dup5\n        /* \"#utility.yul\":33979:33982   */\n      dup10\n        /* \"#utility.yul\":33975:33994   */\n      add\n        /* \"#utility.yul\":33969:33995   */\n      mload\n        /* \"#utility.yul\":34027:34075   */\n      tag_763\n        /* \"#utility.yul\":34069:34073   */\n      0x1f\n        /* \"#utility.yul\":34061:34067   */\n      dup10\n        /* \"#utility.yul\":34057:34074   */\n      and\n        /* \"#utility.yul\":34046:34055   */\n      dup3\n        /* \"#utility.yul\":34027:34075   */\n      tag_407\n      jump\t// in\n    tag_763:\n        /* \"#utility.yul\":34019:34025   */\n      dup4\n        /* \"#utility.yul\":34012:34076   */\n      sstore\n        /* \"#utility.yul\":33934:34090   */\n      pop\n        /* \"#utility.yul\":33911:34090   */\n    tag_762:\n        /* \"#utility.yul\":34136:34137   */\n      0x01\n        /* \"#utility.yul\":34132:34133   */\n      0x02\n        /* \"#utility.yul\":34124:34130   */\n      dup9\n        /* \"#utility.yul\":34120:34134   */\n      mul\n        /* \"#utility.yul\":34116:34138   */\n      add\n        /* \"#utility.yul\":34110:34114   */\n      dup9\n        /* \"#utility.yul\":34103:34139   */\n      sstore\n        /* \"#utility.yul\":33538:34149   */\n      pop\n      pop\n      pop\n        /* \"#utility.yul\":33501:34388   */\n    tag_754:\n      pop\n        /* \"#utility.yul\":33091:34394   */\n      pop\n      pop\n      pop\n        /* \"#utility.yul\":32999:34394   */\n      pop\n      pop\n      jump\t// out\n        /* \"#utility.yul\":34400:34580   */\n    tag_409:\n        /* \"#utility.yul\":34448:34525   */\n      0x4e487b7100000000000000000000000000000000000000000000000000000000\n        /* \"#utility.yul\":34445:34446   */\n      0x00\n        /* \"#utility.yul\":34438:34526   */\n      mstore\n        /* \"#utility.yul\":34545:34549   */\n      0x11\n        /* \"#utility.yul\":34542:34543   */\n      0x04\n        /* \"#utility.yul\":34535:34550   */\n      mstore\n        /* \"#utility.yul\":34569:34573   */\n      0x24\n        /* \"#utility.yul\":34566:34567   */\n      0x00\n        /* \"#utility.yul\":34559:34574   */\n      revert\n        /* \"#utility.yul\":34586:34777   */\n    tag_239:\n        /* \"#utility.yul\":34626:34629   */\n      0x00\n        /* \"#utility.yul\":34645:34665   */\n      tag_766\n        /* \"#utility.yul\":34663:34664   */\n      dup3\n        /* \"#utility.yul\":34645:34665   */\n      tag_327\n      jump\t// in\n    tag_766:\n        /* \"#utility.yul\":34640:34665   */\n      swap2\n      pop\n        /* \"#utility.yul\":34679:34699   */\n      tag_767\n        /* \"#utility.yul\":34697:34698   */\n      dup4\n        /* \"#utility.yul\":34679:34699   */\n      tag_327\n      jump\t// in\n    tag_767:\n        /* \"#utility.yul\":34674:34699   */\n      swap3\n      pop\n        /* \"#utility.yul\":34722:34723   */\n      dup3\n        /* \"#utility.yul\":34719:34720   */\n      dup3\n        /* \"#utility.yul\":34715:34724   */\n      add\n        /* \"#utility.yul\":34708:34724   */\n      swap1\n      pop\n        /* \"#utility.yul\":34743:34746   */\n      dup1\n        /* \"#utility.yul\":34740:34741   */\n      dup3\n        /* \"#utility.yul\":34737:34747   */\n      gt\n        /* \"#utility.yul\":34734:34770   */\n      iszero\n      tag_768\n      jumpi\n        /* \"#utility.yul\":34750:34768   */\n      tag_769\n      tag_409\n      jump\t// in\n    tag_769:\n        /* \"#utility.yul\":34734:34770   */\n    tag_768:\n        /* \"#utility.yul\":34586:34777   */\n      swap3\n      swap2\n      pop\n      pop\n      jump\t// out\n        /* \"#utility.yul\":34783:34881   */\n    tag_410:\n        /* \"#utility.yul\":34834:34840   */\n      0x00\n        /* \"#utility.yul\":34868:34873   */\n      dup2\n        /* \"#utility.yul\":34862:34874   */\n      mload\n        /* \"#utility.yul\":34852:34874   */\n      swap1\n      pop\n        /* \"#utility.yul\":34783:34881   */\n      swap2\n      swap1\n      pop\n      jump\t// out\n        /* \"#utility.yul\":34887:35055   */\n    tag_411:\n        /* \"#utility.yul\":34970:34981   */\n      0x00\n        /* \"#utility.yul\":35004:35010   */\n      dup3\n        /* \"#utility.yul\":34999:35002   */\n      dup3\n        /* \"#utility.yul\":34992:35011   */\n      mstore\n        /* \"#utility.yul\":35044:35048   */\n      0x20\n        /* \"#utility.yul\":35039:35042   */\n      dup3\n        /* \"#utility.yul\":35035:35049   */\n      add\n        /* \"#utility.yul\":35020:35049   */\n      swap1\n      pop\n        /* \"#utility.yul\":34887:35055   */\n      swap3\n      swap2\n      pop\n      pop\n      jump\t// out\n        /* \"#utility.yul\":35061:35434   */\n    tag_412:\n        /* \"#utility.yul\":35147:35150   */\n      0x00\n        /* \"#utility.yul\":35175:35213   */\n      tag_773\n        /* \"#utility.yul\":35207:35212   */\n      dup3\n        /* \"#utility.yul\":35175:35213   */\n      tag_410\n      jump\t// in\n    tag_773:\n        /* \"#utility.yul\":35229:35299   */\n      tag_774\n        /* \"#utility.yul\":35292:35298   */\n      dup2\n        /* \"#utility.yul\":35287:35290   */\n      dup6\n        /* \"#utility.yul\":35229:35299   */\n      tag_411\n      jump\t// in\n    tag_774:\n        /* \"#utility.yul\":35222:35299   */\n      swap4\n      pop\n        /* \"#utility.yul\":35308:35373   */\n      tag_775\n        /* \"#utility.yul\":35366:35372   */\n      dup2\n        /* \"#utility.yul\":35361:35364   */\n      dup6\n        /* \"#utility.yul\":35354:35358   */\n      0x20\n        /* \"#utility.yul\":35347:35352   */\n      dup7\n        /* \"#utility.yul\":35343:35359   */\n      add\n        /* \"#utility.yul\":35308:35373   */\n      tag_359\n      jump\t// in\n    tag_775:\n        /* \"#utility.yul\":35398:35427   */\n      tag_776\n        /* \"#utility.yul\":35420:35426   */\n      dup2\n        /* \"#utility.yul\":35398:35427   */\n      tag_332\n      jump\t// in\n    tag_776:\n        /* \"#utility.yul\":35393:35396   */\n      dup5\n        /* \"#utility.yul\":35389:35428   */\n      add\n        /* \"#utility.yul\":35382:35428   */\n      swap2\n      pop\n        /* \"#utility.yul\":35151:35434   */\n      pop\n        /* \"#utility.yul\":35061:35434   */\n      swap3\n      swap2\n      pop\n      pop\n      jump\t// out\n        /* \"#utility.yul\":35440:36171   */\n    tag_241:\n        /* \"#utility.yul\":35655:35659   */\n      0x00\n        /* \"#utility.yul\":35693:35696   */\n      0x80\n        /* \"#utility.yul\":35682:35691   */\n      dup3\n        /* \"#utility.yul\":35678:35697   */\n      add\n        /* \"#utility.yul\":35670:35697   */\n      swap1\n      pop\n        /* \"#utility.yul\":35707:35778   */\n      tag_778\n        /* \"#utility.yul\":35775:35776   */\n      0x00\n        /* \"#utility.yul\":35764:35773   */\n      dup4\n        /* \"#utility.yul\":35760:35777   */\n      add\n        /* \"#utility.yul\":35751:35757   */\n      dup8\n        /* \"#utility.yul\":35707:35778   */\n      tag_344\n      jump\t// in\n    tag_778:\n        /* \"#utility.yul\":35788:35860   */\n      tag_779\n        /* \"#utility.yul\":35856:35858   */\n      0x20\n        /* \"#utility.yul\":35845:35854   */\n      dup4\n        /* \"#utility.yul\":35841:35859   */\n      add\n        /* \"#utility.yul\":35832:35838   */\n      dup7\n        /* \"#utility.yul\":35788:35860   */\n      tag_344\n      jump\t// in\n    tag_779:\n        /* \"#utility.yul\":35907:35916   */\n      dup2\n        /* \"#utility.yul\":35901:35905   */\n      dup2\n        /* \"#utility.yul\":35897:35917   */\n      sub\n        /* \"#utility.yul\":35892:35894   */\n      0x40\n        /* \"#utility.yul\":35881:35890   */\n      dup4\n        /* \"#utility.yul\":35877:35895   */\n      add\n        /* \"#utility.yul\":35870:35918   */\n      mstore\n        /* \"#utility.yul\":35935:36013   */\n      tag_780\n        /* \"#utility.yul\":36008:36012   */\n      dup2\n        /* \"#utility.yul\":35999:36005   */\n      dup6\n        /* \"#utility.yul\":35935:36013   */\n      tag_360\n      jump\t// in\n    tag_780:\n        /* \"#utility.yul\":35927:36013   */\n      swap1\n      pop\n        /* \"#utility.yul\":36060:36069   */\n      dup2\n        /* \"#utility.yul\":36054:36058   */\n      dup2\n        /* \"#utility.yul\":36050:36070   */\n      sub\n        /* \"#utility.yul\":36045:36047   */\n      0x60\n        /* \"#utility.yul\":36034:36043   */\n      dup4\n        /* \"#utility.yul\":36030:36048   */\n      add\n        /* \"#utility.yul\":36023:36071   */\n      mstore\n        /* \"#utility.yul\":36088:36164   */\n      tag_781\n        /* \"#utility.yul\":36159:36163   */\n      dup2\n        /* \"#utility.yul\":36150:36156   */\n      dup5\n        /* \"#utility.yul\":36088:36164   */\n      tag_412\n      jump\t// in\n    tag_781:\n        /* \"#utility.yul\":36080:36164   */\n      swap1\n      pop\n        /* \"#utility.yul\":35440:36171   */\n      swap6\n      swap5\n      pop\n      pop\n      pop\n      pop\n      pop\n      jump\t// out\n        /* \"#utility.yul\":36177:36452   */\n    tag_244:\n        /* \"#utility.yul\":36309:36312   */\n      0x00\n        /* \"#utility.yul\":36331:36426   */\n      tag_783\n        /* \"#utility.yul\":36422:36425   */\n      dup3\n        /* \"#utility.yul\":36413:36419   */\n      dup5\n        /* \"#utility.yul\":36331:36426   */\n      tag_380\n      jump\t// in\n    tag_783:\n        /* \"#utility.yul\":36324:36426   */\n      swap2\n      pop\n        /* \"#utility.yul\":36443:36446   */\n      dup2\n        /* \"#utility.yul\":36436:36446   */\n      swap1\n      pop\n        /* \"#utility.yul\":36177:36452   */\n      swap3\n      swap2\n      pop\n      pop\n      jump\t// out\n        /* \"#utility.yul\":36458:36632   */\n    tag_413:\n        /* \"#utility.yul\":36598:36624   */\n      0x696e76616c6964207369676e6174757265206c656e6774680000000000000000\n        /* \"#utility.yul\":36594:36595   */\n      0x00\n        /* \"#utility.yul\":36586:36592   */\n      dup3\n        /* \"#utility.yul\":36582:36596   */\n      add\n        /* \"#utility.yul\":36575:36625   */\n      mstore\n        /* \"#utility.yul\":36458:36632   */\n      pop\n      jump\t// out\n        /* \"#utility.yul\":36638:37004   */\n    tag_414:\n        /* \"#utility.yul\":36780:36783   */\n      0x00\n        /* \"#utility.yul\":36801:36868   */\n      tag_786\n        /* \"#utility.yul\":36865:36867   */\n      0x18\n        /* \"#utility.yul\":36860:36863   */\n      dup4\n        /* \"#utility.yul\":36801:36868   */\n      tag_358\n      jump\t// in\n    tag_786:\n        /* \"#utility.yul\":36794:36868   */\n      swap2\n      pop\n        /* \"#utility.yul\":36877:36970   */\n      tag_787\n        /* \"#utility.yul\":36966:36969   */\n      dup3\n        /* \"#utility.yul\":36877:36970   */\n      tag_413\n      jump\t// in\n    tag_787:\n        /* \"#utility.yul\":36995:36997   */\n      0x20\n        /* \"#utility.yul\":36990:36993   */\n      dup3\n        /* \"#utility.yul\":36986:36998   */\n      add\n        /* \"#utility.yul\":36979:36998   */\n      swap1\n      pop\n        /* \"#utility.yul\":36638:37004   */\n      swap2\n      swap1\n      pop\n      jump\t// out\n        /* \"#utility.yul\":37010:37429   */\n    tag_249:\n        /* \"#utility.yul\":37176:37180   */\n      0x00\n        /* \"#utility.yul\":37214:37216   */\n      0x20\n        /* \"#utility.yul\":37203:37212   */\n      dup3\n        /* \"#utility.yul\":37199:37217   */\n      add\n        /* \"#utility.yul\":37191:37217   */\n      swap1\n      pop\n        /* \"#utility.yul\":37263:37272   */\n      dup2\n        /* \"#utility.yul\":37257:37261   */\n      dup2\n        /* \"#utility.yul\":37253:37273   */\n      sub\n        /* \"#utility.yul\":37249:37250   */\n      0x00\n        /* \"#utility.yul\":37238:37247   */\n      dup4\n        /* \"#utility.yul\":37234:37251   */\n      add\n        /* \"#utility.yul\":37227:37274   */\n      mstore\n        /* \"#utility.yul\":37291:37422   */\n      tag_789\n        /* \"#utility.yul\":37417:37421   */\n      dup2\n        /* \"#utility.yul\":37291:37422   */\n      tag_414\n      jump\t// in\n    tag_789:\n        /* \"#utility.yul\":37283:37422   */\n      swap1\n      pop\n        /* \"#utility.yul\":37010:37429   */\n      swap2\n      swap1\n      pop\n      jump\t// out\n        /* \"#utility.yul\":37435:37877   */\n    tag_258:\n        /* \"#utility.yul\":37584:37588   */\n      0x00\n        /* \"#utility.yul\":37622:37624   */\n      0x60\n        /* \"#utility.yul\":37611:37620   */\n      dup3\n        /* \"#utility.yul\":37607:37625   */\n      add\n        /* \"#utility.yul\":37599:37625   */\n      swap1\n      pop\n        /* \"#utility.yul\":37635:37706   */\n      tag_791\n        /* \"#utility.yul\":37703:37704   */\n      0x00\n        /* \"#utility.yul\":37692:37701   */\n      dup4\n        /* \"#utility.yul\":37688:37705   */\n      add\n        /* \"#utility.yul\":37679:37685   */\n      dup7\n        /* \"#utility.yul\":37635:37706   */\n      tag_350\n      jump\t// in\n    tag_791:\n        /* \"#utility.yul\":37716:37788   */\n      tag_792\n        /* \"#utility.yul\":37784:37786   */\n      0x20\n        /* \"#utility.yul\":37773:37782   */\n      dup4\n        /* \"#utility.yul\":37769:37787   */\n      add\n        /* \"#utility.yul\":37760:37766   */\n      dup6\n        /* \"#utility.yul\":37716:37788   */\n      tag_350\n      jump\t// in\n    tag_792:\n        /* \"#utility.yul\":37798:37870   */\n      tag_793\n        /* \"#utility.yul\":37866:37868   */\n      0x40\n        /* \"#utility.yul\":37855:37864   */\n      dup4\n        /* \"#utility.yul\":37851:37869   */\n      add\n        /* \"#utility.yul\":37842:37848   */\n      dup5\n        /* \"#utility.yul\":37798:37870   */\n      tag_344\n      jump\t// in\n    tag_793:\n        /* \"#utility.yul\":37435:37877   */\n      swap5\n      swap4\n      pop\n      pop\n      pop\n      pop\n      jump\t// out\n        /* \"#utility.yul\":37883:38077   */\n    tag_271:\n        /* \"#utility.yul\":37923:37927   */\n      0x00\n        /* \"#utility.yul\":37943:37963   */\n      tag_795\n        /* \"#utility.yul\":37961:37962   */\n      dup3\n        /* \"#utility.yul\":37943:37963   */\n      tag_327\n      jump\t// in\n    tag_795:\n        /* \"#utility.yul\":37938:37963   */\n      swap2\n      pop\n        /* \"#utility.yul\":37977:37997   */\n      tag_796\n        /* \"#utility.yul\":37995:37996   */\n      dup4\n        /* \"#utility.yul\":37977:37997   */\n      tag_327\n      jump\t// in\n    tag_796:\n        /* \"#utility.yul\":37972:37997   */\n      swap3\n      pop\n        /* \"#utility.yul\":38021:38022   */\n      dup3\n        /* \"#utility.yul\":38018:38019   */\n      dup3\n        /* \"#utility.yul\":38014:38023   */\n      sub\n        /* \"#utility.yul\":38006:38023   */\n      swap1\n      pop\n        /* \"#utility.yul\":38045:38046   */\n      dup2\n        /* \"#utility.yul\":38039:38043   */\n      dup2\n        /* \"#utility.yul\":38036:38047   */\n      gt\n        /* \"#utility.yul\":38033:38070   */\n      iszero\n      tag_797\n      jumpi\n        /* \"#utility.yul\":38050:38068   */\n      tag_798\n      tag_409\n      jump\t// in\n    tag_798:\n        /* \"#utility.yul\":38033:38070   */\n    tag_797:\n        /* \"#utility.yul\":37883:38077   */\n      swap3\n      swap2\n      pop\n      pop\n      jump\t// out\n        /* \"#utility.yul\":38083:38297   */\n    tag_415:\n        /* \"#utility.yul\":38223:38289   */\n      0x19457468657265756d205369676e6564204d6573736167653a0a333200000000\n        /* \"#utility.yul\":38219:38220   */\n      0x00\n        /* \"#utility.yul\":38211:38217   */\n      dup3\n        /* \"#utility.yul\":38207:38221   */\n      add\n        /* \"#utility.yul\":38200:38290   */\n      mstore\n        /* \"#utility.yul\":38083:38297   */\n      pop\n      jump\t// out\n        /* \"#utility.yul\":38303:38705   */\n    tag_416:\n        /* \"#utility.yul\":38463:38466   */\n      0x00\n        /* \"#utility.yul\":38484:38569   */\n      tag_801\n        /* \"#utility.yul\":38566:38568   */\n      0x1c\n        /* \"#utility.yul\":38561:38564   */\n      dup4\n        /* \"#utility.yul\":38484:38569   */\n      tag_379\n      jump\t// in\n    tag_801:\n        /* \"#utility.yul\":38477:38569   */\n      swap2\n      pop\n        /* \"#utility.yul\":38578:38671   */\n      tag_802\n        /* \"#utility.yul\":38667:38670   */\n      dup3\n        /* \"#utility.yul\":38578:38671   */\n      tag_415\n      jump\t// in\n    tag_802:\n        /* \"#utility.yul\":38696:38698   */\n      0x1c\n        /* \"#utility.yul\":38691:38694   */\n      dup3\n        /* \"#utility.yul\":38687:38699   */\n      add\n        /* \"#utility.yul\":38680:38699   */\n      swap1\n      pop\n        /* \"#utility.yul\":38303:38705   */\n      swap2\n      swap1\n      pop\n      jump\t// out\n        /* \"#utility.yul\":38711:38790   */\n    tag_417:\n        /* \"#utility.yul\":38750:38757   */\n      0x00\n        /* \"#utility.yul\":38779:38784   */\n      dup2\n        /* \"#utility.yul\":38768:38784   */\n      swap1\n      pop\n        /* \"#utility.yul\":38711:38790   */\n      swap2\n      swap1\n      pop\n      jump\t// out\n        /* \"#utility.yul\":38796:38953   */\n    tag_418:\n        /* \"#utility.yul\":38901:38946   */\n      tag_805\n        /* \"#utility.yul\":38921:38945   */\n      tag_806\n        /* \"#utility.yul\":38939:38944   */\n      dup3\n        /* \"#utility.yul\":38921:38945   */\n      tag_351\n      jump\t// in\n    tag_806:\n        /* \"#utility.yul\":38901:38946   */\n      tag_417\n      jump\t// in\n    tag_805:\n        /* \"#utility.yul\":38896:38899   */\n      dup3\n        /* \"#utility.yul\":38889:38947   */\n      mstore\n        /* \"#utility.yul\":38796:38953   */\n      pop\n      pop\n      jump\t// out\n        /* \"#utility.yul\":38959:39481   */\n    tag_296:\n        /* \"#utility.yul\":39172:39175   */\n      0x00\n        /* \"#utility.yul\":39194:39342   */\n      tag_808\n        /* \"#utility.yul\":39338:39341   */\n      dup3\n        /* \"#utility.yul\":39194:39342   */\n      tag_416\n      jump\t// in\n    tag_808:\n        /* \"#utility.yul\":39187:39342   */\n      swap2\n      pop\n        /* \"#utility.yul\":39352:39427   */\n      tag_809\n        /* \"#utility.yul\":39423:39426   */\n      dup3\n        /* \"#utility.yul\":39414:39420   */\n      dup5\n        /* \"#utility.yul\":39352:39427   */\n      tag_418\n      jump\t// in\n    tag_809:\n        /* \"#utility.yul\":39452:39454   */\n      0x20\n        /* \"#utility.yul\":39447:39450   */\n      dup3\n        /* \"#utility.yul\":39443:39455   */\n      add\n        /* \"#utility.yul\":39436:39455   */\n      swap2\n      pop\n        /* \"#utility.yul\":39472:39475   */\n      dup2\n        /* \"#utility.yul\":39465:39475   */\n      swap1\n      pop\n        /* \"#utility.yul\":38959:39481   */\n      swap3\n      swap2\n      pop\n      pop\n      jump\t// out\n        /* \"#utility.yul\":39487:39897   */\n    tag_305:\n        /* \"#utility.yul\":39527:39534   */\n      0x00\n        /* \"#utility.yul\":39550:39570   */\n      tag_811\n        /* \"#utility.yul\":39568:39569   */\n      dup3\n        /* \"#utility.yul\":39550:39570   */\n      tag_327\n      jump\t// in\n    tag_811:\n        /* \"#utility.yul\":39545:39570   */\n      swap2\n      pop\n        /* \"#utility.yul\":39584:39604   */\n      tag_812\n        /* \"#utility.yul\":39602:39603   */\n      dup4\n        /* \"#utility.yul\":39584:39604   */\n      tag_327\n      jump\t// in\n    tag_812:\n        /* \"#utility.yul\":39579:39604   */\n      swap3\n      pop\n        /* \"#utility.yul\":39639:39640   */\n      dup3\n        /* \"#utility.yul\":39636:39637   */\n      dup3\n        /* \"#utility.yul\":39632:39641   */\n      mul\n        /* \"#utility.yul\":39661:39691   */\n      tag_813\n        /* \"#utility.yul\":39679:39690   */\n      dup2\n        /* \"#utility.yul\":39661:39691   */\n      tag_327\n      jump\t// in\n    tag_813:\n        /* \"#utility.yul\":39650:39691   */\n      swap2\n      pop\n        /* \"#utility.yul\":39840:39841   */\n      dup3\n        /* \"#utility.yul\":39831:39838   */\n      dup3\n        /* \"#utility.yul\":39827:39842   */\n      div\n        /* \"#utility.yul\":39824:39825   */\n      dup5\n        /* \"#utility.yul\":39821:39843   */\n      eq\n        /* \"#utility.yul\":39801:39802   */\n      dup4\n        /* \"#utility.yul\":39794:39803   */\n      iszero\n        /* \"#utility.yul\":39774:39857   */\n      or\n        /* \"#utility.yul\":39751:39890   */\n      tag_814\n      jumpi\n        /* \"#utility.yul\":39870:39888   */\n      tag_815\n      tag_409\n      jump\t// in\n    tag_815:\n        /* \"#utility.yul\":39751:39890   */\n    tag_814:\n        /* \"#utility.yul\":39535:39897   */\n      pop\n        /* \"#utility.yul\":39487:39897   */\n      swap3\n      swap2\n      pop\n      pop\n      jump\t// out\n        /* \"#utility.yul\":39903:40083   */\n    tag_419:\n        /* \"#utility.yul\":39951:40028   */\n      0x4e487b7100000000000000000000000000000000000000000000000000000000\n        /* \"#utility.yul\":39948:39949   */\n      0x00\n        /* \"#utility.yul\":39941:40029   */\n      mstore\n        /* \"#utility.yul\":40048:40052   */\n      0x12\n        /* \"#utility.yul\":40045:40046   */\n      0x04\n        /* \"#utility.yul\":40038:40053   */\n      mstore\n        /* \"#utility.yul\":40072:40076   */\n      0x24\n        /* \"#utility.yul\":40069:40070   */\n      0x00\n        /* \"#utility.yul\":40062:40077   */\n      revert\n        /* \"#utility.yul\":40089:40274   */\n    tag_307:\n        /* \"#utility.yul\":40129:40130   */\n      0x00\n        /* \"#utility.yul\":40146:40166   */\n      tag_818\n        /* \"#utility.yul\":40164:40165   */\n      dup3\n        /* \"#utility.yul\":40146:40166   */\n      tag_327\n      jump\t// in\n    tag_818:\n        /* \"#utility.yul\":40141:40166   */\n      swap2\n      pop\n        /* \"#utility.yul\":40180:40200   */\n      tag_819\n        /* \"#utility.yul\":40198:40199   */\n      dup4\n        /* \"#utility.yul\":40180:40200   */\n      tag_327\n      jump\t// in\n    tag_819:\n        /* \"#utility.yul\":40175:40200   */\n      swap3\n      pop\n        /* \"#utility.yul\":40219:40220   */\n      dup3\n        /* \"#utility.yul\":40209:40244   */\n      tag_820\n      jumpi\n        /* \"#utility.yul\":40224:40242   */\n      tag_821\n      tag_419\n      jump\t// in\n    tag_821:\n        /* \"#utility.yul\":40209:40244   */\n    tag_820:\n        /* \"#utility.yul\":40266:40267   */\n      dup3\n        /* \"#utility.yul\":40263:40264   */\n      dup3\n        /* \"#utility.yul\":40259:40268   */\n      div\n        /* \"#utility.yul\":40254:40268   */\n      swap1\n      pop\n        /* \"#utility.yul\":40089:40274   */\n      swap3\n      swap2\n      pop\n      pop\n      jump\t// out\n        /* \"#utility.yul\":40280:40500   */\n    tag_420:\n        /* \"#utility.yul\":40420:40454   */\n      0x536166654d6174683a206d756c7469706c69636174696f6e206f766572666c6f\n        /* \"#utility.yul\":40416:40417   */\n      0x00\n        /* \"#utility.yul\":40408:40414   */\n      dup3\n        /* \"#utility.yul\":40404:40418   */\n      add\n        /* \"#utility.yul\":40397:40455   */\n      mstore\n        /* \"#utility.yul\":40489:40492   */\n      0x7700000000000000000000000000000000000000000000000000000000000000\n        /* \"#utility.yul\":40484:40486   */\n      0x20\n        /* \"#utility.yul\":40476:40482   */\n      dup3\n        /* \"#utility.yul\":40472:40487   */\n      add\n        /* \"#utility.yul\":40465:40493   */\n      mstore\n        /* \"#utility.yul\":40280:40500   */\n      pop\n      jump\t// out\n        /* \"#utility.yul\":40506:40872   */\n    tag_421:\n        /* \"#utility.yul\":40648:40651   */\n      0x00\n        /* \"#utility.yul\":40669:40736   */\n      tag_824\n        /* \"#utility.yul\":40733:40735   */\n      0x21\n        /* \"#utility.yul\":40728:40731   */\n      dup4\n        /* \"#utility.yul\":40669:40736   */\n      tag_358\n      jump\t// in\n    tag_824:\n        /* \"#utility.yul\":40662:40736   */\n      swap2\n      pop\n        /* \"#utility.yul\":40745:40838   */\n      tag_825\n        /* \"#utility.yul\":40834:40837   */\n      dup3\n        /* \"#utility.yul\":40745:40838   */\n      tag_420\n      jump\t// in\n    tag_825:\n        /* \"#utility.yul\":40863:40865   */\n      0x40\n        /* \"#utility.yul\":40858:40861   */\n      dup3\n        /* \"#utility.yul\":40854:40866   */\n      add\n        /* \"#utility.yul\":40847:40866   */\n      swap1\n      pop\n        /* \"#utility.yul\":40506:40872   */\n      swap2\n      swap1\n      pop\n      jump\t// out\n        /* \"#utility.yul\":40878:41297   */\n    tag_310:\n        /* \"#utility.yul\":41044:41048   */\n      0x00\n        /* \"#utility.yul\":41082:41084   */\n      0x20\n        /* \"#utility.yul\":41071:41080   */\n      dup3\n        /* \"#utility.yul\":41067:41085   */\n      add\n        /* \"#utility.yul\":41059:41085   */\n      swap1\n      pop\n        /* \"#utility.yul\":41131:41140   */\n      dup2\n        /* \"#utility.yul\":41125:41129   */\n      dup2\n        /* \"#utility.yul\":41121:41141   */\n      sub\n        /* \"#utility.yul\":41117:41118   */\n      0x00\n        /* \"#utility.yul\":41106:41115   */\n      dup4\n        /* \"#utility.yul\":41102:41119   */\n      add\n        /* \"#utility.yul\":41095:41142   */\n      mstore\n        /* \"#utility.yul\":41159:41290   */\n      tag_827\n        /* \"#utility.yul\":41285:41289   */\n      dup2\n        /* \"#utility.yul\":41159:41290   */\n      tag_421\n      jump\t// in\n    tag_827:\n        /* \"#utility.yul\":41151:41290   */\n      swap1\n      pop\n        /* \"#utility.yul\":40878:41297   */\n      swap2\n      swap1\n      pop\n      jump\t// out\n        /* \"#utility.yul\":41303:41616   */\n    tag_317:\n        /* \"#utility.yul\":41416:41420   */\n      0x00\n        /* \"#utility.yul\":41454:41456   */\n      0x20\n        /* \"#utility.yul\":41443:41452   */\n      dup3\n        /* \"#utility.yul\":41439:41457   */\n      add\n        /* \"#utility.yul\":41431:41457   */\n      swap1\n      pop\n        /* \"#utility.yul\":41503:41512   */\n      dup2\n        /* \"#utility.yul\":41497:41501   */\n      dup2\n        /* \"#utility.yul\":41493:41513   */\n      sub\n        /* \"#utility.yul\":41489:41490   */\n      0x00\n        /* \"#utility.yul\":41478:41487   */\n      dup4\n        /* \"#utility.yul\":41474:41491   */\n      add\n        /* \"#utility.yul\":41467:41514   */\n      mstore\n        /* \"#utility.yul\":41531:41609   */\n      tag_829\n        /* \"#utility.yul\":41604:41608   */\n      dup2\n        /* \"#utility.yul\":41595:41601   */\n      dup5\n        /* \"#utility.yul\":41531:41609   */\n      tag_360\n      jump\t// in\n    tag_829:\n        /* \"#utility.yul\":41523:41609   */\n      swap1\n      pop\n        /* \"#utility.yul\":41303:41616   */\n      swap3\n      swap2\n      pop\n      pop\n      jump\t// out\n\n    auxdata: 0xa2646970667358221220b23d4e68d5d3b53a7c90d1a18e2d244d5477b905496adb4981c24052517d677b64736f6c63430008140033\n}\n",
				"bytecode": {
					"linkReferences": {},
					"object": "60a06040526101ea60025560d260035561012c6004557321b81f2cc97334031efaff3b93d8f846e02ad0bc60075f6101000a81548173ffffffffffffffffffffffffffffffffffffffff021916908373ffffffffffffffffffffffffffffffffffffffff1602179055507363eb5ccd29905bdeb83f1889c84d4bf884038d2f60085f6101000a81548173ffffffffffffffffffffffffffffffffffffffff021916908373ffffffffffffffffffffffffffffffffffffffff1602179055505f60095f6101000a81548173ffffffffffffffffffffffffffffffffffffffff021916908373ffffffffffffffffffffffffffffffffffffffff1602179055505f600a5f6101000a81548173ffffffffffffffffffffffffffffffffffffffff021916908373ffffffffffffffffffffffffffffffffffffffff1602179055506001600c553480156200014e575f80fd5b506040516200360038038062003600833981810160405281019062000174919062000318565b838073ffffffffffffffffffffffffffffffffffffffff1660808173ffffffffffffffffffffffffffffffffffffffff168152505050335f806101000a81548173ffffffffffffffffffffffffffffffffffffffff021916908373ffffffffffffffffffffffffffffffffffffffff1602179055508260065f6101000a81548173ffffffffffffffffffffffffffffffffffffffff021916908373ffffffffffffffffffffffffffffffffffffffff1602179055508160055f6101000a81548173ffffffffffffffffffffffffffffffffffffffff021916908373ffffffffffffffffffffffffffffffffffffffff1602179055508060015f6101000a81548173ffffffffffffffffffffffffffffffffffffffff021916908373ffffffffffffffffffffffffffffffffffffffff1602179055505050505062000387565b5f80fd5b5f73ffffffffffffffffffffffffffffffffffffffff82169050919050565b5f620002e282620002b7565b9050919050565b620002f481620002d6565b8114620002ff575f80fd5b50565b5f815190506200031281620002e9565b92915050565b5f805f8060808587031215620003335762000332620002b3565b5b5f620003428782880162000302565b9450506020620003558782880162000302565b9350506040620003688782880162000302565b92505060606200037b8782880162000302565b91505092959194509250565b608051613260620003a05f395f61094101526132605ff3fe608060405234801561000f575f80fd5b5060043610610171575f3560e01c8063845a51ec116100dc5780639f2585a111610095578063cb1468791161006f578063cb1468791461043d578063d1faf15714610459578063d339db9414610477578063f746a0421461049557610171565b80639f2585a1146103a9578063a85c38ef146103d9578063bbb99baa1461040d57610171565b8063845a51ec146102f957806387336111146103175780638b225f06146103335780638c7c9e0c1461034f5780638da5cb5b1461036d57806394dd453a1461038b57610171565b80633e413bee1161012e5780633e413bee146102375780634127535814610255578063572b6c051461027357806358979bfe146102a35780635b65b9ab146102bf5780635b7633d0146102db57610171565b806306b091f9146101755780630d3652ec14610191578063122c6fd7146101c157806314754e66146101dd5780632a58b330146101fb5780632f48ab7d14610219575b5f80fd5b61018f600480360381019061018a9190611def565b6104b1565b005b6101ab60048036038101906101a69190611f69565b610694565b6040516101b89190611fca565b60405180910390f35b6101db60048036038101906101d6919061200d565b6107f3565b005b6101e56108c3565b6040516101f29190612047565b60405180910390f35b6102036108c9565b6040516102109190612047565b60405180910390f35b6102216108cf565b60405161022e91906120bb565b60405180910390f35b61023f6108f4565b60405161024c91906120bb565b60405180910390f35b61025d610919565b60405161026a91906120e3565b60405180910390f35b61028d6004803603810190610288919061200d565b61093e565b60405161029a9190611fca565b60405180910390f35b6102bd60048036038101906102b8919061200d565b610995565b005b6102d960048036038101906102d491906120fc565b610a65565b005b6102e3610b0c565b6040516102f091906120e3565b60405180910390f35b610301610b31565b60405161030e91906120e3565b60405180910390f35b610331600480360381019061032c919061214c565b610b56565b005b61034d6004803603810190610348919061200d565b610ca8565b005b610357610d78565b60405161036491906120bb565b60405180910390f35b610375610d9d565b60405161038291906120e3565b60405180910390f35b610393610dc0565b6040516103a091906120bb565b60405180910390f35b6103c360048036038101906103be919061226d565b610de5565b6040516103d091906120e3565b60405180910390f35b6103f360048036038101906103ee91906122c7565b610e4f565b60405161040495949392919061236c565b60405180910390f35b610427600480360381019061042291906123c4565b610f26565b6040516104349190612478565b60405180910390f35b6104576004803603810190610452919061200d565b610f64565b005b610461611034565b60405161046e9190612047565b60405180910390f35b61047f61103a565b60405161048c9190612047565b60405180910390f35b6104af60048036038101906104aa9190612491565b611040565b005b5f8054906101000a900473ffffffffffffffffffffffffffffffffffffffff1673ffffffffffffffffffffffffffffffffffffffff163373ffffffffffffffffffffffffffffffffffffffff161461053e576040517f08c379a0000000000000000000000000000000000000000000000000000000008152600401610535906125d6565b60405180910390fd5b5f8111610580576040517f08c379a00000000000000000000000000000000000000000000000000000000081526004016105779061263e565b60405180910390fd5b8173ffffffffffffffffffffffffffffffffffffffff1663a9059cbb5f8054906101000a900473ffffffffffffffffffffffffffffffffffffffff16836040518363ffffffff1660e01b81526004016105da92919061265c565b6020604051808303815f875af11580156105f6573d5f803e3d5ffd5b505050506040513d601f19601f8201168201806040525081019061061a91906126ad565b610659576040517f08c379a000000000000000000000000000000000000000000000000000000000815260040161065090612722565b60405180910390fd5b7f9c6393f251205f9e03559951cab4c9ae71767b6174f77944a5b0c2fa51fbda9f816040516106889190612047565b60405180910390a15050565b5f6106d4826040518060400160405280600481526020017f75736474000000000000000000000000000000000000000000000000000000008152506116bc565b8061071a5750610719826040518060400160405280600481526020017f75736463000000000000000000000000000000000000000000000000000000008152506116bc565b5b80610760575061075f826040518060400160405280600381526020017f756d6900000000000000000000000000000000000000000000000000000000008152506116bc565b5b806107a657506107a5826040518060400160405280600981526020017f64697665706f696e7400000000000000000000000000000000000000000000008152506116bc565b5b806107ec57506107eb826040518060400160405280600381526020017f65746800000000000000000000000000000000000000000000000000000000008152506116bc565b5b9050919050565b5f8054906101000a900473ffffffffffffffffffffffffffffffffffffffff1673ffffffffffffffffffffffffffffffffffffffff163373ffffffffffffffffffffffffffffffffffffffff1614610880576040517f08c379a0000000000000000000000000000000000000000000000000000000008152600401610877906125d6565b60405180910390fd5b80600a5f6101000a81548173ffffffffffffffffffffffffffffffffffffffff021916908373ffffffffffffffffffffffffffffffffffffffff16021790555050565b60045481565b600c5481565b60075f9054906101000a900473ffffffffffffffffffffffffffffffffffffffff1681565b60085f9054906101000a900473ffffffffffffffffffffffffffffffffffffffff1681565b60055f9054906101000a900473ffffffffffffffffffffffffffffffffffffffff1681565b5f7f000000000000000000000000000000000000000000000000000000000000000073ffffffffffffffffffffffffffffffffffffffff168273ffffffffffffffffffffffffffffffffffffffff16149050919050565b5f8054906101000a900473ffffffffffffffffffffffffffffffffffffffff1673ffffffffffffffffffffffffffffffffffffffff163373ffffffffffffffffffffffffffffffffffffffff1614610a22576040517f08c379a0000000000000000000000000000000000000000000000000000000008152600401610a19906125d6565b60405180910390fd5b8060075f6101000a81548173ffffffffffffffffffffffffffffffffffffffff021916908373ffffffffffffffffffffffffffffffffffffffff16021790555050565b5f8054906101000a900473ffffffffffffffffffffffffffffffffffffffff1673ffffffffffffffffffffffffffffffffffffffff163373ffffffffffffffffffffffffffffffffffffffff1614610af2576040517f08c379a0000000000000000000000000000000000000000000000000000000008152600401610ae9906125d6565b60405180910390fd5b826002819055508160038190555080600481905550505050565b60015f9054906101000a900473ffffffffffffffffffffffffffffffffffffffff1681565b60065f9054906101000a900473ffffffffffffffffffffffffffffffffffffffff1681565b5f8054906101000a900473ffffffffffffffffffffffffffffffffffffffff1673ffffffffffffffffffffffffffffffffffffffff163373ffffffffffffffffffffffffffffffffffffffff1614610be3576040517f08c379a0000000000000000000000000000000000000000000000000000000008152600401610bda906125d6565b60405180910390fd5b8260055f6101000a81548173ffffffffffffffffffffffffffffffffffffffff021916908373ffffffffffffffffffffffffffffffffffffffff1602179055508160065f6101000a81548173ffffffffffffffffffffffffffffffffffffffff021916908373ffffffffffffffffffffffffffffffffffffffff1602179055508060015f6101000a81548173ffffffffffffffffffffffffffffffffffffffff021916908373ffffffffffffffffffffffffffffffffffffffff160217905550505050565b5f8054906101000a900473ffffffffffffffffffffffffffffffffffffffff1673ffffffffffffffffffffffffffffffffffffffff163373ffffffffffffffffffffffffffffffffffffffff1614610d35576040517f08c379a0000000000000000000000000000000000000000000000000000000008152600401610d2c906125d6565b60405180910390fd5b8060095f6101000a81548173ffffffffffffffffffffffffffffffffffffffff021916908373ffffffffffffffffffffffffffffffffffffffff16021790555050565b600a5f9054906101000a900473ffffffffffffffffffffffffffffffffffffffff1681565b5f8054906101000a900473ffffffffffffffffffffffffffffffffffffffff1681565b60095f9054906101000a900473ffffffffffffffffffffffffffffffffffffffff1681565b5f805f80610df285611714565b9250925092506001868285856040515f8152602001604052604051610e1a949392919061275b565b6020604051602081039080840390855afa158015610e3a573d5f803e3d5ffd5b50505060206040510351935050505092915050565b600b602052805f5260405f205f91509050805f015f9054906101000a900473ffffffffffffffffffffffffffffffffffffffff1690806001015490806002015490806003018054610e9f906127cb565b80601f0160208091040260200160405190810160405280929190818152602001828054610ecb906127cb565b8015610f165780601f10610eed57610100808354040283529160200191610f16565b820191905f5260205f20905b815481529060010190602001808311610ef957829003601f168201915b5050505050908060040154905085565b5f868686868686604051602001610f429695949392919061289a565b6040516020818303038152906040528051906020012090509695505050505050565b5f8054906101000a900473ffffffffffffffffffffffffffffffffffffffff1673ffffffffffffffffffffffffffffffffffffffff163373ffffffffffffffffffffffffffffffffffffffff1614610ff1576040517f08c379a0000000000000000000000000000000000000000000000000000000008152600401610fe8906125d6565b60405180910390fd5b8060085f6101000a81548173ffffffffffffffffffffffffffffffffffffffff021916908373ffffffffffffffffffffffffffffffffffffffff16021790555050565b60025481565b60035481565b6110493361093e565b611088576040517f08c379a000000000000000000000000000000000000000000000000000000000815260040161107f90612975565b60405180910390fd5b5f84116110ca576040517f08c379a00000000000000000000000000000000000000000000000000000000081526004016110c19061263e565b60405180910390fd5b5f73ffffffffffffffffffffffffffffffffffffffff168773ffffffffffffffffffffffffffffffffffffffff1603611138576040517f08c379a000000000000000000000000000000000000000000000000000000000815260040161112f906129dd565b60405180910390fd5b61114787878787878787611779565b611186576040517f08c379a000000000000000000000000000000000000000000000000000000000815260040161117d90612a45565b60405180910390fd5b5f8085111561157c576111ce846040518060400160405280600481526020017f75736474000000000000000000000000000000000000000000000000000000008152506116bc565b15611287575f73ffffffffffffffffffffffffffffffffffffffff1660075f9054906101000a900473ffffffffffffffffffffffffffffffffffffffff1673ffffffffffffffffffffffffffffffffffffffff1603611262576040517f08c379a000000000000000000000000000000000000000000000000000000000815260040161125990612aad565b60405180910390fd5b60075f9054906101000a900473ffffffffffffffffffffffffffffffffffffffff1690505b6112c6846040518060400160405280600481526020017f75736463000000000000000000000000000000000000000000000000000000008152506116bc565b1561137f575f73ffffffffffffffffffffffffffffffffffffffff1660085f9054906101000a900473ffffffffffffffffffffffffffffffffffffffff1673ffffffffffffffffffffffffffffffffffffffff160361135a576040517f08c379a000000000000000000000000000000000000000000000000000000000815260040161135190612b15565b60405180910390fd5b60085f9054906101000a900473ffffffffffffffffffffffffffffffffffffffff1690505b6113be846040518060400160405280600381526020017f65746800000000000000000000000000000000000000000000000000000000008152506116bc565b15611477575f73ffffffffffffffffffffffffffffffffffffffff16600a5f9054906101000a900473ffffffffffffffffffffffffffffffffffffffff1673ffffffffffffffffffffffffffffffffffffffff1603611452576040517f08c379a000000000000000000000000000000000000000000000000000000000815260040161144990612b7d565b60405180910390fd5b600a5f9054906101000a900473ffffffffffffffffffffffffffffffffffffffff1690505b6114b6846040518060400160405280600381526020017f756d6900000000000000000000000000000000000000000000000000000000008152506116bc565b1561156f575f73ffffffffffffffffffffffffffffffffffffffff1660095f9054906101000a900473ffffffffffffffffffffffffffffffffffffffff1673ffffffffffffffffffffffffffffffffffffffff160361154a576040517f08c379a000000000000000000000000000000000000000000000000000000000815260040161154190612be5565b60405180910390fd5b60095f9054906101000a900473ffffffffffffffffffffffffffffffffffffffff1690505b61157b818989886117ff565b5b6040518060a001604052808873ffffffffffffffffffffffffffffffffffffffff16815260200187815260200186815260200185815260200184815250600b5f8881526020019081526020015f205f820151815f015f6101000a81548173ffffffffffffffffffffffffffffffffffffffff021916908373ffffffffffffffffffffffffffffffffffffffff160217905550602082015181600101556040820151816002015560608201518160030190816116379190612d97565b50608082015181600401559050506001600c5f8282546116579190612e93565b925050819055508673ffffffffffffffffffffffffffffffffffffffff167f767f580fbd26b93b2d869747edc8fb17bfd4888aa055a655ee2d25eac1e77b45878787866040516116aa9493929190612f18565b60405180910390a25050505050505050565b5f816040516020016116ce9190612f69565b60405160208183030381529060405280519060200120836040516020016116f59190612f69565b6040516020818303038152906040528051906020012014905092915050565b5f805f604184511461175b576040517f08c379a000000000000000000000000000000000000000000000000000000000815260040161175290612fc9565b60405180910390fd5b602084015192506040840151915060608401515f1a90509193909250565b5f80611789898989898989610f26565b90505f61179582611b86565b905060015f9054906101000a900473ffffffffffffffffffffffffffffffffffffffff1673ffffffffffffffffffffffffffffffffffffffff166117d98286611bb5565b73ffffffffffffffffffffffffffffffffffffffff161492505050979650505050505050565b5f805f8673ffffffffffffffffffffffffffffffffffffffff166323b872dd8730876040518463ffffffff1660e01b815260040161183f93929190612fe7565b6020604051808303815f875af115801561185b573d5f803e3d5ffd5b505050506040513d601f19601f8201168201806040525081019061187f91906126ad565b506118a96103e861189b60025487611c1f90919063ffffffff16565b611c9690919063ffffffff16565b92506118d46103e86118c660035487611c1f90919063ffffffff16565b611c9690919063ffffffff16565b91506118ff6103e86118f160045487611c1f90919063ffffffff16565b611c9690919063ffffffff16565b90505f81838587611910919061301c565b61191a919061301c565b611924919061301c565b90505f8411156119ab578773ffffffffffffffffffffffffffffffffffffffff1663a9059cbb87866040518363ffffffff1660e01b815260040161196992919061265c565b6020604051808303815f875af1158015611985573d5f803e3d5ffd5b505050506040513d601f19601f820116820180604052508101906119a991906126ad565b505b5f831115611a51578773ffffffffffffffffffffffffffffffffffffffff1663a9059cbb60055f9054906101000a900473ffffffffffffffffffffffffffffffffffffffff16856040518363ffffffff1660e01b8152600401611a0f92919061265c565b6020604051808303815f875af1158015611a2b573d5f803e3d5ffd5b505050506040513d601f19601f82011682018060405250810190611a4f91906126ad565b505b5f821115611af7578773ffffffffffffffffffffffffffffffffffffffff1663a9059cbb60065f9054906101000a900473ffffffffffffffffffffffffffffffffffffffff16846040518363ffffffff1660e01b8152600401611ab592919061265c565b6020604051808303815f875af1158015611ad1573d5f803e3d5ffd5b505050506040513d601f19601f82011682018060405250810190611af591906126ad565b505b5f811115611b7c578773ffffffffffffffffffffffffffffffffffffffff1663a9059cbb87836040518363ffffffff1660e01b8152600401611b3a92919061265c565b6020604051808303815f875af1158015611b56573d5f803e3d5ffd5b505050506040513d601f19601f82011682018060405250810190611b7a91906126ad565b505b5050505050505050565b5f81604051602001611b9891906130b9565b604051602081830303815290604052805190602001209050919050565b5f805f80611bc285611714565b9250925092506001868285856040515f8152602001604052604051611bea949392919061275b565b6020604051602081039080840390855afa158015611c0a573d5f803e3d5ffd5b50505060206040510351935050505092915050565b5f808303611c2f575f9050611c90565b5f8284611c3c91906130de565b9050828482611c4b919061314c565b14611c8b576040517f08c379a0000000000000000000000000000000000000000000000000000000008152600401611c82906131ec565b60405180910390fd5b809150505b92915050565b5f611cd783836040518060400160405280601a81526020017f536166654d6174683a206469766973696f6e206279207a65726f000000000000815250611cdf565b905092915050565b5f8083118290611d25576040517f08c379a0000000000000000000000000000000000000000000000000000000008152600401611d1c919061320a565b60405180910390fd5b505f8385611d33919061314c565b9050809150509392505050565b5f604051905090565b5f80fd5b5f80fd5b5f73ffffffffffffffffffffffffffffffffffffffff82169050919050565b5f611d7a82611d51565b9050919050565b5f611d8b82611d70565b9050919050565b611d9b81611d81565b8114611da5575f80fd5b50565b5f81359050611db681611d92565b92915050565b5f819050919050565b611dce81611dbc565b8114611dd8575f80fd5b50565b5f81359050611de981611dc5565b92915050565b5f8060408385031215611e0557611e04611d49565b5b5f611e1285828601611da8565b9250506020611e2385828601611ddb565b9150509250929050565b5f80fd5b5f80fd5b5f601f19601f8301169050919050565b7f4e487b71000000000000000000000000000000000000000000000000000000005f52604160045260245ffd5b611e7b82611e35565b810181811067ffffffffffffffff82111715611e9a57611e99611e45565b5b80604052505050565b5f611eac611d40565b9050611eb88282611e72565b919050565b5f67ffffffffffffffff821115611ed757611ed6611e45565b5b611ee082611e35565b9050602081019050919050565b828183375f83830152505050565b5f611f0d611f0884611ebd565b611ea3565b905082815260208101848484011115611f2957611f28611e31565b5b611f34848285611eed565b509392505050565b5f82601f830112611f5057611f4f611e2d565b5b8135611f60848260208601611efb565b91505092915050565b5f60208284031215611f7e57611f7d611d49565b5b5f82013567ffffffffffffffff811115611f9b57611f9a611d4d565b5b611fa784828501611f3c565b91505092915050565b5f8115159050919050565b611fc481611fb0565b82525050565b5f602082019050611fdd5f830184611fbb565b92915050565b611fec81611d70565b8114611ff6575f80fd5b50565b5f8135905061200781611fe3565b92915050565b5f6020828403121561202257612021611d49565b5b5f61202f84828501611ff9565b91505092915050565b61204181611dbc565b82525050565b5f60208201905061205a5f830184612038565b92915050565b5f819050919050565b5f61208361207e61207984611d51565b612060565b611d51565b9050919050565b5f61209482612069565b9050919050565b5f6120a58261208a565b9050919050565b6120b58161209b565b82525050565b5f6020820190506120ce5f8301846120ac565b92915050565b6120dd81611d70565b82525050565b5f6020820190506120f65f8301846120d4565b92915050565b5f805f6060848603121561211357612112611d49565b5b5f61212086828701611ddb565b935050602061213186828701611ddb565b925050604061214286828701611ddb565b9150509250925092565b5f805f6060848603121561216357612162611d49565b5b5f61217086828701611ff9565b935050602061218186828701611ff9565b925050604061219286828701611ff9565b9150509250925092565b5f819050919050565b6121ae8161219c565b81146121b8575f80fd5b50565b5f813590506121c9816121a5565b92915050565b5f67ffffffffffffffff8211156121e9576121e8611e45565b5b6121f282611e35565b9050602081019050919050565b5f61221161220c846121cf565b611ea3565b90508281526020810184848401111561222d5761222c611e31565b5b612238848285611eed565b509392505050565b5f82601f83011261225457612253611e2d565b5b81356122648482602086016121ff565b91505092915050565b5f806040838503121561228357612282611d49565b5b5f612290858286016121bb565b925050602083013567ffffffffffffffff8111156122b1576122b0611d4d565b5b6122bd85828601612240565b9150509250929050565b5f602082840312156122dc576122db611d49565b5b5f6122e984828501611ddb565b91505092915050565b5f81519050919050565b5f82825260208201905092915050565b5f5b8381101561232957808201518184015260208101905061230e565b5f8484015250505050565b5f61233e826122f2565b61234881856122fc565b935061235881856020860161230c565b61236181611e35565b840191505092915050565b5f60a08201905061237f5f8301886120d4565b61238c6020830187612038565b6123996040830186612038565b81810360608301526123ab8185612334565b90506123ba6080830184612038565b9695505050505050565b5f805f805f8060c087890312156123de576123dd611d49565b5b5f6123eb89828a01611ff9565b96505060206123fc89828a01611ff9565b955050604061240d89828a01611ddb565b945050606061241e89828a01611ddb565b935050608087013567ffffffffffffffff81111561243f5761243e611d4d565b5b61244b89828a01611f3c565b92505060a061245c89828a01611ddb565b9150509295509295509295565b6124728161219c565b82525050565b5f60208201905061248b5f830184612469565b92915050565b5f805f805f805f60e0888a0312156124ac576124ab611d49565b5b5f6124b98a828b01611ff9565b97505060206124ca8a828b01611ff9565b96505060406124db8a828b01611ddb565b95505060606124ec8a828b01611ddb565b945050608088013567ffffffffffffffff81111561250d5761250c611d4d565b5b6125198a828b01611f3c565b93505060a061252a8a828b01611ddb565b92505060c088013567ffffffffffffffff81111561254b5761254a611d4d565b5b6125578a828b01612240565b91505092959891949750929550565b7f4f6e6c79206f776e65722063616e2063616c6c20746869732066756e6374696f5f8201527f6e00000000000000000000000000000000000000000000000000000000000000602082015250565b5f6125c06021836122fc565b91506125cb82612566565b604082019050919050565b5f6020820190508181035f8301526125ed816125b4565b9050919050565b7f496e76616c696420616d6f756e740000000000000000000000000000000000005f82015250565b5f612628600e836122fc565b9150612633826125f4565b602082019050919050565b5f6020820190508181035f8301526126558161261c565b9050919050565b5f60408201905061266f5f8301856120d4565b61267c6020830184612038565b9392505050565b61268c81611fb0565b8114612696575f80fd5b50565b5f815190506126a781612683565b92915050565b5f602082840312156126c2576126c1611d49565b5b5f6126cf84828501612699565b91505092915050565b7f546f6b656e207472616e73666572206661696c656400000000000000000000005f82015250565b5f61270c6015836122fc565b9150612717826126d8565b602082019050919050565b5f6020820190508181035f83015261273981612700565b9050919050565b5f60ff82169050919050565b61275581612740565b82525050565b5f60808201905061276e5f830187612469565b61277b602083018661274c565b6127886040830185612469565b6127956060830184612469565b95945050505050565b7f4e487b71000000000000000000000000000000000000000000000000000000005f52602260045260245ffd5b5f60028204905060018216806127e257607f821691505b6020821081036127f5576127f461279e565b5b50919050565b5f8160601b9050919050565b5f612811826127fb565b9050919050565b5f61282282612807565b9050919050565b61283a61283582611d70565b612818565b82525050565b5f819050919050565b61285a61285582611dbc565b612840565b82525050565b5f81905092915050565b5f612874826122f2565b61287e8185612860565b935061288e81856020860161230c565b80840191505092915050565b5f6128a58289612829565b6014820191506128b58288612829565b6014820191506128c58287612849565b6020820191506128d58286612849565b6020820191506128e5828561286a565b91506128f18284612849565b602082019150819050979650505050505050565b7f4f6e6c792063616c6c61626c65206279205472757374656420466f72776172645f8201527f6572000000000000000000000000000000000000000000000000000000000000602082015250565b5f61295f6022836122fc565b915061296a82612905565b604082019050919050565b5f6020820190508181035f83015261298c81612953565b9050919050565b7f43563a2066726f6d20746f20746865207a65726f2061646472657373000000005f82015250565b5f6129c7601c836122fc565b91506129d282612993565b602082019050919050565b5f6020820190508181035f8301526129f4816129bb565b9050919050565b7f43563a20696e76616c6964205f7369676e6174757265000000000000000000005f82015250565b5f612a2f6016836122fc565b9150612a3a826129fb565b602082019050919050565b5f6020820190508181035f830152612a5c81612a23565b9050919050565b7f757364742061646472657373206e6f7420636f6e6669670000000000000000005f82015250565b5f612a976017836122fc565b9150612aa282612a63565b602082019050919050565b5f6020820190508181035f830152612ac481612a8b565b9050919050565b7f757364632061646472657373206e6f7420636f6e6669670000000000000000005f82015250565b5f612aff6017836122fc565b9150612b0a82612acb565b602082019050919050565b5f6020820190508181035f830152612b2c81612af3565b9050919050565b7f6574682061646472657373206e6f7420636f6e666967000000000000000000005f82015250565b5f612b676016836122fc565b9150612b7282612b33565b602082019050919050565b5f6020820190508181035f830152612b9481612b5b565b9050919050565b7f756d692061646472657373206e6f7420636f6e666967000000000000000000005f82015250565b5f612bcf6016836122fc565b9150612bda82612b9b565b602082019050919050565b5f6020820190508181035f830152612bfc81612bc3565b9050919050565b5f819050815f5260205f209050919050565b5f6020601f8301049050919050565b5f82821b905092915050565b5f60088302612c5f7fffffffffffffffffffffffffffffffffffffffffffffffffffffffffffffffff82612c24565b612c698683612c24565b95508019841693508086168417925050509392505050565b5f612c9b612c96612c9184611dbc565b612060565b611dbc565b9050919050565b5f819050919050565b612cb483612c81565b612cc8612cc082612ca2565b848454612c30565b825550505050565b5f90565b612cdc612cd0565b612ce7818484612cab565b505050565b5b81811015612d0a57612cff5f82612cd4565b600181019050612ced565b5050565b601f821115612d4f57612d2081612c03565b612d2984612c15565b81016020851015612d38578190505b612d4c612d4485612c15565b830182612cec565b50505b505050565b5f82821c905092915050565b5f612d6f5f1984600802612d54565b1980831691505092915050565b5f612d878383612d60565b9150826002028217905092915050565b612da0826122f2565b67ffffffffffffffff811115612db957612db8611e45565b5b612dc382546127cb565b612dce828285612d0e565b5f60209050601f831160018114612dff575f8415612ded578287015190505b612df78582612d7c565b865550612e5e565b601f198416612e0d86612c03565b5f5b82811015612e3457848901518255600182019150602085019450602081019050612e0f565b86831015612e515784890151612e4d601f891682612d60565b8355505b6001600288020188555050505b505050505050565b7f4e487b71000000000000000000000000000000000000000000000000000000005f52601160045260245ffd5b5f612e9d82611dbc565b9150612ea883611dbc565b9250828201905080821115612ec057612ebf612e66565b5b92915050565b5f81519050919050565b5f82825260208201905092915050565b5f612eea82612ec6565b612ef48185612ed0565b9350612f0481856020860161230c565b612f0d81611e35565b840191505092915050565b5f608082019050612f2b5f830187612038565b612f386020830186612038565b8181036040830152612f4a8185612334565b90508181036060830152612f5e8184612ee0565b905095945050505050565b5f612f74828461286a565b915081905092915050565b7f696e76616c6964207369676e6174757265206c656e67746800000000000000005f82015250565b5f612fb36018836122fc565b9150612fbe82612f7f565b602082019050919050565b5f6020820190508181035f830152612fe081612fa7565b9050919050565b5f606082019050612ffa5f8301866120d4565b61300760208301856120d4565b6130146040830184612038565b949350505050565b5f61302682611dbc565b915061303183611dbc565b925082820390508181111561304957613048612e66565b5b92915050565b7f19457468657265756d205369676e6564204d6573736167653a0a3332000000005f82015250565b5f613083601c83612860565b915061308e8261304f565b601c82019050919050565b5f819050919050565b6130b36130ae8261219c565b613099565b82525050565b5f6130c382613077565b91506130cf82846130a2565b60208201915081905092915050565b5f6130e882611dbc565b91506130f383611dbc565b925082820261310181611dbc565b9150828204841483151761311857613117612e66565b5b5092915050565b7f4e487b71000000000000000000000000000000000000000000000000000000005f52601260045260245ffd5b5f61315682611dbc565b915061316183611dbc565b9250826131715761317061311f565b5b828204905092915050565b7f536166654d6174683a206d756c7469706c69636174696f6e206f766572666c6f5f8201527f7700000000000000000000000000000000000000000000000000000000000000602082015250565b5f6131d66021836122fc565b91506131e18261317c565b604082019050919050565b5f6020820190508181035f830152613203816131ca565b9050919050565b5f6020820190508181035f8301526132228184612334565b90509291505056fea2646970667358221220b23d4e68d5d3b53a7c90d1a18e2d244d5477b905496adb4981c24052517d677b64736f6c63430008140033",
					"opcodes": "PUSH1 0xA0 PUSH1 0x40 MSTORE PUSH2 0x1EA PUSH1 0x2 SSTORE PUSH1 0xD2 PUSH1 0x3 SSTORE PUSH2 0x12C PUSH1 0x4 SSTORE PUSH20 0x21B81F2CC97334031EFAFF3B93D8F846E02AD0BC PUSH1 0x7 PUSH0 PUSH2 0x100 EXP DUP2 SLOAD DUP2 PUSH20 0xFFFFFFFFFFFFFFFFFFFFFFFFFFFFFFFFFFFFFFFF MUL NOT AND SWAP1 DUP4 PUSH20 0xFFFFFFFFFFFFFFFFFFFFFFFFFFFFFFFFFFFFFFFF AND MUL OR SWAP1 SSTORE POP PUSH20 0x63EB5CCD29905BDEB83F1889C84D4BF884038D2F PUSH1 0x8 PUSH0 PUSH2 0x100 EXP DUP2 SLOAD DUP2 PUSH20 0xFFFFFFFFFFFFFFFFFFFFFFFFFFFFFFFFFFFFFFFF MUL NOT AND SWAP1 DUP4 PUSH20 0xFFFFFFFFFFFFFFFFFFFFFFFFFFFFFFFFFFFFFFFF AND MUL OR SWAP1 SSTORE POP PUSH0 PUSH1 0x9 PUSH0 PUSH2 0x100 EXP DUP2 SLOAD DUP2 PUSH20 0xFFFFFFFFFFFFFFFFFFFFFFFFFFFFFFFFFFFFFFFF MUL NOT AND SWAP1 DUP4 PUSH20 0xFFFFFFFFFFFFFFFFFFFFFFFFFFFFFFFFFFFFFFFF AND MUL OR SWAP1 SSTORE POP PUSH0 PUSH1 0xA PUSH0 PUSH2 0x100 EXP DUP2 SLOAD DUP2 PUSH20 0xFFFFFFFFFFFFFFFFFFFFFFFFFFFFFFFFFFFFFFFF MUL NOT AND SWAP1 DUP4 PUSH20 0xFFFFFFFFFFFFFFFFFFFFFFFFFFFFFFFFFFFFFFFF AND MUL OR SWAP1 SSTORE POP PUSH1 0x1 PUSH1 0xC SSTORE CALLVALUE DUP1 ISZERO PUSH3 0x14E JUMPI PUSH0 DUP1 REVERT JUMPDEST POP PUSH1 0x40 MLOAD PUSH3 0x3600 CODESIZE SUB DUP1 PUSH3 0x3600 DUP4 CODECOPY DUP2 DUP2 ADD PUSH1 0x40 MSTORE DUP2 ADD SWAP1 PUSH3 0x174 SWAP2 SWAP1 PUSH3 0x318 JUMP JUMPDEST DUP4 DUP1 PUSH20 0xFFFFFFFFFFFFFFFFFFFFFFFFFFFFFFFFFFFFFFFF AND PUSH1 0x80 DUP2 PUSH20 0xFFFFFFFFFFFFFFFFFFFFFFFFFFFFFFFFFFFFFFFF AND DUP2 MSTORE POP POP POP CALLER PUSH0 DUP1 PUSH2 0x100 EXP DUP2 SLOAD DUP2 PUSH20 0xFFFFFFFFFFFFFFFFFFFFFFFFFFFFFFFFFFFFFFFF MUL NOT AND SWAP1 DUP4 PUSH20 0xFFFFFFFFFFFFFFFFFFFFFFFFFFFFFFFFFFFFFFFF AND MUL OR SWAP1 SSTORE POP DUP3 PUSH1 0x6 PUSH0 PUSH2 0x100 EXP DUP2 SLOAD DUP2 PUSH20 0xFFFFFFFFFFFFFFFFFFFFFFFFFFFFFFFFFFFFFFFF MUL NOT AND SWAP1 DUP4 PUSH20 0xFFFFFFFFFFFFFFFFFFFFFFFFFFFFFFFFFFFFFFFF AND MUL OR SWAP1 SSTORE POP DUP2 PUSH1 0x5 PUSH0 PUSH2 0x100 EXP DUP2 SLOAD DUP2 PUSH20 0xFFFFFFFFFFFFFFFFFFFFFFFFFFFFFFFFFFFFFFFF MUL NOT AND SWAP1 DUP4 PUSH20 0xFFFFFFFFFFFFFFFFFFFFFFFFFFFFFFFFFFFFFFFF AND MUL OR SWAP1 SSTORE POP DUP1 PUSH1 0x1 PUSH0 PUSH2 0x100 EXP DUP2 SLOAD DUP2 PUSH20 0xFFFFFFFFFFFFFFFFFFFFFFFFFFFFFFFFFFFFFFFF MUL NOT AND SWAP1 DUP4 PUSH20 0xFFFFFFFFFFFFFFFFFFFFFFFFFFFFFFFFFFFFFFFF AND MUL OR SWAP1 SSTORE POP POP POP POP POP PUSH3 0x387 JUMP JUMPDEST PUSH0 DUP1 REVERT JUMPDEST PUSH0 PUSH20 0xFFFFFFFFFFFFFFFFFFFFFFFFFFFFFFFFFFFFFFFF DUP3 AND SWAP1 POP SWAP2 SWAP1 POP JUMP JUMPDEST PUSH0 PUSH3 0x2E2 DUP3 PUSH3 0x2B7 JUMP JUMPDEST SWAP1 POP SWAP2 SWAP1 POP JUMP JUMPDEST PUSH3 0x2F4 DUP2 PUSH3 0x2D6 JUMP JUMPDEST DUP2 EQ PUSH3 0x2FF JUMPI PUSH0 DUP1 REVERT JUMPDEST POP JUMP JUMPDEST PUSH0 DUP2 MLOAD SWAP1 POP PUSH3 0x312 DUP2 PUSH3 0x2E9 JUMP JUMPDEST SWAP3 SWAP2 POP POP JUMP JUMPDEST PUSH0 DUP1 PUSH0 DUP1 PUSH1 0x80 DUP6 DUP8 SUB SLT ISZERO PUSH3 0x333 JUMPI PUSH3 0x332 PUSH3 0x2B3 JUMP JUMPDEST JUMPDEST PUSH0 PUSH3 0x342 DUP8 DUP3 DUP9 ADD PUSH3 0x302 JUMP JUMPDEST SWAP5 POP POP PUSH1 0x20 PUSH3 0x355 DUP8 DUP3 DUP9 ADD PUSH3 0x302 JUMP JUMPDEST SWAP4 POP POP PUSH1 0x40 PUSH3 0x368 DUP8 DUP3 DUP9 ADD PUSH3 0x302 JUMP JUMPDEST SWAP3 POP POP PUSH1 0x60 PUSH3 0x37B DUP8 DUP3 DUP9 ADD PUSH3 0x302 JUMP JUMPDEST SWAP2 POP POP SWAP3 SWAP6 SWAP2 SWAP5 POP SWAP3 POP JUMP JUMPDEST PUSH1 0x80 MLOAD PUSH2 0x3260 PUSH3 0x3A0 PUSH0 CODECOPY PUSH0 PUSH2 0x941 ADD MSTORE PUSH2 0x3260 PUSH0 RETURN INVALID PUSH1 0x80 PUSH1 0x40 MSTORE CALLVALUE DUP1 ISZERO PUSH2 0xF JUMPI PUSH0 DUP1 REVERT JUMPDEST POP PUSH1 0x4 CALLDATASIZE LT PUSH2 0x171 JUMPI PUSH0 CALLDATALOAD PUSH1 0xE0 SHR DUP1 PUSH4 0x845A51EC GT PUSH2 0xDC JUMPI DUP1 PUSH4 0x9F2585A1 GT PUSH2 0x95 JUMPI DUP1 PUSH4 0xCB146879 GT PUSH2 0x6F JUMPI DUP1 PUSH4 0xCB146879 EQ PUSH2 0x43D JUMPI DUP1 PUSH4 0xD1FAF157 EQ PUSH2 0x459 JUMPI DUP1 PUSH4 0xD339DB94 EQ PUSH2 0x477 JUMPI DUP1 PUSH4 0xF746A042 EQ PUSH2 0x495 JUMPI PUSH2 0x171 JUMP JUMPDEST DUP1 PUSH4 0x9F2585A1 EQ PUSH2 0x3A9 JUMPI DUP1 PUSH4 0xA85C38EF EQ PUSH2 0x3D9 JUMPI DUP1 PUSH4 0xBBB99BAA EQ PUSH2 0x40D JUMPI PUSH2 0x171 JUMP JUMPDEST DUP1 PUSH4 0x845A51EC EQ PUSH2 0x2F9 JUMPI DUP1 PUSH4 0x87336111 EQ PUSH2 0x317 JUMPI DUP1 PUSH4 0x8B225F06 EQ PUSH2 0x333 JUMPI DUP1 PUSH4 0x8C7C9E0C EQ PUSH2 0x34F JUMPI DUP1 PUSH4 0x8DA5CB5B EQ PUSH2 0x36D JUMPI DUP1 PUSH4 0x94DD453A EQ PUSH2 0x38B JUMPI PUSH2 0x171 JUMP JUMPDEST DUP1 PUSH4 0x3E413BEE GT PUSH2 0x12E JUMPI DUP1 PUSH4 0x3E413BEE EQ PUSH2 0x237 JUMPI DUP1 PUSH4 0x41275358 EQ PUSH2 0x255 JUMPI DUP1 PUSH4 0x572B6C05 EQ PUSH2 0x273 JUMPI DUP1 PUSH4 0x58979BFE EQ PUSH2 0x2A3 JUMPI DUP1 PUSH4 0x5B65B9AB EQ PUSH2 0x2BF JUMPI DUP1 PUSH4 0x5B7633D0 EQ PUSH2 0x2DB JUMPI PUSH2 0x171 JUMP JUMPDEST DUP1 PUSH4 0x6B091F9 EQ PUSH2 0x175 JUMPI DUP1 PUSH4 0xD3652EC EQ PUSH2 0x191 JUMPI DUP1 PUSH4 0x122C6FD7 EQ PUSH2 0x1C1 JUMPI DUP1 PUSH4 0x14754E66 EQ PUSH2 0x1DD JUMPI DUP1 PUSH4 0x2A58B330 EQ PUSH2 0x1FB JUMPI DUP1 PUSH4 0x2F48AB7D EQ PUSH2 0x219 JUMPI JUMPDEST PUSH0 DUP1 REVERT JUMPDEST PUSH2 0x18F PUSH1 0x4 DUP1 CALLDATASIZE SUB DUP2 ADD SWAP1 PUSH2 0x18A SWAP2 SWAP1 PUSH2 0x1DEF JUMP JUMPDEST PUSH2 0x4B1 JUMP JUMPDEST STOP JUMPDEST PUSH2 0x1AB PUSH1 0x4 DUP1 CALLDATASIZE SUB DUP2 ADD SWAP1 PUSH2 0x1A6 SWAP2 SWAP1 PUSH2 0x1F69 JUMP JUMPDEST PUSH2 0x694 JUMP JUMPDEST PUSH1 0x40 MLOAD PUSH2 0x1B8 SWAP2 SWAP1 PUSH2 0x1FCA JUMP JUMPDEST PUSH1 0x40 MLOAD DUP1 SWAP2 SUB SWAP1 RETURN JUMPDEST PUSH2 0x1DB PUSH1 0x4 DUP1 CALLDATASIZE SUB DUP2 ADD SWAP1 PUSH2 0x1D6 SWAP2 SWAP1 PUSH2 0x200D JUMP JUMPDEST PUSH2 0x7F3 JUMP JUMPDEST STOP JUMPDEST PUSH2 0x1E5 PUSH2 0x8C3 JUMP JUMPDEST PUSH1 0x40 MLOAD PUSH2 0x1F2 SWAP2 SWAP1 PUSH2 0x2047 JUMP JUMPDEST PUSH1 0x40 MLOAD DUP1 SWAP2 SUB SWAP1 RETURN JUMPDEST PUSH2 0x203 PUSH2 0x8C9 JUMP JUMPDEST PUSH1 0x40 MLOAD PUSH2 0x210 SWAP2 SWAP1 PUSH2 0x2047 JUMP JUMPDEST PUSH1 0x40 MLOAD DUP1 SWAP2 SUB SWAP1 RETURN JUMPDEST PUSH2 0x221 PUSH2 0x8CF JUMP JUMPDEST PUSH1 0x40 MLOAD PUSH2 0x22E SWAP2 SWAP1 PUSH2 0x20BB JUMP JUMPDEST PUSH1 0x40 MLOAD DUP1 SWAP2 SUB SWAP1 RETURN JUMPDEST PUSH2 0x23F PUSH2 0x8F4 JUMP JUMPDEST PUSH1 0x40 MLOAD PUSH2 0x24C SWAP2 SWAP1 PUSH2 0x20BB JUMP JUMPDEST PUSH1 0x40 MLOAD DUP1 SWAP2 SUB SWAP1 RETURN JUMPDEST PUSH2 0x25D PUSH2 0x919 JUMP JUMPDEST PUSH1 0x40 MLOAD PUSH2 0x26A SWAP2 SWAP1 PUSH2 0x20E3 JUMP JUMPDEST PUSH1 0x40 MLOAD DUP1 SWAP2 SUB SWAP1 RETURN JUMPDEST PUSH2 0x28D PUSH1 0x4 DUP1 CALLDATASIZE SUB DUP2 ADD SWAP1 PUSH2 0x288 SWAP2 SWAP1 PUSH2 0x200D JUMP JUMPDEST PUSH2 0x93E JUMP JUMPDEST PUSH1 0x40 MLOAD PUSH2 0x29A SWAP2 SWAP1 PUSH2 0x1FCA JUMP JUMPDEST PUSH1 0x40 MLOAD DUP1 SWAP2 SUB SWAP1 RETURN JUMPDEST PUSH2 0x2BD PUSH1 0x4 DUP1 CALLDATASIZE SUB DUP2 ADD SWAP1 PUSH2 0x2B8 SWAP2 SWAP1 PUSH2 0x200D JUMP JUMPDEST PUSH2 0x995 JUMP JUMPDEST STOP JUMPDEST PUSH2 0x2D9 PUSH1 0x4 DUP1 CALLDATASIZE SUB DUP2 ADD SWAP1 PUSH2 0x2D4 SWAP2 SWAP1 PUSH2 0x20FC JUMP JUMPDEST PUSH2 0xA65 JUMP JUMPDEST STOP JUMPDEST PUSH2 0x2E3 PUSH2 0xB0C JUMP JUMPDEST PUSH1 0x40 MLOAD PUSH2 0x2F0 SWAP2 SWAP1 PUSH2 0x20E3 JUMP JUMPDEST PUSH1 0x40 MLOAD DUP1 SWAP2 SUB SWAP1 RETURN JUMPDEST PUSH2 0x301 PUSH2 0xB31 JUMP JUMPDEST PUSH1 0x40 MLOAD PUSH2 0x30E SWAP2 SWAP1 PUSH2 0x20E3 JUMP JUMPDEST PUSH1 0x40 MLOAD DUP1 SWAP2 SUB SWAP1 RETURN JUMPDEST PUSH2 0x331 PUSH1 0x4 DUP1 CALLDATASIZE SUB DUP2 ADD SWAP1 PUSH2 0x32C SWAP2 SWAP1 PUSH2 0x214C JUMP JUMPDEST PUSH2 0xB56 JUMP JUMPDEST STOP JUMPDEST PUSH2 0x34D PUSH1 0x4 DUP1 CALLDATASIZE SUB DUP2 ADD SWAP1 PUSH2 0x348 SWAP2 SWAP1 PUSH2 0x200D JUMP JUMPDEST PUSH2 0xCA8 JUMP JUMPDEST STOP JUMPDEST PUSH2 0x357 PUSH2 0xD78 JUMP JUMPDEST PUSH1 0x40 MLOAD PUSH2 0x364 SWAP2 SWAP1 PUSH2 0x20BB JUMP JUMPDEST PUSH1 0x40 MLOAD DUP1 SWAP2 SUB SWAP1 RETURN JUMPDEST PUSH2 0x375 PUSH2 0xD9D JUMP JUMPDEST PUSH1 0x40 MLOAD PUSH2 0x382 SWAP2 SWAP1 PUSH2 0x20E3 JUMP JUMPDEST PUSH1 0x40 MLOAD DUP1 SWAP2 SUB SWAP1 RETURN JUMPDEST PUSH2 0x393 PUSH2 0xDC0 JUMP JUMPDEST PUSH1 0x40 MLOAD PUSH2 0x3A0 SWAP2 SWAP1 PUSH2 0x20BB JUMP JUMPDEST PUSH1 0x40 MLOAD DUP1 SWAP2 SUB SWAP1 RETURN JUMPDEST PUSH2 0x3C3 PUSH1 0x4 DUP1 CALLDATASIZE SUB DUP2 ADD SWAP1 PUSH2 0x3BE SWAP2 SWAP1 PUSH2 0x226D JUMP JUMPDEST PUSH2 0xDE5 JUMP JUMPDEST PUSH1 0x40 MLOAD PUSH2 0x3D0 SWAP2 SWAP1 PUSH2 0x20E3 JUMP JUMPDEST PUSH1 0x40 MLOAD DUP1 SWAP2 SUB SWAP1 RETURN JUMPDEST PUSH2 0x3F3 PUSH1 0x4 DUP1 CALLDATASIZE SUB DUP2 ADD SWAP1 PUSH2 0x3EE SWAP2 SWAP1 PUSH2 0x22C7 JUMP JUMPDEST PUSH2 0xE4F JUMP JUMPDEST PUSH1 0x40 MLOAD PUSH2 0x404 SWAP6 SWAP5 SWAP4 SWAP3 SWAP2 SWAP1 PUSH2 0x236C JUMP JUMPDEST PUSH1 0x40 MLOAD DUP1 SWAP2 SUB SWAP1 RETURN JUMPDEST PUSH2 0x427 PUSH1 0x4 DUP1 CALLDATASIZE SUB DUP2 ADD SWAP1 PUSH2 0x422 SWAP2 SWAP1 PUSH2 0x23C4 JUMP JUMPDEST PUSH2 0xF26 JUMP JUMPDEST PUSH1 0x40 MLOAD PUSH2 0x434 SWAP2 SWAP1 PUSH2 0x2478 JUMP JUMPDEST PUSH1 0x40 MLOAD DUP1 SWAP2 SUB SWAP1 RETURN JUMPDEST PUSH2 0x457 PUSH1 0x4 DUP1 CALLDATASIZE SUB DUP2 ADD SWAP1 PUSH2 0x452 SWAP2 SWAP1 PUSH2 0x200D JUMP JUMPDEST PUSH2 0xF64 JUMP JUMPDEST STOP JUMPDEST PUSH2 0x461 PUSH2 0x1034 JUMP JUMPDEST PUSH1 0x40 MLOAD PUSH2 0x46E SWAP2 SWAP1 PUSH2 0x2047 JUMP JUMPDEST PUSH1 0x40 MLOAD DUP1 SWAP2 SUB SWAP1 RETURN JUMPDEST PUSH2 0x47F PUSH2 0x103A JUMP JUMPDEST PUSH1 0x40 MLOAD PUSH2 0x48C SWAP2 SWAP1 PUSH2 0x2047 JUMP JUMPDEST PUSH1 0x40 MLOAD DUP1 SWAP2 SUB SWAP1 RETURN JUMPDEST PUSH2 0x4AF PUSH1 0x4 DUP1 CALLDATASIZE SUB DUP2 ADD SWAP1 PUSH2 0x4AA SWAP2 SWAP1 PUSH2 0x2491 JUMP JUMPDEST PUSH2 0x1040 JUMP JUMPDEST STOP JUMPDEST PUSH0 DUP1 SLOAD SWAP1 PUSH2 0x100 EXP SWAP1 DIV PUSH20 0xFFFFFFFFFFFFFFFFFFFFFFFFFFFFFFFFFFFFFFFF AND PUSH20 0xFFFFFFFFFFFFFFFFFFFFFFFFFFFFFFFFFFFFFFFF AND CALLER PUSH20 0xFFFFFFFFFFFFFFFFFFFFFFFFFFFFFFFFFFFFFFFF AND EQ PUSH2 0x53E JUMPI PUSH1 0x40 MLOAD PUSH32 0x8C379A000000000000000000000000000000000000000000000000000000000 DUP2 MSTORE PUSH1 0x4 ADD PUSH2 0x535 SWAP1 PUSH2 0x25D6 JUMP JUMPDEST PUSH1 0x40 MLOAD DUP1 SWAP2 SUB SWAP1 REVERT JUMPDEST PUSH0 DUP2 GT PUSH2 0x580 JUMPI PUSH1 0x40 MLOAD PUSH32 0x8C379A000000000000000000000000000000000000000000000000000000000 DUP2 MSTORE PUSH1 0x4 ADD PUSH2 0x577 SWAP1 PUSH2 0x263E JUMP JUMPDEST PUSH1 0x40 MLOAD DUP1 SWAP2 SUB SWAP1 REVERT JUMPDEST DUP2 PUSH20 0xFFFFFFFFFFFFFFFFFFFFFFFFFFFFFFFFFFFFFFFF AND PUSH4 0xA9059CBB PUSH0 DUP1 SLOAD SWAP1 PUSH2 0x100 EXP SWAP1 DIV PUSH20 0xFFFFFFFFFFFFFFFFFFFFFFFFFFFFFFFFFFFFFFFF AND DUP4 PUSH1 0x40 MLOAD DUP4 PUSH4 0xFFFFFFFF AND PUSH1 0xE0 SHL DUP2 MSTORE PUSH1 0x4 ADD PUSH2 0x5DA SWAP3 SWAP2 SWAP1 PUSH2 0x265C JUMP JUMPDEST PUSH1 0x20 PUSH1 0x40 MLOAD DUP1 DUP4 SUB DUP2 PUSH0 DUP8 GAS CALL ISZERO DUP1 ISZERO PUSH2 0x5F6 JUMPI RETURNDATASIZE PUSH0 DUP1 RETURNDATACOPY RETURNDATASIZE PUSH0 REVERT JUMPDEST POP POP POP POP PUSH1 0x40 MLOAD RETURNDATASIZE PUSH1 0x1F NOT PUSH1 0x1F DUP3 ADD AND DUP3 ADD DUP1 PUSH1 0x40 MSTORE POP DUP2 ADD SWAP1 PUSH2 0x61A SWAP2 SWAP1 PUSH2 0x26AD JUMP JUMPDEST PUSH2 0x659 JUMPI PUSH1 0x40 MLOAD PUSH32 0x8C379A000000000000000000000000000000000000000000000000000000000 DUP2 MSTORE PUSH1 0x4 ADD PUSH2 0x650 SWAP1 PUSH2 0x2722 JUMP JUMPDEST PUSH1 0x40 MLOAD DUP1 SWAP2 SUB SWAP1 REVERT JUMPDEST PUSH32 0x9C6393F251205F9E03559951CAB4C9AE71767B6174F77944A5B0C2FA51FBDA9F DUP2 PUSH1 0x40 MLOAD PUSH2 0x688 SWAP2 SWAP1 PUSH2 0x2047 JUMP JUMPDEST PUSH1 0x40 MLOAD DUP1 SWAP2 SUB SWAP1 LOG1 POP POP JUMP JUMPDEST PUSH0 PUSH2 0x6D4 DUP3 PUSH1 0x40 MLOAD DUP1 PUSH1 0x40 ADD PUSH1 0x40 MSTORE DUP1 PUSH1 0x4 DUP2 MSTORE PUSH1 0x20 ADD PUSH32 0x7573647400000000000000000000000000000000000000000000000000000000 DUP2 MSTORE POP PUSH2 0x16BC JUMP JUMPDEST DUP1 PUSH2 0x71A JUMPI POP PUSH2 0x719 DUP3 PUSH1 0x40 MLOAD DUP1 PUSH1 0x40 ADD PUSH1 0x40 MSTORE DUP1 PUSH1 0x4 DUP2 MSTORE PUSH1 0x20 ADD PUSH32 0x7573646300000000000000000000000000000000000000000000000000000000 DUP2 MSTORE POP PUSH2 0x16BC JUMP JUMPDEST JUMPDEST DUP1 PUSH2 0x760 JUMPI POP PUSH2 0x75F DUP3 PUSH1 0x40 MLOAD DUP1 PUSH1 0x40 ADD PUSH1 0x40 MSTORE DUP1 PUSH1 0x3 DUP2 MSTORE PUSH1 0x20 ADD PUSH32 0x756D690000000000000000000000000000000000000000000000000000000000 DUP2 MSTORE POP PUSH2 0x16BC JUMP JUMPDEST JUMPDEST DUP1 PUSH2 0x7A6 JUMPI POP PUSH2 0x7A5 DUP3 PUSH1 0x40 MLOAD DUP1 PUSH1 0x40 ADD PUSH1 0x40 MSTORE DUP1 PUSH1 0x9 DUP2 MSTORE PUSH1 0x20 ADD PUSH32 0x64697665706F696E740000000000000000000000000000000000000000000000 DUP2 MSTORE POP PUSH2 0x16BC JUMP JUMPDEST JUMPDEST DUP1 PUSH2 0x7EC JUMPI POP PUSH2 0x7EB DUP3 PUSH1 0x40 MLOAD DUP1 PUSH1 0x40 ADD PUSH1 0x40 MSTORE DUP1 PUSH1 0x3 DUP2 MSTORE PUSH1 0x20 ADD PUSH32 0x6574680000000000000000000000000000000000000000000000000000000000 DUP2 MSTORE POP PUSH2 0x16BC JUMP JUMPDEST JUMPDEST SWAP1 POP SWAP2 SWAP1 POP JUMP JUMPDEST PUSH0 DUP1 SLOAD SWAP1 PUSH2 0x100 EXP SWAP1 DIV PUSH20 0xFFFFFFFFFFFFFFFFFFFFFFFFFFFFFFFFFFFFFFFF AND PUSH20 0xFFFFFFFFFFFFFFFFFFFFFFFFFFFFFFFFFFFFFFFF AND CALLER PUSH20 0xFFFFFFFFFFFFFFFFFFFFFFFFFFFFFFFFFFFFFFFF AND EQ PUSH2 0x880 JUMPI PUSH1 0x40 MLOAD PUSH32 0x8C379A000000000000000000000000000000000000000000000000000000000 DUP2 MSTORE PUSH1 0x4 ADD PUSH2 0x877 SWAP1 PUSH2 0x25D6 JUMP JUMPDEST PUSH1 0x40 MLOAD DUP1 SWAP2 SUB SWAP1 REVERT JUMPDEST DUP1 PUSH1 0xA PUSH0 PUSH2 0x100 EXP DUP2 SLOAD DUP2 PUSH20 0xFFFFFFFFFFFFFFFFFFFFFFFFFFFFFFFFFFFFFFFF MUL NOT AND SWAP1 DUP4 PUSH20 0xFFFFFFFFFFFFFFFFFFFFFFFFFFFFFFFFFFFFFFFF AND MUL OR SWAP1 SSTORE POP POP JUMP JUMPDEST PUSH1 0x4 SLOAD DUP2 JUMP JUMPDEST PUSH1 0xC SLOAD DUP2 JUMP JUMPDEST PUSH1 0x7 PUSH0 SWAP1 SLOAD SWAP1 PUSH2 0x100 EXP SWAP1 DIV PUSH20 0xFFFFFFFFFFFFFFFFFFFFFFFFFFFFFFFFFFFFFFFF AND DUP2 JUMP JUMPDEST PUSH1 0x8 PUSH0 SWAP1 SLOAD SWAP1 PUSH2 0x100 EXP SWAP1 DIV PUSH20 0xFFFFFFFFFFFFFFFFFFFFFFFFFFFFFFFFFFFFFFFF AND DUP2 JUMP JUMPDEST PUSH1 0x5 PUSH0 SWAP1 SLOAD SWAP1 PUSH2 0x100 EXP SWAP1 DIV PUSH20 0xFFFFFFFFFFFFFFFFFFFFFFFFFFFFFFFFFFFFFFFF AND DUP2 JUMP JUMPDEST PUSH0 PUSH32 0x0 PUSH20 0xFFFFFFFFFFFFFFFFFFFFFFFFFFFFFFFFFFFFFFFF AND DUP3 PUSH20 0xFFFFFFFFFFFFFFFFFFFFFFFFFFFFFFFFFFFFFFFF AND EQ SWAP1 POP SWAP2 SWAP1 POP JUMP JUMPDEST PUSH0 DUP1 SLOAD SWAP1 PUSH2 0x100 EXP SWAP1 DIV PUSH20 0xFFFFFFFFFFFFFFFFFFFFFFFFFFFFFFFFFFFFFFFF AND PUSH20 0xFFFFFFFFFFFFFFFFFFFFFFFFFFFFFFFFFFFFFFFF AND CALLER PUSH20 0xFFFFFFFFFFFFFFFFFFFFFFFFFFFFFFFFFFFFFFFF AND EQ PUSH2 0xA22 JUMPI PUSH1 0x40 MLOAD PUSH32 0x8C379A000000000000000000000000000000000000000000000000000000000 DUP2 MSTORE PUSH1 0x4 ADD PUSH2 0xA19 SWAP1 PUSH2 0x25D6 JUMP JUMPDEST PUSH1 0x40 MLOAD DUP1 SWAP2 SUB SWAP1 REVERT JUMPDEST DUP1 PUSH1 0x7 PUSH0 PUSH2 0x100 EXP DUP2 SLOAD DUP2 PUSH20 0xFFFFFFFFFFFFFFFFFFFFFFFFFFFFFFFFFFFFFFFF MUL NOT AND SWAP1 DUP4 PUSH20 0xFFFFFFFFFFFFFFFFFFFFFFFFFFFFFFFFFFFFFFFF AND MUL OR SWAP1 SSTORE POP POP JUMP JUMPDEST PUSH0 DUP1 SLOAD SWAP1 PUSH2 0x100 EXP SWAP1 DIV PUSH20 0xFFFFFFFFFFFFFFFFFFFFFFFFFFFFFFFFFFFFFFFF AND PUSH20 0xFFFFFFFFFFFFFFFFFFFFFFFFFFFFFFFFFFFFFFFF AND CALLER PUSH20 0xFFFFFFFFFFFFFFFFFFFFFFFFFFFFFFFFFFFFFFFF AND EQ PUSH2 0xAF2 JUMPI PUSH1 0x40 MLOAD PUSH32 0x8C379A000000000000000000000000000000000000000000000000000000000 DUP2 MSTORE PUSH1 0x4 ADD PUSH2 0xAE9 SWAP1 PUSH2 0x25D6 JUMP JUMPDEST PUSH1 0x40 MLOAD DUP1 SWAP2 SUB SWAP1 REVERT JUMPDEST DUP3 PUSH1 0x2 DUP2 SWAP1 SSTORE POP DUP2 PUSH1 0x3 DUP2 SWAP1 SSTORE POP DUP1 PUSH1 0x4 DUP2 SWAP1 SSTORE POP POP POP POP JUMP JUMPDEST PUSH1 0x1 PUSH0 SWAP1 SLOAD SWAP1 PUSH2 0x100 EXP SWAP1 DIV PUSH20 0xFFFFFFFFFFFFFFFFFFFFFFFFFFFFFFFFFFFFFFFF AND DUP2 JUMP JUMPDEST PUSH1 0x6 PUSH0 SWAP1 SLOAD SWAP1 PUSH2 0x100 EXP SWAP1 DIV PUSH20 0xFFFFFFFFFFFFFFFFFFFFFFFFFFFFFFFFFFFFFFFF AND DUP2 JUMP JUMPDEST PUSH0 DUP1 SLOAD SWAP1 PUSH2 0x100 EXP SWAP1 DIV PUSH20 0xFFFFFFFFFFFFFFFFFFFFFFFFFFFFFFFFFFFFFFFF AND PUSH20 0xFFFFFFFFFFFFFFFFFFFFFFFFFFFFFFFFFFFFFFFF AND CALLER PUSH20 0xFFFFFFFFFFFFFFFFFFFFFFFFFFFFFFFFFFFFFFFF AND EQ PUSH2 0xBE3 JUMPI PUSH1 0x40 MLOAD PUSH32 0x8C379A000000000000000000000000000000000000000000000000000000000 DUP2 MSTORE PUSH1 0x4 ADD PUSH2 0xBDA SWAP1 PUSH2 0x25D6 JUMP JUMPDEST PUSH1 0x40 MLOAD DUP1 SWAP2 SUB SWAP1 REVERT JUMPDEST DUP3 PUSH1 0x5 PUSH0 PUSH2 0x100 EXP DUP2 SLOAD DUP2 PUSH20 0xFFFFFFFFFFFFFFFFFFFFFFFFFFFFFFFFFFFFFFFF MUL NOT AND SWAP1 DUP4 PUSH20 0xFFFFFFFFFFFFFFFFFFFFFFFFFFFFFFFFFFFFFFFF AND MUL OR SWAP1 SSTORE POP DUP2 PUSH1 0x6 PUSH0 PUSH2 0x100 EXP DUP2 SLOAD DUP2 PUSH20 0xFFFFFFFFFFFFFFFFFFFFFFFFFFFFFFFFFFFFFFFF MUL NOT AND SWAP1 DUP4 PUSH20 0xFFFFFFFFFFFFFFFFFFFFFFFFFFFFFFFFFFFFFFFF AND MUL OR SWAP1 SSTORE POP DUP1 PUSH1 0x1 PUSH0 PUSH2 0x100 EXP DUP2 SLOAD DUP2 PUSH20 0xFFFFFFFFFFFFFFFFFFFFFFFFFFFFFFFFFFFFFFFF MUL NOT AND SWAP1 DUP4 PUSH20 0xFFFFFFFFFFFFFFFFFFFFFFFFFFFFFFFFFFFFFFFF AND MUL OR SWAP1 SSTORE POP POP POP POP JUMP JUMPDEST PUSH0 DUP1 SLOAD SWAP1 PUSH2 0x100 EXP SWAP1 DIV PUSH20 0xFFFFFFFFFFFFFFFFFFFFFFFFFFFFFFFFFFFFFFFF AND PUSH20 0xFFFFFFFFFFFFFFFFFFFFFFFFFFFFFFFFFFFFFFFF AND CALLER PUSH20 0xFFFFFFFFFFFFFFFFFFFFFFFFFFFFFFFFFFFFFFFF AND EQ PUSH2 0xD35 JUMPI PUSH1 0x40 MLOAD PUSH32 0x8C379A000000000000000000000000000000000000000000000000000000000 DUP2 MSTORE PUSH1 0x4 ADD PUSH2 0xD2C SWAP1 PUSH2 0x25D6 JUMP JUMPDEST PUSH1 0x40 MLOAD DUP1 SWAP2 SUB SWAP1 REVERT JUMPDEST DUP1 PUSH1 0x9 PUSH0 PUSH2 0x100 EXP DUP2 SLOAD DUP2 PUSH20 0xFFFFFFFFFFFFFFFFFFFFFFFFFFFFFFFFFFFFFFFF MUL NOT AND SWAP1 DUP4 PUSH20 0xFFFFFFFFFFFFFFFFFFFFFFFFFFFFFFFFFFFFFFFF AND MUL OR SWAP1 SSTORE POP POP JUMP JUMPDEST PUSH1 0xA PUSH0 SWAP1 SLOAD SWAP1 PUSH2 0x100 EXP SWAP1 DIV PUSH20 0xFFFFFFFFFFFFFFFFFFFFFFFFFFFFFFFFFFFFFFFF AND DUP2 JUMP JUMPDEST PUSH0 DUP1 SLOAD SWAP1 PUSH2 0x100 EXP SWAP1 DIV PUSH20 0xFFFFFFFFFFFFFFFFFFFFFFFFFFFFFFFFFFFFFFFF AND DUP2 JUMP JUMPDEST PUSH1 0x9 PUSH0 SWAP1 SLOAD SWAP1 PUSH2 0x100 EXP SWAP1 DIV PUSH20 0xFFFFFFFFFFFFFFFFFFFFFFFFFFFFFFFFFFFFFFFF AND DUP2 JUMP JUMPDEST PUSH0 DUP1 PUSH0 DUP1 PUSH2 0xDF2 DUP6 PUSH2 0x1714 JUMP JUMPDEST SWAP3 POP SWAP3 POP SWAP3 POP PUSH1 0x1 DUP7 DUP3 DUP6 DUP6 PUSH1 0x40 MLOAD PUSH0 DUP2 MSTORE PUSH1 0x20 ADD PUSH1 0x40 MSTORE PUSH1 0x40 MLOAD PUSH2 0xE1A SWAP5 SWAP4 SWAP3 SWAP2 SWAP1 PUSH2 0x275B JUMP JUMPDEST PUSH1 0x20 PUSH1 0x40 MLOAD PUSH1 0x20 DUP2 SUB SWAP1 DUP1 DUP5 SUB SWAP1 DUP6 GAS STATICCALL ISZERO DUP1 ISZERO PUSH2 0xE3A JUMPI RETURNDATASIZE PUSH0 DUP1 RETURNDATACOPY RETURNDATASIZE PUSH0 REVERT JUMPDEST POP POP POP PUSH1 0x20 PUSH1 0x40 MLOAD SUB MLOAD SWAP4 POP POP POP POP SWAP3 SWAP2 POP POP JUMP JUMPDEST PUSH1 0xB PUSH1 0x20 MSTORE DUP1 PUSH0 MSTORE PUSH1 0x40 PUSH0 KECCAK256 PUSH0 SWAP2 POP SWAP1 POP DUP1 PUSH0 ADD PUSH0 SWAP1 SLOAD SWAP1 PUSH2 0x100 EXP SWAP1 DIV PUSH20 0xFFFFFFFFFFFFFFFFFFFFFFFFFFFFFFFFFFFFFFFF AND SWAP1 DUP1 PUSH1 0x1 ADD SLOAD SWAP1 DUP1 PUSH1 0x2 ADD SLOAD SWAP1 DUP1 PUSH1 0x3 ADD DUP1 SLOAD PUSH2 0xE9F SWAP1 PUSH2 0x27CB JUMP JUMPDEST DUP1 PUSH1 0x1F ADD PUSH1 0x20 DUP1 SWAP2 DIV MUL PUSH1 0x20 ADD PUSH1 0x40 MLOAD SWAP1 DUP2 ADD PUSH1 0x40 MSTORE DUP1 SWAP3 SWAP2 SWAP1 DUP2 DUP2 MSTORE PUSH1 0x20 ADD DUP3 DUP1 SLOAD PUSH2 0xECB SWAP1 PUSH2 0x27CB JUMP JUMPDEST DUP1 ISZERO PUSH2 0xF16 JUMPI DUP1 PUSH1 0x1F LT PUSH2 0xEED JUMPI PUSH2 0x100 DUP1 DUP4 SLOAD DIV MUL DUP4 MSTORE SWAP2 PUSH1 0x20 ADD SWAP2 PUSH2 0xF16 JUMP JUMPDEST DUP3 ADD SWAP2 SWAP1 PUSH0 MSTORE PUSH1 0x20 PUSH0 KECCAK256 SWAP1 JUMPDEST DUP2 SLOAD DUP2 MSTORE SWAP1 PUSH1 0x1 ADD SWAP1 PUSH1 0x20 ADD DUP1 DUP4 GT PUSH2 0xEF9 JUMPI DUP3 SWAP1 SUB PUSH1 0x1F AND DUP3 ADD SWAP2 JUMPDEST POP POP POP POP POP SWAP1 DUP1 PUSH1 0x4 ADD SLOAD SWAP1 POP DUP6 JUMP JUMPDEST PUSH0 DUP7 DUP7 DUP7 DUP7 DUP7 DUP7 PUSH1 0x40 MLOAD PUSH1 0x20 ADD PUSH2 0xF42 SWAP7 SWAP6 SWAP5 SWAP4 SWAP3 SWAP2 SWAP1 PUSH2 0x289A JUMP JUMPDEST PUSH1 0x40 MLOAD PUSH1 0x20 DUP2 DUP4 SUB SUB DUP2 MSTORE SWAP1 PUSH1 0x40 MSTORE DUP1 MLOAD SWAP1 PUSH1 0x20 ADD KECCAK256 SWAP1 POP SWAP7 SWAP6 POP POP POP POP POP POP JUMP JUMPDEST PUSH0 DUP1 SLOAD SWAP1 PUSH2 0x100 EXP SWAP1 DIV PUSH20 0xFFFFFFFFFFFFFFFFFFFFFFFFFFFFFFFFFFFFFFFF AND PUSH20 0xFFFFFFFFFFFFFFFFFFFFFFFFFFFFFFFFFFFFFFFF AND CALLER PUSH20 0xFFFFFFFFFFFFFFFFFFFFFFFFFFFFFFFFFFFFFFFF AND EQ PUSH2 0xFF1 JUMPI PUSH1 0x40 MLOAD PUSH32 0x8C379A000000000000000000000000000000000000000000000000000000000 DUP2 MSTORE PUSH1 0x4 ADD PUSH2 0xFE8 SWAP1 PUSH2 0x25D6 JUMP JUMPDEST PUSH1 0x40 MLOAD DUP1 SWAP2 SUB SWAP1 REVERT JUMPDEST DUP1 PUSH1 0x8 PUSH0 PUSH2 0x100 EXP DUP2 SLOAD DUP2 PUSH20 0xFFFFFFFFFFFFFFFFFFFFFFFFFFFFFFFFFFFFFFFF MUL NOT AND SWAP1 DUP4 PUSH20 0xFFFFFFFFFFFFFFFFFFFFFFFFFFFFFFFFFFFFFFFF AND MUL OR SWAP1 SSTORE POP POP JUMP JUMPDEST PUSH1 0x2 SLOAD DUP2 JUMP JUMPDEST PUSH1 0x3 SLOAD DUP2 JUMP JUMPDEST PUSH2 0x1049 CALLER PUSH2 0x93E JUMP JUMPDEST PUSH2 0x1088 JUMPI PUSH1 0x40 MLOAD PUSH32 0x8C379A000000000000000000000000000000000000000000000000000000000 DUP2 MSTORE PUSH1 0x4 ADD PUSH2 0x107F SWAP1 PUSH2 0x2975 JUMP JUMPDEST PUSH1 0x40 MLOAD DUP1 SWAP2 SUB SWAP1 REVERT JUMPDEST PUSH0 DUP5 GT PUSH2 0x10CA JUMPI PUSH1 0x40 MLOAD PUSH32 0x8C379A000000000000000000000000000000000000000000000000000000000 DUP2 MSTORE PUSH1 0x4 ADD PUSH2 0x10C1 SWAP1 PUSH2 0x263E JUMP JUMPDEST PUSH1 0x40 MLOAD DUP1 SWAP2 SUB SWAP1 REVERT JUMPDEST PUSH0 PUSH20 0xFFFFFFFFFFFFFFFFFFFFFFFFFFFFFFFFFFFFFFFF AND DUP8 PUSH20 0xFFFFFFFFFFFFFFFFFFFFFFFFFFFFFFFFFFFFFFFF AND SUB PUSH2 0x1138 JUMPI PUSH1 0x40 MLOAD PUSH32 0x8C379A000000000000000000000000000000000000000000000000000000000 DUP2 MSTORE PUSH1 0x4 ADD PUSH2 0x112F SWAP1 PUSH2 0x29DD JUMP JUMPDEST PUSH1 0x40 MLOAD DUP1 SWAP2 SUB SWAP1 REVERT JUMPDEST PUSH2 0x1147 DUP8 DUP8 DUP8 DUP8 DUP8 DUP8 DUP8 PUSH2 0x1779 JUMP JUMPDEST PUSH2 0x1186 JUMPI PUSH1 0x40 MLOAD PUSH32 0x8C379A000000000000000000000000000000000000000000000000000000000 DUP2 MSTORE PUSH1 0x4 ADD PUSH2 0x117D SWAP1 PUSH2 0x2A45 JUMP JUMPDEST PUSH1 0x40 MLOAD DUP1 SWAP2 SUB SWAP1 REVERT JUMPDEST PUSH0 DUP1 DUP6 GT ISZERO PUSH2 0x157C JUMPI PUSH2 0x11CE DUP5 PUSH1 0x40 MLOAD DUP1 PUSH1 0x40 ADD PUSH1 0x40 MSTORE DUP1 PUSH1 0x4 DUP2 MSTORE PUSH1 0x20 ADD PUSH32 0x7573647400000000000000000000000000000000000000000000000000000000 DUP2 MSTORE POP PUSH2 0x16BC JUMP JUMPDEST ISZERO PUSH2 0x1287 JUMPI PUSH0 PUSH20 0xFFFFFFFFFFFFFFFFFFFFFFFFFFFFFFFFFFFFFFFF AND PUSH1 0x7 PUSH0 SWAP1 SLOAD SWAP1 PUSH2 0x100 EXP SWAP1 DIV PUSH20 0xFFFFFFFFFFFFFFFFFFFFFFFFFFFFFFFFFFFFFFFF AND PUSH20 0xFFFFFFFFFFFFFFFFFFFFFFFFFFFFFFFFFFFFFFFF AND SUB PUSH2 0x1262 JUMPI PUSH1 0x40 MLOAD PUSH32 0x8C379A000000000000000000000000000000000000000000000000000000000 DUP2 MSTORE PUSH1 0x4 ADD PUSH2 0x1259 SWAP1 PUSH2 0x2AAD JUMP JUMPDEST PUSH1 0x40 MLOAD DUP1 SWAP2 SUB SWAP1 REVERT JUMPDEST PUSH1 0x7 PUSH0 SWAP1 SLOAD SWAP1 PUSH2 0x100 EXP SWAP1 DIV PUSH20 0xFFFFFFFFFFFFFFFFFFFFFFFFFFFFFFFFFFFFFFFF AND SWAP1 POP JUMPDEST PUSH2 0x12C6 DUP5 PUSH1 0x40 MLOAD DUP1 PUSH1 0x40 ADD PUSH1 0x40 MSTORE DUP1 PUSH1 0x4 DUP2 MSTORE PUSH1 0x20 ADD PUSH32 0x7573646300000000000000000000000000000000000000000000000000000000 DUP2 MSTORE POP PUSH2 0x16BC JUMP JUMPDEST ISZERO PUSH2 0x137F JUMPI PUSH0 PUSH20 0xFFFFFFFFFFFFFFFFFFFFFFFFFFFFFFFFFFFFFFFF AND PUSH1 0x8 PUSH0 SWAP1 SLOAD SWAP1 PUSH2 0x100 EXP SWAP1 DIV PUSH20 0xFFFFFFFFFFFFFFFFFFFFFFFFFFFFFFFFFFFFFFFF AND PUSH20 0xFFFFFFFFFFFFFFFFFFFFFFFFFFFFFFFFFFFFFFFF AND SUB PUSH2 0x135A JUMPI PUSH1 0x40 MLOAD PUSH32 0x8C379A000000000000000000000000000000000000000000000000000000000 DUP2 MSTORE PUSH1 0x4 ADD PUSH2 0x1351 SWAP1 PUSH2 0x2B15 JUMP JUMPDEST PUSH1 0x40 MLOAD DUP1 SWAP2 SUB SWAP1 REVERT JUMPDEST PUSH1 0x8 PUSH0 SWAP1 SLOAD SWAP1 PUSH2 0x100 EXP SWAP1 DIV PUSH20 0xFFFFFFFFFFFFFFFFFFFFFFFFFFFFFFFFFFFFFFFF AND SWAP1 POP JUMPDEST PUSH2 0x13BE DUP5 PUSH1 0x40 MLOAD DUP1 PUSH1 0x40 ADD PUSH1 0x40 MSTORE DUP1 PUSH1 0x3 DUP2 MSTORE PUSH1 0x20 ADD PUSH32 0x6574680000000000000000000000000000000000000000000000000000000000 DUP2 MSTORE POP PUSH2 0x16BC JUMP JUMPDEST ISZERO PUSH2 0x1477 JUMPI PUSH0 PUSH20 0xFFFFFFFFFFFFFFFFFFFFFFFFFFFFFFFFFFFFFFFF AND PUSH1 0xA PUSH0 SWAP1 SLOAD SWAP1 PUSH2 0x100 EXP SWAP1 DIV PUSH20 0xFFFFFFFFFFFFFFFFFFFFFFFFFFFFFFFFFFFFFFFF AND PUSH20 0xFFFFFFFFFFFFFFFFFFFFFFFFFFFFFFFFFFFFFFFF AND SUB PUSH2 0x1452 JUMPI PUSH1 0x40 MLOAD PUSH32 0x8C379A000000000000000000000000000000000000000000000000000000000 DUP2 MSTORE PUSH1 0x4 ADD PUSH2 0x1449 SWAP1 PUSH2 0x2B7D JUMP JUMPDEST PUSH1 0x40 MLOAD DUP1 SWAP2 SUB SWAP1 REVERT JUMPDEST PUSH1 0xA PUSH0 SWAP1 SLOAD SWAP1 PUSH2 0x100 EXP SWAP1 DIV PUSH20 0xFFFFFFFFFFFFFFFFFFFFFFFFFFFFFFFFFFFFFFFF AND SWAP1 POP JUMPDEST PUSH2 0x14B6 DUP5 PUSH1 0x40 MLOAD DUP1 PUSH1 0x40 ADD PUSH1 0x40 MSTORE DUP1 PUSH1 0x3 DUP2 MSTORE PUSH1 0x20 ADD PUSH32 0x756D690000000000000000000000000000000000000000000000000000000000 DUP2 MSTORE POP PUSH2 0x16BC JUMP JUMPDEST ISZERO PUSH2 0x156F JUMPI PUSH0 PUSH20 0xFFFFFFFFFFFFFFFFFFFFFFFFFFFFFFFFFFFFFFFF AND PUSH1 0x9 PUSH0 SWAP1 SLOAD SWAP1 PUSH2 0x100 EXP SWAP1 DIV PUSH20 0xFFFFFFFFFFFFFFFFFFFFFFFFFFFFFFFFFFFFFFFF AND PUSH20 0xFFFFFFFFFFFFFFFFFFFFFFFFFFFFFFFFFFFFFFFF AND SUB PUSH2 0x154A JUMPI PUSH1 0x40 MLOAD PUSH32 0x8C379A000000000000000000000000000000000000000000000000000000000 DUP2 MSTORE PUSH1 0x4 ADD PUSH2 0x1541 SWAP1 PUSH2 0x2BE5 JUMP JUMPDEST PUSH1 0x40 MLOAD DUP1 SWAP2 SUB SWAP1 REVERT JUMPDEST PUSH1 0x9 PUSH0 SWAP1 SLOAD SWAP1 PUSH2 0x100 EXP SWAP1 DIV PUSH20 0xFFFFFFFFFFFFFFFFFFFFFFFFFFFFFFFFFFFFFFFF AND SWAP1 POP JUMPDEST PUSH2 0x157B DUP2 DUP10 DUP10 DUP9 PUSH2 0x17FF JUMP JUMPDEST JUMPDEST PUSH1 0x40 MLOAD DUP1 PUSH1 0xA0 ADD PUSH1 0x40 MSTORE DUP1 DUP9 PUSH20 0xFFFFFFFFFFFFFFFFFFFFFFFFFFFFFFFFFFFFFFFF AND DUP2 MSTORE PUSH1 0x20 ADD DUP8 DUP2 MSTORE PUSH1 0x20 ADD DUP7 DUP2 MSTORE PUSH1 0x20 ADD DUP6 DUP2 MSTORE PUSH1 0x20 ADD DUP5 DUP2 MSTORE POP PUSH1 0xB PUSH0 DUP9 DUP2 MSTORE PUSH1 0x20 ADD SWAP1 DUP2 MSTORE PUSH1 0x20 ADD PUSH0 KECCAK256 PUSH0 DUP3 ADD MLOAD DUP2 PUSH0 ADD PUSH0 PUSH2 0x100 EXP DUP2 SLOAD DUP2 PUSH20 0xFFFFFFFFFFFFFFFFFFFFFFFFFFFFFFFFFFFFFFFF MUL NOT AND SWAP1 DUP4 PUSH20 0xFFFFFFFFFFFFFFFFFFFFFFFFFFFFFFFFFFFFFFFF AND MUL OR SWAP1 SSTORE POP PUSH1 0x20 DUP3 ADD MLOAD DUP2 PUSH1 0x1 ADD SSTORE PUSH1 0x40 DUP3 ADD MLOAD DUP2 PUSH1 0x2 ADD SSTORE PUSH1 0x60 DUP3 ADD MLOAD DUP2 PUSH1 0x3 ADD SWAP1 DUP2 PUSH2 0x1637 SWAP2 SWAP1 PUSH2 0x2D97 JUMP JUMPDEST POP PUSH1 0x80 DUP3 ADD MLOAD DUP2 PUSH1 0x4 ADD SSTORE SWAP1 POP POP PUSH1 0x1 PUSH1 0xC PUSH0 DUP3 DUP3 SLOAD PUSH2 0x1657 SWAP2 SWAP1 PUSH2 0x2E93 JUMP JUMPDEST SWAP3 POP POP DUP2 SWAP1 SSTORE POP DUP7 PUSH20 0xFFFFFFFFFFFFFFFFFFFFFFFFFFFFFFFFFFFFFFFF AND PUSH32 0x767F580FBD26B93B2D869747EDC8FB17BFD4888AA055A655EE2D25EAC1E77B45 DUP8 DUP8 DUP8 DUP7 PUSH1 0x40 MLOAD PUSH2 0x16AA SWAP5 SWAP4 SWAP3 SWAP2 SWAP1 PUSH2 0x2F18 JUMP JUMPDEST PUSH1 0x40 MLOAD DUP1 SWAP2 SUB SWAP1 LOG2 POP POP POP POP POP POP POP POP JUMP JUMPDEST PUSH0 DUP2 PUSH1 0x40 MLOAD PUSH1 0x20 ADD PUSH2 0x16CE SWAP2 SWAP1 PUSH2 0x2F69 JUMP JUMPDEST PUSH1 0x40 MLOAD PUSH1 0x20 DUP2 DUP4 SUB SUB DUP2 MSTORE SWAP1 PUSH1 0x40 MSTORE DUP1 MLOAD SWAP1 PUSH1 0x20 ADD KECCAK256 DUP4 PUSH1 0x40 MLOAD PUSH1 0x20 ADD PUSH2 0x16F5 SWAP2 SWAP1 PUSH2 0x2F69 JUMP JUMPDEST PUSH1 0x40 MLOAD PUSH1 0x20 DUP2 DUP4 SUB SUB DUP2 MSTORE SWAP1 PUSH1 0x40 MSTORE DUP1 MLOAD SWAP1 PUSH1 0x20 ADD KECCAK256 EQ SWAP1 POP SWAP3 SWAP2 POP POP JUMP JUMPDEST PUSH0 DUP1 PUSH0 PUSH1 0x41 DUP5 MLOAD EQ PUSH2 0x175B JUMPI PUSH1 0x40 MLOAD PUSH32 0x8C379A000000000000000000000000000000000000000000000000000000000 DUP2 MSTORE PUSH1 0x4 ADD PUSH2 0x1752 SWAP1 PUSH2 0x2FC9 JUMP JUMPDEST PUSH1 0x40 MLOAD DUP1 SWAP2 SUB SWAP1 REVERT JUMPDEST PUSH1 0x20 DUP5 ADD MLOAD SWAP3 POP PUSH1 0x40 DUP5 ADD MLOAD SWAP2 POP PUSH1 0x60 DUP5 ADD MLOAD PUSH0 BYTE SWAP1 POP SWAP2 SWAP4 SWAP1 SWAP3 POP JUMP JUMPDEST PUSH0 DUP1 PUSH2 0x1789 DUP10 DUP10 DUP10 DUP10 DUP10 DUP10 PUSH2 0xF26 JUMP JUMPDEST SWAP1 POP PUSH0 PUSH2 0x1795 DUP3 PUSH2 0x1B86 JUMP JUMPDEST SWAP1 POP PUSH1 0x1 PUSH0 SWAP1 SLOAD SWAP1 PUSH2 0x100 EXP SWAP1 DIV PUSH20 0xFFFFFFFFFFFFFFFFFFFFFFFFFFFFFFFFFFFFFFFF AND PUSH20 0xFFFFFFFFFFFFFFFFFFFFFFFFFFFFFFFFFFFFFFFF AND PUSH2 0x17D9 DUP3 DUP7 PUSH2 0x1BB5 JUMP JUMPDEST PUSH20 0xFFFFFFFFFFFFFFFFFFFFFFFFFFFFFFFFFFFFFFFF AND EQ SWAP3 POP POP POP SWAP8 SWAP7 POP POP POP POP POP POP POP JUMP JUMPDEST PUSH0 DUP1 PUSH0 DUP7 PUSH20 0xFFFFFFFFFFFFFFFFFFFFFFFFFFFFFFFFFFFFFFFF AND PUSH4 0x23B872DD DUP8 ADDRESS DUP8 PUSH1 0x40 MLOAD DUP5 PUSH4 0xFFFFFFFF AND PUSH1 0xE0 SHL DUP2 MSTORE PUSH1 0x4 ADD PUSH2 0x183F SWAP4 SWAP3 SWAP2 SWAP1 PUSH2 0x2FE7 JUMP JUMPDEST PUSH1 0x20 PUSH1 0x40 MLOAD DUP1 DUP4 SUB DUP2 PUSH0 DUP8 GAS CALL ISZERO DUP1 ISZERO PUSH2 0x185B JUMPI RETURNDATASIZE PUSH0 DUP1 RETURNDATACOPY RETURNDATASIZE PUSH0 REVERT JUMPDEST POP POP POP POP PUSH1 0x40 MLOAD RETURNDATASIZE PUSH1 0x1F NOT PUSH1 0x1F DUP3 ADD AND DUP3 ADD DUP1 PUSH1 0x40 MSTORE POP DUP2 ADD SWAP1 PUSH2 0x187F SWAP2 SWAP1 PUSH2 0x26AD JUMP JUMPDEST POP PUSH2 0x18A9 PUSH2 0x3E8 PUSH2 0x189B PUSH1 0x2 SLOAD DUP8 PUSH2 0x1C1F SWAP1 SWAP2 SWAP1 PUSH4 0xFFFFFFFF AND JUMP JUMPDEST PUSH2 0x1C96 SWAP1 SWAP2 SWAP1 PUSH4 0xFFFFFFFF AND JUMP JUMPDEST SWAP3 POP PUSH2 0x18D4 PUSH2 0x3E8 PUSH2 0x18C6 PUSH1 0x3 SLOAD DUP8 PUSH2 0x1C1F SWAP1 SWAP2 SWAP1 PUSH4 0xFFFFFFFF AND JUMP JUMPDEST PUSH2 0x1C96 SWAP1 SWAP2 SWAP1 PUSH4 0xFFFFFFFF AND JUMP JUMPDEST SWAP2 POP PUSH2 0x18FF PUSH2 0x3E8 PUSH2 0x18F1 PUSH1 0x4 SLOAD DUP8 PUSH2 0x1C1F SWAP1 SWAP2 SWAP1 PUSH4 0xFFFFFFFF AND JUMP JUMPDEST PUSH2 0x1C96 SWAP1 SWAP2 SWAP1 PUSH4 0xFFFFFFFF AND JUMP JUMPDEST SWAP1 POP PUSH0 DUP2 DUP4 DUP6 DUP8 PUSH2 0x1910 SWAP2 SWAP1 PUSH2 0x301C JUMP JUMPDEST PUSH2 0x191A SWAP2 SWAP1 PUSH2 0x301C JUMP JUMPDEST PUSH2 0x1924 SWAP2 SWAP1 PUSH2 0x301C JUMP JUMPDEST SWAP1 POP PUSH0 DUP5 GT ISZERO PUSH2 0x19AB JUMPI DUP8 PUSH20 0xFFFFFFFFFFFFFFFFFFFFFFFFFFFFFFFFFFFFFFFF AND PUSH4 0xA9059CBB DUP8 DUP7 PUSH1 0x40 MLOAD DUP4 PUSH4 0xFFFFFFFF AND PUSH1 0xE0 SHL DUP2 MSTORE PUSH1 0x4 ADD PUSH2 0x1969 SWAP3 SWAP2 SWAP1 PUSH2 0x265C JUMP JUMPDEST PUSH1 0x20 PUSH1 0x40 MLOAD DUP1 DUP4 SUB DUP2 PUSH0 DUP8 GAS CALL ISZERO DUP1 ISZERO PUSH2 0x1985 JUMPI RETURNDATASIZE PUSH0 DUP1 RETURNDATACOPY RETURNDATASIZE PUSH0 REVERT JUMPDEST POP POP POP POP PUSH1 0x40 MLOAD RETURNDATASIZE PUSH1 0x1F NOT PUSH1 0x1F DUP3 ADD AND DUP3 ADD DUP1 PUSH1 0x40 MSTORE POP DUP2 ADD SWAP1 PUSH2 0x19A9 SWAP2 SWAP1 PUSH2 0x26AD JUMP JUMPDEST POP JUMPDEST PUSH0 DUP4 GT ISZERO PUSH2 0x1A51 JUMPI DUP8 PUSH20 0xFFFFFFFFFFFFFFFFFFFFFFFFFFFFFFFFFFFFFFFF AND PUSH4 0xA9059CBB PUSH1 0x5 PUSH0 SWAP1 SLOAD SWAP1 PUSH2 0x100 EXP SWAP1 DIV PUSH20 0xFFFFFFFFFFFFFFFFFFFFFFFFFFFFFFFFFFFFFFFF AND DUP6 PUSH1 0x40 MLOAD DUP4 PUSH4 0xFFFFFFFF AND PUSH1 0xE0 SHL DUP2 MSTORE PUSH1 0x4 ADD PUSH2 0x1A0F SWAP3 SWAP2 SWAP1 PUSH2 0x265C JUMP JUMPDEST PUSH1 0x20 PUSH1 0x40 MLOAD DUP1 DUP4 SUB DUP2 PUSH0 DUP8 GAS CALL ISZERO DUP1 ISZERO PUSH2 0x1A2B JUMPI RETURNDATASIZE PUSH0 DUP1 RETURNDATACOPY RETURNDATASIZE PUSH0 REVERT JUMPDEST POP POP POP POP PUSH1 0x40 MLOAD RETURNDATASIZE PUSH1 0x1F NOT PUSH1 0x1F DUP3 ADD AND DUP3 ADD DUP1 PUSH1 0x40 MSTORE POP DUP2 ADD SWAP1 PUSH2 0x1A4F SWAP2 SWAP1 PUSH2 0x26AD JUMP JUMPDEST POP JUMPDEST PUSH0 DUP3 GT ISZERO PUSH2 0x1AF7 JUMPI DUP8 PUSH20 0xFFFFFFFFFFFFFFFFFFFFFFFFFFFFFFFFFFFFFFFF AND PUSH4 0xA9059CBB PUSH1 0x6 PUSH0 SWAP1 SLOAD SWAP1 PUSH2 0x100 EXP SWAP1 DIV PUSH20 0xFFFFFFFFFFFFFFFFFFFFFFFFFFFFFFFFFFFFFFFF AND DUP5 PUSH1 0x40 MLOAD DUP4 PUSH4 0xFFFFFFFF AND PUSH1 0xE0 SHL DUP2 MSTORE PUSH1 0x4 ADD PUSH2 0x1AB5 SWAP3 SWAP2 SWAP1 PUSH2 0x265C JUMP JUMPDEST PUSH1 0x20 PUSH1 0x40 MLOAD DUP1 DUP4 SUB DUP2 PUSH0 DUP8 GAS CALL ISZERO DUP1 ISZERO PUSH2 0x1AD1 JUMPI RETURNDATASIZE PUSH0 DUP1 RETURNDATACOPY RETURNDATASIZE PUSH0 REVERT JUMPDEST POP POP POP POP PUSH1 0x40 MLOAD RETURNDATASIZE PUSH1 0x1F NOT PUSH1 0x1F DUP3 ADD AND DUP3 ADD DUP1 PUSH1 0x40 MSTORE POP DUP2 ADD SWAP1 PUSH2 0x1AF5 SWAP2 SWAP1 PUSH2 0x26AD JUMP JUMPDEST POP JUMPDEST PUSH0 DUP2 GT ISZERO PUSH2 0x1B7C JUMPI DUP8 PUSH20 0xFFFFFFFFFFFFFFFFFFFFFFFFFFFFFFFFFFFFFFFF AND PUSH4 0xA9059CBB DUP8 DUP4 PUSH1 0x40 MLOAD DUP4 PUSH4 0xFFFFFFFF AND PUSH1 0xE0 SHL DUP2 MSTORE PUSH1 0x4 ADD PUSH2 0x1B3A SWAP3 SWAP2 SWAP1 PUSH2 0x265C JUMP JUMPDEST PUSH1 0x20 PUSH1 0x40 MLOAD DUP1 DUP4 SUB DUP2 PUSH0 DUP8 GAS CALL ISZERO DUP1 ISZERO PUSH2 0x1B56 JUMPI RETURNDATASIZE PUSH0 DUP1 RETURNDATACOPY RETURNDATASIZE PUSH0 REVERT JUMPDEST POP POP POP POP PUSH1 0x40 MLOAD RETURNDATASIZE PUSH1 0x1F NOT PUSH1 0x1F DUP3 ADD AND DUP3 ADD DUP1 PUSH1 0x40 MSTORE POP DUP2 ADD SWAP1 PUSH2 0x1B7A SWAP2 SWAP1 PUSH2 0x26AD JUMP JUMPDEST POP JUMPDEST POP POP POP POP POP POP POP POP JUMP JUMPDEST PUSH0 DUP2 PUSH1 0x40 MLOAD PUSH1 0x20 ADD PUSH2 0x1B98 SWAP2 SWAP1 PUSH2 0x30B9 JUMP JUMPDEST PUSH1 0x40 MLOAD PUSH1 0x20 DUP2 DUP4 SUB SUB DUP2 MSTORE SWAP1 PUSH1 0x40 MSTORE DUP1 MLOAD SWAP1 PUSH1 0x20 ADD KECCAK256 SWAP1 POP SWAP2 SWAP1 POP JUMP JUMPDEST PUSH0 DUP1 PUSH0 DUP1 PUSH2 0x1BC2 DUP6 PUSH2 0x1714 JUMP JUMPDEST SWAP3 POP SWAP3 POP SWAP3 POP PUSH1 0x1 DUP7 DUP3 DUP6 DUP6 PUSH1 0x40 MLOAD PUSH0 DUP2 MSTORE PUSH1 0x20 ADD PUSH1 0x40 MSTORE PUSH1 0x40 MLOAD PUSH2 0x1BEA SWAP5 SWAP4 SWAP3 SWAP2 SWAP1 PUSH2 0x275B JUMP JUMPDEST PUSH1 0x20 PUSH1 0x40 MLOAD PUSH1 0x20 DUP2 SUB SWAP1 DUP1 DUP5 SUB SWAP1 DUP6 GAS STATICCALL ISZERO DUP1 ISZERO PUSH2 0x1C0A JUMPI RETURNDATASIZE PUSH0 DUP1 RETURNDATACOPY RETURNDATASIZE PUSH0 REVERT JUMPDEST POP POP POP PUSH1 0x20 PUSH1 0x40 MLOAD SUB MLOAD SWAP4 POP POP POP POP SWAP3 SWAP2 POP POP JUMP JUMPDEST PUSH0 DUP1 DUP4 SUB PUSH2 0x1C2F JUMPI PUSH0 SWAP1 POP PUSH2 0x1C90 JUMP JUMPDEST PUSH0 DUP3 DUP5 PUSH2 0x1C3C SWAP2 SWAP1 PUSH2 0x30DE JUMP JUMPDEST SWAP1 POP DUP3 DUP5 DUP3 PUSH2 0x1C4B SWAP2 SWAP1 PUSH2 0x314C JUMP JUMPDEST EQ PUSH2 0x1C8B JUMPI PUSH1 0x40 MLOAD PUSH32 0x8C379A000000000000000000000000000000000000000000000000000000000 DUP2 MSTORE PUSH1 0x4 ADD PUSH2 0x1C82 SWAP1 PUSH2 0x31EC JUMP JUMPDEST PUSH1 0x40 MLOAD DUP1 SWAP2 SUB SWAP1 REVERT JUMPDEST DUP1 SWAP2 POP POP JUMPDEST SWAP3 SWAP2 POP POP JUMP JUMPDEST PUSH0 PUSH2 0x1CD7 DUP4 DUP4 PUSH1 0x40 MLOAD DUP1 PUSH1 0x40 ADD PUSH1 0x40 MSTORE DUP1 PUSH1 0x1A DUP2 MSTORE PUSH1 0x20 ADD PUSH32 0x536166654D6174683A206469766973696F6E206279207A65726F000000000000 DUP2 MSTORE POP PUSH2 0x1CDF JUMP JUMPDEST SWAP1 POP SWAP3 SWAP2 POP POP JUMP JUMPDEST PUSH0 DUP1 DUP4 GT DUP3 SWAP1 PUSH2 0x1D25 JUMPI PUSH1 0x40 MLOAD PUSH32 0x8C379A000000000000000000000000000000000000000000000000000000000 DUP2 MSTORE PUSH1 0x4 ADD PUSH2 0x1D1C SWAP2 SWAP1 PUSH2 0x320A JUMP JUMPDEST PUSH1 0x40 MLOAD DUP1 SWAP2 SUB SWAP1 REVERT JUMPDEST POP PUSH0 DUP4 DUP6 PUSH2 0x1D33 SWAP2 SWAP1 PUSH2 0x314C JUMP JUMPDEST SWAP1 POP DUP1 SWAP2 POP POP SWAP4 SWAP3 POP POP POP JUMP JUMPDEST PUSH0 PUSH1 0x40 MLOAD SWAP1 POP SWAP1 JUMP JUMPDEST PUSH0 DUP1 REVERT JUMPDEST PUSH0 DUP1 REVERT JUMPDEST PUSH0 PUSH20 0xFFFFFFFFFFFFFFFFFFFFFFFFFFFFFFFFFFFFFFFF DUP3 AND SWAP1 POP SWAP2 SWAP1 POP JUMP JUMPDEST PUSH0 PUSH2 0x1D7A DUP3 PUSH2 0x1D51 JUMP JUMPDEST SWAP1 POP SWAP2 SWAP1 POP JUMP JUMPDEST PUSH0 PUSH2 0x1D8B DUP3 PUSH2 0x1D70 JUMP JUMPDEST SWAP1 POP SWAP2 SWAP1 POP JUMP JUMPDEST PUSH2 0x1D9B DUP2 PUSH2 0x1D81 JUMP JUMPDEST DUP2 EQ PUSH2 0x1DA5 JUMPI PUSH0 DUP1 REVERT JUMPDEST POP JUMP JUMPDEST PUSH0 DUP2 CALLDATALOAD SWAP1 POP PUSH2 0x1DB6 DUP2 PUSH2 0x1D92 JUMP JUMPDEST SWAP3 SWAP2 POP POP JUMP JUMPDEST PUSH0 DUP2 SWAP1 POP SWAP2 SWAP1 POP JUMP JUMPDEST PUSH2 0x1DCE DUP2 PUSH2 0x1DBC JUMP JUMPDEST DUP2 EQ PUSH2 0x1DD8 JUMPI PUSH0 DUP1 REVERT JUMPDEST POP JUMP JUMPDEST PUSH0 DUP2 CALLDATALOAD SWAP1 POP PUSH2 0x1DE9 DUP2 PUSH2 0x1DC5 JUMP JUMPDEST SWAP3 SWAP2 POP POP JUMP JUMPDEST PUSH0 DUP1 PUSH1 0x40 DUP4 DUP6 SUB SLT ISZERO PUSH2 0x1E05 JUMPI PUSH2 0x1E04 PUSH2 0x1D49 JUMP JUMPDEST JUMPDEST PUSH0 PUSH2 0x1E12 DUP6 DUP3 DUP7 ADD PUSH2 0x1DA8 JUMP JUMPDEST SWAP3 POP POP PUSH1 0x20 PUSH2 0x1E23 DUP6 DUP3 DUP7 ADD PUSH2 0x1DDB JUMP JUMPDEST SWAP2 POP POP SWAP3 POP SWAP3 SWAP1 POP JUMP JUMPDEST PUSH0 DUP1 REVERT JUMPDEST PUSH0 DUP1 REVERT JUMPDEST PUSH0 PUSH1 0x1F NOT PUSH1 0x1F DUP4 ADD AND SWAP1 POP SWAP2 SWAP1 POP JUMP JUMPDEST PUSH32 0x4E487B7100000000000000000000000000000000000000000000000000000000 PUSH0 MSTORE PUSH1 0x41 PUSH1 0x4 MSTORE PUSH1 0x24 PUSH0 REVERT JUMPDEST PUSH2 0x1E7B DUP3 PUSH2 0x1E35 JUMP JUMPDEST DUP2 ADD DUP2 DUP2 LT PUSH8 0xFFFFFFFFFFFFFFFF DUP3 GT OR ISZERO PUSH2 0x1E9A JUMPI PUSH2 0x1E99 PUSH2 0x1E45 JUMP JUMPDEST JUMPDEST DUP1 PUSH1 0x40 MSTORE POP POP POP JUMP JUMPDEST PUSH0 PUSH2 0x1EAC PUSH2 0x1D40 JUMP JUMPDEST SWAP1 POP PUSH2 0x1EB8 DUP3 DUP3 PUSH2 0x1E72 JUMP JUMPDEST SWAP2 SWAP1 POP JUMP JUMPDEST PUSH0 PUSH8 0xFFFFFFFFFFFFFFFF DUP3 GT ISZERO PUSH2 0x1ED7 JUMPI PUSH2 0x1ED6 PUSH2 0x1E45 JUMP JUMPDEST JUMPDEST PUSH2 0x1EE0 DUP3 PUSH2 0x1E35 JUMP JUMPDEST SWAP1 POP PUSH1 0x20 DUP2 ADD SWAP1 POP SWAP2 SWAP1 POP JUMP JUMPDEST DUP3 DUP2 DUP4 CALLDATACOPY PUSH0 DUP4 DUP4 ADD MSTORE POP POP POP JUMP JUMPDEST PUSH0 PUSH2 0x1F0D PUSH2 0x1F08 DUP5 PUSH2 0x1EBD JUMP JUMPDEST PUSH2 0x1EA3 JUMP JUMPDEST SWAP1 POP DUP3 DUP2 MSTORE PUSH1 0x20 DUP2 ADD DUP5 DUP5 DUP5 ADD GT ISZERO PUSH2 0x1F29 JUMPI PUSH2 0x1F28 PUSH2 0x1E31 JUMP JUMPDEST JUMPDEST PUSH2 0x1F34 DUP5 DUP3 DUP6 PUSH2 0x1EED JUMP JUMPDEST POP SWAP4 SWAP3 POP POP POP JUMP JUMPDEST PUSH0 DUP3 PUSH1 0x1F DUP4 ADD SLT PUSH2 0x1F50 JUMPI PUSH2 0x1F4F PUSH2 0x1E2D JUMP JUMPDEST JUMPDEST DUP2 CALLDATALOAD PUSH2 0x1F60 DUP5 DUP3 PUSH1 0x20 DUP7 ADD PUSH2 0x1EFB JUMP JUMPDEST SWAP2 POP POP SWAP3 SWAP2 POP POP JUMP JUMPDEST PUSH0 PUSH1 0x20 DUP3 DUP5 SUB SLT ISZERO PUSH2 0x1F7E JUMPI PUSH2 0x1F7D PUSH2 0x1D49 JUMP JUMPDEST JUMPDEST PUSH0 DUP3 ADD CALLDATALOAD PUSH8 0xFFFFFFFFFFFFFFFF DUP2 GT ISZERO PUSH2 0x1F9B JUMPI PUSH2 0x1F9A PUSH2 0x1D4D JUMP JUMPDEST JUMPDEST PUSH2 0x1FA7 DUP5 DUP3 DUP6 ADD PUSH2 0x1F3C JUMP JUMPDEST SWAP2 POP POP SWAP3 SWAP2 POP POP JUMP JUMPDEST PUSH0 DUP2 ISZERO ISZERO SWAP1 POP SWAP2 SWAP1 POP JUMP JUMPDEST PUSH2 0x1FC4 DUP2 PUSH2 0x1FB0 JUMP JUMPDEST DUP3 MSTORE POP POP JUMP JUMPDEST PUSH0 PUSH1 0x20 DUP3 ADD SWAP1 POP PUSH2 0x1FDD PUSH0 DUP4 ADD DUP5 PUSH2 0x1FBB JUMP JUMPDEST SWAP3 SWAP2 POP POP JUMP JUMPDEST PUSH2 0x1FEC DUP2 PUSH2 0x1D70 JUMP JUMPDEST DUP2 EQ PUSH2 0x1FF6 JUMPI PUSH0 DUP1 REVERT JUMPDEST POP JUMP JUMPDEST PUSH0 DUP2 CALLDATALOAD SWAP1 POP PUSH2 0x2007 DUP2 PUSH2 0x1FE3 JUMP JUMPDEST SWAP3 SWAP2 POP POP JUMP JUMPDEST PUSH0 PUSH1 0x20 DUP3 DUP5 SUB SLT ISZERO PUSH2 0x2022 JUMPI PUSH2 0x2021 PUSH2 0x1D49 JUMP JUMPDEST JUMPDEST PUSH0 PUSH2 0x202F DUP5 DUP3 DUP6 ADD PUSH2 0x1FF9 JUMP JUMPDEST SWAP2 POP POP SWAP3 SWAP2 POP POP JUMP JUMPDEST PUSH2 0x2041 DUP2 PUSH2 0x1DBC JUMP JUMPDEST DUP3 MSTORE POP POP JUMP JUMPDEST PUSH0 PUSH1 0x20 DUP3 ADD SWAP1 POP PUSH2 0x205A PUSH0 DUP4 ADD DUP5 PUSH2 0x2038 JUMP JUMPDEST SWAP3 SWAP2 POP POP JUMP JUMPDEST PUSH0 DUP2 SWAP1 POP SWAP2 SWAP1 POP JUMP JUMPDEST PUSH0 PUSH2 0x2083 PUSH2 0x207E PUSH2 0x2079 DUP5 PUSH2 0x1D51 JUMP JUMPDEST PUSH2 0x2060 JUMP JUMPDEST PUSH2 0x1D51 JUMP JUMPDEST SWAP1 POP SWAP2 SWAP1 POP JUMP JUMPDEST PUSH0 PUSH2 0x2094 DUP3 PUSH2 0x2069 JUMP JUMPDEST SWAP1 POP SWAP2 SWAP1 POP JUMP JUMPDEST PUSH0 PUSH2 0x20A5 DUP3 PUSH2 0x208A JUMP JUMPDEST SWAP1 POP SWAP2 SWAP1 POP JUMP JUMPDEST PUSH2 0x20B5 DUP2 PUSH2 0x209B JUMP JUMPDEST DUP3 MSTORE POP POP JUMP JUMPDEST PUSH0 PUSH1 0x20 DUP3 ADD SWAP1 POP PUSH2 0x20CE PUSH0 DUP4 ADD DUP5 PUSH2 0x20AC JUMP JUMPDEST SWAP3 SWAP2 POP POP JUMP JUMPDEST PUSH2 0x20DD DUP2 PUSH2 0x1D70 JUMP JUMPDEST DUP3 MSTORE POP POP JUMP JUMPDEST PUSH0 PUSH1 0x20 DUP3 ADD SWAP1 POP PUSH2 0x20F6 PUSH0 DUP4 ADD DUP5 PUSH2 0x20D4 JUMP JUMPDEST SWAP3 SWAP2 POP POP JUMP JUMPDEST PUSH0 DUP1 PUSH0 PUSH1 0x60 DUP5 DUP7 SUB SLT ISZERO PUSH2 0x2113 JUMPI PUSH2 0x2112 PUSH2 0x1D49 JUMP JUMPDEST JUMPDEST PUSH0 PUSH2 0x2120 DUP7 DUP3 DUP8 ADD PUSH2 0x1DDB JUMP JUMPDEST SWAP4 POP POP PUSH1 0x20 PUSH2 0x2131 DUP7 DUP3 DUP8 ADD PUSH2 0x1DDB JUMP JUMPDEST SWAP3 POP POP PUSH1 0x40 PUSH2 0x2142 DUP7 DUP3 DUP8 ADD PUSH2 0x1DDB JUMP JUMPDEST SWAP2 POP POP SWAP3 POP SWAP3 POP SWAP3 JUMP JUMPDEST PUSH0 DUP1 PUSH0 PUSH1 0x60 DUP5 DUP7 SUB SLT ISZERO PUSH2 0x2163 JUMPI PUSH2 0x2162 PUSH2 0x1D49 JUMP JUMPDEST JUMPDEST PUSH0 PUSH2 0x2170 DUP7 DUP3 DUP8 ADD PUSH2 0x1FF9 JUMP JUMPDEST SWAP4 POP POP PUSH1 0x20 PUSH2 0x2181 DUP7 DUP3 DUP8 ADD PUSH2 0x1FF9 JUMP JUMPDEST SWAP3 POP POP PUSH1 0x40 PUSH2 0x2192 DUP7 DUP3 DUP8 ADD PUSH2 0x1FF9 JUMP JUMPDEST SWAP2 POP POP SWAP3 POP SWAP3 POP SWAP3 JUMP JUMPDEST PUSH0 DUP2 SWAP1 POP SWAP2 SWAP1 POP JUMP JUMPDEST PUSH2 0x21AE DUP2 PUSH2 0x219C JUMP JUMPDEST DUP2 EQ PUSH2 0x21B8 JUMPI PUSH0 DUP1 REVERT JUMPDEST POP JUMP JUMPDEST PUSH0 DUP2 CALLDATALOAD SWAP1 POP PUSH2 0x21C9 DUP2 PUSH2 0x21A5 JUMP JUMPDEST SWAP3 SWAP2 POP POP JUMP JUMPDEST PUSH0 PUSH8 0xFFFFFFFFFFFFFFFF DUP3 GT ISZERO PUSH2 0x21E9 JUMPI PUSH2 0x21E8 PUSH2 0x1E45 JUMP JUMPDEST JUMPDEST PUSH2 0x21F2 DUP3 PUSH2 0x1E35 JUMP JUMPDEST SWAP1 POP PUSH1 0x20 DUP2 ADD SWAP1 POP SWAP2 SWAP1 POP JUMP JUMPDEST PUSH0 PUSH2 0x2211 PUSH2 0x220C DUP5 PUSH2 0x21CF JUMP JUMPDEST PUSH2 0x1EA3 JUMP JUMPDEST SWAP1 POP DUP3 DUP2 MSTORE PUSH1 0x20 DUP2 ADD DUP5 DUP5 DUP5 ADD GT ISZERO PUSH2 0x222D JUMPI PUSH2 0x222C PUSH2 0x1E31 JUMP JUMPDEST JUMPDEST PUSH2 0x2238 DUP5 DUP3 DUP6 PUSH2 0x1EED JUMP JUMPDEST POP SWAP4 SWAP3 POP POP POP JUMP JUMPDEST PUSH0 DUP3 PUSH1 0x1F DUP4 ADD SLT PUSH2 0x2254 JUMPI PUSH2 0x2253 PUSH2 0x1E2D JUMP JUMPDEST JUMPDEST DUP2 CALLDATALOAD PUSH2 0x2264 DUP5 DUP3 PUSH1 0x20 DUP7 ADD PUSH2 0x21FF JUMP JUMPDEST SWAP2 POP POP SWAP3 SWAP2 POP POP JUMP JUMPDEST PUSH0 DUP1 PUSH1 0x40 DUP4 DUP6 SUB SLT ISZERO PUSH2 0x2283 JUMPI PUSH2 0x2282 PUSH2 0x1D49 JUMP JUMPDEST JUMPDEST PUSH0 PUSH2 0x2290 DUP6 DUP3 DUP7 ADD PUSH2 0x21BB JUMP JUMPDEST SWAP3 POP POP PUSH1 0x20 DUP4 ADD CALLDATALOAD PUSH8 0xFFFFFFFFFFFFFFFF DUP2 GT ISZERO PUSH2 0x22B1 JUMPI PUSH2 0x22B0 PUSH2 0x1D4D JUMP JUMPDEST JUMPDEST PUSH2 0x22BD DUP6 DUP3 DUP7 ADD PUSH2 0x2240 JUMP JUMPDEST SWAP2 POP POP SWAP3 POP SWAP3 SWAP1 POP JUMP JUMPDEST PUSH0 PUSH1 0x20 DUP3 DUP5 SUB SLT ISZERO PUSH2 0x22DC JUMPI PUSH2 0x22DB PUSH2 0x1D49 JUMP JUMPDEST JUMPDEST PUSH0 PUSH2 0x22E9 DUP5 DUP3 DUP6 ADD PUSH2 0x1DDB JUMP JUMPDEST SWAP2 POP POP SWAP3 SWAP2 POP POP JUMP JUMPDEST PUSH0 DUP2 MLOAD SWAP1 POP SWAP2 SWAP1 POP JUMP JUMPDEST PUSH0 DUP3 DUP3 MSTORE PUSH1 0x20 DUP3 ADD SWAP1 POP SWAP3 SWAP2 POP POP JUMP JUMPDEST PUSH0 JUMPDEST DUP4 DUP2 LT ISZERO PUSH2 0x2329 JUMPI DUP1 DUP3 ADD MLOAD DUP2 DUP5 ADD MSTORE PUSH1 0x20 DUP2 ADD SWAP1 POP PUSH2 0x230E JUMP JUMPDEST PUSH0 DUP5 DUP5 ADD MSTORE POP POP POP POP JUMP JUMPDEST PUSH0 PUSH2 0x233E DUP3 PUSH2 0x22F2 JUMP JUMPDEST PUSH2 0x2348 DUP2 DUP6 PUSH2 0x22FC JUMP JUMPDEST SWAP4 POP PUSH2 0x2358 DUP2 DUP6 PUSH1 0x20 DUP7 ADD PUSH2 0x230C JUMP JUMPDEST PUSH2 0x2361 DUP2 PUSH2 0x1E35 JUMP JUMPDEST DUP5 ADD SWAP2 POP POP SWAP3 SWAP2 POP POP JUMP JUMPDEST PUSH0 PUSH1 0xA0 DUP3 ADD SWAP1 POP PUSH2 0x237F PUSH0 DUP4 ADD DUP9 PUSH2 0x20D4 JUMP JUMPDEST PUSH2 0x238C PUSH1 0x20 DUP4 ADD DUP8 PUSH2 0x2038 JUMP JUMPDEST PUSH2 0x2399 PUSH1 0x40 DUP4 ADD DUP7 PUSH2 0x2038 JUMP JUMPDEST DUP2 DUP2 SUB PUSH1 0x60 DUP4 ADD MSTORE PUSH2 0x23AB DUP2 DUP6 PUSH2 0x2334 JUMP JUMPDEST SWAP1 POP PUSH2 0x23BA PUSH1 0x80 DUP4 ADD DUP5 PUSH2 0x2038 JUMP JUMPDEST SWAP7 SWAP6 POP POP POP POP POP POP JUMP JUMPDEST PUSH0 DUP1 PUSH0 DUP1 PUSH0 DUP1 PUSH1 0xC0 DUP8 DUP10 SUB SLT ISZERO PUSH2 0x23DE JUMPI PUSH2 0x23DD PUSH2 0x1D49 JUMP JUMPDEST JUMPDEST PUSH0 PUSH2 0x23EB DUP10 DUP3 DUP11 ADD PUSH2 0x1FF9 JUMP JUMPDEST SWAP7 POP POP PUSH1 0x20 PUSH2 0x23FC DUP10 DUP3 DUP11 ADD PUSH2 0x1FF9 JUMP JUMPDEST SWAP6 POP POP PUSH1 0x40 PUSH2 0x240D DUP10 DUP3 DUP11 ADD PUSH2 0x1DDB JUMP JUMPDEST SWAP5 POP POP PUSH1 0x60 PUSH2 0x241E DUP10 DUP3 DUP11 ADD PUSH2 0x1DDB JUMP JUMPDEST SWAP4 POP POP PUSH1 0x80 DUP8 ADD CALLDATALOAD PUSH8 0xFFFFFFFFFFFFFFFF DUP2 GT ISZERO PUSH2 0x243F JUMPI PUSH2 0x243E PUSH2 0x1D4D JUMP JUMPDEST JUMPDEST PUSH2 0x244B DUP10 DUP3 DUP11 ADD PUSH2 0x1F3C JUMP JUMPDEST SWAP3 POP POP PUSH1 0xA0 PUSH2 0x245C DUP10 DUP3 DUP11 ADD PUSH2 0x1DDB JUMP JUMPDEST SWAP2 POP POP SWAP3 SWAP6 POP SWAP3 SWAP6 POP SWAP3 SWAP6 JUMP JUMPDEST PUSH2 0x2472 DUP2 PUSH2 0x219C JUMP JUMPDEST DUP3 MSTORE POP POP JUMP JUMPDEST PUSH0 PUSH1 0x20 DUP3 ADD SWAP1 POP PUSH2 0x248B PUSH0 DUP4 ADD DUP5 PUSH2 0x2469 JUMP JUMPDEST SWAP3 SWAP2 POP POP JUMP JUMPDEST PUSH0 DUP1 PUSH0 DUP1 PUSH0 DUP1 PUSH0 PUSH1 0xE0 DUP9 DUP11 SUB SLT ISZERO PUSH2 0x24AC JUMPI PUSH2 0x24AB PUSH2 0x1D49 JUMP JUMPDEST JUMPDEST PUSH0 PUSH2 0x24B9 DUP11 DUP3 DUP12 ADD PUSH2 0x1FF9 JUMP JUMPDEST SWAP8 POP POP PUSH1 0x20 PUSH2 0x24CA DUP11 DUP3 DUP12 ADD PUSH2 0x1FF9 JUMP JUMPDEST SWAP7 POP POP PUSH1 0x40 PUSH2 0x24DB DUP11 DUP3 DUP12 ADD PUSH2 0x1DDB JUMP JUMPDEST SWAP6 POP POP PUSH1 0x60 PUSH2 0x24EC DUP11 DUP3 DUP12 ADD PUSH2 0x1DDB JUMP JUMPDEST SWAP5 POP POP PUSH1 0x80 DUP9 ADD CALLDATALOAD PUSH8 0xFFFFFFFFFFFFFFFF DUP2 GT ISZERO PUSH2 0x250D JUMPI PUSH2 0x250C PUSH2 0x1D4D JUMP JUMPDEST JUMPDEST PUSH2 0x2519 DUP11 DUP3 DUP12 ADD PUSH2 0x1F3C JUMP JUMPDEST SWAP4 POP POP PUSH1 0xA0 PUSH2 0x252A DUP11 DUP3 DUP12 ADD PUSH2 0x1DDB JUMP JUMPDEST SWAP3 POP POP PUSH1 0xC0 DUP9 ADD CALLDATALOAD PUSH8 0xFFFFFFFFFFFFFFFF DUP2 GT ISZERO PUSH2 0x254B JUMPI PUSH2 0x254A PUSH2 0x1D4D JUMP JUMPDEST JUMPDEST PUSH2 0x2557 DUP11 DUP3 DUP12 ADD PUSH2 0x2240 JUMP JUMPDEST SWAP2 POP POP SWAP3 SWAP6 SWAP9 SWAP2 SWAP5 SWAP8 POP SWAP3 SWAP6 POP JUMP JUMPDEST PUSH32 0x4F6E6C79206F776E65722063616E2063616C6C20746869732066756E6374696F PUSH0 DUP3 ADD MSTORE PUSH32 0x6E00000000000000000000000000000000000000000000000000000000000000 PUSH1 0x20 DUP3 ADD MSTORE POP JUMP JUMPDEST PUSH0 PUSH2 0x25C0 PUSH1 0x21 DUP4 PUSH2 0x22FC JUMP JUMPDEST SWAP2 POP PUSH2 0x25CB DUP3 PUSH2 0x2566 JUMP JUMPDEST PUSH1 0x40 DUP3 ADD SWAP1 POP SWAP2 SWAP1 POP JUMP JUMPDEST PUSH0 PUSH1 0x20 DUP3 ADD SWAP1 POP DUP2 DUP2 SUB PUSH0 DUP4 ADD MSTORE PUSH2 0x25ED DUP2 PUSH2 0x25B4 JUMP JUMPDEST SWAP1 POP SWAP2 SWAP1 POP JUMP JUMPDEST PUSH32 0x496E76616C696420616D6F756E74000000000000000000000000000000000000 PUSH0 DUP3 ADD MSTORE POP JUMP JUMPDEST PUSH0 PUSH2 0x2628 PUSH1 0xE DUP4 PUSH2 0x22FC JUMP JUMPDEST SWAP2 POP PUSH2 0x2633 DUP3 PUSH2 0x25F4 JUMP JUMPDEST PUSH1 0x20 DUP3 ADD SWAP1 POP SWAP2 SWAP1 POP JUMP JUMPDEST PUSH0 PUSH1 0x20 DUP3 ADD SWAP1 POP DUP2 DUP2 SUB PUSH0 DUP4 ADD MSTORE PUSH2 0x2655 DUP2 PUSH2 0x261C JUMP JUMPDEST SWAP1 POP SWAP2 SWAP1 POP JUMP JUMPDEST PUSH0 PUSH1 0x40 DUP3 ADD SWAP1 POP PUSH2 0x266F PUSH0 DUP4 ADD DUP6 PUSH2 0x20D4 JUMP JUMPDEST PUSH2 0x267C PUSH1 0x20 DUP4 ADD DUP5 PUSH2 0x2038 JUMP JUMPDEST SWAP4 SWAP3 POP POP POP JUMP JUMPDEST PUSH2 0x268C DUP2 PUSH2 0x1FB0 JUMP JUMPDEST DUP2 EQ PUSH2 0x2696 JUMPI PUSH0 DUP1 REVERT JUMPDEST POP JUMP JUMPDEST PUSH0 DUP2 MLOAD SWAP1 POP PUSH2 0x26A7 DUP2 PUSH2 0x2683 JUMP JUMPDEST SWAP3 SWAP2 POP POP JUMP JUMPDEST PUSH0 PUSH1 0x20 DUP3 DUP5 SUB SLT ISZERO PUSH2 0x26C2 JUMPI PUSH2 0x26C1 PUSH2 0x1D49 JUMP JUMPDEST JUMPDEST PUSH0 PUSH2 0x26CF DUP5 DUP3 DUP6 ADD PUSH2 0x2699 JUMP JUMPDEST SWAP2 POP POP SWAP3 SWAP2 POP POP JUMP JUMPDEST PUSH32 0x546F6B656E207472616E73666572206661696C65640000000000000000000000 PUSH0 DUP3 ADD MSTORE POP JUMP JUMPDEST PUSH0 PUSH2 0x270C PUSH1 0x15 DUP4 PUSH2 0x22FC JUMP JUMPDEST SWAP2 POP PUSH2 0x2717 DUP3 PUSH2 0x26D8 JUMP JUMPDEST PUSH1 0x20 DUP3 ADD SWAP1 POP SWAP2 SWAP1 POP JUMP JUMPDEST PUSH0 PUSH1 0x20 DUP3 ADD SWAP1 POP DUP2 DUP2 SUB PUSH0 DUP4 ADD MSTORE PUSH2 0x2739 DUP2 PUSH2 0x2700 JUMP JUMPDEST SWAP1 POP SWAP2 SWAP1 POP JUMP JUMPDEST PUSH0 PUSH1 0xFF DUP3 AND SWAP1 POP SWAP2 SWAP1 POP JUMP JUMPDEST PUSH2 0x2755 DUP2 PUSH2 0x2740 JUMP JUMPDEST DUP3 MSTORE POP POP JUMP JUMPDEST PUSH0 PUSH1 0x80 DUP3 ADD SWAP1 POP PUSH2 0x276E PUSH0 DUP4 ADD DUP8 PUSH2 0x2469 JUMP JUMPDEST PUSH2 0x277B PUSH1 0x20 DUP4 ADD DUP7 PUSH2 0x274C JUMP JUMPDEST PUSH2 0x2788 PUSH1 0x40 DUP4 ADD DUP6 PUSH2 0x2469 JUMP JUMPDEST PUSH2 0x2795 PUSH1 0x60 DUP4 ADD DUP5 PUSH2 0x2469 JUMP JUMPDEST SWAP6 SWAP5 POP POP POP POP POP JUMP JUMPDEST PUSH32 0x4E487B7100000000000000000000000000000000000000000000000000000000 PUSH0 MSTORE PUSH1 0x22 PUSH1 0x4 MSTORE PUSH1 0x24 PUSH0 REVERT JUMPDEST PUSH0 PUSH1 0x2 DUP3 DIV SWAP1 POP PUSH1 0x1 DUP3 AND DUP1 PUSH2 0x27E2 JUMPI PUSH1 0x7F DUP3 AND SWAP2 POP JUMPDEST PUSH1 0x20 DUP3 LT DUP2 SUB PUSH2 0x27F5 JUMPI PUSH2 0x27F4 PUSH2 0x279E JUMP JUMPDEST JUMPDEST POP SWAP2 SWAP1 POP JUMP JUMPDEST PUSH0 DUP2 PUSH1 0x60 SHL SWAP1 POP SWAP2 SWAP1 POP JUMP JUMPDEST PUSH0 PUSH2 0x2811 DUP3 PUSH2 0x27FB JUMP JUMPDEST SWAP1 POP SWAP2 SWAP1 POP JUMP JUMPDEST PUSH0 PUSH2 0x2822 DUP3 PUSH2 0x2807 JUMP JUMPDEST SWAP1 POP SWAP2 SWAP1 POP JUMP JUMPDEST PUSH2 0x283A PUSH2 0x2835 DUP3 PUSH2 0x1D70 JUMP JUMPDEST PUSH2 0x2818 JUMP JUMPDEST DUP3 MSTORE POP POP JUMP JUMPDEST PUSH0 DUP2 SWAP1 POP SWAP2 SWAP1 POP JUMP JUMPDEST PUSH2 0x285A PUSH2 0x2855 DUP3 PUSH2 0x1DBC JUMP JUMPDEST PUSH2 0x2840 JUMP JUMPDEST DUP3 MSTORE POP POP JUMP JUMPDEST PUSH0 DUP2 SWAP1 POP SWAP3 SWAP2 POP POP JUMP JUMPDEST PUSH0 PUSH2 0x2874 DUP3 PUSH2 0x22F2 JUMP JUMPDEST PUSH2 0x287E DUP2 DUP6 PUSH2 0x2860 JUMP JUMPDEST SWAP4 POP PUSH2 0x288E DUP2 DUP6 PUSH1 0x20 DUP7 ADD PUSH2 0x230C JUMP JUMPDEST DUP1 DUP5 ADD SWAP2 POP POP SWAP3 SWAP2 POP POP JUMP JUMPDEST PUSH0 PUSH2 0x28A5 DUP3 DUP10 PUSH2 0x2829 JUMP JUMPDEST PUSH1 0x14 DUP3 ADD SWAP2 POP PUSH2 0x28B5 DUP3 DUP9 PUSH2 0x2829 JUMP JUMPDEST PUSH1 0x14 DUP3 ADD SWAP2 POP PUSH2 0x28C5 DUP3 DUP8 PUSH2 0x2849 JUMP JUMPDEST PUSH1 0x20 DUP3 ADD SWAP2 POP PUSH2 0x28D5 DUP3 DUP7 PUSH2 0x2849 JUMP JUMPDEST PUSH1 0x20 DUP3 ADD SWAP2 POP PUSH2 0x28E5 DUP3 DUP6 PUSH2 0x286A JUMP JUMPDEST SWAP2 POP PUSH2 0x28F1 DUP3 DUP5 PUSH2 0x2849 JUMP JUMPDEST PUSH1 0x20 DUP3 ADD SWAP2 POP DUP2 SWAP1 POP SWAP8 SWAP7 POP POP POP POP POP POP POP JUMP JUMPDEST PUSH32 0x4F6E6C792063616C6C61626C65206279205472757374656420466F7277617264 PUSH0 DUP3 ADD MSTORE PUSH32 0x6572000000000000000000000000000000000000000000000000000000000000 PUSH1 0x20 DUP3 ADD MSTORE POP JUMP JUMPDEST PUSH0 PUSH2 0x295F PUSH1 0x22 DUP4 PUSH2 0x22FC JUMP JUMPDEST SWAP2 POP PUSH2 0x296A DUP3 PUSH2 0x2905 JUMP JUMPDEST PUSH1 0x40 DUP3 ADD SWAP1 POP SWAP2 SWAP1 POP JUMP JUMPDEST PUSH0 PUSH1 0x20 DUP3 ADD SWAP1 POP DUP2 DUP2 SUB PUSH0 DUP4 ADD MSTORE PUSH2 0x298C DUP2 PUSH2 0x2953 JUMP JUMPDEST SWAP1 POP SWAP2 SWAP1 POP JUMP JUMPDEST PUSH32 0x43563A2066726F6D20746F20746865207A65726F206164647265737300000000 PUSH0 DUP3 ADD MSTORE POP JUMP JUMPDEST PUSH0 PUSH2 0x29C7 PUSH1 0x1C DUP4 PUSH2 0x22FC JUMP JUMPDEST SWAP2 POP PUSH2 0x29D2 DUP3 PUSH2 0x2993 JUMP JUMPDEST PUSH1 0x20 DUP3 ADD SWAP1 POP SWAP2 SWAP1 POP JUMP JUMPDEST PUSH0 PUSH1 0x20 DUP3 ADD SWAP1 POP DUP2 DUP2 SUB PUSH0 DUP4 ADD MSTORE PUSH2 0x29F4 DUP2 PUSH2 0x29BB JUMP JUMPDEST SWAP1 POP SWAP2 SWAP1 POP JUMP JUMPDEST PUSH32 0x43563A20696E76616C6964205F7369676E617475726500000000000000000000 PUSH0 DUP3 ADD MSTORE POP JUMP JUMPDEST PUSH0 PUSH2 0x2A2F PUSH1 0x16 DUP4 PUSH2 0x22FC JUMP JUMPDEST SWAP2 POP PUSH2 0x2A3A DUP3 PUSH2 0x29FB JUMP JUMPDEST PUSH1 0x20 DUP3 ADD SWAP1 POP SWAP2 SWAP1 POP JUMP JUMPDEST PUSH0 PUSH1 0x20 DUP3 ADD SWAP1 POP DUP2 DUP2 SUB PUSH0 DUP4 ADD MSTORE PUSH2 0x2A5C DUP2 PUSH2 0x2A23 JUMP JUMPDEST SWAP1 POP SWAP2 SWAP1 POP JUMP JUMPDEST PUSH32 0x757364742061646472657373206E6F7420636F6E666967000000000000000000 PUSH0 DUP3 ADD MSTORE POP JUMP JUMPDEST PUSH0 PUSH2 0x2A97 PUSH1 0x17 DUP4 PUSH2 0x22FC JUMP JUMPDEST SWAP2 POP PUSH2 0x2AA2 DUP3 PUSH2 0x2A63 JUMP JUMPDEST PUSH1 0x20 DUP3 ADD SWAP1 POP SWAP2 SWAP1 POP JUMP JUMPDEST PUSH0 PUSH1 0x20 DUP3 ADD SWAP1 POP DUP2 DUP2 SUB PUSH0 DUP4 ADD MSTORE PUSH2 0x2AC4 DUP2 PUSH2 0x2A8B JUMP JUMPDEST SWAP1 POP SWAP2 SWAP1 POP JUMP JUMPDEST PUSH32 0x757364632061646472657373206E6F7420636F6E666967000000000000000000 PUSH0 DUP3 ADD MSTORE POP JUMP JUMPDEST PUSH0 PUSH2 0x2AFF PUSH1 0x17 DUP4 PUSH2 0x22FC JUMP JUMPDEST SWAP2 POP PUSH2 0x2B0A DUP3 PUSH2 0x2ACB JUMP JUMPDEST PUSH1 0x20 DUP3 ADD SWAP1 POP SWAP2 SWAP1 POP JUMP JUMPDEST PUSH0 PUSH1 0x20 DUP3 ADD SWAP1 POP DUP2 DUP2 SUB PUSH0 DUP4 ADD MSTORE PUSH2 0x2B2C DUP2 PUSH2 0x2AF3 JUMP JUMPDEST SWAP1 POP SWAP2 SWAP1 POP JUMP JUMPDEST PUSH32 0x6574682061646472657373206E6F7420636F6E66696700000000000000000000 PUSH0 DUP3 ADD MSTORE POP JUMP JUMPDEST PUSH0 PUSH2 0x2B67 PUSH1 0x16 DUP4 PUSH2 0x22FC JUMP JUMPDEST SWAP2 POP PUSH2 0x2B72 DUP3 PUSH2 0x2B33 JUMP JUMPDEST PUSH1 0x20 DUP3 ADD SWAP1 POP SWAP2 SWAP1 POP JUMP JUMPDEST PUSH0 PUSH1 0x20 DUP3 ADD SWAP1 POP DUP2 DUP2 SUB PUSH0 DUP4 ADD MSTORE PUSH2 0x2B94 DUP2 PUSH2 0x2B5B JUMP JUMPDEST SWAP1 POP SWAP2 SWAP1 POP JUMP JUMPDEST PUSH32 0x756D692061646472657373206E6F7420636F6E66696700000000000000000000 PUSH0 DUP3 ADD MSTORE POP JUMP JUMPDEST PUSH0 PUSH2 0x2BCF PUSH1 0x16 DUP4 PUSH2 0x22FC JUMP JUMPDEST SWAP2 POP PUSH2 0x2BDA DUP3 PUSH2 0x2B9B JUMP JUMPDEST PUSH1 0x20 DUP3 ADD SWAP1 POP SWAP2 SWAP1 POP JUMP JUMPDEST PUSH0 PUSH1 0x20 DUP3 ADD SWAP1 POP DUP2 DUP2 SUB PUSH0 DUP4 ADD MSTORE PUSH2 0x2BFC DUP2 PUSH2 0x2BC3 JUMP JUMPDEST SWAP1 POP SWAP2 SWAP1 POP JUMP JUMPDEST PUSH0 DUP2 SWAP1 POP DUP2 PUSH0 MSTORE PUSH1 0x20 PUSH0 KECCAK256 SWAP1 POP SWAP2 SWAP1 POP JUMP JUMPDEST PUSH0 PUSH1 0x20 PUSH1 0x1F DUP4 ADD DIV SWAP1 POP SWAP2 SWAP1 POP JUMP JUMPDEST PUSH0 DUP3 DUP3 SHL SWAP1 POP SWAP3 SWAP2 POP POP JUMP JUMPDEST PUSH0 PUSH1 0x8 DUP4 MUL PUSH2 0x2C5F PUSH32 0xFFFFFFFFFFFFFFFFFFFFFFFFFFFFFFFFFFFFFFFFFFFFFFFFFFFFFFFFFFFFFFFF DUP3 PUSH2 0x2C24 JUMP JUMPDEST PUSH2 0x2C69 DUP7 DUP4 PUSH2 0x2C24 JUMP JUMPDEST SWAP6 POP DUP1 NOT DUP5 AND SWAP4 POP DUP1 DUP7 AND DUP5 OR SWAP3 POP POP POP SWAP4 SWAP3 POP POP POP JUMP JUMPDEST PUSH0 PUSH2 0x2C9B PUSH2 0x2C96 PUSH2 0x2C91 DUP5 PUSH2 0x1DBC JUMP JUMPDEST PUSH2 0x2060 JUMP JUMPDEST PUSH2 0x1DBC JUMP JUMPDEST SWAP1 POP SWAP2 SWAP1 POP JUMP JUMPDEST PUSH0 DUP2 SWAP1 POP SWAP2 SWAP1 POP JUMP JUMPDEST PUSH2 0x2CB4 DUP4 PUSH2 0x2C81 JUMP JUMPDEST PUSH2 0x2CC8 PUSH2 0x2CC0 DUP3 PUSH2 0x2CA2 JUMP JUMPDEST DUP5 DUP5 SLOAD PUSH2 0x2C30 JUMP JUMPDEST DUP3 SSTORE POP POP POP POP JUMP JUMPDEST PUSH0 SWAP1 JUMP JUMPDEST PUSH2 0x2CDC PUSH2 0x2CD0 JUMP JUMPDEST PUSH2 0x2CE7 DUP2 DUP5 DUP5 PUSH2 0x2CAB JUMP JUMPDEST POP POP POP JUMP JUMPDEST JUMPDEST DUP2 DUP2 LT ISZERO PUSH2 0x2D0A JUMPI PUSH2 0x2CFF PUSH0 DUP3 PUSH2 0x2CD4 JUMP JUMPDEST PUSH1 0x1 DUP2 ADD SWAP1 POP PUSH2 0x2CED JUMP JUMPDEST POP POP JUMP JUMPDEST PUSH1 0x1F DUP3 GT ISZERO PUSH2 0x2D4F JUMPI PUSH2 0x2D20 DUP2 PUSH2 0x2C03 JUMP JUMPDEST PUSH2 0x2D29 DUP5 PUSH2 0x2C15 JUMP JUMPDEST DUP2 ADD PUSH1 0x20 DUP6 LT ISZERO PUSH2 0x2D38 JUMPI DUP2 SWAP1 POP JUMPDEST PUSH2 0x2D4C PUSH2 0x2D44 DUP6 PUSH2 0x2C15 JUMP JUMPDEST DUP4 ADD DUP3 PUSH2 0x2CEC JUMP JUMPDEST POP POP JUMPDEST POP POP POP JUMP JUMPDEST PUSH0 DUP3 DUP3 SHR SWAP1 POP SWAP3 SWAP2 POP POP JUMP JUMPDEST PUSH0 PUSH2 0x2D6F PUSH0 NOT DUP5 PUSH1 0x8 MUL PUSH2 0x2D54 JUMP JUMPDEST NOT DUP1 DUP4 AND SWAP2 POP POP SWAP3 SWAP2 POP POP JUMP JUMPDEST PUSH0 PUSH2 0x2D87 DUP4 DUP4 PUSH2 0x2D60 JUMP JUMPDEST SWAP2 POP DUP3 PUSH1 0x2 MUL DUP3 OR SWAP1 POP SWAP3 SWAP2 POP POP JUMP JUMPDEST PUSH2 0x2DA0 DUP3 PUSH2 0x22F2 JUMP JUMPDEST PUSH8 0xFFFFFFFFFFFFFFFF DUP2 GT ISZERO PUSH2 0x2DB9 JUMPI PUSH2 0x2DB8 PUSH2 0x1E45 JUMP JUMPDEST JUMPDEST PUSH2 0x2DC3 DUP3 SLOAD PUSH2 0x27CB JUMP JUMPDEST PUSH2 0x2DCE DUP3 DUP3 DUP6 PUSH2 0x2D0E JUMP JUMPDEST PUSH0 PUSH1 0x20 SWAP1 POP PUSH1 0x1F DUP4 GT PUSH1 0x1 DUP2 EQ PUSH2 0x2DFF JUMPI PUSH0 DUP5 ISZERO PUSH2 0x2DED JUMPI DUP3 DUP8 ADD MLOAD SWAP1 POP JUMPDEST PUSH2 0x2DF7 DUP6 DUP3 PUSH2 0x2D7C JUMP JUMPDEST DUP7 SSTORE POP PUSH2 0x2E5E JUMP JUMPDEST PUSH1 0x1F NOT DUP5 AND PUSH2 0x2E0D DUP7 PUSH2 0x2C03 JUMP JUMPDEST PUSH0 JUMPDEST DUP3 DUP2 LT ISZERO PUSH2 0x2E34 JUMPI DUP5 DUP10 ADD MLOAD DUP3 SSTORE PUSH1 0x1 DUP3 ADD SWAP2 POP PUSH1 0x20 DUP6 ADD SWAP5 POP PUSH1 0x20 DUP2 ADD SWAP1 POP PUSH2 0x2E0F JUMP JUMPDEST DUP7 DUP4 LT ISZERO PUSH2 0x2E51 JUMPI DUP5 DUP10 ADD MLOAD PUSH2 0x2E4D PUSH1 0x1F DUP10 AND DUP3 PUSH2 0x2D60 JUMP JUMPDEST DUP4 SSTORE POP JUMPDEST PUSH1 0x1 PUSH1 0x2 DUP9 MUL ADD DUP9 SSTORE POP POP POP JUMPDEST POP POP POP POP POP POP JUMP JUMPDEST PUSH32 0x4E487B7100000000000000000000000000000000000000000000000000000000 PUSH0 MSTORE PUSH1 0x11 PUSH1 0x4 MSTORE PUSH1 0x24 PUSH0 REVERT JUMPDEST PUSH0 PUSH2 0x2E9D DUP3 PUSH2 0x1DBC JUMP JUMPDEST SWAP2 POP PUSH2 0x2EA8 DUP4 PUSH2 0x1DBC JUMP JUMPDEST SWAP3 POP DUP3 DUP3 ADD SWAP1 POP DUP1 DUP3 GT ISZERO PUSH2 0x2EC0 JUMPI PUSH2 0x2EBF PUSH2 0x2E66 JUMP JUMPDEST JUMPDEST SWAP3 SWAP2 POP POP JUMP JUMPDEST PUSH0 DUP2 MLOAD SWAP1 POP SWAP2 SWAP1 POP JUMP JUMPDEST PUSH0 DUP3 DUP3 MSTORE PUSH1 0x20 DUP3 ADD SWAP1 POP SWAP3 SWAP2 POP POP JUMP JUMPDEST PUSH0 PUSH2 0x2EEA DUP3 PUSH2 0x2EC6 JUMP JUMPDEST PUSH2 0x2EF4 DUP2 DUP6 PUSH2 0x2ED0 JUMP JUMPDEST SWAP4 POP PUSH2 0x2F04 DUP2 DUP6 PUSH1 0x20 DUP7 ADD PUSH2 0x230C JUMP JUMPDEST PUSH2 0x2F0D DUP2 PUSH2 0x1E35 JUMP JUMPDEST DUP5 ADD SWAP2 POP POP SWAP3 SWAP2 POP POP JUMP JUMPDEST PUSH0 PUSH1 0x80 DUP3 ADD SWAP1 POP PUSH2 0x2F2B PUSH0 DUP4 ADD DUP8 PUSH2 0x2038 JUMP JUMPDEST PUSH2 0x2F38 PUSH1 0x20 DUP4 ADD DUP7 PUSH2 0x2038 JUMP JUMPDEST DUP2 DUP2 SUB PUSH1 0x40 DUP4 ADD MSTORE PUSH2 0x2F4A DUP2 DUP6 PUSH2 0x2334 JUMP JUMPDEST SWAP1 POP DUP2 DUP2 SUB PUSH1 0x60 DUP4 ADD MSTORE PUSH2 0x2F5E DUP2 DUP5 PUSH2 0x2EE0 JUMP JUMPDEST SWAP1 POP SWAP6 SWAP5 POP POP POP POP POP JUMP JUMPDEST PUSH0 PUSH2 0x2F74 DUP3 DUP5 PUSH2 0x286A JUMP JUMPDEST SWAP2 POP DUP2 SWAP1 POP SWAP3 SWAP2 POP POP JUMP JUMPDEST PUSH32 0x696E76616C6964207369676E6174757265206C656E6774680000000000000000 PUSH0 DUP3 ADD MSTORE POP JUMP JUMPDEST PUSH0 PUSH2 0x2FB3 PUSH1 0x18 DUP4 PUSH2 0x22FC JUMP JUMPDEST SWAP2 POP PUSH2 0x2FBE DUP3 PUSH2 0x2F7F JUMP JUMPDEST PUSH1 0x20 DUP3 ADD SWAP1 POP SWAP2 SWAP1 POP JUMP JUMPDEST PUSH0 PUSH1 0x20 DUP3 ADD SWAP1 POP DUP2 DUP2 SUB PUSH0 DUP4 ADD MSTORE PUSH2 0x2FE0 DUP2 PUSH2 0x2FA7 JUMP JUMPDEST SWAP1 POP SWAP2 SWAP1 POP JUMP JUMPDEST PUSH0 PUSH1 0x60 DUP3 ADD SWAP1 POP PUSH2 0x2FFA PUSH0 DUP4 ADD DUP7 PUSH2 0x20D4 JUMP JUMPDEST PUSH2 0x3007 PUSH1 0x20 DUP4 ADD DUP6 PUSH2 0x20D4 JUMP JUMPDEST PUSH2 0x3014 PUSH1 0x40 DUP4 ADD DUP5 PUSH2 0x2038 JUMP JUMPDEST SWAP5 SWAP4 POP POP POP POP JUMP JUMPDEST PUSH0 PUSH2 0x3026 DUP3 PUSH2 0x1DBC JUMP JUMPDEST SWAP2 POP PUSH2 0x3031 DUP4 PUSH2 0x1DBC JUMP JUMPDEST SWAP3 POP DUP3 DUP3 SUB SWAP1 POP DUP2 DUP2 GT ISZERO PUSH2 0x3049 JUMPI PUSH2 0x3048 PUSH2 0x2E66 JUMP JUMPDEST JUMPDEST SWAP3 SWAP2 POP POP JUMP JUMPDEST PUSH32 0x19457468657265756D205369676E6564204D6573736167653A0A333200000000 PUSH0 DUP3 ADD MSTORE POP JUMP JUMPDEST PUSH0 PUSH2 0x3083 PUSH1 0x1C DUP4 PUSH2 0x2860 JUMP JUMPDEST SWAP2 POP PUSH2 0x308E DUP3 PUSH2 0x304F JUMP JUMPDEST PUSH1 0x1C DUP3 ADD SWAP1 POP SWAP2 SWAP1 POP JUMP JUMPDEST PUSH0 DUP2 SWAP1 POP SWAP2 SWAP1 POP JUMP JUMPDEST PUSH2 0x30B3 PUSH2 0x30AE DUP3 PUSH2 0x219C JUMP JUMPDEST PUSH2 0x3099 JUMP JUMPDEST DUP3 MSTORE POP POP JUMP JUMPDEST PUSH0 PUSH2 0x30C3 DUP3 PUSH2 0x3077 JUMP JUMPDEST SWAP2 POP PUSH2 0x30CF DUP3 DUP5 PUSH2 0x30A2 JUMP JUMPDEST PUSH1 0x20 DUP3 ADD SWAP2 POP DUP2 SWAP1 POP SWAP3 SWAP2 POP POP JUMP JUMPDEST PUSH0 PUSH2 0x30E8 DUP3 PUSH2 0x1DBC JUMP JUMPDEST SWAP2 POP PUSH2 0x30F3 DUP4 PUSH2 0x1DBC JUMP JUMPDEST SWAP3 POP DUP3 DUP3 MUL PUSH2 0x3101 DUP2 PUSH2 0x1DBC JUMP JUMPDEST SWAP2 POP DUP3 DUP3 DIV DUP5 EQ DUP4 ISZERO OR PUSH2 0x3118 JUMPI PUSH2 0x3117 PUSH2 0x2E66 JUMP JUMPDEST JUMPDEST POP SWAP3 SWAP2 POP POP JUMP JUMPDEST PUSH32 0x4E487B7100000000000000000000000000000000000000000000000000000000 PUSH0 MSTORE PUSH1 0x12 PUSH1 0x4 MSTORE PUSH1 0x24 PUSH0 REVERT JUMPDEST PUSH0 PUSH2 0x3156 DUP3 PUSH2 0x1DBC JUMP JUMPDEST SWAP2 POP PUSH2 0x3161 DUP4 PUSH2 0x1DBC JUMP JUMPDEST SWAP3 POP DUP3 PUSH2 0x3171 JUMPI PUSH2 0x3170 PUSH2 0x311F JUMP JUMPDEST JUMPDEST DUP3 DUP3 DIV SWAP1 POP SWAP3 SWAP2 POP POP JUMP JUMPDEST PUSH32 0x536166654D6174683A206D756C7469706C69636174696F6E206F766572666C6F PUSH0 DUP3 ADD MSTORE PUSH32 0x7700000000000000000000000000000000000000000000000000000000000000 PUSH1 0x20 DUP3 ADD MSTORE POP JUMP JUMPDEST PUSH0 PUSH2 0x31D6 PUSH1 0x21 DUP4 PUSH2 0x22FC JUMP JUMPDEST SWAP2 POP PUSH2 0x31E1 DUP3 PUSH2 0x317C JUMP JUMPDEST PUSH1 0x40 DUP3 ADD SWAP1 POP SWAP2 SWAP1 POP JUMP JUMPDEST PUSH0 PUSH1 0x20 DUP3 ADD SWAP1 POP DUP2 DUP2 SUB PUSH0 DUP4 ADD MSTORE PUSH2 0x3203 DUP2 PUSH2 0x31CA JUMP JUMPDEST SWAP1 POP SWAP2 SWAP1 POP JUMP JUMPDEST PUSH0 PUSH1 0x20 DUP3 ADD SWAP1 POP DUP2 DUP2 SUB PUSH0 DUP4 ADD MSTORE PUSH2 0x3222 DUP2 DUP5 PUSH2 0x2334 JUMP JUMPDEST SWAP1 POP SWAP3 SWAP2 POP POP JUMP INVALID LOG2 PUSH5 0x6970667358 0x22 SLT KECCAK256 0xB2 RETURNDATASIZE 0x4E PUSH9 0xD5D3B53A7C90D1A18E 0x2D 0x24 0x4D SLOAD PUSH24 0xB905496ADB4981C24052517D677B64736F6C634300081400 CALLER "
				},
				"gasEstimates": {
					"creation": {
						"codeDepositCost": "2579200",
						"executionCost": "infinite",
						"totalCost": "infinite"
					},
					"external": {
						"config(address,address,address)": "infinite",
						"eth()": "infinite",
						"feeAddress()": "2553",
						"getMessageHash(address,address,uint256,uint256,string,uint256)": "infinite",
						"isTokenSupported(string)": "infinite",
						"isTrustedForwarder(address)": "infinite",
						"nextOrderId()": "2537",
						"orders(uint256)": "infinite",
						"owner()": "2616",
						"presaleFeeToDeveloper()": "2491",
						"presaleFeeToRewardFund()": "2515",
						"presaleFeeToUmi()": "2513",
						"recoverSignerPublic(bytes32,bytes)": "infinite",
						"rewardPoolAddress()": "2531",
						"sendPayment(address,address,uint256,uint256,string,uint256,bytes)": "infinite",
						"setEth(address)": "26949",
						"setFee(uint256,uint256,uint256)": "infinite",
						"setUmi(address)": "26948",
						"setUsdc(address)": "26925",
						"setUsdt(address)": "26970",
						"signerAddress()": "2641",
						"umi()": "infinite",
						"usdc()": "infinite",
						"usdt()": "infinite",
						"withdrawTokens(address,uint256)": "infinite"
					},
					"internal": {
						"compareStrings(string memory,string memory)": "infinite",
						"getEthSignedMessageHash(bytes32)": "infinite",
						"processTrade(contract IERC20,address,address,uint256)": "infinite",
						"recoverSigner(bytes32,bytes memory)": "infinite",
						"splitSignature(bytes memory)": "infinite",
						"verify(address,address,uint256,uint256,string memory,uint256,bytes memory)": "infinite"
					}
				},
				"methodIdentifiers": {
					"config(address,address,address)": "87336111",
					"eth()": "8c7c9e0c",
					"feeAddress()": "41275358",
					"getMessageHash(address,address,uint256,uint256,string,uint256)": "bbb99baa",
					"isTokenSupported(string)": "0d3652ec",
					"isTrustedForwarder(address)": "572b6c05",
					"nextOrderId()": "2a58b330",
					"orders(uint256)": "a85c38ef",
					"owner()": "8da5cb5b",
					"presaleFeeToDeveloper()": "d1faf157",
					"presaleFeeToRewardFund()": "14754e66",
					"presaleFeeToUmi()": "d339db94",
					"recoverSignerPublic(bytes32,bytes)": "9f2585a1",
					"rewardPoolAddress()": "845a51ec",
					"sendPayment(address,address,uint256,uint256,string,uint256,bytes)": "f746a042",
					"setEth(address)": "122c6fd7",
					"setFee(uint256,uint256,uint256)": "5b65b9ab",
					"setUmi(address)": "8b225f06",
					"setUsdc(address)": "cb146879",
					"setUsdt(address)": "58979bfe",
					"signerAddress()": "5b7633d0",
					"umi()": "94dd453a",
					"usdc()": "3e413bee",
					"usdt()": "2f48ab7d",
					"withdrawTokens(address,uint256)": "06b091f9"
				}
			},
			"storageLayout": {
				"storage": [
					{
						"astId": 161,
						"contract": "UmiversePaymentV2.sol:UmiversePaymentV2",
						"label": "owner",
						"offset": 0,
						"slot": "0",
						"type": "t_address"
					},
					{
						"astId": 163,
						"contract": "UmiversePaymentV2.sol:UmiversePaymentV2",
						"label": "signerAddress",
						"offset": 0,
						"slot": "1",
						"type": "t_address"
					},
					{
						"astId": 166,
						"contract": "UmiversePaymentV2.sol:UmiversePaymentV2",
						"label": "presaleFeeToDeveloper",
						"offset": 0,
						"slot": "2",
						"type": "t_uint256"
					},
					{
						"astId": 169,
						"contract": "UmiversePaymentV2.sol:UmiversePaymentV2",
						"label": "presaleFeeToUmi",
						"offset": 0,
						"slot": "3",
						"type": "t_uint256"
					},
					{
						"astId": 172,
						"contract": "UmiversePaymentV2.sol:UmiversePaymentV2",
						"label": "presaleFeeToRewardFund",
						"offset": 0,
						"slot": "4",
						"type": "t_uint256"
					},
					{
						"astId": 174,
						"contract": "UmiversePaymentV2.sol:UmiversePaymentV2",
						"label": "feeAddress",
						"offset": 0,
						"slot": "5",
						"type": "t_address"
					},
					{
						"astId": 176,
						"contract": "UmiversePaymentV2.sol:UmiversePaymentV2",
						"label": "rewardPoolAddress",
						"offset": 0,
						"slot": "6",
						"type": "t_address"
					},
					{
						"astId": 182,
						"contract": "UmiversePaymentV2.sol:UmiversePaymentV2",
						"label": "usdt",
						"offset": 0,
						"slot": "7",
						"type": "t_contract(IERC20)147"
					},
					{
						"astId": 188,
						"contract": "UmiversePaymentV2.sol:UmiversePaymentV2",
						"label": "usdc",
						"offset": 0,
						"slot": "8",
						"type": "t_contract(IERC20)147"
					},
					{
						"astId": 197,
						"contract": "UmiversePaymentV2.sol:UmiversePaymentV2",
						"label": "umi",
						"offset": 0,
						"slot": "9",
						"type": "t_contract(IERC20)147"
					},
					{
						"astId": 206,
						"contract": "UmiversePaymentV2.sol:UmiversePaymentV2",
						"label": "eth",
						"offset": 0,
						"slot": "10",
						"type": "t_contract(IERC20)147"
					},
					{
						"astId": 238,
						"contract": "UmiversePaymentV2.sol:UmiversePaymentV2",
						"label": "orders",
						"offset": 0,
						"slot": "11",
						"type": "t_mapping(t_uint256,t_struct(Order)233_storage)"
					},
					{
						"astId": 241,
						"contract": "UmiversePaymentV2.sol:UmiversePaymentV2",
						"label": "nextOrderId",
						"offset": 0,
						"slot": "12",
						"type": "t_uint256"
					}
				],
				"types": {
					"t_address": {
						"encoding": "inplace",
						"label": "address",
						"numberOfBytes": "20"
					},
					"t_contract(IERC20)147": {
						"encoding": "inplace",
						"label": "contract IERC20",
						"numberOfBytes": "20"
					},
					"t_mapping(t_uint256,t_struct(Order)233_storage)": {
						"encoding": "mapping",
						"key": "t_uint256",
						"label": "mapping(uint256 => struct UmiversePaymentV2.Order)",
						"numberOfBytes": "32",
						"value": "t_struct(Order)233_storage"
					},
					"t_string_storage": {
						"encoding": "bytes",
						"label": "string",
						"numberOfBytes": "32"
					},
					"t_struct(Order)233_storage": {
						"encoding": "inplace",
						"label": "struct UmiversePaymentV2.Order",
						"members": [
							{
								"astId": 224,
								"contract": "UmiversePaymentV2.sol:UmiversePaymentV2",
								"label": "recipient",
								"offset": 0,
								"slot": "0",
								"type": "t_address"
							},
							{
								"astId": 226,
								"contract": "UmiversePaymentV2.sol:UmiversePaymentV2",
								"label": "orderId",
								"offset": 0,
								"slot": "1",
								"type": "t_uint256"
							},
							{
								"astId": 228,
								"contract": "UmiversePaymentV2.sol:UmiversePaymentV2",
								"label": "amount",
								"offset": 0,
								"slot": "2",
								"type": "t_uint256"
							},
							{
								"astId": 230,
								"contract": "UmiversePaymentV2.sol:UmiversePaymentV2",
								"label": "_priceType",
								"offset": 0,
								"slot": "3",
								"type": "t_string_storage"
							},
							{
								"astId": 232,
								"contract": "UmiversePaymentV2.sol:UmiversePaymentV2",
								"label": "timestamp",
								"offset": 0,
								"slot": "4",
								"type": "t_uint256"
							}
						],
						"numberOfBytes": "160"
					},
					"t_uint256": {
						"encoding": "inplace",
						"label": "uint256",
						"numberOfBytes": "32"
					}
				}
			},
			"userdoc": {
				"kind": "user",
				"methods": {},
				"version": 1
			}
		}
	}
}