{
	"UmiverseVerify.sol": {
		"UmiverseVerify": {
			"abi": [
				{
					"inputs": [
						{
							"internalType": "bytes32",
							"name": "_ethSignedMessageHash",
							"type": "bytes32"
						},
						{
							"internalType": "bytes",
							"name": "_signature",
							"type": "bytes"
						}
					],
					"name": "recoverSignerPublic",
					"outputs": [
						{
							"internalType": "address",
							"name": "",
							"type": "address"
						}
					],
					"stateMutability": "pure",
					"type": "function"
				}
			],
			"devdoc": {
				"kind": "dev",
				"methods": {},
				"version": 1
			},
			"evm": {
				"assembly": "    /* \"UmiverseVerify.sol\":90:1386  contract UmiverseVerify {... */\n  mstore(0x40, 0x80)\n  callvalue\n  dup1\n  iszero\n  tag_1\n  jumpi\n  0x00\n  dup1\n  revert\ntag_1:\n  pop\n  dataSize(sub_0)\n  dup1\n  dataOffset(sub_0)\n  0x00\n  codecopy\n  0x00\n  return\nstop\n\nsub_0: assembly {\n        /* \"UmiverseVerify.sol\":90:1386  contract UmiverseVerify {... */\n      mstore(0x40, 0x80)\n      callvalue\n      dup1\n      iszero\n      tag_1\n      jumpi\n      0x00\n      dup1\n      revert\n    tag_1:\n      pop\n      jumpi(tag_2, lt(calldatasize, 0x04))\n      shr(0xe0, calldataload(0x00))\n      dup1\n      0x9f2585a1\n      eq\n      tag_3\n      jumpi\n    tag_2:\n      0x00\n      dup1\n      revert\n        /* \"UmiverseVerify.sol\":717:989  function recoverSignerPublic(... */\n    tag_3:\n      tag_4\n      0x04\n      dup1\n      calldatasize\n      sub\n      dup2\n      add\n      swap1\n      tag_5\n      swap2\n      swap1\n      tag_6\n      jump\t// in\n    tag_5:\n      tag_7\n      jump\t// in\n    tag_4:\n      mload(0x40)\n      tag_8\n      swap2\n      swap1\n      tag_9\n      jump\t// in\n    tag_8:\n      mload(0x40)\n      dup1\n      swap2\n      sub\n      swap1\n      return\n    tag_7:\n        /* \"UmiverseVerify.sol\":845:852  address */\n      0x00\n        /* \"UmiverseVerify.sol\":865:874  bytes32 r */\n      dup1\n        /* \"UmiverseVerify.sol\":876:885  bytes32 s */\n      0x00\n        /* \"UmiverseVerify.sol\":887:894  uint8 v */\n      dup1\n        /* \"UmiverseVerify.sol\":898:924  splitSignature(_signature) */\n      tag_11\n        /* \"UmiverseVerify.sol\":913:923  _signature */\n      dup6\n        /* \"UmiverseVerify.sol\":898:912  splitSignature */\n      tag_12\n        /* \"UmiverseVerify.sol\":898:924  splitSignature(_signature) */\n      jump\t// in\n    tag_11:\n        /* \"UmiverseVerify.sol\":864:924  (bytes32 r, bytes32 s, uint8 v) = splitSignature(_signature) */\n      swap3\n      pop\n      swap3\n      pop\n      swap3\n      pop\n        /* \"UmiverseVerify.sol\":941:982  ecrecover(_ethSignedMessageHash, v, r, s) */\n      0x01\n        /* \"UmiverseVerify.sol\":951:972  _ethSignedMessageHash */\n      dup7\n        /* \"UmiverseVerify.sol\":974:975  v */\n      dup3\n        /* \"UmiverseVerify.sol\":977:978  r */\n      dup6\n        /* \"UmiverseVerify.sol\":980:981  s */\n      dup6\n        /* \"UmiverseVerify.sol\":941:982  ecrecover(_ethSignedMessageHash, v, r, s) */\n      mload(0x40)\n      0x00\n      dup2\n      mstore\n      0x20\n      add\n      0x40\n      mstore\n      mload(0x40)\n      tag_13\n      swap5\n      swap4\n      swap3\n      swap2\n      swap1\n      tag_14\n      jump\t// in\n    tag_13:\n      0x20\n      mload(0x40)\n      0x20\n      dup2\n      sub\n      swap1\n      dup1\n      dup5\n      sub\n      swap1\n      dup6\n      gas\n      staticcall\n      iszero\n      dup1\n      iszero\n      tag_16\n      jumpi\n      returndatasize\n      0x00\n      dup1\n      returndatacopy\n      revert(0x00, returndatasize)\n    tag_16:\n      pop\n      pop\n      pop\n      mload(sub(mload(0x40), 0x20))\n        /* \"UmiverseVerify.sol\":934:982  return ecrecover(_ethSignedMessageHash, v, r, s) */\n      swap4\n      pop\n      pop\n      pop\n      pop\n        /* \"UmiverseVerify.sol\":717:989  function recoverSignerPublic(... */\n      swap3\n      swap2\n      pop\n      pop\n      jump\t// out\n        /* \"UmiverseVerify.sol\":995:1384  function splitSignature(bytes memory sig)... */\n    tag_12:\n        /* \"UmiverseVerify.sol\":1097:1106  bytes32 r */\n      0x00\n        /* \"UmiverseVerify.sol\":1120:1129  bytes32 s */\n      dup1\n        /* \"UmiverseVerify.sol\":1143:1150  uint8 v */\n      0x00\n        /* \"UmiverseVerify.sol\":1197:1199  65 */\n      0x41\n        /* \"UmiverseVerify.sol\":1183:1186  sig */\n      dup5\n        /* \"UmiverseVerify.sol\":1183:1193  sig.length */\n      mload\n        /* \"UmiverseVerify.sol\":1183:1199  sig.length == 65 */\n      eq\n        /* \"UmiverseVerify.sol\":1175:1228  require(sig.length == 65, \"invalid signature length\") */\n      tag_18\n      jumpi\n      mload(0x40)\n      0x08c379a000000000000000000000000000000000000000000000000000000000\n      dup2\n      mstore\n      0x04\n      add\n      tag_19\n      swap1\n      tag_20\n      jump\t// in\n    tag_19:\n      mload(0x40)\n      dup1\n      swap2\n      sub\n      swap1\n      revert\n    tag_18:\n        /* \"UmiverseVerify.sol\":1281:1283  32 */\n      0x20\n        /* \"UmiverseVerify.sol\":1276:1279  sig */\n      dup5\n        /* \"UmiverseVerify.sol\":1272:1284  add(sig, 32) */\n      add\n        /* \"UmiverseVerify.sol\":1266:1285  mload(add(sig, 32)) */\n      mload\n        /* \"UmiverseVerify.sol\":1261:1285  r := mload(add(sig, 32)) */\n      swap3\n      pop\n        /* \"UmiverseVerify.sol\":1318:1320  64 */\n      0x40\n        /* \"UmiverseVerify.sol\":1313:1316  sig */\n      dup5\n        /* \"UmiverseVerify.sol\":1309:1321  add(sig, 64) */\n      add\n        /* \"UmiverseVerify.sol\":1303:1322  mload(add(sig, 64)) */\n      mload\n        /* \"UmiverseVerify.sol\":1298:1322  s := mload(add(sig, 64)) */\n      swap2\n      pop\n        /* \"UmiverseVerify.sol\":1363:1365  96 */\n      0x60\n        /* \"UmiverseVerify.sol\":1358:1361  sig */\n      dup5\n        /* \"UmiverseVerify.sol\":1354:1366  add(sig, 96) */\n      add\n        /* \"UmiverseVerify.sol\":1348:1367  mload(add(sig, 96)) */\n      mload\n        /* \"UmiverseVerify.sol\":1345:1346  0 */\n      0x00\n        /* \"UmiverseVerify.sol\":1340:1368  byte(0, mload(add(sig, 96))) */\n      byte\n        /* \"UmiverseVerify.sol\":1335:1368  v := byte(0, mload(add(sig, 96))) */\n      swap1\n      pop\n        /* \"UmiverseVerify.sol\":995:1384  function splitSignature(bytes memory sig)... */\n      swap2\n      swap4\n      swap1\n      swap3\n      pop\n      jump\t// out\n        /* \"#utility.yul\":7:82   */\n    tag_21:\n        /* \"#utility.yul\":40:46   */\n      0x00\n        /* \"#utility.yul\":73:75   */\n      0x40\n        /* \"#utility.yul\":67:76   */\n      mload\n        /* \"#utility.yul\":57:76   */\n      swap1\n      pop\n        /* \"#utility.yul\":7:82   */\n      swap1\n      jump\t// out\n        /* \"#utility.yul\":88:205   */\n    tag_22:\n        /* \"#utility.yul\":197:198   */\n      0x00\n        /* \"#utility.yul\":194:195   */\n      dup1\n        /* \"#utility.yul\":187:199   */\n      revert\n        /* \"#utility.yul\":211:328   */\n    tag_23:\n        /* \"#utility.yul\":320:321   */\n      0x00\n        /* \"#utility.yul\":317:318   */\n      dup1\n        /* \"#utility.yul\":310:322   */\n      revert\n        /* \"#utility.yul\":334:411   */\n    tag_24:\n        /* \"#utility.yul\":371:378   */\n      0x00\n        /* \"#utility.yul\":400:405   */\n      dup2\n        /* \"#utility.yul\":389:405   */\n      swap1\n      pop\n        /* \"#utility.yul\":334:411   */\n      swap2\n      swap1\n      pop\n      jump\t// out\n        /* \"#utility.yul\":417:539   */\n    tag_25:\n        /* \"#utility.yul\":490:514   */\n      tag_52\n        /* \"#utility.yul\":508:513   */\n      dup2\n        /* \"#utility.yul\":490:514   */\n      tag_24\n      jump\t// in\n    tag_52:\n        /* \"#utility.yul\":483:488   */\n      dup2\n        /* \"#utility.yul\":480:515   */\n      eq\n        /* \"#utility.yul\":470:533   */\n      tag_53\n      jumpi\n        /* \"#utility.yul\":529:530   */\n      0x00\n        /* \"#utility.yul\":526:527   */\n      dup1\n        /* \"#utility.yul\":519:531   */\n      revert\n        /* \"#utility.yul\":470:533   */\n    tag_53:\n        /* \"#utility.yul\":417:539   */\n      pop\n      jump\t// out\n        /* \"#utility.yul\":545:684   */\n    tag_26:\n        /* \"#utility.yul\":591:596   */\n      0x00\n        /* \"#utility.yul\":629:635   */\n      dup2\n        /* \"#utility.yul\":616:636   */\n      calldataload\n        /* \"#utility.yul\":607:636   */\n      swap1\n      pop\n        /* \"#utility.yul\":645:678   */\n      tag_55\n        /* \"#utility.yul\":672:677   */\n      dup2\n        /* \"#utility.yul\":645:678   */\n      tag_25\n      jump\t// in\n    tag_55:\n        /* \"#utility.yul\":545:684   */\n      swap3\n      swap2\n      pop\n      pop\n      jump\t// out\n        /* \"#utility.yul\":690:807   */\n    tag_27:\n        /* \"#utility.yul\":799:800   */\n      0x00\n        /* \"#utility.yul\":796:797   */\n      dup1\n        /* \"#utility.yul\":789:801   */\n      revert\n        /* \"#utility.yul\":813:930   */\n    tag_28:\n        /* \"#utility.yul\":922:923   */\n      0x00\n        /* \"#utility.yul\":919:920   */\n      dup1\n        /* \"#utility.yul\":912:924   */\n      revert\n        /* \"#utility.yul\":936:1038   */\n    tag_29:\n        /* \"#utility.yul\":977:983   */\n      0x00\n        /* \"#utility.yul\":1028:1030   */\n      0x1f\n        /* \"#utility.yul\":1024:1031   */\n      not\n        /* \"#utility.yul\":1019:1021   */\n      0x1f\n        /* \"#utility.yul\":1012:1017   */\n      dup4\n        /* \"#utility.yul\":1008:1022   */\n      add\n        /* \"#utility.yul\":1004:1032   */\n      and\n        /* \"#utility.yul\":994:1032   */\n      swap1\n      pop\n        /* \"#utility.yul\":936:1038   */\n      swap2\n      swap1\n      pop\n      jump\t// out\n        /* \"#utility.yul\":1044:1224   */\n    tag_30:\n        /* \"#utility.yul\":1092:1169   */\n      0x4e487b7100000000000000000000000000000000000000000000000000000000\n        /* \"#utility.yul\":1089:1090   */\n      0x00\n        /* \"#utility.yul\":1082:1170   */\n      mstore\n        /* \"#utility.yul\":1189:1193   */\n      0x41\n        /* \"#utility.yul\":1186:1187   */\n      0x04\n        /* \"#utility.yul\":1179:1194   */\n      mstore\n        /* \"#utility.yul\":1213:1217   */\n      0x24\n        /* \"#utility.yul\":1210:1211   */\n      0x00\n        /* \"#utility.yul\":1203:1218   */\n      revert\n        /* \"#utility.yul\":1230:1511   */\n    tag_31:\n        /* \"#utility.yul\":1313:1340   */\n      tag_61\n        /* \"#utility.yul\":1335:1339   */\n      dup3\n        /* \"#utility.yul\":1313:1340   */\n      tag_29\n      jump\t// in\n    tag_61:\n        /* \"#utility.yul\":1305:1311   */\n      dup2\n        /* \"#utility.yul\":1301:1341   */\n      add\n        /* \"#utility.yul\":1443:1449   */\n      dup2\n        /* \"#utility.yul\":1431:1441   */\n      dup2\n        /* \"#utility.yul\":1428:1450   */\n      lt\n        /* \"#utility.yul\":1407:1425   */\n      0xffffffffffffffff\n        /* \"#utility.yul\":1395:1405   */\n      dup3\n        /* \"#utility.yul\":1392:1426   */\n      gt\n        /* \"#utility.yul\":1389:1451   */\n      or\n        /* \"#utility.yul\":1386:1474   */\n      iszero\n      tag_62\n      jumpi\n        /* \"#utility.yul\":1454:1472   */\n      tag_63\n      tag_30\n      jump\t// in\n    tag_63:\n        /* \"#utility.yul\":1386:1474   */\n    tag_62:\n        /* \"#utility.yul\":1494:1504   */\n      dup1\n        /* \"#utility.yul\":1490:1492   */\n      0x40\n        /* \"#utility.yul\":1483:1505   */\n      mstore\n        /* \"#utility.yul\":1273:1511   */\n      pop\n        /* \"#utility.yul\":1230:1511   */\n      pop\n      pop\n      jump\t// out\n        /* \"#utility.yul\":1517:1646   */\n    tag_32:\n        /* \"#utility.yul\":1551:1557   */\n      0x00\n        /* \"#utility.yul\":1578:1598   */\n      tag_65\n      tag_21\n      jump\t// in\n    tag_65:\n        /* \"#utility.yul\":1568:1598   */\n      swap1\n      pop\n        /* \"#utility.yul\":1607:1640   */\n      tag_66\n        /* \"#utility.yul\":1635:1639   */\n      dup3\n        /* \"#utility.yul\":1627:1633   */\n      dup3\n        /* \"#utility.yul\":1607:1640   */\n      tag_31\n      jump\t// in\n    tag_66:\n        /* \"#utility.yul\":1517:1646   */\n      swap2\n      swap1\n      pop\n      jump\t// out\n        /* \"#utility.yul\":1652:1959   */\n    tag_33:\n        /* \"#utility.yul\":1713:1717   */\n      0x00\n        /* \"#utility.yul\":1803:1821   */\n      0xffffffffffffffff\n        /* \"#utility.yul\":1795:1801   */\n      dup3\n        /* \"#utility.yul\":1792:1822   */\n      gt\n        /* \"#utility.yul\":1789:1845   */\n      iszero\n      tag_68\n      jumpi\n        /* \"#utility.yul\":1825:1843   */\n      tag_69\n      tag_30\n      jump\t// in\n    tag_69:\n        /* \"#utility.yul\":1789:1845   */\n    tag_68:\n        /* \"#utility.yul\":1863:1892   */\n      tag_70\n        /* \"#utility.yul\":1885:1891   */\n      dup3\n        /* \"#utility.yul\":1863:1892   */\n      tag_29\n      jump\t// in\n    tag_70:\n        /* \"#utility.yul\":1855:1892   */\n      swap1\n      pop\n        /* \"#utility.yul\":1947:1951   */\n      0x20\n        /* \"#utility.yul\":1941:1945   */\n      dup2\n        /* \"#utility.yul\":1937:1952   */\n      add\n        /* \"#utility.yul\":1929:1952   */\n      swap1\n      pop\n        /* \"#utility.yul\":1652:1959   */\n      swap2\n      swap1\n      pop\n      jump\t// out\n        /* \"#utility.yul\":1965:2119   */\n    tag_34:\n        /* \"#utility.yul\":2049:2055   */\n      dup3\n        /* \"#utility.yul\":2044:2047   */\n      dup2\n        /* \"#utility.yul\":2039:2042   */\n      dup4\n        /* \"#utility.yul\":2026:2056   */\n      calldatacopy\n        /* \"#utility.yul\":2111:2112   */\n      0x00\n        /* \"#utility.yul\":2102:2108   */\n      dup4\n        /* \"#utility.yul\":2097:2100   */\n      dup4\n        /* \"#utility.yul\":2093:2109   */\n      add\n        /* \"#utility.yul\":2086:2113   */\n      mstore\n        /* \"#utility.yul\":1965:2119   */\n      pop\n      pop\n      pop\n      jump\t// out\n        /* \"#utility.yul\":2125:2535   */\n    tag_35:\n        /* \"#utility.yul\":2202:2207   */\n      0x00\n        /* \"#utility.yul\":2227:2292   */\n      tag_73\n        /* \"#utility.yul\":2243:2291   */\n      tag_74\n        /* \"#utility.yul\":2284:2290   */\n      dup5\n        /* \"#utility.yul\":2243:2291   */\n      tag_33\n      jump\t// in\n    tag_74:\n        /* \"#utility.yul\":2227:2292   */\n      tag_32\n      jump\t// in\n    tag_73:\n        /* \"#utility.yul\":2218:2292   */\n      swap1\n      pop\n        /* \"#utility.yul\":2315:2321   */\n      dup3\n        /* \"#utility.yul\":2308:2313   */\n      dup2\n        /* \"#utility.yul\":2301:2322   */\n      mstore\n        /* \"#utility.yul\":2353:2357   */\n      0x20\n        /* \"#utility.yul\":2346:2351   */\n      dup2\n        /* \"#utility.yul\":2342:2358   */\n      add\n        /* \"#utility.yul\":2391:2394   */\n      dup5\n        /* \"#utility.yul\":2382:2388   */\n      dup5\n        /* \"#utility.yul\":2377:2380   */\n      dup5\n        /* \"#utility.yul\":2373:2389   */\n      add\n        /* \"#utility.yul\":2370:2395   */\n      gt\n        /* \"#utility.yul\":2367:2479   */\n      iszero\n      tag_75\n      jumpi\n        /* \"#utility.yul\":2398:2477   */\n      tag_76\n      tag_28\n      jump\t// in\n    tag_76:\n        /* \"#utility.yul\":2367:2479   */\n    tag_75:\n        /* \"#utility.yul\":2488:2529   */\n      tag_77\n        /* \"#utility.yul\":2522:2528   */\n      dup5\n        /* \"#utility.yul\":2517:2520   */\n      dup3\n        /* \"#utility.yul\":2512:2515   */\n      dup6\n        /* \"#utility.yul\":2488:2529   */\n      tag_34\n      jump\t// in\n    tag_77:\n        /* \"#utility.yul\":2208:2535   */\n      pop\n        /* \"#utility.yul\":2125:2535   */\n      swap4\n      swap3\n      pop\n      pop\n      pop\n      jump\t// out\n        /* \"#utility.yul\":2554:2892   */\n    tag_36:\n        /* \"#utility.yul\":2609:2614   */\n      0x00\n        /* \"#utility.yul\":2658:2661   */\n      dup3\n        /* \"#utility.yul\":2651:2655   */\n      0x1f\n        /* \"#utility.yul\":2643:2649   */\n      dup4\n        /* \"#utility.yul\":2639:2656   */\n      add\n        /* \"#utility.yul\":2635:2662   */\n      slt\n        /* \"#utility.yul\":2625:2747   */\n      tag_79\n      jumpi\n        /* \"#utility.yul\":2666:2745   */\n      tag_80\n      tag_27\n      jump\t// in\n    tag_80:\n        /* \"#utility.yul\":2625:2747   */\n    tag_79:\n        /* \"#utility.yul\":2783:2789   */\n      dup2\n        /* \"#utility.yul\":2770:2790   */\n      calldataload\n        /* \"#utility.yul\":2808:2886   */\n      tag_81\n        /* \"#utility.yul\":2882:2885   */\n      dup5\n        /* \"#utility.yul\":2874:2880   */\n      dup3\n        /* \"#utility.yul\":2867:2871   */\n      0x20\n        /* \"#utility.yul\":2859:2865   */\n      dup7\n        /* \"#utility.yul\":2855:2872   */\n      add\n        /* \"#utility.yul\":2808:2886   */\n      tag_35\n      jump\t// in\n    tag_81:\n        /* \"#utility.yul\":2799:2886   */\n      swap2\n      pop\n        /* \"#utility.yul\":2615:2892   */\n      pop\n        /* \"#utility.yul\":2554:2892   */\n      swap3\n      swap2\n      pop\n      pop\n      jump\t// out\n        /* \"#utility.yul\":2898:3550   */\n    tag_6:\n        /* \"#utility.yul\":2975:2981   */\n      0x00\n        /* \"#utility.yul\":2983:2989   */\n      dup1\n        /* \"#utility.yul\":3032:3034   */\n      0x40\n        /* \"#utility.yul\":3020:3029   */\n      dup4\n        /* \"#utility.yul\":3011:3018   */\n      dup6\n        /* \"#utility.yul\":3007:3030   */\n      sub\n        /* \"#utility.yul\":3003:3035   */\n      slt\n        /* \"#utility.yul\":3000:3119   */\n      iszero\n      tag_83\n      jumpi\n        /* \"#utility.yul\":3038:3117   */\n      tag_84\n      tag_22\n      jump\t// in\n    tag_84:\n        /* \"#utility.yul\":3000:3119   */\n    tag_83:\n        /* \"#utility.yul\":3158:3159   */\n      0x00\n        /* \"#utility.yul\":3183:3236   */\n      tag_85\n        /* \"#utility.yul\":3228:3235   */\n      dup6\n        /* \"#utility.yul\":3219:3225   */\n      dup3\n        /* \"#utility.yul\":3208:3217   */\n      dup7\n        /* \"#utility.yul\":3204:3226   */\n      add\n        /* \"#utility.yul\":3183:3236   */\n      tag_26\n      jump\t// in\n    tag_85:\n        /* \"#utility.yul\":3173:3236   */\n      swap3\n      pop\n        /* \"#utility.yul\":3129:3246   */\n      pop\n        /* \"#utility.yul\":3313:3315   */\n      0x20\n        /* \"#utility.yul\":3302:3311   */\n      dup4\n        /* \"#utility.yul\":3298:3316   */\n      add\n        /* \"#utility.yul\":3285:3317   */\n      calldataload\n        /* \"#utility.yul\":3344:3362   */\n      0xffffffffffffffff\n        /* \"#utility.yul\":3336:3342   */\n      dup2\n        /* \"#utility.yul\":3333:3363   */\n      gt\n        /* \"#utility.yul\":3330:3447   */\n      iszero\n      tag_86\n      jumpi\n        /* \"#utility.yul\":3366:3445   */\n      tag_87\n      tag_23\n      jump\t// in\n    tag_87:\n        /* \"#utility.yul\":3330:3447   */\n    tag_86:\n        /* \"#utility.yul\":3471:3533   */\n      tag_88\n        /* \"#utility.yul\":3525:3532   */\n      dup6\n        /* \"#utility.yul\":3516:3522   */\n      dup3\n        /* \"#utility.yul\":3505:3514   */\n      dup7\n        /* \"#utility.yul\":3501:3523   */\n      add\n        /* \"#utility.yul\":3471:3533   */\n      tag_36\n      jump\t// in\n    tag_88:\n        /* \"#utility.yul\":3461:3533   */\n      swap2\n      pop\n        /* \"#utility.yul\":3256:3543   */\n      pop\n        /* \"#utility.yul\":2898:3550   */\n      swap3\n      pop\n      swap3\n      swap1\n      pop\n      jump\t// out\n        /* \"#utility.yul\":3556:3682   */\n    tag_37:\n        /* \"#utility.yul\":3593:3600   */\n      0x00\n        /* \"#utility.yul\":3633:3675   */\n      0xffffffffffffffffffffffffffffffffffffffff\n        /* \"#utility.yul\":3626:3631   */\n      dup3\n        /* \"#utility.yul\":3622:3676   */\n      and\n        /* \"#utility.yul\":3611:3676   */\n      swap1\n      pop\n        /* \"#utility.yul\":3556:3682   */\n      swap2\n      swap1\n      pop\n      jump\t// out\n        /* \"#utility.yul\":3688:3784   */\n    tag_38:\n        /* \"#utility.yul\":3725:3732   */\n      0x00\n        /* \"#utility.yul\":3754:3778   */\n      tag_91\n        /* \"#utility.yul\":3772:3777   */\n      dup3\n        /* \"#utility.yul\":3754:3778   */\n      tag_37\n      jump\t// in\n    tag_91:\n        /* \"#utility.yul\":3743:3778   */\n      swap1\n      pop\n        /* \"#utility.yul\":3688:3784   */\n      swap2\n      swap1\n      pop\n      jump\t// out\n        /* \"#utility.yul\":3790:3908   */\n    tag_39:\n        /* \"#utility.yul\":3877:3901   */\n      tag_93\n        /* \"#utility.yul\":3895:3900   */\n      dup2\n        /* \"#utility.yul\":3877:3901   */\n      tag_38\n      jump\t// in\n    tag_93:\n        /* \"#utility.yul\":3872:3875   */\n      dup3\n        /* \"#utility.yul\":3865:3902   */\n      mstore\n        /* \"#utility.yul\":3790:3908   */\n      pop\n      pop\n      jump\t// out\n        /* \"#utility.yul\":3914:4136   */\n    tag_9:\n        /* \"#utility.yul\":4007:4011   */\n      0x00\n        /* \"#utility.yul\":4045:4047   */\n      0x20\n        /* \"#utility.yul\":4034:4043   */\n      dup3\n        /* \"#utility.yul\":4030:4048   */\n      add\n        /* \"#utility.yul\":4022:4048   */\n      swap1\n      pop\n        /* \"#utility.yul\":4058:4129   */\n      tag_95\n        /* \"#utility.yul\":4126:4127   */\n      0x00\n        /* \"#utility.yul\":4115:4124   */\n      dup4\n        /* \"#utility.yul\":4111:4128   */\n      add\n        /* \"#utility.yul\":4102:4108   */\n      dup5\n        /* \"#utility.yul\":4058:4129   */\n      tag_39\n      jump\t// in\n    tag_95:\n        /* \"#utility.yul\":3914:4136   */\n      swap3\n      swap2\n      pop\n      pop\n      jump\t// out\n        /* \"#utility.yul\":4142:4260   */\n    tag_40:\n        /* \"#utility.yul\":4229:4253   */\n      tag_97\n        /* \"#utility.yul\":4247:4252   */\n      dup2\n        /* \"#utility.yul\":4229:4253   */\n      tag_24\n      jump\t// in\n    tag_97:\n        /* \"#utility.yul\":4224:4227   */\n      dup3\n        /* \"#utility.yul\":4217:4254   */\n      mstore\n        /* \"#utility.yul\":4142:4260   */\n      pop\n      pop\n      jump\t// out\n        /* \"#utility.yul\":4266:4352   */\n    tag_41:\n        /* \"#utility.yul\":4301:4308   */\n      0x00\n        /* \"#utility.yul\":4341:4345   */\n      0xff\n        /* \"#utility.yul\":4334:4339   */\n      dup3\n        /* \"#utility.yul\":4330:4346   */\n      and\n        /* \"#utility.yul\":4319:4346   */\n      swap1\n      pop\n        /* \"#utility.yul\":4266:4352   */\n      swap2\n      swap1\n      pop\n      jump\t// out\n        /* \"#utility.yul\":4358:4470   */\n    tag_42:\n        /* \"#utility.yul\":4441:4463   */\n      tag_100\n        /* \"#utility.yul\":4457:4462   */\n      dup2\n        /* \"#utility.yul\":4441:4463   */\n      tag_41\n      jump\t// in\n    tag_100:\n        /* \"#utility.yul\":4436:4439   */\n      dup3\n        /* \"#utility.yul\":4429:4464   */\n      mstore\n        /* \"#utility.yul\":4358:4470   */\n      pop\n      pop\n      jump\t// out\n        /* \"#utility.yul\":4476:5021   */\n    tag_14:\n        /* \"#utility.yul\":4649:4653   */\n      0x00\n        /* \"#utility.yul\":4687:4690   */\n      0x80\n        /* \"#utility.yul\":4676:4685   */\n      dup3\n        /* \"#utility.yul\":4672:4691   */\n      add\n        /* \"#utility.yul\":4664:4691   */\n      swap1\n      pop\n        /* \"#utility.yul\":4701:4772   */\n      tag_102\n        /* \"#utility.yul\":4769:4770   */\n      0x00\n        /* \"#utility.yul\":4758:4767   */\n      dup4\n        /* \"#utility.yul\":4754:4771   */\n      add\n        /* \"#utility.yul\":4745:4751   */\n      dup8\n        /* \"#utility.yul\":4701:4772   */\n      tag_40\n      jump\t// in\n    tag_102:\n        /* \"#utility.yul\":4782:4850   */\n      tag_103\n        /* \"#utility.yul\":4846:4848   */\n      0x20\n        /* \"#utility.yul\":4835:4844   */\n      dup4\n        /* \"#utility.yul\":4831:4849   */\n      add\n        /* \"#utility.yul\":4822:4828   */\n      dup7\n        /* \"#utility.yul\":4782:4850   */\n      tag_42\n      jump\t// in\n    tag_103:\n        /* \"#utility.yul\":4860:4932   */\n      tag_104\n        /* \"#utility.yul\":4928:4930   */\n      0x40\n        /* \"#utility.yul\":4917:4926   */\n      dup4\n        /* \"#utility.yul\":4913:4931   */\n      add\n        /* \"#utility.yul\":4904:4910   */\n      dup6\n        /* \"#utility.yul\":4860:4932   */\n      tag_40\n      jump\t// in\n    tag_104:\n        /* \"#utility.yul\":4942:5014   */\n      tag_105\n        /* \"#utility.yul\":5010:5012   */\n      0x60\n        /* \"#utility.yul\":4999:5008   */\n      dup4\n        /* \"#utility.yul\":4995:5013   */\n      add\n        /* \"#utility.yul\":4986:4992   */\n      dup5\n        /* \"#utility.yul\":4942:5014   */\n      tag_40\n      jump\t// in\n    tag_105:\n        /* \"#utility.yul\":4476:5021   */\n      swap6\n      swap5\n      pop\n      pop\n      pop\n      pop\n      pop\n      jump\t// out\n        /* \"#utility.yul\":5027:5196   */\n    tag_43:\n        /* \"#utility.yul\":5111:5122   */\n      0x00\n        /* \"#utility.yul\":5145:5151   */\n      dup3\n        /* \"#utility.yul\":5140:5143   */\n      dup3\n        /* \"#utility.yul\":5133:5152   */\n      mstore\n        /* \"#utility.yul\":5185:5189   */\n      0x20\n        /* \"#utility.yul\":5180:5183   */\n      dup3\n        /* \"#utility.yul\":5176:5190   */\n      add\n        /* \"#utility.yul\":5161:5190   */\n      swap1\n      pop\n        /* \"#utility.yul\":5027:5196   */\n      swap3\n      swap2\n      pop\n      pop\n      jump\t// out\n        /* \"#utility.yul\":5202:5376   */\n    tag_44:\n        /* \"#utility.yul\":5342:5368   */\n      0x696e76616c6964207369676e6174757265206c656e6774680000000000000000\n        /* \"#utility.yul\":5338:5339   */\n      0x00\n        /* \"#utility.yul\":5330:5336   */\n      dup3\n        /* \"#utility.yul\":5326:5340   */\n      add\n        /* \"#utility.yul\":5319:5369   */\n      mstore\n        /* \"#utility.yul\":5202:5376   */\n      pop\n      jump\t// out\n        /* \"#utility.yul\":5382:5748   */\n    tag_45:\n        /* \"#utility.yul\":5524:5527   */\n      0x00\n        /* \"#utility.yul\":5545:5612   */\n      tag_109\n        /* \"#utility.yul\":5609:5611   */\n      0x18\n        /* \"#utility.yul\":5604:5607   */\n      dup4\n        /* \"#utility.yul\":5545:5612   */\n      tag_43\n      jump\t// in\n    tag_109:\n        /* \"#utility.yul\":5538:5612   */\n      swap2\n      pop\n        /* \"#utility.yul\":5621:5714   */\n      tag_110\n        /* \"#utility.yul\":5710:5713   */\n      dup3\n        /* \"#utility.yul\":5621:5714   */\n      tag_44\n      jump\t// in\n    tag_110:\n        /* \"#utility.yul\":5739:5741   */\n      0x20\n        /* \"#utility.yul\":5734:5737   */\n      dup3\n        /* \"#utility.yul\":5730:5742   */\n      add\n        /* \"#utility.yul\":5723:5742   */\n      swap1\n      pop\n        /* \"#utility.yul\":5382:5748   */\n      swap2\n      swap1\n      pop\n      jump\t// out\n        /* \"#utility.yul\":5754:6173   */\n    tag_20:\n        /* \"#utility.yul\":5920:5924   */\n      0x00\n        /* \"#utility.yul\":5958:5960   */\n      0x20\n        /* \"#utility.yul\":5947:5956   */\n      dup3\n        /* \"#utility.yul\":5943:5961   */\n      add\n        /* \"#utility.yul\":5935:5961   */\n      swap1\n      pop\n        /* \"#utility.yul\":6007:6016   */\n      dup2\n        /* \"#utility.yul\":6001:6005   */\n      dup2\n        /* \"#utility.yul\":5997:6017   */\n      sub\n        /* \"#utility.yul\":5993:5994   */\n      0x00\n        /* \"#utility.yul\":5982:5991   */\n      dup4\n        /* \"#utility.yul\":5978:5995   */\n      add\n        /* \"#utility.yul\":5971:6018   */\n      mstore\n        /* \"#utility.yul\":6035:6166   */\n      tag_112\n        /* \"#utility.yul\":6161:6165   */\n      dup2\n        /* \"#utility.yul\":6035:6166   */\n      tag_45\n      jump\t// in\n    tag_112:\n        /* \"#utility.yul\":6027:6166   */\n      swap1\n      pop\n        /* \"#utility.yul\":5754:6173   */\n      swap2\n      swap1\n      pop\n      jump\t// out\n\n    auxdata: 0xa2646970667358221220af1fcbdc41dd12f978bf2493228dc62394b62fb71ea54e1239ef99d53176332c64736f6c634300080d0033\n}\n",
				"bytecode": {
					"linkReferences": {},
					"object": "608060405234801561001057600080fd5b506104a2806100206000396000f3fe608060405234801561001057600080fd5b506004361061002b5760003560e01c80639f2585a114610030575b600080fd5b61004a600480360381019061004591906102c7565b610060565b6040516100579190610364565b60405180910390f35b60008060008061006f856100cf565b9250925092506001868285856040516000815260200160405260405161009894939291906103aa565b6020604051602081039080840390855afa1580156100ba573d6000803e3d6000fd5b50505060206040510351935050505092915050565b60008060006041845114610118576040517f08c379a000000000000000000000000000000000000000000000000000000000815260040161010f9061044c565b60405180910390fd5b6020840151925060408401519150606084015160001a90509193909250565b6000604051905090565b600080fd5b600080fd5b6000819050919050565b61015e8161014b565b811461016957600080fd5b50565b60008135905061017b81610155565b92915050565b600080fd5b600080fd5b6000601f19601f8301169050919050565b7f4e487b7100000000000000000000000000000000000000000000000000000000600052604160045260246000fd5b6101d48261018b565b810181811067ffffffffffffffff821117156101f3576101f261019c565b5b80604052505050565b6000610206610137565b905061021282826101cb565b919050565b600067ffffffffffffffff8211156102325761023161019c565b5b61023b8261018b565b9050602081019050919050565b82818337600083830152505050565b600061026a61026584610217565b6101fc565b90508281526020810184848401111561028657610285610186565b5b610291848285610248565b509392505050565b600082601f8301126102ae576102ad610181565b5b81356102be848260208601610257565b91505092915050565b600080604083850312156102de576102dd610141565b5b60006102ec8582860161016c565b925050602083013567ffffffffffffffff81111561030d5761030c610146565b5b61031985828601610299565b9150509250929050565b600073ffffffffffffffffffffffffffffffffffffffff82169050919050565b600061034e82610323565b9050919050565b61035e81610343565b82525050565b60006020820190506103796000830184610355565b92915050565b6103888161014b565b82525050565b600060ff82169050919050565b6103a48161038e565b82525050565b60006080820190506103bf600083018761037f565b6103cc602083018661039b565b6103d9604083018561037f565b6103e6606083018461037f565b95945050505050565b600082825260208201905092915050565b7f696e76616c6964207369676e6174757265206c656e6774680000000000000000600082015250565b60006104366018836103ef565b915061044182610400565b602082019050919050565b6000602082019050818103600083015261046581610429565b905091905056fea2646970667358221220af1fcbdc41dd12f978bf2493228dc62394b62fb71ea54e1239ef99d53176332c64736f6c634300080d0033",
					"opcodes": "PUSH1 0x80 PUSH1 0x40 MSTORE CALLVALUE DUP1 ISZERO PUSH2 0x10 JUMPI PUSH1 0x0 DUP1 REVERT JUMPDEST POP PUSH2 0x4A2 DUP1 PUSH2 0x20 PUSH1 0x0 CODECOPY PUSH1 0x0 RETURN INVALID PUSH1 0x80 PUSH1 0x40 MSTORE CALLVALUE DUP1 ISZERO PUSH2 0x10 JUMPI PUSH1 0x0 DUP1 REVERT JUMPDEST POP PUSH1 0x4 CALLDATASIZE LT PUSH2 0x2B JUMPI PUSH1 0x0 CALLDATALOAD PUSH1 0xE0 SHR DUP1 PUSH4 0x9F2585A1 EQ PUSH2 0x30 JUMPI JUMPDEST PUSH1 0x0 DUP1 REVERT JUMPDEST PUSH2 0x4A PUSH1 0x4 DUP1 CALLDATASIZE SUB DUP2 ADD SWAP1 PUSH2 0x45 SWAP2 SWAP1 PUSH2 0x2C7 JUMP JUMPDEST PUSH2 0x60 JUMP JUMPDEST PUSH1 0x40 MLOAD PUSH2 0x57 SWAP2 SWAP1 PUSH2 0x364 JUMP JUMPDEST PUSH1 0x40 MLOAD DUP1 SWAP2 SUB SWAP1 RETURN JUMPDEST PUSH1 0x0 DUP1 PUSH1 0x0 DUP1 PUSH2 0x6F DUP6 PUSH2 0xCF JUMP JUMPDEST SWAP3 POP SWAP3 POP SWAP3 POP PUSH1 0x1 DUP7 DUP3 DUP6 DUP6 PUSH1 0x40 MLOAD PUSH1 0x0 DUP2 MSTORE PUSH1 0x20 ADD PUSH1 0x40 MSTORE PUSH1 0x40 MLOAD PUSH2 0x98 SWAP5 SWAP4 SWAP3 SWAP2 SWAP1 PUSH2 0x3AA JUMP JUMPDEST PUSH1 0x20 PUSH1 0x40 MLOAD PUSH1 0x20 DUP2 SUB SWAP1 DUP1 DUP5 SUB SWAP1 DUP6 GAS STATICCALL ISZERO DUP1 ISZERO PUSH2 0xBA JUMPI RETURNDATASIZE PUSH1 0x0 DUP1 RETURNDATACOPY RETURNDATASIZE PUSH1 0x0 REVERT JUMPDEST POP POP POP PUSH1 0x20 PUSH1 0x40 MLOAD SUB MLOAD SWAP4 POP POP POP POP SWAP3 SWAP2 POP POP JUMP JUMPDEST PUSH1 0x0 DUP1 PUSH1 0x0 PUSH1 0x41 DUP5 MLOAD EQ PUSH2 0x118 JUMPI PUSH1 0x40 MLOAD PUSH32 0x8C379A000000000000000000000000000000000000000000000000000000000 DUP2 MSTORE PUSH1 0x4 ADD PUSH2 0x10F SWAP1 PUSH2 0x44C JUMP JUMPDEST PUSH1 0x40 MLOAD DUP1 SWAP2 SUB SWAP1 REVERT JUMPDEST PUSH1 0x20 DUP5 ADD MLOAD SWAP3 POP PUSH1 0x40 DUP5 ADD MLOAD SWAP2 POP PUSH1 0x60 DUP5 ADD MLOAD PUSH1 0x0 BYTE SWAP1 POP SWAP2 SWAP4 SWAP1 SWAP3 POP JUMP JUMPDEST PUSH1 0x0 PUSH1 0x40 MLOAD SWAP1 POP SWAP1 JUMP JUMPDEST PUSH1 0x0 DUP1 REVERT JUMPDEST PUSH1 0x0 DUP1 REVERT JUMPDEST PUSH1 0x0 DUP2 SWAP1 POP SWAP2 SWAP1 POP JUMP JUMPDEST PUSH2 0x15E DUP2 PUSH2 0x14B JUMP JUMPDEST DUP2 EQ PUSH2 0x169 JUMPI PUSH1 0x0 DUP1 REVERT JUMPDEST POP JUMP JUMPDEST PUSH1 0x0 DUP2 CALLDATALOAD SWAP1 POP PUSH2 0x17B DUP2 PUSH2 0x155 JUMP JUMPDEST SWAP3 SWAP2 POP POP JUMP JUMPDEST PUSH1 0x0 DUP1 REVERT JUMPDEST PUSH1 0x0 DUP1 REVERT JUMPDEST PUSH1 0x0 PUSH1 0x1F NOT PUSH1 0x1F DUP4 ADD AND SWAP1 POP SWAP2 SWAP1 POP JUMP JUMPDEST PUSH32 0x4E487B7100000000000000000000000000000000000000000000000000000000 PUSH1 0x0 MSTORE PUSH1 0x41 PUSH1 0x4 MSTORE PUSH1 0x24 PUSH1 0x0 REVERT JUMPDEST PUSH2 0x1D4 DUP3 PUSH2 0x18B JUMP JUMPDEST DUP2 ADD DUP2 DUP2 LT PUSH8 0xFFFFFFFFFFFFFFFF DUP3 GT OR ISZERO PUSH2 0x1F3 JUMPI PUSH2 0x1F2 PUSH2 0x19C JUMP JUMPDEST JUMPDEST DUP1 PUSH1 0x40 MSTORE POP POP POP JUMP JUMPDEST PUSH1 0x0 PUSH2 0x206 PUSH2 0x137 JUMP JUMPDEST SWAP1 POP PUSH2 0x212 DUP3 DUP3 PUSH2 0x1CB JUMP JUMPDEST SWAP2 SWAP1 POP JUMP JUMPDEST PUSH1 0x0 PUSH8 0xFFFFFFFFFFFFFFFF DUP3 GT ISZERO PUSH2 0x232 JUMPI PUSH2 0x231 PUSH2 0x19C JUMP JUMPDEST JUMPDEST PUSH2 0x23B DUP3 PUSH2 0x18B JUMP JUMPDEST SWAP1 POP PUSH1 0x20 DUP2 ADD SWAP1 POP SWAP2 SWAP1 POP JUMP JUMPDEST DUP3 DUP2 DUP4 CALLDATACOPY PUSH1 0x0 DUP4 DUP4 ADD MSTORE POP POP POP JUMP JUMPDEST PUSH1 0x0 PUSH2 0x26A PUSH2 0x265 DUP5 PUSH2 0x217 JUMP JUMPDEST PUSH2 0x1FC JUMP JUMPDEST SWAP1 POP DUP3 DUP2 MSTORE PUSH1 0x20 DUP2 ADD DUP5 DUP5 DUP5 ADD GT ISZERO PUSH2 0x286 JUMPI PUSH2 0x285 PUSH2 0x186 JUMP JUMPDEST JUMPDEST PUSH2 0x291 DUP5 DUP3 DUP6 PUSH2 0x248 JUMP JUMPDEST POP SWAP4 SWAP3 POP POP POP JUMP JUMPDEST PUSH1 0x0 DUP3 PUSH1 0x1F DUP4 ADD SLT PUSH2 0x2AE JUMPI PUSH2 0x2AD PUSH2 0x181 JUMP JUMPDEST JUMPDEST DUP2 CALLDATALOAD PUSH2 0x2BE DUP5 DUP3 PUSH1 0x20 DUP7 ADD PUSH2 0x257 JUMP JUMPDEST SWAP2 POP POP SWAP3 SWAP2 POP POP JUMP JUMPDEST PUSH1 0x0 DUP1 PUSH1 0x40 DUP4 DUP6 SUB SLT ISZERO PUSH2 0x2DE JUMPI PUSH2 0x2DD PUSH2 0x141 JUMP JUMPDEST JUMPDEST PUSH1 0x0 PUSH2 0x2EC DUP6 DUP3 DUP7 ADD PUSH2 0x16C JUMP JUMPDEST SWAP3 POP POP PUSH1 0x20 DUP4 ADD CALLDATALOAD PUSH8 0xFFFFFFFFFFFFFFFF DUP2 GT ISZERO PUSH2 0x30D JUMPI PUSH2 0x30C PUSH2 0x146 JUMP JUMPDEST JUMPDEST PUSH2 0x319 DUP6 DUP3 DUP7 ADD PUSH2 0x299 JUMP JUMPDEST SWAP2 POP POP SWAP3 POP SWAP3 SWAP1 POP JUMP JUMPDEST PUSH1 0x0 PUSH20 0xFFFFFFFFFFFFFFFFFFFFFFFFFFFFFFFFFFFFFFFF DUP3 AND SWAP1 POP SWAP2 SWAP1 POP JUMP JUMPDEST PUSH1 0x0 PUSH2 0x34E DUP3 PUSH2 0x323 JUMP JUMPDEST SWAP1 POP SWAP2 SWAP1 POP JUMP JUMPDEST PUSH2 0x35E DUP2 PUSH2 0x343 JUMP JUMPDEST DUP3 MSTORE POP POP JUMP JUMPDEST PUSH1 0x0 PUSH1 0x20 DUP3 ADD SWAP1 POP PUSH2 0x379 PUSH1 0x0 DUP4 ADD DUP5 PUSH2 0x355 JUMP JUMPDEST SWAP3 SWAP2 POP POP JUMP JUMPDEST PUSH2 0x388 DUP2 PUSH2 0x14B JUMP JUMPDEST DUP3 MSTORE POP POP JUMP JUMPDEST PUSH1 0x0 PUSH1 0xFF DUP3 AND SWAP1 POP SWAP2 SWAP1 POP JUMP JUMPDEST PUSH2 0x3A4 DUP2 PUSH2 0x38E JUMP JUMPDEST DUP3 MSTORE POP POP JUMP JUMPDEST PUSH1 0x0 PUSH1 0x80 DUP3 ADD SWAP1 POP PUSH2 0x3BF PUSH1 0x0 DUP4 ADD DUP8 PUSH2 0x37F JUMP JUMPDEST PUSH2 0x3CC PUSH1 0x20 DUP4 ADD DUP7 PUSH2 0x39B JUMP JUMPDEST PUSH2 0x3D9 PUSH1 0x40 DUP4 ADD DUP6 PUSH2 0x37F JUMP JUMPDEST PUSH2 0x3E6 PUSH1 0x60 DUP4 ADD DUP5 PUSH2 0x37F JUMP JUMPDEST SWAP6 SWAP5 POP POP POP POP POP JUMP JUMPDEST PUSH1 0x0 DUP3 DUP3 MSTORE PUSH1 0x20 DUP3 ADD SWAP1 POP SWAP3 SWAP2 POP POP JUMP JUMPDEST PUSH32 0x696E76616C6964207369676E6174757265206C656E6774680000000000000000 PUSH1 0x0 DUP3 ADD MSTORE POP JUMP JUMPDEST PUSH1 0x0 PUSH2 0x436 PUSH1 0x18 DUP4 PUSH2 0x3EF JUMP JUMPDEST SWAP2 POP PUSH2 0x441 DUP3 PUSH2 0x400 JUMP JUMPDEST PUSH1 0x20 DUP3 ADD SWAP1 POP SWAP2 SWAP1 POP JUMP JUMPDEST PUSH1 0x0 PUSH1 0x20 DUP3 ADD SWAP1 POP DUP2 DUP2 SUB PUSH1 0x0 DUP4 ADD MSTORE PUSH2 0x465 DUP2 PUSH2 0x429 JUMP JUMPDEST SWAP1 POP SWAP2 SWAP1 POP JUMP INVALID LOG2 PUSH5 0x6970667358 0x22 SLT KECCAK256 0xAF 0x1F 0xCB 0xDC COINBASE 0xDD SLT 0xF9 PUSH25 0xBF2493228DC62394B62FB71EA54E1239EF99D53176332C6473 PUSH16 0x6C634300080D00330000000000000000 "
				},
				"gasEstimates": {
					"creation": {
						"codeDepositCost": "237200",
						"executionCost": "281",
						"totalCost": "237481"
					},
					"external": {
						"recoverSignerPublic(bytes32,bytes)": "infinite"
					},
					"internal": {
						"getEthSignedMessageHash(bytes32)": "infinite",
						"recoverSigner(bytes32,bytes memory)": "infinite",
						"splitSignature(bytes memory)": "infinite"
					}
				},
				"methodIdentifiers": {
					"recoverSignerPublic(bytes32,bytes)": "9f2585a1"
				}
			},
			"storageLayout": {
				"storage": [],
				"types": null
			},
			"userdoc": {
				"kind": "user",
				"methods": {},
				"version": 1
			}
		}
	}
}