{
	"UmiversePayment.sol": {
		"UmiversePayment": {
			"abi": [
				{
					"inputs": [
						{
							"internalType": "address",
							"name": "_usdcTokenAddress",
							"type": "address"
						},
						{
							"internalType": "address",
							"name": "_rewardPoolAddress",
							"type": "address"
						},
						{
							"internalType": "address",
							"name": "_signerAddress",
							"type": "address"
						}
					],
					"stateMutability": "nonpayable",
					"type": "constructor"
				},
				{
					"anonymous": false,
					"inputs": [
						{
							"indexed": true,
							"internalType": "address",
							"name": "recipient",
							"type": "address"
						},
						{
							"indexed": false,
							"internalType": "uint256",
							"name": "orderId",
							"type": "uint256"
						},
						{
							"indexed": false,
							"internalType": "uint256",
							"name": "amount",
							"type": "uint256"
						},
						{
							"indexed": false,
							"internalType": "bytes",
							"name": "_signature",
							"type": "bytes"
						}
					],
					"name": "PaymentSent",
					"type": "event"
				},
				{
					"anonymous": false,
					"inputs": [
						{
							"indexed": false,
							"internalType": "uint256",
							"name": "amount",
							"type": "uint256"
						}
					],
					"name": "TokensWithdrawn",
					"type": "event"
				},
				{
					"inputs": [
						{
							"internalType": "address",
							"name": "_usdcTokenAddress",
							"type": "address"
						},
						{
							"internalType": "address",
							"name": "_rewardPoolAddress",
							"type": "address"
						},
						{
							"internalType": "address",
							"name": "_signerAddress",
							"type": "address"
						}
					],
					"name": "config",
					"outputs": [],
					"stateMutability": "nonpayable",
					"type": "function"
				},
				{
					"inputs": [
						{
							"internalType": "address",
							"name": "_from",
							"type": "address"
						},
						{
							"internalType": "address",
							"name": "_recipient",
							"type": "address"
						},
						{
							"internalType": "uint256",
							"name": "_orderId",
							"type": "uint256"
						},
						{
							"internalType": "uint256",
							"name": "_amount",
							"type": "uint256"
						},
						{
							"internalType": "uint256",
							"name": "_timestamp",
							"type": "uint256"
						}
					],
					"name": "getMessageHash",
					"outputs": [
						{
							"internalType": "bytes32",
							"name": "",
							"type": "bytes32"
						}
					],
					"stateMutability": "pure",
					"type": "function"
				},
				{
					"inputs": [
						{
							"internalType": "string",
							"name": "token",
							"type": "string"
						}
					],
					"name": "isTokenSupported",
					"outputs": [
						{
							"internalType": "bool",
							"name": "",
							"type": "bool"
						}
					],
					"stateMutability": "pure",
					"type": "function"
				},
				{
					"inputs": [],
					"name": "nextOrderId",
					"outputs": [
						{
							"internalType": "uint256",
							"name": "",
							"type": "uint256"
						}
					],
					"stateMutability": "view",
					"type": "function"
				},
				{
					"inputs": [
						{
							"internalType": "uint256",
							"name": "",
							"type": "uint256"
						}
					],
					"name": "orders",
					"outputs": [
						{
							"internalType": "address",
							"name": "recipient",
							"type": "address"
						},
						{
							"internalType": "uint256",
							"name": "orderId",
							"type": "uint256"
						},
						{
							"internalType": "uint256",
							"name": "amount",
							"type": "uint256"
						},
						{
							"internalType": "uint256",
							"name": "fee",
							"type": "uint256"
						},
						{
							"internalType": "uint256",
							"name": "timestamp",
							"type": "uint256"
						}
					],
					"stateMutability": "view",
					"type": "function"
				},
				{
					"inputs": [],
					"name": "owner",
					"outputs": [
						{
							"internalType": "address",
							"name": "",
							"type": "address"
						}
					],
					"stateMutability": "view",
					"type": "function"
				},
				{
					"inputs": [
						{
							"internalType": "bytes32",
							"name": "_ethSignedMessageHash",
							"type": "bytes32"
						},
						{
							"internalType": "bytes",
							"name": "_signature",
							"type": "bytes"
						}
					],
					"name": "recoverSignerPublic",
					"outputs": [
						{
							"internalType": "address",
							"name": "",
							"type": "address"
						}
					],
					"stateMutability": "pure",
					"type": "function"
				},
				{
					"inputs": [],
					"name": "rewardPoolAddress",
					"outputs": [
						{
							"internalType": "address",
							"name": "",
							"type": "address"
						}
					],
					"stateMutability": "view",
					"type": "function"
				},
				{
					"inputs": [
						{
							"internalType": "address",
							"name": "from",
							"type": "address"
						},
						{
							"internalType": "address",
							"name": "recipient",
							"type": "address"
						},
						{
							"internalType": "uint256",
							"name": "orderId",
							"type": "uint256"
						},
						{
							"internalType": "uint256",
							"name": "amount",
							"type": "uint256"
						},
						{
							"internalType": "uint256",
							"name": "_timestamp",
							"type": "uint256"
						},
						{
							"internalType": "bytes",
							"name": "_signature",
							"type": "bytes"
						}
					],
					"name": "sendUSDC",
					"outputs": [],
					"stateMutability": "nonpayable",
					"type": "function"
				},
				{
					"inputs": [],
					"name": "signerAddress",
					"outputs": [
						{
							"internalType": "address",
							"name": "",
							"type": "address"
						}
					],
					"stateMutability": "view",
					"type": "function"
				},
				{
					"inputs": [],
					"name": "usdcToken",
					"outputs": [
						{
							"internalType": "contract IERC20",
							"name": "",
							"type": "address"
						}
					],
					"stateMutability": "view",
					"type": "function"
				},
				{
					"inputs": [
						{
							"internalType": "uint256",
							"name": "amount",
							"type": "uint256"
						}
					],
					"name": "withdrawTokens",
					"outputs": [],
					"stateMutability": "nonpayable",
					"type": "function"
				}
			],
			"devdoc": {
				"kind": "dev",
				"methods": {},
				"version": 1
			},
			"evm": {
				"assembly": "    /* \"UmiversePayment.sol\":143:5534  contract UmiversePayment {... */\n  mstore(0x40, 0x80)\n    /* \"UmiversePayment.sol\":672:673  1 */\n  0x01\n    /* \"UmiversePayment.sol\":643:673  uint256 public nextOrderId = 1 */\n  0x05\n  sstore\n    /* \"UmiversePayment.sol\":680:941  constructor(address _usdcTokenAddress, address _rewardPoolAddress, address _signerAddress) {... */\n  callvalue\n  dup1\n  iszero\n  tag_1\n  jumpi\n  0x00\n  dup1\n  revert\ntag_1:\n  pop\n  mload(0x40)\n  sub(codesize, bytecodeSize)\n  dup1\n  bytecodeSize\n  dup4\n  codecopy\n  dup2\n  dup2\n  add\n  0x40\n  mstore\n  dup2\n  add\n  swap1\n  tag_2\n  swap2\n  swap1\n  tag_3\n  jump\t// in\ntag_2:\n    /* \"UmiversePayment.sol\":789:799  msg.sender */\n  caller\n    /* \"UmiversePayment.sol\":781:786  owner */\n  0x00\n  dup1\n    /* \"UmiversePayment.sol\":781:799  owner = msg.sender */\n  0x0100\n  exp\n  dup2\n  sload\n  dup2\n  0xffffffffffffffffffffffffffffffffffffffff\n  mul\n  not\n  and\n  swap1\n  dup4\n  0xffffffffffffffffffffffffffffffffffffffff\n  and\n  mul\n  or\n  swap1\n  sstore\n  pop\n    /* \"UmiversePayment.sol\":829:847  _rewardPoolAddress */\n  dup2\n    /* \"UmiversePayment.sol\":809:826  rewardPoolAddress */\n  0x01\n  0x00\n    /* \"UmiversePayment.sol\":809:847  rewardPoolAddress = _rewardPoolAddress */\n  0x0100\n  exp\n  dup2\n  sload\n  dup2\n  0xffffffffffffffffffffffffffffffffffffffff\n  mul\n  not\n  and\n  swap1\n  dup4\n  0xffffffffffffffffffffffffffffffffffffffff\n  and\n  mul\n  or\n  swap1\n  sstore\n  pop\n    /* \"UmiversePayment.sol\":873:887  _signerAddress */\n  dup1\n    /* \"UmiversePayment.sol\":857:870  signerAddress */\n  0x02\n  0x00\n    /* \"UmiversePayment.sol\":857:887  signerAddress = _signerAddress */\n  0x0100\n  exp\n  dup2\n  sload\n  dup2\n  0xffffffffffffffffffffffffffffffffffffffff\n  mul\n  not\n  and\n  swap1\n  dup4\n  0xffffffffffffffffffffffffffffffffffffffff\n  and\n  mul\n  or\n  swap1\n  sstore\n  pop\n    /* \"UmiversePayment.sol\":916:933  _usdcTokenAddress */\n  dup3\n    /* \"UmiversePayment.sol\":897:906  usdcToken */\n  0x03\n  0x00\n    /* \"UmiversePayment.sol\":897:934  usdcToken = IERC20(_usdcTokenAddress) */\n  0x0100\n  exp\n  dup2\n  sload\n  dup2\n  0xffffffffffffffffffffffffffffffffffffffff\n  mul\n  not\n  and\n  swap1\n  dup4\n  0xffffffffffffffffffffffffffffffffffffffff\n  and\n  mul\n  or\n  swap1\n  sstore\n  pop\n    /* \"UmiversePayment.sol\":680:941  constructor(address _usdcTokenAddress, address _rewardPoolAddress, address _signerAddress) {... */\n  pop\n  pop\n  pop\n    /* \"UmiversePayment.sol\":143:5534  contract UmiversePayment {... */\n  jump(tag_6)\n    /* \"#utility.yul\":88:205   */\ntag_8:\n    /* \"#utility.yul\":197:198   */\n  0x00\n    /* \"#utility.yul\":194:195   */\n  dup1\n    /* \"#utility.yul\":187:199   */\n  revert\n    /* \"#utility.yul\":334:460   */\ntag_10:\n    /* \"#utility.yul\":371:378   */\n  0x00\n    /* \"#utility.yul\":411:453   */\n  0xffffffffffffffffffffffffffffffffffffffff\n    /* \"#utility.yul\":404:409   */\n  dup3\n    /* \"#utility.yul\":400:454   */\n  and\n    /* \"#utility.yul\":389:454   */\n  swap1\n  pop\n    /* \"#utility.yul\":334:460   */\n  swap2\n  swap1\n  pop\n  jump\t// out\n    /* \"#utility.yul\":466:562   */\ntag_11:\n    /* \"#utility.yul\":503:510   */\n  0x00\n    /* \"#utility.yul\":532:556   */\n  tag_20\n    /* \"#utility.yul\":550:555   */\n  dup3\n    /* \"#utility.yul\":532:556   */\n  tag_10\n  jump\t// in\ntag_20:\n    /* \"#utility.yul\":521:556   */\n  swap1\n  pop\n    /* \"#utility.yul\":466:562   */\n  swap2\n  swap1\n  pop\n  jump\t// out\n    /* \"#utility.yul\":568:690   */\ntag_12:\n    /* \"#utility.yul\":641:665   */\n  tag_22\n    /* \"#utility.yul\":659:664   */\n  dup2\n    /* \"#utility.yul\":641:665   */\n  tag_11\n  jump\t// in\ntag_22:\n    /* \"#utility.yul\":634:639   */\n  dup2\n    /* \"#utility.yul\":631:666   */\n  eq\n    /* \"#utility.yul\":621:684   */\n  tag_23\n  jumpi\n    /* \"#utility.yul\":680:681   */\n  0x00\n    /* \"#utility.yul\":677:678   */\n  dup1\n    /* \"#utility.yul\":670:682   */\n  revert\n    /* \"#utility.yul\":621:684   */\ntag_23:\n    /* \"#utility.yul\":568:690   */\n  pop\n  jump\t// out\n    /* \"#utility.yul\":696:839   */\ntag_13:\n    /* \"#utility.yul\":753:758   */\n  0x00\n    /* \"#utility.yul\":784:790   */\n  dup2\n    /* \"#utility.yul\":778:791   */\n  mload\n    /* \"#utility.yul\":769:791   */\n  swap1\n  pop\n    /* \"#utility.yul\":800:833   */\n  tag_25\n    /* \"#utility.yul\":827:832   */\n  dup2\n    /* \"#utility.yul\":800:833   */\n  tag_12\n  jump\t// in\ntag_25:\n    /* \"#utility.yul\":696:839   */\n  swap3\n  swap2\n  pop\n  pop\n  jump\t// out\n    /* \"#utility.yul\":845:1508   */\ntag_3:\n    /* \"#utility.yul\":933:939   */\n  0x00\n    /* \"#utility.yul\":941:947   */\n  dup1\n    /* \"#utility.yul\":949:955   */\n  0x00\n    /* \"#utility.yul\":998:1000   */\n  0x60\n    /* \"#utility.yul\":986:995   */\n  dup5\n    /* \"#utility.yul\":977:984   */\n  dup7\n    /* \"#utility.yul\":973:996   */\n  sub\n    /* \"#utility.yul\":969:1001   */\n  slt\n    /* \"#utility.yul\":966:1085   */\n  iszero\n  tag_27\n  jumpi\n    /* \"#utility.yul\":1004:1083   */\n  tag_28\n  tag_8\n  jump\t// in\ntag_28:\n    /* \"#utility.yul\":966:1085   */\ntag_27:\n    /* \"#utility.yul\":1124:1125   */\n  0x00\n    /* \"#utility.yul\":1149:1213   */\n  tag_29\n    /* \"#utility.yul\":1205:1212   */\n  dup7\n    /* \"#utility.yul\":1196:1202   */\n  dup3\n    /* \"#utility.yul\":1185:1194   */\n  dup8\n    /* \"#utility.yul\":1181:1203   */\n  add\n    /* \"#utility.yul\":1149:1213   */\n  tag_13\n  jump\t// in\ntag_29:\n    /* \"#utility.yul\":1139:1213   */\n  swap4\n  pop\n    /* \"#utility.yul\":1095:1223   */\n  pop\n    /* \"#utility.yul\":1262:1264   */\n  0x20\n    /* \"#utility.yul\":1288:1352   */\n  tag_30\n    /* \"#utility.yul\":1344:1351   */\n  dup7\n    /* \"#utility.yul\":1335:1341   */\n  dup3\n    /* \"#utility.yul\":1324:1333   */\n  dup8\n    /* \"#utility.yul\":1320:1342   */\n  add\n    /* \"#utility.yul\":1288:1352   */\n  tag_13\n  jump\t// in\ntag_30:\n    /* \"#utility.yul\":1278:1352   */\n  swap3\n  pop\n    /* \"#utility.yul\":1233:1362   */\n  pop\n    /* \"#utility.yul\":1401:1403   */\n  0x40\n    /* \"#utility.yul\":1427:1491   */\n  tag_31\n    /* \"#utility.yul\":1483:1490   */\n  dup7\n    /* \"#utility.yul\":1474:1480   */\n  dup3\n    /* \"#utility.yul\":1463:1472   */\n  dup8\n    /* \"#utility.yul\":1459:1481   */\n  add\n    /* \"#utility.yul\":1427:1491   */\n  tag_13\n  jump\t// in\ntag_31:\n    /* \"#utility.yul\":1417:1491   */\n  swap2\n  pop\n    /* \"#utility.yul\":1372:1501   */\n  pop\n    /* \"#utility.yul\":845:1508   */\n  swap3\n  pop\n  swap3\n  pop\n  swap3\n  jump\t// out\n    /* \"UmiversePayment.sol\":143:5534  contract UmiversePayment {... */\ntag_6:\n  dataSize(sub_0)\n  dup1\n  dataOffset(sub_0)\n  0x00\n  codecopy\n  0x00\n  return\nstop\n\nsub_0: assembly {\n        /* \"UmiversePayment.sol\":143:5534  contract UmiversePayment {... */\n      mstore(0x40, 0x80)\n      callvalue\n      dup1\n      iszero\n      tag_1\n      jumpi\n      0x00\n      dup1\n      revert\n    tag_1:\n      pop\n      jumpi(tag_2, lt(calldatasize, 0x04))\n      shr(0xe0, calldataload(0x00))\n      dup1\n      0x7ccbf83e\n      gt\n      tag_15\n      jumpi\n      dup1\n      0x7ccbf83e\n      eq\n      tag_9\n      jumpi\n      dup1\n      0x845a51ec\n      eq\n      tag_10\n      jumpi\n      dup1\n      0x87336111\n      eq\n      tag_11\n      jumpi\n      dup1\n      0x8da5cb5b\n      eq\n      tag_12\n      jumpi\n      dup1\n      0x9f2585a1\n      eq\n      tag_13\n      jumpi\n      dup1\n      0xa85c38ef\n      eq\n      tag_14\n      jumpi\n      jump(tag_2)\n    tag_15:\n      dup1\n      0x0d3652ec\n      eq\n      tag_3\n      jumpi\n      dup1\n      0x11eac855\n      eq\n      tag_4\n      jumpi\n      dup1\n      0x2a58b330\n      eq\n      tag_5\n      jumpi\n      dup1\n      0x315a095d\n      eq\n      tag_6\n      jumpi\n      dup1\n      0x59e1abaa\n      eq\n      tag_7\n      jumpi\n      dup1\n      0x5b7633d0\n      eq\n      tag_8\n      jumpi\n    tag_2:\n      0x00\n      dup1\n      revert\n        /* \"UmiversePayment.sol\":4602:4914  function isTokenSupported(string memory token) public pure returns (bool) {... */\n    tag_3:\n      tag_16\n      0x04\n      dup1\n      calldatasize\n      sub\n      dup2\n      add\n      swap1\n      tag_17\n      swap2\n      swap1\n      tag_18\n      jump\t// in\n    tag_17:\n      tag_19\n      jump\t// in\n    tag_16:\n      mload(0x40)\n      tag_20\n      swap2\n      swap1\n      tag_21\n      jump\t// in\n    tag_20:\n      mload(0x40)\n      dup1\n      swap2\n      sub\n      swap1\n      return\n        /* \"UmiversePayment.sol\":273:296  IERC20 public usdcToken */\n    tag_4:\n      tag_22\n      tag_23\n      jump\t// in\n    tag_22:\n      mload(0x40)\n      tag_24\n      swap2\n      swap1\n      tag_25\n      jump\t// in\n    tag_24:\n      mload(0x40)\n      dup1\n      swap2\n      sub\n      swap1\n      return\n        /* \"UmiversePayment.sol\":643:673  uint256 public nextOrderId = 1 */\n    tag_5:\n      tag_26\n      tag_27\n      jump\t// in\n    tag_26:\n      mload(0x40)\n      tag_28\n      swap2\n      swap1\n      tag_29\n      jump\t// in\n    tag_28:\n      mload(0x40)\n      dup1\n      swap2\n      sub\n      swap1\n      return\n        /* \"UmiversePayment.sol\":2391:2619  function withdrawTokens(uint256 amount) external onlyOwner {... */\n    tag_6:\n      tag_30\n      0x04\n      dup1\n      calldatasize\n      sub\n      dup2\n      add\n      swap1\n      tag_31\n      swap2\n      swap1\n      tag_32\n      jump\t// in\n    tag_31:\n      tag_33\n      jump\t// in\n    tag_30:\n      stop\n        /* \"UmiversePayment.sol\":2640:3091  function getMessageHash(... */\n    tag_7:\n      tag_34\n      0x04\n      dup1\n      calldatasize\n      sub\n      dup2\n      add\n      swap1\n      tag_35\n      swap2\n      swap1\n      tag_36\n      jump\t// in\n    tag_35:\n      tag_37\n      jump\t// in\n    tag_34:\n      mload(0x40)\n      tag_38\n      swap2\n      swap1\n      tag_39\n      jump\t// in\n    tag_38:\n      mload(0x40)\n      dup1\n      swap2\n      sub\n      swap1\n      return\n        /* \"UmiversePayment.sol\":238:266  address public signerAddress */\n    tag_8:\n      tag_40\n      tag_41\n      jump\t// in\n    tag_40:\n      mload(0x40)\n      tag_42\n      swap2\n      swap1\n      tag_43\n      jump\t// in\n    tag_42:\n      mload(0x40)\n      dup1\n      swap2\n      sub\n      swap1\n      return\n        /* \"UmiversePayment.sol\":1339:2385  function sendUSDC(address from, address recipient, uint256 orderId, uint256 amount, uint256 _timestamp, bytes memory _signature) external {... */\n    tag_9:\n      tag_44\n      0x04\n      dup1\n      calldatasize\n      sub\n      dup2\n      add\n      swap1\n      tag_45\n      swap2\n      swap1\n      tag_46\n      jump\t// in\n    tag_45:\n      tag_47\n      jump\t// in\n    tag_44:\n      stop\n        /* \"UmiversePayment.sol\":200:232  address public rewardPoolAddress */\n    tag_10:\n      tag_48\n      tag_49\n      jump\t// in\n    tag_48:\n      mload(0x40)\n      tag_50\n      swap2\n      swap1\n      tag_43\n      jump\t// in\n    tag_50:\n      mload(0x40)\n      dup1\n      swap2\n      sub\n      swap1\n      return\n        /* \"UmiversePayment.sol\":960:1213  function config(address _usdcTokenAddress, address _rewardPoolAddress, address _signerAddress) public onlyOwner{... */\n    tag_11:\n      tag_51\n      0x04\n      dup1\n      calldatasize\n      sub\n      dup2\n      add\n      swap1\n      tag_52\n      swap2\n      swap1\n      tag_53\n      jump\t// in\n    tag_52:\n      tag_54\n      jump\t// in\n    tag_51:\n      stop\n        /* \"UmiversePayment.sol\":174:194  address public owner */\n    tag_12:\n      tag_55\n      tag_56\n      jump\t// in\n    tag_55:\n      mload(0x40)\n      tag_57\n      swap2\n      swap1\n      tag_43\n      jump\t// in\n    tag_57:\n      mload(0x40)\n      dup1\n      swap2\n      sub\n      swap1\n      return\n        /* \"UmiversePayment.sol\":4324:4596  function recoverSignerPublic(... */\n    tag_13:\n      tag_58\n      0x04\n      dup1\n      calldatasize\n      sub\n      dup2\n      add\n      swap1\n      tag_59\n      swap2\n      swap1\n      tag_60\n      jump\t// in\n    tag_59:\n      tag_61\n      jump\t// in\n    tag_58:\n      mload(0x40)\n      tag_62\n      swap2\n      swap1\n      tag_43\n      jump\t// in\n    tag_62:\n      mload(0x40)\n      dup1\n      swap2\n      sub\n      swap1\n      return\n        /* \"UmiversePayment.sol\":598:637  mapping(uint256 => Order) public orders */\n    tag_14:\n      tag_63\n      0x04\n      dup1\n      calldatasize\n      sub\n      dup2\n      add\n      swap1\n      tag_64\n      swap2\n      swap1\n      tag_32\n      jump\t// in\n    tag_64:\n      tag_65\n      jump\t// in\n    tag_63:\n      mload(0x40)\n      tag_66\n      swap6\n      swap5\n      swap4\n      swap3\n      swap2\n      swap1\n      tag_67\n      jump\t// in\n    tag_66:\n      mload(0x40)\n      dup1\n      swap2\n      sub\n      swap1\n      return\n        /* \"UmiversePayment.sol\":4602:4914  function isTokenSupported(string memory token) public pure returns (bool) {... */\n    tag_19:\n        /* \"UmiversePayment.sol\":4670:4674  bool */\n      0x00\n        /* \"UmiversePayment.sol\":4694:4723  compareStrings(token, \"usdt\") */\n      tag_69\n        /* \"UmiversePayment.sol\":4709:4714  token */\n      dup3\n        /* \"UmiversePayment.sol\":4694:4723  compareStrings(token, \"usdt\") */\n      mload(0x40)\n      dup1\n      0x40\n      add\n      0x40\n      mstore\n      dup1\n      0x04\n      dup2\n      mstore\n      0x20\n      add\n      0x7573647400000000000000000000000000000000000000000000000000000000\n      dup2\n      mstore\n      pop\n        /* \"UmiversePayment.sol\":4694:4708  compareStrings */\n      tag_70\n        /* \"UmiversePayment.sol\":4694:4723  compareStrings(token, \"usdt\") */\n      jump\t// in\n    tag_69:\n        /* \"UmiversePayment.sol\":4694:4768  compareStrings(token, \"usdt\") ||... */\n      dup1\n      tag_71\n      jumpi\n      pop\n        /* \"UmiversePayment.sol\":4739:4768  compareStrings(token, \"usdc\") */\n      tag_72\n        /* \"UmiversePayment.sol\":4754:4759  token */\n      dup3\n        /* \"UmiversePayment.sol\":4739:4768  compareStrings(token, \"usdc\") */\n      mload(0x40)\n      dup1\n      0x40\n      add\n      0x40\n      mstore\n      dup1\n      0x04\n      dup2\n      mstore\n      0x20\n      add\n      0x7573646300000000000000000000000000000000000000000000000000000000\n      dup2\n      mstore\n      pop\n        /* \"UmiversePayment.sol\":4739:4753  compareStrings */\n      tag_70\n        /* \"UmiversePayment.sol\":4739:4768  compareStrings(token, \"usdc\") */\n      jump\t// in\n    tag_72:\n        /* \"UmiversePayment.sol\":4694:4768  compareStrings(token, \"usdt\") ||... */\n    tag_71:\n        /* \"UmiversePayment.sol\":4694:4812  compareStrings(token, \"usdt\") ||... */\n      dup1\n      tag_73\n      jumpi\n      pop\n        /* \"UmiversePayment.sol\":4784:4812  compareStrings(token, \"umi\") */\n      tag_74\n        /* \"UmiversePayment.sol\":4799:4804  token */\n      dup3\n        /* \"UmiversePayment.sol\":4784:4812  compareStrings(token, \"umi\") */\n      mload(0x40)\n      dup1\n      0x40\n      add\n      0x40\n      mstore\n      dup1\n      0x03\n      dup2\n      mstore\n      0x20\n      add\n      0x756d690000000000000000000000000000000000000000000000000000000000\n      dup2\n      mstore\n      pop\n        /* \"UmiversePayment.sol\":4784:4798  compareStrings */\n      tag_70\n        /* \"UmiversePayment.sol\":4784:4812  compareStrings(token, \"umi\") */\n      jump\t// in\n    tag_74:\n        /* \"UmiversePayment.sol\":4694:4812  compareStrings(token, \"usdt\") ||... */\n    tag_73:\n        /* \"UmiversePayment.sol\":4694:4862  compareStrings(token, \"usdt\") ||... */\n      dup1\n      tag_75\n      jumpi\n      pop\n        /* \"UmiversePayment.sol\":4828:4862  compareStrings(token, \"divepoint\") */\n      tag_76\n        /* \"UmiversePayment.sol\":4843:4848  token */\n      dup3\n        /* \"UmiversePayment.sol\":4828:4862  compareStrings(token, \"divepoint\") */\n      mload(0x40)\n      dup1\n      0x40\n      add\n      0x40\n      mstore\n      dup1\n      0x09\n      dup2\n      mstore\n      0x20\n      add\n      0x64697665706f696e740000000000000000000000000000000000000000000000\n      dup2\n      mstore\n      pop\n        /* \"UmiversePayment.sol\":4828:4842  compareStrings */\n      tag_70\n        /* \"UmiversePayment.sol\":4828:4862  compareStrings(token, \"divepoint\") */\n      jump\t// in\n    tag_76:\n        /* \"UmiversePayment.sol\":4694:4862  compareStrings(token, \"usdt\") ||... */\n    tag_75:\n        /* \"UmiversePayment.sol\":4694:4906  compareStrings(token, \"usdt\") ||... */\n      dup1\n      tag_77\n      jumpi\n      pop\n        /* \"UmiversePayment.sol\":4878:4906  compareStrings(token, \"eth\") */\n      tag_78\n        /* \"UmiversePayment.sol\":4893:4898  token */\n      dup3\n        /* \"UmiversePayment.sol\":4878:4906  compareStrings(token, \"eth\") */\n      mload(0x40)\n      dup1\n      0x40\n      add\n      0x40\n      mstore\n      dup1\n      0x03\n      dup2\n      mstore\n      0x20\n      add\n      0x6574680000000000000000000000000000000000000000000000000000000000\n      dup2\n      mstore\n      pop\n        /* \"UmiversePayment.sol\":4878:4892  compareStrings */\n      tag_70\n        /* \"UmiversePayment.sol\":4878:4906  compareStrings(token, \"eth\") */\n      jump\t// in\n    tag_78:\n        /* \"UmiversePayment.sol\":4694:4906  compareStrings(token, \"usdt\") ||... */\n    tag_77:\n        /* \"UmiversePayment.sol\":4686:4907  return (compareStrings(token, \"usdt\") ||... */\n      swap1\n      pop\n        /* \"UmiversePayment.sol\":4602:4914  function isTokenSupported(string memory token) public pure returns (bool) {... */\n      swap2\n      swap1\n      pop\n      jump\t// out\n        /* \"UmiversePayment.sol\":273:296  IERC20 public usdcToken */\n    tag_23:\n      0x03\n      0x00\n      swap1\n      sload\n      swap1\n      0x0100\n      exp\n      swap1\n      div\n      0xffffffffffffffffffffffffffffffffffffffff\n      and\n      dup2\n      jump\t// out\n        /* \"UmiversePayment.sol\":643:673  uint256 public nextOrderId = 1 */\n    tag_27:\n      sload(0x05)\n      dup2\n      jump\t// out\n        /* \"UmiversePayment.sol\":2391:2619  function withdrawTokens(uint256 amount) external onlyOwner {... */\n    tag_33:\n        /* \"UmiversePayment.sol\":1272:1277  owner */\n      0x00\n      dup1\n      sload\n      swap1\n      0x0100\n      exp\n      swap1\n      div\n      0xffffffffffffffffffffffffffffffffffffffff\n      and\n        /* \"UmiversePayment.sol\":1258:1277  msg.sender == owner */\n      0xffffffffffffffffffffffffffffffffffffffff\n      and\n        /* \"UmiversePayment.sol\":1258:1268  msg.sender */\n      caller\n        /* \"UmiversePayment.sol\":1258:1277  msg.sender == owner */\n      0xffffffffffffffffffffffffffffffffffffffff\n      and\n      eq\n        /* \"UmiversePayment.sol\":1250:1315  require(msg.sender == owner, \"Only owner can call this function\") */\n      tag_80\n      jumpi\n      mload(0x40)\n      0x08c379a000000000000000000000000000000000000000000000000000000000\n      dup2\n      mstore\n      0x04\n      add\n      tag_81\n      swap1\n      tag_82\n      jump\t// in\n    tag_81:\n      mload(0x40)\n      dup1\n      swap2\n      sub\n      swap1\n      revert\n    tag_80:\n        /* \"UmiversePayment.sol\":2477:2478  0 */\n      0x00\n        /* \"UmiversePayment.sol\":2468:2474  amount */\n      dup2\n        /* \"UmiversePayment.sol\":2468:2478  amount > 0 */\n      gt\n        /* \"UmiversePayment.sol\":2460:2497  require(amount > 0, \"Invalid amount\") */\n      tag_84\n      jumpi\n      mload(0x40)\n      0x08c379a000000000000000000000000000000000000000000000000000000000\n      dup2\n      mstore\n      0x04\n      add\n      tag_85\n      swap1\n      tag_86\n      jump\t// in\n    tag_85:\n      mload(0x40)\n      dup1\n      swap2\n      sub\n      swap1\n      revert\n    tag_84:\n        /* \"UmiversePayment.sol\":2515:2524  usdcToken */\n      0x03\n      0x00\n      swap1\n      sload\n      swap1\n      0x0100\n      exp\n      swap1\n      div\n      0xffffffffffffffffffffffffffffffffffffffff\n      and\n        /* \"UmiversePayment.sol\":2515:2533  usdcToken.transfer */\n      0xffffffffffffffffffffffffffffffffffffffff\n      and\n      0xa9059cbb\n        /* \"UmiversePayment.sol\":2534:2539  owner */\n      0x00\n      dup1\n      sload\n      swap1\n      0x0100\n      exp\n      swap1\n      div\n      0xffffffffffffffffffffffffffffffffffffffff\n      and\n        /* \"UmiversePayment.sol\":2541:2547  amount */\n      dup4\n        /* \"UmiversePayment.sol\":2515:2548  usdcToken.transfer(owner, amount) */\n      mload(0x40)\n      dup4\n      0xffffffff\n      and\n      0xe0\n      shl\n      dup2\n      mstore\n      0x04\n      add\n      tag_87\n      swap3\n      swap2\n      swap1\n      tag_88\n      jump\t// in\n    tag_87:\n      0x20\n      mload(0x40)\n      dup1\n      dup4\n      sub\n      dup2\n      0x00\n      dup8\n      gas\n      call\n      iszero\n      dup1\n      iszero\n      tag_90\n      jumpi\n      returndatasize\n      0x00\n      dup1\n      returndatacopy\n      revert(0x00, returndatasize)\n    tag_90:\n      pop\n      pop\n      pop\n      pop\n      mload(0x40)\n      returndatasize\n      not(0x1f)\n      0x1f\n      dup3\n      add\n      and\n      dup3\n      add\n      dup1\n      0x40\n      mstore\n      pop\n      dup2\n      add\n      swap1\n      tag_91\n      swap2\n      swap1\n      tag_92\n      jump\t// in\n    tag_91:\n        /* \"UmiversePayment.sol\":2507:2574  require(usdcToken.transfer(owner, amount), \"Token transfer failed\") */\n      tag_93\n      jumpi\n      mload(0x40)\n      0x08c379a000000000000000000000000000000000000000000000000000000000\n      dup2\n      mstore\n      0x04\n      add\n      tag_94\n      swap1\n      tag_95\n      jump\t// in\n    tag_94:\n      mload(0x40)\n      dup1\n      swap2\n      sub\n      swap1\n      revert\n    tag_93:\n        /* \"UmiversePayment.sol\":2589:2612  TokensWithdrawn(amount) */\n      0x9c6393f251205f9e03559951cab4c9ae71767b6174f77944a5b0c2fa51fbda9f\n        /* \"UmiversePayment.sol\":2605:2611  amount */\n      dup2\n        /* \"UmiversePayment.sol\":2589:2612  TokensWithdrawn(amount) */\n      mload(0x40)\n      tag_96\n      swap2\n      swap1\n      tag_29\n      jump\t// in\n    tag_96:\n      mload(0x40)\n      dup1\n      swap2\n      sub\n      swap1\n      log1\n        /* \"UmiversePayment.sol\":2391:2619  function withdrawTokens(uint256 amount) external onlyOwner {... */\n      pop\n      jump\t// out\n        /* \"UmiversePayment.sol\":2640:3091  function getMessageHash(... */\n    tag_37:\n        /* \"UmiversePayment.sol\":2821:2828  bytes32 */\n      0x00\n        /* \"UmiversePayment.sol\":2924:2929  _from */\n      dup6\n        /* \"UmiversePayment.sol\":2951:2961  _recipient */\n      dup6\n        /* \"UmiversePayment.sol\":2983:2991  _orderId */\n      dup6\n        /* \"UmiversePayment.sol\":3013:3020  _amount */\n      dup6\n        /* \"UmiversePayment.sol\":3042:3052  _timestamp */\n      dup6\n        /* \"UmiversePayment.sol\":2886:3070  abi.encodePacked(... */\n      add(0x20, mload(0x40))\n      tag_98\n      swap6\n      swap5\n      swap4\n      swap3\n      swap2\n      swap1\n      tag_99\n      jump\t// in\n    tag_98:\n      mload(0x40)\n      0x20\n      dup2\n      dup4\n      sub\n      sub\n      dup2\n      mstore\n      swap1\n      0x40\n      mstore\n        /* \"UmiversePayment.sol\":2859:3084  keccak256(... */\n      dup1\n      mload\n      swap1\n      0x20\n      add\n      keccak256\n        /* \"UmiversePayment.sol\":2840:3084  return... */\n      swap1\n      pop\n        /* \"UmiversePayment.sol\":2640:3091  function getMessageHash(... */\n      swap6\n      swap5\n      pop\n      pop\n      pop\n      pop\n      pop\n      jump\t// out\n        /* \"UmiversePayment.sol\":238:266  address public signerAddress */\n    tag_41:\n      0x02\n      0x00\n      swap1\n      sload\n      swap1\n      0x0100\n      exp\n      swap1\n      div\n      0xffffffffffffffffffffffffffffffffffffffff\n      and\n      dup2\n      jump\t// out\n        /* \"UmiversePayment.sol\":1339:2385  function sendUSDC(address from, address recipient, uint256 orderId, uint256 amount, uint256 _timestamp, bytes memory _signature) external {... */\n    tag_47:\n        /* \"UmiversePayment.sol\":1504:1505  0 */\n      0x00\n        /* \"UmiversePayment.sol\":1495:1501  amount */\n      dup4\n        /* \"UmiversePayment.sol\":1495:1505  amount > 0 */\n      gt\n        /* \"UmiversePayment.sol\":1487:1524  require(amount > 0, \"Invalid amount\") */\n      tag_101\n      jumpi\n      mload(0x40)\n      0x08c379a000000000000000000000000000000000000000000000000000000000\n      dup2\n      mstore\n      0x04\n      add\n      tag_102\n      swap1\n      tag_86\n      jump\t// in\n    tag_102:\n      mload(0x40)\n      dup1\n      swap2\n      sub\n      swap1\n      revert\n    tag_101:\n        /* \"UmiversePayment.sol\":1558:1559  0 */\n      0x00\n        /* \"UmiversePayment.sol\":1542:1560  from != address(0) */\n      0xffffffffffffffffffffffffffffffffffffffff\n      and\n        /* \"UmiversePayment.sol\":1542:1546  from */\n      dup7\n        /* \"UmiversePayment.sol\":1542:1560  from != address(0) */\n      0xffffffffffffffffffffffffffffffffffffffff\n      and\n      sub\n        /* \"UmiversePayment.sol\":1534:1593  require(from != address(0), \"CV: from to the zero address\") */\n      tag_103\n      jumpi\n      mload(0x40)\n      0x08c379a000000000000000000000000000000000000000000000000000000000\n      dup2\n      mstore\n      0x04\n      add\n      tag_104\n      swap1\n      tag_105\n      jump\t// in\n    tag_104:\n      mload(0x40)\n      dup1\n      swap2\n      sub\n      swap1\n      revert\n    tag_103:\n        /* \"UmiversePayment.sol\":1624:1798  verify(... */\n      tag_106\n        /* \"UmiversePayment.sol\":1648:1652  from */\n      dup7\n        /* \"UmiversePayment.sol\":1670:1679  recipient */\n      dup7\n        /* \"UmiversePayment.sol\":1697:1704  orderId */\n      dup7\n        /* \"UmiversePayment.sol\":1722:1728  amount */\n      dup7\n        /* \"UmiversePayment.sol\":1746:1756  _timestamp */\n      dup7\n        /* \"UmiversePayment.sol\":1774:1784  _signature */\n      dup7\n        /* \"UmiversePayment.sol\":1624:1630  verify */\n      tag_107\n        /* \"UmiversePayment.sol\":1624:1798  verify(... */\n      jump\t// in\n    tag_106:\n        /* \"UmiversePayment.sol\":1603:1846  require(... */\n      tag_108\n      jumpi\n      mload(0x40)\n      0x08c379a000000000000000000000000000000000000000000000000000000000\n      dup2\n      mstore\n      0x04\n      add\n      tag_109\n      swap1\n      tag_110\n      jump\t// in\n    tag_109:\n      mload(0x40)\n      dup1\n      swap2\n      sub\n      swap1\n      revert\n    tag_108:\n        /* \"UmiversePayment.sol\":1864:1873  usdcToken */\n      0x03\n      0x00\n      swap1\n      sload\n      swap1\n      0x0100\n      exp\n      swap1\n      div\n      0xffffffffffffffffffffffffffffffffffffffff\n      and\n        /* \"UmiversePayment.sol\":1864:1886  usdcToken.transferFrom */\n      0xffffffffffffffffffffffffffffffffffffffff\n      and\n      0x23b872dd\n        /* \"UmiversePayment.sol\":1887:1891  from */\n      dup8\n        /* \"UmiversePayment.sol\":1901:1905  this */\n      address\n        /* \"UmiversePayment.sol\":1908:1914  amount */\n      dup7\n        /* \"UmiversePayment.sol\":1864:1915  usdcToken.transferFrom(from, address(this), amount) */\n      mload(0x40)\n      dup5\n      0xffffffff\n      and\n      0xe0\n      shl\n      dup2\n      mstore\n      0x04\n      add\n      tag_111\n      swap4\n      swap3\n      swap2\n      swap1\n      tag_112\n      jump\t// in\n    tag_111:\n      0x20\n      mload(0x40)\n      dup1\n      dup4\n      sub\n      dup2\n      0x00\n      dup8\n      gas\n      call\n      iszero\n      dup1\n      iszero\n      tag_114\n      jumpi\n      returndatasize\n      0x00\n      dup1\n      returndatacopy\n      revert(0x00, returndatasize)\n    tag_114:\n      pop\n      pop\n      pop\n      pop\n      mload(0x40)\n      returndatasize\n      not(0x1f)\n      0x1f\n      dup3\n      add\n      and\n      dup3\n      add\n      dup1\n      0x40\n      mstore\n      pop\n      dup2\n      add\n      swap1\n      tag_115\n      swap2\n      swap1\n      tag_92\n      jump\t// in\n    tag_115:\n        /* \"UmiversePayment.sol\":1856:1940  require(usdcToken.transferFrom(from, address(this), amount), \"USDC transfer failed\") */\n      tag_116\n      jumpi\n      mload(0x40)\n      0x08c379a000000000000000000000000000000000000000000000000000000000\n      dup2\n      mstore\n      0x04\n      add\n      tag_117\n      swap1\n      tag_118\n      jump\t// in\n    tag_117:\n      mload(0x40)\n      dup1\n      swap2\n      sub\n      swap1\n      revert\n    tag_116:\n        /* \"UmiversePayment.sol\":1959:1979  uint256 developerFee */\n      0x00\n        /* \"UmiversePayment.sol\":1991:1994  100 */\n      0x64\n        /* \"UmiversePayment.sol\":1982:1988  amount */\n      dup5\n        /* \"UmiversePayment.sol\":1982:1994  amount / 100 */\n      tag_119\n      swap2\n      swap1\n      tag_120\n      jump\t// in\n    tag_119:\n        /* \"UmiversePayment.sol\":1959:1994  uint256 developerFee = amount / 100 */\n      swap1\n      pop\n        /* \"UmiversePayment.sol\":2014:2037  uint256 recipientAmount */\n      0x00\n        /* \"UmiversePayment.sol\":2049:2061  developerFee */\n      dup2\n        /* \"UmiversePayment.sol\":2040:2046  amount */\n      dup6\n        /* \"UmiversePayment.sol\":2040:2061  amount - developerFee */\n      tag_121\n      swap2\n      swap1\n      tag_122\n      jump\t// in\n    tag_121:\n        /* \"UmiversePayment.sol\":2014:2061  uint256 recipientAmount = amount - developerFee */\n      swap1\n      pop\n        /* \"UmiversePayment.sol\":2072:2081  usdcToken */\n      0x03\n      0x00\n      swap1\n      sload\n      swap1\n      0x0100\n      exp\n      swap1\n      div\n      0xffffffffffffffffffffffffffffffffffffffff\n      and\n        /* \"UmiversePayment.sol\":2072:2090  usdcToken.transfer */\n      0xffffffffffffffffffffffffffffffffffffffff\n      and\n      0xa9059cbb\n        /* \"UmiversePayment.sol\":2091:2108  rewardPoolAddress */\n      0x01\n      0x00\n      swap1\n      sload\n      swap1\n      0x0100\n      exp\n      swap1\n      div\n      0xffffffffffffffffffffffffffffffffffffffff\n      and\n        /* \"UmiversePayment.sol\":2110:2122  developerFee */\n      dup5\n        /* \"UmiversePayment.sol\":2072:2123  usdcToken.transfer(rewardPoolAddress, developerFee) */\n      mload(0x40)\n      dup4\n      0xffffffff\n      and\n      0xe0\n      shl\n      dup2\n      mstore\n      0x04\n      add\n      tag_123\n      swap3\n      swap2\n      swap1\n      tag_88\n      jump\t// in\n    tag_123:\n      0x20\n      mload(0x40)\n      dup1\n      dup4\n      sub\n      dup2\n      0x00\n      dup8\n      gas\n      call\n      iszero\n      dup1\n      iszero\n      tag_125\n      jumpi\n      returndatasize\n      0x00\n      dup1\n      returndatacopy\n      revert(0x00, returndatasize)\n    tag_125:\n      pop\n      pop\n      pop\n      pop\n      mload(0x40)\n      returndatasize\n      not(0x1f)\n      0x1f\n      dup3\n      add\n      and\n      dup3\n      add\n      dup1\n      0x40\n      mstore\n      pop\n      dup2\n      add\n      swap1\n      tag_126\n      swap2\n      swap1\n      tag_92\n      jump\t// in\n    tag_126:\n      pop\n        /* \"UmiversePayment.sol\":2133:2142  usdcToken */\n      0x03\n      0x00\n      swap1\n      sload\n      swap1\n      0x0100\n      exp\n      swap1\n      div\n      0xffffffffffffffffffffffffffffffffffffffff\n      and\n        /* \"UmiversePayment.sol\":2133:2151  usdcToken.transfer */\n      0xffffffffffffffffffffffffffffffffffffffff\n      and\n      0xa9059cbb\n        /* \"UmiversePayment.sol\":2152:2161  recipient */\n      dup9\n        /* \"UmiversePayment.sol\":2163:2178  recipientAmount */\n      dup4\n        /* \"UmiversePayment.sol\":2133:2179  usdcToken.transfer(recipient, recipientAmount) */\n      mload(0x40)\n      dup4\n      0xffffffff\n      and\n      0xe0\n      shl\n      dup2\n      mstore\n      0x04\n      add\n      tag_127\n      swap3\n      swap2\n      swap1\n      tag_88\n      jump\t// in\n    tag_127:\n      0x20\n      mload(0x40)\n      dup1\n      dup4\n      sub\n      dup2\n      0x00\n      dup8\n      gas\n      call\n      iszero\n      dup1\n      iszero\n      tag_129\n      jumpi\n      returndatasize\n      0x00\n      dup1\n      returndatacopy\n      revert(0x00, returndatasize)\n    tag_129:\n      pop\n      pop\n      pop\n      pop\n      mload(0x40)\n      returndatasize\n      not(0x1f)\n      0x1f\n      dup3\n      add\n      and\n      dup3\n      add\n      dup1\n      0x40\n      mstore\n      pop\n      dup2\n      add\n      swap1\n      tag_130\n      swap2\n      swap1\n      tag_92\n      jump\t// in\n    tag_130:\n      pop\n        /* \"UmiversePayment.sol\":2208:2276  Order(recipient, orderId, recipientAmount, developerFee, _timestamp) */\n      mload(0x40)\n      dup1\n      0xa0\n      add\n      0x40\n      mstore\n      dup1\n        /* \"UmiversePayment.sol\":2214:2223  recipient */\n      dup9\n        /* \"UmiversePayment.sol\":2208:2276  Order(recipient, orderId, recipientAmount, developerFee, _timestamp) */\n      0xffffffffffffffffffffffffffffffffffffffff\n      and\n      dup2\n      mstore\n      0x20\n      add\n        /* \"UmiversePayment.sol\":2225:2232  orderId */\n      dup8\n        /* \"UmiversePayment.sol\":2208:2276  Order(recipient, orderId, recipientAmount, developerFee, _timestamp) */\n      dup2\n      mstore\n      0x20\n      add\n        /* \"UmiversePayment.sol\":2234:2249  recipientAmount */\n      dup3\n        /* \"UmiversePayment.sol\":2208:2276  Order(recipient, orderId, recipientAmount, developerFee, _timestamp) */\n      dup2\n      mstore\n      0x20\n      add\n        /* \"UmiversePayment.sol\":2251:2263  developerFee */\n      dup4\n        /* \"UmiversePayment.sol\":2208:2276  Order(recipient, orderId, recipientAmount, developerFee, _timestamp) */\n      dup2\n      mstore\n      0x20\n      add\n        /* \"UmiversePayment.sol\":2265:2275  _timestamp */\n      dup6\n        /* \"UmiversePayment.sol\":2208:2276  Order(recipient, orderId, recipientAmount, developerFee, _timestamp) */\n      dup2\n      mstore\n      pop\n        /* \"UmiversePayment.sol\":2190:2196  orders */\n      0x04\n        /* \"UmiversePayment.sol\":2190:2205  orders[orderId] */\n      0x00\n        /* \"UmiversePayment.sol\":2197:2204  orderId */\n      dup9\n        /* \"UmiversePayment.sol\":2190:2205  orders[orderId] */\n      dup2\n      mstore\n      0x20\n      add\n      swap1\n      dup2\n      mstore\n      0x20\n      add\n      0x00\n      keccak256\n        /* \"UmiversePayment.sol\":2190:2276  orders[orderId] = Order(recipient, orderId, recipientAmount, developerFee, _timestamp) */\n      0x00\n      dup3\n      add\n      mload\n      dup2\n      0x00\n      add\n      exp(0x0100, 0x00)\n      dup2\n      sload\n      dup2\n      0xffffffffffffffffffffffffffffffffffffffff\n      mul\n      not\n      and\n      swap1\n      dup4\n      0xffffffffffffffffffffffffffffffffffffffff\n      and\n      mul\n      or\n      swap1\n      sstore\n      pop\n      0x20\n      dup3\n      add\n      mload\n      dup2\n      0x01\n      add\n      sstore\n      0x40\n      dup3\n      add\n      mload\n      dup2\n      0x02\n      add\n      sstore\n      0x60\n      dup3\n      add\n      mload\n      dup2\n      0x03\n      add\n      sstore\n      0x80\n      dup3\n      add\n      mload\n      dup2\n      0x04\n      add\n      sstore\n      swap1\n      pop\n      pop\n        /* \"UmiversePayment.sol\":2301:2302  1 */\n      0x01\n        /* \"UmiversePayment.sol\":2286:2297  nextOrderId */\n      0x05\n      0x00\n        /* \"UmiversePayment.sol\":2286:2302  nextOrderId += 1 */\n      dup3\n      dup3\n      sload\n      tag_131\n      swap2\n      swap1\n      tag_132\n      jump\t// in\n    tag_131:\n      swap3\n      pop\n      pop\n      dup2\n      swap1\n      sstore\n      pop\n        /* \"UmiversePayment.sol\":2330:2339  recipient */\n      dup7\n        /* \"UmiversePayment.sol\":2318:2378  PaymentSent(recipient, orderId, recipientAmount, _signature) */\n      0xffffffffffffffffffffffffffffffffffffffff\n      and\n      0x5128abb3a2724995d76ed092bf6bf634c1dd514c7c674eb3bbb1016c60559b33\n        /* \"UmiversePayment.sol\":2341:2348  orderId */\n      dup8\n        /* \"UmiversePayment.sol\":2350:2365  recipientAmount */\n      dup4\n        /* \"UmiversePayment.sol\":2367:2377  _signature */\n      dup7\n        /* \"UmiversePayment.sol\":2318:2378  PaymentSent(recipient, orderId, recipientAmount, _signature) */\n      mload(0x40)\n      tag_133\n      swap4\n      swap3\n      swap2\n      swap1\n      tag_134\n      jump\t// in\n    tag_133:\n      mload(0x40)\n      dup1\n      swap2\n      sub\n      swap1\n      log2\n        /* \"UmiversePayment.sol\":1477:2385  {... */\n      pop\n      pop\n        /* \"UmiversePayment.sol\":1339:2385  function sendUSDC(address from, address recipient, uint256 orderId, uint256 amount, uint256 _timestamp, bytes memory _signature) external {... */\n      pop\n      pop\n      pop\n      pop\n      pop\n      pop\n      jump\t// out\n        /* \"UmiversePayment.sol\":200:232  address public rewardPoolAddress */\n    tag_49:\n      0x01\n      0x00\n      swap1\n      sload\n      swap1\n      0x0100\n      exp\n      swap1\n      div\n      0xffffffffffffffffffffffffffffffffffffffff\n      and\n      dup2\n      jump\t// out\n        /* \"UmiversePayment.sol\":960:1213  function config(address _usdcTokenAddress, address _rewardPoolAddress, address _signerAddress) public onlyOwner{... */\n    tag_54:\n        /* \"UmiversePayment.sol\":1272:1277  owner */\n      0x00\n      dup1\n      sload\n      swap1\n      0x0100\n      exp\n      swap1\n      div\n      0xffffffffffffffffffffffffffffffffffffffff\n      and\n        /* \"UmiversePayment.sol\":1258:1277  msg.sender == owner */\n      0xffffffffffffffffffffffffffffffffffffffff\n      and\n        /* \"UmiversePayment.sol\":1258:1268  msg.sender */\n      caller\n        /* \"UmiversePayment.sol\":1258:1277  msg.sender == owner */\n      0xffffffffffffffffffffffffffffffffffffffff\n      and\n      eq\n        /* \"UmiversePayment.sol\":1250:1315  require(msg.sender == owner, \"Only owner can call this function\") */\n      tag_136\n      jumpi\n      mload(0x40)\n      0x08c379a000000000000000000000000000000000000000000000000000000000\n      dup2\n      mstore\n      0x04\n      add\n      tag_137\n      swap1\n      tag_82\n      jump\t// in\n    tag_137:\n      mload(0x40)\n      dup1\n      swap2\n      sub\n      swap1\n      revert\n    tag_136:\n        /* \"UmiversePayment.sol\":1101:1119  _rewardPoolAddress */\n      dup2\n        /* \"UmiversePayment.sol\":1081:1098  rewardPoolAddress */\n      0x01\n      0x00\n        /* \"UmiversePayment.sol\":1081:1119  rewardPoolAddress = _rewardPoolAddress */\n      0x0100\n      exp\n      dup2\n      sload\n      dup2\n      0xffffffffffffffffffffffffffffffffffffffff\n      mul\n      not\n      and\n      swap1\n      dup4\n      0xffffffffffffffffffffffffffffffffffffffff\n      and\n      mul\n      or\n      swap1\n      sstore\n      pop\n        /* \"UmiversePayment.sol\":1145:1159  _signerAddress */\n      dup1\n        /* \"UmiversePayment.sol\":1129:1142  signerAddress */\n      0x02\n      0x00\n        /* \"UmiversePayment.sol\":1129:1159  signerAddress = _signerAddress */\n      0x0100\n      exp\n      dup2\n      sload\n      dup2\n      0xffffffffffffffffffffffffffffffffffffffff\n      mul\n      not\n      and\n      swap1\n      dup4\n      0xffffffffffffffffffffffffffffffffffffffff\n      and\n      mul\n      or\n      swap1\n      sstore\n      pop\n        /* \"UmiversePayment.sol\":1188:1205  _usdcTokenAddress */\n      dup3\n        /* \"UmiversePayment.sol\":1169:1178  usdcToken */\n      0x03\n      0x00\n        /* \"UmiversePayment.sol\":1169:1206  usdcToken = IERC20(_usdcTokenAddress) */\n      0x0100\n      exp\n      dup2\n      sload\n      dup2\n      0xffffffffffffffffffffffffffffffffffffffff\n      mul\n      not\n      and\n      swap1\n      dup4\n      0xffffffffffffffffffffffffffffffffffffffff\n      and\n      mul\n      or\n      swap1\n      sstore\n      pop\n        /* \"UmiversePayment.sol\":960:1213  function config(address _usdcTokenAddress, address _rewardPoolAddress, address _signerAddress) public onlyOwner{... */\n      pop\n      pop\n      pop\n      jump\t// out\n        /* \"UmiversePayment.sol\":174:194  address public owner */\n    tag_56:\n      0x00\n      dup1\n      sload\n      swap1\n      0x0100\n      exp\n      swap1\n      div\n      0xffffffffffffffffffffffffffffffffffffffff\n      and\n      dup2\n      jump\t// out\n        /* \"UmiversePayment.sol\":4324:4596  function recoverSignerPublic(... */\n    tag_61:\n        /* \"UmiversePayment.sol\":4452:4459  address */\n      0x00\n        /* \"UmiversePayment.sol\":4472:4481  bytes32 r */\n      dup1\n        /* \"UmiversePayment.sol\":4483:4492  bytes32 s */\n      0x00\n        /* \"UmiversePayment.sol\":4494:4501  uint8 v */\n      dup1\n        /* \"UmiversePayment.sol\":4505:4531  splitSignature(_signature) */\n      tag_140\n        /* \"UmiversePayment.sol\":4520:4530  _signature */\n      dup6\n        /* \"UmiversePayment.sol\":4505:4519  splitSignature */\n      tag_141\n        /* \"UmiversePayment.sol\":4505:4531  splitSignature(_signature) */\n      jump\t// in\n    tag_140:\n        /* \"UmiversePayment.sol\":4471:4531  (bytes32 r, bytes32 s, uint8 v) = splitSignature(_signature) */\n      swap3\n      pop\n      swap3\n      pop\n      swap3\n      pop\n        /* \"UmiversePayment.sol\":4548:4589  ecrecover(_ethSignedMessageHash, v, r, s) */\n      0x01\n        /* \"UmiversePayment.sol\":4558:4579  _ethSignedMessageHash */\n      dup7\n        /* \"UmiversePayment.sol\":4581:4582  v */\n      dup3\n        /* \"UmiversePayment.sol\":4584:4585  r */\n      dup6\n        /* \"UmiversePayment.sol\":4587:4588  s */\n      dup6\n        /* \"UmiversePayment.sol\":4548:4589  ecrecover(_ethSignedMessageHash, v, r, s) */\n      mload(0x40)\n      0x00\n      dup2\n      mstore\n      0x20\n      add\n      0x40\n      mstore\n      mload(0x40)\n      tag_142\n      swap5\n      swap4\n      swap3\n      swap2\n      swap1\n      tag_143\n      jump\t// in\n    tag_142:\n      0x20\n      mload(0x40)\n      0x20\n      dup2\n      sub\n      swap1\n      dup1\n      dup5\n      sub\n      swap1\n      dup6\n      gas\n      staticcall\n      iszero\n      dup1\n      iszero\n      tag_145\n      jumpi\n      returndatasize\n      0x00\n      dup1\n      returndatacopy\n      revert(0x00, returndatasize)\n    tag_145:\n      pop\n      pop\n      pop\n      mload(sub(mload(0x40), 0x20))\n        /* \"UmiversePayment.sol\":4541:4589  return ecrecover(_ethSignedMessageHash, v, r, s) */\n      swap4\n      pop\n      pop\n      pop\n      pop\n        /* \"UmiversePayment.sol\":4324:4596  function recoverSignerPublic(... */\n      swap3\n      swap2\n      pop\n      pop\n      jump\t// out\n        /* \"UmiversePayment.sol\":598:637  mapping(uint256 => Order) public orders */\n    tag_65:\n      mstore(0x20, 0x04)\n      dup1\n      0x00\n      mstore\n      keccak256(0x00, 0x40)\n      0x00\n      swap2\n      pop\n      swap1\n      pop\n      dup1\n      0x00\n      add\n      0x00\n      swap1\n      sload\n      swap1\n      0x0100\n      exp\n      swap1\n      div\n      0xffffffffffffffffffffffffffffffffffffffff\n      and\n      swap1\n      dup1\n      0x01\n      add\n      sload\n      swap1\n      dup1\n      0x02\n      add\n      sload\n      swap1\n      dup1\n      0x03\n      add\n      sload\n      swap1\n      dup1\n      0x04\n      add\n      sload\n      swap1\n      pop\n      dup6\n      jump\t// out\n        /* \"UmiversePayment.sol\":4920:5137  function compareStrings(string memory a, string memory b)... */\n    tag_70:\n        /* \"UmiversePayment.sol\":5025:5029  bool */\n      0x00\n        /* \"UmiversePayment.sol\":5126:5127  b */\n      dup2\n        /* \"UmiversePayment.sol\":5109:5128  abi.encodePacked(b) */\n      add(0x20, mload(0x40))\n      tag_147\n      swap2\n      swap1\n      tag_148\n      jump\t// in\n    tag_147:\n      mload(0x40)\n      0x20\n      dup2\n      dup4\n      sub\n      sub\n      dup2\n      mstore\n      swap1\n      0x40\n      mstore\n        /* \"UmiversePayment.sol\":5099:5129  keccak256(abi.encodePacked(b)) */\n      dup1\n      mload\n      swap1\n      0x20\n      add\n      keccak256\n        /* \"UmiversePayment.sol\":5080:5081  a */\n      dup4\n        /* \"UmiversePayment.sol\":5063:5082  abi.encodePacked(a) */\n      add(0x20, mload(0x40))\n      tag_149\n      swap2\n      swap1\n      tag_148\n      jump\t// in\n    tag_149:\n      mload(0x40)\n      0x20\n      dup2\n      dup4\n      sub\n      sub\n      dup2\n      mstore\n      swap1\n      0x40\n      mstore\n        /* \"UmiversePayment.sol\":5053:5083  keccak256(abi.encodePacked(a)) */\n      dup1\n      mload\n      swap1\n      0x20\n      add\n      keccak256\n        /* \"UmiversePayment.sol\":5053:5129  keccak256(abi.encodePacked(a)) ==... */\n      eq\n        /* \"UmiversePayment.sol\":5045:5130  return (keccak256(abi.encodePacked(a)) ==... */\n      swap1\n      pop\n        /* \"UmiversePayment.sol\":4920:5137  function compareStrings(string memory a, string memory b)... */\n      swap3\n      swap2\n      pop\n      pop\n      jump\t// out\n        /* \"UmiversePayment.sol\":3177:3722  function verify(... */\n    tag_107:\n        /* \"UmiversePayment.sol\":3385:3389  bool */\n      0x00\n        /* \"UmiversePayment.sol\":3401:3420  bytes32 messageHash */\n      dup1\n        /* \"UmiversePayment.sol\":3423:3557  getMessageHash(... */\n      tag_151\n        /* \"UmiversePayment.sol\":3451:3456  _from */\n      dup9\n        /* \"UmiversePayment.sol\":3470:3480  _recipient */\n      dup9\n        /* \"UmiversePayment.sol\":3494:3502  _orderId */\n      dup9\n        /* \"UmiversePayment.sol\":3516:3523  _amount */\n      dup9\n        /* \"UmiversePayment.sol\":3537:3547  _timestamp */\n      dup9\n        /* \"UmiversePayment.sol\":3423:3437  getMessageHash */\n      tag_37\n        /* \"UmiversePayment.sol\":3423:3557  getMessageHash(... */\n      jump\t// in\n    tag_151:\n        /* \"UmiversePayment.sol\":3401:3557  bytes32 messageHash = getMessageHash(... */\n      swap1\n      pop\n        /* \"UmiversePayment.sol\":3567:3595  bytes32 ethSignedMessageHash */\n      0x00\n        /* \"UmiversePayment.sol\":3598:3634  getEthSignedMessageHash(messageHash) */\n      tag_152\n        /* \"UmiversePayment.sol\":3622:3633  messageHash */\n      dup3\n        /* \"UmiversePayment.sol\":3598:3621  getEthSignedMessageHash */\n      tag_153\n        /* \"UmiversePayment.sol\":3598:3634  getEthSignedMessageHash(messageHash) */\n      jump\t// in\n    tag_152:\n        /* \"UmiversePayment.sol\":3567:3634  bytes32 ethSignedMessageHash = getEthSignedMessageHash(messageHash) */\n      swap1\n      pop\n        /* \"UmiversePayment.sol\":3702:3715  signerAddress */\n      0x02\n      0x00\n      swap1\n      sload\n      swap1\n      0x0100\n      exp\n      swap1\n      div\n      0xffffffffffffffffffffffffffffffffffffffff\n      and\n        /* \"UmiversePayment.sol\":3651:3715  recoverSigner(ethSignedMessageHash, _signature) == signerAddress */\n      0xffffffffffffffffffffffffffffffffffffffff\n      and\n        /* \"UmiversePayment.sol\":3651:3698  recoverSigner(ethSignedMessageHash, _signature) */\n      tag_154\n        /* \"UmiversePayment.sol\":3665:3685  ethSignedMessageHash */\n      dup3\n        /* \"UmiversePayment.sol\":3687:3697  _signature */\n      dup7\n        /* \"UmiversePayment.sol\":3651:3664  recoverSigner */\n      tag_155\n        /* \"UmiversePayment.sol\":3651:3698  recoverSigner(ethSignedMessageHash, _signature) */\n      jump\t// in\n    tag_154:\n        /* \"UmiversePayment.sol\":3651:3715  recoverSigner(ethSignedMessageHash, _signature) == signerAddress */\n      0xffffffffffffffffffffffffffffffffffffffff\n      and\n      eq\n        /* \"UmiversePayment.sol\":3644:3715  return recoverSigner(ethSignedMessageHash, _signature) == signerAddress */\n      swap3\n      pop\n      pop\n      pop\n        /* \"UmiversePayment.sol\":3177:3722  function verify(... */\n      swap7\n      swap6\n      pop\n      pop\n      pop\n      pop\n      pop\n      pop\n      jump\t// out\n        /* \"UmiversePayment.sol\":5143:5532  function splitSignature(bytes memory sig)... */\n    tag_141:\n        /* \"UmiversePayment.sol\":5245:5254  bytes32 r */\n      0x00\n        /* \"UmiversePayment.sol\":5268:5277  bytes32 s */\n      dup1\n        /* \"UmiversePayment.sol\":5291:5298  uint8 v */\n      0x00\n        /* \"UmiversePayment.sol\":5345:5347  65 */\n      0x41\n        /* \"UmiversePayment.sol\":5331:5334  sig */\n      dup5\n        /* \"UmiversePayment.sol\":5331:5341  sig.length */\n      mload\n        /* \"UmiversePayment.sol\":5331:5347  sig.length == 65 */\n      eq\n        /* \"UmiversePayment.sol\":5323:5376  require(sig.length == 65, \"invalid signature length\") */\n      tag_157\n      jumpi\n      mload(0x40)\n      0x08c379a000000000000000000000000000000000000000000000000000000000\n      dup2\n      mstore\n      0x04\n      add\n      tag_158\n      swap1\n      tag_159\n      jump\t// in\n    tag_158:\n      mload(0x40)\n      dup1\n      swap2\n      sub\n      swap1\n      revert\n    tag_157:\n        /* \"UmiversePayment.sol\":5429:5431  32 */\n      0x20\n        /* \"UmiversePayment.sol\":5424:5427  sig */\n      dup5\n        /* \"UmiversePayment.sol\":5420:5432  add(sig, 32) */\n      add\n        /* \"UmiversePayment.sol\":5414:5433  mload(add(sig, 32)) */\n      mload\n        /* \"UmiversePayment.sol\":5409:5433  r := mload(add(sig, 32)) */\n      swap3\n      pop\n        /* \"UmiversePayment.sol\":5466:5468  64 */\n      0x40\n        /* \"UmiversePayment.sol\":5461:5464  sig */\n      dup5\n        /* \"UmiversePayment.sol\":5457:5469  add(sig, 64) */\n      add\n        /* \"UmiversePayment.sol\":5451:5470  mload(add(sig, 64)) */\n      mload\n        /* \"UmiversePayment.sol\":5446:5470  s := mload(add(sig, 64)) */\n      swap2\n      pop\n        /* \"UmiversePayment.sol\":5511:5513  96 */\n      0x60\n        /* \"UmiversePayment.sol\":5506:5509  sig */\n      dup5\n        /* \"UmiversePayment.sol\":5502:5514  add(sig, 96) */\n      add\n        /* \"UmiversePayment.sol\":5496:5515  mload(add(sig, 96)) */\n      mload\n        /* \"UmiversePayment.sol\":5493:5494  0 */\n      0x00\n        /* \"UmiversePayment.sol\":5488:5516  byte(0, mload(add(sig, 96))) */\n      byte\n        /* \"UmiversePayment.sol\":5483:5516  v := byte(0, mload(add(sig, 96))) */\n      swap1\n      pop\n        /* \"UmiversePayment.sol\":5143:5532  function splitSignature(bytes memory sig)... */\n      swap2\n      swap4\n      swap1\n      swap3\n      pop\n      jump\t// out\n        /* \"UmiversePayment.sol\":3728:4044  function getEthSignedMessageHash(bytes32 _messageHash)... */\n    tag_153:\n        /* \"UmiversePayment.sol\":3830:3837  bytes32 */\n      0x00\n        /* \"UmiversePayment.sol\":3993:4005  _messageHash */\n      dup2\n        /* \"UmiversePayment.sol\":3899:4023  abi.encodePacked(... */\n      add(0x20, mload(0x40))\n      tag_161\n      swap2\n      swap1\n      tag_162\n      jump\t// in\n    tag_161:\n      mload(0x40)\n      0x20\n      dup2\n      dup4\n      sub\n      sub\n      dup2\n      mstore\n      swap1\n      0x40\n      mstore\n        /* \"UmiversePayment.sol\":3872:4037  keccak256(... */\n      dup1\n      mload\n      swap1\n      0x20\n      add\n      keccak256\n        /* \"UmiversePayment.sol\":3853:4037  return... */\n      swap1\n      pop\n        /* \"UmiversePayment.sol\":3728:4044  function getEthSignedMessageHash(bytes32 _messageHash)... */\n      swap2\n      swap1\n      pop\n      jump\t// out\n        /* \"UmiversePayment.sol\":4050:4318  function recoverSigner(... */\n    tag_155:\n        /* \"UmiversePayment.sol\":4174:4181  address */\n      0x00\n        /* \"UmiversePayment.sol\":4194:4203  bytes32 r */\n      dup1\n        /* \"UmiversePayment.sol\":4205:4214  bytes32 s */\n      0x00\n        /* \"UmiversePayment.sol\":4216:4223  uint8 v */\n      dup1\n        /* \"UmiversePayment.sol\":4227:4253  splitSignature(_signature) */\n      tag_164\n        /* \"UmiversePayment.sol\":4242:4252  _signature */\n      dup6\n        /* \"UmiversePayment.sol\":4227:4241  splitSignature */\n      tag_141\n        /* \"UmiversePayment.sol\":4227:4253  splitSignature(_signature) */\n      jump\t// in\n    tag_164:\n        /* \"UmiversePayment.sol\":4193:4253  (bytes32 r, bytes32 s, uint8 v) = splitSignature(_signature) */\n      swap3\n      pop\n      swap3\n      pop\n      swap3\n      pop\n        /* \"UmiversePayment.sol\":4270:4311  ecrecover(_ethSignedMessageHash, v, r, s) */\n      0x01\n        /* \"UmiversePayment.sol\":4280:4301  _ethSignedMessageHash */\n      dup7\n        /* \"UmiversePayment.sol\":4303:4304  v */\n      dup3\n        /* \"UmiversePayment.sol\":4306:4307  r */\n      dup6\n        /* \"UmiversePayment.sol\":4309:4310  s */\n      dup6\n        /* \"UmiversePayment.sol\":4270:4311  ecrecover(_ethSignedMessageHash, v, r, s) */\n      mload(0x40)\n      0x00\n      dup2\n      mstore\n      0x20\n      add\n      0x40\n      mstore\n      mload(0x40)\n      tag_165\n      swap5\n      swap4\n      swap3\n      swap2\n      swap1\n      tag_143\n      jump\t// in\n    tag_165:\n      0x20\n      mload(0x40)\n      0x20\n      dup2\n      sub\n      swap1\n      dup1\n      dup5\n      sub\n      swap1\n      dup6\n      gas\n      staticcall\n      iszero\n      dup1\n      iszero\n      tag_167\n      jumpi\n      returndatasize\n      0x00\n      dup1\n      returndatacopy\n      revert(0x00, returndatasize)\n    tag_167:\n      pop\n      pop\n      pop\n      mload(sub(mload(0x40), 0x20))\n        /* \"UmiversePayment.sol\":4263:4311  return ecrecover(_ethSignedMessageHash, v, r, s) */\n      swap4\n      pop\n      pop\n      pop\n      pop\n        /* \"UmiversePayment.sol\":4050:4318  function recoverSigner(... */\n      swap3\n      swap2\n      pop\n      pop\n      jump\t// out\n        /* \"#utility.yul\":7:82   */\n    tag_168:\n        /* \"#utility.yul\":40:46   */\n      0x00\n        /* \"#utility.yul\":73:75   */\n      0x40\n        /* \"#utility.yul\":67:76   */\n      mload\n        /* \"#utility.yul\":57:76   */\n      swap1\n      pop\n        /* \"#utility.yul\":7:82   */\n      swap1\n      jump\t// out\n        /* \"#utility.yul\":88:205   */\n    tag_169:\n        /* \"#utility.yul\":197:198   */\n      0x00\n        /* \"#utility.yul\":194:195   */\n      dup1\n        /* \"#utility.yul\":187:199   */\n      revert\n        /* \"#utility.yul\":211:328   */\n    tag_170:\n        /* \"#utility.yul\":320:321   */\n      0x00\n        /* \"#utility.yul\":317:318   */\n      dup1\n        /* \"#utility.yul\":310:322   */\n      revert\n        /* \"#utility.yul\":334:451   */\n    tag_171:\n        /* \"#utility.yul\":443:444   */\n      0x00\n        /* \"#utility.yul\":440:441   */\n      dup1\n        /* \"#utility.yul\":433:445   */\n      revert\n        /* \"#utility.yul\":457:574   */\n    tag_172:\n        /* \"#utility.yul\":566:567   */\n      0x00\n        /* \"#utility.yul\":563:564   */\n      dup1\n        /* \"#utility.yul\":556:568   */\n      revert\n        /* \"#utility.yul\":580:682   */\n    tag_173:\n        /* \"#utility.yul\":621:627   */\n      0x00\n        /* \"#utility.yul\":672:674   */\n      0x1f\n        /* \"#utility.yul\":668:675   */\n      not\n        /* \"#utility.yul\":663:665   */\n      0x1f\n        /* \"#utility.yul\":656:661   */\n      dup4\n        /* \"#utility.yul\":652:666   */\n      add\n        /* \"#utility.yul\":648:676   */\n      and\n        /* \"#utility.yul\":638:676   */\n      swap1\n      pop\n        /* \"#utility.yul\":580:682   */\n      swap2\n      swap1\n      pop\n      jump\t// out\n        /* \"#utility.yul\":688:868   */\n    tag_174:\n        /* \"#utility.yul\":736:813   */\n      0x4e487b7100000000000000000000000000000000000000000000000000000000\n        /* \"#utility.yul\":733:734   */\n      0x00\n        /* \"#utility.yul\":726:814   */\n      mstore\n        /* \"#utility.yul\":833:837   */\n      0x41\n        /* \"#utility.yul\":830:831   */\n      0x04\n        /* \"#utility.yul\":823:838   */\n      mstore\n        /* \"#utility.yul\":857:861   */\n      0x24\n        /* \"#utility.yul\":854:855   */\n      0x00\n        /* \"#utility.yul\":847:862   */\n      revert\n        /* \"#utility.yul\":874:1155   */\n    tag_175:\n        /* \"#utility.yul\":957:984   */\n      tag_251\n        /* \"#utility.yul\":979:983   */\n      dup3\n        /* \"#utility.yul\":957:984   */\n      tag_173\n      jump\t// in\n    tag_251:\n        /* \"#utility.yul\":949:955   */\n      dup2\n        /* \"#utility.yul\":945:985   */\n      add\n        /* \"#utility.yul\":1087:1093   */\n      dup2\n        /* \"#utility.yul\":1075:1085   */\n      dup2\n        /* \"#utility.yul\":1072:1094   */\n      lt\n        /* \"#utility.yul\":1051:1069   */\n      0xffffffffffffffff\n        /* \"#utility.yul\":1039:1049   */\n      dup3\n        /* \"#utility.yul\":1036:1070   */\n      gt\n        /* \"#utility.yul\":1033:1095   */\n      or\n        /* \"#utility.yul\":1030:1118   */\n      iszero\n      tag_252\n      jumpi\n        /* \"#utility.yul\":1098:1116   */\n      tag_253\n      tag_174\n      jump\t// in\n    tag_253:\n        /* \"#utility.yul\":1030:1118   */\n    tag_252:\n        /* \"#utility.yul\":1138:1148   */\n      dup1\n        /* \"#utility.yul\":1134:1136   */\n      0x40\n        /* \"#utility.yul\":1127:1149   */\n      mstore\n        /* \"#utility.yul\":917:1155   */\n      pop\n        /* \"#utility.yul\":874:1155   */\n      pop\n      pop\n      jump\t// out\n        /* \"#utility.yul\":1161:1290   */\n    tag_176:\n        /* \"#utility.yul\":1195:1201   */\n      0x00\n        /* \"#utility.yul\":1222:1242   */\n      tag_255\n      tag_168\n      jump\t// in\n    tag_255:\n        /* \"#utility.yul\":1212:1242   */\n      swap1\n      pop\n        /* \"#utility.yul\":1251:1284   */\n      tag_256\n        /* \"#utility.yul\":1279:1283   */\n      dup3\n        /* \"#utility.yul\":1271:1277   */\n      dup3\n        /* \"#utility.yul\":1251:1284   */\n      tag_175\n      jump\t// in\n    tag_256:\n        /* \"#utility.yul\":1161:1290   */\n      swap2\n      swap1\n      pop\n      jump\t// out\n        /* \"#utility.yul\":1296:1604   */\n    tag_177:\n        /* \"#utility.yul\":1358:1362   */\n      0x00\n        /* \"#utility.yul\":1448:1466   */\n      0xffffffffffffffff\n        /* \"#utility.yul\":1440:1446   */\n      dup3\n        /* \"#utility.yul\":1437:1467   */\n      gt\n        /* \"#utility.yul\":1434:1490   */\n      iszero\n      tag_258\n      jumpi\n        /* \"#utility.yul\":1470:1488   */\n      tag_259\n      tag_174\n      jump\t// in\n    tag_259:\n        /* \"#utility.yul\":1434:1490   */\n    tag_258:\n        /* \"#utility.yul\":1508:1537   */\n      tag_260\n        /* \"#utility.yul\":1530:1536   */\n      dup3\n        /* \"#utility.yul\":1508:1537   */\n      tag_173\n      jump\t// in\n    tag_260:\n        /* \"#utility.yul\":1500:1537   */\n      swap1\n      pop\n        /* \"#utility.yul\":1592:1596   */\n      0x20\n        /* \"#utility.yul\":1586:1590   */\n      dup2\n        /* \"#utility.yul\":1582:1597   */\n      add\n        /* \"#utility.yul\":1574:1597   */\n      swap1\n      pop\n        /* \"#utility.yul\":1296:1604   */\n      swap2\n      swap1\n      pop\n      jump\t// out\n        /* \"#utility.yul\":1610:1756   */\n    tag_178:\n        /* \"#utility.yul\":1707:1713   */\n      dup3\n        /* \"#utility.yul\":1702:1705   */\n      dup2\n        /* \"#utility.yul\":1697:1700   */\n      dup4\n        /* \"#utility.yul\":1684:1714   */\n      calldatacopy\n        /* \"#utility.yul\":1748:1749   */\n      0x00\n        /* \"#utility.yul\":1739:1745   */\n      dup4\n        /* \"#utility.yul\":1734:1737   */\n      dup4\n        /* \"#utility.yul\":1730:1746   */\n      add\n        /* \"#utility.yul\":1723:1750   */\n      mstore\n        /* \"#utility.yul\":1610:1756   */\n      pop\n      pop\n      pop\n      jump\t// out\n        /* \"#utility.yul\":1762:2187   */\n    tag_179:\n        /* \"#utility.yul\":1840:1845   */\n      0x00\n        /* \"#utility.yul\":1865:1931   */\n      tag_263\n        /* \"#utility.yul\":1881:1930   */\n      tag_264\n        /* \"#utility.yul\":1923:1929   */\n      dup5\n        /* \"#utility.yul\":1881:1930   */\n      tag_177\n      jump\t// in\n    tag_264:\n        /* \"#utility.yul\":1865:1931   */\n      tag_176\n      jump\t// in\n    tag_263:\n        /* \"#utility.yul\":1856:1931   */\n      swap1\n      pop\n        /* \"#utility.yul\":1954:1960   */\n      dup3\n        /* \"#utility.yul\":1947:1952   */\n      dup2\n        /* \"#utility.yul\":1940:1961   */\n      mstore\n        /* \"#utility.yul\":1992:1996   */\n      0x20\n        /* \"#utility.yul\":1985:1990   */\n      dup2\n        /* \"#utility.yul\":1981:1997   */\n      add\n        /* \"#utility.yul\":2030:2033   */\n      dup5\n        /* \"#utility.yul\":2021:2027   */\n      dup5\n        /* \"#utility.yul\":2016:2019   */\n      dup5\n        /* \"#utility.yul\":2012:2028   */\n      add\n        /* \"#utility.yul\":2009:2034   */\n      gt\n        /* \"#utility.yul\":2006:2118   */\n      iszero\n      tag_265\n      jumpi\n        /* \"#utility.yul\":2037:2116   */\n      tag_266\n      tag_172\n      jump\t// in\n    tag_266:\n        /* \"#utility.yul\":2006:2118   */\n    tag_265:\n        /* \"#utility.yul\":2127:2181   */\n      tag_267\n        /* \"#utility.yul\":2174:2180   */\n      dup5\n        /* \"#utility.yul\":2169:2172   */\n      dup3\n        /* \"#utility.yul\":2164:2167   */\n      dup6\n        /* \"#utility.yul\":2127:2181   */\n      tag_178\n      jump\t// in\n    tag_267:\n        /* \"#utility.yul\":1846:2187   */\n      pop\n        /* \"#utility.yul\":1762:2187   */\n      swap4\n      swap3\n      pop\n      pop\n      pop\n      jump\t// out\n        /* \"#utility.yul\":2207:2547   */\n    tag_180:\n        /* \"#utility.yul\":2263:2268   */\n      0x00\n        /* \"#utility.yul\":2312:2315   */\n      dup3\n        /* \"#utility.yul\":2305:2309   */\n      0x1f\n        /* \"#utility.yul\":2297:2303   */\n      dup4\n        /* \"#utility.yul\":2293:2310   */\n      add\n        /* \"#utility.yul\":2289:2316   */\n      slt\n        /* \"#utility.yul\":2279:2401   */\n      tag_269\n      jumpi\n        /* \"#utility.yul\":2320:2399   */\n      tag_270\n      tag_171\n      jump\t// in\n    tag_270:\n        /* \"#utility.yul\":2279:2401   */\n    tag_269:\n        /* \"#utility.yul\":2437:2443   */\n      dup2\n        /* \"#utility.yul\":2424:2444   */\n      calldataload\n        /* \"#utility.yul\":2462:2541   */\n      tag_271\n        /* \"#utility.yul\":2537:2540   */\n      dup5\n        /* \"#utility.yul\":2529:2535   */\n      dup3\n        /* \"#utility.yul\":2522:2526   */\n      0x20\n        /* \"#utility.yul\":2514:2520   */\n      dup7\n        /* \"#utility.yul\":2510:2527   */\n      add\n        /* \"#utility.yul\":2462:2541   */\n      tag_179\n      jump\t// in\n    tag_271:\n        /* \"#utility.yul\":2453:2541   */\n      swap2\n      pop\n        /* \"#utility.yul\":2269:2547   */\n      pop\n        /* \"#utility.yul\":2207:2547   */\n      swap3\n      swap2\n      pop\n      pop\n      jump\t// out\n        /* \"#utility.yul\":2553:3062   */\n    tag_18:\n        /* \"#utility.yul\":2622:2628   */\n      0x00\n        /* \"#utility.yul\":2671:2673   */\n      0x20\n        /* \"#utility.yul\":2659:2668   */\n      dup3\n        /* \"#utility.yul\":2650:2657   */\n      dup5\n        /* \"#utility.yul\":2646:2669   */\n      sub\n        /* \"#utility.yul\":2642:2674   */\n      slt\n        /* \"#utility.yul\":2639:2758   */\n      iszero\n      tag_273\n      jumpi\n        /* \"#utility.yul\":2677:2756   */\n      tag_274\n      tag_169\n      jump\t// in\n    tag_274:\n        /* \"#utility.yul\":2639:2758   */\n    tag_273:\n        /* \"#utility.yul\":2825:2826   */\n      0x00\n        /* \"#utility.yul\":2814:2823   */\n      dup3\n        /* \"#utility.yul\":2810:2827   */\n      add\n        /* \"#utility.yul\":2797:2828   */\n      calldataload\n        /* \"#utility.yul\":2855:2873   */\n      0xffffffffffffffff\n        /* \"#utility.yul\":2847:2853   */\n      dup2\n        /* \"#utility.yul\":2844:2874   */\n      gt\n        /* \"#utility.yul\":2841:2958   */\n      iszero\n      tag_275\n      jumpi\n        /* \"#utility.yul\":2877:2956   */\n      tag_276\n      tag_170\n      jump\t// in\n    tag_276:\n        /* \"#utility.yul\":2841:2958   */\n    tag_275:\n        /* \"#utility.yul\":2982:3045   */\n      tag_277\n        /* \"#utility.yul\":3037:3044   */\n      dup5\n        /* \"#utility.yul\":3028:3034   */\n      dup3\n        /* \"#utility.yul\":3017:3026   */\n      dup6\n        /* \"#utility.yul\":3013:3035   */\n      add\n        /* \"#utility.yul\":2982:3045   */\n      tag_180\n      jump\t// in\n    tag_277:\n        /* \"#utility.yul\":2972:3045   */\n      swap2\n      pop\n        /* \"#utility.yul\":2768:3055   */\n      pop\n        /* \"#utility.yul\":2553:3062   */\n      swap3\n      swap2\n      pop\n      pop\n      jump\t// out\n        /* \"#utility.yul\":3068:3158   */\n    tag_181:\n        /* \"#utility.yul\":3102:3109   */\n      0x00\n        /* \"#utility.yul\":3145:3150   */\n      dup2\n        /* \"#utility.yul\":3138:3151   */\n      iszero\n        /* \"#utility.yul\":3131:3152   */\n      iszero\n        /* \"#utility.yul\":3120:3152   */\n      swap1\n      pop\n        /* \"#utility.yul\":3068:3158   */\n      swap2\n      swap1\n      pop\n      jump\t// out\n        /* \"#utility.yul\":3164:3273   */\n    tag_182:\n        /* \"#utility.yul\":3245:3266   */\n      tag_280\n        /* \"#utility.yul\":3260:3265   */\n      dup2\n        /* \"#utility.yul\":3245:3266   */\n      tag_181\n      jump\t// in\n    tag_280:\n        /* \"#utility.yul\":3240:3243   */\n      dup3\n        /* \"#utility.yul\":3233:3267   */\n      mstore\n        /* \"#utility.yul\":3164:3273   */\n      pop\n      pop\n      jump\t// out\n        /* \"#utility.yul\":3279:3489   */\n    tag_21:\n        /* \"#utility.yul\":3366:3370   */\n      0x00\n        /* \"#utility.yul\":3404:3406   */\n      0x20\n        /* \"#utility.yul\":3393:3402   */\n      dup3\n        /* \"#utility.yul\":3389:3407   */\n      add\n        /* \"#utility.yul\":3381:3407   */\n      swap1\n      pop\n        /* \"#utility.yul\":3417:3482   */\n      tag_282\n        /* \"#utility.yul\":3479:3480   */\n      0x00\n        /* \"#utility.yul\":3468:3477   */\n      dup4\n        /* \"#utility.yul\":3464:3481   */\n      add\n        /* \"#utility.yul\":3455:3461   */\n      dup5\n        /* \"#utility.yul\":3417:3482   */\n      tag_182\n      jump\t// in\n    tag_282:\n        /* \"#utility.yul\":3279:3489   */\n      swap3\n      swap2\n      pop\n      pop\n      jump\t// out\n        /* \"#utility.yul\":3495:3621   */\n    tag_183:\n        /* \"#utility.yul\":3532:3539   */\n      0x00\n        /* \"#utility.yul\":3572:3614   */\n      0xffffffffffffffffffffffffffffffffffffffff\n        /* \"#utility.yul\":3565:3570   */\n      dup3\n        /* \"#utility.yul\":3561:3615   */\n      and\n        /* \"#utility.yul\":3550:3615   */\n      swap1\n      pop\n        /* \"#utility.yul\":3495:3621   */\n      swap2\n      swap1\n      pop\n      jump\t// out\n        /* \"#utility.yul\":3627:3687   */\n    tag_184:\n        /* \"#utility.yul\":3655:3658   */\n      0x00\n        /* \"#utility.yul\":3676:3681   */\n      dup2\n        /* \"#utility.yul\":3669:3681   */\n      swap1\n      pop\n        /* \"#utility.yul\":3627:3687   */\n      swap2\n      swap1\n      pop\n      jump\t// out\n        /* \"#utility.yul\":3693:3835   */\n    tag_185:\n        /* \"#utility.yul\":3743:3752   */\n      0x00\n        /* \"#utility.yul\":3776:3829   */\n      tag_286\n        /* \"#utility.yul\":3794:3828   */\n      tag_287\n        /* \"#utility.yul\":3803:3827   */\n      tag_288\n        /* \"#utility.yul\":3821:3826   */\n      dup5\n        /* \"#utility.yul\":3803:3827   */\n      tag_183\n      jump\t// in\n    tag_288:\n        /* \"#utility.yul\":3794:3828   */\n      tag_184\n      jump\t// in\n    tag_287:\n        /* \"#utility.yul\":3776:3829   */\n      tag_183\n      jump\t// in\n    tag_286:\n        /* \"#utility.yul\":3763:3829   */\n      swap1\n      pop\n        /* \"#utility.yul\":3693:3835   */\n      swap2\n      swap1\n      pop\n      jump\t// out\n        /* \"#utility.yul\":3841:3967   */\n    tag_186:\n        /* \"#utility.yul\":3891:3900   */\n      0x00\n        /* \"#utility.yul\":3924:3961   */\n      tag_290\n        /* \"#utility.yul\":3955:3960   */\n      dup3\n        /* \"#utility.yul\":3924:3961   */\n      tag_185\n      jump\t// in\n    tag_290:\n        /* \"#utility.yul\":3911:3961   */\n      swap1\n      pop\n        /* \"#utility.yul\":3841:3967   */\n      swap2\n      swap1\n      pop\n      jump\t// out\n        /* \"#utility.yul\":3973:4112   */\n    tag_187:\n        /* \"#utility.yul\":4036:4045   */\n      0x00\n        /* \"#utility.yul\":4069:4106   */\n      tag_292\n        /* \"#utility.yul\":4100:4105   */\n      dup3\n        /* \"#utility.yul\":4069:4106   */\n      tag_186\n      jump\t// in\n    tag_292:\n        /* \"#utility.yul\":4056:4106   */\n      swap1\n      pop\n        /* \"#utility.yul\":3973:4112   */\n      swap2\n      swap1\n      pop\n      jump\t// out\n        /* \"#utility.yul\":4118:4275   */\n    tag_188:\n        /* \"#utility.yul\":4218:4268   */\n      tag_294\n        /* \"#utility.yul\":4262:4267   */\n      dup2\n        /* \"#utility.yul\":4218:4268   */\n      tag_187\n      jump\t// in\n    tag_294:\n        /* \"#utility.yul\":4213:4216   */\n      dup3\n        /* \"#utility.yul\":4206:4269   */\n      mstore\n        /* \"#utility.yul\":4118:4275   */\n      pop\n      pop\n      jump\t// out\n        /* \"#utility.yul\":4281:4529   */\n    tag_25:\n        /* \"#utility.yul\":4387:4391   */\n      0x00\n        /* \"#utility.yul\":4425:4427   */\n      0x20\n        /* \"#utility.yul\":4414:4423   */\n      dup3\n        /* \"#utility.yul\":4410:4428   */\n      add\n        /* \"#utility.yul\":4402:4428   */\n      swap1\n      pop\n        /* \"#utility.yul\":4438:4522   */\n      tag_296\n        /* \"#utility.yul\":4519:4520   */\n      0x00\n        /* \"#utility.yul\":4508:4517   */\n      dup4\n        /* \"#utility.yul\":4504:4521   */\n      add\n        /* \"#utility.yul\":4495:4501   */\n      dup5\n        /* \"#utility.yul\":4438:4522   */\n      tag_188\n      jump\t// in\n    tag_296:\n        /* \"#utility.yul\":4281:4529   */\n      swap3\n      swap2\n      pop\n      pop\n      jump\t// out\n        /* \"#utility.yul\":4535:4612   */\n    tag_189:\n        /* \"#utility.yul\":4572:4579   */\n      0x00\n        /* \"#utility.yul\":4601:4606   */\n      dup2\n        /* \"#utility.yul\":4590:4606   */\n      swap1\n      pop\n        /* \"#utility.yul\":4535:4612   */\n      swap2\n      swap1\n      pop\n      jump\t// out\n        /* \"#utility.yul\":4618:4736   */\n    tag_190:\n        /* \"#utility.yul\":4705:4729   */\n      tag_299\n        /* \"#utility.yul\":4723:4728   */\n      dup2\n        /* \"#utility.yul\":4705:4729   */\n      tag_189\n      jump\t// in\n    tag_299:\n        /* \"#utility.yul\":4700:4703   */\n      dup3\n        /* \"#utility.yul\":4693:4730   */\n      mstore\n        /* \"#utility.yul\":4618:4736   */\n      pop\n      pop\n      jump\t// out\n        /* \"#utility.yul\":4742:4964   */\n    tag_29:\n        /* \"#utility.yul\":4835:4839   */\n      0x00\n        /* \"#utility.yul\":4873:4875   */\n      0x20\n        /* \"#utility.yul\":4862:4871   */\n      dup3\n        /* \"#utility.yul\":4858:4876   */\n      add\n        /* \"#utility.yul\":4850:4876   */\n      swap1\n      pop\n        /* \"#utility.yul\":4886:4957   */\n      tag_301\n        /* \"#utility.yul\":4954:4955   */\n      0x00\n        /* \"#utility.yul\":4943:4952   */\n      dup4\n        /* \"#utility.yul\":4939:4956   */\n      add\n        /* \"#utility.yul\":4930:4936   */\n      dup5\n        /* \"#utility.yul\":4886:4957   */\n      tag_190\n      jump\t// in\n    tag_301:\n        /* \"#utility.yul\":4742:4964   */\n      swap3\n      swap2\n      pop\n      pop\n      jump\t// out\n        /* \"#utility.yul\":4970:5092   */\n    tag_191:\n        /* \"#utility.yul\":5043:5067   */\n      tag_303\n        /* \"#utility.yul\":5061:5066   */\n      dup2\n        /* \"#utility.yul\":5043:5067   */\n      tag_189\n      jump\t// in\n    tag_303:\n        /* \"#utility.yul\":5036:5041   */\n      dup2\n        /* \"#utility.yul\":5033:5068   */\n      eq\n        /* \"#utility.yul\":5023:5086   */\n      tag_304\n      jumpi\n        /* \"#utility.yul\":5082:5083   */\n      0x00\n        /* \"#utility.yul\":5079:5080   */\n      dup1\n        /* \"#utility.yul\":5072:5084   */\n      revert\n        /* \"#utility.yul\":5023:5086   */\n    tag_304:\n        /* \"#utility.yul\":4970:5092   */\n      pop\n      jump\t// out\n        /* \"#utility.yul\":5098:5237   */\n    tag_192:\n        /* \"#utility.yul\":5144:5149   */\n      0x00\n        /* \"#utility.yul\":5182:5188   */\n      dup2\n        /* \"#utility.yul\":5169:5189   */\n      calldataload\n        /* \"#utility.yul\":5160:5189   */\n      swap1\n      pop\n        /* \"#utility.yul\":5198:5231   */\n      tag_306\n        /* \"#utility.yul\":5225:5230   */\n      dup2\n        /* \"#utility.yul\":5198:5231   */\n      tag_191\n      jump\t// in\n    tag_306:\n        /* \"#utility.yul\":5098:5237   */\n      swap3\n      swap2\n      pop\n      pop\n      jump\t// out\n        /* \"#utility.yul\":5243:5572   */\n    tag_32:\n        /* \"#utility.yul\":5302:5308   */\n      0x00\n        /* \"#utility.yul\":5351:5353   */\n      0x20\n        /* \"#utility.yul\":5339:5348   */\n      dup3\n        /* \"#utility.yul\":5330:5337   */\n      dup5\n        /* \"#utility.yul\":5326:5349   */\n      sub\n        /* \"#utility.yul\":5322:5354   */\n      slt\n        /* \"#utility.yul\":5319:5438   */\n      iszero\n      tag_308\n      jumpi\n        /* \"#utility.yul\":5357:5436   */\n      tag_309\n      tag_169\n      jump\t// in\n    tag_309:\n        /* \"#utility.yul\":5319:5438   */\n    tag_308:\n        /* \"#utility.yul\":5477:5478   */\n      0x00\n        /* \"#utility.yul\":5502:5555   */\n      tag_310\n        /* \"#utility.yul\":5547:5554   */\n      dup5\n        /* \"#utility.yul\":5538:5544   */\n      dup3\n        /* \"#utility.yul\":5527:5536   */\n      dup6\n        /* \"#utility.yul\":5523:5545   */\n      add\n        /* \"#utility.yul\":5502:5555   */\n      tag_192\n      jump\t// in\n    tag_310:\n        /* \"#utility.yul\":5492:5555   */\n      swap2\n      pop\n        /* \"#utility.yul\":5448:5565   */\n      pop\n        /* \"#utility.yul\":5243:5572   */\n      swap3\n      swap2\n      pop\n      pop\n      jump\t// out\n        /* \"#utility.yul\":5578:5674   */\n    tag_193:\n        /* \"#utility.yul\":5615:5622   */\n      0x00\n        /* \"#utility.yul\":5644:5668   */\n      tag_312\n        /* \"#utility.yul\":5662:5667   */\n      dup3\n        /* \"#utility.yul\":5644:5668   */\n      tag_183\n      jump\t// in\n    tag_312:\n        /* \"#utility.yul\":5633:5668   */\n      swap1\n      pop\n        /* \"#utility.yul\":5578:5674   */\n      swap2\n      swap1\n      pop\n      jump\t// out\n        /* \"#utility.yul\":5680:5802   */\n    tag_194:\n        /* \"#utility.yul\":5753:5777   */\n      tag_314\n        /* \"#utility.yul\":5771:5776   */\n      dup2\n        /* \"#utility.yul\":5753:5777   */\n      tag_193\n      jump\t// in\n    tag_314:\n        /* \"#utility.yul\":5746:5751   */\n      dup2\n        /* \"#utility.yul\":5743:5778   */\n      eq\n        /* \"#utility.yul\":5733:5796   */\n      tag_315\n      jumpi\n        /* \"#utility.yul\":5792:5793   */\n      0x00\n        /* \"#utility.yul\":5789:5790   */\n      dup1\n        /* \"#utility.yul\":5782:5794   */\n      revert\n        /* \"#utility.yul\":5733:5796   */\n    tag_315:\n        /* \"#utility.yul\":5680:5802   */\n      pop\n      jump\t// out\n        /* \"#utility.yul\":5808:5947   */\n    tag_195:\n        /* \"#utility.yul\":5854:5859   */\n      0x00\n        /* \"#utility.yul\":5892:5898   */\n      dup2\n        /* \"#utility.yul\":5879:5899   */\n      calldataload\n        /* \"#utility.yul\":5870:5899   */\n      swap1\n      pop\n        /* \"#utility.yul\":5908:5941   */\n      tag_317\n        /* \"#utility.yul\":5935:5940   */\n      dup2\n        /* \"#utility.yul\":5908:5941   */\n      tag_194\n      jump\t// in\n    tag_317:\n        /* \"#utility.yul\":5808:5947   */\n      swap3\n      swap2\n      pop\n      pop\n      jump\t// out\n        /* \"#utility.yul\":5953:6864   */\n    tag_36:\n        /* \"#utility.yul\":6048:6054   */\n      0x00\n        /* \"#utility.yul\":6056:6062   */\n      dup1\n        /* \"#utility.yul\":6064:6070   */\n      0x00\n        /* \"#utility.yul\":6072:6078   */\n      dup1\n        /* \"#utility.yul\":6080:6086   */\n      0x00\n        /* \"#utility.yul\":6129:6132   */\n      0xa0\n        /* \"#utility.yul\":6117:6126   */\n      dup7\n        /* \"#utility.yul\":6108:6115   */\n      dup9\n        /* \"#utility.yul\":6104:6127   */\n      sub\n        /* \"#utility.yul\":6100:6133   */\n      slt\n        /* \"#utility.yul\":6097:6217   */\n      iszero\n      tag_319\n      jumpi\n        /* \"#utility.yul\":6136:6215   */\n      tag_320\n      tag_169\n      jump\t// in\n    tag_320:\n        /* \"#utility.yul\":6097:6217   */\n    tag_319:\n        /* \"#utility.yul\":6256:6257   */\n      0x00\n        /* \"#utility.yul\":6281:6334   */\n      tag_321\n        /* \"#utility.yul\":6326:6333   */\n      dup9\n        /* \"#utility.yul\":6317:6323   */\n      dup3\n        /* \"#utility.yul\":6306:6315   */\n      dup10\n        /* \"#utility.yul\":6302:6324   */\n      add\n        /* \"#utility.yul\":6281:6334   */\n      tag_195\n      jump\t// in\n    tag_321:\n        /* \"#utility.yul\":6271:6334   */\n      swap6\n      pop\n        /* \"#utility.yul\":6227:6344   */\n      pop\n        /* \"#utility.yul\":6383:6385   */\n      0x20\n        /* \"#utility.yul\":6409:6462   */\n      tag_322\n        /* \"#utility.yul\":6454:6461   */\n      dup9\n        /* \"#utility.yul\":6445:6451   */\n      dup3\n        /* \"#utility.yul\":6434:6443   */\n      dup10\n        /* \"#utility.yul\":6430:6452   */\n      add\n        /* \"#utility.yul\":6409:6462   */\n      tag_195\n      jump\t// in\n    tag_322:\n        /* \"#utility.yul\":6399:6462   */\n      swap5\n      pop\n        /* \"#utility.yul\":6354:6472   */\n      pop\n        /* \"#utility.yul\":6511:6513   */\n      0x40\n        /* \"#utility.yul\":6537:6590   */\n      tag_323\n        /* \"#utility.yul\":6582:6589   */\n      dup9\n        /* \"#utility.yul\":6573:6579   */\n      dup3\n        /* \"#utility.yul\":6562:6571   */\n      dup10\n        /* \"#utility.yul\":6558:6580   */\n      add\n        /* \"#utility.yul\":6537:6590   */\n      tag_192\n      jump\t// in\n    tag_323:\n        /* \"#utility.yul\":6527:6590   */\n      swap4\n      pop\n        /* \"#utility.yul\":6482:6600   */\n      pop\n        /* \"#utility.yul\":6639:6641   */\n      0x60\n        /* \"#utility.yul\":6665:6718   */\n      tag_324\n        /* \"#utility.yul\":6710:6717   */\n      dup9\n        /* \"#utility.yul\":6701:6707   */\n      dup3\n        /* \"#utility.yul\":6690:6699   */\n      dup10\n        /* \"#utility.yul\":6686:6708   */\n      add\n        /* \"#utility.yul\":6665:6718   */\n      tag_192\n      jump\t// in\n    tag_324:\n        /* \"#utility.yul\":6655:6718   */\n      swap3\n      pop\n        /* \"#utility.yul\":6610:6728   */\n      pop\n        /* \"#utility.yul\":6767:6770   */\n      0x80\n        /* \"#utility.yul\":6794:6847   */\n      tag_325\n        /* \"#utility.yul\":6839:6846   */\n      dup9\n        /* \"#utility.yul\":6830:6836   */\n      dup3\n        /* \"#utility.yul\":6819:6828   */\n      dup10\n        /* \"#utility.yul\":6815:6837   */\n      add\n        /* \"#utility.yul\":6794:6847   */\n      tag_192\n      jump\t// in\n    tag_325:\n        /* \"#utility.yul\":6784:6847   */\n      swap2\n      pop\n        /* \"#utility.yul\":6738:6857   */\n      pop\n        /* \"#utility.yul\":5953:6864   */\n      swap3\n      swap6\n      pop\n      swap3\n      swap6\n      swap1\n      swap4\n      pop\n      jump\t// out\n        /* \"#utility.yul\":6870:6947   */\n    tag_196:\n        /* \"#utility.yul\":6907:6914   */\n      0x00\n        /* \"#utility.yul\":6936:6941   */\n      dup2\n        /* \"#utility.yul\":6925:6941   */\n      swap1\n      pop\n        /* \"#utility.yul\":6870:6947   */\n      swap2\n      swap1\n      pop\n      jump\t// out\n        /* \"#utility.yul\":6953:7071   */\n    tag_197:\n        /* \"#utility.yul\":7040:7064   */\n      tag_328\n        /* \"#utility.yul\":7058:7063   */\n      dup2\n        /* \"#utility.yul\":7040:7064   */\n      tag_196\n      jump\t// in\n    tag_328:\n        /* \"#utility.yul\":7035:7038   */\n      dup3\n        /* \"#utility.yul\":7028:7065   */\n      mstore\n        /* \"#utility.yul\":6953:7071   */\n      pop\n      pop\n      jump\t// out\n        /* \"#utility.yul\":7077:7299   */\n    tag_39:\n        /* \"#utility.yul\":7170:7174   */\n      0x00\n        /* \"#utility.yul\":7208:7210   */\n      0x20\n        /* \"#utility.yul\":7197:7206   */\n      dup3\n        /* \"#utility.yul\":7193:7211   */\n      add\n        /* \"#utility.yul\":7185:7211   */\n      swap1\n      pop\n        /* \"#utility.yul\":7221:7292   */\n      tag_330\n        /* \"#utility.yul\":7289:7290   */\n      0x00\n        /* \"#utility.yul\":7278:7287   */\n      dup4\n        /* \"#utility.yul\":7274:7291   */\n      add\n        /* \"#utility.yul\":7265:7271   */\n      dup5\n        /* \"#utility.yul\":7221:7292   */\n      tag_197\n      jump\t// in\n    tag_330:\n        /* \"#utility.yul\":7077:7299   */\n      swap3\n      swap2\n      pop\n      pop\n      jump\t// out\n        /* \"#utility.yul\":7305:7423   */\n    tag_198:\n        /* \"#utility.yul\":7392:7416   */\n      tag_332\n        /* \"#utility.yul\":7410:7415   */\n      dup2\n        /* \"#utility.yul\":7392:7416   */\n      tag_193\n      jump\t// in\n    tag_332:\n        /* \"#utility.yul\":7387:7390   */\n      dup3\n        /* \"#utility.yul\":7380:7417   */\n      mstore\n        /* \"#utility.yul\":7305:7423   */\n      pop\n      pop\n      jump\t// out\n        /* \"#utility.yul\":7429:7651   */\n    tag_43:\n        /* \"#utility.yul\":7522:7526   */\n      0x00\n        /* \"#utility.yul\":7560:7562   */\n      0x20\n        /* \"#utility.yul\":7549:7558   */\n      dup3\n        /* \"#utility.yul\":7545:7563   */\n      add\n        /* \"#utility.yul\":7537:7563   */\n      swap1\n      pop\n        /* \"#utility.yul\":7573:7644   */\n      tag_334\n        /* \"#utility.yul\":7641:7642   */\n      0x00\n        /* \"#utility.yul\":7630:7639   */\n      dup4\n        /* \"#utility.yul\":7626:7643   */\n      add\n        /* \"#utility.yul\":7617:7623   */\n      dup5\n        /* \"#utility.yul\":7573:7644   */\n      tag_198\n      jump\t// in\n    tag_334:\n        /* \"#utility.yul\":7429:7651   */\n      swap3\n      swap2\n      pop\n      pop\n      jump\t// out\n        /* \"#utility.yul\":7657:7964   */\n    tag_199:\n        /* \"#utility.yul\":7718:7722   */\n      0x00\n        /* \"#utility.yul\":7808:7826   */\n      0xffffffffffffffff\n        /* \"#utility.yul\":7800:7806   */\n      dup3\n        /* \"#utility.yul\":7797:7827   */\n      gt\n        /* \"#utility.yul\":7794:7850   */\n      iszero\n      tag_336\n      jumpi\n        /* \"#utility.yul\":7830:7848   */\n      tag_337\n      tag_174\n      jump\t// in\n    tag_337:\n        /* \"#utility.yul\":7794:7850   */\n    tag_336:\n        /* \"#utility.yul\":7868:7897   */\n      tag_338\n        /* \"#utility.yul\":7890:7896   */\n      dup3\n        /* \"#utility.yul\":7868:7897   */\n      tag_173\n      jump\t// in\n    tag_338:\n        /* \"#utility.yul\":7860:7897   */\n      swap1\n      pop\n        /* \"#utility.yul\":7952:7956   */\n      0x20\n        /* \"#utility.yul\":7946:7950   */\n      dup2\n        /* \"#utility.yul\":7942:7957   */\n      add\n        /* \"#utility.yul\":7934:7957   */\n      swap1\n      pop\n        /* \"#utility.yul\":7657:7964   */\n      swap2\n      swap1\n      pop\n      jump\t// out\n        /* \"#utility.yul\":7970:8393   */\n    tag_200:\n        /* \"#utility.yul\":8047:8052   */\n      0x00\n        /* \"#utility.yul\":8072:8137   */\n      tag_340\n        /* \"#utility.yul\":8088:8136   */\n      tag_341\n        /* \"#utility.yul\":8129:8135   */\n      dup5\n        /* \"#utility.yul\":8088:8136   */\n      tag_199\n      jump\t// in\n    tag_341:\n        /* \"#utility.yul\":8072:8137   */\n      tag_176\n      jump\t// in\n    tag_340:\n        /* \"#utility.yul\":8063:8137   */\n      swap1\n      pop\n        /* \"#utility.yul\":8160:8166   */\n      dup3\n        /* \"#utility.yul\":8153:8158   */\n      dup2\n        /* \"#utility.yul\":8146:8167   */\n      mstore\n        /* \"#utility.yul\":8198:8202   */\n      0x20\n        /* \"#utility.yul\":8191:8196   */\n      dup2\n        /* \"#utility.yul\":8187:8203   */\n      add\n        /* \"#utility.yul\":8236:8239   */\n      dup5\n        /* \"#utility.yul\":8227:8233   */\n      dup5\n        /* \"#utility.yul\":8222:8225   */\n      dup5\n        /* \"#utility.yul\":8218:8234   */\n      add\n        /* \"#utility.yul\":8215:8240   */\n      gt\n        /* \"#utility.yul\":8212:8324   */\n      iszero\n      tag_342\n      jumpi\n        /* \"#utility.yul\":8243:8322   */\n      tag_343\n      tag_172\n      jump\t// in\n    tag_343:\n        /* \"#utility.yul\":8212:8324   */\n    tag_342:\n        /* \"#utility.yul\":8333:8387   */\n      tag_344\n        /* \"#utility.yul\":8380:8386   */\n      dup5\n        /* \"#utility.yul\":8375:8378   */\n      dup3\n        /* \"#utility.yul\":8370:8373   */\n      dup6\n        /* \"#utility.yul\":8333:8387   */\n      tag_178\n      jump\t// in\n    tag_344:\n        /* \"#utility.yul\":8053:8393   */\n      pop\n        /* \"#utility.yul\":7970:8393   */\n      swap4\n      swap3\n      pop\n      pop\n      pop\n      jump\t// out\n        /* \"#utility.yul\":8412:8750   */\n    tag_201:\n        /* \"#utility.yul\":8467:8472   */\n      0x00\n        /* \"#utility.yul\":8516:8519   */\n      dup3\n        /* \"#utility.yul\":8509:8513   */\n      0x1f\n        /* \"#utility.yul\":8501:8507   */\n      dup4\n        /* \"#utility.yul\":8497:8514   */\n      add\n        /* \"#utility.yul\":8493:8520   */\n      slt\n        /* \"#utility.yul\":8483:8605   */\n      tag_346\n      jumpi\n        /* \"#utility.yul\":8524:8603   */\n      tag_347\n      tag_171\n      jump\t// in\n    tag_347:\n        /* \"#utility.yul\":8483:8605   */\n    tag_346:\n        /* \"#utility.yul\":8641:8647   */\n      dup2\n        /* \"#utility.yul\":8628:8648   */\n      calldataload\n        /* \"#utility.yul\":8666:8744   */\n      tag_348\n        /* \"#utility.yul\":8740:8743   */\n      dup5\n        /* \"#utility.yul\":8732:8738   */\n      dup3\n        /* \"#utility.yul\":8725:8729   */\n      0x20\n        /* \"#utility.yul\":8717:8723   */\n      dup7\n        /* \"#utility.yul\":8713:8730   */\n      add\n        /* \"#utility.yul\":8666:8744   */\n      tag_200\n      jump\t// in\n    tag_348:\n        /* \"#utility.yul\":8657:8744   */\n      swap2\n      pop\n        /* \"#utility.yul\":8473:8750   */\n      pop\n        /* \"#utility.yul\":8412:8750   */\n      swap3\n      swap2\n      pop\n      pop\n      jump\t// out\n        /* \"#utility.yul\":8756:9991   */\n    tag_46:\n        /* \"#utility.yul\":8869:8875   */\n      0x00\n        /* \"#utility.yul\":8877:8883   */\n      dup1\n        /* \"#utility.yul\":8885:8891   */\n      0x00\n        /* \"#utility.yul\":8893:8899   */\n      dup1\n        /* \"#utility.yul\":8901:8907   */\n      0x00\n        /* \"#utility.yul\":8909:8915   */\n      dup1\n        /* \"#utility.yul\":8958:8961   */\n      0xc0\n        /* \"#utility.yul\":8946:8955   */\n      dup8\n        /* \"#utility.yul\":8937:8944   */\n      dup10\n        /* \"#utility.yul\":8933:8956   */\n      sub\n        /* \"#utility.yul\":8929:8962   */\n      slt\n        /* \"#utility.yul\":8926:9046   */\n      iszero\n      tag_350\n      jumpi\n        /* \"#utility.yul\":8965:9044   */\n      tag_351\n      tag_169\n      jump\t// in\n    tag_351:\n        /* \"#utility.yul\":8926:9046   */\n    tag_350:\n        /* \"#utility.yul\":9085:9086   */\n      0x00\n        /* \"#utility.yul\":9110:9163   */\n      tag_352\n        /* \"#utility.yul\":9155:9162   */\n      dup10\n        /* \"#utility.yul\":9146:9152   */\n      dup3\n        /* \"#utility.yul\":9135:9144   */\n      dup11\n        /* \"#utility.yul\":9131:9153   */\n      add\n        /* \"#utility.yul\":9110:9163   */\n      tag_195\n      jump\t// in\n    tag_352:\n        /* \"#utility.yul\":9100:9163   */\n      swap7\n      pop\n        /* \"#utility.yul\":9056:9173   */\n      pop\n        /* \"#utility.yul\":9212:9214   */\n      0x20\n        /* \"#utility.yul\":9238:9291   */\n      tag_353\n        /* \"#utility.yul\":9283:9290   */\n      dup10\n        /* \"#utility.yul\":9274:9280   */\n      dup3\n        /* \"#utility.yul\":9263:9272   */\n      dup11\n        /* \"#utility.yul\":9259:9281   */\n      add\n        /* \"#utility.yul\":9238:9291   */\n      tag_195\n      jump\t// in\n    tag_353:\n        /* \"#utility.yul\":9228:9291   */\n      swap6\n      pop\n        /* \"#utility.yul\":9183:9301   */\n      pop\n        /* \"#utility.yul\":9340:9342   */\n      0x40\n        /* \"#utility.yul\":9366:9419   */\n      tag_354\n        /* \"#utility.yul\":9411:9418   */\n      dup10\n        /* \"#utility.yul\":9402:9408   */\n      dup3\n        /* \"#utility.yul\":9391:9400   */\n      dup11\n        /* \"#utility.yul\":9387:9409   */\n      add\n        /* \"#utility.yul\":9366:9419   */\n      tag_192\n      jump\t// in\n    tag_354:\n        /* \"#utility.yul\":9356:9419   */\n      swap5\n      pop\n        /* \"#utility.yul\":9311:9429   */\n      pop\n        /* \"#utility.yul\":9468:9470   */\n      0x60\n        /* \"#utility.yul\":9494:9547   */\n      tag_355\n        /* \"#utility.yul\":9539:9546   */\n      dup10\n        /* \"#utility.yul\":9530:9536   */\n      dup3\n        /* \"#utility.yul\":9519:9528   */\n      dup11\n        /* \"#utility.yul\":9515:9537   */\n      add\n        /* \"#utility.yul\":9494:9547   */\n      tag_192\n      jump\t// in\n    tag_355:\n        /* \"#utility.yul\":9484:9547   */\n      swap4\n      pop\n        /* \"#utility.yul\":9439:9557   */\n      pop\n        /* \"#utility.yul\":9596:9599   */\n      0x80\n        /* \"#utility.yul\":9623:9676   */\n      tag_356\n        /* \"#utility.yul\":9668:9675   */\n      dup10\n        /* \"#utility.yul\":9659:9665   */\n      dup3\n        /* \"#utility.yul\":9648:9657   */\n      dup11\n        /* \"#utility.yul\":9644:9666   */\n      add\n        /* \"#utility.yul\":9623:9676   */\n      tag_192\n      jump\t// in\n    tag_356:\n        /* \"#utility.yul\":9613:9676   */\n      swap3\n      pop\n        /* \"#utility.yul\":9567:9686   */\n      pop\n        /* \"#utility.yul\":9753:9756   */\n      0xa0\n        /* \"#utility.yul\":9742:9751   */\n      dup8\n        /* \"#utility.yul\":9738:9757   */\n      add\n        /* \"#utility.yul\":9725:9758   */\n      calldataload\n        /* \"#utility.yul\":9785:9803   */\n      0xffffffffffffffff\n        /* \"#utility.yul\":9777:9783   */\n      dup2\n        /* \"#utility.yul\":9774:9804   */\n      gt\n        /* \"#utility.yul\":9771:9888   */\n      iszero\n      tag_357\n      jumpi\n        /* \"#utility.yul\":9807:9886   */\n      tag_358\n      tag_170\n      jump\t// in\n    tag_358:\n        /* \"#utility.yul\":9771:9888   */\n    tag_357:\n        /* \"#utility.yul\":9912:9974   */\n      tag_359\n        /* \"#utility.yul\":9966:9973   */\n      dup10\n        /* \"#utility.yul\":9957:9963   */\n      dup3\n        /* \"#utility.yul\":9946:9955   */\n      dup11\n        /* \"#utility.yul\":9942:9964   */\n      add\n        /* \"#utility.yul\":9912:9974   */\n      tag_201\n      jump\t// in\n    tag_359:\n        /* \"#utility.yul\":9902:9974   */\n      swap2\n      pop\n        /* \"#utility.yul\":9696:9984   */\n      pop\n        /* \"#utility.yul\":8756:9991   */\n      swap3\n      swap6\n      pop\n      swap3\n      swap6\n      pop\n      swap3\n      swap6\n      jump\t// out\n        /* \"#utility.yul\":9997:10616   */\n    tag_53:\n        /* \"#utility.yul\":10074:10080   */\n      0x00\n        /* \"#utility.yul\":10082:10088   */\n      dup1\n        /* \"#utility.yul\":10090:10096   */\n      0x00\n        /* \"#utility.yul\":10139:10141   */\n      0x60\n        /* \"#utility.yul\":10127:10136   */\n      dup5\n        /* \"#utility.yul\":10118:10125   */\n      dup7\n        /* \"#utility.yul\":10114:10137   */\n      sub\n        /* \"#utility.yul\":10110:10142   */\n      slt\n        /* \"#utility.yul\":10107:10226   */\n      iszero\n      tag_361\n      jumpi\n        /* \"#utility.yul\":10145:10224   */\n      tag_362\n      tag_169\n      jump\t// in\n    tag_362:\n        /* \"#utility.yul\":10107:10226   */\n    tag_361:\n        /* \"#utility.yul\":10265:10266   */\n      0x00\n        /* \"#utility.yul\":10290:10343   */\n      tag_363\n        /* \"#utility.yul\":10335:10342   */\n      dup7\n        /* \"#utility.yul\":10326:10332   */\n      dup3\n        /* \"#utility.yul\":10315:10324   */\n      dup8\n        /* \"#utility.yul\":10311:10333   */\n      add\n        /* \"#utility.yul\":10290:10343   */\n      tag_195\n      jump\t// in\n    tag_363:\n        /* \"#utility.yul\":10280:10343   */\n      swap4\n      pop\n        /* \"#utility.yul\":10236:10353   */\n      pop\n        /* \"#utility.yul\":10392:10394   */\n      0x20\n        /* \"#utility.yul\":10418:10471   */\n      tag_364\n        /* \"#utility.yul\":10463:10470   */\n      dup7\n        /* \"#utility.yul\":10454:10460   */\n      dup3\n        /* \"#utility.yul\":10443:10452   */\n      dup8\n        /* \"#utility.yul\":10439:10461   */\n      add\n        /* \"#utility.yul\":10418:10471   */\n      tag_195\n      jump\t// in\n    tag_364:\n        /* \"#utility.yul\":10408:10471   */\n      swap3\n      pop\n        /* \"#utility.yul\":10363:10481   */\n      pop\n        /* \"#utility.yul\":10520:10522   */\n      0x40\n        /* \"#utility.yul\":10546:10599   */\n      tag_365\n        /* \"#utility.yul\":10591:10598   */\n      dup7\n        /* \"#utility.yul\":10582:10588   */\n      dup3\n        /* \"#utility.yul\":10571:10580   */\n      dup8\n        /* \"#utility.yul\":10567:10589   */\n      add\n        /* \"#utility.yul\":10546:10599   */\n      tag_195\n      jump\t// in\n    tag_365:\n        /* \"#utility.yul\":10536:10599   */\n      swap2\n      pop\n        /* \"#utility.yul\":10491:10609   */\n      pop\n        /* \"#utility.yul\":9997:10616   */\n      swap3\n      pop\n      swap3\n      pop\n      swap3\n      jump\t// out\n        /* \"#utility.yul\":10622:10744   */\n    tag_202:\n        /* \"#utility.yul\":10695:10719   */\n      tag_367\n        /* \"#utility.yul\":10713:10718   */\n      dup2\n        /* \"#utility.yul\":10695:10719   */\n      tag_196\n      jump\t// in\n    tag_367:\n        /* \"#utility.yul\":10688:10693   */\n      dup2\n        /* \"#utility.yul\":10685:10720   */\n      eq\n        /* \"#utility.yul\":10675:10738   */\n      tag_368\n      jumpi\n        /* \"#utility.yul\":10734:10735   */\n      0x00\n        /* \"#utility.yul\":10731:10732   */\n      dup1\n        /* \"#utility.yul\":10724:10736   */\n      revert\n        /* \"#utility.yul\":10675:10738   */\n    tag_368:\n        /* \"#utility.yul\":10622:10744   */\n      pop\n      jump\t// out\n        /* \"#utility.yul\":10750:10889   */\n    tag_203:\n        /* \"#utility.yul\":10796:10801   */\n      0x00\n        /* \"#utility.yul\":10834:10840   */\n      dup2\n        /* \"#utility.yul\":10821:10841   */\n      calldataload\n        /* \"#utility.yul\":10812:10841   */\n      swap1\n      pop\n        /* \"#utility.yul\":10850:10883   */\n      tag_370\n        /* \"#utility.yul\":10877:10882   */\n      dup2\n        /* \"#utility.yul\":10850:10883   */\n      tag_202\n      jump\t// in\n    tag_370:\n        /* \"#utility.yul\":10750:10889   */\n      swap3\n      swap2\n      pop\n      pop\n      jump\t// out\n        /* \"#utility.yul\":10895:11547   */\n    tag_60:\n        /* \"#utility.yul\":10972:10978   */\n      0x00\n        /* \"#utility.yul\":10980:10986   */\n      dup1\n        /* \"#utility.yul\":11029:11031   */\n      0x40\n        /* \"#utility.yul\":11017:11026   */\n      dup4\n        /* \"#utility.yul\":11008:11015   */\n      dup6\n        /* \"#utility.yul\":11004:11027   */\n      sub\n        /* \"#utility.yul\":11000:11032   */\n      slt\n        /* \"#utility.yul\":10997:11116   */\n      iszero\n      tag_372\n      jumpi\n        /* \"#utility.yul\":11035:11114   */\n      tag_373\n      tag_169\n      jump\t// in\n    tag_373:\n        /* \"#utility.yul\":10997:11116   */\n    tag_372:\n        /* \"#utility.yul\":11155:11156   */\n      0x00\n        /* \"#utility.yul\":11180:11233   */\n      tag_374\n        /* \"#utility.yul\":11225:11232   */\n      dup6\n        /* \"#utility.yul\":11216:11222   */\n      dup3\n        /* \"#utility.yul\":11205:11214   */\n      dup7\n        /* \"#utility.yul\":11201:11223   */\n      add\n        /* \"#utility.yul\":11180:11233   */\n      tag_203\n      jump\t// in\n    tag_374:\n        /* \"#utility.yul\":11170:11233   */\n      swap3\n      pop\n        /* \"#utility.yul\":11126:11243   */\n      pop\n        /* \"#utility.yul\":11310:11312   */\n      0x20\n        /* \"#utility.yul\":11299:11308   */\n      dup4\n        /* \"#utility.yul\":11295:11313   */\n      add\n        /* \"#utility.yul\":11282:11314   */\n      calldataload\n        /* \"#utility.yul\":11341:11359   */\n      0xffffffffffffffff\n        /* \"#utility.yul\":11333:11339   */\n      dup2\n        /* \"#utility.yul\":11330:11360   */\n      gt\n        /* \"#utility.yul\":11327:11444   */\n      iszero\n      tag_375\n      jumpi\n        /* \"#utility.yul\":11363:11442   */\n      tag_376\n      tag_170\n      jump\t// in\n    tag_376:\n        /* \"#utility.yul\":11327:11444   */\n    tag_375:\n        /* \"#utility.yul\":11468:11530   */\n      tag_377\n        /* \"#utility.yul\":11522:11529   */\n      dup6\n        /* \"#utility.yul\":11513:11519   */\n      dup3\n        /* \"#utility.yul\":11502:11511   */\n      dup7\n        /* \"#utility.yul\":11498:11520   */\n      add\n        /* \"#utility.yul\":11468:11530   */\n      tag_201\n      jump\t// in\n    tag_377:\n        /* \"#utility.yul\":11458:11530   */\n      swap2\n      pop\n        /* \"#utility.yul\":11253:11540   */\n      pop\n        /* \"#utility.yul\":10895:11547   */\n      swap3\n      pop\n      swap3\n      swap1\n      pop\n      jump\t// out\n        /* \"#utility.yul\":11553:12217   */\n    tag_67:\n        /* \"#utility.yul\":11758:11762   */\n      0x00\n        /* \"#utility.yul\":11796:11799   */\n      0xa0\n        /* \"#utility.yul\":11785:11794   */\n      dup3\n        /* \"#utility.yul\":11781:11800   */\n      add\n        /* \"#utility.yul\":11773:11800   */\n      swap1\n      pop\n        /* \"#utility.yul\":11810:11881   */\n      tag_379\n        /* \"#utility.yul\":11878:11879   */\n      0x00\n        /* \"#utility.yul\":11867:11876   */\n      dup4\n        /* \"#utility.yul\":11863:11880   */\n      add\n        /* \"#utility.yul\":11854:11860   */\n      dup9\n        /* \"#utility.yul\":11810:11881   */\n      tag_198\n      jump\t// in\n    tag_379:\n        /* \"#utility.yul\":11891:11963   */\n      tag_380\n        /* \"#utility.yul\":11959:11961   */\n      0x20\n        /* \"#utility.yul\":11948:11957   */\n      dup4\n        /* \"#utility.yul\":11944:11962   */\n      add\n        /* \"#utility.yul\":11935:11941   */\n      dup8\n        /* \"#utility.yul\":11891:11963   */\n      tag_190\n      jump\t// in\n    tag_380:\n        /* \"#utility.yul\":11973:12045   */\n      tag_381\n        /* \"#utility.yul\":12041:12043   */\n      0x40\n        /* \"#utility.yul\":12030:12039   */\n      dup4\n        /* \"#utility.yul\":12026:12044   */\n      add\n        /* \"#utility.yul\":12017:12023   */\n      dup7\n        /* \"#utility.yul\":11973:12045   */\n      tag_190\n      jump\t// in\n    tag_381:\n        /* \"#utility.yul\":12055:12127   */\n      tag_382\n        /* \"#utility.yul\":12123:12125   */\n      0x60\n        /* \"#utility.yul\":12112:12121   */\n      dup4\n        /* \"#utility.yul\":12108:12126   */\n      add\n        /* \"#utility.yul\":12099:12105   */\n      dup6\n        /* \"#utility.yul\":12055:12127   */\n      tag_190\n      jump\t// in\n    tag_382:\n        /* \"#utility.yul\":12137:12210   */\n      tag_383\n        /* \"#utility.yul\":12205:12208   */\n      0x80\n        /* \"#utility.yul\":12194:12203   */\n      dup4\n        /* \"#utility.yul\":12190:12209   */\n      add\n        /* \"#utility.yul\":12181:12187   */\n      dup5\n        /* \"#utility.yul\":12137:12210   */\n      tag_190\n      jump\t// in\n    tag_383:\n        /* \"#utility.yul\":11553:12217   */\n      swap7\n      swap6\n      pop\n      pop\n      pop\n      pop\n      pop\n      pop\n      jump\t// out\n        /* \"#utility.yul\":12223:12392   */\n    tag_204:\n        /* \"#utility.yul\":12307:12318   */\n      0x00\n        /* \"#utility.yul\":12341:12347   */\n      dup3\n        /* \"#utility.yul\":12336:12339   */\n      dup3\n        /* \"#utility.yul\":12329:12348   */\n      mstore\n        /* \"#utility.yul\":12381:12385   */\n      0x20\n        /* \"#utility.yul\":12376:12379   */\n      dup3\n        /* \"#utility.yul\":12372:12386   */\n      add\n        /* \"#utility.yul\":12357:12386   */\n      swap1\n      pop\n        /* \"#utility.yul\":12223:12392   */\n      swap3\n      swap2\n      pop\n      pop\n      jump\t// out\n        /* \"#utility.yul\":12398:12618   */\n    tag_205:\n        /* \"#utility.yul\":12538:12572   */\n      0x4f6e6c79206f776e65722063616e2063616c6c20746869732066756e6374696f\n        /* \"#utility.yul\":12534:12535   */\n      0x00\n        /* \"#utility.yul\":12526:12532   */\n      dup3\n        /* \"#utility.yul\":12522:12536   */\n      add\n        /* \"#utility.yul\":12515:12573   */\n      mstore\n        /* \"#utility.yul\":12607:12610   */\n      0x6e00000000000000000000000000000000000000000000000000000000000000\n        /* \"#utility.yul\":12602:12604   */\n      0x20\n        /* \"#utility.yul\":12594:12600   */\n      dup3\n        /* \"#utility.yul\":12590:12605   */\n      add\n        /* \"#utility.yul\":12583:12611   */\n      mstore\n        /* \"#utility.yul\":12398:12618   */\n      pop\n      jump\t// out\n        /* \"#utility.yul\":12624:12990   */\n    tag_206:\n        /* \"#utility.yul\":12766:12769   */\n      0x00\n        /* \"#utility.yul\":12787:12854   */\n      tag_387\n        /* \"#utility.yul\":12851:12853   */\n      0x21\n        /* \"#utility.yul\":12846:12849   */\n      dup4\n        /* \"#utility.yul\":12787:12854   */\n      tag_204\n      jump\t// in\n    tag_387:\n        /* \"#utility.yul\":12780:12854   */\n      swap2\n      pop\n        /* \"#utility.yul\":12863:12956   */\n      tag_388\n        /* \"#utility.yul\":12952:12955   */\n      dup3\n        /* \"#utility.yul\":12863:12956   */\n      tag_205\n      jump\t// in\n    tag_388:\n        /* \"#utility.yul\":12981:12983   */\n      0x40\n        /* \"#utility.yul\":12976:12979   */\n      dup3\n        /* \"#utility.yul\":12972:12984   */\n      add\n        /* \"#utility.yul\":12965:12984   */\n      swap1\n      pop\n        /* \"#utility.yul\":12624:12990   */\n      swap2\n      swap1\n      pop\n      jump\t// out\n        /* \"#utility.yul\":12996:13415   */\n    tag_82:\n        /* \"#utility.yul\":13162:13166   */\n      0x00\n        /* \"#utility.yul\":13200:13202   */\n      0x20\n        /* \"#utility.yul\":13189:13198   */\n      dup3\n        /* \"#utility.yul\":13185:13203   */\n      add\n        /* \"#utility.yul\":13177:13203   */\n      swap1\n      pop\n        /* \"#utility.yul\":13249:13258   */\n      dup2\n        /* \"#utility.yul\":13243:13247   */\n      dup2\n        /* \"#utility.yul\":13239:13259   */\n      sub\n        /* \"#utility.yul\":13235:13236   */\n      0x00\n        /* \"#utility.yul\":13224:13233   */\n      dup4\n        /* \"#utility.yul\":13220:13237   */\n      add\n        /* \"#utility.yul\":13213:13260   */\n      mstore\n        /* \"#utility.yul\":13277:13408   */\n      tag_390\n        /* \"#utility.yul\":13403:13407   */\n      dup2\n        /* \"#utility.yul\":13277:13408   */\n      tag_206\n      jump\t// in\n    tag_390:\n        /* \"#utility.yul\":13269:13408   */\n      swap1\n      pop\n        /* \"#utility.yul\":12996:13415   */\n      swap2\n      swap1\n      pop\n      jump\t// out\n        /* \"#utility.yul\":13421:13585   */\n    tag_207:\n        /* \"#utility.yul\":13561:13577   */\n      0x496e76616c696420616d6f756e74000000000000000000000000000000000000\n        /* \"#utility.yul\":13557:13558   */\n      0x00\n        /* \"#utility.yul\":13549:13555   */\n      dup3\n        /* \"#utility.yul\":13545:13559   */\n      add\n        /* \"#utility.yul\":13538:13578   */\n      mstore\n        /* \"#utility.yul\":13421:13585   */\n      pop\n      jump\t// out\n        /* \"#utility.yul\":13591:13957   */\n    tag_208:\n        /* \"#utility.yul\":13733:13736   */\n      0x00\n        /* \"#utility.yul\":13754:13821   */\n      tag_393\n        /* \"#utility.yul\":13818:13820   */\n      0x0e\n        /* \"#utility.yul\":13813:13816   */\n      dup4\n        /* \"#utility.yul\":13754:13821   */\n      tag_204\n      jump\t// in\n    tag_393:\n        /* \"#utility.yul\":13747:13821   */\n      swap2\n      pop\n        /* \"#utility.yul\":13830:13923   */\n      tag_394\n        /* \"#utility.yul\":13919:13922   */\n      dup3\n        /* \"#utility.yul\":13830:13923   */\n      tag_207\n      jump\t// in\n    tag_394:\n        /* \"#utility.yul\":13948:13950   */\n      0x20\n        /* \"#utility.yul\":13943:13946   */\n      dup3\n        /* \"#utility.yul\":13939:13951   */\n      add\n        /* \"#utility.yul\":13932:13951   */\n      swap1\n      pop\n        /* \"#utility.yul\":13591:13957   */\n      swap2\n      swap1\n      pop\n      jump\t// out\n        /* \"#utility.yul\":13963:14382   */\n    tag_86:\n        /* \"#utility.yul\":14129:14133   */\n      0x00\n        /* \"#utility.yul\":14167:14169   */\n      0x20\n        /* \"#utility.yul\":14156:14165   */\n      dup3\n        /* \"#utility.yul\":14152:14170   */\n      add\n        /* \"#utility.yul\":14144:14170   */\n      swap1\n      pop\n        /* \"#utility.yul\":14216:14225   */\n      dup2\n        /* \"#utility.yul\":14210:14214   */\n      dup2\n        /* \"#utility.yul\":14206:14226   */\n      sub\n        /* \"#utility.yul\":14202:14203   */\n      0x00\n        /* \"#utility.yul\":14191:14200   */\n      dup4\n        /* \"#utility.yul\":14187:14204   */\n      add\n        /* \"#utility.yul\":14180:14227   */\n      mstore\n        /* \"#utility.yul\":14244:14375   */\n      tag_396\n        /* \"#utility.yul\":14370:14374   */\n      dup2\n        /* \"#utility.yul\":14244:14375   */\n      tag_208\n      jump\t// in\n    tag_396:\n        /* \"#utility.yul\":14236:14375   */\n      swap1\n      pop\n        /* \"#utility.yul\":13963:14382   */\n      swap2\n      swap1\n      pop\n      jump\t// out\n        /* \"#utility.yul\":14388:14720   */\n    tag_88:\n        /* \"#utility.yul\":14509:14513   */\n      0x00\n        /* \"#utility.yul\":14547:14549   */\n      0x40\n        /* \"#utility.yul\":14536:14545   */\n      dup3\n        /* \"#utility.yul\":14532:14550   */\n      add\n        /* \"#utility.yul\":14524:14550   */\n      swap1\n      pop\n        /* \"#utility.yul\":14560:14631   */\n      tag_398\n        /* \"#utility.yul\":14628:14629   */\n      0x00\n        /* \"#utility.yul\":14617:14626   */\n      dup4\n        /* \"#utility.yul\":14613:14630   */\n      add\n        /* \"#utility.yul\":14604:14610   */\n      dup6\n        /* \"#utility.yul\":14560:14631   */\n      tag_198\n      jump\t// in\n    tag_398:\n        /* \"#utility.yul\":14641:14713   */\n      tag_399\n        /* \"#utility.yul\":14709:14711   */\n      0x20\n        /* \"#utility.yul\":14698:14707   */\n      dup4\n        /* \"#utility.yul\":14694:14712   */\n      add\n        /* \"#utility.yul\":14685:14691   */\n      dup5\n        /* \"#utility.yul\":14641:14713   */\n      tag_190\n      jump\t// in\n    tag_399:\n        /* \"#utility.yul\":14388:14720   */\n      swap4\n      swap3\n      pop\n      pop\n      pop\n      jump\t// out\n        /* \"#utility.yul\":14726:14842   */\n    tag_209:\n        /* \"#utility.yul\":14796:14817   */\n      tag_401\n        /* \"#utility.yul\":14811:14816   */\n      dup2\n        /* \"#utility.yul\":14796:14817   */\n      tag_181\n      jump\t// in\n    tag_401:\n        /* \"#utility.yul\":14789:14794   */\n      dup2\n        /* \"#utility.yul\":14786:14818   */\n      eq\n        /* \"#utility.yul\":14776:14836   */\n      tag_402\n      jumpi\n        /* \"#utility.yul\":14832:14833   */\n      0x00\n        /* \"#utility.yul\":14829:14830   */\n      dup1\n        /* \"#utility.yul\":14822:14834   */\n      revert\n        /* \"#utility.yul\":14776:14836   */\n    tag_402:\n        /* \"#utility.yul\":14726:14842   */\n      pop\n      jump\t// out\n        /* \"#utility.yul\":14848:14985   */\n    tag_210:\n        /* \"#utility.yul\":14902:14907   */\n      0x00\n        /* \"#utility.yul\":14933:14939   */\n      dup2\n        /* \"#utility.yul\":14927:14940   */\n      mload\n        /* \"#utility.yul\":14918:14940   */\n      swap1\n      pop\n        /* \"#utility.yul\":14949:14979   */\n      tag_404\n        /* \"#utility.yul\":14973:14978   */\n      dup2\n        /* \"#utility.yul\":14949:14979   */\n      tag_209\n      jump\t// in\n    tag_404:\n        /* \"#utility.yul\":14848:14985   */\n      swap3\n      swap2\n      pop\n      pop\n      jump\t// out\n        /* \"#utility.yul\":14991:15336   */\n    tag_92:\n        /* \"#utility.yul\":15058:15064   */\n      0x00\n        /* \"#utility.yul\":15107:15109   */\n      0x20\n        /* \"#utility.yul\":15095:15104   */\n      dup3\n        /* \"#utility.yul\":15086:15093   */\n      dup5\n        /* \"#utility.yul\":15082:15105   */\n      sub\n        /* \"#utility.yul\":15078:15110   */\n      slt\n        /* \"#utility.yul\":15075:15194   */\n      iszero\n      tag_406\n      jumpi\n        /* \"#utility.yul\":15113:15192   */\n      tag_407\n      tag_169\n      jump\t// in\n    tag_407:\n        /* \"#utility.yul\":15075:15194   */\n    tag_406:\n        /* \"#utility.yul\":15233:15234   */\n      0x00\n        /* \"#utility.yul\":15258:15319   */\n      tag_408\n        /* \"#utility.yul\":15311:15318   */\n      dup5\n        /* \"#utility.yul\":15302:15308   */\n      dup3\n        /* \"#utility.yul\":15291:15300   */\n      dup6\n        /* \"#utility.yul\":15287:15309   */\n      add\n        /* \"#utility.yul\":15258:15319   */\n      tag_210\n      jump\t// in\n    tag_408:\n        /* \"#utility.yul\":15248:15319   */\n      swap2\n      pop\n        /* \"#utility.yul\":15204:15329   */\n      pop\n        /* \"#utility.yul\":14991:15336   */\n      swap3\n      swap2\n      pop\n      pop\n      jump\t// out\n        /* \"#utility.yul\":15342:15513   */\n    tag_211:\n        /* \"#utility.yul\":15482:15505   */\n      0x546f6b656e207472616e73666572206661696c65640000000000000000000000\n        /* \"#utility.yul\":15478:15479   */\n      0x00\n        /* \"#utility.yul\":15470:15476   */\n      dup3\n        /* \"#utility.yul\":15466:15480   */\n      add\n        /* \"#utility.yul\":15459:15506   */\n      mstore\n        /* \"#utility.yul\":15342:15513   */\n      pop\n      jump\t// out\n        /* \"#utility.yul\":15519:15885   */\n    tag_212:\n        /* \"#utility.yul\":15661:15664   */\n      0x00\n        /* \"#utility.yul\":15682:15749   */\n      tag_411\n        /* \"#utility.yul\":15746:15748   */\n      0x15\n        /* \"#utility.yul\":15741:15744   */\n      dup4\n        /* \"#utility.yul\":15682:15749   */\n      tag_204\n      jump\t// in\n    tag_411:\n        /* \"#utility.yul\":15675:15749   */\n      swap2\n      pop\n        /* \"#utility.yul\":15758:15851   */\n      tag_412\n        /* \"#utility.yul\":15847:15850   */\n      dup3\n        /* \"#utility.yul\":15758:15851   */\n      tag_211\n      jump\t// in\n    tag_412:\n        /* \"#utility.yul\":15876:15878   */\n      0x20\n        /* \"#utility.yul\":15871:15874   */\n      dup3\n        /* \"#utility.yul\":15867:15879   */\n      add\n        /* \"#utility.yul\":15860:15879   */\n      swap1\n      pop\n        /* \"#utility.yul\":15519:15885   */\n      swap2\n      swap1\n      pop\n      jump\t// out\n        /* \"#utility.yul\":15891:16310   */\n    tag_95:\n        /* \"#utility.yul\":16057:16061   */\n      0x00\n        /* \"#utility.yul\":16095:16097   */\n      0x20\n        /* \"#utility.yul\":16084:16093   */\n      dup3\n        /* \"#utility.yul\":16080:16098   */\n      add\n        /* \"#utility.yul\":16072:16098   */\n      swap1\n      pop\n        /* \"#utility.yul\":16144:16153   */\n      dup2\n        /* \"#utility.yul\":16138:16142   */\n      dup2\n        /* \"#utility.yul\":16134:16154   */\n      sub\n        /* \"#utility.yul\":16130:16131   */\n      0x00\n        /* \"#utility.yul\":16119:16128   */\n      dup4\n        /* \"#utility.yul\":16115:16132   */\n      add\n        /* \"#utility.yul\":16108:16155   */\n      mstore\n        /* \"#utility.yul\":16172:16303   */\n      tag_414\n        /* \"#utility.yul\":16298:16302   */\n      dup2\n        /* \"#utility.yul\":16172:16303   */\n      tag_212\n      jump\t// in\n    tag_414:\n        /* \"#utility.yul\":16164:16303   */\n      swap1\n      pop\n        /* \"#utility.yul\":15891:16310   */\n      swap2\n      swap1\n      pop\n      jump\t// out\n        /* \"#utility.yul\":16316:16410   */\n    tag_213:\n        /* \"#utility.yul\":16349:16357   */\n      0x00\n        /* \"#utility.yul\":16397:16402   */\n      dup2\n        /* \"#utility.yul\":16393:16395   */\n      0x60\n        /* \"#utility.yul\":16389:16403   */\n      shl\n        /* \"#utility.yul\":16368:16403   */\n      swap1\n      pop\n        /* \"#utility.yul\":16316:16410   */\n      swap2\n      swap1\n      pop\n      jump\t// out\n        /* \"#utility.yul\":16416:16510   */\n    tag_214:\n        /* \"#utility.yul\":16455:16462   */\n      0x00\n        /* \"#utility.yul\":16484:16504   */\n      tag_417\n        /* \"#utility.yul\":16498:16503   */\n      dup3\n        /* \"#utility.yul\":16484:16504   */\n      tag_213\n      jump\t// in\n    tag_417:\n        /* \"#utility.yul\":16473:16504   */\n      swap1\n      pop\n        /* \"#utility.yul\":16416:16510   */\n      swap2\n      swap1\n      pop\n      jump\t// out\n        /* \"#utility.yul\":16516:16616   */\n    tag_215:\n        /* \"#utility.yul\":16555:16562   */\n      0x00\n        /* \"#utility.yul\":16584:16610   */\n      tag_419\n        /* \"#utility.yul\":16604:16609   */\n      dup3\n        /* \"#utility.yul\":16584:16610   */\n      tag_214\n      jump\t// in\n    tag_419:\n        /* \"#utility.yul\":16573:16610   */\n      swap1\n      pop\n        /* \"#utility.yul\":16516:16616   */\n      swap2\n      swap1\n      pop\n      jump\t// out\n        /* \"#utility.yul\":16622:16779   */\n    tag_216:\n        /* \"#utility.yul\":16727:16772   */\n      tag_421\n        /* \"#utility.yul\":16747:16771   */\n      tag_422\n        /* \"#utility.yul\":16765:16770   */\n      dup3\n        /* \"#utility.yul\":16747:16771   */\n      tag_193\n      jump\t// in\n    tag_422:\n        /* \"#utility.yul\":16727:16772   */\n      tag_215\n      jump\t// in\n    tag_421:\n        /* \"#utility.yul\":16722:16725   */\n      dup3\n        /* \"#utility.yul\":16715:16773   */\n      mstore\n        /* \"#utility.yul\":16622:16779   */\n      pop\n      pop\n      jump\t// out\n        /* \"#utility.yul\":16785:16864   */\n    tag_217:\n        /* \"#utility.yul\":16824:16831   */\n      0x00\n        /* \"#utility.yul\":16853:16858   */\n      dup2\n        /* \"#utility.yul\":16842:16858   */\n      swap1\n      pop\n        /* \"#utility.yul\":16785:16864   */\n      swap2\n      swap1\n      pop\n      jump\t// out\n        /* \"#utility.yul\":16870:17027   */\n    tag_218:\n        /* \"#utility.yul\":16975:17020   */\n      tag_425\n        /* \"#utility.yul\":16995:17019   */\n      tag_426\n        /* \"#utility.yul\":17013:17018   */\n      dup3\n        /* \"#utility.yul\":16995:17019   */\n      tag_189\n      jump\t// in\n    tag_426:\n        /* \"#utility.yul\":16975:17020   */\n      tag_217\n      jump\t// in\n    tag_425:\n        /* \"#utility.yul\":16970:16973   */\n      dup3\n        /* \"#utility.yul\":16963:17021   */\n      mstore\n        /* \"#utility.yul\":16870:17027   */\n      pop\n      pop\n      jump\t// out\n        /* \"#utility.yul\":17033:17853   */\n    tag_99:\n        /* \"#utility.yul\":17257:17260   */\n      0x00\n        /* \"#utility.yul\":17272:17347   */\n      tag_428\n        /* \"#utility.yul\":17343:17346   */\n      dup3\n        /* \"#utility.yul\":17334:17340   */\n      dup9\n        /* \"#utility.yul\":17272:17347   */\n      tag_216\n      jump\t// in\n    tag_428:\n        /* \"#utility.yul\":17372:17374   */\n      0x14\n        /* \"#utility.yul\":17367:17370   */\n      dup3\n        /* \"#utility.yul\":17363:17375   */\n      add\n        /* \"#utility.yul\":17356:17375   */\n      swap2\n      pop\n        /* \"#utility.yul\":17385:17460   */\n      tag_429\n        /* \"#utility.yul\":17456:17459   */\n      dup3\n        /* \"#utility.yul\":17447:17453   */\n      dup8\n        /* \"#utility.yul\":17385:17460   */\n      tag_216\n      jump\t// in\n    tag_429:\n        /* \"#utility.yul\":17485:17487   */\n      0x14\n        /* \"#utility.yul\":17480:17483   */\n      dup3\n        /* \"#utility.yul\":17476:17488   */\n      add\n        /* \"#utility.yul\":17469:17488   */\n      swap2\n      pop\n        /* \"#utility.yul\":17498:17573   */\n      tag_430\n        /* \"#utility.yul\":17569:17572   */\n      dup3\n        /* \"#utility.yul\":17560:17566   */\n      dup7\n        /* \"#utility.yul\":17498:17573   */\n      tag_218\n      jump\t// in\n    tag_430:\n        /* \"#utility.yul\":17598:17600   */\n      0x20\n        /* \"#utility.yul\":17593:17596   */\n      dup3\n        /* \"#utility.yul\":17589:17601   */\n      add\n        /* \"#utility.yul\":17582:17601   */\n      swap2\n      pop\n        /* \"#utility.yul\":17611:17686   */\n      tag_431\n        /* \"#utility.yul\":17682:17685   */\n      dup3\n        /* \"#utility.yul\":17673:17679   */\n      dup6\n        /* \"#utility.yul\":17611:17686   */\n      tag_218\n      jump\t// in\n    tag_431:\n        /* \"#utility.yul\":17711:17713   */\n      0x20\n        /* \"#utility.yul\":17706:17709   */\n      dup3\n        /* \"#utility.yul\":17702:17714   */\n      add\n        /* \"#utility.yul\":17695:17714   */\n      swap2\n      pop\n        /* \"#utility.yul\":17724:17799   */\n      tag_432\n        /* \"#utility.yul\":17795:17798   */\n      dup3\n        /* \"#utility.yul\":17786:17792   */\n      dup5\n        /* \"#utility.yul\":17724:17799   */\n      tag_218\n      jump\t// in\n    tag_432:\n        /* \"#utility.yul\":17824:17826   */\n      0x20\n        /* \"#utility.yul\":17819:17822   */\n      dup3\n        /* \"#utility.yul\":17815:17827   */\n      add\n        /* \"#utility.yul\":17808:17827   */\n      swap2\n      pop\n        /* \"#utility.yul\":17844:17847   */\n      dup2\n        /* \"#utility.yul\":17837:17847   */\n      swap1\n      pop\n        /* \"#utility.yul\":17033:17853   */\n      swap7\n      swap6\n      pop\n      pop\n      pop\n      pop\n      pop\n      pop\n      jump\t// out\n        /* \"#utility.yul\":17859:18037   */\n    tag_219:\n        /* \"#utility.yul\":17999:18029   */\n      0x43563a2066726f6d20746f20746865207a65726f206164647265737300000000\n        /* \"#utility.yul\":17995:17996   */\n      0x00\n        /* \"#utility.yul\":17987:17993   */\n      dup3\n        /* \"#utility.yul\":17983:17997   */\n      add\n        /* \"#utility.yul\":17976:18030   */\n      mstore\n        /* \"#utility.yul\":17859:18037   */\n      pop\n      jump\t// out\n        /* \"#utility.yul\":18043:18409   */\n    tag_220:\n        /* \"#utility.yul\":18185:18188   */\n      0x00\n        /* \"#utility.yul\":18206:18273   */\n      tag_435\n        /* \"#utility.yul\":18270:18272   */\n      0x1c\n        /* \"#utility.yul\":18265:18268   */\n      dup4\n        /* \"#utility.yul\":18206:18273   */\n      tag_204\n      jump\t// in\n    tag_435:\n        /* \"#utility.yul\":18199:18273   */\n      swap2\n      pop\n        /* \"#utility.yul\":18282:18375   */\n      tag_436\n        /* \"#utility.yul\":18371:18374   */\n      dup3\n        /* \"#utility.yul\":18282:18375   */\n      tag_219\n      jump\t// in\n    tag_436:\n        /* \"#utility.yul\":18400:18402   */\n      0x20\n        /* \"#utility.yul\":18395:18398   */\n      dup3\n        /* \"#utility.yul\":18391:18403   */\n      add\n        /* \"#utility.yul\":18384:18403   */\n      swap1\n      pop\n        /* \"#utility.yul\":18043:18409   */\n      swap2\n      swap1\n      pop\n      jump\t// out\n        /* \"#utility.yul\":18415:18834   */\n    tag_105:\n        /* \"#utility.yul\":18581:18585   */\n      0x00\n        /* \"#utility.yul\":18619:18621   */\n      0x20\n        /* \"#utility.yul\":18608:18617   */\n      dup3\n        /* \"#utility.yul\":18604:18622   */\n      add\n        /* \"#utility.yul\":18596:18622   */\n      swap1\n      pop\n        /* \"#utility.yul\":18668:18677   */\n      dup2\n        /* \"#utility.yul\":18662:18666   */\n      dup2\n        /* \"#utility.yul\":18658:18678   */\n      sub\n        /* \"#utility.yul\":18654:18655   */\n      0x00\n        /* \"#utility.yul\":18643:18652   */\n      dup4\n        /* \"#utility.yul\":18639:18656   */\n      add\n        /* \"#utility.yul\":18632:18679   */\n      mstore\n        /* \"#utility.yul\":18696:18827   */\n      tag_438\n        /* \"#utility.yul\":18822:18826   */\n      dup2\n        /* \"#utility.yul\":18696:18827   */\n      tag_220\n      jump\t// in\n    tag_438:\n        /* \"#utility.yul\":18688:18827   */\n      swap1\n      pop\n        /* \"#utility.yul\":18415:18834   */\n      swap2\n      swap1\n      pop\n      jump\t// out\n        /* \"#utility.yul\":18840:19012   */\n    tag_221:\n        /* \"#utility.yul\":18980:19004   */\n      0x43563a20696e76616c6964205f7369676e617475726500000000000000000000\n        /* \"#utility.yul\":18976:18977   */\n      0x00\n        /* \"#utility.yul\":18968:18974   */\n      dup3\n        /* \"#utility.yul\":18964:18978   */\n      add\n        /* \"#utility.yul\":18957:19005   */\n      mstore\n        /* \"#utility.yul\":18840:19012   */\n      pop\n      jump\t// out\n        /* \"#utility.yul\":19018:19384   */\n    tag_222:\n        /* \"#utility.yul\":19160:19163   */\n      0x00\n        /* \"#utility.yul\":19181:19248   */\n      tag_441\n        /* \"#utility.yul\":19245:19247   */\n      0x16\n        /* \"#utility.yul\":19240:19243   */\n      dup4\n        /* \"#utility.yul\":19181:19248   */\n      tag_204\n      jump\t// in\n    tag_441:\n        /* \"#utility.yul\":19174:19248   */\n      swap2\n      pop\n        /* \"#utility.yul\":19257:19350   */\n      tag_442\n        /* \"#utility.yul\":19346:19349   */\n      dup3\n        /* \"#utility.yul\":19257:19350   */\n      tag_221\n      jump\t// in\n    tag_442:\n        /* \"#utility.yul\":19375:19377   */\n      0x20\n        /* \"#utility.yul\":19370:19373   */\n      dup3\n        /* \"#utility.yul\":19366:19378   */\n      add\n        /* \"#utility.yul\":19359:19378   */\n      swap1\n      pop\n        /* \"#utility.yul\":19018:19384   */\n      swap2\n      swap1\n      pop\n      jump\t// out\n        /* \"#utility.yul\":19390:19809   */\n    tag_110:\n        /* \"#utility.yul\":19556:19560   */\n      0x00\n        /* \"#utility.yul\":19594:19596   */\n      0x20\n        /* \"#utility.yul\":19583:19592   */\n      dup3\n        /* \"#utility.yul\":19579:19597   */\n      add\n        /* \"#utility.yul\":19571:19597   */\n      swap1\n      pop\n        /* \"#utility.yul\":19643:19652   */\n      dup2\n        /* \"#utility.yul\":19637:19641   */\n      dup2\n        /* \"#utility.yul\":19633:19653   */\n      sub\n        /* \"#utility.yul\":19629:19630   */\n      0x00\n        /* \"#utility.yul\":19618:19627   */\n      dup4\n        /* \"#utility.yul\":19614:19631   */\n      add\n        /* \"#utility.yul\":19607:19654   */\n      mstore\n        /* \"#utility.yul\":19671:19802   */\n      tag_444\n        /* \"#utility.yul\":19797:19801   */\n      dup2\n        /* \"#utility.yul\":19671:19802   */\n      tag_222\n      jump\t// in\n    tag_444:\n        /* \"#utility.yul\":19663:19802   */\n      swap1\n      pop\n        /* \"#utility.yul\":19390:19809   */\n      swap2\n      swap1\n      pop\n      jump\t// out\n        /* \"#utility.yul\":19815:20257   */\n    tag_112:\n        /* \"#utility.yul\":19964:19968   */\n      0x00\n        /* \"#utility.yul\":20002:20004   */\n      0x60\n        /* \"#utility.yul\":19991:20000   */\n      dup3\n        /* \"#utility.yul\":19987:20005   */\n      add\n        /* \"#utility.yul\":19979:20005   */\n      swap1\n      pop\n        /* \"#utility.yul\":20015:20086   */\n      tag_446\n        /* \"#utility.yul\":20083:20084   */\n      0x00\n        /* \"#utility.yul\":20072:20081   */\n      dup4\n        /* \"#utility.yul\":20068:20085   */\n      add\n        /* \"#utility.yul\":20059:20065   */\n      dup7\n        /* \"#utility.yul\":20015:20086   */\n      tag_198\n      jump\t// in\n    tag_446:\n        /* \"#utility.yul\":20096:20168   */\n      tag_447\n        /* \"#utility.yul\":20164:20166   */\n      0x20\n        /* \"#utility.yul\":20153:20162   */\n      dup4\n        /* \"#utility.yul\":20149:20167   */\n      add\n        /* \"#utility.yul\":20140:20146   */\n      dup6\n        /* \"#utility.yul\":20096:20168   */\n      tag_198\n      jump\t// in\n    tag_447:\n        /* \"#utility.yul\":20178:20250   */\n      tag_448\n        /* \"#utility.yul\":20246:20248   */\n      0x40\n        /* \"#utility.yul\":20235:20244   */\n      dup4\n        /* \"#utility.yul\":20231:20249   */\n      add\n        /* \"#utility.yul\":20222:20228   */\n      dup5\n        /* \"#utility.yul\":20178:20250   */\n      tag_190\n      jump\t// in\n    tag_448:\n        /* \"#utility.yul\":19815:20257   */\n      swap5\n      swap4\n      pop\n      pop\n      pop\n      pop\n      jump\t// out\n        /* \"#utility.yul\":20263:20433   */\n    tag_223:\n        /* \"#utility.yul\":20403:20425   */\n      0x55534443207472616e73666572206661696c6564000000000000000000000000\n        /* \"#utility.yul\":20399:20400   */\n      0x00\n        /* \"#utility.yul\":20391:20397   */\n      dup3\n        /* \"#utility.yul\":20387:20401   */\n      add\n        /* \"#utility.yul\":20380:20426   */\n      mstore\n        /* \"#utility.yul\":20263:20433   */\n      pop\n      jump\t// out\n        /* \"#utility.yul\":20439:20805   */\n    tag_224:\n        /* \"#utility.yul\":20581:20584   */\n      0x00\n        /* \"#utility.yul\":20602:20669   */\n      tag_451\n        /* \"#utility.yul\":20666:20668   */\n      0x14\n        /* \"#utility.yul\":20661:20664   */\n      dup4\n        /* \"#utility.yul\":20602:20669   */\n      tag_204\n      jump\t// in\n    tag_451:\n        /* \"#utility.yul\":20595:20669   */\n      swap2\n      pop\n        /* \"#utility.yul\":20678:20771   */\n      tag_452\n        /* \"#utility.yul\":20767:20770   */\n      dup3\n        /* \"#utility.yul\":20678:20771   */\n      tag_223\n      jump\t// in\n    tag_452:\n        /* \"#utility.yul\":20796:20798   */\n      0x20\n        /* \"#utility.yul\":20791:20794   */\n      dup3\n        /* \"#utility.yul\":20787:20799   */\n      add\n        /* \"#utility.yul\":20780:20799   */\n      swap1\n      pop\n        /* \"#utility.yul\":20439:20805   */\n      swap2\n      swap1\n      pop\n      jump\t// out\n        /* \"#utility.yul\":20811:21230   */\n    tag_118:\n        /* \"#utility.yul\":20977:20981   */\n      0x00\n        /* \"#utility.yul\":21015:21017   */\n      0x20\n        /* \"#utility.yul\":21004:21013   */\n      dup3\n        /* \"#utility.yul\":21000:21018   */\n      add\n        /* \"#utility.yul\":20992:21018   */\n      swap1\n      pop\n        /* \"#utility.yul\":21064:21073   */\n      dup2\n        /* \"#utility.yul\":21058:21062   */\n      dup2\n        /* \"#utility.yul\":21054:21074   */\n      sub\n        /* \"#utility.yul\":21050:21051   */\n      0x00\n        /* \"#utility.yul\":21039:21048   */\n      dup4\n        /* \"#utility.yul\":21035:21052   */\n      add\n        /* \"#utility.yul\":21028:21075   */\n      mstore\n        /* \"#utility.yul\":21092:21223   */\n      tag_454\n        /* \"#utility.yul\":21218:21222   */\n      dup2\n        /* \"#utility.yul\":21092:21223   */\n      tag_224\n      jump\t// in\n    tag_454:\n        /* \"#utility.yul\":21084:21223   */\n      swap1\n      pop\n        /* \"#utility.yul\":20811:21230   */\n      swap2\n      swap1\n      pop\n      jump\t// out\n        /* \"#utility.yul\":21236:21416   */\n    tag_225:\n        /* \"#utility.yul\":21284:21361   */\n      0x4e487b7100000000000000000000000000000000000000000000000000000000\n        /* \"#utility.yul\":21281:21282   */\n      0x00\n        /* \"#utility.yul\":21274:21362   */\n      mstore\n        /* \"#utility.yul\":21381:21385   */\n      0x12\n        /* \"#utility.yul\":21378:21379   */\n      0x04\n        /* \"#utility.yul\":21371:21386   */\n      mstore\n        /* \"#utility.yul\":21405:21409   */\n      0x24\n        /* \"#utility.yul\":21402:21403   */\n      0x00\n        /* \"#utility.yul\":21395:21410   */\n      revert\n        /* \"#utility.yul\":21422:21602   */\n    tag_226:\n        /* \"#utility.yul\":21470:21547   */\n      0x4e487b7100000000000000000000000000000000000000000000000000000000\n        /* \"#utility.yul\":21467:21468   */\n      0x00\n        /* \"#utility.yul\":21460:21548   */\n      mstore\n        /* \"#utility.yul\":21567:21571   */\n      0x11\n        /* \"#utility.yul\":21564:21565   */\n      0x04\n        /* \"#utility.yul\":21557:21572   */\n      mstore\n        /* \"#utility.yul\":21591:21595   */\n      0x24\n        /* \"#utility.yul\":21588:21589   */\n      0x00\n        /* \"#utility.yul\":21581:21596   */\n      revert\n        /* \"#utility.yul\":21608:21793   */\n    tag_120:\n        /* \"#utility.yul\":21648:21649   */\n      0x00\n        /* \"#utility.yul\":21665:21685   */\n      tag_458\n        /* \"#utility.yul\":21683:21684   */\n      dup3\n        /* \"#utility.yul\":21665:21685   */\n      tag_189\n      jump\t// in\n    tag_458:\n        /* \"#utility.yul\":21660:21685   */\n      swap2\n      pop\n        /* \"#utility.yul\":21699:21719   */\n      tag_459\n        /* \"#utility.yul\":21717:21718   */\n      dup4\n        /* \"#utility.yul\":21699:21719   */\n      tag_189\n      jump\t// in\n    tag_459:\n        /* \"#utility.yul\":21694:21719   */\n      swap3\n      pop\n        /* \"#utility.yul\":21738:21739   */\n      dup3\n        /* \"#utility.yul\":21728:21763   */\n      tag_460\n      jumpi\n        /* \"#utility.yul\":21743:21761   */\n      tag_461\n      tag_225\n      jump\t// in\n    tag_461:\n        /* \"#utility.yul\":21728:21763   */\n    tag_460:\n        /* \"#utility.yul\":21785:21786   */\n      dup3\n        /* \"#utility.yul\":21782:21783   */\n      dup3\n        /* \"#utility.yul\":21778:21787   */\n      div\n        /* \"#utility.yul\":21773:21787   */\n      swap1\n      pop\n        /* \"#utility.yul\":21608:21793   */\n      swap3\n      swap2\n      pop\n      pop\n      jump\t// out\n        /* \"#utility.yul\":21799:21993   */\n    tag_122:\n        /* \"#utility.yul\":21839:21843   */\n      0x00\n        /* \"#utility.yul\":21859:21879   */\n      tag_463\n        /* \"#utility.yul\":21877:21878   */\n      dup3\n        /* \"#utility.yul\":21859:21879   */\n      tag_189\n      jump\t// in\n    tag_463:\n        /* \"#utility.yul\":21854:21879   */\n      swap2\n      pop\n        /* \"#utility.yul\":21893:21913   */\n      tag_464\n        /* \"#utility.yul\":21911:21912   */\n      dup4\n        /* \"#utility.yul\":21893:21913   */\n      tag_189\n      jump\t// in\n    tag_464:\n        /* \"#utility.yul\":21888:21913   */\n      swap3\n      pop\n        /* \"#utility.yul\":21937:21938   */\n      dup3\n        /* \"#utility.yul\":21934:21935   */\n      dup3\n        /* \"#utility.yul\":21930:21939   */\n      sub\n        /* \"#utility.yul\":21922:21939   */\n      swap1\n      pop\n        /* \"#utility.yul\":21961:21962   */\n      dup2\n        /* \"#utility.yul\":21955:21959   */\n      dup2\n        /* \"#utility.yul\":21952:21963   */\n      gt\n        /* \"#utility.yul\":21949:21986   */\n      iszero\n      tag_465\n      jumpi\n        /* \"#utility.yul\":21966:21984   */\n      tag_466\n      tag_226\n      jump\t// in\n    tag_466:\n        /* \"#utility.yul\":21949:21986   */\n    tag_465:\n        /* \"#utility.yul\":21799:21993   */\n      swap3\n      swap2\n      pop\n      pop\n      jump\t// out\n        /* \"#utility.yul\":21999:22190   */\n    tag_132:\n        /* \"#utility.yul\":22039:22042   */\n      0x00\n        /* \"#utility.yul\":22058:22078   */\n      tag_468\n        /* \"#utility.yul\":22076:22077   */\n      dup3\n        /* \"#utility.yul\":22058:22078   */\n      tag_189\n      jump\t// in\n    tag_468:\n        /* \"#utility.yul\":22053:22078   */\n      swap2\n      pop\n        /* \"#utility.yul\":22092:22112   */\n      tag_469\n        /* \"#utility.yul\":22110:22111   */\n      dup4\n        /* \"#utility.yul\":22092:22112   */\n      tag_189\n      jump\t// in\n    tag_469:\n        /* \"#utility.yul\":22087:22112   */\n      swap3\n      pop\n        /* \"#utility.yul\":22135:22136   */\n      dup3\n        /* \"#utility.yul\":22132:22133   */\n      dup3\n        /* \"#utility.yul\":22128:22137   */\n      add\n        /* \"#utility.yul\":22121:22137   */\n      swap1\n      pop\n        /* \"#utility.yul\":22156:22159   */\n      dup1\n        /* \"#utility.yul\":22153:22154   */\n      dup3\n        /* \"#utility.yul\":22150:22160   */\n      gt\n        /* \"#utility.yul\":22147:22183   */\n      iszero\n      tag_470\n      jumpi\n        /* \"#utility.yul\":22163:22181   */\n      tag_471\n      tag_226\n      jump\t// in\n    tag_471:\n        /* \"#utility.yul\":22147:22183   */\n    tag_470:\n        /* \"#utility.yul\":21999:22190   */\n      swap3\n      swap2\n      pop\n      pop\n      jump\t// out\n        /* \"#utility.yul\":22196:22294   */\n    tag_227:\n        /* \"#utility.yul\":22247:22253   */\n      0x00\n        /* \"#utility.yul\":22281:22286   */\n      dup2\n        /* \"#utility.yul\":22275:22287   */\n      mload\n        /* \"#utility.yul\":22265:22287   */\n      swap1\n      pop\n        /* \"#utility.yul\":22196:22294   */\n      swap2\n      swap1\n      pop\n      jump\t// out\n        /* \"#utility.yul\":22300:22468   */\n    tag_228:\n        /* \"#utility.yul\":22383:22394   */\n      0x00\n        /* \"#utility.yul\":22417:22423   */\n      dup3\n        /* \"#utility.yul\":22412:22415   */\n      dup3\n        /* \"#utility.yul\":22405:22424   */\n      mstore\n        /* \"#utility.yul\":22457:22461   */\n      0x20\n        /* \"#utility.yul\":22452:22455   */\n      dup3\n        /* \"#utility.yul\":22448:22462   */\n      add\n        /* \"#utility.yul\":22433:22462   */\n      swap1\n      pop\n        /* \"#utility.yul\":22300:22468   */\n      swap3\n      swap2\n      pop\n      pop\n      jump\t// out\n        /* \"#utility.yul\":22474:22720   */\n    tag_229:\n        /* \"#utility.yul\":22555:22556   */\n      0x00\n        /* \"#utility.yul\":22565:22678   */\n    tag_475:\n        /* \"#utility.yul\":22579:22585   */\n      dup4\n        /* \"#utility.yul\":22576:22577   */\n      dup2\n        /* \"#utility.yul\":22573:22586   */\n      lt\n        /* \"#utility.yul\":22565:22678   */\n      iszero\n      tag_477\n      jumpi\n        /* \"#utility.yul\":22664:22665   */\n      dup1\n        /* \"#utility.yul\":22659:22662   */\n      dup3\n        /* \"#utility.yul\":22655:22666   */\n      add\n        /* \"#utility.yul\":22649:22667   */\n      mload\n        /* \"#utility.yul\":22645:22646   */\n      dup2\n        /* \"#utility.yul\":22640:22643   */\n      dup5\n        /* \"#utility.yul\":22636:22647   */\n      add\n        /* \"#utility.yul\":22629:22668   */\n      mstore\n        /* \"#utility.yul\":22601:22603   */\n      0x20\n        /* \"#utility.yul\":22598:22599   */\n      dup2\n        /* \"#utility.yul\":22594:22604   */\n      add\n        /* \"#utility.yul\":22589:22604   */\n      swap1\n      pop\n        /* \"#utility.yul\":22565:22678   */\n      jump(tag_475)\n    tag_477:\n        /* \"#utility.yul\":22712:22713   */\n      0x00\n        /* \"#utility.yul\":22703:22709   */\n      dup5\n        /* \"#utility.yul\":22698:22701   */\n      dup5\n        /* \"#utility.yul\":22694:22710   */\n      add\n        /* \"#utility.yul\":22687:22714   */\n      mstore\n        /* \"#utility.yul\":22536:22720   */\n      pop\n        /* \"#utility.yul\":22474:22720   */\n      pop\n      pop\n      pop\n      jump\t// out\n        /* \"#utility.yul\":22726:23099   */\n    tag_230:\n        /* \"#utility.yul\":22812:22815   */\n      0x00\n        /* \"#utility.yul\":22840:22878   */\n      tag_479\n        /* \"#utility.yul\":22872:22877   */\n      dup3\n        /* \"#utility.yul\":22840:22878   */\n      tag_227\n      jump\t// in\n    tag_479:\n        /* \"#utility.yul\":22894:22964   */\n      tag_480\n        /* \"#utility.yul\":22957:22963   */\n      dup2\n        /* \"#utility.yul\":22952:22955   */\n      dup6\n        /* \"#utility.yul\":22894:22964   */\n      tag_228\n      jump\t// in\n    tag_480:\n        /* \"#utility.yul\":22887:22964   */\n      swap4\n      pop\n        /* \"#utility.yul\":22973:23038   */\n      tag_481\n        /* \"#utility.yul\":23031:23037   */\n      dup2\n        /* \"#utility.yul\":23026:23029   */\n      dup6\n        /* \"#utility.yul\":23019:23023   */\n      0x20\n        /* \"#utility.yul\":23012:23017   */\n      dup7\n        /* \"#utility.yul\":23008:23024   */\n      add\n        /* \"#utility.yul\":22973:23038   */\n      tag_229\n      jump\t// in\n    tag_481:\n        /* \"#utility.yul\":23063:23092   */\n      tag_482\n        /* \"#utility.yul\":23085:23091   */\n      dup2\n        /* \"#utility.yul\":23063:23092   */\n      tag_173\n      jump\t// in\n    tag_482:\n        /* \"#utility.yul\":23058:23061   */\n      dup5\n        /* \"#utility.yul\":23054:23093   */\n      add\n        /* \"#utility.yul\":23047:23093   */\n      swap2\n      pop\n        /* \"#utility.yul\":22816:23099   */\n      pop\n        /* \"#utility.yul\":22726:23099   */\n      swap3\n      swap2\n      pop\n      pop\n      jump\t// out\n        /* \"#utility.yul\":23105:23634   */\n    tag_134:\n        /* \"#utility.yul\":23272:23276   */\n      0x00\n        /* \"#utility.yul\":23310:23312   */\n      0x60\n        /* \"#utility.yul\":23299:23308   */\n      dup3\n        /* \"#utility.yul\":23295:23313   */\n      add\n        /* \"#utility.yul\":23287:23313   */\n      swap1\n      pop\n        /* \"#utility.yul\":23323:23394   */\n      tag_484\n        /* \"#utility.yul\":23391:23392   */\n      0x00\n        /* \"#utility.yul\":23380:23389   */\n      dup4\n        /* \"#utility.yul\":23376:23393   */\n      add\n        /* \"#utility.yul\":23367:23373   */\n      dup7\n        /* \"#utility.yul\":23323:23394   */\n      tag_190\n      jump\t// in\n    tag_484:\n        /* \"#utility.yul\":23404:23476   */\n      tag_485\n        /* \"#utility.yul\":23472:23474   */\n      0x20\n        /* \"#utility.yul\":23461:23470   */\n      dup4\n        /* \"#utility.yul\":23457:23475   */\n      add\n        /* \"#utility.yul\":23448:23454   */\n      dup6\n        /* \"#utility.yul\":23404:23476   */\n      tag_190\n      jump\t// in\n    tag_485:\n        /* \"#utility.yul\":23523:23532   */\n      dup2\n        /* \"#utility.yul\":23517:23521   */\n      dup2\n        /* \"#utility.yul\":23513:23533   */\n      sub\n        /* \"#utility.yul\":23508:23510   */\n      0x40\n        /* \"#utility.yul\":23497:23506   */\n      dup4\n        /* \"#utility.yul\":23493:23511   */\n      add\n        /* \"#utility.yul\":23486:23534   */\n      mstore\n        /* \"#utility.yul\":23551:23627   */\n      tag_486\n        /* \"#utility.yul\":23622:23626   */\n      dup2\n        /* \"#utility.yul\":23613:23619   */\n      dup5\n        /* \"#utility.yul\":23551:23627   */\n      tag_230\n      jump\t// in\n    tag_486:\n        /* \"#utility.yul\":23543:23627   */\n      swap1\n      pop\n        /* \"#utility.yul\":23105:23634   */\n      swap5\n      swap4\n      pop\n      pop\n      pop\n      pop\n      jump\t// out\n        /* \"#utility.yul\":23640:23726   */\n    tag_231:\n        /* \"#utility.yul\":23675:23682   */\n      0x00\n        /* \"#utility.yul\":23715:23719   */\n      0xff\n        /* \"#utility.yul\":23708:23713   */\n      dup3\n        /* \"#utility.yul\":23704:23720   */\n      and\n        /* \"#utility.yul\":23693:23720   */\n      swap1\n      pop\n        /* \"#utility.yul\":23640:23726   */\n      swap2\n      swap1\n      pop\n      jump\t// out\n        /* \"#utility.yul\":23732:23844   */\n    tag_232:\n        /* \"#utility.yul\":23815:23837   */\n      tag_489\n        /* \"#utility.yul\":23831:23836   */\n      dup2\n        /* \"#utility.yul\":23815:23837   */\n      tag_231\n      jump\t// in\n    tag_489:\n        /* \"#utility.yul\":23810:23813   */\n      dup3\n        /* \"#utility.yul\":23803:23838   */\n      mstore\n        /* \"#utility.yul\":23732:23844   */\n      pop\n      pop\n      jump\t// out\n        /* \"#utility.yul\":23850:24395   */\n    tag_143:\n        /* \"#utility.yul\":24023:24027   */\n      0x00\n        /* \"#utility.yul\":24061:24064   */\n      0x80\n        /* \"#utility.yul\":24050:24059   */\n      dup3\n        /* \"#utility.yul\":24046:24065   */\n      add\n        /* \"#utility.yul\":24038:24065   */\n      swap1\n      pop\n        /* \"#utility.yul\":24075:24146   */\n      tag_491\n        /* \"#utility.yul\":24143:24144   */\n      0x00\n        /* \"#utility.yul\":24132:24141   */\n      dup4\n        /* \"#utility.yul\":24128:24145   */\n      add\n        /* \"#utility.yul\":24119:24125   */\n      dup8\n        /* \"#utility.yul\":24075:24146   */\n      tag_197\n      jump\t// in\n    tag_491:\n        /* \"#utility.yul\":24156:24224   */\n      tag_492\n        /* \"#utility.yul\":24220:24222   */\n      0x20\n        /* \"#utility.yul\":24209:24218   */\n      dup4\n        /* \"#utility.yul\":24205:24223   */\n      add\n        /* \"#utility.yul\":24196:24202   */\n      dup7\n        /* \"#utility.yul\":24156:24224   */\n      tag_232\n      jump\t// in\n    tag_492:\n        /* \"#utility.yul\":24234:24306   */\n      tag_493\n        /* \"#utility.yul\":24302:24304   */\n      0x40\n        /* \"#utility.yul\":24291:24300   */\n      dup4\n        /* \"#utility.yul\":24287:24305   */\n      add\n        /* \"#utility.yul\":24278:24284   */\n      dup6\n        /* \"#utility.yul\":24234:24306   */\n      tag_197\n      jump\t// in\n    tag_493:\n        /* \"#utility.yul\":24316:24388   */\n      tag_494\n        /* \"#utility.yul\":24384:24386   */\n      0x60\n        /* \"#utility.yul\":24373:24382   */\n      dup4\n        /* \"#utility.yul\":24369:24387   */\n      add\n        /* \"#utility.yul\":24360:24366   */\n      dup5\n        /* \"#utility.yul\":24316:24388   */\n      tag_197\n      jump\t// in\n    tag_494:\n        /* \"#utility.yul\":23850:24395   */\n      swap6\n      swap5\n      pop\n      pop\n      pop\n      pop\n      pop\n      jump\t// out\n        /* \"#utility.yul\":24401:24500   */\n    tag_233:\n        /* \"#utility.yul\":24453:24459   */\n      0x00\n        /* \"#utility.yul\":24487:24492   */\n      dup2\n        /* \"#utility.yul\":24481:24493   */\n      mload\n        /* \"#utility.yul\":24471:24493   */\n      swap1\n      pop\n        /* \"#utility.yul\":24401:24500   */\n      swap2\n      swap1\n      pop\n      jump\t// out\n        /* \"#utility.yul\":24506:24654   */\n    tag_234:\n        /* \"#utility.yul\":24608:24619   */\n      0x00\n        /* \"#utility.yul\":24645:24648   */\n      dup2\n        /* \"#utility.yul\":24630:24648   */\n      swap1\n      pop\n        /* \"#utility.yul\":24506:24654   */\n      swap3\n      swap2\n      pop\n      pop\n      jump\t// out\n        /* \"#utility.yul\":24660:25050   */\n    tag_235:\n        /* \"#utility.yul\":24766:24769   */\n      0x00\n        /* \"#utility.yul\":24794:24833   */\n      tag_498\n        /* \"#utility.yul\":24827:24832   */\n      dup3\n        /* \"#utility.yul\":24794:24833   */\n      tag_233\n      jump\t// in\n    tag_498:\n        /* \"#utility.yul\":24849:24938   */\n      tag_499\n        /* \"#utility.yul\":24931:24937   */\n      dup2\n        /* \"#utility.yul\":24926:24929   */\n      dup6\n        /* \"#utility.yul\":24849:24938   */\n      tag_234\n      jump\t// in\n    tag_499:\n        /* \"#utility.yul\":24842:24938   */\n      swap4\n      pop\n        /* \"#utility.yul\":24947:25012   */\n      tag_500\n        /* \"#utility.yul\":25005:25011   */\n      dup2\n        /* \"#utility.yul\":25000:25003   */\n      dup6\n        /* \"#utility.yul\":24993:24997   */\n      0x20\n        /* \"#utility.yul\":24986:24991   */\n      dup7\n        /* \"#utility.yul\":24982:24998   */\n      add\n        /* \"#utility.yul\":24947:25012   */\n      tag_229\n      jump\t// in\n    tag_500:\n        /* \"#utility.yul\":25037:25043   */\n      dup1\n        /* \"#utility.yul\":25032:25035   */\n      dup5\n        /* \"#utility.yul\":25028:25044   */\n      add\n        /* \"#utility.yul\":25021:25044   */\n      swap2\n      pop\n        /* \"#utility.yul\":24770:25050   */\n      pop\n        /* \"#utility.yul\":24660:25050   */\n      swap3\n      swap2\n      pop\n      pop\n      jump\t// out\n        /* \"#utility.yul\":25056:25331   */\n    tag_148:\n        /* \"#utility.yul\":25188:25191   */\n      0x00\n        /* \"#utility.yul\":25210:25305   */\n      tag_502\n        /* \"#utility.yul\":25301:25304   */\n      dup3\n        /* \"#utility.yul\":25292:25298   */\n      dup5\n        /* \"#utility.yul\":25210:25305   */\n      tag_235\n      jump\t// in\n    tag_502:\n        /* \"#utility.yul\":25203:25305   */\n      swap2\n      pop\n        /* \"#utility.yul\":25322:25325   */\n      dup2\n        /* \"#utility.yul\":25315:25325   */\n      swap1\n      pop\n        /* \"#utility.yul\":25056:25331   */\n      swap3\n      swap2\n      pop\n      pop\n      jump\t// out\n        /* \"#utility.yul\":25337:25511   */\n    tag_236:\n        /* \"#utility.yul\":25477:25503   */\n      0x696e76616c6964207369676e6174757265206c656e6774680000000000000000\n        /* \"#utility.yul\":25473:25474   */\n      0x00\n        /* \"#utility.yul\":25465:25471   */\n      dup3\n        /* \"#utility.yul\":25461:25475   */\n      add\n        /* \"#utility.yul\":25454:25504   */\n      mstore\n        /* \"#utility.yul\":25337:25511   */\n      pop\n      jump\t// out\n        /* \"#utility.yul\":25517:25883   */\n    tag_237:\n        /* \"#utility.yul\":25659:25662   */\n      0x00\n        /* \"#utility.yul\":25680:25747   */\n      tag_505\n        /* \"#utility.yul\":25744:25746   */\n      0x18\n        /* \"#utility.yul\":25739:25742   */\n      dup4\n        /* \"#utility.yul\":25680:25747   */\n      tag_204\n      jump\t// in\n    tag_505:\n        /* \"#utility.yul\":25673:25747   */\n      swap2\n      pop\n        /* \"#utility.yul\":25756:25849   */\n      tag_506\n        /* \"#utility.yul\":25845:25848   */\n      dup3\n        /* \"#utility.yul\":25756:25849   */\n      tag_236\n      jump\t// in\n    tag_506:\n        /* \"#utility.yul\":25874:25876   */\n      0x20\n        /* \"#utility.yul\":25869:25872   */\n      dup3\n        /* \"#utility.yul\":25865:25877   */\n      add\n        /* \"#utility.yul\":25858:25877   */\n      swap1\n      pop\n        /* \"#utility.yul\":25517:25883   */\n      swap2\n      swap1\n      pop\n      jump\t// out\n        /* \"#utility.yul\":25889:26308   */\n    tag_159:\n        /* \"#utility.yul\":26055:26059   */\n      0x00\n        /* \"#utility.yul\":26093:26095   */\n      0x20\n        /* \"#utility.yul\":26082:26091   */\n      dup3\n        /* \"#utility.yul\":26078:26096   */\n      add\n        /* \"#utility.yul\":26070:26096   */\n      swap1\n      pop\n        /* \"#utility.yul\":26142:26151   */\n      dup2\n        /* \"#utility.yul\":26136:26140   */\n      dup2\n        /* \"#utility.yul\":26132:26152   */\n      sub\n        /* \"#utility.yul\":26128:26129   */\n      0x00\n        /* \"#utility.yul\":26117:26126   */\n      dup4\n        /* \"#utility.yul\":26113:26130   */\n      add\n        /* \"#utility.yul\":26106:26153   */\n      mstore\n        /* \"#utility.yul\":26170:26301   */\n      tag_508\n        /* \"#utility.yul\":26296:26300   */\n      dup2\n        /* \"#utility.yul\":26170:26301   */\n      tag_237\n      jump\t// in\n    tag_508:\n        /* \"#utility.yul\":26162:26301   */\n      swap1\n      pop\n        /* \"#utility.yul\":25889:26308   */\n      swap2\n      swap1\n      pop\n      jump\t// out\n        /* \"#utility.yul\":26314:26528   */\n    tag_238:\n        /* \"#utility.yul\":26454:26520   */\n      0x19457468657265756d205369676e6564204d6573736167653a0a333200000000\n        /* \"#utility.yul\":26450:26451   */\n      0x00\n        /* \"#utility.yul\":26442:26448   */\n      dup3\n        /* \"#utility.yul\":26438:26452   */\n      add\n        /* \"#utility.yul\":26431:26521   */\n      mstore\n        /* \"#utility.yul\":26314:26528   */\n      pop\n      jump\t// out\n        /* \"#utility.yul\":26534:26936   */\n    tag_239:\n        /* \"#utility.yul\":26694:26697   */\n      0x00\n        /* \"#utility.yul\":26715:26800   */\n      tag_511\n        /* \"#utility.yul\":26797:26799   */\n      0x1c\n        /* \"#utility.yul\":26792:26795   */\n      dup4\n        /* \"#utility.yul\":26715:26800   */\n      tag_234\n      jump\t// in\n    tag_511:\n        /* \"#utility.yul\":26708:26800   */\n      swap2\n      pop\n        /* \"#utility.yul\":26809:26902   */\n      tag_512\n        /* \"#utility.yul\":26898:26901   */\n      dup3\n        /* \"#utility.yul\":26809:26902   */\n      tag_238\n      jump\t// in\n    tag_512:\n        /* \"#utility.yul\":26927:26929   */\n      0x1c\n        /* \"#utility.yul\":26922:26925   */\n      dup3\n        /* \"#utility.yul\":26918:26930   */\n      add\n        /* \"#utility.yul\":26911:26930   */\n      swap1\n      pop\n        /* \"#utility.yul\":26534:26936   */\n      swap2\n      swap1\n      pop\n      jump\t// out\n        /* \"#utility.yul\":26942:27021   */\n    tag_240:\n        /* \"#utility.yul\":26981:26988   */\n      0x00\n        /* \"#utility.yul\":27010:27015   */\n      dup2\n        /* \"#utility.yul\":26999:27015   */\n      swap1\n      pop\n        /* \"#utility.yul\":26942:27021   */\n      swap2\n      swap1\n      pop\n      jump\t// out\n        /* \"#utility.yul\":27027:27184   */\n    tag_241:\n        /* \"#utility.yul\":27132:27177   */\n      tag_515\n        /* \"#utility.yul\":27152:27176   */\n      tag_516\n        /* \"#utility.yul\":27170:27175   */\n      dup3\n        /* \"#utility.yul\":27152:27176   */\n      tag_196\n      jump\t// in\n    tag_516:\n        /* \"#utility.yul\":27132:27177   */\n      tag_240\n      jump\t// in\n    tag_515:\n        /* \"#utility.yul\":27127:27130   */\n      dup3\n        /* \"#utility.yul\":27120:27178   */\n      mstore\n        /* \"#utility.yul\":27027:27184   */\n      pop\n      pop\n      jump\t// out\n        /* \"#utility.yul\":27190:27712   */\n    tag_162:\n        /* \"#utility.yul\":27403:27406   */\n      0x00\n        /* \"#utility.yul\":27425:27573   */\n      tag_518\n        /* \"#utility.yul\":27569:27572   */\n      dup3\n        /* \"#utility.yul\":27425:27573   */\n      tag_239\n      jump\t// in\n    tag_518:\n        /* \"#utility.yul\":27418:27573   */\n      swap2\n      pop\n        /* \"#utility.yul\":27583:27658   */\n      tag_519\n        /* \"#utility.yul\":27654:27657   */\n      dup3\n        /* \"#utility.yul\":27645:27651   */\n      dup5\n        /* \"#utility.yul\":27583:27658   */\n      tag_241\n      jump\t// in\n    tag_519:\n        /* \"#utility.yul\":27683:27685   */\n      0x20\n        /* \"#utility.yul\":27678:27681   */\n      dup3\n        /* \"#utility.yul\":27674:27686   */\n      add\n        /* \"#utility.yul\":27667:27686   */\n      swap2\n      pop\n        /* \"#utility.yul\":27703:27706   */\n      dup2\n        /* \"#utility.yul\":27696:27706   */\n      swap1\n      pop\n        /* \"#utility.yul\":27190:27712   */\n      swap3\n      swap2\n      pop\n      pop\n      jump\t// out\n\n    auxdata: 0xa2646970667358221220b50d9b5d5eabffd76d46bc29726eb735e1018a1092e50d500ae09f08a31e226764736f6c63430008140033\n}\n",
				"bytecode": {
					"linkReferences": {},
					"object": "6080604052600160055534801562000015575f80fd5b5060405162001f0d38038062001f0d83398181016040528101906200003b9190620001a8565b335f806101000a81548173ffffffffffffffffffffffffffffffffffffffff021916908373ffffffffffffffffffffffffffffffffffffffff1602179055508160015f6101000a81548173ffffffffffffffffffffffffffffffffffffffff021916908373ffffffffffffffffffffffffffffffffffffffff1602179055508060025f6101000a81548173ffffffffffffffffffffffffffffffffffffffff021916908373ffffffffffffffffffffffffffffffffffffffff1602179055508260035f6101000a81548173ffffffffffffffffffffffffffffffffffffffff021916908373ffffffffffffffffffffffffffffffffffffffff16021790555050505062000201565b5f80fd5b5f73ffffffffffffffffffffffffffffffffffffffff82169050919050565b5f620001728262000147565b9050919050565b620001848162000166565b81146200018f575f80fd5b50565b5f81519050620001a28162000179565b92915050565b5f805f60608486031215620001c257620001c162000143565b5b5f620001d18682870162000192565b9350506020620001e48682870162000192565b9250506040620001f78682870162000192565b9150509250925092565b611cfe806200020f5f395ff3fe608060405234801561000f575f80fd5b50600436106100b2575f3560e01c80637ccbf83e1161006f5780637ccbf83e1461018c578063845a51ec146101a857806387336111146101c65780638da5cb5b146101e25780639f2585a114610200578063a85c38ef14610230576100b2565b80630d3652ec146100b657806311eac855146100e65780632a58b33014610104578063315a095d1461012257806359e1abaa1461013e5780635b7633d01461016e575b5f80fd5b6100d060048036038101906100cb9190611053565b610264565b6040516100dd91906110b4565b60405180910390f35b6100ee6103c3565b6040516100fb9190611147565b60405180910390f35b61010c6103e8565b6040516101199190611178565b60405180910390f35b61013c600480360381019061013791906111bb565b6103ee565b005b61015860048036038101906101539190611221565b6105f1565b60405161016591906112b0565b60405180910390f35b61017661062c565b60405161018391906112d8565b60405180910390f35b6101a660048036038101906101a1919061138f565b610651565b005b6101b0610ad7565b6040516101bd91906112d8565b60405180910390f35b6101e060048036038101906101db9190611434565b610afc565b005b6101ea610c4e565b6040516101f791906112d8565b60405180910390f35b61021a600480360381019061021591906114ae565b610c71565b60405161022791906112d8565b60405180910390f35b61024a600480360381019061024591906111bb565b610cdb565b60405161025b959493929190611508565b60405180910390f35b5f6102a4826040518060400160405280600481526020017f7573647400000000000000000000000000000000000000000000000000000000815250610d2c565b806102ea57506102e9826040518060400160405280600481526020017f7573646300000000000000000000000000000000000000000000000000000000815250610d2c565b5b80610330575061032f826040518060400160405280600381526020017f756d690000000000000000000000000000000000000000000000000000000000815250610d2c565b5b806103765750610375826040518060400160405280600981526020017f64697665706f696e740000000000000000000000000000000000000000000000815250610d2c565b5b806103bc57506103bb826040518060400160405280600381526020017f6574680000000000000000000000000000000000000000000000000000000000815250610d2c565b5b9050919050565b60035f9054906101000a900473ffffffffffffffffffffffffffffffffffffffff1681565b60055481565b5f8054906101000a900473ffffffffffffffffffffffffffffffffffffffff1673ffffffffffffffffffffffffffffffffffffffff163373ffffffffffffffffffffffffffffffffffffffff161461047b576040517f08c379a0000000000000000000000000000000000000000000000000000000008152600401610472906115d9565b60405180910390fd5b5f81116104bd576040517f08c379a00000000000000000000000000000000000000000000000000000000081526004016104b490611641565b60405180910390fd5b60035f9054906101000a900473ffffffffffffffffffffffffffffffffffffffff1673ffffffffffffffffffffffffffffffffffffffff1663a9059cbb5f8054906101000a900473ffffffffffffffffffffffffffffffffffffffff16836040518363ffffffff1660e01b815260040161053892919061165f565b6020604051808303815f875af1158015610554573d5f803e3d5ffd5b505050506040513d601f19601f8201168201806040525081019061057891906116b0565b6105b7576040517f08c379a00000000000000000000000000000000000000000000000000000000081526004016105ae90611725565b60405180910390fd5b7f9c6393f251205f9e03559951cab4c9ae71767b6174f77944a5b0c2fa51fbda9f816040516105e69190611178565b60405180910390a150565b5f858585858560405160200161060b9594939291906117a8565b60405160208183030381529060405280519060200120905095945050505050565b60025f9054906101000a900473ffffffffffffffffffffffffffffffffffffffff1681565b5f8311610693576040517f08c379a000000000000000000000000000000000000000000000000000000000815260040161068a90611641565b60405180910390fd5b5f73ffffffffffffffffffffffffffffffffffffffff168673ffffffffffffffffffffffffffffffffffffffff1603610701576040517f08c379a00000000000000000000000000000000000000000000000000000000081526004016106f890611850565b60405180910390fd5b61070f868686868686610d84565b61074e576040517f08c379a0000000000000000000000000000000000000000000000000000000008152600401610745906118b8565b60405180910390fd5b60035f9054906101000a900473ffffffffffffffffffffffffffffffffffffffff1673ffffffffffffffffffffffffffffffffffffffff166323b872dd8730866040518463ffffffff1660e01b81526004016107ac939291906118d6565b6020604051808303815f875af11580156107c8573d5f803e3d5ffd5b505050506040513d601f19601f820116820180604052508101906107ec91906116b0565b61082b576040517f08c379a000000000000000000000000000000000000000000000000000000000815260040161082290611955565b60405180910390fd5b5f60648461083991906119cd565b90505f818561084891906119fd565b905060035f9054906101000a900473ffffffffffffffffffffffffffffffffffffffff1673ffffffffffffffffffffffffffffffffffffffff1663a9059cbb60015f9054906101000a900473ffffffffffffffffffffffffffffffffffffffff16846040518363ffffffff1660e01b81526004016108c792919061165f565b6020604051808303815f875af11580156108e3573d5f803e3d5ffd5b505050506040513d601f19601f8201168201806040525081019061090791906116b0565b5060035f9054906101000a900473ffffffffffffffffffffffffffffffffffffffff1673ffffffffffffffffffffffffffffffffffffffff1663a9059cbb88836040518363ffffffff1660e01b815260040161096492919061165f565b6020604051808303815f875af1158015610980573d5f803e3d5ffd5b505050506040513d601f19601f820116820180604052508101906109a491906116b0565b506040518060a001604052808873ffffffffffffffffffffffffffffffffffffffff1681526020018781526020018281526020018381526020018581525060045f8881526020019081526020015f205f820151815f015f6101000a81548173ffffffffffffffffffffffffffffffffffffffff021916908373ffffffffffffffffffffffffffffffffffffffff16021790555060208201518160010155604082015181600201556060820151816003015560808201518160040155905050600160055f828254610a749190611a30565b925050819055508673ffffffffffffffffffffffffffffffffffffffff167f5128abb3a2724995d76ed092bf6bf634c1dd514c7c674eb3bbb1016c60559b33878386604051610ac593929190611add565b60405180910390a25050505050505050565b60015f9054906101000a900473ffffffffffffffffffffffffffffffffffffffff1681565b5f8054906101000a900473ffffffffffffffffffffffffffffffffffffffff1673ffffffffffffffffffffffffffffffffffffffff163373ffffffffffffffffffffffffffffffffffffffff1614610b89576040517f08c379a0000000000000000000000000000000000000000000000000000000008152600401610b80906115d9565b60405180910390fd5b8160015f6101000a81548173ffffffffffffffffffffffffffffffffffffffff021916908373ffffffffffffffffffffffffffffffffffffffff1602179055508060025f6101000a81548173ffffffffffffffffffffffffffffffffffffffff021916908373ffffffffffffffffffffffffffffffffffffffff1602179055508260035f6101000a81548173ffffffffffffffffffffffffffffffffffffffff021916908373ffffffffffffffffffffffffffffffffffffffff160217905550505050565b5f8054906101000a900473ffffffffffffffffffffffffffffffffffffffff1681565b5f805f80610c7e85610e08565b9250925092506001868285856040515f8152602001604052604051610ca69493929190611b34565b6020604051602081039080840390855afa158015610cc6573d5f803e3d5ffd5b50505060206040510351935050505092915050565b6004602052805f5260405f205f91509050805f015f9054906101000a900473ffffffffffffffffffffffffffffffffffffffff16908060010154908060020154908060030154908060040154905085565b5f81604051602001610d3e9190611bbb565b6040516020818303038152906040528051906020012083604051602001610d659190611bbb565b6040516020818303038152906040528051906020012014905092915050565b5f80610d9388888888886105f1565b90505f610d9f82610e6d565b905060025f9054906101000a900473ffffffffffffffffffffffffffffffffffffffff1673ffffffffffffffffffffffffffffffffffffffff16610de38286610e9c565b73ffffffffffffffffffffffffffffffffffffffff1614925050509695505050505050565b5f805f6041845114610e4f576040517f08c379a0000000000000000000000000000000000000000000000000000000008152600401610e4690611c1b565b60405180910390fd5b602084015192506040840151915060608401515f1a90509193909250565b5f81604051602001610e7f9190611ca3565b604051602081830303815290604052805190602001209050919050565b5f805f80610ea985610e08565b9250925092506001868285856040515f8152602001604052604051610ed19493929190611b34565b6020604051602081039080840390855afa158015610ef1573d5f803e3d5ffd5b50505060206040510351935050505092915050565b5f604051905090565b5f80fd5b5f80fd5b5f80fd5b5f80fd5b5f601f19601f8301169050919050565b7f4e487b71000000000000000000000000000000000000000000000000000000005f52604160045260245ffd5b610f6582610f1f565b810181811067ffffffffffffffff82111715610f8457610f83610f2f565b5b80604052505050565b5f610f96610f06565b9050610fa28282610f5c565b919050565b5f67ffffffffffffffff821115610fc157610fc0610f2f565b5b610fca82610f1f565b9050602081019050919050565b828183375f83830152505050565b5f610ff7610ff284610fa7565b610f8d565b90508281526020810184848401111561101357611012610f1b565b5b61101e848285610fd7565b509392505050565b5f82601f83011261103a57611039610f17565b5b813561104a848260208601610fe5565b91505092915050565b5f6020828403121561106857611067610f0f565b5b5f82013567ffffffffffffffff81111561108557611084610f13565b5b61109184828501611026565b91505092915050565b5f8115159050919050565b6110ae8161109a565b82525050565b5f6020820190506110c75f8301846110a5565b92915050565b5f73ffffffffffffffffffffffffffffffffffffffff82169050919050565b5f819050919050565b5f61110f61110a611105846110cd565b6110ec565b6110cd565b9050919050565b5f611120826110f5565b9050919050565b5f61113182611116565b9050919050565b61114181611127565b82525050565b5f60208201905061115a5f830184611138565b92915050565b5f819050919050565b61117281611160565b82525050565b5f60208201905061118b5f830184611169565b92915050565b61119a81611160565b81146111a4575f80fd5b50565b5f813590506111b581611191565b92915050565b5f602082840312156111d0576111cf610f0f565b5b5f6111dd848285016111a7565b91505092915050565b5f6111f0826110cd565b9050919050565b611200816111e6565b811461120a575f80fd5b50565b5f8135905061121b816111f7565b92915050565b5f805f805f60a0868803121561123a57611239610f0f565b5b5f6112478882890161120d565b95505060206112588882890161120d565b9450506040611269888289016111a7565b935050606061127a888289016111a7565b925050608061128b888289016111a7565b9150509295509295909350565b5f819050919050565b6112aa81611298565b82525050565b5f6020820190506112c35f8301846112a1565b92915050565b6112d2816111e6565b82525050565b5f6020820190506112eb5f8301846112c9565b92915050565b5f67ffffffffffffffff82111561130b5761130a610f2f565b5b61131482610f1f565b9050602081019050919050565b5f61133361132e846112f1565b610f8d565b90508281526020810184848401111561134f5761134e610f1b565b5b61135a848285610fd7565b509392505050565b5f82601f83011261137657611375610f17565b5b8135611386848260208601611321565b91505092915050565b5f805f805f8060c087890312156113a9576113a8610f0f565b5b5f6113b689828a0161120d565b96505060206113c789828a0161120d565b95505060406113d889828a016111a7565b94505060606113e989828a016111a7565b93505060806113fa89828a016111a7565b92505060a087013567ffffffffffffffff81111561141b5761141a610f13565b5b61142789828a01611362565b9150509295509295509295565b5f805f6060848603121561144b5761144a610f0f565b5b5f6114588682870161120d565b93505060206114698682870161120d565b925050604061147a8682870161120d565b9150509250925092565b61148d81611298565b8114611497575f80fd5b50565b5f813590506114a881611484565b92915050565b5f80604083850312156114c4576114c3610f0f565b5b5f6114d18582860161149a565b925050602083013567ffffffffffffffff8111156114f2576114f1610f13565b5b6114fe85828601611362565b9150509250929050565b5f60a08201905061151b5f8301886112c9565b6115286020830187611169565b6115356040830186611169565b6115426060830185611169565b61154f6080830184611169565b9695505050505050565b5f82825260208201905092915050565b7f4f6e6c79206f776e65722063616e2063616c6c20746869732066756e6374696f5f8201527f6e00000000000000000000000000000000000000000000000000000000000000602082015250565b5f6115c3602183611559565b91506115ce82611569565b604082019050919050565b5f6020820190508181035f8301526115f0816115b7565b9050919050565b7f496e76616c696420616d6f756e740000000000000000000000000000000000005f82015250565b5f61162b600e83611559565b9150611636826115f7565b602082019050919050565b5f6020820190508181035f8301526116588161161f565b9050919050565b5f6040820190506116725f8301856112c9565b61167f6020830184611169565b9392505050565b61168f8161109a565b8114611699575f80fd5b50565b5f815190506116aa81611686565b92915050565b5f602082840312156116c5576116c4610f0f565b5b5f6116d28482850161169c565b91505092915050565b7f546f6b656e207472616e73666572206661696c656400000000000000000000005f82015250565b5f61170f601583611559565b915061171a826116db565b602082019050919050565b5f6020820190508181035f83015261173c81611703565b9050919050565b5f8160601b9050919050565b5f61175982611743565b9050919050565b5f61176a8261174f565b9050919050565b61178261177d826111e6565b611760565b82525050565b5f819050919050565b6117a261179d82611160565b611788565b82525050565b5f6117b38288611771565b6014820191506117c38287611771565b6014820191506117d38286611791565b6020820191506117e38285611791565b6020820191506117f38284611791565b6020820191508190509695505050505050565b7f43563a2066726f6d20746f20746865207a65726f2061646472657373000000005f82015250565b5f61183a601c83611559565b915061184582611806565b602082019050919050565b5f6020820190508181035f8301526118678161182e565b9050919050565b7f43563a20696e76616c6964205f7369676e6174757265000000000000000000005f82015250565b5f6118a2601683611559565b91506118ad8261186e565b602082019050919050565b5f6020820190508181035f8301526118cf81611896565b9050919050565b5f6060820190506118e95f8301866112c9565b6118f660208301856112c9565b6119036040830184611169565b949350505050565b7f55534443207472616e73666572206661696c65640000000000000000000000005f82015250565b5f61193f601483611559565b915061194a8261190b565b602082019050919050565b5f6020820190508181035f83015261196c81611933565b9050919050565b7f4e487b71000000000000000000000000000000000000000000000000000000005f52601260045260245ffd5b7f4e487b71000000000000000000000000000000000000000000000000000000005f52601160045260245ffd5b5f6119d782611160565b91506119e283611160565b9250826119f2576119f1611973565b5b828204905092915050565b5f611a0782611160565b9150611a1283611160565b9250828203905081811115611a2a57611a296119a0565b5b92915050565b5f611a3a82611160565b9150611a4583611160565b9250828201905080821115611a5d57611a5c6119a0565b5b92915050565b5f81519050919050565b5f82825260208201905092915050565b5f5b83811015611a9a578082015181840152602081019050611a7f565b5f8484015250505050565b5f611aaf82611a63565b611ab98185611a6d565b9350611ac9818560208601611a7d565b611ad281610f1f565b840191505092915050565b5f606082019050611af05f830186611169565b611afd6020830185611169565b8181036040830152611b0f8184611aa5565b9050949350505050565b5f60ff82169050919050565b611b2e81611b19565b82525050565b5f608082019050611b475f8301876112a1565b611b546020830186611b25565b611b6160408301856112a1565b611b6e60608301846112a1565b95945050505050565b5f81519050919050565b5f81905092915050565b5f611b9582611b77565b611b9f8185611b81565b9350611baf818560208601611a7d565b80840191505092915050565b5f611bc68284611b8b565b915081905092915050565b7f696e76616c6964207369676e6174757265206c656e67746800000000000000005f82015250565b5f611c05601883611559565b9150611c1082611bd1565b602082019050919050565b5f6020820190508181035f830152611c3281611bf9565b9050919050565b7f19457468657265756d205369676e6564204d6573736167653a0a3332000000005f82015250565b5f611c6d601c83611b81565b9150611c7882611c39565b601c82019050919050565b5f819050919050565b611c9d611c9882611298565b611c83565b82525050565b5f611cad82611c61565b9150611cb98284611c8c565b6020820191508190509291505056fea2646970667358221220b50d9b5d5eabffd76d46bc29726eb735e1018a1092e50d500ae09f08a31e226764736f6c63430008140033",
					"opcodes": "PUSH1 0x80 PUSH1 0x40 MSTORE PUSH1 0x1 PUSH1 0x5 SSTORE CALLVALUE DUP1 ISZERO PUSH3 0x15 JUMPI PUSH0 DUP1 REVERT JUMPDEST POP PUSH1 0x40 MLOAD PUSH3 0x1F0D CODESIZE SUB DUP1 PUSH3 0x1F0D DUP4 CODECOPY DUP2 DUP2 ADD PUSH1 0x40 MSTORE DUP2 ADD SWAP1 PUSH3 0x3B SWAP2 SWAP1 PUSH3 0x1A8 JUMP JUMPDEST CALLER PUSH0 DUP1 PUSH2 0x100 EXP DUP2 SLOAD DUP2 PUSH20 0xFFFFFFFFFFFFFFFFFFFFFFFFFFFFFFFFFFFFFFFF MUL NOT AND SWAP1 DUP4 PUSH20 0xFFFFFFFFFFFFFFFFFFFFFFFFFFFFFFFFFFFFFFFF AND MUL OR SWAP1 SSTORE POP DUP2 PUSH1 0x1 PUSH0 PUSH2 0x100 EXP DUP2 SLOAD DUP2 PUSH20 0xFFFFFFFFFFFFFFFFFFFFFFFFFFFFFFFFFFFFFFFF MUL NOT AND SWAP1 DUP4 PUSH20 0xFFFFFFFFFFFFFFFFFFFFFFFFFFFFFFFFFFFFFFFF AND MUL OR SWAP1 SSTORE POP DUP1 PUSH1 0x2 PUSH0 PUSH2 0x100 EXP DUP2 SLOAD DUP2 PUSH20 0xFFFFFFFFFFFFFFFFFFFFFFFFFFFFFFFFFFFFFFFF MUL NOT AND SWAP1 DUP4 PUSH20 0xFFFFFFFFFFFFFFFFFFFFFFFFFFFFFFFFFFFFFFFF AND MUL OR SWAP1 SSTORE POP DUP3 PUSH1 0x3 PUSH0 PUSH2 0x100 EXP DUP2 SLOAD DUP2 PUSH20 0xFFFFFFFFFFFFFFFFFFFFFFFFFFFFFFFFFFFFFFFF MUL NOT AND SWAP1 DUP4 PUSH20 0xFFFFFFFFFFFFFFFFFFFFFFFFFFFFFFFFFFFFFFFF AND MUL OR SWAP1 SSTORE POP POP POP POP PUSH3 0x201 JUMP JUMPDEST PUSH0 DUP1 REVERT JUMPDEST PUSH0 PUSH20 0xFFFFFFFFFFFFFFFFFFFFFFFFFFFFFFFFFFFFFFFF DUP3 AND SWAP1 POP SWAP2 SWAP1 POP JUMP JUMPDEST PUSH0 PUSH3 0x172 DUP3 PUSH3 0x147 JUMP JUMPDEST SWAP1 POP SWAP2 SWAP1 POP JUMP JUMPDEST PUSH3 0x184 DUP2 PUSH3 0x166 JUMP JUMPDEST DUP2 EQ PUSH3 0x18F JUMPI PUSH0 DUP1 REVERT JUMPDEST POP JUMP JUMPDEST PUSH0 DUP2 MLOAD SWAP1 POP PUSH3 0x1A2 DUP2 PUSH3 0x179 JUMP JUMPDEST SWAP3 SWAP2 POP POP JUMP JUMPDEST PUSH0 DUP1 PUSH0 PUSH1 0x60 DUP5 DUP7 SUB SLT ISZERO PUSH3 0x1C2 JUMPI PUSH3 0x1C1 PUSH3 0x143 JUMP JUMPDEST JUMPDEST PUSH0 PUSH3 0x1D1 DUP7 DUP3 DUP8 ADD PUSH3 0x192 JUMP JUMPDEST SWAP4 POP POP PUSH1 0x20 PUSH3 0x1E4 DUP7 DUP3 DUP8 ADD PUSH3 0x192 JUMP JUMPDEST SWAP3 POP POP PUSH1 0x40 PUSH3 0x1F7 DUP7 DUP3 DUP8 ADD PUSH3 0x192 JUMP JUMPDEST SWAP2 POP POP SWAP3 POP SWAP3 POP SWAP3 JUMP JUMPDEST PUSH2 0x1CFE DUP1 PUSH3 0x20F PUSH0 CODECOPY PUSH0 RETURN INVALID PUSH1 0x80 PUSH1 0x40 MSTORE CALLVALUE DUP1 ISZERO PUSH2 0xF JUMPI PUSH0 DUP1 REVERT JUMPDEST POP PUSH1 0x4 CALLDATASIZE LT PUSH2 0xB2 JUMPI PUSH0 CALLDATALOAD PUSH1 0xE0 SHR DUP1 PUSH4 0x7CCBF83E GT PUSH2 0x6F JUMPI DUP1 PUSH4 0x7CCBF83E EQ PUSH2 0x18C JUMPI DUP1 PUSH4 0x845A51EC EQ PUSH2 0x1A8 JUMPI DUP1 PUSH4 0x87336111 EQ PUSH2 0x1C6 JUMPI DUP1 PUSH4 0x8DA5CB5B EQ PUSH2 0x1E2 JUMPI DUP1 PUSH4 0x9F2585A1 EQ PUSH2 0x200 JUMPI DUP1 PUSH4 0xA85C38EF EQ PUSH2 0x230 JUMPI PUSH2 0xB2 JUMP JUMPDEST DUP1 PUSH4 0xD3652EC EQ PUSH2 0xB6 JUMPI DUP1 PUSH4 0x11EAC855 EQ PUSH2 0xE6 JUMPI DUP1 PUSH4 0x2A58B330 EQ PUSH2 0x104 JUMPI DUP1 PUSH4 0x315A095D EQ PUSH2 0x122 JUMPI DUP1 PUSH4 0x59E1ABAA EQ PUSH2 0x13E JUMPI DUP1 PUSH4 0x5B7633D0 EQ PUSH2 0x16E JUMPI JUMPDEST PUSH0 DUP1 REVERT JUMPDEST PUSH2 0xD0 PUSH1 0x4 DUP1 CALLDATASIZE SUB DUP2 ADD SWAP1 PUSH2 0xCB SWAP2 SWAP1 PUSH2 0x1053 JUMP JUMPDEST PUSH2 0x264 JUMP JUMPDEST PUSH1 0x40 MLOAD PUSH2 0xDD SWAP2 SWAP1 PUSH2 0x10B4 JUMP JUMPDEST PUSH1 0x40 MLOAD DUP1 SWAP2 SUB SWAP1 RETURN JUMPDEST PUSH2 0xEE PUSH2 0x3C3 JUMP JUMPDEST PUSH1 0x40 MLOAD PUSH2 0xFB SWAP2 SWAP1 PUSH2 0x1147 JUMP JUMPDEST PUSH1 0x40 MLOAD DUP1 SWAP2 SUB SWAP1 RETURN JUMPDEST PUSH2 0x10C PUSH2 0x3E8 JUMP JUMPDEST PUSH1 0x40 MLOAD PUSH2 0x119 SWAP2 SWAP1 PUSH2 0x1178 JUMP JUMPDEST PUSH1 0x40 MLOAD DUP1 SWAP2 SUB SWAP1 RETURN JUMPDEST PUSH2 0x13C PUSH1 0x4 DUP1 CALLDATASIZE SUB DUP2 ADD SWAP1 PUSH2 0x137 SWAP2 SWAP1 PUSH2 0x11BB JUMP JUMPDEST PUSH2 0x3EE JUMP JUMPDEST STOP JUMPDEST PUSH2 0x158 PUSH1 0x4 DUP1 CALLDATASIZE SUB DUP2 ADD SWAP1 PUSH2 0x153 SWAP2 SWAP1 PUSH2 0x1221 JUMP JUMPDEST PUSH2 0x5F1 JUMP JUMPDEST PUSH1 0x40 MLOAD PUSH2 0x165 SWAP2 SWAP1 PUSH2 0x12B0 JUMP JUMPDEST PUSH1 0x40 MLOAD DUP1 SWAP2 SUB SWAP1 RETURN JUMPDEST PUSH2 0x176 PUSH2 0x62C JUMP JUMPDEST PUSH1 0x40 MLOAD PUSH2 0x183 SWAP2 SWAP1 PUSH2 0x12D8 JUMP JUMPDEST PUSH1 0x40 MLOAD DUP1 SWAP2 SUB SWAP1 RETURN JUMPDEST PUSH2 0x1A6 PUSH1 0x4 DUP1 CALLDATASIZE SUB DUP2 ADD SWAP1 PUSH2 0x1A1 SWAP2 SWAP1 PUSH2 0x138F JUMP JUMPDEST PUSH2 0x651 JUMP JUMPDEST STOP JUMPDEST PUSH2 0x1B0 PUSH2 0xAD7 JUMP JUMPDEST PUSH1 0x40 MLOAD PUSH2 0x1BD SWAP2 SWAP1 PUSH2 0x12D8 JUMP JUMPDEST PUSH1 0x40 MLOAD DUP1 SWAP2 SUB SWAP1 RETURN JUMPDEST PUSH2 0x1E0 PUSH1 0x4 DUP1 CALLDATASIZE SUB DUP2 ADD SWAP1 PUSH2 0x1DB SWAP2 SWAP1 PUSH2 0x1434 JUMP JUMPDEST PUSH2 0xAFC JUMP JUMPDEST STOP JUMPDEST PUSH2 0x1EA PUSH2 0xC4E JUMP JUMPDEST PUSH1 0x40 MLOAD PUSH2 0x1F7 SWAP2 SWAP1 PUSH2 0x12D8 JUMP JUMPDEST PUSH1 0x40 MLOAD DUP1 SWAP2 SUB SWAP1 RETURN JUMPDEST PUSH2 0x21A PUSH1 0x4 DUP1 CALLDATASIZE SUB DUP2 ADD SWAP1 PUSH2 0x215 SWAP2 SWAP1 PUSH2 0x14AE JUMP JUMPDEST PUSH2 0xC71 JUMP JUMPDEST PUSH1 0x40 MLOAD PUSH2 0x227 SWAP2 SWAP1 PUSH2 0x12D8 JUMP JUMPDEST PUSH1 0x40 MLOAD DUP1 SWAP2 SUB SWAP1 RETURN JUMPDEST PUSH2 0x24A PUSH1 0x4 DUP1 CALLDATASIZE SUB DUP2 ADD SWAP1 PUSH2 0x245 SWAP2 SWAP1 PUSH2 0x11BB JUMP JUMPDEST PUSH2 0xCDB JUMP JUMPDEST PUSH1 0x40 MLOAD PUSH2 0x25B SWAP6 SWAP5 SWAP4 SWAP3 SWAP2 SWAP1 PUSH2 0x1508 JUMP JUMPDEST PUSH1 0x40 MLOAD DUP1 SWAP2 SUB SWAP1 RETURN JUMPDEST PUSH0 PUSH2 0x2A4 DUP3 PUSH1 0x40 MLOAD DUP1 PUSH1 0x40 ADD PUSH1 0x40 MSTORE DUP1 PUSH1 0x4 DUP2 MSTORE PUSH1 0x20 ADD PUSH32 0x7573647400000000000000000000000000000000000000000000000000000000 DUP2 MSTORE POP PUSH2 0xD2C JUMP JUMPDEST DUP1 PUSH2 0x2EA JUMPI POP PUSH2 0x2E9 DUP3 PUSH1 0x40 MLOAD DUP1 PUSH1 0x40 ADD PUSH1 0x40 MSTORE DUP1 PUSH1 0x4 DUP2 MSTORE PUSH1 0x20 ADD PUSH32 0x7573646300000000000000000000000000000000000000000000000000000000 DUP2 MSTORE POP PUSH2 0xD2C JUMP JUMPDEST JUMPDEST DUP1 PUSH2 0x330 JUMPI POP PUSH2 0x32F DUP3 PUSH1 0x40 MLOAD DUP1 PUSH1 0x40 ADD PUSH1 0x40 MSTORE DUP1 PUSH1 0x3 DUP2 MSTORE PUSH1 0x20 ADD PUSH32 0x756D690000000000000000000000000000000000000000000000000000000000 DUP2 MSTORE POP PUSH2 0xD2C JUMP JUMPDEST JUMPDEST DUP1 PUSH2 0x376 JUMPI POP PUSH2 0x375 DUP3 PUSH1 0x40 MLOAD DUP1 PUSH1 0x40 ADD PUSH1 0x40 MSTORE DUP1 PUSH1 0x9 DUP2 MSTORE PUSH1 0x20 ADD PUSH32 0x64697665706F696E740000000000000000000000000000000000000000000000 DUP2 MSTORE POP PUSH2 0xD2C JUMP JUMPDEST JUMPDEST DUP1 PUSH2 0x3BC JUMPI POP PUSH2 0x3BB DUP3 PUSH1 0x40 MLOAD DUP1 PUSH1 0x40 ADD PUSH1 0x40 MSTORE DUP1 PUSH1 0x3 DUP2 MSTORE PUSH1 0x20 ADD PUSH32 0x6574680000000000000000000000000000000000000000000000000000000000 DUP2 MSTORE POP PUSH2 0xD2C JUMP JUMPDEST JUMPDEST SWAP1 POP SWAP2 SWAP1 POP JUMP JUMPDEST PUSH1 0x3 PUSH0 SWAP1 SLOAD SWAP1 PUSH2 0x100 EXP SWAP1 DIV PUSH20 0xFFFFFFFFFFFFFFFFFFFFFFFFFFFFFFFFFFFFFFFF AND DUP2 JUMP JUMPDEST PUSH1 0x5 SLOAD DUP2 JUMP JUMPDEST PUSH0 DUP1 SLOAD SWAP1 PUSH2 0x100 EXP SWAP1 DIV PUSH20 0xFFFFFFFFFFFFFFFFFFFFFFFFFFFFFFFFFFFFFFFF AND PUSH20 0xFFFFFFFFFFFFFFFFFFFFFFFFFFFFFFFFFFFFFFFF AND CALLER PUSH20 0xFFFFFFFFFFFFFFFFFFFFFFFFFFFFFFFFFFFFFFFF AND EQ PUSH2 0x47B JUMPI PUSH1 0x40 MLOAD PUSH32 0x8C379A000000000000000000000000000000000000000000000000000000000 DUP2 MSTORE PUSH1 0x4 ADD PUSH2 0x472 SWAP1 PUSH2 0x15D9 JUMP JUMPDEST PUSH1 0x40 MLOAD DUP1 SWAP2 SUB SWAP1 REVERT JUMPDEST PUSH0 DUP2 GT PUSH2 0x4BD JUMPI PUSH1 0x40 MLOAD PUSH32 0x8C379A000000000000000000000000000000000000000000000000000000000 DUP2 MSTORE PUSH1 0x4 ADD PUSH2 0x4B4 SWAP1 PUSH2 0x1641 JUMP JUMPDEST PUSH1 0x40 MLOAD DUP1 SWAP2 SUB SWAP1 REVERT JUMPDEST PUSH1 0x3 PUSH0 SWAP1 SLOAD SWAP1 PUSH2 0x100 EXP SWAP1 DIV PUSH20 0xFFFFFFFFFFFFFFFFFFFFFFFFFFFFFFFFFFFFFFFF AND PUSH20 0xFFFFFFFFFFFFFFFFFFFFFFFFFFFFFFFFFFFFFFFF AND PUSH4 0xA9059CBB PUSH0 DUP1 SLOAD SWAP1 PUSH2 0x100 EXP SWAP1 DIV PUSH20 0xFFFFFFFFFFFFFFFFFFFFFFFFFFFFFFFFFFFFFFFF AND DUP4 PUSH1 0x40 MLOAD DUP4 PUSH4 0xFFFFFFFF AND PUSH1 0xE0 SHL DUP2 MSTORE PUSH1 0x4 ADD PUSH2 0x538 SWAP3 SWAP2 SWAP1 PUSH2 0x165F JUMP JUMPDEST PUSH1 0x20 PUSH1 0x40 MLOAD DUP1 DUP4 SUB DUP2 PUSH0 DUP8 GAS CALL ISZERO DUP1 ISZERO PUSH2 0x554 JUMPI RETURNDATASIZE PUSH0 DUP1 RETURNDATACOPY RETURNDATASIZE PUSH0 REVERT JUMPDEST POP POP POP POP PUSH1 0x40 MLOAD RETURNDATASIZE PUSH1 0x1F NOT PUSH1 0x1F DUP3 ADD AND DUP3 ADD DUP1 PUSH1 0x40 MSTORE POP DUP2 ADD SWAP1 PUSH2 0x578 SWAP2 SWAP1 PUSH2 0x16B0 JUMP JUMPDEST PUSH2 0x5B7 JUMPI PUSH1 0x40 MLOAD PUSH32 0x8C379A000000000000000000000000000000000000000000000000000000000 DUP2 MSTORE PUSH1 0x4 ADD PUSH2 0x5AE SWAP1 PUSH2 0x1725 JUMP JUMPDEST PUSH1 0x40 MLOAD DUP1 SWAP2 SUB SWAP1 REVERT JUMPDEST PUSH32 0x9C6393F251205F9E03559951CAB4C9AE71767B6174F77944A5B0C2FA51FBDA9F DUP2 PUSH1 0x40 MLOAD PUSH2 0x5E6 SWAP2 SWAP1 PUSH2 0x1178 JUMP JUMPDEST PUSH1 0x40 MLOAD DUP1 SWAP2 SUB SWAP1 LOG1 POP JUMP JUMPDEST PUSH0 DUP6 DUP6 DUP6 DUP6 DUP6 PUSH1 0x40 MLOAD PUSH1 0x20 ADD PUSH2 0x60B SWAP6 SWAP5 SWAP4 SWAP3 SWAP2 SWAP1 PUSH2 0x17A8 JUMP JUMPDEST PUSH1 0x40 MLOAD PUSH1 0x20 DUP2 DUP4 SUB SUB DUP2 MSTORE SWAP1 PUSH1 0x40 MSTORE DUP1 MLOAD SWAP1 PUSH1 0x20 ADD KECCAK256 SWAP1 POP SWAP6 SWAP5 POP POP POP POP POP JUMP JUMPDEST PUSH1 0x2 PUSH0 SWAP1 SLOAD SWAP1 PUSH2 0x100 EXP SWAP1 DIV PUSH20 0xFFFFFFFFFFFFFFFFFFFFFFFFFFFFFFFFFFFFFFFF AND DUP2 JUMP JUMPDEST PUSH0 DUP4 GT PUSH2 0x693 JUMPI PUSH1 0x40 MLOAD PUSH32 0x8C379A000000000000000000000000000000000000000000000000000000000 DUP2 MSTORE PUSH1 0x4 ADD PUSH2 0x68A SWAP1 PUSH2 0x1641 JUMP JUMPDEST PUSH1 0x40 MLOAD DUP1 SWAP2 SUB SWAP1 REVERT JUMPDEST PUSH0 PUSH20 0xFFFFFFFFFFFFFFFFFFFFFFFFFFFFFFFFFFFFFFFF AND DUP7 PUSH20 0xFFFFFFFFFFFFFFFFFFFFFFFFFFFFFFFFFFFFFFFF AND SUB PUSH2 0x701 JUMPI PUSH1 0x40 MLOAD PUSH32 0x8C379A000000000000000000000000000000000000000000000000000000000 DUP2 MSTORE PUSH1 0x4 ADD PUSH2 0x6F8 SWAP1 PUSH2 0x1850 JUMP JUMPDEST PUSH1 0x40 MLOAD DUP1 SWAP2 SUB SWAP1 REVERT JUMPDEST PUSH2 0x70F DUP7 DUP7 DUP7 DUP7 DUP7 DUP7 PUSH2 0xD84 JUMP JUMPDEST PUSH2 0x74E JUMPI PUSH1 0x40 MLOAD PUSH32 0x8C379A000000000000000000000000000000000000000000000000000000000 DUP2 MSTORE PUSH1 0x4 ADD PUSH2 0x745 SWAP1 PUSH2 0x18B8 JUMP JUMPDEST PUSH1 0x40 MLOAD DUP1 SWAP2 SUB SWAP1 REVERT JUMPDEST PUSH1 0x3 PUSH0 SWAP1 SLOAD SWAP1 PUSH2 0x100 EXP SWAP1 DIV PUSH20 0xFFFFFFFFFFFFFFFFFFFFFFFFFFFFFFFFFFFFFFFF AND PUSH20 0xFFFFFFFFFFFFFFFFFFFFFFFFFFFFFFFFFFFFFFFF AND PUSH4 0x23B872DD DUP8 ADDRESS DUP7 PUSH1 0x40 MLOAD DUP5 PUSH4 0xFFFFFFFF AND PUSH1 0xE0 SHL DUP2 MSTORE PUSH1 0x4 ADD PUSH2 0x7AC SWAP4 SWAP3 SWAP2 SWAP1 PUSH2 0x18D6 JUMP JUMPDEST PUSH1 0x20 PUSH1 0x40 MLOAD DUP1 DUP4 SUB DUP2 PUSH0 DUP8 GAS CALL ISZERO DUP1 ISZERO PUSH2 0x7C8 JUMPI RETURNDATASIZE PUSH0 DUP1 RETURNDATACOPY RETURNDATASIZE PUSH0 REVERT JUMPDEST POP POP POP POP PUSH1 0x40 MLOAD RETURNDATASIZE PUSH1 0x1F NOT PUSH1 0x1F DUP3 ADD AND DUP3 ADD DUP1 PUSH1 0x40 MSTORE POP DUP2 ADD SWAP1 PUSH2 0x7EC SWAP2 SWAP1 PUSH2 0x16B0 JUMP JUMPDEST PUSH2 0x82B JUMPI PUSH1 0x40 MLOAD PUSH32 0x8C379A000000000000000000000000000000000000000000000000000000000 DUP2 MSTORE PUSH1 0x4 ADD PUSH2 0x822 SWAP1 PUSH2 0x1955 JUMP JUMPDEST PUSH1 0x40 MLOAD DUP1 SWAP2 SUB SWAP1 REVERT JUMPDEST PUSH0 PUSH1 0x64 DUP5 PUSH2 0x839 SWAP2 SWAP1 PUSH2 0x19CD JUMP JUMPDEST SWAP1 POP PUSH0 DUP2 DUP6 PUSH2 0x848 SWAP2 SWAP1 PUSH2 0x19FD JUMP JUMPDEST SWAP1 POP PUSH1 0x3 PUSH0 SWAP1 SLOAD SWAP1 PUSH2 0x100 EXP SWAP1 DIV PUSH20 0xFFFFFFFFFFFFFFFFFFFFFFFFFFFFFFFFFFFFFFFF AND PUSH20 0xFFFFFFFFFFFFFFFFFFFFFFFFFFFFFFFFFFFFFFFF AND PUSH4 0xA9059CBB PUSH1 0x1 PUSH0 SWAP1 SLOAD SWAP1 PUSH2 0x100 EXP SWAP1 DIV PUSH20 0xFFFFFFFFFFFFFFFFFFFFFFFFFFFFFFFFFFFFFFFF AND DUP5 PUSH1 0x40 MLOAD DUP4 PUSH4 0xFFFFFFFF AND PUSH1 0xE0 SHL DUP2 MSTORE PUSH1 0x4 ADD PUSH2 0x8C7 SWAP3 SWAP2 SWAP1 PUSH2 0x165F JUMP JUMPDEST PUSH1 0x20 PUSH1 0x40 MLOAD DUP1 DUP4 SUB DUP2 PUSH0 DUP8 GAS CALL ISZERO DUP1 ISZERO PUSH2 0x8E3 JUMPI RETURNDATASIZE PUSH0 DUP1 RETURNDATACOPY RETURNDATASIZE PUSH0 REVERT JUMPDEST POP POP POP POP PUSH1 0x40 MLOAD RETURNDATASIZE PUSH1 0x1F NOT PUSH1 0x1F DUP3 ADD AND DUP3 ADD DUP1 PUSH1 0x40 MSTORE POP DUP2 ADD SWAP1 PUSH2 0x907 SWAP2 SWAP1 PUSH2 0x16B0 JUMP JUMPDEST POP PUSH1 0x3 PUSH0 SWAP1 SLOAD SWAP1 PUSH2 0x100 EXP SWAP1 DIV PUSH20 0xFFFFFFFFFFFFFFFFFFFFFFFFFFFFFFFFFFFFFFFF AND PUSH20 0xFFFFFFFFFFFFFFFFFFFFFFFFFFFFFFFFFFFFFFFF AND PUSH4 0xA9059CBB DUP9 DUP4 PUSH1 0x40 MLOAD DUP4 PUSH4 0xFFFFFFFF AND PUSH1 0xE0 SHL DUP2 MSTORE PUSH1 0x4 ADD PUSH2 0x964 SWAP3 SWAP2 SWAP1 PUSH2 0x165F JUMP JUMPDEST PUSH1 0x20 PUSH1 0x40 MLOAD DUP1 DUP4 SUB DUP2 PUSH0 DUP8 GAS CALL ISZERO DUP1 ISZERO PUSH2 0x980 JUMPI RETURNDATASIZE PUSH0 DUP1 RETURNDATACOPY RETURNDATASIZE PUSH0 REVERT JUMPDEST POP POP POP POP PUSH1 0x40 MLOAD RETURNDATASIZE PUSH1 0x1F NOT PUSH1 0x1F DUP3 ADD AND DUP3 ADD DUP1 PUSH1 0x40 MSTORE POP DUP2 ADD SWAP1 PUSH2 0x9A4 SWAP2 SWAP1 PUSH2 0x16B0 JUMP JUMPDEST POP PUSH1 0x40 MLOAD DUP1 PUSH1 0xA0 ADD PUSH1 0x40 MSTORE DUP1 DUP9 PUSH20 0xFFFFFFFFFFFFFFFFFFFFFFFFFFFFFFFFFFFFFFFF AND DUP2 MSTORE PUSH1 0x20 ADD DUP8 DUP2 MSTORE PUSH1 0x20 ADD DUP3 DUP2 MSTORE PUSH1 0x20 ADD DUP4 DUP2 MSTORE PUSH1 0x20 ADD DUP6 DUP2 MSTORE POP PUSH1 0x4 PUSH0 DUP9 DUP2 MSTORE PUSH1 0x20 ADD SWAP1 DUP2 MSTORE PUSH1 0x20 ADD PUSH0 KECCAK256 PUSH0 DUP3 ADD MLOAD DUP2 PUSH0 ADD PUSH0 PUSH2 0x100 EXP DUP2 SLOAD DUP2 PUSH20 0xFFFFFFFFFFFFFFFFFFFFFFFFFFFFFFFFFFFFFFFF MUL NOT AND SWAP1 DUP4 PUSH20 0xFFFFFFFFFFFFFFFFFFFFFFFFFFFFFFFFFFFFFFFF AND MUL OR SWAP1 SSTORE POP PUSH1 0x20 DUP3 ADD MLOAD DUP2 PUSH1 0x1 ADD SSTORE PUSH1 0x40 DUP3 ADD MLOAD DUP2 PUSH1 0x2 ADD SSTORE PUSH1 0x60 DUP3 ADD MLOAD DUP2 PUSH1 0x3 ADD SSTORE PUSH1 0x80 DUP3 ADD MLOAD DUP2 PUSH1 0x4 ADD SSTORE SWAP1 POP POP PUSH1 0x1 PUSH1 0x5 PUSH0 DUP3 DUP3 SLOAD PUSH2 0xA74 SWAP2 SWAP1 PUSH2 0x1A30 JUMP JUMPDEST SWAP3 POP POP DUP2 SWAP1 SSTORE POP DUP7 PUSH20 0xFFFFFFFFFFFFFFFFFFFFFFFFFFFFFFFFFFFFFFFF AND PUSH32 0x5128ABB3A2724995D76ED092BF6BF634C1DD514C7C674EB3BBB1016C60559B33 DUP8 DUP4 DUP7 PUSH1 0x40 MLOAD PUSH2 0xAC5 SWAP4 SWAP3 SWAP2 SWAP1 PUSH2 0x1ADD JUMP JUMPDEST PUSH1 0x40 MLOAD DUP1 SWAP2 SUB SWAP1 LOG2 POP POP POP POP POP POP POP POP JUMP JUMPDEST PUSH1 0x1 PUSH0 SWAP1 SLOAD SWAP1 PUSH2 0x100 EXP SWAP1 DIV PUSH20 0xFFFFFFFFFFFFFFFFFFFFFFFFFFFFFFFFFFFFFFFF AND DUP2 JUMP JUMPDEST PUSH0 DUP1 SLOAD SWAP1 PUSH2 0x100 EXP SWAP1 DIV PUSH20 0xFFFFFFFFFFFFFFFFFFFFFFFFFFFFFFFFFFFFFFFF AND PUSH20 0xFFFFFFFFFFFFFFFFFFFFFFFFFFFFFFFFFFFFFFFF AND CALLER PUSH20 0xFFFFFFFFFFFFFFFFFFFFFFFFFFFFFFFFFFFFFFFF AND EQ PUSH2 0xB89 JUMPI PUSH1 0x40 MLOAD PUSH32 0x8C379A000000000000000000000000000000000000000000000000000000000 DUP2 MSTORE PUSH1 0x4 ADD PUSH2 0xB80 SWAP1 PUSH2 0x15D9 JUMP JUMPDEST PUSH1 0x40 MLOAD DUP1 SWAP2 SUB SWAP1 REVERT JUMPDEST DUP2 PUSH1 0x1 PUSH0 PUSH2 0x100 EXP DUP2 SLOAD DUP2 PUSH20 0xFFFFFFFFFFFFFFFFFFFFFFFFFFFFFFFFFFFFFFFF MUL NOT AND SWAP1 DUP4 PUSH20 0xFFFFFFFFFFFFFFFFFFFFFFFFFFFFFFFFFFFFFFFF AND MUL OR SWAP1 SSTORE POP DUP1 PUSH1 0x2 PUSH0 PUSH2 0x100 EXP DUP2 SLOAD DUP2 PUSH20 0xFFFFFFFFFFFFFFFFFFFFFFFFFFFFFFFFFFFFFFFF MUL NOT AND SWAP1 DUP4 PUSH20 0xFFFFFFFFFFFFFFFFFFFFFFFFFFFFFFFFFFFFFFFF AND MUL OR SWAP1 SSTORE POP DUP3 PUSH1 0x3 PUSH0 PUSH2 0x100 EXP DUP2 SLOAD DUP2 PUSH20 0xFFFFFFFFFFFFFFFFFFFFFFFFFFFFFFFFFFFFFFFF MUL NOT AND SWAP1 DUP4 PUSH20 0xFFFFFFFFFFFFFFFFFFFFFFFFFFFFFFFFFFFFFFFF AND MUL OR SWAP1 SSTORE POP POP POP POP JUMP JUMPDEST PUSH0 DUP1 SLOAD SWAP1 PUSH2 0x100 EXP SWAP1 DIV PUSH20 0xFFFFFFFFFFFFFFFFFFFFFFFFFFFFFFFFFFFFFFFF AND DUP2 JUMP JUMPDEST PUSH0 DUP1 PUSH0 DUP1 PUSH2 0xC7E DUP6 PUSH2 0xE08 JUMP JUMPDEST SWAP3 POP SWAP3 POP SWAP3 POP PUSH1 0x1 DUP7 DUP3 DUP6 DUP6 PUSH1 0x40 MLOAD PUSH0 DUP2 MSTORE PUSH1 0x20 ADD PUSH1 0x40 MSTORE PUSH1 0x40 MLOAD PUSH2 0xCA6 SWAP5 SWAP4 SWAP3 SWAP2 SWAP1 PUSH2 0x1B34 JUMP JUMPDEST PUSH1 0x20 PUSH1 0x40 MLOAD PUSH1 0x20 DUP2 SUB SWAP1 DUP1 DUP5 SUB SWAP1 DUP6 GAS STATICCALL ISZERO DUP1 ISZERO PUSH2 0xCC6 JUMPI RETURNDATASIZE PUSH0 DUP1 RETURNDATACOPY RETURNDATASIZE PUSH0 REVERT JUMPDEST POP POP POP PUSH1 0x20 PUSH1 0x40 MLOAD SUB MLOAD SWAP4 POP POP POP POP SWAP3 SWAP2 POP POP JUMP JUMPDEST PUSH1 0x4 PUSH1 0x20 MSTORE DUP1 PUSH0 MSTORE PUSH1 0x40 PUSH0 KECCAK256 PUSH0 SWAP2 POP SWAP1 POP DUP1 PUSH0 ADD PUSH0 SWAP1 SLOAD SWAP1 PUSH2 0x100 EXP SWAP1 DIV PUSH20 0xFFFFFFFFFFFFFFFFFFFFFFFFFFFFFFFFFFFFFFFF AND SWAP1 DUP1 PUSH1 0x1 ADD SLOAD SWAP1 DUP1 PUSH1 0x2 ADD SLOAD SWAP1 DUP1 PUSH1 0x3 ADD SLOAD SWAP1 DUP1 PUSH1 0x4 ADD SLOAD SWAP1 POP DUP6 JUMP JUMPDEST PUSH0 DUP2 PUSH1 0x40 MLOAD PUSH1 0x20 ADD PUSH2 0xD3E SWAP2 SWAP1 PUSH2 0x1BBB JUMP JUMPDEST PUSH1 0x40 MLOAD PUSH1 0x20 DUP2 DUP4 SUB SUB DUP2 MSTORE SWAP1 PUSH1 0x40 MSTORE DUP1 MLOAD SWAP1 PUSH1 0x20 ADD KECCAK256 DUP4 PUSH1 0x40 MLOAD PUSH1 0x20 ADD PUSH2 0xD65 SWAP2 SWAP1 PUSH2 0x1BBB JUMP JUMPDEST PUSH1 0x40 MLOAD PUSH1 0x20 DUP2 DUP4 SUB SUB DUP2 MSTORE SWAP1 PUSH1 0x40 MSTORE DUP1 MLOAD SWAP1 PUSH1 0x20 ADD KECCAK256 EQ SWAP1 POP SWAP3 SWAP2 POP POP JUMP JUMPDEST PUSH0 DUP1 PUSH2 0xD93 DUP9 DUP9 DUP9 DUP9 DUP9 PUSH2 0x5F1 JUMP JUMPDEST SWAP1 POP PUSH0 PUSH2 0xD9F DUP3 PUSH2 0xE6D JUMP JUMPDEST SWAP1 POP PUSH1 0x2 PUSH0 SWAP1 SLOAD SWAP1 PUSH2 0x100 EXP SWAP1 DIV PUSH20 0xFFFFFFFFFFFFFFFFFFFFFFFFFFFFFFFFFFFFFFFF AND PUSH20 0xFFFFFFFFFFFFFFFFFFFFFFFFFFFFFFFFFFFFFFFF AND PUSH2 0xDE3 DUP3 DUP7 PUSH2 0xE9C JUMP JUMPDEST PUSH20 0xFFFFFFFFFFFFFFFFFFFFFFFFFFFFFFFFFFFFFFFF AND EQ SWAP3 POP POP POP SWAP7 SWAP6 POP POP POP POP POP POP JUMP JUMPDEST PUSH0 DUP1 PUSH0 PUSH1 0x41 DUP5 MLOAD EQ PUSH2 0xE4F JUMPI PUSH1 0x40 MLOAD PUSH32 0x8C379A000000000000000000000000000000000000000000000000000000000 DUP2 MSTORE PUSH1 0x4 ADD PUSH2 0xE46 SWAP1 PUSH2 0x1C1B JUMP JUMPDEST PUSH1 0x40 MLOAD DUP1 SWAP2 SUB SWAP1 REVERT JUMPDEST PUSH1 0x20 DUP5 ADD MLOAD SWAP3 POP PUSH1 0x40 DUP5 ADD MLOAD SWAP2 POP PUSH1 0x60 DUP5 ADD MLOAD PUSH0 BYTE SWAP1 POP SWAP2 SWAP4 SWAP1 SWAP3 POP JUMP JUMPDEST PUSH0 DUP2 PUSH1 0x40 MLOAD PUSH1 0x20 ADD PUSH2 0xE7F SWAP2 SWAP1 PUSH2 0x1CA3 JUMP JUMPDEST PUSH1 0x40 MLOAD PUSH1 0x20 DUP2 DUP4 SUB SUB DUP2 MSTORE SWAP1 PUSH1 0x40 MSTORE DUP1 MLOAD SWAP1 PUSH1 0x20 ADD KECCAK256 SWAP1 POP SWAP2 SWAP1 POP JUMP JUMPDEST PUSH0 DUP1 PUSH0 DUP1 PUSH2 0xEA9 DUP6 PUSH2 0xE08 JUMP JUMPDEST SWAP3 POP SWAP3 POP SWAP3 POP PUSH1 0x1 DUP7 DUP3 DUP6 DUP6 PUSH1 0x40 MLOAD PUSH0 DUP2 MSTORE PUSH1 0x20 ADD PUSH1 0x40 MSTORE PUSH1 0x40 MLOAD PUSH2 0xED1 SWAP5 SWAP4 SWAP3 SWAP2 SWAP1 PUSH2 0x1B34 JUMP JUMPDEST PUSH1 0x20 PUSH1 0x40 MLOAD PUSH1 0x20 DUP2 SUB SWAP1 DUP1 DUP5 SUB SWAP1 DUP6 GAS STATICCALL ISZERO DUP1 ISZERO PUSH2 0xEF1 JUMPI RETURNDATASIZE PUSH0 DUP1 RETURNDATACOPY RETURNDATASIZE PUSH0 REVERT JUMPDEST POP POP POP PUSH1 0x20 PUSH1 0x40 MLOAD SUB MLOAD SWAP4 POP POP POP POP SWAP3 SWAP2 POP POP JUMP JUMPDEST PUSH0 PUSH1 0x40 MLOAD SWAP1 POP SWAP1 JUMP JUMPDEST PUSH0 DUP1 REVERT JUMPDEST PUSH0 DUP1 REVERT JUMPDEST PUSH0 DUP1 REVERT JUMPDEST PUSH0 DUP1 REVERT JUMPDEST PUSH0 PUSH1 0x1F NOT PUSH1 0x1F DUP4 ADD AND SWAP1 POP SWAP2 SWAP1 POP JUMP JUMPDEST PUSH32 0x4E487B7100000000000000000000000000000000000000000000000000000000 PUSH0 MSTORE PUSH1 0x41 PUSH1 0x4 MSTORE PUSH1 0x24 PUSH0 REVERT JUMPDEST PUSH2 0xF65 DUP3 PUSH2 0xF1F JUMP JUMPDEST DUP2 ADD DUP2 DUP2 LT PUSH8 0xFFFFFFFFFFFFFFFF DUP3 GT OR ISZERO PUSH2 0xF84 JUMPI PUSH2 0xF83 PUSH2 0xF2F JUMP JUMPDEST JUMPDEST DUP1 PUSH1 0x40 MSTORE POP POP POP JUMP JUMPDEST PUSH0 PUSH2 0xF96 PUSH2 0xF06 JUMP JUMPDEST SWAP1 POP PUSH2 0xFA2 DUP3 DUP3 PUSH2 0xF5C JUMP JUMPDEST SWAP2 SWAP1 POP JUMP JUMPDEST PUSH0 PUSH8 0xFFFFFFFFFFFFFFFF DUP3 GT ISZERO PUSH2 0xFC1 JUMPI PUSH2 0xFC0 PUSH2 0xF2F JUMP JUMPDEST JUMPDEST PUSH2 0xFCA DUP3 PUSH2 0xF1F JUMP JUMPDEST SWAP1 POP PUSH1 0x20 DUP2 ADD SWAP1 POP SWAP2 SWAP1 POP JUMP JUMPDEST DUP3 DUP2 DUP4 CALLDATACOPY PUSH0 DUP4 DUP4 ADD MSTORE POP POP POP JUMP JUMPDEST PUSH0 PUSH2 0xFF7 PUSH2 0xFF2 DUP5 PUSH2 0xFA7 JUMP JUMPDEST PUSH2 0xF8D JUMP JUMPDEST SWAP1 POP DUP3 DUP2 MSTORE PUSH1 0x20 DUP2 ADD DUP5 DUP5 DUP5 ADD GT ISZERO PUSH2 0x1013 JUMPI PUSH2 0x1012 PUSH2 0xF1B JUMP JUMPDEST JUMPDEST PUSH2 0x101E DUP5 DUP3 DUP6 PUSH2 0xFD7 JUMP JUMPDEST POP SWAP4 SWAP3 POP POP POP JUMP JUMPDEST PUSH0 DUP3 PUSH1 0x1F DUP4 ADD SLT PUSH2 0x103A JUMPI PUSH2 0x1039 PUSH2 0xF17 JUMP JUMPDEST JUMPDEST DUP2 CALLDATALOAD PUSH2 0x104A DUP5 DUP3 PUSH1 0x20 DUP7 ADD PUSH2 0xFE5 JUMP JUMPDEST SWAP2 POP POP SWAP3 SWAP2 POP POP JUMP JUMPDEST PUSH0 PUSH1 0x20 DUP3 DUP5 SUB SLT ISZERO PUSH2 0x1068 JUMPI PUSH2 0x1067 PUSH2 0xF0F JUMP JUMPDEST JUMPDEST PUSH0 DUP3 ADD CALLDATALOAD PUSH8 0xFFFFFFFFFFFFFFFF DUP2 GT ISZERO PUSH2 0x1085 JUMPI PUSH2 0x1084 PUSH2 0xF13 JUMP JUMPDEST JUMPDEST PUSH2 0x1091 DUP5 DUP3 DUP6 ADD PUSH2 0x1026 JUMP JUMPDEST SWAP2 POP POP SWAP3 SWAP2 POP POP JUMP JUMPDEST PUSH0 DUP2 ISZERO ISZERO SWAP1 POP SWAP2 SWAP1 POP JUMP JUMPDEST PUSH2 0x10AE DUP2 PUSH2 0x109A JUMP JUMPDEST DUP3 MSTORE POP POP JUMP JUMPDEST PUSH0 PUSH1 0x20 DUP3 ADD SWAP1 POP PUSH2 0x10C7 PUSH0 DUP4 ADD DUP5 PUSH2 0x10A5 JUMP JUMPDEST SWAP3 SWAP2 POP POP JUMP JUMPDEST PUSH0 PUSH20 0xFFFFFFFFFFFFFFFFFFFFFFFFFFFFFFFFFFFFFFFF DUP3 AND SWAP1 POP SWAP2 SWAP1 POP JUMP JUMPDEST PUSH0 DUP2 SWAP1 POP SWAP2 SWAP1 POP JUMP JUMPDEST PUSH0 PUSH2 0x110F PUSH2 0x110A PUSH2 0x1105 DUP5 PUSH2 0x10CD JUMP JUMPDEST PUSH2 0x10EC JUMP JUMPDEST PUSH2 0x10CD JUMP JUMPDEST SWAP1 POP SWAP2 SWAP1 POP JUMP JUMPDEST PUSH0 PUSH2 0x1120 DUP3 PUSH2 0x10F5 JUMP JUMPDEST SWAP1 POP SWAP2 SWAP1 POP JUMP JUMPDEST PUSH0 PUSH2 0x1131 DUP3 PUSH2 0x1116 JUMP JUMPDEST SWAP1 POP SWAP2 SWAP1 POP JUMP JUMPDEST PUSH2 0x1141 DUP2 PUSH2 0x1127 JUMP JUMPDEST DUP3 MSTORE POP POP JUMP JUMPDEST PUSH0 PUSH1 0x20 DUP3 ADD SWAP1 POP PUSH2 0x115A PUSH0 DUP4 ADD DUP5 PUSH2 0x1138 JUMP JUMPDEST SWAP3 SWAP2 POP POP JUMP JUMPDEST PUSH0 DUP2 SWAP1 POP SWAP2 SWAP1 POP JUMP JUMPDEST PUSH2 0x1172 DUP2 PUSH2 0x1160 JUMP JUMPDEST DUP3 MSTORE POP POP JUMP JUMPDEST PUSH0 PUSH1 0x20 DUP3 ADD SWAP1 POP PUSH2 0x118B PUSH0 DUP4 ADD DUP5 PUSH2 0x1169 JUMP JUMPDEST SWAP3 SWAP2 POP POP JUMP JUMPDEST PUSH2 0x119A DUP2 PUSH2 0x1160 JUMP JUMPDEST DUP2 EQ PUSH2 0x11A4 JUMPI PUSH0 DUP1 REVERT JUMPDEST POP JUMP JUMPDEST PUSH0 DUP2 CALLDATALOAD SWAP1 POP PUSH2 0x11B5 DUP2 PUSH2 0x1191 JUMP JUMPDEST SWAP3 SWAP2 POP POP JUMP JUMPDEST PUSH0 PUSH1 0x20 DUP3 DUP5 SUB SLT ISZERO PUSH2 0x11D0 JUMPI PUSH2 0x11CF PUSH2 0xF0F JUMP JUMPDEST JUMPDEST PUSH0 PUSH2 0x11DD DUP5 DUP3 DUP6 ADD PUSH2 0x11A7 JUMP JUMPDEST SWAP2 POP POP SWAP3 SWAP2 POP POP JUMP JUMPDEST PUSH0 PUSH2 0x11F0 DUP3 PUSH2 0x10CD JUMP JUMPDEST SWAP1 POP SWAP2 SWAP1 POP JUMP JUMPDEST PUSH2 0x1200 DUP2 PUSH2 0x11E6 JUMP JUMPDEST DUP2 EQ PUSH2 0x120A JUMPI PUSH0 DUP1 REVERT JUMPDEST POP JUMP JUMPDEST PUSH0 DUP2 CALLDATALOAD SWAP1 POP PUSH2 0x121B DUP2 PUSH2 0x11F7 JUMP JUMPDEST SWAP3 SWAP2 POP POP JUMP JUMPDEST PUSH0 DUP1 PUSH0 DUP1 PUSH0 PUSH1 0xA0 DUP7 DUP9 SUB SLT ISZERO PUSH2 0x123A JUMPI PUSH2 0x1239 PUSH2 0xF0F JUMP JUMPDEST JUMPDEST PUSH0 PUSH2 0x1247 DUP9 DUP3 DUP10 ADD PUSH2 0x120D JUMP JUMPDEST SWAP6 POP POP PUSH1 0x20 PUSH2 0x1258 DUP9 DUP3 DUP10 ADD PUSH2 0x120D JUMP JUMPDEST SWAP5 POP POP PUSH1 0x40 PUSH2 0x1269 DUP9 DUP3 DUP10 ADD PUSH2 0x11A7 JUMP JUMPDEST SWAP4 POP POP PUSH1 0x60 PUSH2 0x127A DUP9 DUP3 DUP10 ADD PUSH2 0x11A7 JUMP JUMPDEST SWAP3 POP POP PUSH1 0x80 PUSH2 0x128B DUP9 DUP3 DUP10 ADD PUSH2 0x11A7 JUMP JUMPDEST SWAP2 POP POP SWAP3 SWAP6 POP SWAP3 SWAP6 SWAP1 SWAP4 POP JUMP JUMPDEST PUSH0 DUP2 SWAP1 POP SWAP2 SWAP1 POP JUMP JUMPDEST PUSH2 0x12AA DUP2 PUSH2 0x1298 JUMP JUMPDEST DUP3 MSTORE POP POP JUMP JUMPDEST PUSH0 PUSH1 0x20 DUP3 ADD SWAP1 POP PUSH2 0x12C3 PUSH0 DUP4 ADD DUP5 PUSH2 0x12A1 JUMP JUMPDEST SWAP3 SWAP2 POP POP JUMP JUMPDEST PUSH2 0x12D2 DUP2 PUSH2 0x11E6 JUMP JUMPDEST DUP3 MSTORE POP POP JUMP JUMPDEST PUSH0 PUSH1 0x20 DUP3 ADD SWAP1 POP PUSH2 0x12EB PUSH0 DUP4 ADD DUP5 PUSH2 0x12C9 JUMP JUMPDEST SWAP3 SWAP2 POP POP JUMP JUMPDEST PUSH0 PUSH8 0xFFFFFFFFFFFFFFFF DUP3 GT ISZERO PUSH2 0x130B JUMPI PUSH2 0x130A PUSH2 0xF2F JUMP JUMPDEST JUMPDEST PUSH2 0x1314 DUP3 PUSH2 0xF1F JUMP JUMPDEST SWAP1 POP PUSH1 0x20 DUP2 ADD SWAP1 POP SWAP2 SWAP1 POP JUMP JUMPDEST PUSH0 PUSH2 0x1333 PUSH2 0x132E DUP5 PUSH2 0x12F1 JUMP JUMPDEST PUSH2 0xF8D JUMP JUMPDEST SWAP1 POP DUP3 DUP2 MSTORE PUSH1 0x20 DUP2 ADD DUP5 DUP5 DUP5 ADD GT ISZERO PUSH2 0x134F JUMPI PUSH2 0x134E PUSH2 0xF1B JUMP JUMPDEST JUMPDEST PUSH2 0x135A DUP5 DUP3 DUP6 PUSH2 0xFD7 JUMP JUMPDEST POP SWAP4 SWAP3 POP POP POP JUMP JUMPDEST PUSH0 DUP3 PUSH1 0x1F DUP4 ADD SLT PUSH2 0x1376 JUMPI PUSH2 0x1375 PUSH2 0xF17 JUMP JUMPDEST JUMPDEST DUP2 CALLDATALOAD PUSH2 0x1386 DUP5 DUP3 PUSH1 0x20 DUP7 ADD PUSH2 0x1321 JUMP JUMPDEST SWAP2 POP POP SWAP3 SWAP2 POP POP JUMP JUMPDEST PUSH0 DUP1 PUSH0 DUP1 PUSH0 DUP1 PUSH1 0xC0 DUP8 DUP10 SUB SLT ISZERO PUSH2 0x13A9 JUMPI PUSH2 0x13A8 PUSH2 0xF0F JUMP JUMPDEST JUMPDEST PUSH0 PUSH2 0x13B6 DUP10 DUP3 DUP11 ADD PUSH2 0x120D JUMP JUMPDEST SWAP7 POP POP PUSH1 0x20 PUSH2 0x13C7 DUP10 DUP3 DUP11 ADD PUSH2 0x120D JUMP JUMPDEST SWAP6 POP POP PUSH1 0x40 PUSH2 0x13D8 DUP10 DUP3 DUP11 ADD PUSH2 0x11A7 JUMP JUMPDEST SWAP5 POP POP PUSH1 0x60 PUSH2 0x13E9 DUP10 DUP3 DUP11 ADD PUSH2 0x11A7 JUMP JUMPDEST SWAP4 POP POP PUSH1 0x80 PUSH2 0x13FA DUP10 DUP3 DUP11 ADD PUSH2 0x11A7 JUMP JUMPDEST SWAP3 POP POP PUSH1 0xA0 DUP8 ADD CALLDATALOAD PUSH8 0xFFFFFFFFFFFFFFFF DUP2 GT ISZERO PUSH2 0x141B JUMPI PUSH2 0x141A PUSH2 0xF13 JUMP JUMPDEST JUMPDEST PUSH2 0x1427 DUP10 DUP3 DUP11 ADD PUSH2 0x1362 JUMP JUMPDEST SWAP2 POP POP SWAP3 SWAP6 POP SWAP3 SWAP6 POP SWAP3 SWAP6 JUMP JUMPDEST PUSH0 DUP1 PUSH0 PUSH1 0x60 DUP5 DUP7 SUB SLT ISZERO PUSH2 0x144B JUMPI PUSH2 0x144A PUSH2 0xF0F JUMP JUMPDEST JUMPDEST PUSH0 PUSH2 0x1458 DUP7 DUP3 DUP8 ADD PUSH2 0x120D JUMP JUMPDEST SWAP4 POP POP PUSH1 0x20 PUSH2 0x1469 DUP7 DUP3 DUP8 ADD PUSH2 0x120D JUMP JUMPDEST SWAP3 POP POP PUSH1 0x40 PUSH2 0x147A DUP7 DUP3 DUP8 ADD PUSH2 0x120D JUMP JUMPDEST SWAP2 POP POP SWAP3 POP SWAP3 POP SWAP3 JUMP JUMPDEST PUSH2 0x148D DUP2 PUSH2 0x1298 JUMP JUMPDEST DUP2 EQ PUSH2 0x1497 JUMPI PUSH0 DUP1 REVERT JUMPDEST POP JUMP JUMPDEST PUSH0 DUP2 CALLDATALOAD SWAP1 POP PUSH2 0x14A8 DUP2 PUSH2 0x1484 JUMP JUMPDEST SWAP3 SWAP2 POP POP JUMP JUMPDEST PUSH0 DUP1 PUSH1 0x40 DUP4 DUP6 SUB SLT ISZERO PUSH2 0x14C4 JUMPI PUSH2 0x14C3 PUSH2 0xF0F JUMP JUMPDEST JUMPDEST PUSH0 PUSH2 0x14D1 DUP6 DUP3 DUP7 ADD PUSH2 0x149A JUMP JUMPDEST SWAP3 POP POP PUSH1 0x20 DUP4 ADD CALLDATALOAD PUSH8 0xFFFFFFFFFFFFFFFF DUP2 GT ISZERO PUSH2 0x14F2 JUMPI PUSH2 0x14F1 PUSH2 0xF13 JUMP JUMPDEST JUMPDEST PUSH2 0x14FE DUP6 DUP3 DUP7 ADD PUSH2 0x1362 JUMP JUMPDEST SWAP2 POP POP SWAP3 POP SWAP3 SWAP1 POP JUMP JUMPDEST PUSH0 PUSH1 0xA0 DUP3 ADD SWAP1 POP PUSH2 0x151B PUSH0 DUP4 ADD DUP9 PUSH2 0x12C9 JUMP JUMPDEST PUSH2 0x1528 PUSH1 0x20 DUP4 ADD DUP8 PUSH2 0x1169 JUMP JUMPDEST PUSH2 0x1535 PUSH1 0x40 DUP4 ADD DUP7 PUSH2 0x1169 JUMP JUMPDEST PUSH2 0x1542 PUSH1 0x60 DUP4 ADD DUP6 PUSH2 0x1169 JUMP JUMPDEST PUSH2 0x154F PUSH1 0x80 DUP4 ADD DUP5 PUSH2 0x1169 JUMP JUMPDEST SWAP7 SWAP6 POP POP POP POP POP POP JUMP JUMPDEST PUSH0 DUP3 DUP3 MSTORE PUSH1 0x20 DUP3 ADD SWAP1 POP SWAP3 SWAP2 POP POP JUMP JUMPDEST PUSH32 0x4F6E6C79206F776E65722063616E2063616C6C20746869732066756E6374696F PUSH0 DUP3 ADD MSTORE PUSH32 0x6E00000000000000000000000000000000000000000000000000000000000000 PUSH1 0x20 DUP3 ADD MSTORE POP JUMP JUMPDEST PUSH0 PUSH2 0x15C3 PUSH1 0x21 DUP4 PUSH2 0x1559 JUMP JUMPDEST SWAP2 POP PUSH2 0x15CE DUP3 PUSH2 0x1569 JUMP JUMPDEST PUSH1 0x40 DUP3 ADD SWAP1 POP SWAP2 SWAP1 POP JUMP JUMPDEST PUSH0 PUSH1 0x20 DUP3 ADD SWAP1 POP DUP2 DUP2 SUB PUSH0 DUP4 ADD MSTORE PUSH2 0x15F0 DUP2 PUSH2 0x15B7 JUMP JUMPDEST SWAP1 POP SWAP2 SWAP1 POP JUMP JUMPDEST PUSH32 0x496E76616C696420616D6F756E74000000000000000000000000000000000000 PUSH0 DUP3 ADD MSTORE POP JUMP JUMPDEST PUSH0 PUSH2 0x162B PUSH1 0xE DUP4 PUSH2 0x1559 JUMP JUMPDEST SWAP2 POP PUSH2 0x1636 DUP3 PUSH2 0x15F7 JUMP JUMPDEST PUSH1 0x20 DUP3 ADD SWAP1 POP SWAP2 SWAP1 POP JUMP JUMPDEST PUSH0 PUSH1 0x20 DUP3 ADD SWAP1 POP DUP2 DUP2 SUB PUSH0 DUP4 ADD MSTORE PUSH2 0x1658 DUP2 PUSH2 0x161F JUMP JUMPDEST SWAP1 POP SWAP2 SWAP1 POP JUMP JUMPDEST PUSH0 PUSH1 0x40 DUP3 ADD SWAP1 POP PUSH2 0x1672 PUSH0 DUP4 ADD DUP6 PUSH2 0x12C9 JUMP JUMPDEST PUSH2 0x167F PUSH1 0x20 DUP4 ADD DUP5 PUSH2 0x1169 JUMP JUMPDEST SWAP4 SWAP3 POP POP POP JUMP JUMPDEST PUSH2 0x168F DUP2 PUSH2 0x109A JUMP JUMPDEST DUP2 EQ PUSH2 0x1699 JUMPI PUSH0 DUP1 REVERT JUMPDEST POP JUMP JUMPDEST PUSH0 DUP2 MLOAD SWAP1 POP PUSH2 0x16AA DUP2 PUSH2 0x1686 JUMP JUMPDEST SWAP3 SWAP2 POP POP JUMP JUMPDEST PUSH0 PUSH1 0x20 DUP3 DUP5 SUB SLT ISZERO PUSH2 0x16C5 JUMPI PUSH2 0x16C4 PUSH2 0xF0F JUMP JUMPDEST JUMPDEST PUSH0 PUSH2 0x16D2 DUP5 DUP3 DUP6 ADD PUSH2 0x169C JUMP JUMPDEST SWAP2 POP POP SWAP3 SWAP2 POP POP JUMP JUMPDEST PUSH32 0x546F6B656E207472616E73666572206661696C65640000000000000000000000 PUSH0 DUP3 ADD MSTORE POP JUMP JUMPDEST PUSH0 PUSH2 0x170F PUSH1 0x15 DUP4 PUSH2 0x1559 JUMP JUMPDEST SWAP2 POP PUSH2 0x171A DUP3 PUSH2 0x16DB JUMP JUMPDEST PUSH1 0x20 DUP3 ADD SWAP1 POP SWAP2 SWAP1 POP JUMP JUMPDEST PUSH0 PUSH1 0x20 DUP3 ADD SWAP1 POP DUP2 DUP2 SUB PUSH0 DUP4 ADD MSTORE PUSH2 0x173C DUP2 PUSH2 0x1703 JUMP JUMPDEST SWAP1 POP SWAP2 SWAP1 POP JUMP JUMPDEST PUSH0 DUP2 PUSH1 0x60 SHL SWAP1 POP SWAP2 SWAP1 POP JUMP JUMPDEST PUSH0 PUSH2 0x1759 DUP3 PUSH2 0x1743 JUMP JUMPDEST SWAP1 POP SWAP2 SWAP1 POP JUMP JUMPDEST PUSH0 PUSH2 0x176A DUP3 PUSH2 0x174F JUMP JUMPDEST SWAP1 POP SWAP2 SWAP1 POP JUMP JUMPDEST PUSH2 0x1782 PUSH2 0x177D DUP3 PUSH2 0x11E6 JUMP JUMPDEST PUSH2 0x1760 JUMP JUMPDEST DUP3 MSTORE POP POP JUMP JUMPDEST PUSH0 DUP2 SWAP1 POP SWAP2 SWAP1 POP JUMP JUMPDEST PUSH2 0x17A2 PUSH2 0x179D DUP3 PUSH2 0x1160 JUMP JUMPDEST PUSH2 0x1788 JUMP JUMPDEST DUP3 MSTORE POP POP JUMP JUMPDEST PUSH0 PUSH2 0x17B3 DUP3 DUP9 PUSH2 0x1771 JUMP JUMPDEST PUSH1 0x14 DUP3 ADD SWAP2 POP PUSH2 0x17C3 DUP3 DUP8 PUSH2 0x1771 JUMP JUMPDEST PUSH1 0x14 DUP3 ADD SWAP2 POP PUSH2 0x17D3 DUP3 DUP7 PUSH2 0x1791 JUMP JUMPDEST PUSH1 0x20 DUP3 ADD SWAP2 POP PUSH2 0x17E3 DUP3 DUP6 PUSH2 0x1791 JUMP JUMPDEST PUSH1 0x20 DUP3 ADD SWAP2 POP PUSH2 0x17F3 DUP3 DUP5 PUSH2 0x1791 JUMP JUMPDEST PUSH1 0x20 DUP3 ADD SWAP2 POP DUP2 SWAP1 POP SWAP7 SWAP6 POP POP POP POP POP POP JUMP JUMPDEST PUSH32 0x43563A2066726F6D20746F20746865207A65726F206164647265737300000000 PUSH0 DUP3 ADD MSTORE POP JUMP JUMPDEST PUSH0 PUSH2 0x183A PUSH1 0x1C DUP4 PUSH2 0x1559 JUMP JUMPDEST SWAP2 POP PUSH2 0x1845 DUP3 PUSH2 0x1806 JUMP JUMPDEST PUSH1 0x20 DUP3 ADD SWAP1 POP SWAP2 SWAP1 POP JUMP JUMPDEST PUSH0 PUSH1 0x20 DUP3 ADD SWAP1 POP DUP2 DUP2 SUB PUSH0 DUP4 ADD MSTORE PUSH2 0x1867 DUP2 PUSH2 0x182E JUMP JUMPDEST SWAP1 POP SWAP2 SWAP1 POP JUMP JUMPDEST PUSH32 0x43563A20696E76616C6964205F7369676E617475726500000000000000000000 PUSH0 DUP3 ADD MSTORE POP JUMP JUMPDEST PUSH0 PUSH2 0x18A2 PUSH1 0x16 DUP4 PUSH2 0x1559 JUMP JUMPDEST SWAP2 POP PUSH2 0x18AD DUP3 PUSH2 0x186E JUMP JUMPDEST PUSH1 0x20 DUP3 ADD SWAP1 POP SWAP2 SWAP1 POP JUMP JUMPDEST PUSH0 PUSH1 0x20 DUP3 ADD SWAP1 POP DUP2 DUP2 SUB PUSH0 DUP4 ADD MSTORE PUSH2 0x18CF DUP2 PUSH2 0x1896 JUMP JUMPDEST SWAP1 POP SWAP2 SWAP1 POP JUMP JUMPDEST PUSH0 PUSH1 0x60 DUP3 ADD SWAP1 POP PUSH2 0x18E9 PUSH0 DUP4 ADD DUP7 PUSH2 0x12C9 JUMP JUMPDEST PUSH2 0x18F6 PUSH1 0x20 DUP4 ADD DUP6 PUSH2 0x12C9 JUMP JUMPDEST PUSH2 0x1903 PUSH1 0x40 DUP4 ADD DUP5 PUSH2 0x1169 JUMP JUMPDEST SWAP5 SWAP4 POP POP POP POP JUMP JUMPDEST PUSH32 0x55534443207472616E73666572206661696C6564000000000000000000000000 PUSH0 DUP3 ADD MSTORE POP JUMP JUMPDEST PUSH0 PUSH2 0x193F PUSH1 0x14 DUP4 PUSH2 0x1559 JUMP JUMPDEST SWAP2 POP PUSH2 0x194A DUP3 PUSH2 0x190B JUMP JUMPDEST PUSH1 0x20 DUP3 ADD SWAP1 POP SWAP2 SWAP1 POP JUMP JUMPDEST PUSH0 PUSH1 0x20 DUP3 ADD SWAP1 POP DUP2 DUP2 SUB PUSH0 DUP4 ADD MSTORE PUSH2 0x196C DUP2 PUSH2 0x1933 JUMP JUMPDEST SWAP1 POP SWAP2 SWAP1 POP JUMP JUMPDEST PUSH32 0x4E487B7100000000000000000000000000000000000000000000000000000000 PUSH0 MSTORE PUSH1 0x12 PUSH1 0x4 MSTORE PUSH1 0x24 PUSH0 REVERT JUMPDEST PUSH32 0x4E487B7100000000000000000000000000000000000000000000000000000000 PUSH0 MSTORE PUSH1 0x11 PUSH1 0x4 MSTORE PUSH1 0x24 PUSH0 REVERT JUMPDEST PUSH0 PUSH2 0x19D7 DUP3 PUSH2 0x1160 JUMP JUMPDEST SWAP2 POP PUSH2 0x19E2 DUP4 PUSH2 0x1160 JUMP JUMPDEST SWAP3 POP DUP3 PUSH2 0x19F2 JUMPI PUSH2 0x19F1 PUSH2 0x1973 JUMP JUMPDEST JUMPDEST DUP3 DUP3 DIV SWAP1 POP SWAP3 SWAP2 POP POP JUMP JUMPDEST PUSH0 PUSH2 0x1A07 DUP3 PUSH2 0x1160 JUMP JUMPDEST SWAP2 POP PUSH2 0x1A12 DUP4 PUSH2 0x1160 JUMP JUMPDEST SWAP3 POP DUP3 DUP3 SUB SWAP1 POP DUP2 DUP2 GT ISZERO PUSH2 0x1A2A JUMPI PUSH2 0x1A29 PUSH2 0x19A0 JUMP JUMPDEST JUMPDEST SWAP3 SWAP2 POP POP JUMP JUMPDEST PUSH0 PUSH2 0x1A3A DUP3 PUSH2 0x1160 JUMP JUMPDEST SWAP2 POP PUSH2 0x1A45 DUP4 PUSH2 0x1160 JUMP JUMPDEST SWAP3 POP DUP3 DUP3 ADD SWAP1 POP DUP1 DUP3 GT ISZERO PUSH2 0x1A5D JUMPI PUSH2 0x1A5C PUSH2 0x19A0 JUMP JUMPDEST JUMPDEST SWAP3 SWAP2 POP POP JUMP JUMPDEST PUSH0 DUP2 MLOAD SWAP1 POP SWAP2 SWAP1 POP JUMP JUMPDEST PUSH0 DUP3 DUP3 MSTORE PUSH1 0x20 DUP3 ADD SWAP1 POP SWAP3 SWAP2 POP POP JUMP JUMPDEST PUSH0 JUMPDEST DUP4 DUP2 LT ISZERO PUSH2 0x1A9A JUMPI DUP1 DUP3 ADD MLOAD DUP2 DUP5 ADD MSTORE PUSH1 0x20 DUP2 ADD SWAP1 POP PUSH2 0x1A7F JUMP JUMPDEST PUSH0 DUP5 DUP5 ADD MSTORE POP POP POP POP JUMP JUMPDEST PUSH0 PUSH2 0x1AAF DUP3 PUSH2 0x1A63 JUMP JUMPDEST PUSH2 0x1AB9 DUP2 DUP6 PUSH2 0x1A6D JUMP JUMPDEST SWAP4 POP PUSH2 0x1AC9 DUP2 DUP6 PUSH1 0x20 DUP7 ADD PUSH2 0x1A7D JUMP JUMPDEST PUSH2 0x1AD2 DUP2 PUSH2 0xF1F JUMP JUMPDEST DUP5 ADD SWAP2 POP POP SWAP3 SWAP2 POP POP JUMP JUMPDEST PUSH0 PUSH1 0x60 DUP3 ADD SWAP1 POP PUSH2 0x1AF0 PUSH0 DUP4 ADD DUP7 PUSH2 0x1169 JUMP JUMPDEST PUSH2 0x1AFD PUSH1 0x20 DUP4 ADD DUP6 PUSH2 0x1169 JUMP JUMPDEST DUP2 DUP2 SUB PUSH1 0x40 DUP4 ADD MSTORE PUSH2 0x1B0F DUP2 DUP5 PUSH2 0x1AA5 JUMP JUMPDEST SWAP1 POP SWAP5 SWAP4 POP POP POP POP JUMP JUMPDEST PUSH0 PUSH1 0xFF DUP3 AND SWAP1 POP SWAP2 SWAP1 POP JUMP JUMPDEST PUSH2 0x1B2E DUP2 PUSH2 0x1B19 JUMP JUMPDEST DUP3 MSTORE POP POP JUMP JUMPDEST PUSH0 PUSH1 0x80 DUP3 ADD SWAP1 POP PUSH2 0x1B47 PUSH0 DUP4 ADD DUP8 PUSH2 0x12A1 JUMP JUMPDEST PUSH2 0x1B54 PUSH1 0x20 DUP4 ADD DUP7 PUSH2 0x1B25 JUMP JUMPDEST PUSH2 0x1B61 PUSH1 0x40 DUP4 ADD DUP6 PUSH2 0x12A1 JUMP JUMPDEST PUSH2 0x1B6E PUSH1 0x60 DUP4 ADD DUP5 PUSH2 0x12A1 JUMP JUMPDEST SWAP6 SWAP5 POP POP POP POP POP JUMP JUMPDEST PUSH0 DUP2 MLOAD SWAP1 POP SWAP2 SWAP1 POP JUMP JUMPDEST PUSH0 DUP2 SWAP1 POP SWAP3 SWAP2 POP POP JUMP JUMPDEST PUSH0 PUSH2 0x1B95 DUP3 PUSH2 0x1B77 JUMP JUMPDEST PUSH2 0x1B9F DUP2 DUP6 PUSH2 0x1B81 JUMP JUMPDEST SWAP4 POP PUSH2 0x1BAF DUP2 DUP6 PUSH1 0x20 DUP7 ADD PUSH2 0x1A7D JUMP JUMPDEST DUP1 DUP5 ADD SWAP2 POP POP SWAP3 SWAP2 POP POP JUMP JUMPDEST PUSH0 PUSH2 0x1BC6 DUP3 DUP5 PUSH2 0x1B8B JUMP JUMPDEST SWAP2 POP DUP2 SWAP1 POP SWAP3 SWAP2 POP POP JUMP JUMPDEST PUSH32 0x696E76616C6964207369676E6174757265206C656E6774680000000000000000 PUSH0 DUP3 ADD MSTORE POP JUMP JUMPDEST PUSH0 PUSH2 0x1C05 PUSH1 0x18 DUP4 PUSH2 0x1559 JUMP JUMPDEST SWAP2 POP PUSH2 0x1C10 DUP3 PUSH2 0x1BD1 JUMP JUMPDEST PUSH1 0x20 DUP3 ADD SWAP1 POP SWAP2 SWAP1 POP JUMP JUMPDEST PUSH0 PUSH1 0x20 DUP3 ADD SWAP1 POP DUP2 DUP2 SUB PUSH0 DUP4 ADD MSTORE PUSH2 0x1C32 DUP2 PUSH2 0x1BF9 JUMP JUMPDEST SWAP1 POP SWAP2 SWAP1 POP JUMP JUMPDEST PUSH32 0x19457468657265756D205369676E6564204D6573736167653A0A333200000000 PUSH0 DUP3 ADD MSTORE POP JUMP JUMPDEST PUSH0 PUSH2 0x1C6D PUSH1 0x1C DUP4 PUSH2 0x1B81 JUMP JUMPDEST SWAP2 POP PUSH2 0x1C78 DUP3 PUSH2 0x1C39 JUMP JUMPDEST PUSH1 0x1C DUP3 ADD SWAP1 POP SWAP2 SWAP1 POP JUMP JUMPDEST PUSH0 DUP2 SWAP1 POP SWAP2 SWAP1 POP JUMP JUMPDEST PUSH2 0x1C9D PUSH2 0x1C98 DUP3 PUSH2 0x1298 JUMP JUMPDEST PUSH2 0x1C83 JUMP JUMPDEST DUP3 MSTORE POP POP JUMP JUMPDEST PUSH0 PUSH2 0x1CAD DUP3 PUSH2 0x1C61 JUMP JUMPDEST SWAP2 POP PUSH2 0x1CB9 DUP3 DUP5 PUSH2 0x1C8C JUMP JUMPDEST PUSH1 0x20 DUP3 ADD SWAP2 POP DUP2 SWAP1 POP SWAP3 SWAP2 POP POP JUMP INVALID LOG2 PUSH5 0x6970667358 0x22 SLT KECCAK256 0xB5 0xD SWAP12 0x5D 0x5E 0xAB SELFDESTRUCT 0xD7 PUSH14 0x46BC29726EB735E1018A1092E50D POP EXP 0xE0 SWAP16 ADDMOD LOG3 0x1E 0x22 PUSH8 0x64736F6C63430008 EQ STOP CALLER "
				},
				"gasEstimates": {
					"creation": {
						"codeDepositCost": "1484400",
						"executionCost": "infinite",
						"totalCost": "infinite"
					},
					"external": {
						"config(address,address,address)": "infinite",
						"getMessageHash(address,address,uint256,uint256,uint256)": "infinite",
						"isTokenSupported(string)": "infinite",
						"nextOrderId()": "2470",
						"orders(uint256)": "infinite",
						"owner()": "2571",
						"recoverSignerPublic(bytes32,bytes)": "infinite",
						"rewardPoolAddress()": "2530",
						"sendUSDC(address,address,uint256,uint256,uint256,bytes)": "infinite",
						"signerAddress()": "2619",
						"usdcToken()": "infinite",
						"withdrawTokens(uint256)": "infinite"
					},
					"internal": {
						"compareStrings(string memory,string memory)": "infinite",
						"getEthSignedMessageHash(bytes32)": "infinite",
						"recoverSigner(bytes32,bytes memory)": "infinite",
						"splitSignature(bytes memory)": "infinite",
						"verify(address,address,uint256,uint256,uint256,bytes memory)": "infinite"
					}
				},
				"methodIdentifiers": {
					"config(address,address,address)": "87336111",
					"getMessageHash(address,address,uint256,uint256,uint256)": "59e1abaa",
					"isTokenSupported(string)": "0d3652ec",
					"nextOrderId()": "2a58b330",
					"orders(uint256)": "a85c38ef",
					"owner()": "8da5cb5b",
					"recoverSignerPublic(bytes32,bytes)": "9f2585a1",
					"rewardPoolAddress()": "845a51ec",
					"sendUSDC(address,address,uint256,uint256,uint256,bytes)": "7ccbf83e",
					"signerAddress()": "5b7633d0",
					"usdcToken()": "11eac855",
					"withdrawTokens(uint256)": "315a095d"
				}
			},
			"storageLayout": {
				"storage": [
					{
						"astId": 83,
						"contract": "UmiversePayment.sol:UmiversePayment",
						"label": "owner",
						"offset": 0,
						"slot": "0",
						"type": "t_address"
					},
					{
						"astId": 85,
						"contract": "UmiversePayment.sol:UmiversePayment",
						"label": "rewardPoolAddress",
						"offset": 0,
						"slot": "1",
						"type": "t_address"
					},
					{
						"astId": 87,
						"contract": "UmiversePayment.sol:UmiversePayment",
						"label": "signerAddress",
						"offset": 0,
						"slot": "2",
						"type": "t_address"
					},
					{
						"astId": 90,
						"contract": "UmiversePayment.sol:UmiversePayment",
						"label": "usdcToken",
						"offset": 0,
						"slot": "3",
						"type": "t_contract(IERC20)77"
					},
					{
						"astId": 120,
						"contract": "UmiversePayment.sol:UmiversePayment",
						"label": "orders",
						"offset": 0,
						"slot": "4",
						"type": "t_mapping(t_uint256,t_struct(Order)115_storage)"
					},
					{
						"astId": 123,
						"contract": "UmiversePayment.sol:UmiversePayment",
						"label": "nextOrderId",
						"offset": 0,
						"slot": "5",
						"type": "t_uint256"
					}
				],
				"types": {
					"t_address": {
						"encoding": "inplace",
						"label": "address",
						"numberOfBytes": "20"
					},
					"t_contract(IERC20)77": {
						"encoding": "inplace",
						"label": "contract IERC20",
						"numberOfBytes": "20"
					},
					"t_mapping(t_uint256,t_struct(Order)115_storage)": {
						"encoding": "mapping",
						"key": "t_uint256",
						"label": "mapping(uint256 => struct UmiversePayment.Order)",
						"numberOfBytes": "32",
						"value": "t_struct(Order)115_storage"
					},
					"t_struct(Order)115_storage": {
						"encoding": "inplace",
						"label": "struct UmiversePayment.Order",
						"members": [
							{
								"astId": 106,
								"contract": "UmiversePayment.sol:UmiversePayment",
								"label": "recipient",
								"offset": 0,
								"slot": "0",
								"type": "t_address"
							},
							{
								"astId": 108,
								"contract": "UmiversePayment.sol:UmiversePayment",
								"label": "orderId",
								"offset": 0,
								"slot": "1",
								"type": "t_uint256"
							},
							{
								"astId": 110,
								"contract": "UmiversePayment.sol:UmiversePayment",
								"label": "amount",
								"offset": 0,
								"slot": "2",
								"type": "t_uint256"
							},
							{
								"astId": 112,
								"contract": "UmiversePayment.sol:UmiversePayment",
								"label": "fee",
								"offset": 0,
								"slot": "3",
								"type": "t_uint256"
							},
							{
								"astId": 114,
								"contract": "UmiversePayment.sol:UmiversePayment",
								"label": "timestamp",
								"offset": 0,
								"slot": "4",
								"type": "t_uint256"
							}
						],
						"numberOfBytes": "160"
					},
					"t_uint256": {
						"encoding": "inplace",
						"label": "uint256",
						"numberOfBytes": "32"
					}
				}
			},
			"userdoc": {
				"kind": "user",
				"methods": {},
				"version": 1
			}
		}
	}
}