{
	"UmiverseMarket.sol": {
		"UmiverseMarket": {
			"abi": [
				{
					"inputs": [
						{
							"internalType": "address",
							"name": "trustedForwarder",
							"type": "address"
						},
						{
							"internalType": "address",
							"name": "_admin",
							"type": "address"
						},
						{
							"internalType": "address",
							"name": "_feeAddress",
							"type": "address"
						},
						{
							"internalType": "address",
							"name": "_signerAddress",
							"type": "address"
						},
						{
							"internalType": "address",
							"name": "_rewardPoolAddess",
							"type": "address"
						}
					],
					"stateMutability": "nonpayable",
					"type": "constructor"
				},
				{
					"anonymous": false,
					"inputs": [
						{
							"indexed": false,
							"internalType": "uint256",
							"name": "gold",
							"type": "uint256"
						},
						{
							"indexed": false,
							"internalType": "uint256",
							"name": "price",
							"type": "uint256"
						},
						{
							"indexed": false,
							"internalType": "address",
							"name": "buyer",
							"type": "address"
						},
						{
							"indexed": false,
							"internalType": "address",
							"name": "seller",
							"type": "address"
						}
					],
					"name": "Buy",
					"type": "event"
				},
				{
					"anonymous": false,
					"inputs": [
						{
							"indexed": true,
							"internalType": "address",
							"name": "previousOwner",
							"type": "address"
						}
					],
					"name": "OwnershipRenounced",
					"type": "event"
				},
				{
					"anonymous": false,
					"inputs": [
						{
							"indexed": true,
							"internalType": "address",
							"name": "previousOwner",
							"type": "address"
						},
						{
							"indexed": true,
							"internalType": "address",
							"name": "newOwner",
							"type": "address"
						}
					],
					"name": "OwnershipTransferred",
					"type": "event"
				},
				{
					"anonymous": false,
					"inputs": [
						{
							"indexed": false,
							"internalType": "uint256",
							"name": "gold",
							"type": "uint256"
						},
						{
							"indexed": false,
							"internalType": "uint256",
							"name": "price",
							"type": "uint256"
						},
						{
							"indexed": false,
							"internalType": "address",
							"name": "seller",
							"type": "address"
						},
						{
							"indexed": false,
							"internalType": "address",
							"name": "buyer",
							"type": "address"
						}
					],
					"name": "Sell",
					"type": "event"
				},
				{
					"inputs": [],
					"name": "admin",
					"outputs": [
						{
							"internalType": "address",
							"name": "",
							"type": "address"
						}
					],
					"stateMutability": "view",
					"type": "function"
				},
				{
					"inputs": [
						{
							"internalType": "contract IERC721",
							"name": "nft",
							"type": "address"
						},
						{
							"internalType": "address",
							"name": "_buyer",
							"type": "address"
						},
						{
							"internalType": "uint256",
							"name": "_tokenid",
							"type": "uint256"
						},
						{
							"internalType": "uint256",
							"name": "_price",
							"type": "uint256"
						},
						{
							"internalType": "uint256",
							"name": "_amount",
							"type": "uint256"
						},
						{
							"internalType": "string",
							"name": "_priceType",
							"type": "string"
						},
						{
							"internalType": "address",
							"name": "_developerAddress",
							"type": "address"
						},
						{
							"internalType": "bool",
							"name": "_presale",
							"type": "bool"
						},
						{
							"internalType": "uint256",
							"name": "_timestamp",
							"type": "uint256"
						},
						{
							"internalType": "address",
							"name": "_seller",
							"type": "address"
						},
						{
							"internalType": "bytes",
							"name": "_signature",
							"type": "bytes"
						}
					],
					"name": "buy",
					"outputs": [],
					"stateMutability": "nonpayable",
					"type": "function"
				},
				{
					"inputs": [],
					"name": "eth",
					"outputs": [
						{
							"internalType": "contract IERC20",
							"name": "",
							"type": "address"
						}
					],
					"stateMutability": "view",
					"type": "function"
				},
				{
					"inputs": [],
					"name": "feeAddress",
					"outputs": [
						{
							"internalType": "address",
							"name": "",
							"type": "address"
						}
					],
					"stateMutability": "view",
					"type": "function"
				},
				{
					"inputs": [
						{
							"internalType": "address",
							"name": "_buyer",
							"type": "address"
						},
						{
							"internalType": "address",
							"name": "_seller",
							"type": "address"
						},
						{
							"internalType": "uint256",
							"name": "_tokenid",
							"type": "uint256"
						},
						{
							"internalType": "uint256",
							"name": "_price",
							"type": "uint256"
						},
						{
							"internalType": "uint256",
							"name": "_amount",
							"type": "uint256"
						},
						{
							"internalType": "string",
							"name": "_priceType",
							"type": "string"
						},
						{
							"internalType": "address",
							"name": "_developerAddress",
							"type": "address"
						},
						{
							"internalType": "bool",
							"name": "_presale",
							"type": "bool"
						},
						{
							"internalType": "uint256",
							"name": "_timestamp",
							"type": "uint256"
						}
					],
					"name": "getMessageHash",
					"outputs": [
						{
							"internalType": "bytes32",
							"name": "",
							"type": "bytes32"
						}
					],
					"stateMutability": "pure",
					"type": "function"
				},
				{
					"inputs": [
						{
							"internalType": "string",
							"name": "token",
							"type": "string"
						}
					],
					"name": "isTokenSupported",
					"outputs": [
						{
							"internalType": "bool",
							"name": "",
							"type": "bool"
						}
					],
					"stateMutability": "pure",
					"type": "function"
				},
				{
					"inputs": [
						{
							"internalType": "address",
							"name": "forwarder",
							"type": "address"
						}
					],
					"name": "isTrustedForwarder",
					"outputs": [
						{
							"internalType": "bool",
							"name": "",
							"type": "bool"
						}
					],
					"stateMutability": "view",
					"type": "function"
				},
				{
					"inputs": [],
					"name": "owner",
					"outputs": [
						{
							"internalType": "address",
							"name": "",
							"type": "address"
						}
					],
					"stateMutability": "view",
					"type": "function"
				},
				{
					"inputs": [],
					"name": "presaleFeeToDeveloper",
					"outputs": [
						{
							"internalType": "uint256",
							"name": "",
							"type": "uint256"
						}
					],
					"stateMutability": "view",
					"type": "function"
				},
				{
					"inputs": [],
					"name": "presaleFeeToRewardFund",
					"outputs": [
						{
							"internalType": "uint256",
							"name": "",
							"type": "uint256"
						}
					],
					"stateMutability": "view",
					"type": "function"
				},
				{
					"inputs": [],
					"name": "presaleFeeToUmi",
					"outputs": [
						{
							"internalType": "uint256",
							"name": "",
							"type": "uint256"
						}
					],
					"stateMutability": "view",
					"type": "function"
				},
				{
					"inputs": [
						{
							"internalType": "bytes32",
							"name": "_ethSignedMessageHash",
							"type": "bytes32"
						},
						{
							"internalType": "bytes",
							"name": "_signature",
							"type": "bytes"
						}
					],
					"name": "recoverSignerPublic",
					"outputs": [
						{
							"internalType": "address",
							"name": "",
							"type": "address"
						}
					],
					"stateMutability": "pure",
					"type": "function"
				},
				{
					"inputs": [],
					"name": "renounceOwnership",
					"outputs": [],
					"stateMutability": "nonpayable",
					"type": "function"
				},
				{
					"inputs": [],
					"name": "rewardPoolAddress",
					"outputs": [
						{
							"internalType": "address",
							"name": "",
							"type": "address"
						}
					],
					"stateMutability": "view",
					"type": "function"
				},
				{
					"inputs": [
						{
							"internalType": "contract IERC721",
							"name": "nft",
							"type": "address"
						},
						{
							"internalType": "address",
							"name": "_seller",
							"type": "address"
						},
						{
							"internalType": "uint256",
							"name": "_tokenid",
							"type": "uint256"
						},
						{
							"internalType": "uint256",
							"name": "_price",
							"type": "uint256"
						},
						{
							"internalType": "uint256",
							"name": "_amount",
							"type": "uint256"
						},
						{
							"internalType": "string",
							"name": "_priceType",
							"type": "string"
						},
						{
							"internalType": "address",
							"name": "_developerAddress",
							"type": "address"
						},
						{
							"internalType": "bool",
							"name": "_presale",
							"type": "bool"
						},
						{
							"internalType": "uint256",
							"name": "_timestamp",
							"type": "uint256"
						},
						{
							"internalType": "address",
							"name": "_buyer",
							"type": "address"
						},
						{
							"internalType": "bytes",
							"name": "_signature",
							"type": "bytes"
						}
					],
					"name": "sell",
					"outputs": [],
					"stateMutability": "nonpayable",
					"type": "function"
				},
				{
					"inputs": [
						{
							"internalType": "address",
							"name": "_address",
							"type": "address"
						}
					],
					"name": "setAdmin",
					"outputs": [],
					"stateMutability": "nonpayable",
					"type": "function"
				},
				{
					"inputs": [
						{
							"internalType": "address",
							"name": "_eth",
							"type": "address"
						}
					],
					"name": "setEth",
					"outputs": [],
					"stateMutability": "nonpayable",
					"type": "function"
				},
				{
					"inputs": [
						{
							"internalType": "uint256",
							"name": "_presaleFeeToDeveloper",
							"type": "uint256"
						},
						{
							"internalType": "uint256",
							"name": "_presaleFeeToUmi",
							"type": "uint256"
						},
						{
							"internalType": "uint256",
							"name": "_presaleFeeToRewardFund",
							"type": "uint256"
						},
						{
							"internalType": "uint256",
							"name": "_tradeFeeToUmi",
							"type": "uint256"
						},
						{
							"internalType": "uint256",
							"name": "_tradeFeeToDeveloper",
							"type": "uint256"
						},
						{
							"internalType": "uint256",
							"name": "_tradeFeeToRewardFund",
							"type": "uint256"
						}
					],
					"name": "setFee",
					"outputs": [],
					"stateMutability": "nonpayable",
					"type": "function"
				},
				{
					"inputs": [
						{
							"internalType": "address",
							"name": "_address",
							"type": "address"
						}
					],
					"name": "setFeeAddress",
					"outputs": [],
					"stateMutability": "nonpayable",
					"type": "function"
				},
				{
					"inputs": [
						{
							"internalType": "address",
							"name": "_rewardPoolAddress",
							"type": "address"
						}
					],
					"name": "setRewardPoolAddress",
					"outputs": [],
					"stateMutability": "nonpayable",
					"type": "function"
				},
				{
					"inputs": [
						{
							"internalType": "address",
							"name": "_address",
							"type": "address"
						}
					],
					"name": "setSignerAddress",
					"outputs": [],
					"stateMutability": "nonpayable",
					"type": "function"
				},
				{
					"inputs": [
						{
							"internalType": "address",
							"name": "_umi",
							"type": "address"
						}
					],
					"name": "setUmi",
					"outputs": [],
					"stateMutability": "nonpayable",
					"type": "function"
				},
				{
					"inputs": [
						{
							"internalType": "address",
							"name": "_usdc",
							"type": "address"
						}
					],
					"name": "setUsdc",
					"outputs": [],
					"stateMutability": "nonpayable",
					"type": "function"
				},
				{
					"inputs": [
						{
							"internalType": "address",
							"name": "_usdt",
							"type": "address"
						}
					],
					"name": "setUsdt",
					"outputs": [],
					"stateMutability": "nonpayable",
					"type": "function"
				},
				{
					"inputs": [],
					"name": "signerAddress",
					"outputs": [
						{
							"internalType": "address",
							"name": "",
							"type": "address"
						}
					],
					"stateMutability": "view",
					"type": "function"
				},
				{
					"inputs": [],
					"name": "tradeFeeToDeveloper",
					"outputs": [
						{
							"internalType": "uint256",
							"name": "",
							"type": "uint256"
						}
					],
					"stateMutability": "view",
					"type": "function"
				},
				{
					"inputs": [],
					"name": "tradeFeeToRewardFund",
					"outputs": [
						{
							"internalType": "uint256",
							"name": "",
							"type": "uint256"
						}
					],
					"stateMutability": "view",
					"type": "function"
				},
				{
					"inputs": [],
					"name": "tradeFeeToUmi",
					"outputs": [
						{
							"internalType": "uint256",
							"name": "",
							"type": "uint256"
						}
					],
					"stateMutability": "view",
					"type": "function"
				},
				{
					"inputs": [
						{
							"internalType": "address",
							"name": "newOwner",
							"type": "address"
						}
					],
					"name": "transferOwnership",
					"outputs": [],
					"stateMutability": "nonpayable",
					"type": "function"
				},
				{
					"inputs": [],
					"name": "umi",
					"outputs": [
						{
							"internalType": "contract IERC20",
							"name": "",
							"type": "address"
						}
					],
					"stateMutability": "view",
					"type": "function"
				},
				{
					"inputs": [],
					"name": "usdc",
					"outputs": [
						{
							"internalType": "contract IERC20",
							"name": "",
							"type": "address"
						}
					],
					"stateMutability": "view",
					"type": "function"
				},
				{
					"inputs": [],
					"name": "usdt",
					"outputs": [
						{
							"internalType": "contract IERC20",
							"name": "",
							"type": "address"
						}
					],
					"stateMutability": "view",
					"type": "function"
				}
			],
			"devdoc": {
				"kind": "dev",
				"methods": {
					"renounceOwnership()": {
						"details": "Allows the current owner to relinquish control of the contract."
					},
					"transferOwnership(address)": {
						"details": "Allows the current owner to transfer control of the contract to a newOwner.",
						"params": {
							"newOwner": "The address to transfer ownership to."
						}
					}
				},
				"version": 1
			},
			"evm": {
				"assembly": "    /* \"UmiverseMarket.sol\":413:13493  contract UmiverseMarket is Ownable, ERC2771Context {... */\n  mstore(0x40, 0xa0)\n    /* \"UmiverseMarket.sol\":917:959  0x0E9bB892A38d60B53085Af77eda888790Ef1DD33 */\n  0x0e9bb892a38d60b53085af77eda888790ef1dd33\n    /* \"UmiverseMarket.sol\":889:960  IERC20 public usdt = IERC20(0x0E9bB892A38d60B53085Af77eda888790Ef1DD33) */\n  0x05\n  exp(0x0100, 0x00)\n  dup2\n  sload\n  dup2\n  0xffffffffffffffffffffffffffffffffffffffff\n  mul\n  not\n  and\n  swap1\n  dup4\n  0xffffffffffffffffffffffffffffffffffffffff\n  and\n  mul\n  or\n  swap1\n  sstore\n  pop\n    /* \"UmiverseMarket.sol\":994:1036  0x7FC5e3e61700E34218a00cC01E92957A4e6C8883 */\n  0x7fc5e3e61700e34218a00cc01e92957a4e6c8883\n    /* \"UmiverseMarket.sol\":966:1037  IERC20 public usdc = IERC20(0x7FC5e3e61700E34218a00cC01E92957A4e6C8883) */\n  0x06\n  exp(0x0100, 0x00)\n  dup2\n  sload\n  dup2\n  0xffffffffffffffffffffffffffffffffffffffff\n  mul\n  not\n  and\n  swap1\n  dup4\n  0xffffffffffffffffffffffffffffffffffffffff\n  and\n  mul\n  or\n  swap1\n  sstore\n  pop\n    /* \"UmiverseMarket.sol\":1078:1079  0 */\n  0x00\n    /* \"UmiverseMarket.sol\":1043:1081  IERC20 public umi = IERC20(address(0)) */\n  0x07\n  exp(0x0100, 0x00)\n  dup2\n  sload\n  dup2\n  0xffffffffffffffffffffffffffffffffffffffff\n  mul\n  not\n  and\n  swap1\n  dup4\n  0xffffffffffffffffffffffffffffffffffffffff\n  and\n  mul\n  or\n  swap1\n  sstore\n  pop\n    /* \"UmiverseMarket.sol\":1122:1123  0 */\n  0x00\n    /* \"UmiverseMarket.sol\":1087:1125  IERC20 public eth = IERC20(address(0)) */\n  0x08\n  exp(0x0100, 0x00)\n  dup2\n  sload\n  dup2\n  0xffffffffffffffffffffffffffffffffffffffff\n  mul\n  not\n  and\n  swap1\n  dup4\n  0xffffffffffffffffffffffffffffffffffffffff\n  and\n  mul\n  or\n  swap1\n  sstore\n  pop\n    /* \"UmiverseMarket.sol\":1171:1174  490 */\n  0x01ea\n    /* \"UmiverseMarket.sol\":1132:1174  uint256 public presaleFeeToDeveloper = 490 */\n  0x09\n  sstore\n    /* \"UmiverseMarket.sol\":1213:1216  210 */\n  0xd2\n    /* \"UmiverseMarket.sol\":1180:1216  uint256 public presaleFeeToUmi = 210 */\n  0x0a\n  sstore\n    /* \"UmiverseMarket.sol\":1262:1265  300 */\n  0x012c\n    /* \"UmiverseMarket.sol\":1222:1265  uint256 public presaleFeeToRewardFund = 300 */\n  0x0b\n  sstore\n    /* \"UmiverseMarket.sol\":1303:1305  10 */\n  0x0a\n    /* \"UmiverseMarket.sol\":1272:1305  uint256 public tradeFeeToUmi = 10 */\n  0x0c\n  sstore\n    /* \"UmiverseMarket.sol\":1348:1350  10 */\n  0x0a\n    /* \"UmiverseMarket.sol\":1311:1350  uint256 public tradeFeeToDeveloper = 10 */\n  0x0d\n  sstore\n    /* \"UmiverseMarket.sol\":1394:1395  5 */\n  0x05\n    /* \"UmiverseMarket.sol\":1356:1395  uint256 public tradeFeeToRewardFund = 5 */\n  0x0e\n  sstore\n    /* \"UmiverseMarket.sol\":1402:1759  constructor(... */\n  callvalue\n  dup1\n  iszero\n  tag_1\n  jumpi\n  0x00\n  dup1\n  revert\ntag_1:\n  pop\n  mload(0x40)\n  sub(codesize, bytecodeSize)\n  dup1\n  bytecodeSize\n  dup4\n  codecopy\n  dup2\n  dup2\n  add\n  0x40\n  mstore\n  dup2\n  add\n  swap1\n  tag_2\n  swap2\n  swap1\n  tag_3\n  jump\t// in\ntag_2:\n    /* \"UmiverseMarket.sol\":1589:1605  trustedForwarder */\n  dup5\n    /* \"lib/Ownable.sol\":408:418  msg.sender */\n  caller\n    /* \"lib/Ownable.sol\":400:405  owner */\n  0x00\n  dup1\n    /* \"lib/Ownable.sol\":400:418  owner = msg.sender */\n  0x0100\n  exp\n  dup2\n  sload\n  dup2\n  0xffffffffffffffffffffffffffffffffffffffff\n  mul\n  not\n  and\n  swap1\n  dup4\n  0xffffffffffffffffffffffffffffffffffffffff\n  and\n  mul\n  or\n  swap1\n  sstore\n  pop\n    /* \"@gelatonetwork/relay-context/contracts/vendor/ERC2771Context.sol\":460:476  trustedForwarder */\n  dup1\n    /* \"@gelatonetwork/relay-context/contracts/vendor/ERC2771Context.sol\":440:476  _trustedForwarder = trustedForwarder */\n  0xffffffffffffffffffffffffffffffffffffffff\n  and\n  0x80\n  dup2\n  0xffffffffffffffffffffffffffffffffffffffff\n  and\n  dup2\n  mstore\n  pop\n  pop\n    /* \"@gelatonetwork/relay-context/contracts/vendor/ERC2771Context.sol\":392:483  constructor(address trustedForwarder) {... */\n  pop\n    /* \"UmiverseMarket.sol\":1625:1631  _admin */\n  dup4\n    /* \"UmiverseMarket.sol\":1617:1622  admin */\n  0x01\n  0x00\n    /* \"UmiverseMarket.sol\":1617:1631  admin = _admin */\n  0x0100\n  exp\n  dup2\n  sload\n  dup2\n  0xffffffffffffffffffffffffffffffffffffffff\n  mul\n  not\n  and\n  swap1\n  dup4\n  0xffffffffffffffffffffffffffffffffffffffff\n  and\n  mul\n  or\n  swap1\n  sstore\n  pop\n    /* \"UmiverseMarket.sol\":1654:1665  _feeAddress */\n  dup3\n    /* \"UmiverseMarket.sol\":1641:1651  feeAddress */\n  0x02\n  0x00\n    /* \"UmiverseMarket.sol\":1641:1665  feeAddress = _feeAddress */\n  0x0100\n  exp\n  dup2\n  sload\n  dup2\n  0xffffffffffffffffffffffffffffffffffffffff\n  mul\n  not\n  and\n  swap1\n  dup4\n  0xffffffffffffffffffffffffffffffffffffffff\n  and\n  mul\n  or\n  swap1\n  sstore\n  pop\n    /* \"UmiverseMarket.sol\":1691:1705  _signerAddress */\n  dup2\n    /* \"UmiverseMarket.sol\":1675:1688  signerAddress */\n  0x04\n  0x00\n    /* \"UmiverseMarket.sol\":1675:1705  signerAddress = _signerAddress */\n  0x0100\n  exp\n  dup2\n  sload\n  dup2\n  0xffffffffffffffffffffffffffffffffffffffff\n  mul\n  not\n  and\n  swap1\n  dup4\n  0xffffffffffffffffffffffffffffffffffffffff\n  and\n  mul\n  or\n  swap1\n  sstore\n  pop\n    /* \"UmiverseMarket.sol\":1735:1752  _rewardPoolAddess */\n  dup1\n    /* \"UmiverseMarket.sol\":1715:1732  rewardPoolAddress */\n  0x03\n  0x00\n    /* \"UmiverseMarket.sol\":1715:1752  rewardPoolAddress = _rewardPoolAddess */\n  0x0100\n  exp\n  dup2\n  sload\n  dup2\n  0xffffffffffffffffffffffffffffffffffffffff\n  mul\n  not\n  and\n  swap1\n  dup4\n  0xffffffffffffffffffffffffffffffffffffffff\n  and\n  mul\n  or\n  swap1\n  sstore\n  pop\n    /* \"UmiverseMarket.sol\":1402:1759  constructor(... */\n  pop\n  pop\n  pop\n  pop\n  pop\n    /* \"UmiverseMarket.sol\":413:13493  contract UmiverseMarket is Ownable, ERC2771Context {... */\n  jump(tag_10)\n    /* \"#utility.yul\":88:205   */\ntag_12:\n    /* \"#utility.yul\":197:198   */\n  0x00\n    /* \"#utility.yul\":194:195   */\n  dup1\n    /* \"#utility.yul\":187:199   */\n  revert\n    /* \"#utility.yul\":334:460   */\ntag_14:\n    /* \"#utility.yul\":371:378   */\n  0x00\n    /* \"#utility.yul\":411:453   */\n  0xffffffffffffffffffffffffffffffffffffffff\n    /* \"#utility.yul\":404:409   */\n  dup3\n    /* \"#utility.yul\":400:454   */\n  and\n    /* \"#utility.yul\":389:454   */\n  swap1\n  pop\n    /* \"#utility.yul\":334:460   */\n  swap2\n  swap1\n  pop\n  jump\t// out\n    /* \"#utility.yul\":466:562   */\ntag_15:\n    /* \"#utility.yul\":503:510   */\n  0x00\n    /* \"#utility.yul\":532:556   */\n  tag_24\n    /* \"#utility.yul\":550:555   */\n  dup3\n    /* \"#utility.yul\":532:556   */\n  tag_14\n  jump\t// in\ntag_24:\n    /* \"#utility.yul\":521:556   */\n  swap1\n  pop\n    /* \"#utility.yul\":466:562   */\n  swap2\n  swap1\n  pop\n  jump\t// out\n    /* \"#utility.yul\":568:690   */\ntag_16:\n    /* \"#utility.yul\":641:665   */\n  tag_26\n    /* \"#utility.yul\":659:664   */\n  dup2\n    /* \"#utility.yul\":641:665   */\n  tag_15\n  jump\t// in\ntag_26:\n    /* \"#utility.yul\":634:639   */\n  dup2\n    /* \"#utility.yul\":631:666   */\n  eq\n    /* \"#utility.yul\":621:684   */\n  tag_27\n  jumpi\n    /* \"#utility.yul\":680:681   */\n  0x00\n    /* \"#utility.yul\":677:678   */\n  dup1\n    /* \"#utility.yul\":670:682   */\n  revert\n    /* \"#utility.yul\":621:684   */\ntag_27:\n    /* \"#utility.yul\":568:690   */\n  pop\n  jump\t// out\n    /* \"#utility.yul\":696:839   */\ntag_17:\n    /* \"#utility.yul\":753:758   */\n  0x00\n    /* \"#utility.yul\":784:790   */\n  dup2\n    /* \"#utility.yul\":778:791   */\n  mload\n    /* \"#utility.yul\":769:791   */\n  swap1\n  pop\n    /* \"#utility.yul\":800:833   */\n  tag_29\n    /* \"#utility.yul\":827:832   */\n  dup2\n    /* \"#utility.yul\":800:833   */\n  tag_16\n  jump\t// in\ntag_29:\n    /* \"#utility.yul\":696:839   */\n  swap3\n  swap2\n  pop\n  pop\n  jump\t// out\n    /* \"#utility.yul\":845:1822   */\ntag_3:\n    /* \"#utility.yul\":951:957   */\n  0x00\n    /* \"#utility.yul\":959:965   */\n  dup1\n    /* \"#utility.yul\":967:973   */\n  0x00\n    /* \"#utility.yul\":975:981   */\n  dup1\n    /* \"#utility.yul\":983:989   */\n  0x00\n    /* \"#utility.yul\":1032:1035   */\n  0xa0\n    /* \"#utility.yul\":1020:1029   */\n  dup7\n    /* \"#utility.yul\":1011:1018   */\n  dup9\n    /* \"#utility.yul\":1007:1030   */\n  sub\n    /* \"#utility.yul\":1003:1036   */\n  slt\n    /* \"#utility.yul\":1000:1120   */\n  iszero\n  tag_31\n  jumpi\n    /* \"#utility.yul\":1039:1118   */\n  tag_32\n  tag_12\n  jump\t// in\ntag_32:\n    /* \"#utility.yul\":1000:1120   */\ntag_31:\n    /* \"#utility.yul\":1159:1160   */\n  0x00\n    /* \"#utility.yul\":1184:1248   */\n  tag_33\n    /* \"#utility.yul\":1240:1247   */\n  dup9\n    /* \"#utility.yul\":1231:1237   */\n  dup3\n    /* \"#utility.yul\":1220:1229   */\n  dup10\n    /* \"#utility.yul\":1216:1238   */\n  add\n    /* \"#utility.yul\":1184:1248   */\n  tag_17\n  jump\t// in\ntag_33:\n    /* \"#utility.yul\":1174:1248   */\n  swap6\n  pop\n    /* \"#utility.yul\":1130:1258   */\n  pop\n    /* \"#utility.yul\":1297:1299   */\n  0x20\n    /* \"#utility.yul\":1323:1387   */\n  tag_34\n    /* \"#utility.yul\":1379:1386   */\n  dup9\n    /* \"#utility.yul\":1370:1376   */\n  dup3\n    /* \"#utility.yul\":1359:1368   */\n  dup10\n    /* \"#utility.yul\":1355:1377   */\n  add\n    /* \"#utility.yul\":1323:1387   */\n  tag_17\n  jump\t// in\ntag_34:\n    /* \"#utility.yul\":1313:1387   */\n  swap5\n  pop\n    /* \"#utility.yul\":1268:1397   */\n  pop\n    /* \"#utility.yul\":1436:1438   */\n  0x40\n    /* \"#utility.yul\":1462:1526   */\n  tag_35\n    /* \"#utility.yul\":1518:1525   */\n  dup9\n    /* \"#utility.yul\":1509:1515   */\n  dup3\n    /* \"#utility.yul\":1498:1507   */\n  dup10\n    /* \"#utility.yul\":1494:1516   */\n  add\n    /* \"#utility.yul\":1462:1526   */\n  tag_17\n  jump\t// in\ntag_35:\n    /* \"#utility.yul\":1452:1526   */\n  swap4\n  pop\n    /* \"#utility.yul\":1407:1536   */\n  pop\n    /* \"#utility.yul\":1575:1577   */\n  0x60\n    /* \"#utility.yul\":1601:1665   */\n  tag_36\n    /* \"#utility.yul\":1657:1664   */\n  dup9\n    /* \"#utility.yul\":1648:1654   */\n  dup3\n    /* \"#utility.yul\":1637:1646   */\n  dup10\n    /* \"#utility.yul\":1633:1655   */\n  add\n    /* \"#utility.yul\":1601:1665   */\n  tag_17\n  jump\t// in\ntag_36:\n    /* \"#utility.yul\":1591:1665   */\n  swap3\n  pop\n    /* \"#utility.yul\":1546:1675   */\n  pop\n    /* \"#utility.yul\":1714:1717   */\n  0x80\n    /* \"#utility.yul\":1741:1805   */\n  tag_37\n    /* \"#utility.yul\":1797:1804   */\n  dup9\n    /* \"#utility.yul\":1788:1794   */\n  dup3\n    /* \"#utility.yul\":1777:1786   */\n  dup10\n    /* \"#utility.yul\":1773:1795   */\n  add\n    /* \"#utility.yul\":1741:1805   */\n  tag_17\n  jump\t// in\ntag_37:\n    /* \"#utility.yul\":1731:1805   */\n  swap2\n  pop\n    /* \"#utility.yul\":1685:1815   */\n  pop\n    /* \"#utility.yul\":845:1822   */\n  swap3\n  swap6\n  pop\n  swap3\n  swap6\n  swap1\n  swap4\n  pop\n  jump\t// out\n    /* \"UmiverseMarket.sol\":413:13493  contract UmiverseMarket is Ownable, ERC2771Context {... */\ntag_10:\n  mload(0x80)\n  codecopy(0x00, dataOffset(sub_0), dataSize(sub_0))\n  0x00\n  assignImmutable(\"0x13600b294191fc92924bb3ce4b969c1e7e2bab8f4c93c3fc6d0a51733df3c060\")\n  return(0x00, dataSize(sub_0))\nstop\n\nsub_0: assembly {\n        /* \"UmiverseMarket.sol\":413:13493  contract UmiverseMarket is Ownable, ERC2771Context {... */\n      mstore(0x40, 0x80)\n      callvalue\n      dup1\n      iszero\n      tag_1\n      jumpi\n      0x00\n      dup1\n      revert\n    tag_1:\n      pop\n      jumpi(tag_2, lt(calldatasize, 0x04))\n      shr(0xe0, calldataload(0x00))\n      dup1\n      0x845a51ec\n      gt\n      tag_35\n      jumpi\n      dup1\n      0xbd9a3b6d\n      gt\n      tag_36\n      jumpi\n      dup1\n      0xd339db94\n      gt\n      tag_37\n      jumpi\n      dup1\n      0xd339db94\n      eq\n      tag_31\n      jumpi\n      dup1\n      0xf2699d59\n      eq\n      tag_32\n      jumpi\n      dup1\n      0xf2fde38b\n      eq\n      tag_33\n      jumpi\n      dup1\n      0xf851a440\n      eq\n      tag_34\n      jumpi\n      jump(tag_2)\n    tag_37:\n      dup1\n      0xbd9a3b6d\n      eq\n      tag_27\n      jumpi\n      dup1\n      0xcb146879\n      eq\n      tag_28\n      jumpi\n      dup1\n      0xcfd79d5d\n      eq\n      tag_29\n      jumpi\n      dup1\n      0xd1faf157\n      eq\n      tag_30\n      jumpi\n      jump(tag_2)\n    tag_36:\n      dup1\n      0x8da5cb5b\n      gt\n      tag_38\n      jumpi\n      dup1\n      0x8da5cb5b\n      eq\n      tag_23\n      jumpi\n      dup1\n      0x94dd453a\n      eq\n      tag_24\n      jumpi\n      dup1\n      0x9f2585a1\n      eq\n      tag_25\n      jumpi\n      dup1\n      0xb24cf5d7\n      eq\n      tag_26\n      jumpi\n      jump(tag_2)\n    tag_38:\n      dup1\n      0x845a51ec\n      eq\n      tag_19\n      jumpi\n      dup1\n      0x8705fcd4\n      eq\n      tag_20\n      jumpi\n      dup1\n      0x8b225f06\n      eq\n      tag_21\n      jumpi\n      dup1\n      0x8c7c9e0c\n      eq\n      tag_22\n      jumpi\n      jump(tag_2)\n    tag_35:\n      dup1\n      0x3e413bee\n      gt\n      tag_39\n      jumpi\n      dup1\n      0x5b7633d0\n      gt\n      tag_40\n      jumpi\n      dup1\n      0x5b7633d0\n      eq\n      tag_15\n      jumpi\n      dup1\n      0x60f688ea\n      eq\n      tag_16\n      jumpi\n      dup1\n      0x704b6c02\n      eq\n      tag_17\n      jumpi\n      dup1\n      0x715018a6\n      eq\n      tag_18\n      jumpi\n      jump(tag_2)\n    tag_40:\n      dup1\n      0x3e413bee\n      eq\n      tag_11\n      jumpi\n      dup1\n      0x41275358\n      eq\n      tag_12\n      jumpi\n      dup1\n      0x572b6c05\n      eq\n      tag_13\n      jumpi\n      dup1\n      0x58979bfe\n      eq\n      tag_14\n      jumpi\n      jump(tag_2)\n    tag_39:\n      dup1\n      0x14754e66\n      gt\n      tag_41\n      jumpi\n      dup1\n      0x14754e66\n      eq\n      tag_7\n      jumpi\n      dup1\n      0x228b03fa\n      eq\n      tag_8\n      jumpi\n      dup1\n      0x2515af37\n      eq\n      tag_9\n      jumpi\n      dup1\n      0x2f48ab7d\n      eq\n      tag_10\n      jumpi\n      jump(tag_2)\n    tag_41:\n      dup1\n      0x046dc166\n      eq\n      tag_3\n      jumpi\n      dup1\n      0x0d3652ec\n      eq\n      tag_4\n      jumpi\n      dup1\n      0x10b8097c\n      eq\n      tag_5\n      jumpi\n      dup1\n      0x122c6fd7\n      eq\n      tag_6\n      jumpi\n    tag_2:\n      0x00\n      dup1\n      revert\n        /* \"UmiverseMarket.sol\":3251:3353  function setSignerAddress(address _address) public onlyAdmin {... */\n    tag_3:\n      tag_42\n      0x04\n      dup1\n      calldatasize\n      sub\n      dup2\n      add\n      swap1\n      tag_43\n      swap2\n      swap1\n      tag_44\n      jump\t// in\n    tag_43:\n      tag_45\n      jump\t// in\n    tag_42:\n      stop\n        /* \"UmiverseMarket.sol\":6043:6355  function isTokenSupported(string memory token) public pure returns (bool) {... */\n    tag_4:\n      tag_46\n      0x04\n      dup1\n      calldatasize\n      sub\n      dup2\n      add\n      swap1\n      tag_47\n      swap2\n      swap1\n      tag_48\n      jump\t// in\n    tag_47:\n      tag_49\n      jump\t// in\n    tag_46:\n      mload(0x40)\n      tag_50\n      swap2\n      swap1\n      tag_51\n      jump\t// in\n    tag_50:\n      mload(0x40)\n      dup1\n      swap2\n      sub\n      swap1\n      return\n        /* \"UmiverseMarket.sol\":10938:13491  function sell(... */\n    tag_5:\n      tag_52\n      0x04\n      dup1\n      calldatasize\n      sub\n      dup2\n      add\n      swap1\n      tag_53\n      swap2\n      swap1\n      tag_54\n      jump\t// in\n    tag_53:\n      tag_55\n      jump\t// in\n    tag_52:\n      stop\n        /* \"UmiverseMarket.sol\":3061:3143  function setEth(address _eth) public onlyAdmin {... */\n    tag_6:\n      tag_56\n      0x04\n      dup1\n      calldatasize\n      sub\n      dup2\n      add\n      swap1\n      tag_57\n      swap2\n      swap1\n      tag_44\n      jump\t// in\n    tag_57:\n      tag_58\n      jump\t// in\n    tag_56:\n      stop\n        /* \"UmiverseMarket.sol\":1222:1265  uint256 public presaleFeeToRewardFund = 300 */\n    tag_7:\n      tag_59\n      tag_60\n      jump\t// in\n    tag_59:\n      mload(0x40)\n      tag_61\n      swap2\n      swap1\n      tag_62\n      jump\t// in\n    tag_61:\n      mload(0x40)\n      dup1\n      swap2\n      sub\n      swap1\n      return\n        /* \"UmiverseMarket.sol\":3495:4255  function getMessageHash(... */\n    tag_8:\n      tag_63\n      0x04\n      dup1\n      calldatasize\n      sub\n      dup2\n      add\n      swap1\n      tag_64\n      swap2\n      swap1\n      tag_65\n      jump\t// in\n    tag_64:\n      tag_66\n      jump\t// in\n    tag_63:\n      mload(0x40)\n      tag_67\n      swap2\n      swap1\n      tag_68\n      jump\t// in\n    tag_67:\n      mload(0x40)\n      dup1\n      swap2\n      sub\n      swap1\n      return\n        /* \"UmiverseMarket.sol\":1356:1395  uint256 public tradeFeeToRewardFund = 5 */\n    tag_9:\n      tag_69\n      tag_70\n      jump\t// in\n    tag_69:\n      mload(0x40)\n      tag_71\n      swap2\n      swap1\n      tag_62\n      jump\t// in\n    tag_71:\n      mload(0x40)\n      dup1\n      swap2\n      sub\n      swap1\n      return\n        /* \"UmiverseMarket.sol\":889:960  IERC20 public usdt = IERC20(0x0E9bB892A38d60B53085Af77eda888790Ef1DD33) */\n    tag_10:\n      tag_72\n      tag_73\n      jump\t// in\n    tag_72:\n      mload(0x40)\n      tag_74\n      swap2\n      swap1\n      tag_75\n      jump\t// in\n    tag_74:\n      mload(0x40)\n      dup1\n      swap2\n      sub\n      swap1\n      return\n        /* \"UmiverseMarket.sol\":966:1037  IERC20 public usdc = IERC20(0x7FC5e3e61700E34218a00cC01E92957A4e6C8883) */\n    tag_11:\n      tag_76\n      tag_77\n      jump\t// in\n    tag_76:\n      mload(0x40)\n      tag_78\n      swap2\n      swap1\n      tag_75\n      jump\t// in\n    tag_78:\n      mload(0x40)\n      dup1\n      swap2\n      sub\n      swap1\n      return\n        /* \"UmiverseMarket.sol\":712:737  address public feeAddress */\n    tag_12:\n      tag_79\n      tag_80\n      jump\t// in\n    tag_79:\n      mload(0x40)\n      tag_81\n      swap2\n      swap1\n      tag_82\n      jump\t// in\n    tag_81:\n      mload(0x40)\n      dup1\n      swap2\n      sub\n      swap1\n      return\n        /* \"@gelatonetwork/relay-context/contracts/vendor/ERC2771Context.sol\":489:661  function isTrustedForwarder(address forwarder)... */\n    tag_13:\n      tag_83\n      0x04\n      dup1\n      calldatasize\n      sub\n      dup2\n      add\n      swap1\n      tag_84\n      swap2\n      swap1\n      tag_44\n      jump\t// in\n    tag_84:\n      tag_85\n      jump\t// in\n    tag_83:\n      mload(0x40)\n      tag_86\n      swap2\n      swap1\n      tag_51\n      jump\t// in\n    tag_86:\n      mload(0x40)\n      dup1\n      swap2\n      sub\n      swap1\n      return\n        /* \"UmiverseMarket.sol\":2789:2875  function setUsdt(address _usdt) public onlyAdmin {... */\n    tag_14:\n      tag_87\n      0x04\n      dup1\n      calldatasize\n      sub\n      dup2\n      add\n      swap1\n      tag_88\n      swap2\n      swap1\n      tag_44\n      jump\t// in\n    tag_88:\n      tag_89\n      jump\t// in\n    tag_87:\n      stop\n        /* \"UmiverseMarket.sol\":802:830  address public signerAddress */\n    tag_15:\n      tag_90\n      tag_91\n      jump\t// in\n    tag_90:\n      mload(0x40)\n      tag_92\n      swap2\n      swap1\n      tag_82\n      jump\t// in\n    tag_92:\n      mload(0x40)\n      dup1\n      swap2\n      sub\n      swap1\n      return\n        /* \"UmiverseMarket.sol\":1272:1305  uint256 public tradeFeeToUmi = 10 */\n    tag_16:\n      tag_93\n      tag_94\n      jump\t// in\n    tag_93:\n      mload(0x40)\n      tag_95\n      swap2\n      swap1\n      tag_62\n      jump\t// in\n    tag_95:\n      mload(0x40)\n      dup1\n      swap2\n      sub\n      swap1\n      return\n        /* \"UmiverseMarket.sol\":2117:2203  function setAdmin(address _address) public onlyOwner {... */\n    tag_17:\n      tag_96\n      0x04\n      dup1\n      calldatasize\n      sub\n      dup2\n      add\n      swap1\n      tag_97\n      swap2\n      swap1\n      tag_44\n      jump\t// in\n    tag_97:\n      tag_98\n      jump\t// in\n    tag_96:\n      stop\n        /* \"lib/Ownable.sol\":995:1106  function renounceOwnership() public onlyOwner {... */\n    tag_18:\n      tag_99\n      tag_100\n      jump\t// in\n    tag_99:\n      stop\n        /* \"UmiverseMarket.sol\":750:782  address public rewardPoolAddress */\n    tag_19:\n      tag_101\n      tag_102\n      jump\t// in\n    tag_101:\n      mload(0x40)\n      tag_103\n      swap2\n      swap1\n      tag_82\n      jump\t// in\n    tag_103:\n      mload(0x40)\n      dup1\n      swap2\n      sub\n      swap1\n      return\n        /* \"UmiverseMarket.sol\":3149:3245  function setFeeAddress(address _address) public onlyAdmin {... */\n    tag_20:\n      tag_104\n      0x04\n      dup1\n      calldatasize\n      sub\n      dup2\n      add\n      swap1\n      tag_105\n      swap2\n      swap1\n      tag_44\n      jump\t// in\n    tag_105:\n      tag_106\n      jump\t// in\n    tag_104:\n      stop\n        /* \"UmiverseMarket.sol\":2973:3055  function setUmi(address _umi) public onlyAdmin {... */\n    tag_21:\n      tag_107\n      0x04\n      dup1\n      calldatasize\n      sub\n      dup2\n      add\n      swap1\n      tag_108\n      swap2\n      swap1\n      tag_44\n      jump\t// in\n    tag_108:\n      tag_109\n      jump\t// in\n    tag_107:\n      stop\n        /* \"UmiverseMarket.sol\":1087:1125  IERC20 public eth = IERC20(address(0)) */\n    tag_22:\n      tag_110\n      tag_111\n      jump\t// in\n    tag_110:\n      mload(0x40)\n      tag_112\n      swap2\n      swap1\n      tag_75\n      jump\t// in\n    tag_112:\n      mload(0x40)\n      dup1\n      swap2\n      sub\n      swap1\n      return\n        /* \"lib/Ownable.sol\":78:98  address public owner */\n    tag_23:\n      tag_113\n      tag_114\n      jump\t// in\n    tag_113:\n      mload(0x40)\n      tag_115\n      swap2\n      swap1\n      tag_82\n      jump\t// in\n    tag_115:\n      mload(0x40)\n      dup1\n      swap2\n      sub\n      swap1\n      return\n        /* \"UmiverseMarket.sol\":1043:1081  IERC20 public umi = IERC20(address(0)) */\n    tag_24:\n      tag_116\n      tag_117\n      jump\t// in\n    tag_116:\n      mload(0x40)\n      tag_118\n      swap2\n      swap1\n      tag_75\n      jump\t// in\n    tag_118:\n      mload(0x40)\n      dup1\n      swap2\n      sub\n      swap1\n      return\n        /* \"UmiverseMarket.sol\":5765:6037  function recoverSignerPublic(... */\n    tag_25:\n      tag_119\n      0x04\n      dup1\n      calldatasize\n      sub\n      dup2\n      add\n      swap1\n      tag_120\n      swap2\n      swap1\n      tag_121\n      jump\t// in\n    tag_120:\n      tag_122\n      jump\t// in\n    tag_119:\n      mload(0x40)\n      tag_123\n      swap2\n      swap1\n      tag_82\n      jump\t// in\n    tag_123:\n      mload(0x40)\n      dup1\n      swap2\n      sub\n      swap1\n      return\n        /* \"UmiverseMarket.sol\":3359:3489  function setRewardPoolAddress(address _rewardPoolAddress) public onlyAdmin {... */\n    tag_26:\n      tag_124\n      0x04\n      dup1\n      calldatasize\n      sub\n      dup2\n      add\n      swap1\n      tag_125\n      swap2\n      swap1\n      tag_44\n      jump\t// in\n    tag_125:\n      tag_126\n      jump\t// in\n    tag_124:\n      stop\n        /* \"UmiverseMarket.sol\":2209:2783  function setFee(... */\n    tag_27:\n      tag_127\n      0x04\n      dup1\n      calldatasize\n      sub\n      dup2\n      add\n      swap1\n      tag_128\n      swap2\n      swap1\n      tag_129\n      jump\t// in\n    tag_128:\n      tag_130\n      jump\t// in\n    tag_127:\n      stop\n        /* \"UmiverseMarket.sol\":2881:2967  function setUsdc(address _usdc) public onlyAdmin {... */\n    tag_28:\n      tag_131\n      0x04\n      dup1\n      calldatasize\n      sub\n      dup2\n      add\n      swap1\n      tag_132\n      swap2\n      swap1\n      tag_44\n      jump\t// in\n    tag_132:\n      tag_133\n      jump\t// in\n    tag_131:\n      stop\n        /* \"UmiverseMarket.sol\":1311:1350  uint256 public tradeFeeToDeveloper = 10 */\n    tag_29:\n      tag_134\n      tag_135\n      jump\t// in\n    tag_134:\n      mload(0x40)\n      tag_136\n      swap2\n      swap1\n      tag_62\n      jump\t// in\n    tag_136:\n      mload(0x40)\n      dup1\n      swap2\n      sub\n      swap1\n      return\n        /* \"UmiverseMarket.sol\":1132:1174  uint256 public presaleFeeToDeveloper = 490 */\n    tag_30:\n      tag_137\n      tag_138\n      jump\t// in\n    tag_137:\n      mload(0x40)\n      tag_139\n      swap2\n      swap1\n      tag_62\n      jump\t// in\n    tag_139:\n      mload(0x40)\n      dup1\n      swap2\n      sub\n      swap1\n      return\n        /* \"UmiverseMarket.sol\":1180:1216  uint256 public presaleFeeToUmi = 210 */\n    tag_31:\n      tag_140\n      tag_141\n      jump\t// in\n    tag_140:\n      mload(0x40)\n      tag_142\n      swap2\n      swap1\n      tag_62\n      jump\t// in\n    tag_142:\n      mload(0x40)\n      dup1\n      swap2\n      sub\n      swap1\n      return\n        /* \"UmiverseMarket.sol\":8217:10932  function buy(... */\n    tag_32:\n      tag_143\n      0x04\n      dup1\n      calldatasize\n      sub\n      dup2\n      add\n      swap1\n      tag_144\n      swap2\n      swap1\n      tag_54\n      jump\t// in\n    tag_144:\n      tag_145\n      jump\t// in\n    tag_143:\n      stop\n        /* \"lib/Ownable.sol\":731:905  function transferOwnership(address newOwner) public onlyOwner {... */\n    tag_33:\n      tag_146\n      0x04\n      dup1\n      calldatasize\n      sub\n      dup2\n      add\n      swap1\n      tag_147\n      swap2\n      swap1\n      tag_44\n      jump\t// in\n    tag_147:\n      tag_148\n      jump\t// in\n    tag_146:\n      stop\n        /* \"UmiverseMarket.sol\":686:706  address public admin */\n    tag_34:\n      tag_149\n      tag_150\n      jump\t// in\n    tag_149:\n      mload(0x40)\n      tag_151\n      swap2\n      swap1\n      tag_82\n      jump\t// in\n    tag_151:\n      mload(0x40)\n      dup1\n      swap2\n      sub\n      swap1\n      return\n        /* \"UmiverseMarket.sol\":3251:3353  function setSignerAddress(address _address) public onlyAdmin {... */\n    tag_45:\n        /* \"UmiverseMarket.sol\":1818:1823  admin */\n      0x01\n      0x00\n      swap1\n      sload\n      swap1\n      0x0100\n      exp\n      swap1\n      div\n      0xffffffffffffffffffffffffffffffffffffffff\n      and\n        /* \"UmiverseMarket.sol\":1804:1823  msg.sender == admin */\n      0xffffffffffffffffffffffffffffffffffffffff\n      and\n        /* \"UmiverseMarket.sol\":1804:1814  msg.sender */\n      caller\n        /* \"UmiverseMarket.sol\":1804:1823  msg.sender == admin */\n      0xffffffffffffffffffffffffffffffffffffffff\n      and\n      eq\n        /* \"UmiverseMarket.sol\":1796:1824  require(msg.sender == admin) */\n      tag_153\n      jumpi\n      0x00\n      dup1\n      revert\n    tag_153:\n        /* \"UmiverseMarket.sol\":3338:3346  _address */\n      dup1\n        /* \"UmiverseMarket.sol\":3322:3335  signerAddress */\n      0x04\n      0x00\n        /* \"UmiverseMarket.sol\":3322:3346  signerAddress = _address */\n      0x0100\n      exp\n      dup2\n      sload\n      dup2\n      0xffffffffffffffffffffffffffffffffffffffff\n      mul\n      not\n      and\n      swap1\n      dup4\n      0xffffffffffffffffffffffffffffffffffffffff\n      and\n      mul\n      or\n      swap1\n      sstore\n      pop\n        /* \"UmiverseMarket.sol\":3251:3353  function setSignerAddress(address _address) public onlyAdmin {... */\n      pop\n      jump\t// out\n        /* \"UmiverseMarket.sol\":6043:6355  function isTokenSupported(string memory token) public pure returns (bool) {... */\n    tag_49:\n        /* \"UmiverseMarket.sol\":6111:6115  bool */\n      0x00\n        /* \"UmiverseMarket.sol\":6135:6164  compareStrings(token, \"usdt\") */\n      tag_156\n        /* \"UmiverseMarket.sol\":6150:6155  token */\n      dup3\n        /* \"UmiverseMarket.sol\":6135:6164  compareStrings(token, \"usdt\") */\n      mload(0x40)\n      dup1\n      0x40\n      add\n      0x40\n      mstore\n      dup1\n      0x04\n      dup2\n      mstore\n      0x20\n      add\n      0x7573647400000000000000000000000000000000000000000000000000000000\n      dup2\n      mstore\n      pop\n        /* \"UmiverseMarket.sol\":6135:6149  compareStrings */\n      tag_157\n        /* \"UmiverseMarket.sol\":6135:6164  compareStrings(token, \"usdt\") */\n      jump\t// in\n    tag_156:\n        /* \"UmiverseMarket.sol\":6135:6209  compareStrings(token, \"usdt\") ||... */\n      dup1\n      tag_158\n      jumpi\n      pop\n        /* \"UmiverseMarket.sol\":6180:6209  compareStrings(token, \"usdc\") */\n      tag_159\n        /* \"UmiverseMarket.sol\":6195:6200  token */\n      dup3\n        /* \"UmiverseMarket.sol\":6180:6209  compareStrings(token, \"usdc\") */\n      mload(0x40)\n      dup1\n      0x40\n      add\n      0x40\n      mstore\n      dup1\n      0x04\n      dup2\n      mstore\n      0x20\n      add\n      0x7573646300000000000000000000000000000000000000000000000000000000\n      dup2\n      mstore\n      pop\n        /* \"UmiverseMarket.sol\":6180:6194  compareStrings */\n      tag_157\n        /* \"UmiverseMarket.sol\":6180:6209  compareStrings(token, \"usdc\") */\n      jump\t// in\n    tag_159:\n        /* \"UmiverseMarket.sol\":6135:6209  compareStrings(token, \"usdt\") ||... */\n    tag_158:\n        /* \"UmiverseMarket.sol\":6135:6253  compareStrings(token, \"usdt\") ||... */\n      dup1\n      tag_160\n      jumpi\n      pop\n        /* \"UmiverseMarket.sol\":6225:6253  compareStrings(token, \"umi\") */\n      tag_161\n        /* \"UmiverseMarket.sol\":6240:6245  token */\n      dup3\n        /* \"UmiverseMarket.sol\":6225:6253  compareStrings(token, \"umi\") */\n      mload(0x40)\n      dup1\n      0x40\n      add\n      0x40\n      mstore\n      dup1\n      0x03\n      dup2\n      mstore\n      0x20\n      add\n      0x756d690000000000000000000000000000000000000000000000000000000000\n      dup2\n      mstore\n      pop\n        /* \"UmiverseMarket.sol\":6225:6239  compareStrings */\n      tag_157\n        /* \"UmiverseMarket.sol\":6225:6253  compareStrings(token, \"umi\") */\n      jump\t// in\n    tag_161:\n        /* \"UmiverseMarket.sol\":6135:6253  compareStrings(token, \"usdt\") ||... */\n    tag_160:\n        /* \"UmiverseMarket.sol\":6135:6303  compareStrings(token, \"usdt\") ||... */\n      dup1\n      tag_162\n      jumpi\n      pop\n        /* \"UmiverseMarket.sol\":6269:6303  compareStrings(token, \"divepoint\") */\n      tag_163\n        /* \"UmiverseMarket.sol\":6284:6289  token */\n      dup3\n        /* \"UmiverseMarket.sol\":6269:6303  compareStrings(token, \"divepoint\") */\n      mload(0x40)\n      dup1\n      0x40\n      add\n      0x40\n      mstore\n      dup1\n      0x09\n      dup2\n      mstore\n      0x20\n      add\n      0x64697665706f696e740000000000000000000000000000000000000000000000\n      dup2\n      mstore\n      pop\n        /* \"UmiverseMarket.sol\":6269:6283  compareStrings */\n      tag_157\n        /* \"UmiverseMarket.sol\":6269:6303  compareStrings(token, \"divepoint\") */\n      jump\t// in\n    tag_163:\n        /* \"UmiverseMarket.sol\":6135:6303  compareStrings(token, \"usdt\") ||... */\n    tag_162:\n        /* \"UmiverseMarket.sol\":6135:6347  compareStrings(token, \"usdt\") ||... */\n      dup1\n      tag_164\n      jumpi\n      pop\n        /* \"UmiverseMarket.sol\":6319:6347  compareStrings(token, \"eth\") */\n      tag_165\n        /* \"UmiverseMarket.sol\":6334:6339  token */\n      dup3\n        /* \"UmiverseMarket.sol\":6319:6347  compareStrings(token, \"eth\") */\n      mload(0x40)\n      dup1\n      0x40\n      add\n      0x40\n      mstore\n      dup1\n      0x03\n      dup2\n      mstore\n      0x20\n      add\n      0x6574680000000000000000000000000000000000000000000000000000000000\n      dup2\n      mstore\n      pop\n        /* \"UmiverseMarket.sol\":6319:6333  compareStrings */\n      tag_157\n        /* \"UmiverseMarket.sol\":6319:6347  compareStrings(token, \"eth\") */\n      jump\t// in\n    tag_165:\n        /* \"UmiverseMarket.sol\":6135:6347  compareStrings(token, \"usdt\") ||... */\n    tag_164:\n        /* \"UmiverseMarket.sol\":6127:6348  return (compareStrings(token, \"usdt\") ||... */\n      swap1\n      pop\n        /* \"UmiverseMarket.sol\":6043:6355  function isTokenSupported(string memory token) public pure returns (bool) {... */\n      swap2\n      swap1\n      pop\n      jump\t// out\n        /* \"UmiverseMarket.sol\":10938:13491  function sell(... */\n    tag_55:\n        /* \"UmiverseMarket.sol\":2003:2033  isTrustedForwarder(msg.sender) */\n      tag_167\n        /* \"UmiverseMarket.sol\":2022:2032  msg.sender */\n      caller\n        /* \"UmiverseMarket.sol\":2003:2021  isTrustedForwarder */\n      tag_85\n        /* \"UmiverseMarket.sol\":2003:2033  isTrustedForwarder(msg.sender) */\n      jump\t// in\n    tag_167:\n        /* \"UmiverseMarket.sol\":1982:2093  require(... */\n      tag_168\n      jumpi\n      mload(0x40)\n      0x08c379a000000000000000000000000000000000000000000000000000000000\n      dup2\n      mstore\n      0x04\n      add\n      tag_169\n      swap1\n      tag_170\n      jump\t// in\n    tag_169:\n      mload(0x40)\n      dup1\n      swap2\n      sub\n      swap1\n      revert\n    tag_168:\n        /* \"UmiverseMarket.sol\":11322:11323  0 */\n      0x00\n        /* \"UmiverseMarket.sol\":11304:11324  _buyer != address(0) */\n      0xffffffffffffffffffffffffffffffffffffffff\n      and\n        /* \"UmiverseMarket.sol\":11304:11310  _buyer */\n      dup3\n        /* \"UmiverseMarket.sol\":11304:11324  _buyer != address(0) */\n      0xffffffffffffffffffffffffffffffffffffffff\n      and\n      sub\n        /* \"UmiverseMarket.sol\":11296:11358  require(_buyer != address(0), \"CV: buyer to the zero address\") */\n      tag_172\n      jumpi\n      mload(0x40)\n      0x08c379a000000000000000000000000000000000000000000000000000000000\n      dup2\n      mstore\n      0x04\n      add\n      tag_173\n      swap1\n      tag_174\n      jump\t// in\n    tag_173:\n      mload(0x40)\n      dup1\n      swap2\n      sub\n      swap1\n      revert\n    tag_172:\n        /* \"UmiverseMarket.sol\":11389:11678  verify(... */\n      tag_175\n        /* \"UmiverseMarket.sol\":11413:11419  _buyer */\n      dup3\n        /* \"UmiverseMarket.sol\":11437:11444  _seller */\n      dup12\n        /* \"UmiverseMarket.sol\":11462:11470  _tokenid */\n      dup12\n        /* \"UmiverseMarket.sol\":11488:11494  _price */\n      dup12\n        /* \"UmiverseMarket.sol\":11512:11519  _amount */\n      dup12\n        /* \"UmiverseMarket.sol\":11537:11547  _priceType */\n      dup12\n        /* \"UmiverseMarket.sol\":11565:11582  _developerAddress */\n      dup12\n        /* \"UmiverseMarket.sol\":11600:11608  _presale */\n      dup12\n        /* \"UmiverseMarket.sol\":11626:11636  _timestamp */\n      dup12\n        /* \"UmiverseMarket.sol\":11654:11664  _signature */\n      dup11\n        /* \"UmiverseMarket.sol\":11389:11395  verify */\n      tag_176\n        /* \"UmiverseMarket.sol\":11389:11678  verify(... */\n      jump\t// in\n    tag_175:\n        /* \"UmiverseMarket.sol\":11368:11726  require(... */\n      tag_177\n      jumpi\n      mload(0x40)\n      0x08c379a000000000000000000000000000000000000000000000000000000000\n      dup2\n      mstore\n      0x04\n      add\n      tag_178\n      swap1\n      tag_179\n      jump\t// in\n    tag_178:\n      mload(0x40)\n      dup1\n      swap2\n      sub\n      swap1\n      revert\n    tag_177:\n        /* \"UmiverseMarket.sol\":11754:11761  _amount */\n      dup7\n        /* \"UmiverseMarket.sol\":11744:11750  _price */\n      dup9\n        /* \"UmiverseMarket.sol\":11744:11761  _price == _amount */\n      eq\n        /* \"UmiverseMarket.sol\":11736:11784  require(_price == _amount, \"CV: invalid amount\") */\n      tag_180\n      jumpi\n      mload(0x40)\n      0x08c379a000000000000000000000000000000000000000000000000000000000\n      dup2\n      mstore\n      0x04\n      add\n      tag_181\n      swap1\n      tag_182\n      jump\t// in\n    tag_181:\n      mload(0x40)\n      dup1\n      swap2\n      sub\n      swap1\n      revert\n    tag_180:\n        /* \"UmiverseMarket.sol\":11809:11810  0 */\n      0x00\n        /* \"UmiverseMarket.sol\":11799:11806  _amount */\n      dup8\n        /* \"UmiverseMarket.sol\":11799:11810  _amount > 0 */\n      gt\n        /* \"UmiverseMarket.sol\":11795:13331  if (_amount > 0) {... */\n      iszero\n      tag_183\n      jumpi\n        /* \"UmiverseMarket.sol\":11830:11864  compareStrings(_priceType, \"usdt\") */\n      tag_184\n        /* \"UmiverseMarket.sol\":11845:11855  _priceType */\n      dup7\n        /* \"UmiverseMarket.sol\":11830:11864  compareStrings(_priceType, \"usdt\") */\n      mload(0x40)\n      dup1\n      0x40\n      add\n      0x40\n      mstore\n      dup1\n      0x04\n      dup2\n      mstore\n      0x20\n      add\n      0x7573647400000000000000000000000000000000000000000000000000000000\n      dup2\n      mstore\n      pop\n        /* \"UmiverseMarket.sol\":11830:11844  compareStrings */\n      tag_157\n        /* \"UmiverseMarket.sol\":11830:11864  compareStrings(_priceType, \"usdt\") */\n      jump\t// in\n    tag_184:\n        /* \"UmiverseMarket.sol\":11826:12191  if (compareStrings(_priceType, \"usdt\")) {... */\n      iszero\n      tag_185\n      jumpi\n        /* \"UmiverseMarket.sol\":11917:11918  0 */\n      0x00\n        /* \"UmiverseMarket.sol\":11892:11919  address(usdt) != address(0) */\n      0xffffffffffffffffffffffffffffffffffffffff\n      and\n        /* \"UmiverseMarket.sol\":11900:11904  usdt */\n      0x05\n      0x00\n      swap1\n      sload\n      swap1\n      0x0100\n      exp\n      swap1\n      div\n      0xffffffffffffffffffffffffffffffffffffffff\n      and\n        /* \"UmiverseMarket.sol\":11892:11919  address(usdt) != address(0) */\n      0xffffffffffffffffffffffffffffffffffffffff\n      and\n      sub\n        /* \"UmiverseMarket.sol\":11884:11947  require(address(usdt) != address(0), \"usdt address not config\") */\n      tag_186\n      jumpi\n      mload(0x40)\n      0x08c379a000000000000000000000000000000000000000000000000000000000\n      dup2\n      mstore\n      0x04\n      add\n      tag_187\n      swap1\n      tag_188\n      jump\t// in\n    tag_187:\n      mload(0x40)\n      dup1\n      swap2\n      sub\n      swap1\n      revert\n    tag_186:\n        /* \"UmiverseMarket.sol\":11965:12176  processTrade(... */\n      tag_189\n        /* \"UmiverseMarket.sol\":11999:12003  usdt */\n      0x05\n      0x00\n      swap1\n      sload\n      swap1\n      0x0100\n      exp\n      swap1\n      div\n      0xffffffffffffffffffffffffffffffffffffffff\n      and\n        /* \"UmiverseMarket.sol\":12025:12031  _buyer */\n      dup4\n        /* \"UmiverseMarket.sol\":12053:12060  _seller */\n      dup13\n        /* \"UmiverseMarket.sol\":12082:12099  _developerAddress */\n      dup9\n        /* \"UmiverseMarket.sol\":12121:12129  _presale */\n      dup9\n        /* \"UmiverseMarket.sol\":12151:12158  _amount */\n      dup13\n        /* \"UmiverseMarket.sol\":11965:11977  processTrade */\n      tag_190\n        /* \"UmiverseMarket.sol\":11965:12176  processTrade(... */\n      jump\t// in\n    tag_189:\n        /* \"UmiverseMarket.sol\":11826:12191  if (compareStrings(_priceType, \"usdt\")) {... */\n    tag_185:\n        /* \"UmiverseMarket.sol\":12209:12243  compareStrings(_priceType, \"usdc\") */\n      tag_191\n        /* \"UmiverseMarket.sol\":12224:12234  _priceType */\n      dup7\n        /* \"UmiverseMarket.sol\":12209:12243  compareStrings(_priceType, \"usdc\") */\n      mload(0x40)\n      dup1\n      0x40\n      add\n      0x40\n      mstore\n      dup1\n      0x04\n      dup2\n      mstore\n      0x20\n      add\n      0x7573646300000000000000000000000000000000000000000000000000000000\n      dup2\n      mstore\n      pop\n        /* \"UmiverseMarket.sol\":12209:12223  compareStrings */\n      tag_157\n        /* \"UmiverseMarket.sol\":12209:12243  compareStrings(_priceType, \"usdc\") */\n      jump\t// in\n    tag_191:\n        /* \"UmiverseMarket.sol\":12205:12570  if (compareStrings(_priceType, \"usdc\")) {... */\n      iszero\n      tag_192\n      jumpi\n        /* \"UmiverseMarket.sol\":12296:12297  0 */\n      0x00\n        /* \"UmiverseMarket.sol\":12271:12298  address(usdc) != address(0) */\n      0xffffffffffffffffffffffffffffffffffffffff\n      and\n        /* \"UmiverseMarket.sol\":12279:12283  usdc */\n      0x06\n      0x00\n      swap1\n      sload\n      swap1\n      0x0100\n      exp\n      swap1\n      div\n      0xffffffffffffffffffffffffffffffffffffffff\n      and\n        /* \"UmiverseMarket.sol\":12271:12298  address(usdc) != address(0) */\n      0xffffffffffffffffffffffffffffffffffffffff\n      and\n      sub\n        /* \"UmiverseMarket.sol\":12263:12326  require(address(usdc) != address(0), \"usdc address not config\") */\n      tag_193\n      jumpi\n      mload(0x40)\n      0x08c379a000000000000000000000000000000000000000000000000000000000\n      dup2\n      mstore\n      0x04\n      add\n      tag_194\n      swap1\n      tag_195\n      jump\t// in\n    tag_194:\n      mload(0x40)\n      dup1\n      swap2\n      sub\n      swap1\n      revert\n    tag_193:\n        /* \"UmiverseMarket.sol\":12344:12555  processTrade(... */\n      tag_196\n        /* \"UmiverseMarket.sol\":12378:12382  usdc */\n      0x06\n      0x00\n      swap1\n      sload\n      swap1\n      0x0100\n      exp\n      swap1\n      div\n      0xffffffffffffffffffffffffffffffffffffffff\n      and\n        /* \"UmiverseMarket.sol\":12404:12410  _buyer */\n      dup4\n        /* \"UmiverseMarket.sol\":12432:12439  _seller */\n      dup13\n        /* \"UmiverseMarket.sol\":12461:12478  _developerAddress */\n      dup9\n        /* \"UmiverseMarket.sol\":12500:12508  _presale */\n      dup9\n        /* \"UmiverseMarket.sol\":12530:12537  _amount */\n      dup13\n        /* \"UmiverseMarket.sol\":12344:12356  processTrade */\n      tag_190\n        /* \"UmiverseMarket.sol\":12344:12555  processTrade(... */\n      jump\t// in\n    tag_196:\n        /* \"UmiverseMarket.sol\":12205:12570  if (compareStrings(_priceType, \"usdc\")) {... */\n    tag_192:\n        /* \"UmiverseMarket.sol\":12588:12621  compareStrings(_priceType, \"eth\") */\n      tag_197\n        /* \"UmiverseMarket.sol\":12603:12613  _priceType */\n      dup7\n        /* \"UmiverseMarket.sol\":12588:12621  compareStrings(_priceType, \"eth\") */\n      mload(0x40)\n      dup1\n      0x40\n      add\n      0x40\n      mstore\n      dup1\n      0x03\n      dup2\n      mstore\n      0x20\n      add\n      0x6574680000000000000000000000000000000000000000000000000000000000\n      dup2\n      mstore\n      pop\n        /* \"UmiverseMarket.sol\":12588:12602  compareStrings */\n      tag_157\n        /* \"UmiverseMarket.sol\":12588:12621  compareStrings(_priceType, \"eth\") */\n      jump\t// in\n    tag_197:\n        /* \"UmiverseMarket.sol\":12584:12946  if (compareStrings(_priceType, \"eth\")) {... */\n      iszero\n      tag_198\n      jumpi\n        /* \"UmiverseMarket.sol\":12674:12675  0 */\n      0x00\n        /* \"UmiverseMarket.sol\":12649:12676  address(usdt) != address(0) */\n      0xffffffffffffffffffffffffffffffffffffffff\n      and\n        /* \"UmiverseMarket.sol\":12657:12661  usdt */\n      0x05\n      0x00\n      swap1\n      sload\n      swap1\n      0x0100\n      exp\n      swap1\n      div\n      0xffffffffffffffffffffffffffffffffffffffff\n      and\n        /* \"UmiverseMarket.sol\":12649:12676  address(usdt) != address(0) */\n      0xffffffffffffffffffffffffffffffffffffffff\n      and\n      sub\n        /* \"UmiverseMarket.sol\":12641:12703  require(address(usdt) != address(0), \"eth address not config\") */\n      tag_199\n      jumpi\n      mload(0x40)\n      0x08c379a000000000000000000000000000000000000000000000000000000000\n      dup2\n      mstore\n      0x04\n      add\n      tag_200\n      swap1\n      tag_201\n      jump\t// in\n    tag_200:\n      mload(0x40)\n      dup1\n      swap2\n      sub\n      swap1\n      revert\n    tag_199:\n        /* \"UmiverseMarket.sol\":12721:12931  processTrade(... */\n      tag_202\n        /* \"UmiverseMarket.sol\":12755:12758  eth */\n      0x08\n      0x00\n      swap1\n      sload\n      swap1\n      0x0100\n      exp\n      swap1\n      div\n      0xffffffffffffffffffffffffffffffffffffffff\n      and\n        /* \"UmiverseMarket.sol\":12780:12786  _buyer */\n      dup4\n        /* \"UmiverseMarket.sol\":12808:12815  _seller */\n      dup13\n        /* \"UmiverseMarket.sol\":12837:12854  _developerAddress */\n      dup9\n        /* \"UmiverseMarket.sol\":12876:12884  _presale */\n      dup9\n        /* \"UmiverseMarket.sol\":12906:12913  _amount */\n      dup13\n        /* \"UmiverseMarket.sol\":12721:12733  processTrade */\n      tag_190\n        /* \"UmiverseMarket.sol\":12721:12931  processTrade(... */\n      jump\t// in\n    tag_202:\n        /* \"UmiverseMarket.sol\":12584:12946  if (compareStrings(_priceType, \"eth\")) {... */\n    tag_198:\n        /* \"UmiverseMarket.sol\":12964:12997  compareStrings(_priceType, \"umi\") */\n      tag_203\n        /* \"UmiverseMarket.sol\":12979:12989  _priceType */\n      dup7\n        /* \"UmiverseMarket.sol\":12964:12997  compareStrings(_priceType, \"umi\") */\n      mload(0x40)\n      dup1\n      0x40\n      add\n      0x40\n      mstore\n      dup1\n      0x03\n      dup2\n      mstore\n      0x20\n      add\n      0x756d690000000000000000000000000000000000000000000000000000000000\n      dup2\n      mstore\n      pop\n        /* \"UmiverseMarket.sol\":12964:12978  compareStrings */\n      tag_157\n        /* \"UmiverseMarket.sol\":12964:12997  compareStrings(_priceType, \"umi\") */\n      jump\t// in\n    tag_203:\n        /* \"UmiverseMarket.sol\":12960:13321  if (compareStrings(_priceType, \"umi\")) {... */\n      iszero\n      tag_204\n      jumpi\n        /* \"UmiverseMarket.sol\":13049:13050  0 */\n      0x00\n        /* \"UmiverseMarket.sol\":13025:13051  address(umi) != address(0) */\n      0xffffffffffffffffffffffffffffffffffffffff\n      and\n        /* \"UmiverseMarket.sol\":13033:13036  umi */\n      0x07\n      0x00\n      swap1\n      sload\n      swap1\n      0x0100\n      exp\n      swap1\n      div\n      0xffffffffffffffffffffffffffffffffffffffff\n      and\n        /* \"UmiverseMarket.sol\":13025:13051  address(umi) != address(0) */\n      0xffffffffffffffffffffffffffffffffffffffff\n      and\n      sub\n        /* \"UmiverseMarket.sol\":13017:13078  require(address(umi) != address(0), \"umi address not config\") */\n      tag_205\n      jumpi\n      mload(0x40)\n      0x08c379a000000000000000000000000000000000000000000000000000000000\n      dup2\n      mstore\n      0x04\n      add\n      tag_206\n      swap1\n      tag_207\n      jump\t// in\n    tag_206:\n      mload(0x40)\n      dup1\n      swap2\n      sub\n      swap1\n      revert\n    tag_205:\n        /* \"UmiverseMarket.sol\":13096:13306  processTrade(... */\n      tag_208\n        /* \"UmiverseMarket.sol\":13130:13133  umi */\n      0x07\n      0x00\n      swap1\n      sload\n      swap1\n      0x0100\n      exp\n      swap1\n      div\n      0xffffffffffffffffffffffffffffffffffffffff\n      and\n        /* \"UmiverseMarket.sol\":13155:13161  _buyer */\n      dup4\n        /* \"UmiverseMarket.sol\":13183:13190  _seller */\n      dup13\n        /* \"UmiverseMarket.sol\":13212:13229  _developerAddress */\n      dup9\n        /* \"UmiverseMarket.sol\":13251:13259  _presale */\n      dup9\n        /* \"UmiverseMarket.sol\":13281:13288  _amount */\n      dup13\n        /* \"UmiverseMarket.sol\":13096:13108  processTrade */\n      tag_190\n        /* \"UmiverseMarket.sol\":13096:13306  processTrade(... */\n      jump\t// in\n    tag_208:\n        /* \"UmiverseMarket.sol\":12960:13321  if (compareStrings(_priceType, \"umi\")) {... */\n    tag_204:\n        /* \"UmiverseMarket.sol\":11795:13331  if (_amount > 0) {... */\n    tag_183:\n        /* \"UmiverseMarket.sol\":13341:13359  bytes memory _data */\n      0x60\n        /* \"UmiverseMarket.sol\":13370:13373  nft */\n      dup12\n        /* \"UmiverseMarket.sol\":13370:13390  nft.safeTransferFrom */\n      0xffffffffffffffffffffffffffffffffffffffff\n      and\n      0xb88d4fde\n        /* \"UmiverseMarket.sol\":13391:13398  _seller */\n      dup13\n        /* \"UmiverseMarket.sol\":13400:13406  _buyer */\n      dup6\n        /* \"UmiverseMarket.sol\":13408:13416  _tokenid */\n      dup14\n        /* \"UmiverseMarket.sol\":13418:13423  _data */\n      dup6\n        /* \"UmiverseMarket.sol\":13370:13424  nft.safeTransferFrom(_seller, _buyer, _tokenid, _data) */\n      mload(0x40)\n      dup6\n      0xffffffff\n      and\n      0xe0\n      shl\n      dup2\n      mstore\n      0x04\n      add\n      tag_209\n      swap5\n      swap4\n      swap3\n      swap2\n      swap1\n      tag_210\n      jump\t// in\n    tag_209:\n      0x00\n      mload(0x40)\n      dup1\n      dup4\n      sub\n      dup2\n      0x00\n      dup8\n      dup1\n      extcodesize\n      iszero\n      dup1\n      iszero\n      tag_211\n      jumpi\n      0x00\n      dup1\n      revert\n    tag_211:\n      pop\n      gas\n      call\n      iszero\n      dup1\n      iszero\n      tag_213\n      jumpi\n      returndatasize\n      0x00\n      dup1\n      returndatacopy\n      revert(0x00, returndatasize)\n    tag_213:\n      pop\n      pop\n      pop\n      pop\n        /* \"UmiverseMarket.sol\":13439:13484  Sell(_tokenid * 1e8, _price, _seller, _buyer) */\n      0xff8e373201d0e8ead3e3a60928e02004c2bcb407405f2f21e95283617f8b350c\n        /* \"UmiverseMarket.sol\":13455:13458  1e8 */\n      0x05f5e100\n        /* \"UmiverseMarket.sol\":13444:13452  _tokenid */\n      dup12\n        /* \"UmiverseMarket.sol\":13444:13458  _tokenid * 1e8 */\n      tag_214\n      swap2\n      swap1\n      tag_215\n      jump\t// in\n    tag_214:\n        /* \"UmiverseMarket.sol\":13460:13466  _price */\n      dup11\n        /* \"UmiverseMarket.sol\":13468:13475  _seller */\n      dup14\n        /* \"UmiverseMarket.sol\":13477:13483  _buyer */\n      dup7\n        /* \"UmiverseMarket.sol\":13439:13484  Sell(_tokenid * 1e8, _price, _seller, _buyer) */\n      mload(0x40)\n      tag_216\n      swap5\n      swap4\n      swap3\n      swap2\n      swap1\n      tag_217\n      jump\t// in\n    tag_216:\n      mload(0x40)\n      dup1\n      swap2\n      sub\n      swap1\n      log1\n        /* \"UmiverseMarket.sol\":11286:13491  {... */\n      pop\n        /* \"UmiverseMarket.sol\":10938:13491  function sell(... */\n      pop\n      pop\n      pop\n      pop\n      pop\n      pop\n      pop\n      pop\n      pop\n      pop\n      pop\n      jump\t// out\n        /* \"UmiverseMarket.sol\":3061:3143  function setEth(address _eth) public onlyAdmin {... */\n    tag_58:\n        /* \"UmiverseMarket.sol\":1818:1823  admin */\n      0x01\n      0x00\n      swap1\n      sload\n      swap1\n      0x0100\n      exp\n      swap1\n      div\n      0xffffffffffffffffffffffffffffffffffffffff\n      and\n        /* \"UmiverseMarket.sol\":1804:1823  msg.sender == admin */\n      0xffffffffffffffffffffffffffffffffffffffff\n      and\n        /* \"UmiverseMarket.sol\":1804:1814  msg.sender */\n      caller\n        /* \"UmiverseMarket.sol\":1804:1823  msg.sender == admin */\n      0xffffffffffffffffffffffffffffffffffffffff\n      and\n      eq\n        /* \"UmiverseMarket.sol\":1796:1824  require(msg.sender == admin) */\n      tag_219\n      jumpi\n      0x00\n      dup1\n      revert\n    tag_219:\n        /* \"UmiverseMarket.sol\":3131:3135  _eth */\n      dup1\n        /* \"UmiverseMarket.sol\":3118:3121  eth */\n      0x08\n      0x00\n        /* \"UmiverseMarket.sol\":3118:3136  eth = IERC20(_eth) */\n      0x0100\n      exp\n      dup2\n      sload\n      dup2\n      0xffffffffffffffffffffffffffffffffffffffff\n      mul\n      not\n      and\n      swap1\n      dup4\n      0xffffffffffffffffffffffffffffffffffffffff\n      and\n      mul\n      or\n      swap1\n      sstore\n      pop\n        /* \"UmiverseMarket.sol\":3061:3143  function setEth(address _eth) public onlyAdmin {... */\n      pop\n      jump\t// out\n        /* \"UmiverseMarket.sol\":1222:1265  uint256 public presaleFeeToRewardFund = 300 */\n    tag_60:\n      sload(0x0b)\n      dup2\n      jump\t// out\n        /* \"UmiverseMarket.sol\":3495:4255  function getMessageHash(... */\n    tag_66:\n        /* \"UmiverseMarket.sol\":3790:3797  bytes32 */\n      0x00\n        /* \"UmiverseMarket.sol\":3817:3845  isTokenSupported(_priceType) */\n      tag_222\n        /* \"UmiverseMarket.sol\":3834:3844  _priceType */\n      dup6\n        /* \"UmiverseMarket.sol\":3817:3833  isTokenSupported */\n      tag_49\n        /* \"UmiverseMarket.sol\":3817:3845  isTokenSupported(_priceType) */\n      jump\t// in\n    tag_222:\n        /* \"UmiverseMarket.sol\":3809:3867  require(isTokenSupported(_priceType), \"token not support\") */\n      tag_223\n      jumpi\n      mload(0x40)\n      0x08c379a000000000000000000000000000000000000000000000000000000000\n      dup2\n      mstore\n      0x04\n      add\n      tag_224\n      swap1\n      tag_225\n      jump\t// in\n    tag_224:\n      mload(0x40)\n      dup1\n      swap2\n      sub\n      swap1\n      revert\n    tag_223:\n        /* \"UmiverseMarket.sol\":3961:3967  _buyer */\n      dup10\n        /* \"UmiverseMarket.sol\":3989:3996  _seller */\n      dup10\n        /* \"UmiverseMarket.sol\":4018:4026  _tokenid */\n      dup10\n        /* \"UmiverseMarket.sol\":4048:4054  _price */\n      dup10\n        /* \"UmiverseMarket.sol\":4076:4083  _amount */\n      dup10\n        /* \"UmiverseMarket.sol\":4105:4115  _priceType */\n      dup10\n        /* \"UmiverseMarket.sol\":4137:4154  _developerAddress */\n      dup10\n        /* \"UmiverseMarket.sol\":4176:4184  _presale */\n      dup10\n        /* \"UmiverseMarket.sol\":4206:4216  _timestamp */\n      dup10\n        /* \"UmiverseMarket.sol\":3923:4234  abi.encodePacked(... */\n      add(0x20, mload(0x40))\n      tag_226\n      swap10\n      swap9\n      swap8\n      swap7\n      swap6\n      swap5\n      swap4\n      swap3\n      swap2\n      swap1\n      tag_227\n      jump\t// in\n    tag_226:\n      mload(0x40)\n      0x20\n      dup2\n      dup4\n      sub\n      sub\n      dup2\n      mstore\n      swap1\n      0x40\n      mstore\n        /* \"UmiverseMarket.sol\":3896:4248  keccak256(... */\n      dup1\n      mload\n      swap1\n      0x20\n      add\n      keccak256\n        /* \"UmiverseMarket.sol\":3877:4248  return... */\n      swap1\n      pop\n        /* \"UmiverseMarket.sol\":3495:4255  function getMessageHash(... */\n      swap10\n      swap9\n      pop\n      pop\n      pop\n      pop\n      pop\n      pop\n      pop\n      pop\n      pop\n      jump\t// out\n        /* \"UmiverseMarket.sol\":1356:1395  uint256 public tradeFeeToRewardFund = 5 */\n    tag_70:\n      sload(0x0e)\n      dup2\n      jump\t// out\n        /* \"UmiverseMarket.sol\":889:960  IERC20 public usdt = IERC20(0x0E9bB892A38d60B53085Af77eda888790Ef1DD33) */\n    tag_73:\n      0x05\n      0x00\n      swap1\n      sload\n      swap1\n      0x0100\n      exp\n      swap1\n      div\n      0xffffffffffffffffffffffffffffffffffffffff\n      and\n      dup2\n      jump\t// out\n        /* \"UmiverseMarket.sol\":966:1037  IERC20 public usdc = IERC20(0x7FC5e3e61700E34218a00cC01E92957A4e6C8883) */\n    tag_77:\n      0x06\n      0x00\n      swap1\n      sload\n      swap1\n      0x0100\n      exp\n      swap1\n      div\n      0xffffffffffffffffffffffffffffffffffffffff\n      and\n      dup2\n      jump\t// out\n        /* \"UmiverseMarket.sol\":712:737  address public feeAddress */\n    tag_80:\n      0x02\n      0x00\n      swap1\n      sload\n      swap1\n      0x0100\n      exp\n      swap1\n      div\n      0xffffffffffffffffffffffffffffffffffffffff\n      and\n      dup2\n      jump\t// out\n        /* \"@gelatonetwork/relay-context/contracts/vendor/ERC2771Context.sol\":489:661  function isTrustedForwarder(address forwarder)... */\n    tag_85:\n        /* \"@gelatonetwork/relay-context/contracts/vendor/ERC2771Context.sol\":597:601  bool */\n      0x00\n        /* \"@gelatonetwork/relay-context/contracts/vendor/ERC2771Context.sol\":637:654  _trustedForwarder */\n      immutable(\"0x13600b294191fc92924bb3ce4b969c1e7e2bab8f4c93c3fc6d0a51733df3c060\")\n        /* \"@gelatonetwork/relay-context/contracts/vendor/ERC2771Context.sol\":624:654  forwarder == _trustedForwarder */\n      0xffffffffffffffffffffffffffffffffffffffff\n      and\n        /* \"@gelatonetwork/relay-context/contracts/vendor/ERC2771Context.sol\":624:633  forwarder */\n      dup3\n        /* \"@gelatonetwork/relay-context/contracts/vendor/ERC2771Context.sol\":624:654  forwarder == _trustedForwarder */\n      0xffffffffffffffffffffffffffffffffffffffff\n      and\n      eq\n        /* \"@gelatonetwork/relay-context/contracts/vendor/ERC2771Context.sol\":617:654  return forwarder == _trustedForwarder */\n      swap1\n      pop\n        /* \"@gelatonetwork/relay-context/contracts/vendor/ERC2771Context.sol\":489:661  function isTrustedForwarder(address forwarder)... */\n      swap2\n      swap1\n      pop\n      jump\t// out\n        /* \"UmiverseMarket.sol\":2789:2875  function setUsdt(address _usdt) public onlyAdmin {... */\n    tag_89:\n        /* \"UmiverseMarket.sol\":1818:1823  admin */\n      0x01\n      0x00\n      swap1\n      sload\n      swap1\n      0x0100\n      exp\n      swap1\n      div\n      0xffffffffffffffffffffffffffffffffffffffff\n      and\n        /* \"UmiverseMarket.sol\":1804:1823  msg.sender == admin */\n      0xffffffffffffffffffffffffffffffffffffffff\n      and\n        /* \"UmiverseMarket.sol\":1804:1814  msg.sender */\n      caller\n        /* \"UmiverseMarket.sol\":1804:1823  msg.sender == admin */\n      0xffffffffffffffffffffffffffffffffffffffff\n      and\n      eq\n        /* \"UmiverseMarket.sol\":1796:1824  require(msg.sender == admin) */\n      tag_230\n      jumpi\n      0x00\n      dup1\n      revert\n    tag_230:\n        /* \"UmiverseMarket.sol\":2862:2867  _usdt */\n      dup1\n        /* \"UmiverseMarket.sol\":2848:2852  usdt */\n      0x05\n      0x00\n        /* \"UmiverseMarket.sol\":2848:2868  usdt = IERC20(_usdt) */\n      0x0100\n      exp\n      dup2\n      sload\n      dup2\n      0xffffffffffffffffffffffffffffffffffffffff\n      mul\n      not\n      and\n      swap1\n      dup4\n      0xffffffffffffffffffffffffffffffffffffffff\n      and\n      mul\n      or\n      swap1\n      sstore\n      pop\n        /* \"UmiverseMarket.sol\":2789:2875  function setUsdt(address _usdt) public onlyAdmin {... */\n      pop\n      jump\t// out\n        /* \"UmiverseMarket.sol\":802:830  address public signerAddress */\n    tag_91:\n      0x04\n      0x00\n      swap1\n      sload\n      swap1\n      0x0100\n      exp\n      swap1\n      div\n      0xffffffffffffffffffffffffffffffffffffffff\n      and\n      dup2\n      jump\t// out\n        /* \"UmiverseMarket.sol\":1272:1305  uint256 public tradeFeeToUmi = 10 */\n    tag_94:\n      sload(0x0c)\n      dup2\n      jump\t// out\n        /* \"UmiverseMarket.sol\":2117:2203  function setAdmin(address _address) public onlyOwner {... */\n    tag_98:\n        /* \"lib/Ownable.sol\":552:557  owner */\n      0x00\n      dup1\n      sload\n      swap1\n      0x0100\n      exp\n      swap1\n      div\n      0xffffffffffffffffffffffffffffffffffffffff\n      and\n        /* \"lib/Ownable.sol\":538:557  msg.sender == owner */\n      0xffffffffffffffffffffffffffffffffffffffff\n      and\n        /* \"lib/Ownable.sol\":538:548  msg.sender */\n      caller\n        /* \"lib/Ownable.sol\":538:557  msg.sender == owner */\n      0xffffffffffffffffffffffffffffffffffffffff\n      and\n      eq\n        /* \"lib/Ownable.sol\":530:558  require(msg.sender == owner) */\n      tag_233\n      jumpi\n      0x00\n      dup1\n      revert\n    tag_233:\n        /* \"UmiverseMarket.sol\":2188:2196  _address */\n      dup1\n        /* \"UmiverseMarket.sol\":2180:2185  admin */\n      0x01\n      0x00\n        /* \"UmiverseMarket.sol\":2180:2196  admin = _address */\n      0x0100\n      exp\n      dup2\n      sload\n      dup2\n      0xffffffffffffffffffffffffffffffffffffffff\n      mul\n      not\n      and\n      swap1\n      dup4\n      0xffffffffffffffffffffffffffffffffffffffff\n      and\n      mul\n      or\n      swap1\n      sstore\n      pop\n        /* \"UmiverseMarket.sol\":2117:2203  function setAdmin(address _address) public onlyOwner {... */\n      pop\n      jump\t// out\n        /* \"lib/Ownable.sol\":995:1106  function renounceOwnership() public onlyOwner {... */\n    tag_100:\n        /* \"lib/Ownable.sol\":552:557  owner */\n      0x00\n      dup1\n      sload\n      swap1\n      0x0100\n      exp\n      swap1\n      div\n      0xffffffffffffffffffffffffffffffffffffffff\n      and\n        /* \"lib/Ownable.sol\":538:557  msg.sender == owner */\n      0xffffffffffffffffffffffffffffffffffffffff\n      and\n        /* \"lib/Ownable.sol\":538:548  msg.sender */\n      caller\n        /* \"lib/Ownable.sol\":538:557  msg.sender == owner */\n      0xffffffffffffffffffffffffffffffffffffffff\n      and\n      eq\n        /* \"lib/Ownable.sol\":530:558  require(msg.sender == owner) */\n      tag_236\n      jumpi\n      0x00\n      dup1\n      revert\n    tag_236:\n        /* \"lib/Ownable.sol\":1071:1076  owner */\n      0x00\n      dup1\n      sload\n      swap1\n      0x0100\n      exp\n      swap1\n      div\n      0xffffffffffffffffffffffffffffffffffffffff\n      and\n        /* \"lib/Ownable.sol\":1052:1077  OwnershipRenounced(owner) */\n      0xffffffffffffffffffffffffffffffffffffffff\n      and\n      0xf8df31144d9c2f0f6b59d69b8b98abd5459d07f2742c4df920b25aae33c64820\n      mload(0x40)\n      mload(0x40)\n      dup1\n      swap2\n      sub\n      swap1\n      log2\n        /* \"lib/Ownable.sol\":1099:1100  0 */\n      0x00\n        /* \"lib/Ownable.sol\":1083:1088  owner */\n      dup1\n      0x00\n        /* \"lib/Ownable.sol\":1083:1101  owner = address(0) */\n      0x0100\n      exp\n      dup2\n      sload\n      dup2\n      0xffffffffffffffffffffffffffffffffffffffff\n      mul\n      not\n      and\n      swap1\n      dup4\n      0xffffffffffffffffffffffffffffffffffffffff\n      and\n      mul\n      or\n      swap1\n      sstore\n      pop\n        /* \"lib/Ownable.sol\":995:1106  function renounceOwnership() public onlyOwner {... */\n      jump\t// out\n        /* \"UmiverseMarket.sol\":750:782  address public rewardPoolAddress */\n    tag_102:\n      0x03\n      0x00\n      swap1\n      sload\n      swap1\n      0x0100\n      exp\n      swap1\n      div\n      0xffffffffffffffffffffffffffffffffffffffff\n      and\n      dup2\n      jump\t// out\n        /* \"UmiverseMarket.sol\":3149:3245  function setFeeAddress(address _address) public onlyAdmin {... */\n    tag_106:\n        /* \"UmiverseMarket.sol\":1818:1823  admin */\n      0x01\n      0x00\n      swap1\n      sload\n      swap1\n      0x0100\n      exp\n      swap1\n      div\n      0xffffffffffffffffffffffffffffffffffffffff\n      and\n        /* \"UmiverseMarket.sol\":1804:1823  msg.sender == admin */\n      0xffffffffffffffffffffffffffffffffffffffff\n      and\n        /* \"UmiverseMarket.sol\":1804:1814  msg.sender */\n      caller\n        /* \"UmiverseMarket.sol\":1804:1823  msg.sender == admin */\n      0xffffffffffffffffffffffffffffffffffffffff\n      and\n      eq\n        /* \"UmiverseMarket.sol\":1796:1824  require(msg.sender == admin) */\n      tag_239\n      jumpi\n      0x00\n      dup1\n      revert\n    tag_239:\n        /* \"UmiverseMarket.sol\":3230:3238  _address */\n      dup1\n        /* \"UmiverseMarket.sol\":3217:3227  feeAddress */\n      0x02\n      0x00\n        /* \"UmiverseMarket.sol\":3217:3238  feeAddress = _address */\n      0x0100\n      exp\n      dup2\n      sload\n      dup2\n      0xffffffffffffffffffffffffffffffffffffffff\n      mul\n      not\n      and\n      swap1\n      dup4\n      0xffffffffffffffffffffffffffffffffffffffff\n      and\n      mul\n      or\n      swap1\n      sstore\n      pop\n        /* \"UmiverseMarket.sol\":3149:3245  function setFeeAddress(address _address) public onlyAdmin {... */\n      pop\n      jump\t// out\n        /* \"UmiverseMarket.sol\":2973:3055  function setUmi(address _umi) public onlyAdmin {... */\n    tag_109:\n        /* \"UmiverseMarket.sol\":1818:1823  admin */\n      0x01\n      0x00\n      swap1\n      sload\n      swap1\n      0x0100\n      exp\n      swap1\n      div\n      0xffffffffffffffffffffffffffffffffffffffff\n      and\n        /* \"UmiverseMarket.sol\":1804:1823  msg.sender == admin */\n      0xffffffffffffffffffffffffffffffffffffffff\n      and\n        /* \"UmiverseMarket.sol\":1804:1814  msg.sender */\n      caller\n        /* \"UmiverseMarket.sol\":1804:1823  msg.sender == admin */\n      0xffffffffffffffffffffffffffffffffffffffff\n      and\n      eq\n        /* \"UmiverseMarket.sol\":1796:1824  require(msg.sender == admin) */\n      tag_242\n      jumpi\n      0x00\n      dup1\n      revert\n    tag_242:\n        /* \"UmiverseMarket.sol\":3043:3047  _umi */\n      dup1\n        /* \"UmiverseMarket.sol\":3030:3033  umi */\n      0x07\n      0x00\n        /* \"UmiverseMarket.sol\":3030:3048  umi = IERC20(_umi) */\n      0x0100\n      exp\n      dup2\n      sload\n      dup2\n      0xffffffffffffffffffffffffffffffffffffffff\n      mul\n      not\n      and\n      swap1\n      dup4\n      0xffffffffffffffffffffffffffffffffffffffff\n      and\n      mul\n      or\n      swap1\n      sstore\n      pop\n        /* \"UmiverseMarket.sol\":2973:3055  function setUmi(address _umi) public onlyAdmin {... */\n      pop\n      jump\t// out\n        /* \"UmiverseMarket.sol\":1087:1125  IERC20 public eth = IERC20(address(0)) */\n    tag_111:\n      0x08\n      0x00\n      swap1\n      sload\n      swap1\n      0x0100\n      exp\n      swap1\n      div\n      0xffffffffffffffffffffffffffffffffffffffff\n      and\n      dup2\n      jump\t// out\n        /* \"lib/Ownable.sol\":78:98  address public owner */\n    tag_114:\n      0x00\n      dup1\n      sload\n      swap1\n      0x0100\n      exp\n      swap1\n      div\n      0xffffffffffffffffffffffffffffffffffffffff\n      and\n      dup2\n      jump\t// out\n        /* \"UmiverseMarket.sol\":1043:1081  IERC20 public umi = IERC20(address(0)) */\n    tag_117:\n      0x07\n      0x00\n      swap1\n      sload\n      swap1\n      0x0100\n      exp\n      swap1\n      div\n      0xffffffffffffffffffffffffffffffffffffffff\n      and\n      dup2\n      jump\t// out\n        /* \"UmiverseMarket.sol\":5765:6037  function recoverSignerPublic(... */\n    tag_122:\n        /* \"UmiverseMarket.sol\":5893:5900  address */\n      0x00\n        /* \"UmiverseMarket.sol\":5913:5922  bytes32 r */\n      dup1\n        /* \"UmiverseMarket.sol\":5924:5933  bytes32 s */\n      0x00\n        /* \"UmiverseMarket.sol\":5935:5942  uint8 v */\n      dup1\n        /* \"UmiverseMarket.sol\":5946:5972  splitSignature(_signature) */\n      tag_245\n        /* \"UmiverseMarket.sol\":5961:5971  _signature */\n      dup6\n        /* \"UmiverseMarket.sol\":5946:5960  splitSignature */\n      tag_246\n        /* \"UmiverseMarket.sol\":5946:5972  splitSignature(_signature) */\n      jump\t// in\n    tag_245:\n        /* \"UmiverseMarket.sol\":5912:5972  (bytes32 r, bytes32 s, uint8 v) = splitSignature(_signature) */\n      swap3\n      pop\n      swap3\n      pop\n      swap3\n      pop\n        /* \"UmiverseMarket.sol\":5989:6030  ecrecover(_ethSignedMessageHash, v, r, s) */\n      0x01\n        /* \"UmiverseMarket.sol\":5999:6020  _ethSignedMessageHash */\n      dup7\n        /* \"UmiverseMarket.sol\":6022:6023  v */\n      dup3\n        /* \"UmiverseMarket.sol\":6025:6026  r */\n      dup6\n        /* \"UmiverseMarket.sol\":6028:6029  s */\n      dup6\n        /* \"UmiverseMarket.sol\":5989:6030  ecrecover(_ethSignedMessageHash, v, r, s) */\n      mload(0x40)\n      0x00\n      dup2\n      mstore\n      0x20\n      add\n      0x40\n      mstore\n      mload(0x40)\n      tag_247\n      swap5\n      swap4\n      swap3\n      swap2\n      swap1\n      tag_248\n      jump\t// in\n    tag_247:\n      0x20\n      mload(0x40)\n      0x20\n      dup2\n      sub\n      swap1\n      dup1\n      dup5\n      sub\n      swap1\n      dup6\n      gas\n      staticcall\n      iszero\n      dup1\n      iszero\n      tag_250\n      jumpi\n      returndatasize\n      0x00\n      dup1\n      returndatacopy\n      revert(0x00, returndatasize)\n    tag_250:\n      pop\n      pop\n      pop\n      mload(sub(mload(0x40), 0x20))\n        /* \"UmiverseMarket.sol\":5982:6030  return ecrecover(_ethSignedMessageHash, v, r, s) */\n      swap4\n      pop\n      pop\n      pop\n      pop\n        /* \"UmiverseMarket.sol\":5765:6037  function recoverSignerPublic(... */\n      swap3\n      swap2\n      pop\n      pop\n      jump\t// out\n        /* \"UmiverseMarket.sol\":3359:3489  function setRewardPoolAddress(address _rewardPoolAddress) public onlyAdmin {... */\n    tag_126:\n        /* \"UmiverseMarket.sol\":1818:1823  admin */\n      0x01\n      0x00\n      swap1\n      sload\n      swap1\n      0x0100\n      exp\n      swap1\n      div\n      0xffffffffffffffffffffffffffffffffffffffff\n      and\n        /* \"UmiverseMarket.sol\":1804:1823  msg.sender == admin */\n      0xffffffffffffffffffffffffffffffffffffffff\n      and\n        /* \"UmiverseMarket.sol\":1804:1814  msg.sender */\n      caller\n        /* \"UmiverseMarket.sol\":1804:1823  msg.sender == admin */\n      0xffffffffffffffffffffffffffffffffffffffff\n      and\n      eq\n        /* \"UmiverseMarket.sol\":1796:1824  require(msg.sender == admin) */\n      tag_252\n      jumpi\n      0x00\n      dup1\n      revert\n    tag_252:\n        /* \"UmiverseMarket.sol\":3464:3482  _rewardPoolAddress */\n      dup1\n        /* \"UmiverseMarket.sol\":3444:3461  rewardPoolAddress */\n      0x03\n      0x00\n        /* \"UmiverseMarket.sol\":3444:3482  rewardPoolAddress = _rewardPoolAddress */\n      0x0100\n      exp\n      dup2\n      sload\n      dup2\n      0xffffffffffffffffffffffffffffffffffffffff\n      mul\n      not\n      and\n      swap1\n      dup4\n      0xffffffffffffffffffffffffffffffffffffffff\n      and\n      mul\n      or\n      swap1\n      sstore\n      pop\n        /* \"UmiverseMarket.sol\":3359:3489  function setRewardPoolAddress(address _rewardPoolAddress) public onlyAdmin {... */\n      pop\n      jump\t// out\n        /* \"UmiverseMarket.sol\":2209:2783  function setFee(... */\n    tag_130:\n        /* \"lib/Ownable.sol\":552:557  owner */\n      0x00\n      dup1\n      sload\n      swap1\n      0x0100\n      exp\n      swap1\n      div\n      0xffffffffffffffffffffffffffffffffffffffff\n      and\n        /* \"lib/Ownable.sol\":538:557  msg.sender == owner */\n      0xffffffffffffffffffffffffffffffffffffffff\n      and\n        /* \"lib/Ownable.sol\":538:548  msg.sender */\n      caller\n        /* \"lib/Ownable.sol\":538:557  msg.sender == owner */\n      0xffffffffffffffffffffffffffffffffffffffff\n      and\n      eq\n        /* \"lib/Ownable.sol\":530:558  require(msg.sender == owner) */\n      tag_255\n      jumpi\n      0x00\n      dup1\n      revert\n    tag_255:\n        /* \"UmiverseMarket.sol\":2506:2528  _presaleFeeToDeveloper */\n      dup6\n        /* \"UmiverseMarket.sol\":2482:2503  presaleFeeToDeveloper */\n      0x09\n        /* \"UmiverseMarket.sol\":2482:2528  presaleFeeToDeveloper = _presaleFeeToDeveloper */\n      dup2\n      swap1\n      sstore\n      pop\n        /* \"UmiverseMarket.sol\":2556:2572  _presaleFeeToUmi */\n      dup5\n        /* \"UmiverseMarket.sol\":2538:2553  presaleFeeToUmi */\n      0x0a\n        /* \"UmiverseMarket.sol\":2538:2572  presaleFeeToUmi = _presaleFeeToUmi */\n      dup2\n      swap1\n      sstore\n      pop\n        /* \"UmiverseMarket.sol\":2607:2630  _presaleFeeToRewardFund */\n      dup4\n        /* \"UmiverseMarket.sol\":2582:2604  presaleFeeToRewardFund */\n      0x0b\n        /* \"UmiverseMarket.sol\":2582:2630  presaleFeeToRewardFund = _presaleFeeToRewardFund */\n      dup2\n      swap1\n      sstore\n      pop\n        /* \"UmiverseMarket.sol\":2656:2670  _tradeFeeToUmi */\n      dup3\n        /* \"UmiverseMarket.sol\":2640:2653  tradeFeeToUmi */\n      0x0c\n        /* \"UmiverseMarket.sol\":2640:2670  tradeFeeToUmi = _tradeFeeToUmi */\n      dup2\n      swap1\n      sstore\n      pop\n        /* \"UmiverseMarket.sol\":2702:2722  _tradeFeeToDeveloper */\n      dup2\n        /* \"UmiverseMarket.sol\":2680:2699  tradeFeeToDeveloper */\n      0x0d\n        /* \"UmiverseMarket.sol\":2680:2722  tradeFeeToDeveloper = _tradeFeeToDeveloper */\n      dup2\n      swap1\n      sstore\n      pop\n        /* \"UmiverseMarket.sol\":2755:2776  _tradeFeeToRewardFund */\n      dup1\n        /* \"UmiverseMarket.sol\":2732:2752  tradeFeeToRewardFund */\n      0x0e\n        /* \"UmiverseMarket.sol\":2732:2776  tradeFeeToRewardFund = _tradeFeeToRewardFund */\n      dup2\n      swap1\n      sstore\n      pop\n        /* \"UmiverseMarket.sol\":2209:2783  function setFee(... */\n      pop\n      pop\n      pop\n      pop\n      pop\n      pop\n      jump\t// out\n        /* \"UmiverseMarket.sol\":2881:2967  function setUsdc(address _usdc) public onlyAdmin {... */\n    tag_133:\n        /* \"UmiverseMarket.sol\":1818:1823  admin */\n      0x01\n      0x00\n      swap1\n      sload\n      swap1\n      0x0100\n      exp\n      swap1\n      div\n      0xffffffffffffffffffffffffffffffffffffffff\n      and\n        /* \"UmiverseMarket.sol\":1804:1823  msg.sender == admin */\n      0xffffffffffffffffffffffffffffffffffffffff\n      and\n        /* \"UmiverseMarket.sol\":1804:1814  msg.sender */\n      caller\n        /* \"UmiverseMarket.sol\":1804:1823  msg.sender == admin */\n      0xffffffffffffffffffffffffffffffffffffffff\n      and\n      eq\n        /* \"UmiverseMarket.sol\":1796:1824  require(msg.sender == admin) */\n      tag_258\n      jumpi\n      0x00\n      dup1\n      revert\n    tag_258:\n        /* \"UmiverseMarket.sol\":2954:2959  _usdc */\n      dup1\n        /* \"UmiverseMarket.sol\":2940:2944  usdc */\n      0x06\n      0x00\n        /* \"UmiverseMarket.sol\":2940:2960  usdc = IERC20(_usdc) */\n      0x0100\n      exp\n      dup2\n      sload\n      dup2\n      0xffffffffffffffffffffffffffffffffffffffff\n      mul\n      not\n      and\n      swap1\n      dup4\n      0xffffffffffffffffffffffffffffffffffffffff\n      and\n      mul\n      or\n      swap1\n      sstore\n      pop\n        /* \"UmiverseMarket.sol\":2881:2967  function setUsdc(address _usdc) public onlyAdmin {... */\n      pop\n      jump\t// out\n        /* \"UmiverseMarket.sol\":1311:1350  uint256 public tradeFeeToDeveloper = 10 */\n    tag_135:\n      sload(0x0d)\n      dup2\n      jump\t// out\n        /* \"UmiverseMarket.sol\":1132:1174  uint256 public presaleFeeToDeveloper = 490 */\n    tag_138:\n      sload(0x09)\n      dup2\n      jump\t// out\n        /* \"UmiverseMarket.sol\":1180:1216  uint256 public presaleFeeToUmi = 210 */\n    tag_141:\n      sload(0x0a)\n      dup2\n      jump\t// out\n        /* \"UmiverseMarket.sol\":8217:10932  function buy(... */\n    tag_145:\n        /* \"UmiverseMarket.sol\":2003:2033  isTrustedForwarder(msg.sender) */\n      tag_261\n        /* \"UmiverseMarket.sol\":2022:2032  msg.sender */\n      caller\n        /* \"UmiverseMarket.sol\":2003:2021  isTrustedForwarder */\n      tag_85\n        /* \"UmiverseMarket.sol\":2003:2033  isTrustedForwarder(msg.sender) */\n      jump\t// in\n    tag_261:\n        /* \"UmiverseMarket.sol\":1982:2093  require(... */\n      tag_262\n      jumpi\n      mload(0x40)\n      0x08c379a000000000000000000000000000000000000000000000000000000000\n      dup2\n      mstore\n      0x04\n      add\n      tag_263\n      swap1\n      tag_170\n      jump\t// in\n    tag_263:\n      mload(0x40)\n      dup1\n      swap2\n      sub\n      swap1\n      revert\n    tag_262:\n        /* \"UmiverseMarket.sol\":8600:8601  0 */\n      0x00\n        /* \"UmiverseMarket.sol\":8582:8602  _buyer != address(0) */\n      0xffffffffffffffffffffffffffffffffffffffff\n      and\n        /* \"UmiverseMarket.sol\":8582:8588  _buyer */\n      dup11\n        /* \"UmiverseMarket.sol\":8582:8602  _buyer != address(0) */\n      0xffffffffffffffffffffffffffffffffffffffff\n      and\n      sub\n        /* \"UmiverseMarket.sol\":8574:8636  require(_buyer != address(0), \"CV: buyer to the zero address\") */\n      tag_265\n      jumpi\n      mload(0x40)\n      0x08c379a000000000000000000000000000000000000000000000000000000000\n      dup2\n      mstore\n      0x04\n      add\n      tag_266\n      swap1\n      tag_174\n      jump\t// in\n    tag_266:\n      mload(0x40)\n      dup1\n      swap2\n      sub\n      swap1\n      revert\n    tag_265:\n        /* \"UmiverseMarket.sol\":8667:8956  verify(... */\n      tag_267\n        /* \"UmiverseMarket.sol\":8691:8697  _buyer */\n      dup11\n        /* \"UmiverseMarket.sol\":8715:8722  _seller */\n      dup4\n        /* \"UmiverseMarket.sol\":8740:8748  _tokenid */\n      dup12\n        /* \"UmiverseMarket.sol\":8766:8772  _price */\n      dup12\n        /* \"UmiverseMarket.sol\":8790:8797  _amount */\n      dup12\n        /* \"UmiverseMarket.sol\":8815:8825  _priceType */\n      dup12\n        /* \"UmiverseMarket.sol\":8843:8860  _developerAddress */\n      dup12\n        /* \"UmiverseMarket.sol\":8878:8886  _presale */\n      dup12\n        /* \"UmiverseMarket.sol\":8904:8914  _timestamp */\n      dup12\n        /* \"UmiverseMarket.sol\":8932:8942  _signature */\n      dup11\n        /* \"UmiverseMarket.sol\":8667:8673  verify */\n      tag_176\n        /* \"UmiverseMarket.sol\":8667:8956  verify(... */\n      jump\t// in\n    tag_267:\n        /* \"UmiverseMarket.sol\":8646:9004  require(... */\n      tag_268\n      jumpi\n      mload(0x40)\n      0x08c379a000000000000000000000000000000000000000000000000000000000\n      dup2\n      mstore\n      0x04\n      add\n      tag_269\n      swap1\n      tag_179\n      jump\t// in\n    tag_269:\n      mload(0x40)\n      dup1\n      swap2\n      sub\n      swap1\n      revert\n    tag_268:\n        /* \"UmiverseMarket.sol\":9032:9039  _amount */\n      dup7\n        /* \"UmiverseMarket.sol\":9022:9028  _price */\n      dup9\n        /* \"UmiverseMarket.sol\":9022:9039  _price == _amount */\n      eq\n        /* \"UmiverseMarket.sol\":9014:9062  require(_price == _amount, \"CV: invalid amount\") */\n      tag_270\n      jumpi\n      mload(0x40)\n      0x08c379a000000000000000000000000000000000000000000000000000000000\n      dup2\n      mstore\n      0x04\n      add\n      tag_271\n      swap1\n      tag_182\n      jump\t// in\n    tag_271:\n      mload(0x40)\n      dup1\n      swap2\n      sub\n      swap1\n      revert\n    tag_270:\n        /* \"UmiverseMarket.sol\":9125:9126  0 */\n      0x00\n        /* \"UmiverseMarket.sol\":9115:9122  _amount */\n      dup8\n        /* \"UmiverseMarket.sol\":9115:9126  _amount > 0 */\n      gt\n        /* \"UmiverseMarket.sol\":9111:10646  if (_amount > 0) {... */\n      iszero\n      tag_272\n      jumpi\n        /* \"UmiverseMarket.sol\":9146:9180  compareStrings(_priceType, \"usdt\") */\n      tag_273\n        /* \"UmiverseMarket.sol\":9161:9171  _priceType */\n      dup7\n        /* \"UmiverseMarket.sol\":9146:9180  compareStrings(_priceType, \"usdt\") */\n      mload(0x40)\n      dup1\n      0x40\n      add\n      0x40\n      mstore\n      dup1\n      0x04\n      dup2\n      mstore\n      0x20\n      add\n      0x7573647400000000000000000000000000000000000000000000000000000000\n      dup2\n      mstore\n      pop\n        /* \"UmiverseMarket.sol\":9146:9160  compareStrings */\n      tag_157\n        /* \"UmiverseMarket.sol\":9146:9180  compareStrings(_priceType, \"usdt\") */\n      jump\t// in\n    tag_273:\n        /* \"UmiverseMarket.sol\":9142:9507  if (compareStrings(_priceType, \"usdt\")) {... */\n      iszero\n      tag_274\n      jumpi\n        /* \"UmiverseMarket.sol\":9233:9234  0 */\n      0x00\n        /* \"UmiverseMarket.sol\":9208:9235  address(usdt) != address(0) */\n      0xffffffffffffffffffffffffffffffffffffffff\n      and\n        /* \"UmiverseMarket.sol\":9216:9220  usdt */\n      0x05\n      0x00\n      swap1\n      sload\n      swap1\n      0x0100\n      exp\n      swap1\n      div\n      0xffffffffffffffffffffffffffffffffffffffff\n      and\n        /* \"UmiverseMarket.sol\":9208:9235  address(usdt) != address(0) */\n      0xffffffffffffffffffffffffffffffffffffffff\n      and\n      sub\n        /* \"UmiverseMarket.sol\":9200:9263  require(address(usdt) != address(0), \"usdt address not config\") */\n      tag_275\n      jumpi\n      mload(0x40)\n      0x08c379a000000000000000000000000000000000000000000000000000000000\n      dup2\n      mstore\n      0x04\n      add\n      tag_276\n      swap1\n      tag_188\n      jump\t// in\n    tag_276:\n      mload(0x40)\n      dup1\n      swap2\n      sub\n      swap1\n      revert\n    tag_275:\n        /* \"UmiverseMarket.sol\":9281:9492  processTrade(... */\n      tag_277\n        /* \"UmiverseMarket.sol\":9315:9319  usdt */\n      0x05\n      0x00\n      swap1\n      sload\n      swap1\n      0x0100\n      exp\n      swap1\n      div\n      0xffffffffffffffffffffffffffffffffffffffff\n      and\n        /* \"UmiverseMarket.sol\":9341:9347  _buyer */\n      dup12\n        /* \"UmiverseMarket.sol\":9369:9376  _seller */\n      dup5\n        /* \"UmiverseMarket.sol\":9398:9415  _developerAddress */\n      dup9\n        /* \"UmiverseMarket.sol\":9437:9445  _presale */\n      dup9\n        /* \"UmiverseMarket.sol\":9467:9474  _amount */\n      dup13\n        /* \"UmiverseMarket.sol\":9281:9293  processTrade */\n      tag_190\n        /* \"UmiverseMarket.sol\":9281:9492  processTrade(... */\n      jump\t// in\n    tag_277:\n        /* \"UmiverseMarket.sol\":9142:9507  if (compareStrings(_priceType, \"usdt\")) {... */\n    tag_274:\n        /* \"UmiverseMarket.sol\":9525:9559  compareStrings(_priceType, \"usdc\") */\n      tag_278\n        /* \"UmiverseMarket.sol\":9540:9550  _priceType */\n      dup7\n        /* \"UmiverseMarket.sol\":9525:9559  compareStrings(_priceType, \"usdc\") */\n      mload(0x40)\n      dup1\n      0x40\n      add\n      0x40\n      mstore\n      dup1\n      0x04\n      dup2\n      mstore\n      0x20\n      add\n      0x7573646300000000000000000000000000000000000000000000000000000000\n      dup2\n      mstore\n      pop\n        /* \"UmiverseMarket.sol\":9525:9539  compareStrings */\n      tag_157\n        /* \"UmiverseMarket.sol\":9525:9559  compareStrings(_priceType, \"usdc\") */\n      jump\t// in\n    tag_278:\n        /* \"UmiverseMarket.sol\":9521:9886  if (compareStrings(_priceType, \"usdc\")) {... */\n      iszero\n      tag_279\n      jumpi\n        /* \"UmiverseMarket.sol\":9612:9613  0 */\n      0x00\n        /* \"UmiverseMarket.sol\":9587:9614  address(usdc) != address(0) */\n      0xffffffffffffffffffffffffffffffffffffffff\n      and\n        /* \"UmiverseMarket.sol\":9595:9599  usdc */\n      0x06\n      0x00\n      swap1\n      sload\n      swap1\n      0x0100\n      exp\n      swap1\n      div\n      0xffffffffffffffffffffffffffffffffffffffff\n      and\n        /* \"UmiverseMarket.sol\":9587:9614  address(usdc) != address(0) */\n      0xffffffffffffffffffffffffffffffffffffffff\n      and\n      sub\n        /* \"UmiverseMarket.sol\":9579:9642  require(address(usdc) != address(0), \"usdc address not config\") */\n      tag_280\n      jumpi\n      mload(0x40)\n      0x08c379a000000000000000000000000000000000000000000000000000000000\n      dup2\n      mstore\n      0x04\n      add\n      tag_281\n      swap1\n      tag_195\n      jump\t// in\n    tag_281:\n      mload(0x40)\n      dup1\n      swap2\n      sub\n      swap1\n      revert\n    tag_280:\n        /* \"UmiverseMarket.sol\":9660:9871  processTrade(... */\n      tag_282\n        /* \"UmiverseMarket.sol\":9694:9698  usdc */\n      0x06\n      0x00\n      swap1\n      sload\n      swap1\n      0x0100\n      exp\n      swap1\n      div\n      0xffffffffffffffffffffffffffffffffffffffff\n      and\n        /* \"UmiverseMarket.sol\":9720:9726  _buyer */\n      dup12\n        /* \"UmiverseMarket.sol\":9748:9755  _seller */\n      dup5\n        /* \"UmiverseMarket.sol\":9777:9794  _developerAddress */\n      dup9\n        /* \"UmiverseMarket.sol\":9816:9824  _presale */\n      dup9\n        /* \"UmiverseMarket.sol\":9846:9853  _amount */\n      dup13\n        /* \"UmiverseMarket.sol\":9660:9672  processTrade */\n      tag_190\n        /* \"UmiverseMarket.sol\":9660:9871  processTrade(... */\n      jump\t// in\n    tag_282:\n        /* \"UmiverseMarket.sol\":9521:9886  if (compareStrings(_priceType, \"usdc\")) {... */\n    tag_279:\n        /* \"UmiverseMarket.sol\":9904:9937  compareStrings(_priceType, \"eth\") */\n      tag_283\n        /* \"UmiverseMarket.sol\":9919:9929  _priceType */\n      dup7\n        /* \"UmiverseMarket.sol\":9904:9937  compareStrings(_priceType, \"eth\") */\n      mload(0x40)\n      dup1\n      0x40\n      add\n      0x40\n      mstore\n      dup1\n      0x03\n      dup2\n      mstore\n      0x20\n      add\n      0x6574680000000000000000000000000000000000000000000000000000000000\n      dup2\n      mstore\n      pop\n        /* \"UmiverseMarket.sol\":9904:9918  compareStrings */\n      tag_157\n        /* \"UmiverseMarket.sol\":9904:9937  compareStrings(_priceType, \"eth\") */\n      jump\t// in\n    tag_283:\n        /* \"UmiverseMarket.sol\":9900:10261  if (compareStrings(_priceType, \"eth\")) {... */\n      iszero\n      tag_284\n      jumpi\n        /* \"UmiverseMarket.sol\":9989:9990  0 */\n      0x00\n        /* \"UmiverseMarket.sol\":9965:9991  address(eth) != address(0) */\n      0xffffffffffffffffffffffffffffffffffffffff\n      and\n        /* \"UmiverseMarket.sol\":9973:9976  eth */\n      0x08\n      0x00\n      swap1\n      sload\n      swap1\n      0x0100\n      exp\n      swap1\n      div\n      0xffffffffffffffffffffffffffffffffffffffff\n      and\n        /* \"UmiverseMarket.sol\":9965:9991  address(eth) != address(0) */\n      0xffffffffffffffffffffffffffffffffffffffff\n      and\n      sub\n        /* \"UmiverseMarket.sol\":9957:10018  require(address(eth) != address(0), \"eth address not config\") */\n      tag_285\n      jumpi\n      mload(0x40)\n      0x08c379a000000000000000000000000000000000000000000000000000000000\n      dup2\n      mstore\n      0x04\n      add\n      tag_286\n      swap1\n      tag_201\n      jump\t// in\n    tag_286:\n      mload(0x40)\n      dup1\n      swap2\n      sub\n      swap1\n      revert\n    tag_285:\n        /* \"UmiverseMarket.sol\":10036:10246  processTrade(... */\n      tag_287\n        /* \"UmiverseMarket.sol\":10070:10073  eth */\n      0x08\n      0x00\n      swap1\n      sload\n      swap1\n      0x0100\n      exp\n      swap1\n      div\n      0xffffffffffffffffffffffffffffffffffffffff\n      and\n        /* \"UmiverseMarket.sol\":10095:10101  _buyer */\n      dup12\n        /* \"UmiverseMarket.sol\":10123:10130  _seller */\n      dup5\n        /* \"UmiverseMarket.sol\":10152:10169  _developerAddress */\n      dup9\n        /* \"UmiverseMarket.sol\":10191:10199  _presale */\n      dup9\n        /* \"UmiverseMarket.sol\":10221:10228  _amount */\n      dup13\n        /* \"UmiverseMarket.sol\":10036:10048  processTrade */\n      tag_190\n        /* \"UmiverseMarket.sol\":10036:10246  processTrade(... */\n      jump\t// in\n    tag_287:\n        /* \"UmiverseMarket.sol\":9900:10261  if (compareStrings(_priceType, \"eth\")) {... */\n    tag_284:\n        /* \"UmiverseMarket.sol\":10279:10312  compareStrings(_priceType, \"umi\") */\n      tag_288\n        /* \"UmiverseMarket.sol\":10294:10304  _priceType */\n      dup7\n        /* \"UmiverseMarket.sol\":10279:10312  compareStrings(_priceType, \"umi\") */\n      mload(0x40)\n      dup1\n      0x40\n      add\n      0x40\n      mstore\n      dup1\n      0x03\n      dup2\n      mstore\n      0x20\n      add\n      0x756d690000000000000000000000000000000000000000000000000000000000\n      dup2\n      mstore\n      pop\n        /* \"UmiverseMarket.sol\":10279:10293  compareStrings */\n      tag_157\n        /* \"UmiverseMarket.sol\":10279:10312  compareStrings(_priceType, \"umi\") */\n      jump\t// in\n    tag_288:\n        /* \"UmiverseMarket.sol\":10275:10636  if (compareStrings(_priceType, \"umi\")) {... */\n      iszero\n      tag_289\n      jumpi\n        /* \"UmiverseMarket.sol\":10364:10365  0 */\n      0x00\n        /* \"UmiverseMarket.sol\":10340:10366  address(umi) != address(0) */\n      0xffffffffffffffffffffffffffffffffffffffff\n      and\n        /* \"UmiverseMarket.sol\":10348:10351  umi */\n      0x07\n      0x00\n      swap1\n      sload\n      swap1\n      0x0100\n      exp\n      swap1\n      div\n      0xffffffffffffffffffffffffffffffffffffffff\n      and\n        /* \"UmiverseMarket.sol\":10340:10366  address(umi) != address(0) */\n      0xffffffffffffffffffffffffffffffffffffffff\n      and\n      sub\n        /* \"UmiverseMarket.sol\":10332:10393  require(address(umi) != address(0), \"umi address not config\") */\n      tag_290\n      jumpi\n      mload(0x40)\n      0x08c379a000000000000000000000000000000000000000000000000000000000\n      dup2\n      mstore\n      0x04\n      add\n      tag_291\n      swap1\n      tag_207\n      jump\t// in\n    tag_291:\n      mload(0x40)\n      dup1\n      swap2\n      sub\n      swap1\n      revert\n    tag_290:\n        /* \"UmiverseMarket.sol\":10411:10621  processTrade(... */\n      tag_292\n        /* \"UmiverseMarket.sol\":10445:10448  umi */\n      0x07\n      0x00\n      swap1\n      sload\n      swap1\n      0x0100\n      exp\n      swap1\n      div\n      0xffffffffffffffffffffffffffffffffffffffff\n      and\n        /* \"UmiverseMarket.sol\":10470:10476  _buyer */\n      dup12\n        /* \"UmiverseMarket.sol\":10498:10505  _seller */\n      dup5\n        /* \"UmiverseMarket.sol\":10527:10544  _developerAddress */\n      dup9\n        /* \"UmiverseMarket.sol\":10566:10574  _presale */\n      dup9\n        /* \"UmiverseMarket.sol\":10596:10603  _amount */\n      dup13\n        /* \"UmiverseMarket.sol\":10411:10423  processTrade */\n      tag_190\n        /* \"UmiverseMarket.sol\":10411:10621  processTrade(... */\n      jump\t// in\n    tag_292:\n        /* \"UmiverseMarket.sol\":10275:10636  if (compareStrings(_priceType, \"umi\")) {... */\n    tag_289:\n        /* \"UmiverseMarket.sol\":9111:10646  if (_amount > 0) {... */\n    tag_272:\n        /* \"UmiverseMarket.sol\":10656:10674  bytes memory _data */\n      0x60\n        /* \"UmiverseMarket.sol\":10706:10709  nft */\n      dup12\n        /* \"UmiverseMarket.sol\":10706:10726  nft.isApprovedForAll */\n      0xffffffffffffffffffffffffffffffffffffffff\n      and\n      0xe985e9c5\n        /* \"UmiverseMarket.sol\":10727:10734  _seller */\n      dup5\n        /* \"UmiverseMarket.sol\":10744:10748  this */\n      address\n        /* \"UmiverseMarket.sol\":10706:10750  nft.isApprovedForAll(_seller, address(this)) */\n      mload(0x40)\n      dup4\n      0xffffffff\n      and\n      0xe0\n      shl\n      dup2\n      mstore\n      0x04\n      add\n      tag_293\n      swap3\n      swap2\n      swap1\n      tag_294\n      jump\t// in\n    tag_293:\n      0x20\n      mload(0x40)\n      dup1\n      dup4\n      sub\n      dup2\n      dup7\n      gas\n      staticcall\n      iszero\n      dup1\n      iszero\n      tag_296\n      jumpi\n      returndatasize\n      0x00\n      dup1\n      returndatacopy\n      revert(0x00, returndatasize)\n    tag_296:\n      pop\n      pop\n      pop\n      pop\n      mload(0x40)\n      returndatasize\n      not(0x1f)\n      0x1f\n      dup3\n      add\n      and\n      dup3\n      add\n      dup1\n      0x40\n      mstore\n      pop\n      dup2\n      add\n      swap1\n      tag_297\n      swap2\n      swap1\n      tag_298\n      jump\t// in\n    tag_297:\n        /* \"UmiverseMarket.sol\":10685:10802  require(... */\n      tag_299\n      jumpi\n      mload(0x40)\n      0x08c379a000000000000000000000000000000000000000000000000000000000\n      dup2\n      mstore\n      0x04\n      add\n      tag_300\n      swap1\n      tag_301\n      jump\t// in\n    tag_300:\n      mload(0x40)\n      dup1\n      swap2\n      sub\n      swap1\n      revert\n    tag_299:\n        /* \"UmiverseMarket.sol\":10812:10815  nft */\n      dup12\n        /* \"UmiverseMarket.sol\":10812:10832  nft.safeTransferFrom */\n      0xffffffffffffffffffffffffffffffffffffffff\n      and\n      0xb88d4fde\n        /* \"UmiverseMarket.sol\":10833:10840  _seller */\n      dup5\n        /* \"UmiverseMarket.sol\":10842:10848  _buyer */\n      dup14\n        /* \"UmiverseMarket.sol\":10850:10858  _tokenid */\n      dup14\n        /* \"UmiverseMarket.sol\":10860:10865  _data */\n      dup6\n        /* \"UmiverseMarket.sol\":10812:10866  nft.safeTransferFrom(_seller, _buyer, _tokenid, _data) */\n      mload(0x40)\n      dup6\n      0xffffffff\n      and\n      0xe0\n      shl\n      dup2\n      mstore\n      0x04\n      add\n      tag_302\n      swap5\n      swap4\n      swap3\n      swap2\n      swap1\n      tag_210\n      jump\t// in\n    tag_302:\n      0x00\n      mload(0x40)\n      dup1\n      dup4\n      sub\n      dup2\n      0x00\n      dup8\n      dup1\n      extcodesize\n      iszero\n      dup1\n      iszero\n      tag_303\n      jumpi\n      0x00\n      dup1\n      revert\n    tag_303:\n      pop\n      gas\n      call\n      iszero\n      dup1\n      iszero\n      tag_305\n      jumpi\n      returndatasize\n      0x00\n      dup1\n      returndatacopy\n      revert(0x00, returndatasize)\n    tag_305:\n      pop\n      pop\n      pop\n      pop\n        /* \"UmiverseMarket.sol\":10881:10925  Buy(_tokenid * 1e8, _price, _buyer, _seller) */\n      0x73ee6083753970c82cf2d93ff7bb0432e00e0155c4096741ea134c74f67eb02b\n        /* \"UmiverseMarket.sol\":10896:10899  1e8 */\n      0x05f5e100\n        /* \"UmiverseMarket.sol\":10885:10893  _tokenid */\n      dup12\n        /* \"UmiverseMarket.sol\":10885:10899  _tokenid * 1e8 */\n      tag_306\n      swap2\n      swap1\n      tag_215\n      jump\t// in\n    tag_306:\n        /* \"UmiverseMarket.sol\":10901:10907  _price */\n      dup11\n        /* \"UmiverseMarket.sol\":10909:10915  _buyer */\n      dup14\n        /* \"UmiverseMarket.sol\":10917:10924  _seller */\n      dup7\n        /* \"UmiverseMarket.sol\":10881:10925  Buy(_tokenid * 1e8, _price, _buyer, _seller) */\n      mload(0x40)\n      tag_307\n      swap5\n      swap4\n      swap3\n      swap2\n      swap1\n      tag_217\n      jump\t// in\n    tag_307:\n      mload(0x40)\n      dup1\n      swap2\n      sub\n      swap1\n      log1\n        /* \"UmiverseMarket.sol\":8564:10932  {... */\n      pop\n        /* \"UmiverseMarket.sol\":8217:10932  function buy(... */\n      pop\n      pop\n      pop\n      pop\n      pop\n      pop\n      pop\n      pop\n      pop\n      pop\n      pop\n      jump\t// out\n        /* \"lib/Ownable.sol\":731:905  function transferOwnership(address newOwner) public onlyOwner {... */\n    tag_148:\n        /* \"lib/Ownable.sol\":552:557  owner */\n      0x00\n      dup1\n      sload\n      swap1\n      0x0100\n      exp\n      swap1\n      div\n      0xffffffffffffffffffffffffffffffffffffffff\n      and\n        /* \"lib/Ownable.sol\":538:557  msg.sender == owner */\n      0xffffffffffffffffffffffffffffffffffffffff\n      and\n        /* \"lib/Ownable.sol\":538:548  msg.sender */\n      caller\n        /* \"lib/Ownable.sol\":538:557  msg.sender == owner */\n      0xffffffffffffffffffffffffffffffffffffffff\n      and\n      eq\n        /* \"lib/Ownable.sol\":530:558  require(msg.sender == owner) */\n      tag_309\n      jumpi\n      0x00\n      dup1\n      revert\n    tag_309:\n        /* \"lib/Ownable.sol\":827:828  0 */\n      0x00\n        /* \"lib/Ownable.sol\":807:829  newOwner != address(0) */\n      0xffffffffffffffffffffffffffffffffffffffff\n      and\n        /* \"lib/Ownable.sol\":807:815  newOwner */\n      dup2\n        /* \"lib/Ownable.sol\":807:829  newOwner != address(0) */\n      0xffffffffffffffffffffffffffffffffffffffff\n      and\n      sub\n        /* \"lib/Ownable.sol\":799:830  require(newOwner != address(0)) */\n      tag_311\n      jumpi\n      0x00\n      dup1\n      revert\n    tag_311:\n        /* \"lib/Ownable.sol\":869:877  newOwner */\n      dup1\n        /* \"lib/Ownable.sol\":841:878  OwnershipTransferred(owner, newOwner) */\n      0xffffffffffffffffffffffffffffffffffffffff\n      and\n        /* \"lib/Ownable.sol\":862:867  owner */\n      0x00\n      dup1\n      sload\n      swap1\n      0x0100\n      exp\n      swap1\n      div\n      0xffffffffffffffffffffffffffffffffffffffff\n      and\n        /* \"lib/Ownable.sol\":841:878  OwnershipTransferred(owner, newOwner) */\n      0xffffffffffffffffffffffffffffffffffffffff\n      and\n      0x8be0079c531659141344cd1fd0a4f28419497f9722a3daafe3b4186f6b6457e0\n      mload(0x40)\n      mload(0x40)\n      dup1\n      swap2\n      sub\n      swap1\n      log3\n        /* \"lib/Ownable.sol\":892:900  newOwner */\n      dup1\n        /* \"lib/Ownable.sol\":884:889  owner */\n      0x00\n      dup1\n        /* \"lib/Ownable.sol\":884:900  owner = newOwner */\n      0x0100\n      exp\n      dup2\n      sload\n      dup2\n      0xffffffffffffffffffffffffffffffffffffffff\n      mul\n      not\n      and\n      swap1\n      dup4\n      0xffffffffffffffffffffffffffffffffffffffff\n      and\n      mul\n      or\n      swap1\n      sstore\n      pop\n        /* \"lib/Ownable.sol\":731:905  function transferOwnership(address newOwner) public onlyOwner {... */\n      pop\n      jump\t// out\n        /* \"UmiverseMarket.sol\":686:706  address public admin */\n    tag_150:\n      0x01\n      0x00\n      swap1\n      sload\n      swap1\n      0x0100\n      exp\n      swap1\n      div\n      0xffffffffffffffffffffffffffffffffffffffff\n      and\n      dup2\n      jump\t// out\n        /* \"UmiverseMarket.sol\":6361:6578  function compareStrings(string memory a, string memory b)... */\n    tag_157:\n        /* \"UmiverseMarket.sol\":6466:6470  bool */\n      0x00\n        /* \"UmiverseMarket.sol\":6567:6568  b */\n      dup2\n        /* \"UmiverseMarket.sol\":6550:6569  abi.encodePacked(b) */\n      add(0x20, mload(0x40))\n      tag_313\n      swap2\n      swap1\n      tag_314\n      jump\t// in\n    tag_313:\n      mload(0x40)\n      0x20\n      dup2\n      dup4\n      sub\n      sub\n      dup2\n      mstore\n      swap1\n      0x40\n      mstore\n        /* \"UmiverseMarket.sol\":6540:6570  keccak256(abi.encodePacked(b)) */\n      dup1\n      mload\n      swap1\n      0x20\n      add\n      keccak256\n        /* \"UmiverseMarket.sol\":6521:6522  a */\n      dup4\n        /* \"UmiverseMarket.sol\":6504:6523  abi.encodePacked(a) */\n      add(0x20, mload(0x40))\n      tag_315\n      swap2\n      swap1\n      tag_314\n      jump\t// in\n    tag_315:\n      mload(0x40)\n      0x20\n      dup2\n      dup4\n      sub\n      sub\n      dup2\n      mstore\n      swap1\n      0x40\n      mstore\n        /* \"UmiverseMarket.sol\":6494:6524  keccak256(abi.encodePacked(a)) */\n      dup1\n      mload\n      swap1\n      0x20\n      add\n      keccak256\n        /* \"UmiverseMarket.sol\":6494:6570  keccak256(abi.encodePacked(a)) ==... */\n      eq\n        /* \"UmiverseMarket.sol\":6486:6571  return (keccak256(abi.encodePacked(a)) ==... */\n      swap1\n      pop\n        /* \"UmiverseMarket.sol\":6361:6578  function compareStrings(string memory a, string memory b)... */\n      swap3\n      swap2\n      pop\n      pop\n      jump\t// out\n        /* \"UmiverseMarket.sol\":4341:5163  function verify(... */\n    tag_176:\n        /* \"UmiverseMarket.sol\":4663:4667  bool */\n      0x00\n        /* \"UmiverseMarket.sol\":4687:4715  isTokenSupported(_priceType) */\n      tag_317\n        /* \"UmiverseMarket.sol\":4704:4714  _priceType */\n      dup7\n        /* \"UmiverseMarket.sol\":4687:4703  isTokenSupported */\n      tag_49\n        /* \"UmiverseMarket.sol\":4687:4715  isTokenSupported(_priceType) */\n      jump\t// in\n    tag_317:\n        /* \"UmiverseMarket.sol\":4679:4737  require(isTokenSupported(_priceType), \"token not support\") */\n      tag_318\n      jumpi\n      mload(0x40)\n      0x08c379a000000000000000000000000000000000000000000000000000000000\n      dup2\n      mstore\n      0x04\n      add\n      tag_319\n      swap1\n      tag_225\n      jump\t// in\n    tag_319:\n      mload(0x40)\n      dup1\n      swap2\n      sub\n      swap1\n      revert\n    tag_318:\n        /* \"UmiverseMarket.sol\":4747:4766  bytes32 messageHash */\n      0x00\n        /* \"UmiverseMarket.sol\":4769:4998  getMessageHash(... */\n      tag_320\n        /* \"UmiverseMarket.sol\":4797:4803  _buyer */\n      dup13\n        /* \"UmiverseMarket.sol\":4817:4824  _seller */\n      dup13\n        /* \"UmiverseMarket.sol\":4838:4846  _tokenid */\n      dup13\n        /* \"UmiverseMarket.sol\":4860:4866  _price */\n      dup13\n        /* \"UmiverseMarket.sol\":4880:4887  _amount */\n      dup13\n        /* \"UmiverseMarket.sol\":4901:4911  _priceType */\n      dup13\n        /* \"UmiverseMarket.sol\":4925:4942  _developerAddress */\n      dup13\n        /* \"UmiverseMarket.sol\":4956:4964  _presale */\n      dup13\n        /* \"UmiverseMarket.sol\":4978:4988  _timestamp */\n      dup13\n        /* \"UmiverseMarket.sol\":4769:4783  getMessageHash */\n      tag_66\n        /* \"UmiverseMarket.sol\":4769:4998  getMessageHash(... */\n      jump\t// in\n    tag_320:\n        /* \"UmiverseMarket.sol\":4747:4998  bytes32 messageHash = getMessageHash(... */\n      swap1\n      pop\n        /* \"UmiverseMarket.sol\":5008:5036  bytes32 ethSignedMessageHash */\n      0x00\n        /* \"UmiverseMarket.sol\":5039:5075  getEthSignedMessageHash(messageHash) */\n      tag_321\n        /* \"UmiverseMarket.sol\":5063:5074  messageHash */\n      dup3\n        /* \"UmiverseMarket.sol\":5039:5062  getEthSignedMessageHash */\n      tag_322\n        /* \"UmiverseMarket.sol\":5039:5075  getEthSignedMessageHash(messageHash) */\n      jump\t// in\n    tag_321:\n        /* \"UmiverseMarket.sol\":5008:5075  bytes32 ethSignedMessageHash = getEthSignedMessageHash(messageHash) */\n      swap1\n      pop\n        /* \"UmiverseMarket.sol\":5143:5156  signerAddress */\n      0x04\n      0x00\n      swap1\n      sload\n      swap1\n      0x0100\n      exp\n      swap1\n      div\n      0xffffffffffffffffffffffffffffffffffffffff\n      and\n        /* \"UmiverseMarket.sol\":5092:5156  recoverSigner(ethSignedMessageHash, _signature) == signerAddress */\n      0xffffffffffffffffffffffffffffffffffffffff\n      and\n        /* \"UmiverseMarket.sol\":5092:5139  recoverSigner(ethSignedMessageHash, _signature) */\n      tag_323\n        /* \"UmiverseMarket.sol\":5106:5126  ethSignedMessageHash */\n      dup3\n        /* \"UmiverseMarket.sol\":5128:5138  _signature */\n      dup7\n        /* \"UmiverseMarket.sol\":5092:5105  recoverSigner */\n      tag_324\n        /* \"UmiverseMarket.sol\":5092:5139  recoverSigner(ethSignedMessageHash, _signature) */\n      jump\t// in\n    tag_323:\n        /* \"UmiverseMarket.sol\":5092:5156  recoverSigner(ethSignedMessageHash, _signature) == signerAddress */\n      0xffffffffffffffffffffffffffffffffffffffff\n      and\n      eq\n        /* \"UmiverseMarket.sol\":5085:5156  return recoverSigner(ethSignedMessageHash, _signature) == signerAddress */\n      swap3\n      pop\n      pop\n      pop\n        /* \"UmiverseMarket.sol\":4341:5163  function verify(... */\n      swap11\n      swap10\n      pop\n      pop\n      pop\n      pop\n      pop\n      pop\n      pop\n      pop\n      pop\n      pop\n      jump\t// out\n        /* \"UmiverseMarket.sol\":6979:8211  function processTrade(... */\n    tag_190:\n        /* \"UmiverseMarket.sol\":7169:7188  uint256 toDeveloper */\n      0x00\n        /* \"UmiverseMarket.sol\":7202:7215  uint256 toUmi */\n      dup1\n        /* \"UmiverseMarket.sol\":7229:7249  uint256 toRewardFund */\n      0x00\n        /* \"UmiverseMarket.sol\":7265:7270  token */\n      dup9\n        /* \"UmiverseMarket.sol\":7265:7283  token.transferFrom */\n      0xffffffffffffffffffffffffffffffffffffffff\n      and\n      0x23b872dd\n        /* \"UmiverseMarket.sol\":7284:7289  buyer */\n      dup10\n        /* \"UmiverseMarket.sol\":7299:7303  this */\n      address\n        /* \"UmiverseMarket.sol\":7306:7312  amount */\n      dup8\n        /* \"UmiverseMarket.sol\":7265:7313  token.transferFrom(buyer, address(this), amount) */\n      mload(0x40)\n      dup5\n      0xffffffff\n      and\n      0xe0\n      shl\n      dup2\n      mstore\n      0x04\n      add\n      tag_326\n      swap4\n      swap3\n      swap2\n      swap1\n      tag_327\n      jump\t// in\n    tag_326:\n      0x20\n      mload(0x40)\n      dup1\n      dup4\n      sub\n      dup2\n      0x00\n      dup8\n      gas\n      call\n      iszero\n      dup1\n      iszero\n      tag_329\n      jumpi\n      returndatasize\n      0x00\n      dup1\n      returndatacopy\n      revert(0x00, returndatasize)\n    tag_329:\n      pop\n      pop\n      pop\n      pop\n      mload(0x40)\n      returndatasize\n      not(0x1f)\n      0x1f\n      dup3\n      add\n      and\n      dup3\n      add\n      dup1\n      0x40\n      mstore\n      pop\n      dup2\n      add\n      swap1\n      tag_330\n      swap2\n      swap1\n      tag_298\n      jump\t// in\n    tag_330:\n      pop\n        /* \"UmiverseMarket.sol\":7328:7335  presale */\n      dup5\n        /* \"UmiverseMarket.sol\":7324:7765  if (presale) {... */\n      iszero\n      tag_331\n      jumpi\n        /* \"UmiverseMarket.sol\":7365:7408  amount.mul(presaleFeeToDeveloper).div(1000) */\n      tag_332\n        /* \"UmiverseMarket.sol\":7403:7407  1000 */\n      0x03e8\n        /* \"UmiverseMarket.sol\":7365:7398  amount.mul(presaleFeeToDeveloper) */\n      tag_333\n        /* \"UmiverseMarket.sol\":7376:7397  presaleFeeToDeveloper */\n      sload(0x09)\n        /* \"UmiverseMarket.sol\":7365:7371  amount */\n      dup8\n        /* \"UmiverseMarket.sol\":7365:7375  amount.mul */\n      tag_334\n      swap1\n        /* \"UmiverseMarket.sol\":7365:7398  amount.mul(presaleFeeToDeveloper) */\n      swap2\n      swap1\n      0xffffffff\n      and\n      jump\t// in\n    tag_333:\n        /* \"UmiverseMarket.sol\":7365:7402  amount.mul(presaleFeeToDeveloper).div */\n      tag_335\n      swap1\n        /* \"UmiverseMarket.sol\":7365:7408  amount.mul(presaleFeeToDeveloper).div(1000) */\n      swap2\n      swap1\n      0xffffffff\n      and\n      jump\t// in\n    tag_332:\n        /* \"UmiverseMarket.sol\":7351:7408  toDeveloper = amount.mul(presaleFeeToDeveloper).div(1000) */\n      swap3\n      pop\n        /* \"UmiverseMarket.sol\":7430:7467  amount.mul(presaleFeeToUmi).div(1000) */\n      tag_336\n        /* \"UmiverseMarket.sol\":7462:7466  1000 */\n      0x03e8\n        /* \"UmiverseMarket.sol\":7430:7457  amount.mul(presaleFeeToUmi) */\n      tag_337\n        /* \"UmiverseMarket.sol\":7441:7456  presaleFeeToUmi */\n      sload(0x0a)\n        /* \"UmiverseMarket.sol\":7430:7436  amount */\n      dup8\n        /* \"UmiverseMarket.sol\":7430:7440  amount.mul */\n      tag_334\n      swap1\n        /* \"UmiverseMarket.sol\":7430:7457  amount.mul(presaleFeeToUmi) */\n      swap2\n      swap1\n      0xffffffff\n      and\n      jump\t// in\n    tag_337:\n        /* \"UmiverseMarket.sol\":7430:7461  amount.mul(presaleFeeToUmi).div */\n      tag_335\n      swap1\n        /* \"UmiverseMarket.sol\":7430:7467  amount.mul(presaleFeeToUmi).div(1000) */\n      swap2\n      swap1\n      0xffffffff\n      and\n      jump\t// in\n    tag_336:\n        /* \"UmiverseMarket.sol\":7422:7467  toUmi = amount.mul(presaleFeeToUmi).div(1000) */\n      swap2\n      pop\n        /* \"UmiverseMarket.sol\":7496:7540  amount.mul(presaleFeeToRewardFund).div(1000) */\n      tag_338\n        /* \"UmiverseMarket.sol\":7535:7539  1000 */\n      0x03e8\n        /* \"UmiverseMarket.sol\":7496:7530  amount.mul(presaleFeeToRewardFund) */\n      tag_339\n        /* \"UmiverseMarket.sol\":7507:7529  presaleFeeToRewardFund */\n      sload(0x0b)\n        /* \"UmiverseMarket.sol\":7496:7502  amount */\n      dup8\n        /* \"UmiverseMarket.sol\":7496:7506  amount.mul */\n      tag_334\n      swap1\n        /* \"UmiverseMarket.sol\":7496:7530  amount.mul(presaleFeeToRewardFund) */\n      swap2\n      swap1\n      0xffffffff\n      and\n      jump\t// in\n    tag_339:\n        /* \"UmiverseMarket.sol\":7496:7534  amount.mul(presaleFeeToRewardFund).div */\n      tag_335\n      swap1\n        /* \"UmiverseMarket.sol\":7496:7540  amount.mul(presaleFeeToRewardFund).div(1000) */\n      swap2\n      swap1\n      0xffffffff\n      and\n      jump\t// in\n    tag_338:\n        /* \"UmiverseMarket.sol\":7481:7540  toRewardFund = amount.mul(presaleFeeToRewardFund).div(1000) */\n      swap1\n      pop\n        /* \"UmiverseMarket.sol\":7324:7765  if (presale) {... */\n      jump(tag_340)\n    tag_331:\n        /* \"UmiverseMarket.sol\":7585:7626  amount.mul(tradeFeeToDeveloper).div(1000) */\n      tag_341\n        /* \"UmiverseMarket.sol\":7621:7625  1000 */\n      0x03e8\n        /* \"UmiverseMarket.sol\":7585:7616  amount.mul(tradeFeeToDeveloper) */\n      tag_342\n        /* \"UmiverseMarket.sol\":7596:7615  tradeFeeToDeveloper */\n      sload(0x0d)\n        /* \"UmiverseMarket.sol\":7585:7591  amount */\n      dup8\n        /* \"UmiverseMarket.sol\":7585:7595  amount.mul */\n      tag_334\n      swap1\n        /* \"UmiverseMarket.sol\":7585:7616  amount.mul(tradeFeeToDeveloper) */\n      swap2\n      swap1\n      0xffffffff\n      and\n      jump\t// in\n    tag_342:\n        /* \"UmiverseMarket.sol\":7585:7620  amount.mul(tradeFeeToDeveloper).div */\n      tag_335\n      swap1\n        /* \"UmiverseMarket.sol\":7585:7626  amount.mul(tradeFeeToDeveloper).div(1000) */\n      swap2\n      swap1\n      0xffffffff\n      and\n      jump\t// in\n    tag_341:\n        /* \"UmiverseMarket.sol\":7571:7626  toDeveloper = amount.mul(tradeFeeToDeveloper).div(1000) */\n      swap3\n      pop\n        /* \"UmiverseMarket.sol\":7648:7683  amount.mul(tradeFeeToUmi).div(1000) */\n      tag_343\n        /* \"UmiverseMarket.sol\":7678:7682  1000 */\n      0x03e8\n        /* \"UmiverseMarket.sol\":7648:7673  amount.mul(tradeFeeToUmi) */\n      tag_344\n        /* \"UmiverseMarket.sol\":7659:7672  tradeFeeToUmi */\n      sload(0x0c)\n        /* \"UmiverseMarket.sol\":7648:7654  amount */\n      dup8\n        /* \"UmiverseMarket.sol\":7648:7658  amount.mul */\n      tag_334\n      swap1\n        /* \"UmiverseMarket.sol\":7648:7673  amount.mul(tradeFeeToUmi) */\n      swap2\n      swap1\n      0xffffffff\n      and\n      jump\t// in\n    tag_344:\n        /* \"UmiverseMarket.sol\":7648:7677  amount.mul(tradeFeeToUmi).div */\n      tag_335\n      swap1\n        /* \"UmiverseMarket.sol\":7648:7683  amount.mul(tradeFeeToUmi).div(1000) */\n      swap2\n      swap1\n      0xffffffff\n      and\n      jump\t// in\n    tag_343:\n        /* \"UmiverseMarket.sol\":7640:7683  toUmi = amount.mul(tradeFeeToUmi).div(1000) */\n      swap2\n      pop\n        /* \"UmiverseMarket.sol\":7712:7754  amount.mul(tradeFeeToRewardFund).div(1000) */\n      tag_345\n        /* \"UmiverseMarket.sol\":7749:7753  1000 */\n      0x03e8\n        /* \"UmiverseMarket.sol\":7712:7744  amount.mul(tradeFeeToRewardFund) */\n      tag_346\n        /* \"UmiverseMarket.sol\":7723:7743  tradeFeeToRewardFund */\n      sload(0x0e)\n        /* \"UmiverseMarket.sol\":7712:7718  amount */\n      dup8\n        /* \"UmiverseMarket.sol\":7712:7722  amount.mul */\n      tag_334\n      swap1\n        /* \"UmiverseMarket.sol\":7712:7744  amount.mul(tradeFeeToRewardFund) */\n      swap2\n      swap1\n      0xffffffff\n      and\n      jump\t// in\n    tag_346:\n        /* \"UmiverseMarket.sol\":7712:7748  amount.mul(tradeFeeToRewardFund).div */\n      tag_335\n      swap1\n        /* \"UmiverseMarket.sol\":7712:7754  amount.mul(tradeFeeToRewardFund).div(1000) */\n      swap2\n      swap1\n      0xffffffff\n      and\n      jump\t// in\n    tag_345:\n        /* \"UmiverseMarket.sol\":7697:7754  toRewardFund = amount.mul(tradeFeeToRewardFund).div(1000) */\n      swap1\n      pop\n        /* \"UmiverseMarket.sol\":7324:7765  if (presale) {... */\n    tag_340:\n        /* \"UmiverseMarket.sol\":7775:7791  uint256 toSeller */\n      0x00\n        /* \"UmiverseMarket.sol\":7825:7837  toRewardFund */\n      dup2\n        /* \"UmiverseMarket.sol\":7817:7822  toUmi */\n      dup4\n        /* \"UmiverseMarket.sol\":7803:7814  toDeveloper */\n      dup6\n        /* \"UmiverseMarket.sol\":7794:7800  amount */\n      dup8\n        /* \"UmiverseMarket.sol\":7794:7814  amount - toDeveloper */\n      tag_347\n      swap2\n      swap1\n      tag_348\n      jump\t// in\n    tag_347:\n        /* \"UmiverseMarket.sol\":7794:7822  amount - toDeveloper - toUmi */\n      tag_349\n      swap2\n      swap1\n      tag_348\n      jump\t// in\n    tag_349:\n        /* \"UmiverseMarket.sol\":7794:7837  amount - toDeveloper - toUmi - toRewardFund */\n      tag_350\n      swap2\n      swap1\n      tag_348\n      jump\t// in\n    tag_350:\n        /* \"UmiverseMarket.sol\":7775:7837  uint256 toSeller = amount - toDeveloper - toUmi - toRewardFund */\n      swap1\n      pop\n        /* \"UmiverseMarket.sol\":7866:7867  0 */\n      0x00\n        /* \"UmiverseMarket.sol\":7852:7863  toDeveloper */\n      dup5\n        /* \"UmiverseMarket.sol\":7852:7867  toDeveloper > 0 */\n      gt\n        /* \"UmiverseMarket.sol\":7848:7933  if (toDeveloper > 0) {... */\n      iszero\n      tag_351\n      jumpi\n        /* \"UmiverseMarket.sol\":7883:7888  token */\n      dup10\n        /* \"UmiverseMarket.sol\":7883:7897  token.transfer */\n      0xffffffffffffffffffffffffffffffffffffffff\n      and\n      0xa9059cbb\n        /* \"UmiverseMarket.sol\":7898:7908  _developer */\n      dup9\n        /* \"UmiverseMarket.sol\":7910:7921  toDeveloper */\n      dup7\n        /* \"UmiverseMarket.sol\":7883:7922  token.transfer(_developer, toDeveloper) */\n      mload(0x40)\n      dup4\n      0xffffffff\n      and\n      0xe0\n      shl\n      dup2\n      mstore\n      0x04\n      add\n      tag_352\n      swap3\n      swap2\n      swap1\n      tag_353\n      jump\t// in\n    tag_352:\n      0x20\n      mload(0x40)\n      dup1\n      dup4\n      sub\n      dup2\n      0x00\n      dup8\n      gas\n      call\n      iszero\n      dup1\n      iszero\n      tag_355\n      jumpi\n      returndatasize\n      0x00\n      dup1\n      returndatacopy\n      revert(0x00, returndatasize)\n    tag_355:\n      pop\n      pop\n      pop\n      pop\n      mload(0x40)\n      returndatasize\n      not(0x1f)\n      0x1f\n      dup3\n      add\n      and\n      dup3\n      add\n      dup1\n      0x40\n      mstore\n      pop\n      dup2\n      add\n      swap1\n      tag_356\n      swap2\n      swap1\n      tag_298\n      jump\t// in\n    tag_356:\n      pop\n        /* \"UmiverseMarket.sol\":7848:7933  if (toDeveloper > 0) {... */\n    tag_351:\n        /* \"UmiverseMarket.sol\":7955:7956  0 */\n      0x00\n        /* \"UmiverseMarket.sol\":7947:7952  toUmi */\n      dup4\n        /* \"UmiverseMarket.sol\":7947:7956  toUmi > 0 */\n      gt\n        /* \"UmiverseMarket.sol\":7943:8016  if (toUmi > 0) {... */\n      iszero\n      tag_357\n      jumpi\n        /* \"UmiverseMarket.sol\":7972:7977  token */\n      dup10\n        /* \"UmiverseMarket.sol\":7972:7986  token.transfer */\n      0xffffffffffffffffffffffffffffffffffffffff\n      and\n      0xa9059cbb\n        /* \"UmiverseMarket.sol\":7987:7997  feeAddress */\n      0x02\n      0x00\n      swap1\n      sload\n      swap1\n      0x0100\n      exp\n      swap1\n      div\n      0xffffffffffffffffffffffffffffffffffffffff\n      and\n        /* \"UmiverseMarket.sol\":7999:8004  toUmi */\n      dup6\n        /* \"UmiverseMarket.sol\":7972:8005  token.transfer(feeAddress, toUmi) */\n      mload(0x40)\n      dup4\n      0xffffffff\n      and\n      0xe0\n      shl\n      dup2\n      mstore\n      0x04\n      add\n      tag_358\n      swap3\n      swap2\n      swap1\n      tag_353\n      jump\t// in\n    tag_358:\n      0x20\n      mload(0x40)\n      dup1\n      dup4\n      sub\n      dup2\n      0x00\n      dup8\n      gas\n      call\n      iszero\n      dup1\n      iszero\n      tag_360\n      jumpi\n      returndatasize\n      0x00\n      dup1\n      returndatacopy\n      revert(0x00, returndatasize)\n    tag_360:\n      pop\n      pop\n      pop\n      pop\n      mload(0x40)\n      returndatasize\n      not(0x1f)\n      0x1f\n      dup3\n      add\n      and\n      dup3\n      add\n      dup1\n      0x40\n      mstore\n      pop\n      dup2\n      add\n      swap1\n      tag_361\n      swap2\n      swap1\n      tag_298\n      jump\t// in\n    tag_361:\n      pop\n        /* \"UmiverseMarket.sol\":7943:8016  if (toUmi > 0) {... */\n    tag_357:\n        /* \"UmiverseMarket.sol\":8045:8046  0 */\n      0x00\n        /* \"UmiverseMarket.sol\":8030:8042  toRewardFund */\n      dup3\n        /* \"UmiverseMarket.sol\":8030:8046  toRewardFund > 0 */\n      gt\n        /* \"UmiverseMarket.sol\":8026:8120  if (toRewardFund > 0) {... */\n      iszero\n      tag_362\n      jumpi\n        /* \"UmiverseMarket.sol\":8062:8067  token */\n      dup10\n        /* \"UmiverseMarket.sol\":8062:8076  token.transfer */\n      0xffffffffffffffffffffffffffffffffffffffff\n      and\n      0xa9059cbb\n        /* \"UmiverseMarket.sol\":8077:8094  rewardPoolAddress */\n      0x03\n      0x00\n      swap1\n      sload\n      swap1\n      0x0100\n      exp\n      swap1\n      div\n      0xffffffffffffffffffffffffffffffffffffffff\n      and\n        /* \"UmiverseMarket.sol\":8096:8108  toRewardFund */\n      dup5\n        /* \"UmiverseMarket.sol\":8062:8109  token.transfer(rewardPoolAddress, toRewardFund) */\n      mload(0x40)\n      dup4\n      0xffffffff\n      and\n      0xe0\n      shl\n      dup2\n      mstore\n      0x04\n      add\n      tag_363\n      swap3\n      swap2\n      swap1\n      tag_353\n      jump\t// in\n    tag_363:\n      0x20\n      mload(0x40)\n      dup1\n      dup4\n      sub\n      dup2\n      0x00\n      dup8\n      gas\n      call\n      iszero\n      dup1\n      iszero\n      tag_365\n      jumpi\n      returndatasize\n      0x00\n      dup1\n      returndatacopy\n      revert(0x00, returndatasize)\n    tag_365:\n      pop\n      pop\n      pop\n      pop\n      mload(0x40)\n      returndatasize\n      not(0x1f)\n      0x1f\n      dup3\n      add\n      and\n      dup3\n      add\n      dup1\n      0x40\n      mstore\n      pop\n      dup2\n      add\n      swap1\n      tag_366\n      swap2\n      swap1\n      tag_298\n      jump\t// in\n    tag_366:\n      pop\n        /* \"UmiverseMarket.sol\":8026:8120  if (toRewardFund > 0) {... */\n    tag_362:\n        /* \"UmiverseMarket.sol\":8145:8146  0 */\n      0x00\n        /* \"UmiverseMarket.sol\":8134:8142  toSeller */\n      dup2\n        /* \"UmiverseMarket.sol\":8134:8146  toSeller > 0 */\n      gt\n        /* \"UmiverseMarket.sol\":8130:8205  if (toSeller > 0) {... */\n      iszero\n      tag_367\n      jumpi\n        /* \"UmiverseMarket.sol\":8162:8167  token */\n      dup10\n        /* \"UmiverseMarket.sol\":8162:8176  token.transfer */\n      0xffffffffffffffffffffffffffffffffffffffff\n      and\n      0xa9059cbb\n        /* \"UmiverseMarket.sol\":8177:8183  seller */\n      dup10\n        /* \"UmiverseMarket.sol\":8185:8193  toSeller */\n      dup4\n        /* \"UmiverseMarket.sol\":8162:8194  token.transfer(seller, toSeller) */\n      mload(0x40)\n      dup4\n      0xffffffff\n      and\n      0xe0\n      shl\n      dup2\n      mstore\n      0x04\n      add\n      tag_368\n      swap3\n      swap2\n      swap1\n      tag_353\n      jump\t// in\n    tag_368:\n      0x20\n      mload(0x40)\n      dup1\n      dup4\n      sub\n      dup2\n      0x00\n      dup8\n      gas\n      call\n      iszero\n      dup1\n      iszero\n      tag_370\n      jumpi\n      returndatasize\n      0x00\n      dup1\n      returndatacopy\n      revert(0x00, returndatasize)\n    tag_370:\n      pop\n      pop\n      pop\n      pop\n      mload(0x40)\n      returndatasize\n      not(0x1f)\n      0x1f\n      dup3\n      add\n      and\n      dup3\n      add\n      dup1\n      0x40\n      mstore\n      pop\n      dup2\n      add\n      swap1\n      tag_371\n      swap2\n      swap1\n      tag_298\n      jump\t// in\n    tag_371:\n      pop\n        /* \"UmiverseMarket.sol\":8130:8205  if (toSeller > 0) {... */\n    tag_367:\n        /* \"UmiverseMarket.sol\":7159:8211  {... */\n      pop\n      pop\n      pop\n      pop\n        /* \"UmiverseMarket.sol\":6979:8211  function processTrade(... */\n      pop\n      pop\n      pop\n      pop\n      pop\n      pop\n      jump\t// out\n        /* \"UmiverseMarket.sol\":6584:6973  function splitSignature(bytes memory sig)... */\n    tag_246:\n        /* \"UmiverseMarket.sol\":6686:6695  bytes32 r */\n      0x00\n        /* \"UmiverseMarket.sol\":6709:6718  bytes32 s */\n      dup1\n        /* \"UmiverseMarket.sol\":6732:6739  uint8 v */\n      0x00\n        /* \"UmiverseMarket.sol\":6786:6788  65 */\n      0x41\n        /* \"UmiverseMarket.sol\":6772:6775  sig */\n      dup5\n        /* \"UmiverseMarket.sol\":6772:6782  sig.length */\n      mload\n        /* \"UmiverseMarket.sol\":6772:6788  sig.length == 65 */\n      eq\n        /* \"UmiverseMarket.sol\":6764:6817  require(sig.length == 65, \"invalid signature length\") */\n      tag_373\n      jumpi\n      mload(0x40)\n      0x08c379a000000000000000000000000000000000000000000000000000000000\n      dup2\n      mstore\n      0x04\n      add\n      tag_374\n      swap1\n      tag_375\n      jump\t// in\n    tag_374:\n      mload(0x40)\n      dup1\n      swap2\n      sub\n      swap1\n      revert\n    tag_373:\n        /* \"UmiverseMarket.sol\":6870:6872  32 */\n      0x20\n        /* \"UmiverseMarket.sol\":6865:6868  sig */\n      dup5\n        /* \"UmiverseMarket.sol\":6861:6873  add(sig, 32) */\n      add\n        /* \"UmiverseMarket.sol\":6855:6874  mload(add(sig, 32)) */\n      mload\n        /* \"UmiverseMarket.sol\":6850:6874  r := mload(add(sig, 32)) */\n      swap3\n      pop\n        /* \"UmiverseMarket.sol\":6907:6909  64 */\n      0x40\n        /* \"UmiverseMarket.sol\":6902:6905  sig */\n      dup5\n        /* \"UmiverseMarket.sol\":6898:6910  add(sig, 64) */\n      add\n        /* \"UmiverseMarket.sol\":6892:6911  mload(add(sig, 64)) */\n      mload\n        /* \"UmiverseMarket.sol\":6887:6911  s := mload(add(sig, 64)) */\n      swap2\n      pop\n        /* \"UmiverseMarket.sol\":6952:6954  96 */\n      0x60\n        /* \"UmiverseMarket.sol\":6947:6950  sig */\n      dup5\n        /* \"UmiverseMarket.sol\":6943:6955  add(sig, 96) */\n      add\n        /* \"UmiverseMarket.sol\":6937:6956  mload(add(sig, 96)) */\n      mload\n        /* \"UmiverseMarket.sol\":6934:6935  0 */\n      0x00\n        /* \"UmiverseMarket.sol\":6929:6957  byte(0, mload(add(sig, 96))) */\n      byte\n        /* \"UmiverseMarket.sol\":6924:6957  v := byte(0, mload(add(sig, 96))) */\n      swap1\n      pop\n        /* \"UmiverseMarket.sol\":6584:6973  function splitSignature(bytes memory sig)... */\n      swap2\n      swap4\n      swap1\n      swap3\n      pop\n      jump\t// out\n        /* \"UmiverseMarket.sol\":5169:5485  function getEthSignedMessageHash(bytes32 _messageHash)... */\n    tag_322:\n        /* \"UmiverseMarket.sol\":5271:5278  bytes32 */\n      0x00\n        /* \"UmiverseMarket.sol\":5434:5446  _messageHash */\n      dup2\n        /* \"UmiverseMarket.sol\":5340:5464  abi.encodePacked(... */\n      add(0x20, mload(0x40))\n      tag_377\n      swap2\n      swap1\n      tag_378\n      jump\t// in\n    tag_377:\n      mload(0x40)\n      0x20\n      dup2\n      dup4\n      sub\n      sub\n      dup2\n      mstore\n      swap1\n      0x40\n      mstore\n        /* \"UmiverseMarket.sol\":5313:5478  keccak256(... */\n      dup1\n      mload\n      swap1\n      0x20\n      add\n      keccak256\n        /* \"UmiverseMarket.sol\":5294:5478  return... */\n      swap1\n      pop\n        /* \"UmiverseMarket.sol\":5169:5485  function getEthSignedMessageHash(bytes32 _messageHash)... */\n      swap2\n      swap1\n      pop\n      jump\t// out\n        /* \"UmiverseMarket.sol\":5491:5759  function recoverSigner(... */\n    tag_324:\n        /* \"UmiverseMarket.sol\":5615:5622  address */\n      0x00\n        /* \"UmiverseMarket.sol\":5635:5644  bytes32 r */\n      dup1\n        /* \"UmiverseMarket.sol\":5646:5655  bytes32 s */\n      0x00\n        /* \"UmiverseMarket.sol\":5657:5664  uint8 v */\n      dup1\n        /* \"UmiverseMarket.sol\":5668:5694  splitSignature(_signature) */\n      tag_380\n        /* \"UmiverseMarket.sol\":5683:5693  _signature */\n      dup6\n        /* \"UmiverseMarket.sol\":5668:5682  splitSignature */\n      tag_246\n        /* \"UmiverseMarket.sol\":5668:5694  splitSignature(_signature) */\n      jump\t// in\n    tag_380:\n        /* \"UmiverseMarket.sol\":5634:5694  (bytes32 r, bytes32 s, uint8 v) = splitSignature(_signature) */\n      swap3\n      pop\n      swap3\n      pop\n      swap3\n      pop\n        /* \"UmiverseMarket.sol\":5711:5752  ecrecover(_ethSignedMessageHash, v, r, s) */\n      0x01\n        /* \"UmiverseMarket.sol\":5721:5742  _ethSignedMessageHash */\n      dup7\n        /* \"UmiverseMarket.sol\":5744:5745  v */\n      dup3\n        /* \"UmiverseMarket.sol\":5747:5748  r */\n      dup6\n        /* \"UmiverseMarket.sol\":5750:5751  s */\n      dup6\n        /* \"UmiverseMarket.sol\":5711:5752  ecrecover(_ethSignedMessageHash, v, r, s) */\n      mload(0x40)\n      0x00\n      dup2\n      mstore\n      0x20\n      add\n      0x40\n      mstore\n      mload(0x40)\n      tag_381\n      swap5\n      swap4\n      swap3\n      swap2\n      swap1\n      tag_248\n      jump\t// in\n    tag_381:\n      0x20\n      mload(0x40)\n      0x20\n      dup2\n      sub\n      swap1\n      dup1\n      dup5\n      sub\n      swap1\n      dup6\n      gas\n      staticcall\n      iszero\n      dup1\n      iszero\n      tag_383\n      jumpi\n      returndatasize\n      0x00\n      dup1\n      returndatacopy\n      revert(0x00, returndatasize)\n    tag_383:\n      pop\n      pop\n      pop\n      mload(sub(mload(0x40), 0x20))\n        /* \"UmiverseMarket.sol\":5704:5752  return ecrecover(_ethSignedMessageHash, v, r, s) */\n      swap4\n      pop\n      pop\n      pop\n      pop\n        /* \"UmiverseMarket.sol\":5491:5759  function recoverSigner(... */\n      swap3\n      swap2\n      pop\n      pop\n      jump\t// out\n        /* \"lib/SafeMath.sol\":2179:2638  function mul(uint256 a, uint256 b) internal pure returns (uint256) {... */\n    tag_334:\n        /* \"lib/SafeMath.sol\":2237:2244  uint256 */\n      0x00\n        /* \"lib/SafeMath.sol\":2483:2484  0 */\n      dup1\n        /* \"lib/SafeMath.sol\":2478:2479  a */\n      dup4\n        /* \"lib/SafeMath.sol\":2478:2484  a == 0 */\n      sub\n        /* \"lib/SafeMath.sol\":2474:2519  if (a == 0) {... */\n      tag_385\n      jumpi\n        /* \"lib/SafeMath.sol\":2507:2508  0 */\n      0x00\n        /* \"lib/SafeMath.sol\":2500:2508  return 0 */\n      swap1\n      pop\n      jump(tag_384)\n        /* \"lib/SafeMath.sol\":2474:2519  if (a == 0) {... */\n    tag_385:\n        /* \"lib/SafeMath.sol\":2529:2538  uint256 c */\n      0x00\n        /* \"lib/SafeMath.sol\":2545:2546  b */\n      dup3\n        /* \"lib/SafeMath.sol\":2541:2542  a */\n      dup5\n        /* \"lib/SafeMath.sol\":2541:2546  a * b */\n      tag_386\n      swap2\n      swap1\n      tag_215\n      jump\t// in\n    tag_386:\n        /* \"lib/SafeMath.sol\":2529:2546  uint256 c = a * b */\n      swap1\n      pop\n        /* \"lib/SafeMath.sol\":2573:2574  b */\n      dup3\n        /* \"lib/SafeMath.sol\":2568:2569  a */\n      dup5\n        /* \"lib/SafeMath.sol\":2564:2565  c */\n      dup3\n        /* \"lib/SafeMath.sol\":2564:2569  c / a */\n      tag_387\n      swap2\n      swap1\n      tag_388\n      jump\t// in\n    tag_387:\n        /* \"lib/SafeMath.sol\":2564:2574  c / a == b */\n      eq\n        /* \"lib/SafeMath.sol\":2556:2612  require(c / a == b, \"SafeMath: multiplication overflow\") */\n      tag_389\n      jumpi\n      mload(0x40)\n      0x08c379a000000000000000000000000000000000000000000000000000000000\n      dup2\n      mstore\n      0x04\n      add\n      tag_390\n      swap1\n      tag_391\n      jump\t// in\n    tag_390:\n      mload(0x40)\n      dup1\n      swap2\n      sub\n      swap1\n      revert\n    tag_389:\n        /* \"lib/SafeMath.sol\":2630:2631  c */\n      dup1\n        /* \"lib/SafeMath.sol\":2623:2631  return c */\n      swap2\n      pop\n      pop\n        /* \"lib/SafeMath.sol\":2179:2638  function mul(uint256 a, uint256 b) internal pure returns (uint256) {... */\n    tag_384:\n      swap3\n      swap2\n      pop\n      pop\n      jump\t// out\n        /* \"lib/SafeMath.sol\":3100:3230  function div(uint256 a, uint256 b) internal pure returns (uint256) {... */\n    tag_335:\n        /* \"lib/SafeMath.sol\":3158:3165  uint256 */\n      0x00\n        /* \"lib/SafeMath.sol\":3184:3223  div(a, b, \"SafeMath: division by zero\") */\n      tag_393\n        /* \"lib/SafeMath.sol\":3188:3189  a */\n      dup4\n        /* \"lib/SafeMath.sol\":3191:3192  b */\n      dup4\n        /* \"lib/SafeMath.sol\":3184:3223  div(a, b, \"SafeMath: division by zero\") */\n      mload(0x40)\n      dup1\n      0x40\n      add\n      0x40\n      mstore\n      dup1\n      0x1a\n      dup2\n      mstore\n      0x20\n      add\n      0x536166654d6174683a206469766973696f6e206279207a65726f000000000000\n      dup2\n      mstore\n      pop\n        /* \"lib/SafeMath.sol\":3184:3187  div */\n      tag_394\n        /* \"lib/SafeMath.sol\":3184:3223  div(a, b, \"SafeMath: division by zero\") */\n      jump\t// in\n    tag_393:\n        /* \"lib/SafeMath.sol\":3177:3223  return div(a, b, \"SafeMath: division by zero\") */\n      swap1\n      pop\n        /* \"lib/SafeMath.sol\":3100:3230  function div(uint256 a, uint256 b) internal pure returns (uint256) {... */\n      swap3\n      swap2\n      pop\n      pop\n      jump\t// out\n        /* \"lib/SafeMath.sol\":3712:3984  function div(uint256 a, uint256 b, string memory errorMessage) internal pure returns (uint256) {... */\n    tag_394:\n        /* \"lib/SafeMath.sol\":3798:3805  uint256 */\n      0x00\n        /* \"lib/SafeMath.sol\":3829:3830  0 */\n      dup1\n        /* \"lib/SafeMath.sol\":3825:3826  b */\n      dup4\n        /* \"lib/SafeMath.sol\":3825:3830  b > 0 */\n      gt\n        /* \"lib/SafeMath.sol\":3832:3844  errorMessage */\n      dup3\n        /* \"lib/SafeMath.sol\":3817:3845  require(b > 0, errorMessage) */\n      swap1\n      tag_396\n      jumpi\n      mload(0x40)\n      0x08c379a000000000000000000000000000000000000000000000000000000000\n      dup2\n      mstore\n      0x04\n      add\n      tag_397\n      swap2\n      swap1\n      tag_398\n      jump\t// in\n    tag_397:\n      mload(0x40)\n      dup1\n      swap2\n      sub\n      swap1\n      revert\n    tag_396:\n      pop\n        /* \"lib/SafeMath.sol\":3855:3864  uint256 c */\n      0x00\n        /* \"lib/SafeMath.sol\":3871:3872  b */\n      dup4\n        /* \"lib/SafeMath.sol\":3867:3868  a */\n      dup6\n        /* \"lib/SafeMath.sol\":3867:3872  a / b */\n      tag_399\n      swap2\n      swap1\n      tag_388\n      jump\t// in\n    tag_399:\n        /* \"lib/SafeMath.sol\":3855:3872  uint256 c = a / b */\n      swap1\n      pop\n        /* \"lib/SafeMath.sol\":3976:3977  c */\n      dup1\n        /* \"lib/SafeMath.sol\":3969:3977  return c */\n      swap2\n      pop\n      pop\n        /* \"lib/SafeMath.sol\":3712:3984  function div(uint256 a, uint256 b, string memory errorMessage) internal pure returns (uint256) {... */\n      swap4\n      swap3\n      pop\n      pop\n      pop\n      jump\t// out\n        /* \"#utility.yul\":7:82   */\n    tag_400:\n        /* \"#utility.yul\":40:46   */\n      0x00\n        /* \"#utility.yul\":73:75   */\n      0x40\n        /* \"#utility.yul\":67:76   */\n      mload\n        /* \"#utility.yul\":57:76   */\n      swap1\n      pop\n        /* \"#utility.yul\":7:82   */\n      swap1\n      jump\t// out\n        /* \"#utility.yul\":88:205   */\n    tag_401:\n        /* \"#utility.yul\":197:198   */\n      0x00\n        /* \"#utility.yul\":194:195   */\n      dup1\n        /* \"#utility.yul\":187:199   */\n      revert\n        /* \"#utility.yul\":211:328   */\n    tag_402:\n        /* \"#utility.yul\":320:321   */\n      0x00\n        /* \"#utility.yul\":317:318   */\n      dup1\n        /* \"#utility.yul\":310:322   */\n      revert\n        /* \"#utility.yul\":334:460   */\n    tag_403:\n        /* \"#utility.yul\":371:378   */\n      0x00\n        /* \"#utility.yul\":411:453   */\n      0xffffffffffffffffffffffffffffffffffffffff\n        /* \"#utility.yul\":404:409   */\n      dup3\n        /* \"#utility.yul\":400:454   */\n      and\n        /* \"#utility.yul\":389:454   */\n      swap1\n      pop\n        /* \"#utility.yul\":334:460   */\n      swap2\n      swap1\n      pop\n      jump\t// out\n        /* \"#utility.yul\":466:562   */\n    tag_404:\n        /* \"#utility.yul\":503:510   */\n      0x00\n        /* \"#utility.yul\":532:556   */\n      tag_499\n        /* \"#utility.yul\":550:555   */\n      dup3\n        /* \"#utility.yul\":532:556   */\n      tag_403\n      jump\t// in\n    tag_499:\n        /* \"#utility.yul\":521:556   */\n      swap1\n      pop\n        /* \"#utility.yul\":466:562   */\n      swap2\n      swap1\n      pop\n      jump\t// out\n        /* \"#utility.yul\":568:690   */\n    tag_405:\n        /* \"#utility.yul\":641:665   */\n      tag_501\n        /* \"#utility.yul\":659:664   */\n      dup2\n        /* \"#utility.yul\":641:665   */\n      tag_404\n      jump\t// in\n    tag_501:\n        /* \"#utility.yul\":634:639   */\n      dup2\n        /* \"#utility.yul\":631:666   */\n      eq\n        /* \"#utility.yul\":621:684   */\n      tag_502\n      jumpi\n        /* \"#utility.yul\":680:681   */\n      0x00\n        /* \"#utility.yul\":677:678   */\n      dup1\n        /* \"#utility.yul\":670:682   */\n      revert\n        /* \"#utility.yul\":621:684   */\n    tag_502:\n        /* \"#utility.yul\":568:690   */\n      pop\n      jump\t// out\n        /* \"#utility.yul\":696:835   */\n    tag_406:\n        /* \"#utility.yul\":742:747   */\n      0x00\n        /* \"#utility.yul\":780:786   */\n      dup2\n        /* \"#utility.yul\":767:787   */\n      calldataload\n        /* \"#utility.yul\":758:787   */\n      swap1\n      pop\n        /* \"#utility.yul\":796:829   */\n      tag_504\n        /* \"#utility.yul\":823:828   */\n      dup2\n        /* \"#utility.yul\":796:829   */\n      tag_405\n      jump\t// in\n    tag_504:\n        /* \"#utility.yul\":696:835   */\n      swap3\n      swap2\n      pop\n      pop\n      jump\t// out\n        /* \"#utility.yul\":841:1170   */\n    tag_44:\n        /* \"#utility.yul\":900:906   */\n      0x00\n        /* \"#utility.yul\":949:951   */\n      0x20\n        /* \"#utility.yul\":937:946   */\n      dup3\n        /* \"#utility.yul\":928:935   */\n      dup5\n        /* \"#utility.yul\":924:947   */\n      sub\n        /* \"#utility.yul\":920:952   */\n      slt\n        /* \"#utility.yul\":917:1036   */\n      iszero\n      tag_506\n      jumpi\n        /* \"#utility.yul\":955:1034   */\n      tag_507\n      tag_401\n      jump\t// in\n    tag_507:\n        /* \"#utility.yul\":917:1036   */\n    tag_506:\n        /* \"#utility.yul\":1075:1076   */\n      0x00\n        /* \"#utility.yul\":1100:1153   */\n      tag_508\n        /* \"#utility.yul\":1145:1152   */\n      dup5\n        /* \"#utility.yul\":1136:1142   */\n      dup3\n        /* \"#utility.yul\":1125:1134   */\n      dup6\n        /* \"#utility.yul\":1121:1143   */\n      add\n        /* \"#utility.yul\":1100:1153   */\n      tag_406\n      jump\t// in\n    tag_508:\n        /* \"#utility.yul\":1090:1153   */\n      swap2\n      pop\n        /* \"#utility.yul\":1046:1163   */\n      pop\n        /* \"#utility.yul\":841:1170   */\n      swap3\n      swap2\n      pop\n      pop\n      jump\t// out\n        /* \"#utility.yul\":1176:1293   */\n    tag_407:\n        /* \"#utility.yul\":1285:1286   */\n      0x00\n        /* \"#utility.yul\":1282:1283   */\n      dup1\n        /* \"#utility.yul\":1275:1287   */\n      revert\n        /* \"#utility.yul\":1299:1416   */\n    tag_408:\n        /* \"#utility.yul\":1408:1409   */\n      0x00\n        /* \"#utility.yul\":1405:1406   */\n      dup1\n        /* \"#utility.yul\":1398:1410   */\n      revert\n        /* \"#utility.yul\":1422:1524   */\n    tag_409:\n        /* \"#utility.yul\":1463:1469   */\n      0x00\n        /* \"#utility.yul\":1514:1516   */\n      0x1f\n        /* \"#utility.yul\":1510:1517   */\n      not\n        /* \"#utility.yul\":1505:1507   */\n      0x1f\n        /* \"#utility.yul\":1498:1503   */\n      dup4\n        /* \"#utility.yul\":1494:1508   */\n      add\n        /* \"#utility.yul\":1490:1518   */\n      and\n        /* \"#utility.yul\":1480:1518   */\n      swap1\n      pop\n        /* \"#utility.yul\":1422:1524   */\n      swap2\n      swap1\n      pop\n      jump\t// out\n        /* \"#utility.yul\":1530:1710   */\n    tag_410:\n        /* \"#utility.yul\":1578:1655   */\n      0x4e487b7100000000000000000000000000000000000000000000000000000000\n        /* \"#utility.yul\":1575:1576   */\n      0x00\n        /* \"#utility.yul\":1568:1656   */\n      mstore\n        /* \"#utility.yul\":1675:1679   */\n      0x41\n        /* \"#utility.yul\":1672:1673   */\n      0x04\n        /* \"#utility.yul\":1665:1680   */\n      mstore\n        /* \"#utility.yul\":1699:1703   */\n      0x24\n        /* \"#utility.yul\":1696:1697   */\n      0x00\n        /* \"#utility.yul\":1689:1704   */\n      revert\n        /* \"#utility.yul\":1716:1997   */\n    tag_411:\n        /* \"#utility.yul\":1799:1826   */\n      tag_514\n        /* \"#utility.yul\":1821:1825   */\n      dup3\n        /* \"#utility.yul\":1799:1826   */\n      tag_409\n      jump\t// in\n    tag_514:\n        /* \"#utility.yul\":1791:1797   */\n      dup2\n        /* \"#utility.yul\":1787:1827   */\n      add\n        /* \"#utility.yul\":1929:1935   */\n      dup2\n        /* \"#utility.yul\":1917:1927   */\n      dup2\n        /* \"#utility.yul\":1914:1936   */\n      lt\n        /* \"#utility.yul\":1893:1911   */\n      0xffffffffffffffff\n        /* \"#utility.yul\":1881:1891   */\n      dup3\n        /* \"#utility.yul\":1878:1912   */\n      gt\n        /* \"#utility.yul\":1875:1937   */\n      or\n        /* \"#utility.yul\":1872:1960   */\n      iszero\n      tag_515\n      jumpi\n        /* \"#utility.yul\":1940:1958   */\n      tag_516\n      tag_410\n      jump\t// in\n    tag_516:\n        /* \"#utility.yul\":1872:1960   */\n    tag_515:\n        /* \"#utility.yul\":1980:1990   */\n      dup1\n        /* \"#utility.yul\":1976:1978   */\n      0x40\n        /* \"#utility.yul\":1969:1991   */\n      mstore\n        /* \"#utility.yul\":1759:1997   */\n      pop\n        /* \"#utility.yul\":1716:1997   */\n      pop\n      pop\n      jump\t// out\n        /* \"#utility.yul\":2003:2132   */\n    tag_412:\n        /* \"#utility.yul\":2037:2043   */\n      0x00\n        /* \"#utility.yul\":2064:2084   */\n      tag_518\n      tag_400\n      jump\t// in\n    tag_518:\n        /* \"#utility.yul\":2054:2084   */\n      swap1\n      pop\n        /* \"#utility.yul\":2093:2126   */\n      tag_519\n        /* \"#utility.yul\":2121:2125   */\n      dup3\n        /* \"#utility.yul\":2113:2119   */\n      dup3\n        /* \"#utility.yul\":2093:2126   */\n      tag_411\n      jump\t// in\n    tag_519:\n        /* \"#utility.yul\":2003:2132   */\n      swap2\n      swap1\n      pop\n      jump\t// out\n        /* \"#utility.yul\":2138:2446   */\n    tag_413:\n        /* \"#utility.yul\":2200:2204   */\n      0x00\n        /* \"#utility.yul\":2290:2308   */\n      0xffffffffffffffff\n        /* \"#utility.yul\":2282:2288   */\n      dup3\n        /* \"#utility.yul\":2279:2309   */\n      gt\n        /* \"#utility.yul\":2276:2332   */\n      iszero\n      tag_521\n      jumpi\n        /* \"#utility.yul\":2312:2330   */\n      tag_522\n      tag_410\n      jump\t// in\n    tag_522:\n        /* \"#utility.yul\":2276:2332   */\n    tag_521:\n        /* \"#utility.yul\":2350:2379   */\n      tag_523\n        /* \"#utility.yul\":2372:2378   */\n      dup3\n        /* \"#utility.yul\":2350:2379   */\n      tag_409\n      jump\t// in\n    tag_523:\n        /* \"#utility.yul\":2342:2379   */\n      swap1\n      pop\n        /* \"#utility.yul\":2434:2438   */\n      0x20\n        /* \"#utility.yul\":2428:2432   */\n      dup2\n        /* \"#utility.yul\":2424:2439   */\n      add\n        /* \"#utility.yul\":2416:2439   */\n      swap1\n      pop\n        /* \"#utility.yul\":2138:2446   */\n      swap2\n      swap1\n      pop\n      jump\t// out\n        /* \"#utility.yul\":2452:2600   */\n    tag_414:\n        /* \"#utility.yul\":2550:2556   */\n      dup3\n        /* \"#utility.yul\":2545:2548   */\n      dup2\n        /* \"#utility.yul\":2540:2543   */\n      dup4\n        /* \"#utility.yul\":2527:2557   */\n      calldatacopy\n        /* \"#utility.yul\":2591:2592   */\n      0x00\n        /* \"#utility.yul\":2582:2588   */\n      dup4\n        /* \"#utility.yul\":2577:2580   */\n      dup4\n        /* \"#utility.yul\":2573:2589   */\n      add\n        /* \"#utility.yul\":2566:2593   */\n      mstore\n        /* \"#utility.yul\":2452:2600   */\n      pop\n      pop\n      pop\n      jump\t// out\n        /* \"#utility.yul\":2606:3031   */\n    tag_415:\n        /* \"#utility.yul\":2684:2689   */\n      0x00\n        /* \"#utility.yul\":2709:2775   */\n      tag_526\n        /* \"#utility.yul\":2725:2774   */\n      tag_527\n        /* \"#utility.yul\":2767:2773   */\n      dup5\n        /* \"#utility.yul\":2725:2774   */\n      tag_413\n      jump\t// in\n    tag_527:\n        /* \"#utility.yul\":2709:2775   */\n      tag_412\n      jump\t// in\n    tag_526:\n        /* \"#utility.yul\":2700:2775   */\n      swap1\n      pop\n        /* \"#utility.yul\":2798:2804   */\n      dup3\n        /* \"#utility.yul\":2791:2796   */\n      dup2\n        /* \"#utility.yul\":2784:2805   */\n      mstore\n        /* \"#utility.yul\":2836:2840   */\n      0x20\n        /* \"#utility.yul\":2829:2834   */\n      dup2\n        /* \"#utility.yul\":2825:2841   */\n      add\n        /* \"#utility.yul\":2874:2877   */\n      dup5\n        /* \"#utility.yul\":2865:2871   */\n      dup5\n        /* \"#utility.yul\":2860:2863   */\n      dup5\n        /* \"#utility.yul\":2856:2872   */\n      add\n        /* \"#utility.yul\":2853:2878   */\n      gt\n        /* \"#utility.yul\":2850:2962   */\n      iszero\n      tag_528\n      jumpi\n        /* \"#utility.yul\":2881:2960   */\n      tag_529\n      tag_408\n      jump\t// in\n    tag_529:\n        /* \"#utility.yul\":2850:2962   */\n    tag_528:\n        /* \"#utility.yul\":2971:3025   */\n      tag_530\n        /* \"#utility.yul\":3018:3024   */\n      dup5\n        /* \"#utility.yul\":3013:3016   */\n      dup3\n        /* \"#utility.yul\":3008:3011   */\n      dup6\n        /* \"#utility.yul\":2971:3025   */\n      tag_414\n      jump\t// in\n    tag_530:\n        /* \"#utility.yul\":2690:3031   */\n      pop\n        /* \"#utility.yul\":2606:3031   */\n      swap4\n      swap3\n      pop\n      pop\n      pop\n      jump\t// out\n        /* \"#utility.yul\":3051:3391   */\n    tag_416:\n        /* \"#utility.yul\":3107:3112   */\n      0x00\n        /* \"#utility.yul\":3156:3159   */\n      dup3\n        /* \"#utility.yul\":3149:3153   */\n      0x1f\n        /* \"#utility.yul\":3141:3147   */\n      dup4\n        /* \"#utility.yul\":3137:3154   */\n      add\n        /* \"#utility.yul\":3133:3160   */\n      slt\n        /* \"#utility.yul\":3123:3245   */\n      tag_532\n      jumpi\n        /* \"#utility.yul\":3164:3243   */\n      tag_533\n      tag_407\n      jump\t// in\n    tag_533:\n        /* \"#utility.yul\":3123:3245   */\n    tag_532:\n        /* \"#utility.yul\":3281:3287   */\n      dup2\n        /* \"#utility.yul\":3268:3288   */\n      calldataload\n        /* \"#utility.yul\":3306:3385   */\n      tag_534\n        /* \"#utility.yul\":3381:3384   */\n      dup5\n        /* \"#utility.yul\":3373:3379   */\n      dup3\n        /* \"#utility.yul\":3366:3370   */\n      0x20\n        /* \"#utility.yul\":3358:3364   */\n      dup7\n        /* \"#utility.yul\":3354:3371   */\n      add\n        /* \"#utility.yul\":3306:3385   */\n      tag_415\n      jump\t// in\n    tag_534:\n        /* \"#utility.yul\":3297:3385   */\n      swap2\n      pop\n        /* \"#utility.yul\":3113:3391   */\n      pop\n        /* \"#utility.yul\":3051:3391   */\n      swap3\n      swap2\n      pop\n      pop\n      jump\t// out\n        /* \"#utility.yul\":3397:3906   */\n    tag_48:\n        /* \"#utility.yul\":3466:3472   */\n      0x00\n        /* \"#utility.yul\":3515:3517   */\n      0x20\n        /* \"#utility.yul\":3503:3512   */\n      dup3\n        /* \"#utility.yul\":3494:3501   */\n      dup5\n        /* \"#utility.yul\":3490:3513   */\n      sub\n        /* \"#utility.yul\":3486:3518   */\n      slt\n        /* \"#utility.yul\":3483:3602   */\n      iszero\n      tag_536\n      jumpi\n        /* \"#utility.yul\":3521:3600   */\n      tag_537\n      tag_401\n      jump\t// in\n    tag_537:\n        /* \"#utility.yul\":3483:3602   */\n    tag_536:\n        /* \"#utility.yul\":3669:3670   */\n      0x00\n        /* \"#utility.yul\":3658:3667   */\n      dup3\n        /* \"#utility.yul\":3654:3671   */\n      add\n        /* \"#utility.yul\":3641:3672   */\n      calldataload\n        /* \"#utility.yul\":3699:3717   */\n      0xffffffffffffffff\n        /* \"#utility.yul\":3691:3697   */\n      dup2\n        /* \"#utility.yul\":3688:3718   */\n      gt\n        /* \"#utility.yul\":3685:3802   */\n      iszero\n      tag_538\n      jumpi\n        /* \"#utility.yul\":3721:3800   */\n      tag_539\n      tag_402\n      jump\t// in\n    tag_539:\n        /* \"#utility.yul\":3685:3802   */\n    tag_538:\n        /* \"#utility.yul\":3826:3889   */\n      tag_540\n        /* \"#utility.yul\":3881:3888   */\n      dup5\n        /* \"#utility.yul\":3872:3878   */\n      dup3\n        /* \"#utility.yul\":3861:3870   */\n      dup6\n        /* \"#utility.yul\":3857:3879   */\n      add\n        /* \"#utility.yul\":3826:3889   */\n      tag_416\n      jump\t// in\n    tag_540:\n        /* \"#utility.yul\":3816:3889   */\n      swap2\n      pop\n        /* \"#utility.yul\":3612:3899   */\n      pop\n        /* \"#utility.yul\":3397:3906   */\n      swap3\n      swap2\n      pop\n      pop\n      jump\t// out\n        /* \"#utility.yul\":3912:4002   */\n    tag_417:\n        /* \"#utility.yul\":3946:3953   */\n      0x00\n        /* \"#utility.yul\":3989:3994   */\n      dup2\n        /* \"#utility.yul\":3982:3995   */\n      iszero\n        /* \"#utility.yul\":3975:3996   */\n      iszero\n        /* \"#utility.yul\":3964:3996   */\n      swap1\n      pop\n        /* \"#utility.yul\":3912:4002   */\n      swap2\n      swap1\n      pop\n      jump\t// out\n        /* \"#utility.yul\":4008:4117   */\n    tag_418:\n        /* \"#utility.yul\":4089:4110   */\n      tag_543\n        /* \"#utility.yul\":4104:4109   */\n      dup2\n        /* \"#utility.yul\":4089:4110   */\n      tag_417\n      jump\t// in\n    tag_543:\n        /* \"#utility.yul\":4084:4087   */\n      dup3\n        /* \"#utility.yul\":4077:4111   */\n      mstore\n        /* \"#utility.yul\":4008:4117   */\n      pop\n      pop\n      jump\t// out\n        /* \"#utility.yul\":4123:4333   */\n    tag_51:\n        /* \"#utility.yul\":4210:4214   */\n      0x00\n        /* \"#utility.yul\":4248:4250   */\n      0x20\n        /* \"#utility.yul\":4237:4246   */\n      dup3\n        /* \"#utility.yul\":4233:4251   */\n      add\n        /* \"#utility.yul\":4225:4251   */\n      swap1\n      pop\n        /* \"#utility.yul\":4261:4326   */\n      tag_545\n        /* \"#utility.yul\":4323:4324   */\n      0x00\n        /* \"#utility.yul\":4312:4321   */\n      dup4\n        /* \"#utility.yul\":4308:4325   */\n      add\n        /* \"#utility.yul\":4299:4305   */\n      dup5\n        /* \"#utility.yul\":4261:4326   */\n      tag_418\n      jump\t// in\n    tag_545:\n        /* \"#utility.yul\":4123:4333   */\n      swap3\n      swap2\n      pop\n      pop\n      jump\t// out\n        /* \"#utility.yul\":4339:4450   */\n    tag_419:\n        /* \"#utility.yul\":4391:4398   */\n      0x00\n        /* \"#utility.yul\":4420:4444   */\n      tag_547\n        /* \"#utility.yul\":4438:4443   */\n      dup3\n        /* \"#utility.yul\":4420:4444   */\n      tag_404\n      jump\t// in\n    tag_547:\n        /* \"#utility.yul\":4409:4444   */\n      swap1\n      pop\n        /* \"#utility.yul\":4339:4450   */\n      swap2\n      swap1\n      pop\n      jump\t// out\n        /* \"#utility.yul\":4456:4608   */\n    tag_420:\n        /* \"#utility.yul\":4544:4583   */\n      tag_549\n        /* \"#utility.yul\":4577:4582   */\n      dup2\n        /* \"#utility.yul\":4544:4583   */\n      tag_419\n      jump\t// in\n    tag_549:\n        /* \"#utility.yul\":4537:4542   */\n      dup2\n        /* \"#utility.yul\":4534:4584   */\n      eq\n        /* \"#utility.yul\":4524:4602   */\n      tag_550\n      jumpi\n        /* \"#utility.yul\":4598:4599   */\n      0x00\n        /* \"#utility.yul\":4595:4596   */\n      dup1\n        /* \"#utility.yul\":4588:4600   */\n      revert\n        /* \"#utility.yul\":4524:4602   */\n    tag_550:\n        /* \"#utility.yul\":4456:4608   */\n      pop\n      jump\t// out\n        /* \"#utility.yul\":4614:4783   */\n    tag_421:\n        /* \"#utility.yul\":4675:4680   */\n      0x00\n        /* \"#utility.yul\":4713:4719   */\n      dup2\n        /* \"#utility.yul\":4700:4720   */\n      calldataload\n        /* \"#utility.yul\":4691:4720   */\n      swap1\n      pop\n        /* \"#utility.yul\":4729:4777   */\n      tag_552\n        /* \"#utility.yul\":4771:4776   */\n      dup2\n        /* \"#utility.yul\":4729:4777   */\n      tag_420\n      jump\t// in\n    tag_552:\n        /* \"#utility.yul\":4614:4783   */\n      swap3\n      swap2\n      pop\n      pop\n      jump\t// out\n        /* \"#utility.yul\":4789:4866   */\n    tag_422:\n        /* \"#utility.yul\":4826:4833   */\n      0x00\n        /* \"#utility.yul\":4855:4860   */\n      dup2\n        /* \"#utility.yul\":4844:4860   */\n      swap1\n      pop\n        /* \"#utility.yul\":4789:4866   */\n      swap2\n      swap1\n      pop\n      jump\t// out\n        /* \"#utility.yul\":4872:4994   */\n    tag_423:\n        /* \"#utility.yul\":4945:4969   */\n      tag_555\n        /* \"#utility.yul\":4963:4968   */\n      dup2\n        /* \"#utility.yul\":4945:4969   */\n      tag_422\n      jump\t// in\n    tag_555:\n        /* \"#utility.yul\":4938:4943   */\n      dup2\n        /* \"#utility.yul\":4935:4970   */\n      eq\n        /* \"#utility.yul\":4925:4988   */\n      tag_556\n      jumpi\n        /* \"#utility.yul\":4984:4985   */\n      0x00\n        /* \"#utility.yul\":4981:4982   */\n      dup1\n        /* \"#utility.yul\":4974:4986   */\n      revert\n        /* \"#utility.yul\":4925:4988   */\n    tag_556:\n        /* \"#utility.yul\":4872:4994   */\n      pop\n      jump\t// out\n        /* \"#utility.yul\":5000:5139   */\n    tag_424:\n        /* \"#utility.yul\":5046:5051   */\n      0x00\n        /* \"#utility.yul\":5084:5090   */\n      dup2\n        /* \"#utility.yul\":5071:5091   */\n      calldataload\n        /* \"#utility.yul\":5062:5091   */\n      swap1\n      pop\n        /* \"#utility.yul\":5100:5133   */\n      tag_558\n        /* \"#utility.yul\":5127:5132   */\n      dup2\n        /* \"#utility.yul\":5100:5133   */\n      tag_423\n      jump\t// in\n    tag_558:\n        /* \"#utility.yul\":5000:5139   */\n      swap3\n      swap2\n      pop\n      pop\n      jump\t// out\n        /* \"#utility.yul\":5145:5261   */\n    tag_425:\n        /* \"#utility.yul\":5215:5236   */\n      tag_560\n        /* \"#utility.yul\":5230:5235   */\n      dup2\n        /* \"#utility.yul\":5215:5236   */\n      tag_417\n      jump\t// in\n    tag_560:\n        /* \"#utility.yul\":5208:5213   */\n      dup2\n        /* \"#utility.yul\":5205:5237   */\n      eq\n        /* \"#utility.yul\":5195:5255   */\n      tag_561\n      jumpi\n        /* \"#utility.yul\":5251:5252   */\n      0x00\n        /* \"#utility.yul\":5248:5249   */\n      dup1\n        /* \"#utility.yul\":5241:5253   */\n      revert\n        /* \"#utility.yul\":5195:5255   */\n    tag_561:\n        /* \"#utility.yul\":5145:5261   */\n      pop\n      jump\t// out\n        /* \"#utility.yul\":5267:5400   */\n    tag_426:\n        /* \"#utility.yul\":5310:5315   */\n      0x00\n        /* \"#utility.yul\":5348:5354   */\n      dup2\n        /* \"#utility.yul\":5335:5355   */\n      calldataload\n        /* \"#utility.yul\":5326:5355   */\n      swap1\n      pop\n        /* \"#utility.yul\":5364:5394   */\n      tag_563\n        /* \"#utility.yul\":5388:5393   */\n      dup2\n        /* \"#utility.yul\":5364:5394   */\n      tag_425\n      jump\t// in\n    tag_563:\n        /* \"#utility.yul\":5267:5400   */\n      swap3\n      swap2\n      pop\n      pop\n      jump\t// out\n        /* \"#utility.yul\":5406:5713   */\n    tag_427:\n        /* \"#utility.yul\":5467:5471   */\n      0x00\n        /* \"#utility.yul\":5557:5575   */\n      0xffffffffffffffff\n        /* \"#utility.yul\":5549:5555   */\n      dup3\n        /* \"#utility.yul\":5546:5576   */\n      gt\n        /* \"#utility.yul\":5543:5599   */\n      iszero\n      tag_565\n      jumpi\n        /* \"#utility.yul\":5579:5597   */\n      tag_566\n      tag_410\n      jump\t// in\n    tag_566:\n        /* \"#utility.yul\":5543:5599   */\n    tag_565:\n        /* \"#utility.yul\":5617:5646   */\n      tag_567\n        /* \"#utility.yul\":5639:5645   */\n      dup3\n        /* \"#utility.yul\":5617:5646   */\n      tag_409\n      jump\t// in\n    tag_567:\n        /* \"#utility.yul\":5609:5646   */\n      swap1\n      pop\n        /* \"#utility.yul\":5701:5705   */\n      0x20\n        /* \"#utility.yul\":5695:5699   */\n      dup2\n        /* \"#utility.yul\":5691:5706   */\n      add\n        /* \"#utility.yul\":5683:5706   */\n      swap1\n      pop\n        /* \"#utility.yul\":5406:5713   */\n      swap2\n      swap1\n      pop\n      jump\t// out\n        /* \"#utility.yul\":5719:6142   */\n    tag_428:\n        /* \"#utility.yul\":5796:5801   */\n      0x00\n        /* \"#utility.yul\":5821:5886   */\n      tag_569\n        /* \"#utility.yul\":5837:5885   */\n      tag_570\n        /* \"#utility.yul\":5878:5884   */\n      dup5\n        /* \"#utility.yul\":5837:5885   */\n      tag_427\n      jump\t// in\n    tag_570:\n        /* \"#utility.yul\":5821:5886   */\n      tag_412\n      jump\t// in\n    tag_569:\n        /* \"#utility.yul\":5812:5886   */\n      swap1\n      pop\n        /* \"#utility.yul\":5909:5915   */\n      dup3\n        /* \"#utility.yul\":5902:5907   */\n      dup2\n        /* \"#utility.yul\":5895:5916   */\n      mstore\n        /* \"#utility.yul\":5947:5951   */\n      0x20\n        /* \"#utility.yul\":5940:5945   */\n      dup2\n        /* \"#utility.yul\":5936:5952   */\n      add\n        /* \"#utility.yul\":5985:5988   */\n      dup5\n        /* \"#utility.yul\":5976:5982   */\n      dup5\n        /* \"#utility.yul\":5971:5974   */\n      dup5\n        /* \"#utility.yul\":5967:5983   */\n      add\n        /* \"#utility.yul\":5964:5989   */\n      gt\n        /* \"#utility.yul\":5961:6073   */\n      iszero\n      tag_571\n      jumpi\n        /* \"#utility.yul\":5992:6071   */\n      tag_572\n      tag_408\n      jump\t// in\n    tag_572:\n        /* \"#utility.yul\":5961:6073   */\n    tag_571:\n        /* \"#utility.yul\":6082:6136   */\n      tag_573\n        /* \"#utility.yul\":6129:6135   */\n      dup5\n        /* \"#utility.yul\":6124:6127   */\n      dup3\n        /* \"#utility.yul\":6119:6122   */\n      dup6\n        /* \"#utility.yul\":6082:6136   */\n      tag_414\n      jump\t// in\n    tag_573:\n        /* \"#utility.yul\":5802:6142   */\n      pop\n        /* \"#utility.yul\":5719:6142   */\n      swap4\n      swap3\n      pop\n      pop\n      pop\n      jump\t// out\n        /* \"#utility.yul\":6161:6499   */\n    tag_429:\n        /* \"#utility.yul\":6216:6221   */\n      0x00\n        /* \"#utility.yul\":6265:6268   */\n      dup3\n        /* \"#utility.yul\":6258:6262   */\n      0x1f\n        /* \"#utility.yul\":6250:6256   */\n      dup4\n        /* \"#utility.yul\":6246:6263   */\n      add\n        /* \"#utility.yul\":6242:6269   */\n      slt\n        /* \"#utility.yul\":6232:6354   */\n      tag_575\n      jumpi\n        /* \"#utility.yul\":6273:6352   */\n      tag_576\n      tag_407\n      jump\t// in\n    tag_576:\n        /* \"#utility.yul\":6232:6354   */\n    tag_575:\n        /* \"#utility.yul\":6390:6396   */\n      dup2\n        /* \"#utility.yul\":6377:6397   */\n      calldataload\n        /* \"#utility.yul\":6415:6493   */\n      tag_577\n        /* \"#utility.yul\":6489:6492   */\n      dup5\n        /* \"#utility.yul\":6481:6487   */\n      dup3\n        /* \"#utility.yul\":6474:6478   */\n      0x20\n        /* \"#utility.yul\":6466:6472   */\n      dup7\n        /* \"#utility.yul\":6462:6479   */\n      add\n        /* \"#utility.yul\":6415:6493   */\n      tag_428\n      jump\t// in\n    tag_577:\n        /* \"#utility.yul\":6406:6493   */\n      swap2\n      pop\n        /* \"#utility.yul\":6222:6499   */\n      pop\n        /* \"#utility.yul\":6161:6499   */\n      swap3\n      swap2\n      pop\n      pop\n      jump\t// out\n        /* \"#utility.yul\":6505:8676   */\n    tag_54:\n        /* \"#utility.yul\":6685:6691   */\n      0x00\n        /* \"#utility.yul\":6693:6699   */\n      dup1\n        /* \"#utility.yul\":6701:6707   */\n      0x00\n        /* \"#utility.yul\":6709:6715   */\n      dup1\n        /* \"#utility.yul\":6717:6723   */\n      0x00\n        /* \"#utility.yul\":6725:6731   */\n      dup1\n        /* \"#utility.yul\":6733:6739   */\n      0x00\n        /* \"#utility.yul\":6741:6747   */\n      dup1\n        /* \"#utility.yul\":6749:6755   */\n      0x00\n        /* \"#utility.yul\":6757:6763   */\n      dup1\n        /* \"#utility.yul\":6765:6772   */\n      0x00\n        /* \"#utility.yul\":6815:6818   */\n      0x0160\n        /* \"#utility.yul\":6803:6812   */\n      dup13\n        /* \"#utility.yul\":6794:6801   */\n      dup15\n        /* \"#utility.yul\":6790:6813   */\n      sub\n        /* \"#utility.yul\":6786:6819   */\n      slt\n        /* \"#utility.yul\":6783:6903   */\n      iszero\n      tag_579\n      jumpi\n        /* \"#utility.yul\":6822:6901   */\n      tag_580\n      tag_401\n      jump\t// in\n    tag_580:\n        /* \"#utility.yul\":6783:6903   */\n    tag_579:\n        /* \"#utility.yul\":6942:6943   */\n      0x00\n        /* \"#utility.yul\":6967:7035   */\n      tag_581\n        /* \"#utility.yul\":7027:7034   */\n      dup15\n        /* \"#utility.yul\":7018:7024   */\n      dup3\n        /* \"#utility.yul\":7007:7016   */\n      dup16\n        /* \"#utility.yul\":7003:7025   */\n      add\n        /* \"#utility.yul\":6967:7035   */\n      tag_421\n      jump\t// in\n    tag_581:\n        /* \"#utility.yul\":6957:7035   */\n      swap12\n      pop\n        /* \"#utility.yul\":6913:7045   */\n      pop\n        /* \"#utility.yul\":7084:7086   */\n      0x20\n        /* \"#utility.yul\":7110:7163   */\n      tag_582\n        /* \"#utility.yul\":7155:7162   */\n      dup15\n        /* \"#utility.yul\":7146:7152   */\n      dup3\n        /* \"#utility.yul\":7135:7144   */\n      dup16\n        /* \"#utility.yul\":7131:7153   */\n      add\n        /* \"#utility.yul\":7110:7163   */\n      tag_406\n      jump\t// in\n    tag_582:\n        /* \"#utility.yul\":7100:7163   */\n      swap11\n      pop\n        /* \"#utility.yul\":7055:7173   */\n      pop\n        /* \"#utility.yul\":7212:7214   */\n      0x40\n        /* \"#utility.yul\":7238:7291   */\n      tag_583\n        /* \"#utility.yul\":7283:7290   */\n      dup15\n        /* \"#utility.yul\":7274:7280   */\n      dup3\n        /* \"#utility.yul\":7263:7272   */\n      dup16\n        /* \"#utility.yul\":7259:7281   */\n      add\n        /* \"#utility.yul\":7238:7291   */\n      tag_424\n      jump\t// in\n    tag_583:\n        /* \"#utility.yul\":7228:7291   */\n      swap10\n      pop\n        /* \"#utility.yul\":7183:7301   */\n      pop\n        /* \"#utility.yul\":7340:7342   */\n      0x60\n        /* \"#utility.yul\":7366:7419   */\n      tag_584\n        /* \"#utility.yul\":7411:7418   */\n      dup15\n        /* \"#utility.yul\":7402:7408   */\n      dup3\n        /* \"#utility.yul\":7391:7400   */\n      dup16\n        /* \"#utility.yul\":7387:7409   */\n      add\n        /* \"#utility.yul\":7366:7419   */\n      tag_424\n      jump\t// in\n    tag_584:\n        /* \"#utility.yul\":7356:7419   */\n      swap9\n      pop\n        /* \"#utility.yul\":7311:7429   */\n      pop\n        /* \"#utility.yul\":7468:7471   */\n      0x80\n        /* \"#utility.yul\":7495:7548   */\n      tag_585\n        /* \"#utility.yul\":7540:7547   */\n      dup15\n        /* \"#utility.yul\":7531:7537   */\n      dup3\n        /* \"#utility.yul\":7520:7529   */\n      dup16\n        /* \"#utility.yul\":7516:7538   */\n      add\n        /* \"#utility.yul\":7495:7548   */\n      tag_424\n      jump\t// in\n    tag_585:\n        /* \"#utility.yul\":7485:7548   */\n      swap8\n      pop\n        /* \"#utility.yul\":7439:7558   */\n      pop\n        /* \"#utility.yul\":7625:7628   */\n      0xa0\n        /* \"#utility.yul\":7614:7623   */\n      dup13\n        /* \"#utility.yul\":7610:7629   */\n      add\n        /* \"#utility.yul\":7597:7630   */\n      calldataload\n        /* \"#utility.yul\":7657:7675   */\n      0xffffffffffffffff\n        /* \"#utility.yul\":7649:7655   */\n      dup2\n        /* \"#utility.yul\":7646:7676   */\n      gt\n        /* \"#utility.yul\":7643:7760   */\n      iszero\n      tag_586\n      jumpi\n        /* \"#utility.yul\":7679:7758   */\n      tag_587\n      tag_402\n      jump\t// in\n    tag_587:\n        /* \"#utility.yul\":7643:7760   */\n    tag_586:\n        /* \"#utility.yul\":7784:7847   */\n      tag_588\n        /* \"#utility.yul\":7839:7846   */\n      dup15\n        /* \"#utility.yul\":7830:7836   */\n      dup3\n        /* \"#utility.yul\":7819:7828   */\n      dup16\n        /* \"#utility.yul\":7815:7837   */\n      add\n        /* \"#utility.yul\":7784:7847   */\n      tag_416\n      jump\t// in\n    tag_588:\n        /* \"#utility.yul\":7774:7847   */\n      swap7\n      pop\n        /* \"#utility.yul\":7568:7857   */\n      pop\n        /* \"#utility.yul\":7896:7899   */\n      0xc0\n        /* \"#utility.yul\":7923:7976   */\n      tag_589\n        /* \"#utility.yul\":7968:7975   */\n      dup15\n        /* \"#utility.yul\":7959:7965   */\n      dup3\n        /* \"#utility.yul\":7948:7957   */\n      dup16\n        /* \"#utility.yul\":7944:7966   */\n      add\n        /* \"#utility.yul\":7923:7976   */\n      tag_406\n      jump\t// in\n    tag_589:\n        /* \"#utility.yul\":7913:7976   */\n      swap6\n      pop\n        /* \"#utility.yul\":7867:7986   */\n      pop\n        /* \"#utility.yul\":8025:8028   */\n      0xe0\n        /* \"#utility.yul\":8052:8102   */\n      tag_590\n        /* \"#utility.yul\":8094:8101   */\n      dup15\n        /* \"#utility.yul\":8085:8091   */\n      dup3\n        /* \"#utility.yul\":8074:8083   */\n      dup16\n        /* \"#utility.yul\":8070:8092   */\n      add\n        /* \"#utility.yul\":8052:8102   */\n      tag_426\n      jump\t// in\n    tag_590:\n        /* \"#utility.yul\":8042:8102   */\n      swap5\n      pop\n        /* \"#utility.yul\":7996:8112   */\n      pop\n        /* \"#utility.yul\":8151:8154   */\n      0x0100\n        /* \"#utility.yul\":8178:8231   */\n      tag_591\n        /* \"#utility.yul\":8223:8230   */\n      dup15\n        /* \"#utility.yul\":8214:8220   */\n      dup3\n        /* \"#utility.yul\":8203:8212   */\n      dup16\n        /* \"#utility.yul\":8199:8221   */\n      add\n        /* \"#utility.yul\":8178:8231   */\n      tag_424\n      jump\t// in\n    tag_591:\n        /* \"#utility.yul\":8168:8231   */\n      swap4\n      pop\n        /* \"#utility.yul\":8122:8241   */\n      pop\n        /* \"#utility.yul\":8280:8283   */\n      0x0120\n        /* \"#utility.yul\":8307:8360   */\n      tag_592\n        /* \"#utility.yul\":8352:8359   */\n      dup15\n        /* \"#utility.yul\":8343:8349   */\n      dup3\n        /* \"#utility.yul\":8332:8341   */\n      dup16\n        /* \"#utility.yul\":8328:8350   */\n      add\n        /* \"#utility.yul\":8307:8360   */\n      tag_406\n      jump\t// in\n    tag_592:\n        /* \"#utility.yul\":8297:8360   */\n      swap3\n      pop\n        /* \"#utility.yul\":8251:8370   */\n      pop\n        /* \"#utility.yul\":8437:8440   */\n      0x0140\n        /* \"#utility.yul\":8426:8435   */\n      dup13\n        /* \"#utility.yul\":8422:8441   */\n      add\n        /* \"#utility.yul\":8409:8442   */\n      calldataload\n        /* \"#utility.yul\":8469:8487   */\n      0xffffffffffffffff\n        /* \"#utility.yul\":8461:8467   */\n      dup2\n        /* \"#utility.yul\":8458:8488   */\n      gt\n        /* \"#utility.yul\":8455:8572   */\n      iszero\n      tag_593\n      jumpi\n        /* \"#utility.yul\":8491:8570   */\n      tag_594\n      tag_402\n      jump\t// in\n    tag_594:\n        /* \"#utility.yul\":8455:8572   */\n    tag_593:\n        /* \"#utility.yul\":8597:8659   */\n      tag_595\n        /* \"#utility.yul\":8651:8658   */\n      dup15\n        /* \"#utility.yul\":8642:8648   */\n      dup3\n        /* \"#utility.yul\":8631:8640   */\n      dup16\n        /* \"#utility.yul\":8627:8649   */\n      add\n        /* \"#utility.yul\":8597:8659   */\n      tag_429\n      jump\t// in\n    tag_595:\n        /* \"#utility.yul\":8586:8659   */\n      swap2\n      pop\n        /* \"#utility.yul\":8380:8669   */\n      pop\n        /* \"#utility.yul\":6505:8676   */\n      swap3\n      swap6\n      swap9\n      swap12\n      pop\n      swap3\n      swap6\n      swap9\n      swap12\n      swap1\n      swap4\n      swap7\n      swap10\n      pop\n      jump\t// out\n        /* \"#utility.yul\":8682:8800   */\n    tag_430:\n        /* \"#utility.yul\":8769:8793   */\n      tag_597\n        /* \"#utility.yul\":8787:8792   */\n      dup2\n        /* \"#utility.yul\":8769:8793   */\n      tag_422\n      jump\t// in\n    tag_597:\n        /* \"#utility.yul\":8764:8767   */\n      dup3\n        /* \"#utility.yul\":8757:8794   */\n      mstore\n        /* \"#utility.yul\":8682:8800   */\n      pop\n      pop\n      jump\t// out\n        /* \"#utility.yul\":8806:9028   */\n    tag_62:\n        /* \"#utility.yul\":8899:8903   */\n      0x00\n        /* \"#utility.yul\":8937:8939   */\n      0x20\n        /* \"#utility.yul\":8926:8935   */\n      dup3\n        /* \"#utility.yul\":8922:8940   */\n      add\n        /* \"#utility.yul\":8914:8940   */\n      swap1\n      pop\n        /* \"#utility.yul\":8950:9021   */\n      tag_599\n        /* \"#utility.yul\":9018:9019   */\n      0x00\n        /* \"#utility.yul\":9007:9016   */\n      dup4\n        /* \"#utility.yul\":9003:9020   */\n      add\n        /* \"#utility.yul\":8994:9000   */\n      dup5\n        /* \"#utility.yul\":8950:9021   */\n      tag_430\n      jump\t// in\n    tag_599:\n        /* \"#utility.yul\":8806:9028   */\n      swap3\n      swap2\n      pop\n      pop\n      jump\t// out\n        /* \"#utility.yul\":9034:10703   */\n    tag_65:\n        /* \"#utility.yul\":9172:9178   */\n      0x00\n        /* \"#utility.yul\":9180:9186   */\n      dup1\n        /* \"#utility.yul\":9188:9194   */\n      0x00\n        /* \"#utility.yul\":9196:9202   */\n      dup1\n        /* \"#utility.yul\":9204:9210   */\n      0x00\n        /* \"#utility.yul\":9212:9218   */\n      dup1\n        /* \"#utility.yul\":9220:9226   */\n      0x00\n        /* \"#utility.yul\":9228:9234   */\n      dup1\n        /* \"#utility.yul\":9236:9242   */\n      0x00\n        /* \"#utility.yul\":9285:9288   */\n      0x0120\n        /* \"#utility.yul\":9273:9282   */\n      dup11\n        /* \"#utility.yul\":9264:9271   */\n      dup13\n        /* \"#utility.yul\":9260:9283   */\n      sub\n        /* \"#utility.yul\":9256:9289   */\n      slt\n        /* \"#utility.yul\":9253:9373   */\n      iszero\n      tag_601\n      jumpi\n        /* \"#utility.yul\":9292:9371   */\n      tag_602\n      tag_401\n      jump\t// in\n    tag_602:\n        /* \"#utility.yul\":9253:9373   */\n    tag_601:\n        /* \"#utility.yul\":9412:9413   */\n      0x00\n        /* \"#utility.yul\":9437:9490   */\n      tag_603\n        /* \"#utility.yul\":9482:9489   */\n      dup13\n        /* \"#utility.yul\":9473:9479   */\n      dup3\n        /* \"#utility.yul\":9462:9471   */\n      dup14\n        /* \"#utility.yul\":9458:9480   */\n      add\n        /* \"#utility.yul\":9437:9490   */\n      tag_406\n      jump\t// in\n    tag_603:\n        /* \"#utility.yul\":9427:9490   */\n      swap10\n      pop\n        /* \"#utility.yul\":9383:9500   */\n      pop\n        /* \"#utility.yul\":9539:9541   */\n      0x20\n        /* \"#utility.yul\":9565:9618   */\n      tag_604\n        /* \"#utility.yul\":9610:9617   */\n      dup13\n        /* \"#utility.yul\":9601:9607   */\n      dup3\n        /* \"#utility.yul\":9590:9599   */\n      dup14\n        /* \"#utility.yul\":9586:9608   */\n      add\n        /* \"#utility.yul\":9565:9618   */\n      tag_406\n      jump\t// in\n    tag_604:\n        /* \"#utility.yul\":9555:9618   */\n      swap9\n      pop\n        /* \"#utility.yul\":9510:9628   */\n      pop\n        /* \"#utility.yul\":9667:9669   */\n      0x40\n        /* \"#utility.yul\":9693:9746   */\n      tag_605\n        /* \"#utility.yul\":9738:9745   */\n      dup13\n        /* \"#utility.yul\":9729:9735   */\n      dup3\n        /* \"#utility.yul\":9718:9727   */\n      dup14\n        /* \"#utility.yul\":9714:9736   */\n      add\n        /* \"#utility.yul\":9693:9746   */\n      tag_424\n      jump\t// in\n    tag_605:\n        /* \"#utility.yul\":9683:9746   */\n      swap8\n      pop\n        /* \"#utility.yul\":9638:9756   */\n      pop\n        /* \"#utility.yul\":9795:9797   */\n      0x60\n        /* \"#utility.yul\":9821:9874   */\n      tag_606\n        /* \"#utility.yul\":9866:9873   */\n      dup13\n        /* \"#utility.yul\":9857:9863   */\n      dup3\n        /* \"#utility.yul\":9846:9855   */\n      dup14\n        /* \"#utility.yul\":9842:9864   */\n      add\n        /* \"#utility.yul\":9821:9874   */\n      tag_424\n      jump\t// in\n    tag_606:\n        /* \"#utility.yul\":9811:9874   */\n      swap7\n      pop\n        /* \"#utility.yul\":9766:9884   */\n      pop\n        /* \"#utility.yul\":9923:9926   */\n      0x80\n        /* \"#utility.yul\":9950:10003   */\n      tag_607\n        /* \"#utility.yul\":9995:10002   */\n      dup13\n        /* \"#utility.yul\":9986:9992   */\n      dup3\n        /* \"#utility.yul\":9975:9984   */\n      dup14\n        /* \"#utility.yul\":9971:9993   */\n      add\n        /* \"#utility.yul\":9950:10003   */\n      tag_424\n      jump\t// in\n    tag_607:\n        /* \"#utility.yul\":9940:10003   */\n      swap6\n      pop\n        /* \"#utility.yul\":9894:10013   */\n      pop\n        /* \"#utility.yul\":10080:10083   */\n      0xa0\n        /* \"#utility.yul\":10069:10078   */\n      dup11\n        /* \"#utility.yul\":10065:10084   */\n      add\n        /* \"#utility.yul\":10052:10085   */\n      calldataload\n        /* \"#utility.yul\":10112:10130   */\n      0xffffffffffffffff\n        /* \"#utility.yul\":10104:10110   */\n      dup2\n        /* \"#utility.yul\":10101:10131   */\n      gt\n        /* \"#utility.yul\":10098:10215   */\n      iszero\n      tag_608\n      jumpi\n        /* \"#utility.yul\":10134:10213   */\n      tag_609\n      tag_402\n      jump\t// in\n    tag_609:\n        /* \"#utility.yul\":10098:10215   */\n    tag_608:\n        /* \"#utility.yul\":10239:10302   */\n      tag_610\n        /* \"#utility.yul\":10294:10301   */\n      dup13\n        /* \"#utility.yul\":10285:10291   */\n      dup3\n        /* \"#utility.yul\":10274:10283   */\n      dup14\n        /* \"#utility.yul\":10270:10292   */\n      add\n        /* \"#utility.yul\":10239:10302   */\n      tag_416\n      jump\t// in\n    tag_610:\n        /* \"#utility.yul\":10229:10302   */\n      swap5\n      pop\n        /* \"#utility.yul\":10023:10312   */\n      pop\n        /* \"#utility.yul\":10351:10354   */\n      0xc0\n        /* \"#utility.yul\":10378:10431   */\n      tag_611\n        /* \"#utility.yul\":10423:10430   */\n      dup13\n        /* \"#utility.yul\":10414:10420   */\n      dup3\n        /* \"#utility.yul\":10403:10412   */\n      dup14\n        /* \"#utility.yul\":10399:10421   */\n      add\n        /* \"#utility.yul\":10378:10431   */\n      tag_406\n      jump\t// in\n    tag_611:\n        /* \"#utility.yul\":10368:10431   */\n      swap4\n      pop\n        /* \"#utility.yul\":10322:10441   */\n      pop\n        /* \"#utility.yul\":10480:10483   */\n      0xe0\n        /* \"#utility.yul\":10507:10557   */\n      tag_612\n        /* \"#utility.yul\":10549:10556   */\n      dup13\n        /* \"#utility.yul\":10540:10546   */\n      dup3\n        /* \"#utility.yul\":10529:10538   */\n      dup14\n        /* \"#utility.yul\":10525:10547   */\n      add\n        /* \"#utility.yul\":10507:10557   */\n      tag_426\n      jump\t// in\n    tag_612:\n        /* \"#utility.yul\":10497:10557   */\n      swap3\n      pop\n        /* \"#utility.yul\":10451:10567   */\n      pop\n        /* \"#utility.yul\":10606:10609   */\n      0x0100\n        /* \"#utility.yul\":10633:10686   */\n      tag_613\n        /* \"#utility.yul\":10678:10685   */\n      dup13\n        /* \"#utility.yul\":10669:10675   */\n      dup3\n        /* \"#utility.yul\":10658:10667   */\n      dup14\n        /* \"#utility.yul\":10654:10676   */\n      add\n        /* \"#utility.yul\":10633:10686   */\n      tag_424\n      jump\t// in\n    tag_613:\n        /* \"#utility.yul\":10623:10686   */\n      swap2\n      pop\n        /* \"#utility.yul\":10577:10696   */\n      pop\n        /* \"#utility.yul\":9034:10703   */\n      swap3\n      swap6\n      swap9\n      pop\n      swap3\n      swap6\n      swap9\n      pop\n      swap3\n      swap6\n      swap9\n      jump\t// out\n        /* \"#utility.yul\":10709:10786   */\n    tag_431:\n        /* \"#utility.yul\":10746:10753   */\n      0x00\n        /* \"#utility.yul\":10775:10780   */\n      dup2\n        /* \"#utility.yul\":10764:10780   */\n      swap1\n      pop\n        /* \"#utility.yul\":10709:10786   */\n      swap2\n      swap1\n      pop\n      jump\t// out\n        /* \"#utility.yul\":10792:10910   */\n    tag_432:\n        /* \"#utility.yul\":10879:10903   */\n      tag_616\n        /* \"#utility.yul\":10897:10902   */\n      dup2\n        /* \"#utility.yul\":10879:10903   */\n      tag_431\n      jump\t// in\n    tag_616:\n        /* \"#utility.yul\":10874:10877   */\n      dup3\n        /* \"#utility.yul\":10867:10904   */\n      mstore\n        /* \"#utility.yul\":10792:10910   */\n      pop\n      pop\n      jump\t// out\n        /* \"#utility.yul\":10916:11138   */\n    tag_68:\n        /* \"#utility.yul\":11009:11013   */\n      0x00\n        /* \"#utility.yul\":11047:11049   */\n      0x20\n        /* \"#utility.yul\":11036:11045   */\n      dup3\n        /* \"#utility.yul\":11032:11050   */\n      add\n        /* \"#utility.yul\":11024:11050   */\n      swap1\n      pop\n        /* \"#utility.yul\":11060:11131   */\n      tag_618\n        /* \"#utility.yul\":11128:11129   */\n      0x00\n        /* \"#utility.yul\":11117:11126   */\n      dup4\n        /* \"#utility.yul\":11113:11130   */\n      add\n        /* \"#utility.yul\":11104:11110   */\n      dup5\n        /* \"#utility.yul\":11060:11131   */\n      tag_432\n      jump\t// in\n    tag_618:\n        /* \"#utility.yul\":10916:11138   */\n      swap3\n      swap2\n      pop\n      pop\n      jump\t// out\n        /* \"#utility.yul\":11144:11204   */\n    tag_433:\n        /* \"#utility.yul\":11172:11175   */\n      0x00\n        /* \"#utility.yul\":11193:11198   */\n      dup2\n        /* \"#utility.yul\":11186:11198   */\n      swap1\n      pop\n        /* \"#utility.yul\":11144:11204   */\n      swap2\n      swap1\n      pop\n      jump\t// out\n        /* \"#utility.yul\":11210:11352   */\n    tag_434:\n        /* \"#utility.yul\":11260:11269   */\n      0x00\n        /* \"#utility.yul\":11293:11346   */\n      tag_621\n        /* \"#utility.yul\":11311:11345   */\n      tag_622\n        /* \"#utility.yul\":11320:11344   */\n      tag_623\n        /* \"#utility.yul\":11338:11343   */\n      dup5\n        /* \"#utility.yul\":11320:11344   */\n      tag_403\n      jump\t// in\n    tag_623:\n        /* \"#utility.yul\":11311:11345   */\n      tag_433\n      jump\t// in\n    tag_622:\n        /* \"#utility.yul\":11293:11346   */\n      tag_403\n      jump\t// in\n    tag_621:\n        /* \"#utility.yul\":11280:11346   */\n      swap1\n      pop\n        /* \"#utility.yul\":11210:11352   */\n      swap2\n      swap1\n      pop\n      jump\t// out\n        /* \"#utility.yul\":11358:11484   */\n    tag_435:\n        /* \"#utility.yul\":11408:11417   */\n      0x00\n        /* \"#utility.yul\":11441:11478   */\n      tag_625\n        /* \"#utility.yul\":11472:11477   */\n      dup3\n        /* \"#utility.yul\":11441:11478   */\n      tag_434\n      jump\t// in\n    tag_625:\n        /* \"#utility.yul\":11428:11478   */\n      swap1\n      pop\n        /* \"#utility.yul\":11358:11484   */\n      swap2\n      swap1\n      pop\n      jump\t// out\n        /* \"#utility.yul\":11490:11630   */\n    tag_436:\n        /* \"#utility.yul\":11554:11563   */\n      0x00\n        /* \"#utility.yul\":11587:11624   */\n      tag_627\n        /* \"#utility.yul\":11618:11623   */\n      dup3\n        /* \"#utility.yul\":11587:11624   */\n      tag_435\n      jump\t// in\n    tag_627:\n        /* \"#utility.yul\":11574:11624   */\n      swap1\n      pop\n        /* \"#utility.yul\":11490:11630   */\n      swap2\n      swap1\n      pop\n      jump\t// out\n        /* \"#utility.yul\":11636:11795   */\n    tag_437:\n        /* \"#utility.yul\":11737:11788   */\n      tag_629\n        /* \"#utility.yul\":11782:11787   */\n      dup2\n        /* \"#utility.yul\":11737:11788   */\n      tag_436\n      jump\t// in\n    tag_629:\n        /* \"#utility.yul\":11732:11735   */\n      dup3\n        /* \"#utility.yul\":11725:11789   */\n      mstore\n        /* \"#utility.yul\":11636:11795   */\n      pop\n      pop\n      jump\t// out\n        /* \"#utility.yul\":11801:12051   */\n    tag_75:\n        /* \"#utility.yul\":11908:11912   */\n      0x00\n        /* \"#utility.yul\":11946:11948   */\n      0x20\n        /* \"#utility.yul\":11935:11944   */\n      dup3\n        /* \"#utility.yul\":11931:11949   */\n      add\n        /* \"#utility.yul\":11923:11949   */\n      swap1\n      pop\n        /* \"#utility.yul\":11959:12044   */\n      tag_631\n        /* \"#utility.yul\":12041:12042   */\n      0x00\n        /* \"#utility.yul\":12030:12039   */\n      dup4\n        /* \"#utility.yul\":12026:12043   */\n      add\n        /* \"#utility.yul\":12017:12023   */\n      dup5\n        /* \"#utility.yul\":11959:12044   */\n      tag_437\n      jump\t// in\n    tag_631:\n        /* \"#utility.yul\":11801:12051   */\n      swap3\n      swap2\n      pop\n      pop\n      jump\t// out\n        /* \"#utility.yul\":12057:12175   */\n    tag_438:\n        /* \"#utility.yul\":12144:12168   */\n      tag_633\n        /* \"#utility.yul\":12162:12167   */\n      dup2\n        /* \"#utility.yul\":12144:12168   */\n      tag_404\n      jump\t// in\n    tag_633:\n        /* \"#utility.yul\":12139:12142   */\n      dup3\n        /* \"#utility.yul\":12132:12169   */\n      mstore\n        /* \"#utility.yul\":12057:12175   */\n      pop\n      pop\n      jump\t// out\n        /* \"#utility.yul\":12181:12403   */\n    tag_82:\n        /* \"#utility.yul\":12274:12278   */\n      0x00\n        /* \"#utility.yul\":12312:12314   */\n      0x20\n        /* \"#utility.yul\":12301:12310   */\n      dup3\n        /* \"#utility.yul\":12297:12315   */\n      add\n        /* \"#utility.yul\":12289:12315   */\n      swap1\n      pop\n        /* \"#utility.yul\":12325:12396   */\n      tag_635\n        /* \"#utility.yul\":12393:12394   */\n      0x00\n        /* \"#utility.yul\":12382:12391   */\n      dup4\n        /* \"#utility.yul\":12378:12395   */\n      add\n        /* \"#utility.yul\":12369:12375   */\n      dup5\n        /* \"#utility.yul\":12325:12396   */\n      tag_438\n      jump\t// in\n    tag_635:\n        /* \"#utility.yul\":12181:12403   */\n      swap3\n      swap2\n      pop\n      pop\n      jump\t// out\n        /* \"#utility.yul\":12409:12531   */\n    tag_439:\n        /* \"#utility.yul\":12482:12506   */\n      tag_637\n        /* \"#utility.yul\":12500:12505   */\n      dup2\n        /* \"#utility.yul\":12482:12506   */\n      tag_431\n      jump\t// in\n    tag_637:\n        /* \"#utility.yul\":12475:12480   */\n      dup2\n        /* \"#utility.yul\":12472:12507   */\n      eq\n        /* \"#utility.yul\":12462:12525   */\n      tag_638\n      jumpi\n        /* \"#utility.yul\":12521:12522   */\n      0x00\n        /* \"#utility.yul\":12518:12519   */\n      dup1\n        /* \"#utility.yul\":12511:12523   */\n      revert\n        /* \"#utility.yul\":12462:12525   */\n    tag_638:\n        /* \"#utility.yul\":12409:12531   */\n      pop\n      jump\t// out\n        /* \"#utility.yul\":12537:12676   */\n    tag_440:\n        /* \"#utility.yul\":12583:12588   */\n      0x00\n        /* \"#utility.yul\":12621:12627   */\n      dup2\n        /* \"#utility.yul\":12608:12628   */\n      calldataload\n        /* \"#utility.yul\":12599:12628   */\n      swap1\n      pop\n        /* \"#utility.yul\":12637:12670   */\n      tag_640\n        /* \"#utility.yul\":12664:12669   */\n      dup2\n        /* \"#utility.yul\":12637:12670   */\n      tag_439\n      jump\t// in\n    tag_640:\n        /* \"#utility.yul\":12537:12676   */\n      swap3\n      swap2\n      pop\n      pop\n      jump\t// out\n        /* \"#utility.yul\":12682:13334   */\n    tag_121:\n        /* \"#utility.yul\":12759:12765   */\n      0x00\n        /* \"#utility.yul\":12767:12773   */\n      dup1\n        /* \"#utility.yul\":12816:12818   */\n      0x40\n        /* \"#utility.yul\":12804:12813   */\n      dup4\n        /* \"#utility.yul\":12795:12802   */\n      dup6\n        /* \"#utility.yul\":12791:12814   */\n      sub\n        /* \"#utility.yul\":12787:12819   */\n      slt\n        /* \"#utility.yul\":12784:12903   */\n      iszero\n      tag_642\n      jumpi\n        /* \"#utility.yul\":12822:12901   */\n      tag_643\n      tag_401\n      jump\t// in\n    tag_643:\n        /* \"#utility.yul\":12784:12903   */\n    tag_642:\n        /* \"#utility.yul\":12942:12943   */\n      0x00\n        /* \"#utility.yul\":12967:13020   */\n      tag_644\n        /* \"#utility.yul\":13012:13019   */\n      dup6\n        /* \"#utility.yul\":13003:13009   */\n      dup3\n        /* \"#utility.yul\":12992:13001   */\n      dup7\n        /* \"#utility.yul\":12988:13010   */\n      add\n        /* \"#utility.yul\":12967:13020   */\n      tag_440\n      jump\t// in\n    tag_644:\n        /* \"#utility.yul\":12957:13020   */\n      swap3\n      pop\n        /* \"#utility.yul\":12913:13030   */\n      pop\n        /* \"#utility.yul\":13097:13099   */\n      0x20\n        /* \"#utility.yul\":13086:13095   */\n      dup4\n        /* \"#utility.yul\":13082:13100   */\n      add\n        /* \"#utility.yul\":13069:13101   */\n      calldataload\n        /* \"#utility.yul\":13128:13146   */\n      0xffffffffffffffff\n        /* \"#utility.yul\":13120:13126   */\n      dup2\n        /* \"#utility.yul\":13117:13147   */\n      gt\n        /* \"#utility.yul\":13114:13231   */\n      iszero\n      tag_645\n      jumpi\n        /* \"#utility.yul\":13150:13229   */\n      tag_646\n      tag_402\n      jump\t// in\n    tag_646:\n        /* \"#utility.yul\":13114:13231   */\n    tag_645:\n        /* \"#utility.yul\":13255:13317   */\n      tag_647\n        /* \"#utility.yul\":13309:13316   */\n      dup6\n        /* \"#utility.yul\":13300:13306   */\n      dup3\n        /* \"#utility.yul\":13289:13298   */\n      dup7\n        /* \"#utility.yul\":13285:13307   */\n      add\n        /* \"#utility.yul\":13255:13317   */\n      tag_429\n      jump\t// in\n    tag_647:\n        /* \"#utility.yul\":13245:13317   */\n      swap2\n      pop\n        /* \"#utility.yul\":13040:13327   */\n      pop\n        /* \"#utility.yul\":12682:13334   */\n      swap3\n      pop\n      swap3\n      swap1\n      pop\n      jump\t// out\n        /* \"#utility.yul\":13340:14397   */\n    tag_129:\n        /* \"#utility.yul\":13444:13450   */\n      0x00\n        /* \"#utility.yul\":13452:13458   */\n      dup1\n        /* \"#utility.yul\":13460:13466   */\n      0x00\n        /* \"#utility.yul\":13468:13474   */\n      dup1\n        /* \"#utility.yul\":13476:13482   */\n      0x00\n        /* \"#utility.yul\":13484:13490   */\n      dup1\n        /* \"#utility.yul\":13533:13536   */\n      0xc0\n        /* \"#utility.yul\":13521:13530   */\n      dup8\n        /* \"#utility.yul\":13512:13519   */\n      dup10\n        /* \"#utility.yul\":13508:13531   */\n      sub\n        /* \"#utility.yul\":13504:13537   */\n      slt\n        /* \"#utility.yul\":13501:13621   */\n      iszero\n      tag_649\n      jumpi\n        /* \"#utility.yul\":13540:13619   */\n      tag_650\n      tag_401\n      jump\t// in\n    tag_650:\n        /* \"#utility.yul\":13501:13621   */\n    tag_649:\n        /* \"#utility.yul\":13660:13661   */\n      0x00\n        /* \"#utility.yul\":13685:13738   */\n      tag_651\n        /* \"#utility.yul\":13730:13737   */\n      dup10\n        /* \"#utility.yul\":13721:13727   */\n      dup3\n        /* \"#utility.yul\":13710:13719   */\n      dup11\n        /* \"#utility.yul\":13706:13728   */\n      add\n        /* \"#utility.yul\":13685:13738   */\n      tag_424\n      jump\t// in\n    tag_651:\n        /* \"#utility.yul\":13675:13738   */\n      swap7\n      pop\n        /* \"#utility.yul\":13631:13748   */\n      pop\n        /* \"#utility.yul\":13787:13789   */\n      0x20\n        /* \"#utility.yul\":13813:13866   */\n      tag_652\n        /* \"#utility.yul\":13858:13865   */\n      dup10\n        /* \"#utility.yul\":13849:13855   */\n      dup3\n        /* \"#utility.yul\":13838:13847   */\n      dup11\n        /* \"#utility.yul\":13834:13856   */\n      add\n        /* \"#utility.yul\":13813:13866   */\n      tag_424\n      jump\t// in\n    tag_652:\n        /* \"#utility.yul\":13803:13866   */\n      swap6\n      pop\n        /* \"#utility.yul\":13758:13876   */\n      pop\n        /* \"#utility.yul\":13915:13917   */\n      0x40\n        /* \"#utility.yul\":13941:13994   */\n      tag_653\n        /* \"#utility.yul\":13986:13993   */\n      dup10\n        /* \"#utility.yul\":13977:13983   */\n      dup3\n        /* \"#utility.yul\":13966:13975   */\n      dup11\n        /* \"#utility.yul\":13962:13984   */\n      add\n        /* \"#utility.yul\":13941:13994   */\n      tag_424\n      jump\t// in\n    tag_653:\n        /* \"#utility.yul\":13931:13994   */\n      swap5\n      pop\n        /* \"#utility.yul\":13886:14004   */\n      pop\n        /* \"#utility.yul\":14043:14045   */\n      0x60\n        /* \"#utility.yul\":14069:14122   */\n      tag_654\n        /* \"#utility.yul\":14114:14121   */\n      dup10\n        /* \"#utility.yul\":14105:14111   */\n      dup3\n        /* \"#utility.yul\":14094:14103   */\n      dup11\n        /* \"#utility.yul\":14090:14112   */\n      add\n        /* \"#utility.yul\":14069:14122   */\n      tag_424\n      jump\t// in\n    tag_654:\n        /* \"#utility.yul\":14059:14122   */\n      swap4\n      pop\n        /* \"#utility.yul\":14014:14132   */\n      pop\n        /* \"#utility.yul\":14171:14174   */\n      0x80\n        /* \"#utility.yul\":14198:14251   */\n      tag_655\n        /* \"#utility.yul\":14243:14250   */\n      dup10\n        /* \"#utility.yul\":14234:14240   */\n      dup3\n        /* \"#utility.yul\":14223:14232   */\n      dup11\n        /* \"#utility.yul\":14219:14241   */\n      add\n        /* \"#utility.yul\":14198:14251   */\n      tag_424\n      jump\t// in\n    tag_655:\n        /* \"#utility.yul\":14188:14251   */\n      swap3\n      pop\n        /* \"#utility.yul\":14142:14261   */\n      pop\n        /* \"#utility.yul\":14300:14303   */\n      0xa0\n        /* \"#utility.yul\":14327:14380   */\n      tag_656\n        /* \"#utility.yul\":14372:14379   */\n      dup10\n        /* \"#utility.yul\":14363:14369   */\n      dup3\n        /* \"#utility.yul\":14352:14361   */\n      dup11\n        /* \"#utility.yul\":14348:14370   */\n      add\n        /* \"#utility.yul\":14327:14380   */\n      tag_424\n      jump\t// in\n    tag_656:\n        /* \"#utility.yul\":14317:14380   */\n      swap2\n      pop\n        /* \"#utility.yul\":14271:14390   */\n      pop\n        /* \"#utility.yul\":13340:14397   */\n      swap3\n      swap6\n      pop\n      swap3\n      swap6\n      pop\n      swap3\n      swap6\n      jump\t// out\n        /* \"#utility.yul\":14403:14572   */\n    tag_441:\n        /* \"#utility.yul\":14487:14498   */\n      0x00\n        /* \"#utility.yul\":14521:14527   */\n      dup3\n        /* \"#utility.yul\":14516:14519   */\n      dup3\n        /* \"#utility.yul\":14509:14528   */\n      mstore\n        /* \"#utility.yul\":14561:14565   */\n      0x20\n        /* \"#utility.yul\":14556:14559   */\n      dup3\n        /* \"#utility.yul\":14552:14566   */\n      add\n        /* \"#utility.yul\":14537:14566   */\n      swap1\n      pop\n        /* \"#utility.yul\":14403:14572   */\n      swap3\n      swap2\n      pop\n      pop\n      jump\t// out\n        /* \"#utility.yul\":14578:14799   */\n    tag_442:\n        /* \"#utility.yul\":14718:14752   */\n      0x4f6e6c792063616c6c61626c65206279205472757374656420466f7277617264\n        /* \"#utility.yul\":14714:14715   */\n      0x00\n        /* \"#utility.yul\":14706:14712   */\n      dup3\n        /* \"#utility.yul\":14702:14716   */\n      add\n        /* \"#utility.yul\":14695:14753   */\n      mstore\n        /* \"#utility.yul\":14787:14791   */\n      0x6572000000000000000000000000000000000000000000000000000000000000\n        /* \"#utility.yul\":14782:14784   */\n      0x20\n        /* \"#utility.yul\":14774:14780   */\n      dup3\n        /* \"#utility.yul\":14770:14785   */\n      add\n        /* \"#utility.yul\":14763:14792   */\n      mstore\n        /* \"#utility.yul\":14578:14799   */\n      pop\n      jump\t// out\n        /* \"#utility.yul\":14805:15171   */\n    tag_443:\n        /* \"#utility.yul\":14947:14950   */\n      0x00\n        /* \"#utility.yul\":14968:15035   */\n      tag_660\n        /* \"#utility.yul\":15032:15034   */\n      0x22\n        /* \"#utility.yul\":15027:15030   */\n      dup4\n        /* \"#utility.yul\":14968:15035   */\n      tag_441\n      jump\t// in\n    tag_660:\n        /* \"#utility.yul\":14961:15035   */\n      swap2\n      pop\n        /* \"#utility.yul\":15044:15137   */\n      tag_661\n        /* \"#utility.yul\":15133:15136   */\n      dup3\n        /* \"#utility.yul\":15044:15137   */\n      tag_442\n      jump\t// in\n    tag_661:\n        /* \"#utility.yul\":15162:15164   */\n      0x40\n        /* \"#utility.yul\":15157:15160   */\n      dup3\n        /* \"#utility.yul\":15153:15165   */\n      add\n        /* \"#utility.yul\":15146:15165   */\n      swap1\n      pop\n        /* \"#utility.yul\":14805:15171   */\n      swap2\n      swap1\n      pop\n      jump\t// out\n        /* \"#utility.yul\":15177:15596   */\n    tag_170:\n        /* \"#utility.yul\":15343:15347   */\n      0x00\n        /* \"#utility.yul\":15381:15383   */\n      0x20\n        /* \"#utility.yul\":15370:15379   */\n      dup3\n        /* \"#utility.yul\":15366:15384   */\n      add\n        /* \"#utility.yul\":15358:15384   */\n      swap1\n      pop\n        /* \"#utility.yul\":15430:15439   */\n      dup2\n        /* \"#utility.yul\":15424:15428   */\n      dup2\n        /* \"#utility.yul\":15420:15440   */\n      sub\n        /* \"#utility.yul\":15416:15417   */\n      0x00\n        /* \"#utility.yul\":15405:15414   */\n      dup4\n        /* \"#utility.yul\":15401:15418   */\n      add\n        /* \"#utility.yul\":15394:15441   */\n      mstore\n        /* \"#utility.yul\":15458:15589   */\n      tag_663\n        /* \"#utility.yul\":15584:15588   */\n      dup2\n        /* \"#utility.yul\":15458:15589   */\n      tag_443\n      jump\t// in\n    tag_663:\n        /* \"#utility.yul\":15450:15589   */\n      swap1\n      pop\n        /* \"#utility.yul\":15177:15596   */\n      swap2\n      swap1\n      pop\n      jump\t// out\n        /* \"#utility.yul\":15602:15781   */\n    tag_444:\n        /* \"#utility.yul\":15742:15773   */\n      0x43563a20627579657220746f20746865207a65726f2061646472657373000000\n        /* \"#utility.yul\":15738:15739   */\n      0x00\n        /* \"#utility.yul\":15730:15736   */\n      dup3\n        /* \"#utility.yul\":15726:15740   */\n      add\n        /* \"#utility.yul\":15719:15774   */\n      mstore\n        /* \"#utility.yul\":15602:15781   */\n      pop\n      jump\t// out\n        /* \"#utility.yul\":15787:16153   */\n    tag_445:\n        /* \"#utility.yul\":15929:15932   */\n      0x00\n        /* \"#utility.yul\":15950:16017   */\n      tag_666\n        /* \"#utility.yul\":16014:16016   */\n      0x1d\n        /* \"#utility.yul\":16009:16012   */\n      dup4\n        /* \"#utility.yul\":15950:16017   */\n      tag_441\n      jump\t// in\n    tag_666:\n        /* \"#utility.yul\":15943:16017   */\n      swap2\n      pop\n        /* \"#utility.yul\":16026:16119   */\n      tag_667\n        /* \"#utility.yul\":16115:16118   */\n      dup3\n        /* \"#utility.yul\":16026:16119   */\n      tag_444\n      jump\t// in\n    tag_667:\n        /* \"#utility.yul\":16144:16146   */\n      0x20\n        /* \"#utility.yul\":16139:16142   */\n      dup3\n        /* \"#utility.yul\":16135:16147   */\n      add\n        /* \"#utility.yul\":16128:16147   */\n      swap1\n      pop\n        /* \"#utility.yul\":15787:16153   */\n      swap2\n      swap1\n      pop\n      jump\t// out\n        /* \"#utility.yul\":16159:16578   */\n    tag_174:\n        /* \"#utility.yul\":16325:16329   */\n      0x00\n        /* \"#utility.yul\":16363:16365   */\n      0x20\n        /* \"#utility.yul\":16352:16361   */\n      dup3\n        /* \"#utility.yul\":16348:16366   */\n      add\n        /* \"#utility.yul\":16340:16366   */\n      swap1\n      pop\n        /* \"#utility.yul\":16412:16421   */\n      dup2\n        /* \"#utility.yul\":16406:16410   */\n      dup2\n        /* \"#utility.yul\":16402:16422   */\n      sub\n        /* \"#utility.yul\":16398:16399   */\n      0x00\n        /* \"#utility.yul\":16387:16396   */\n      dup4\n        /* \"#utility.yul\":16383:16400   */\n      add\n        /* \"#utility.yul\":16376:16423   */\n      mstore\n        /* \"#utility.yul\":16440:16571   */\n      tag_669\n        /* \"#utility.yul\":16566:16570   */\n      dup2\n        /* \"#utility.yul\":16440:16571   */\n      tag_445\n      jump\t// in\n    tag_669:\n        /* \"#utility.yul\":16432:16571   */\n      swap1\n      pop\n        /* \"#utility.yul\":16159:16578   */\n      swap2\n      swap1\n      pop\n      jump\t// out\n        /* \"#utility.yul\":16584:16756   */\n    tag_446:\n        /* \"#utility.yul\":16724:16748   */\n      0x43563a20696e76616c6964205f7369676e617475726500000000000000000000\n        /* \"#utility.yul\":16720:16721   */\n      0x00\n        /* \"#utility.yul\":16712:16718   */\n      dup3\n        /* \"#utility.yul\":16708:16722   */\n      add\n        /* \"#utility.yul\":16701:16749   */\n      mstore\n        /* \"#utility.yul\":16584:16756   */\n      pop\n      jump\t// out\n        /* \"#utility.yul\":16762:17128   */\n    tag_447:\n        /* \"#utility.yul\":16904:16907   */\n      0x00\n        /* \"#utility.yul\":16925:16992   */\n      tag_672\n        /* \"#utility.yul\":16989:16991   */\n      0x16\n        /* \"#utility.yul\":16984:16987   */\n      dup4\n        /* \"#utility.yul\":16925:16992   */\n      tag_441\n      jump\t// in\n    tag_672:\n        /* \"#utility.yul\":16918:16992   */\n      swap2\n      pop\n        /* \"#utility.yul\":17001:17094   */\n      tag_673\n        /* \"#utility.yul\":17090:17093   */\n      dup3\n        /* \"#utility.yul\":17001:17094   */\n      tag_446\n      jump\t// in\n    tag_673:\n        /* \"#utility.yul\":17119:17121   */\n      0x20\n        /* \"#utility.yul\":17114:17117   */\n      dup3\n        /* \"#utility.yul\":17110:17122   */\n      add\n        /* \"#utility.yul\":17103:17122   */\n      swap1\n      pop\n        /* \"#utility.yul\":16762:17128   */\n      swap2\n      swap1\n      pop\n      jump\t// out\n        /* \"#utility.yul\":17134:17553   */\n    tag_179:\n        /* \"#utility.yul\":17300:17304   */\n      0x00\n        /* \"#utility.yul\":17338:17340   */\n      0x20\n        /* \"#utility.yul\":17327:17336   */\n      dup3\n        /* \"#utility.yul\":17323:17341   */\n      add\n        /* \"#utility.yul\":17315:17341   */\n      swap1\n      pop\n        /* \"#utility.yul\":17387:17396   */\n      dup2\n        /* \"#utility.yul\":17381:17385   */\n      dup2\n        /* \"#utility.yul\":17377:17397   */\n      sub\n        /* \"#utility.yul\":17373:17374   */\n      0x00\n        /* \"#utility.yul\":17362:17371   */\n      dup4\n        /* \"#utility.yul\":17358:17375   */\n      add\n        /* \"#utility.yul\":17351:17398   */\n      mstore\n        /* \"#utility.yul\":17415:17546   */\n      tag_675\n        /* \"#utility.yul\":17541:17545   */\n      dup2\n        /* \"#utility.yul\":17415:17546   */\n      tag_447\n      jump\t// in\n    tag_675:\n        /* \"#utility.yul\":17407:17546   */\n      swap1\n      pop\n        /* \"#utility.yul\":17134:17553   */\n      swap2\n      swap1\n      pop\n      jump\t// out\n        /* \"#utility.yul\":17559:17727   */\n    tag_448:\n        /* \"#utility.yul\":17699:17719   */\n      0x43563a20696e76616c696420616d6f756e740000000000000000000000000000\n        /* \"#utility.yul\":17695:17696   */\n      0x00\n        /* \"#utility.yul\":17687:17693   */\n      dup3\n        /* \"#utility.yul\":17683:17697   */\n      add\n        /* \"#utility.yul\":17676:17720   */\n      mstore\n        /* \"#utility.yul\":17559:17727   */\n      pop\n      jump\t// out\n        /* \"#utility.yul\":17733:18099   */\n    tag_449:\n        /* \"#utility.yul\":17875:17878   */\n      0x00\n        /* \"#utility.yul\":17896:17963   */\n      tag_678\n        /* \"#utility.yul\":17960:17962   */\n      0x12\n        /* \"#utility.yul\":17955:17958   */\n      dup4\n        /* \"#utility.yul\":17896:17963   */\n      tag_441\n      jump\t// in\n    tag_678:\n        /* \"#utility.yul\":17889:17963   */\n      swap2\n      pop\n        /* \"#utility.yul\":17972:18065   */\n      tag_679\n        /* \"#utility.yul\":18061:18064   */\n      dup3\n        /* \"#utility.yul\":17972:18065   */\n      tag_448\n      jump\t// in\n    tag_679:\n        /* \"#utility.yul\":18090:18092   */\n      0x20\n        /* \"#utility.yul\":18085:18088   */\n      dup3\n        /* \"#utility.yul\":18081:18093   */\n      add\n        /* \"#utility.yul\":18074:18093   */\n      swap1\n      pop\n        /* \"#utility.yul\":17733:18099   */\n      swap2\n      swap1\n      pop\n      jump\t// out\n        /* \"#utility.yul\":18105:18524   */\n    tag_182:\n        /* \"#utility.yul\":18271:18275   */\n      0x00\n        /* \"#utility.yul\":18309:18311   */\n      0x20\n        /* \"#utility.yul\":18298:18307   */\n      dup3\n        /* \"#utility.yul\":18294:18312   */\n      add\n        /* \"#utility.yul\":18286:18312   */\n      swap1\n      pop\n        /* \"#utility.yul\":18358:18367   */\n      dup2\n        /* \"#utility.yul\":18352:18356   */\n      dup2\n        /* \"#utility.yul\":18348:18368   */\n      sub\n        /* \"#utility.yul\":18344:18345   */\n      0x00\n        /* \"#utility.yul\":18333:18342   */\n      dup4\n        /* \"#utility.yul\":18329:18346   */\n      add\n        /* \"#utility.yul\":18322:18369   */\n      mstore\n        /* \"#utility.yul\":18386:18517   */\n      tag_681\n        /* \"#utility.yul\":18512:18516   */\n      dup2\n        /* \"#utility.yul\":18386:18517   */\n      tag_449\n      jump\t// in\n    tag_681:\n        /* \"#utility.yul\":18378:18517   */\n      swap1\n      pop\n        /* \"#utility.yul\":18105:18524   */\n      swap2\n      swap1\n      pop\n      jump\t// out\n        /* \"#utility.yul\":18530:18703   */\n    tag_450:\n        /* \"#utility.yul\":18670:18695   */\n      0x757364742061646472657373206e6f7420636f6e666967000000000000000000\n        /* \"#utility.yul\":18666:18667   */\n      0x00\n        /* \"#utility.yul\":18658:18664   */\n      dup3\n        /* \"#utility.yul\":18654:18668   */\n      add\n        /* \"#utility.yul\":18647:18696   */\n      mstore\n        /* \"#utility.yul\":18530:18703   */\n      pop\n      jump\t// out\n        /* \"#utility.yul\":18709:19075   */\n    tag_451:\n        /* \"#utility.yul\":18851:18854   */\n      0x00\n        /* \"#utility.yul\":18872:18939   */\n      tag_684\n        /* \"#utility.yul\":18936:18938   */\n      0x17\n        /* \"#utility.yul\":18931:18934   */\n      dup4\n        /* \"#utility.yul\":18872:18939   */\n      tag_441\n      jump\t// in\n    tag_684:\n        /* \"#utility.yul\":18865:18939   */\n      swap2\n      pop\n        /* \"#utility.yul\":18948:19041   */\n      tag_685\n        /* \"#utility.yul\":19037:19040   */\n      dup3\n        /* \"#utility.yul\":18948:19041   */\n      tag_450\n      jump\t// in\n    tag_685:\n        /* \"#utility.yul\":19066:19068   */\n      0x20\n        /* \"#utility.yul\":19061:19064   */\n      dup3\n        /* \"#utility.yul\":19057:19069   */\n      add\n        /* \"#utility.yul\":19050:19069   */\n      swap1\n      pop\n        /* \"#utility.yul\":18709:19075   */\n      swap2\n      swap1\n      pop\n      jump\t// out\n        /* \"#utility.yul\":19081:19500   */\n    tag_188:\n        /* \"#utility.yul\":19247:19251   */\n      0x00\n        /* \"#utility.yul\":19285:19287   */\n      0x20\n        /* \"#utility.yul\":19274:19283   */\n      dup3\n        /* \"#utility.yul\":19270:19288   */\n      add\n        /* \"#utility.yul\":19262:19288   */\n      swap1\n      pop\n        /* \"#utility.yul\":19334:19343   */\n      dup2\n        /* \"#utility.yul\":19328:19332   */\n      dup2\n        /* \"#utility.yul\":19324:19344   */\n      sub\n        /* \"#utility.yul\":19320:19321   */\n      0x00\n        /* \"#utility.yul\":19309:19318   */\n      dup4\n        /* \"#utility.yul\":19305:19322   */\n      add\n        /* \"#utility.yul\":19298:19345   */\n      mstore\n        /* \"#utility.yul\":19362:19493   */\n      tag_687\n        /* \"#utility.yul\":19488:19492   */\n      dup2\n        /* \"#utility.yul\":19362:19493   */\n      tag_451\n      jump\t// in\n    tag_687:\n        /* \"#utility.yul\":19354:19493   */\n      swap1\n      pop\n        /* \"#utility.yul\":19081:19500   */\n      swap2\n      swap1\n      pop\n      jump\t// out\n        /* \"#utility.yul\":19506:19679   */\n    tag_452:\n        /* \"#utility.yul\":19646:19671   */\n      0x757364632061646472657373206e6f7420636f6e666967000000000000000000\n        /* \"#utility.yul\":19642:19643   */\n      0x00\n        /* \"#utility.yul\":19634:19640   */\n      dup3\n        /* \"#utility.yul\":19630:19644   */\n      add\n        /* \"#utility.yul\":19623:19672   */\n      mstore\n        /* \"#utility.yul\":19506:19679   */\n      pop\n      jump\t// out\n        /* \"#utility.yul\":19685:20051   */\n    tag_453:\n        /* \"#utility.yul\":19827:19830   */\n      0x00\n        /* \"#utility.yul\":19848:19915   */\n      tag_690\n        /* \"#utility.yul\":19912:19914   */\n      0x17\n        /* \"#utility.yul\":19907:19910   */\n      dup4\n        /* \"#utility.yul\":19848:19915   */\n      tag_441\n      jump\t// in\n    tag_690:\n        /* \"#utility.yul\":19841:19915   */\n      swap2\n      pop\n        /* \"#utility.yul\":19924:20017   */\n      tag_691\n        /* \"#utility.yul\":20013:20016   */\n      dup3\n        /* \"#utility.yul\":19924:20017   */\n      tag_452\n      jump\t// in\n    tag_691:\n        /* \"#utility.yul\":20042:20044   */\n      0x20\n        /* \"#utility.yul\":20037:20040   */\n      dup3\n        /* \"#utility.yul\":20033:20045   */\n      add\n        /* \"#utility.yul\":20026:20045   */\n      swap1\n      pop\n        /* \"#utility.yul\":19685:20051   */\n      swap2\n      swap1\n      pop\n      jump\t// out\n        /* \"#utility.yul\":20057:20476   */\n    tag_195:\n        /* \"#utility.yul\":20223:20227   */\n      0x00\n        /* \"#utility.yul\":20261:20263   */\n      0x20\n        /* \"#utility.yul\":20250:20259   */\n      dup3\n        /* \"#utility.yul\":20246:20264   */\n      add\n        /* \"#utility.yul\":20238:20264   */\n      swap1\n      pop\n        /* \"#utility.yul\":20310:20319   */\n      dup2\n        /* \"#utility.yul\":20304:20308   */\n      dup2\n        /* \"#utility.yul\":20300:20320   */\n      sub\n        /* \"#utility.yul\":20296:20297   */\n      0x00\n        /* \"#utility.yul\":20285:20294   */\n      dup4\n        /* \"#utility.yul\":20281:20298   */\n      add\n        /* \"#utility.yul\":20274:20321   */\n      mstore\n        /* \"#utility.yul\":20338:20469   */\n      tag_693\n        /* \"#utility.yul\":20464:20468   */\n      dup2\n        /* \"#utility.yul\":20338:20469   */\n      tag_453\n      jump\t// in\n    tag_693:\n        /* \"#utility.yul\":20330:20469   */\n      swap1\n      pop\n        /* \"#utility.yul\":20057:20476   */\n      swap2\n      swap1\n      pop\n      jump\t// out\n        /* \"#utility.yul\":20482:20654   */\n    tag_454:\n        /* \"#utility.yul\":20622:20646   */\n      0x6574682061646472657373206e6f7420636f6e66696700000000000000000000\n        /* \"#utility.yul\":20618:20619   */\n      0x00\n        /* \"#utility.yul\":20610:20616   */\n      dup3\n        /* \"#utility.yul\":20606:20620   */\n      add\n        /* \"#utility.yul\":20599:20647   */\n      mstore\n        /* \"#utility.yul\":20482:20654   */\n      pop\n      jump\t// out\n        /* \"#utility.yul\":20660:21026   */\n    tag_455:\n        /* \"#utility.yul\":20802:20805   */\n      0x00\n        /* \"#utility.yul\":20823:20890   */\n      tag_696\n        /* \"#utility.yul\":20887:20889   */\n      0x16\n        /* \"#utility.yul\":20882:20885   */\n      dup4\n        /* \"#utility.yul\":20823:20890   */\n      tag_441\n      jump\t// in\n    tag_696:\n        /* \"#utility.yul\":20816:20890   */\n      swap2\n      pop\n        /* \"#utility.yul\":20899:20992   */\n      tag_697\n        /* \"#utility.yul\":20988:20991   */\n      dup3\n        /* \"#utility.yul\":20899:20992   */\n      tag_454\n      jump\t// in\n    tag_697:\n        /* \"#utility.yul\":21017:21019   */\n      0x20\n        /* \"#utility.yul\":21012:21015   */\n      dup3\n        /* \"#utility.yul\":21008:21020   */\n      add\n        /* \"#utility.yul\":21001:21020   */\n      swap1\n      pop\n        /* \"#utility.yul\":20660:21026   */\n      swap2\n      swap1\n      pop\n      jump\t// out\n        /* \"#utility.yul\":21032:21451   */\n    tag_201:\n        /* \"#utility.yul\":21198:21202   */\n      0x00\n        /* \"#utility.yul\":21236:21238   */\n      0x20\n        /* \"#utility.yul\":21225:21234   */\n      dup3\n        /* \"#utility.yul\":21221:21239   */\n      add\n        /* \"#utility.yul\":21213:21239   */\n      swap1\n      pop\n        /* \"#utility.yul\":21285:21294   */\n      dup2\n        /* \"#utility.yul\":21279:21283   */\n      dup2\n        /* \"#utility.yul\":21275:21295   */\n      sub\n        /* \"#utility.yul\":21271:21272   */\n      0x00\n        /* \"#utility.yul\":21260:21269   */\n      dup4\n        /* \"#utility.yul\":21256:21273   */\n      add\n        /* \"#utility.yul\":21249:21296   */\n      mstore\n        /* \"#utility.yul\":21313:21444   */\n      tag_699\n        /* \"#utility.yul\":21439:21443   */\n      dup2\n        /* \"#utility.yul\":21313:21444   */\n      tag_455\n      jump\t// in\n    tag_699:\n        /* \"#utility.yul\":21305:21444   */\n      swap1\n      pop\n        /* \"#utility.yul\":21032:21451   */\n      swap2\n      swap1\n      pop\n      jump\t// out\n        /* \"#utility.yul\":21457:21629   */\n    tag_456:\n        /* \"#utility.yul\":21597:21621   */\n      0x756d692061646472657373206e6f7420636f6e66696700000000000000000000\n        /* \"#utility.yul\":21593:21594   */\n      0x00\n        /* \"#utility.yul\":21585:21591   */\n      dup3\n        /* \"#utility.yul\":21581:21595   */\n      add\n        /* \"#utility.yul\":21574:21622   */\n      mstore\n        /* \"#utility.yul\":21457:21629   */\n      pop\n      jump\t// out\n        /* \"#utility.yul\":21635:22001   */\n    tag_457:\n        /* \"#utility.yul\":21777:21780   */\n      0x00\n        /* \"#utility.yul\":21798:21865   */\n      tag_702\n        /* \"#utility.yul\":21862:21864   */\n      0x16\n        /* \"#utility.yul\":21857:21860   */\n      dup4\n        /* \"#utility.yul\":21798:21865   */\n      tag_441\n      jump\t// in\n    tag_702:\n        /* \"#utility.yul\":21791:21865   */\n      swap2\n      pop\n        /* \"#utility.yul\":21874:21967   */\n      tag_703\n        /* \"#utility.yul\":21963:21966   */\n      dup3\n        /* \"#utility.yul\":21874:21967   */\n      tag_456\n      jump\t// in\n    tag_703:\n        /* \"#utility.yul\":21992:21994   */\n      0x20\n        /* \"#utility.yul\":21987:21990   */\n      dup3\n        /* \"#utility.yul\":21983:21995   */\n      add\n        /* \"#utility.yul\":21976:21995   */\n      swap1\n      pop\n        /* \"#utility.yul\":21635:22001   */\n      swap2\n      swap1\n      pop\n      jump\t// out\n        /* \"#utility.yul\":22007:22426   */\n    tag_207:\n        /* \"#utility.yul\":22173:22177   */\n      0x00\n        /* \"#utility.yul\":22211:22213   */\n      0x20\n        /* \"#utility.yul\":22200:22209   */\n      dup3\n        /* \"#utility.yul\":22196:22214   */\n      add\n        /* \"#utility.yul\":22188:22214   */\n      swap1\n      pop\n        /* \"#utility.yul\":22260:22269   */\n      dup2\n        /* \"#utility.yul\":22254:22258   */\n      dup2\n        /* \"#utility.yul\":22250:22270   */\n      sub\n        /* \"#utility.yul\":22246:22247   */\n      0x00\n        /* \"#utility.yul\":22235:22244   */\n      dup4\n        /* \"#utility.yul\":22231:22248   */\n      add\n        /* \"#utility.yul\":22224:22271   */\n      mstore\n        /* \"#utility.yul\":22288:22419   */\n      tag_705\n        /* \"#utility.yul\":22414:22418   */\n      dup2\n        /* \"#utility.yul\":22288:22419   */\n      tag_457\n      jump\t// in\n    tag_705:\n        /* \"#utility.yul\":22280:22419   */\n      swap1\n      pop\n        /* \"#utility.yul\":22007:22426   */\n      swap2\n      swap1\n      pop\n      jump\t// out\n        /* \"#utility.yul\":22432:22530   */\n    tag_458:\n        /* \"#utility.yul\":22483:22489   */\n      0x00\n        /* \"#utility.yul\":22517:22522   */\n      dup2\n        /* \"#utility.yul\":22511:22523   */\n      mload\n        /* \"#utility.yul\":22501:22523   */\n      swap1\n      pop\n        /* \"#utility.yul\":22432:22530   */\n      swap2\n      swap1\n      pop\n      jump\t// out\n        /* \"#utility.yul\":22536:22704   */\n    tag_459:\n        /* \"#utility.yul\":22619:22630   */\n      0x00\n        /* \"#utility.yul\":22653:22659   */\n      dup3\n        /* \"#utility.yul\":22648:22651   */\n      dup3\n        /* \"#utility.yul\":22641:22660   */\n      mstore\n        /* \"#utility.yul\":22693:22697   */\n      0x20\n        /* \"#utility.yul\":22688:22691   */\n      dup3\n        /* \"#utility.yul\":22684:22698   */\n      add\n        /* \"#utility.yul\":22669:22698   */\n      swap1\n      pop\n        /* \"#utility.yul\":22536:22704   */\n      swap3\n      swap2\n      pop\n      pop\n      jump\t// out\n        /* \"#utility.yul\":22710:22849   */\n    tag_460:\n        /* \"#utility.yul\":22799:22805   */\n      dup3\n        /* \"#utility.yul\":22794:22797   */\n      dup2\n        /* \"#utility.yul\":22789:22792   */\n      dup4\n        /* \"#utility.yul\":22783:22806   */\n      mcopy\n        /* \"#utility.yul\":22840:22841   */\n      0x00\n        /* \"#utility.yul\":22831:22837   */\n      dup4\n        /* \"#utility.yul\":22826:22829   */\n      dup4\n        /* \"#utility.yul\":22822:22838   */\n      add\n        /* \"#utility.yul\":22815:22842   */\n      mstore\n        /* \"#utility.yul\":22710:22849   */\n      pop\n      pop\n      pop\n      jump\t// out\n        /* \"#utility.yul\":22855:23228   */\n    tag_461:\n        /* \"#utility.yul\":22941:22944   */\n      0x00\n        /* \"#utility.yul\":22969:23007   */\n      tag_710\n        /* \"#utility.yul\":23001:23006   */\n      dup3\n        /* \"#utility.yul\":22969:23007   */\n      tag_458\n      jump\t// in\n    tag_710:\n        /* \"#utility.yul\":23023:23093   */\n      tag_711\n        /* \"#utility.yul\":23086:23092   */\n      dup2\n        /* \"#utility.yul\":23081:23084   */\n      dup6\n        /* \"#utility.yul\":23023:23093   */\n      tag_459\n      jump\t// in\n    tag_711:\n        /* \"#utility.yul\":23016:23093   */\n      swap4\n      pop\n        /* \"#utility.yul\":23102:23167   */\n      tag_712\n        /* \"#utility.yul\":23160:23166   */\n      dup2\n        /* \"#utility.yul\":23155:23158   */\n      dup6\n        /* \"#utility.yul\":23148:23152   */\n      0x20\n        /* \"#utility.yul\":23141:23146   */\n      dup7\n        /* \"#utility.yul\":23137:23153   */\n      add\n        /* \"#utility.yul\":23102:23167   */\n      tag_460\n      jump\t// in\n    tag_712:\n        /* \"#utility.yul\":23192:23221   */\n      tag_713\n        /* \"#utility.yul\":23214:23220   */\n      dup2\n        /* \"#utility.yul\":23192:23221   */\n      tag_409\n      jump\t// in\n    tag_713:\n        /* \"#utility.yul\":23187:23190   */\n      dup5\n        /* \"#utility.yul\":23183:23222   */\n      add\n        /* \"#utility.yul\":23176:23222   */\n      swap2\n      pop\n        /* \"#utility.yul\":22945:23228   */\n      pop\n        /* \"#utility.yul\":22855:23228   */\n      swap3\n      swap2\n      pop\n      pop\n      jump\t// out\n        /* \"#utility.yul\":23234:23874   */\n    tag_210:\n        /* \"#utility.yul\":23429:23433   */\n      0x00\n        /* \"#utility.yul\":23467:23470   */\n      0x80\n        /* \"#utility.yul\":23456:23465   */\n      dup3\n        /* \"#utility.yul\":23452:23471   */\n      add\n        /* \"#utility.yul\":23444:23471   */\n      swap1\n      pop\n        /* \"#utility.yul\":23481:23552   */\n      tag_715\n        /* \"#utility.yul\":23549:23550   */\n      0x00\n        /* \"#utility.yul\":23538:23547   */\n      dup4\n        /* \"#utility.yul\":23534:23551   */\n      add\n        /* \"#utility.yul\":23525:23531   */\n      dup8\n        /* \"#utility.yul\":23481:23552   */\n      tag_438\n      jump\t// in\n    tag_715:\n        /* \"#utility.yul\":23562:23634   */\n      tag_716\n        /* \"#utility.yul\":23630:23632   */\n      0x20\n        /* \"#utility.yul\":23619:23628   */\n      dup4\n        /* \"#utility.yul\":23615:23633   */\n      add\n        /* \"#utility.yul\":23606:23612   */\n      dup7\n        /* \"#utility.yul\":23562:23634   */\n      tag_438\n      jump\t// in\n    tag_716:\n        /* \"#utility.yul\":23644:23716   */\n      tag_717\n        /* \"#utility.yul\":23712:23714   */\n      0x40\n        /* \"#utility.yul\":23701:23710   */\n      dup4\n        /* \"#utility.yul\":23697:23715   */\n      add\n        /* \"#utility.yul\":23688:23694   */\n      dup6\n        /* \"#utility.yul\":23644:23716   */\n      tag_430\n      jump\t// in\n    tag_717:\n        /* \"#utility.yul\":23763:23772   */\n      dup2\n        /* \"#utility.yul\":23757:23761   */\n      dup2\n        /* \"#utility.yul\":23753:23773   */\n      sub\n        /* \"#utility.yul\":23748:23750   */\n      0x60\n        /* \"#utility.yul\":23737:23746   */\n      dup4\n        /* \"#utility.yul\":23733:23751   */\n      add\n        /* \"#utility.yul\":23726:23774   */\n      mstore\n        /* \"#utility.yul\":23791:23867   */\n      tag_718\n        /* \"#utility.yul\":23862:23866   */\n      dup2\n        /* \"#utility.yul\":23853:23859   */\n      dup5\n        /* \"#utility.yul\":23791:23867   */\n      tag_461\n      jump\t// in\n    tag_718:\n        /* \"#utility.yul\":23783:23867   */\n      swap1\n      pop\n        /* \"#utility.yul\":23234:23874   */\n      swap6\n      swap5\n      pop\n      pop\n      pop\n      pop\n      pop\n      jump\t// out\n        /* \"#utility.yul\":23880:24060   */\n    tag_462:\n        /* \"#utility.yul\":23928:24005   */\n      0x4e487b7100000000000000000000000000000000000000000000000000000000\n        /* \"#utility.yul\":23925:23926   */\n      0x00\n        /* \"#utility.yul\":23918:24006   */\n      mstore\n        /* \"#utility.yul\":24025:24029   */\n      0x11\n        /* \"#utility.yul\":24022:24023   */\n      0x04\n        /* \"#utility.yul\":24015:24030   */\n      mstore\n        /* \"#utility.yul\":24049:24053   */\n      0x24\n        /* \"#utility.yul\":24046:24047   */\n      0x00\n        /* \"#utility.yul\":24039:24054   */\n      revert\n        /* \"#utility.yul\":24066:24476   */\n    tag_215:\n        /* \"#utility.yul\":24106:24113   */\n      0x00\n        /* \"#utility.yul\":24129:24149   */\n      tag_721\n        /* \"#utility.yul\":24147:24148   */\n      dup3\n        /* \"#utility.yul\":24129:24149   */\n      tag_422\n      jump\t// in\n    tag_721:\n        /* \"#utility.yul\":24124:24149   */\n      swap2\n      pop\n        /* \"#utility.yul\":24163:24183   */\n      tag_722\n        /* \"#utility.yul\":24181:24182   */\n      dup4\n        /* \"#utility.yul\":24163:24183   */\n      tag_422\n      jump\t// in\n    tag_722:\n        /* \"#utility.yul\":24158:24183   */\n      swap3\n      pop\n        /* \"#utility.yul\":24218:24219   */\n      dup3\n        /* \"#utility.yul\":24215:24216   */\n      dup3\n        /* \"#utility.yul\":24211:24220   */\n      mul\n        /* \"#utility.yul\":24240:24270   */\n      tag_723\n        /* \"#utility.yul\":24258:24269   */\n      dup2\n        /* \"#utility.yul\":24240:24270   */\n      tag_422\n      jump\t// in\n    tag_723:\n        /* \"#utility.yul\":24229:24270   */\n      swap2\n      pop\n        /* \"#utility.yul\":24419:24420   */\n      dup3\n        /* \"#utility.yul\":24410:24417   */\n      dup3\n        /* \"#utility.yul\":24406:24421   */\n      div\n        /* \"#utility.yul\":24403:24404   */\n      dup5\n        /* \"#utility.yul\":24400:24422   */\n      eq\n        /* \"#utility.yul\":24380:24381   */\n      dup4\n        /* \"#utility.yul\":24373:24382   */\n      iszero\n        /* \"#utility.yul\":24353:24436   */\n      or\n        /* \"#utility.yul\":24330:24469   */\n      tag_724\n      jumpi\n        /* \"#utility.yul\":24449:24467   */\n      tag_725\n      tag_462\n      jump\t// in\n    tag_725:\n        /* \"#utility.yul\":24330:24469   */\n    tag_724:\n        /* \"#utility.yul\":24114:24476   */\n      pop\n        /* \"#utility.yul\":24066:24476   */\n      swap3\n      swap2\n      pop\n      pop\n      jump\t// out\n        /* \"#utility.yul\":24482:25035   */\n    tag_217:\n        /* \"#utility.yul\":24659:24663   */\n      0x00\n        /* \"#utility.yul\":24697:24700   */\n      0x80\n        /* \"#utility.yul\":24686:24695   */\n      dup3\n        /* \"#utility.yul\":24682:24701   */\n      add\n        /* \"#utility.yul\":24674:24701   */\n      swap1\n      pop\n        /* \"#utility.yul\":24711:24782   */\n      tag_727\n        /* \"#utility.yul\":24779:24780   */\n      0x00\n        /* \"#utility.yul\":24768:24777   */\n      dup4\n        /* \"#utility.yul\":24764:24781   */\n      add\n        /* \"#utility.yul\":24755:24761   */\n      dup8\n        /* \"#utility.yul\":24711:24782   */\n      tag_430\n      jump\t// in\n    tag_727:\n        /* \"#utility.yul\":24792:24864   */\n      tag_728\n        /* \"#utility.yul\":24860:24862   */\n      0x20\n        /* \"#utility.yul\":24849:24858   */\n      dup4\n        /* \"#utility.yul\":24845:24863   */\n      add\n        /* \"#utility.yul\":24836:24842   */\n      dup7\n        /* \"#utility.yul\":24792:24864   */\n      tag_430\n      jump\t// in\n    tag_728:\n        /* \"#utility.yul\":24874:24946   */\n      tag_729\n        /* \"#utility.yul\":24942:24944   */\n      0x40\n        /* \"#utility.yul\":24931:24940   */\n      dup4\n        /* \"#utility.yul\":24927:24945   */\n      add\n        /* \"#utility.yul\":24918:24924   */\n      dup6\n        /* \"#utility.yul\":24874:24946   */\n      tag_438\n      jump\t// in\n    tag_729:\n        /* \"#utility.yul\":24956:25028   */\n      tag_730\n        /* \"#utility.yul\":25024:25026   */\n      0x60\n        /* \"#utility.yul\":25013:25022   */\n      dup4\n        /* \"#utility.yul\":25009:25027   */\n      add\n        /* \"#utility.yul\":25000:25006   */\n      dup5\n        /* \"#utility.yul\":24956:25028   */\n      tag_438\n      jump\t// in\n    tag_730:\n        /* \"#utility.yul\":24482:25035   */\n      swap6\n      swap5\n      pop\n      pop\n      pop\n      pop\n      pop\n      jump\t// out\n        /* \"#utility.yul\":25041:25208   */\n    tag_463:\n        /* \"#utility.yul\":25181:25200   */\n      0x746f6b656e206e6f7420737570706f7274000000000000000000000000000000\n        /* \"#utility.yul\":25177:25178   */\n      0x00\n        /* \"#utility.yul\":25169:25175   */\n      dup3\n        /* \"#utility.yul\":25165:25179   */\n      add\n        /* \"#utility.yul\":25158:25201   */\n      mstore\n        /* \"#utility.yul\":25041:25208   */\n      pop\n      jump\t// out\n        /* \"#utility.yul\":25214:25580   */\n    tag_464:\n        /* \"#utility.yul\":25356:25359   */\n      0x00\n        /* \"#utility.yul\":25377:25444   */\n      tag_733\n        /* \"#utility.yul\":25441:25443   */\n      0x11\n        /* \"#utility.yul\":25436:25439   */\n      dup4\n        /* \"#utility.yul\":25377:25444   */\n      tag_441\n      jump\t// in\n    tag_733:\n        /* \"#utility.yul\":25370:25444   */\n      swap2\n      pop\n        /* \"#utility.yul\":25453:25546   */\n      tag_734\n        /* \"#utility.yul\":25542:25545   */\n      dup3\n        /* \"#utility.yul\":25453:25546   */\n      tag_463\n      jump\t// in\n    tag_734:\n        /* \"#utility.yul\":25571:25573   */\n      0x20\n        /* \"#utility.yul\":25566:25569   */\n      dup3\n        /* \"#utility.yul\":25562:25574   */\n      add\n        /* \"#utility.yul\":25555:25574   */\n      swap1\n      pop\n        /* \"#utility.yul\":25214:25580   */\n      swap2\n      swap1\n      pop\n      jump\t// out\n        /* \"#utility.yul\":25586:26005   */\n    tag_225:\n        /* \"#utility.yul\":25752:25756   */\n      0x00\n        /* \"#utility.yul\":25790:25792   */\n      0x20\n        /* \"#utility.yul\":25779:25788   */\n      dup3\n        /* \"#utility.yul\":25775:25793   */\n      add\n        /* \"#utility.yul\":25767:25793   */\n      swap1\n      pop\n        /* \"#utility.yul\":25839:25848   */\n      dup2\n        /* \"#utility.yul\":25833:25837   */\n      dup2\n        /* \"#utility.yul\":25829:25849   */\n      sub\n        /* \"#utility.yul\":25825:25826   */\n      0x00\n        /* \"#utility.yul\":25814:25823   */\n      dup4\n        /* \"#utility.yul\":25810:25827   */\n      add\n        /* \"#utility.yul\":25803:25850   */\n      mstore\n        /* \"#utility.yul\":25867:25998   */\n      tag_736\n        /* \"#utility.yul\":25993:25997   */\n      dup2\n        /* \"#utility.yul\":25867:25998   */\n      tag_464\n      jump\t// in\n    tag_736:\n        /* \"#utility.yul\":25859:25998   */\n      swap1\n      pop\n        /* \"#utility.yul\":25586:26005   */\n      swap2\n      swap1\n      pop\n      jump\t// out\n        /* \"#utility.yul\":26011:26105   */\n    tag_465:\n        /* \"#utility.yul\":26044:26052   */\n      0x00\n        /* \"#utility.yul\":26092:26097   */\n      dup2\n        /* \"#utility.yul\":26088:26090   */\n      0x60\n        /* \"#utility.yul\":26084:26098   */\n      shl\n        /* \"#utility.yul\":26063:26098   */\n      swap1\n      pop\n        /* \"#utility.yul\":26011:26105   */\n      swap2\n      swap1\n      pop\n      jump\t// out\n        /* \"#utility.yul\":26111:26205   */\n    tag_466:\n        /* \"#utility.yul\":26150:26157   */\n      0x00\n        /* \"#utility.yul\":26179:26199   */\n      tag_739\n        /* \"#utility.yul\":26193:26198   */\n      dup3\n        /* \"#utility.yul\":26179:26199   */\n      tag_465\n      jump\t// in\n    tag_739:\n        /* \"#utility.yul\":26168:26199   */\n      swap1\n      pop\n        /* \"#utility.yul\":26111:26205   */\n      swap2\n      swap1\n      pop\n      jump\t// out\n        /* \"#utility.yul\":26211:26311   */\n    tag_467:\n        /* \"#utility.yul\":26250:26257   */\n      0x00\n        /* \"#utility.yul\":26279:26305   */\n      tag_741\n        /* \"#utility.yul\":26299:26304   */\n      dup3\n        /* \"#utility.yul\":26279:26305   */\n      tag_466\n      jump\t// in\n    tag_741:\n        /* \"#utility.yul\":26268:26305   */\n      swap1\n      pop\n        /* \"#utility.yul\":26211:26311   */\n      swap2\n      swap1\n      pop\n      jump\t// out\n        /* \"#utility.yul\":26317:26474   */\n    tag_468:\n        /* \"#utility.yul\":26422:26467   */\n      tag_743\n        /* \"#utility.yul\":26442:26466   */\n      tag_744\n        /* \"#utility.yul\":26460:26465   */\n      dup3\n        /* \"#utility.yul\":26442:26466   */\n      tag_404\n      jump\t// in\n    tag_744:\n        /* \"#utility.yul\":26422:26467   */\n      tag_467\n      jump\t// in\n    tag_743:\n        /* \"#utility.yul\":26417:26420   */\n      dup3\n        /* \"#utility.yul\":26410:26468   */\n      mstore\n        /* \"#utility.yul\":26317:26474   */\n      pop\n      pop\n      jump\t// out\n        /* \"#utility.yul\":26480:26559   */\n    tag_469:\n        /* \"#utility.yul\":26519:26526   */\n      0x00\n        /* \"#utility.yul\":26548:26553   */\n      dup2\n        /* \"#utility.yul\":26537:26553   */\n      swap1\n      pop\n        /* \"#utility.yul\":26480:26559   */\n      swap2\n      swap1\n      pop\n      jump\t// out\n        /* \"#utility.yul\":26565:26722   */\n    tag_470:\n        /* \"#utility.yul\":26670:26715   */\n      tag_747\n        /* \"#utility.yul\":26690:26714   */\n      tag_748\n        /* \"#utility.yul\":26708:26713   */\n      dup3\n        /* \"#utility.yul\":26690:26714   */\n      tag_422\n      jump\t// in\n    tag_748:\n        /* \"#utility.yul\":26670:26715   */\n      tag_469\n      jump\t// in\n    tag_747:\n        /* \"#utility.yul\":26665:26668   */\n      dup3\n        /* \"#utility.yul\":26658:26716   */\n      mstore\n        /* \"#utility.yul\":26565:26722   */\n      pop\n      pop\n      jump\t// out\n        /* \"#utility.yul\":26728:26827   */\n    tag_471:\n        /* \"#utility.yul\":26780:26786   */\n      0x00\n        /* \"#utility.yul\":26814:26819   */\n      dup2\n        /* \"#utility.yul\":26808:26820   */\n      mload\n        /* \"#utility.yul\":26798:26820   */\n      swap1\n      pop\n        /* \"#utility.yul\":26728:26827   */\n      swap2\n      swap1\n      pop\n      jump\t// out\n        /* \"#utility.yul\":26833:26981   */\n    tag_472:\n        /* \"#utility.yul\":26935:26946   */\n      0x00\n        /* \"#utility.yul\":26972:26975   */\n      dup2\n        /* \"#utility.yul\":26957:26975   */\n      swap1\n      pop\n        /* \"#utility.yul\":26833:26981   */\n      swap3\n      swap2\n      pop\n      pop\n      jump\t// out\n        /* \"#utility.yul\":26987:27377   */\n    tag_473:\n        /* \"#utility.yul\":27093:27096   */\n      0x00\n        /* \"#utility.yul\":27121:27160   */\n      tag_752\n        /* \"#utility.yul\":27154:27159   */\n      dup3\n        /* \"#utility.yul\":27121:27160   */\n      tag_471\n      jump\t// in\n    tag_752:\n        /* \"#utility.yul\":27176:27265   */\n      tag_753\n        /* \"#utility.yul\":27258:27264   */\n      dup2\n        /* \"#utility.yul\":27253:27256   */\n      dup6\n        /* \"#utility.yul\":27176:27265   */\n      tag_472\n      jump\t// in\n    tag_753:\n        /* \"#utility.yul\":27169:27265   */\n      swap4\n      pop\n        /* \"#utility.yul\":27274:27339   */\n      tag_754\n        /* \"#utility.yul\":27332:27338   */\n      dup2\n        /* \"#utility.yul\":27327:27330   */\n      dup6\n        /* \"#utility.yul\":27320:27324   */\n      0x20\n        /* \"#utility.yul\":27313:27318   */\n      dup7\n        /* \"#utility.yul\":27309:27325   */\n      add\n        /* \"#utility.yul\":27274:27339   */\n      tag_460\n      jump\t// in\n    tag_754:\n        /* \"#utility.yul\":27364:27370   */\n      dup1\n        /* \"#utility.yul\":27359:27362   */\n      dup5\n        /* \"#utility.yul\":27355:27371   */\n      add\n        /* \"#utility.yul\":27348:27371   */\n      swap2\n      pop\n        /* \"#utility.yul\":27097:27377   */\n      pop\n        /* \"#utility.yul\":26987:27377   */\n      swap3\n      swap2\n      pop\n      pop\n      jump\t// out\n        /* \"#utility.yul\":27383:27479   */\n    tag_474:\n        /* \"#utility.yul\":27417:27425   */\n      0x00\n        /* \"#utility.yul\":27466:27471   */\n      dup2\n        /* \"#utility.yul\":27461:27464   */\n      0xf8\n        /* \"#utility.yul\":27457:27472   */\n      shl\n        /* \"#utility.yul\":27436:27472   */\n      swap1\n      pop\n        /* \"#utility.yul\":27383:27479   */\n      swap2\n      swap1\n      pop\n      jump\t// out\n        /* \"#utility.yul\":27485:27578   */\n    tag_475:\n        /* \"#utility.yul\":27522:27529   */\n      0x00\n        /* \"#utility.yul\":27551:27572   */\n      tag_757\n        /* \"#utility.yul\":27566:27571   */\n      dup3\n        /* \"#utility.yul\":27551:27572   */\n      tag_474\n      jump\t// in\n    tag_757:\n        /* \"#utility.yul\":27540:27572   */\n      swap1\n      pop\n        /* \"#utility.yul\":27485:27578   */\n      swap2\n      swap1\n      pop\n      jump\t// out\n        /* \"#utility.yul\":27584:27679   */\n    tag_476:\n        /* \"#utility.yul\":27620:27627   */\n      0x00\n        /* \"#utility.yul\":27649:27673   */\n      tag_759\n        /* \"#utility.yul\":27667:27672   */\n      dup3\n        /* \"#utility.yul\":27649:27673   */\n      tag_475\n      jump\t// in\n    tag_759:\n        /* \"#utility.yul\":27638:27673   */\n      swap1\n      pop\n        /* \"#utility.yul\":27584:27679   */\n      swap2\n      swap1\n      pop\n      jump\t// out\n        /* \"#utility.yul\":27685:27830   */\n    tag_477:\n        /* \"#utility.yul\":27784:27823   */\n      tag_761\n        /* \"#utility.yul\":27801:27822   */\n      tag_762\n        /* \"#utility.yul\":27816:27821   */\n      dup3\n        /* \"#utility.yul\":27801:27822   */\n      tag_417\n      jump\t// in\n    tag_762:\n        /* \"#utility.yul\":27784:27823   */\n      tag_476\n      jump\t// in\n    tag_761:\n        /* \"#utility.yul\":27779:27782   */\n      dup3\n        /* \"#utility.yul\":27772:27824   */\n      mstore\n        /* \"#utility.yul\":27685:27830   */\n      pop\n      pop\n      jump\t// out\n        /* \"#utility.yul\":27836:29226   */\n    tag_227:\n        /* \"#utility.yul\":28186:28189   */\n      0x00\n        /* \"#utility.yul\":28201:28276   */\n      tag_764\n        /* \"#utility.yul\":28272:28275   */\n      dup3\n        /* \"#utility.yul\":28263:28269   */\n      dup13\n        /* \"#utility.yul\":28201:28276   */\n      tag_468\n      jump\t// in\n    tag_764:\n        /* \"#utility.yul\":28301:28303   */\n      0x14\n        /* \"#utility.yul\":28296:28299   */\n      dup3\n        /* \"#utility.yul\":28292:28304   */\n      add\n        /* \"#utility.yul\":28285:28304   */\n      swap2\n      pop\n        /* \"#utility.yul\":28314:28389   */\n      tag_765\n        /* \"#utility.yul\":28385:28388   */\n      dup3\n        /* \"#utility.yul\":28376:28382   */\n      dup12\n        /* \"#utility.yul\":28314:28389   */\n      tag_468\n      jump\t// in\n    tag_765:\n        /* \"#utility.yul\":28414:28416   */\n      0x14\n        /* \"#utility.yul\":28409:28412   */\n      dup3\n        /* \"#utility.yul\":28405:28417   */\n      add\n        /* \"#utility.yul\":28398:28417   */\n      swap2\n      pop\n        /* \"#utility.yul\":28427:28502   */\n      tag_766\n        /* \"#utility.yul\":28498:28501   */\n      dup3\n        /* \"#utility.yul\":28489:28495   */\n      dup11\n        /* \"#utility.yul\":28427:28502   */\n      tag_470\n      jump\t// in\n    tag_766:\n        /* \"#utility.yul\":28527:28529   */\n      0x20\n        /* \"#utility.yul\":28522:28525   */\n      dup3\n        /* \"#utility.yul\":28518:28530   */\n      add\n        /* \"#utility.yul\":28511:28530   */\n      swap2\n      pop\n        /* \"#utility.yul\":28540:28615   */\n      tag_767\n        /* \"#utility.yul\":28611:28614   */\n      dup3\n        /* \"#utility.yul\":28602:28608   */\n      dup10\n        /* \"#utility.yul\":28540:28615   */\n      tag_470\n      jump\t// in\n    tag_767:\n        /* \"#utility.yul\":28640:28642   */\n      0x20\n        /* \"#utility.yul\":28635:28638   */\n      dup3\n        /* \"#utility.yul\":28631:28643   */\n      add\n        /* \"#utility.yul\":28624:28643   */\n      swap2\n      pop\n        /* \"#utility.yul\":28653:28728   */\n      tag_768\n        /* \"#utility.yul\":28724:28727   */\n      dup3\n        /* \"#utility.yul\":28715:28721   */\n      dup9\n        /* \"#utility.yul\":28653:28728   */\n      tag_470\n      jump\t// in\n    tag_768:\n        /* \"#utility.yul\":28753:28755   */\n      0x20\n        /* \"#utility.yul\":28748:28751   */\n      dup3\n        /* \"#utility.yul\":28744:28756   */\n      add\n        /* \"#utility.yul\":28737:28756   */\n      swap2\n      pop\n        /* \"#utility.yul\":28773:28868   */\n      tag_769\n        /* \"#utility.yul\":28864:28867   */\n      dup3\n        /* \"#utility.yul\":28855:28861   */\n      dup8\n        /* \"#utility.yul\":28773:28868   */\n      tag_473\n      jump\t// in\n    tag_769:\n        /* \"#utility.yul\":28766:28868   */\n      swap2\n      pop\n        /* \"#utility.yul\":28878:28953   */\n      tag_770\n        /* \"#utility.yul\":28949:28952   */\n      dup3\n        /* \"#utility.yul\":28940:28946   */\n      dup7\n        /* \"#utility.yul\":28878:28953   */\n      tag_468\n      jump\t// in\n    tag_770:\n        /* \"#utility.yul\":28978:28980   */\n      0x14\n        /* \"#utility.yul\":28973:28976   */\n      dup3\n        /* \"#utility.yul\":28969:28981   */\n      add\n        /* \"#utility.yul\":28962:28981   */\n      swap2\n      pop\n        /* \"#utility.yul\":28991:29060   */\n      tag_771\n        /* \"#utility.yul\":29056:29059   */\n      dup3\n        /* \"#utility.yul\":29047:29053   */\n      dup6\n        /* \"#utility.yul\":28991:29060   */\n      tag_477\n      jump\t// in\n    tag_771:\n        /* \"#utility.yul\":29085:29086   */\n      0x01\n        /* \"#utility.yul\":29080:29083   */\n      dup3\n        /* \"#utility.yul\":29076:29087   */\n      add\n        /* \"#utility.yul\":29069:29087   */\n      swap2\n      pop\n        /* \"#utility.yul\":29097:29172   */\n      tag_772\n        /* \"#utility.yul\":29168:29171   */\n      dup3\n        /* \"#utility.yul\":29159:29165   */\n      dup5\n        /* \"#utility.yul\":29097:29172   */\n      tag_470\n      jump\t// in\n    tag_772:\n        /* \"#utility.yul\":29197:29199   */\n      0x20\n        /* \"#utility.yul\":29192:29195   */\n      dup3\n        /* \"#utility.yul\":29188:29200   */\n      add\n        /* \"#utility.yul\":29181:29200   */\n      swap2\n      pop\n        /* \"#utility.yul\":29217:29220   */\n      dup2\n        /* \"#utility.yul\":29210:29220   */\n      swap1\n      pop\n        /* \"#utility.yul\":27836:29226   */\n      swap11\n      swap10\n      pop\n      pop\n      pop\n      pop\n      pop\n      pop\n      pop\n      pop\n      pop\n      pop\n      jump\t// out\n        /* \"#utility.yul\":29232:29318   */\n    tag_478:\n        /* \"#utility.yul\":29267:29274   */\n      0x00\n        /* \"#utility.yul\":29307:29311   */\n      0xff\n        /* \"#utility.yul\":29300:29305   */\n      dup3\n        /* \"#utility.yul\":29296:29312   */\n      and\n        /* \"#utility.yul\":29285:29312   */\n      swap1\n      pop\n        /* \"#utility.yul\":29232:29318   */\n      swap2\n      swap1\n      pop\n      jump\t// out\n        /* \"#utility.yul\":29324:29436   */\n    tag_479:\n        /* \"#utility.yul\":29407:29429   */\n      tag_775\n        /* \"#utility.yul\":29423:29428   */\n      dup2\n        /* \"#utility.yul\":29407:29429   */\n      tag_478\n      jump\t// in\n    tag_775:\n        /* \"#utility.yul\":29402:29405   */\n      dup3\n        /* \"#utility.yul\":29395:29430   */\n      mstore\n        /* \"#utility.yul\":29324:29436   */\n      pop\n      pop\n      jump\t// out\n        /* \"#utility.yul\":29442:29987   */\n    tag_248:\n        /* \"#utility.yul\":29615:29619   */\n      0x00\n        /* \"#utility.yul\":29653:29656   */\n      0x80\n        /* \"#utility.yul\":29642:29651   */\n      dup3\n        /* \"#utility.yul\":29638:29657   */\n      add\n        /* \"#utility.yul\":29630:29657   */\n      swap1\n      pop\n        /* \"#utility.yul\":29667:29738   */\n      tag_777\n        /* \"#utility.yul\":29735:29736   */\n      0x00\n        /* \"#utility.yul\":29724:29733   */\n      dup4\n        /* \"#utility.yul\":29720:29737   */\n      add\n        /* \"#utility.yul\":29711:29717   */\n      dup8\n        /* \"#utility.yul\":29667:29738   */\n      tag_432\n      jump\t// in\n    tag_777:\n        /* \"#utility.yul\":29748:29816   */\n      tag_778\n        /* \"#utility.yul\":29812:29814   */\n      0x20\n        /* \"#utility.yul\":29801:29810   */\n      dup4\n        /* \"#utility.yul\":29797:29815   */\n      add\n        /* \"#utility.yul\":29788:29794   */\n      dup7\n        /* \"#utility.yul\":29748:29816   */\n      tag_479\n      jump\t// in\n    tag_778:\n        /* \"#utility.yul\":29826:29898   */\n      tag_779\n        /* \"#utility.yul\":29894:29896   */\n      0x40\n        /* \"#utility.yul\":29883:29892   */\n      dup4\n        /* \"#utility.yul\":29879:29897   */\n      add\n        /* \"#utility.yul\":29870:29876   */\n      dup6\n        /* \"#utility.yul\":29826:29898   */\n      tag_432\n      jump\t// in\n    tag_779:\n        /* \"#utility.yul\":29908:29980   */\n      tag_780\n        /* \"#utility.yul\":29976:29978   */\n      0x60\n        /* \"#utility.yul\":29965:29974   */\n      dup4\n        /* \"#utility.yul\":29961:29979   */\n      add\n        /* \"#utility.yul\":29952:29958   */\n      dup5\n        /* \"#utility.yul\":29908:29980   */\n      tag_432\n      jump\t// in\n    tag_780:\n        /* \"#utility.yul\":29442:29987   */\n      swap6\n      swap5\n      pop\n      pop\n      pop\n      pop\n      pop\n      jump\t// out\n        /* \"#utility.yul\":29993:30325   */\n    tag_294:\n        /* \"#utility.yul\":30114:30118   */\n      0x00\n        /* \"#utility.yul\":30152:30154   */\n      0x40\n        /* \"#utility.yul\":30141:30150   */\n      dup3\n        /* \"#utility.yul\":30137:30155   */\n      add\n        /* \"#utility.yul\":30129:30155   */\n      swap1\n      pop\n        /* \"#utility.yul\":30165:30236   */\n      tag_782\n        /* \"#utility.yul\":30233:30234   */\n      0x00\n        /* \"#utility.yul\":30222:30231   */\n      dup4\n        /* \"#utility.yul\":30218:30235   */\n      add\n        /* \"#utility.yul\":30209:30215   */\n      dup6\n        /* \"#utility.yul\":30165:30236   */\n      tag_438\n      jump\t// in\n    tag_782:\n        /* \"#utility.yul\":30246:30318   */\n      tag_783\n        /* \"#utility.yul\":30314:30316   */\n      0x20\n        /* \"#utility.yul\":30303:30312   */\n      dup4\n        /* \"#utility.yul\":30299:30317   */\n      add\n        /* \"#utility.yul\":30290:30296   */\n      dup5\n        /* \"#utility.yul\":30246:30318   */\n      tag_438\n      jump\t// in\n    tag_783:\n        /* \"#utility.yul\":29993:30325   */\n      swap4\n      swap3\n      pop\n      pop\n      pop\n      jump\t// out\n        /* \"#utility.yul\":30331:30468   */\n    tag_480:\n        /* \"#utility.yul\":30385:30390   */\n      0x00\n        /* \"#utility.yul\":30416:30422   */\n      dup2\n        /* \"#utility.yul\":30410:30423   */\n      mload\n        /* \"#utility.yul\":30401:30423   */\n      swap1\n      pop\n        /* \"#utility.yul\":30432:30462   */\n      tag_785\n        /* \"#utility.yul\":30456:30461   */\n      dup2\n        /* \"#utility.yul\":30432:30462   */\n      tag_425\n      jump\t// in\n    tag_785:\n        /* \"#utility.yul\":30331:30468   */\n      swap3\n      swap2\n      pop\n      pop\n      jump\t// out\n        /* \"#utility.yul\":30474:30819   */\n    tag_298:\n        /* \"#utility.yul\":30541:30547   */\n      0x00\n        /* \"#utility.yul\":30590:30592   */\n      0x20\n        /* \"#utility.yul\":30578:30587   */\n      dup3\n        /* \"#utility.yul\":30569:30576   */\n      dup5\n        /* \"#utility.yul\":30565:30588   */\n      sub\n        /* \"#utility.yul\":30561:30593   */\n      slt\n        /* \"#utility.yul\":30558:30677   */\n      iszero\n      tag_787\n      jumpi\n        /* \"#utility.yul\":30596:30675   */\n      tag_788\n      tag_401\n      jump\t// in\n    tag_788:\n        /* \"#utility.yul\":30558:30677   */\n    tag_787:\n        /* \"#utility.yul\":30716:30717   */\n      0x00\n        /* \"#utility.yul\":30741:30802   */\n      tag_789\n        /* \"#utility.yul\":30794:30801   */\n      dup5\n        /* \"#utility.yul\":30785:30791   */\n      dup3\n        /* \"#utility.yul\":30774:30783   */\n      dup6\n        /* \"#utility.yul\":30770:30792   */\n      add\n        /* \"#utility.yul\":30741:30802   */\n      tag_480\n      jump\t// in\n    tag_789:\n        /* \"#utility.yul\":30731:30802   */\n      swap2\n      pop\n        /* \"#utility.yul\":30687:30812   */\n      pop\n        /* \"#utility.yul\":30474:30819   */\n      swap3\n      swap2\n      pop\n      pop\n      jump\t// out\n        /* \"#utility.yul\":30825:31001   */\n    tag_481:\n        /* \"#utility.yul\":30965:30993   */\n      0x43563a2073656c6c6572206973206e6f7420617070726f766564000000000000\n        /* \"#utility.yul\":30961:30962   */\n      0x00\n        /* \"#utility.yul\":30953:30959   */\n      dup3\n        /* \"#utility.yul\":30949:30963   */\n      add\n        /* \"#utility.yul\":30942:30994   */\n      mstore\n        /* \"#utility.yul\":30825:31001   */\n      pop\n      jump\t// out\n        /* \"#utility.yul\":31007:31373   */\n    tag_482:\n        /* \"#utility.yul\":31149:31152   */\n      0x00\n        /* \"#utility.yul\":31170:31237   */\n      tag_792\n        /* \"#utility.yul\":31234:31236   */\n      0x1a\n        /* \"#utility.yul\":31229:31232   */\n      dup4\n        /* \"#utility.yul\":31170:31237   */\n      tag_441\n      jump\t// in\n    tag_792:\n        /* \"#utility.yul\":31163:31237   */\n      swap2\n      pop\n        /* \"#utility.yul\":31246:31339   */\n      tag_793\n        /* \"#utility.yul\":31335:31338   */\n      dup3\n        /* \"#utility.yul\":31246:31339   */\n      tag_481\n      jump\t// in\n    tag_793:\n        /* \"#utility.yul\":31364:31366   */\n      0x20\n        /* \"#utility.yul\":31359:31362   */\n      dup3\n        /* \"#utility.yul\":31355:31367   */\n      add\n        /* \"#utility.yul\":31348:31367   */\n      swap1\n      pop\n        /* \"#utility.yul\":31007:31373   */\n      swap2\n      swap1\n      pop\n      jump\t// out\n        /* \"#utility.yul\":31379:31798   */\n    tag_301:\n        /* \"#utility.yul\":31545:31549   */\n      0x00\n        /* \"#utility.yul\":31583:31585   */\n      0x20\n        /* \"#utility.yul\":31572:31581   */\n      dup3\n        /* \"#utility.yul\":31568:31586   */\n      add\n        /* \"#utility.yul\":31560:31586   */\n      swap1\n      pop\n        /* \"#utility.yul\":31632:31641   */\n      dup2\n        /* \"#utility.yul\":31626:31630   */\n      dup2\n        /* \"#utility.yul\":31622:31642   */\n      sub\n        /* \"#utility.yul\":31618:31619   */\n      0x00\n        /* \"#utility.yul\":31607:31616   */\n      dup4\n        /* \"#utility.yul\":31603:31620   */\n      add\n        /* \"#utility.yul\":31596:31643   */\n      mstore\n        /* \"#utility.yul\":31660:31791   */\n      tag_795\n        /* \"#utility.yul\":31786:31790   */\n      dup2\n        /* \"#utility.yul\":31660:31791   */\n      tag_482\n      jump\t// in\n    tag_795:\n        /* \"#utility.yul\":31652:31791   */\n      swap1\n      pop\n        /* \"#utility.yul\":31379:31798   */\n      swap2\n      swap1\n      pop\n      jump\t// out\n        /* \"#utility.yul\":31804:32079   */\n    tag_314:\n        /* \"#utility.yul\":31936:31939   */\n      0x00\n        /* \"#utility.yul\":31958:32053   */\n      tag_797\n        /* \"#utility.yul\":32049:32052   */\n      dup3\n        /* \"#utility.yul\":32040:32046   */\n      dup5\n        /* \"#utility.yul\":31958:32053   */\n      tag_473\n      jump\t// in\n    tag_797:\n        /* \"#utility.yul\":31951:32053   */\n      swap2\n      pop\n        /* \"#utility.yul\":32070:32073   */\n      dup2\n        /* \"#utility.yul\":32063:32073   */\n      swap1\n      pop\n        /* \"#utility.yul\":31804:32079   */\n      swap3\n      swap2\n      pop\n      pop\n      jump\t// out\n        /* \"#utility.yul\":32085:32527   */\n    tag_327:\n        /* \"#utility.yul\":32234:32238   */\n      0x00\n        /* \"#utility.yul\":32272:32274   */\n      0x60\n        /* \"#utility.yul\":32261:32270   */\n      dup3\n        /* \"#utility.yul\":32257:32275   */\n      add\n        /* \"#utility.yul\":32249:32275   */\n      swap1\n      pop\n        /* \"#utility.yul\":32285:32356   */\n      tag_799\n        /* \"#utility.yul\":32353:32354   */\n      0x00\n        /* \"#utility.yul\":32342:32351   */\n      dup4\n        /* \"#utility.yul\":32338:32355   */\n      add\n        /* \"#utility.yul\":32329:32335   */\n      dup7\n        /* \"#utility.yul\":32285:32356   */\n      tag_438\n      jump\t// in\n    tag_799:\n        /* \"#utility.yul\":32366:32438   */\n      tag_800\n        /* \"#utility.yul\":32434:32436   */\n      0x20\n        /* \"#utility.yul\":32423:32432   */\n      dup4\n        /* \"#utility.yul\":32419:32437   */\n      add\n        /* \"#utility.yul\":32410:32416   */\n      dup6\n        /* \"#utility.yul\":32366:32438   */\n      tag_438\n      jump\t// in\n    tag_800:\n        /* \"#utility.yul\":32448:32520   */\n      tag_801\n        /* \"#utility.yul\":32516:32518   */\n      0x40\n        /* \"#utility.yul\":32505:32514   */\n      dup4\n        /* \"#utility.yul\":32501:32519   */\n      add\n        /* \"#utility.yul\":32492:32498   */\n      dup5\n        /* \"#utility.yul\":32448:32520   */\n      tag_430\n      jump\t// in\n    tag_801:\n        /* \"#utility.yul\":32085:32527   */\n      swap5\n      swap4\n      pop\n      pop\n      pop\n      pop\n      jump\t// out\n        /* \"#utility.yul\":32533:32727   */\n    tag_348:\n        /* \"#utility.yul\":32573:32577   */\n      0x00\n        /* \"#utility.yul\":32593:32613   */\n      tag_803\n        /* \"#utility.yul\":32611:32612   */\n      dup3\n        /* \"#utility.yul\":32593:32613   */\n      tag_422\n      jump\t// in\n    tag_803:\n        /* \"#utility.yul\":32588:32613   */\n      swap2\n      pop\n        /* \"#utility.yul\":32627:32647   */\n      tag_804\n        /* \"#utility.yul\":32645:32646   */\n      dup4\n        /* \"#utility.yul\":32627:32647   */\n      tag_422\n      jump\t// in\n    tag_804:\n        /* \"#utility.yul\":32622:32647   */\n      swap3\n      pop\n        /* \"#utility.yul\":32671:32672   */\n      dup3\n        /* \"#utility.yul\":32668:32669   */\n      dup3\n        /* \"#utility.yul\":32664:32673   */\n      sub\n        /* \"#utility.yul\":32656:32673   */\n      swap1\n      pop\n        /* \"#utility.yul\":32695:32696   */\n      dup2\n        /* \"#utility.yul\":32689:32693   */\n      dup2\n        /* \"#utility.yul\":32686:32697   */\n      gt\n        /* \"#utility.yul\":32683:32720   */\n      iszero\n      tag_805\n      jumpi\n        /* \"#utility.yul\":32700:32718   */\n      tag_806\n      tag_462\n      jump\t// in\n    tag_806:\n        /* \"#utility.yul\":32683:32720   */\n    tag_805:\n        /* \"#utility.yul\":32533:32727   */\n      swap3\n      swap2\n      pop\n      pop\n      jump\t// out\n        /* \"#utility.yul\":32733:33065   */\n    tag_353:\n        /* \"#utility.yul\":32854:32858   */\n      0x00\n        /* \"#utility.yul\":32892:32894   */\n      0x40\n        /* \"#utility.yul\":32881:32890   */\n      dup3\n        /* \"#utility.yul\":32877:32895   */\n      add\n        /* \"#utility.yul\":32869:32895   */\n      swap1\n      pop\n        /* \"#utility.yul\":32905:32976   */\n      tag_808\n        /* \"#utility.yul\":32973:32974   */\n      0x00\n        /* \"#utility.yul\":32962:32971   */\n      dup4\n        /* \"#utility.yul\":32958:32975   */\n      add\n        /* \"#utility.yul\":32949:32955   */\n      dup6\n        /* \"#utility.yul\":32905:32976   */\n      tag_438\n      jump\t// in\n    tag_808:\n        /* \"#utility.yul\":32986:33058   */\n      tag_809\n        /* \"#utility.yul\":33054:33056   */\n      0x20\n        /* \"#utility.yul\":33043:33052   */\n      dup4\n        /* \"#utility.yul\":33039:33057   */\n      add\n        /* \"#utility.yul\":33030:33036   */\n      dup5\n        /* \"#utility.yul\":32986:33058   */\n      tag_430\n      jump\t// in\n    tag_809:\n        /* \"#utility.yul\":32733:33065   */\n      swap4\n      swap3\n      pop\n      pop\n      pop\n      jump\t// out\n        /* \"#utility.yul\":33071:33245   */\n    tag_483:\n        /* \"#utility.yul\":33211:33237   */\n      0x696e76616c6964207369676e6174757265206c656e6774680000000000000000\n        /* \"#utility.yul\":33207:33208   */\n      0x00\n        /* \"#utility.yul\":33199:33205   */\n      dup3\n        /* \"#utility.yul\":33195:33209   */\n      add\n        /* \"#utility.yul\":33188:33238   */\n      mstore\n        /* \"#utility.yul\":33071:33245   */\n      pop\n      jump\t// out\n        /* \"#utility.yul\":33251:33617   */\n    tag_484:\n        /* \"#utility.yul\":33393:33396   */\n      0x00\n        /* \"#utility.yul\":33414:33481   */\n      tag_812\n        /* \"#utility.yul\":33478:33480   */\n      0x18\n        /* \"#utility.yul\":33473:33476   */\n      dup4\n        /* \"#utility.yul\":33414:33481   */\n      tag_441\n      jump\t// in\n    tag_812:\n        /* \"#utility.yul\":33407:33481   */\n      swap2\n      pop\n        /* \"#utility.yul\":33490:33583   */\n      tag_813\n        /* \"#utility.yul\":33579:33582   */\n      dup3\n        /* \"#utility.yul\":33490:33583   */\n      tag_483\n      jump\t// in\n    tag_813:\n        /* \"#utility.yul\":33608:33610   */\n      0x20\n        /* \"#utility.yul\":33603:33606   */\n      dup3\n        /* \"#utility.yul\":33599:33611   */\n      add\n        /* \"#utility.yul\":33592:33611   */\n      swap1\n      pop\n        /* \"#utility.yul\":33251:33617   */\n      swap2\n      swap1\n      pop\n      jump\t// out\n        /* \"#utility.yul\":33623:34042   */\n    tag_375:\n        /* \"#utility.yul\":33789:33793   */\n      0x00\n        /* \"#utility.yul\":33827:33829   */\n      0x20\n        /* \"#utility.yul\":33816:33825   */\n      dup3\n        /* \"#utility.yul\":33812:33830   */\n      add\n        /* \"#utility.yul\":33804:33830   */\n      swap1\n      pop\n        /* \"#utility.yul\":33876:33885   */\n      dup2\n        /* \"#utility.yul\":33870:33874   */\n      dup2\n        /* \"#utility.yul\":33866:33886   */\n      sub\n        /* \"#utility.yul\":33862:33863   */\n      0x00\n        /* \"#utility.yul\":33851:33860   */\n      dup4\n        /* \"#utility.yul\":33847:33864   */\n      add\n        /* \"#utility.yul\":33840:33887   */\n      mstore\n        /* \"#utility.yul\":33904:34035   */\n      tag_815\n        /* \"#utility.yul\":34030:34034   */\n      dup2\n        /* \"#utility.yul\":33904:34035   */\n      tag_484\n      jump\t// in\n    tag_815:\n        /* \"#utility.yul\":33896:34035   */\n      swap1\n      pop\n        /* \"#utility.yul\":33623:34042   */\n      swap2\n      swap1\n      pop\n      jump\t// out\n        /* \"#utility.yul\":34048:34262   */\n    tag_485:\n        /* \"#utility.yul\":34188:34254   */\n      0x19457468657265756d205369676e6564204d6573736167653a0a333200000000\n        /* \"#utility.yul\":34184:34185   */\n      0x00\n        /* \"#utility.yul\":34176:34182   */\n      dup3\n        /* \"#utility.yul\":34172:34186   */\n      add\n        /* \"#utility.yul\":34165:34255   */\n      mstore\n        /* \"#utility.yul\":34048:34262   */\n      pop\n      jump\t// out\n        /* \"#utility.yul\":34268:34670   */\n    tag_486:\n        /* \"#utility.yul\":34428:34431   */\n      0x00\n        /* \"#utility.yul\":34449:34534   */\n      tag_818\n        /* \"#utility.yul\":34531:34533   */\n      0x1c\n        /* \"#utility.yul\":34526:34529   */\n      dup4\n        /* \"#utility.yul\":34449:34534   */\n      tag_472\n      jump\t// in\n    tag_818:\n        /* \"#utility.yul\":34442:34534   */\n      swap2\n      pop\n        /* \"#utility.yul\":34543:34636   */\n      tag_819\n        /* \"#utility.yul\":34632:34635   */\n      dup3\n        /* \"#utility.yul\":34543:34636   */\n      tag_485\n      jump\t// in\n    tag_819:\n        /* \"#utility.yul\":34661:34663   */\n      0x1c\n        /* \"#utility.yul\":34656:34659   */\n      dup3\n        /* \"#utility.yul\":34652:34664   */\n      add\n        /* \"#utility.yul\":34645:34664   */\n      swap1\n      pop\n        /* \"#utility.yul\":34268:34670   */\n      swap2\n      swap1\n      pop\n      jump\t// out\n        /* \"#utility.yul\":34676:34755   */\n    tag_487:\n        /* \"#utility.yul\":34715:34722   */\n      0x00\n        /* \"#utility.yul\":34744:34749   */\n      dup2\n        /* \"#utility.yul\":34733:34749   */\n      swap1\n      pop\n        /* \"#utility.yul\":34676:34755   */\n      swap2\n      swap1\n      pop\n      jump\t// out\n        /* \"#utility.yul\":34761:34918   */\n    tag_488:\n        /* \"#utility.yul\":34866:34911   */\n      tag_822\n        /* \"#utility.yul\":34886:34910   */\n      tag_823\n        /* \"#utility.yul\":34904:34909   */\n      dup3\n        /* \"#utility.yul\":34886:34910   */\n      tag_431\n      jump\t// in\n    tag_823:\n        /* \"#utility.yul\":34866:34911   */\n      tag_487\n      jump\t// in\n    tag_822:\n        /* \"#utility.yul\":34861:34864   */\n      dup3\n        /* \"#utility.yul\":34854:34912   */\n      mstore\n        /* \"#utility.yul\":34761:34918   */\n      pop\n      pop\n      jump\t// out\n        /* \"#utility.yul\":34924:35446   */\n    tag_378:\n        /* \"#utility.yul\":35137:35140   */\n      0x00\n        /* \"#utility.yul\":35159:35307   */\n      tag_825\n        /* \"#utility.yul\":35303:35306   */\n      dup3\n        /* \"#utility.yul\":35159:35307   */\n      tag_486\n      jump\t// in\n    tag_825:\n        /* \"#utility.yul\":35152:35307   */\n      swap2\n      pop\n        /* \"#utility.yul\":35317:35392   */\n      tag_826\n        /* \"#utility.yul\":35388:35391   */\n      dup3\n        /* \"#utility.yul\":35379:35385   */\n      dup5\n        /* \"#utility.yul\":35317:35392   */\n      tag_488\n      jump\t// in\n    tag_826:\n        /* \"#utility.yul\":35417:35419   */\n      0x20\n        /* \"#utility.yul\":35412:35415   */\n      dup3\n        /* \"#utility.yul\":35408:35420   */\n      add\n        /* \"#utility.yul\":35401:35420   */\n      swap2\n      pop\n        /* \"#utility.yul\":35437:35440   */\n      dup2\n        /* \"#utility.yul\":35430:35440   */\n      swap1\n      pop\n        /* \"#utility.yul\":34924:35446   */\n      swap3\n      swap2\n      pop\n      pop\n      jump\t// out\n        /* \"#utility.yul\":35452:35632   */\n    tag_489:\n        /* \"#utility.yul\":35500:35577   */\n      0x4e487b7100000000000000000000000000000000000000000000000000000000\n        /* \"#utility.yul\":35497:35498   */\n      0x00\n        /* \"#utility.yul\":35490:35578   */\n      mstore\n        /* \"#utility.yul\":35597:35601   */\n      0x12\n        /* \"#utility.yul\":35594:35595   */\n      0x04\n        /* \"#utility.yul\":35587:35602   */\n      mstore\n        /* \"#utility.yul\":35621:35625   */\n      0x24\n        /* \"#utility.yul\":35618:35619   */\n      0x00\n        /* \"#utility.yul\":35611:35626   */\n      revert\n        /* \"#utility.yul\":35638:35823   */\n    tag_388:\n        /* \"#utility.yul\":35678:35679   */\n      0x00\n        /* \"#utility.yul\":35695:35715   */\n      tag_829\n        /* \"#utility.yul\":35713:35714   */\n      dup3\n        /* \"#utility.yul\":35695:35715   */\n      tag_422\n      jump\t// in\n    tag_829:\n        /* \"#utility.yul\":35690:35715   */\n      swap2\n      pop\n        /* \"#utility.yul\":35729:35749   */\n      tag_830\n        /* \"#utility.yul\":35747:35748   */\n      dup4\n        /* \"#utility.yul\":35729:35749   */\n      tag_422\n      jump\t// in\n    tag_830:\n        /* \"#utility.yul\":35724:35749   */\n      swap3\n      pop\n        /* \"#utility.yul\":35768:35769   */\n      dup3\n        /* \"#utility.yul\":35758:35793   */\n      tag_831\n      jumpi\n        /* \"#utility.yul\":35773:35791   */\n      tag_832\n      tag_489\n      jump\t// in\n    tag_832:\n        /* \"#utility.yul\":35758:35793   */\n    tag_831:\n        /* \"#utility.yul\":35815:35816   */\n      dup3\n        /* \"#utility.yul\":35812:35813   */\n      dup3\n        /* \"#utility.yul\":35808:35817   */\n      div\n        /* \"#utility.yul\":35803:35817   */\n      swap1\n      pop\n        /* \"#utility.yul\":35638:35823   */\n      swap3\n      swap2\n      pop\n      pop\n      jump\t// out\n        /* \"#utility.yul\":35829:36049   */\n    tag_490:\n        /* \"#utility.yul\":35969:36003   */\n      0x536166654d6174683a206d756c7469706c69636174696f6e206f766572666c6f\n        /* \"#utility.yul\":35965:35966   */\n      0x00\n        /* \"#utility.yul\":35957:35963   */\n      dup3\n        /* \"#utility.yul\":35953:35967   */\n      add\n        /* \"#utility.yul\":35946:36004   */\n      mstore\n        /* \"#utility.yul\":36038:36041   */\n      0x7700000000000000000000000000000000000000000000000000000000000000\n        /* \"#utility.yul\":36033:36035   */\n      0x20\n        /* \"#utility.yul\":36025:36031   */\n      dup3\n        /* \"#utility.yul\":36021:36036   */\n      add\n        /* \"#utility.yul\":36014:36042   */\n      mstore\n        /* \"#utility.yul\":35829:36049   */\n      pop\n      jump\t// out\n        /* \"#utility.yul\":36055:36421   */\n    tag_491:\n        /* \"#utility.yul\":36197:36200   */\n      0x00\n        /* \"#utility.yul\":36218:36285   */\n      tag_835\n        /* \"#utility.yul\":36282:36284   */\n      0x21\n        /* \"#utility.yul\":36277:36280   */\n      dup4\n        /* \"#utility.yul\":36218:36285   */\n      tag_441\n      jump\t// in\n    tag_835:\n        /* \"#utility.yul\":36211:36285   */\n      swap2\n      pop\n        /* \"#utility.yul\":36294:36387   */\n      tag_836\n        /* \"#utility.yul\":36383:36386   */\n      dup3\n        /* \"#utility.yul\":36294:36387   */\n      tag_490\n      jump\t// in\n    tag_836:\n        /* \"#utility.yul\":36412:36414   */\n      0x40\n        /* \"#utility.yul\":36407:36410   */\n      dup3\n        /* \"#utility.yul\":36403:36415   */\n      add\n        /* \"#utility.yul\":36396:36415   */\n      swap1\n      pop\n        /* \"#utility.yul\":36055:36421   */\n      swap2\n      swap1\n      pop\n      jump\t// out\n        /* \"#utility.yul\":36427:36846   */\n    tag_391:\n        /* \"#utility.yul\":36593:36597   */\n      0x00\n        /* \"#utility.yul\":36631:36633   */\n      0x20\n        /* \"#utility.yul\":36620:36629   */\n      dup3\n        /* \"#utility.yul\":36616:36634   */\n      add\n        /* \"#utility.yul\":36608:36634   */\n      swap1\n      pop\n        /* \"#utility.yul\":36680:36689   */\n      dup2\n        /* \"#utility.yul\":36674:36678   */\n      dup2\n        /* \"#utility.yul\":36670:36690   */\n      sub\n        /* \"#utility.yul\":36666:36667   */\n      0x00\n        /* \"#utility.yul\":36655:36664   */\n      dup4\n        /* \"#utility.yul\":36651:36668   */\n      add\n        /* \"#utility.yul\":36644:36691   */\n      mstore\n        /* \"#utility.yul\":36708:36839   */\n      tag_838\n        /* \"#utility.yul\":36834:36838   */\n      dup2\n        /* \"#utility.yul\":36708:36839   */\n      tag_491\n      jump\t// in\n    tag_838:\n        /* \"#utility.yul\":36700:36839   */\n      swap1\n      pop\n        /* \"#utility.yul\":36427:36846   */\n      swap2\n      swap1\n      pop\n      jump\t// out\n        /* \"#utility.yul\":36852:37229   */\n    tag_492:\n        /* \"#utility.yul\":36940:36943   */\n      0x00\n        /* \"#utility.yul\":36968:37007   */\n      tag_840\n        /* \"#utility.yul\":37001:37006   */\n      dup3\n        /* \"#utility.yul\":36968:37007   */\n      tag_471\n      jump\t// in\n    tag_840:\n        /* \"#utility.yul\":37023:37094   */\n      tag_841\n        /* \"#utility.yul\":37087:37093   */\n      dup2\n        /* \"#utility.yul\":37082:37085   */\n      dup6\n        /* \"#utility.yul\":37023:37094   */\n      tag_441\n      jump\t// in\n    tag_841:\n        /* \"#utility.yul\":37016:37094   */\n      swap4\n      pop\n        /* \"#utility.yul\":37103:37168   */\n      tag_842\n        /* \"#utility.yul\":37161:37167   */\n      dup2\n        /* \"#utility.yul\":37156:37159   */\n      dup6\n        /* \"#utility.yul\":37149:37153   */\n      0x20\n        /* \"#utility.yul\":37142:37147   */\n      dup7\n        /* \"#utility.yul\":37138:37154   */\n      add\n        /* \"#utility.yul\":37103:37168   */\n      tag_460\n      jump\t// in\n    tag_842:\n        /* \"#utility.yul\":37193:37222   */\n      tag_843\n        /* \"#utility.yul\":37215:37221   */\n      dup2\n        /* \"#utility.yul\":37193:37222   */\n      tag_409\n      jump\t// in\n    tag_843:\n        /* \"#utility.yul\":37188:37191   */\n      dup5\n        /* \"#utility.yul\":37184:37223   */\n      add\n        /* \"#utility.yul\":37177:37223   */\n      swap2\n      pop\n        /* \"#utility.yul\":36944:37229   */\n      pop\n        /* \"#utility.yul\":36852:37229   */\n      swap3\n      swap2\n      pop\n      pop\n      jump\t// out\n        /* \"#utility.yul\":37235:37548   */\n    tag_398:\n        /* \"#utility.yul\":37348:37352   */\n      0x00\n        /* \"#utility.yul\":37386:37388   */\n      0x20\n        /* \"#utility.yul\":37375:37384   */\n      dup3\n        /* \"#utility.yul\":37371:37389   */\n      add\n        /* \"#utility.yul\":37363:37389   */\n      swap1\n      pop\n        /* \"#utility.yul\":37435:37444   */\n      dup2\n        /* \"#utility.yul\":37429:37433   */\n      dup2\n        /* \"#utility.yul\":37425:37445   */\n      sub\n        /* \"#utility.yul\":37421:37422   */\n      0x00\n        /* \"#utility.yul\":37410:37419   */\n      dup4\n        /* \"#utility.yul\":37406:37423   */\n      add\n        /* \"#utility.yul\":37399:37446   */\n      mstore\n        /* \"#utility.yul\":37463:37541   */\n      tag_845\n        /* \"#utility.yul\":37536:37540   */\n      dup2\n        /* \"#utility.yul\":37527:37533   */\n      dup5\n        /* \"#utility.yul\":37463:37541   */\n      tag_492\n      jump\t// in\n    tag_845:\n        /* \"#utility.yul\":37455:37541   */\n      swap1\n      pop\n        /* \"#utility.yul\":37235:37548   */\n      swap3\n      swap2\n      pop\n      pop\n      jump\t// out\n\n    auxdata: 0xa26469706673582212205ca9f827aadebf4e9c0f1cd357f5ab4cebfcc5daafec826126f59a2e2545098e64736f6c63430008190033\n}\n",
				"bytecode": {
					"linkReferences": {},
					"object": "60a0604052730e9bb892a38d60b53085af77eda888790ef1dd3360055f6101000a81548173ffffffffffffffffffffffffffffffffffffffff021916908373ffffffffffffffffffffffffffffffffffffffff160217905550737fc5e3e61700e34218a00cc01e92957a4e6c888360065f6101000a81548173ffffffffffffffffffffffffffffffffffffffff021916908373ffffffffffffffffffffffffffffffffffffffff1602179055505f60075f6101000a81548173ffffffffffffffffffffffffffffffffffffffff021916908373ffffffffffffffffffffffffffffffffffffffff1602179055505f60085f6101000a81548173ffffffffffffffffffffffffffffffffffffffff021916908373ffffffffffffffffffffffffffffffffffffffff1602179055506101ea60095560d2600a5561012c600b55600a600c55600a600d556005600e55348015610157575f80fd5b50604051613c65380380613c6583398181016040528101906101799190610356565b84335f806101000a81548173ffffffffffffffffffffffffffffffffffffffff021916908373ffffffffffffffffffffffffffffffffffffffff1602179055508073ffffffffffffffffffffffffffffffffffffffff1660808173ffffffffffffffffffffffffffffffffffffffff1681525050508360015f6101000a81548173ffffffffffffffffffffffffffffffffffffffff021916908373ffffffffffffffffffffffffffffffffffffffff1602179055508260025f6101000a81548173ffffffffffffffffffffffffffffffffffffffff021916908373ffffffffffffffffffffffffffffffffffffffff1602179055508160045f6101000a81548173ffffffffffffffffffffffffffffffffffffffff021916908373ffffffffffffffffffffffffffffffffffffffff1602179055508060035f6101000a81548173ffffffffffffffffffffffffffffffffffffffff021916908373ffffffffffffffffffffffffffffffffffffffff16021790555050505050506103cd565b5f80fd5b5f73ffffffffffffffffffffffffffffffffffffffff82169050919050565b5f610325826102fc565b9050919050565b6103358161031b565b811461033f575f80fd5b50565b5f815190506103508161032c565b92915050565b5f805f805f60a0868803121561036f5761036e6102f8565b5b5f61037c88828901610342565b955050602061038d88828901610342565b945050604061039e88828901610342565b93505060606103af88828901610342565b92505060806103c088828901610342565b9150509295509295909350565b6080516138806103e55f395f610f9601526138805ff3fe608060405234801561000f575f80fd5b50600436106101ee575f3560e01c8063845a51ec1161010d578063bd9a3b6d116100a0578063d339db941161006f578063d339db941461055a578063f2699d5914610578578063f2fde38b14610594578063f851a440146105b0576101ee565b8063bd9a3b6d146104e6578063cb14687914610502578063cfd79d5d1461051e578063d1faf1571461053c576101ee565b80638da5cb5b116100dc5780638da5cb5b1461045e57806394dd453a1461047c5780639f2585a11461049a578063b24cf5d7146104ca576101ee565b8063845a51ec146103ea5780638705fcd4146104085780638b225f06146104245780638c7c9e0c14610440576101ee565b80633e413bee116101855780635b7633d0116101545780635b7633d01461038857806360f688ea146103a6578063704b6c02146103c4578063715018a6146103e0576101ee565b80633e413bee14610300578063412753581461031e578063572b6c051461033c57806358979bfe1461036c576101ee565b806314754e66116101c157806314754e6614610276578063228b03fa146102945780632515af37146102c45780632f48ab7d146102e2576101ee565b8063046dc166146101f25780630d3652ec1461020e57806310b8097c1461023e578063122c6fd71461025a575b5f80fd5b61020c6004803603810190610207919061265c565b6105ce565b005b610228600480360381019061022391906127c3565b610669565b6040516102359190612824565b60405180910390f35b61025860048036038101906102539190612973565b6107c8565b005b610274600480360381019061026f919061265c565b610dee565b005b61027e610e89565b60405161028b9190612aa7565b60405180910390f35b6102ae60048036038101906102a99190612ac0565b610e8f565b6040516102bb9190612bb8565b60405180910390f35b6102cc610f1e565b6040516102d99190612aa7565b60405180910390f35b6102ea610f24565b6040516102f79190612c2c565b60405180910390f35b610308610f49565b6040516103159190612c2c565b60405180910390f35b610326610f6e565b6040516103339190612c54565b60405180910390f35b6103566004803603810190610351919061265c565b610f93565b6040516103639190612824565b60405180910390f35b6103866004803603810190610381919061265c565b610fea565b005b610390611085565b60405161039d9190612c54565b60405180910390f35b6103ae6110aa565b6040516103bb9190612aa7565b60405180910390f35b6103de60048036038101906103d9919061265c565b6110b0565b005b6103e8611149565b005b6103f2611242565b6040516103ff9190612c54565b60405180910390f35b610422600480360381019061041d919061265c565b611267565b005b61043e6004803603810190610439919061265c565b611302565b005b61044861139d565b6040516104559190612c2c565b60405180910390f35b6104666113c2565b6040516104739190612c54565b60405180910390f35b6104846113e5565b6040516104919190612c2c565b60405180910390f35b6104b460048036038101906104af9190612c97565b61140a565b6040516104c19190612c54565b60405180910390f35b6104e460048036038101906104df919061265c565b611474565b005b61050060048036038101906104fb9190612cf1565b61150f565b005b61051c6004803603810190610517919061265c565b611597565b005b610526611632565b6040516105339190612aa7565b60405180910390f35b610544611638565b6040516105519190612aa7565b60405180910390f35b61056261163e565b60405161056f9190612aa7565b60405180910390f35b610592600480360381019061058d9190612973565b611644565b005b6105ae60048036038101906105a9919061265c565b611d23565b005b6105b8611e6b565b6040516105c59190612c54565b60405180910390f35b60015f9054906101000a900473ffffffffffffffffffffffffffffffffffffffff1673ffffffffffffffffffffffffffffffffffffffff163373ffffffffffffffffffffffffffffffffffffffff1614610626575f80fd5b8060045f6101000a81548173ffffffffffffffffffffffffffffffffffffffff021916908373ffffffffffffffffffffffffffffffffffffffff16021790555050565b5f6106a9826040518060400160405280600481526020017f7573647400000000000000000000000000000000000000000000000000000000815250611e90565b806106ef57506106ee826040518060400160405280600481526020017f7573646300000000000000000000000000000000000000000000000000000000815250611e90565b5b806107355750610734826040518060400160405280600381526020017f756d690000000000000000000000000000000000000000000000000000000000815250611e90565b5b8061077b575061077a826040518060400160405280600981526020017f64697665706f696e740000000000000000000000000000000000000000000000815250611e90565b5b806107c157506107c0826040518060400160405280600381526020017f6574680000000000000000000000000000000000000000000000000000000000815250611e90565b5b9050919050565b6107d133610f93565b610810576040517f08c379a000000000000000000000000000000000000000000000000000000000815260040161080790612dfa565b60405180910390fd5b5f73ffffffffffffffffffffffffffffffffffffffff168273ffffffffffffffffffffffffffffffffffffffff160361087e576040517f08c379a000000000000000000000000000000000000000000000000000000000815260040161087590612e62565b60405180910390fd5b610890828b8b8b8b8b8b8b8b8a611ee8565b6108cf576040517f08c379a00000000000000000000000000000000000000000000000000000000081526004016108c690612eca565b60405180910390fd5b868814610911576040517f08c379a000000000000000000000000000000000000000000000000000000000815260040161090890612f32565b60405180910390fd5b5f871115610d2657610958866040518060400160405280600481526020017f7573647400000000000000000000000000000000000000000000000000000000815250611e90565b15610a1c575f73ffffffffffffffffffffffffffffffffffffffff1660055f9054906101000a900473ffffffffffffffffffffffffffffffffffffffff1673ffffffffffffffffffffffffffffffffffffffff16036109ec576040517f08c379a00000000000000000000000000000000000000000000000000000000081526004016109e390612f9a565b60405180910390fd5b610a1b60055f9054906101000a900473ffffffffffffffffffffffffffffffffffffffff16838c88888c611fbc565b5b610a5b866040518060400160405280600481526020017f7573646300000000000000000000000000000000000000000000000000000000815250611e90565b15610b1f575f73ffffffffffffffffffffffffffffffffffffffff1660065f9054906101000a900473ffffffffffffffffffffffffffffffffffffffff1673ffffffffffffffffffffffffffffffffffffffff1603610aef576040517f08c379a0000000000000000000000000000000000000000000000000000000008152600401610ae690613002565b60405180910390fd5b610b1e60065f9054906101000a900473ffffffffffffffffffffffffffffffffffffffff16838c88888c611fbc565b5b610b5e866040518060400160405280600381526020017f6574680000000000000000000000000000000000000000000000000000000000815250611e90565b15610c22575f73ffffffffffffffffffffffffffffffffffffffff1660055f9054906101000a900473ffffffffffffffffffffffffffffffffffffffff1673ffffffffffffffffffffffffffffffffffffffff1603610bf2576040517f08c379a0000000000000000000000000000000000000000000000000000000008152600401610be99061306a565b60405180910390fd5b610c2160085f9054906101000a900473ffffffffffffffffffffffffffffffffffffffff16838c88888c611fbc565b5b610c61866040518060400160405280600381526020017f756d690000000000000000000000000000000000000000000000000000000000815250611e90565b15610d25575f73ffffffffffffffffffffffffffffffffffffffff1660075f9054906101000a900473ffffffffffffffffffffffffffffffffffffffff1673ffffffffffffffffffffffffffffffffffffffff1603610cf5576040517f08c379a0000000000000000000000000000000000000000000000000000000008152600401610cec906130d2565b60405180910390fd5b610d2460075f9054906101000a900473ffffffffffffffffffffffffffffffffffffffff16838c88888c611fbc565b5b5b60608b73ffffffffffffffffffffffffffffffffffffffff1663b88d4fde8c858d856040518563ffffffff1660e01b8152600401610d679493929190613150565b5f604051808303815f87803b158015610d7e575f80fd5b505af1158015610d90573d5f803e3d5ffd5b505050507fff8e373201d0e8ead3e3a60928e02004c2bcb407405f2f21e95283617f8b350c6305f5e1008b610dc591906131c7565b8a8d86604051610dd89493929190613208565b60405180910390a1505050505050505050505050565b60015f9054906101000a900473ffffffffffffffffffffffffffffffffffffffff1673ffffffffffffffffffffffffffffffffffffffff163373ffffffffffffffffffffffffffffffffffffffff1614610e46575f80fd5b8060085f6101000a81548173ffffffffffffffffffffffffffffffffffffffff021916908373ffffffffffffffffffffffffffffffffffffffff16021790555050565b600b5481565b5f610e9985610669565b610ed8576040517f08c379a0000000000000000000000000000000000000000000000000000000008152600401610ecf90613295565b60405180910390fd5b898989898989898989604051602001610ef9999897969594939291906133a1565b6040516020818303038152906040528051906020012090509998505050505050505050565b600e5481565b60055f9054906101000a900473ffffffffffffffffffffffffffffffffffffffff1681565b60065f9054906101000a900473ffffffffffffffffffffffffffffffffffffffff1681565b60025f9054906101000a900473ffffffffffffffffffffffffffffffffffffffff1681565b5f7f000000000000000000000000000000000000000000000000000000000000000073ffffffffffffffffffffffffffffffffffffffff168273ffffffffffffffffffffffffffffffffffffffff16149050919050565b60015f9054906101000a900473ffffffffffffffffffffffffffffffffffffffff1673ffffffffffffffffffffffffffffffffffffffff163373ffffffffffffffffffffffffffffffffffffffff1614611042575f80fd5b8060055f6101000a81548173ffffffffffffffffffffffffffffffffffffffff021916908373ffffffffffffffffffffffffffffffffffffffff16021790555050565b60045f9054906101000a900473ffffffffffffffffffffffffffffffffffffffff1681565b600c5481565b5f8054906101000a900473ffffffffffffffffffffffffffffffffffffffff1673ffffffffffffffffffffffffffffffffffffffff163373ffffffffffffffffffffffffffffffffffffffff1614611106575f80fd5b8060015f6101000a81548173ffffffffffffffffffffffffffffffffffffffff021916908373ffffffffffffffffffffffffffffffffffffffff16021790555050565b5f8054906101000a900473ffffffffffffffffffffffffffffffffffffffff1673ffffffffffffffffffffffffffffffffffffffff163373ffffffffffffffffffffffffffffffffffffffff161461119f575f80fd5b5f8054906101000a900473ffffffffffffffffffffffffffffffffffffffff1673ffffffffffffffffffffffffffffffffffffffff167ff8df31144d9c2f0f6b59d69b8b98abd5459d07f2742c4df920b25aae33c6482060405160405180910390a25f805f6101000a81548173ffffffffffffffffffffffffffffffffffffffff021916908373ffffffffffffffffffffffffffffffffffffffff160217905550565b60035f9054906101000a900473ffffffffffffffffffffffffffffffffffffffff1681565b60015f9054906101000a900473ffffffffffffffffffffffffffffffffffffffff1673ffffffffffffffffffffffffffffffffffffffff163373ffffffffffffffffffffffffffffffffffffffff16146112bf575f80fd5b8060025f6101000a81548173ffffffffffffffffffffffffffffffffffffffff021916908373ffffffffffffffffffffffffffffffffffffffff16021790555050565b60015f9054906101000a900473ffffffffffffffffffffffffffffffffffffffff1673ffffffffffffffffffffffffffffffffffffffff163373ffffffffffffffffffffffffffffffffffffffff161461135a575f80fd5b8060075f6101000a81548173ffffffffffffffffffffffffffffffffffffffff021916908373ffffffffffffffffffffffffffffffffffffffff16021790555050565b60085f9054906101000a900473ffffffffffffffffffffffffffffffffffffffff1681565b5f8054906101000a900473ffffffffffffffffffffffffffffffffffffffff1681565b60075f9054906101000a900473ffffffffffffffffffffffffffffffffffffffff1681565b5f805f80611417856123d2565b9250925092506001868285856040515f815260200160405260405161143f949392919061345a565b6020604051602081039080840390855afa15801561145f573d5f803e3d5ffd5b50505060206040510351935050505092915050565b60015f9054906101000a900473ffffffffffffffffffffffffffffffffffffffff1673ffffffffffffffffffffffffffffffffffffffff163373ffffffffffffffffffffffffffffffffffffffff16146114cc575f80fd5b8060035f6101000a81548173ffffffffffffffffffffffffffffffffffffffff021916908373ffffffffffffffffffffffffffffffffffffffff16021790555050565b5f8054906101000a900473ffffffffffffffffffffffffffffffffffffffff1673ffffffffffffffffffffffffffffffffffffffff163373ffffffffffffffffffffffffffffffffffffffff1614611565575f80fd5b8560098190555084600a8190555083600b8190555082600c8190555081600d8190555080600e81905550505050505050565b60015f9054906101000a900473ffffffffffffffffffffffffffffffffffffffff1673ffffffffffffffffffffffffffffffffffffffff163373ffffffffffffffffffffffffffffffffffffffff16146115ef575f80fd5b8060065f6101000a81548173ffffffffffffffffffffffffffffffffffffffff021916908373ffffffffffffffffffffffffffffffffffffffff16021790555050565b600d5481565b60095481565b600a5481565b61164d33610f93565b61168c576040517f08c379a000000000000000000000000000000000000000000000000000000000815260040161168390612dfa565b60405180910390fd5b5f73ffffffffffffffffffffffffffffffffffffffff168a73ffffffffffffffffffffffffffffffffffffffff16036116fa576040517f08c379a00000000000000000000000000000000000000000000000000000000081526004016116f190612e62565b60405180910390fd5b61170c8a838b8b8b8b8b8b8b8a611ee8565b61174b576040517f08c379a000000000000000000000000000000000000000000000000000000000815260040161174290612eca565b60405180910390fd5b86881461178d576040517f08c379a000000000000000000000000000000000000000000000000000000000815260040161178490612f32565b60405180910390fd5b5f871115611ba2576117d4866040518060400160405280600481526020017f7573647400000000000000000000000000000000000000000000000000000000815250611e90565b15611898575f73ffffffffffffffffffffffffffffffffffffffff1660055f9054906101000a900473ffffffffffffffffffffffffffffffffffffffff1673ffffffffffffffffffffffffffffffffffffffff1603611868576040517f08c379a000000000000000000000000000000000000000000000000000000000815260040161185f90612f9a565b60405180910390fd5b61189760055f9054906101000a900473ffffffffffffffffffffffffffffffffffffffff168b8488888c611fbc565b5b6118d7866040518060400160405280600481526020017f7573646300000000000000000000000000000000000000000000000000000000815250611e90565b1561199b575f73ffffffffffffffffffffffffffffffffffffffff1660065f9054906101000a900473ffffffffffffffffffffffffffffffffffffffff1673ffffffffffffffffffffffffffffffffffffffff160361196b576040517f08c379a000000000000000000000000000000000000000000000000000000000815260040161196290613002565b60405180910390fd5b61199a60065f9054906101000a900473ffffffffffffffffffffffffffffffffffffffff168b8488888c611fbc565b5b6119da866040518060400160405280600381526020017f6574680000000000000000000000000000000000000000000000000000000000815250611e90565b15611a9e575f73ffffffffffffffffffffffffffffffffffffffff1660085f9054906101000a900473ffffffffffffffffffffffffffffffffffffffff1673ffffffffffffffffffffffffffffffffffffffff1603611a6e576040517f08c379a0000000000000000000000000000000000000000000000000000000008152600401611a659061306a565b60405180910390fd5b611a9d60085f9054906101000a900473ffffffffffffffffffffffffffffffffffffffff168b8488888c611fbc565b5b611add866040518060400160405280600381526020017f756d690000000000000000000000000000000000000000000000000000000000815250611e90565b15611ba1575f73ffffffffffffffffffffffffffffffffffffffff1660075f9054906101000a900473ffffffffffffffffffffffffffffffffffffffff1673ffffffffffffffffffffffffffffffffffffffff1603611b71576040517f08c379a0000000000000000000000000000000000000000000000000000000008152600401611b68906130d2565b60405180910390fd5b611ba060075f9054906101000a900473ffffffffffffffffffffffffffffffffffffffff168b8488888c611fbc565b5b5b60608b73ffffffffffffffffffffffffffffffffffffffff1663e985e9c584306040518363ffffffff1660e01b8152600401611bdf92919061349d565b602060405180830381865afa158015611bfa573d5f803e3d5ffd5b505050506040513d601f19601f82011682018060405250810190611c1e91906134d8565b611c5d576040517f08c379a0000000000000000000000000000000000000000000000000000000008152600401611c549061354d565b60405180910390fd5b8b73ffffffffffffffffffffffffffffffffffffffff1663b88d4fde848d8d856040518563ffffffff1660e01b8152600401611c9c9493929190613150565b5f604051808303815f87803b158015611cb3575f80fd5b505af1158015611cc5573d5f803e3d5ffd5b505050507f73ee6083753970c82cf2d93ff7bb0432e00e0155c4096741ea134c74f67eb02b6305f5e1008b611cfa91906131c7565b8a8d86604051611d0d9493929190613208565b60405180910390a1505050505050505050505050565b5f8054906101000a900473ffffffffffffffffffffffffffffffffffffffff1673ffffffffffffffffffffffffffffffffffffffff163373ffffffffffffffffffffffffffffffffffffffff1614611d79575f80fd5b5f73ffffffffffffffffffffffffffffffffffffffff168173ffffffffffffffffffffffffffffffffffffffff1603611db0575f80fd5b8073ffffffffffffffffffffffffffffffffffffffff165f8054906101000a900473ffffffffffffffffffffffffffffffffffffffff1673ffffffffffffffffffffffffffffffffffffffff167f8be0079c531659141344cd1fd0a4f28419497f9722a3daafe3b4186f6b6457e060405160405180910390a3805f806101000a81548173ffffffffffffffffffffffffffffffffffffffff021916908373ffffffffffffffffffffffffffffffffffffffff16021790555050565b60015f9054906101000a900473ffffffffffffffffffffffffffffffffffffffff1681565b5f81604051602001611ea2919061356b565b6040516020818303038152906040528051906020012083604051602001611ec9919061356b565b6040516020818303038152906040528051906020012014905092915050565b5f611ef286610669565b611f31576040517f08c379a0000000000000000000000000000000000000000000000000000000008152600401611f2890613295565b60405180910390fd5b5f611f438c8c8c8c8c8c8c8c8c610e8f565b90505f611f4f82612437565b905060045f9054906101000a900473ffffffffffffffffffffffffffffffffffffffff1673ffffffffffffffffffffffffffffffffffffffff16611f938286612466565b73ffffffffffffffffffffffffffffffffffffffff1614925050509a9950505050505050505050565b5f805f8873ffffffffffffffffffffffffffffffffffffffff166323b872dd8930876040518463ffffffff1660e01b8152600401611ffc93929190613581565b6020604051808303815f875af1158015612018573d5f803e3d5ffd5b505050506040513d601f19601f8201168201806040525081019061203c91906134d8565b5084156120c95761206c6103e861205e600954876124d090919063ffffffff16565b61254790919063ffffffff16565b92506120976103e8612089600a54876124d090919063ffffffff16565b61254790919063ffffffff16565b91506120c26103e86120b4600b54876124d090919063ffffffff16565b61254790919063ffffffff16565b905061214b565b6120f26103e86120e4600d54876124d090919063ffffffff16565b61254790919063ffffffff16565b925061211d6103e861210f600c54876124d090919063ffffffff16565b61254790919063ffffffff16565b91506121486103e861213a600e54876124d090919063ffffffff16565b61254790919063ffffffff16565b90505b5f8183858761215a91906135b6565b61216491906135b6565b61216e91906135b6565b90505f8411156121f5578973ffffffffffffffffffffffffffffffffffffffff1663a9059cbb88866040518363ffffffff1660e01b81526004016121b39291906135e9565b6020604051808303815f875af11580156121cf573d5f803e3d5ffd5b505050506040513d601f19601f820116820180604052508101906121f391906134d8565b505b5f83111561229b578973ffffffffffffffffffffffffffffffffffffffff1663a9059cbb60025f9054906101000a900473ffffffffffffffffffffffffffffffffffffffff16856040518363ffffffff1660e01b81526004016122599291906135e9565b6020604051808303815f875af1158015612275573d5f803e3d5ffd5b505050506040513d601f19601f8201168201806040525081019061229991906134d8565b505b5f821115612341578973ffffffffffffffffffffffffffffffffffffffff1663a9059cbb60035f9054906101000a900473ffffffffffffffffffffffffffffffffffffffff16846040518363ffffffff1660e01b81526004016122ff9291906135e9565b6020604051808303815f875af115801561231b573d5f803e3d5ffd5b505050506040513d601f19601f8201168201806040525081019061233f91906134d8565b505b5f8111156123c6578973ffffffffffffffffffffffffffffffffffffffff1663a9059cbb89836040518363ffffffff1660e01b81526004016123849291906135e9565b6020604051808303815f875af11580156123a0573d5f803e3d5ffd5b505050506040513d601f19601f820116820180604052508101906123c491906134d8565b505b50505050505050505050565b5f805f6041845114612419576040517f08c379a00000000000000000000000000000000000000000000000000000000081526004016124109061365a565b60405180910390fd5b602084015192506040840151915060608401515f1a90509193909250565b5f8160405160200161244991906136e2565b604051602081830303815290604052805190602001209050919050565b5f805f80612473856123d2565b9250925092506001868285856040515f815260200160405260405161249b949392919061345a565b6020604051602081039080840390855afa1580156124bb573d5f803e3d5ffd5b50505060206040510351935050505092915050565b5f8083036124e0575f9050612541565b5f82846124ed91906131c7565b90508284826124fc9190613734565b1461253c576040517f08c379a0000000000000000000000000000000000000000000000000000000008152600401612533906137d4565b60405180910390fd5b809150505b92915050565b5f61258883836040518060400160405280601a81526020017f536166654d6174683a206469766973696f6e206279207a65726f000000000000815250612590565b905092915050565b5f80831182906125d6576040517f08c379a00000000000000000000000000000000000000000000000000000000081526004016125cd919061382a565b60405180910390fd5b505f83856125e49190613734565b9050809150509392505050565b5f604051905090565b5f80fd5b5f80fd5b5f73ffffffffffffffffffffffffffffffffffffffff82169050919050565b5f61262b82612602565b9050919050565b61263b81612621565b8114612645575f80fd5b50565b5f8135905061265681612632565b92915050565b5f60208284031215612671576126706125fa565b5b5f61267e84828501612648565b91505092915050565b5f80fd5b5f80fd5b5f601f19601f8301169050919050565b7f4e487b71000000000000000000000000000000000000000000000000000000005f52604160045260245ffd5b6126d58261268f565b810181811067ffffffffffffffff821117156126f4576126f361269f565b5b80604052505050565b5f6127066125f1565b905061271282826126cc565b919050565b5f67ffffffffffffffff8211156127315761273061269f565b5b61273a8261268f565b9050602081019050919050565b828183375f83830152505050565b5f61276761276284612717565b6126fd565b9050828152602081018484840111156127835761278261268b565b5b61278e848285612747565b509392505050565b5f82601f8301126127aa576127a9612687565b5b81356127ba848260208601612755565b91505092915050565b5f602082840312156127d8576127d76125fa565b5b5f82013567ffffffffffffffff8111156127f5576127f46125fe565b5b61280184828501612796565b91505092915050565b5f8115159050919050565b61281e8161280a565b82525050565b5f6020820190506128375f830184612815565b92915050565b5f61284782612621565b9050919050565b6128578161283d565b8114612861575f80fd5b50565b5f813590506128728161284e565b92915050565b5f819050919050565b61288a81612878565b8114612894575f80fd5b50565b5f813590506128a581612881565b92915050565b6128b48161280a565b81146128be575f80fd5b50565b5f813590506128cf816128ab565b92915050565b5f67ffffffffffffffff8211156128ef576128ee61269f565b5b6128f88261268f565b9050602081019050919050565b5f612917612912846128d5565b6126fd565b9050828152602081018484840111156129335761293261268b565b5b61293e848285612747565b509392505050565b5f82601f83011261295a57612959612687565b5b813561296a848260208601612905565b91505092915050565b5f805f805f805f805f805f6101608c8e031215612993576129926125fa565b5b5f6129a08e828f01612864565b9b505060206129b18e828f01612648565b9a505060406129c28e828f01612897565b99505060606129d38e828f01612897565b98505060806129e48e828f01612897565b97505060a08c013567ffffffffffffffff811115612a0557612a046125fe565b5b612a118e828f01612796565b96505060c0612a228e828f01612648565b95505060e0612a338e828f016128c1565b945050610100612a458e828f01612897565b935050610120612a578e828f01612648565b9250506101408c013567ffffffffffffffff811115612a7957612a786125fe565b5b612a858e828f01612946565b9150509295989b509295989b9093969950565b612aa181612878565b82525050565b5f602082019050612aba5f830184612a98565b92915050565b5f805f805f805f805f6101208a8c031215612ade57612add6125fa565b5b5f612aeb8c828d01612648565b9950506020612afc8c828d01612648565b9850506040612b0d8c828d01612897565b9750506060612b1e8c828d01612897565b9650506080612b2f8c828d01612897565b95505060a08a013567ffffffffffffffff811115612b5057612b4f6125fe565b5b612b5c8c828d01612796565b94505060c0612b6d8c828d01612648565b93505060e0612b7e8c828d016128c1565b925050610100612b908c828d01612897565b9150509295985092959850929598565b5f819050919050565b612bb281612ba0565b82525050565b5f602082019050612bcb5f830184612ba9565b92915050565b5f819050919050565b5f612bf4612bef612bea84612602565b612bd1565b612602565b9050919050565b5f612c0582612bda565b9050919050565b5f612c1682612bfb565b9050919050565b612c2681612c0c565b82525050565b5f602082019050612c3f5f830184612c1d565b92915050565b612c4e81612621565b82525050565b5f602082019050612c675f830184612c45565b92915050565b612c7681612ba0565b8114612c80575f80fd5b50565b5f81359050612c9181612c6d565b92915050565b5f8060408385031215612cad57612cac6125fa565b5b5f612cba85828601612c83565b925050602083013567ffffffffffffffff811115612cdb57612cda6125fe565b5b612ce785828601612946565b9150509250929050565b5f805f805f8060c08789031215612d0b57612d0a6125fa565b5b5f612d1889828a01612897565b9650506020612d2989828a01612897565b9550506040612d3a89828a01612897565b9450506060612d4b89828a01612897565b9350506080612d5c89828a01612897565b92505060a0612d6d89828a01612897565b9150509295509295509295565b5f82825260208201905092915050565b7f4f6e6c792063616c6c61626c65206279205472757374656420466f72776172645f8201527f6572000000000000000000000000000000000000000000000000000000000000602082015250565b5f612de4602283612d7a565b9150612def82612d8a565b604082019050919050565b5f6020820190508181035f830152612e1181612dd8565b9050919050565b7f43563a20627579657220746f20746865207a65726f20616464726573730000005f82015250565b5f612e4c601d83612d7a565b9150612e5782612e18565b602082019050919050565b5f6020820190508181035f830152612e7981612e40565b9050919050565b7f43563a20696e76616c6964205f7369676e6174757265000000000000000000005f82015250565b5f612eb4601683612d7a565b9150612ebf82612e80565b602082019050919050565b5f6020820190508181035f830152612ee181612ea8565b9050919050565b7f43563a20696e76616c696420616d6f756e7400000000000000000000000000005f82015250565b5f612f1c601283612d7a565b9150612f2782612ee8565b602082019050919050565b5f6020820190508181035f830152612f4981612f10565b9050919050565b7f757364742061646472657373206e6f7420636f6e6669670000000000000000005f82015250565b5f612f84601783612d7a565b9150612f8f82612f50565b602082019050919050565b5f6020820190508181035f830152612fb181612f78565b9050919050565b7f757364632061646472657373206e6f7420636f6e6669670000000000000000005f82015250565b5f612fec601783612d7a565b9150612ff782612fb8565b602082019050919050565b5f6020820190508181035f83015261301981612fe0565b9050919050565b7f6574682061646472657373206e6f7420636f6e666967000000000000000000005f82015250565b5f613054601683612d7a565b915061305f82613020565b602082019050919050565b5f6020820190508181035f83015261308181613048565b9050919050565b7f756d692061646472657373206e6f7420636f6e666967000000000000000000005f82015250565b5f6130bc601683612d7a565b91506130c782613088565b602082019050919050565b5f6020820190508181035f8301526130e9816130b0565b9050919050565b5f81519050919050565b5f82825260208201905092915050565b8281835e5f83830152505050565b5f613122826130f0565b61312c81856130fa565b935061313c81856020860161310a565b6131458161268f565b840191505092915050565b5f6080820190506131635f830187612c45565b6131706020830186612c45565b61317d6040830185612a98565b818103606083015261318f8184613118565b905095945050505050565b7f4e487b71000000000000000000000000000000000000000000000000000000005f52601160045260245ffd5b5f6131d182612878565b91506131dc83612878565b92508282026131ea81612878565b915082820484148315176132015761320061319a565b5b5092915050565b5f60808201905061321b5f830187612a98565b6132286020830186612a98565b6132356040830185612c45565b6132426060830184612c45565b95945050505050565b7f746f6b656e206e6f7420737570706f72740000000000000000000000000000005f82015250565b5f61327f601183612d7a565b915061328a8261324b565b602082019050919050565b5f6020820190508181035f8301526132ac81613273565b9050919050565b5f8160601b9050919050565b5f6132c9826132b3565b9050919050565b5f6132da826132bf565b9050919050565b6132f26132ed82612621565b6132d0565b82525050565b5f819050919050565b61331261330d82612878565b6132f8565b82525050565b5f81519050919050565b5f81905092915050565b5f61333682613318565b6133408185613322565b935061335081856020860161310a565b80840191505092915050565b5f8160f81b9050919050565b5f6133728261335c565b9050919050565b5f61338382613368565b9050919050565b61339b6133968261280a565b613379565b82525050565b5f6133ac828c6132e1565b6014820191506133bc828b6132e1565b6014820191506133cc828a613301565b6020820191506133dc8289613301565b6020820191506133ec8288613301565b6020820191506133fc828761332c565b915061340882866132e1565b601482019150613418828561338a565b6001820191506134288284613301565b6020820191508190509a9950505050505050505050565b5f60ff82169050919050565b6134548161343f565b82525050565b5f60808201905061346d5f830187612ba9565b61347a602083018661344b565b6134876040830185612ba9565b6134946060830184612ba9565b95945050505050565b5f6040820190506134b05f830185612c45565b6134bd6020830184612c45565b9392505050565b5f815190506134d2816128ab565b92915050565b5f602082840312156134ed576134ec6125fa565b5b5f6134fa848285016134c4565b91505092915050565b7f43563a2073656c6c6572206973206e6f7420617070726f7665640000000000005f82015250565b5f613537601a83612d7a565b915061354282613503565b602082019050919050565b5f6020820190508181035f8301526135648161352b565b9050919050565b5f613576828461332c565b915081905092915050565b5f6060820190506135945f830186612c45565b6135a16020830185612c45565b6135ae6040830184612a98565b949350505050565b5f6135c082612878565b91506135cb83612878565b92508282039050818111156135e3576135e261319a565b5b92915050565b5f6040820190506135fc5f830185612c45565b6136096020830184612a98565b9392505050565b7f696e76616c6964207369676e6174757265206c656e67746800000000000000005f82015250565b5f613644601883612d7a565b915061364f82613610565b602082019050919050565b5f6020820190508181035f83015261367181613638565b9050919050565b7f19457468657265756d205369676e6564204d6573736167653a0a3332000000005f82015250565b5f6136ac601c83613322565b91506136b782613678565b601c82019050919050565b5f819050919050565b6136dc6136d782612ba0565b6136c2565b82525050565b5f6136ec826136a0565b91506136f882846136cb565b60208201915081905092915050565b7f4e487b71000000000000000000000000000000000000000000000000000000005f52601260045260245ffd5b5f61373e82612878565b915061374983612878565b92508261375957613758613707565b5b828204905092915050565b7f536166654d6174683a206d756c7469706c69636174696f6e206f766572666c6f5f8201527f7700000000000000000000000000000000000000000000000000000000000000602082015250565b5f6137be602183612d7a565b91506137c982613764565b604082019050919050565b5f6020820190508181035f8301526137eb816137b2565b9050919050565b5f6137fc82613318565b6138068185612d7a565b935061381681856020860161310a565b61381f8161268f565b840191505092915050565b5f6020820190508181035f83015261384281846137f2565b90509291505056fea26469706673582212205ca9f827aadebf4e9c0f1cd357f5ab4cebfcc5daafec826126f59a2e2545098e64736f6c63430008190033",
					"opcodes": "PUSH1 0xA0 PUSH1 0x40 MSTORE PUSH20 0xE9BB892A38D60B53085AF77EDA888790EF1DD33 PUSH1 0x5 PUSH0 PUSH2 0x100 EXP DUP2 SLOAD DUP2 PUSH20 0xFFFFFFFFFFFFFFFFFFFFFFFFFFFFFFFFFFFFFFFF MUL NOT AND SWAP1 DUP4 PUSH20 0xFFFFFFFFFFFFFFFFFFFFFFFFFFFFFFFFFFFFFFFF AND MUL OR SWAP1 SSTORE POP PUSH20 0x7FC5E3E61700E34218A00CC01E92957A4E6C8883 PUSH1 0x6 PUSH0 PUSH2 0x100 EXP DUP2 SLOAD DUP2 PUSH20 0xFFFFFFFFFFFFFFFFFFFFFFFFFFFFFFFFFFFFFFFF MUL NOT AND SWAP1 DUP4 PUSH20 0xFFFFFFFFFFFFFFFFFFFFFFFFFFFFFFFFFFFFFFFF AND MUL OR SWAP1 SSTORE POP PUSH0 PUSH1 0x7 PUSH0 PUSH2 0x100 EXP DUP2 SLOAD DUP2 PUSH20 0xFFFFFFFFFFFFFFFFFFFFFFFFFFFFFFFFFFFFFFFF MUL NOT AND SWAP1 DUP4 PUSH20 0xFFFFFFFFFFFFFFFFFFFFFFFFFFFFFFFFFFFFFFFF AND MUL OR SWAP1 SSTORE POP PUSH0 PUSH1 0x8 PUSH0 PUSH2 0x100 EXP DUP2 SLOAD DUP2 PUSH20 0xFFFFFFFFFFFFFFFFFFFFFFFFFFFFFFFFFFFFFFFF MUL NOT AND SWAP1 DUP4 PUSH20 0xFFFFFFFFFFFFFFFFFFFFFFFFFFFFFFFFFFFFFFFF AND MUL OR SWAP1 SSTORE POP PUSH2 0x1EA PUSH1 0x9 SSTORE PUSH1 0xD2 PUSH1 0xA SSTORE PUSH2 0x12C PUSH1 0xB SSTORE PUSH1 0xA PUSH1 0xC SSTORE PUSH1 0xA PUSH1 0xD SSTORE PUSH1 0x5 PUSH1 0xE SSTORE CALLVALUE DUP1 ISZERO PUSH2 0x157 JUMPI PUSH0 DUP1 REVERT JUMPDEST POP PUSH1 0x40 MLOAD PUSH2 0x3C65 CODESIZE SUB DUP1 PUSH2 0x3C65 DUP4 CODECOPY DUP2 DUP2 ADD PUSH1 0x40 MSTORE DUP2 ADD SWAP1 PUSH2 0x179 SWAP2 SWAP1 PUSH2 0x356 JUMP JUMPDEST DUP5 CALLER PUSH0 DUP1 PUSH2 0x100 EXP DUP2 SLOAD DUP2 PUSH20 0xFFFFFFFFFFFFFFFFFFFFFFFFFFFFFFFFFFFFFFFF MUL NOT AND SWAP1 DUP4 PUSH20 0xFFFFFFFFFFFFFFFFFFFFFFFFFFFFFFFFFFFFFFFF AND MUL OR SWAP1 SSTORE POP DUP1 PUSH20 0xFFFFFFFFFFFFFFFFFFFFFFFFFFFFFFFFFFFFFFFF AND PUSH1 0x80 DUP2 PUSH20 0xFFFFFFFFFFFFFFFFFFFFFFFFFFFFFFFFFFFFFFFF AND DUP2 MSTORE POP POP POP DUP4 PUSH1 0x1 PUSH0 PUSH2 0x100 EXP DUP2 SLOAD DUP2 PUSH20 0xFFFFFFFFFFFFFFFFFFFFFFFFFFFFFFFFFFFFFFFF MUL NOT AND SWAP1 DUP4 PUSH20 0xFFFFFFFFFFFFFFFFFFFFFFFFFFFFFFFFFFFFFFFF AND MUL OR SWAP1 SSTORE POP DUP3 PUSH1 0x2 PUSH0 PUSH2 0x100 EXP DUP2 SLOAD DUP2 PUSH20 0xFFFFFFFFFFFFFFFFFFFFFFFFFFFFFFFFFFFFFFFF MUL NOT AND SWAP1 DUP4 PUSH20 0xFFFFFFFFFFFFFFFFFFFFFFFFFFFFFFFFFFFFFFFF AND MUL OR SWAP1 SSTORE POP DUP2 PUSH1 0x4 PUSH0 PUSH2 0x100 EXP DUP2 SLOAD DUP2 PUSH20 0xFFFFFFFFFFFFFFFFFFFFFFFFFFFFFFFFFFFFFFFF MUL NOT AND SWAP1 DUP4 PUSH20 0xFFFFFFFFFFFFFFFFFFFFFFFFFFFFFFFFFFFFFFFF AND MUL OR SWAP1 SSTORE POP DUP1 PUSH1 0x3 PUSH0 PUSH2 0x100 EXP DUP2 SLOAD DUP2 PUSH20 0xFFFFFFFFFFFFFFFFFFFFFFFFFFFFFFFFFFFFFFFF MUL NOT AND SWAP1 DUP4 PUSH20 0xFFFFFFFFFFFFFFFFFFFFFFFFFFFFFFFFFFFFFFFF AND MUL OR SWAP1 SSTORE POP POP POP POP POP POP PUSH2 0x3CD JUMP JUMPDEST PUSH0 DUP1 REVERT JUMPDEST PUSH0 PUSH20 0xFFFFFFFFFFFFFFFFFFFFFFFFFFFFFFFFFFFFFFFF DUP3 AND SWAP1 POP SWAP2 SWAP1 POP JUMP JUMPDEST PUSH0 PUSH2 0x325 DUP3 PUSH2 0x2FC JUMP JUMPDEST SWAP1 POP SWAP2 SWAP1 POP JUMP JUMPDEST PUSH2 0x335 DUP2 PUSH2 0x31B JUMP JUMPDEST DUP2 EQ PUSH2 0x33F JUMPI PUSH0 DUP1 REVERT JUMPDEST POP JUMP JUMPDEST PUSH0 DUP2 MLOAD SWAP1 POP PUSH2 0x350 DUP2 PUSH2 0x32C JUMP JUMPDEST SWAP3 SWAP2 POP POP JUMP JUMPDEST PUSH0 DUP1 PUSH0 DUP1 PUSH0 PUSH1 0xA0 DUP7 DUP9 SUB SLT ISZERO PUSH2 0x36F JUMPI PUSH2 0x36E PUSH2 0x2F8 JUMP JUMPDEST JUMPDEST PUSH0 PUSH2 0x37C DUP9 DUP3 DUP10 ADD PUSH2 0x342 JUMP JUMPDEST SWAP6 POP POP PUSH1 0x20 PUSH2 0x38D DUP9 DUP3 DUP10 ADD PUSH2 0x342 JUMP JUMPDEST SWAP5 POP POP PUSH1 0x40 PUSH2 0x39E DUP9 DUP3 DUP10 ADD PUSH2 0x342 JUMP JUMPDEST SWAP4 POP POP PUSH1 0x60 PUSH2 0x3AF DUP9 DUP3 DUP10 ADD PUSH2 0x342 JUMP JUMPDEST SWAP3 POP POP PUSH1 0x80 PUSH2 0x3C0 DUP9 DUP3 DUP10 ADD PUSH2 0x342 JUMP JUMPDEST SWAP2 POP POP SWAP3 SWAP6 POP SWAP3 SWAP6 SWAP1 SWAP4 POP JUMP JUMPDEST PUSH1 0x80 MLOAD PUSH2 0x3880 PUSH2 0x3E5 PUSH0 CODECOPY PUSH0 PUSH2 0xF96 ADD MSTORE PUSH2 0x3880 PUSH0 RETURN INVALID PUSH1 0x80 PUSH1 0x40 MSTORE CALLVALUE DUP1 ISZERO PUSH2 0xF JUMPI PUSH0 DUP1 REVERT JUMPDEST POP PUSH1 0x4 CALLDATASIZE LT PUSH2 0x1EE JUMPI PUSH0 CALLDATALOAD PUSH1 0xE0 SHR DUP1 PUSH4 0x845A51EC GT PUSH2 0x10D JUMPI DUP1 PUSH4 0xBD9A3B6D GT PUSH2 0xA0 JUMPI DUP1 PUSH4 0xD339DB94 GT PUSH2 0x6F JUMPI DUP1 PUSH4 0xD339DB94 EQ PUSH2 0x55A JUMPI DUP1 PUSH4 0xF2699D59 EQ PUSH2 0x578 JUMPI DUP1 PUSH4 0xF2FDE38B EQ PUSH2 0x594 JUMPI DUP1 PUSH4 0xF851A440 EQ PUSH2 0x5B0 JUMPI PUSH2 0x1EE JUMP JUMPDEST DUP1 PUSH4 0xBD9A3B6D EQ PUSH2 0x4E6 JUMPI DUP1 PUSH4 0xCB146879 EQ PUSH2 0x502 JUMPI DUP1 PUSH4 0xCFD79D5D EQ PUSH2 0x51E JUMPI DUP1 PUSH4 0xD1FAF157 EQ PUSH2 0x53C JUMPI PUSH2 0x1EE JUMP JUMPDEST DUP1 PUSH4 0x8DA5CB5B GT PUSH2 0xDC JUMPI DUP1 PUSH4 0x8DA5CB5B EQ PUSH2 0x45E JUMPI DUP1 PUSH4 0x94DD453A EQ PUSH2 0x47C JUMPI DUP1 PUSH4 0x9F2585A1 EQ PUSH2 0x49A JUMPI DUP1 PUSH4 0xB24CF5D7 EQ PUSH2 0x4CA JUMPI PUSH2 0x1EE JUMP JUMPDEST DUP1 PUSH4 0x845A51EC EQ PUSH2 0x3EA JUMPI DUP1 PUSH4 0x8705FCD4 EQ PUSH2 0x408 JUMPI DUP1 PUSH4 0x8B225F06 EQ PUSH2 0x424 JUMPI DUP1 PUSH4 0x8C7C9E0C EQ PUSH2 0x440 JUMPI PUSH2 0x1EE JUMP JUMPDEST DUP1 PUSH4 0x3E413BEE GT PUSH2 0x185 JUMPI DUP1 PUSH4 0x5B7633D0 GT PUSH2 0x154 JUMPI DUP1 PUSH4 0x5B7633D0 EQ PUSH2 0x388 JUMPI DUP1 PUSH4 0x60F688EA EQ PUSH2 0x3A6 JUMPI DUP1 PUSH4 0x704B6C02 EQ PUSH2 0x3C4 JUMPI DUP1 PUSH4 0x715018A6 EQ PUSH2 0x3E0 JUMPI PUSH2 0x1EE JUMP JUMPDEST DUP1 PUSH4 0x3E413BEE EQ PUSH2 0x300 JUMPI DUP1 PUSH4 0x41275358 EQ PUSH2 0x31E JUMPI DUP1 PUSH4 0x572B6C05 EQ PUSH2 0x33C JUMPI DUP1 PUSH4 0x58979BFE EQ PUSH2 0x36C JUMPI PUSH2 0x1EE JUMP JUMPDEST DUP1 PUSH4 0x14754E66 GT PUSH2 0x1C1 JUMPI DUP1 PUSH4 0x14754E66 EQ PUSH2 0x276 JUMPI DUP1 PUSH4 0x228B03FA EQ PUSH2 0x294 JUMPI DUP1 PUSH4 0x2515AF37 EQ PUSH2 0x2C4 JUMPI DUP1 PUSH4 0x2F48AB7D EQ PUSH2 0x2E2 JUMPI PUSH2 0x1EE JUMP JUMPDEST DUP1 PUSH4 0x46DC166 EQ PUSH2 0x1F2 JUMPI DUP1 PUSH4 0xD3652EC EQ PUSH2 0x20E JUMPI DUP1 PUSH4 0x10B8097C EQ PUSH2 0x23E JUMPI DUP1 PUSH4 0x122C6FD7 EQ PUSH2 0x25A JUMPI JUMPDEST PUSH0 DUP1 REVERT JUMPDEST PUSH2 0x20C PUSH1 0x4 DUP1 CALLDATASIZE SUB DUP2 ADD SWAP1 PUSH2 0x207 SWAP2 SWAP1 PUSH2 0x265C JUMP JUMPDEST PUSH2 0x5CE JUMP JUMPDEST STOP JUMPDEST PUSH2 0x228 PUSH1 0x4 DUP1 CALLDATASIZE SUB DUP2 ADD SWAP1 PUSH2 0x223 SWAP2 SWAP1 PUSH2 0x27C3 JUMP JUMPDEST PUSH2 0x669 JUMP JUMPDEST PUSH1 0x40 MLOAD PUSH2 0x235 SWAP2 SWAP1 PUSH2 0x2824 JUMP JUMPDEST PUSH1 0x40 MLOAD DUP1 SWAP2 SUB SWAP1 RETURN JUMPDEST PUSH2 0x258 PUSH1 0x4 DUP1 CALLDATASIZE SUB DUP2 ADD SWAP1 PUSH2 0x253 SWAP2 SWAP1 PUSH2 0x2973 JUMP JUMPDEST PUSH2 0x7C8 JUMP JUMPDEST STOP JUMPDEST PUSH2 0x274 PUSH1 0x4 DUP1 CALLDATASIZE SUB DUP2 ADD SWAP1 PUSH2 0x26F SWAP2 SWAP1 PUSH2 0x265C JUMP JUMPDEST PUSH2 0xDEE JUMP JUMPDEST STOP JUMPDEST PUSH2 0x27E PUSH2 0xE89 JUMP JUMPDEST PUSH1 0x40 MLOAD PUSH2 0x28B SWAP2 SWAP1 PUSH2 0x2AA7 JUMP JUMPDEST PUSH1 0x40 MLOAD DUP1 SWAP2 SUB SWAP1 RETURN JUMPDEST PUSH2 0x2AE PUSH1 0x4 DUP1 CALLDATASIZE SUB DUP2 ADD SWAP1 PUSH2 0x2A9 SWAP2 SWAP1 PUSH2 0x2AC0 JUMP JUMPDEST PUSH2 0xE8F JUMP JUMPDEST PUSH1 0x40 MLOAD PUSH2 0x2BB SWAP2 SWAP1 PUSH2 0x2BB8 JUMP JUMPDEST PUSH1 0x40 MLOAD DUP1 SWAP2 SUB SWAP1 RETURN JUMPDEST PUSH2 0x2CC PUSH2 0xF1E JUMP JUMPDEST PUSH1 0x40 MLOAD PUSH2 0x2D9 SWAP2 SWAP1 PUSH2 0x2AA7 JUMP JUMPDEST PUSH1 0x40 MLOAD DUP1 SWAP2 SUB SWAP1 RETURN JUMPDEST PUSH2 0x2EA PUSH2 0xF24 JUMP JUMPDEST PUSH1 0x40 MLOAD PUSH2 0x2F7 SWAP2 SWAP1 PUSH2 0x2C2C JUMP JUMPDEST PUSH1 0x40 MLOAD DUP1 SWAP2 SUB SWAP1 RETURN JUMPDEST PUSH2 0x308 PUSH2 0xF49 JUMP JUMPDEST PUSH1 0x40 MLOAD PUSH2 0x315 SWAP2 SWAP1 PUSH2 0x2C2C JUMP JUMPDEST PUSH1 0x40 MLOAD DUP1 SWAP2 SUB SWAP1 RETURN JUMPDEST PUSH2 0x326 PUSH2 0xF6E JUMP JUMPDEST PUSH1 0x40 MLOAD PUSH2 0x333 SWAP2 SWAP1 PUSH2 0x2C54 JUMP JUMPDEST PUSH1 0x40 MLOAD DUP1 SWAP2 SUB SWAP1 RETURN JUMPDEST PUSH2 0x356 PUSH1 0x4 DUP1 CALLDATASIZE SUB DUP2 ADD SWAP1 PUSH2 0x351 SWAP2 SWAP1 PUSH2 0x265C JUMP JUMPDEST PUSH2 0xF93 JUMP JUMPDEST PUSH1 0x40 MLOAD PUSH2 0x363 SWAP2 SWAP1 PUSH2 0x2824 JUMP JUMPDEST PUSH1 0x40 MLOAD DUP1 SWAP2 SUB SWAP1 RETURN JUMPDEST PUSH2 0x386 PUSH1 0x4 DUP1 CALLDATASIZE SUB DUP2 ADD SWAP1 PUSH2 0x381 SWAP2 SWAP1 PUSH2 0x265C JUMP JUMPDEST PUSH2 0xFEA JUMP JUMPDEST STOP JUMPDEST PUSH2 0x390 PUSH2 0x1085 JUMP JUMPDEST PUSH1 0x40 MLOAD PUSH2 0x39D SWAP2 SWAP1 PUSH2 0x2C54 JUMP JUMPDEST PUSH1 0x40 MLOAD DUP1 SWAP2 SUB SWAP1 RETURN JUMPDEST PUSH2 0x3AE PUSH2 0x10AA JUMP JUMPDEST PUSH1 0x40 MLOAD PUSH2 0x3BB SWAP2 SWAP1 PUSH2 0x2AA7 JUMP JUMPDEST PUSH1 0x40 MLOAD DUP1 SWAP2 SUB SWAP1 RETURN JUMPDEST PUSH2 0x3DE PUSH1 0x4 DUP1 CALLDATASIZE SUB DUP2 ADD SWAP1 PUSH2 0x3D9 SWAP2 SWAP1 PUSH2 0x265C JUMP JUMPDEST PUSH2 0x10B0 JUMP JUMPDEST STOP JUMPDEST PUSH2 0x3E8 PUSH2 0x1149 JUMP JUMPDEST STOP JUMPDEST PUSH2 0x3F2 PUSH2 0x1242 JUMP JUMPDEST PUSH1 0x40 MLOAD PUSH2 0x3FF SWAP2 SWAP1 PUSH2 0x2C54 JUMP JUMPDEST PUSH1 0x40 MLOAD DUP1 SWAP2 SUB SWAP1 RETURN JUMPDEST PUSH2 0x422 PUSH1 0x4 DUP1 CALLDATASIZE SUB DUP2 ADD SWAP1 PUSH2 0x41D SWAP2 SWAP1 PUSH2 0x265C JUMP JUMPDEST PUSH2 0x1267 JUMP JUMPDEST STOP JUMPDEST PUSH2 0x43E PUSH1 0x4 DUP1 CALLDATASIZE SUB DUP2 ADD SWAP1 PUSH2 0x439 SWAP2 SWAP1 PUSH2 0x265C JUMP JUMPDEST PUSH2 0x1302 JUMP JUMPDEST STOP JUMPDEST PUSH2 0x448 PUSH2 0x139D JUMP JUMPDEST PUSH1 0x40 MLOAD PUSH2 0x455 SWAP2 SWAP1 PUSH2 0x2C2C JUMP JUMPDEST PUSH1 0x40 MLOAD DUP1 SWAP2 SUB SWAP1 RETURN JUMPDEST PUSH2 0x466 PUSH2 0x13C2 JUMP JUMPDEST PUSH1 0x40 MLOAD PUSH2 0x473 SWAP2 SWAP1 PUSH2 0x2C54 JUMP JUMPDEST PUSH1 0x40 MLOAD DUP1 SWAP2 SUB SWAP1 RETURN JUMPDEST PUSH2 0x484 PUSH2 0x13E5 JUMP JUMPDEST PUSH1 0x40 MLOAD PUSH2 0x491 SWAP2 SWAP1 PUSH2 0x2C2C JUMP JUMPDEST PUSH1 0x40 MLOAD DUP1 SWAP2 SUB SWAP1 RETURN JUMPDEST PUSH2 0x4B4 PUSH1 0x4 DUP1 CALLDATASIZE SUB DUP2 ADD SWAP1 PUSH2 0x4AF SWAP2 SWAP1 PUSH2 0x2C97 JUMP JUMPDEST PUSH2 0x140A JUMP JUMPDEST PUSH1 0x40 MLOAD PUSH2 0x4C1 SWAP2 SWAP1 PUSH2 0x2C54 JUMP JUMPDEST PUSH1 0x40 MLOAD DUP1 SWAP2 SUB SWAP1 RETURN JUMPDEST PUSH2 0x4E4 PUSH1 0x4 DUP1 CALLDATASIZE SUB DUP2 ADD SWAP1 PUSH2 0x4DF SWAP2 SWAP1 PUSH2 0x265C JUMP JUMPDEST PUSH2 0x1474 JUMP JUMPDEST STOP JUMPDEST PUSH2 0x500 PUSH1 0x4 DUP1 CALLDATASIZE SUB DUP2 ADD SWAP1 PUSH2 0x4FB SWAP2 SWAP1 PUSH2 0x2CF1 JUMP JUMPDEST PUSH2 0x150F JUMP JUMPDEST STOP JUMPDEST PUSH2 0x51C PUSH1 0x4 DUP1 CALLDATASIZE SUB DUP2 ADD SWAP1 PUSH2 0x517 SWAP2 SWAP1 PUSH2 0x265C JUMP JUMPDEST PUSH2 0x1597 JUMP JUMPDEST STOP JUMPDEST PUSH2 0x526 PUSH2 0x1632 JUMP JUMPDEST PUSH1 0x40 MLOAD PUSH2 0x533 SWAP2 SWAP1 PUSH2 0x2AA7 JUMP JUMPDEST PUSH1 0x40 MLOAD DUP1 SWAP2 SUB SWAP1 RETURN JUMPDEST PUSH2 0x544 PUSH2 0x1638 JUMP JUMPDEST PUSH1 0x40 MLOAD PUSH2 0x551 SWAP2 SWAP1 PUSH2 0x2AA7 JUMP JUMPDEST PUSH1 0x40 MLOAD DUP1 SWAP2 SUB SWAP1 RETURN JUMPDEST PUSH2 0x562 PUSH2 0x163E JUMP JUMPDEST PUSH1 0x40 MLOAD PUSH2 0x56F SWAP2 SWAP1 PUSH2 0x2AA7 JUMP JUMPDEST PUSH1 0x40 MLOAD DUP1 SWAP2 SUB SWAP1 RETURN JUMPDEST PUSH2 0x592 PUSH1 0x4 DUP1 CALLDATASIZE SUB DUP2 ADD SWAP1 PUSH2 0x58D SWAP2 SWAP1 PUSH2 0x2973 JUMP JUMPDEST PUSH2 0x1644 JUMP JUMPDEST STOP JUMPDEST PUSH2 0x5AE PUSH1 0x4 DUP1 CALLDATASIZE SUB DUP2 ADD SWAP1 PUSH2 0x5A9 SWAP2 SWAP1 PUSH2 0x265C JUMP JUMPDEST PUSH2 0x1D23 JUMP JUMPDEST STOP JUMPDEST PUSH2 0x5B8 PUSH2 0x1E6B JUMP JUMPDEST PUSH1 0x40 MLOAD PUSH2 0x5C5 SWAP2 SWAP1 PUSH2 0x2C54 JUMP JUMPDEST PUSH1 0x40 MLOAD DUP1 SWAP2 SUB SWAP1 RETURN JUMPDEST PUSH1 0x1 PUSH0 SWAP1 SLOAD SWAP1 PUSH2 0x100 EXP SWAP1 DIV PUSH20 0xFFFFFFFFFFFFFFFFFFFFFFFFFFFFFFFFFFFFFFFF AND PUSH20 0xFFFFFFFFFFFFFFFFFFFFFFFFFFFFFFFFFFFFFFFF AND CALLER PUSH20 0xFFFFFFFFFFFFFFFFFFFFFFFFFFFFFFFFFFFFFFFF AND EQ PUSH2 0x626 JUMPI PUSH0 DUP1 REVERT JUMPDEST DUP1 PUSH1 0x4 PUSH0 PUSH2 0x100 EXP DUP2 SLOAD DUP2 PUSH20 0xFFFFFFFFFFFFFFFFFFFFFFFFFFFFFFFFFFFFFFFF MUL NOT AND SWAP1 DUP4 PUSH20 0xFFFFFFFFFFFFFFFFFFFFFFFFFFFFFFFFFFFFFFFF AND MUL OR SWAP1 SSTORE POP POP JUMP JUMPDEST PUSH0 PUSH2 0x6A9 DUP3 PUSH1 0x40 MLOAD DUP1 PUSH1 0x40 ADD PUSH1 0x40 MSTORE DUP1 PUSH1 0x4 DUP2 MSTORE PUSH1 0x20 ADD PUSH32 0x7573647400000000000000000000000000000000000000000000000000000000 DUP2 MSTORE POP PUSH2 0x1E90 JUMP JUMPDEST DUP1 PUSH2 0x6EF JUMPI POP PUSH2 0x6EE DUP3 PUSH1 0x40 MLOAD DUP1 PUSH1 0x40 ADD PUSH1 0x40 MSTORE DUP1 PUSH1 0x4 DUP2 MSTORE PUSH1 0x20 ADD PUSH32 0x7573646300000000000000000000000000000000000000000000000000000000 DUP2 MSTORE POP PUSH2 0x1E90 JUMP JUMPDEST JUMPDEST DUP1 PUSH2 0x735 JUMPI POP PUSH2 0x734 DUP3 PUSH1 0x40 MLOAD DUP1 PUSH1 0x40 ADD PUSH1 0x40 MSTORE DUP1 PUSH1 0x3 DUP2 MSTORE PUSH1 0x20 ADD PUSH32 0x756D690000000000000000000000000000000000000000000000000000000000 DUP2 MSTORE POP PUSH2 0x1E90 JUMP JUMPDEST JUMPDEST DUP1 PUSH2 0x77B JUMPI POP PUSH2 0x77A DUP3 PUSH1 0x40 MLOAD DUP1 PUSH1 0x40 ADD PUSH1 0x40 MSTORE DUP1 PUSH1 0x9 DUP2 MSTORE PUSH1 0x20 ADD PUSH32 0x64697665706F696E740000000000000000000000000000000000000000000000 DUP2 MSTORE POP PUSH2 0x1E90 JUMP JUMPDEST JUMPDEST DUP1 PUSH2 0x7C1 JUMPI POP PUSH2 0x7C0 DUP3 PUSH1 0x40 MLOAD DUP1 PUSH1 0x40 ADD PUSH1 0x40 MSTORE DUP1 PUSH1 0x3 DUP2 MSTORE PUSH1 0x20 ADD PUSH32 0x6574680000000000000000000000000000000000000000000000000000000000 DUP2 MSTORE POP PUSH2 0x1E90 JUMP JUMPDEST JUMPDEST SWAP1 POP SWAP2 SWAP1 POP JUMP JUMPDEST PUSH2 0x7D1 CALLER PUSH2 0xF93 JUMP JUMPDEST PUSH2 0x810 JUMPI PUSH1 0x40 MLOAD PUSH32 0x8C379A000000000000000000000000000000000000000000000000000000000 DUP2 MSTORE PUSH1 0x4 ADD PUSH2 0x807 SWAP1 PUSH2 0x2DFA JUMP JUMPDEST PUSH1 0x40 MLOAD DUP1 SWAP2 SUB SWAP1 REVERT JUMPDEST PUSH0 PUSH20 0xFFFFFFFFFFFFFFFFFFFFFFFFFFFFFFFFFFFFFFFF AND DUP3 PUSH20 0xFFFFFFFFFFFFFFFFFFFFFFFFFFFFFFFFFFFFFFFF AND SUB PUSH2 0x87E JUMPI PUSH1 0x40 MLOAD PUSH32 0x8C379A000000000000000000000000000000000000000000000000000000000 DUP2 MSTORE PUSH1 0x4 ADD PUSH2 0x875 SWAP1 PUSH2 0x2E62 JUMP JUMPDEST PUSH1 0x40 MLOAD DUP1 SWAP2 SUB SWAP1 REVERT JUMPDEST PUSH2 0x890 DUP3 DUP12 DUP12 DUP12 DUP12 DUP12 DUP12 DUP12 DUP12 DUP11 PUSH2 0x1EE8 JUMP JUMPDEST PUSH2 0x8CF JUMPI PUSH1 0x40 MLOAD PUSH32 0x8C379A000000000000000000000000000000000000000000000000000000000 DUP2 MSTORE PUSH1 0x4 ADD PUSH2 0x8C6 SWAP1 PUSH2 0x2ECA JUMP JUMPDEST PUSH1 0x40 MLOAD DUP1 SWAP2 SUB SWAP1 REVERT JUMPDEST DUP7 DUP9 EQ PUSH2 0x911 JUMPI PUSH1 0x40 MLOAD PUSH32 0x8C379A000000000000000000000000000000000000000000000000000000000 DUP2 MSTORE PUSH1 0x4 ADD PUSH2 0x908 SWAP1 PUSH2 0x2F32 JUMP JUMPDEST PUSH1 0x40 MLOAD DUP1 SWAP2 SUB SWAP1 REVERT JUMPDEST PUSH0 DUP8 GT ISZERO PUSH2 0xD26 JUMPI PUSH2 0x958 DUP7 PUSH1 0x40 MLOAD DUP1 PUSH1 0x40 ADD PUSH1 0x40 MSTORE DUP1 PUSH1 0x4 DUP2 MSTORE PUSH1 0x20 ADD PUSH32 0x7573647400000000000000000000000000000000000000000000000000000000 DUP2 MSTORE POP PUSH2 0x1E90 JUMP JUMPDEST ISZERO PUSH2 0xA1C JUMPI PUSH0 PUSH20 0xFFFFFFFFFFFFFFFFFFFFFFFFFFFFFFFFFFFFFFFF AND PUSH1 0x5 PUSH0 SWAP1 SLOAD SWAP1 PUSH2 0x100 EXP SWAP1 DIV PUSH20 0xFFFFFFFFFFFFFFFFFFFFFFFFFFFFFFFFFFFFFFFF AND PUSH20 0xFFFFFFFFFFFFFFFFFFFFFFFFFFFFFFFFFFFFFFFF AND SUB PUSH2 0x9EC JUMPI PUSH1 0x40 MLOAD PUSH32 0x8C379A000000000000000000000000000000000000000000000000000000000 DUP2 MSTORE PUSH1 0x4 ADD PUSH2 0x9E3 SWAP1 PUSH2 0x2F9A JUMP JUMPDEST PUSH1 0x40 MLOAD DUP1 SWAP2 SUB SWAP1 REVERT JUMPDEST PUSH2 0xA1B PUSH1 0x5 PUSH0 SWAP1 SLOAD SWAP1 PUSH2 0x100 EXP SWAP1 DIV PUSH20 0xFFFFFFFFFFFFFFFFFFFFFFFFFFFFFFFFFFFFFFFF AND DUP4 DUP13 DUP9 DUP9 DUP13 PUSH2 0x1FBC JUMP JUMPDEST JUMPDEST PUSH2 0xA5B DUP7 PUSH1 0x40 MLOAD DUP1 PUSH1 0x40 ADD PUSH1 0x40 MSTORE DUP1 PUSH1 0x4 DUP2 MSTORE PUSH1 0x20 ADD PUSH32 0x7573646300000000000000000000000000000000000000000000000000000000 DUP2 MSTORE POP PUSH2 0x1E90 JUMP JUMPDEST ISZERO PUSH2 0xB1F JUMPI PUSH0 PUSH20 0xFFFFFFFFFFFFFFFFFFFFFFFFFFFFFFFFFFFFFFFF AND PUSH1 0x6 PUSH0 SWAP1 SLOAD SWAP1 PUSH2 0x100 EXP SWAP1 DIV PUSH20 0xFFFFFFFFFFFFFFFFFFFFFFFFFFFFFFFFFFFFFFFF AND PUSH20 0xFFFFFFFFFFFFFFFFFFFFFFFFFFFFFFFFFFFFFFFF AND SUB PUSH2 0xAEF JUMPI PUSH1 0x40 MLOAD PUSH32 0x8C379A000000000000000000000000000000000000000000000000000000000 DUP2 MSTORE PUSH1 0x4 ADD PUSH2 0xAE6 SWAP1 PUSH2 0x3002 JUMP JUMPDEST PUSH1 0x40 MLOAD DUP1 SWAP2 SUB SWAP1 REVERT JUMPDEST PUSH2 0xB1E PUSH1 0x6 PUSH0 SWAP1 SLOAD SWAP1 PUSH2 0x100 EXP SWAP1 DIV PUSH20 0xFFFFFFFFFFFFFFFFFFFFFFFFFFFFFFFFFFFFFFFF AND DUP4 DUP13 DUP9 DUP9 DUP13 PUSH2 0x1FBC JUMP JUMPDEST JUMPDEST PUSH2 0xB5E DUP7 PUSH1 0x40 MLOAD DUP1 PUSH1 0x40 ADD PUSH1 0x40 MSTORE DUP1 PUSH1 0x3 DUP2 MSTORE PUSH1 0x20 ADD PUSH32 0x6574680000000000000000000000000000000000000000000000000000000000 DUP2 MSTORE POP PUSH2 0x1E90 JUMP JUMPDEST ISZERO PUSH2 0xC22 JUMPI PUSH0 PUSH20 0xFFFFFFFFFFFFFFFFFFFFFFFFFFFFFFFFFFFFFFFF AND PUSH1 0x5 PUSH0 SWAP1 SLOAD SWAP1 PUSH2 0x100 EXP SWAP1 DIV PUSH20 0xFFFFFFFFFFFFFFFFFFFFFFFFFFFFFFFFFFFFFFFF AND PUSH20 0xFFFFFFFFFFFFFFFFFFFFFFFFFFFFFFFFFFFFFFFF AND SUB PUSH2 0xBF2 JUMPI PUSH1 0x40 MLOAD PUSH32 0x8C379A000000000000000000000000000000000000000000000000000000000 DUP2 MSTORE PUSH1 0x4 ADD PUSH2 0xBE9 SWAP1 PUSH2 0x306A JUMP JUMPDEST PUSH1 0x40 MLOAD DUP1 SWAP2 SUB SWAP1 REVERT JUMPDEST PUSH2 0xC21 PUSH1 0x8 PUSH0 SWAP1 SLOAD SWAP1 PUSH2 0x100 EXP SWAP1 DIV PUSH20 0xFFFFFFFFFFFFFFFFFFFFFFFFFFFFFFFFFFFFFFFF AND DUP4 DUP13 DUP9 DUP9 DUP13 PUSH2 0x1FBC JUMP JUMPDEST JUMPDEST PUSH2 0xC61 DUP7 PUSH1 0x40 MLOAD DUP1 PUSH1 0x40 ADD PUSH1 0x40 MSTORE DUP1 PUSH1 0x3 DUP2 MSTORE PUSH1 0x20 ADD PUSH32 0x756D690000000000000000000000000000000000000000000000000000000000 DUP2 MSTORE POP PUSH2 0x1E90 JUMP JUMPDEST ISZERO PUSH2 0xD25 JUMPI PUSH0 PUSH20 0xFFFFFFFFFFFFFFFFFFFFFFFFFFFFFFFFFFFFFFFF AND PUSH1 0x7 PUSH0 SWAP1 SLOAD SWAP1 PUSH2 0x100 EXP SWAP1 DIV PUSH20 0xFFFFFFFFFFFFFFFFFFFFFFFFFFFFFFFFFFFFFFFF AND PUSH20 0xFFFFFFFFFFFFFFFFFFFFFFFFFFFFFFFFFFFFFFFF AND SUB PUSH2 0xCF5 JUMPI PUSH1 0x40 MLOAD PUSH32 0x8C379A000000000000000000000000000000000000000000000000000000000 DUP2 MSTORE PUSH1 0x4 ADD PUSH2 0xCEC SWAP1 PUSH2 0x30D2 JUMP JUMPDEST PUSH1 0x40 MLOAD DUP1 SWAP2 SUB SWAP1 REVERT JUMPDEST PUSH2 0xD24 PUSH1 0x7 PUSH0 SWAP1 SLOAD SWAP1 PUSH2 0x100 EXP SWAP1 DIV PUSH20 0xFFFFFFFFFFFFFFFFFFFFFFFFFFFFFFFFFFFFFFFF AND DUP4 DUP13 DUP9 DUP9 DUP13 PUSH2 0x1FBC JUMP JUMPDEST JUMPDEST JUMPDEST PUSH1 0x60 DUP12 PUSH20 0xFFFFFFFFFFFFFFFFFFFFFFFFFFFFFFFFFFFFFFFF AND PUSH4 0xB88D4FDE DUP13 DUP6 DUP14 DUP6 PUSH1 0x40 MLOAD DUP6 PUSH4 0xFFFFFFFF AND PUSH1 0xE0 SHL DUP2 MSTORE PUSH1 0x4 ADD PUSH2 0xD67 SWAP5 SWAP4 SWAP3 SWAP2 SWAP1 PUSH2 0x3150 JUMP JUMPDEST PUSH0 PUSH1 0x40 MLOAD DUP1 DUP4 SUB DUP2 PUSH0 DUP8 DUP1 EXTCODESIZE ISZERO DUP1 ISZERO PUSH2 0xD7E JUMPI PUSH0 DUP1 REVERT JUMPDEST POP GAS CALL ISZERO DUP1 ISZERO PUSH2 0xD90 JUMPI RETURNDATASIZE PUSH0 DUP1 RETURNDATACOPY RETURNDATASIZE PUSH0 REVERT JUMPDEST POP POP POP POP PUSH32 0xFF8E373201D0E8EAD3E3A60928E02004C2BCB407405F2F21E95283617F8B350C PUSH4 0x5F5E100 DUP12 PUSH2 0xDC5 SWAP2 SWAP1 PUSH2 0x31C7 JUMP JUMPDEST DUP11 DUP14 DUP7 PUSH1 0x40 MLOAD PUSH2 0xDD8 SWAP5 SWAP4 SWAP3 SWAP2 SWAP1 PUSH2 0x3208 JUMP JUMPDEST PUSH1 0x40 MLOAD DUP1 SWAP2 SUB SWAP1 LOG1 POP POP POP POP POP POP POP POP POP POP POP POP JUMP JUMPDEST PUSH1 0x1 PUSH0 SWAP1 SLOAD SWAP1 PUSH2 0x100 EXP SWAP1 DIV PUSH20 0xFFFFFFFFFFFFFFFFFFFFFFFFFFFFFFFFFFFFFFFF AND PUSH20 0xFFFFFFFFFFFFFFFFFFFFFFFFFFFFFFFFFFFFFFFF AND CALLER PUSH20 0xFFFFFFFFFFFFFFFFFFFFFFFFFFFFFFFFFFFFFFFF AND EQ PUSH2 0xE46 JUMPI PUSH0 DUP1 REVERT JUMPDEST DUP1 PUSH1 0x8 PUSH0 PUSH2 0x100 EXP DUP2 SLOAD DUP2 PUSH20 0xFFFFFFFFFFFFFFFFFFFFFFFFFFFFFFFFFFFFFFFF MUL NOT AND SWAP1 DUP4 PUSH20 0xFFFFFFFFFFFFFFFFFFFFFFFFFFFFFFFFFFFFFFFF AND MUL OR SWAP1 SSTORE POP POP JUMP JUMPDEST PUSH1 0xB SLOAD DUP2 JUMP JUMPDEST PUSH0 PUSH2 0xE99 DUP6 PUSH2 0x669 JUMP JUMPDEST PUSH2 0xED8 JUMPI PUSH1 0x40 MLOAD PUSH32 0x8C379A000000000000000000000000000000000000000000000000000000000 DUP2 MSTORE PUSH1 0x4 ADD PUSH2 0xECF SWAP1 PUSH2 0x3295 JUMP JUMPDEST PUSH1 0x40 MLOAD DUP1 SWAP2 SUB SWAP1 REVERT JUMPDEST DUP10 DUP10 DUP10 DUP10 DUP10 DUP10 DUP10 DUP10 DUP10 PUSH1 0x40 MLOAD PUSH1 0x20 ADD PUSH2 0xEF9 SWAP10 SWAP9 SWAP8 SWAP7 SWAP6 SWAP5 SWAP4 SWAP3 SWAP2 SWAP1 PUSH2 0x33A1 JUMP JUMPDEST PUSH1 0x40 MLOAD PUSH1 0x20 DUP2 DUP4 SUB SUB DUP2 MSTORE SWAP1 PUSH1 0x40 MSTORE DUP1 MLOAD SWAP1 PUSH1 0x20 ADD KECCAK256 SWAP1 POP SWAP10 SWAP9 POP POP POP POP POP POP POP POP POP JUMP JUMPDEST PUSH1 0xE SLOAD DUP2 JUMP JUMPDEST PUSH1 0x5 PUSH0 SWAP1 SLOAD SWAP1 PUSH2 0x100 EXP SWAP1 DIV PUSH20 0xFFFFFFFFFFFFFFFFFFFFFFFFFFFFFFFFFFFFFFFF AND DUP2 JUMP JUMPDEST PUSH1 0x6 PUSH0 SWAP1 SLOAD SWAP1 PUSH2 0x100 EXP SWAP1 DIV PUSH20 0xFFFFFFFFFFFFFFFFFFFFFFFFFFFFFFFFFFFFFFFF AND DUP2 JUMP JUMPDEST PUSH1 0x2 PUSH0 SWAP1 SLOAD SWAP1 PUSH2 0x100 EXP SWAP1 DIV PUSH20 0xFFFFFFFFFFFFFFFFFFFFFFFFFFFFFFFFFFFFFFFF AND DUP2 JUMP JUMPDEST PUSH0 PUSH32 0x0 PUSH20 0xFFFFFFFFFFFFFFFFFFFFFFFFFFFFFFFFFFFFFFFF AND DUP3 PUSH20 0xFFFFFFFFFFFFFFFFFFFFFFFFFFFFFFFFFFFFFFFF AND EQ SWAP1 POP SWAP2 SWAP1 POP JUMP JUMPDEST PUSH1 0x1 PUSH0 SWAP1 SLOAD SWAP1 PUSH2 0x100 EXP SWAP1 DIV PUSH20 0xFFFFFFFFFFFFFFFFFFFFFFFFFFFFFFFFFFFFFFFF AND PUSH20 0xFFFFFFFFFFFFFFFFFFFFFFFFFFFFFFFFFFFFFFFF AND CALLER PUSH20 0xFFFFFFFFFFFFFFFFFFFFFFFFFFFFFFFFFFFFFFFF AND EQ PUSH2 0x1042 JUMPI PUSH0 DUP1 REVERT JUMPDEST DUP1 PUSH1 0x5 PUSH0 PUSH2 0x100 EXP DUP2 SLOAD DUP2 PUSH20 0xFFFFFFFFFFFFFFFFFFFFFFFFFFFFFFFFFFFFFFFF MUL NOT AND SWAP1 DUP4 PUSH20 0xFFFFFFFFFFFFFFFFFFFFFFFFFFFFFFFFFFFFFFFF AND MUL OR SWAP1 SSTORE POP POP JUMP JUMPDEST PUSH1 0x4 PUSH0 SWAP1 SLOAD SWAP1 PUSH2 0x100 EXP SWAP1 DIV PUSH20 0xFFFFFFFFFFFFFFFFFFFFFFFFFFFFFFFFFFFFFFFF AND DUP2 JUMP JUMPDEST PUSH1 0xC SLOAD DUP2 JUMP JUMPDEST PUSH0 DUP1 SLOAD SWAP1 PUSH2 0x100 EXP SWAP1 DIV PUSH20 0xFFFFFFFFFFFFFFFFFFFFFFFFFFFFFFFFFFFFFFFF AND PUSH20 0xFFFFFFFFFFFFFFFFFFFFFFFFFFFFFFFFFFFFFFFF AND CALLER PUSH20 0xFFFFFFFFFFFFFFFFFFFFFFFFFFFFFFFFFFFFFFFF AND EQ PUSH2 0x1106 JUMPI PUSH0 DUP1 REVERT JUMPDEST DUP1 PUSH1 0x1 PUSH0 PUSH2 0x100 EXP DUP2 SLOAD DUP2 PUSH20 0xFFFFFFFFFFFFFFFFFFFFFFFFFFFFFFFFFFFFFFFF MUL NOT AND SWAP1 DUP4 PUSH20 0xFFFFFFFFFFFFFFFFFFFFFFFFFFFFFFFFFFFFFFFF AND MUL OR SWAP1 SSTORE POP POP JUMP JUMPDEST PUSH0 DUP1 SLOAD SWAP1 PUSH2 0x100 EXP SWAP1 DIV PUSH20 0xFFFFFFFFFFFFFFFFFFFFFFFFFFFFFFFFFFFFFFFF AND PUSH20 0xFFFFFFFFFFFFFFFFFFFFFFFFFFFFFFFFFFFFFFFF AND CALLER PUSH20 0xFFFFFFFFFFFFFFFFFFFFFFFFFFFFFFFFFFFFFFFF AND EQ PUSH2 0x119F JUMPI PUSH0 DUP1 REVERT JUMPDEST PUSH0 DUP1 SLOAD SWAP1 PUSH2 0x100 EXP SWAP1 DIV PUSH20 0xFFFFFFFFFFFFFFFFFFFFFFFFFFFFFFFFFFFFFFFF AND PUSH20 0xFFFFFFFFFFFFFFFFFFFFFFFFFFFFFFFFFFFFFFFF AND PUSH32 0xF8DF31144D9C2F0F6B59D69B8B98ABD5459D07F2742C4DF920B25AAE33C64820 PUSH1 0x40 MLOAD PUSH1 0x40 MLOAD DUP1 SWAP2 SUB SWAP1 LOG2 PUSH0 DUP1 PUSH0 PUSH2 0x100 EXP DUP2 SLOAD DUP2 PUSH20 0xFFFFFFFFFFFFFFFFFFFFFFFFFFFFFFFFFFFFFFFF MUL NOT AND SWAP1 DUP4 PUSH20 0xFFFFFFFFFFFFFFFFFFFFFFFFFFFFFFFFFFFFFFFF AND MUL OR SWAP1 SSTORE POP JUMP JUMPDEST PUSH1 0x3 PUSH0 SWAP1 SLOAD SWAP1 PUSH2 0x100 EXP SWAP1 DIV PUSH20 0xFFFFFFFFFFFFFFFFFFFFFFFFFFFFFFFFFFFFFFFF AND DUP2 JUMP JUMPDEST PUSH1 0x1 PUSH0 SWAP1 SLOAD SWAP1 PUSH2 0x100 EXP SWAP1 DIV PUSH20 0xFFFFFFFFFFFFFFFFFFFFFFFFFFFFFFFFFFFFFFFF AND PUSH20 0xFFFFFFFFFFFFFFFFFFFFFFFFFFFFFFFFFFFFFFFF AND CALLER PUSH20 0xFFFFFFFFFFFFFFFFFFFFFFFFFFFFFFFFFFFFFFFF AND EQ PUSH2 0x12BF JUMPI PUSH0 DUP1 REVERT JUMPDEST DUP1 PUSH1 0x2 PUSH0 PUSH2 0x100 EXP DUP2 SLOAD DUP2 PUSH20 0xFFFFFFFFFFFFFFFFFFFFFFFFFFFFFFFFFFFFFFFF MUL NOT AND SWAP1 DUP4 PUSH20 0xFFFFFFFFFFFFFFFFFFFFFFFFFFFFFFFFFFFFFFFF AND MUL OR SWAP1 SSTORE POP POP JUMP JUMPDEST PUSH1 0x1 PUSH0 SWAP1 SLOAD SWAP1 PUSH2 0x100 EXP SWAP1 DIV PUSH20 0xFFFFFFFFFFFFFFFFFFFFFFFFFFFFFFFFFFFFFFFF AND PUSH20 0xFFFFFFFFFFFFFFFFFFFFFFFFFFFFFFFFFFFFFFFF AND CALLER PUSH20 0xFFFFFFFFFFFFFFFFFFFFFFFFFFFFFFFFFFFFFFFF AND EQ PUSH2 0x135A JUMPI PUSH0 DUP1 REVERT JUMPDEST DUP1 PUSH1 0x7 PUSH0 PUSH2 0x100 EXP DUP2 SLOAD DUP2 PUSH20 0xFFFFFFFFFFFFFFFFFFFFFFFFFFFFFFFFFFFFFFFF MUL NOT AND SWAP1 DUP4 PUSH20 0xFFFFFFFFFFFFFFFFFFFFFFFFFFFFFFFFFFFFFFFF AND MUL OR SWAP1 SSTORE POP POP JUMP JUMPDEST PUSH1 0x8 PUSH0 SWAP1 SLOAD SWAP1 PUSH2 0x100 EXP SWAP1 DIV PUSH20 0xFFFFFFFFFFFFFFFFFFFFFFFFFFFFFFFFFFFFFFFF AND DUP2 JUMP JUMPDEST PUSH0 DUP1 SLOAD SWAP1 PUSH2 0x100 EXP SWAP1 DIV PUSH20 0xFFFFFFFFFFFFFFFFFFFFFFFFFFFFFFFFFFFFFFFF AND DUP2 JUMP JUMPDEST PUSH1 0x7 PUSH0 SWAP1 SLOAD SWAP1 PUSH2 0x100 EXP SWAP1 DIV PUSH20 0xFFFFFFFFFFFFFFFFFFFFFFFFFFFFFFFFFFFFFFFF AND DUP2 JUMP JUMPDEST PUSH0 DUP1 PUSH0 DUP1 PUSH2 0x1417 DUP6 PUSH2 0x23D2 JUMP JUMPDEST SWAP3 POP SWAP3 POP SWAP3 POP PUSH1 0x1 DUP7 DUP3 DUP6 DUP6 PUSH1 0x40 MLOAD PUSH0 DUP2 MSTORE PUSH1 0x20 ADD PUSH1 0x40 MSTORE PUSH1 0x40 MLOAD PUSH2 0x143F SWAP5 SWAP4 SWAP3 SWAP2 SWAP1 PUSH2 0x345A JUMP JUMPDEST PUSH1 0x20 PUSH1 0x40 MLOAD PUSH1 0x20 DUP2 SUB SWAP1 DUP1 DUP5 SUB SWAP1 DUP6 GAS STATICCALL ISZERO DUP1 ISZERO PUSH2 0x145F JUMPI RETURNDATASIZE PUSH0 DUP1 RETURNDATACOPY RETURNDATASIZE PUSH0 REVERT JUMPDEST POP POP POP PUSH1 0x20 PUSH1 0x40 MLOAD SUB MLOAD SWAP4 POP POP POP POP SWAP3 SWAP2 POP POP JUMP JUMPDEST PUSH1 0x1 PUSH0 SWAP1 SLOAD SWAP1 PUSH2 0x100 EXP SWAP1 DIV PUSH20 0xFFFFFFFFFFFFFFFFFFFFFFFFFFFFFFFFFFFFFFFF AND PUSH20 0xFFFFFFFFFFFFFFFFFFFFFFFFFFFFFFFFFFFFFFFF AND CALLER PUSH20 0xFFFFFFFFFFFFFFFFFFFFFFFFFFFFFFFFFFFFFFFF AND EQ PUSH2 0x14CC JUMPI PUSH0 DUP1 REVERT JUMPDEST DUP1 PUSH1 0x3 PUSH0 PUSH2 0x100 EXP DUP2 SLOAD DUP2 PUSH20 0xFFFFFFFFFFFFFFFFFFFFFFFFFFFFFFFFFFFFFFFF MUL NOT AND SWAP1 DUP4 PUSH20 0xFFFFFFFFFFFFFFFFFFFFFFFFFFFFFFFFFFFFFFFF AND MUL OR SWAP1 SSTORE POP POP JUMP JUMPDEST PUSH0 DUP1 SLOAD SWAP1 PUSH2 0x100 EXP SWAP1 DIV PUSH20 0xFFFFFFFFFFFFFFFFFFFFFFFFFFFFFFFFFFFFFFFF AND PUSH20 0xFFFFFFFFFFFFFFFFFFFFFFFFFFFFFFFFFFFFFFFF AND CALLER PUSH20 0xFFFFFFFFFFFFFFFFFFFFFFFFFFFFFFFFFFFFFFFF AND EQ PUSH2 0x1565 JUMPI PUSH0 DUP1 REVERT JUMPDEST DUP6 PUSH1 0x9 DUP2 SWAP1 SSTORE POP DUP5 PUSH1 0xA DUP2 SWAP1 SSTORE POP DUP4 PUSH1 0xB DUP2 SWAP1 SSTORE POP DUP3 PUSH1 0xC DUP2 SWAP1 SSTORE POP DUP2 PUSH1 0xD DUP2 SWAP1 SSTORE POP DUP1 PUSH1 0xE DUP2 SWAP1 SSTORE POP POP POP POP POP POP POP JUMP JUMPDEST PUSH1 0x1 PUSH0 SWAP1 SLOAD SWAP1 PUSH2 0x100 EXP SWAP1 DIV PUSH20 0xFFFFFFFFFFFFFFFFFFFFFFFFFFFFFFFFFFFFFFFF AND PUSH20 0xFFFFFFFFFFFFFFFFFFFFFFFFFFFFFFFFFFFFFFFF AND CALLER PUSH20 0xFFFFFFFFFFFFFFFFFFFFFFFFFFFFFFFFFFFFFFFF AND EQ PUSH2 0x15EF JUMPI PUSH0 DUP1 REVERT JUMPDEST DUP1 PUSH1 0x6 PUSH0 PUSH2 0x100 EXP DUP2 SLOAD DUP2 PUSH20 0xFFFFFFFFFFFFFFFFFFFFFFFFFFFFFFFFFFFFFFFF MUL NOT AND SWAP1 DUP4 PUSH20 0xFFFFFFFFFFFFFFFFFFFFFFFFFFFFFFFFFFFFFFFF AND MUL OR SWAP1 SSTORE POP POP JUMP JUMPDEST PUSH1 0xD SLOAD DUP2 JUMP JUMPDEST PUSH1 0x9 SLOAD DUP2 JUMP JUMPDEST PUSH1 0xA SLOAD DUP2 JUMP JUMPDEST PUSH2 0x164D CALLER PUSH2 0xF93 JUMP JUMPDEST PUSH2 0x168C JUMPI PUSH1 0x40 MLOAD PUSH32 0x8C379A000000000000000000000000000000000000000000000000000000000 DUP2 MSTORE PUSH1 0x4 ADD PUSH2 0x1683 SWAP1 PUSH2 0x2DFA JUMP JUMPDEST PUSH1 0x40 MLOAD DUP1 SWAP2 SUB SWAP1 REVERT JUMPDEST PUSH0 PUSH20 0xFFFFFFFFFFFFFFFFFFFFFFFFFFFFFFFFFFFFFFFF AND DUP11 PUSH20 0xFFFFFFFFFFFFFFFFFFFFFFFFFFFFFFFFFFFFFFFF AND SUB PUSH2 0x16FA JUMPI PUSH1 0x40 MLOAD PUSH32 0x8C379A000000000000000000000000000000000000000000000000000000000 DUP2 MSTORE PUSH1 0x4 ADD PUSH2 0x16F1 SWAP1 PUSH2 0x2E62 JUMP JUMPDEST PUSH1 0x40 MLOAD DUP1 SWAP2 SUB SWAP1 REVERT JUMPDEST PUSH2 0x170C DUP11 DUP4 DUP12 DUP12 DUP12 DUP12 DUP12 DUP12 DUP12 DUP11 PUSH2 0x1EE8 JUMP JUMPDEST PUSH2 0x174B JUMPI PUSH1 0x40 MLOAD PUSH32 0x8C379A000000000000000000000000000000000000000000000000000000000 DUP2 MSTORE PUSH1 0x4 ADD PUSH2 0x1742 SWAP1 PUSH2 0x2ECA JUMP JUMPDEST PUSH1 0x40 MLOAD DUP1 SWAP2 SUB SWAP1 REVERT JUMPDEST DUP7 DUP9 EQ PUSH2 0x178D JUMPI PUSH1 0x40 MLOAD PUSH32 0x8C379A000000000000000000000000000000000000000000000000000000000 DUP2 MSTORE PUSH1 0x4 ADD PUSH2 0x1784 SWAP1 PUSH2 0x2F32 JUMP JUMPDEST PUSH1 0x40 MLOAD DUP1 SWAP2 SUB SWAP1 REVERT JUMPDEST PUSH0 DUP8 GT ISZERO PUSH2 0x1BA2 JUMPI PUSH2 0x17D4 DUP7 PUSH1 0x40 MLOAD DUP1 PUSH1 0x40 ADD PUSH1 0x40 MSTORE DUP1 PUSH1 0x4 DUP2 MSTORE PUSH1 0x20 ADD PUSH32 0x7573647400000000000000000000000000000000000000000000000000000000 DUP2 MSTORE POP PUSH2 0x1E90 JUMP JUMPDEST ISZERO PUSH2 0x1898 JUMPI PUSH0 PUSH20 0xFFFFFFFFFFFFFFFFFFFFFFFFFFFFFFFFFFFFFFFF AND PUSH1 0x5 PUSH0 SWAP1 SLOAD SWAP1 PUSH2 0x100 EXP SWAP1 DIV PUSH20 0xFFFFFFFFFFFFFFFFFFFFFFFFFFFFFFFFFFFFFFFF AND PUSH20 0xFFFFFFFFFFFFFFFFFFFFFFFFFFFFFFFFFFFFFFFF AND SUB PUSH2 0x1868 JUMPI PUSH1 0x40 MLOAD PUSH32 0x8C379A000000000000000000000000000000000000000000000000000000000 DUP2 MSTORE PUSH1 0x4 ADD PUSH2 0x185F SWAP1 PUSH2 0x2F9A JUMP JUMPDEST PUSH1 0x40 MLOAD DUP1 SWAP2 SUB SWAP1 REVERT JUMPDEST PUSH2 0x1897 PUSH1 0x5 PUSH0 SWAP1 SLOAD SWAP1 PUSH2 0x100 EXP SWAP1 DIV PUSH20 0xFFFFFFFFFFFFFFFFFFFFFFFFFFFFFFFFFFFFFFFF AND DUP12 DUP5 DUP9 DUP9 DUP13 PUSH2 0x1FBC JUMP JUMPDEST JUMPDEST PUSH2 0x18D7 DUP7 PUSH1 0x40 MLOAD DUP1 PUSH1 0x40 ADD PUSH1 0x40 MSTORE DUP1 PUSH1 0x4 DUP2 MSTORE PUSH1 0x20 ADD PUSH32 0x7573646300000000000000000000000000000000000000000000000000000000 DUP2 MSTORE POP PUSH2 0x1E90 JUMP JUMPDEST ISZERO PUSH2 0x199B JUMPI PUSH0 PUSH20 0xFFFFFFFFFFFFFFFFFFFFFFFFFFFFFFFFFFFFFFFF AND PUSH1 0x6 PUSH0 SWAP1 SLOAD SWAP1 PUSH2 0x100 EXP SWAP1 DIV PUSH20 0xFFFFFFFFFFFFFFFFFFFFFFFFFFFFFFFFFFFFFFFF AND PUSH20 0xFFFFFFFFFFFFFFFFFFFFFFFFFFFFFFFFFFFFFFFF AND SUB PUSH2 0x196B JUMPI PUSH1 0x40 MLOAD PUSH32 0x8C379A000000000000000000000000000000000000000000000000000000000 DUP2 MSTORE PUSH1 0x4 ADD PUSH2 0x1962 SWAP1 PUSH2 0x3002 JUMP JUMPDEST PUSH1 0x40 MLOAD DUP1 SWAP2 SUB SWAP1 REVERT JUMPDEST PUSH2 0x199A PUSH1 0x6 PUSH0 SWAP1 SLOAD SWAP1 PUSH2 0x100 EXP SWAP1 DIV PUSH20 0xFFFFFFFFFFFFFFFFFFFFFFFFFFFFFFFFFFFFFFFF AND DUP12 DUP5 DUP9 DUP9 DUP13 PUSH2 0x1FBC JUMP JUMPDEST JUMPDEST PUSH2 0x19DA DUP7 PUSH1 0x40 MLOAD DUP1 PUSH1 0x40 ADD PUSH1 0x40 MSTORE DUP1 PUSH1 0x3 DUP2 MSTORE PUSH1 0x20 ADD PUSH32 0x6574680000000000000000000000000000000000000000000000000000000000 DUP2 MSTORE POP PUSH2 0x1E90 JUMP JUMPDEST ISZERO PUSH2 0x1A9E JUMPI PUSH0 PUSH20 0xFFFFFFFFFFFFFFFFFFFFFFFFFFFFFFFFFFFFFFFF AND PUSH1 0x8 PUSH0 SWAP1 SLOAD SWAP1 PUSH2 0x100 EXP SWAP1 DIV PUSH20 0xFFFFFFFFFFFFFFFFFFFFFFFFFFFFFFFFFFFFFFFF AND PUSH20 0xFFFFFFFFFFFFFFFFFFFFFFFFFFFFFFFFFFFFFFFF AND SUB PUSH2 0x1A6E JUMPI PUSH1 0x40 MLOAD PUSH32 0x8C379A000000000000000000000000000000000000000000000000000000000 DUP2 MSTORE PUSH1 0x4 ADD PUSH2 0x1A65 SWAP1 PUSH2 0x306A JUMP JUMPDEST PUSH1 0x40 MLOAD DUP1 SWAP2 SUB SWAP1 REVERT JUMPDEST PUSH2 0x1A9D PUSH1 0x8 PUSH0 SWAP1 SLOAD SWAP1 PUSH2 0x100 EXP SWAP1 DIV PUSH20 0xFFFFFFFFFFFFFFFFFFFFFFFFFFFFFFFFFFFFFFFF AND DUP12 DUP5 DUP9 DUP9 DUP13 PUSH2 0x1FBC JUMP JUMPDEST JUMPDEST PUSH2 0x1ADD DUP7 PUSH1 0x40 MLOAD DUP1 PUSH1 0x40 ADD PUSH1 0x40 MSTORE DUP1 PUSH1 0x3 DUP2 MSTORE PUSH1 0x20 ADD PUSH32 0x756D690000000000000000000000000000000000000000000000000000000000 DUP2 MSTORE POP PUSH2 0x1E90 JUMP JUMPDEST ISZERO PUSH2 0x1BA1 JUMPI PUSH0 PUSH20 0xFFFFFFFFFFFFFFFFFFFFFFFFFFFFFFFFFFFFFFFF AND PUSH1 0x7 PUSH0 SWAP1 SLOAD SWAP1 PUSH2 0x100 EXP SWAP1 DIV PUSH20 0xFFFFFFFFFFFFFFFFFFFFFFFFFFFFFFFFFFFFFFFF AND PUSH20 0xFFFFFFFFFFFFFFFFFFFFFFFFFFFFFFFFFFFFFFFF AND SUB PUSH2 0x1B71 JUMPI PUSH1 0x40 MLOAD PUSH32 0x8C379A000000000000000000000000000000000000000000000000000000000 DUP2 MSTORE PUSH1 0x4 ADD PUSH2 0x1B68 SWAP1 PUSH2 0x30D2 JUMP JUMPDEST PUSH1 0x40 MLOAD DUP1 SWAP2 SUB SWAP1 REVERT JUMPDEST PUSH2 0x1BA0 PUSH1 0x7 PUSH0 SWAP1 SLOAD SWAP1 PUSH2 0x100 EXP SWAP1 DIV PUSH20 0xFFFFFFFFFFFFFFFFFFFFFFFFFFFFFFFFFFFFFFFF AND DUP12 DUP5 DUP9 DUP9 DUP13 PUSH2 0x1FBC JUMP JUMPDEST JUMPDEST JUMPDEST PUSH1 0x60 DUP12 PUSH20 0xFFFFFFFFFFFFFFFFFFFFFFFFFFFFFFFFFFFFFFFF AND PUSH4 0xE985E9C5 DUP5 ADDRESS PUSH1 0x40 MLOAD DUP4 PUSH4 0xFFFFFFFF AND PUSH1 0xE0 SHL DUP2 MSTORE PUSH1 0x4 ADD PUSH2 0x1BDF SWAP3 SWAP2 SWAP1 PUSH2 0x349D JUMP JUMPDEST PUSH1 0x20 PUSH1 0x40 MLOAD DUP1 DUP4 SUB DUP2 DUP7 GAS STATICCALL ISZERO DUP1 ISZERO PUSH2 0x1BFA JUMPI RETURNDATASIZE PUSH0 DUP1 RETURNDATACOPY RETURNDATASIZE PUSH0 REVERT JUMPDEST POP POP POP POP PUSH1 0x40 MLOAD RETURNDATASIZE PUSH1 0x1F NOT PUSH1 0x1F DUP3 ADD AND DUP3 ADD DUP1 PUSH1 0x40 MSTORE POP DUP2 ADD SWAP1 PUSH2 0x1C1E SWAP2 SWAP1 PUSH2 0x34D8 JUMP JUMPDEST PUSH2 0x1C5D JUMPI PUSH1 0x40 MLOAD PUSH32 0x8C379A000000000000000000000000000000000000000000000000000000000 DUP2 MSTORE PUSH1 0x4 ADD PUSH2 0x1C54 SWAP1 PUSH2 0x354D JUMP JUMPDEST PUSH1 0x40 MLOAD DUP1 SWAP2 SUB SWAP1 REVERT JUMPDEST DUP12 PUSH20 0xFFFFFFFFFFFFFFFFFFFFFFFFFFFFFFFFFFFFFFFF AND PUSH4 0xB88D4FDE DUP5 DUP14 DUP14 DUP6 PUSH1 0x40 MLOAD DUP6 PUSH4 0xFFFFFFFF AND PUSH1 0xE0 SHL DUP2 MSTORE PUSH1 0x4 ADD PUSH2 0x1C9C SWAP5 SWAP4 SWAP3 SWAP2 SWAP1 PUSH2 0x3150 JUMP JUMPDEST PUSH0 PUSH1 0x40 MLOAD DUP1 DUP4 SUB DUP2 PUSH0 DUP8 DUP1 EXTCODESIZE ISZERO DUP1 ISZERO PUSH2 0x1CB3 JUMPI PUSH0 DUP1 REVERT JUMPDEST POP GAS CALL ISZERO DUP1 ISZERO PUSH2 0x1CC5 JUMPI RETURNDATASIZE PUSH0 DUP1 RETURNDATACOPY RETURNDATASIZE PUSH0 REVERT JUMPDEST POP POP POP POP PUSH32 0x73EE6083753970C82CF2D93FF7BB0432E00E0155C4096741EA134C74F67EB02B PUSH4 0x5F5E100 DUP12 PUSH2 0x1CFA SWAP2 SWAP1 PUSH2 0x31C7 JUMP JUMPDEST DUP11 DUP14 DUP7 PUSH1 0x40 MLOAD PUSH2 0x1D0D SWAP5 SWAP4 SWAP3 SWAP2 SWAP1 PUSH2 0x3208 JUMP JUMPDEST PUSH1 0x40 MLOAD DUP1 SWAP2 SUB SWAP1 LOG1 POP POP POP POP POP POP POP POP POP POP POP POP JUMP JUMPDEST PUSH0 DUP1 SLOAD SWAP1 PUSH2 0x100 EXP SWAP1 DIV PUSH20 0xFFFFFFFFFFFFFFFFFFFFFFFFFFFFFFFFFFFFFFFF AND PUSH20 0xFFFFFFFFFFFFFFFFFFFFFFFFFFFFFFFFFFFFFFFF AND CALLER PUSH20 0xFFFFFFFFFFFFFFFFFFFFFFFFFFFFFFFFFFFFFFFF AND EQ PUSH2 0x1D79 JUMPI PUSH0 DUP1 REVERT JUMPDEST PUSH0 PUSH20 0xFFFFFFFFFFFFFFFFFFFFFFFFFFFFFFFFFFFFFFFF AND DUP2 PUSH20 0xFFFFFFFFFFFFFFFFFFFFFFFFFFFFFFFFFFFFFFFF AND SUB PUSH2 0x1DB0 JUMPI PUSH0 DUP1 REVERT JUMPDEST DUP1 PUSH20 0xFFFFFFFFFFFFFFFFFFFFFFFFFFFFFFFFFFFFFFFF AND PUSH0 DUP1 SLOAD SWAP1 PUSH2 0x100 EXP SWAP1 DIV PUSH20 0xFFFFFFFFFFFFFFFFFFFFFFFFFFFFFFFFFFFFFFFF AND PUSH20 0xFFFFFFFFFFFFFFFFFFFFFFFFFFFFFFFFFFFFFFFF AND PUSH32 0x8BE0079C531659141344CD1FD0A4F28419497F9722A3DAAFE3B4186F6B6457E0 PUSH1 0x40 MLOAD PUSH1 0x40 MLOAD DUP1 SWAP2 SUB SWAP1 LOG3 DUP1 PUSH0 DUP1 PUSH2 0x100 EXP DUP2 SLOAD DUP2 PUSH20 0xFFFFFFFFFFFFFFFFFFFFFFFFFFFFFFFFFFFFFFFF MUL NOT AND SWAP1 DUP4 PUSH20 0xFFFFFFFFFFFFFFFFFFFFFFFFFFFFFFFFFFFFFFFF AND MUL OR SWAP1 SSTORE POP POP JUMP JUMPDEST PUSH1 0x1 PUSH0 SWAP1 SLOAD SWAP1 PUSH2 0x100 EXP SWAP1 DIV PUSH20 0xFFFFFFFFFFFFFFFFFFFFFFFFFFFFFFFFFFFFFFFF AND DUP2 JUMP JUMPDEST PUSH0 DUP2 PUSH1 0x40 MLOAD PUSH1 0x20 ADD PUSH2 0x1EA2 SWAP2 SWAP1 PUSH2 0x356B JUMP JUMPDEST PUSH1 0x40 MLOAD PUSH1 0x20 DUP2 DUP4 SUB SUB DUP2 MSTORE SWAP1 PUSH1 0x40 MSTORE DUP1 MLOAD SWAP1 PUSH1 0x20 ADD KECCAK256 DUP4 PUSH1 0x40 MLOAD PUSH1 0x20 ADD PUSH2 0x1EC9 SWAP2 SWAP1 PUSH2 0x356B JUMP JUMPDEST PUSH1 0x40 MLOAD PUSH1 0x20 DUP2 DUP4 SUB SUB DUP2 MSTORE SWAP1 PUSH1 0x40 MSTORE DUP1 MLOAD SWAP1 PUSH1 0x20 ADD KECCAK256 EQ SWAP1 POP SWAP3 SWAP2 POP POP JUMP JUMPDEST PUSH0 PUSH2 0x1EF2 DUP7 PUSH2 0x669 JUMP JUMPDEST PUSH2 0x1F31 JUMPI PUSH1 0x40 MLOAD PUSH32 0x8C379A000000000000000000000000000000000000000000000000000000000 DUP2 MSTORE PUSH1 0x4 ADD PUSH2 0x1F28 SWAP1 PUSH2 0x3295 JUMP JUMPDEST PUSH1 0x40 MLOAD DUP1 SWAP2 SUB SWAP1 REVERT JUMPDEST PUSH0 PUSH2 0x1F43 DUP13 DUP13 DUP13 DUP13 DUP13 DUP13 DUP13 DUP13 DUP13 PUSH2 0xE8F JUMP JUMPDEST SWAP1 POP PUSH0 PUSH2 0x1F4F DUP3 PUSH2 0x2437 JUMP JUMPDEST SWAP1 POP PUSH1 0x4 PUSH0 SWAP1 SLOAD SWAP1 PUSH2 0x100 EXP SWAP1 DIV PUSH20 0xFFFFFFFFFFFFFFFFFFFFFFFFFFFFFFFFFFFFFFFF AND PUSH20 0xFFFFFFFFFFFFFFFFFFFFFFFFFFFFFFFFFFFFFFFF AND PUSH2 0x1F93 DUP3 DUP7 PUSH2 0x2466 JUMP JUMPDEST PUSH20 0xFFFFFFFFFFFFFFFFFFFFFFFFFFFFFFFFFFFFFFFF AND EQ SWAP3 POP POP POP SWAP11 SWAP10 POP POP POP POP POP POP POP POP POP POP JUMP JUMPDEST PUSH0 DUP1 PUSH0 DUP9 PUSH20 0xFFFFFFFFFFFFFFFFFFFFFFFFFFFFFFFFFFFFFFFF AND PUSH4 0x23B872DD DUP10 ADDRESS DUP8 PUSH1 0x40 MLOAD DUP5 PUSH4 0xFFFFFFFF AND PUSH1 0xE0 SHL DUP2 MSTORE PUSH1 0x4 ADD PUSH2 0x1FFC SWAP4 SWAP3 SWAP2 SWAP1 PUSH2 0x3581 JUMP JUMPDEST PUSH1 0x20 PUSH1 0x40 MLOAD DUP1 DUP4 SUB DUP2 PUSH0 DUP8 GAS CALL ISZERO DUP1 ISZERO PUSH2 0x2018 JUMPI RETURNDATASIZE PUSH0 DUP1 RETURNDATACOPY RETURNDATASIZE PUSH0 REVERT JUMPDEST POP POP POP POP PUSH1 0x40 MLOAD RETURNDATASIZE PUSH1 0x1F NOT PUSH1 0x1F DUP3 ADD AND DUP3 ADD DUP1 PUSH1 0x40 MSTORE POP DUP2 ADD SWAP1 PUSH2 0x203C SWAP2 SWAP1 PUSH2 0x34D8 JUMP JUMPDEST POP DUP5 ISZERO PUSH2 0x20C9 JUMPI PUSH2 0x206C PUSH2 0x3E8 PUSH2 0x205E PUSH1 0x9 SLOAD DUP8 PUSH2 0x24D0 SWAP1 SWAP2 SWAP1 PUSH4 0xFFFFFFFF AND JUMP JUMPDEST PUSH2 0x2547 SWAP1 SWAP2 SWAP1 PUSH4 0xFFFFFFFF AND JUMP JUMPDEST SWAP3 POP PUSH2 0x2097 PUSH2 0x3E8 PUSH2 0x2089 PUSH1 0xA SLOAD DUP8 PUSH2 0x24D0 SWAP1 SWAP2 SWAP1 PUSH4 0xFFFFFFFF AND JUMP JUMPDEST PUSH2 0x2547 SWAP1 SWAP2 SWAP1 PUSH4 0xFFFFFFFF AND JUMP JUMPDEST SWAP2 POP PUSH2 0x20C2 PUSH2 0x3E8 PUSH2 0x20B4 PUSH1 0xB SLOAD DUP8 PUSH2 0x24D0 SWAP1 SWAP2 SWAP1 PUSH4 0xFFFFFFFF AND JUMP JUMPDEST PUSH2 0x2547 SWAP1 SWAP2 SWAP1 PUSH4 0xFFFFFFFF AND JUMP JUMPDEST SWAP1 POP PUSH2 0x214B JUMP JUMPDEST PUSH2 0x20F2 PUSH2 0x3E8 PUSH2 0x20E4 PUSH1 0xD SLOAD DUP8 PUSH2 0x24D0 SWAP1 SWAP2 SWAP1 PUSH4 0xFFFFFFFF AND JUMP JUMPDEST PUSH2 0x2547 SWAP1 SWAP2 SWAP1 PUSH4 0xFFFFFFFF AND JUMP JUMPDEST SWAP3 POP PUSH2 0x211D PUSH2 0x3E8 PUSH2 0x210F PUSH1 0xC SLOAD DUP8 PUSH2 0x24D0 SWAP1 SWAP2 SWAP1 PUSH4 0xFFFFFFFF AND JUMP JUMPDEST PUSH2 0x2547 SWAP1 SWAP2 SWAP1 PUSH4 0xFFFFFFFF AND JUMP JUMPDEST SWAP2 POP PUSH2 0x2148 PUSH2 0x3E8 PUSH2 0x213A PUSH1 0xE SLOAD DUP8 PUSH2 0x24D0 SWAP1 SWAP2 SWAP1 PUSH4 0xFFFFFFFF AND JUMP JUMPDEST PUSH2 0x2547 SWAP1 SWAP2 SWAP1 PUSH4 0xFFFFFFFF AND JUMP JUMPDEST SWAP1 POP JUMPDEST PUSH0 DUP2 DUP4 DUP6 DUP8 PUSH2 0x215A SWAP2 SWAP1 PUSH2 0x35B6 JUMP JUMPDEST PUSH2 0x2164 SWAP2 SWAP1 PUSH2 0x35B6 JUMP JUMPDEST PUSH2 0x216E SWAP2 SWAP1 PUSH2 0x35B6 JUMP JUMPDEST SWAP1 POP PUSH0 DUP5 GT ISZERO PUSH2 0x21F5 JUMPI DUP10 PUSH20 0xFFFFFFFFFFFFFFFFFFFFFFFFFFFFFFFFFFFFFFFF AND PUSH4 0xA9059CBB DUP9 DUP7 PUSH1 0x40 MLOAD DUP4 PUSH4 0xFFFFFFFF AND PUSH1 0xE0 SHL DUP2 MSTORE PUSH1 0x4 ADD PUSH2 0x21B3 SWAP3 SWAP2 SWAP1 PUSH2 0x35E9 JUMP JUMPDEST PUSH1 0x20 PUSH1 0x40 MLOAD DUP1 DUP4 SUB DUP2 PUSH0 DUP8 GAS CALL ISZERO DUP1 ISZERO PUSH2 0x21CF JUMPI RETURNDATASIZE PUSH0 DUP1 RETURNDATACOPY RETURNDATASIZE PUSH0 REVERT JUMPDEST POP POP POP POP PUSH1 0x40 MLOAD RETURNDATASIZE PUSH1 0x1F NOT PUSH1 0x1F DUP3 ADD AND DUP3 ADD DUP1 PUSH1 0x40 MSTORE POP DUP2 ADD SWAP1 PUSH2 0x21F3 SWAP2 SWAP1 PUSH2 0x34D8 JUMP JUMPDEST POP JUMPDEST PUSH0 DUP4 GT ISZERO PUSH2 0x229B JUMPI DUP10 PUSH20 0xFFFFFFFFFFFFFFFFFFFFFFFFFFFFFFFFFFFFFFFF AND PUSH4 0xA9059CBB PUSH1 0x2 PUSH0 SWAP1 SLOAD SWAP1 PUSH2 0x100 EXP SWAP1 DIV PUSH20 0xFFFFFFFFFFFFFFFFFFFFFFFFFFFFFFFFFFFFFFFF AND DUP6 PUSH1 0x40 MLOAD DUP4 PUSH4 0xFFFFFFFF AND PUSH1 0xE0 SHL DUP2 MSTORE PUSH1 0x4 ADD PUSH2 0x2259 SWAP3 SWAP2 SWAP1 PUSH2 0x35E9 JUMP JUMPDEST PUSH1 0x20 PUSH1 0x40 MLOAD DUP1 DUP4 SUB DUP2 PUSH0 DUP8 GAS CALL ISZERO DUP1 ISZERO PUSH2 0x2275 JUMPI RETURNDATASIZE PUSH0 DUP1 RETURNDATACOPY RETURNDATASIZE PUSH0 REVERT JUMPDEST POP POP POP POP PUSH1 0x40 MLOAD RETURNDATASIZE PUSH1 0x1F NOT PUSH1 0x1F DUP3 ADD AND DUP3 ADD DUP1 PUSH1 0x40 MSTORE POP DUP2 ADD SWAP1 PUSH2 0x2299 SWAP2 SWAP1 PUSH2 0x34D8 JUMP JUMPDEST POP JUMPDEST PUSH0 DUP3 GT ISZERO PUSH2 0x2341 JUMPI DUP10 PUSH20 0xFFFFFFFFFFFFFFFFFFFFFFFFFFFFFFFFFFFFFFFF AND PUSH4 0xA9059CBB PUSH1 0x3 PUSH0 SWAP1 SLOAD SWAP1 PUSH2 0x100 EXP SWAP1 DIV PUSH20 0xFFFFFFFFFFFFFFFFFFFFFFFFFFFFFFFFFFFFFFFF AND DUP5 PUSH1 0x40 MLOAD DUP4 PUSH4 0xFFFFFFFF AND PUSH1 0xE0 SHL DUP2 MSTORE PUSH1 0x4 ADD PUSH2 0x22FF SWAP3 SWAP2 SWAP1 PUSH2 0x35E9 JUMP JUMPDEST PUSH1 0x20 PUSH1 0x40 MLOAD DUP1 DUP4 SUB DUP2 PUSH0 DUP8 GAS CALL ISZERO DUP1 ISZERO PUSH2 0x231B JUMPI RETURNDATASIZE PUSH0 DUP1 RETURNDATACOPY RETURNDATASIZE PUSH0 REVERT JUMPDEST POP POP POP POP PUSH1 0x40 MLOAD RETURNDATASIZE PUSH1 0x1F NOT PUSH1 0x1F DUP3 ADD AND DUP3 ADD DUP1 PUSH1 0x40 MSTORE POP DUP2 ADD SWAP1 PUSH2 0x233F SWAP2 SWAP1 PUSH2 0x34D8 JUMP JUMPDEST POP JUMPDEST PUSH0 DUP2 GT ISZERO PUSH2 0x23C6 JUMPI DUP10 PUSH20 0xFFFFFFFFFFFFFFFFFFFFFFFFFFFFFFFFFFFFFFFF AND PUSH4 0xA9059CBB DUP10 DUP4 PUSH1 0x40 MLOAD DUP4 PUSH4 0xFFFFFFFF AND PUSH1 0xE0 SHL DUP2 MSTORE PUSH1 0x4 ADD PUSH2 0x2384 SWAP3 SWAP2 SWAP1 PUSH2 0x35E9 JUMP JUMPDEST PUSH1 0x20 PUSH1 0x40 MLOAD DUP1 DUP4 SUB DUP2 PUSH0 DUP8 GAS CALL ISZERO DUP1 ISZERO PUSH2 0x23A0 JUMPI RETURNDATASIZE PUSH0 DUP1 RETURNDATACOPY RETURNDATASIZE PUSH0 REVERT JUMPDEST POP POP POP POP PUSH1 0x40 MLOAD RETURNDATASIZE PUSH1 0x1F NOT PUSH1 0x1F DUP3 ADD AND DUP3 ADD DUP1 PUSH1 0x40 MSTORE POP DUP2 ADD SWAP1 PUSH2 0x23C4 SWAP2 SWAP1 PUSH2 0x34D8 JUMP JUMPDEST POP JUMPDEST POP POP POP POP POP POP POP POP POP POP JUMP JUMPDEST PUSH0 DUP1 PUSH0 PUSH1 0x41 DUP5 MLOAD EQ PUSH2 0x2419 JUMPI PUSH1 0x40 MLOAD PUSH32 0x8C379A000000000000000000000000000000000000000000000000000000000 DUP2 MSTORE PUSH1 0x4 ADD PUSH2 0x2410 SWAP1 PUSH2 0x365A JUMP JUMPDEST PUSH1 0x40 MLOAD DUP1 SWAP2 SUB SWAP1 REVERT JUMPDEST PUSH1 0x20 DUP5 ADD MLOAD SWAP3 POP PUSH1 0x40 DUP5 ADD MLOAD SWAP2 POP PUSH1 0x60 DUP5 ADD MLOAD PUSH0 BYTE SWAP1 POP SWAP2 SWAP4 SWAP1 SWAP3 POP JUMP JUMPDEST PUSH0 DUP2 PUSH1 0x40 MLOAD PUSH1 0x20 ADD PUSH2 0x2449 SWAP2 SWAP1 PUSH2 0x36E2 JUMP JUMPDEST PUSH1 0x40 MLOAD PUSH1 0x20 DUP2 DUP4 SUB SUB DUP2 MSTORE SWAP1 PUSH1 0x40 MSTORE DUP1 MLOAD SWAP1 PUSH1 0x20 ADD KECCAK256 SWAP1 POP SWAP2 SWAP1 POP JUMP JUMPDEST PUSH0 DUP1 PUSH0 DUP1 PUSH2 0x2473 DUP6 PUSH2 0x23D2 JUMP JUMPDEST SWAP3 POP SWAP3 POP SWAP3 POP PUSH1 0x1 DUP7 DUP3 DUP6 DUP6 PUSH1 0x40 MLOAD PUSH0 DUP2 MSTORE PUSH1 0x20 ADD PUSH1 0x40 MSTORE PUSH1 0x40 MLOAD PUSH2 0x249B SWAP5 SWAP4 SWAP3 SWAP2 SWAP1 PUSH2 0x345A JUMP JUMPDEST PUSH1 0x20 PUSH1 0x40 MLOAD PUSH1 0x20 DUP2 SUB SWAP1 DUP1 DUP5 SUB SWAP1 DUP6 GAS STATICCALL ISZERO DUP1 ISZERO PUSH2 0x24BB JUMPI RETURNDATASIZE PUSH0 DUP1 RETURNDATACOPY RETURNDATASIZE PUSH0 REVERT JUMPDEST POP POP POP PUSH1 0x20 PUSH1 0x40 MLOAD SUB MLOAD SWAP4 POP POP POP POP SWAP3 SWAP2 POP POP JUMP JUMPDEST PUSH0 DUP1 DUP4 SUB PUSH2 0x24E0 JUMPI PUSH0 SWAP1 POP PUSH2 0x2541 JUMP JUMPDEST PUSH0 DUP3 DUP5 PUSH2 0x24ED SWAP2 SWAP1 PUSH2 0x31C7 JUMP JUMPDEST SWAP1 POP DUP3 DUP5 DUP3 PUSH2 0x24FC SWAP2 SWAP1 PUSH2 0x3734 JUMP JUMPDEST EQ PUSH2 0x253C JUMPI PUSH1 0x40 MLOAD PUSH32 0x8C379A000000000000000000000000000000000000000000000000000000000 DUP2 MSTORE PUSH1 0x4 ADD PUSH2 0x2533 SWAP1 PUSH2 0x37D4 JUMP JUMPDEST PUSH1 0x40 MLOAD DUP1 SWAP2 SUB SWAP1 REVERT JUMPDEST DUP1 SWAP2 POP POP JUMPDEST SWAP3 SWAP2 POP POP JUMP JUMPDEST PUSH0 PUSH2 0x2588 DUP4 DUP4 PUSH1 0x40 MLOAD DUP1 PUSH1 0x40 ADD PUSH1 0x40 MSTORE DUP1 PUSH1 0x1A DUP2 MSTORE PUSH1 0x20 ADD PUSH32 0x536166654D6174683A206469766973696F6E206279207A65726F000000000000 DUP2 MSTORE POP PUSH2 0x2590 JUMP JUMPDEST SWAP1 POP SWAP3 SWAP2 POP POP JUMP JUMPDEST PUSH0 DUP1 DUP4 GT DUP3 SWAP1 PUSH2 0x25D6 JUMPI PUSH1 0x40 MLOAD PUSH32 0x8C379A000000000000000000000000000000000000000000000000000000000 DUP2 MSTORE PUSH1 0x4 ADD PUSH2 0x25CD SWAP2 SWAP1 PUSH2 0x382A JUMP JUMPDEST PUSH1 0x40 MLOAD DUP1 SWAP2 SUB SWAP1 REVERT JUMPDEST POP PUSH0 DUP4 DUP6 PUSH2 0x25E4 SWAP2 SWAP1 PUSH2 0x3734 JUMP JUMPDEST SWAP1 POP DUP1 SWAP2 POP POP SWAP4 SWAP3 POP POP POP JUMP JUMPDEST PUSH0 PUSH1 0x40 MLOAD SWAP1 POP SWAP1 JUMP JUMPDEST PUSH0 DUP1 REVERT JUMPDEST PUSH0 DUP1 REVERT JUMPDEST PUSH0 PUSH20 0xFFFFFFFFFFFFFFFFFFFFFFFFFFFFFFFFFFFFFFFF DUP3 AND SWAP1 POP SWAP2 SWAP1 POP JUMP JUMPDEST PUSH0 PUSH2 0x262B DUP3 PUSH2 0x2602 JUMP JUMPDEST SWAP1 POP SWAP2 SWAP1 POP JUMP JUMPDEST PUSH2 0x263B DUP2 PUSH2 0x2621 JUMP JUMPDEST DUP2 EQ PUSH2 0x2645 JUMPI PUSH0 DUP1 REVERT JUMPDEST POP JUMP JUMPDEST PUSH0 DUP2 CALLDATALOAD SWAP1 POP PUSH2 0x2656 DUP2 PUSH2 0x2632 JUMP JUMPDEST SWAP3 SWAP2 POP POP JUMP JUMPDEST PUSH0 PUSH1 0x20 DUP3 DUP5 SUB SLT ISZERO PUSH2 0x2671 JUMPI PUSH2 0x2670 PUSH2 0x25FA JUMP JUMPDEST JUMPDEST PUSH0 PUSH2 0x267E DUP5 DUP3 DUP6 ADD PUSH2 0x2648 JUMP JUMPDEST SWAP2 POP POP SWAP3 SWAP2 POP POP JUMP JUMPDEST PUSH0 DUP1 REVERT JUMPDEST PUSH0 DUP1 REVERT JUMPDEST PUSH0 PUSH1 0x1F NOT PUSH1 0x1F DUP4 ADD AND SWAP1 POP SWAP2 SWAP1 POP JUMP JUMPDEST PUSH32 0x4E487B7100000000000000000000000000000000000000000000000000000000 PUSH0 MSTORE PUSH1 0x41 PUSH1 0x4 MSTORE PUSH1 0x24 PUSH0 REVERT JUMPDEST PUSH2 0x26D5 DUP3 PUSH2 0x268F JUMP JUMPDEST DUP2 ADD DUP2 DUP2 LT PUSH8 0xFFFFFFFFFFFFFFFF DUP3 GT OR ISZERO PUSH2 0x26F4 JUMPI PUSH2 0x26F3 PUSH2 0x269F JUMP JUMPDEST JUMPDEST DUP1 PUSH1 0x40 MSTORE POP POP POP JUMP JUMPDEST PUSH0 PUSH2 0x2706 PUSH2 0x25F1 JUMP JUMPDEST SWAP1 POP PUSH2 0x2712 DUP3 DUP3 PUSH2 0x26CC JUMP JUMPDEST SWAP2 SWAP1 POP JUMP JUMPDEST PUSH0 PUSH8 0xFFFFFFFFFFFFFFFF DUP3 GT ISZERO PUSH2 0x2731 JUMPI PUSH2 0x2730 PUSH2 0x269F JUMP JUMPDEST JUMPDEST PUSH2 0x273A DUP3 PUSH2 0x268F JUMP JUMPDEST SWAP1 POP PUSH1 0x20 DUP2 ADD SWAP1 POP SWAP2 SWAP1 POP JUMP JUMPDEST DUP3 DUP2 DUP4 CALLDATACOPY PUSH0 DUP4 DUP4 ADD MSTORE POP POP POP JUMP JUMPDEST PUSH0 PUSH2 0x2767 PUSH2 0x2762 DUP5 PUSH2 0x2717 JUMP JUMPDEST PUSH2 0x26FD JUMP JUMPDEST SWAP1 POP DUP3 DUP2 MSTORE PUSH1 0x20 DUP2 ADD DUP5 DUP5 DUP5 ADD GT ISZERO PUSH2 0x2783 JUMPI PUSH2 0x2782 PUSH2 0x268B JUMP JUMPDEST JUMPDEST PUSH2 0x278E DUP5 DUP3 DUP6 PUSH2 0x2747 JUMP JUMPDEST POP SWAP4 SWAP3 POP POP POP JUMP JUMPDEST PUSH0 DUP3 PUSH1 0x1F DUP4 ADD SLT PUSH2 0x27AA JUMPI PUSH2 0x27A9 PUSH2 0x2687 JUMP JUMPDEST JUMPDEST DUP2 CALLDATALOAD PUSH2 0x27BA DUP5 DUP3 PUSH1 0x20 DUP7 ADD PUSH2 0x2755 JUMP JUMPDEST SWAP2 POP POP SWAP3 SWAP2 POP POP JUMP JUMPDEST PUSH0 PUSH1 0x20 DUP3 DUP5 SUB SLT ISZERO PUSH2 0x27D8 JUMPI PUSH2 0x27D7 PUSH2 0x25FA JUMP JUMPDEST JUMPDEST PUSH0 DUP3 ADD CALLDATALOAD PUSH8 0xFFFFFFFFFFFFFFFF DUP2 GT ISZERO PUSH2 0x27F5 JUMPI PUSH2 0x27F4 PUSH2 0x25FE JUMP JUMPDEST JUMPDEST PUSH2 0x2801 DUP5 DUP3 DUP6 ADD PUSH2 0x2796 JUMP JUMPDEST SWAP2 POP POP SWAP3 SWAP2 POP POP JUMP JUMPDEST PUSH0 DUP2 ISZERO ISZERO SWAP1 POP SWAP2 SWAP1 POP JUMP JUMPDEST PUSH2 0x281E DUP2 PUSH2 0x280A JUMP JUMPDEST DUP3 MSTORE POP POP JUMP JUMPDEST PUSH0 PUSH1 0x20 DUP3 ADD SWAP1 POP PUSH2 0x2837 PUSH0 DUP4 ADD DUP5 PUSH2 0x2815 JUMP JUMPDEST SWAP3 SWAP2 POP POP JUMP JUMPDEST PUSH0 PUSH2 0x2847 DUP3 PUSH2 0x2621 JUMP JUMPDEST SWAP1 POP SWAP2 SWAP1 POP JUMP JUMPDEST PUSH2 0x2857 DUP2 PUSH2 0x283D JUMP JUMPDEST DUP2 EQ PUSH2 0x2861 JUMPI PUSH0 DUP1 REVERT JUMPDEST POP JUMP JUMPDEST PUSH0 DUP2 CALLDATALOAD SWAP1 POP PUSH2 0x2872 DUP2 PUSH2 0x284E JUMP JUMPDEST SWAP3 SWAP2 POP POP JUMP JUMPDEST PUSH0 DUP2 SWAP1 POP SWAP2 SWAP1 POP JUMP JUMPDEST PUSH2 0x288A DUP2 PUSH2 0x2878 JUMP JUMPDEST DUP2 EQ PUSH2 0x2894 JUMPI PUSH0 DUP1 REVERT JUMPDEST POP JUMP JUMPDEST PUSH0 DUP2 CALLDATALOAD SWAP1 POP PUSH2 0x28A5 DUP2 PUSH2 0x2881 JUMP JUMPDEST SWAP3 SWAP2 POP POP JUMP JUMPDEST PUSH2 0x28B4 DUP2 PUSH2 0x280A JUMP JUMPDEST DUP2 EQ PUSH2 0x28BE JUMPI PUSH0 DUP1 REVERT JUMPDEST POP JUMP JUMPDEST PUSH0 DUP2 CALLDATALOAD SWAP1 POP PUSH2 0x28CF DUP2 PUSH2 0x28AB JUMP JUMPDEST SWAP3 SWAP2 POP POP JUMP JUMPDEST PUSH0 PUSH8 0xFFFFFFFFFFFFFFFF DUP3 GT ISZERO PUSH2 0x28EF JUMPI PUSH2 0x28EE PUSH2 0x269F JUMP JUMPDEST JUMPDEST PUSH2 0x28F8 DUP3 PUSH2 0x268F JUMP JUMPDEST SWAP1 POP PUSH1 0x20 DUP2 ADD SWAP1 POP SWAP2 SWAP1 POP JUMP JUMPDEST PUSH0 PUSH2 0x2917 PUSH2 0x2912 DUP5 PUSH2 0x28D5 JUMP JUMPDEST PUSH2 0x26FD JUMP JUMPDEST SWAP1 POP DUP3 DUP2 MSTORE PUSH1 0x20 DUP2 ADD DUP5 DUP5 DUP5 ADD GT ISZERO PUSH2 0x2933 JUMPI PUSH2 0x2932 PUSH2 0x268B JUMP JUMPDEST JUMPDEST PUSH2 0x293E DUP5 DUP3 DUP6 PUSH2 0x2747 JUMP JUMPDEST POP SWAP4 SWAP3 POP POP POP JUMP JUMPDEST PUSH0 DUP3 PUSH1 0x1F DUP4 ADD SLT PUSH2 0x295A JUMPI PUSH2 0x2959 PUSH2 0x2687 JUMP JUMPDEST JUMPDEST DUP2 CALLDATALOAD PUSH2 0x296A DUP5 DUP3 PUSH1 0x20 DUP7 ADD PUSH2 0x2905 JUMP JUMPDEST SWAP2 POP POP SWAP3 SWAP2 POP POP JUMP JUMPDEST PUSH0 DUP1 PUSH0 DUP1 PUSH0 DUP1 PUSH0 DUP1 PUSH0 DUP1 PUSH0 PUSH2 0x160 DUP13 DUP15 SUB SLT ISZERO PUSH2 0x2993 JUMPI PUSH2 0x2992 PUSH2 0x25FA JUMP JUMPDEST JUMPDEST PUSH0 PUSH2 0x29A0 DUP15 DUP3 DUP16 ADD PUSH2 0x2864 JUMP JUMPDEST SWAP12 POP POP PUSH1 0x20 PUSH2 0x29B1 DUP15 DUP3 DUP16 ADD PUSH2 0x2648 JUMP JUMPDEST SWAP11 POP POP PUSH1 0x40 PUSH2 0x29C2 DUP15 DUP3 DUP16 ADD PUSH2 0x2897 JUMP JUMPDEST SWAP10 POP POP PUSH1 0x60 PUSH2 0x29D3 DUP15 DUP3 DUP16 ADD PUSH2 0x2897 JUMP JUMPDEST SWAP9 POP POP PUSH1 0x80 PUSH2 0x29E4 DUP15 DUP3 DUP16 ADD PUSH2 0x2897 JUMP JUMPDEST SWAP8 POP POP PUSH1 0xA0 DUP13 ADD CALLDATALOAD PUSH8 0xFFFFFFFFFFFFFFFF DUP2 GT ISZERO PUSH2 0x2A05 JUMPI PUSH2 0x2A04 PUSH2 0x25FE JUMP JUMPDEST JUMPDEST PUSH2 0x2A11 DUP15 DUP3 DUP16 ADD PUSH2 0x2796 JUMP JUMPDEST SWAP7 POP POP PUSH1 0xC0 PUSH2 0x2A22 DUP15 DUP3 DUP16 ADD PUSH2 0x2648 JUMP JUMPDEST SWAP6 POP POP PUSH1 0xE0 PUSH2 0x2A33 DUP15 DUP3 DUP16 ADD PUSH2 0x28C1 JUMP JUMPDEST SWAP5 POP POP PUSH2 0x100 PUSH2 0x2A45 DUP15 DUP3 DUP16 ADD PUSH2 0x2897 JUMP JUMPDEST SWAP4 POP POP PUSH2 0x120 PUSH2 0x2A57 DUP15 DUP3 DUP16 ADD PUSH2 0x2648 JUMP JUMPDEST SWAP3 POP POP PUSH2 0x140 DUP13 ADD CALLDATALOAD PUSH8 0xFFFFFFFFFFFFFFFF DUP2 GT ISZERO PUSH2 0x2A79 JUMPI PUSH2 0x2A78 PUSH2 0x25FE JUMP JUMPDEST JUMPDEST PUSH2 0x2A85 DUP15 DUP3 DUP16 ADD PUSH2 0x2946 JUMP JUMPDEST SWAP2 POP POP SWAP3 SWAP6 SWAP9 SWAP12 POP SWAP3 SWAP6 SWAP9 SWAP12 SWAP1 SWAP4 SWAP7 SWAP10 POP JUMP JUMPDEST PUSH2 0x2AA1 DUP2 PUSH2 0x2878 JUMP JUMPDEST DUP3 MSTORE POP POP JUMP JUMPDEST PUSH0 PUSH1 0x20 DUP3 ADD SWAP1 POP PUSH2 0x2ABA PUSH0 DUP4 ADD DUP5 PUSH2 0x2A98 JUMP JUMPDEST SWAP3 SWAP2 POP POP JUMP JUMPDEST PUSH0 DUP1 PUSH0 DUP1 PUSH0 DUP1 PUSH0 DUP1 PUSH0 PUSH2 0x120 DUP11 DUP13 SUB SLT ISZERO PUSH2 0x2ADE JUMPI PUSH2 0x2ADD PUSH2 0x25FA JUMP JUMPDEST JUMPDEST PUSH0 PUSH2 0x2AEB DUP13 DUP3 DUP14 ADD PUSH2 0x2648 JUMP JUMPDEST SWAP10 POP POP PUSH1 0x20 PUSH2 0x2AFC DUP13 DUP3 DUP14 ADD PUSH2 0x2648 JUMP JUMPDEST SWAP9 POP POP PUSH1 0x40 PUSH2 0x2B0D DUP13 DUP3 DUP14 ADD PUSH2 0x2897 JUMP JUMPDEST SWAP8 POP POP PUSH1 0x60 PUSH2 0x2B1E DUP13 DUP3 DUP14 ADD PUSH2 0x2897 JUMP JUMPDEST SWAP7 POP POP PUSH1 0x80 PUSH2 0x2B2F DUP13 DUP3 DUP14 ADD PUSH2 0x2897 JUMP JUMPDEST SWAP6 POP POP PUSH1 0xA0 DUP11 ADD CALLDATALOAD PUSH8 0xFFFFFFFFFFFFFFFF DUP2 GT ISZERO PUSH2 0x2B50 JUMPI PUSH2 0x2B4F PUSH2 0x25FE JUMP JUMPDEST JUMPDEST PUSH2 0x2B5C DUP13 DUP3 DUP14 ADD PUSH2 0x2796 JUMP JUMPDEST SWAP5 POP POP PUSH1 0xC0 PUSH2 0x2B6D DUP13 DUP3 DUP14 ADD PUSH2 0x2648 JUMP JUMPDEST SWAP4 POP POP PUSH1 0xE0 PUSH2 0x2B7E DUP13 DUP3 DUP14 ADD PUSH2 0x28C1 JUMP JUMPDEST SWAP3 POP POP PUSH2 0x100 PUSH2 0x2B90 DUP13 DUP3 DUP14 ADD PUSH2 0x2897 JUMP JUMPDEST SWAP2 POP POP SWAP3 SWAP6 SWAP9 POP SWAP3 SWAP6 SWAP9 POP SWAP3 SWAP6 SWAP9 JUMP JUMPDEST PUSH0 DUP2 SWAP1 POP SWAP2 SWAP1 POP JUMP JUMPDEST PUSH2 0x2BB2 DUP2 PUSH2 0x2BA0 JUMP JUMPDEST DUP3 MSTORE POP POP JUMP JUMPDEST PUSH0 PUSH1 0x20 DUP3 ADD SWAP1 POP PUSH2 0x2BCB PUSH0 DUP4 ADD DUP5 PUSH2 0x2BA9 JUMP JUMPDEST SWAP3 SWAP2 POP POP JUMP JUMPDEST PUSH0 DUP2 SWAP1 POP SWAP2 SWAP1 POP JUMP JUMPDEST PUSH0 PUSH2 0x2BF4 PUSH2 0x2BEF PUSH2 0x2BEA DUP5 PUSH2 0x2602 JUMP JUMPDEST PUSH2 0x2BD1 JUMP JUMPDEST PUSH2 0x2602 JUMP JUMPDEST SWAP1 POP SWAP2 SWAP1 POP JUMP JUMPDEST PUSH0 PUSH2 0x2C05 DUP3 PUSH2 0x2BDA JUMP JUMPDEST SWAP1 POP SWAP2 SWAP1 POP JUMP JUMPDEST PUSH0 PUSH2 0x2C16 DUP3 PUSH2 0x2BFB JUMP JUMPDEST SWAP1 POP SWAP2 SWAP1 POP JUMP JUMPDEST PUSH2 0x2C26 DUP2 PUSH2 0x2C0C JUMP JUMPDEST DUP3 MSTORE POP POP JUMP JUMPDEST PUSH0 PUSH1 0x20 DUP3 ADD SWAP1 POP PUSH2 0x2C3F PUSH0 DUP4 ADD DUP5 PUSH2 0x2C1D JUMP JUMPDEST SWAP3 SWAP2 POP POP JUMP JUMPDEST PUSH2 0x2C4E DUP2 PUSH2 0x2621 JUMP JUMPDEST DUP3 MSTORE POP POP JUMP JUMPDEST PUSH0 PUSH1 0x20 DUP3 ADD SWAP1 POP PUSH2 0x2C67 PUSH0 DUP4 ADD DUP5 PUSH2 0x2C45 JUMP JUMPDEST SWAP3 SWAP2 POP POP JUMP JUMPDEST PUSH2 0x2C76 DUP2 PUSH2 0x2BA0 JUMP JUMPDEST DUP2 EQ PUSH2 0x2C80 JUMPI PUSH0 DUP1 REVERT JUMPDEST POP JUMP JUMPDEST PUSH0 DUP2 CALLDATALOAD SWAP1 POP PUSH2 0x2C91 DUP2 PUSH2 0x2C6D JUMP JUMPDEST SWAP3 SWAP2 POP POP JUMP JUMPDEST PUSH0 DUP1 PUSH1 0x40 DUP4 DUP6 SUB SLT ISZERO PUSH2 0x2CAD JUMPI PUSH2 0x2CAC PUSH2 0x25FA JUMP JUMPDEST JUMPDEST PUSH0 PUSH2 0x2CBA DUP6 DUP3 DUP7 ADD PUSH2 0x2C83 JUMP JUMPDEST SWAP3 POP POP PUSH1 0x20 DUP4 ADD CALLDATALOAD PUSH8 0xFFFFFFFFFFFFFFFF DUP2 GT ISZERO PUSH2 0x2CDB JUMPI PUSH2 0x2CDA PUSH2 0x25FE JUMP JUMPDEST JUMPDEST PUSH2 0x2CE7 DUP6 DUP3 DUP7 ADD PUSH2 0x2946 JUMP JUMPDEST SWAP2 POP POP SWAP3 POP SWAP3 SWAP1 POP JUMP JUMPDEST PUSH0 DUP1 PUSH0 DUP1 PUSH0 DUP1 PUSH1 0xC0 DUP8 DUP10 SUB SLT ISZERO PUSH2 0x2D0B JUMPI PUSH2 0x2D0A PUSH2 0x25FA JUMP JUMPDEST JUMPDEST PUSH0 PUSH2 0x2D18 DUP10 DUP3 DUP11 ADD PUSH2 0x2897 JUMP JUMPDEST SWAP7 POP POP PUSH1 0x20 PUSH2 0x2D29 DUP10 DUP3 DUP11 ADD PUSH2 0x2897 JUMP JUMPDEST SWAP6 POP POP PUSH1 0x40 PUSH2 0x2D3A DUP10 DUP3 DUP11 ADD PUSH2 0x2897 JUMP JUMPDEST SWAP5 POP POP PUSH1 0x60 PUSH2 0x2D4B DUP10 DUP3 DUP11 ADD PUSH2 0x2897 JUMP JUMPDEST SWAP4 POP POP PUSH1 0x80 PUSH2 0x2D5C DUP10 DUP3 DUP11 ADD PUSH2 0x2897 JUMP JUMPDEST SWAP3 POP POP PUSH1 0xA0 PUSH2 0x2D6D DUP10 DUP3 DUP11 ADD PUSH2 0x2897 JUMP JUMPDEST SWAP2 POP POP SWAP3 SWAP6 POP SWAP3 SWAP6 POP SWAP3 SWAP6 JUMP JUMPDEST PUSH0 DUP3 DUP3 MSTORE PUSH1 0x20 DUP3 ADD SWAP1 POP SWAP3 SWAP2 POP POP JUMP JUMPDEST PUSH32 0x4F6E6C792063616C6C61626C65206279205472757374656420466F7277617264 PUSH0 DUP3 ADD MSTORE PUSH32 0x6572000000000000000000000000000000000000000000000000000000000000 PUSH1 0x20 DUP3 ADD MSTORE POP JUMP JUMPDEST PUSH0 PUSH2 0x2DE4 PUSH1 0x22 DUP4 PUSH2 0x2D7A JUMP JUMPDEST SWAP2 POP PUSH2 0x2DEF DUP3 PUSH2 0x2D8A JUMP JUMPDEST PUSH1 0x40 DUP3 ADD SWAP1 POP SWAP2 SWAP1 POP JUMP JUMPDEST PUSH0 PUSH1 0x20 DUP3 ADD SWAP1 POP DUP2 DUP2 SUB PUSH0 DUP4 ADD MSTORE PUSH2 0x2E11 DUP2 PUSH2 0x2DD8 JUMP JUMPDEST SWAP1 POP SWAP2 SWAP1 POP JUMP JUMPDEST PUSH32 0x43563A20627579657220746F20746865207A65726F2061646472657373000000 PUSH0 DUP3 ADD MSTORE POP JUMP JUMPDEST PUSH0 PUSH2 0x2E4C PUSH1 0x1D DUP4 PUSH2 0x2D7A JUMP JUMPDEST SWAP2 POP PUSH2 0x2E57 DUP3 PUSH2 0x2E18 JUMP JUMPDEST PUSH1 0x20 DUP3 ADD SWAP1 POP SWAP2 SWAP1 POP JUMP JUMPDEST PUSH0 PUSH1 0x20 DUP3 ADD SWAP1 POP DUP2 DUP2 SUB PUSH0 DUP4 ADD MSTORE PUSH2 0x2E79 DUP2 PUSH2 0x2E40 JUMP JUMPDEST SWAP1 POP SWAP2 SWAP1 POP JUMP JUMPDEST PUSH32 0x43563A20696E76616C6964205F7369676E617475726500000000000000000000 PUSH0 DUP3 ADD MSTORE POP JUMP JUMPDEST PUSH0 PUSH2 0x2EB4 PUSH1 0x16 DUP4 PUSH2 0x2D7A JUMP JUMPDEST SWAP2 POP PUSH2 0x2EBF DUP3 PUSH2 0x2E80 JUMP JUMPDEST PUSH1 0x20 DUP3 ADD SWAP1 POP SWAP2 SWAP1 POP JUMP JUMPDEST PUSH0 PUSH1 0x20 DUP3 ADD SWAP1 POP DUP2 DUP2 SUB PUSH0 DUP4 ADD MSTORE PUSH2 0x2EE1 DUP2 PUSH2 0x2EA8 JUMP JUMPDEST SWAP1 POP SWAP2 SWAP1 POP JUMP JUMPDEST PUSH32 0x43563A20696E76616C696420616D6F756E740000000000000000000000000000 PUSH0 DUP3 ADD MSTORE POP JUMP JUMPDEST PUSH0 PUSH2 0x2F1C PUSH1 0x12 DUP4 PUSH2 0x2D7A JUMP JUMPDEST SWAP2 POP PUSH2 0x2F27 DUP3 PUSH2 0x2EE8 JUMP JUMPDEST PUSH1 0x20 DUP3 ADD SWAP1 POP SWAP2 SWAP1 POP JUMP JUMPDEST PUSH0 PUSH1 0x20 DUP3 ADD SWAP1 POP DUP2 DUP2 SUB PUSH0 DUP4 ADD MSTORE PUSH2 0x2F49 DUP2 PUSH2 0x2F10 JUMP JUMPDEST SWAP1 POP SWAP2 SWAP1 POP JUMP JUMPDEST PUSH32 0x757364742061646472657373206E6F7420636F6E666967000000000000000000 PUSH0 DUP3 ADD MSTORE POP JUMP JUMPDEST PUSH0 PUSH2 0x2F84 PUSH1 0x17 DUP4 PUSH2 0x2D7A JUMP JUMPDEST SWAP2 POP PUSH2 0x2F8F DUP3 PUSH2 0x2F50 JUMP JUMPDEST PUSH1 0x20 DUP3 ADD SWAP1 POP SWAP2 SWAP1 POP JUMP JUMPDEST PUSH0 PUSH1 0x20 DUP3 ADD SWAP1 POP DUP2 DUP2 SUB PUSH0 DUP4 ADD MSTORE PUSH2 0x2FB1 DUP2 PUSH2 0x2F78 JUMP JUMPDEST SWAP1 POP SWAP2 SWAP1 POP JUMP JUMPDEST PUSH32 0x757364632061646472657373206E6F7420636F6E666967000000000000000000 PUSH0 DUP3 ADD MSTORE POP JUMP JUMPDEST PUSH0 PUSH2 0x2FEC PUSH1 0x17 DUP4 PUSH2 0x2D7A JUMP JUMPDEST SWAP2 POP PUSH2 0x2FF7 DUP3 PUSH2 0x2FB8 JUMP JUMPDEST PUSH1 0x20 DUP3 ADD SWAP1 POP SWAP2 SWAP1 POP JUMP JUMPDEST PUSH0 PUSH1 0x20 DUP3 ADD SWAP1 POP DUP2 DUP2 SUB PUSH0 DUP4 ADD MSTORE PUSH2 0x3019 DUP2 PUSH2 0x2FE0 JUMP JUMPDEST SWAP1 POP SWAP2 SWAP1 POP JUMP JUMPDEST PUSH32 0x6574682061646472657373206E6F7420636F6E66696700000000000000000000 PUSH0 DUP3 ADD MSTORE POP JUMP JUMPDEST PUSH0 PUSH2 0x3054 PUSH1 0x16 DUP4 PUSH2 0x2D7A JUMP JUMPDEST SWAP2 POP PUSH2 0x305F DUP3 PUSH2 0x3020 JUMP JUMPDEST PUSH1 0x20 DUP3 ADD SWAP1 POP SWAP2 SWAP1 POP JUMP JUMPDEST PUSH0 PUSH1 0x20 DUP3 ADD SWAP1 POP DUP2 DUP2 SUB PUSH0 DUP4 ADD MSTORE PUSH2 0x3081 DUP2 PUSH2 0x3048 JUMP JUMPDEST SWAP1 POP SWAP2 SWAP1 POP JUMP JUMPDEST PUSH32 0x756D692061646472657373206E6F7420636F6E66696700000000000000000000 PUSH0 DUP3 ADD MSTORE POP JUMP JUMPDEST PUSH0 PUSH2 0x30BC PUSH1 0x16 DUP4 PUSH2 0x2D7A JUMP JUMPDEST SWAP2 POP PUSH2 0x30C7 DUP3 PUSH2 0x3088 JUMP JUMPDEST PUSH1 0x20 DUP3 ADD SWAP1 POP SWAP2 SWAP1 POP JUMP JUMPDEST PUSH0 PUSH1 0x20 DUP3 ADD SWAP1 POP DUP2 DUP2 SUB PUSH0 DUP4 ADD MSTORE PUSH2 0x30E9 DUP2 PUSH2 0x30B0 JUMP JUMPDEST SWAP1 POP SWAP2 SWAP1 POP JUMP JUMPDEST PUSH0 DUP2 MLOAD SWAP1 POP SWAP2 SWAP1 POP JUMP JUMPDEST PUSH0 DUP3 DUP3 MSTORE PUSH1 0x20 DUP3 ADD SWAP1 POP SWAP3 SWAP2 POP POP JUMP JUMPDEST DUP3 DUP2 DUP4 MCOPY PUSH0 DUP4 DUP4 ADD MSTORE POP POP POP JUMP JUMPDEST PUSH0 PUSH2 0x3122 DUP3 PUSH2 0x30F0 JUMP JUMPDEST PUSH2 0x312C DUP2 DUP6 PUSH2 0x30FA JUMP JUMPDEST SWAP4 POP PUSH2 0x313C DUP2 DUP6 PUSH1 0x20 DUP7 ADD PUSH2 0x310A JUMP JUMPDEST PUSH2 0x3145 DUP2 PUSH2 0x268F JUMP JUMPDEST DUP5 ADD SWAP2 POP POP SWAP3 SWAP2 POP POP JUMP JUMPDEST PUSH0 PUSH1 0x80 DUP3 ADD SWAP1 POP PUSH2 0x3163 PUSH0 DUP4 ADD DUP8 PUSH2 0x2C45 JUMP JUMPDEST PUSH2 0x3170 PUSH1 0x20 DUP4 ADD DUP7 PUSH2 0x2C45 JUMP JUMPDEST PUSH2 0x317D PUSH1 0x40 DUP4 ADD DUP6 PUSH2 0x2A98 JUMP JUMPDEST DUP2 DUP2 SUB PUSH1 0x60 DUP4 ADD MSTORE PUSH2 0x318F DUP2 DUP5 PUSH2 0x3118 JUMP JUMPDEST SWAP1 POP SWAP6 SWAP5 POP POP POP POP POP JUMP JUMPDEST PUSH32 0x4E487B7100000000000000000000000000000000000000000000000000000000 PUSH0 MSTORE PUSH1 0x11 PUSH1 0x4 MSTORE PUSH1 0x24 PUSH0 REVERT JUMPDEST PUSH0 PUSH2 0x31D1 DUP3 PUSH2 0x2878 JUMP JUMPDEST SWAP2 POP PUSH2 0x31DC DUP4 PUSH2 0x2878 JUMP JUMPDEST SWAP3 POP DUP3 DUP3 MUL PUSH2 0x31EA DUP2 PUSH2 0x2878 JUMP JUMPDEST SWAP2 POP DUP3 DUP3 DIV DUP5 EQ DUP4 ISZERO OR PUSH2 0x3201 JUMPI PUSH2 0x3200 PUSH2 0x319A JUMP JUMPDEST JUMPDEST POP SWAP3 SWAP2 POP POP JUMP JUMPDEST PUSH0 PUSH1 0x80 DUP3 ADD SWAP1 POP PUSH2 0x321B PUSH0 DUP4 ADD DUP8 PUSH2 0x2A98 JUMP JUMPDEST PUSH2 0x3228 PUSH1 0x20 DUP4 ADD DUP7 PUSH2 0x2A98 JUMP JUMPDEST PUSH2 0x3235 PUSH1 0x40 DUP4 ADD DUP6 PUSH2 0x2C45 JUMP JUMPDEST PUSH2 0x3242 PUSH1 0x60 DUP4 ADD DUP5 PUSH2 0x2C45 JUMP JUMPDEST SWAP6 SWAP5 POP POP POP POP POP JUMP JUMPDEST PUSH32 0x746F6B656E206E6F7420737570706F7274000000000000000000000000000000 PUSH0 DUP3 ADD MSTORE POP JUMP JUMPDEST PUSH0 PUSH2 0x327F PUSH1 0x11 DUP4 PUSH2 0x2D7A JUMP JUMPDEST SWAP2 POP PUSH2 0x328A DUP3 PUSH2 0x324B JUMP JUMPDEST PUSH1 0x20 DUP3 ADD SWAP1 POP SWAP2 SWAP1 POP JUMP JUMPDEST PUSH0 PUSH1 0x20 DUP3 ADD SWAP1 POP DUP2 DUP2 SUB PUSH0 DUP4 ADD MSTORE PUSH2 0x32AC DUP2 PUSH2 0x3273 JUMP JUMPDEST SWAP1 POP SWAP2 SWAP1 POP JUMP JUMPDEST PUSH0 DUP2 PUSH1 0x60 SHL SWAP1 POP SWAP2 SWAP1 POP JUMP JUMPDEST PUSH0 PUSH2 0x32C9 DUP3 PUSH2 0x32B3 JUMP JUMPDEST SWAP1 POP SWAP2 SWAP1 POP JUMP JUMPDEST PUSH0 PUSH2 0x32DA DUP3 PUSH2 0x32BF JUMP JUMPDEST SWAP1 POP SWAP2 SWAP1 POP JUMP JUMPDEST PUSH2 0x32F2 PUSH2 0x32ED DUP3 PUSH2 0x2621 JUMP JUMPDEST PUSH2 0x32D0 JUMP JUMPDEST DUP3 MSTORE POP POP JUMP JUMPDEST PUSH0 DUP2 SWAP1 POP SWAP2 SWAP1 POP JUMP JUMPDEST PUSH2 0x3312 PUSH2 0x330D DUP3 PUSH2 0x2878 JUMP JUMPDEST PUSH2 0x32F8 JUMP JUMPDEST DUP3 MSTORE POP POP JUMP JUMPDEST PUSH0 DUP2 MLOAD SWAP1 POP SWAP2 SWAP1 POP JUMP JUMPDEST PUSH0 DUP2 SWAP1 POP SWAP3 SWAP2 POP POP JUMP JUMPDEST PUSH0 PUSH2 0x3336 DUP3 PUSH2 0x3318 JUMP JUMPDEST PUSH2 0x3340 DUP2 DUP6 PUSH2 0x3322 JUMP JUMPDEST SWAP4 POP PUSH2 0x3350 DUP2 DUP6 PUSH1 0x20 DUP7 ADD PUSH2 0x310A JUMP JUMPDEST DUP1 DUP5 ADD SWAP2 POP POP SWAP3 SWAP2 POP POP JUMP JUMPDEST PUSH0 DUP2 PUSH1 0xF8 SHL SWAP1 POP SWAP2 SWAP1 POP JUMP JUMPDEST PUSH0 PUSH2 0x3372 DUP3 PUSH2 0x335C JUMP JUMPDEST SWAP1 POP SWAP2 SWAP1 POP JUMP JUMPDEST PUSH0 PUSH2 0x3383 DUP3 PUSH2 0x3368 JUMP JUMPDEST SWAP1 POP SWAP2 SWAP1 POP JUMP JUMPDEST PUSH2 0x339B PUSH2 0x3396 DUP3 PUSH2 0x280A JUMP JUMPDEST PUSH2 0x3379 JUMP JUMPDEST DUP3 MSTORE POP POP JUMP JUMPDEST PUSH0 PUSH2 0x33AC DUP3 DUP13 PUSH2 0x32E1 JUMP JUMPDEST PUSH1 0x14 DUP3 ADD SWAP2 POP PUSH2 0x33BC DUP3 DUP12 PUSH2 0x32E1 JUMP JUMPDEST PUSH1 0x14 DUP3 ADD SWAP2 POP PUSH2 0x33CC DUP3 DUP11 PUSH2 0x3301 JUMP JUMPDEST PUSH1 0x20 DUP3 ADD SWAP2 POP PUSH2 0x33DC DUP3 DUP10 PUSH2 0x3301 JUMP JUMPDEST PUSH1 0x20 DUP3 ADD SWAP2 POP PUSH2 0x33EC DUP3 DUP9 PUSH2 0x3301 JUMP JUMPDEST PUSH1 0x20 DUP3 ADD SWAP2 POP PUSH2 0x33FC DUP3 DUP8 PUSH2 0x332C JUMP JUMPDEST SWAP2 POP PUSH2 0x3408 DUP3 DUP7 PUSH2 0x32E1 JUMP JUMPDEST PUSH1 0x14 DUP3 ADD SWAP2 POP PUSH2 0x3418 DUP3 DUP6 PUSH2 0x338A JUMP JUMPDEST PUSH1 0x1 DUP3 ADD SWAP2 POP PUSH2 0x3428 DUP3 DUP5 PUSH2 0x3301 JUMP JUMPDEST PUSH1 0x20 DUP3 ADD SWAP2 POP DUP2 SWAP1 POP SWAP11 SWAP10 POP POP POP POP POP POP POP POP POP POP JUMP JUMPDEST PUSH0 PUSH1 0xFF DUP3 AND SWAP1 POP SWAP2 SWAP1 POP JUMP JUMPDEST PUSH2 0x3454 DUP2 PUSH2 0x343F JUMP JUMPDEST DUP3 MSTORE POP POP JUMP JUMPDEST PUSH0 PUSH1 0x80 DUP3 ADD SWAP1 POP PUSH2 0x346D PUSH0 DUP4 ADD DUP8 PUSH2 0x2BA9 JUMP JUMPDEST PUSH2 0x347A PUSH1 0x20 DUP4 ADD DUP7 PUSH2 0x344B JUMP JUMPDEST PUSH2 0x3487 PUSH1 0x40 DUP4 ADD DUP6 PUSH2 0x2BA9 JUMP JUMPDEST PUSH2 0x3494 PUSH1 0x60 DUP4 ADD DUP5 PUSH2 0x2BA9 JUMP JUMPDEST SWAP6 SWAP5 POP POP POP POP POP JUMP JUMPDEST PUSH0 PUSH1 0x40 DUP3 ADD SWAP1 POP PUSH2 0x34B0 PUSH0 DUP4 ADD DUP6 PUSH2 0x2C45 JUMP JUMPDEST PUSH2 0x34BD PUSH1 0x20 DUP4 ADD DUP5 PUSH2 0x2C45 JUMP JUMPDEST SWAP4 SWAP3 POP POP POP JUMP JUMPDEST PUSH0 DUP2 MLOAD SWAP1 POP PUSH2 0x34D2 DUP2 PUSH2 0x28AB JUMP JUMPDEST SWAP3 SWAP2 POP POP JUMP JUMPDEST PUSH0 PUSH1 0x20 DUP3 DUP5 SUB SLT ISZERO PUSH2 0x34ED JUMPI PUSH2 0x34EC PUSH2 0x25FA JUMP JUMPDEST JUMPDEST PUSH0 PUSH2 0x34FA DUP5 DUP3 DUP6 ADD PUSH2 0x34C4 JUMP JUMPDEST SWAP2 POP POP SWAP3 SWAP2 POP POP JUMP JUMPDEST PUSH32 0x43563A2073656C6C6572206973206E6F7420617070726F766564000000000000 PUSH0 DUP3 ADD MSTORE POP JUMP JUMPDEST PUSH0 PUSH2 0x3537 PUSH1 0x1A DUP4 PUSH2 0x2D7A JUMP JUMPDEST SWAP2 POP PUSH2 0x3542 DUP3 PUSH2 0x3503 JUMP JUMPDEST PUSH1 0x20 DUP3 ADD SWAP1 POP SWAP2 SWAP1 POP JUMP JUMPDEST PUSH0 PUSH1 0x20 DUP3 ADD SWAP1 POP DUP2 DUP2 SUB PUSH0 DUP4 ADD MSTORE PUSH2 0x3564 DUP2 PUSH2 0x352B JUMP JUMPDEST SWAP1 POP SWAP2 SWAP1 POP JUMP JUMPDEST PUSH0 PUSH2 0x3576 DUP3 DUP5 PUSH2 0x332C JUMP JUMPDEST SWAP2 POP DUP2 SWAP1 POP SWAP3 SWAP2 POP POP JUMP JUMPDEST PUSH0 PUSH1 0x60 DUP3 ADD SWAP1 POP PUSH2 0x3594 PUSH0 DUP4 ADD DUP7 PUSH2 0x2C45 JUMP JUMPDEST PUSH2 0x35A1 PUSH1 0x20 DUP4 ADD DUP6 PUSH2 0x2C45 JUMP JUMPDEST PUSH2 0x35AE PUSH1 0x40 DUP4 ADD DUP5 PUSH2 0x2A98 JUMP JUMPDEST SWAP5 SWAP4 POP POP POP POP JUMP JUMPDEST PUSH0 PUSH2 0x35C0 DUP3 PUSH2 0x2878 JUMP JUMPDEST SWAP2 POP PUSH2 0x35CB DUP4 PUSH2 0x2878 JUMP JUMPDEST SWAP3 POP DUP3 DUP3 SUB SWAP1 POP DUP2 DUP2 GT ISZERO PUSH2 0x35E3 JUMPI PUSH2 0x35E2 PUSH2 0x319A JUMP JUMPDEST JUMPDEST SWAP3 SWAP2 POP POP JUMP JUMPDEST PUSH0 PUSH1 0x40 DUP3 ADD SWAP1 POP PUSH2 0x35FC PUSH0 DUP4 ADD DUP6 PUSH2 0x2C45 JUMP JUMPDEST PUSH2 0x3609 PUSH1 0x20 DUP4 ADD DUP5 PUSH2 0x2A98 JUMP JUMPDEST SWAP4 SWAP3 POP POP POP JUMP JUMPDEST PUSH32 0x696E76616C6964207369676E6174757265206C656E6774680000000000000000 PUSH0 DUP3 ADD MSTORE POP JUMP JUMPDEST PUSH0 PUSH2 0x3644 PUSH1 0x18 DUP4 PUSH2 0x2D7A JUMP JUMPDEST SWAP2 POP PUSH2 0x364F DUP3 PUSH2 0x3610 JUMP JUMPDEST PUSH1 0x20 DUP3 ADD SWAP1 POP SWAP2 SWAP1 POP JUMP JUMPDEST PUSH0 PUSH1 0x20 DUP3 ADD SWAP1 POP DUP2 DUP2 SUB PUSH0 DUP4 ADD MSTORE PUSH2 0x3671 DUP2 PUSH2 0x3638 JUMP JUMPDEST SWAP1 POP SWAP2 SWAP1 POP JUMP JUMPDEST PUSH32 0x19457468657265756D205369676E6564204D6573736167653A0A333200000000 PUSH0 DUP3 ADD MSTORE POP JUMP JUMPDEST PUSH0 PUSH2 0x36AC PUSH1 0x1C DUP4 PUSH2 0x3322 JUMP JUMPDEST SWAP2 POP PUSH2 0x36B7 DUP3 PUSH2 0x3678 JUMP JUMPDEST PUSH1 0x1C DUP3 ADD SWAP1 POP SWAP2 SWAP1 POP JUMP JUMPDEST PUSH0 DUP2 SWAP1 POP SWAP2 SWAP1 POP JUMP JUMPDEST PUSH2 0x36DC PUSH2 0x36D7 DUP3 PUSH2 0x2BA0 JUMP JUMPDEST PUSH2 0x36C2 JUMP JUMPDEST DUP3 MSTORE POP POP JUMP JUMPDEST PUSH0 PUSH2 0x36EC DUP3 PUSH2 0x36A0 JUMP JUMPDEST SWAP2 POP PUSH2 0x36F8 DUP3 DUP5 PUSH2 0x36CB JUMP JUMPDEST PUSH1 0x20 DUP3 ADD SWAP2 POP DUP2 SWAP1 POP SWAP3 SWAP2 POP POP JUMP JUMPDEST PUSH32 0x4E487B7100000000000000000000000000000000000000000000000000000000 PUSH0 MSTORE PUSH1 0x12 PUSH1 0x4 MSTORE PUSH1 0x24 PUSH0 REVERT JUMPDEST PUSH0 PUSH2 0x373E DUP3 PUSH2 0x2878 JUMP JUMPDEST SWAP2 POP PUSH2 0x3749 DUP4 PUSH2 0x2878 JUMP JUMPDEST SWAP3 POP DUP3 PUSH2 0x3759 JUMPI PUSH2 0x3758 PUSH2 0x3707 JUMP JUMPDEST JUMPDEST DUP3 DUP3 DIV SWAP1 POP SWAP3 SWAP2 POP POP JUMP JUMPDEST PUSH32 0x536166654D6174683A206D756C7469706C69636174696F6E206F766572666C6F PUSH0 DUP3 ADD MSTORE PUSH32 0x7700000000000000000000000000000000000000000000000000000000000000 PUSH1 0x20 DUP3 ADD MSTORE POP JUMP JUMPDEST PUSH0 PUSH2 0x37BE PUSH1 0x21 DUP4 PUSH2 0x2D7A JUMP JUMPDEST SWAP2 POP PUSH2 0x37C9 DUP3 PUSH2 0x3764 JUMP JUMPDEST PUSH1 0x40 DUP3 ADD SWAP1 POP SWAP2 SWAP1 POP JUMP JUMPDEST PUSH0 PUSH1 0x20 DUP3 ADD SWAP1 POP DUP2 DUP2 SUB PUSH0 DUP4 ADD MSTORE PUSH2 0x37EB DUP2 PUSH2 0x37B2 JUMP JUMPDEST SWAP1 POP SWAP2 SWAP1 POP JUMP JUMPDEST PUSH0 PUSH2 0x37FC DUP3 PUSH2 0x3318 JUMP JUMPDEST PUSH2 0x3806 DUP2 DUP6 PUSH2 0x2D7A JUMP JUMPDEST SWAP4 POP PUSH2 0x3816 DUP2 DUP6 PUSH1 0x20 DUP7 ADD PUSH2 0x310A JUMP JUMPDEST PUSH2 0x381F DUP2 PUSH2 0x268F JUMP JUMPDEST DUP5 ADD SWAP2 POP POP SWAP3 SWAP2 POP POP JUMP JUMPDEST PUSH0 PUSH1 0x20 DUP3 ADD SWAP1 POP DUP2 DUP2 SUB PUSH0 DUP4 ADD MSTORE PUSH2 0x3842 DUP2 DUP5 PUSH2 0x37F2 JUMP JUMPDEST SWAP1 POP SWAP3 SWAP2 POP POP JUMP INVALID LOG2 PUSH5 0x6970667358 0x22 SLT KECCAK256 TLOAD 0xA9 0xF8 0x27 0xAA 0xDE 0xBF 0x4E SWAP13 0xF SHR 0xD3 JUMPI CREATE2 0xAB 0x4C 0xEB 0xFC 0xC5 0xDA 0xAF 0xEC DUP3 PUSH2 0x26F5 SWAP11 0x2E 0x25 GASLIMIT MULMOD DUP15 PUSH5 0x736F6C6343 STOP ADDMOD NOT STOP CALLER "
				},
				"gasEstimates": {
					"creation": {
						"codeDepositCost": "2892800",
						"executionCost": "infinite",
						"totalCost": "infinite"
					},
					"external": {
						"admin()": "2618",
						"buy(address,address,uint256,uint256,uint256,string,address,bool,uint256,address,bytes)": "infinite",
						"eth()": "infinite",
						"feeAddress()": "2576",
						"getMessageHash(address,address,uint256,uint256,uint256,string,address,bool,uint256)": "infinite",
						"isTokenSupported(string)": "infinite",
						"isTrustedForwarder(address)": "infinite",
						"owner()": "2550",
						"presaleFeeToDeveloper()": "2536",
						"presaleFeeToRewardFund()": "2471",
						"presaleFeeToUmi()": "2469",
						"recoverSignerPublic(bytes32,bytes)": "infinite",
						"renounceOwnership()": "29978",
						"rewardPoolAddress()": "2554",
						"sell(address,address,uint256,uint256,uint256,string,address,bool,uint256,address,bytes)": "infinite",
						"setAdmin(address)": "26970",
						"setEth(address)": "26997",
						"setFee(uint256,uint256,uint256,uint256,uint256,uint256)": "infinite",
						"setFeeAddress(address)": "26952",
						"setRewardPoolAddress(address)": "26995",
						"setSignerAddress(address)": "26931",
						"setUmi(address)": "26974",
						"setUsdc(address)": "26951",
						"setUsdt(address)": "26996",
						"signerAddress()": "2553",
						"tradeFeeToDeveloper()": "2514",
						"tradeFeeToRewardFund()": "2515",
						"tradeFeeToUmi()": "2492",
						"transferOwnership(address)": "30680",
						"umi()": "infinite",
						"usdc()": "infinite",
						"usdt()": "infinite"
					},
					"internal": {
						"compareStrings(string memory,string memory)": "infinite",
						"getEthSignedMessageHash(bytes32)": "infinite",
						"processTrade(contract IERC20,address,address,address,bool,uint256)": "infinite",
						"recoverSigner(bytes32,bytes memory)": "infinite",
						"splitSignature(bytes memory)": "infinite",
						"verify(address,address,uint256,uint256,uint256,string memory,address,bool,uint256,bytes memory)": "infinite"
					}
				},
				"methodIdentifiers": {
					"admin()": "f851a440",
					"buy(address,address,uint256,uint256,uint256,string,address,bool,uint256,address,bytes)": "f2699d59",
					"eth()": "8c7c9e0c",
					"feeAddress()": "41275358",
					"getMessageHash(address,address,uint256,uint256,uint256,string,address,bool,uint256)": "228b03fa",
					"isTokenSupported(string)": "0d3652ec",
					"isTrustedForwarder(address)": "572b6c05",
					"owner()": "8da5cb5b",
					"presaleFeeToDeveloper()": "d1faf157",
					"presaleFeeToRewardFund()": "14754e66",
					"presaleFeeToUmi()": "d339db94",
					"recoverSignerPublic(bytes32,bytes)": "9f2585a1",
					"renounceOwnership()": "715018a6",
					"rewardPoolAddress()": "845a51ec",
					"sell(address,address,uint256,uint256,uint256,string,address,bool,uint256,address,bytes)": "10b8097c",
					"setAdmin(address)": "704b6c02",
					"setEth(address)": "122c6fd7",
					"setFee(uint256,uint256,uint256,uint256,uint256,uint256)": "bd9a3b6d",
					"setFeeAddress(address)": "8705fcd4",
					"setRewardPoolAddress(address)": "b24cf5d7",
					"setSignerAddress(address)": "046dc166",
					"setUmi(address)": "8b225f06",
					"setUsdc(address)": "cb146879",
					"setUsdt(address)": "58979bfe",
					"signerAddress()": "5b7633d0",
					"tradeFeeToDeveloper()": "cfd79d5d",
					"tradeFeeToRewardFund()": "2515af37",
					"tradeFeeToUmi()": "60f688ea",
					"transferOwnership(address)": "f2fde38b",
					"umi()": "94dd453a",
					"usdc()": "3e413bee",
					"usdt()": "2f48ab7d"
				}
			},
			"storageLayout": {
				"storage": [
					{
						"astId": 1489,
						"contract": "UmiverseMarket.sol:UmiverseMarket",
						"label": "owner",
						"offset": 0,
						"slot": "0",
						"type": "t_address"
					},
					{
						"astId": 319,
						"contract": "UmiverseMarket.sol:UmiverseMarket",
						"label": "admin",
						"offset": 0,
						"slot": "1",
						"type": "t_address"
					},
					{
						"astId": 321,
						"contract": "UmiverseMarket.sol:UmiverseMarket",
						"label": "feeAddress",
						"offset": 0,
						"slot": "2",
						"type": "t_address"
					},
					{
						"astId": 323,
						"contract": "UmiverseMarket.sol:UmiverseMarket",
						"label": "rewardPoolAddress",
						"offset": 0,
						"slot": "3",
						"type": "t_address"
					},
					{
						"astId": 325,
						"contract": "UmiverseMarket.sol:UmiverseMarket",
						"label": "signerAddress",
						"offset": 0,
						"slot": "4",
						"type": "t_address"
					},
					{
						"astId": 331,
						"contract": "UmiverseMarket.sol:UmiverseMarket",
						"label": "usdt",
						"offset": 0,
						"slot": "5",
						"type": "t_contract(IERC20)147"
					},
					{
						"astId": 337,
						"contract": "UmiverseMarket.sol:UmiverseMarket",
						"label": "usdc",
						"offset": 0,
						"slot": "6",
						"type": "t_contract(IERC20)147"
					},
					{
						"astId": 346,
						"contract": "UmiverseMarket.sol:UmiverseMarket",
						"label": "umi",
						"offset": 0,
						"slot": "7",
						"type": "t_contract(IERC20)147"
					},
					{
						"astId": 355,
						"contract": "UmiverseMarket.sol:UmiverseMarket",
						"label": "eth",
						"offset": 0,
						"slot": "8",
						"type": "t_contract(IERC20)147"
					},
					{
						"astId": 358,
						"contract": "UmiverseMarket.sol:UmiverseMarket",
						"label": "presaleFeeToDeveloper",
						"offset": 0,
						"slot": "9",
						"type": "t_uint256"
					},
					{
						"astId": 361,
						"contract": "UmiverseMarket.sol:UmiverseMarket",
						"label": "presaleFeeToUmi",
						"offset": 0,
						"slot": "10",
						"type": "t_uint256"
					},
					{
						"astId": 364,
						"contract": "UmiverseMarket.sol:UmiverseMarket",
						"label": "presaleFeeToRewardFund",
						"offset": 0,
						"slot": "11",
						"type": "t_uint256"
					},
					{
						"astId": 367,
						"contract": "UmiverseMarket.sol:UmiverseMarket",
						"label": "tradeFeeToUmi",
						"offset": 0,
						"slot": "12",
						"type": "t_uint256"
					},
					{
						"astId": 370,
						"contract": "UmiverseMarket.sol:UmiverseMarket",
						"label": "tradeFeeToDeveloper",
						"offset": 0,
						"slot": "13",
						"type": "t_uint256"
					},
					{
						"astId": 373,
						"contract": "UmiverseMarket.sol:UmiverseMarket",
						"label": "tradeFeeToRewardFund",
						"offset": 0,
						"slot": "14",
						"type": "t_uint256"
					}
				],
				"types": {
					"t_address": {
						"encoding": "inplace",
						"label": "address",
						"numberOfBytes": "20"
					},
					"t_contract(IERC20)147": {
						"encoding": "inplace",
						"label": "contract IERC20",
						"numberOfBytes": "20"
					},
					"t_uint256": {
						"encoding": "inplace",
						"label": "uint256",
						"numberOfBytes": "32"
					}
				}
			},
			"userdoc": {
				"kind": "user",
				"methods": {},
				"version": 1
			}
		}
	}
}