{
	"data": {
		"bytecode": {
			"linkReferences": {},
			"object": "60806040525f6012555f60135f6101000a81548173ffffffffffffffffffffffffffffffffffffffff021916908373ffffffffffffffffffffffffffffffffffffffff16021790555034801562000054575f80fd5b5060405162004a9538038062004a9583398181016040528101906200007a9190620006d6565b8181335f73ffffffffffffffffffffffffffffffffffffffff168173ffffffffffffffffffffffffffffffffffffffff1603620000f0575f6040517f1e4fbdf7000000000000000000000000000000000000000000000000000000008152600401620000e79190620007cf565b60405180910390fd5b62000101816200038260201b60201c565b50816003908162000113919062000a21565b50806004908162000125919062000a21565b50620001366200044360201b60201c565b6001819055506200014c6200044360201b60201c565b6200015c6200044d60201b60201c565b10156200017c576200017b63fed8210f60e01b6200047460201b60201c565b5b505082600a90816200018f919062000a21565b50620001e06040518060400160405280600781526020017f54425f30303031000000000000000000000000000000000000000000000000008152505f805f600a60646127106200047c60201b60201c565b620002306040518060400160405280600881526020017f54425f30303031530000000000000000000000000000000000000000000000008152505f805f603260666103e86200047c60201b60201c565b620002816040518060400160405280600981526020017f44545f46484b5f30300000000000000000000000000000000000000000000000815250600160285f60195f6127106200047c60201b60201c565b620002d26040518060400160405280600881526020017f44545f53535f3030000000000000000000000000000000000000000000000000815250600160285f60195f6103e86200047c60201b60201c565b620003266040518060400160405280600781526020017f43585f303030310000000000000000000000000000000000000000000000000081525060025f606460325f6402540be4006200047c60201b60201c565b620003796040518060400160405280600881526020017f43585f303030314d00000000000000000000000000000000000000000000000081525060025f609660505f6305f5e1006200047c60201b60201c565b50505062000b8a565b5f805f9054906101000a900473ffffffffffffffffffffffffffffffffffffffff169050815f806101000a81548173ffffffffffffffffffffffffffffffffffffffff021916908373ffffffffffffffffffffffffffffffffffffffff1602179055508173ffffffffffffffffffffffffffffffffffffffff168173ffffffffffffffffffffffffffffffffffffffff167f8be0079c531659141344cd1fd0a4f28419497f9722a3daafe3b4186f6b6457e060405160405180910390a35050565b5f620186a0905090565b5f7fffffffffffffffffffffffffffffffffffffffffffffffffffffffffffffffff905090565b805f5260045ffd5b5f6040518060c001604052808860028111156200049e576200049d62000b05565b5b815260200186815260200187815260200184815260200185815260200183815250905080600d89604051620004d4919062000b72565b90815260200160405180910390205f820151815f015f6101000a81548160ff021916908360028111156200050d576200050c62000b05565b5b02179055506020820151816001015560408201518160020155606082015181600301556080820151816004015560a082015181600501559050505050505050505050565b5f604051905090565b5f80fd5b5f80fd5b5f80fd5b5f80fd5b5f601f19601f8301169050919050565b7f4e487b71000000000000000000000000000000000000000000000000000000005f52604160045260245ffd5b620005b2826200056a565b810181811067ffffffffffffffff82111715620005d457620005d36200057a565b5b80604052505050565b5f620005e862000551565b9050620005f68282620005a7565b919050565b5f67ffffffffffffffff8211156200061857620006176200057a565b5b62000623826200056a565b9050602081019050919050565b5f5b838110156200064f57808201518184015260208101905062000632565b5f8484015250505050565b5f620006706200066a84620005fb565b620005dd565b9050828152602081018484840111156200068f576200068e62000566565b5b6200069c84828562000630565b509392505050565b5f82601f830112620006bb57620006ba62000562565b5b8151620006cd8482602086016200065a565b91505092915050565b5f805f60608486031215620006f057620006ef6200055a565b5b5f84015167ffffffffffffffff81111562000710576200070f6200055e565b5b6200071e86828701620006a4565b935050602084015167ffffffffffffffff8111156200074257620007416200055e565b5b6200075086828701620006a4565b925050604084015167ffffffffffffffff8111156200077457620007736200055e565b5b6200078286828701620006a4565b9150509250925092565b5f73ffffffffffffffffffffffffffffffffffffffff82169050919050565b5f620007b7826200078c565b9050919050565b620007c981620007ab565b82525050565b5f602082019050620007e45f830184620007be565b92915050565b5f81519050919050565b7f4e487b71000000000000000000000000000000000000000000000000000000005f52602260045260245ffd5b5f60028204905060018216806200083957607f821691505b6020821081036200084f576200084e620007f4565b5b50919050565b5f819050815f5260205f209050919050565b5f6020601f8301049050919050565b5f82821b905092915050565b5f60088302620008b37fffffffffffffffffffffffffffffffffffffffffffffffffffffffffffffffff8262000876565b620008bf868362000876565b95508019841693508086168417925050509392505050565b5f819050919050565b5f819050919050565b5f6200090962000903620008fd84620008d7565b620008e0565b620008d7565b9050919050565b5f819050919050565b6200092483620008e9565b6200093c620009338262000910565b84845462000882565b825550505050565b5f90565b6200095262000944565b6200095f81848462000919565b505050565b5b8181101562000986576200097a5f8262000948565b60018101905062000965565b5050565b601f821115620009d5576200099f8162000855565b620009aa8462000867565b81016020851015620009ba578190505b620009d2620009c98562000867565b83018262000964565b50505b505050565b5f82821c905092915050565b5f620009f75f1984600802620009da565b1980831691505092915050565b5f62000a118383620009e6565b9150826002028217905092915050565b62000a2c82620007ea565b67ffffffffffffffff81111562000a485762000a476200057a565b5b62000a54825462000821565b62000a618282856200098a565b5f60209050601f83116001811462000a97575f841562000a82578287015190505b62000a8e858262000a04565b86555062000afd565b601f19841662000aa78662000855565b5f5b8281101562000ad05784890151825560018201915060208501945060208101905062000aa9565b8683101562000af0578489015162000aec601f891682620009e6565b8355505b6001600288020188555050505b505050505050565b7f4e487b71000000000000000000000000000000000000000000000000000000005f52602160045260245ffd5b5f81905092915050565b5f62000b4882620007ea565b62000b54818562000b32565b935062000b6681856020860162000630565b80840191505092915050565b5f62000b7f828462000b3c565b915081905092915050565b613efd8062000b985f395ff3fe60806040526004361061020e575f3560e01c80636efa761c11610117578063aefedebd1161009f578063ce3564b41161006e578063ce3564b4146107e6578063db006a751461080e578063e985e9c514610836578063ec9c26be14610872578063f2fde38b146108ae5761020e565b8063aefedebd1461072a578063b73b99a214610752578063b88d4fde1461078e578063c87b56dd146107aa5761020e565b806395d89b41116100e657806395d89b411461061f5780639bb097f714610649578063a22cb4651461068a578063a65e06e8146106b2578063a8fd4cc3146106ee5761020e565b80636efa761c1461057b57806370a08231146105a3578063715018a6146105df5780638da5cb5b146105f55761020e565b806323b872dd1161019a578063505c0a2511610169578063505c0a251461047757806351e164b71461049f57806355f804b3146104db5780635afd5efe146105035780636352211e1461053f5761020e565b806323b872dd146103c757806324233f7e146103e35780632a4f16211461041f57806342842e0e1461045b5761020e565b80630ceb57ea116101e15780630ceb57ea146102d05780630d9005ae1461030f5780631610cf1d1461033957806318160ddd146103755780631ac429b21461039f5761020e565b806301ffc9a71461021257806306fdde031461024e578063081812fc14610278578063095ea7b3146102b4575b5f80fd5b34801561021d575f80fd5b5061023860048036038101906102339190612c1f565b6108d6565b6040516102459190612c64565b60405180910390f35b348015610259575f80fd5b50610262610967565b60405161026f9190612d07565b60405180910390f35b348015610283575f80fd5b5061029e60048036038101906102999190612d5a565b6109f7565b6040516102ab9190612dc4565b60405180910390f35b6102ce60048036038101906102c99190612e07565b610a50565b005b3480156102db575f80fd5b506102f660048036038101906102f19190612d5a565b610a60565b6040516103069493929190612ec7565b60405180910390f35b34801561031a575f80fd5b50610323610a98565b6040516103309190612f0a565b60405180910390f35b348015610344575f80fd5b5061035f600480360381019061035a9190612d5a565b610aa6565b60405161036c9190612c64565b60405180910390f35b348015610380575f80fd5b50610389610b5b565b6040516103969190612f0a565b60405180910390f35b3480156103aa575f80fd5b506103c560048036038101906103c0919061304f565b610ba7565b005b6103e160048036038101906103dc91906130bb565b610f8f565b005b3480156103ee575f80fd5b5061040960048036038101906104049190612d5a565b61123b565b604051610416919061310b565b60405180910390f35b34801561042a575f80fd5b5061044560048036038101906104409190613124565b611266565b6040516104529190612c64565b60405180910390f35b610475600480360381019061047091906130bb565b611283565b005b348015610482575f80fd5b5061049d60048036038101906104989190613185565b6112a2565b005b3480156104aa575f80fd5b506104c560048036038101906104c09190612d5a565b6112cd565b6040516104d29190612f0a565b60405180910390f35b3480156104e6575f80fd5b5061050160048036038101906104fc919061329b565b6112e2565b005b34801561050e575f80fd5b5061052960048036038101906105249190612d5a565b611300565b6040516105369190613357565b60405180910390f35b34801561054a575f80fd5b5061056560048036038101906105609190612d5a565b611382565b6040516105729190612dc4565b60405180910390f35b348015610586575f80fd5b506105a1600480360381019061059c9190613124565b611393565b005b3480156105ae575f80fd5b506105c960048036038101906105c49190613124565b6113de565b6040516105d69190612f0a565b60405180910390f35b3480156105ea575f80fd5b506105f3611472565b005b348015610600575f80fd5b50610609611485565b6040516106169190612dc4565b60405180910390f35b34801561062a575f80fd5b506106336114ac565b6040516106409190612d07565b60405180910390f35b348015610654575f80fd5b5061066f600480360381019061066a9190613370565b61153c565b604051610681969594939291906133b7565b60405180910390f35b348015610695575f80fd5b506106b060048036038101906106ab9190613440565b611598565b005b3480156106bd575f80fd5b506106d860048036038101906106d39190612d5a565b61169e565b6040516106e59190612c64565b60405180910390f35b3480156106f9575f80fd5b50610714600480360381019061070f9190613370565b6116bb565b6040516107219190612c64565b60405180910390f35b348015610735575f80fd5b50610750600480360381019061074b919061347e565b6117af565b005b34801561075d575f80fd5b5061077860048036038101906107739190612d5a565b6118d1565b6040516107859190612f0a565b60405180910390f35b6107a860048036038101906107a3919061355a565b6118e6565b005b3480156107b5575f80fd5b506107d060048036038101906107cb9190612d5a565b611937565b6040516107dd9190612d07565b60405180910390f35b3480156107f1575f80fd5b5061080c60048036038101906108079190613440565b6119d2565b005b348015610819575f80fd5b50610834600480360381019061082f9190612d5a565b611a32565b005b348015610841575f80fd5b5061085c600480360381019061085791906135da565b611a46565b6040516108699190612c64565b60405180910390f35b34801561087d575f80fd5b5061089860048036038101906108939190613370565b611ad4565b6040516108a59190612f0a565b60405180910390f35b3480156108b9575f80fd5b506108d460048036038101906108cf9190613124565b611b01565b005b5f6301ffc9a760e01b827bffffffffffffffffffffffffffffffffffffffffffffffffffffffff1916148061093057506380ac58cd60e01b827bffffffffffffffffffffffffffffffffffffffffffffffffffffffff1916145b806109605750635b5e139f60e01b827bffffffffffffffffffffffffffffffffffffffffffffffffffffffff1916145b9050919050565b60606003805461097690613645565b80601f01602080910402602001604051908101604052809291908181526020018280546109a290613645565b80156109ed5780601f106109c4576101008083540402835291602001916109ed565b820191905f5260205f20905b8154815290600101906020018083116109d057829003601f168201915b5050505050905090565b5f610a0182611b85565b610a1657610a1563cf4700e460e01b611c29565b5b60075f8381526020019081526020015f205f015f9054906101000a900473ffffffffffffffffffffffffffffffffffffffff169050919050565b610a5c82826001611c31565b5050565b600e602052805f5260405f205f91509050805f015f9054906101000a900460ff16908060010154908060020154908060030154905084565b5f610aa1611d5b565b905090565b5f80600e5f8481526020019081526020015f206040518060800160405290815f82015f9054906101000a900460ff166002811115610ae757610ae6612e45565b5b6002811115610af957610af8612e45565b5b8152602001600182015481526020016002820154815260200160038201548152505090505f8160200151148015610b3357505f8160600151145b8015610b4257505f8160400151145b15610b50575f915050610b56565b60019150505b919050565b5f610b64611d64565b600254600154030390507fffffffffffffffffffffffffffffffffffffffffffffffffffffffffffffffff610b97611d6e565b14610ba457600954810190505b90565b5f73ffffffffffffffffffffffffffffffffffffffff1660135f9054906101000a900473ffffffffffffffffffffffffffffffffffffffff1673ffffffffffffffffffffffffffffffffffffffff1603610c36576040517f08c379a0000000000000000000000000000000000000000000000000000000008152600401610c2d906136bf565b60405180910390fd5b60105f8481526020019081526020015f205f9054906101000a900460ff1615610c94576040517f08c379a0000000000000000000000000000000000000000000000000000000008152600401610c8b90613727565b60405180910390fd5b610c9d826116bb565b610cdc576040517f08c379a0000000000000000000000000000000000000000000000000000000008152600401610cd39061378f565b60405180910390fd5b60115f8273ffffffffffffffffffffffffffffffffffffffff1673ffffffffffffffffffffffffffffffffffffffff1681526020019081526020015f205f9054906101000a900460ff16610d65576040517f08c379a0000000000000000000000000000000000000000000000000000000008152600401610d5c906137f7565b60405180910390fd5b5f600d83604051610d76919061384f565b90815260200160405180910390206040518060c00160405290815f82015f9054906101000a900460ff166002811115610db257610db1612e45565b5b6002811115610dc457610dc3612e45565b5b81526020016001820154815260200160028201548152602001600382015481526020016004820154815260200160058201548152505090505f8160a0015190505f600f85604051610e15919061384f565b908152602001604051809103902054905081600182610e349190613892565b1115610e75576040517f08c379a0000000000000000000000000000000000000000000000000000000008152600401610e6c90613935565b60405180910390fd5b5f83608001519050610ecb3360135f9054906101000a900473ffffffffffffffffffffffffffffffffffffffff16838873ffffffffffffffffffffffffffffffffffffffff16611d95909392919063ffffffff16565b5f610ed4611d5b565b9050610ef281865f0151876040015188602001518960600151611e17565b600f87604051610f02919061384f565b90815260200160405180910390205f815480929190610f2090613953565b919050555080600b5f8a81526020019081526020015f208190555087600c5f8381526020019081526020015f2081905550600160105f8a81526020019081526020015f205f6101000a81548160ff021916908315150217905550610f85336001611eb5565b5050505050505050565b5f610f9982611ed2565b905073ffffffffffffffffffffffffffffffffffffffff8473ffffffffffffffffffffffffffffffffffffffff161693508373ffffffffffffffffffffffffffffffffffffffff168173ffffffffffffffffffffffffffffffffffffffff161461100e5761100d63a114810060e01b611c29565b5b5f8061101984611fe2565b9150915061102f818761102a612005565b61200c565b61105a576110448661103f612005565b611a46565b611059576110586359c896be60e01b611c29565b5b5b611067868686600161204f565b8015611071575f82555b60065f8773ffffffffffffffffffffffffffffffffffffffff1673ffffffffffffffffffffffffffffffffffffffff1681526020019081526020015f205f8154600190039190508190555060065f8673ffffffffffffffffffffffffffffffffffffffff1673ffffffffffffffffffffffffffffffffffffffff1681526020019081526020015f205f81546001019190508190555061113985611115888887612055565b7c02000000000000000000000000000000000000000000000000000000001761207c565b60055f8681526020019081526020015f20819055505f7c02000000000000000000000000000000000000000000000000000000008416036111b6575f6001850190505f60055f8381526020019081526020015f2054036111b45760015481146111b3578360055f8381526020019081526020015f20819055505b5b505b5f73ffffffffffffffffffffffffffffffffffffffff8673ffffffffffffffffffffffffffffffffffffffff161690508481887fddf252ad1be2c89b69c2b068fc378daa952ba7f163c4a11628f55a4df523b3ef5f80a45f81036112255761122463ea553b3460e01b611c29565b5b61123287878760016120a6565b50505050505050565b5f80820361124b575f9050611261565b6001820361125c5760019050611261565b600290505b919050565b6011602052805f5260405f205f915054906101000a900460ff1681565b61129d83838360405180602001604052805f8152506118e6565b505050565b6112aa6120ac565b6112c4876112ba8860ff1661123b565b8787878787612133565b50505050505050565b600c602052805f5260405f205f915090505481565b6112ea6120ac565b8181600a91826112fb929190613b41565b505050565b611308612b83565b600e5f8381526020019081526020015f206040518060800160405290815f82015f9054906101000a900460ff16600281111561134757611346612e45565b5b600281111561135957611358612e45565b5b815260200160018201548152602001600282015481526020016003820154815250509050919050565b5f61138c82611ed2565b9050919050565b61139b6120ac565b8060135f6101000a81548173ffffffffffffffffffffffffffffffffffffffff021916908373ffffffffffffffffffffffffffffffffffffffff16021790555050565b5f8073ffffffffffffffffffffffffffffffffffffffff168273ffffffffffffffffffffffffffffffffffffffff160361142357611422638f4eb60460e01b611c29565b5b67ffffffffffffffff60065f8473ffffffffffffffffffffffffffffffffffffffff1673ffffffffffffffffffffffffffffffffffffffff1681526020019081526020015f2054169050919050565b61147a6120ac565b6114835f612200565b565b5f805f9054906101000a900473ffffffffffffffffffffffffffffffffffffffff16905090565b6060600480546114bb90613645565b80601f01602080910402602001604051908101604052809291908181526020018280546114e790613645565b80156115325780601f1061150957610100808354040283529160200191611532565b820191905f5260205f20905b81548152906001019060200180831161151557829003601f168201915b5050505050905090565b600d818051602081018201805184825260208301602085012081835280955050505050505f91509050805f015f9054906101000a900460ff16908060010154908060020154908060030154908060040154908060050154905086565b8060085f6115a4612005565b73ffffffffffffffffffffffffffffffffffffffff1673ffffffffffffffffffffffffffffffffffffffff1681526020019081526020015f205f8473ffffffffffffffffffffffffffffffffffffffff1673ffffffffffffffffffffffffffffffffffffffff1681526020019081526020015f205f6101000a81548160ff0219169083151502179055508173ffffffffffffffffffffffffffffffffffffffff1661164d612005565b73ffffffffffffffffffffffffffffffffffffffff167f17307eab39ab6107e8899845ad3d59bd9653f200f220920489ca2b5937696c31836040516116929190612c64565b60405180910390a35050565b6010602052805f5260405f205f915054906101000a900460ff1681565b5f80600d836040516116cd919061384f565b90815260200160405180910390206040518060c00160405290815f82015f9054906101000a900460ff16600281111561170957611708612e45565b5b600281111561171b5761171a612e45565b5b81526020016001820154815260200160028201548152602001600382015481526020016004820154815260200160058201548152505090505f816020015114801561176957505f8160400151145b801561177857505f8160600151145b801561178757505f8160800151145b801561179657505f8160a00151145b156117a4575f9150506117aa565b60019150505b919050565b5f73ffffffffffffffffffffffffffffffffffffffff1660135f9054906101000a900473ffffffffffffffffffffffffffffffffffffffff1673ffffffffffffffffffffffffffffffffffffffff160361183e576040517f08c379a000000000000000000000000000000000000000000000000000000000815260040161183590613c58565b60405180910390fd5b60135f9054906101000a900473ffffffffffffffffffffffffffffffffffffffff1673ffffffffffffffffffffffffffffffffffffffff163373ffffffffffffffffffffffffffffffffffffffff16146118cd576040517f08c379a00000000000000000000000000000000000000000000000000000000081526004016118c490613cc0565b60405180910390fd5b5050565b600b602052805f5260405f205f915090505481565b6118f1848484610f8f565b5f8373ffffffffffffffffffffffffffffffffffffffff163b146119315761191b848484846122c1565b6119305761192f63d1a57ed660e01b611c29565b5b5b50505050565b606061194282611b85565b611978576040517fa14c4b5000000000000000000000000000000000000000000000000000000000815260040160405180910390fd5b5f6119816123eb565b90505f81510361199f5760405180602001604052805f8152506119ca565b806119a98461247b565b6040516020016119ba929190613cde565b6040516020818303038152906040525b915050919050565b6119da6120ac565b8060115f8473ffffffffffffffffffffffffffffffffffffffff1673ffffffffffffffffffffffffffffffffffffffff1681526020019081526020015f205f6101000a81548160ff0219169083151502179055505050565b611a3a6120ac565b611a43816124ca565b50565b5f60085f8473ffffffffffffffffffffffffffffffffffffffff1673ffffffffffffffffffffffffffffffffffffffff1681526020019081526020015f205f8373ffffffffffffffffffffffffffffffffffffffff1673ffffffffffffffffffffffffffffffffffffffff1681526020019081526020015f205f9054906101000a900460ff16905092915050565b600f818051602081018201805184825260208301602085012081835280955050505050505f915090505481565b611b096120ac565b5f73ffffffffffffffffffffffffffffffffffffffff168173ffffffffffffffffffffffffffffffffffffffff1603611b79575f6040517f1e4fbdf7000000000000000000000000000000000000000000000000000000008152600401611b709190612dc4565b60405180910390fd5b611b8281612200565b50565b5f81611b8f611d64565b11611c2357611b9c611d6e565b821115611bc457611bbd60055f8481526020019081526020015f20546124d7565b9050611c24565b600154821015611c22575f5b5f60055f8581526020019081526020015f205491508103611bfc5782611bf590613d01565b9250611bd0565b5f7c01000000000000000000000000000000000000000000000000000000008216149150505b5b5b919050565b805f5260045ffd5b5f611c3b83611382565b9050818015611c7d57508073ffffffffffffffffffffffffffffffffffffffff16611c64612005565b73ffffffffffffffffffffffffffffffffffffffff1614155b15611ca957611c9381611c8e612005565b611a46565b611ca857611ca763cfb3b94260e01b611c29565b5b5b8360075f8581526020019081526020015f205f015f6101000a81548173ffffffffffffffffffffffffffffffffffffffff021916908373ffffffffffffffffffffffffffffffffffffffff160217905550828473ffffffffffffffffffffffffffffffffffffffff168273ffffffffffffffffffffffffffffffffffffffff167f8c5be1e5ebec7d5bd14f71427d1e84f3dd0314c0f7b2291e5b200ac8c7c3b92560405160405180910390a450505050565b5f600154905090565b5f620186a0905090565b5f7fffffffffffffffffffffffffffffffffffffffffffffffffffffffffffffffff905090565b611e11848573ffffffffffffffffffffffffffffffffffffffff166323b872dd868686604051602401611dca93929190613d28565b604051602081830303815290604052915060e01b6020820180517bffffffffffffffffffffffffffffffffffffffffffffffffffffffff8381831617835250505050612517565b50505050565b5f6040518060800160405280866002811115611e3657611e35612e45565b5b815260200185815260200184815260200183815250905080600e5f8881526020019081526020015f205f820151815f015f6101000a81548160ff02191690836002811115611e8757611e86612e45565b5b0217905550602082015181600101556040820151816002015560608201518160030155905050505050505050565b611ece828260405180602001604052805f8152506125ac565b5050565b5f81611edc611d64565b11611fcc5760055f8381526020019081526020015f20549050611efd611d6e565b821115611f2257611f0d816124d7565b611fdd57611f2163df2d9b4260e01b611c29565b5b5f8103611fa4576001548210611f4357611f4263df2d9b4260e01b611c29565b5b5b60055f836001900393508381526020019081526020015f205490505f810315611f9f575f7c010000000000000000000000000000000000000000000000000000000082160315611fdd57611f9e63df2d9b4260e01b611c29565b5b611f44565b5f7c010000000000000000000000000000000000000000000000000000000082160315611fdd575b611fdc63df2d9b4260e01b611c29565b5b919050565b5f805f60075f8581526020019081526020015f2090508092508254915050915091565b5f33905090565b5f73ffffffffffffffffffffffffffffffffffffffff8316925073ffffffffffffffffffffffffffffffffffffffff821691508382148383141790509392505050565b50505050565b5f8060e883901c905060e861206b868684612624565b62ffffff16901b9150509392505050565b5f73ffffffffffffffffffffffffffffffffffffffff83169250814260a01b178317905092915050565b50505050565b6120b461262c565b73ffffffffffffffffffffffffffffffffffffffff166120d2611485565b73ffffffffffffffffffffffffffffffffffffffff1614612131576120f561262c565b6040517f118cdaa70000000000000000000000000000000000000000000000000000000081526004016121289190612dc4565b60405180910390fd5b565b5f6040518060c0016040528088600281111561215257612151612e45565b5b815260200186815260200187815260200184815260200185815260200183815250905080600d89604051612186919061384f565b90815260200160405180910390205f820151815f015f6101000a81548160ff021916908360028111156121bc576121bb612e45565b5b02179055506020820151816001015560408201518160020155606082015181600301556080820151816004015560a082015181600501559050505050505050505050565b5f805f9054906101000a900473ffffffffffffffffffffffffffffffffffffffff169050815f806101000a81548173ffffffffffffffffffffffffffffffffffffffff021916908373ffffffffffffffffffffffffffffffffffffffff1602179055508173ffffffffffffffffffffffffffffffffffffffff168173ffffffffffffffffffffffffffffffffffffffff167f8be0079c531659141344cd1fd0a4f28419497f9722a3daafe3b4186f6b6457e060405160405180910390a35050565b5f8373ffffffffffffffffffffffffffffffffffffffff1663150b7a026122e6612005565b8786866040518563ffffffff1660e01b81526004016123089493929190613daf565b6020604051808303815f875af192505050801561234357506040513d601f19601f820116820180604052508101906123409190613e0d565b60015b612398573d805f8114612371576040519150601f19603f3d011682016040523d82523d5f602084013e612376565b606091505b505f8151036123905761238f63d1a57ed660e01b611c29565b5b805181602001fd5b63150b7a0260e01b7bffffffffffffffffffffffffffffffffffffffffffffffffffffffff1916817bffffffffffffffffffffffffffffffffffffffffffffffffffffffff191614915050949350505050565b6060600a80546123fa90613645565b80601f016020809104026020016040519081016040528092919081815260200182805461242690613645565b80156124715780601f1061244857610100808354040283529160200191612471565b820191905f5260205f20905b81548152906001019060200180831161245457829003601f168201915b5050505050905090565b606060a060405101806040526020810391505f825281835b6001156124b557600184039350600a81066030018453600a8104905080612493575b50828103602084039350808452505050919050565b6124d4815f612633565b50565b5f7c0100000000000000000000000000000000000000000000000000000000821673ffffffffffffffffffffffffffffffffffffffff8316119050919050565b5f612541828473ffffffffffffffffffffffffffffffffffffffff1661284f90919063ffffffff16565b90505f8151141580156125655750808060200190518101906125639190613e4c565b155b156125a757826040517f5274afe700000000000000000000000000000000000000000000000000000000815260040161259e9190612dc4565b60405180910390fd5b505050565b6125b68383612864565b5f8373ffffffffffffffffffffffffffffffffffffffff163b1461261f575f60015490505f83820390505b6125f35f8683806001019450866122c1565b6126085761260763d1a57ed660e01b611c29565b5b8181106125e157816001541461261c575f80fd5b50505b505050565b5f9392505050565b5f33905090565b5f61263d83611ed2565b90505f8190505f8061264e86611fe2565b9150915084156126965761266a8184612665612005565b61200c565b6126955761267f8361267a612005565b611a46565b612694576126936359c896be60e01b611c29565b5b5b5b6126a3835f88600161204f565b80156126ad575f82555b600160806001901b0360065f8573ffffffffffffffffffffffffffffffffffffffff1673ffffffffffffffffffffffffffffffffffffffff1681526020019081526020015f205f82825401925050819055506127518361270e855f88612055565b7c02000000000000000000000000000000000000000000000000000000007c0100000000000000000000000000000000000000000000000000000000171761207c565b60055f8881526020019081526020015f20819055505f7c02000000000000000000000000000000000000000000000000000000008516036127ce575f6001870190505f60055f8381526020019081526020015f2054036127cc5760015481146127cb578460055f8381526020019081526020015f20819055505b5b505b855f73ffffffffffffffffffffffffffffffffffffffff168473ffffffffffffffffffffffffffffffffffffffff167fddf252ad1be2c89b69c2b068fc378daa952ba7f163c4a11628f55a4df523b3ef60405160405180910390a4612836835f8860016120a6565b60025f8154809291906001019190505550505050505050565b606061285c83835f6129da565b905092915050565b5f60015490505f82036128825761288163b562e8dd60e01b611c29565b5b61288e5f84838561204f565b6128ac8361289d5f865f612055565b6128a685612aa3565b1761207c565b60055f8381526020019081526020015f2081905550600160406001901b17820260065f8573ffffffffffffffffffffffffffffffffffffffff1673ffffffffffffffffffffffffffffffffffffffff1681526020019081526020015f205f82825401925050819055505f73ffffffffffffffffffffffffffffffffffffffff8473ffffffffffffffffffffffffffffffffffffffff161690505f810361295d5761295c632e07630060e01b611c29565b5b5f83830190505f83905061296f611d6e565b60018303111561298a576129896381647e3a60e01b611c29565b5b5b80835f7fddf252ad1be2c89b69c2b068fc378daa952ba7f163c4a11628f55a4df523b3ef5f80a481816001019150810361298b57816001819055505050506129d55f8483856120a6565b505050565b606081471015612a2157306040517fcd786059000000000000000000000000000000000000000000000000000000008152600401612a189190612dc4565b60405180910390fd5b5f808573ffffffffffffffffffffffffffffffffffffffff168486604051612a499190613eb1565b5f6040518083038185875af1925050503d805f8114612a83576040519150601f19603f3d011682016040523d82523d5f602084013e612a88565b606091505b5091509150612a98868383612ab2565b925050509392505050565b5f6001821460e11b9050919050565b606082612ac757612ac282612b3f565b612b37565b5f8251148015612aed57505f8473ffffffffffffffffffffffffffffffffffffffff163b145b15612b2f57836040517f9996b315000000000000000000000000000000000000000000000000000000008152600401612b269190612dc4565b60405180910390fd5b819050612b38565b5b9392505050565b5f81511115612b515780518082602001fd5b6040517f1425ea4200000000000000000000000000000000000000000000000000000000815260040160405180910390fd5b60405180608001604052805f6002811115612ba157612ba0612e45565b5b81526020015f81526020015f81526020015f81525090565b5f604051905090565b5f80fd5b5f80fd5b5f7fffffffff0000000000000000000000000000000000000000000000000000000082169050919050565b612bfe81612bca565b8114612c08575f80fd5b50565b5f81359050612c1981612bf5565b92915050565b5f60208284031215612c3457612c33612bc2565b5b5f612c4184828501612c0b565b91505092915050565b5f8115159050919050565b612c5e81612c4a565b82525050565b5f602082019050612c775f830184612c55565b92915050565b5f81519050919050565b5f82825260208201905092915050565b5f5b83811015612cb4578082015181840152602081019050612c99565b5f8484015250505050565b5f601f19601f8301169050919050565b5f612cd982612c7d565b612ce38185612c87565b9350612cf3818560208601612c97565b612cfc81612cbf565b840191505092915050565b5f6020820190508181035f830152612d1f8184612ccf565b905092915050565b5f819050919050565b612d3981612d27565b8114612d43575f80fd5b50565b5f81359050612d5481612d30565b92915050565b5f60208284031215612d6f57612d6e612bc2565b5b5f612d7c84828501612d46565b91505092915050565b5f73ffffffffffffffffffffffffffffffffffffffff82169050919050565b5f612dae82612d85565b9050919050565b612dbe81612da4565b82525050565b5f602082019050612dd75f830184612db5565b92915050565b612de681612da4565b8114612df0575f80fd5b50565b5f81359050612e0181612ddd565b92915050565b5f8060408385031215612e1d57612e1c612bc2565b5b5f612e2a85828601612df3565b9250506020612e3b85828601612d46565b9150509250929050565b7f4e487b71000000000000000000000000000000000000000000000000000000005f52602160045260245ffd5b60038110612e8357612e82612e45565b5b50565b5f819050612e9382612e72565b919050565b5f612ea282612e86565b9050919050565b612eb281612e98565b82525050565b612ec181612d27565b82525050565b5f608082019050612eda5f830187612ea9565b612ee76020830186612eb8565b612ef46040830185612eb8565b612f016060830184612eb8565b95945050505050565b5f602082019050612f1d5f830184612eb8565b92915050565b5f80fd5b5f80fd5b7f4e487b71000000000000000000000000000000000000000000000000000000005f52604160045260245ffd5b612f6182612cbf565b810181811067ffffffffffffffff82111715612f8057612f7f612f2b565b5b80604052505050565b5f612f92612bb9565b9050612f9e8282612f58565b919050565b5f67ffffffffffffffff821115612fbd57612fbc612f2b565b5b612fc682612cbf565b9050602081019050919050565b828183375f83830152505050565b5f612ff3612fee84612fa3565b612f89565b90508281526020810184848401111561300f5761300e612f27565b5b61301a848285612fd3565b509392505050565b5f82601f83011261303657613035612f23565b5b8135613046848260208601612fe1565b91505092915050565b5f805f6060848603121561306657613065612bc2565b5b5f61307386828701612d46565b935050602084013567ffffffffffffffff81111561309457613093612bc6565b5b6130a086828701613022565b92505060406130b186828701612df3565b9150509250925092565b5f805f606084860312156130d2576130d1612bc2565b5b5f6130df86828701612df3565b93505060206130f086828701612df3565b925050604061310186828701612d46565b9150509250925092565b5f60208201905061311e5f830184612ea9565b92915050565b5f6020828403121561313957613138612bc2565b5b5f61314684828501612df3565b91505092915050565b5f60ff82169050919050565b6131648161314f565b811461316e575f80fd5b50565b5f8135905061317f8161315b565b92915050565b5f805f805f805f60e0888a0312156131a05761319f612bc2565b5b5f88013567ffffffffffffffff8111156131bd576131bc612bc6565b5b6131c98a828b01613022565b97505060206131da8a828b01613171565b96505060406131eb8a828b01612d46565b95505060606131fc8a828b01612d46565b945050608061320d8a828b01612d46565b93505060a061321e8a828b01612d46565b92505060c061322f8a828b01612d46565b91505092959891949750929550565b5f80fd5b5f80fd5b5f8083601f84011261325b5761325a612f23565b5b8235905067ffffffffffffffff8111156132785761327761323e565b5b60208301915083600182028301111561329457613293613242565b5b9250929050565b5f80602083850312156132b1576132b0612bc2565b5b5f83013567ffffffffffffffff8111156132ce576132cd612bc6565b5b6132da85828601613246565b92509250509250929050565b6132ef81612e98565b82525050565b6132fe81612d27565b82525050565b608082015f8201516133185f8501826132e6565b50602082015161332b60208501826132f5565b50604082015161333e60408501826132f5565b50606082015161335160608501826132f5565b50505050565b5f60808201905061336a5f830184613304565b92915050565b5f6020828403121561338557613384612bc2565b5b5f82013567ffffffffffffffff8111156133a2576133a1612bc6565b5b6133ae84828501613022565b91505092915050565b5f60c0820190506133ca5f830189612ea9565b6133d76020830188612eb8565b6133e46040830187612eb8565b6133f16060830186612eb8565b6133fe6080830185612eb8565b61340b60a0830184612eb8565b979650505050505050565b61341f81612c4a565b8114613429575f80fd5b50565b5f8135905061343a81613416565b92915050565b5f806040838503121561345657613455612bc2565b5b5f61346385828601612df3565b92505060206134748582860161342c565b9150509250929050565b5f806040838503121561349457613493612bc2565b5b5f6134a185828601612d46565b92505060206134b285828601612d46565b9150509250929050565b5f67ffffffffffffffff8211156134d6576134d5612f2b565b5b6134df82612cbf565b9050602081019050919050565b5f6134fe6134f9846134bc565b612f89565b90508281526020810184848401111561351a57613519612f27565b5b613525848285612fd3565b509392505050565b5f82601f83011261354157613540612f23565b5b81356135518482602086016134ec565b91505092915050565b5f805f806080858703121561357257613571612bc2565b5b5f61357f87828801612df3565b945050602061359087828801612df3565b93505060406135a187828801612d46565b925050606085013567ffffffffffffffff8111156135c2576135c1612bc6565b5b6135ce8782880161352d565b91505092959194509250565b5f80604083850312156135f0576135ef612bc2565b5b5f6135fd85828601612df3565b925050602061360e85828601612df3565b9150509250929050565b7f4e487b71000000000000000000000000000000000000000000000000000000005f52602260045260245ffd5b5f600282049050600182168061365c57607f821691505b60208210810361366f5761366e613618565b5b50919050565b7f454e47494e455f4e4f545f434f4e4649470000000000000000000000000000005f82015250565b5f6136a9601183612c87565b91506136b482613675565b602082019050919050565b5f6020820190508181035f8301526136d68161369d565b9050919050565b7f6e667469642065786973742121210000000000000000000000000000000000005f82015250565b5f613711600e83612c87565b915061371c826136dd565b602082019050919050565b5f6020820190508181035f83015261373e81613705565b9050919050565b7f456e67696e65206e6f74206578697374000000000000000000000000000000005f82015250565b5f613779601083612c87565b915061378482613745565b602082019050919050565b5f6020820190508181035f8301526137a68161376d565b9050919050565b7f546f6b656e206e6f7420737570706f72740000000000000000000000000000005f82015250565b5f6137e1601183612c87565b91506137ec826137ad565b602082019050919050565b5f6020820190508181035f83015261380e816137d5565b9050919050565b5f81905092915050565b5f61382982612c7d565b6138338185613815565b9350613843818560208601612c97565b80840191505092915050565b5f61385a828461381f565b915081905092915050565b7f4e487b71000000000000000000000000000000000000000000000000000000005f52601160045260245ffd5b5f61389c82612d27565b91506138a783612d27565b92508282019050808211156138bf576138be613865565b5b92915050565b7f43616e6e6f74206d696e74206d6f72652c206d617820737570706c79207265615f8201527f6368656400000000000000000000000000000000000000000000000000000000602082015250565b5f61391f602483612c87565b915061392a826138c5565b604082019050919050565b5f6020820190508181035f83015261394c81613913565b9050919050565b5f61395d82612d27565b91507fffffffffffffffffffffffffffffffffffffffffffffffffffffffffffffffff820361398f5761398e613865565b5b600182019050919050565b5f82905092915050565b5f819050815f5260205f209050919050565b5f6020601f8301049050919050565b5f82821b905092915050565b5f60088302613a007fffffffffffffffffffffffffffffffffffffffffffffffffffffffffffffffff826139c5565b613a0a86836139c5565b95508019841693508086168417925050509392505050565b5f819050919050565b5f613a45613a40613a3b84612d27565b613a22565b612d27565b9050919050565b5f819050919050565b613a5e83613a2b565b613a72613a6a82613a4c565b8484546139d1565b825550505050565b5f90565b613a86613a7a565b613a91818484613a55565b505050565b5b81811015613ab457613aa95f82613a7e565b600181019050613a97565b5050565b601f821115613af957613aca816139a4565b613ad3846139b6565b81016020851015613ae2578190505b613af6613aee856139b6565b830182613a96565b50505b505050565b5f82821c905092915050565b5f613b195f1984600802613afe565b1980831691505092915050565b5f613b318383613b0a565b9150826002028217905092915050565b613b4b838361399a565b67ffffffffffffffff811115613b6457613b63612f2b565b5b613b6e8254613645565b613b79828285613ab8565b5f601f831160018114613ba6575f8415613b94578287013590505b613b9e8582613b26565b865550613c05565b601f198416613bb4866139a4565b5f5b82811015613bdb57848901358255600182019150602085019450602081019050613bb6565b86831015613bf85784890135613bf4601f891682613b0a565b8355505b6001600288020188555050505b50505050505050565b7f4552524f525f454e47494e455f4e4f545f5345540000000000000000000000005f82015250565b5f613c42601483612c87565b9150613c4d82613c0e565b602082019050919050565b5f6020820190508181035f830152613c6f81613c36565b9050919050565b7f4552524f525f5045524d495353494f4e000000000000000000000000000000005f82015250565b5f613caa601083612c87565b9150613cb582613c76565b602082019050919050565b5f6020820190508181035f830152613cd781613c9e565b9050919050565b5f613ce9828561381f565b9150613cf5828461381f565b91508190509392505050565b5f613d0b82612d27565b91505f8203613d1d57613d1c613865565b5b600182039050919050565b5f606082019050613d3b5f830186612db5565b613d486020830185612db5565b613d556040830184612eb8565b949350505050565b5f81519050919050565b5f82825260208201905092915050565b5f613d8182613d5d565b613d8b8185613d67565b9350613d9b818560208601612c97565b613da481612cbf565b840191505092915050565b5f608082019050613dc25f830187612db5565b613dcf6020830186612db5565b613ddc6040830185612eb8565b8181036060830152613dee8184613d77565b905095945050505050565b5f81519050613e0781612bf5565b92915050565b5f60208284031215613e2257613e21612bc2565b5b5f613e2f84828501613df9565b91505092915050565b5f81519050613e4681613416565b92915050565b5f60208284031215613e6157613e60612bc2565b5b5f613e6e84828501613e38565b91505092915050565b5f81905092915050565b5f613e8b82613d5d565b613e958185613e77565b9350613ea5818560208601612c97565b80840191505092915050565b5f613ebc8284613e81565b91508190509291505056fea2646970667358221220662a239255980c334bdbfa595555a325c38060d2f1984eb913a0d166f045036e64736f6c63430008180033",
			"opcodes": "PUSH1 0x80 PUSH1 0x40 MSTORE PUSH0 PUSH1 0x12 SSTORE PUSH0 PUSH1 0x13 PUSH0 PUSH2 0x100 EXP DUP2 SLOAD DUP2 PUSH20 0xFFFFFFFFFFFFFFFFFFFFFFFFFFFFFFFFFFFFFFFF MUL NOT AND SWAP1 DUP4 PUSH20 0xFFFFFFFFFFFFFFFFFFFFFFFFFFFFFFFFFFFFFFFF AND MUL OR SWAP1 SSTORE POP CALLVALUE DUP1 ISZERO PUSH3 0x54 JUMPI PUSH0 DUP1 REVERT JUMPDEST POP PUSH1 0x40 MLOAD PUSH3 0x4A95 CODESIZE SUB DUP1 PUSH3 0x4A95 DUP4 CODECOPY DUP2 DUP2 ADD PUSH1 0x40 MSTORE DUP2 ADD SWAP1 PUSH3 0x7A SWAP2 SWAP1 PUSH3 0x6D6 JUMP JUMPDEST DUP2 DUP2 CALLER PUSH0 PUSH20 0xFFFFFFFFFFFFFFFFFFFFFFFFFFFFFFFFFFFFFFFF AND DUP2 PUSH20 0xFFFFFFFFFFFFFFFFFFFFFFFFFFFFFFFFFFFFFFFF AND SUB PUSH3 0xF0 JUMPI PUSH0 PUSH1 0x40 MLOAD PUSH32 0x1E4FBDF700000000000000000000000000000000000000000000000000000000 DUP2 MSTORE PUSH1 0x4 ADD PUSH3 0xE7 SWAP2 SWAP1 PUSH3 0x7CF JUMP JUMPDEST PUSH1 0x40 MLOAD DUP1 SWAP2 SUB SWAP1 REVERT JUMPDEST PUSH3 0x101 DUP2 PUSH3 0x382 PUSH1 0x20 SHL PUSH1 0x20 SHR JUMP JUMPDEST POP DUP2 PUSH1 0x3 SWAP1 DUP2 PUSH3 0x113 SWAP2 SWAP1 PUSH3 0xA21 JUMP JUMPDEST POP DUP1 PUSH1 0x4 SWAP1 DUP2 PUSH3 0x125 SWAP2 SWAP1 PUSH3 0xA21 JUMP JUMPDEST POP PUSH3 0x136 PUSH3 0x443 PUSH1 0x20 SHL PUSH1 0x20 SHR JUMP JUMPDEST PUSH1 0x1 DUP2 SWAP1 SSTORE POP PUSH3 0x14C PUSH3 0x443 PUSH1 0x20 SHL PUSH1 0x20 SHR JUMP JUMPDEST PUSH3 0x15C PUSH3 0x44D PUSH1 0x20 SHL PUSH1 0x20 SHR JUMP JUMPDEST LT ISZERO PUSH3 0x17C JUMPI PUSH3 0x17B PUSH4 0xFED8210F PUSH1 0xE0 SHL PUSH3 0x474 PUSH1 0x20 SHL PUSH1 0x20 SHR JUMP JUMPDEST JUMPDEST POP POP DUP3 PUSH1 0xA SWAP1 DUP2 PUSH3 0x18F SWAP2 SWAP1 PUSH3 0xA21 JUMP JUMPDEST POP PUSH3 0x1E0 PUSH1 0x40 MLOAD DUP1 PUSH1 0x40 ADD PUSH1 0x40 MSTORE DUP1 PUSH1 0x7 DUP2 MSTORE PUSH1 0x20 ADD PUSH32 0x54425F3030303100000000000000000000000000000000000000000000000000 DUP2 MSTORE POP PUSH0 DUP1 PUSH0 PUSH1 0xA PUSH1 0x64 PUSH2 0x2710 PUSH3 0x47C PUSH1 0x20 SHL PUSH1 0x20 SHR JUMP JUMPDEST PUSH3 0x230 PUSH1 0x40 MLOAD DUP1 PUSH1 0x40 ADD PUSH1 0x40 MSTORE DUP1 PUSH1 0x8 DUP2 MSTORE PUSH1 0x20 ADD PUSH32 0x54425F3030303153000000000000000000000000000000000000000000000000 DUP2 MSTORE POP PUSH0 DUP1 PUSH0 PUSH1 0x32 PUSH1 0x66 PUSH2 0x3E8 PUSH3 0x47C PUSH1 0x20 SHL PUSH1 0x20 SHR JUMP JUMPDEST PUSH3 0x281 PUSH1 0x40 MLOAD DUP1 PUSH1 0x40 ADD PUSH1 0x40 MSTORE DUP1 PUSH1 0x9 DUP2 MSTORE PUSH1 0x20 ADD PUSH32 0x44545F46484B5F30300000000000000000000000000000000000000000000000 DUP2 MSTORE POP PUSH1 0x1 PUSH1 0x28 PUSH0 PUSH1 0x19 PUSH0 PUSH2 0x2710 PUSH3 0x47C PUSH1 0x20 SHL PUSH1 0x20 SHR JUMP JUMPDEST PUSH3 0x2D2 PUSH1 0x40 MLOAD DUP1 PUSH1 0x40 ADD PUSH1 0x40 MSTORE DUP1 PUSH1 0x8 DUP2 MSTORE PUSH1 0x20 ADD PUSH32 0x44545F53535F3030000000000000000000000000000000000000000000000000 DUP2 MSTORE POP PUSH1 0x1 PUSH1 0x28 PUSH0 PUSH1 0x19 PUSH0 PUSH2 0x3E8 PUSH3 0x47C PUSH1 0x20 SHL PUSH1 0x20 SHR JUMP JUMPDEST PUSH3 0x326 PUSH1 0x40 MLOAD DUP1 PUSH1 0x40 ADD PUSH1 0x40 MSTORE DUP1 PUSH1 0x7 DUP2 MSTORE PUSH1 0x20 ADD PUSH32 0x43585F3030303100000000000000000000000000000000000000000000000000 DUP2 MSTORE POP PUSH1 0x2 PUSH0 PUSH1 0x64 PUSH1 0x32 PUSH0 PUSH5 0x2540BE400 PUSH3 0x47C PUSH1 0x20 SHL PUSH1 0x20 SHR JUMP JUMPDEST PUSH3 0x379 PUSH1 0x40 MLOAD DUP1 PUSH1 0x40 ADD PUSH1 0x40 MSTORE DUP1 PUSH1 0x8 DUP2 MSTORE PUSH1 0x20 ADD PUSH32 0x43585F303030314D000000000000000000000000000000000000000000000000 DUP2 MSTORE POP PUSH1 0x2 PUSH0 PUSH1 0x96 PUSH1 0x50 PUSH0 PUSH4 0x5F5E100 PUSH3 0x47C PUSH1 0x20 SHL PUSH1 0x20 SHR JUMP JUMPDEST POP POP POP PUSH3 0xB8A JUMP JUMPDEST PUSH0 DUP1 PUSH0 SWAP1 SLOAD SWAP1 PUSH2 0x100 EXP SWAP1 DIV PUSH20 0xFFFFFFFFFFFFFFFFFFFFFFFFFFFFFFFFFFFFFFFF AND SWAP1 POP DUP2 PUSH0 DUP1 PUSH2 0x100 EXP DUP2 SLOAD DUP2 PUSH20 0xFFFFFFFFFFFFFFFFFFFFFFFFFFFFFFFFFFFFFFFF MUL NOT AND SWAP1 DUP4 PUSH20 0xFFFFFFFFFFFFFFFFFFFFFFFFFFFFFFFFFFFFFFFF AND MUL OR SWAP1 SSTORE POP DUP2 PUSH20 0xFFFFFFFFFFFFFFFFFFFFFFFFFFFFFFFFFFFFFFFF AND DUP2 PUSH20 0xFFFFFFFFFFFFFFFFFFFFFFFFFFFFFFFFFFFFFFFF AND PUSH32 0x8BE0079C531659141344CD1FD0A4F28419497F9722A3DAAFE3B4186F6B6457E0 PUSH1 0x40 MLOAD PUSH1 0x40 MLOAD DUP1 SWAP2 SUB SWAP1 LOG3 POP POP JUMP JUMPDEST PUSH0 PUSH3 0x186A0 SWAP1 POP SWAP1 JUMP JUMPDEST PUSH0 PUSH32 0xFFFFFFFFFFFFFFFFFFFFFFFFFFFFFFFFFFFFFFFFFFFFFFFFFFFFFFFFFFFFFFFF SWAP1 POP SWAP1 JUMP JUMPDEST DUP1 PUSH0 MSTORE PUSH1 0x4 PUSH0 REVERT JUMPDEST PUSH0 PUSH1 0x40 MLOAD DUP1 PUSH1 0xC0 ADD PUSH1 0x40 MSTORE DUP1 DUP9 PUSH1 0x2 DUP2 GT ISZERO PUSH3 0x49E JUMPI PUSH3 0x49D PUSH3 0xB05 JUMP JUMPDEST JUMPDEST DUP2 MSTORE PUSH1 0x20 ADD DUP7 DUP2 MSTORE PUSH1 0x20 ADD DUP8 DUP2 MSTORE PUSH1 0x20 ADD DUP5 DUP2 MSTORE PUSH1 0x20 ADD DUP6 DUP2 MSTORE PUSH1 0x20 ADD DUP4 DUP2 MSTORE POP SWAP1 POP DUP1 PUSH1 0xD DUP10 PUSH1 0x40 MLOAD PUSH3 0x4D4 SWAP2 SWAP1 PUSH3 0xB72 JUMP JUMPDEST SWAP1 DUP2 MSTORE PUSH1 0x20 ADD PUSH1 0x40 MLOAD DUP1 SWAP2 SUB SWAP1 KECCAK256 PUSH0 DUP3 ADD MLOAD DUP2 PUSH0 ADD PUSH0 PUSH2 0x100 EXP DUP2 SLOAD DUP2 PUSH1 0xFF MUL NOT AND SWAP1 DUP4 PUSH1 0x2 DUP2 GT ISZERO PUSH3 0x50D JUMPI PUSH3 0x50C PUSH3 0xB05 JUMP JUMPDEST JUMPDEST MUL OR SWAP1 SSTORE POP PUSH1 0x20 DUP3 ADD MLOAD DUP2 PUSH1 0x1 ADD SSTORE PUSH1 0x40 DUP3 ADD MLOAD DUP2 PUSH1 0x2 ADD SSTORE PUSH1 0x60 DUP3 ADD MLOAD DUP2 PUSH1 0x3 ADD SSTORE PUSH1 0x80 DUP3 ADD MLOAD DUP2 PUSH1 0x4 ADD SSTORE PUSH1 0xA0 DUP3 ADD MLOAD DUP2 PUSH1 0x5 ADD SSTORE SWAP1 POP POP POP POP POP POP POP POP POP POP JUMP JUMPDEST PUSH0 PUSH1 0x40 MLOAD SWAP1 POP SWAP1 JUMP JUMPDEST PUSH0 DUP1 REVERT JUMPDEST PUSH0 DUP1 REVERT JUMPDEST PUSH0 DUP1 REVERT JUMPDEST PUSH0 DUP1 REVERT JUMPDEST PUSH0 PUSH1 0x1F NOT PUSH1 0x1F DUP4 ADD AND SWAP1 POP SWAP2 SWAP1 POP JUMP JUMPDEST PUSH32 0x4E487B7100000000000000000000000000000000000000000000000000000000 PUSH0 MSTORE PUSH1 0x41 PUSH1 0x4 MSTORE PUSH1 0x24 PUSH0 REVERT JUMPDEST PUSH3 0x5B2 DUP3 PUSH3 0x56A JUMP JUMPDEST DUP2 ADD DUP2 DUP2 LT PUSH8 0xFFFFFFFFFFFFFFFF DUP3 GT OR ISZERO PUSH3 0x5D4 JUMPI PUSH3 0x5D3 PUSH3 0x57A JUMP JUMPDEST JUMPDEST DUP1 PUSH1 0x40 MSTORE POP POP POP JUMP JUMPDEST PUSH0 PUSH3 0x5E8 PUSH3 0x551 JUMP JUMPDEST SWAP1 POP PUSH3 0x5F6 DUP3 DUP3 PUSH3 0x5A7 JUMP JUMPDEST SWAP2 SWAP1 POP JUMP JUMPDEST PUSH0 PUSH8 0xFFFFFFFFFFFFFFFF DUP3 GT ISZERO PUSH3 0x618 JUMPI PUSH3 0x617 PUSH3 0x57A JUMP JUMPDEST JUMPDEST PUSH3 0x623 DUP3 PUSH3 0x56A JUMP JUMPDEST SWAP1 POP PUSH1 0x20 DUP2 ADD SWAP1 POP SWAP2 SWAP1 POP JUMP JUMPDEST PUSH0 JUMPDEST DUP4 DUP2 LT ISZERO PUSH3 0x64F JUMPI DUP1 DUP3 ADD MLOAD DUP2 DUP5 ADD MSTORE PUSH1 0x20 DUP2 ADD SWAP1 POP PUSH3 0x632 JUMP JUMPDEST PUSH0 DUP5 DUP5 ADD MSTORE POP POP POP POP JUMP JUMPDEST PUSH0 PUSH3 0x670 PUSH3 0x66A DUP5 PUSH3 0x5FB JUMP JUMPDEST PUSH3 0x5DD JUMP JUMPDEST SWAP1 POP DUP3 DUP2 MSTORE PUSH1 0x20 DUP2 ADD DUP5 DUP5 DUP5 ADD GT ISZERO PUSH3 0x68F JUMPI PUSH3 0x68E PUSH3 0x566 JUMP JUMPDEST JUMPDEST PUSH3 0x69C DUP5 DUP3 DUP6 PUSH3 0x630 JUMP JUMPDEST POP SWAP4 SWAP3 POP POP POP JUMP JUMPDEST PUSH0 DUP3 PUSH1 0x1F DUP4 ADD SLT PUSH3 0x6BB JUMPI PUSH3 0x6BA PUSH3 0x562 JUMP JUMPDEST JUMPDEST DUP2 MLOAD PUSH3 0x6CD DUP5 DUP3 PUSH1 0x20 DUP7 ADD PUSH3 0x65A JUMP JUMPDEST SWAP2 POP POP SWAP3 SWAP2 POP POP JUMP JUMPDEST PUSH0 DUP1 PUSH0 PUSH1 0x60 DUP5 DUP7 SUB SLT ISZERO PUSH3 0x6F0 JUMPI PUSH3 0x6EF PUSH3 0x55A JUMP JUMPDEST JUMPDEST PUSH0 DUP5 ADD MLOAD PUSH8 0xFFFFFFFFFFFFFFFF DUP2 GT ISZERO PUSH3 0x710 JUMPI PUSH3 0x70F PUSH3 0x55E JUMP JUMPDEST JUMPDEST PUSH3 0x71E DUP7 DUP3 DUP8 ADD PUSH3 0x6A4 JUMP JUMPDEST SWAP4 POP POP PUSH1 0x20 DUP5 ADD MLOAD PUSH8 0xFFFFFFFFFFFFFFFF DUP2 GT ISZERO PUSH3 0x742 JUMPI PUSH3 0x741 PUSH3 0x55E JUMP JUMPDEST JUMPDEST PUSH3 0x750 DUP7 DUP3 DUP8 ADD PUSH3 0x6A4 JUMP JUMPDEST SWAP3 POP POP PUSH1 0x40 DUP5 ADD MLOAD PUSH8 0xFFFFFFFFFFFFFFFF DUP2 GT ISZERO PUSH3 0x774 JUMPI PUSH3 0x773 PUSH3 0x55E JUMP JUMPDEST JUMPDEST PUSH3 0x782 DUP7 DUP3 DUP8 ADD PUSH3 0x6A4 JUMP JUMPDEST SWAP2 POP POP SWAP3 POP SWAP3 POP SWAP3 JUMP JUMPDEST PUSH0 PUSH20 0xFFFFFFFFFFFFFFFFFFFFFFFFFFFFFFFFFFFFFFFF DUP3 AND SWAP1 POP SWAP2 SWAP1 POP JUMP JUMPDEST PUSH0 PUSH3 0x7B7 DUP3 PUSH3 0x78C JUMP JUMPDEST SWAP1 POP SWAP2 SWAP1 POP JUMP JUMPDEST PUSH3 0x7C9 DUP2 PUSH3 0x7AB JUMP JUMPDEST DUP3 MSTORE POP POP JUMP JUMPDEST PUSH0 PUSH1 0x20 DUP3 ADD SWAP1 POP PUSH3 0x7E4 PUSH0 DUP4 ADD DUP5 PUSH3 0x7BE JUMP JUMPDEST SWAP3 SWAP2 POP POP JUMP JUMPDEST PUSH0 DUP2 MLOAD SWAP1 POP SWAP2 SWAP1 POP JUMP JUMPDEST PUSH32 0x4E487B7100000000000000000000000000000000000000000000000000000000 PUSH0 MSTORE PUSH1 0x22 PUSH1 0x4 MSTORE PUSH1 0x24 PUSH0 REVERT JUMPDEST PUSH0 PUSH1 0x2 DUP3 DIV SWAP1 POP PUSH1 0x1 DUP3 AND DUP1 PUSH3 0x839 JUMPI PUSH1 0x7F DUP3 AND SWAP2 POP JUMPDEST PUSH1 0x20 DUP3 LT DUP2 SUB PUSH3 0x84F JUMPI PUSH3 0x84E PUSH3 0x7F4 JUMP JUMPDEST JUMPDEST POP SWAP2 SWAP1 POP JUMP JUMPDEST PUSH0 DUP2 SWAP1 POP DUP2 PUSH0 MSTORE PUSH1 0x20 PUSH0 KECCAK256 SWAP1 POP SWAP2 SWAP1 POP JUMP JUMPDEST PUSH0 PUSH1 0x20 PUSH1 0x1F DUP4 ADD DIV SWAP1 POP SWAP2 SWAP1 POP JUMP JUMPDEST PUSH0 DUP3 DUP3 SHL SWAP1 POP SWAP3 SWAP2 POP POP JUMP JUMPDEST PUSH0 PUSH1 0x8 DUP4 MUL PUSH3 0x8B3 PUSH32 0xFFFFFFFFFFFFFFFFFFFFFFFFFFFFFFFFFFFFFFFFFFFFFFFFFFFFFFFFFFFFFFFF DUP3 PUSH3 0x876 JUMP JUMPDEST PUSH3 0x8BF DUP7 DUP4 PUSH3 0x876 JUMP JUMPDEST SWAP6 POP DUP1 NOT DUP5 AND SWAP4 POP DUP1 DUP7 AND DUP5 OR SWAP3 POP POP POP SWAP4 SWAP3 POP POP POP JUMP JUMPDEST PUSH0 DUP2 SWAP1 POP SWAP2 SWAP1 POP JUMP JUMPDEST PUSH0 DUP2 SWAP1 POP SWAP2 SWAP1 POP JUMP JUMPDEST PUSH0 PUSH3 0x909 PUSH3 0x903 PUSH3 0x8FD DUP5 PUSH3 0x8D7 JUMP JUMPDEST PUSH3 0x8E0 JUMP JUMPDEST PUSH3 0x8D7 JUMP JUMPDEST SWAP1 POP SWAP2 SWAP1 POP JUMP JUMPDEST PUSH0 DUP2 SWAP1 POP SWAP2 SWAP1 POP JUMP JUMPDEST PUSH3 0x924 DUP4 PUSH3 0x8E9 JUMP JUMPDEST PUSH3 0x93C PUSH3 0x933 DUP3 PUSH3 0x910 JUMP JUMPDEST DUP5 DUP5 SLOAD PUSH3 0x882 JUMP JUMPDEST DUP3 SSTORE POP POP POP POP JUMP JUMPDEST PUSH0 SWAP1 JUMP JUMPDEST PUSH3 0x952 PUSH3 0x944 JUMP JUMPDEST PUSH3 0x95F DUP2 DUP5 DUP5 PUSH3 0x919 JUMP JUMPDEST POP POP POP JUMP JUMPDEST JUMPDEST DUP2 DUP2 LT ISZERO PUSH3 0x986 JUMPI PUSH3 0x97A PUSH0 DUP3 PUSH3 0x948 JUMP JUMPDEST PUSH1 0x1 DUP2 ADD SWAP1 POP PUSH3 0x965 JUMP JUMPDEST POP POP JUMP JUMPDEST PUSH1 0x1F DUP3 GT ISZERO PUSH3 0x9D5 JUMPI PUSH3 0x99F DUP2 PUSH3 0x855 JUMP JUMPDEST PUSH3 0x9AA DUP5 PUSH3 0x867 JUMP JUMPDEST DUP2 ADD PUSH1 0x20 DUP6 LT ISZERO PUSH3 0x9BA JUMPI DUP2 SWAP1 POP JUMPDEST PUSH3 0x9D2 PUSH3 0x9C9 DUP6 PUSH3 0x867 JUMP JUMPDEST DUP4 ADD DUP3 PUSH3 0x964 JUMP JUMPDEST POP POP JUMPDEST POP POP POP JUMP JUMPDEST PUSH0 DUP3 DUP3 SHR SWAP1 POP SWAP3 SWAP2 POP POP JUMP JUMPDEST PUSH0 PUSH3 0x9F7 PUSH0 NOT DUP5 PUSH1 0x8 MUL PUSH3 0x9DA JUMP JUMPDEST NOT DUP1 DUP4 AND SWAP2 POP POP SWAP3 SWAP2 POP POP JUMP JUMPDEST PUSH0 PUSH3 0xA11 DUP4 DUP4 PUSH3 0x9E6 JUMP JUMPDEST SWAP2 POP DUP3 PUSH1 0x2 MUL DUP3 OR SWAP1 POP SWAP3 SWAP2 POP POP JUMP JUMPDEST PUSH3 0xA2C DUP3 PUSH3 0x7EA JUMP JUMPDEST PUSH8 0xFFFFFFFFFFFFFFFF DUP2 GT ISZERO PUSH3 0xA48 JUMPI PUSH3 0xA47 PUSH3 0x57A JUMP JUMPDEST JUMPDEST PUSH3 0xA54 DUP3 SLOAD PUSH3 0x821 JUMP JUMPDEST PUSH3 0xA61 DUP3 DUP3 DUP6 PUSH3 0x98A JUMP JUMPDEST PUSH0 PUSH1 0x20 SWAP1 POP PUSH1 0x1F DUP4 GT PUSH1 0x1 DUP2 EQ PUSH3 0xA97 JUMPI PUSH0 DUP5 ISZERO PUSH3 0xA82 JUMPI DUP3 DUP8 ADD MLOAD SWAP1 POP JUMPDEST PUSH3 0xA8E DUP6 DUP3 PUSH3 0xA04 JUMP JUMPDEST DUP7 SSTORE POP PUSH3 0xAFD JUMP JUMPDEST PUSH1 0x1F NOT DUP5 AND PUSH3 0xAA7 DUP7 PUSH3 0x855 JUMP JUMPDEST PUSH0 JUMPDEST DUP3 DUP2 LT ISZERO PUSH3 0xAD0 JUMPI DUP5 DUP10 ADD MLOAD DUP3 SSTORE PUSH1 0x1 DUP3 ADD SWAP2 POP PUSH1 0x20 DUP6 ADD SWAP5 POP PUSH1 0x20 DUP2 ADD SWAP1 POP PUSH3 0xAA9 JUMP JUMPDEST DUP7 DUP4 LT ISZERO PUSH3 0xAF0 JUMPI DUP5 DUP10 ADD MLOAD PUSH3 0xAEC PUSH1 0x1F DUP10 AND DUP3 PUSH3 0x9E6 JUMP JUMPDEST DUP4 SSTORE POP JUMPDEST PUSH1 0x1 PUSH1 0x2 DUP9 MUL ADD DUP9 SSTORE POP POP POP JUMPDEST POP POP POP POP POP POP JUMP JUMPDEST PUSH32 0x4E487B7100000000000000000000000000000000000000000000000000000000 PUSH0 MSTORE PUSH1 0x21 PUSH1 0x4 MSTORE PUSH1 0x24 PUSH0 REVERT JUMPDEST PUSH0 DUP2 SWAP1 POP SWAP3 SWAP2 POP POP JUMP JUMPDEST PUSH0 PUSH3 0xB48 DUP3 PUSH3 0x7EA JUMP JUMPDEST PUSH3 0xB54 DUP2 DUP6 PUSH3 0xB32 JUMP JUMPDEST SWAP4 POP PUSH3 0xB66 DUP2 DUP6 PUSH1 0x20 DUP7 ADD PUSH3 0x630 JUMP JUMPDEST DUP1 DUP5 ADD SWAP2 POP POP SWAP3 SWAP2 POP POP JUMP JUMPDEST PUSH0 PUSH3 0xB7F DUP3 DUP5 PUSH3 0xB3C JUMP JUMPDEST SWAP2 POP DUP2 SWAP1 POP SWAP3 SWAP2 POP POP JUMP JUMPDEST PUSH2 0x3EFD DUP1 PUSH3 0xB98 PUSH0 CODECOPY PUSH0 RETURN INVALID PUSH1 0x80 PUSH1 0x40 MSTORE PUSH1 0x4 CALLDATASIZE LT PUSH2 0x20E JUMPI PUSH0 CALLDATALOAD PUSH1 0xE0 SHR DUP1 PUSH4 0x6EFA761C GT PUSH2 0x117 JUMPI DUP1 PUSH4 0xAEFEDEBD GT PUSH2 0x9F JUMPI DUP1 PUSH4 0xCE3564B4 GT PUSH2 0x6E JUMPI DUP1 PUSH4 0xCE3564B4 EQ PUSH2 0x7E6 JUMPI DUP1 PUSH4 0xDB006A75 EQ PUSH2 0x80E JUMPI DUP1 PUSH4 0xE985E9C5 EQ PUSH2 0x836 JUMPI DUP1 PUSH4 0xEC9C26BE EQ PUSH2 0x872 JUMPI DUP1 PUSH4 0xF2FDE38B EQ PUSH2 0x8AE JUMPI PUSH2 0x20E JUMP JUMPDEST DUP1 PUSH4 0xAEFEDEBD EQ PUSH2 0x72A JUMPI DUP1 PUSH4 0xB73B99A2 EQ PUSH2 0x752 JUMPI DUP1 PUSH4 0xB88D4FDE EQ PUSH2 0x78E JUMPI DUP1 PUSH4 0xC87B56DD EQ PUSH2 0x7AA JUMPI PUSH2 0x20E JUMP JUMPDEST DUP1 PUSH4 0x95D89B41 GT PUSH2 0xE6 JUMPI DUP1 PUSH4 0x95D89B41 EQ PUSH2 0x61F JUMPI DUP1 PUSH4 0x9BB097F7 EQ PUSH2 0x649 JUMPI DUP1 PUSH4 0xA22CB465 EQ PUSH2 0x68A JUMPI DUP1 PUSH4 0xA65E06E8 EQ PUSH2 0x6B2 JUMPI DUP1 PUSH4 0xA8FD4CC3 EQ PUSH2 0x6EE JUMPI PUSH2 0x20E JUMP JUMPDEST DUP1 PUSH4 0x6EFA761C EQ PUSH2 0x57B JUMPI DUP1 PUSH4 0x70A08231 EQ PUSH2 0x5A3 JUMPI DUP1 PUSH4 0x715018A6 EQ PUSH2 0x5DF JUMPI DUP1 PUSH4 0x8DA5CB5B EQ PUSH2 0x5F5 JUMPI PUSH2 0x20E JUMP JUMPDEST DUP1 PUSH4 0x23B872DD GT PUSH2 0x19A JUMPI DUP1 PUSH4 0x505C0A25 GT PUSH2 0x169 JUMPI DUP1 PUSH4 0x505C0A25 EQ PUSH2 0x477 JUMPI DUP1 PUSH4 0x51E164B7 EQ PUSH2 0x49F JUMPI DUP1 PUSH4 0x55F804B3 EQ PUSH2 0x4DB JUMPI DUP1 PUSH4 0x5AFD5EFE EQ PUSH2 0x503 JUMPI DUP1 PUSH4 0x6352211E EQ PUSH2 0x53F JUMPI PUSH2 0x20E JUMP JUMPDEST DUP1 PUSH4 0x23B872DD EQ PUSH2 0x3C7 JUMPI DUP1 PUSH4 0x24233F7E EQ PUSH2 0x3E3 JUMPI DUP1 PUSH4 0x2A4F1621 EQ PUSH2 0x41F JUMPI DUP1 PUSH4 0x42842E0E EQ PUSH2 0x45B JUMPI PUSH2 0x20E JUMP JUMPDEST DUP1 PUSH4 0xCEB57EA GT PUSH2 0x1E1 JUMPI DUP1 PUSH4 0xCEB57EA EQ PUSH2 0x2D0 JUMPI DUP1 PUSH4 0xD9005AE EQ PUSH2 0x30F JUMPI DUP1 PUSH4 0x1610CF1D EQ PUSH2 0x339 JUMPI DUP1 PUSH4 0x18160DDD EQ PUSH2 0x375 JUMPI DUP1 PUSH4 0x1AC429B2 EQ PUSH2 0x39F JUMPI PUSH2 0x20E JUMP JUMPDEST DUP1 PUSH4 0x1FFC9A7 EQ PUSH2 0x212 JUMPI DUP1 PUSH4 0x6FDDE03 EQ PUSH2 0x24E JUMPI DUP1 PUSH4 0x81812FC EQ PUSH2 0x278 JUMPI DUP1 PUSH4 0x95EA7B3 EQ PUSH2 0x2B4 JUMPI JUMPDEST PUSH0 DUP1 REVERT JUMPDEST CALLVALUE DUP1 ISZERO PUSH2 0x21D JUMPI PUSH0 DUP1 REVERT JUMPDEST POP PUSH2 0x238 PUSH1 0x4 DUP1 CALLDATASIZE SUB DUP2 ADD SWAP1 PUSH2 0x233 SWAP2 SWAP1 PUSH2 0x2C1F JUMP JUMPDEST PUSH2 0x8D6 JUMP JUMPDEST PUSH1 0x40 MLOAD PUSH2 0x245 SWAP2 SWAP1 PUSH2 0x2C64 JUMP JUMPDEST PUSH1 0x40 MLOAD DUP1 SWAP2 SUB SWAP1 RETURN JUMPDEST CALLVALUE DUP1 ISZERO PUSH2 0x259 JUMPI PUSH0 DUP1 REVERT JUMPDEST POP PUSH2 0x262 PUSH2 0x967 JUMP JUMPDEST PUSH1 0x40 MLOAD PUSH2 0x26F SWAP2 SWAP1 PUSH2 0x2D07 JUMP JUMPDEST PUSH1 0x40 MLOAD DUP1 SWAP2 SUB SWAP1 RETURN JUMPDEST CALLVALUE DUP1 ISZERO PUSH2 0x283 JUMPI PUSH0 DUP1 REVERT JUMPDEST POP PUSH2 0x29E PUSH1 0x4 DUP1 CALLDATASIZE SUB DUP2 ADD SWAP1 PUSH2 0x299 SWAP2 SWAP1 PUSH2 0x2D5A JUMP JUMPDEST PUSH2 0x9F7 JUMP JUMPDEST PUSH1 0x40 MLOAD PUSH2 0x2AB SWAP2 SWAP1 PUSH2 0x2DC4 JUMP JUMPDEST PUSH1 0x40 MLOAD DUP1 SWAP2 SUB SWAP1 RETURN JUMPDEST PUSH2 0x2CE PUSH1 0x4 DUP1 CALLDATASIZE SUB DUP2 ADD SWAP1 PUSH2 0x2C9 SWAP2 SWAP1 PUSH2 0x2E07 JUMP JUMPDEST PUSH2 0xA50 JUMP JUMPDEST STOP JUMPDEST CALLVALUE DUP1 ISZERO PUSH2 0x2DB JUMPI PUSH0 DUP1 REVERT JUMPDEST POP PUSH2 0x2F6 PUSH1 0x4 DUP1 CALLDATASIZE SUB DUP2 ADD SWAP1 PUSH2 0x2F1 SWAP2 SWAP1 PUSH2 0x2D5A JUMP JUMPDEST PUSH2 0xA60 JUMP JUMPDEST PUSH1 0x40 MLOAD PUSH2 0x306 SWAP5 SWAP4 SWAP3 SWAP2 SWAP1 PUSH2 0x2EC7 JUMP JUMPDEST PUSH1 0x40 MLOAD DUP1 SWAP2 SUB SWAP1 RETURN JUMPDEST CALLVALUE DUP1 ISZERO PUSH2 0x31A JUMPI PUSH0 DUP1 REVERT JUMPDEST POP PUSH2 0x323 PUSH2 0xA98 JUMP JUMPDEST PUSH1 0x40 MLOAD PUSH2 0x330 SWAP2 SWAP1 PUSH2 0x2F0A JUMP JUMPDEST PUSH1 0x40 MLOAD DUP1 SWAP2 SUB SWAP1 RETURN JUMPDEST CALLVALUE DUP1 ISZERO PUSH2 0x344 JUMPI PUSH0 DUP1 REVERT JUMPDEST POP PUSH2 0x35F PUSH1 0x4 DUP1 CALLDATASIZE SUB DUP2 ADD SWAP1 PUSH2 0x35A SWAP2 SWAP1 PUSH2 0x2D5A JUMP JUMPDEST PUSH2 0xAA6 JUMP JUMPDEST PUSH1 0x40 MLOAD PUSH2 0x36C SWAP2 SWAP1 PUSH2 0x2C64 JUMP JUMPDEST PUSH1 0x40 MLOAD DUP1 SWAP2 SUB SWAP1 RETURN JUMPDEST CALLVALUE DUP1 ISZERO PUSH2 0x380 JUMPI PUSH0 DUP1 REVERT JUMPDEST POP PUSH2 0x389 PUSH2 0xB5B JUMP JUMPDEST PUSH1 0x40 MLOAD PUSH2 0x396 SWAP2 SWAP1 PUSH2 0x2F0A JUMP JUMPDEST PUSH1 0x40 MLOAD DUP1 SWAP2 SUB SWAP1 RETURN JUMPDEST CALLVALUE DUP1 ISZERO PUSH2 0x3AA JUMPI PUSH0 DUP1 REVERT JUMPDEST POP PUSH2 0x3C5 PUSH1 0x4 DUP1 CALLDATASIZE SUB DUP2 ADD SWAP1 PUSH2 0x3C0 SWAP2 SWAP1 PUSH2 0x304F JUMP JUMPDEST PUSH2 0xBA7 JUMP JUMPDEST STOP JUMPDEST PUSH2 0x3E1 PUSH1 0x4 DUP1 CALLDATASIZE SUB DUP2 ADD SWAP1 PUSH2 0x3DC SWAP2 SWAP1 PUSH2 0x30BB JUMP JUMPDEST PUSH2 0xF8F JUMP JUMPDEST STOP JUMPDEST CALLVALUE DUP1 ISZERO PUSH2 0x3EE JUMPI PUSH0 DUP1 REVERT JUMPDEST POP PUSH2 0x409 PUSH1 0x4 DUP1 CALLDATASIZE SUB DUP2 ADD SWAP1 PUSH2 0x404 SWAP2 SWAP1 PUSH2 0x2D5A JUMP JUMPDEST PUSH2 0x123B JUMP JUMPDEST PUSH1 0x40 MLOAD PUSH2 0x416 SWAP2 SWAP1 PUSH2 0x310B JUMP JUMPDEST PUSH1 0x40 MLOAD DUP1 SWAP2 SUB SWAP1 RETURN JUMPDEST CALLVALUE DUP1 ISZERO PUSH2 0x42A JUMPI PUSH0 DUP1 REVERT JUMPDEST POP PUSH2 0x445 PUSH1 0x4 DUP1 CALLDATASIZE SUB DUP2 ADD SWAP1 PUSH2 0x440 SWAP2 SWAP1 PUSH2 0x3124 JUMP JUMPDEST PUSH2 0x1266 JUMP JUMPDEST PUSH1 0x40 MLOAD PUSH2 0x452 SWAP2 SWAP1 PUSH2 0x2C64 JUMP JUMPDEST PUSH1 0x40 MLOAD DUP1 SWAP2 SUB SWAP1 RETURN JUMPDEST PUSH2 0x475 PUSH1 0x4 DUP1 CALLDATASIZE SUB DUP2 ADD SWAP1 PUSH2 0x470 SWAP2 SWAP1 PUSH2 0x30BB JUMP JUMPDEST PUSH2 0x1283 JUMP JUMPDEST STOP JUMPDEST CALLVALUE DUP1 ISZERO PUSH2 0x482 JUMPI PUSH0 DUP1 REVERT JUMPDEST POP PUSH2 0x49D PUSH1 0x4 DUP1 CALLDATASIZE SUB DUP2 ADD SWAP1 PUSH2 0x498 SWAP2 SWAP1 PUSH2 0x3185 JUMP JUMPDEST PUSH2 0x12A2 JUMP JUMPDEST STOP JUMPDEST CALLVALUE DUP1 ISZERO PUSH2 0x4AA JUMPI PUSH0 DUP1 REVERT JUMPDEST POP PUSH2 0x4C5 PUSH1 0x4 DUP1 CALLDATASIZE SUB DUP2 ADD SWAP1 PUSH2 0x4C0 SWAP2 SWAP1 PUSH2 0x2D5A JUMP JUMPDEST PUSH2 0x12CD JUMP JUMPDEST PUSH1 0x40 MLOAD PUSH2 0x4D2 SWAP2 SWAP1 PUSH2 0x2F0A JUMP JUMPDEST PUSH1 0x40 MLOAD DUP1 SWAP2 SUB SWAP1 RETURN JUMPDEST CALLVALUE DUP1 ISZERO PUSH2 0x4E6 JUMPI PUSH0 DUP1 REVERT JUMPDEST POP PUSH2 0x501 PUSH1 0x4 DUP1 CALLDATASIZE SUB DUP2 ADD SWAP1 PUSH2 0x4FC SWAP2 SWAP1 PUSH2 0x329B JUMP JUMPDEST PUSH2 0x12E2 JUMP JUMPDEST STOP JUMPDEST CALLVALUE DUP1 ISZERO PUSH2 0x50E JUMPI PUSH0 DUP1 REVERT JUMPDEST POP PUSH2 0x529 PUSH1 0x4 DUP1 CALLDATASIZE SUB DUP2 ADD SWAP1 PUSH2 0x524 SWAP2 SWAP1 PUSH2 0x2D5A JUMP JUMPDEST PUSH2 0x1300 JUMP JUMPDEST PUSH1 0x40 MLOAD PUSH2 0x536 SWAP2 SWAP1 PUSH2 0x3357 JUMP JUMPDEST PUSH1 0x40 MLOAD DUP1 SWAP2 SUB SWAP1 RETURN JUMPDEST CALLVALUE DUP1 ISZERO PUSH2 0x54A JUMPI PUSH0 DUP1 REVERT JUMPDEST POP PUSH2 0x565 PUSH1 0x4 DUP1 CALLDATASIZE SUB DUP2 ADD SWAP1 PUSH2 0x560 SWAP2 SWAP1 PUSH2 0x2D5A JUMP JUMPDEST PUSH2 0x1382 JUMP JUMPDEST PUSH1 0x40 MLOAD PUSH2 0x572 SWAP2 SWAP1 PUSH2 0x2DC4 JUMP JUMPDEST PUSH1 0x40 MLOAD DUP1 SWAP2 SUB SWAP1 RETURN JUMPDEST CALLVALUE DUP1 ISZERO PUSH2 0x586 JUMPI PUSH0 DUP1 REVERT JUMPDEST POP PUSH2 0x5A1 PUSH1 0x4 DUP1 CALLDATASIZE SUB DUP2 ADD SWAP1 PUSH2 0x59C SWAP2 SWAP1 PUSH2 0x3124 JUMP JUMPDEST PUSH2 0x1393 JUMP JUMPDEST STOP JUMPDEST CALLVALUE DUP1 ISZERO PUSH2 0x5AE JUMPI PUSH0 DUP1 REVERT JUMPDEST POP PUSH2 0x5C9 PUSH1 0x4 DUP1 CALLDATASIZE SUB DUP2 ADD SWAP1 PUSH2 0x5C4 SWAP2 SWAP1 PUSH2 0x3124 JUMP JUMPDEST PUSH2 0x13DE JUMP JUMPDEST PUSH1 0x40 MLOAD PUSH2 0x5D6 SWAP2 SWAP1 PUSH2 0x2F0A JUMP JUMPDEST PUSH1 0x40 MLOAD DUP1 SWAP2 SUB SWAP1 RETURN JUMPDEST CALLVALUE DUP1 ISZERO PUSH2 0x5EA JUMPI PUSH0 DUP1 REVERT JUMPDEST POP PUSH2 0x5F3 PUSH2 0x1472 JUMP JUMPDEST STOP JUMPDEST CALLVALUE DUP1 ISZERO PUSH2 0x600 JUMPI PUSH0 DUP1 REVERT JUMPDEST POP PUSH2 0x609 PUSH2 0x1485 JUMP JUMPDEST PUSH1 0x40 MLOAD PUSH2 0x616 SWAP2 SWAP1 PUSH2 0x2DC4 JUMP JUMPDEST PUSH1 0x40 MLOAD DUP1 SWAP2 SUB SWAP1 RETURN JUMPDEST CALLVALUE DUP1 ISZERO PUSH2 0x62A JUMPI PUSH0 DUP1 REVERT JUMPDEST POP PUSH2 0x633 PUSH2 0x14AC JUMP JUMPDEST PUSH1 0x40 MLOAD PUSH2 0x640 SWAP2 SWAP1 PUSH2 0x2D07 JUMP JUMPDEST PUSH1 0x40 MLOAD DUP1 SWAP2 SUB SWAP1 RETURN JUMPDEST CALLVALUE DUP1 ISZERO PUSH2 0x654 JUMPI PUSH0 DUP1 REVERT JUMPDEST POP PUSH2 0x66F PUSH1 0x4 DUP1 CALLDATASIZE SUB DUP2 ADD SWAP1 PUSH2 0x66A SWAP2 SWAP1 PUSH2 0x3370 JUMP JUMPDEST PUSH2 0x153C JUMP JUMPDEST PUSH1 0x40 MLOAD PUSH2 0x681 SWAP7 SWAP6 SWAP5 SWAP4 SWAP3 SWAP2 SWAP1 PUSH2 0x33B7 JUMP JUMPDEST PUSH1 0x40 MLOAD DUP1 SWAP2 SUB SWAP1 RETURN JUMPDEST CALLVALUE DUP1 ISZERO PUSH2 0x695 JUMPI PUSH0 DUP1 REVERT JUMPDEST POP PUSH2 0x6B0 PUSH1 0x4 DUP1 CALLDATASIZE SUB DUP2 ADD SWAP1 PUSH2 0x6AB SWAP2 SWAP1 PUSH2 0x3440 JUMP JUMPDEST PUSH2 0x1598 JUMP JUMPDEST STOP JUMPDEST CALLVALUE DUP1 ISZERO PUSH2 0x6BD JUMPI PUSH0 DUP1 REVERT JUMPDEST POP PUSH2 0x6D8 PUSH1 0x4 DUP1 CALLDATASIZE SUB DUP2 ADD SWAP1 PUSH2 0x6D3 SWAP2 SWAP1 PUSH2 0x2D5A JUMP JUMPDEST PUSH2 0x169E JUMP JUMPDEST PUSH1 0x40 MLOAD PUSH2 0x6E5 SWAP2 SWAP1 PUSH2 0x2C64 JUMP JUMPDEST PUSH1 0x40 MLOAD DUP1 SWAP2 SUB SWAP1 RETURN JUMPDEST CALLVALUE DUP1 ISZERO PUSH2 0x6F9 JUMPI PUSH0 DUP1 REVERT JUMPDEST POP PUSH2 0x714 PUSH1 0x4 DUP1 CALLDATASIZE SUB DUP2 ADD SWAP1 PUSH2 0x70F SWAP2 SWAP1 PUSH2 0x3370 JUMP JUMPDEST PUSH2 0x16BB JUMP JUMPDEST PUSH1 0x40 MLOAD PUSH2 0x721 SWAP2 SWAP1 PUSH2 0x2C64 JUMP JUMPDEST PUSH1 0x40 MLOAD DUP1 SWAP2 SUB SWAP1 RETURN JUMPDEST CALLVALUE DUP1 ISZERO PUSH2 0x735 JUMPI PUSH0 DUP1 REVERT JUMPDEST POP PUSH2 0x750 PUSH1 0x4 DUP1 CALLDATASIZE SUB DUP2 ADD SWAP1 PUSH2 0x74B SWAP2 SWAP1 PUSH2 0x347E JUMP JUMPDEST PUSH2 0x17AF JUMP JUMPDEST STOP JUMPDEST CALLVALUE DUP1 ISZERO PUSH2 0x75D JUMPI PUSH0 DUP1 REVERT JUMPDEST POP PUSH2 0x778 PUSH1 0x4 DUP1 CALLDATASIZE SUB DUP2 ADD SWAP1 PUSH2 0x773 SWAP2 SWAP1 PUSH2 0x2D5A JUMP JUMPDEST PUSH2 0x18D1 JUMP JUMPDEST PUSH1 0x40 MLOAD PUSH2 0x785 SWAP2 SWAP1 PUSH2 0x2F0A JUMP JUMPDEST PUSH1 0x40 MLOAD DUP1 SWAP2 SUB SWAP1 RETURN JUMPDEST PUSH2 0x7A8 PUSH1 0x4 DUP1 CALLDATASIZE SUB DUP2 ADD SWAP1 PUSH2 0x7A3 SWAP2 SWAP1 PUSH2 0x355A JUMP JUMPDEST PUSH2 0x18E6 JUMP JUMPDEST STOP JUMPDEST CALLVALUE DUP1 ISZERO PUSH2 0x7B5 JUMPI PUSH0 DUP1 REVERT JUMPDEST POP PUSH2 0x7D0 PUSH1 0x4 DUP1 CALLDATASIZE SUB DUP2 ADD SWAP1 PUSH2 0x7CB SWAP2 SWAP1 PUSH2 0x2D5A JUMP JUMPDEST PUSH2 0x1937 JUMP JUMPDEST PUSH1 0x40 MLOAD PUSH2 0x7DD SWAP2 SWAP1 PUSH2 0x2D07 JUMP JUMPDEST PUSH1 0x40 MLOAD DUP1 SWAP2 SUB SWAP1 RETURN JUMPDEST CALLVALUE DUP1 ISZERO PUSH2 0x7F1 JUMPI PUSH0 DUP1 REVERT JUMPDEST POP PUSH2 0x80C PUSH1 0x4 DUP1 CALLDATASIZE SUB DUP2 ADD SWAP1 PUSH2 0x807 SWAP2 SWAP1 PUSH2 0x3440 JUMP JUMPDEST PUSH2 0x19D2 JUMP JUMPDEST STOP JUMPDEST CALLVALUE DUP1 ISZERO PUSH2 0x819 JUMPI PUSH0 DUP1 REVERT JUMPDEST POP PUSH2 0x834 PUSH1 0x4 DUP1 CALLDATASIZE SUB DUP2 ADD SWAP1 PUSH2 0x82F SWAP2 SWAP1 PUSH2 0x2D5A JUMP JUMPDEST PUSH2 0x1A32 JUMP JUMPDEST STOP JUMPDEST CALLVALUE DUP1 ISZERO PUSH2 0x841 JUMPI PUSH0 DUP1 REVERT JUMPDEST POP PUSH2 0x85C PUSH1 0x4 DUP1 CALLDATASIZE SUB DUP2 ADD SWAP1 PUSH2 0x857 SWAP2 SWAP1 PUSH2 0x35DA JUMP JUMPDEST PUSH2 0x1A46 JUMP JUMPDEST PUSH1 0x40 MLOAD PUSH2 0x869 SWAP2 SWAP1 PUSH2 0x2C64 JUMP JUMPDEST PUSH1 0x40 MLOAD DUP1 SWAP2 SUB SWAP1 RETURN JUMPDEST CALLVALUE DUP1 ISZERO PUSH2 0x87D JUMPI PUSH0 DUP1 REVERT JUMPDEST POP PUSH2 0x898 PUSH1 0x4 DUP1 CALLDATASIZE SUB DUP2 ADD SWAP1 PUSH2 0x893 SWAP2 SWAP1 PUSH2 0x3370 JUMP JUMPDEST PUSH2 0x1AD4 JUMP JUMPDEST PUSH1 0x40 MLOAD PUSH2 0x8A5 SWAP2 SWAP1 PUSH2 0x2F0A JUMP JUMPDEST PUSH1 0x40 MLOAD DUP1 SWAP2 SUB SWAP1 RETURN JUMPDEST CALLVALUE DUP1 ISZERO PUSH2 0x8B9 JUMPI PUSH0 DUP1 REVERT JUMPDEST POP PUSH2 0x8D4 PUSH1 0x4 DUP1 CALLDATASIZE SUB DUP2 ADD SWAP1 PUSH2 0x8CF SWAP2 SWAP1 PUSH2 0x3124 JUMP JUMPDEST PUSH2 0x1B01 JUMP JUMPDEST STOP JUMPDEST PUSH0 PUSH4 0x1FFC9A7 PUSH1 0xE0 SHL DUP3 PUSH28 0xFFFFFFFFFFFFFFFFFFFFFFFFFFFFFFFFFFFFFFFFFFFFFFFFFFFFFFFF NOT AND EQ DUP1 PUSH2 0x930 JUMPI POP PUSH4 0x80AC58CD PUSH1 0xE0 SHL DUP3 PUSH28 0xFFFFFFFFFFFFFFFFFFFFFFFFFFFFFFFFFFFFFFFFFFFFFFFFFFFFFFFF NOT AND EQ JUMPDEST DUP1 PUSH2 0x960 JUMPI POP PUSH4 0x5B5E139F PUSH1 0xE0 SHL DUP3 PUSH28 0xFFFFFFFFFFFFFFFFFFFFFFFFFFFFFFFFFFFFFFFFFFFFFFFFFFFFFFFF NOT AND EQ JUMPDEST SWAP1 POP SWAP2 SWAP1 POP JUMP JUMPDEST PUSH1 0x60 PUSH1 0x3 DUP1 SLOAD PUSH2 0x976 SWAP1 PUSH2 0x3645 JUMP JUMPDEST DUP1 PUSH1 0x1F ADD PUSH1 0x20 DUP1 SWAP2 DIV MUL PUSH1 0x20 ADD PUSH1 0x40 MLOAD SWAP1 DUP2 ADD PUSH1 0x40 MSTORE DUP1 SWAP3 SWAP2 SWAP1 DUP2 DUP2 MSTORE PUSH1 0x20 ADD DUP3 DUP1 SLOAD PUSH2 0x9A2 SWAP1 PUSH2 0x3645 JUMP JUMPDEST DUP1 ISZERO PUSH2 0x9ED JUMPI DUP1 PUSH1 0x1F LT PUSH2 0x9C4 JUMPI PUSH2 0x100 DUP1 DUP4 SLOAD DIV MUL DUP4 MSTORE SWAP2 PUSH1 0x20 ADD SWAP2 PUSH2 0x9ED JUMP JUMPDEST DUP3 ADD SWAP2 SWAP1 PUSH0 MSTORE PUSH1 0x20 PUSH0 KECCAK256 SWAP1 JUMPDEST DUP2 SLOAD DUP2 MSTORE SWAP1 PUSH1 0x1 ADD SWAP1 PUSH1 0x20 ADD DUP1 DUP4 GT PUSH2 0x9D0 JUMPI DUP3 SWAP1 SUB PUSH1 0x1F AND DUP3 ADD SWAP2 JUMPDEST POP POP POP POP POP SWAP1 POP SWAP1 JUMP JUMPDEST PUSH0 PUSH2 0xA01 DUP3 PUSH2 0x1B85 JUMP JUMPDEST PUSH2 0xA16 JUMPI PUSH2 0xA15 PUSH4 0xCF4700E4 PUSH1 0xE0 SHL PUSH2 0x1C29 JUMP JUMPDEST JUMPDEST PUSH1 0x7 PUSH0 DUP4 DUP2 MSTORE PUSH1 0x20 ADD SWAP1 DUP2 MSTORE PUSH1 0x20 ADD PUSH0 KECCAK256 PUSH0 ADD PUSH0 SWAP1 SLOAD SWAP1 PUSH2 0x100 EXP SWAP1 DIV PUSH20 0xFFFFFFFFFFFFFFFFFFFFFFFFFFFFFFFFFFFFFFFF AND SWAP1 POP SWAP2 SWAP1 POP JUMP JUMPDEST PUSH2 0xA5C DUP3 DUP3 PUSH1 0x1 PUSH2 0x1C31 JUMP JUMPDEST POP POP JUMP JUMPDEST PUSH1 0xE PUSH1 0x20 MSTORE DUP1 PUSH0 MSTORE PUSH1 0x40 PUSH0 KECCAK256 PUSH0 SWAP2 POP SWAP1 POP DUP1 PUSH0 ADD PUSH0 SWAP1 SLOAD SWAP1 PUSH2 0x100 EXP SWAP1 DIV PUSH1 0xFF AND SWAP1 DUP1 PUSH1 0x1 ADD SLOAD SWAP1 DUP1 PUSH1 0x2 ADD SLOAD SWAP1 DUP1 PUSH1 0x3 ADD SLOAD SWAP1 POP DUP5 JUMP JUMPDEST PUSH0 PUSH2 0xAA1 PUSH2 0x1D5B JUMP JUMPDEST SWAP1 POP SWAP1 JUMP JUMPDEST PUSH0 DUP1 PUSH1 0xE PUSH0 DUP5 DUP2 MSTORE PUSH1 0x20 ADD SWAP1 DUP2 MSTORE PUSH1 0x20 ADD PUSH0 KECCAK256 PUSH1 0x40 MLOAD DUP1 PUSH1 0x80 ADD PUSH1 0x40 MSTORE SWAP1 DUP2 PUSH0 DUP3 ADD PUSH0 SWAP1 SLOAD SWAP1 PUSH2 0x100 EXP SWAP1 DIV PUSH1 0xFF AND PUSH1 0x2 DUP2 GT ISZERO PUSH2 0xAE7 JUMPI PUSH2 0xAE6 PUSH2 0x2E45 JUMP JUMPDEST JUMPDEST PUSH1 0x2 DUP2 GT ISZERO PUSH2 0xAF9 JUMPI PUSH2 0xAF8 PUSH2 0x2E45 JUMP JUMPDEST JUMPDEST DUP2 MSTORE PUSH1 0x20 ADD PUSH1 0x1 DUP3 ADD SLOAD DUP2 MSTORE PUSH1 0x20 ADD PUSH1 0x2 DUP3 ADD SLOAD DUP2 MSTORE PUSH1 0x20 ADD PUSH1 0x3 DUP3 ADD SLOAD DUP2 MSTORE POP POP SWAP1 POP PUSH0 DUP2 PUSH1 0x20 ADD MLOAD EQ DUP1 ISZERO PUSH2 0xB33 JUMPI POP PUSH0 DUP2 PUSH1 0x60 ADD MLOAD EQ JUMPDEST DUP1 ISZERO PUSH2 0xB42 JUMPI POP PUSH0 DUP2 PUSH1 0x40 ADD MLOAD EQ JUMPDEST ISZERO PUSH2 0xB50 JUMPI PUSH0 SWAP2 POP POP PUSH2 0xB56 JUMP JUMPDEST PUSH1 0x1 SWAP2 POP POP JUMPDEST SWAP2 SWAP1 POP JUMP JUMPDEST PUSH0 PUSH2 0xB64 PUSH2 0x1D64 JUMP JUMPDEST PUSH1 0x2 SLOAD PUSH1 0x1 SLOAD SUB SUB SWAP1 POP PUSH32 0xFFFFFFFFFFFFFFFFFFFFFFFFFFFFFFFFFFFFFFFFFFFFFFFFFFFFFFFFFFFFFFFF PUSH2 0xB97 PUSH2 0x1D6E JUMP JUMPDEST EQ PUSH2 0xBA4 JUMPI PUSH1 0x9 SLOAD DUP2 ADD SWAP1 POP JUMPDEST SWAP1 JUMP JUMPDEST PUSH0 PUSH20 0xFFFFFFFFFFFFFFFFFFFFFFFFFFFFFFFFFFFFFFFF AND PUSH1 0x13 PUSH0 SWAP1 SLOAD SWAP1 PUSH2 0x100 EXP SWAP1 DIV PUSH20 0xFFFFFFFFFFFFFFFFFFFFFFFFFFFFFFFFFFFFFFFF AND PUSH20 0xFFFFFFFFFFFFFFFFFFFFFFFFFFFFFFFFFFFFFFFF AND SUB PUSH2 0xC36 JUMPI PUSH1 0x40 MLOAD PUSH32 0x8C379A000000000000000000000000000000000000000000000000000000000 DUP2 MSTORE PUSH1 0x4 ADD PUSH2 0xC2D SWAP1 PUSH2 0x36BF JUMP JUMPDEST PUSH1 0x40 MLOAD DUP1 SWAP2 SUB SWAP1 REVERT JUMPDEST PUSH1 0x10 PUSH0 DUP5 DUP2 MSTORE PUSH1 0x20 ADD SWAP1 DUP2 MSTORE PUSH1 0x20 ADD PUSH0 KECCAK256 PUSH0 SWAP1 SLOAD SWAP1 PUSH2 0x100 EXP SWAP1 DIV PUSH1 0xFF AND ISZERO PUSH2 0xC94 JUMPI PUSH1 0x40 MLOAD PUSH32 0x8C379A000000000000000000000000000000000000000000000000000000000 DUP2 MSTORE PUSH1 0x4 ADD PUSH2 0xC8B SWAP1 PUSH2 0x3727 JUMP JUMPDEST PUSH1 0x40 MLOAD DUP1 SWAP2 SUB SWAP1 REVERT JUMPDEST PUSH2 0xC9D DUP3 PUSH2 0x16BB JUMP JUMPDEST PUSH2 0xCDC JUMPI PUSH1 0x40 MLOAD PUSH32 0x8C379A000000000000000000000000000000000000000000000000000000000 DUP2 MSTORE PUSH1 0x4 ADD PUSH2 0xCD3 SWAP1 PUSH2 0x378F JUMP JUMPDEST PUSH1 0x40 MLOAD DUP1 SWAP2 SUB SWAP1 REVERT JUMPDEST PUSH1 0x11 PUSH0 DUP3 PUSH20 0xFFFFFFFFFFFFFFFFFFFFFFFFFFFFFFFFFFFFFFFF AND PUSH20 0xFFFFFFFFFFFFFFFFFFFFFFFFFFFFFFFFFFFFFFFF AND DUP2 MSTORE PUSH1 0x20 ADD SWAP1 DUP2 MSTORE PUSH1 0x20 ADD PUSH0 KECCAK256 PUSH0 SWAP1 SLOAD SWAP1 PUSH2 0x100 EXP SWAP1 DIV PUSH1 0xFF AND PUSH2 0xD65 JUMPI PUSH1 0x40 MLOAD PUSH32 0x8C379A000000000000000000000000000000000000000000000000000000000 DUP2 MSTORE PUSH1 0x4 ADD PUSH2 0xD5C SWAP1 PUSH2 0x37F7 JUMP JUMPDEST PUSH1 0x40 MLOAD DUP1 SWAP2 SUB SWAP1 REVERT JUMPDEST PUSH0 PUSH1 0xD DUP4 PUSH1 0x40 MLOAD PUSH2 0xD76 SWAP2 SWAP1 PUSH2 0x384F JUMP JUMPDEST SWAP1 DUP2 MSTORE PUSH1 0x20 ADD PUSH1 0x40 MLOAD DUP1 SWAP2 SUB SWAP1 KECCAK256 PUSH1 0x40 MLOAD DUP1 PUSH1 0xC0 ADD PUSH1 0x40 MSTORE SWAP1 DUP2 PUSH0 DUP3 ADD PUSH0 SWAP1 SLOAD SWAP1 PUSH2 0x100 EXP SWAP1 DIV PUSH1 0xFF AND PUSH1 0x2 DUP2 GT ISZERO PUSH2 0xDB2 JUMPI PUSH2 0xDB1 PUSH2 0x2E45 JUMP JUMPDEST JUMPDEST PUSH1 0x2 DUP2 GT ISZERO PUSH2 0xDC4 JUMPI PUSH2 0xDC3 PUSH2 0x2E45 JUMP JUMPDEST JUMPDEST DUP2 MSTORE PUSH1 0x20 ADD PUSH1 0x1 DUP3 ADD SLOAD DUP2 MSTORE PUSH1 0x20 ADD PUSH1 0x2 DUP3 ADD SLOAD DUP2 MSTORE PUSH1 0x20 ADD PUSH1 0x3 DUP3 ADD SLOAD DUP2 MSTORE PUSH1 0x20 ADD PUSH1 0x4 DUP3 ADD SLOAD DUP2 MSTORE PUSH1 0x20 ADD PUSH1 0x5 DUP3 ADD SLOAD DUP2 MSTORE POP POP SWAP1 POP PUSH0 DUP2 PUSH1 0xA0 ADD MLOAD SWAP1 POP PUSH0 PUSH1 0xF DUP6 PUSH1 0x40 MLOAD PUSH2 0xE15 SWAP2 SWAP1 PUSH2 0x384F JUMP JUMPDEST SWAP1 DUP2 MSTORE PUSH1 0x20 ADD PUSH1 0x40 MLOAD DUP1 SWAP2 SUB SWAP1 KECCAK256 SLOAD SWAP1 POP DUP2 PUSH1 0x1 DUP3 PUSH2 0xE34 SWAP2 SWAP1 PUSH2 0x3892 JUMP JUMPDEST GT ISZERO PUSH2 0xE75 JUMPI PUSH1 0x40 MLOAD PUSH32 0x8C379A000000000000000000000000000000000000000000000000000000000 DUP2 MSTORE PUSH1 0x4 ADD PUSH2 0xE6C SWAP1 PUSH2 0x3935 JUMP JUMPDEST PUSH1 0x40 MLOAD DUP1 SWAP2 SUB SWAP1 REVERT JUMPDEST PUSH0 DUP4 PUSH1 0x80 ADD MLOAD SWAP1 POP PUSH2 0xECB CALLER PUSH1 0x13 PUSH0 SWAP1 SLOAD SWAP1 PUSH2 0x100 EXP SWAP1 DIV PUSH20 0xFFFFFFFFFFFFFFFFFFFFFFFFFFFFFFFFFFFFFFFF AND DUP4 DUP9 PUSH20 0xFFFFFFFFFFFFFFFFFFFFFFFFFFFFFFFFFFFFFFFF AND PUSH2 0x1D95 SWAP1 SWAP4 SWAP3 SWAP2 SWAP1 PUSH4 0xFFFFFFFF AND JUMP JUMPDEST PUSH0 PUSH2 0xED4 PUSH2 0x1D5B JUMP JUMPDEST SWAP1 POP PUSH2 0xEF2 DUP2 DUP7 PUSH0 ADD MLOAD DUP8 PUSH1 0x40 ADD MLOAD DUP9 PUSH1 0x20 ADD MLOAD DUP10 PUSH1 0x60 ADD MLOAD PUSH2 0x1E17 JUMP JUMPDEST PUSH1 0xF DUP8 PUSH1 0x40 MLOAD PUSH2 0xF02 SWAP2 SWAP1 PUSH2 0x384F JUMP JUMPDEST SWAP1 DUP2 MSTORE PUSH1 0x20 ADD PUSH1 0x40 MLOAD DUP1 SWAP2 SUB SWAP1 KECCAK256 PUSH0 DUP2 SLOAD DUP1 SWAP3 SWAP2 SWAP1 PUSH2 0xF20 SWAP1 PUSH2 0x3953 JUMP JUMPDEST SWAP2 SWAP1 POP SSTORE POP DUP1 PUSH1 0xB PUSH0 DUP11 DUP2 MSTORE PUSH1 0x20 ADD SWAP1 DUP2 MSTORE PUSH1 0x20 ADD PUSH0 KECCAK256 DUP2 SWAP1 SSTORE POP DUP8 PUSH1 0xC PUSH0 DUP4 DUP2 MSTORE PUSH1 0x20 ADD SWAP1 DUP2 MSTORE PUSH1 0x20 ADD PUSH0 KECCAK256 DUP2 SWAP1 SSTORE POP PUSH1 0x1 PUSH1 0x10 PUSH0 DUP11 DUP2 MSTORE PUSH1 0x20 ADD SWAP1 DUP2 MSTORE PUSH1 0x20 ADD PUSH0 KECCAK256 PUSH0 PUSH2 0x100 EXP DUP2 SLOAD DUP2 PUSH1 0xFF MUL NOT AND SWAP1 DUP4 ISZERO ISZERO MUL OR SWAP1 SSTORE POP PUSH2 0xF85 CALLER PUSH1 0x1 PUSH2 0x1EB5 JUMP JUMPDEST POP POP POP POP POP POP POP POP JUMP JUMPDEST PUSH0 PUSH2 0xF99 DUP3 PUSH2 0x1ED2 JUMP JUMPDEST SWAP1 POP PUSH20 0xFFFFFFFFFFFFFFFFFFFFFFFFFFFFFFFFFFFFFFFF DUP5 PUSH20 0xFFFFFFFFFFFFFFFFFFFFFFFFFFFFFFFFFFFFFFFF AND AND SWAP4 POP DUP4 PUSH20 0xFFFFFFFFFFFFFFFFFFFFFFFFFFFFFFFFFFFFFFFF AND DUP2 PUSH20 0xFFFFFFFFFFFFFFFFFFFFFFFFFFFFFFFFFFFFFFFF AND EQ PUSH2 0x100E JUMPI PUSH2 0x100D PUSH4 0xA1148100 PUSH1 0xE0 SHL PUSH2 0x1C29 JUMP JUMPDEST JUMPDEST PUSH0 DUP1 PUSH2 0x1019 DUP5 PUSH2 0x1FE2 JUMP JUMPDEST SWAP2 POP SWAP2 POP PUSH2 0x102F DUP2 DUP8 PUSH2 0x102A PUSH2 0x2005 JUMP JUMPDEST PUSH2 0x200C JUMP JUMPDEST PUSH2 0x105A JUMPI PUSH2 0x1044 DUP7 PUSH2 0x103F PUSH2 0x2005 JUMP JUMPDEST PUSH2 0x1A46 JUMP JUMPDEST PUSH2 0x1059 JUMPI PUSH2 0x1058 PUSH4 0x59C896BE PUSH1 0xE0 SHL PUSH2 0x1C29 JUMP JUMPDEST JUMPDEST JUMPDEST PUSH2 0x1067 DUP7 DUP7 DUP7 PUSH1 0x1 PUSH2 0x204F JUMP JUMPDEST DUP1 ISZERO PUSH2 0x1071 JUMPI PUSH0 DUP3 SSTORE JUMPDEST PUSH1 0x6 PUSH0 DUP8 PUSH20 0xFFFFFFFFFFFFFFFFFFFFFFFFFFFFFFFFFFFFFFFF AND PUSH20 0xFFFFFFFFFFFFFFFFFFFFFFFFFFFFFFFFFFFFFFFF AND DUP2 MSTORE PUSH1 0x20 ADD SWAP1 DUP2 MSTORE PUSH1 0x20 ADD PUSH0 KECCAK256 PUSH0 DUP2 SLOAD PUSH1 0x1 SWAP1 SUB SWAP2 SWAP1 POP DUP2 SWAP1 SSTORE POP PUSH1 0x6 PUSH0 DUP7 PUSH20 0xFFFFFFFFFFFFFFFFFFFFFFFFFFFFFFFFFFFFFFFF AND PUSH20 0xFFFFFFFFFFFFFFFFFFFFFFFFFFFFFFFFFFFFFFFF AND DUP2 MSTORE PUSH1 0x20 ADD SWAP1 DUP2 MSTORE PUSH1 0x20 ADD PUSH0 KECCAK256 PUSH0 DUP2 SLOAD PUSH1 0x1 ADD SWAP2 SWAP1 POP DUP2 SWAP1 SSTORE POP PUSH2 0x1139 DUP6 PUSH2 0x1115 DUP9 DUP9 DUP8 PUSH2 0x2055 JUMP JUMPDEST PUSH29 0x200000000000000000000000000000000000000000000000000000000 OR PUSH2 0x207C JUMP JUMPDEST PUSH1 0x5 PUSH0 DUP7 DUP2 MSTORE PUSH1 0x20 ADD SWAP1 DUP2 MSTORE PUSH1 0x20 ADD PUSH0 KECCAK256 DUP2 SWAP1 SSTORE POP PUSH0 PUSH29 0x200000000000000000000000000000000000000000000000000000000 DUP5 AND SUB PUSH2 0x11B6 JUMPI PUSH0 PUSH1 0x1 DUP6 ADD SWAP1 POP PUSH0 PUSH1 0x5 PUSH0 DUP4 DUP2 MSTORE PUSH1 0x20 ADD SWAP1 DUP2 MSTORE PUSH1 0x20 ADD PUSH0 KECCAK256 SLOAD SUB PUSH2 0x11B4 JUMPI PUSH1 0x1 SLOAD DUP2 EQ PUSH2 0x11B3 JUMPI DUP4 PUSH1 0x5 PUSH0 DUP4 DUP2 MSTORE PUSH1 0x20 ADD SWAP1 DUP2 MSTORE PUSH1 0x20 ADD PUSH0 KECCAK256 DUP2 SWAP1 SSTORE POP JUMPDEST JUMPDEST POP JUMPDEST PUSH0 PUSH20 0xFFFFFFFFFFFFFFFFFFFFFFFFFFFFFFFFFFFFFFFF DUP7 PUSH20 0xFFFFFFFFFFFFFFFFFFFFFFFFFFFFFFFFFFFFFFFF AND AND SWAP1 POP DUP5 DUP2 DUP9 PUSH32 0xDDF252AD1BE2C89B69C2B068FC378DAA952BA7F163C4A11628F55A4DF523B3EF PUSH0 DUP1 LOG4 PUSH0 DUP2 SUB PUSH2 0x1225 JUMPI PUSH2 0x1224 PUSH4 0xEA553B34 PUSH1 0xE0 SHL PUSH2 0x1C29 JUMP JUMPDEST JUMPDEST PUSH2 0x1232 DUP8 DUP8 DUP8 PUSH1 0x1 PUSH2 0x20A6 JUMP JUMPDEST POP POP POP POP POP POP POP JUMP JUMPDEST PUSH0 DUP1 DUP3 SUB PUSH2 0x124B JUMPI PUSH0 SWAP1 POP PUSH2 0x1261 JUMP JUMPDEST PUSH1 0x1 DUP3 SUB PUSH2 0x125C JUMPI PUSH1 0x1 SWAP1 POP PUSH2 0x1261 JUMP JUMPDEST PUSH1 0x2 SWAP1 POP JUMPDEST SWAP2 SWAP1 POP JUMP JUMPDEST PUSH1 0x11 PUSH1 0x20 MSTORE DUP1 PUSH0 MSTORE PUSH1 0x40 PUSH0 KECCAK256 PUSH0 SWAP2 POP SLOAD SWAP1 PUSH2 0x100 EXP SWAP1 DIV PUSH1 0xFF AND DUP2 JUMP JUMPDEST PUSH2 0x129D DUP4 DUP4 DUP4 PUSH1 0x40 MLOAD DUP1 PUSH1 0x20 ADD PUSH1 0x40 MSTORE DUP1 PUSH0 DUP2 MSTORE POP PUSH2 0x18E6 JUMP JUMPDEST POP POP POP JUMP JUMPDEST PUSH2 0x12AA PUSH2 0x20AC JUMP JUMPDEST PUSH2 0x12C4 DUP8 PUSH2 0x12BA DUP9 PUSH1 0xFF AND PUSH2 0x123B JUMP JUMPDEST DUP8 DUP8 DUP8 DUP8 DUP8 PUSH2 0x2133 JUMP JUMPDEST POP POP POP POP POP POP POP JUMP JUMPDEST PUSH1 0xC PUSH1 0x20 MSTORE DUP1 PUSH0 MSTORE PUSH1 0x40 PUSH0 KECCAK256 PUSH0 SWAP2 POP SWAP1 POP SLOAD DUP2 JUMP JUMPDEST PUSH2 0x12EA PUSH2 0x20AC JUMP JUMPDEST DUP2 DUP2 PUSH1 0xA SWAP2 DUP3 PUSH2 0x12FB SWAP3 SWAP2 SWAP1 PUSH2 0x3B41 JUMP JUMPDEST POP POP POP JUMP JUMPDEST PUSH2 0x1308 PUSH2 0x2B83 JUMP JUMPDEST PUSH1 0xE PUSH0 DUP4 DUP2 MSTORE PUSH1 0x20 ADD SWAP1 DUP2 MSTORE PUSH1 0x20 ADD PUSH0 KECCAK256 PUSH1 0x40 MLOAD DUP1 PUSH1 0x80 ADD PUSH1 0x40 MSTORE SWAP1 DUP2 PUSH0 DUP3 ADD PUSH0 SWAP1 SLOAD SWAP1 PUSH2 0x100 EXP SWAP1 DIV PUSH1 0xFF AND PUSH1 0x2 DUP2 GT ISZERO PUSH2 0x1347 JUMPI PUSH2 0x1346 PUSH2 0x2E45 JUMP JUMPDEST JUMPDEST PUSH1 0x2 DUP2 GT ISZERO PUSH2 0x1359 JUMPI PUSH2 0x1358 PUSH2 0x2E45 JUMP JUMPDEST JUMPDEST DUP2 MSTORE PUSH1 0x20 ADD PUSH1 0x1 DUP3 ADD SLOAD DUP2 MSTORE PUSH1 0x20 ADD PUSH1 0x2 DUP3 ADD SLOAD DUP2 MSTORE PUSH1 0x20 ADD PUSH1 0x3 DUP3 ADD SLOAD DUP2 MSTORE POP POP SWAP1 POP SWAP2 SWAP1 POP JUMP JUMPDEST PUSH0 PUSH2 0x138C DUP3 PUSH2 0x1ED2 JUMP JUMPDEST SWAP1 POP SWAP2 SWAP1 POP JUMP JUMPDEST PUSH2 0x139B PUSH2 0x20AC JUMP JUMPDEST DUP1 PUSH1 0x13 PUSH0 PUSH2 0x100 EXP DUP2 SLOAD DUP2 PUSH20 0xFFFFFFFFFFFFFFFFFFFFFFFFFFFFFFFFFFFFFFFF MUL NOT AND SWAP1 DUP4 PUSH20 0xFFFFFFFFFFFFFFFFFFFFFFFFFFFFFFFFFFFFFFFF AND MUL OR SWAP1 SSTORE POP POP JUMP JUMPDEST PUSH0 DUP1 PUSH20 0xFFFFFFFFFFFFFFFFFFFFFFFFFFFFFFFFFFFFFFFF AND DUP3 PUSH20 0xFFFFFFFFFFFFFFFFFFFFFFFFFFFFFFFFFFFFFFFF AND SUB PUSH2 0x1423 JUMPI PUSH2 0x1422 PUSH4 0x8F4EB604 PUSH1 0xE0 SHL PUSH2 0x1C29 JUMP JUMPDEST JUMPDEST PUSH8 0xFFFFFFFFFFFFFFFF PUSH1 0x6 PUSH0 DUP5 PUSH20 0xFFFFFFFFFFFFFFFFFFFFFFFFFFFFFFFFFFFFFFFF AND PUSH20 0xFFFFFFFFFFFFFFFFFFFFFFFFFFFFFFFFFFFFFFFF AND DUP2 MSTORE PUSH1 0x20 ADD SWAP1 DUP2 MSTORE PUSH1 0x20 ADD PUSH0 KECCAK256 SLOAD AND SWAP1 POP SWAP2 SWAP1 POP JUMP JUMPDEST PUSH2 0x147A PUSH2 0x20AC JUMP JUMPDEST PUSH2 0x1483 PUSH0 PUSH2 0x2200 JUMP JUMPDEST JUMP JUMPDEST PUSH0 DUP1 PUSH0 SWAP1 SLOAD SWAP1 PUSH2 0x100 EXP SWAP1 DIV PUSH20 0xFFFFFFFFFFFFFFFFFFFFFFFFFFFFFFFFFFFFFFFF AND SWAP1 POP SWAP1 JUMP JUMPDEST PUSH1 0x60 PUSH1 0x4 DUP1 SLOAD PUSH2 0x14BB SWAP1 PUSH2 0x3645 JUMP JUMPDEST DUP1 PUSH1 0x1F ADD PUSH1 0x20 DUP1 SWAP2 DIV MUL PUSH1 0x20 ADD PUSH1 0x40 MLOAD SWAP1 DUP2 ADD PUSH1 0x40 MSTORE DUP1 SWAP3 SWAP2 SWAP1 DUP2 DUP2 MSTORE PUSH1 0x20 ADD DUP3 DUP1 SLOAD PUSH2 0x14E7 SWAP1 PUSH2 0x3645 JUMP JUMPDEST DUP1 ISZERO PUSH2 0x1532 JUMPI DUP1 PUSH1 0x1F LT PUSH2 0x1509 JUMPI PUSH2 0x100 DUP1 DUP4 SLOAD DIV MUL DUP4 MSTORE SWAP2 PUSH1 0x20 ADD SWAP2 PUSH2 0x1532 JUMP JUMPDEST DUP3 ADD SWAP2 SWAP1 PUSH0 MSTORE PUSH1 0x20 PUSH0 KECCAK256 SWAP1 JUMPDEST DUP2 SLOAD DUP2 MSTORE SWAP1 PUSH1 0x1 ADD SWAP1 PUSH1 0x20 ADD DUP1 DUP4 GT PUSH2 0x1515 JUMPI DUP3 SWAP1 SUB PUSH1 0x1F AND DUP3 ADD SWAP2 JUMPDEST POP POP POP POP POP SWAP1 POP SWAP1 JUMP JUMPDEST PUSH1 0xD DUP2 DUP1 MLOAD PUSH1 0x20 DUP2 ADD DUP3 ADD DUP1 MLOAD DUP5 DUP3 MSTORE PUSH1 0x20 DUP4 ADD PUSH1 0x20 DUP6 ADD KECCAK256 DUP2 DUP4 MSTORE DUP1 SWAP6 POP POP POP POP POP POP PUSH0 SWAP2 POP SWAP1 POP DUP1 PUSH0 ADD PUSH0 SWAP1 SLOAD SWAP1 PUSH2 0x100 EXP SWAP1 DIV PUSH1 0xFF AND SWAP1 DUP1 PUSH1 0x1 ADD SLOAD SWAP1 DUP1 PUSH1 0x2 ADD SLOAD SWAP1 DUP1 PUSH1 0x3 ADD SLOAD SWAP1 DUP1 PUSH1 0x4 ADD SLOAD SWAP1 DUP1 PUSH1 0x5 ADD SLOAD SWAP1 POP DUP7 JUMP JUMPDEST DUP1 PUSH1 0x8 PUSH0 PUSH2 0x15A4 PUSH2 0x2005 JUMP JUMPDEST PUSH20 0xFFFFFFFFFFFFFFFFFFFFFFFFFFFFFFFFFFFFFFFF AND PUSH20 0xFFFFFFFFFFFFFFFFFFFFFFFFFFFFFFFFFFFFFFFF AND DUP2 MSTORE PUSH1 0x20 ADD SWAP1 DUP2 MSTORE PUSH1 0x20 ADD PUSH0 KECCAK256 PUSH0 DUP5 PUSH20 0xFFFFFFFFFFFFFFFFFFFFFFFFFFFFFFFFFFFFFFFF AND PUSH20 0xFFFFFFFFFFFFFFFFFFFFFFFFFFFFFFFFFFFFFFFF AND DUP2 MSTORE PUSH1 0x20 ADD SWAP1 DUP2 MSTORE PUSH1 0x20 ADD PUSH0 KECCAK256 PUSH0 PUSH2 0x100 EXP DUP2 SLOAD DUP2 PUSH1 0xFF MUL NOT AND SWAP1 DUP4 ISZERO ISZERO MUL OR SWAP1 SSTORE POP DUP2 PUSH20 0xFFFFFFFFFFFFFFFFFFFFFFFFFFFFFFFFFFFFFFFF AND PUSH2 0x164D PUSH2 0x2005 JUMP JUMPDEST PUSH20 0xFFFFFFFFFFFFFFFFFFFFFFFFFFFFFFFFFFFFFFFF AND PUSH32 0x17307EAB39AB6107E8899845AD3D59BD9653F200F220920489CA2B5937696C31 DUP4 PUSH1 0x40 MLOAD PUSH2 0x1692 SWAP2 SWAP1 PUSH2 0x2C64 JUMP JUMPDEST PUSH1 0x40 MLOAD DUP1 SWAP2 SUB SWAP1 LOG3 POP POP JUMP JUMPDEST PUSH1 0x10 PUSH1 0x20 MSTORE DUP1 PUSH0 MSTORE PUSH1 0x40 PUSH0 KECCAK256 PUSH0 SWAP2 POP SLOAD SWAP1 PUSH2 0x100 EXP SWAP1 DIV PUSH1 0xFF AND DUP2 JUMP JUMPDEST PUSH0 DUP1 PUSH1 0xD DUP4 PUSH1 0x40 MLOAD PUSH2 0x16CD SWAP2 SWAP1 PUSH2 0x384F JUMP JUMPDEST SWAP1 DUP2 MSTORE PUSH1 0x20 ADD PUSH1 0x40 MLOAD DUP1 SWAP2 SUB SWAP1 KECCAK256 PUSH1 0x40 MLOAD DUP1 PUSH1 0xC0 ADD PUSH1 0x40 MSTORE SWAP1 DUP2 PUSH0 DUP3 ADD PUSH0 SWAP1 SLOAD SWAP1 PUSH2 0x100 EXP SWAP1 DIV PUSH1 0xFF AND PUSH1 0x2 DUP2 GT ISZERO PUSH2 0x1709 JUMPI PUSH2 0x1708 PUSH2 0x2E45 JUMP JUMPDEST JUMPDEST PUSH1 0x2 DUP2 GT ISZERO PUSH2 0x171B JUMPI PUSH2 0x171A PUSH2 0x2E45 JUMP JUMPDEST JUMPDEST DUP2 MSTORE PUSH1 0x20 ADD PUSH1 0x1 DUP3 ADD SLOAD DUP2 MSTORE PUSH1 0x20 ADD PUSH1 0x2 DUP3 ADD SLOAD DUP2 MSTORE PUSH1 0x20 ADD PUSH1 0x3 DUP3 ADD SLOAD DUP2 MSTORE PUSH1 0x20 ADD PUSH1 0x4 DUP3 ADD SLOAD DUP2 MSTORE PUSH1 0x20 ADD PUSH1 0x5 DUP3 ADD SLOAD DUP2 MSTORE POP POP SWAP1 POP PUSH0 DUP2 PUSH1 0x20 ADD MLOAD EQ DUP1 ISZERO PUSH2 0x1769 JUMPI POP PUSH0 DUP2 PUSH1 0x40 ADD MLOAD EQ JUMPDEST DUP1 ISZERO PUSH2 0x1778 JUMPI POP PUSH0 DUP2 PUSH1 0x60 ADD MLOAD EQ JUMPDEST DUP1 ISZERO PUSH2 0x1787 JUMPI POP PUSH0 DUP2 PUSH1 0x80 ADD MLOAD EQ JUMPDEST DUP1 ISZERO PUSH2 0x1796 JUMPI POP PUSH0 DUP2 PUSH1 0xA0 ADD MLOAD EQ JUMPDEST ISZERO PUSH2 0x17A4 JUMPI PUSH0 SWAP2 POP POP PUSH2 0x17AA JUMP JUMPDEST PUSH1 0x1 SWAP2 POP POP JUMPDEST SWAP2 SWAP1 POP JUMP JUMPDEST PUSH0 PUSH20 0xFFFFFFFFFFFFFFFFFFFFFFFFFFFFFFFFFFFFFFFF AND PUSH1 0x13 PUSH0 SWAP1 SLOAD SWAP1 PUSH2 0x100 EXP SWAP1 DIV PUSH20 0xFFFFFFFFFFFFFFFFFFFFFFFFFFFFFFFFFFFFFFFF AND PUSH20 0xFFFFFFFFFFFFFFFFFFFFFFFFFFFFFFFFFFFFFFFF AND SUB PUSH2 0x183E JUMPI PUSH1 0x40 MLOAD PUSH32 0x8C379A000000000000000000000000000000000000000000000000000000000 DUP2 MSTORE PUSH1 0x4 ADD PUSH2 0x1835 SWAP1 PUSH2 0x3C58 JUMP JUMPDEST PUSH1 0x40 MLOAD DUP1 SWAP2 SUB SWAP1 REVERT JUMPDEST PUSH1 0x13 PUSH0 SWAP1 SLOAD SWAP1 PUSH2 0x100 EXP SWAP1 DIV PUSH20 0xFFFFFFFFFFFFFFFFFFFFFFFFFFFFFFFFFFFFFFFF AND PUSH20 0xFFFFFFFFFFFFFFFFFFFFFFFFFFFFFFFFFFFFFFFF AND CALLER PUSH20 0xFFFFFFFFFFFFFFFFFFFFFFFFFFFFFFFFFFFFFFFF AND EQ PUSH2 0x18CD JUMPI PUSH1 0x40 MLOAD PUSH32 0x8C379A000000000000000000000000000000000000000000000000000000000 DUP2 MSTORE PUSH1 0x4 ADD PUSH2 0x18C4 SWAP1 PUSH2 0x3CC0 JUMP JUMPDEST PUSH1 0x40 MLOAD DUP1 SWAP2 SUB SWAP1 REVERT JUMPDEST POP POP JUMP JUMPDEST PUSH1 0xB PUSH1 0x20 MSTORE DUP1 PUSH0 MSTORE PUSH1 0x40 PUSH0 KECCAK256 PUSH0 SWAP2 POP SWAP1 POP SLOAD DUP2 JUMP JUMPDEST PUSH2 0x18F1 DUP5 DUP5 DUP5 PUSH2 0xF8F JUMP JUMPDEST PUSH0 DUP4 PUSH20 0xFFFFFFFFFFFFFFFFFFFFFFFFFFFFFFFFFFFFFFFF AND EXTCODESIZE EQ PUSH2 0x1931 JUMPI PUSH2 0x191B DUP5 DUP5 DUP5 DUP5 PUSH2 0x22C1 JUMP JUMPDEST PUSH2 0x1930 JUMPI PUSH2 0x192F PUSH4 0xD1A57ED6 PUSH1 0xE0 SHL PUSH2 0x1C29 JUMP JUMPDEST JUMPDEST JUMPDEST POP POP POP POP JUMP JUMPDEST PUSH1 0x60 PUSH2 0x1942 DUP3 PUSH2 0x1B85 JUMP JUMPDEST PUSH2 0x1978 JUMPI PUSH1 0x40 MLOAD PUSH32 0xA14C4B5000000000000000000000000000000000000000000000000000000000 DUP2 MSTORE PUSH1 0x4 ADD PUSH1 0x40 MLOAD DUP1 SWAP2 SUB SWAP1 REVERT JUMPDEST PUSH0 PUSH2 0x1981 PUSH2 0x23EB JUMP JUMPDEST SWAP1 POP PUSH0 DUP2 MLOAD SUB PUSH2 0x199F JUMPI PUSH1 0x40 MLOAD DUP1 PUSH1 0x20 ADD PUSH1 0x40 MSTORE DUP1 PUSH0 DUP2 MSTORE POP PUSH2 0x19CA JUMP JUMPDEST DUP1 PUSH2 0x19A9 DUP5 PUSH2 0x247B JUMP JUMPDEST PUSH1 0x40 MLOAD PUSH1 0x20 ADD PUSH2 0x19BA SWAP3 SWAP2 SWAP1 PUSH2 0x3CDE JUMP JUMPDEST PUSH1 0x40 MLOAD PUSH1 0x20 DUP2 DUP4 SUB SUB DUP2 MSTORE SWAP1 PUSH1 0x40 MSTORE JUMPDEST SWAP2 POP POP SWAP2 SWAP1 POP JUMP JUMPDEST PUSH2 0x19DA PUSH2 0x20AC JUMP JUMPDEST DUP1 PUSH1 0x11 PUSH0 DUP5 PUSH20 0xFFFFFFFFFFFFFFFFFFFFFFFFFFFFFFFFFFFFFFFF AND PUSH20 0xFFFFFFFFFFFFFFFFFFFFFFFFFFFFFFFFFFFFFFFF AND DUP2 MSTORE PUSH1 0x20 ADD SWAP1 DUP2 MSTORE PUSH1 0x20 ADD PUSH0 KECCAK256 PUSH0 PUSH2 0x100 EXP DUP2 SLOAD DUP2 PUSH1 0xFF MUL NOT AND SWAP1 DUP4 ISZERO ISZERO MUL OR SWAP1 SSTORE POP POP POP JUMP JUMPDEST PUSH2 0x1A3A PUSH2 0x20AC JUMP JUMPDEST PUSH2 0x1A43 DUP2 PUSH2 0x24CA JUMP JUMPDEST POP JUMP JUMPDEST PUSH0 PUSH1 0x8 PUSH0 DUP5 PUSH20 0xFFFFFFFFFFFFFFFFFFFFFFFFFFFFFFFFFFFFFFFF AND PUSH20 0xFFFFFFFFFFFFFFFFFFFFFFFFFFFFFFFFFFFFFFFF AND DUP2 MSTORE PUSH1 0x20 ADD SWAP1 DUP2 MSTORE PUSH1 0x20 ADD PUSH0 KECCAK256 PUSH0 DUP4 PUSH20 0xFFFFFFFFFFFFFFFFFFFFFFFFFFFFFFFFFFFFFFFF AND PUSH20 0xFFFFFFFFFFFFFFFFFFFFFFFFFFFFFFFFFFFFFFFF AND DUP2 MSTORE PUSH1 0x20 ADD SWAP1 DUP2 MSTORE PUSH1 0x20 ADD PUSH0 KECCAK256 PUSH0 SWAP1 SLOAD SWAP1 PUSH2 0x100 EXP SWAP1 DIV PUSH1 0xFF AND SWAP1 POP SWAP3 SWAP2 POP POP JUMP JUMPDEST PUSH1 0xF DUP2 DUP1 MLOAD PUSH1 0x20 DUP2 ADD DUP3 ADD DUP1 MLOAD DUP5 DUP3 MSTORE PUSH1 0x20 DUP4 ADD PUSH1 0x20 DUP6 ADD KECCAK256 DUP2 DUP4 MSTORE DUP1 SWAP6 POP POP POP POP POP POP PUSH0 SWAP2 POP SWAP1 POP SLOAD DUP2 JUMP JUMPDEST PUSH2 0x1B09 PUSH2 0x20AC JUMP JUMPDEST PUSH0 PUSH20 0xFFFFFFFFFFFFFFFFFFFFFFFFFFFFFFFFFFFFFFFF AND DUP2 PUSH20 0xFFFFFFFFFFFFFFFFFFFFFFFFFFFFFFFFFFFFFFFF AND SUB PUSH2 0x1B79 JUMPI PUSH0 PUSH1 0x40 MLOAD PUSH32 0x1E4FBDF700000000000000000000000000000000000000000000000000000000 DUP2 MSTORE PUSH1 0x4 ADD PUSH2 0x1B70 SWAP2 SWAP1 PUSH2 0x2DC4 JUMP JUMPDEST PUSH1 0x40 MLOAD DUP1 SWAP2 SUB SWAP1 REVERT JUMPDEST PUSH2 0x1B82 DUP2 PUSH2 0x2200 JUMP JUMPDEST POP JUMP JUMPDEST PUSH0 DUP2 PUSH2 0x1B8F PUSH2 0x1D64 JUMP JUMPDEST GT PUSH2 0x1C23 JUMPI PUSH2 0x1B9C PUSH2 0x1D6E JUMP JUMPDEST DUP3 GT ISZERO PUSH2 0x1BC4 JUMPI PUSH2 0x1BBD PUSH1 0x5 PUSH0 DUP5 DUP2 MSTORE PUSH1 0x20 ADD SWAP1 DUP2 MSTORE PUSH1 0x20 ADD PUSH0 KECCAK256 SLOAD PUSH2 0x24D7 JUMP JUMPDEST SWAP1 POP PUSH2 0x1C24 JUMP JUMPDEST PUSH1 0x1 SLOAD DUP3 LT ISZERO PUSH2 0x1C22 JUMPI PUSH0 JUMPDEST PUSH0 PUSH1 0x5 PUSH0 DUP6 DUP2 MSTORE PUSH1 0x20 ADD SWAP1 DUP2 MSTORE PUSH1 0x20 ADD PUSH0 KECCAK256 SLOAD SWAP2 POP DUP2 SUB PUSH2 0x1BFC JUMPI DUP3 PUSH2 0x1BF5 SWAP1 PUSH2 0x3D01 JUMP JUMPDEST SWAP3 POP PUSH2 0x1BD0 JUMP JUMPDEST PUSH0 PUSH29 0x100000000000000000000000000000000000000000000000000000000 DUP3 AND EQ SWAP2 POP POP JUMPDEST JUMPDEST JUMPDEST SWAP2 SWAP1 POP JUMP JUMPDEST DUP1 PUSH0 MSTORE PUSH1 0x4 PUSH0 REVERT JUMPDEST PUSH0 PUSH2 0x1C3B DUP4 PUSH2 0x1382 JUMP JUMPDEST SWAP1 POP DUP2 DUP1 ISZERO PUSH2 0x1C7D JUMPI POP DUP1 PUSH20 0xFFFFFFFFFFFFFFFFFFFFFFFFFFFFFFFFFFFFFFFF AND PUSH2 0x1C64 PUSH2 0x2005 JUMP JUMPDEST PUSH20 0xFFFFFFFFFFFFFFFFFFFFFFFFFFFFFFFFFFFFFFFF AND EQ ISZERO JUMPDEST ISZERO PUSH2 0x1CA9 JUMPI PUSH2 0x1C93 DUP2 PUSH2 0x1C8E PUSH2 0x2005 JUMP JUMPDEST PUSH2 0x1A46 JUMP JUMPDEST PUSH2 0x1CA8 JUMPI PUSH2 0x1CA7 PUSH4 0xCFB3B942 PUSH1 0xE0 SHL PUSH2 0x1C29 JUMP JUMPDEST JUMPDEST JUMPDEST DUP4 PUSH1 0x7 PUSH0 DUP6 DUP2 MSTORE PUSH1 0x20 ADD SWAP1 DUP2 MSTORE PUSH1 0x20 ADD PUSH0 KECCAK256 PUSH0 ADD PUSH0 PUSH2 0x100 EXP DUP2 SLOAD DUP2 PUSH20 0xFFFFFFFFFFFFFFFFFFFFFFFFFFFFFFFFFFFFFFFF MUL NOT AND SWAP1 DUP4 PUSH20 0xFFFFFFFFFFFFFFFFFFFFFFFFFFFFFFFFFFFFFFFF AND MUL OR SWAP1 SSTORE POP DUP3 DUP5 PUSH20 0xFFFFFFFFFFFFFFFFFFFFFFFFFFFFFFFFFFFFFFFF AND DUP3 PUSH20 0xFFFFFFFFFFFFFFFFFFFFFFFFFFFFFFFFFFFFFFFF AND PUSH32 0x8C5BE1E5EBEC7D5BD14F71427D1E84F3DD0314C0F7B2291E5B200AC8C7C3B925 PUSH1 0x40 MLOAD PUSH1 0x40 MLOAD DUP1 SWAP2 SUB SWAP1 LOG4 POP POP POP POP JUMP JUMPDEST PUSH0 PUSH1 0x1 SLOAD SWAP1 POP SWAP1 JUMP JUMPDEST PUSH0 PUSH3 0x186A0 SWAP1 POP SWAP1 JUMP JUMPDEST PUSH0 PUSH32 0xFFFFFFFFFFFFFFFFFFFFFFFFFFFFFFFFFFFFFFFFFFFFFFFFFFFFFFFFFFFFFFFF SWAP1 POP SWAP1 JUMP JUMPDEST PUSH2 0x1E11 DUP5 DUP6 PUSH20 0xFFFFFFFFFFFFFFFFFFFFFFFFFFFFFFFFFFFFFFFF AND PUSH4 0x23B872DD DUP7 DUP7 DUP7 PUSH1 0x40 MLOAD PUSH1 0x24 ADD PUSH2 0x1DCA SWAP4 SWAP3 SWAP2 SWAP1 PUSH2 0x3D28 JUMP JUMPDEST PUSH1 0x40 MLOAD PUSH1 0x20 DUP2 DUP4 SUB SUB DUP2 MSTORE SWAP1 PUSH1 0x40 MSTORE SWAP2 POP PUSH1 0xE0 SHL PUSH1 0x20 DUP3 ADD DUP1 MLOAD PUSH28 0xFFFFFFFFFFFFFFFFFFFFFFFFFFFFFFFFFFFFFFFFFFFFFFFFFFFFFFFF DUP4 DUP2 DUP4 AND OR DUP4 MSTORE POP POP POP POP PUSH2 0x2517 JUMP JUMPDEST POP POP POP POP JUMP JUMPDEST PUSH0 PUSH1 0x40 MLOAD DUP1 PUSH1 0x80 ADD PUSH1 0x40 MSTORE DUP1 DUP7 PUSH1 0x2 DUP2 GT ISZERO PUSH2 0x1E36 JUMPI PUSH2 0x1E35 PUSH2 0x2E45 JUMP JUMPDEST JUMPDEST DUP2 MSTORE PUSH1 0x20 ADD DUP6 DUP2 MSTORE PUSH1 0x20 ADD DUP5 DUP2 MSTORE PUSH1 0x20 ADD DUP4 DUP2 MSTORE POP SWAP1 POP DUP1 PUSH1 0xE PUSH0 DUP9 DUP2 MSTORE PUSH1 0x20 ADD SWAP1 DUP2 MSTORE PUSH1 0x20 ADD PUSH0 KECCAK256 PUSH0 DUP3 ADD MLOAD DUP2 PUSH0 ADD PUSH0 PUSH2 0x100 EXP DUP2 SLOAD DUP2 PUSH1 0xFF MUL NOT AND SWAP1 DUP4 PUSH1 0x2 DUP2 GT ISZERO PUSH2 0x1E87 JUMPI PUSH2 0x1E86 PUSH2 0x2E45 JUMP JUMPDEST JUMPDEST MUL OR SWAP1 SSTORE POP PUSH1 0x20 DUP3 ADD MLOAD DUP2 PUSH1 0x1 ADD SSTORE PUSH1 0x40 DUP3 ADD MLOAD DUP2 PUSH1 0x2 ADD SSTORE PUSH1 0x60 DUP3 ADD MLOAD DUP2 PUSH1 0x3 ADD SSTORE SWAP1 POP POP POP POP POP POP POP POP JUMP JUMPDEST PUSH2 0x1ECE DUP3 DUP3 PUSH1 0x40 MLOAD DUP1 PUSH1 0x20 ADD PUSH1 0x40 MSTORE DUP1 PUSH0 DUP2 MSTORE POP PUSH2 0x25AC JUMP JUMPDEST POP POP JUMP JUMPDEST PUSH0 DUP2 PUSH2 0x1EDC PUSH2 0x1D64 JUMP JUMPDEST GT PUSH2 0x1FCC JUMPI PUSH1 0x5 PUSH0 DUP4 DUP2 MSTORE PUSH1 0x20 ADD SWAP1 DUP2 MSTORE PUSH1 0x20 ADD PUSH0 KECCAK256 SLOAD SWAP1 POP PUSH2 0x1EFD PUSH2 0x1D6E JUMP JUMPDEST DUP3 GT ISZERO PUSH2 0x1F22 JUMPI PUSH2 0x1F0D DUP2 PUSH2 0x24D7 JUMP JUMPDEST PUSH2 0x1FDD JUMPI PUSH2 0x1F21 PUSH4 0xDF2D9B42 PUSH1 0xE0 SHL PUSH2 0x1C29 JUMP JUMPDEST JUMPDEST PUSH0 DUP2 SUB PUSH2 0x1FA4 JUMPI PUSH1 0x1 SLOAD DUP3 LT PUSH2 0x1F43 JUMPI PUSH2 0x1F42 PUSH4 0xDF2D9B42 PUSH1 0xE0 SHL PUSH2 0x1C29 JUMP JUMPDEST JUMPDEST JUMPDEST PUSH1 0x5 PUSH0 DUP4 PUSH1 0x1 SWAP1 SUB SWAP4 POP DUP4 DUP2 MSTORE PUSH1 0x20 ADD SWAP1 DUP2 MSTORE PUSH1 0x20 ADD PUSH0 KECCAK256 SLOAD SWAP1 POP PUSH0 DUP2 SUB ISZERO PUSH2 0x1F9F JUMPI PUSH0 PUSH29 0x100000000000000000000000000000000000000000000000000000000 DUP3 AND SUB ISZERO PUSH2 0x1FDD JUMPI PUSH2 0x1F9E PUSH4 0xDF2D9B42 PUSH1 0xE0 SHL PUSH2 0x1C29 JUMP JUMPDEST JUMPDEST PUSH2 0x1F44 JUMP JUMPDEST PUSH0 PUSH29 0x100000000000000000000000000000000000000000000000000000000 DUP3 AND SUB ISZERO PUSH2 0x1FDD JUMPI JUMPDEST PUSH2 0x1FDC PUSH4 0xDF2D9B42 PUSH1 0xE0 SHL PUSH2 0x1C29 JUMP JUMPDEST JUMPDEST SWAP2 SWAP1 POP JUMP JUMPDEST PUSH0 DUP1 PUSH0 PUSH1 0x7 PUSH0 DUP6 DUP2 MSTORE PUSH1 0x20 ADD SWAP1 DUP2 MSTORE PUSH1 0x20 ADD PUSH0 KECCAK256 SWAP1 POP DUP1 SWAP3 POP DUP3 SLOAD SWAP2 POP POP SWAP2 POP SWAP2 JUMP JUMPDEST PUSH0 CALLER SWAP1 POP SWAP1 JUMP JUMPDEST PUSH0 PUSH20 0xFFFFFFFFFFFFFFFFFFFFFFFFFFFFFFFFFFFFFFFF DUP4 AND SWAP3 POP PUSH20 0xFFFFFFFFFFFFFFFFFFFFFFFFFFFFFFFFFFFFFFFF DUP3 AND SWAP2 POP DUP4 DUP3 EQ DUP4 DUP4 EQ OR SWAP1 POP SWAP4 SWAP3 POP POP POP JUMP JUMPDEST POP POP POP POP JUMP JUMPDEST PUSH0 DUP1 PUSH1 0xE8 DUP4 SWAP1 SHR SWAP1 POP PUSH1 0xE8 PUSH2 0x206B DUP7 DUP7 DUP5 PUSH2 0x2624 JUMP JUMPDEST PUSH3 0xFFFFFF AND SWAP1 SHL SWAP2 POP POP SWAP4 SWAP3 POP POP POP JUMP JUMPDEST PUSH0 PUSH20 0xFFFFFFFFFFFFFFFFFFFFFFFFFFFFFFFFFFFFFFFF DUP4 AND SWAP3 POP DUP2 TIMESTAMP PUSH1 0xA0 SHL OR DUP4 OR SWAP1 POP SWAP3 SWAP2 POP POP JUMP JUMPDEST POP POP POP POP JUMP JUMPDEST PUSH2 0x20B4 PUSH2 0x262C JUMP JUMPDEST PUSH20 0xFFFFFFFFFFFFFFFFFFFFFFFFFFFFFFFFFFFFFFFF AND PUSH2 0x20D2 PUSH2 0x1485 JUMP JUMPDEST PUSH20 0xFFFFFFFFFFFFFFFFFFFFFFFFFFFFFFFFFFFFFFFF AND EQ PUSH2 0x2131 JUMPI PUSH2 0x20F5 PUSH2 0x262C JUMP JUMPDEST PUSH1 0x40 MLOAD PUSH32 0x118CDAA700000000000000000000000000000000000000000000000000000000 DUP2 MSTORE PUSH1 0x4 ADD PUSH2 0x2128 SWAP2 SWAP1 PUSH2 0x2DC4 JUMP JUMPDEST PUSH1 0x40 MLOAD DUP1 SWAP2 SUB SWAP1 REVERT JUMPDEST JUMP JUMPDEST PUSH0 PUSH1 0x40 MLOAD DUP1 PUSH1 0xC0 ADD PUSH1 0x40 MSTORE DUP1 DUP9 PUSH1 0x2 DUP2 GT ISZERO PUSH2 0x2152 JUMPI PUSH2 0x2151 PUSH2 0x2E45 JUMP JUMPDEST JUMPDEST DUP2 MSTORE PUSH1 0x20 ADD DUP7 DUP2 MSTORE PUSH1 0x20 ADD DUP8 DUP2 MSTORE PUSH1 0x20 ADD DUP5 DUP2 MSTORE PUSH1 0x20 ADD DUP6 DUP2 MSTORE PUSH1 0x20 ADD DUP4 DUP2 MSTORE POP SWAP1 POP DUP1 PUSH1 0xD DUP10 PUSH1 0x40 MLOAD PUSH2 0x2186 SWAP2 SWAP1 PUSH2 0x384F JUMP JUMPDEST SWAP1 DUP2 MSTORE PUSH1 0x20 ADD PUSH1 0x40 MLOAD DUP1 SWAP2 SUB SWAP1 KECCAK256 PUSH0 DUP3 ADD MLOAD DUP2 PUSH0 ADD PUSH0 PUSH2 0x100 EXP DUP2 SLOAD DUP2 PUSH1 0xFF MUL NOT AND SWAP1 DUP4 PUSH1 0x2 DUP2 GT ISZERO PUSH2 0x21BC JUMPI PUSH2 0x21BB PUSH2 0x2E45 JUMP JUMPDEST JUMPDEST MUL OR SWAP1 SSTORE POP PUSH1 0x20 DUP3 ADD MLOAD DUP2 PUSH1 0x1 ADD SSTORE PUSH1 0x40 DUP3 ADD MLOAD DUP2 PUSH1 0x2 ADD SSTORE PUSH1 0x60 DUP3 ADD MLOAD DUP2 PUSH1 0x3 ADD SSTORE PUSH1 0x80 DUP3 ADD MLOAD DUP2 PUSH1 0x4 ADD SSTORE PUSH1 0xA0 DUP3 ADD MLOAD DUP2 PUSH1 0x5 ADD SSTORE SWAP1 POP POP POP POP POP POP POP POP POP POP JUMP JUMPDEST PUSH0 DUP1 PUSH0 SWAP1 SLOAD SWAP1 PUSH2 0x100 EXP SWAP1 DIV PUSH20 0xFFFFFFFFFFFFFFFFFFFFFFFFFFFFFFFFFFFFFFFF AND SWAP1 POP DUP2 PUSH0 DUP1 PUSH2 0x100 EXP DUP2 SLOAD DUP2 PUSH20 0xFFFFFFFFFFFFFFFFFFFFFFFFFFFFFFFFFFFFFFFF MUL NOT AND SWAP1 DUP4 PUSH20 0xFFFFFFFFFFFFFFFFFFFFFFFFFFFFFFFFFFFFFFFF AND MUL OR SWAP1 SSTORE POP DUP2 PUSH20 0xFFFFFFFFFFFFFFFFFFFFFFFFFFFFFFFFFFFFFFFF AND DUP2 PUSH20 0xFFFFFFFFFFFFFFFFFFFFFFFFFFFFFFFFFFFFFFFF AND PUSH32 0x8BE0079C531659141344CD1FD0A4F28419497F9722A3DAAFE3B4186F6B6457E0 PUSH1 0x40 MLOAD PUSH1 0x40 MLOAD DUP1 SWAP2 SUB SWAP1 LOG3 POP POP JUMP JUMPDEST PUSH0 DUP4 PUSH20 0xFFFFFFFFFFFFFFFFFFFFFFFFFFFFFFFFFFFFFFFF AND PUSH4 0x150B7A02 PUSH2 0x22E6 PUSH2 0x2005 JUMP JUMPDEST DUP8 DUP7 DUP7 PUSH1 0x40 MLOAD DUP6 PUSH4 0xFFFFFFFF AND PUSH1 0xE0 SHL DUP2 MSTORE PUSH1 0x4 ADD PUSH2 0x2308 SWAP5 SWAP4 SWAP3 SWAP2 SWAP1 PUSH2 0x3DAF JUMP JUMPDEST PUSH1 0x20 PUSH1 0x40 MLOAD DUP1 DUP4 SUB DUP2 PUSH0 DUP8 GAS CALL SWAP3 POP POP POP DUP1 ISZERO PUSH2 0x2343 JUMPI POP PUSH1 0x40 MLOAD RETURNDATASIZE PUSH1 0x1F NOT PUSH1 0x1F DUP3 ADD AND DUP3 ADD DUP1 PUSH1 0x40 MSTORE POP DUP2 ADD SWAP1 PUSH2 0x2340 SWAP2 SWAP1 PUSH2 0x3E0D JUMP JUMPDEST PUSH1 0x1 JUMPDEST PUSH2 0x2398 JUMPI RETURNDATASIZE DUP1 PUSH0 DUP2 EQ PUSH2 0x2371 JUMPI PUSH1 0x40 MLOAD SWAP2 POP PUSH1 0x1F NOT PUSH1 0x3F RETURNDATASIZE ADD AND DUP3 ADD PUSH1 0x40 MSTORE RETURNDATASIZE DUP3 MSTORE RETURNDATASIZE PUSH0 PUSH1 0x20 DUP5 ADD RETURNDATACOPY PUSH2 0x2376 JUMP JUMPDEST PUSH1 0x60 SWAP2 POP JUMPDEST POP PUSH0 DUP2 MLOAD SUB PUSH2 0x2390 JUMPI PUSH2 0x238F PUSH4 0xD1A57ED6 PUSH1 0xE0 SHL PUSH2 0x1C29 JUMP JUMPDEST JUMPDEST DUP1 MLOAD DUP2 PUSH1 0x20 ADD REVERT JUMPDEST PUSH4 0x150B7A02 PUSH1 0xE0 SHL PUSH28 0xFFFFFFFFFFFFFFFFFFFFFFFFFFFFFFFFFFFFFFFFFFFFFFFFFFFFFFFF NOT AND DUP2 PUSH28 0xFFFFFFFFFFFFFFFFFFFFFFFFFFFFFFFFFFFFFFFFFFFFFFFFFFFFFFFF NOT AND EQ SWAP2 POP POP SWAP5 SWAP4 POP POP POP POP JUMP JUMPDEST PUSH1 0x60 PUSH1 0xA DUP1 SLOAD PUSH2 0x23FA SWAP1 PUSH2 0x3645 JUMP JUMPDEST DUP1 PUSH1 0x1F ADD PUSH1 0x20 DUP1 SWAP2 DIV MUL PUSH1 0x20 ADD PUSH1 0x40 MLOAD SWAP1 DUP2 ADD PUSH1 0x40 MSTORE DUP1 SWAP3 SWAP2 SWAP1 DUP2 DUP2 MSTORE PUSH1 0x20 ADD DUP3 DUP1 SLOAD PUSH2 0x2426 SWAP1 PUSH2 0x3645 JUMP JUMPDEST DUP1 ISZERO PUSH2 0x2471 JUMPI DUP1 PUSH1 0x1F LT PUSH2 0x2448 JUMPI PUSH2 0x100 DUP1 DUP4 SLOAD DIV MUL DUP4 MSTORE SWAP2 PUSH1 0x20 ADD SWAP2 PUSH2 0x2471 JUMP JUMPDEST DUP3 ADD SWAP2 SWAP1 PUSH0 MSTORE PUSH1 0x20 PUSH0 KECCAK256 SWAP1 JUMPDEST DUP2 SLOAD DUP2 MSTORE SWAP1 PUSH1 0x1 ADD SWAP1 PUSH1 0x20 ADD DUP1 DUP4 GT PUSH2 0x2454 JUMPI DUP3 SWAP1 SUB PUSH1 0x1F AND DUP3 ADD SWAP2 JUMPDEST POP POP POP POP POP SWAP1 POP SWAP1 JUMP JUMPDEST PUSH1 0x60 PUSH1 0xA0 PUSH1 0x40 MLOAD ADD DUP1 PUSH1 0x40 MSTORE PUSH1 0x20 DUP2 SUB SWAP2 POP PUSH0 DUP3 MSTORE DUP2 DUP4 JUMPDEST PUSH1 0x1 ISZERO PUSH2 0x24B5 JUMPI PUSH1 0x1 DUP5 SUB SWAP4 POP PUSH1 0xA DUP2 MOD PUSH1 0x30 ADD DUP5 MSTORE8 PUSH1 0xA DUP2 DIV SWAP1 POP DUP1 PUSH2 0x2493 JUMPI JUMPDEST POP DUP3 DUP2 SUB PUSH1 0x20 DUP5 SUB SWAP4 POP DUP1 DUP5 MSTORE POP POP POP SWAP2 SWAP1 POP JUMP JUMPDEST PUSH2 0x24D4 DUP2 PUSH0 PUSH2 0x2633 JUMP JUMPDEST POP JUMP JUMPDEST PUSH0 PUSH29 0x100000000000000000000000000000000000000000000000000000000 DUP3 AND PUSH20 0xFFFFFFFFFFFFFFFFFFFFFFFFFFFFFFFFFFFFFFFF DUP4 AND GT SWAP1 POP SWAP2 SWAP1 POP JUMP JUMPDEST PUSH0 PUSH2 0x2541 DUP3 DUP5 PUSH20 0xFFFFFFFFFFFFFFFFFFFFFFFFFFFFFFFFFFFFFFFF AND PUSH2 0x284F SWAP1 SWAP2 SWAP1 PUSH4 0xFFFFFFFF AND JUMP JUMPDEST SWAP1 POP PUSH0 DUP2 MLOAD EQ ISZERO DUP1 ISZERO PUSH2 0x2565 JUMPI POP DUP1 DUP1 PUSH1 0x20 ADD SWAP1 MLOAD DUP2 ADD SWAP1 PUSH2 0x2563 SWAP2 SWAP1 PUSH2 0x3E4C JUMP JUMPDEST ISZERO JUMPDEST ISZERO PUSH2 0x25A7 JUMPI DUP3 PUSH1 0x40 MLOAD PUSH32 0x5274AFE700000000000000000000000000000000000000000000000000000000 DUP2 MSTORE PUSH1 0x4 ADD PUSH2 0x259E SWAP2 SWAP1 PUSH2 0x2DC4 JUMP JUMPDEST PUSH1 0x40 MLOAD DUP1 SWAP2 SUB SWAP1 REVERT JUMPDEST POP POP POP JUMP JUMPDEST PUSH2 0x25B6 DUP4 DUP4 PUSH2 0x2864 JUMP JUMPDEST PUSH0 DUP4 PUSH20 0xFFFFFFFFFFFFFFFFFFFFFFFFFFFFFFFFFFFFFFFF AND EXTCODESIZE EQ PUSH2 0x261F JUMPI PUSH0 PUSH1 0x1 SLOAD SWAP1 POP PUSH0 DUP4 DUP3 SUB SWAP1 POP JUMPDEST PUSH2 0x25F3 PUSH0 DUP7 DUP4 DUP1 PUSH1 0x1 ADD SWAP5 POP DUP7 PUSH2 0x22C1 JUMP JUMPDEST PUSH2 0x2608 JUMPI PUSH2 0x2607 PUSH4 0xD1A57ED6 PUSH1 0xE0 SHL PUSH2 0x1C29 JUMP JUMPDEST JUMPDEST DUP2 DUP2 LT PUSH2 0x25E1 JUMPI DUP2 PUSH1 0x1 SLOAD EQ PUSH2 0x261C JUMPI PUSH0 DUP1 REVERT JUMPDEST POP POP JUMPDEST POP POP POP JUMP JUMPDEST PUSH0 SWAP4 SWAP3 POP POP POP JUMP JUMPDEST PUSH0 CALLER SWAP1 POP SWAP1 JUMP JUMPDEST PUSH0 PUSH2 0x263D DUP4 PUSH2 0x1ED2 JUMP JUMPDEST SWAP1 POP PUSH0 DUP2 SWAP1 POP PUSH0 DUP1 PUSH2 0x264E DUP7 PUSH2 0x1FE2 JUMP JUMPDEST SWAP2 POP SWAP2 POP DUP5 ISZERO PUSH2 0x2696 JUMPI PUSH2 0x266A DUP2 DUP5 PUSH2 0x2665 PUSH2 0x2005 JUMP JUMPDEST PUSH2 0x200C JUMP JUMPDEST PUSH2 0x2695 JUMPI PUSH2 0x267F DUP4 PUSH2 0x267A PUSH2 0x2005 JUMP JUMPDEST PUSH2 0x1A46 JUMP JUMPDEST PUSH2 0x2694 JUMPI PUSH2 0x2693 PUSH4 0x59C896BE PUSH1 0xE0 SHL PUSH2 0x1C29 JUMP JUMPDEST JUMPDEST JUMPDEST JUMPDEST PUSH2 0x26A3 DUP4 PUSH0 DUP9 PUSH1 0x1 PUSH2 0x204F JUMP JUMPDEST DUP1 ISZERO PUSH2 0x26AD JUMPI PUSH0 DUP3 SSTORE JUMPDEST PUSH1 0x1 PUSH1 0x80 PUSH1 0x1 SWAP1 SHL SUB PUSH1 0x6 PUSH0 DUP6 PUSH20 0xFFFFFFFFFFFFFFFFFFFFFFFFFFFFFFFFFFFFFFFF AND PUSH20 0xFFFFFFFFFFFFFFFFFFFFFFFFFFFFFFFFFFFFFFFF AND DUP2 MSTORE PUSH1 0x20 ADD SWAP1 DUP2 MSTORE PUSH1 0x20 ADD PUSH0 KECCAK256 PUSH0 DUP3 DUP3 SLOAD ADD SWAP3 POP POP DUP2 SWAP1 SSTORE POP PUSH2 0x2751 DUP4 PUSH2 0x270E DUP6 PUSH0 DUP9 PUSH2 0x2055 JUMP JUMPDEST PUSH29 0x200000000000000000000000000000000000000000000000000000000 PUSH29 0x100000000000000000000000000000000000000000000000000000000 OR OR PUSH2 0x207C JUMP JUMPDEST PUSH1 0x5 PUSH0 DUP9 DUP2 MSTORE PUSH1 0x20 ADD SWAP1 DUP2 MSTORE PUSH1 0x20 ADD PUSH0 KECCAK256 DUP2 SWAP1 SSTORE POP PUSH0 PUSH29 0x200000000000000000000000000000000000000000000000000000000 DUP6 AND SUB PUSH2 0x27CE JUMPI PUSH0 PUSH1 0x1 DUP8 ADD SWAP1 POP PUSH0 PUSH1 0x5 PUSH0 DUP4 DUP2 MSTORE PUSH1 0x20 ADD SWAP1 DUP2 MSTORE PUSH1 0x20 ADD PUSH0 KECCAK256 SLOAD SUB PUSH2 0x27CC JUMPI PUSH1 0x1 SLOAD DUP2 EQ PUSH2 0x27CB JUMPI DUP5 PUSH1 0x5 PUSH0 DUP4 DUP2 MSTORE PUSH1 0x20 ADD SWAP1 DUP2 MSTORE PUSH1 0x20 ADD PUSH0 KECCAK256 DUP2 SWAP1 SSTORE POP JUMPDEST JUMPDEST POP JUMPDEST DUP6 PUSH0 PUSH20 0xFFFFFFFFFFFFFFFFFFFFFFFFFFFFFFFFFFFFFFFF AND DUP5 PUSH20 0xFFFFFFFFFFFFFFFFFFFFFFFFFFFFFFFFFFFFFFFF AND PUSH32 0xDDF252AD1BE2C89B69C2B068FC378DAA952BA7F163C4A11628F55A4DF523B3EF PUSH1 0x40 MLOAD PUSH1 0x40 MLOAD DUP1 SWAP2 SUB SWAP1 LOG4 PUSH2 0x2836 DUP4 PUSH0 DUP9 PUSH1 0x1 PUSH2 0x20A6 JUMP JUMPDEST PUSH1 0x2 PUSH0 DUP2 SLOAD DUP1 SWAP3 SWAP2 SWAP1 PUSH1 0x1 ADD SWAP2 SWAP1 POP SSTORE POP POP POP POP POP POP POP JUMP JUMPDEST PUSH1 0x60 PUSH2 0x285C DUP4 DUP4 PUSH0 PUSH2 0x29DA JUMP JUMPDEST SWAP1 POP SWAP3 SWAP2 POP POP JUMP JUMPDEST PUSH0 PUSH1 0x1 SLOAD SWAP1 POP PUSH0 DUP3 SUB PUSH2 0x2882 JUMPI PUSH2 0x2881 PUSH4 0xB562E8DD PUSH1 0xE0 SHL PUSH2 0x1C29 JUMP JUMPDEST JUMPDEST PUSH2 0x288E PUSH0 DUP5 DUP4 DUP6 PUSH2 0x204F JUMP JUMPDEST PUSH2 0x28AC DUP4 PUSH2 0x289D PUSH0 DUP7 PUSH0 PUSH2 0x2055 JUMP JUMPDEST PUSH2 0x28A6 DUP6 PUSH2 0x2AA3 JUMP JUMPDEST OR PUSH2 0x207C JUMP JUMPDEST PUSH1 0x5 PUSH0 DUP4 DUP2 MSTORE PUSH1 0x20 ADD SWAP1 DUP2 MSTORE PUSH1 0x20 ADD PUSH0 KECCAK256 DUP2 SWAP1 SSTORE POP PUSH1 0x1 PUSH1 0x40 PUSH1 0x1 SWAP1 SHL OR DUP3 MUL PUSH1 0x6 PUSH0 DUP6 PUSH20 0xFFFFFFFFFFFFFFFFFFFFFFFFFFFFFFFFFFFFFFFF AND PUSH20 0xFFFFFFFFFFFFFFFFFFFFFFFFFFFFFFFFFFFFFFFF AND DUP2 MSTORE PUSH1 0x20 ADD SWAP1 DUP2 MSTORE PUSH1 0x20 ADD PUSH0 KECCAK256 PUSH0 DUP3 DUP3 SLOAD ADD SWAP3 POP POP DUP2 SWAP1 SSTORE POP PUSH0 PUSH20 0xFFFFFFFFFFFFFFFFFFFFFFFFFFFFFFFFFFFFFFFF DUP5 PUSH20 0xFFFFFFFFFFFFFFFFFFFFFFFFFFFFFFFFFFFFFFFF AND AND SWAP1 POP PUSH0 DUP2 SUB PUSH2 0x295D JUMPI PUSH2 0x295C PUSH4 0x2E076300 PUSH1 0xE0 SHL PUSH2 0x1C29 JUMP JUMPDEST JUMPDEST PUSH0 DUP4 DUP4 ADD SWAP1 POP PUSH0 DUP4 SWAP1 POP PUSH2 0x296F PUSH2 0x1D6E JUMP JUMPDEST PUSH1 0x1 DUP4 SUB GT ISZERO PUSH2 0x298A JUMPI PUSH2 0x2989 PUSH4 0x81647E3A PUSH1 0xE0 SHL PUSH2 0x1C29 JUMP JUMPDEST JUMPDEST JUMPDEST DUP1 DUP4 PUSH0 PUSH32 0xDDF252AD1BE2C89B69C2B068FC378DAA952BA7F163C4A11628F55A4DF523B3EF PUSH0 DUP1 LOG4 DUP2 DUP2 PUSH1 0x1 ADD SWAP2 POP DUP2 SUB PUSH2 0x298B JUMPI DUP2 PUSH1 0x1 DUP2 SWAP1 SSTORE POP POP POP POP PUSH2 0x29D5 PUSH0 DUP5 DUP4 DUP6 PUSH2 0x20A6 JUMP JUMPDEST POP POP POP JUMP JUMPDEST PUSH1 0x60 DUP2 SELFBALANCE LT ISZERO PUSH2 0x2A21 JUMPI ADDRESS PUSH1 0x40 MLOAD PUSH32 0xCD78605900000000000000000000000000000000000000000000000000000000 DUP2 MSTORE PUSH1 0x4 ADD PUSH2 0x2A18 SWAP2 SWAP1 PUSH2 0x2DC4 JUMP JUMPDEST PUSH1 0x40 MLOAD DUP1 SWAP2 SUB SWAP1 REVERT JUMPDEST PUSH0 DUP1 DUP6 PUSH20 0xFFFFFFFFFFFFFFFFFFFFFFFFFFFFFFFFFFFFFFFF AND DUP5 DUP7 PUSH1 0x40 MLOAD PUSH2 0x2A49 SWAP2 SWAP1 PUSH2 0x3EB1 JUMP JUMPDEST PUSH0 PUSH1 0x40 MLOAD DUP1 DUP4 SUB DUP2 DUP6 DUP8 GAS CALL SWAP3 POP POP POP RETURNDATASIZE DUP1 PUSH0 DUP2 EQ PUSH2 0x2A83 JUMPI PUSH1 0x40 MLOAD SWAP2 POP PUSH1 0x1F NOT PUSH1 0x3F RETURNDATASIZE ADD AND DUP3 ADD PUSH1 0x40 MSTORE RETURNDATASIZE DUP3 MSTORE RETURNDATASIZE PUSH0 PUSH1 0x20 DUP5 ADD RETURNDATACOPY PUSH2 0x2A88 JUMP JUMPDEST PUSH1 0x60 SWAP2 POP JUMPDEST POP SWAP2 POP SWAP2 POP PUSH2 0x2A98 DUP7 DUP4 DUP4 PUSH2 0x2AB2 JUMP JUMPDEST SWAP3 POP POP POP SWAP4 SWAP3 POP POP POP JUMP JUMPDEST PUSH0 PUSH1 0x1 DUP3 EQ PUSH1 0xE1 SHL SWAP1 POP SWAP2 SWAP1 POP JUMP JUMPDEST PUSH1 0x60 DUP3 PUSH2 0x2AC7 JUMPI PUSH2 0x2AC2 DUP3 PUSH2 0x2B3F JUMP JUMPDEST PUSH2 0x2B37 JUMP JUMPDEST PUSH0 DUP3 MLOAD EQ DUP1 ISZERO PUSH2 0x2AED JUMPI POP PUSH0 DUP5 PUSH20 0xFFFFFFFFFFFFFFFFFFFFFFFFFFFFFFFFFFFFFFFF AND EXTCODESIZE EQ JUMPDEST ISZERO PUSH2 0x2B2F JUMPI DUP4 PUSH1 0x40 MLOAD PUSH32 0x9996B31500000000000000000000000000000000000000000000000000000000 DUP2 MSTORE PUSH1 0x4 ADD PUSH2 0x2B26 SWAP2 SWAP1 PUSH2 0x2DC4 JUMP JUMPDEST PUSH1 0x40 MLOAD DUP1 SWAP2 SUB SWAP1 REVERT JUMPDEST DUP2 SWAP1 POP PUSH2 0x2B38 JUMP JUMPDEST JUMPDEST SWAP4 SWAP3 POP POP POP JUMP JUMPDEST PUSH0 DUP2 MLOAD GT ISZERO PUSH2 0x2B51 JUMPI DUP1 MLOAD DUP1 DUP3 PUSH1 0x20 ADD REVERT JUMPDEST PUSH1 0x40 MLOAD PUSH32 0x1425EA4200000000000000000000000000000000000000000000000000000000 DUP2 MSTORE PUSH1 0x4 ADD PUSH1 0x40 MLOAD DUP1 SWAP2 SUB SWAP1 REVERT JUMPDEST PUSH1 0x40 MLOAD DUP1 PUSH1 0x80 ADD PUSH1 0x40 MSTORE DUP1 PUSH0 PUSH1 0x2 DUP2 GT ISZERO PUSH2 0x2BA1 JUMPI PUSH2 0x2BA0 PUSH2 0x2E45 JUMP JUMPDEST JUMPDEST DUP2 MSTORE PUSH1 0x20 ADD PUSH0 DUP2 MSTORE PUSH1 0x20 ADD PUSH0 DUP2 MSTORE PUSH1 0x20 ADD PUSH0 DUP2 MSTORE POP SWAP1 JUMP JUMPDEST PUSH0 PUSH1 0x40 MLOAD SWAP1 POP SWAP1 JUMP JUMPDEST PUSH0 DUP1 REVERT JUMPDEST PUSH0 DUP1 REVERT JUMPDEST PUSH0 PUSH32 0xFFFFFFFF00000000000000000000000000000000000000000000000000000000 DUP3 AND SWAP1 POP SWAP2 SWAP1 POP JUMP JUMPDEST PUSH2 0x2BFE DUP2 PUSH2 0x2BCA JUMP JUMPDEST DUP2 EQ PUSH2 0x2C08 JUMPI PUSH0 DUP1 REVERT JUMPDEST POP JUMP JUMPDEST PUSH0 DUP2 CALLDATALOAD SWAP1 POP PUSH2 0x2C19 DUP2 PUSH2 0x2BF5 JUMP JUMPDEST SWAP3 SWAP2 POP POP JUMP JUMPDEST PUSH0 PUSH1 0x20 DUP3 DUP5 SUB SLT ISZERO PUSH2 0x2C34 JUMPI PUSH2 0x2C33 PUSH2 0x2BC2 JUMP JUMPDEST JUMPDEST PUSH0 PUSH2 0x2C41 DUP5 DUP3 DUP6 ADD PUSH2 0x2C0B JUMP JUMPDEST SWAP2 POP POP SWAP3 SWAP2 POP POP JUMP JUMPDEST PUSH0 DUP2 ISZERO ISZERO SWAP1 POP SWAP2 SWAP1 POP JUMP JUMPDEST PUSH2 0x2C5E DUP2 PUSH2 0x2C4A JUMP JUMPDEST DUP3 MSTORE POP POP JUMP JUMPDEST PUSH0 PUSH1 0x20 DUP3 ADD SWAP1 POP PUSH2 0x2C77 PUSH0 DUP4 ADD DUP5 PUSH2 0x2C55 JUMP JUMPDEST SWAP3 SWAP2 POP POP JUMP JUMPDEST PUSH0 DUP2 MLOAD SWAP1 POP SWAP2 SWAP1 POP JUMP JUMPDEST PUSH0 DUP3 DUP3 MSTORE PUSH1 0x20 DUP3 ADD SWAP1 POP SWAP3 SWAP2 POP POP JUMP JUMPDEST PUSH0 JUMPDEST DUP4 DUP2 LT ISZERO PUSH2 0x2CB4 JUMPI DUP1 DUP3 ADD MLOAD DUP2 DUP5 ADD MSTORE PUSH1 0x20 DUP2 ADD SWAP1 POP PUSH2 0x2C99 JUMP JUMPDEST PUSH0 DUP5 DUP5 ADD MSTORE POP POP POP POP JUMP JUMPDEST PUSH0 PUSH1 0x1F NOT PUSH1 0x1F DUP4 ADD AND SWAP1 POP SWAP2 SWAP1 POP JUMP JUMPDEST PUSH0 PUSH2 0x2CD9 DUP3 PUSH2 0x2C7D JUMP JUMPDEST PUSH2 0x2CE3 DUP2 DUP6 PUSH2 0x2C87 JUMP JUMPDEST SWAP4 POP PUSH2 0x2CF3 DUP2 DUP6 PUSH1 0x20 DUP7 ADD PUSH2 0x2C97 JUMP JUMPDEST PUSH2 0x2CFC DUP2 PUSH2 0x2CBF JUMP JUMPDEST DUP5 ADD SWAP2 POP POP SWAP3 SWAP2 POP POP JUMP JUMPDEST PUSH0 PUSH1 0x20 DUP3 ADD SWAP1 POP DUP2 DUP2 SUB PUSH0 DUP4 ADD MSTORE PUSH2 0x2D1F DUP2 DUP5 PUSH2 0x2CCF JUMP JUMPDEST SWAP1 POP SWAP3 SWAP2 POP POP JUMP JUMPDEST PUSH0 DUP2 SWAP1 POP SWAP2 SWAP1 POP JUMP JUMPDEST PUSH2 0x2D39 DUP2 PUSH2 0x2D27 JUMP JUMPDEST DUP2 EQ PUSH2 0x2D43 JUMPI PUSH0 DUP1 REVERT JUMPDEST POP JUMP JUMPDEST PUSH0 DUP2 CALLDATALOAD SWAP1 POP PUSH2 0x2D54 DUP2 PUSH2 0x2D30 JUMP JUMPDEST SWAP3 SWAP2 POP POP JUMP JUMPDEST PUSH0 PUSH1 0x20 DUP3 DUP5 SUB SLT ISZERO PUSH2 0x2D6F JUMPI PUSH2 0x2D6E PUSH2 0x2BC2 JUMP JUMPDEST JUMPDEST PUSH0 PUSH2 0x2D7C DUP5 DUP3 DUP6 ADD PUSH2 0x2D46 JUMP JUMPDEST SWAP2 POP POP SWAP3 SWAP2 POP POP JUMP JUMPDEST PUSH0 PUSH20 0xFFFFFFFFFFFFFFFFFFFFFFFFFFFFFFFFFFFFFFFF DUP3 AND SWAP1 POP SWAP2 SWAP1 POP JUMP JUMPDEST PUSH0 PUSH2 0x2DAE DUP3 PUSH2 0x2D85 JUMP JUMPDEST SWAP1 POP SWAP2 SWAP1 POP JUMP JUMPDEST PUSH2 0x2DBE DUP2 PUSH2 0x2DA4 JUMP JUMPDEST DUP3 MSTORE POP POP JUMP JUMPDEST PUSH0 PUSH1 0x20 DUP3 ADD SWAP1 POP PUSH2 0x2DD7 PUSH0 DUP4 ADD DUP5 PUSH2 0x2DB5 JUMP JUMPDEST SWAP3 SWAP2 POP POP JUMP JUMPDEST PUSH2 0x2DE6 DUP2 PUSH2 0x2DA4 JUMP JUMPDEST DUP2 EQ PUSH2 0x2DF0 JUMPI PUSH0 DUP1 REVERT JUMPDEST POP JUMP JUMPDEST PUSH0 DUP2 CALLDATALOAD SWAP1 POP PUSH2 0x2E01 DUP2 PUSH2 0x2DDD JUMP JUMPDEST SWAP3 SWAP2 POP POP JUMP JUMPDEST PUSH0 DUP1 PUSH1 0x40 DUP4 DUP6 SUB SLT ISZERO PUSH2 0x2E1D JUMPI PUSH2 0x2E1C PUSH2 0x2BC2 JUMP JUMPDEST JUMPDEST PUSH0 PUSH2 0x2E2A DUP6 DUP3 DUP7 ADD PUSH2 0x2DF3 JUMP JUMPDEST SWAP3 POP POP PUSH1 0x20 PUSH2 0x2E3B DUP6 DUP3 DUP7 ADD PUSH2 0x2D46 JUMP JUMPDEST SWAP2 POP POP SWAP3 POP SWAP3 SWAP1 POP JUMP JUMPDEST PUSH32 0x4E487B7100000000000000000000000000000000000000000000000000000000 PUSH0 MSTORE PUSH1 0x21 PUSH1 0x4 MSTORE PUSH1 0x24 PUSH0 REVERT JUMPDEST PUSH1 0x3 DUP2 LT PUSH2 0x2E83 JUMPI PUSH2 0x2E82 PUSH2 0x2E45 JUMP JUMPDEST JUMPDEST POP JUMP JUMPDEST PUSH0 DUP2 SWAP1 POP PUSH2 0x2E93 DUP3 PUSH2 0x2E72 JUMP JUMPDEST SWAP2 SWAP1 POP JUMP JUMPDEST PUSH0 PUSH2 0x2EA2 DUP3 PUSH2 0x2E86 JUMP JUMPDEST SWAP1 POP SWAP2 SWAP1 POP JUMP JUMPDEST PUSH2 0x2EB2 DUP2 PUSH2 0x2E98 JUMP JUMPDEST DUP3 MSTORE POP POP JUMP JUMPDEST PUSH2 0x2EC1 DUP2 PUSH2 0x2D27 JUMP JUMPDEST DUP3 MSTORE POP POP JUMP JUMPDEST PUSH0 PUSH1 0x80 DUP3 ADD SWAP1 POP PUSH2 0x2EDA PUSH0 DUP4 ADD DUP8 PUSH2 0x2EA9 JUMP JUMPDEST PUSH2 0x2EE7 PUSH1 0x20 DUP4 ADD DUP7 PUSH2 0x2EB8 JUMP JUMPDEST PUSH2 0x2EF4 PUSH1 0x40 DUP4 ADD DUP6 PUSH2 0x2EB8 JUMP JUMPDEST PUSH2 0x2F01 PUSH1 0x60 DUP4 ADD DUP5 PUSH2 0x2EB8 JUMP JUMPDEST SWAP6 SWAP5 POP POP POP POP POP JUMP JUMPDEST PUSH0 PUSH1 0x20 DUP3 ADD SWAP1 POP PUSH2 0x2F1D PUSH0 DUP4 ADD DUP5 PUSH2 0x2EB8 JUMP JUMPDEST SWAP3 SWAP2 POP POP JUMP JUMPDEST PUSH0 DUP1 REVERT JUMPDEST PUSH0 DUP1 REVERT JUMPDEST PUSH32 0x4E487B7100000000000000000000000000000000000000000000000000000000 PUSH0 MSTORE PUSH1 0x41 PUSH1 0x4 MSTORE PUSH1 0x24 PUSH0 REVERT JUMPDEST PUSH2 0x2F61 DUP3 PUSH2 0x2CBF JUMP JUMPDEST DUP2 ADD DUP2 DUP2 LT PUSH8 0xFFFFFFFFFFFFFFFF DUP3 GT OR ISZERO PUSH2 0x2F80 JUMPI PUSH2 0x2F7F PUSH2 0x2F2B JUMP JUMPDEST JUMPDEST DUP1 PUSH1 0x40 MSTORE POP POP POP JUMP JUMPDEST PUSH0 PUSH2 0x2F92 PUSH2 0x2BB9 JUMP JUMPDEST SWAP1 POP PUSH2 0x2F9E DUP3 DUP3 PUSH2 0x2F58 JUMP JUMPDEST SWAP2 SWAP1 POP JUMP JUMPDEST PUSH0 PUSH8 0xFFFFFFFFFFFFFFFF DUP3 GT ISZERO PUSH2 0x2FBD JUMPI PUSH2 0x2FBC PUSH2 0x2F2B JUMP JUMPDEST JUMPDEST PUSH2 0x2FC6 DUP3 PUSH2 0x2CBF JUMP JUMPDEST SWAP1 POP PUSH1 0x20 DUP2 ADD SWAP1 POP SWAP2 SWAP1 POP JUMP JUMPDEST DUP3 DUP2 DUP4 CALLDATACOPY PUSH0 DUP4 DUP4 ADD MSTORE POP POP POP JUMP JUMPDEST PUSH0 PUSH2 0x2FF3 PUSH2 0x2FEE DUP5 PUSH2 0x2FA3 JUMP JUMPDEST PUSH2 0x2F89 JUMP JUMPDEST SWAP1 POP DUP3 DUP2 MSTORE PUSH1 0x20 DUP2 ADD DUP5 DUP5 DUP5 ADD GT ISZERO PUSH2 0x300F JUMPI PUSH2 0x300E PUSH2 0x2F27 JUMP JUMPDEST JUMPDEST PUSH2 0x301A DUP5 DUP3 DUP6 PUSH2 0x2FD3 JUMP JUMPDEST POP SWAP4 SWAP3 POP POP POP JUMP JUMPDEST PUSH0 DUP3 PUSH1 0x1F DUP4 ADD SLT PUSH2 0x3036 JUMPI PUSH2 0x3035 PUSH2 0x2F23 JUMP JUMPDEST JUMPDEST DUP2 CALLDATALOAD PUSH2 0x3046 DUP5 DUP3 PUSH1 0x20 DUP7 ADD PUSH2 0x2FE1 JUMP JUMPDEST SWAP2 POP POP SWAP3 SWAP2 POP POP JUMP JUMPDEST PUSH0 DUP1 PUSH0 PUSH1 0x60 DUP5 DUP7 SUB SLT ISZERO PUSH2 0x3066 JUMPI PUSH2 0x3065 PUSH2 0x2BC2 JUMP JUMPDEST JUMPDEST PUSH0 PUSH2 0x3073 DUP7 DUP3 DUP8 ADD PUSH2 0x2D46 JUMP JUMPDEST SWAP4 POP POP PUSH1 0x20 DUP5 ADD CALLDATALOAD PUSH8 0xFFFFFFFFFFFFFFFF DUP2 GT ISZERO PUSH2 0x3094 JUMPI PUSH2 0x3093 PUSH2 0x2BC6 JUMP JUMPDEST JUMPDEST PUSH2 0x30A0 DUP7 DUP3 DUP8 ADD PUSH2 0x3022 JUMP JUMPDEST SWAP3 POP POP PUSH1 0x40 PUSH2 0x30B1 DUP7 DUP3 DUP8 ADD PUSH2 0x2DF3 JUMP JUMPDEST SWAP2 POP POP SWAP3 POP SWAP3 POP SWAP3 JUMP JUMPDEST PUSH0 DUP1 PUSH0 PUSH1 0x60 DUP5 DUP7 SUB SLT ISZERO PUSH2 0x30D2 JUMPI PUSH2 0x30D1 PUSH2 0x2BC2 JUMP JUMPDEST JUMPDEST PUSH0 PUSH2 0x30DF DUP7 DUP3 DUP8 ADD PUSH2 0x2DF3 JUMP JUMPDEST SWAP4 POP POP PUSH1 0x20 PUSH2 0x30F0 DUP7 DUP3 DUP8 ADD PUSH2 0x2DF3 JUMP JUMPDEST SWAP3 POP POP PUSH1 0x40 PUSH2 0x3101 DUP7 DUP3 DUP8 ADD PUSH2 0x2D46 JUMP JUMPDEST SWAP2 POP POP SWAP3 POP SWAP3 POP SWAP3 JUMP JUMPDEST PUSH0 PUSH1 0x20 DUP3 ADD SWAP1 POP PUSH2 0x311E PUSH0 DUP4 ADD DUP5 PUSH2 0x2EA9 JUMP JUMPDEST SWAP3 SWAP2 POP POP JUMP JUMPDEST PUSH0 PUSH1 0x20 DUP3 DUP5 SUB SLT ISZERO PUSH2 0x3139 JUMPI PUSH2 0x3138 PUSH2 0x2BC2 JUMP JUMPDEST JUMPDEST PUSH0 PUSH2 0x3146 DUP5 DUP3 DUP6 ADD PUSH2 0x2DF3 JUMP JUMPDEST SWAP2 POP POP SWAP3 SWAP2 POP POP JUMP JUMPDEST PUSH0 PUSH1 0xFF DUP3 AND SWAP1 POP SWAP2 SWAP1 POP JUMP JUMPDEST PUSH2 0x3164 DUP2 PUSH2 0x314F JUMP JUMPDEST DUP2 EQ PUSH2 0x316E JUMPI PUSH0 DUP1 REVERT JUMPDEST POP JUMP JUMPDEST PUSH0 DUP2 CALLDATALOAD SWAP1 POP PUSH2 0x317F DUP2 PUSH2 0x315B JUMP JUMPDEST SWAP3 SWAP2 POP POP JUMP JUMPDEST PUSH0 DUP1 PUSH0 DUP1 PUSH0 DUP1 PUSH0 PUSH1 0xE0 DUP9 DUP11 SUB SLT ISZERO PUSH2 0x31A0 JUMPI PUSH2 0x319F PUSH2 0x2BC2 JUMP JUMPDEST JUMPDEST PUSH0 DUP9 ADD CALLDATALOAD PUSH8 0xFFFFFFFFFFFFFFFF DUP2 GT ISZERO PUSH2 0x31BD JUMPI PUSH2 0x31BC PUSH2 0x2BC6 JUMP JUMPDEST JUMPDEST PUSH2 0x31C9 DUP11 DUP3 DUP12 ADD PUSH2 0x3022 JUMP JUMPDEST SWAP8 POP POP PUSH1 0x20 PUSH2 0x31DA DUP11 DUP3 DUP12 ADD PUSH2 0x3171 JUMP JUMPDEST SWAP7 POP POP PUSH1 0x40 PUSH2 0x31EB DUP11 DUP3 DUP12 ADD PUSH2 0x2D46 JUMP JUMPDEST SWAP6 POP POP PUSH1 0x60 PUSH2 0x31FC DUP11 DUP3 DUP12 ADD PUSH2 0x2D46 JUMP JUMPDEST SWAP5 POP POP PUSH1 0x80 PUSH2 0x320D DUP11 DUP3 DUP12 ADD PUSH2 0x2D46 JUMP JUMPDEST SWAP4 POP POP PUSH1 0xA0 PUSH2 0x321E DUP11 DUP3 DUP12 ADD PUSH2 0x2D46 JUMP JUMPDEST SWAP3 POP POP PUSH1 0xC0 PUSH2 0x322F DUP11 DUP3 DUP12 ADD PUSH2 0x2D46 JUMP JUMPDEST SWAP2 POP POP SWAP3 SWAP6 SWAP9 SWAP2 SWAP5 SWAP8 POP SWAP3 SWAP6 POP JUMP JUMPDEST PUSH0 DUP1 REVERT JUMPDEST PUSH0 DUP1 REVERT JUMPDEST PUSH0 DUP1 DUP4 PUSH1 0x1F DUP5 ADD SLT PUSH2 0x325B JUMPI PUSH2 0x325A PUSH2 0x2F23 JUMP JUMPDEST JUMPDEST DUP3 CALLDATALOAD SWAP1 POP PUSH8 0xFFFFFFFFFFFFFFFF DUP2 GT ISZERO PUSH2 0x3278 JUMPI PUSH2 0x3277 PUSH2 0x323E JUMP JUMPDEST JUMPDEST PUSH1 0x20 DUP4 ADD SWAP2 POP DUP4 PUSH1 0x1 DUP3 MUL DUP4 ADD GT ISZERO PUSH2 0x3294 JUMPI PUSH2 0x3293 PUSH2 0x3242 JUMP JUMPDEST JUMPDEST SWAP3 POP SWAP3 SWAP1 POP JUMP JUMPDEST PUSH0 DUP1 PUSH1 0x20 DUP4 DUP6 SUB SLT ISZERO PUSH2 0x32B1 JUMPI PUSH2 0x32B0 PUSH2 0x2BC2 JUMP JUMPDEST JUMPDEST PUSH0 DUP4 ADD CALLDATALOAD PUSH8 0xFFFFFFFFFFFFFFFF DUP2 GT ISZERO PUSH2 0x32CE JUMPI PUSH2 0x32CD PUSH2 0x2BC6 JUMP JUMPDEST JUMPDEST PUSH2 0x32DA DUP6 DUP3 DUP7 ADD PUSH2 0x3246 JUMP JUMPDEST SWAP3 POP SWAP3 POP POP SWAP3 POP SWAP3 SWAP1 POP JUMP JUMPDEST PUSH2 0x32EF DUP2 PUSH2 0x2E98 JUMP JUMPDEST DUP3 MSTORE POP POP JUMP JUMPDEST PUSH2 0x32FE DUP2 PUSH2 0x2D27 JUMP JUMPDEST DUP3 MSTORE POP POP JUMP JUMPDEST PUSH1 0x80 DUP3 ADD PUSH0 DUP3 ADD MLOAD PUSH2 0x3318 PUSH0 DUP6 ADD DUP3 PUSH2 0x32E6 JUMP JUMPDEST POP PUSH1 0x20 DUP3 ADD MLOAD PUSH2 0x332B PUSH1 0x20 DUP6 ADD DUP3 PUSH2 0x32F5 JUMP JUMPDEST POP PUSH1 0x40 DUP3 ADD MLOAD PUSH2 0x333E PUSH1 0x40 DUP6 ADD DUP3 PUSH2 0x32F5 JUMP JUMPDEST POP PUSH1 0x60 DUP3 ADD MLOAD PUSH2 0x3351 PUSH1 0x60 DUP6 ADD DUP3 PUSH2 0x32F5 JUMP JUMPDEST POP POP POP POP JUMP JUMPDEST PUSH0 PUSH1 0x80 DUP3 ADD SWAP1 POP PUSH2 0x336A PUSH0 DUP4 ADD DUP5 PUSH2 0x3304 JUMP JUMPDEST SWAP3 SWAP2 POP POP JUMP JUMPDEST PUSH0 PUSH1 0x20 DUP3 DUP5 SUB SLT ISZERO PUSH2 0x3385 JUMPI PUSH2 0x3384 PUSH2 0x2BC2 JUMP JUMPDEST JUMPDEST PUSH0 DUP3 ADD CALLDATALOAD PUSH8 0xFFFFFFFFFFFFFFFF DUP2 GT ISZERO PUSH2 0x33A2 JUMPI PUSH2 0x33A1 PUSH2 0x2BC6 JUMP JUMPDEST JUMPDEST PUSH2 0x33AE DUP5 DUP3 DUP6 ADD PUSH2 0x3022 JUMP JUMPDEST SWAP2 POP POP SWAP3 SWAP2 POP POP JUMP JUMPDEST PUSH0 PUSH1 0xC0 DUP3 ADD SWAP1 POP PUSH2 0x33CA PUSH0 DUP4 ADD DUP10 PUSH2 0x2EA9 JUMP JUMPDEST PUSH2 0x33D7 PUSH1 0x20 DUP4 ADD DUP9 PUSH2 0x2EB8 JUMP JUMPDEST PUSH2 0x33E4 PUSH1 0x40 DUP4 ADD DUP8 PUSH2 0x2EB8 JUMP JUMPDEST PUSH2 0x33F1 PUSH1 0x60 DUP4 ADD DUP7 PUSH2 0x2EB8 JUMP JUMPDEST PUSH2 0x33FE PUSH1 0x80 DUP4 ADD DUP6 PUSH2 0x2EB8 JUMP JUMPDEST PUSH2 0x340B PUSH1 0xA0 DUP4 ADD DUP5 PUSH2 0x2EB8 JUMP JUMPDEST SWAP8 SWAP7 POP POP POP POP POP POP POP JUMP JUMPDEST PUSH2 0x341F DUP2 PUSH2 0x2C4A JUMP JUMPDEST DUP2 EQ PUSH2 0x3429 JUMPI PUSH0 DUP1 REVERT JUMPDEST POP JUMP JUMPDEST PUSH0 DUP2 CALLDATALOAD SWAP1 POP PUSH2 0x343A DUP2 PUSH2 0x3416 JUMP JUMPDEST SWAP3 SWAP2 POP POP JUMP JUMPDEST PUSH0 DUP1 PUSH1 0x40 DUP4 DUP6 SUB SLT ISZERO PUSH2 0x3456 JUMPI PUSH2 0x3455 PUSH2 0x2BC2 JUMP JUMPDEST JUMPDEST PUSH0 PUSH2 0x3463 DUP6 DUP3 DUP7 ADD PUSH2 0x2DF3 JUMP JUMPDEST SWAP3 POP POP PUSH1 0x20 PUSH2 0x3474 DUP6 DUP3 DUP7 ADD PUSH2 0x342C JUMP JUMPDEST SWAP2 POP POP SWAP3 POP SWAP3 SWAP1 POP JUMP JUMPDEST PUSH0 DUP1 PUSH1 0x40 DUP4 DUP6 SUB SLT ISZERO PUSH2 0x3494 JUMPI PUSH2 0x3493 PUSH2 0x2BC2 JUMP JUMPDEST JUMPDEST PUSH0 PUSH2 0x34A1 DUP6 DUP3 DUP7 ADD PUSH2 0x2D46 JUMP JUMPDEST SWAP3 POP POP PUSH1 0x20 PUSH2 0x34B2 DUP6 DUP3 DUP7 ADD PUSH2 0x2D46 JUMP JUMPDEST SWAP2 POP POP SWAP3 POP SWAP3 SWAP1 POP JUMP JUMPDEST PUSH0 PUSH8 0xFFFFFFFFFFFFFFFF DUP3 GT ISZERO PUSH2 0x34D6 JUMPI PUSH2 0x34D5 PUSH2 0x2F2B JUMP JUMPDEST JUMPDEST PUSH2 0x34DF DUP3 PUSH2 0x2CBF JUMP JUMPDEST SWAP1 POP PUSH1 0x20 DUP2 ADD SWAP1 POP SWAP2 SWAP1 POP JUMP JUMPDEST PUSH0 PUSH2 0x34FE PUSH2 0x34F9 DUP5 PUSH2 0x34BC JUMP JUMPDEST PUSH2 0x2F89 JUMP JUMPDEST SWAP1 POP DUP3 DUP2 MSTORE PUSH1 0x20 DUP2 ADD DUP5 DUP5 DUP5 ADD GT ISZERO PUSH2 0x351A JUMPI PUSH2 0x3519 PUSH2 0x2F27 JUMP JUMPDEST JUMPDEST PUSH2 0x3525 DUP5 DUP3 DUP6 PUSH2 0x2FD3 JUMP JUMPDEST POP SWAP4 SWAP3 POP POP POP JUMP JUMPDEST PUSH0 DUP3 PUSH1 0x1F DUP4 ADD SLT PUSH2 0x3541 JUMPI PUSH2 0x3540 PUSH2 0x2F23 JUMP JUMPDEST JUMPDEST DUP2 CALLDATALOAD PUSH2 0x3551 DUP5 DUP3 PUSH1 0x20 DUP7 ADD PUSH2 0x34EC JUMP JUMPDEST SWAP2 POP POP SWAP3 SWAP2 POP POP JUMP JUMPDEST PUSH0 DUP1 PUSH0 DUP1 PUSH1 0x80 DUP6 DUP8 SUB SLT ISZERO PUSH2 0x3572 JUMPI PUSH2 0x3571 PUSH2 0x2BC2 JUMP JUMPDEST JUMPDEST PUSH0 PUSH2 0x357F DUP8 DUP3 DUP9 ADD PUSH2 0x2DF3 JUMP JUMPDEST SWAP5 POP POP PUSH1 0x20 PUSH2 0x3590 DUP8 DUP3 DUP9 ADD PUSH2 0x2DF3 JUMP JUMPDEST SWAP4 POP POP PUSH1 0x40 PUSH2 0x35A1 DUP8 DUP3 DUP9 ADD PUSH2 0x2D46 JUMP JUMPDEST SWAP3 POP POP PUSH1 0x60 DUP6 ADD CALLDATALOAD PUSH8 0xFFFFFFFFFFFFFFFF DUP2 GT ISZERO PUSH2 0x35C2 JUMPI PUSH2 0x35C1 PUSH2 0x2BC6 JUMP JUMPDEST JUMPDEST PUSH2 0x35CE DUP8 DUP3 DUP9 ADD PUSH2 0x352D JUMP JUMPDEST SWAP2 POP POP SWAP3 SWAP6 SWAP2 SWAP5 POP SWAP3 POP JUMP JUMPDEST PUSH0 DUP1 PUSH1 0x40 DUP4 DUP6 SUB SLT ISZERO PUSH2 0x35F0 JUMPI PUSH2 0x35EF PUSH2 0x2BC2 JUMP JUMPDEST JUMPDEST PUSH0 PUSH2 0x35FD DUP6 DUP3 DUP7 ADD PUSH2 0x2DF3 JUMP JUMPDEST SWAP3 POP POP PUSH1 0x20 PUSH2 0x360E DUP6 DUP3 DUP7 ADD PUSH2 0x2DF3 JUMP JUMPDEST SWAP2 POP POP SWAP3 POP SWAP3 SWAP1 POP JUMP JUMPDEST PUSH32 0x4E487B7100000000000000000000000000000000000000000000000000000000 PUSH0 MSTORE PUSH1 0x22 PUSH1 0x4 MSTORE PUSH1 0x24 PUSH0 REVERT JUMPDEST PUSH0 PUSH1 0x2 DUP3 DIV SWAP1 POP PUSH1 0x1 DUP3 AND DUP1 PUSH2 0x365C JUMPI PUSH1 0x7F DUP3 AND SWAP2 POP JUMPDEST PUSH1 0x20 DUP3 LT DUP2 SUB PUSH2 0x366F JUMPI PUSH2 0x366E PUSH2 0x3618 JUMP JUMPDEST JUMPDEST POP SWAP2 SWAP1 POP JUMP JUMPDEST PUSH32 0x454E47494E455F4E4F545F434F4E464947000000000000000000000000000000 PUSH0 DUP3 ADD MSTORE POP JUMP JUMPDEST PUSH0 PUSH2 0x36A9 PUSH1 0x11 DUP4 PUSH2 0x2C87 JUMP JUMPDEST SWAP2 POP PUSH2 0x36B4 DUP3 PUSH2 0x3675 JUMP JUMPDEST PUSH1 0x20 DUP3 ADD SWAP1 POP SWAP2 SWAP1 POP JUMP JUMPDEST PUSH0 PUSH1 0x20 DUP3 ADD SWAP1 POP DUP2 DUP2 SUB PUSH0 DUP4 ADD MSTORE PUSH2 0x36D6 DUP2 PUSH2 0x369D JUMP JUMPDEST SWAP1 POP SWAP2 SWAP1 POP JUMP JUMPDEST PUSH32 0x6E66746964206578697374212121000000000000000000000000000000000000 PUSH0 DUP3 ADD MSTORE POP JUMP JUMPDEST PUSH0 PUSH2 0x3711 PUSH1 0xE DUP4 PUSH2 0x2C87 JUMP JUMPDEST SWAP2 POP PUSH2 0x371C DUP3 PUSH2 0x36DD JUMP JUMPDEST PUSH1 0x20 DUP3 ADD SWAP1 POP SWAP2 SWAP1 POP JUMP JUMPDEST PUSH0 PUSH1 0x20 DUP3 ADD SWAP1 POP DUP2 DUP2 SUB PUSH0 DUP4 ADD MSTORE PUSH2 0x373E DUP2 PUSH2 0x3705 JUMP JUMPDEST SWAP1 POP SWAP2 SWAP1 POP JUMP JUMPDEST PUSH32 0x456E67696E65206E6F7420657869737400000000000000000000000000000000 PUSH0 DUP3 ADD MSTORE POP JUMP JUMPDEST PUSH0 PUSH2 0x3779 PUSH1 0x10 DUP4 PUSH2 0x2C87 JUMP JUMPDEST SWAP2 POP PUSH2 0x3784 DUP3 PUSH2 0x3745 JUMP JUMPDEST PUSH1 0x20 DUP3 ADD SWAP1 POP SWAP2 SWAP1 POP JUMP JUMPDEST PUSH0 PUSH1 0x20 DUP3 ADD SWAP1 POP DUP2 DUP2 SUB PUSH0 DUP4 ADD MSTORE PUSH2 0x37A6 DUP2 PUSH2 0x376D JUMP JUMPDEST SWAP1 POP SWAP2 SWAP1 POP JUMP JUMPDEST PUSH32 0x546F6B656E206E6F7420737570706F7274000000000000000000000000000000 PUSH0 DUP3 ADD MSTORE POP JUMP JUMPDEST PUSH0 PUSH2 0x37E1 PUSH1 0x11 DUP4 PUSH2 0x2C87 JUMP JUMPDEST SWAP2 POP PUSH2 0x37EC DUP3 PUSH2 0x37AD JUMP JUMPDEST PUSH1 0x20 DUP3 ADD SWAP1 POP SWAP2 SWAP1 POP JUMP JUMPDEST PUSH0 PUSH1 0x20 DUP3 ADD SWAP1 POP DUP2 DUP2 SUB PUSH0 DUP4 ADD MSTORE PUSH2 0x380E DUP2 PUSH2 0x37D5 JUMP JUMPDEST SWAP1 POP SWAP2 SWAP1 POP JUMP JUMPDEST PUSH0 DUP2 SWAP1 POP SWAP3 SWAP2 POP POP JUMP JUMPDEST PUSH0 PUSH2 0x3829 DUP3 PUSH2 0x2C7D JUMP JUMPDEST PUSH2 0x3833 DUP2 DUP6 PUSH2 0x3815 JUMP JUMPDEST SWAP4 POP PUSH2 0x3843 DUP2 DUP6 PUSH1 0x20 DUP7 ADD PUSH2 0x2C97 JUMP JUMPDEST DUP1 DUP5 ADD SWAP2 POP POP SWAP3 SWAP2 POP POP JUMP JUMPDEST PUSH0 PUSH2 0x385A DUP3 DUP5 PUSH2 0x381F JUMP JUMPDEST SWAP2 POP DUP2 SWAP1 POP SWAP3 SWAP2 POP POP JUMP JUMPDEST PUSH32 0x4E487B7100000000000000000000000000000000000000000000000000000000 PUSH0 MSTORE PUSH1 0x11 PUSH1 0x4 MSTORE PUSH1 0x24 PUSH0 REVERT JUMPDEST PUSH0 PUSH2 0x389C DUP3 PUSH2 0x2D27 JUMP JUMPDEST SWAP2 POP PUSH2 0x38A7 DUP4 PUSH2 0x2D27 JUMP JUMPDEST SWAP3 POP DUP3 DUP3 ADD SWAP1 POP DUP1 DUP3 GT ISZERO PUSH2 0x38BF JUMPI PUSH2 0x38BE PUSH2 0x3865 JUMP JUMPDEST JUMPDEST SWAP3 SWAP2 POP POP JUMP JUMPDEST PUSH32 0x43616E6E6F74206D696E74206D6F72652C206D617820737570706C7920726561 PUSH0 DUP3 ADD MSTORE PUSH32 0x6368656400000000000000000000000000000000000000000000000000000000 PUSH1 0x20 DUP3 ADD MSTORE POP JUMP JUMPDEST PUSH0 PUSH2 0x391F PUSH1 0x24 DUP4 PUSH2 0x2C87 JUMP JUMPDEST SWAP2 POP PUSH2 0x392A DUP3 PUSH2 0x38C5 JUMP JUMPDEST PUSH1 0x40 DUP3 ADD SWAP1 POP SWAP2 SWAP1 POP JUMP JUMPDEST PUSH0 PUSH1 0x20 DUP3 ADD SWAP1 POP DUP2 DUP2 SUB PUSH0 DUP4 ADD MSTORE PUSH2 0x394C DUP2 PUSH2 0x3913 JUMP JUMPDEST SWAP1 POP SWAP2 SWAP1 POP JUMP JUMPDEST PUSH0 PUSH2 0x395D DUP3 PUSH2 0x2D27 JUMP JUMPDEST SWAP2 POP PUSH32 0xFFFFFFFFFFFFFFFFFFFFFFFFFFFFFFFFFFFFFFFFFFFFFFFFFFFFFFFFFFFFFFFF DUP3 SUB PUSH2 0x398F JUMPI PUSH2 0x398E PUSH2 0x3865 JUMP JUMPDEST JUMPDEST PUSH1 0x1 DUP3 ADD SWAP1 POP SWAP2 SWAP1 POP JUMP JUMPDEST PUSH0 DUP3 SWAP1 POP SWAP3 SWAP2 POP POP JUMP JUMPDEST PUSH0 DUP2 SWAP1 POP DUP2 PUSH0 MSTORE PUSH1 0x20 PUSH0 KECCAK256 SWAP1 POP SWAP2 SWAP1 POP JUMP JUMPDEST PUSH0 PUSH1 0x20 PUSH1 0x1F DUP4 ADD DIV SWAP1 POP SWAP2 SWAP1 POP JUMP JUMPDEST PUSH0 DUP3 DUP3 SHL SWAP1 POP SWAP3 SWAP2 POP POP JUMP JUMPDEST PUSH0 PUSH1 0x8 DUP4 MUL PUSH2 0x3A00 PUSH32 0xFFFFFFFFFFFFFFFFFFFFFFFFFFFFFFFFFFFFFFFFFFFFFFFFFFFFFFFFFFFFFFFF DUP3 PUSH2 0x39C5 JUMP JUMPDEST PUSH2 0x3A0A DUP7 DUP4 PUSH2 0x39C5 JUMP JUMPDEST SWAP6 POP DUP1 NOT DUP5 AND SWAP4 POP DUP1 DUP7 AND DUP5 OR SWAP3 POP POP POP SWAP4 SWAP3 POP POP POP JUMP JUMPDEST PUSH0 DUP2 SWAP1 POP SWAP2 SWAP1 POP JUMP JUMPDEST PUSH0 PUSH2 0x3A45 PUSH2 0x3A40 PUSH2 0x3A3B DUP5 PUSH2 0x2D27 JUMP JUMPDEST PUSH2 0x3A22 JUMP JUMPDEST PUSH2 0x2D27 JUMP JUMPDEST SWAP1 POP SWAP2 SWAP1 POP JUMP JUMPDEST PUSH0 DUP2 SWAP1 POP SWAP2 SWAP1 POP JUMP JUMPDEST PUSH2 0x3A5E DUP4 PUSH2 0x3A2B JUMP JUMPDEST PUSH2 0x3A72 PUSH2 0x3A6A DUP3 PUSH2 0x3A4C JUMP JUMPDEST DUP5 DUP5 SLOAD PUSH2 0x39D1 JUMP JUMPDEST DUP3 SSTORE POP POP POP POP JUMP JUMPDEST PUSH0 SWAP1 JUMP JUMPDEST PUSH2 0x3A86 PUSH2 0x3A7A JUMP JUMPDEST PUSH2 0x3A91 DUP2 DUP5 DUP5 PUSH2 0x3A55 JUMP JUMPDEST POP POP POP JUMP JUMPDEST JUMPDEST DUP2 DUP2 LT ISZERO PUSH2 0x3AB4 JUMPI PUSH2 0x3AA9 PUSH0 DUP3 PUSH2 0x3A7E JUMP JUMPDEST PUSH1 0x1 DUP2 ADD SWAP1 POP PUSH2 0x3A97 JUMP JUMPDEST POP POP JUMP JUMPDEST PUSH1 0x1F DUP3 GT ISZERO PUSH2 0x3AF9 JUMPI PUSH2 0x3ACA DUP2 PUSH2 0x39A4 JUMP JUMPDEST PUSH2 0x3AD3 DUP5 PUSH2 0x39B6 JUMP JUMPDEST DUP2 ADD PUSH1 0x20 DUP6 LT ISZERO PUSH2 0x3AE2 JUMPI DUP2 SWAP1 POP JUMPDEST PUSH2 0x3AF6 PUSH2 0x3AEE DUP6 PUSH2 0x39B6 JUMP JUMPDEST DUP4 ADD DUP3 PUSH2 0x3A96 JUMP JUMPDEST POP POP JUMPDEST POP POP POP JUMP JUMPDEST PUSH0 DUP3 DUP3 SHR SWAP1 POP SWAP3 SWAP2 POP POP JUMP JUMPDEST PUSH0 PUSH2 0x3B19 PUSH0 NOT DUP5 PUSH1 0x8 MUL PUSH2 0x3AFE JUMP JUMPDEST NOT DUP1 DUP4 AND SWAP2 POP POP SWAP3 SWAP2 POP POP JUMP JUMPDEST PUSH0 PUSH2 0x3B31 DUP4 DUP4 PUSH2 0x3B0A JUMP JUMPDEST SWAP2 POP DUP3 PUSH1 0x2 MUL DUP3 OR SWAP1 POP SWAP3 SWAP2 POP POP JUMP JUMPDEST PUSH2 0x3B4B DUP4 DUP4 PUSH2 0x399A JUMP JUMPDEST PUSH8 0xFFFFFFFFFFFFFFFF DUP2 GT ISZERO PUSH2 0x3B64 JUMPI PUSH2 0x3B63 PUSH2 0x2F2B JUMP JUMPDEST JUMPDEST PUSH2 0x3B6E DUP3 SLOAD PUSH2 0x3645 JUMP JUMPDEST PUSH2 0x3B79 DUP3 DUP3 DUP6 PUSH2 0x3AB8 JUMP JUMPDEST PUSH0 PUSH1 0x1F DUP4 GT PUSH1 0x1 DUP2 EQ PUSH2 0x3BA6 JUMPI PUSH0 DUP5 ISZERO PUSH2 0x3B94 JUMPI DUP3 DUP8 ADD CALLDATALOAD SWAP1 POP JUMPDEST PUSH2 0x3B9E DUP6 DUP3 PUSH2 0x3B26 JUMP JUMPDEST DUP7 SSTORE POP PUSH2 0x3C05 JUMP JUMPDEST PUSH1 0x1F NOT DUP5 AND PUSH2 0x3BB4 DUP7 PUSH2 0x39A4 JUMP JUMPDEST PUSH0 JUMPDEST DUP3 DUP2 LT ISZERO PUSH2 0x3BDB JUMPI DUP5 DUP10 ADD CALLDATALOAD DUP3 SSTORE PUSH1 0x1 DUP3 ADD SWAP2 POP PUSH1 0x20 DUP6 ADD SWAP5 POP PUSH1 0x20 DUP2 ADD SWAP1 POP PUSH2 0x3BB6 JUMP JUMPDEST DUP7 DUP4 LT ISZERO PUSH2 0x3BF8 JUMPI DUP5 DUP10 ADD CALLDATALOAD PUSH2 0x3BF4 PUSH1 0x1F DUP10 AND DUP3 PUSH2 0x3B0A JUMP JUMPDEST DUP4 SSTORE POP JUMPDEST PUSH1 0x1 PUSH1 0x2 DUP9 MUL ADD DUP9 SSTORE POP POP POP JUMPDEST POP POP POP POP POP POP POP JUMP JUMPDEST PUSH32 0x4552524F525F454E47494E455F4E4F545F534554000000000000000000000000 PUSH0 DUP3 ADD MSTORE POP JUMP JUMPDEST PUSH0 PUSH2 0x3C42 PUSH1 0x14 DUP4 PUSH2 0x2C87 JUMP JUMPDEST SWAP2 POP PUSH2 0x3C4D DUP3 PUSH2 0x3C0E JUMP JUMPDEST PUSH1 0x20 DUP3 ADD SWAP1 POP SWAP2 SWAP1 POP JUMP JUMPDEST PUSH0 PUSH1 0x20 DUP3 ADD SWAP1 POP DUP2 DUP2 SUB PUSH0 DUP4 ADD MSTORE PUSH2 0x3C6F DUP2 PUSH2 0x3C36 JUMP JUMPDEST SWAP1 POP SWAP2 SWAP1 POP JUMP JUMPDEST PUSH32 0x4552524F525F5045524D495353494F4E00000000000000000000000000000000 PUSH0 DUP3 ADD MSTORE POP JUMP JUMPDEST PUSH0 PUSH2 0x3CAA PUSH1 0x10 DUP4 PUSH2 0x2C87 JUMP JUMPDEST SWAP2 POP PUSH2 0x3CB5 DUP3 PUSH2 0x3C76 JUMP JUMPDEST PUSH1 0x20 DUP3 ADD SWAP1 POP SWAP2 SWAP1 POP JUMP JUMPDEST PUSH0 PUSH1 0x20 DUP3 ADD SWAP1 POP DUP2 DUP2 SUB PUSH0 DUP4 ADD MSTORE PUSH2 0x3CD7 DUP2 PUSH2 0x3C9E JUMP JUMPDEST SWAP1 POP SWAP2 SWAP1 POP JUMP JUMPDEST PUSH0 PUSH2 0x3CE9 DUP3 DUP6 PUSH2 0x381F JUMP JUMPDEST SWAP2 POP PUSH2 0x3CF5 DUP3 DUP5 PUSH2 0x381F JUMP JUMPDEST SWAP2 POP DUP2 SWAP1 POP SWAP4 SWAP3 POP POP POP JUMP JUMPDEST PUSH0 PUSH2 0x3D0B DUP3 PUSH2 0x2D27 JUMP JUMPDEST SWAP2 POP PUSH0 DUP3 SUB PUSH2 0x3D1D JUMPI PUSH2 0x3D1C PUSH2 0x3865 JUMP JUMPDEST JUMPDEST PUSH1 0x1 DUP3 SUB SWAP1 POP SWAP2 SWAP1 POP JUMP JUMPDEST PUSH0 PUSH1 0x60 DUP3 ADD SWAP1 POP PUSH2 0x3D3B PUSH0 DUP4 ADD DUP7 PUSH2 0x2DB5 JUMP JUMPDEST PUSH2 0x3D48 PUSH1 0x20 DUP4 ADD DUP6 PUSH2 0x2DB5 JUMP JUMPDEST PUSH2 0x3D55 PUSH1 0x40 DUP4 ADD DUP5 PUSH2 0x2EB8 JUMP JUMPDEST SWAP5 SWAP4 POP POP POP POP JUMP JUMPDEST PUSH0 DUP2 MLOAD SWAP1 POP SWAP2 SWAP1 POP JUMP JUMPDEST PUSH0 DUP3 DUP3 MSTORE PUSH1 0x20 DUP3 ADD SWAP1 POP SWAP3 SWAP2 POP POP JUMP JUMPDEST PUSH0 PUSH2 0x3D81 DUP3 PUSH2 0x3D5D JUMP JUMPDEST PUSH2 0x3D8B DUP2 DUP6 PUSH2 0x3D67 JUMP JUMPDEST SWAP4 POP PUSH2 0x3D9B DUP2 DUP6 PUSH1 0x20 DUP7 ADD PUSH2 0x2C97 JUMP JUMPDEST PUSH2 0x3DA4 DUP2 PUSH2 0x2CBF JUMP JUMPDEST DUP5 ADD SWAP2 POP POP SWAP3 SWAP2 POP POP JUMP JUMPDEST PUSH0 PUSH1 0x80 DUP3 ADD SWAP1 POP PUSH2 0x3DC2 PUSH0 DUP4 ADD DUP8 PUSH2 0x2DB5 JUMP JUMPDEST PUSH2 0x3DCF PUSH1 0x20 DUP4 ADD DUP7 PUSH2 0x2DB5 JUMP JUMPDEST PUSH2 0x3DDC PUSH1 0x40 DUP4 ADD DUP6 PUSH2 0x2EB8 JUMP JUMPDEST DUP2 DUP2 SUB PUSH1 0x60 DUP4 ADD MSTORE PUSH2 0x3DEE DUP2 DUP5 PUSH2 0x3D77 JUMP JUMPDEST SWAP1 POP SWAP6 SWAP5 POP POP POP POP POP JUMP JUMPDEST PUSH0 DUP2 MLOAD SWAP1 POP PUSH2 0x3E07 DUP2 PUSH2 0x2BF5 JUMP JUMPDEST SWAP3 SWAP2 POP POP JUMP JUMPDEST PUSH0 PUSH1 0x20 DUP3 DUP5 SUB SLT ISZERO PUSH2 0x3E22 JUMPI PUSH2 0x3E21 PUSH2 0x2BC2 JUMP JUMPDEST JUMPDEST PUSH0 PUSH2 0x3E2F DUP5 DUP3 DUP6 ADD PUSH2 0x3DF9 JUMP JUMPDEST SWAP2 POP POP SWAP3 SWAP2 POP POP JUMP JUMPDEST PUSH0 DUP2 MLOAD SWAP1 POP PUSH2 0x3E46 DUP2 PUSH2 0x3416 JUMP JUMPDEST SWAP3 SWAP2 POP POP JUMP JUMPDEST PUSH0 PUSH1 0x20 DUP3 DUP5 SUB SLT ISZERO PUSH2 0x3E61 JUMPI PUSH2 0x3E60 PUSH2 0x2BC2 JUMP JUMPDEST JUMPDEST PUSH0 PUSH2 0x3E6E DUP5 DUP3 DUP6 ADD PUSH2 0x3E38 JUMP JUMPDEST SWAP2 POP POP SWAP3 SWAP2 POP POP JUMP JUMPDEST PUSH0 DUP2 SWAP1 POP SWAP3 SWAP2 POP POP JUMP JUMPDEST PUSH0 PUSH2 0x3E8B DUP3 PUSH2 0x3D5D JUMP JUMPDEST PUSH2 0x3E95 DUP2 DUP6 PUSH2 0x3E77 JUMP JUMPDEST SWAP4 POP PUSH2 0x3EA5 DUP2 DUP6 PUSH1 0x20 DUP7 ADD PUSH2 0x2C97 JUMP JUMPDEST DUP1 DUP5 ADD SWAP2 POP POP SWAP3 SWAP2 POP POP JUMP JUMPDEST PUSH0 PUSH2 0x3EBC DUP3 DUP5 PUSH2 0x3E81 JUMP JUMPDEST SWAP2 POP DUP2 SWAP1 POP SWAP3 SWAP2 POP POP JUMP INVALID LOG2 PUSH5 0x6970667358 0x22 SLT KECCAK256 PUSH7 0x2A239255980C33 0x4B 0xDB STATICCALL MSIZE SSTORE SSTORE LOG3 0x25 0xC3 DUP1 PUSH1 0xD2 CALL SWAP9 0x4E 0xB9 SGT LOG0 0xD1 PUSH7 0xF045036E64736F PUSH13 0x63430008180033000000000000 "
		},
		"gasEstimates": {
			"creation": {
				"codeDepositCost": "3225000",
				"executionCost": "infinite",
				"totalCost": "infinite"
			},
			"external": {
				"approve(address,uint256)": "infinite",
				"balanceOf(address)": "2938",
				"checkEngineNFTsExist(uint256)": "9507",
				"checkEngineTypeExist(string)": "infinite",
				"configEngine(address)": "infinite",
				"configEngineType(string,uint8,uint256,uint256,uint256,uint256,uint256)": "infinite",
				"configSupportToken(address,bool)": "infinite",
				"convertPartType(uint256)": "812",
				"currentSupplies(string)": "infinite",
				"dreaseDivePointCap(uint256,uint256)": "infinite",
				"engineNFTs(uint256)": "infinite",
				"engineTypes(string)": "infinite",
				"getApproved(uint256)": "infinite",
				"getCurrentIndex()": "2534",
				"getEngineNFT(uint256)": "infinite",
				"isApprovedForAll(address,address)": "infinite",
				"mint(uint256,string,address)": "infinite",
				"name()": "infinite",
				"nftExist(uint256)": "2896",
				"owner()": "2627",
				"ownerOf(uint256)": "infinite",
				"redeem(uint256)": "infinite",
				"renounceOwnership()": "infinite",
				"safeTransferFrom(address,address,uint256)": "infinite",
				"safeTransferFrom(address,address,uint256,bytes)": "infinite",
				"setApprovalForAll(address,bool)": "infinite",
				"setBaseURI(string)": "infinite",
				"supportToken(address)": "2923",
				"supportsInterface(bytes4)": "759",
				"symbol()": "infinite",
				"tokenMapper(uint256)": "infinite",
				"tokenMapper2(uint256)": "infinite",
				"tokenURI(uint256)": "infinite",
				"totalSupply()": "4747",
				"transferFrom(address,address,uint256)": "infinite",
				"transferOwnership(address)": "infinite"
			},
			"internal": {
				"_baseURI()": "infinite",
				"_startTokenId()": "22",
				"saveEngineNFT(uint256,enum EngineNFTTypes.PartType,uint256,uint256,uint256)": "infinite",
				"saveEngineType(string memory,enum EngineNFTTypes.PartType,uint256,uint256,uint256,uint256,uint256)": "infinite"
			}
		},
		"methodIdentifiers": {
			"approve(address,uint256)": "095ea7b3",
			"balanceOf(address)": "70a08231",
			"checkEngineNFTsExist(uint256)": "1610cf1d",
			"checkEngineTypeExist(string)": "a8fd4cc3",
			"configEngine(address)": "6efa761c",
			"configEngineType(string,uint8,uint256,uint256,uint256,uint256,uint256)": "505c0a25",
			"configSupportToken(address,bool)": "ce3564b4",
			"convertPartType(uint256)": "24233f7e",
			"currentSupplies(string)": "ec9c26be",
			"dreaseDivePointCap(uint256,uint256)": "aefedebd",
			"engineNFTs(uint256)": "0ceb57ea",
			"engineTypes(string)": "9bb097f7",
			"getApproved(uint256)": "081812fc",
			"getCurrentIndex()": "0d9005ae",
			"getEngineNFT(uint256)": "5afd5efe",
			"isApprovedForAll(address,address)": "e985e9c5",
			"mint(uint256,string,address)": "1ac429b2",
			"name()": "06fdde03",
			"nftExist(uint256)": "a65e06e8",
			"owner()": "8da5cb5b",
			"ownerOf(uint256)": "6352211e",
			"redeem(uint256)": "db006a75",
			"renounceOwnership()": "715018a6",
			"safeTransferFrom(address,address,uint256)": "42842e0e",
			"safeTransferFrom(address,address,uint256,bytes)": "b88d4fde",
			"setApprovalForAll(address,bool)": "a22cb465",
			"setBaseURI(string)": "55f804b3",
			"supportToken(address)": "2a4f1621",
			"supportsInterface(bytes4)": "01ffc9a7",
			"symbol()": "95d89b41",
			"tokenMapper(uint256)": "b73b99a2",
			"tokenMapper2(uint256)": "51e164b7",
			"tokenURI(uint256)": "c87b56dd",
			"totalSupply()": "18160ddd",
			"transferFrom(address,address,uint256)": "23b872dd",
			"transferOwnership(address)": "f2fde38b"
		}
	},
	"abi": [
		{
			"inputs": [
				{
					"internalType": "string",
					"name": "_uri",
					"type": "string"
				},
				{
					"internalType": "string",
					"name": "_name",
					"type": "string"
				},
				{
					"internalType": "string",
					"name": "_symbol",
					"type": "string"
				}
			],
			"stateMutability": "nonpayable",
			"type": "constructor"
		},
		{
			"inputs": [
				{
					"internalType": "address",
					"name": "target",
					"type": "address"
				}
			],
			"name": "AddressEmptyCode",
			"type": "error"
		},
		{
			"inputs": [
				{
					"internalType": "address",
					"name": "account",
					"type": "address"
				}
			],
			"name": "AddressInsufficientBalance",
			"type": "error"
		},
		{
			"inputs": [],
			"name": "ApprovalCallerNotOwnerNorApproved",
			"type": "error"
		},
		{
			"inputs": [],
			"name": "ApprovalQueryForNonexistentToken",
			"type": "error"
		},
		{
			"inputs": [],
			"name": "BalanceQueryForZeroAddress",
			"type": "error"
		},
		{
			"inputs": [],
			"name": "FailedInnerCall",
			"type": "error"
		},
		{
			"inputs": [],
			"name": "MintERC2309QuantityExceedsLimit",
			"type": "error"
		},
		{
			"inputs": [],
			"name": "MintToZeroAddress",
			"type": "error"
		},
		{
			"inputs": [],
			"name": "MintZeroQuantity",
			"type": "error"
		},
		{
			"inputs": [],
			"name": "NotCompatibleWithSpotMints",
			"type": "error"
		},
		{
			"inputs": [
				{
					"internalType": "address",
					"name": "owner",
					"type": "address"
				}
			],
			"name": "OwnableInvalidOwner",
			"type": "error"
		},
		{
			"inputs": [
				{
					"internalType": "address",
					"name": "account",
					"type": "address"
				}
			],
			"name": "OwnableUnauthorizedAccount",
			"type": "error"
		},
		{
			"inputs": [],
			"name": "OwnerQueryForNonexistentToken",
			"type": "error"
		},
		{
			"inputs": [],
			"name": "OwnershipNotInitializedForExtraData",
			"type": "error"
		},
		{
			"inputs": [
				{
					"internalType": "address",
					"name": "token",
					"type": "address"
				}
			],
			"name": "SafeERC20FailedOperation",
			"type": "error"
		},
		{
			"inputs": [],
			"name": "SequentialMintExceedsLimit",
			"type": "error"
		},
		{
			"inputs": [],
			"name": "SequentialUpToTooSmall",
			"type": "error"
		},
		{
			"inputs": [],
			"name": "SpotMintTokenIdTooSmall",
			"type": "error"
		},
		{
			"inputs": [],
			"name": "TokenAlreadyExists",
			"type": "error"
		},
		{
			"inputs": [],
			"name": "TransferCallerNotOwnerNorApproved",
			"type": "error"
		},
		{
			"inputs": [],
			"name": "TransferFromIncorrectOwner",
			"type": "error"
		},
		{
			"inputs": [],
			"name": "TransferToNonERC721ReceiverImplementer",
			"type": "error"
		},
		{
			"inputs": [],
			"name": "TransferToZeroAddress",
			"type": "error"
		},
		{
			"inputs": [],
			"name": "URIQueryForNonexistentToken",
			"type": "error"
		},
		{
			"anonymous": false,
			"inputs": [
				{
					"indexed": true,
					"internalType": "address",
					"name": "owner",
					"type": "address"
				},
				{
					"indexed": true,
					"internalType": "address",
					"name": "approved",
					"type": "address"
				},
				{
					"indexed": true,
					"internalType": "uint256",
					"name": "tokenId",
					"type": "uint256"
				}
			],
			"name": "Approval",
			"type": "event"
		},
		{
			"anonymous": false,
			"inputs": [
				{
					"indexed": true,
					"internalType": "address",
					"name": "owner",
					"type": "address"
				},
				{
					"indexed": true,
					"internalType": "address",
					"name": "operator",
					"type": "address"
				},
				{
					"indexed": false,
					"internalType": "bool",
					"name": "approved",
					"type": "bool"
				}
			],
			"name": "ApprovalForAll",
			"type": "event"
		},
		{
			"anonymous": false,
			"inputs": [
				{
					"indexed": true,
					"internalType": "uint256",
					"name": "fromTokenId",
					"type": "uint256"
				},
				{
					"indexed": false,
					"internalType": "uint256",
					"name": "toTokenId",
					"type": "uint256"
				},
				{
					"indexed": true,
					"internalType": "address",
					"name": "from",
					"type": "address"
				},
				{
					"indexed": true,
					"internalType": "address",
					"name": "to",
					"type": "address"
				}
			],
			"name": "ConsecutiveTransfer",
			"type": "event"
		},
		{
			"anonymous": false,
			"inputs": [
				{
					"indexed": true,
					"internalType": "address",
					"name": "previousOwner",
					"type": "address"
				},
				{
					"indexed": true,
					"internalType": "address",
					"name": "newOwner",
					"type": "address"
				}
			],
			"name": "OwnershipTransferred",
			"type": "event"
		},
		{
			"anonymous": false,
			"inputs": [
				{
					"indexed": true,
					"internalType": "address",
					"name": "from",
					"type": "address"
				},
				{
					"indexed": true,
					"internalType": "address",
					"name": "to",
					"type": "address"
				},
				{
					"indexed": true,
					"internalType": "uint256",
					"name": "tokenId",
					"type": "uint256"
				}
			],
			"name": "Transfer",
			"type": "event"
		},
		{
			"inputs": [
				{
					"internalType": "address",
					"name": "to",
					"type": "address"
				},
				{
					"internalType": "uint256",
					"name": "tokenId",
					"type": "uint256"
				}
			],
			"name": "approve",
			"outputs": [],
			"stateMutability": "payable",
			"type": "function"
		},
		{
			"inputs": [
				{
					"internalType": "address",
					"name": "owner",
					"type": "address"
				}
			],
			"name": "balanceOf",
			"outputs": [
				{
					"internalType": "uint256",
					"name": "",
					"type": "uint256"
				}
			],
			"stateMutability": "view",
			"type": "function"
		},
		{
			"inputs": [
				{
					"internalType": "uint256",
					"name": "tokenId",
					"type": "uint256"
				}
			],
			"name": "checkEngineNFTsExist",
			"outputs": [
				{
					"internalType": "bool",
					"name": "",
					"type": "bool"
				}
			],
			"stateMutability": "view",
			"type": "function"
		},
		{
			"inputs": [
				{
					"internalType": "string",
					"name": "engineName",
					"type": "string"
				}
			],
			"name": "checkEngineTypeExist",
			"outputs": [
				{
					"internalType": "bool",
					"name": "",
					"type": "bool"
				}
			],
			"stateMutability": "view",
			"type": "function"
		},
		{
			"inputs": [
				{
					"internalType": "address",
					"name": "_engine",
					"type": "address"
				}
			],
			"name": "configEngine",
			"outputs": [],
			"stateMutability": "nonpayable",
			"type": "function"
		},
		{
			"inputs": [
				{
					"internalType": "string",
					"name": "_name",
					"type": "string"
				},
				{
					"internalType": "uint8",
					"name": "_partType",
					"type": "uint8"
				},
				{
					"internalType": "uint256",
					"name": "_game",
					"type": "uint256"
				},
				{
					"internalType": "uint256",
					"name": "_divepointCap",
					"type": "uint256"
				},
				{
					"internalType": "uint256",
					"name": "_price",
					"type": "uint256"
				},
				{
					"internalType": "uint256",
					"name": "_turbo",
					"type": "uint256"
				},
				{
					"internalType": "uint256",
					"name": "_maxSupply",
					"type": "uint256"
				}
			],
			"name": "configEngineType",
			"outputs": [],
			"stateMutability": "nonpayable",
			"type": "function"
		},
		{
			"inputs": [
				{
					"internalType": "address",
					"name": "_token",
					"type": "address"
				},
				{
					"internalType": "bool",
					"name": "state",
					"type": "bool"
				}
			],
			"name": "configSupportToken",
			"outputs": [],
			"stateMutability": "nonpayable",
			"type": "function"
		},
		{
			"inputs": [
				{
					"internalType": "uint256",
					"name": "_type",
					"type": "uint256"
				}
			],
			"name": "convertPartType",
			"outputs": [
				{
					"internalType": "enum EngineNFTTypes.PartType",
					"name": "",
					"type": "uint8"
				}
			],
			"stateMutability": "pure",
			"type": "function"
		},
		{
			"inputs": [
				{
					"internalType": "string",
					"name": "",
					"type": "string"
				}
			],
			"name": "currentSupplies",
			"outputs": [
				{
					"internalType": "uint256",
					"name": "",
					"type": "uint256"
				}
			],
			"stateMutability": "view",
			"type": "function"
		},
		{
			"inputs": [
				{
					"internalType": "uint256",
					"name": "tokenId",
					"type": "uint256"
				},
				{
					"internalType": "uint256",
					"name": "amount",
					"type": "uint256"
				}
			],
			"name": "dreaseDivePointCap",
			"outputs": [],
			"stateMutability": "nonpayable",
			"type": "function"
		},
		{
			"inputs": [
				{
					"internalType": "uint256",
					"name": "",
					"type": "uint256"
				}
			],
			"name": "engineNFTs",
			"outputs": [
				{
					"internalType": "enum EngineNFTTypes.PartType",
					"name": "partType",
					"type": "uint8"
				},
				{
					"internalType": "uint256",
					"name": "game",
					"type": "uint256"
				},
				{
					"internalType": "uint256",
					"name": "divepointCapLeft",
					"type": "uint256"
				},
				{
					"internalType": "uint256",
					"name": "turbo",
					"type": "uint256"
				}
			],
			"stateMutability": "view",
			"type": "function"
		},
		{
			"inputs": [
				{
					"internalType": "string",
					"name": "",
					"type": "string"
				}
			],
			"name": "engineTypes",
			"outputs": [
				{
					"internalType": "enum EngineNFTTypes.PartType",
					"name": "partType",
					"type": "uint8"
				},
				{
					"internalType": "uint256",
					"name": "divepointCap",
					"type": "uint256"
				},
				{
					"internalType": "uint256",
					"name": "game",
					"type": "uint256"
				},
				{
					"internalType": "uint256",
					"name": "turbo",
					"type": "uint256"
				},
				{
					"internalType": "uint256",
					"name": "price",
					"type": "uint256"
				},
				{
					"internalType": "uint256",
					"name": "maxSupply",
					"type": "uint256"
				}
			],
			"stateMutability": "view",
			"type": "function"
		},
		{
			"inputs": [
				{
					"internalType": "uint256",
					"name": "tokenId",
					"type": "uint256"
				}
			],
			"name": "getApproved",
			"outputs": [
				{
					"internalType": "address",
					"name": "",
					"type": "address"
				}
			],
			"stateMutability": "view",
			"type": "function"
		},
		{
			"inputs": [],
			"name": "getCurrentIndex",
			"outputs": [
				{
					"internalType": "uint256",
					"name": "",
					"type": "uint256"
				}
			],
			"stateMutability": "view",
			"type": "function"
		},
		{
			"inputs": [
				{
					"internalType": "uint256",
					"name": "id",
					"type": "uint256"
				}
			],
			"name": "getEngineNFT",
			"outputs": [
				{
					"components": [
						{
							"internalType": "enum EngineNFTTypes.PartType",
							"name": "partType",
							"type": "uint8"
						},
						{
							"internalType": "uint256",
							"name": "game",
							"type": "uint256"
						},
						{
							"internalType": "uint256",
							"name": "divepointCapLeft",
							"type": "uint256"
						},
						{
							"internalType": "uint256",
							"name": "turbo",
							"type": "uint256"
						}
					],
					"internalType": "struct EngineNFTTypes.EngineNFT",
					"name": "",
					"type": "tuple"
				}
			],
			"stateMutability": "view",
			"type": "function"
		},
		{
			"inputs": [
				{
					"internalType": "address",
					"name": "owner",
					"type": "address"
				},
				{
					"internalType": "address",
					"name": "operator",
					"type": "address"
				}
			],
			"name": "isApprovedForAll",
			"outputs": [
				{
					"internalType": "bool",
					"name": "",
					"type": "bool"
				}
			],
			"stateMutability": "view",
			"type": "function"
		},
		{
			"inputs": [
				{
					"internalType": "uint256",
					"name": "nftid",
					"type": "uint256"
				},
				{
					"internalType": "string",
					"name": "engineName",
					"type": "string"
				},
				{
					"internalType": "address",
					"name": "payToken",
					"type": "address"
				}
			],
			"name": "mint",
			"outputs": [],
			"stateMutability": "nonpayable",
			"type": "function"
		},
		{
			"inputs": [],
			"name": "name",
			"outputs": [
				{
					"internalType": "string",
					"name": "",
					"type": "string"
				}
			],
			"stateMutability": "view",
			"type": "function"
		},
		{
			"inputs": [
				{
					"internalType": "uint256",
					"name": "",
					"type": "uint256"
				}
			],
			"name": "nftExist",
			"outputs": [
				{
					"internalType": "bool",
					"name": "",
					"type": "bool"
				}
			],
			"stateMutability": "view",
			"type": "function"
		},
		{
			"inputs": [],
			"name": "owner",
			"outputs": [
				{
					"internalType": "address",
					"name": "",
					"type": "address"
				}
			],
			"stateMutability": "view",
			"type": "function"
		},
		{
			"inputs": [
				{
					"internalType": "uint256",
					"name": "tokenId",
					"type": "uint256"
				}
			],
			"name": "ownerOf",
			"outputs": [
				{
					"internalType": "address",
					"name": "",
					"type": "address"
				}
			],
			"stateMutability": "view",
			"type": "function"
		},
		{
			"inputs": [
				{
					"internalType": "uint256",
					"name": "tokenId",
					"type": "uint256"
				}
			],
			"name": "redeem",
			"outputs": [],
			"stateMutability": "nonpayable",
			"type": "function"
		},
		{
			"inputs": [],
			"name": "renounceOwnership",
			"outputs": [],
			"stateMutability": "nonpayable",
			"type": "function"
		},
		{
			"inputs": [
				{
					"internalType": "address",
					"name": "from",
					"type": "address"
				},
				{
					"internalType": "address",
					"name": "to",
					"type": "address"
				},
				{
					"internalType": "uint256",
					"name": "tokenId",
					"type": "uint256"
				}
			],
			"name": "safeTransferFrom",
			"outputs": [],
			"stateMutability": "payable",
			"type": "function"
		},
		{
			"inputs": [
				{
					"internalType": "address",
					"name": "from",
					"type": "address"
				},
				{
					"internalType": "address",
					"name": "to",
					"type": "address"
				},
				{
					"internalType": "uint256",
					"name": "tokenId",
					"type": "uint256"
				},
				{
					"internalType": "bytes",
					"name": "_data",
					"type": "bytes"
				}
			],
			"name": "safeTransferFrom",
			"outputs": [],
			"stateMutability": "payable",
			"type": "function"
		},
		{
			"inputs": [
				{
					"internalType": "address",
					"name": "operator",
					"type": "address"
				},
				{
					"internalType": "bool",
					"name": "approved",
					"type": "bool"
				}
			],
			"name": "setApprovalForAll",
			"outputs": [],
			"stateMutability": "nonpayable",
			"type": "function"
		},
		{
			"inputs": [
				{
					"internalType": "string",
					"name": "baseURI",
					"type": "string"
				}
			],
			"name": "setBaseURI",
			"outputs": [],
			"stateMutability": "nonpayable",
			"type": "function"
		},
		{
			"inputs": [
				{
					"internalType": "address",
					"name": "",
					"type": "address"
				}
			],
			"name": "supportToken",
			"outputs": [
				{
					"internalType": "bool",
					"name": "",
					"type": "bool"
				}
			],
			"stateMutability": "view",
			"type": "function"
		},
		{
			"inputs": [
				{
					"internalType": "bytes4",
					"name": "interfaceId",
					"type": "bytes4"
				}
			],
			"name": "supportsInterface",
			"outputs": [
				{
					"internalType": "bool",
					"name": "",
					"type": "bool"
				}
			],
			"stateMutability": "view",
			"type": "function"
		},
		{
			"inputs": [],
			"name": "symbol",
			"outputs": [
				{
					"internalType": "string",
					"name": "",
					"type": "string"
				}
			],
			"stateMutability": "view",
			"type": "function"
		},
		{
			"inputs": [
				{
					"internalType": "uint256",
					"name": "",
					"type": "uint256"
				}
			],
			"name": "tokenMapper",
			"outputs": [
				{
					"internalType": "uint256",
					"name": "",
					"type": "uint256"
				}
			],
			"stateMutability": "view",
			"type": "function"
		},
		{
			"inputs": [
				{
					"internalType": "uint256",
					"name": "",
					"type": "uint256"
				}
			],
			"name": "tokenMapper2",
			"outputs": [
				{
					"internalType": "uint256",
					"name": "",
					"type": "uint256"
				}
			],
			"stateMutability": "view",
			"type": "function"
		},
		{
			"inputs": [
				{
					"internalType": "uint256",
					"name": "tokenId",
					"type": "uint256"
				}
			],
			"name": "tokenURI",
			"outputs": [
				{
					"internalType": "string",
					"name": "",
					"type": "string"
				}
			],
			"stateMutability": "view",
			"type": "function"
		},
		{
			"inputs": [],
			"name": "totalSupply",
			"outputs": [
				{
					"internalType": "uint256",
					"name": "result",
					"type": "uint256"
				}
			],
			"stateMutability": "view",
			"type": "function"
		},
		{
			"inputs": [
				{
					"internalType": "address",
					"name": "from",
					"type": "address"
				},
				{
					"internalType": "address",
					"name": "to",
					"type": "address"
				},
				{
					"internalType": "uint256",
					"name": "tokenId",
					"type": "uint256"
				}
			],
			"name": "transferFrom",
			"outputs": [],
			"stateMutability": "payable",
			"type": "function"
		},
		{
			"inputs": [
				{
					"internalType": "address",
					"name": "newOwner",
					"type": "address"
				}
			],
			"name": "transferOwnership",
			"outputs": [],
			"stateMutability": "nonpayable",
			"type": "function"
		}
	]
}