{
	"data": {
		"bytecode": {
			"linkReferences": {},
			"object": "608060405234801562000010575f80fd5b5060405162002f4238038062002f4283398181016040528101906200003691906200032f565b335f73ffffffffffffffffffffffffffffffffffffffff168173ffffffffffffffffffffffffffffffffffffffff1603620000aa575f6040517f1e4fbdf7000000000000000000000000000000000000000000000000000000008152600401620000a1919062000399565b60405180910390fd5b620000bb816200018560201b60201c565b508260015f6101000a81548173ffffffffffffffffffffffffffffffffffffffff021916908373ffffffffffffffffffffffffffffffffffffffff1602179055508160035f6101000a81548173ffffffffffffffffffffffffffffffffffffffff021916908373ffffffffffffffffffffffffffffffffffffffff1602179055508060025f6101000a81548173ffffffffffffffffffffffffffffffffffffffff021916908373ffffffffffffffffffffffffffffffffffffffff160217905550505050620003b4565b5f805f9054906101000a900473ffffffffffffffffffffffffffffffffffffffff169050815f806101000a81548173ffffffffffffffffffffffffffffffffffffffff021916908373ffffffffffffffffffffffffffffffffffffffff1602179055508173ffffffffffffffffffffffffffffffffffffffff168173ffffffffffffffffffffffffffffffffffffffff167f8be0079c531659141344cd1fd0a4f28419497f9722a3daafe3b4186f6b6457e060405160405180910390a35050565b5f80fd5b5f73ffffffffffffffffffffffffffffffffffffffff82169050919050565b5f62000275826200024a565b9050919050565b5f620002888262000269565b9050919050565b6200029a816200027c565b8114620002a5575f80fd5b50565b5f81519050620002b8816200028f565b92915050565b5f620002ca8262000269565b9050919050565b620002dc81620002be565b8114620002e7575f80fd5b50565b5f81519050620002fa81620002d1565b92915050565b6200030b8162000269565b811462000316575f80fd5b50565b5f81519050620003298162000300565b92915050565b5f805f6060848603121562000349576200034862000246565b5b5f6200035886828701620002a8565b93505060206200036b86828701620002ea565b92505060406200037e8682870162000319565b9150509250925092565b620003938162000269565b82525050565b5f602082019050620003ae5f83018462000388565b92915050565b612b8080620003c25f395ff3fe608060405234801561000f575f80fd5b506004361061009c575f3560e01c80638da5cb5b116100645780638da5cb5b1461011c578063a14832af1461013a578063e51a9a381461016a578063f2fde38b14610186578063f6b239a4146101a25761009c565b806344004cc1146100a05780634782f779146100bc5780635b7633d0146100d8578063715018a6146100f65780638733611114610100575b5f80fd5b6100ba60048036038101906100b59190611c88565b6101c0565b005b6100d660048036038101906100d19190611d13565b61033a565b005b6100e06103cd565b6040516100ed9190611d60565b60405180910390f35b6100fe6103f2565b005b61011a60048036038101906101159190611def565b610405565b005b6101246104d2565b6040516101319190611d60565b60405180910390f35b610154600480360381019061014f9190611e3f565b6104f9565b6040516101619190611f08565b60405180910390f35b610184600480360381019061017f919061205d565b610c5a565b005b6101a0600480360381019061019b919061212a565b61157a565b005b6101aa6115fe565b6040516101b791906121b0565b60405180910390f35b6101c8611623565b5f8390505f8173ffffffffffffffffffffffffffffffffffffffff166370a08231306040518263ffffffff1660e01b81526004016102069190611d60565b602060405180830381865afa158015610221573d5f803e3d5ffd5b505050506040513d601f19601f8201168201806040525081019061024591906121dd565b90508281101561028a576040517f08c379a000000000000000000000000000000000000000000000000000000000815260040161028190612262565b60405180910390fd5b8173ffffffffffffffffffffffffffffffffffffffff1663095ea7b330856040518363ffffffff1660e01b81526004016102c592919061228f565b6020604051808303815f875af11580156102e1573d5f803e3d5ffd5b505050506040513d601f19601f8201168201806040525081019061030591906122eb565b506103333085858573ffffffffffffffffffffffffffffffffffffffff166116aa909392919063ffffffff16565b5050505050565b610342611623565b80471015610385576040517f08c379a000000000000000000000000000000000000000000000000000000000815260040161037c90612262565b60405180910390fd5b8173ffffffffffffffffffffffffffffffffffffffff166108fc8290811502906040515f60405180830381858888f193505050501580156103c8573d5f803e3d5ffd5b505050565b60025f9054906101000a900473ffffffffffffffffffffffffffffffffffffffff1681565b6103fa611623565b6104035f61172c565b565b61040d611623565b8260015f6101000a81548173ffffffffffffffffffffffffffffffffffffffff021916908373ffffffffffffffffffffffffffffffffffffffff1602179055508160035f6101000a81548173ffffffffffffffffffffffffffffffffffffffff021916908373ffffffffffffffffffffffffffffffffffffffff1602179055508060025f6101000a81548173ffffffffffffffffffffffffffffffffffffffff021916908373ffffffffffffffffffffffffffffffffffffffff160217905550505050565b5f805f9054906101000a900473ffffffffffffffffffffffffffffffffffffffff16905090565b5f8873ffffffffffffffffffffffffffffffffffffffff1660015f9054906101000a900473ffffffffffffffffffffffffffffffffffffffff1673ffffffffffffffffffffffffffffffffffffffff16636352211e886040518263ffffffff1660e01b815260040161056b9190612316565b602060405180830381865afa158015610586573d5f803e3d5ffd5b505050506040513d601f19601f820116820180604052508101906105aa9190612343565b73ffffffffffffffffffffffffffffffffffffffff1614610600576040517f08c379a00000000000000000000000000000000000000000000000000000000081526004016105f7906123b8565b60405180910390fd5b8873ffffffffffffffffffffffffffffffffffffffff1660015f9054906101000a900473ffffffffffffffffffffffffffffffffffffffff1673ffffffffffffffffffffffffffffffffffffffff16636352211e876040518263ffffffff1660e01b81526004016106719190612316565b602060405180830381865afa15801561068c573d5f803e3d5ffd5b505050506040513d601f19601f820116820180604052508101906106b09190612343565b73ffffffffffffffffffffffffffffffffffffffff1614610706576040517f08c379a00000000000000000000000000000000000000000000000000000000081526004016106fd906123b8565b60405180910390fd5b8873ffffffffffffffffffffffffffffffffffffffff1660015f9054906101000a900473ffffffffffffffffffffffffffffffffffffffff1673ffffffffffffffffffffffffffffffffffffffff16636352211e866040518263ffffffff1660e01b81526004016107779190612316565b602060405180830381865afa158015610792573d5f803e3d5ffd5b505050506040513d601f19601f820116820180604052508101906107b69190612343565b73ffffffffffffffffffffffffffffffffffffffff161461080c576040517f08c379a0000000000000000000000000000000000000000000000000000000008152600401610803906123b8565b60405180910390fd5b5f60015f9054906101000a900473ffffffffffffffffffffffffffffffffffffffff1673ffffffffffffffffffffffffffffffffffffffff16635afd5efe886040518263ffffffff1660e01b81526004016108679190612316565b608060405180830381865afa158015610882573d5f803e3d5ffd5b505050506040513d601f19601f820116820180604052508101906108a69190612472565b90505f60028111156108bb576108ba61249d565b5b815f015160028111156108d1576108d061249d565b5b14610911576040517f08c379a000000000000000000000000000000000000000000000000000000000815260040161090890612514565b60405180910390fd5b5f60015f9054906101000a900473ffffffffffffffffffffffffffffffffffffffff1673ffffffffffffffffffffffffffffffffffffffff16635afd5efe886040518263ffffffff1660e01b815260040161096c9190612316565b608060405180830381865afa158015610987573d5f803e3d5ffd5b505050506040513d601f19601f820116820180604052508101906109ab9190612472565b9050600160028111156109c1576109c061249d565b5b815f015160028111156109d7576109d661249d565b5b14610a17576040517f08c379a0000000000000000000000000000000000000000000000000000000008152600401610a0e9061257c565b60405180910390fd5b5f60015f9054906101000a900473ffffffffffffffffffffffffffffffffffffffff1673ffffffffffffffffffffffffffffffffffffffff16635afd5efe886040518263ffffffff1660e01b8152600401610a729190612316565b608060405180830381865afa158015610a8d573d5f803e3d5ffd5b505050506040513d601f19601f82011682018060405250810190610ab19190612472565b9050600280811115610ac657610ac561249d565b5b815f01516002811115610adc57610adb61249d565b5b14610b1c576040517f08c379a0000000000000000000000000000000000000000000000000000000008152600401610b13906125e4565b60405180910390fd5b5f610b44612710610b36898e6117ed90919063ffffffff16565b61180290919063ffffffff16565b90505f8111610b88576040517f08c379a0000000000000000000000000000000000000000000000000000000008152600401610b7f9061264c565b60405180910390fd5b8082604001511015610bcf576040517f08c379a0000000000000000000000000000000000000000000000000000000008152600401610bc6906126b4565b60405180910390fd5b8b836020015114610c15576040517f08c379a0000000000000000000000000000000000000000000000000000000008152600401610c0c9061271c565b60405180910390fd5b8b8b8b8b8b8b8b604051602001610c32979695949392919061275a565b6040516020818303038152906040528051906020012094505050505098975050505050505050565b3373ffffffffffffffffffffffffffffffffffffffff1660015f9054906101000a900473ffffffffffffffffffffffffffffffffffffffff1673ffffffffffffffffffffffffffffffffffffffff16636352211e886040518263ffffffff1660e01b8152600401610ccb9190612316565b602060405180830381865afa158015610ce6573d5f803e3d5ffd5b505050506040513d601f19601f82011682018060405250810190610d0a9190612343565b73ffffffffffffffffffffffffffffffffffffffff1614610d60576040517f08c379a0000000000000000000000000000000000000000000000000000000008152600401610d57906123b8565b60405180910390fd5b3373ffffffffffffffffffffffffffffffffffffffff1660015f9054906101000a900473ffffffffffffffffffffffffffffffffffffffff1673ffffffffffffffffffffffffffffffffffffffff16636352211e876040518263ffffffff1660e01b8152600401610dd19190612316565b602060405180830381865afa158015610dec573d5f803e3d5ffd5b505050506040513d601f19601f82011682018060405250810190610e109190612343565b73ffffffffffffffffffffffffffffffffffffffff1614610e66576040517f08c379a0000000000000000000000000000000000000000000000000000000008152600401610e5d906123b8565b60405180910390fd5b3373ffffffffffffffffffffffffffffffffffffffff1660015f9054906101000a900473ffffffffffffffffffffffffffffffffffffffff1673ffffffffffffffffffffffffffffffffffffffff16636352211e866040518263ffffffff1660e01b8152600401610ed79190612316565b602060405180830381865afa158015610ef2573d5f803e3d5ffd5b505050506040513d601f19601f82011682018060405250810190610f169190612343565b73ffffffffffffffffffffffffffffffffffffffff1614610f6c576040517f08c379a0000000000000000000000000000000000000000000000000000000008152600401610f63906123b8565b60405180910390fd5b610f7d338989898989898989611817565b610fbc576040517f08c379a0000000000000000000000000000000000000000000000000000000008152600401610fb390612824565b60405180910390fd5b5f610fe4612710610fd6868b6117ed90919063ffffffff16565b61180290919063ffffffff16565b90505f8111611028576040517f08c379a000000000000000000000000000000000000000000000000000000000815260040161101f9061264c565b60405180910390fd5b5f60015f9054906101000a900473ffffffffffffffffffffffffffffffffffffffff1673ffffffffffffffffffffffffffffffffffffffff16635afd5efe896040518263ffffffff1660e01b81526004016110839190612316565b608060405180830381865afa15801561109e573d5f803e3d5ffd5b505050506040513d601f19601f820116820180604052508101906110c29190612472565b90505f60028111156110d7576110d661249d565b5b815f015160028111156110ed576110ec61249d565b5b1461112d576040517f08c379a000000000000000000000000000000000000000000000000000000000815260040161112490612514565b60405180910390fd5b5f60015f9054906101000a900473ffffffffffffffffffffffffffffffffffffffff1673ffffffffffffffffffffffffffffffffffffffff16635afd5efe896040518263ffffffff1660e01b81526004016111889190612316565b608060405180830381865afa1580156111a3573d5f803e3d5ffd5b505050506040513d601f19601f820116820180604052508101906111c79190612472565b9050600160028111156111dd576111dc61249d565b5b815f015160028111156111f3576111f261249d565b5b14611233576040517f08c379a000000000000000000000000000000000000000000000000000000000815260040161122a9061257c565b60405180910390fd5b5f60015f9054906101000a900473ffffffffffffffffffffffffffffffffffffffff1673ffffffffffffffffffffffffffffffffffffffff16635afd5efe896040518263ffffffff1660e01b815260040161128e9190612316565b608060405180830381865afa1580156112a9573d5f803e3d5ffd5b505050506040513d601f19601f820116820180604052508101906112cd9190612472565b90506002808111156112e2576112e161249d565b5b815f015160028111156112f8576112f761249d565b5b14611338576040517f08c379a000000000000000000000000000000000000000000000000000000000815260040161132f906125e4565b60405180910390fd5b838160400151101561137f576040517f08c379a0000000000000000000000000000000000000000000000000000000008152600401611376906126b4565b60405180910390fd5b8b8260200151146113c5576040517f08c379a00000000000000000000000000000000000000000000000000000000081526004016113bc9061271c565b60405180910390fd5b5f836060015190505f6113f460646113e684896117ed90919063ffffffff16565b61180290919063ffffffff16565b905060015f9054906101000a900473ffffffffffffffffffffffffffffffffffffffff1673ffffffffffffffffffffffffffffffffffffffff1663aefedebd8b886040518363ffffffff1660e01b8152600401611452929190612842565b5f604051808303815f87803b158015611469575f80fd5b505af115801561147b573d5f803e3d5ffd5b5050505060035f9054906101000a900473ffffffffffffffffffffffffffffffffffffffff1673ffffffffffffffffffffffffffffffffffffffff1663095ea7b330836040518363ffffffff1660e01b81526004016114db92919061228f565b6020604051808303815f875af11580156114f7573d5f803e3d5ffd5b505050506040513d601f19601f8201168201806040525081019061151b91906122eb565b5061156a30338360035f9054906101000a900473ffffffffffffffffffffffffffffffffffffffff1673ffffffffffffffffffffffffffffffffffffffff166116aa909392919063ffffffff16565b5050505050505050505050505050565b611582611623565b5f73ffffffffffffffffffffffffffffffffffffffff168173ffffffffffffffffffffffffffffffffffffffff16036115f2575f6040517f1e4fbdf70000000000000000000000000000000000000000000000000000000081526004016115e99190611d60565b60405180910390fd5b6115fb8161172c565b50565b60015f9054906101000a900473ffffffffffffffffffffffffffffffffffffffff1681565b61162b6118a1565b73ffffffffffffffffffffffffffffffffffffffff166116496104d2565b73ffffffffffffffffffffffffffffffffffffffff16146116a85761166c6118a1565b6040517f118cdaa700000000000000000000000000000000000000000000000000000000815260040161169f9190611d60565b60405180910390fd5b565b611726848573ffffffffffffffffffffffffffffffffffffffff166323b872dd8686866040516024016116df93929190612869565b604051602081830303815290604052915060e01b6020820180517bffffffffffffffffffffffffffffffffffffffffffffffffffffffff83818316178352505050506118a8565b50505050565b5f805f9054906101000a900473ffffffffffffffffffffffffffffffffffffffff169050815f806101000a81548173ffffffffffffffffffffffffffffffffffffffff021916908373ffffffffffffffffffffffffffffffffffffffff1602179055508173ffffffffffffffffffffffffffffffffffffffff168173ffffffffffffffffffffffffffffffffffffffff167f8be0079c531659141344cd1fd0a4f28419497f9722a3daafe3b4186f6b6457e060405160405180910390a35050565b5f81836117fa91906128cb565b905092915050565b5f818361180f9190612939565b905092915050565b5f806118298b8b8b8b8b8b8b8b6104f9565b90505f6118358261193d565b905060025f9054906101000a900473ffffffffffffffffffffffffffffffffffffffff1673ffffffffffffffffffffffffffffffffffffffff16611879828661196c565b73ffffffffffffffffffffffffffffffffffffffff1614925050509998505050505050505050565b5f33905090565b5f6118d2828473ffffffffffffffffffffffffffffffffffffffff166119d690919063ffffffff16565b90505f8151141580156118f65750808060200190518101906118f491906122eb565b155b1561193857826040517f5274afe700000000000000000000000000000000000000000000000000000000815260040161192f9190611d60565b60405180910390fd5b505050565b5f8160405160200161194f91906129dd565b604051602081830303815290604052805190602001209050919050565b5f805f80611979856119eb565b9250925092506001868285856040515f81526020016040526040516119a19493929190612a1d565b6020604051602081039080840390855afa1580156119c1573d5f803e3d5ffd5b50505060206040510351935050505092915050565b60606119e383835f611a50565b905092915050565b5f805f6041845114611a32576040517f08c379a0000000000000000000000000000000000000000000000000000000008152600401611a2990612aaa565b60405180910390fd5b602084015192506040840151915060608401515f1a90509193909250565b606081471015611a9757306040517fcd786059000000000000000000000000000000000000000000000000000000008152600401611a8e9190611d60565b60405180910390fd5b5f808573ffffffffffffffffffffffffffffffffffffffff168486604051611abf9190612b34565b5f6040518083038185875af1925050503d805f8114611af9576040519150601f19603f3d011682016040523d82523d5f602084013e611afe565b606091505b5091509150611b0e868383611b19565b925050509392505050565b606082611b2e57611b2982611ba6565b611b9e565b5f8251148015611b5457505f8473ffffffffffffffffffffffffffffffffffffffff163b145b15611b9657836040517f9996b315000000000000000000000000000000000000000000000000000000008152600401611b8d9190611d60565b60405180910390fd5b819050611b9f565b5b9392505050565b5f81511115611bb85780518082602001fd5b6040517f1425ea4200000000000000000000000000000000000000000000000000000000815260040160405180910390fd5b5f604051905090565b5f80fd5b5f80fd5b5f73ffffffffffffffffffffffffffffffffffffffff82169050919050565b5f611c2482611bfb565b9050919050565b611c3481611c1a565b8114611c3e575f80fd5b50565b5f81359050611c4f81611c2b565b92915050565b5f819050919050565b611c6781611c55565b8114611c71575f80fd5b50565b5f81359050611c8281611c5e565b92915050565b5f805f60608486031215611c9f57611c9e611bf3565b5b5f611cac86828701611c41565b9350506020611cbd86828701611c41565b9250506040611cce86828701611c74565b9150509250925092565b5f611ce282611bfb565b9050919050565b611cf281611cd8565b8114611cfc575f80fd5b50565b5f81359050611d0d81611ce9565b92915050565b5f8060408385031215611d2957611d28611bf3565b5b5f611d3685828601611cff565b9250506020611d4785828601611c74565b9150509250929050565b611d5a81611c1a565b82525050565b5f602082019050611d735f830184611d51565b92915050565b5f611d8382611c1a565b9050919050565b611d9381611d79565b8114611d9d575f80fd5b50565b5f81359050611dae81611d8a565b92915050565b5f611dbe82611c1a565b9050919050565b611dce81611db4565b8114611dd8575f80fd5b50565b5f81359050611de981611dc5565b92915050565b5f805f60608486031215611e0657611e05611bf3565b5b5f611e1386828701611da0565b9350506020611e2486828701611ddb565b9250506040611e3586828701611c41565b9150509250925092565b5f805f805f805f80610100898b031215611e5c57611e5b611bf3565b5b5f611e698b828c01611c41565b9850506020611e7a8b828c01611c74565b9750506040611e8b8b828c01611c74565b9650506060611e9c8b828c01611c74565b9550506080611ead8b828c01611c74565b94505060a0611ebe8b828c01611c74565b93505060c0611ecf8b828c01611c74565b92505060e0611ee08b828c01611c74565b9150509295985092959890939650565b5f819050919050565b611f0281611ef0565b82525050565b5f602082019050611f1b5f830184611ef9565b92915050565b5f80fd5b5f80fd5b5f601f19601f8301169050919050565b7f4e487b71000000000000000000000000000000000000000000000000000000005f52604160045260245ffd5b611f6f82611f29565b810181811067ffffffffffffffff82111715611f8e57611f8d611f39565b5b80604052505050565b5f611fa0611bea565b9050611fac8282611f66565b919050565b5f67ffffffffffffffff821115611fcb57611fca611f39565b5b611fd482611f29565b9050602081019050919050565b828183375f83830152505050565b5f612001611ffc84611fb1565b611f97565b90508281526020810184848401111561201d5761201c611f25565b5b612028848285611fe1565b509392505050565b5f82601f83011261204457612043611f21565b5b8135612054848260208601611fef565b91505092915050565b5f805f805f805f80610100898b03121561207a57612079611bf3565b5b5f6120878b828c01611c74565b98505060206120988b828c01611c74565b97505060406120a98b828c01611c74565b96505060606120ba8b828c01611c74565b95505060806120cb8b828c01611c74565b94505060a06120dc8b828c01611c74565b93505060c06120ed8b828c01611c74565b92505060e089013567ffffffffffffffff81111561210e5761210d611bf7565b5b61211a8b828c01612030565b9150509295985092959890939650565b5f6020828403121561213f5761213e611bf3565b5b5f61214c84828501611c41565b91505092915050565b5f819050919050565b5f61217861217361216e84611bfb565b612155565b611bfb565b9050919050565b5f6121898261215e565b9050919050565b5f61219a8261217f565b9050919050565b6121aa81612190565b82525050565b5f6020820190506121c35f8301846121a1565b92915050565b5f815190506121d781611c5e565b92915050565b5f602082840312156121f2576121f1611bf3565b5b5f6121ff848285016121c9565b91505092915050565b5f82825260208201905092915050565b7f496e73756666696369656e742062616c616e63650000000000000000000000005f82015250565b5f61224c601483612208565b915061225782612218565b602082019050919050565b5f6020820190508181035f83015261227981612240565b9050919050565b61228981611c55565b82525050565b5f6040820190506122a25f830185611d51565b6122af6020830184612280565b9392505050565b5f8115159050919050565b6122ca816122b6565b81146122d4575f80fd5b50565b5f815190506122e5816122c1565b92915050565b5f60208284031215612300576122ff611bf3565b5b5f61230d848285016122d7565b91505092915050565b5f6020820190506123295f830184612280565b92915050565b5f8151905061233d81611c2b565b92915050565b5f6020828403121561235857612357611bf3565b5b5f6123658482850161232f565b91505092915050565b7f4e46545f4f574e45525f4552524f5200000000000000000000000000000000005f82015250565b5f6123a2600f83612208565b91506123ad8261236e565b602082019050919050565b5f6020820190508181035f8301526123cf81612396565b9050919050565b5f80fd5b600381106123e6575f80fd5b50565b5f815190506123f7816123da565b92915050565b5f60808284031215612412576124116123d6565b5b61241c6080611f97565b90505f61242b848285016123e9565b5f83015250602061243e848285016121c9565b6020830152506040612452848285016121c9565b6040830152506060612466848285016121c9565b60608301525092915050565b5f6080828403121561248757612486611bf3565b5b5f612494848285016123fd565b91505092915050565b7f4e487b71000000000000000000000000000000000000000000000000000000005f52602160045260245ffd5b7f54555242494e455f545950455f4552524f5200000000000000000000000000005f82015250565b5f6124fe601283612208565b9150612509826124ca565b602082019050919050565b5f6020820190508181035f83015261252b816124f2565b9050919050565b7f4452495645545241494e5f545950455f4552524f5200000000000000000000005f82015250565b5f612566601583612208565b915061257182612532565b602082019050919050565b5f6020820190508181035f8301526125938161255a565b9050919050565b7f434150414349544f525f545950455f4552524f520000000000000000000000005f82015250565b5f6125ce601483612208565b91506125d98261259a565b602082019050919050565b5f6020820190508181035f8301526125fb816125c2565b9050919050565b7f4d494e494d554d5f434f4e564552545f44505f4552524f5200000000000000005f82015250565b5f612636601883612208565b915061264182612602565b602082019050919050565b5f6020820190508181035f8301526126638161262a565b9050919050565b7f4341505f4552524f5200000000000000000000000000000000000000000000005f82015250565b5f61269e600983612208565b91506126a98261266a565b602082019050919050565b5f6020820190508181035f8301526126cb81612692565b9050919050565b7f4452495645545241494e5f4552524f52000000000000000000000000000000005f82015250565b5f612706601083612208565b9150612711826126d2565b602082019050919050565b5f6020820190508181035f830152612733816126fa565b9050919050565b5f819050919050565b61275461274f82611c55565b61273a565b82525050565b5f612765828a612743565b6020820191506127758289612743565b6020820191506127858288612743565b6020820191506127958287612743565b6020820191506127a58286612743565b6020820191506127b58285612743565b6020820191506127c58284612743565b60208201915081905098975050505050505050565b7f43563a20696e76616c6964205f7369676e6174757265000000000000000000005f82015250565b5f61280e601683612208565b9150612819826127da565b602082019050919050565b5f6020820190508181035f83015261283b81612802565b9050919050565b5f6040820190506128555f830185612280565b6128626020830184612280565b9392505050565b5f60608201905061287c5f830186611d51565b6128896020830185611d51565b6128966040830184612280565b949350505050565b7f4e487b71000000000000000000000000000000000000000000000000000000005f52601160045260245ffd5b5f6128d582611c55565b91506128e083611c55565b92508282026128ee81611c55565b915082820484148315176129055761290461289e565b5b5092915050565b7f4e487b71000000000000000000000000000000000000000000000000000000005f52601260045260245ffd5b5f61294382611c55565b915061294e83611c55565b92508261295e5761295d61290c565b5b828204905092915050565b5f81905092915050565b7f19457468657265756d205369676e6564204d6573736167653a0a3332000000005f82015250565b5f6129a7601c83612969565b91506129b282612973565b601c82019050919050565b5f819050919050565b6129d76129d282611ef0565b6129bd565b82525050565b5f6129e78261299b565b91506129f382846129c6565b60208201915081905092915050565b5f60ff82169050919050565b612a1781612a02565b82525050565b5f608082019050612a305f830187611ef9565b612a3d6020830186612a0e565b612a4a6040830185611ef9565b612a576060830184611ef9565b95945050505050565b7f696e76616c6964207369676e6174757265206c656e67746800000000000000005f82015250565b5f612a94601883612208565b9150612a9f82612a60565b602082019050919050565b5f6020820190508181035f830152612ac181612a88565b9050919050565b5f81519050919050565b5f81905092915050565b5f5b83811015612af9578082015181840152602081019050612ade565b5f8484015250505050565b5f612b0e82612ac8565b612b188185612ad2565b9350612b28818560208601612adc565b80840191505092915050565b5f612b3f8284612b04565b91508190509291505056fea26469706673582212208e4471bed92975db5c6f45e371b11c5ed89cc188c3ad17af7193ae095489e2b364736f6c63430008140033",
			"opcodes": "PUSH1 0x80 PUSH1 0x40 MSTORE CALLVALUE DUP1 ISZERO PUSH3 0x10 JUMPI PUSH0 DUP1 REVERT JUMPDEST POP PUSH1 0x40 MLOAD PUSH3 0x2F42 CODESIZE SUB DUP1 PUSH3 0x2F42 DUP4 CODECOPY DUP2 DUP2 ADD PUSH1 0x40 MSTORE DUP2 ADD SWAP1 PUSH3 0x36 SWAP2 SWAP1 PUSH3 0x32F JUMP JUMPDEST CALLER PUSH0 PUSH20 0xFFFFFFFFFFFFFFFFFFFFFFFFFFFFFFFFFFFFFFFF AND DUP2 PUSH20 0xFFFFFFFFFFFFFFFFFFFFFFFFFFFFFFFFFFFFFFFF AND SUB PUSH3 0xAA JUMPI PUSH0 PUSH1 0x40 MLOAD PUSH32 0x1E4FBDF700000000000000000000000000000000000000000000000000000000 DUP2 MSTORE PUSH1 0x4 ADD PUSH3 0xA1 SWAP2 SWAP1 PUSH3 0x399 JUMP JUMPDEST PUSH1 0x40 MLOAD DUP1 SWAP2 SUB SWAP1 REVERT JUMPDEST PUSH3 0xBB DUP2 PUSH3 0x185 PUSH1 0x20 SHL PUSH1 0x20 SHR JUMP JUMPDEST POP DUP3 PUSH1 0x1 PUSH0 PUSH2 0x100 EXP DUP2 SLOAD DUP2 PUSH20 0xFFFFFFFFFFFFFFFFFFFFFFFFFFFFFFFFFFFFFFFF MUL NOT AND SWAP1 DUP4 PUSH20 0xFFFFFFFFFFFFFFFFFFFFFFFFFFFFFFFFFFFFFFFF AND MUL OR SWAP1 SSTORE POP DUP2 PUSH1 0x3 PUSH0 PUSH2 0x100 EXP DUP2 SLOAD DUP2 PUSH20 0xFFFFFFFFFFFFFFFFFFFFFFFFFFFFFFFFFFFFFFFF MUL NOT AND SWAP1 DUP4 PUSH20 0xFFFFFFFFFFFFFFFFFFFFFFFFFFFFFFFFFFFFFFFF AND MUL OR SWAP1 SSTORE POP DUP1 PUSH1 0x2 PUSH0 PUSH2 0x100 EXP DUP2 SLOAD DUP2 PUSH20 0xFFFFFFFFFFFFFFFFFFFFFFFFFFFFFFFFFFFFFFFF MUL NOT AND SWAP1 DUP4 PUSH20 0xFFFFFFFFFFFFFFFFFFFFFFFFFFFFFFFFFFFFFFFF AND MUL OR SWAP1 SSTORE POP POP POP POP PUSH3 0x3B4 JUMP JUMPDEST PUSH0 DUP1 PUSH0 SWAP1 SLOAD SWAP1 PUSH2 0x100 EXP SWAP1 DIV PUSH20 0xFFFFFFFFFFFFFFFFFFFFFFFFFFFFFFFFFFFFFFFF AND SWAP1 POP DUP2 PUSH0 DUP1 PUSH2 0x100 EXP DUP2 SLOAD DUP2 PUSH20 0xFFFFFFFFFFFFFFFFFFFFFFFFFFFFFFFFFFFFFFFF MUL NOT AND SWAP1 DUP4 PUSH20 0xFFFFFFFFFFFFFFFFFFFFFFFFFFFFFFFFFFFFFFFF AND MUL OR SWAP1 SSTORE POP DUP2 PUSH20 0xFFFFFFFFFFFFFFFFFFFFFFFFFFFFFFFFFFFFFFFF AND DUP2 PUSH20 0xFFFFFFFFFFFFFFFFFFFFFFFFFFFFFFFFFFFFFFFF AND PUSH32 0x8BE0079C531659141344CD1FD0A4F28419497F9722A3DAAFE3B4186F6B6457E0 PUSH1 0x40 MLOAD PUSH1 0x40 MLOAD DUP1 SWAP2 SUB SWAP1 LOG3 POP POP JUMP JUMPDEST PUSH0 DUP1 REVERT JUMPDEST PUSH0 PUSH20 0xFFFFFFFFFFFFFFFFFFFFFFFFFFFFFFFFFFFFFFFF DUP3 AND SWAP1 POP SWAP2 SWAP1 POP JUMP JUMPDEST PUSH0 PUSH3 0x275 DUP3 PUSH3 0x24A JUMP JUMPDEST SWAP1 POP SWAP2 SWAP1 POP JUMP JUMPDEST PUSH0 PUSH3 0x288 DUP3 PUSH3 0x269 JUMP JUMPDEST SWAP1 POP SWAP2 SWAP1 POP JUMP JUMPDEST PUSH3 0x29A DUP2 PUSH3 0x27C JUMP JUMPDEST DUP2 EQ PUSH3 0x2A5 JUMPI PUSH0 DUP1 REVERT JUMPDEST POP JUMP JUMPDEST PUSH0 DUP2 MLOAD SWAP1 POP PUSH3 0x2B8 DUP2 PUSH3 0x28F JUMP JUMPDEST SWAP3 SWAP2 POP POP JUMP JUMPDEST PUSH0 PUSH3 0x2CA DUP3 PUSH3 0x269 JUMP JUMPDEST SWAP1 POP SWAP2 SWAP1 POP JUMP JUMPDEST PUSH3 0x2DC DUP2 PUSH3 0x2BE JUMP JUMPDEST DUP2 EQ PUSH3 0x2E7 JUMPI PUSH0 DUP1 REVERT JUMPDEST POP JUMP JUMPDEST PUSH0 DUP2 MLOAD SWAP1 POP PUSH3 0x2FA DUP2 PUSH3 0x2D1 JUMP JUMPDEST SWAP3 SWAP2 POP POP JUMP JUMPDEST PUSH3 0x30B DUP2 PUSH3 0x269 JUMP JUMPDEST DUP2 EQ PUSH3 0x316 JUMPI PUSH0 DUP1 REVERT JUMPDEST POP JUMP JUMPDEST PUSH0 DUP2 MLOAD SWAP1 POP PUSH3 0x329 DUP2 PUSH3 0x300 JUMP JUMPDEST SWAP3 SWAP2 POP POP JUMP JUMPDEST PUSH0 DUP1 PUSH0 PUSH1 0x60 DUP5 DUP7 SUB SLT ISZERO PUSH3 0x349 JUMPI PUSH3 0x348 PUSH3 0x246 JUMP JUMPDEST JUMPDEST PUSH0 PUSH3 0x358 DUP7 DUP3 DUP8 ADD PUSH3 0x2A8 JUMP JUMPDEST SWAP4 POP POP PUSH1 0x20 PUSH3 0x36B DUP7 DUP3 DUP8 ADD PUSH3 0x2EA JUMP JUMPDEST SWAP3 POP POP PUSH1 0x40 PUSH3 0x37E DUP7 DUP3 DUP8 ADD PUSH3 0x319 JUMP JUMPDEST SWAP2 POP POP SWAP3 POP SWAP3 POP SWAP3 JUMP JUMPDEST PUSH3 0x393 DUP2 PUSH3 0x269 JUMP JUMPDEST DUP3 MSTORE POP POP JUMP JUMPDEST PUSH0 PUSH1 0x20 DUP3 ADD SWAP1 POP PUSH3 0x3AE PUSH0 DUP4 ADD DUP5 PUSH3 0x388 JUMP JUMPDEST SWAP3 SWAP2 POP POP JUMP JUMPDEST PUSH2 0x2B80 DUP1 PUSH3 0x3C2 PUSH0 CODECOPY PUSH0 RETURN INVALID PUSH1 0x80 PUSH1 0x40 MSTORE CALLVALUE DUP1 ISZERO PUSH2 0xF JUMPI PUSH0 DUP1 REVERT JUMPDEST POP PUSH1 0x4 CALLDATASIZE LT PUSH2 0x9C JUMPI PUSH0 CALLDATALOAD PUSH1 0xE0 SHR DUP1 PUSH4 0x8DA5CB5B GT PUSH2 0x64 JUMPI DUP1 PUSH4 0x8DA5CB5B EQ PUSH2 0x11C JUMPI DUP1 PUSH4 0xA14832AF EQ PUSH2 0x13A JUMPI DUP1 PUSH4 0xE51A9A38 EQ PUSH2 0x16A JUMPI DUP1 PUSH4 0xF2FDE38B EQ PUSH2 0x186 JUMPI DUP1 PUSH4 0xF6B239A4 EQ PUSH2 0x1A2 JUMPI PUSH2 0x9C JUMP JUMPDEST DUP1 PUSH4 0x44004CC1 EQ PUSH2 0xA0 JUMPI DUP1 PUSH4 0x4782F779 EQ PUSH2 0xBC JUMPI DUP1 PUSH4 0x5B7633D0 EQ PUSH2 0xD8 JUMPI DUP1 PUSH4 0x715018A6 EQ PUSH2 0xF6 JUMPI DUP1 PUSH4 0x87336111 EQ PUSH2 0x100 JUMPI JUMPDEST PUSH0 DUP1 REVERT JUMPDEST PUSH2 0xBA PUSH1 0x4 DUP1 CALLDATASIZE SUB DUP2 ADD SWAP1 PUSH2 0xB5 SWAP2 SWAP1 PUSH2 0x1C88 JUMP JUMPDEST PUSH2 0x1C0 JUMP JUMPDEST STOP JUMPDEST PUSH2 0xD6 PUSH1 0x4 DUP1 CALLDATASIZE SUB DUP2 ADD SWAP1 PUSH2 0xD1 SWAP2 SWAP1 PUSH2 0x1D13 JUMP JUMPDEST PUSH2 0x33A JUMP JUMPDEST STOP JUMPDEST PUSH2 0xE0 PUSH2 0x3CD JUMP JUMPDEST PUSH1 0x40 MLOAD PUSH2 0xED SWAP2 SWAP1 PUSH2 0x1D60 JUMP JUMPDEST PUSH1 0x40 MLOAD DUP1 SWAP2 SUB SWAP1 RETURN JUMPDEST PUSH2 0xFE PUSH2 0x3F2 JUMP JUMPDEST STOP JUMPDEST PUSH2 0x11A PUSH1 0x4 DUP1 CALLDATASIZE SUB DUP2 ADD SWAP1 PUSH2 0x115 SWAP2 SWAP1 PUSH2 0x1DEF JUMP JUMPDEST PUSH2 0x405 JUMP JUMPDEST STOP JUMPDEST PUSH2 0x124 PUSH2 0x4D2 JUMP JUMPDEST PUSH1 0x40 MLOAD PUSH2 0x131 SWAP2 SWAP1 PUSH2 0x1D60 JUMP JUMPDEST PUSH1 0x40 MLOAD DUP1 SWAP2 SUB SWAP1 RETURN JUMPDEST PUSH2 0x154 PUSH1 0x4 DUP1 CALLDATASIZE SUB DUP2 ADD SWAP1 PUSH2 0x14F SWAP2 SWAP1 PUSH2 0x1E3F JUMP JUMPDEST PUSH2 0x4F9 JUMP JUMPDEST PUSH1 0x40 MLOAD PUSH2 0x161 SWAP2 SWAP1 PUSH2 0x1F08 JUMP JUMPDEST PUSH1 0x40 MLOAD DUP1 SWAP2 SUB SWAP1 RETURN JUMPDEST PUSH2 0x184 PUSH1 0x4 DUP1 CALLDATASIZE SUB DUP2 ADD SWAP1 PUSH2 0x17F SWAP2 SWAP1 PUSH2 0x205D JUMP JUMPDEST PUSH2 0xC5A JUMP JUMPDEST STOP JUMPDEST PUSH2 0x1A0 PUSH1 0x4 DUP1 CALLDATASIZE SUB DUP2 ADD SWAP1 PUSH2 0x19B SWAP2 SWAP1 PUSH2 0x212A JUMP JUMPDEST PUSH2 0x157A JUMP JUMPDEST STOP JUMPDEST PUSH2 0x1AA PUSH2 0x15FE JUMP JUMPDEST PUSH1 0x40 MLOAD PUSH2 0x1B7 SWAP2 SWAP1 PUSH2 0x21B0 JUMP JUMPDEST PUSH1 0x40 MLOAD DUP1 SWAP2 SUB SWAP1 RETURN JUMPDEST PUSH2 0x1C8 PUSH2 0x1623 JUMP JUMPDEST PUSH0 DUP4 SWAP1 POP PUSH0 DUP2 PUSH20 0xFFFFFFFFFFFFFFFFFFFFFFFFFFFFFFFFFFFFFFFF AND PUSH4 0x70A08231 ADDRESS PUSH1 0x40 MLOAD DUP3 PUSH4 0xFFFFFFFF AND PUSH1 0xE0 SHL DUP2 MSTORE PUSH1 0x4 ADD PUSH2 0x206 SWAP2 SWAP1 PUSH2 0x1D60 JUMP JUMPDEST PUSH1 0x20 PUSH1 0x40 MLOAD DUP1 DUP4 SUB DUP2 DUP7 GAS STATICCALL ISZERO DUP1 ISZERO PUSH2 0x221 JUMPI RETURNDATASIZE PUSH0 DUP1 RETURNDATACOPY RETURNDATASIZE PUSH0 REVERT JUMPDEST POP POP POP POP PUSH1 0x40 MLOAD RETURNDATASIZE PUSH1 0x1F NOT PUSH1 0x1F DUP3 ADD AND DUP3 ADD DUP1 PUSH1 0x40 MSTORE POP DUP2 ADD SWAP1 PUSH2 0x245 SWAP2 SWAP1 PUSH2 0x21DD JUMP JUMPDEST SWAP1 POP DUP3 DUP2 LT ISZERO PUSH2 0x28A JUMPI PUSH1 0x40 MLOAD PUSH32 0x8C379A000000000000000000000000000000000000000000000000000000000 DUP2 MSTORE PUSH1 0x4 ADD PUSH2 0x281 SWAP1 PUSH2 0x2262 JUMP JUMPDEST PUSH1 0x40 MLOAD DUP1 SWAP2 SUB SWAP1 REVERT JUMPDEST DUP2 PUSH20 0xFFFFFFFFFFFFFFFFFFFFFFFFFFFFFFFFFFFFFFFF AND PUSH4 0x95EA7B3 ADDRESS DUP6 PUSH1 0x40 MLOAD DUP4 PUSH4 0xFFFFFFFF AND PUSH1 0xE0 SHL DUP2 MSTORE PUSH1 0x4 ADD PUSH2 0x2C5 SWAP3 SWAP2 SWAP1 PUSH2 0x228F JUMP JUMPDEST PUSH1 0x20 PUSH1 0x40 MLOAD DUP1 DUP4 SUB DUP2 PUSH0 DUP8 GAS CALL ISZERO DUP1 ISZERO PUSH2 0x2E1 JUMPI RETURNDATASIZE PUSH0 DUP1 RETURNDATACOPY RETURNDATASIZE PUSH0 REVERT JUMPDEST POP POP POP POP PUSH1 0x40 MLOAD RETURNDATASIZE PUSH1 0x1F NOT PUSH1 0x1F DUP3 ADD AND DUP3 ADD DUP1 PUSH1 0x40 MSTORE POP DUP2 ADD SWAP1 PUSH2 0x305 SWAP2 SWAP1 PUSH2 0x22EB JUMP JUMPDEST POP PUSH2 0x333 ADDRESS DUP6 DUP6 DUP6 PUSH20 0xFFFFFFFFFFFFFFFFFFFFFFFFFFFFFFFFFFFFFFFF AND PUSH2 0x16AA SWAP1 SWAP4 SWAP3 SWAP2 SWAP1 PUSH4 0xFFFFFFFF AND JUMP JUMPDEST POP POP POP POP POP JUMP JUMPDEST PUSH2 0x342 PUSH2 0x1623 JUMP JUMPDEST DUP1 SELFBALANCE LT ISZERO PUSH2 0x385 JUMPI PUSH1 0x40 MLOAD PUSH32 0x8C379A000000000000000000000000000000000000000000000000000000000 DUP2 MSTORE PUSH1 0x4 ADD PUSH2 0x37C SWAP1 PUSH2 0x2262 JUMP JUMPDEST PUSH1 0x40 MLOAD DUP1 SWAP2 SUB SWAP1 REVERT JUMPDEST DUP2 PUSH20 0xFFFFFFFFFFFFFFFFFFFFFFFFFFFFFFFFFFFFFFFF AND PUSH2 0x8FC DUP3 SWAP1 DUP2 ISZERO MUL SWAP1 PUSH1 0x40 MLOAD PUSH0 PUSH1 0x40 MLOAD DUP1 DUP4 SUB DUP2 DUP6 DUP9 DUP9 CALL SWAP4 POP POP POP POP ISZERO DUP1 ISZERO PUSH2 0x3C8 JUMPI RETURNDATASIZE PUSH0 DUP1 RETURNDATACOPY RETURNDATASIZE PUSH0 REVERT JUMPDEST POP POP POP JUMP JUMPDEST PUSH1 0x2 PUSH0 SWAP1 SLOAD SWAP1 PUSH2 0x100 EXP SWAP1 DIV PUSH20 0xFFFFFFFFFFFFFFFFFFFFFFFFFFFFFFFFFFFFFFFF AND DUP2 JUMP JUMPDEST PUSH2 0x3FA PUSH2 0x1623 JUMP JUMPDEST PUSH2 0x403 PUSH0 PUSH2 0x172C JUMP JUMPDEST JUMP JUMPDEST PUSH2 0x40D PUSH2 0x1623 JUMP JUMPDEST DUP3 PUSH1 0x1 PUSH0 PUSH2 0x100 EXP DUP2 SLOAD DUP2 PUSH20 0xFFFFFFFFFFFFFFFFFFFFFFFFFFFFFFFFFFFFFFFF MUL NOT AND SWAP1 DUP4 PUSH20 0xFFFFFFFFFFFFFFFFFFFFFFFFFFFFFFFFFFFFFFFF AND MUL OR SWAP1 SSTORE POP DUP2 PUSH1 0x3 PUSH0 PUSH2 0x100 EXP DUP2 SLOAD DUP2 PUSH20 0xFFFFFFFFFFFFFFFFFFFFFFFFFFFFFFFFFFFFFFFF MUL NOT AND SWAP1 DUP4 PUSH20 0xFFFFFFFFFFFFFFFFFFFFFFFFFFFFFFFFFFFFFFFF AND MUL OR SWAP1 SSTORE POP DUP1 PUSH1 0x2 PUSH0 PUSH2 0x100 EXP DUP2 SLOAD DUP2 PUSH20 0xFFFFFFFFFFFFFFFFFFFFFFFFFFFFFFFFFFFFFFFF MUL NOT AND SWAP1 DUP4 PUSH20 0xFFFFFFFFFFFFFFFFFFFFFFFFFFFFFFFFFFFFFFFF AND MUL OR SWAP1 SSTORE POP POP POP POP JUMP JUMPDEST PUSH0 DUP1 PUSH0 SWAP1 SLOAD SWAP1 PUSH2 0x100 EXP SWAP1 DIV PUSH20 0xFFFFFFFFFFFFFFFFFFFFFFFFFFFFFFFFFFFFFFFF AND SWAP1 POP SWAP1 JUMP JUMPDEST PUSH0 DUP9 PUSH20 0xFFFFFFFFFFFFFFFFFFFFFFFFFFFFFFFFFFFFFFFF AND PUSH1 0x1 PUSH0 SWAP1 SLOAD SWAP1 PUSH2 0x100 EXP SWAP1 DIV PUSH20 0xFFFFFFFFFFFFFFFFFFFFFFFFFFFFFFFFFFFFFFFF AND PUSH20 0xFFFFFFFFFFFFFFFFFFFFFFFFFFFFFFFFFFFFFFFF AND PUSH4 0x6352211E DUP9 PUSH1 0x40 MLOAD DUP3 PUSH4 0xFFFFFFFF AND PUSH1 0xE0 SHL DUP2 MSTORE PUSH1 0x4 ADD PUSH2 0x56B SWAP2 SWAP1 PUSH2 0x2316 JUMP JUMPDEST PUSH1 0x20 PUSH1 0x40 MLOAD DUP1 DUP4 SUB DUP2 DUP7 GAS STATICCALL ISZERO DUP1 ISZERO PUSH2 0x586 JUMPI RETURNDATASIZE PUSH0 DUP1 RETURNDATACOPY RETURNDATASIZE PUSH0 REVERT JUMPDEST POP POP POP POP PUSH1 0x40 MLOAD RETURNDATASIZE PUSH1 0x1F NOT PUSH1 0x1F DUP3 ADD AND DUP3 ADD DUP1 PUSH1 0x40 MSTORE POP DUP2 ADD SWAP1 PUSH2 0x5AA SWAP2 SWAP1 PUSH2 0x2343 JUMP JUMPDEST PUSH20 0xFFFFFFFFFFFFFFFFFFFFFFFFFFFFFFFFFFFFFFFF AND EQ PUSH2 0x600 JUMPI PUSH1 0x40 MLOAD PUSH32 0x8C379A000000000000000000000000000000000000000000000000000000000 DUP2 MSTORE PUSH1 0x4 ADD PUSH2 0x5F7 SWAP1 PUSH2 0x23B8 JUMP JUMPDEST PUSH1 0x40 MLOAD DUP1 SWAP2 SUB SWAP1 REVERT JUMPDEST DUP9 PUSH20 0xFFFFFFFFFFFFFFFFFFFFFFFFFFFFFFFFFFFFFFFF AND PUSH1 0x1 PUSH0 SWAP1 SLOAD SWAP1 PUSH2 0x100 EXP SWAP1 DIV PUSH20 0xFFFFFFFFFFFFFFFFFFFFFFFFFFFFFFFFFFFFFFFF AND PUSH20 0xFFFFFFFFFFFFFFFFFFFFFFFFFFFFFFFFFFFFFFFF AND PUSH4 0x6352211E DUP8 PUSH1 0x40 MLOAD DUP3 PUSH4 0xFFFFFFFF AND PUSH1 0xE0 SHL DUP2 MSTORE PUSH1 0x4 ADD PUSH2 0x671 SWAP2 SWAP1 PUSH2 0x2316 JUMP JUMPDEST PUSH1 0x20 PUSH1 0x40 MLOAD DUP1 DUP4 SUB DUP2 DUP7 GAS STATICCALL ISZERO DUP1 ISZERO PUSH2 0x68C JUMPI RETURNDATASIZE PUSH0 DUP1 RETURNDATACOPY RETURNDATASIZE PUSH0 REVERT JUMPDEST POP POP POP POP PUSH1 0x40 MLOAD RETURNDATASIZE PUSH1 0x1F NOT PUSH1 0x1F DUP3 ADD AND DUP3 ADD DUP1 PUSH1 0x40 MSTORE POP DUP2 ADD SWAP1 PUSH2 0x6B0 SWAP2 SWAP1 PUSH2 0x2343 JUMP JUMPDEST PUSH20 0xFFFFFFFFFFFFFFFFFFFFFFFFFFFFFFFFFFFFFFFF AND EQ PUSH2 0x706 JUMPI PUSH1 0x40 MLOAD PUSH32 0x8C379A000000000000000000000000000000000000000000000000000000000 DUP2 MSTORE PUSH1 0x4 ADD PUSH2 0x6FD SWAP1 PUSH2 0x23B8 JUMP JUMPDEST PUSH1 0x40 MLOAD DUP1 SWAP2 SUB SWAP1 REVERT JUMPDEST DUP9 PUSH20 0xFFFFFFFFFFFFFFFFFFFFFFFFFFFFFFFFFFFFFFFF AND PUSH1 0x1 PUSH0 SWAP1 SLOAD SWAP1 PUSH2 0x100 EXP SWAP1 DIV PUSH20 0xFFFFFFFFFFFFFFFFFFFFFFFFFFFFFFFFFFFFFFFF AND PUSH20 0xFFFFFFFFFFFFFFFFFFFFFFFFFFFFFFFFFFFFFFFF AND PUSH4 0x6352211E DUP7 PUSH1 0x40 MLOAD DUP3 PUSH4 0xFFFFFFFF AND PUSH1 0xE0 SHL DUP2 MSTORE PUSH1 0x4 ADD PUSH2 0x777 SWAP2 SWAP1 PUSH2 0x2316 JUMP JUMPDEST PUSH1 0x20 PUSH1 0x40 MLOAD DUP1 DUP4 SUB DUP2 DUP7 GAS STATICCALL ISZERO DUP1 ISZERO PUSH2 0x792 JUMPI RETURNDATASIZE PUSH0 DUP1 RETURNDATACOPY RETURNDATASIZE PUSH0 REVERT JUMPDEST POP POP POP POP PUSH1 0x40 MLOAD RETURNDATASIZE PUSH1 0x1F NOT PUSH1 0x1F DUP3 ADD AND DUP3 ADD DUP1 PUSH1 0x40 MSTORE POP DUP2 ADD SWAP1 PUSH2 0x7B6 SWAP2 SWAP1 PUSH2 0x2343 JUMP JUMPDEST PUSH20 0xFFFFFFFFFFFFFFFFFFFFFFFFFFFFFFFFFFFFFFFF AND EQ PUSH2 0x80C JUMPI PUSH1 0x40 MLOAD PUSH32 0x8C379A000000000000000000000000000000000000000000000000000000000 DUP2 MSTORE PUSH1 0x4 ADD PUSH2 0x803 SWAP1 PUSH2 0x23B8 JUMP JUMPDEST PUSH1 0x40 MLOAD DUP1 SWAP2 SUB SWAP1 REVERT JUMPDEST PUSH0 PUSH1 0x1 PUSH0 SWAP1 SLOAD SWAP1 PUSH2 0x100 EXP SWAP1 DIV PUSH20 0xFFFFFFFFFFFFFFFFFFFFFFFFFFFFFFFFFFFFFFFF AND PUSH20 0xFFFFFFFFFFFFFFFFFFFFFFFFFFFFFFFFFFFFFFFF AND PUSH4 0x5AFD5EFE DUP9 PUSH1 0x40 MLOAD DUP3 PUSH4 0xFFFFFFFF AND PUSH1 0xE0 SHL DUP2 MSTORE PUSH1 0x4 ADD PUSH2 0x867 SWAP2 SWAP1 PUSH2 0x2316 JUMP JUMPDEST PUSH1 0x80 PUSH1 0x40 MLOAD DUP1 DUP4 SUB DUP2 DUP7 GAS STATICCALL ISZERO DUP1 ISZERO PUSH2 0x882 JUMPI RETURNDATASIZE PUSH0 DUP1 RETURNDATACOPY RETURNDATASIZE PUSH0 REVERT JUMPDEST POP POP POP POP PUSH1 0x40 MLOAD RETURNDATASIZE PUSH1 0x1F NOT PUSH1 0x1F DUP3 ADD AND DUP3 ADD DUP1 PUSH1 0x40 MSTORE POP DUP2 ADD SWAP1 PUSH2 0x8A6 SWAP2 SWAP1 PUSH2 0x2472 JUMP JUMPDEST SWAP1 POP PUSH0 PUSH1 0x2 DUP2 GT ISZERO PUSH2 0x8BB JUMPI PUSH2 0x8BA PUSH2 0x249D JUMP JUMPDEST JUMPDEST DUP2 PUSH0 ADD MLOAD PUSH1 0x2 DUP2 GT ISZERO PUSH2 0x8D1 JUMPI PUSH2 0x8D0 PUSH2 0x249D JUMP JUMPDEST JUMPDEST EQ PUSH2 0x911 JUMPI PUSH1 0x40 MLOAD PUSH32 0x8C379A000000000000000000000000000000000000000000000000000000000 DUP2 MSTORE PUSH1 0x4 ADD PUSH2 0x908 SWAP1 PUSH2 0x2514 JUMP JUMPDEST PUSH1 0x40 MLOAD DUP1 SWAP2 SUB SWAP1 REVERT JUMPDEST PUSH0 PUSH1 0x1 PUSH0 SWAP1 SLOAD SWAP1 PUSH2 0x100 EXP SWAP1 DIV PUSH20 0xFFFFFFFFFFFFFFFFFFFFFFFFFFFFFFFFFFFFFFFF AND PUSH20 0xFFFFFFFFFFFFFFFFFFFFFFFFFFFFFFFFFFFFFFFF AND PUSH4 0x5AFD5EFE DUP9 PUSH1 0x40 MLOAD DUP3 PUSH4 0xFFFFFFFF AND PUSH1 0xE0 SHL DUP2 MSTORE PUSH1 0x4 ADD PUSH2 0x96C SWAP2 SWAP1 PUSH2 0x2316 JUMP JUMPDEST PUSH1 0x80 PUSH1 0x40 MLOAD DUP1 DUP4 SUB DUP2 DUP7 GAS STATICCALL ISZERO DUP1 ISZERO PUSH2 0x987 JUMPI RETURNDATASIZE PUSH0 DUP1 RETURNDATACOPY RETURNDATASIZE PUSH0 REVERT JUMPDEST POP POP POP POP PUSH1 0x40 MLOAD RETURNDATASIZE PUSH1 0x1F NOT PUSH1 0x1F DUP3 ADD AND DUP3 ADD DUP1 PUSH1 0x40 MSTORE POP DUP2 ADD SWAP1 PUSH2 0x9AB SWAP2 SWAP1 PUSH2 0x2472 JUMP JUMPDEST SWAP1 POP PUSH1 0x1 PUSH1 0x2 DUP2 GT ISZERO PUSH2 0x9C1 JUMPI PUSH2 0x9C0 PUSH2 0x249D JUMP JUMPDEST JUMPDEST DUP2 PUSH0 ADD MLOAD PUSH1 0x2 DUP2 GT ISZERO PUSH2 0x9D7 JUMPI PUSH2 0x9D6 PUSH2 0x249D JUMP JUMPDEST JUMPDEST EQ PUSH2 0xA17 JUMPI PUSH1 0x40 MLOAD PUSH32 0x8C379A000000000000000000000000000000000000000000000000000000000 DUP2 MSTORE PUSH1 0x4 ADD PUSH2 0xA0E SWAP1 PUSH2 0x257C JUMP JUMPDEST PUSH1 0x40 MLOAD DUP1 SWAP2 SUB SWAP1 REVERT JUMPDEST PUSH0 PUSH1 0x1 PUSH0 SWAP1 SLOAD SWAP1 PUSH2 0x100 EXP SWAP1 DIV PUSH20 0xFFFFFFFFFFFFFFFFFFFFFFFFFFFFFFFFFFFFFFFF AND PUSH20 0xFFFFFFFFFFFFFFFFFFFFFFFFFFFFFFFFFFFFFFFF AND PUSH4 0x5AFD5EFE DUP9 PUSH1 0x40 MLOAD DUP3 PUSH4 0xFFFFFFFF AND PUSH1 0xE0 SHL DUP2 MSTORE PUSH1 0x4 ADD PUSH2 0xA72 SWAP2 SWAP1 PUSH2 0x2316 JUMP JUMPDEST PUSH1 0x80 PUSH1 0x40 MLOAD DUP1 DUP4 SUB DUP2 DUP7 GAS STATICCALL ISZERO DUP1 ISZERO PUSH2 0xA8D JUMPI RETURNDATASIZE PUSH0 DUP1 RETURNDATACOPY RETURNDATASIZE PUSH0 REVERT JUMPDEST POP POP POP POP PUSH1 0x40 MLOAD RETURNDATASIZE PUSH1 0x1F NOT PUSH1 0x1F DUP3 ADD AND DUP3 ADD DUP1 PUSH1 0x40 MSTORE POP DUP2 ADD SWAP1 PUSH2 0xAB1 SWAP2 SWAP1 PUSH2 0x2472 JUMP JUMPDEST SWAP1 POP PUSH1 0x2 DUP1 DUP2 GT ISZERO PUSH2 0xAC6 JUMPI PUSH2 0xAC5 PUSH2 0x249D JUMP JUMPDEST JUMPDEST DUP2 PUSH0 ADD MLOAD PUSH1 0x2 DUP2 GT ISZERO PUSH2 0xADC JUMPI PUSH2 0xADB PUSH2 0x249D JUMP JUMPDEST JUMPDEST EQ PUSH2 0xB1C JUMPI PUSH1 0x40 MLOAD PUSH32 0x8C379A000000000000000000000000000000000000000000000000000000000 DUP2 MSTORE PUSH1 0x4 ADD PUSH2 0xB13 SWAP1 PUSH2 0x25E4 JUMP JUMPDEST PUSH1 0x40 MLOAD DUP1 SWAP2 SUB SWAP1 REVERT JUMPDEST PUSH0 PUSH2 0xB44 PUSH2 0x2710 PUSH2 0xB36 DUP10 DUP15 PUSH2 0x17ED SWAP1 SWAP2 SWAP1 PUSH4 0xFFFFFFFF AND JUMP JUMPDEST PUSH2 0x1802 SWAP1 SWAP2 SWAP1 PUSH4 0xFFFFFFFF AND JUMP JUMPDEST SWAP1 POP PUSH0 DUP2 GT PUSH2 0xB88 JUMPI PUSH1 0x40 MLOAD PUSH32 0x8C379A000000000000000000000000000000000000000000000000000000000 DUP2 MSTORE PUSH1 0x4 ADD PUSH2 0xB7F SWAP1 PUSH2 0x264C JUMP JUMPDEST PUSH1 0x40 MLOAD DUP1 SWAP2 SUB SWAP1 REVERT JUMPDEST DUP1 DUP3 PUSH1 0x40 ADD MLOAD LT ISZERO PUSH2 0xBCF JUMPI PUSH1 0x40 MLOAD PUSH32 0x8C379A000000000000000000000000000000000000000000000000000000000 DUP2 MSTORE PUSH1 0x4 ADD PUSH2 0xBC6 SWAP1 PUSH2 0x26B4 JUMP JUMPDEST PUSH1 0x40 MLOAD DUP1 SWAP2 SUB SWAP1 REVERT JUMPDEST DUP12 DUP4 PUSH1 0x20 ADD MLOAD EQ PUSH2 0xC15 JUMPI PUSH1 0x40 MLOAD PUSH32 0x8C379A000000000000000000000000000000000000000000000000000000000 DUP2 MSTORE PUSH1 0x4 ADD PUSH2 0xC0C SWAP1 PUSH2 0x271C JUMP JUMPDEST PUSH1 0x40 MLOAD DUP1 SWAP2 SUB SWAP1 REVERT JUMPDEST DUP12 DUP12 DUP12 DUP12 DUP12 DUP12 DUP12 PUSH1 0x40 MLOAD PUSH1 0x20 ADD PUSH2 0xC32 SWAP8 SWAP7 SWAP6 SWAP5 SWAP4 SWAP3 SWAP2 SWAP1 PUSH2 0x275A JUMP JUMPDEST PUSH1 0x40 MLOAD PUSH1 0x20 DUP2 DUP4 SUB SUB DUP2 MSTORE SWAP1 PUSH1 0x40 MSTORE DUP1 MLOAD SWAP1 PUSH1 0x20 ADD KECCAK256 SWAP5 POP POP POP POP POP SWAP9 SWAP8 POP POP POP POP POP POP POP POP JUMP JUMPDEST CALLER PUSH20 0xFFFFFFFFFFFFFFFFFFFFFFFFFFFFFFFFFFFFFFFF AND PUSH1 0x1 PUSH0 SWAP1 SLOAD SWAP1 PUSH2 0x100 EXP SWAP1 DIV PUSH20 0xFFFFFFFFFFFFFFFFFFFFFFFFFFFFFFFFFFFFFFFF AND PUSH20 0xFFFFFFFFFFFFFFFFFFFFFFFFFFFFFFFFFFFFFFFF AND PUSH4 0x6352211E DUP9 PUSH1 0x40 MLOAD DUP3 PUSH4 0xFFFFFFFF AND PUSH1 0xE0 SHL DUP2 MSTORE PUSH1 0x4 ADD PUSH2 0xCCB SWAP2 SWAP1 PUSH2 0x2316 JUMP JUMPDEST PUSH1 0x20 PUSH1 0x40 MLOAD DUP1 DUP4 SUB DUP2 DUP7 GAS STATICCALL ISZERO DUP1 ISZERO PUSH2 0xCE6 JUMPI RETURNDATASIZE PUSH0 DUP1 RETURNDATACOPY RETURNDATASIZE PUSH0 REVERT JUMPDEST POP POP POP POP PUSH1 0x40 MLOAD RETURNDATASIZE PUSH1 0x1F NOT PUSH1 0x1F DUP3 ADD AND DUP3 ADD DUP1 PUSH1 0x40 MSTORE POP DUP2 ADD SWAP1 PUSH2 0xD0A SWAP2 SWAP1 PUSH2 0x2343 JUMP JUMPDEST PUSH20 0xFFFFFFFFFFFFFFFFFFFFFFFFFFFFFFFFFFFFFFFF AND EQ PUSH2 0xD60 JUMPI PUSH1 0x40 MLOAD PUSH32 0x8C379A000000000000000000000000000000000000000000000000000000000 DUP2 MSTORE PUSH1 0x4 ADD PUSH2 0xD57 SWAP1 PUSH2 0x23B8 JUMP JUMPDEST PUSH1 0x40 MLOAD DUP1 SWAP2 SUB SWAP1 REVERT JUMPDEST CALLER PUSH20 0xFFFFFFFFFFFFFFFFFFFFFFFFFFFFFFFFFFFFFFFF AND PUSH1 0x1 PUSH0 SWAP1 SLOAD SWAP1 PUSH2 0x100 EXP SWAP1 DIV PUSH20 0xFFFFFFFFFFFFFFFFFFFFFFFFFFFFFFFFFFFFFFFF AND PUSH20 0xFFFFFFFFFFFFFFFFFFFFFFFFFFFFFFFFFFFFFFFF AND PUSH4 0x6352211E DUP8 PUSH1 0x40 MLOAD DUP3 PUSH4 0xFFFFFFFF AND PUSH1 0xE0 SHL DUP2 MSTORE PUSH1 0x4 ADD PUSH2 0xDD1 SWAP2 SWAP1 PUSH2 0x2316 JUMP JUMPDEST PUSH1 0x20 PUSH1 0x40 MLOAD DUP1 DUP4 SUB DUP2 DUP7 GAS STATICCALL ISZERO DUP1 ISZERO PUSH2 0xDEC JUMPI RETURNDATASIZE PUSH0 DUP1 RETURNDATACOPY RETURNDATASIZE PUSH0 REVERT JUMPDEST POP POP POP POP PUSH1 0x40 MLOAD RETURNDATASIZE PUSH1 0x1F NOT PUSH1 0x1F DUP3 ADD AND DUP3 ADD DUP1 PUSH1 0x40 MSTORE POP DUP2 ADD SWAP1 PUSH2 0xE10 SWAP2 SWAP1 PUSH2 0x2343 JUMP JUMPDEST PUSH20 0xFFFFFFFFFFFFFFFFFFFFFFFFFFFFFFFFFFFFFFFF AND EQ PUSH2 0xE66 JUMPI PUSH1 0x40 MLOAD PUSH32 0x8C379A000000000000000000000000000000000000000000000000000000000 DUP2 MSTORE PUSH1 0x4 ADD PUSH2 0xE5D SWAP1 PUSH2 0x23B8 JUMP JUMPDEST PUSH1 0x40 MLOAD DUP1 SWAP2 SUB SWAP1 REVERT JUMPDEST CALLER PUSH20 0xFFFFFFFFFFFFFFFFFFFFFFFFFFFFFFFFFFFFFFFF AND PUSH1 0x1 PUSH0 SWAP1 SLOAD SWAP1 PUSH2 0x100 EXP SWAP1 DIV PUSH20 0xFFFFFFFFFFFFFFFFFFFFFFFFFFFFFFFFFFFFFFFF AND PUSH20 0xFFFFFFFFFFFFFFFFFFFFFFFFFFFFFFFFFFFFFFFF AND PUSH4 0x6352211E DUP7 PUSH1 0x40 MLOAD DUP3 PUSH4 0xFFFFFFFF AND PUSH1 0xE0 SHL DUP2 MSTORE PUSH1 0x4 ADD PUSH2 0xED7 SWAP2 SWAP1 PUSH2 0x2316 JUMP JUMPDEST PUSH1 0x20 PUSH1 0x40 MLOAD DUP1 DUP4 SUB DUP2 DUP7 GAS STATICCALL ISZERO DUP1 ISZERO PUSH2 0xEF2 JUMPI RETURNDATASIZE PUSH0 DUP1 RETURNDATACOPY RETURNDATASIZE PUSH0 REVERT JUMPDEST POP POP POP POP PUSH1 0x40 MLOAD RETURNDATASIZE PUSH1 0x1F NOT PUSH1 0x1F DUP3 ADD AND DUP3 ADD DUP1 PUSH1 0x40 MSTORE POP DUP2 ADD SWAP1 PUSH2 0xF16 SWAP2 SWAP1 PUSH2 0x2343 JUMP JUMPDEST PUSH20 0xFFFFFFFFFFFFFFFFFFFFFFFFFFFFFFFFFFFFFFFF AND EQ PUSH2 0xF6C JUMPI PUSH1 0x40 MLOAD PUSH32 0x8C379A000000000000000000000000000000000000000000000000000000000 DUP2 MSTORE PUSH1 0x4 ADD PUSH2 0xF63 SWAP1 PUSH2 0x23B8 JUMP JUMPDEST PUSH1 0x40 MLOAD DUP1 SWAP2 SUB SWAP1 REVERT JUMPDEST PUSH2 0xF7D CALLER DUP10 DUP10 DUP10 DUP10 DUP10 DUP10 DUP10 DUP10 PUSH2 0x1817 JUMP JUMPDEST PUSH2 0xFBC JUMPI PUSH1 0x40 MLOAD PUSH32 0x8C379A000000000000000000000000000000000000000000000000000000000 DUP2 MSTORE PUSH1 0x4 ADD PUSH2 0xFB3 SWAP1 PUSH2 0x2824 JUMP JUMPDEST PUSH1 0x40 MLOAD DUP1 SWAP2 SUB SWAP1 REVERT JUMPDEST PUSH0 PUSH2 0xFE4 PUSH2 0x2710 PUSH2 0xFD6 DUP7 DUP12 PUSH2 0x17ED SWAP1 SWAP2 SWAP1 PUSH4 0xFFFFFFFF AND JUMP JUMPDEST PUSH2 0x1802 SWAP1 SWAP2 SWAP1 PUSH4 0xFFFFFFFF AND JUMP JUMPDEST SWAP1 POP PUSH0 DUP2 GT PUSH2 0x1028 JUMPI PUSH1 0x40 MLOAD PUSH32 0x8C379A000000000000000000000000000000000000000000000000000000000 DUP2 MSTORE PUSH1 0x4 ADD PUSH2 0x101F SWAP1 PUSH2 0x264C JUMP JUMPDEST PUSH1 0x40 MLOAD DUP1 SWAP2 SUB SWAP1 REVERT JUMPDEST PUSH0 PUSH1 0x1 PUSH0 SWAP1 SLOAD SWAP1 PUSH2 0x100 EXP SWAP1 DIV PUSH20 0xFFFFFFFFFFFFFFFFFFFFFFFFFFFFFFFFFFFFFFFF AND PUSH20 0xFFFFFFFFFFFFFFFFFFFFFFFFFFFFFFFFFFFFFFFF AND PUSH4 0x5AFD5EFE DUP10 PUSH1 0x40 MLOAD DUP3 PUSH4 0xFFFFFFFF AND PUSH1 0xE0 SHL DUP2 MSTORE PUSH1 0x4 ADD PUSH2 0x1083 SWAP2 SWAP1 PUSH2 0x2316 JUMP JUMPDEST PUSH1 0x80 PUSH1 0x40 MLOAD DUP1 DUP4 SUB DUP2 DUP7 GAS STATICCALL ISZERO DUP1 ISZERO PUSH2 0x109E JUMPI RETURNDATASIZE PUSH0 DUP1 RETURNDATACOPY RETURNDATASIZE PUSH0 REVERT JUMPDEST POP POP POP POP PUSH1 0x40 MLOAD RETURNDATASIZE PUSH1 0x1F NOT PUSH1 0x1F DUP3 ADD AND DUP3 ADD DUP1 PUSH1 0x40 MSTORE POP DUP2 ADD SWAP1 PUSH2 0x10C2 SWAP2 SWAP1 PUSH2 0x2472 JUMP JUMPDEST SWAP1 POP PUSH0 PUSH1 0x2 DUP2 GT ISZERO PUSH2 0x10D7 JUMPI PUSH2 0x10D6 PUSH2 0x249D JUMP JUMPDEST JUMPDEST DUP2 PUSH0 ADD MLOAD PUSH1 0x2 DUP2 GT ISZERO PUSH2 0x10ED JUMPI PUSH2 0x10EC PUSH2 0x249D JUMP JUMPDEST JUMPDEST EQ PUSH2 0x112D JUMPI PUSH1 0x40 MLOAD PUSH32 0x8C379A000000000000000000000000000000000000000000000000000000000 DUP2 MSTORE PUSH1 0x4 ADD PUSH2 0x1124 SWAP1 PUSH2 0x2514 JUMP JUMPDEST PUSH1 0x40 MLOAD DUP1 SWAP2 SUB SWAP1 REVERT JUMPDEST PUSH0 PUSH1 0x1 PUSH0 SWAP1 SLOAD SWAP1 PUSH2 0x100 EXP SWAP1 DIV PUSH20 0xFFFFFFFFFFFFFFFFFFFFFFFFFFFFFFFFFFFFFFFF AND PUSH20 0xFFFFFFFFFFFFFFFFFFFFFFFFFFFFFFFFFFFFFFFF AND PUSH4 0x5AFD5EFE DUP10 PUSH1 0x40 MLOAD DUP3 PUSH4 0xFFFFFFFF AND PUSH1 0xE0 SHL DUP2 MSTORE PUSH1 0x4 ADD PUSH2 0x1188 SWAP2 SWAP1 PUSH2 0x2316 JUMP JUMPDEST PUSH1 0x80 PUSH1 0x40 MLOAD DUP1 DUP4 SUB DUP2 DUP7 GAS STATICCALL ISZERO DUP1 ISZERO PUSH2 0x11A3 JUMPI RETURNDATASIZE PUSH0 DUP1 RETURNDATACOPY RETURNDATASIZE PUSH0 REVERT JUMPDEST POP POP POP POP PUSH1 0x40 MLOAD RETURNDATASIZE PUSH1 0x1F NOT PUSH1 0x1F DUP3 ADD AND DUP3 ADD DUP1 PUSH1 0x40 MSTORE POP DUP2 ADD SWAP1 PUSH2 0x11C7 SWAP2 SWAP1 PUSH2 0x2472 JUMP JUMPDEST SWAP1 POP PUSH1 0x1 PUSH1 0x2 DUP2 GT ISZERO PUSH2 0x11DD JUMPI PUSH2 0x11DC PUSH2 0x249D JUMP JUMPDEST JUMPDEST DUP2 PUSH0 ADD MLOAD PUSH1 0x2 DUP2 GT ISZERO PUSH2 0x11F3 JUMPI PUSH2 0x11F2 PUSH2 0x249D JUMP JUMPDEST JUMPDEST EQ PUSH2 0x1233 JUMPI PUSH1 0x40 MLOAD PUSH32 0x8C379A000000000000000000000000000000000000000000000000000000000 DUP2 MSTORE PUSH1 0x4 ADD PUSH2 0x122A SWAP1 PUSH2 0x257C JUMP JUMPDEST PUSH1 0x40 MLOAD DUP1 SWAP2 SUB SWAP1 REVERT JUMPDEST PUSH0 PUSH1 0x1 PUSH0 SWAP1 SLOAD SWAP1 PUSH2 0x100 EXP SWAP1 DIV PUSH20 0xFFFFFFFFFFFFFFFFFFFFFFFFFFFFFFFFFFFFFFFF AND PUSH20 0xFFFFFFFFFFFFFFFFFFFFFFFFFFFFFFFFFFFFFFFF AND PUSH4 0x5AFD5EFE DUP10 PUSH1 0x40 MLOAD DUP3 PUSH4 0xFFFFFFFF AND PUSH1 0xE0 SHL DUP2 MSTORE PUSH1 0x4 ADD PUSH2 0x128E SWAP2 SWAP1 PUSH2 0x2316 JUMP JUMPDEST PUSH1 0x80 PUSH1 0x40 MLOAD DUP1 DUP4 SUB DUP2 DUP7 GAS STATICCALL ISZERO DUP1 ISZERO PUSH2 0x12A9 JUMPI RETURNDATASIZE PUSH0 DUP1 RETURNDATACOPY RETURNDATASIZE PUSH0 REVERT JUMPDEST POP POP POP POP PUSH1 0x40 MLOAD RETURNDATASIZE PUSH1 0x1F NOT PUSH1 0x1F DUP3 ADD AND DUP3 ADD DUP1 PUSH1 0x40 MSTORE POP DUP2 ADD SWAP1 PUSH2 0x12CD SWAP2 SWAP1 PUSH2 0x2472 JUMP JUMPDEST SWAP1 POP PUSH1 0x2 DUP1 DUP2 GT ISZERO PUSH2 0x12E2 JUMPI PUSH2 0x12E1 PUSH2 0x249D JUMP JUMPDEST JUMPDEST DUP2 PUSH0 ADD MLOAD PUSH1 0x2 DUP2 GT ISZERO PUSH2 0x12F8 JUMPI PUSH2 0x12F7 PUSH2 0x249D JUMP JUMPDEST JUMPDEST EQ PUSH2 0x1338 JUMPI PUSH1 0x40 MLOAD PUSH32 0x8C379A000000000000000000000000000000000000000000000000000000000 DUP2 MSTORE PUSH1 0x4 ADD PUSH2 0x132F SWAP1 PUSH2 0x25E4 JUMP JUMPDEST PUSH1 0x40 MLOAD DUP1 SWAP2 SUB SWAP1 REVERT JUMPDEST DUP4 DUP2 PUSH1 0x40 ADD MLOAD LT ISZERO PUSH2 0x137F JUMPI PUSH1 0x40 MLOAD PUSH32 0x8C379A000000000000000000000000000000000000000000000000000000000 DUP2 MSTORE PUSH1 0x4 ADD PUSH2 0x1376 SWAP1 PUSH2 0x26B4 JUMP JUMPDEST PUSH1 0x40 MLOAD DUP1 SWAP2 SUB SWAP1 REVERT JUMPDEST DUP12 DUP3 PUSH1 0x20 ADD MLOAD EQ PUSH2 0x13C5 JUMPI PUSH1 0x40 MLOAD PUSH32 0x8C379A000000000000000000000000000000000000000000000000000000000 DUP2 MSTORE PUSH1 0x4 ADD PUSH2 0x13BC SWAP1 PUSH2 0x271C JUMP JUMPDEST PUSH1 0x40 MLOAD DUP1 SWAP2 SUB SWAP1 REVERT JUMPDEST PUSH0 DUP4 PUSH1 0x60 ADD MLOAD SWAP1 POP PUSH0 PUSH2 0x13F4 PUSH1 0x64 PUSH2 0x13E6 DUP5 DUP10 PUSH2 0x17ED SWAP1 SWAP2 SWAP1 PUSH4 0xFFFFFFFF AND JUMP JUMPDEST PUSH2 0x1802 SWAP1 SWAP2 SWAP1 PUSH4 0xFFFFFFFF AND JUMP JUMPDEST SWAP1 POP PUSH1 0x1 PUSH0 SWAP1 SLOAD SWAP1 PUSH2 0x100 EXP SWAP1 DIV PUSH20 0xFFFFFFFFFFFFFFFFFFFFFFFFFFFFFFFFFFFFFFFF AND PUSH20 0xFFFFFFFFFFFFFFFFFFFFFFFFFFFFFFFFFFFFFFFF AND PUSH4 0xAEFEDEBD DUP12 DUP9 PUSH1 0x40 MLOAD DUP4 PUSH4 0xFFFFFFFF AND PUSH1 0xE0 SHL DUP2 MSTORE PUSH1 0x4 ADD PUSH2 0x1452 SWAP3 SWAP2 SWAP1 PUSH2 0x2842 JUMP JUMPDEST PUSH0 PUSH1 0x40 MLOAD DUP1 DUP4 SUB DUP2 PUSH0 DUP8 DUP1 EXTCODESIZE ISZERO DUP1 ISZERO PUSH2 0x1469 JUMPI PUSH0 DUP1 REVERT JUMPDEST POP GAS CALL ISZERO DUP1 ISZERO PUSH2 0x147B JUMPI RETURNDATASIZE PUSH0 DUP1 RETURNDATACOPY RETURNDATASIZE PUSH0 REVERT JUMPDEST POP POP POP POP PUSH1 0x3 PUSH0 SWAP1 SLOAD SWAP1 PUSH2 0x100 EXP SWAP1 DIV PUSH20 0xFFFFFFFFFFFFFFFFFFFFFFFFFFFFFFFFFFFFFFFF AND PUSH20 0xFFFFFFFFFFFFFFFFFFFFFFFFFFFFFFFFFFFFFFFF AND PUSH4 0x95EA7B3 ADDRESS DUP4 PUSH1 0x40 MLOAD DUP4 PUSH4 0xFFFFFFFF AND PUSH1 0xE0 SHL DUP2 MSTORE PUSH1 0x4 ADD PUSH2 0x14DB SWAP3 SWAP2 SWAP1 PUSH2 0x228F JUMP JUMPDEST PUSH1 0x20 PUSH1 0x40 MLOAD DUP1 DUP4 SUB DUP2 PUSH0 DUP8 GAS CALL ISZERO DUP1 ISZERO PUSH2 0x14F7 JUMPI RETURNDATASIZE PUSH0 DUP1 RETURNDATACOPY RETURNDATASIZE PUSH0 REVERT JUMPDEST POP POP POP POP PUSH1 0x40 MLOAD RETURNDATASIZE PUSH1 0x1F NOT PUSH1 0x1F DUP3 ADD AND DUP3 ADD DUP1 PUSH1 0x40 MSTORE POP DUP2 ADD SWAP1 PUSH2 0x151B SWAP2 SWAP1 PUSH2 0x22EB JUMP JUMPDEST POP PUSH2 0x156A ADDRESS CALLER DUP4 PUSH1 0x3 PUSH0 SWAP1 SLOAD SWAP1 PUSH2 0x100 EXP SWAP1 DIV PUSH20 0xFFFFFFFFFFFFFFFFFFFFFFFFFFFFFFFFFFFFFFFF AND PUSH20 0xFFFFFFFFFFFFFFFFFFFFFFFFFFFFFFFFFFFFFFFF AND PUSH2 0x16AA SWAP1 SWAP4 SWAP3 SWAP2 SWAP1 PUSH4 0xFFFFFFFF AND JUMP JUMPDEST POP POP POP POP POP POP POP POP POP POP POP POP POP POP JUMP JUMPDEST PUSH2 0x1582 PUSH2 0x1623 JUMP JUMPDEST PUSH0 PUSH20 0xFFFFFFFFFFFFFFFFFFFFFFFFFFFFFFFFFFFFFFFF AND DUP2 PUSH20 0xFFFFFFFFFFFFFFFFFFFFFFFFFFFFFFFFFFFFFFFF AND SUB PUSH2 0x15F2 JUMPI PUSH0 PUSH1 0x40 MLOAD PUSH32 0x1E4FBDF700000000000000000000000000000000000000000000000000000000 DUP2 MSTORE PUSH1 0x4 ADD PUSH2 0x15E9 SWAP2 SWAP1 PUSH2 0x1D60 JUMP JUMPDEST PUSH1 0x40 MLOAD DUP1 SWAP2 SUB SWAP1 REVERT JUMPDEST PUSH2 0x15FB DUP2 PUSH2 0x172C JUMP JUMPDEST POP JUMP JUMPDEST PUSH1 0x1 PUSH0 SWAP1 SLOAD SWAP1 PUSH2 0x100 EXP SWAP1 DIV PUSH20 0xFFFFFFFFFFFFFFFFFFFFFFFFFFFFFFFFFFFFFFFF AND DUP2 JUMP JUMPDEST PUSH2 0x162B PUSH2 0x18A1 JUMP JUMPDEST PUSH20 0xFFFFFFFFFFFFFFFFFFFFFFFFFFFFFFFFFFFFFFFF AND PUSH2 0x1649 PUSH2 0x4D2 JUMP JUMPDEST PUSH20 0xFFFFFFFFFFFFFFFFFFFFFFFFFFFFFFFFFFFFFFFF AND EQ PUSH2 0x16A8 JUMPI PUSH2 0x166C PUSH2 0x18A1 JUMP JUMPDEST PUSH1 0x40 MLOAD PUSH32 0x118CDAA700000000000000000000000000000000000000000000000000000000 DUP2 MSTORE PUSH1 0x4 ADD PUSH2 0x169F SWAP2 SWAP1 PUSH2 0x1D60 JUMP JUMPDEST PUSH1 0x40 MLOAD DUP1 SWAP2 SUB SWAP1 REVERT JUMPDEST JUMP JUMPDEST PUSH2 0x1726 DUP5 DUP6 PUSH20 0xFFFFFFFFFFFFFFFFFFFFFFFFFFFFFFFFFFFFFFFF AND PUSH4 0x23B872DD DUP7 DUP7 DUP7 PUSH1 0x40 MLOAD PUSH1 0x24 ADD PUSH2 0x16DF SWAP4 SWAP3 SWAP2 SWAP1 PUSH2 0x2869 JUMP JUMPDEST PUSH1 0x40 MLOAD PUSH1 0x20 DUP2 DUP4 SUB SUB DUP2 MSTORE SWAP1 PUSH1 0x40 MSTORE SWAP2 POP PUSH1 0xE0 SHL PUSH1 0x20 DUP3 ADD DUP1 MLOAD PUSH28 0xFFFFFFFFFFFFFFFFFFFFFFFFFFFFFFFFFFFFFFFFFFFFFFFFFFFFFFFF DUP4 DUP2 DUP4 AND OR DUP4 MSTORE POP POP POP POP PUSH2 0x18A8 JUMP JUMPDEST POP POP POP POP JUMP JUMPDEST PUSH0 DUP1 PUSH0 SWAP1 SLOAD SWAP1 PUSH2 0x100 EXP SWAP1 DIV PUSH20 0xFFFFFFFFFFFFFFFFFFFFFFFFFFFFFFFFFFFFFFFF AND SWAP1 POP DUP2 PUSH0 DUP1 PUSH2 0x100 EXP DUP2 SLOAD DUP2 PUSH20 0xFFFFFFFFFFFFFFFFFFFFFFFFFFFFFFFFFFFFFFFF MUL NOT AND SWAP1 DUP4 PUSH20 0xFFFFFFFFFFFFFFFFFFFFFFFFFFFFFFFFFFFFFFFF AND MUL OR SWAP1 SSTORE POP DUP2 PUSH20 0xFFFFFFFFFFFFFFFFFFFFFFFFFFFFFFFFFFFFFFFF AND DUP2 PUSH20 0xFFFFFFFFFFFFFFFFFFFFFFFFFFFFFFFFFFFFFFFF AND PUSH32 0x8BE0079C531659141344CD1FD0A4F28419497F9722A3DAAFE3B4186F6B6457E0 PUSH1 0x40 MLOAD PUSH1 0x40 MLOAD DUP1 SWAP2 SUB SWAP1 LOG3 POP POP JUMP JUMPDEST PUSH0 DUP2 DUP4 PUSH2 0x17FA SWAP2 SWAP1 PUSH2 0x28CB JUMP JUMPDEST SWAP1 POP SWAP3 SWAP2 POP POP JUMP JUMPDEST PUSH0 DUP2 DUP4 PUSH2 0x180F SWAP2 SWAP1 PUSH2 0x2939 JUMP JUMPDEST SWAP1 POP SWAP3 SWAP2 POP POP JUMP JUMPDEST PUSH0 DUP1 PUSH2 0x1829 DUP12 DUP12 DUP12 DUP12 DUP12 DUP12 DUP12 DUP12 PUSH2 0x4F9 JUMP JUMPDEST SWAP1 POP PUSH0 PUSH2 0x1835 DUP3 PUSH2 0x193D JUMP JUMPDEST SWAP1 POP PUSH1 0x2 PUSH0 SWAP1 SLOAD SWAP1 PUSH2 0x100 EXP SWAP1 DIV PUSH20 0xFFFFFFFFFFFFFFFFFFFFFFFFFFFFFFFFFFFFFFFF AND PUSH20 0xFFFFFFFFFFFFFFFFFFFFFFFFFFFFFFFFFFFFFFFF AND PUSH2 0x1879 DUP3 DUP7 PUSH2 0x196C JUMP JUMPDEST PUSH20 0xFFFFFFFFFFFFFFFFFFFFFFFFFFFFFFFFFFFFFFFF AND EQ SWAP3 POP POP POP SWAP10 SWAP9 POP POP POP POP POP POP POP POP POP JUMP JUMPDEST PUSH0 CALLER SWAP1 POP SWAP1 JUMP JUMPDEST PUSH0 PUSH2 0x18D2 DUP3 DUP5 PUSH20 0xFFFFFFFFFFFFFFFFFFFFFFFFFFFFFFFFFFFFFFFF AND PUSH2 0x19D6 SWAP1 SWAP2 SWAP1 PUSH4 0xFFFFFFFF AND JUMP JUMPDEST SWAP1 POP PUSH0 DUP2 MLOAD EQ ISZERO DUP1 ISZERO PUSH2 0x18F6 JUMPI POP DUP1 DUP1 PUSH1 0x20 ADD SWAP1 MLOAD DUP2 ADD SWAP1 PUSH2 0x18F4 SWAP2 SWAP1 PUSH2 0x22EB JUMP JUMPDEST ISZERO JUMPDEST ISZERO PUSH2 0x1938 JUMPI DUP3 PUSH1 0x40 MLOAD PUSH32 0x5274AFE700000000000000000000000000000000000000000000000000000000 DUP2 MSTORE PUSH1 0x4 ADD PUSH2 0x192F SWAP2 SWAP1 PUSH2 0x1D60 JUMP JUMPDEST PUSH1 0x40 MLOAD DUP1 SWAP2 SUB SWAP1 REVERT JUMPDEST POP POP POP JUMP JUMPDEST PUSH0 DUP2 PUSH1 0x40 MLOAD PUSH1 0x20 ADD PUSH2 0x194F SWAP2 SWAP1 PUSH2 0x29DD JUMP JUMPDEST PUSH1 0x40 MLOAD PUSH1 0x20 DUP2 DUP4 SUB SUB DUP2 MSTORE SWAP1 PUSH1 0x40 MSTORE DUP1 MLOAD SWAP1 PUSH1 0x20 ADD KECCAK256 SWAP1 POP SWAP2 SWAP1 POP JUMP JUMPDEST PUSH0 DUP1 PUSH0 DUP1 PUSH2 0x1979 DUP6 PUSH2 0x19EB JUMP JUMPDEST SWAP3 POP SWAP3 POP SWAP3 POP PUSH1 0x1 DUP7 DUP3 DUP6 DUP6 PUSH1 0x40 MLOAD PUSH0 DUP2 MSTORE PUSH1 0x20 ADD PUSH1 0x40 MSTORE PUSH1 0x40 MLOAD PUSH2 0x19A1 SWAP5 SWAP4 SWAP3 SWAP2 SWAP1 PUSH2 0x2A1D JUMP JUMPDEST PUSH1 0x20 PUSH1 0x40 MLOAD PUSH1 0x20 DUP2 SUB SWAP1 DUP1 DUP5 SUB SWAP1 DUP6 GAS STATICCALL ISZERO DUP1 ISZERO PUSH2 0x19C1 JUMPI RETURNDATASIZE PUSH0 DUP1 RETURNDATACOPY RETURNDATASIZE PUSH0 REVERT JUMPDEST POP POP POP PUSH1 0x20 PUSH1 0x40 MLOAD SUB MLOAD SWAP4 POP POP POP POP SWAP3 SWAP2 POP POP JUMP JUMPDEST PUSH1 0x60 PUSH2 0x19E3 DUP4 DUP4 PUSH0 PUSH2 0x1A50 JUMP JUMPDEST SWAP1 POP SWAP3 SWAP2 POP POP JUMP JUMPDEST PUSH0 DUP1 PUSH0 PUSH1 0x41 DUP5 MLOAD EQ PUSH2 0x1A32 JUMPI PUSH1 0x40 MLOAD PUSH32 0x8C379A000000000000000000000000000000000000000000000000000000000 DUP2 MSTORE PUSH1 0x4 ADD PUSH2 0x1A29 SWAP1 PUSH2 0x2AAA JUMP JUMPDEST PUSH1 0x40 MLOAD DUP1 SWAP2 SUB SWAP1 REVERT JUMPDEST PUSH1 0x20 DUP5 ADD MLOAD SWAP3 POP PUSH1 0x40 DUP5 ADD MLOAD SWAP2 POP PUSH1 0x60 DUP5 ADD MLOAD PUSH0 BYTE SWAP1 POP SWAP2 SWAP4 SWAP1 SWAP3 POP JUMP JUMPDEST PUSH1 0x60 DUP2 SELFBALANCE LT ISZERO PUSH2 0x1A97 JUMPI ADDRESS PUSH1 0x40 MLOAD PUSH32 0xCD78605900000000000000000000000000000000000000000000000000000000 DUP2 MSTORE PUSH1 0x4 ADD PUSH2 0x1A8E SWAP2 SWAP1 PUSH2 0x1D60 JUMP JUMPDEST PUSH1 0x40 MLOAD DUP1 SWAP2 SUB SWAP1 REVERT JUMPDEST PUSH0 DUP1 DUP6 PUSH20 0xFFFFFFFFFFFFFFFFFFFFFFFFFFFFFFFFFFFFFFFF AND DUP5 DUP7 PUSH1 0x40 MLOAD PUSH2 0x1ABF SWAP2 SWAP1 PUSH2 0x2B34 JUMP JUMPDEST PUSH0 PUSH1 0x40 MLOAD DUP1 DUP4 SUB DUP2 DUP6 DUP8 GAS CALL SWAP3 POP POP POP RETURNDATASIZE DUP1 PUSH0 DUP2 EQ PUSH2 0x1AF9 JUMPI PUSH1 0x40 MLOAD SWAP2 POP PUSH1 0x1F NOT PUSH1 0x3F RETURNDATASIZE ADD AND DUP3 ADD PUSH1 0x40 MSTORE RETURNDATASIZE DUP3 MSTORE RETURNDATASIZE PUSH0 PUSH1 0x20 DUP5 ADD RETURNDATACOPY PUSH2 0x1AFE JUMP JUMPDEST PUSH1 0x60 SWAP2 POP JUMPDEST POP SWAP2 POP SWAP2 POP PUSH2 0x1B0E DUP7 DUP4 DUP4 PUSH2 0x1B19 JUMP JUMPDEST SWAP3 POP POP POP SWAP4 SWAP3 POP POP POP JUMP JUMPDEST PUSH1 0x60 DUP3 PUSH2 0x1B2E JUMPI PUSH2 0x1B29 DUP3 PUSH2 0x1BA6 JUMP JUMPDEST PUSH2 0x1B9E JUMP JUMPDEST PUSH0 DUP3 MLOAD EQ DUP1 ISZERO PUSH2 0x1B54 JUMPI POP PUSH0 DUP5 PUSH20 0xFFFFFFFFFFFFFFFFFFFFFFFFFFFFFFFFFFFFFFFF AND EXTCODESIZE EQ JUMPDEST ISZERO PUSH2 0x1B96 JUMPI DUP4 PUSH1 0x40 MLOAD PUSH32 0x9996B31500000000000000000000000000000000000000000000000000000000 DUP2 MSTORE PUSH1 0x4 ADD PUSH2 0x1B8D SWAP2 SWAP1 PUSH2 0x1D60 JUMP JUMPDEST PUSH1 0x40 MLOAD DUP1 SWAP2 SUB SWAP1 REVERT JUMPDEST DUP2 SWAP1 POP PUSH2 0x1B9F JUMP JUMPDEST JUMPDEST SWAP4 SWAP3 POP POP POP JUMP JUMPDEST PUSH0 DUP2 MLOAD GT ISZERO PUSH2 0x1BB8 JUMPI DUP1 MLOAD DUP1 DUP3 PUSH1 0x20 ADD REVERT JUMPDEST PUSH1 0x40 MLOAD PUSH32 0x1425EA4200000000000000000000000000000000000000000000000000000000 DUP2 MSTORE PUSH1 0x4 ADD PUSH1 0x40 MLOAD DUP1 SWAP2 SUB SWAP1 REVERT JUMPDEST PUSH0 PUSH1 0x40 MLOAD SWAP1 POP SWAP1 JUMP JUMPDEST PUSH0 DUP1 REVERT JUMPDEST PUSH0 DUP1 REVERT JUMPDEST PUSH0 PUSH20 0xFFFFFFFFFFFFFFFFFFFFFFFFFFFFFFFFFFFFFFFF DUP3 AND SWAP1 POP SWAP2 SWAP1 POP JUMP JUMPDEST PUSH0 PUSH2 0x1C24 DUP3 PUSH2 0x1BFB JUMP JUMPDEST SWAP1 POP SWAP2 SWAP1 POP JUMP JUMPDEST PUSH2 0x1C34 DUP2 PUSH2 0x1C1A JUMP JUMPDEST DUP2 EQ PUSH2 0x1C3E JUMPI PUSH0 DUP1 REVERT JUMPDEST POP JUMP JUMPDEST PUSH0 DUP2 CALLDATALOAD SWAP1 POP PUSH2 0x1C4F DUP2 PUSH2 0x1C2B JUMP JUMPDEST SWAP3 SWAP2 POP POP JUMP JUMPDEST PUSH0 DUP2 SWAP1 POP SWAP2 SWAP1 POP JUMP JUMPDEST PUSH2 0x1C67 DUP2 PUSH2 0x1C55 JUMP JUMPDEST DUP2 EQ PUSH2 0x1C71 JUMPI PUSH0 DUP1 REVERT JUMPDEST POP JUMP JUMPDEST PUSH0 DUP2 CALLDATALOAD SWAP1 POP PUSH2 0x1C82 DUP2 PUSH2 0x1C5E JUMP JUMPDEST SWAP3 SWAP2 POP POP JUMP JUMPDEST PUSH0 DUP1 PUSH0 PUSH1 0x60 DUP5 DUP7 SUB SLT ISZERO PUSH2 0x1C9F JUMPI PUSH2 0x1C9E PUSH2 0x1BF3 JUMP JUMPDEST JUMPDEST PUSH0 PUSH2 0x1CAC DUP7 DUP3 DUP8 ADD PUSH2 0x1C41 JUMP JUMPDEST SWAP4 POP POP PUSH1 0x20 PUSH2 0x1CBD DUP7 DUP3 DUP8 ADD PUSH2 0x1C41 JUMP JUMPDEST SWAP3 POP POP PUSH1 0x40 PUSH2 0x1CCE DUP7 DUP3 DUP8 ADD PUSH2 0x1C74 JUMP JUMPDEST SWAP2 POP POP SWAP3 POP SWAP3 POP SWAP3 JUMP JUMPDEST PUSH0 PUSH2 0x1CE2 DUP3 PUSH2 0x1BFB JUMP JUMPDEST SWAP1 POP SWAP2 SWAP1 POP JUMP JUMPDEST PUSH2 0x1CF2 DUP2 PUSH2 0x1CD8 JUMP JUMPDEST DUP2 EQ PUSH2 0x1CFC JUMPI PUSH0 DUP1 REVERT JUMPDEST POP JUMP JUMPDEST PUSH0 DUP2 CALLDATALOAD SWAP1 POP PUSH2 0x1D0D DUP2 PUSH2 0x1CE9 JUMP JUMPDEST SWAP3 SWAP2 POP POP JUMP JUMPDEST PUSH0 DUP1 PUSH1 0x40 DUP4 DUP6 SUB SLT ISZERO PUSH2 0x1D29 JUMPI PUSH2 0x1D28 PUSH2 0x1BF3 JUMP JUMPDEST JUMPDEST PUSH0 PUSH2 0x1D36 DUP6 DUP3 DUP7 ADD PUSH2 0x1CFF JUMP JUMPDEST SWAP3 POP POP PUSH1 0x20 PUSH2 0x1D47 DUP6 DUP3 DUP7 ADD PUSH2 0x1C74 JUMP JUMPDEST SWAP2 POP POP SWAP3 POP SWAP3 SWAP1 POP JUMP JUMPDEST PUSH2 0x1D5A DUP2 PUSH2 0x1C1A JUMP JUMPDEST DUP3 MSTORE POP POP JUMP JUMPDEST PUSH0 PUSH1 0x20 DUP3 ADD SWAP1 POP PUSH2 0x1D73 PUSH0 DUP4 ADD DUP5 PUSH2 0x1D51 JUMP JUMPDEST SWAP3 SWAP2 POP POP JUMP JUMPDEST PUSH0 PUSH2 0x1D83 DUP3 PUSH2 0x1C1A JUMP JUMPDEST SWAP1 POP SWAP2 SWAP1 POP JUMP JUMPDEST PUSH2 0x1D93 DUP2 PUSH2 0x1D79 JUMP JUMPDEST DUP2 EQ PUSH2 0x1D9D JUMPI PUSH0 DUP1 REVERT JUMPDEST POP JUMP JUMPDEST PUSH0 DUP2 CALLDATALOAD SWAP1 POP PUSH2 0x1DAE DUP2 PUSH2 0x1D8A JUMP JUMPDEST SWAP3 SWAP2 POP POP JUMP JUMPDEST PUSH0 PUSH2 0x1DBE DUP3 PUSH2 0x1C1A JUMP JUMPDEST SWAP1 POP SWAP2 SWAP1 POP JUMP JUMPDEST PUSH2 0x1DCE DUP2 PUSH2 0x1DB4 JUMP JUMPDEST DUP2 EQ PUSH2 0x1DD8 JUMPI PUSH0 DUP1 REVERT JUMPDEST POP JUMP JUMPDEST PUSH0 DUP2 CALLDATALOAD SWAP1 POP PUSH2 0x1DE9 DUP2 PUSH2 0x1DC5 JUMP JUMPDEST SWAP3 SWAP2 POP POP JUMP JUMPDEST PUSH0 DUP1 PUSH0 PUSH1 0x60 DUP5 DUP7 SUB SLT ISZERO PUSH2 0x1E06 JUMPI PUSH2 0x1E05 PUSH2 0x1BF3 JUMP JUMPDEST JUMPDEST PUSH0 PUSH2 0x1E13 DUP7 DUP3 DUP8 ADD PUSH2 0x1DA0 JUMP JUMPDEST SWAP4 POP POP PUSH1 0x20 PUSH2 0x1E24 DUP7 DUP3 DUP8 ADD PUSH2 0x1DDB JUMP JUMPDEST SWAP3 POP POP PUSH1 0x40 PUSH2 0x1E35 DUP7 DUP3 DUP8 ADD PUSH2 0x1C41 JUMP JUMPDEST SWAP2 POP POP SWAP3 POP SWAP3 POP SWAP3 JUMP JUMPDEST PUSH0 DUP1 PUSH0 DUP1 PUSH0 DUP1 PUSH0 DUP1 PUSH2 0x100 DUP10 DUP12 SUB SLT ISZERO PUSH2 0x1E5C JUMPI PUSH2 0x1E5B PUSH2 0x1BF3 JUMP JUMPDEST JUMPDEST PUSH0 PUSH2 0x1E69 DUP12 DUP3 DUP13 ADD PUSH2 0x1C41 JUMP JUMPDEST SWAP9 POP POP PUSH1 0x20 PUSH2 0x1E7A DUP12 DUP3 DUP13 ADD PUSH2 0x1C74 JUMP JUMPDEST SWAP8 POP POP PUSH1 0x40 PUSH2 0x1E8B DUP12 DUP3 DUP13 ADD PUSH2 0x1C74 JUMP JUMPDEST SWAP7 POP POP PUSH1 0x60 PUSH2 0x1E9C DUP12 DUP3 DUP13 ADD PUSH2 0x1C74 JUMP JUMPDEST SWAP6 POP POP PUSH1 0x80 PUSH2 0x1EAD DUP12 DUP3 DUP13 ADD PUSH2 0x1C74 JUMP JUMPDEST SWAP5 POP POP PUSH1 0xA0 PUSH2 0x1EBE DUP12 DUP3 DUP13 ADD PUSH2 0x1C74 JUMP JUMPDEST SWAP4 POP POP PUSH1 0xC0 PUSH2 0x1ECF DUP12 DUP3 DUP13 ADD PUSH2 0x1C74 JUMP JUMPDEST SWAP3 POP POP PUSH1 0xE0 PUSH2 0x1EE0 DUP12 DUP3 DUP13 ADD PUSH2 0x1C74 JUMP JUMPDEST SWAP2 POP POP SWAP3 SWAP6 SWAP9 POP SWAP3 SWAP6 SWAP9 SWAP1 SWAP4 SWAP7 POP JUMP JUMPDEST PUSH0 DUP2 SWAP1 POP SWAP2 SWAP1 POP JUMP JUMPDEST PUSH2 0x1F02 DUP2 PUSH2 0x1EF0 JUMP JUMPDEST DUP3 MSTORE POP POP JUMP JUMPDEST PUSH0 PUSH1 0x20 DUP3 ADD SWAP1 POP PUSH2 0x1F1B PUSH0 DUP4 ADD DUP5 PUSH2 0x1EF9 JUMP JUMPDEST SWAP3 SWAP2 POP POP JUMP JUMPDEST PUSH0 DUP1 REVERT JUMPDEST PUSH0 DUP1 REVERT JUMPDEST PUSH0 PUSH1 0x1F NOT PUSH1 0x1F DUP4 ADD AND SWAP1 POP SWAP2 SWAP1 POP JUMP JUMPDEST PUSH32 0x4E487B7100000000000000000000000000000000000000000000000000000000 PUSH0 MSTORE PUSH1 0x41 PUSH1 0x4 MSTORE PUSH1 0x24 PUSH0 REVERT JUMPDEST PUSH2 0x1F6F DUP3 PUSH2 0x1F29 JUMP JUMPDEST DUP2 ADD DUP2 DUP2 LT PUSH8 0xFFFFFFFFFFFFFFFF DUP3 GT OR ISZERO PUSH2 0x1F8E JUMPI PUSH2 0x1F8D PUSH2 0x1F39 JUMP JUMPDEST JUMPDEST DUP1 PUSH1 0x40 MSTORE POP POP POP JUMP JUMPDEST PUSH0 PUSH2 0x1FA0 PUSH2 0x1BEA JUMP JUMPDEST SWAP1 POP PUSH2 0x1FAC DUP3 DUP3 PUSH2 0x1F66 JUMP JUMPDEST SWAP2 SWAP1 POP JUMP JUMPDEST PUSH0 PUSH8 0xFFFFFFFFFFFFFFFF DUP3 GT ISZERO PUSH2 0x1FCB JUMPI PUSH2 0x1FCA PUSH2 0x1F39 JUMP JUMPDEST JUMPDEST PUSH2 0x1FD4 DUP3 PUSH2 0x1F29 JUMP JUMPDEST SWAP1 POP PUSH1 0x20 DUP2 ADD SWAP1 POP SWAP2 SWAP1 POP JUMP JUMPDEST DUP3 DUP2 DUP4 CALLDATACOPY PUSH0 DUP4 DUP4 ADD MSTORE POP POP POP JUMP JUMPDEST PUSH0 PUSH2 0x2001 PUSH2 0x1FFC DUP5 PUSH2 0x1FB1 JUMP JUMPDEST PUSH2 0x1F97 JUMP JUMPDEST SWAP1 POP DUP3 DUP2 MSTORE PUSH1 0x20 DUP2 ADD DUP5 DUP5 DUP5 ADD GT ISZERO PUSH2 0x201D JUMPI PUSH2 0x201C PUSH2 0x1F25 JUMP JUMPDEST JUMPDEST PUSH2 0x2028 DUP5 DUP3 DUP6 PUSH2 0x1FE1 JUMP JUMPDEST POP SWAP4 SWAP3 POP POP POP JUMP JUMPDEST PUSH0 DUP3 PUSH1 0x1F DUP4 ADD SLT PUSH2 0x2044 JUMPI PUSH2 0x2043 PUSH2 0x1F21 JUMP JUMPDEST JUMPDEST DUP2 CALLDATALOAD PUSH2 0x2054 DUP5 DUP3 PUSH1 0x20 DUP7 ADD PUSH2 0x1FEF JUMP JUMPDEST SWAP2 POP POP SWAP3 SWAP2 POP POP JUMP JUMPDEST PUSH0 DUP1 PUSH0 DUP1 PUSH0 DUP1 PUSH0 DUP1 PUSH2 0x100 DUP10 DUP12 SUB SLT ISZERO PUSH2 0x207A JUMPI PUSH2 0x2079 PUSH2 0x1BF3 JUMP JUMPDEST JUMPDEST PUSH0 PUSH2 0x2087 DUP12 DUP3 DUP13 ADD PUSH2 0x1C74 JUMP JUMPDEST SWAP9 POP POP PUSH1 0x20 PUSH2 0x2098 DUP12 DUP3 DUP13 ADD PUSH2 0x1C74 JUMP JUMPDEST SWAP8 POP POP PUSH1 0x40 PUSH2 0x20A9 DUP12 DUP3 DUP13 ADD PUSH2 0x1C74 JUMP JUMPDEST SWAP7 POP POP PUSH1 0x60 PUSH2 0x20BA DUP12 DUP3 DUP13 ADD PUSH2 0x1C74 JUMP JUMPDEST SWAP6 POP POP PUSH1 0x80 PUSH2 0x20CB DUP12 DUP3 DUP13 ADD PUSH2 0x1C74 JUMP JUMPDEST SWAP5 POP POP PUSH1 0xA0 PUSH2 0x20DC DUP12 DUP3 DUP13 ADD PUSH2 0x1C74 JUMP JUMPDEST SWAP4 POP POP PUSH1 0xC0 PUSH2 0x20ED DUP12 DUP3 DUP13 ADD PUSH2 0x1C74 JUMP JUMPDEST SWAP3 POP POP PUSH1 0xE0 DUP10 ADD CALLDATALOAD PUSH8 0xFFFFFFFFFFFFFFFF DUP2 GT ISZERO PUSH2 0x210E JUMPI PUSH2 0x210D PUSH2 0x1BF7 JUMP JUMPDEST JUMPDEST PUSH2 0x211A DUP12 DUP3 DUP13 ADD PUSH2 0x2030 JUMP JUMPDEST SWAP2 POP POP SWAP3 SWAP6 SWAP9 POP SWAP3 SWAP6 SWAP9 SWAP1 SWAP4 SWAP7 POP JUMP JUMPDEST PUSH0 PUSH1 0x20 DUP3 DUP5 SUB SLT ISZERO PUSH2 0x213F JUMPI PUSH2 0x213E PUSH2 0x1BF3 JUMP JUMPDEST JUMPDEST PUSH0 PUSH2 0x214C DUP5 DUP3 DUP6 ADD PUSH2 0x1C41 JUMP JUMPDEST SWAP2 POP POP SWAP3 SWAP2 POP POP JUMP JUMPDEST PUSH0 DUP2 SWAP1 POP SWAP2 SWAP1 POP JUMP JUMPDEST PUSH0 PUSH2 0x2178 PUSH2 0x2173 PUSH2 0x216E DUP5 PUSH2 0x1BFB JUMP JUMPDEST PUSH2 0x2155 JUMP JUMPDEST PUSH2 0x1BFB JUMP JUMPDEST SWAP1 POP SWAP2 SWAP1 POP JUMP JUMPDEST PUSH0 PUSH2 0x2189 DUP3 PUSH2 0x215E JUMP JUMPDEST SWAP1 POP SWAP2 SWAP1 POP JUMP JUMPDEST PUSH0 PUSH2 0x219A DUP3 PUSH2 0x217F JUMP JUMPDEST SWAP1 POP SWAP2 SWAP1 POP JUMP JUMPDEST PUSH2 0x21AA DUP2 PUSH2 0x2190 JUMP JUMPDEST DUP3 MSTORE POP POP JUMP JUMPDEST PUSH0 PUSH1 0x20 DUP3 ADD SWAP1 POP PUSH2 0x21C3 PUSH0 DUP4 ADD DUP5 PUSH2 0x21A1 JUMP JUMPDEST SWAP3 SWAP2 POP POP JUMP JUMPDEST PUSH0 DUP2 MLOAD SWAP1 POP PUSH2 0x21D7 DUP2 PUSH2 0x1C5E JUMP JUMPDEST SWAP3 SWAP2 POP POP JUMP JUMPDEST PUSH0 PUSH1 0x20 DUP3 DUP5 SUB SLT ISZERO PUSH2 0x21F2 JUMPI PUSH2 0x21F1 PUSH2 0x1BF3 JUMP JUMPDEST JUMPDEST PUSH0 PUSH2 0x21FF DUP5 DUP3 DUP6 ADD PUSH2 0x21C9 JUMP JUMPDEST SWAP2 POP POP SWAP3 SWAP2 POP POP JUMP JUMPDEST PUSH0 DUP3 DUP3 MSTORE PUSH1 0x20 DUP3 ADD SWAP1 POP SWAP3 SWAP2 POP POP JUMP JUMPDEST PUSH32 0x496E73756666696369656E742062616C616E6365000000000000000000000000 PUSH0 DUP3 ADD MSTORE POP JUMP JUMPDEST PUSH0 PUSH2 0x224C PUSH1 0x14 DUP4 PUSH2 0x2208 JUMP JUMPDEST SWAP2 POP PUSH2 0x2257 DUP3 PUSH2 0x2218 JUMP JUMPDEST PUSH1 0x20 DUP3 ADD SWAP1 POP SWAP2 SWAP1 POP JUMP JUMPDEST PUSH0 PUSH1 0x20 DUP3 ADD SWAP1 POP DUP2 DUP2 SUB PUSH0 DUP4 ADD MSTORE PUSH2 0x2279 DUP2 PUSH2 0x2240 JUMP JUMPDEST SWAP1 POP SWAP2 SWAP1 POP JUMP JUMPDEST PUSH2 0x2289 DUP2 PUSH2 0x1C55 JUMP JUMPDEST DUP3 MSTORE POP POP JUMP JUMPDEST PUSH0 PUSH1 0x40 DUP3 ADD SWAP1 POP PUSH2 0x22A2 PUSH0 DUP4 ADD DUP6 PUSH2 0x1D51 JUMP JUMPDEST PUSH2 0x22AF PUSH1 0x20 DUP4 ADD DUP5 PUSH2 0x2280 JUMP JUMPDEST SWAP4 SWAP3 POP POP POP JUMP JUMPDEST PUSH0 DUP2 ISZERO ISZERO SWAP1 POP SWAP2 SWAP1 POP JUMP JUMPDEST PUSH2 0x22CA DUP2 PUSH2 0x22B6 JUMP JUMPDEST DUP2 EQ PUSH2 0x22D4 JUMPI PUSH0 DUP1 REVERT JUMPDEST POP JUMP JUMPDEST PUSH0 DUP2 MLOAD SWAP1 POP PUSH2 0x22E5 DUP2 PUSH2 0x22C1 JUMP JUMPDEST SWAP3 SWAP2 POP POP JUMP JUMPDEST PUSH0 PUSH1 0x20 DUP3 DUP5 SUB SLT ISZERO PUSH2 0x2300 JUMPI PUSH2 0x22FF PUSH2 0x1BF3 JUMP JUMPDEST JUMPDEST PUSH0 PUSH2 0x230D DUP5 DUP3 DUP6 ADD PUSH2 0x22D7 JUMP JUMPDEST SWAP2 POP POP SWAP3 SWAP2 POP POP JUMP JUMPDEST PUSH0 PUSH1 0x20 DUP3 ADD SWAP1 POP PUSH2 0x2329 PUSH0 DUP4 ADD DUP5 PUSH2 0x2280 JUMP JUMPDEST SWAP3 SWAP2 POP POP JUMP JUMPDEST PUSH0 DUP2 MLOAD SWAP1 POP PUSH2 0x233D DUP2 PUSH2 0x1C2B JUMP JUMPDEST SWAP3 SWAP2 POP POP JUMP JUMPDEST PUSH0 PUSH1 0x20 DUP3 DUP5 SUB SLT ISZERO PUSH2 0x2358 JUMPI PUSH2 0x2357 PUSH2 0x1BF3 JUMP JUMPDEST JUMPDEST PUSH0 PUSH2 0x2365 DUP5 DUP3 DUP6 ADD PUSH2 0x232F JUMP JUMPDEST SWAP2 POP POP SWAP3 SWAP2 POP POP JUMP JUMPDEST PUSH32 0x4E46545F4F574E45525F4552524F520000000000000000000000000000000000 PUSH0 DUP3 ADD MSTORE POP JUMP JUMPDEST PUSH0 PUSH2 0x23A2 PUSH1 0xF DUP4 PUSH2 0x2208 JUMP JUMPDEST SWAP2 POP PUSH2 0x23AD DUP3 PUSH2 0x236E JUMP JUMPDEST PUSH1 0x20 DUP3 ADD SWAP1 POP SWAP2 SWAP1 POP JUMP JUMPDEST PUSH0 PUSH1 0x20 DUP3 ADD SWAP1 POP DUP2 DUP2 SUB PUSH0 DUP4 ADD MSTORE PUSH2 0x23CF DUP2 PUSH2 0x2396 JUMP JUMPDEST SWAP1 POP SWAP2 SWAP1 POP JUMP JUMPDEST PUSH0 DUP1 REVERT JUMPDEST PUSH1 0x3 DUP2 LT PUSH2 0x23E6 JUMPI PUSH0 DUP1 REVERT JUMPDEST POP JUMP JUMPDEST PUSH0 DUP2 MLOAD SWAP1 POP PUSH2 0x23F7 DUP2 PUSH2 0x23DA JUMP JUMPDEST SWAP3 SWAP2 POP POP JUMP JUMPDEST PUSH0 PUSH1 0x80 DUP3 DUP5 SUB SLT ISZERO PUSH2 0x2412 JUMPI PUSH2 0x2411 PUSH2 0x23D6 JUMP JUMPDEST JUMPDEST PUSH2 0x241C PUSH1 0x80 PUSH2 0x1F97 JUMP JUMPDEST SWAP1 POP PUSH0 PUSH2 0x242B DUP5 DUP3 DUP6 ADD PUSH2 0x23E9 JUMP JUMPDEST PUSH0 DUP4 ADD MSTORE POP PUSH1 0x20 PUSH2 0x243E DUP5 DUP3 DUP6 ADD PUSH2 0x21C9 JUMP JUMPDEST PUSH1 0x20 DUP4 ADD MSTORE POP PUSH1 0x40 PUSH2 0x2452 DUP5 DUP3 DUP6 ADD PUSH2 0x21C9 JUMP JUMPDEST PUSH1 0x40 DUP4 ADD MSTORE POP PUSH1 0x60 PUSH2 0x2466 DUP5 DUP3 DUP6 ADD PUSH2 0x21C9 JUMP JUMPDEST PUSH1 0x60 DUP4 ADD MSTORE POP SWAP3 SWAP2 POP POP JUMP JUMPDEST PUSH0 PUSH1 0x80 DUP3 DUP5 SUB SLT ISZERO PUSH2 0x2487 JUMPI PUSH2 0x2486 PUSH2 0x1BF3 JUMP JUMPDEST JUMPDEST PUSH0 PUSH2 0x2494 DUP5 DUP3 DUP6 ADD PUSH2 0x23FD JUMP JUMPDEST SWAP2 POP POP SWAP3 SWAP2 POP POP JUMP JUMPDEST PUSH32 0x4E487B7100000000000000000000000000000000000000000000000000000000 PUSH0 MSTORE PUSH1 0x21 PUSH1 0x4 MSTORE PUSH1 0x24 PUSH0 REVERT JUMPDEST PUSH32 0x54555242494E455F545950455F4552524F520000000000000000000000000000 PUSH0 DUP3 ADD MSTORE POP JUMP JUMPDEST PUSH0 PUSH2 0x24FE PUSH1 0x12 DUP4 PUSH2 0x2208 JUMP JUMPDEST SWAP2 POP PUSH2 0x2509 DUP3 PUSH2 0x24CA JUMP JUMPDEST PUSH1 0x20 DUP3 ADD SWAP1 POP SWAP2 SWAP1 POP JUMP JUMPDEST PUSH0 PUSH1 0x20 DUP3 ADD SWAP1 POP DUP2 DUP2 SUB PUSH0 DUP4 ADD MSTORE PUSH2 0x252B DUP2 PUSH2 0x24F2 JUMP JUMPDEST SWAP1 POP SWAP2 SWAP1 POP JUMP JUMPDEST PUSH32 0x4452495645545241494E5F545950455F4552524F520000000000000000000000 PUSH0 DUP3 ADD MSTORE POP JUMP JUMPDEST PUSH0 PUSH2 0x2566 PUSH1 0x15 DUP4 PUSH2 0x2208 JUMP JUMPDEST SWAP2 POP PUSH2 0x2571 DUP3 PUSH2 0x2532 JUMP JUMPDEST PUSH1 0x20 DUP3 ADD SWAP1 POP SWAP2 SWAP1 POP JUMP JUMPDEST PUSH0 PUSH1 0x20 DUP3 ADD SWAP1 POP DUP2 DUP2 SUB PUSH0 DUP4 ADD MSTORE PUSH2 0x2593 DUP2 PUSH2 0x255A JUMP JUMPDEST SWAP1 POP SWAP2 SWAP1 POP JUMP JUMPDEST PUSH32 0x434150414349544F525F545950455F4552524F52000000000000000000000000 PUSH0 DUP3 ADD MSTORE POP JUMP JUMPDEST PUSH0 PUSH2 0x25CE PUSH1 0x14 DUP4 PUSH2 0x2208 JUMP JUMPDEST SWAP2 POP PUSH2 0x25D9 DUP3 PUSH2 0x259A JUMP JUMPDEST PUSH1 0x20 DUP3 ADD SWAP1 POP SWAP2 SWAP1 POP JUMP JUMPDEST PUSH0 PUSH1 0x20 DUP3 ADD SWAP1 POP DUP2 DUP2 SUB PUSH0 DUP4 ADD MSTORE PUSH2 0x25FB DUP2 PUSH2 0x25C2 JUMP JUMPDEST SWAP1 POP SWAP2 SWAP1 POP JUMP JUMPDEST PUSH32 0x4D494E494D554D5F434F4E564552545F44505F4552524F520000000000000000 PUSH0 DUP3 ADD MSTORE POP JUMP JUMPDEST PUSH0 PUSH2 0x2636 PUSH1 0x18 DUP4 PUSH2 0x2208 JUMP JUMPDEST SWAP2 POP PUSH2 0x2641 DUP3 PUSH2 0x2602 JUMP JUMPDEST PUSH1 0x20 DUP3 ADD SWAP1 POP SWAP2 SWAP1 POP JUMP JUMPDEST PUSH0 PUSH1 0x20 DUP3 ADD SWAP1 POP DUP2 DUP2 SUB PUSH0 DUP4 ADD MSTORE PUSH2 0x2663 DUP2 PUSH2 0x262A JUMP JUMPDEST SWAP1 POP SWAP2 SWAP1 POP JUMP JUMPDEST PUSH32 0x4341505F4552524F520000000000000000000000000000000000000000000000 PUSH0 DUP3 ADD MSTORE POP JUMP JUMPDEST PUSH0 PUSH2 0x269E PUSH1 0x9 DUP4 PUSH2 0x2208 JUMP JUMPDEST SWAP2 POP PUSH2 0x26A9 DUP3 PUSH2 0x266A JUMP JUMPDEST PUSH1 0x20 DUP3 ADD SWAP1 POP SWAP2 SWAP1 POP JUMP JUMPDEST PUSH0 PUSH1 0x20 DUP3 ADD SWAP1 POP DUP2 DUP2 SUB PUSH0 DUP4 ADD MSTORE PUSH2 0x26CB DUP2 PUSH2 0x2692 JUMP JUMPDEST SWAP1 POP SWAP2 SWAP1 POP JUMP JUMPDEST PUSH32 0x4452495645545241494E5F4552524F5200000000000000000000000000000000 PUSH0 DUP3 ADD MSTORE POP JUMP JUMPDEST PUSH0 PUSH2 0x2706 PUSH1 0x10 DUP4 PUSH2 0x2208 JUMP JUMPDEST SWAP2 POP PUSH2 0x2711 DUP3 PUSH2 0x26D2 JUMP JUMPDEST PUSH1 0x20 DUP3 ADD SWAP1 POP SWAP2 SWAP1 POP JUMP JUMPDEST PUSH0 PUSH1 0x20 DUP3 ADD SWAP1 POP DUP2 DUP2 SUB PUSH0 DUP4 ADD MSTORE PUSH2 0x2733 DUP2 PUSH2 0x26FA JUMP JUMPDEST SWAP1 POP SWAP2 SWAP1 POP JUMP JUMPDEST PUSH0 DUP2 SWAP1 POP SWAP2 SWAP1 POP JUMP JUMPDEST PUSH2 0x2754 PUSH2 0x274F DUP3 PUSH2 0x1C55 JUMP JUMPDEST PUSH2 0x273A JUMP JUMPDEST DUP3 MSTORE POP POP JUMP JUMPDEST PUSH0 PUSH2 0x2765 DUP3 DUP11 PUSH2 0x2743 JUMP JUMPDEST PUSH1 0x20 DUP3 ADD SWAP2 POP PUSH2 0x2775 DUP3 DUP10 PUSH2 0x2743 JUMP JUMPDEST PUSH1 0x20 DUP3 ADD SWAP2 POP PUSH2 0x2785 DUP3 DUP9 PUSH2 0x2743 JUMP JUMPDEST PUSH1 0x20 DUP3 ADD SWAP2 POP PUSH2 0x2795 DUP3 DUP8 PUSH2 0x2743 JUMP JUMPDEST PUSH1 0x20 DUP3 ADD SWAP2 POP PUSH2 0x27A5 DUP3 DUP7 PUSH2 0x2743 JUMP JUMPDEST PUSH1 0x20 DUP3 ADD SWAP2 POP PUSH2 0x27B5 DUP3 DUP6 PUSH2 0x2743 JUMP JUMPDEST PUSH1 0x20 DUP3 ADD SWAP2 POP PUSH2 0x27C5 DUP3 DUP5 PUSH2 0x2743 JUMP JUMPDEST PUSH1 0x20 DUP3 ADD SWAP2 POP DUP2 SWAP1 POP SWAP9 SWAP8 POP POP POP POP POP POP POP POP JUMP JUMPDEST PUSH32 0x43563A20696E76616C6964205F7369676E617475726500000000000000000000 PUSH0 DUP3 ADD MSTORE POP JUMP JUMPDEST PUSH0 PUSH2 0x280E PUSH1 0x16 DUP4 PUSH2 0x2208 JUMP JUMPDEST SWAP2 POP PUSH2 0x2819 DUP3 PUSH2 0x27DA JUMP JUMPDEST PUSH1 0x20 DUP3 ADD SWAP1 POP SWAP2 SWAP1 POP JUMP JUMPDEST PUSH0 PUSH1 0x20 DUP3 ADD SWAP1 POP DUP2 DUP2 SUB PUSH0 DUP4 ADD MSTORE PUSH2 0x283B DUP2 PUSH2 0x2802 JUMP JUMPDEST SWAP1 POP SWAP2 SWAP1 POP JUMP JUMPDEST PUSH0 PUSH1 0x40 DUP3 ADD SWAP1 POP PUSH2 0x2855 PUSH0 DUP4 ADD DUP6 PUSH2 0x2280 JUMP JUMPDEST PUSH2 0x2862 PUSH1 0x20 DUP4 ADD DUP5 PUSH2 0x2280 JUMP JUMPDEST SWAP4 SWAP3 POP POP POP JUMP JUMPDEST PUSH0 PUSH1 0x60 DUP3 ADD SWAP1 POP PUSH2 0x287C PUSH0 DUP4 ADD DUP7 PUSH2 0x1D51 JUMP JUMPDEST PUSH2 0x2889 PUSH1 0x20 DUP4 ADD DUP6 PUSH2 0x1D51 JUMP JUMPDEST PUSH2 0x2896 PUSH1 0x40 DUP4 ADD DUP5 PUSH2 0x2280 JUMP JUMPDEST SWAP5 SWAP4 POP POP POP POP JUMP JUMPDEST PUSH32 0x4E487B7100000000000000000000000000000000000000000000000000000000 PUSH0 MSTORE PUSH1 0x11 PUSH1 0x4 MSTORE PUSH1 0x24 PUSH0 REVERT JUMPDEST PUSH0 PUSH2 0x28D5 DUP3 PUSH2 0x1C55 JUMP JUMPDEST SWAP2 POP PUSH2 0x28E0 DUP4 PUSH2 0x1C55 JUMP JUMPDEST SWAP3 POP DUP3 DUP3 MUL PUSH2 0x28EE DUP2 PUSH2 0x1C55 JUMP JUMPDEST SWAP2 POP DUP3 DUP3 DIV DUP5 EQ DUP4 ISZERO OR PUSH2 0x2905 JUMPI PUSH2 0x2904 PUSH2 0x289E JUMP JUMPDEST JUMPDEST POP SWAP3 SWAP2 POP POP JUMP JUMPDEST PUSH32 0x4E487B7100000000000000000000000000000000000000000000000000000000 PUSH0 MSTORE PUSH1 0x12 PUSH1 0x4 MSTORE PUSH1 0x24 PUSH0 REVERT JUMPDEST PUSH0 PUSH2 0x2943 DUP3 PUSH2 0x1C55 JUMP JUMPDEST SWAP2 POP PUSH2 0x294E DUP4 PUSH2 0x1C55 JUMP JUMPDEST SWAP3 POP DUP3 PUSH2 0x295E JUMPI PUSH2 0x295D PUSH2 0x290C JUMP JUMPDEST JUMPDEST DUP3 DUP3 DIV SWAP1 POP SWAP3 SWAP2 POP POP JUMP JUMPDEST PUSH0 DUP2 SWAP1 POP SWAP3 SWAP2 POP POP JUMP JUMPDEST PUSH32 0x19457468657265756D205369676E6564204D6573736167653A0A333200000000 PUSH0 DUP3 ADD MSTORE POP JUMP JUMPDEST PUSH0 PUSH2 0x29A7 PUSH1 0x1C DUP4 PUSH2 0x2969 JUMP JUMPDEST SWAP2 POP PUSH2 0x29B2 DUP3 PUSH2 0x2973 JUMP JUMPDEST PUSH1 0x1C DUP3 ADD SWAP1 POP SWAP2 SWAP1 POP JUMP JUMPDEST PUSH0 DUP2 SWAP1 POP SWAP2 SWAP1 POP JUMP JUMPDEST PUSH2 0x29D7 PUSH2 0x29D2 DUP3 PUSH2 0x1EF0 JUMP JUMPDEST PUSH2 0x29BD JUMP JUMPDEST DUP3 MSTORE POP POP JUMP JUMPDEST PUSH0 PUSH2 0x29E7 DUP3 PUSH2 0x299B JUMP JUMPDEST SWAP2 POP PUSH2 0x29F3 DUP3 DUP5 PUSH2 0x29C6 JUMP JUMPDEST PUSH1 0x20 DUP3 ADD SWAP2 POP DUP2 SWAP1 POP SWAP3 SWAP2 POP POP JUMP JUMPDEST PUSH0 PUSH1 0xFF DUP3 AND SWAP1 POP SWAP2 SWAP1 POP JUMP JUMPDEST PUSH2 0x2A17 DUP2 PUSH2 0x2A02 JUMP JUMPDEST DUP3 MSTORE POP POP JUMP JUMPDEST PUSH0 PUSH1 0x80 DUP3 ADD SWAP1 POP PUSH2 0x2A30 PUSH0 DUP4 ADD DUP8 PUSH2 0x1EF9 JUMP JUMPDEST PUSH2 0x2A3D PUSH1 0x20 DUP4 ADD DUP7 PUSH2 0x2A0E JUMP JUMPDEST PUSH2 0x2A4A PUSH1 0x40 DUP4 ADD DUP6 PUSH2 0x1EF9 JUMP JUMPDEST PUSH2 0x2A57 PUSH1 0x60 DUP4 ADD DUP5 PUSH2 0x1EF9 JUMP JUMPDEST SWAP6 SWAP5 POP POP POP POP POP JUMP JUMPDEST PUSH32 0x696E76616C6964207369676E6174757265206C656E6774680000000000000000 PUSH0 DUP3 ADD MSTORE POP JUMP JUMPDEST PUSH0 PUSH2 0x2A94 PUSH1 0x18 DUP4 PUSH2 0x2208 JUMP JUMPDEST SWAP2 POP PUSH2 0x2A9F DUP3 PUSH2 0x2A60 JUMP JUMPDEST PUSH1 0x20 DUP3 ADD SWAP1 POP SWAP2 SWAP1 POP JUMP JUMPDEST PUSH0 PUSH1 0x20 DUP3 ADD SWAP1 POP DUP2 DUP2 SUB PUSH0 DUP4 ADD MSTORE PUSH2 0x2AC1 DUP2 PUSH2 0x2A88 JUMP JUMPDEST SWAP1 POP SWAP2 SWAP1 POP JUMP JUMPDEST PUSH0 DUP2 MLOAD SWAP1 POP SWAP2 SWAP1 POP JUMP JUMPDEST PUSH0 DUP2 SWAP1 POP SWAP3 SWAP2 POP POP JUMP JUMPDEST PUSH0 JUMPDEST DUP4 DUP2 LT ISZERO PUSH2 0x2AF9 JUMPI DUP1 DUP3 ADD MLOAD DUP2 DUP5 ADD MSTORE PUSH1 0x20 DUP2 ADD SWAP1 POP PUSH2 0x2ADE JUMP JUMPDEST PUSH0 DUP5 DUP5 ADD MSTORE POP POP POP POP JUMP JUMPDEST PUSH0 PUSH2 0x2B0E DUP3 PUSH2 0x2AC8 JUMP JUMPDEST PUSH2 0x2B18 DUP2 DUP6 PUSH2 0x2AD2 JUMP JUMPDEST SWAP4 POP PUSH2 0x2B28 DUP2 DUP6 PUSH1 0x20 DUP7 ADD PUSH2 0x2ADC JUMP JUMPDEST DUP1 DUP5 ADD SWAP2 POP POP SWAP3 SWAP2 POP POP JUMP JUMPDEST PUSH0 PUSH2 0x2B3F DUP3 DUP5 PUSH2 0x2B04 JUMP JUMPDEST SWAP2 POP DUP2 SWAP1 POP SWAP3 SWAP2 POP POP JUMP INVALID LOG2 PUSH5 0x6970667358 0x22 SLT KECCAK256 DUP15 PREVRANDAO PUSH18 0xBED92975DB5C6F45E371B11C5ED89CC188C3 0xAD OR 0xAF PUSH18 0x93AE095489E2B364736F6C63430008140033 "
		},
		"gasEstimates": {
			"creation": {
				"codeDepositCost": "2227200",
				"executionCost": "infinite",
				"totalCost": "infinite"
			},
			"external": {
				"config(address,address,address)": "infinite",
				"conversionDivePoint(uint256,uint256,uint256,uint256,uint256,uint256,uint256,bytes)": "infinite",
				"engineNFTContract()": "infinite",
				"getMessageHash(address,uint256,uint256,uint256,uint256,uint256,uint256,uint256)": "infinite",
				"owner()": "2515",
				"renounceOwnership()": "infinite",
				"signerAddress()": "2553",
				"transferOwnership(address)": "infinite",
				"withdrawERC20(address,address,uint256)": "infinite",
				"withdrawETH(address,uint256)": "infinite"
			},
			"internal": {
				"getEthSignedMessageHash(bytes32)": "infinite",
				"recoverSigner(bytes32,bytes memory)": "infinite",
				"splitSignature(bytes memory)": "infinite",
				"verify(address,uint256,uint256,uint256,uint256,uint256,uint256,uint256,bytes memory)": "infinite"
			}
		},
		"methodIdentifiers": {
			"config(address,address,address)": "87336111",
			"conversionDivePoint(uint256,uint256,uint256,uint256,uint256,uint256,uint256,bytes)": "e51a9a38",
			"engineNFTContract()": "f6b239a4",
			"getMessageHash(address,uint256,uint256,uint256,uint256,uint256,uint256,uint256)": "a14832af",
			"owner()": "8da5cb5b",
			"renounceOwnership()": "715018a6",
			"signerAddress()": "5b7633d0",
			"transferOwnership(address)": "f2fde38b",
			"withdrawERC20(address,address,uint256)": "44004cc1",
			"withdrawETH(address,uint256)": "4782f779"
		}
	},
	"abi": [
		{
			"inputs": [
				{
					"internalType": "contract UmiDiveEngineNFT",
					"name": "_engineNFTContract",
					"type": "address"
				},
				{
					"internalType": "contract IERC20",
					"name": "_token",
					"type": "address"
				},
				{
					"internalType": "address",
					"name": "_signAddress",
					"type": "address"
				}
			],
			"stateMutability": "nonpayable",
			"type": "constructor"
		},
		{
			"inputs": [
				{
					"internalType": "address",
					"name": "target",
					"type": "address"
				}
			],
			"name": "AddressEmptyCode",
			"type": "error"
		},
		{
			"inputs": [
				{
					"internalType": "address",
					"name": "account",
					"type": "address"
				}
			],
			"name": "AddressInsufficientBalance",
			"type": "error"
		},
		{
			"inputs": [],
			"name": "FailedInnerCall",
			"type": "error"
		},
		{
			"inputs": [
				{
					"internalType": "address",
					"name": "owner",
					"type": "address"
				}
			],
			"name": "OwnableInvalidOwner",
			"type": "error"
		},
		{
			"inputs": [
				{
					"internalType": "address",
					"name": "account",
					"type": "address"
				}
			],
			"name": "OwnableUnauthorizedAccount",
			"type": "error"
		},
		{
			"inputs": [
				{
					"internalType": "address",
					"name": "token",
					"type": "address"
				}
			],
			"name": "SafeERC20FailedOperation",
			"type": "error"
		},
		{
			"anonymous": false,
			"inputs": [
				{
					"indexed": true,
					"internalType": "address",
					"name": "previousOwner",
					"type": "address"
				},
				{
					"indexed": true,
					"internalType": "address",
					"name": "newOwner",
					"type": "address"
				}
			],
			"name": "OwnershipTransferred",
			"type": "event"
		},
		{
			"inputs": [
				{
					"internalType": "contract UmiDiveEngineNFT",
					"name": "_engineNFTContract",
					"type": "address"
				},
				{
					"internalType": "contract IERC20",
					"name": "_token",
					"type": "address"
				},
				{
					"internalType": "address",
					"name": "_signAddress",
					"type": "address"
				}
			],
			"name": "config",
			"outputs": [],
			"stateMutability": "nonpayable",
			"type": "function"
		},
		{
			"inputs": [
				{
					"internalType": "uint256",
					"name": "gameId",
					"type": "uint256"
				},
				{
					"internalType": "uint256",
					"name": "totalDivePoint",
					"type": "uint256"
				},
				{
					"internalType": "uint256",
					"name": "turbineTokenId",
					"type": "uint256"
				},
				{
					"internalType": "uint256",
					"name": "driveTrainTokenId",
					"type": "uint256"
				},
				{
					"internalType": "uint256",
					"name": "capacitorTokenId",
					"type": "uint256"
				},
				{
					"internalType": "uint256",
					"name": "rate",
					"type": "uint256"
				},
				{
					"internalType": "uint256",
					"name": "timestamp",
					"type": "uint256"
				},
				{
					"internalType": "bytes",
					"name": "_signature",
					"type": "bytes"
				}
			],
			"name": "conversionDivePoint",
			"outputs": [],
			"stateMutability": "nonpayable",
			"type": "function"
		},
		{
			"inputs": [],
			"name": "engineNFTContract",
			"outputs": [
				{
					"internalType": "contract UmiDiveEngineNFT",
					"name": "",
					"type": "address"
				}
			],
			"stateMutability": "view",
			"type": "function"
		},
		{
			"inputs": [
				{
					"internalType": "address",
					"name": "owner",
					"type": "address"
				},
				{
					"internalType": "uint256",
					"name": "gameId",
					"type": "uint256"
				},
				{
					"internalType": "uint256",
					"name": "totalDivePoint",
					"type": "uint256"
				},
				{
					"internalType": "uint256",
					"name": "turbineTokenId",
					"type": "uint256"
				},
				{
					"internalType": "uint256",
					"name": "driveTrainTokenId",
					"type": "uint256"
				},
				{
					"internalType": "uint256",
					"name": "capacitorTokenId",
					"type": "uint256"
				},
				{
					"internalType": "uint256",
					"name": "rate",
					"type": "uint256"
				},
				{
					"internalType": "uint256",
					"name": "timestamp",
					"type": "uint256"
				}
			],
			"name": "getMessageHash",
			"outputs": [
				{
					"internalType": "bytes32",
					"name": "",
					"type": "bytes32"
				}
			],
			"stateMutability": "view",
			"type": "function"
		},
		{
			"inputs": [],
			"name": "owner",
			"outputs": [
				{
					"internalType": "address",
					"name": "",
					"type": "address"
				}
			],
			"stateMutability": "view",
			"type": "function"
		},
		{
			"inputs": [],
			"name": "renounceOwnership",
			"outputs": [],
			"stateMutability": "nonpayable",
			"type": "function"
		},
		{
			"inputs": [],
			"name": "signerAddress",
			"outputs": [
				{
					"internalType": "address",
					"name": "",
					"type": "address"
				}
			],
			"stateMutability": "view",
			"type": "function"
		},
		{
			"inputs": [
				{
					"internalType": "address",
					"name": "newOwner",
					"type": "address"
				}
			],
			"name": "transferOwnership",
			"outputs": [],
			"stateMutability": "nonpayable",
			"type": "function"
		},
		{
			"inputs": [
				{
					"internalType": "address",
					"name": "tokenAddress",
					"type": "address"
				},
				{
					"internalType": "address",
					"name": "recipient",
					"type": "address"
				},
				{
					"internalType": "uint256",
					"name": "amount",
					"type": "uint256"
				}
			],
			"name": "withdrawERC20",
			"outputs": [],
			"stateMutability": "nonpayable",
			"type": "function"
		},
		{
			"inputs": [
				{
					"internalType": "address payable",
					"name": "recipient",
					"type": "address"
				},
				{
					"internalType": "uint256",
					"name": "amount",
					"type": "uint256"
				}
			],
			"name": "withdrawETH",
			"outputs": [],
			"stateMutability": "nonpayable",
			"type": "function"
		}
	]
}