{
	"NFT_dive_engine/testTransfer.sol": {
		"Bank": {
			"abi": [
				{
					"inputs": [],
					"stateMutability": "nonpayable",
					"type": "constructor"
				},
				{
					"inputs": [
						{
							"internalType": "address",
							"name": "target",
							"type": "address"
						}
					],
					"name": "AddressEmptyCode",
					"type": "error"
				},
				{
					"inputs": [
						{
							"internalType": "address",
							"name": "account",
							"type": "address"
						}
					],
					"name": "AddressInsufficientBalance",
					"type": "error"
				},
				{
					"inputs": [],
					"name": "FailedInnerCall",
					"type": "error"
				},
				{
					"inputs": [
						{
							"internalType": "address",
							"name": "token",
							"type": "address"
						}
					],
					"name": "SafeERC20FailedOperation",
					"type": "error"
				},
				{
					"inputs": [],
					"name": "owner",
					"outputs": [
						{
							"internalType": "address",
							"name": "",
							"type": "address"
						}
					],
					"stateMutability": "view",
					"type": "function"
				},
				{
					"inputs": [
						{
							"internalType": "address",
							"name": "token",
							"type": "address"
						},
						{
							"internalType": "address",
							"name": "receiver",
							"type": "address"
						},
						{
							"internalType": "uint256",
							"name": "amount",
							"type": "uint256"
						}
					],
					"name": "safeTransfer",
					"outputs": [],
					"stateMutability": "nonpayable",
					"type": "function"
				},
				{
					"inputs": [
						{
							"internalType": "address",
							"name": "_owner",
							"type": "address"
						}
					],
					"name": "setOwner",
					"outputs": [],
					"stateMutability": "nonpayable",
					"type": "function"
				}
			],
			"devdoc": {
				"errors": {
					"AddressEmptyCode(address)": [
						{
							"details": "There's no code at `target` (it is not a contract)."
						}
					],
					"AddressInsufficientBalance(address)": [
						{
							"details": "The ETH balance of the account is not enough to perform the operation."
						}
					],
					"FailedInnerCall()": [
						{
							"details": "A call to an address target failed. The target may have reverted."
						}
					],
					"SafeERC20FailedOperation(address)": [
						{
							"details": "An operation with an ERC-20 token failed."
						}
					]
				},
				"kind": "dev",
				"methods": {},
				"version": 1
			},
			"evm": {
				"assembly": "    /* \"NFT_dive_engine/testTransfer.sol\":18637:19177  contract Bank {... */\n  mstore(0x40, 0x80)\n    /* \"NFT_dive_engine/testTransfer.sol\":18720:18768  constructor(){... */\n  callvalue\n  dup1\n  iszero\n  tag_1\n  jumpi\n  0x00\n  dup1\n  revert\ntag_1:\n  pop\n    /* \"NFT_dive_engine/testTransfer.sol\":18743:18748  owner */\n  0x00\n    /* \"NFT_dive_engine/testTransfer.sol\":18743:18761  owner = msg.sender */\n  dup1\n  sload\n  not(sub(shl(0xa0, 0x01), 0x01))\n  and\n    /* \"NFT_dive_engine/testTransfer.sol\":18751:18761  msg.sender */\n  caller\n    /* \"NFT_dive_engine/testTransfer.sol\":18743:18761  owner = msg.sender */\n  or\n  swap1\n  sstore\n    /* \"NFT_dive_engine/testTransfer.sol\":18637:19177  contract Bank {... */\n  dataSize(sub_0)\n  dup1\n  dataOffset(sub_0)\n  0x00\n  codecopy\n  0x00\n  return\nstop\n\nsub_0: assembly {\n        /* \"NFT_dive_engine/testTransfer.sol\":18637:19177  contract Bank {... */\n      mstore(0x40, 0x80)\n      callvalue\n      dup1\n      iszero\n      tag_1\n      jumpi\n      0x00\n      dup1\n      revert\n    tag_1:\n      pop\n      jumpi(tag_2, lt(calldatasize, 0x04))\n      shr(0xe0, calldataload(0x00))\n      dup1\n      0x13af4035\n      eq\n      tag_3\n      jumpi\n      dup1\n      0x8da5cb5b\n      eq\n      tag_4\n      jumpi\n      dup1\n      0xd1660f99\n      eq\n      tag_5\n      jumpi\n    tag_2:\n      0x00\n      dup1\n      revert\n        /* \"NFT_dive_engine/testTransfer.sol\":18877:18958  function setOwner(address _owner) public onlyOwner{... */\n    tag_3:\n      tag_6\n      tag_7\n      calldatasize\n      0x04\n      tag_8\n      jump\t// in\n    tag_7:\n      tag_9\n      jump\t// in\n    tag_6:\n      stop\n        /* \"NFT_dive_engine/testTransfer.sol\":18657:18677  address public owner */\n    tag_4:\n      sload(0x00)\n      tag_10\n      swap1\n      sub(shl(0xa0, 0x01), 0x01)\n      and\n      dup2\n      jump\n    tag_10:\n      mload(0x40)\n      sub(shl(0xa0, 0x01), 0x01)\n        /* \"#utility.yul\":547:579   */\n      swap1\n      swap2\n      and\n        /* \"#utility.yul\":529:580   */\n      dup2\n      mstore\n        /* \"#utility.yul\":517:519   */\n      0x20\n        /* \"#utility.yul\":502:520   */\n      add\n        /* \"NFT_dive_engine/testTransfer.sol\":18657:18677  address public owner */\n      mload(0x40)\n      dup1\n      swap2\n      sub\n      swap1\n      return\n        /* \"NFT_dive_engine/testTransfer.sol\":18964:19175  function safeTransfer(address token, address receiver, uint256 amount) public onlyOwner{... */\n    tag_5:\n      tag_6\n      tag_15\n      calldatasize\n      0x04\n      tag_16\n      jump\t// in\n    tag_15:\n      tag_17\n      jump\t// in\n        /* \"NFT_dive_engine/testTransfer.sol\":18877:18958  function setOwner(address _owner) public onlyOwner{... */\n    tag_9:\n        /* \"NFT_dive_engine/testTransfer.sol\":18827:18832  owner */\n      and(sub(shl(0xa0, 0x01), 0x01), sload(0x00))\n        /* \"NFT_dive_engine/testTransfer.sol\":18813:18823  msg.sender */\n      caller\n        /* \"NFT_dive_engine/testTransfer.sol\":18813:18832  msg.sender == owner */\n      eq\n        /* \"NFT_dive_engine/testTransfer.sol\":18805:18853  require(msg.sender == owner, \"ERROR_PERMISSION\") */\n      tag_19\n      jumpi\n      mload(0x40)\n      shl(0xe5, 0x461bcd)\n      dup2\n      mstore\n        /* \"#utility.yul\":1126:1128   */\n      0x20\n        /* \"NFT_dive_engine/testTransfer.sol\":18805:18853  require(msg.sender == owner, \"ERROR_PERMISSION\") */\n      0x04\n      dup3\n      add\n        /* \"#utility.yul\":1108:1129   */\n      mstore\n        /* \"#utility.yul\":1165:1167   */\n      0x10\n        /* \"#utility.yul\":1145:1163   */\n      0x24\n      dup3\n      add\n        /* \"#utility.yul\":1138:1168   */\n      mstore\n      shl(0x81, 0x22a92927a92fa822a926a4a9a9a4a7a7)\n        /* \"#utility.yul\":1184:1202   */\n      0x44\n      dup3\n      add\n        /* \"#utility.yul\":1177:1223   */\n      mstore\n        /* \"#utility.yul\":1240:1258   */\n      0x64\n      add\n        /* \"NFT_dive_engine/testTransfer.sol\":18805:18853  require(msg.sender == owner, \"ERROR_PERMISSION\") */\n    tag_20:\n      mload(0x40)\n      dup1\n      swap2\n      sub\n      swap1\n      revert\n    tag_19:\n        /* \"NFT_dive_engine/testTransfer.sol\":18937:18942  owner */\n      0x00\n        /* \"NFT_dive_engine/testTransfer.sol\":18937:18951  owner = _owner */\n      dup1\n      sload\n      not(sub(shl(0xa0, 0x01), 0x01))\n      and\n      sub(shl(0xa0, 0x01), 0x01)\n      swap3\n      swap1\n      swap3\n      and\n      swap2\n      swap1\n      swap2\n      or\n      swap1\n      sstore\n        /* \"NFT_dive_engine/testTransfer.sol\":18877:18958  function setOwner(address _owner) public onlyOwner{... */\n      jump\t// out\n        /* \"NFT_dive_engine/testTransfer.sol\":18964:19175  function safeTransfer(address token, address receiver, uint256 amount) public onlyOwner{... */\n    tag_17:\n        /* \"NFT_dive_engine/testTransfer.sol\":18827:18832  owner */\n      and(sub(shl(0xa0, 0x01), 0x01), sload(0x00))\n        /* \"NFT_dive_engine/testTransfer.sol\":18813:18823  msg.sender */\n      caller\n        /* \"NFT_dive_engine/testTransfer.sol\":18813:18832  msg.sender == owner */\n      eq\n        /* \"NFT_dive_engine/testTransfer.sol\":18805:18853  require(msg.sender == owner, \"ERROR_PERMISSION\") */\n      tag_24\n      jumpi\n      mload(0x40)\n      shl(0xe5, 0x461bcd)\n      dup2\n      mstore\n        /* \"#utility.yul\":1126:1128   */\n      0x20\n        /* \"NFT_dive_engine/testTransfer.sol\":18805:18853  require(msg.sender == owner, \"ERROR_PERMISSION\") */\n      0x04\n      dup3\n      add\n        /* \"#utility.yul\":1108:1129   */\n      mstore\n        /* \"#utility.yul\":1165:1167   */\n      0x10\n        /* \"#utility.yul\":1145:1163   */\n      0x24\n      dup3\n      add\n        /* \"#utility.yul\":1138:1168   */\n      mstore\n      shl(0x81, 0x22a92927a92fa822a926a4a9a9a4a7a7)\n        /* \"#utility.yul\":1184:1202   */\n      0x44\n      dup3\n      add\n        /* \"#utility.yul\":1177:1223   */\n      mstore\n        /* \"#utility.yul\":1240:1258   */\n      0x64\n      add\n        /* \"NFT_dive_engine/testTransfer.sol\":18805:18853  require(msg.sender == owner, \"ERROR_PERMISSION\") */\n      tag_20\n        /* \"#utility.yul\":924:1264   */\n      jump\n        /* \"NFT_dive_engine/testTransfer.sol\":18805:18853  require(msg.sender == owner, \"ERROR_PERMISSION\") */\n    tag_24:\n        /* \"NFT_dive_engine/testTransfer.sol\":19124:19168  IERC20(token).safeTransfer(receiver, amount) */\n      tag_27\n      sub(shl(0xa0, 0x01), 0x01)\n        /* \"NFT_dive_engine/testTransfer.sol\":19124:19150  IERC20(token).safeTransfer */\n      dup5\n      and\n        /* \"NFT_dive_engine/testTransfer.sol\":19151:19159  receiver */\n      dup4\n        /* \"NFT_dive_engine/testTransfer.sol\":19161:19167  amount */\n      dup4\n        /* \"NFT_dive_engine/testTransfer.sol\":19124:19150  IERC20(token).safeTransfer */\n      tag_28\n        /* \"NFT_dive_engine/testTransfer.sol\":19124:19168  IERC20(token).safeTransfer(receiver, amount) */\n      jump\t// in\n    tag_27:\n        /* \"NFT_dive_engine/testTransfer.sol\":18964:19175  function safeTransfer(address token, address receiver, uint256 amount) public onlyOwner{... */\n      pop\n      pop\n      pop\n      jump\t// out\n        /* \"NFT_dive_engine/testTransfer.sol\":14118:14278  function safeTransfer(IERC20 token, address to, uint256 value) internal {... */\n    tag_28:\n        /* \"NFT_dive_engine/testTransfer.sol\":14227:14270  abi.encodeCall(token.transfer, (to, value)) */\n      0x40\n      dup1\n      mload\n      sub(shl(0xa0, 0x01), 0x01)\n        /* \"#utility.yul\":1461:1493   */\n      dup5\n      dup2\n      and\n        /* \"NFT_dive_engine/testTransfer.sol\":14227:14270  abi.encodeCall(token.transfer, (to, value)) */\n      0x24\n      dup4\n      add\n        /* \"#utility.yul\":1443:1494   */\n      mstore\n        /* \"#utility.yul\":1510:1528   */\n      0x44\n      dup1\n      dup4\n      add\n        /* \"#utility.yul\":1503:1537   */\n      dup6\n      swap1\n      mstore\n        /* \"NFT_dive_engine/testTransfer.sol\":14227:14270  abi.encodeCall(token.transfer, (to, value)) */\n      dup4\n      mload\n      dup1\n      dup5\n      sub\n      swap1\n      swap2\n      add\n      dup2\n      mstore\n        /* \"#utility.yul\":1416:1434   */\n      0x64\n      swap1\n      swap3\n      add\n        /* \"NFT_dive_engine/testTransfer.sol\":14227:14270  abi.encodeCall(token.transfer, (to, value)) */\n      swap1\n      swap3\n      mstore\n      0x20\n      dup2\n      add\n      dup1\n      mload\n      sub(shl(0xe0, 0x01), 0x01)\n      and\n      shl(0xe0, 0xa9059cbb)\n      or\n      swap1\n      mstore\n        /* \"NFT_dive_engine/testTransfer.sol\":14200:14271  _callOptionalReturn(token, abi.encodeCall(token.transfer, (to, value))) */\n      tag_27\n      swap2\n        /* \"NFT_dive_engine/testTransfer.sol\":14220:14225  token */\n      dup6\n      swap2\n        /* \"NFT_dive_engine/testTransfer.sol\":14227:14270  abi.encodeCall(token.transfer, (to, value)) */\n      swap1\n      0x00\n      swap1\n        /* \"NFT_dive_engine/testTransfer.sol\":17319:17352  address(token).functionCall(data) */\n      tag_35\n      swap1\n        /* \"NFT_dive_engine/testTransfer.sol\":14242:14256  token.transfer */\n      dup5\n      and\n        /* \"NFT_dive_engine/testTransfer.sol\":14227:14270  abi.encodeCall(token.transfer, (to, value)) */\n      dup4\n        /* \"NFT_dive_engine/testTransfer.sol\":17319:17346  address(token).functionCall */\n      tag_36\n        /* \"NFT_dive_engine/testTransfer.sol\":17319:17352  address(token).functionCall(data) */\n      jump\t// in\n    tag_35:\n        /* \"NFT_dive_engine/testTransfer.sol\":17293:17352  bytes memory returndata = address(token).functionCall(data) */\n      swap1\n      pop\n        /* \"NFT_dive_engine/testTransfer.sol\":17366:17376  returndata */\n      dup1\n        /* \"NFT_dive_engine/testTransfer.sol\":17366:17383  returndata.length */\n      mload\n        /* \"NFT_dive_engine/testTransfer.sol\":17387:17388  0 */\n      0x00\n        /* \"NFT_dive_engine/testTransfer.sol\":17366:17388  returndata.length != 0 */\n      eq\n      iszero\n        /* \"NFT_dive_engine/testTransfer.sol\":17366:17423  returndata.length != 0 && !abi.decode(returndata, (bool)) */\n      dup1\n      iszero\n      tag_37\n      jumpi\n      pop\n        /* \"NFT_dive_engine/testTransfer.sol\":17404:17414  returndata */\n      dup1\n        /* \"NFT_dive_engine/testTransfer.sol\":17393:17423  abi.decode(returndata, (bool)) */\n      dup1\n      0x20\n      add\n      swap1\n      mload\n      dup2\n      add\n      swap1\n      tag_38\n      swap2\n      swap1\n      tag_39\n      jump\t// in\n    tag_38:\n        /* \"NFT_dive_engine/testTransfer.sol\":17392:17423  !abi.decode(returndata, (bool)) */\n      iszero\n        /* \"NFT_dive_engine/testTransfer.sol\":17366:17423  returndata.length != 0 && !abi.decode(returndata, (bool)) */\n    tag_37:\n        /* \"NFT_dive_engine/testTransfer.sol\":17362:17497  if (returndata.length != 0 && !abi.decode(returndata, (bool))) {... */\n      iszero\n      tag_27\n      jumpi\n        /* \"NFT_dive_engine/testTransfer.sol\":17446:17486  SafeERC20FailedOperation(address(token)) */\n      mload(0x40)\n      shl(0xe0, 0x5274afe7)\n      dup2\n      mstore\n      sub(shl(0xa0, 0x01), 0x01)\n        /* \"#utility.yul\":547:579   */\n      dup5\n      and\n        /* \"NFT_dive_engine/testTransfer.sol\":17446:17486  SafeERC20FailedOperation(address(token)) */\n      0x04\n      dup3\n      add\n        /* \"#utility.yul\":529:580   */\n      mstore\n        /* \"#utility.yul\":502:520   */\n      0x24\n      add\n        /* \"NFT_dive_engine/testTransfer.sol\":17446:17486  SafeERC20FailedOperation(address(token)) */\n      tag_20\n        /* \"#utility.yul\":383:586   */\n      jump\n        /* \"NFT_dive_engine/testTransfer.sol\":2767:2918  function functionCall(address target, bytes memory data) internal returns (bytes memory) {... */\n    tag_36:\n        /* \"NFT_dive_engine/testTransfer.sol\":2842:2854  bytes memory */\n      0x60\n        /* \"NFT_dive_engine/testTransfer.sol\":2873:2911  functionCallWithValue(target, data, 0) */\n      tag_43\n        /* \"NFT_dive_engine/testTransfer.sol\":2895:2901  target */\n      dup4\n        /* \"NFT_dive_engine/testTransfer.sol\":2903:2907  data */\n      dup4\n        /* \"NFT_dive_engine/testTransfer.sol\":2909:2910  0 */\n      0x00\n        /* \"NFT_dive_engine/testTransfer.sol\":2873:2894  functionCallWithValue */\n      tag_44\n        /* \"NFT_dive_engine/testTransfer.sol\":2873:2911  functionCallWithValue(target, data, 0) */\n      jump\t// in\n    tag_43:\n        /* \"NFT_dive_engine/testTransfer.sol\":2866:2911  return functionCallWithValue(target, data, 0) */\n      swap4\n        /* \"NFT_dive_engine/testTransfer.sol\":2767:2918  function functionCall(address target, bytes memory data) internal returns (bytes memory) {... */\n      swap3\n      pop\n      pop\n      pop\n      jump\t// out\n        /* \"NFT_dive_engine/testTransfer.sol\":3242:3634  function functionCallWithValue(address target, bytes memory data, uint256 value) internal returns (bytes memory) {... */\n    tag_44:\n        /* \"NFT_dive_engine/testTransfer.sol\":3341:3353  bytes memory */\n      0x60\n        /* \"NFT_dive_engine/testTransfer.sol\":3393:3398  value */\n      dup2\n        /* \"NFT_dive_engine/testTransfer.sol\":3369:3390  address(this).balance */\n      selfbalance\n        /* \"NFT_dive_engine/testTransfer.sol\":3369:3398  address(this).balance < value */\n      lt\n        /* \"NFT_dive_engine/testTransfer.sol\":3365:3473  if (address(this).balance < value) {... */\n      iszero\n      tag_46\n      jumpi\n        /* \"NFT_dive_engine/testTransfer.sol\":3421:3462  AddressInsufficientBalance(address(this)) */\n      mload(0x40)\n      shl(0xe0, 0xcd786059)\n      dup2\n      mstore\n        /* \"NFT_dive_engine/testTransfer.sol\":3456:3460  this */\n      address\n        /* \"NFT_dive_engine/testTransfer.sol\":3421:3462  AddressInsufficientBalance(address(this)) */\n      0x04\n      dup3\n      add\n        /* \"#utility.yul\":529:580   */\n      mstore\n        /* \"#utility.yul\":502:520   */\n      0x24\n      add\n        /* \"NFT_dive_engine/testTransfer.sol\":3421:3462  AddressInsufficientBalance(address(this)) */\n      tag_20\n        /* \"#utility.yul\":383:586   */\n      jump\n        /* \"NFT_dive_engine/testTransfer.sol\":3365:3473  if (address(this).balance < value) {... */\n    tag_46:\n        /* \"NFT_dive_engine/testTransfer.sol\":3483:3495  bool success */\n      0x00\n        /* \"NFT_dive_engine/testTransfer.sol\":3497:3520  bytes memory returndata */\n      dup1\n        /* \"NFT_dive_engine/testTransfer.sol\":3524:3530  target */\n      dup6\n      sub(shl(0xa0, 0x01), 0x01)\n        /* \"NFT_dive_engine/testTransfer.sol\":3524:3535  target.call */\n      and\n        /* \"NFT_dive_engine/testTransfer.sol\":3543:3548  value */\n      dup5\n        /* \"NFT_dive_engine/testTransfer.sol\":3550:3554  data */\n      dup7\n        /* \"NFT_dive_engine/testTransfer.sol\":3524:3555  target.call{value: value}(data) */\n      mload(0x40)\n      tag_48\n      swap2\n      swap1\n      tag_49\n      jump\t// in\n    tag_48:\n      0x00\n      mload(0x40)\n      dup1\n      dup4\n      sub\n      dup2\n      dup6\n      dup8\n      gas\n      call\n      swap3\n      pop\n      pop\n      pop\n      returndatasize\n      dup1\n      0x00\n      dup2\n      eq\n      tag_52\n      jumpi\n      mload(0x40)\n      swap2\n      pop\n      and(add(returndatasize, 0x3f), not(0x1f))\n      dup3\n      add\n      0x40\n      mstore\n      returndatasize\n      dup3\n      mstore\n      returndatasize\n      0x00\n      0x20\n      dup5\n      add\n      returndatacopy\n      jump(tag_51)\n    tag_52:\n      0x60\n      swap2\n      pop\n    tag_51:\n      pop\n        /* \"NFT_dive_engine/testTransfer.sol\":3482:3555  (bool success, bytes memory returndata) = target.call{value: value}(data) */\n      swap2\n      pop\n      swap2\n      pop\n        /* \"NFT_dive_engine/testTransfer.sol\":3572:3627  verifyCallResultFromTarget(target, success, returndata) */\n      tag_53\n        /* \"NFT_dive_engine/testTransfer.sol\":3599:3605  target */\n      dup7\n        /* \"NFT_dive_engine/testTransfer.sol\":3607:3614  success */\n      dup4\n        /* \"NFT_dive_engine/testTransfer.sol\":3616:3626  returndata */\n      dup4\n        /* \"NFT_dive_engine/testTransfer.sol\":3572:3598  verifyCallResultFromTarget */\n      tag_54\n        /* \"NFT_dive_engine/testTransfer.sol\":3572:3627  verifyCallResultFromTarget(target, success, returndata) */\n      jump\t// in\n    tag_53:\n        /* \"NFT_dive_engine/testTransfer.sol\":3565:3627  return verifyCallResultFromTarget(target, success, returndata) */\n      swap7\n        /* \"NFT_dive_engine/testTransfer.sol\":3242:3634  function functionCallWithValue(address target, bytes memory data, uint256 value) internal returns (bytes memory) {... */\n      swap6\n      pop\n      pop\n      pop\n      pop\n      pop\n      pop\n      jump\t// out\n        /* \"NFT_dive_engine/testTransfer.sol\":4687:5269  function verifyCallResultFromTarget(... */\n    tag_54:\n        /* \"NFT_dive_engine/testTransfer.sol\":4831:4843  bytes memory */\n      0x60\n        /* \"NFT_dive_engine/testTransfer.sol\":4860:4867  success */\n      dup3\n        /* \"NFT_dive_engine/testTransfer.sol\":4855:5263  if (!success) {... */\n      tag_56\n      jumpi\n        /* \"NFT_dive_engine/testTransfer.sol\":4883:4902  _revert(returndata) */\n      tag_57\n        /* \"NFT_dive_engine/testTransfer.sol\":4891:4901  returndata */\n      dup3\n        /* \"NFT_dive_engine/testTransfer.sol\":4883:4890  _revert */\n      tag_58\n        /* \"NFT_dive_engine/testTransfer.sol\":4883:4902  _revert(returndata) */\n      jump\t// in\n    tag_57:\n        /* \"NFT_dive_engine/testTransfer.sol\":4855:5263  if (!success) {... */\n      jump(tag_43)\n    tag_56:\n        /* \"NFT_dive_engine/testTransfer.sol\":5107:5124  returndata.length */\n      dup2\n      mload\n        /* \"NFT_dive_engine/testTransfer.sol\":5107:5129  returndata.length == 0 */\n      iszero\n        /* \"NFT_dive_engine/testTransfer.sol\":5107:5156  returndata.length == 0 && target.code.length == 0 */\n      dup1\n      iszero\n      tag_60\n      jumpi\n      pop\n      sub(shl(0xa0, 0x01), 0x01)\n        /* \"NFT_dive_engine/testTransfer.sol\":5133:5151  target.code.length */\n      dup5\n      and\n      extcodesize\n        /* \"NFT_dive_engine/testTransfer.sol\":5133:5156  target.code.length == 0 */\n      iszero\n        /* \"NFT_dive_engine/testTransfer.sol\":5107:5156  returndata.length == 0 && target.code.length == 0 */\n    tag_60:\n        /* \"NFT_dive_engine/testTransfer.sol\":5103:5222  if (returndata.length == 0 && target.code.length == 0) {... */\n      iszero\n      tag_61\n      jumpi\n        /* \"NFT_dive_engine/testTransfer.sol\":5183:5207  AddressEmptyCode(target) */\n      mload(0x40)\n      shl(0xe0, 0x9996b315)\n      dup2\n      mstore\n      sub(shl(0xa0, 0x01), 0x01)\n        /* \"#utility.yul\":547:579   */\n      dup6\n      and\n        /* \"NFT_dive_engine/testTransfer.sol\":5183:5207  AddressEmptyCode(target) */\n      0x04\n      dup3\n      add\n        /* \"#utility.yul\":529:580   */\n      mstore\n        /* \"#utility.yul\":502:520   */\n      0x24\n      add\n        /* \"NFT_dive_engine/testTransfer.sol\":5183:5207  AddressEmptyCode(target) */\n      tag_20\n        /* \"#utility.yul\":383:586   */\n      jump\n        /* \"NFT_dive_engine/testTransfer.sol\":5103:5222  if (returndata.length == 0 && target.code.length == 0) {... */\n    tag_61:\n      pop\n        /* \"NFT_dive_engine/testTransfer.sol\":5242:5252  returndata */\n      dup1\n        /* \"NFT_dive_engine/testTransfer.sol\":5235:5252  return returndata */\n      jump(tag_43)\n        /* \"NFT_dive_engine/testTransfer.sol\":5805:6321  function _revert(bytes memory returndata) private pure {... */\n    tag_58:\n        /* \"NFT_dive_engine/testTransfer.sol\":5936:5953  returndata.length */\n      dup1\n      mload\n        /* \"NFT_dive_engine/testTransfer.sol\":5936:5957  returndata.length > 0 */\n      iszero\n        /* \"NFT_dive_engine/testTransfer.sol\":5932:6315  if (returndata.length > 0) {... */\n      tag_64\n      jumpi\n        /* \"NFT_dive_engine/testTransfer.sol\":6164:6174  returndata */\n      dup1\n        /* \"NFT_dive_engine/testTransfer.sol\":6158:6175  mload(returndata) */\n      mload\n        /* \"NFT_dive_engine/testTransfer.sol\":6220:6235  returndata_size */\n      dup1\n        /* \"NFT_dive_engine/testTransfer.sol\":6207:6217  returndata */\n      dup3\n        /* \"NFT_dive_engine/testTransfer.sol\":6203:6205  32 */\n      0x20\n        /* \"NFT_dive_engine/testTransfer.sol\":6199:6218  add(32, returndata) */\n      add\n        /* \"NFT_dive_engine/testTransfer.sol\":6192:6236  revert(add(32, returndata), returndata_size) */\n      revert\n        /* \"NFT_dive_engine/testTransfer.sol\":5932:6315  if (returndata.length > 0) {... */\n    tag_64:\n        /* \"NFT_dive_engine/testTransfer.sol\":6287:6304  FailedInnerCall() */\n      mload(0x40)\n      shl(0xe1, 0x0a12f521)\n      dup2\n      mstore\n      0x04\n      add\n      mload(0x40)\n      dup1\n      swap2\n      sub\n      swap1\n      revert\n        /* \"#utility.yul\":14:187   */\n    tag_66:\n        /* \"#utility.yul\":82:102   */\n      dup1\n      calldataload\n      sub(shl(0xa0, 0x01), 0x01)\n        /* \"#utility.yul\":131:162   */\n      dup2\n      and\n        /* \"#utility.yul\":121:163   */\n      dup2\n      eq\n        /* \"#utility.yul\":111:181   */\n      tag_69\n      jumpi\n        /* \"#utility.yul\":177:178   */\n      0x00\n        /* \"#utility.yul\":174:175   */\n      dup1\n        /* \"#utility.yul\":167:179   */\n      revert\n        /* \"#utility.yul\":111:181   */\n    tag_69:\n        /* \"#utility.yul\":14:187   */\n      swap2\n      swap1\n      pop\n      jump\t// out\n        /* \"#utility.yul\":192:378   */\n    tag_8:\n        /* \"#utility.yul\":251:257   */\n      0x00\n        /* \"#utility.yul\":304:306   */\n      0x20\n        /* \"#utility.yul\":292:301   */\n      dup3\n        /* \"#utility.yul\":283:290   */\n      dup5\n        /* \"#utility.yul\":279:302   */\n      sub\n        /* \"#utility.yul\":275:307   */\n      slt\n        /* \"#utility.yul\":272:324   */\n      iszero\n      tag_71\n      jumpi\n        /* \"#utility.yul\":320:321   */\n      0x00\n        /* \"#utility.yul\":317:318   */\n      dup1\n        /* \"#utility.yul\":310:322   */\n      revert\n        /* \"#utility.yul\":272:324   */\n    tag_71:\n        /* \"#utility.yul\":343:372   */\n      tag_43\n        /* \"#utility.yul\":362:371   */\n      dup3\n        /* \"#utility.yul\":343:372   */\n      tag_66\n      jump\t// in\n        /* \"#utility.yul\":591:919   */\n    tag_16:\n        /* \"#utility.yul\":668:674   */\n      0x00\n        /* \"#utility.yul\":676:682   */\n      dup1\n        /* \"#utility.yul\":684:690   */\n      0x00\n        /* \"#utility.yul\":737:739   */\n      0x60\n        /* \"#utility.yul\":725:734   */\n      dup5\n        /* \"#utility.yul\":716:723   */\n      dup7\n        /* \"#utility.yul\":712:735   */\n      sub\n        /* \"#utility.yul\":708:740   */\n      slt\n        /* \"#utility.yul\":705:757   */\n      iszero\n      tag_75\n      jumpi\n        /* \"#utility.yul\":753:754   */\n      0x00\n        /* \"#utility.yul\":750:751   */\n      dup1\n        /* \"#utility.yul\":743:755   */\n      revert\n        /* \"#utility.yul\":705:757   */\n    tag_75:\n        /* \"#utility.yul\":776:805   */\n      tag_76\n        /* \"#utility.yul\":795:804   */\n      dup5\n        /* \"#utility.yul\":776:805   */\n      tag_66\n      jump\t// in\n    tag_76:\n        /* \"#utility.yul\":766:805   */\n      swap3\n      pop\n        /* \"#utility.yul\":824:862   */\n      tag_77\n        /* \"#utility.yul\":858:860   */\n      0x20\n        /* \"#utility.yul\":847:856   */\n      dup6\n        /* \"#utility.yul\":843:861   */\n      add\n        /* \"#utility.yul\":824:862   */\n      tag_66\n      jump\t// in\n    tag_77:\n        /* \"#utility.yul\":814:862   */\n      swap2\n      pop\n        /* \"#utility.yul\":909:911   */\n      0x40\n        /* \"#utility.yul\":898:907   */\n      dup5\n        /* \"#utility.yul\":894:912   */\n      add\n        /* \"#utility.yul\":881:913   */\n      calldataload\n        /* \"#utility.yul\":871:913   */\n      swap1\n      pop\n        /* \"#utility.yul\":591:919   */\n      swap3\n      pop\n      swap3\n      pop\n      swap3\n      jump\t// out\n        /* \"#utility.yul\":1548:1825   */\n    tag_39:\n        /* \"#utility.yul\":1615:1621   */\n      0x00\n        /* \"#utility.yul\":1668:1670   */\n      0x20\n        /* \"#utility.yul\":1656:1665   */\n      dup3\n        /* \"#utility.yul\":1647:1654   */\n      dup5\n        /* \"#utility.yul\":1643:1666   */\n      sub\n        /* \"#utility.yul\":1639:1671   */\n      slt\n        /* \"#utility.yul\":1636:1688   */\n      iszero\n      tag_81\n      jumpi\n        /* \"#utility.yul\":1684:1685   */\n      0x00\n        /* \"#utility.yul\":1681:1682   */\n      dup1\n        /* \"#utility.yul\":1674:1686   */\n      revert\n        /* \"#utility.yul\":1636:1688   */\n    tag_81:\n        /* \"#utility.yul\":1716:1725   */\n      dup2\n        /* \"#utility.yul\":1710:1726   */\n      mload\n        /* \"#utility.yul\":1769:1774   */\n      dup1\n        /* \"#utility.yul\":1762:1775   */\n      iszero\n        /* \"#utility.yul\":1755:1776   */\n      iszero\n        /* \"#utility.yul\":1748:1753   */\n      dup2\n        /* \"#utility.yul\":1745:1777   */\n      eq\n        /* \"#utility.yul\":1735:1795   */\n      tag_43\n      jumpi\n        /* \"#utility.yul\":1791:1792   */\n      0x00\n        /* \"#utility.yul\":1788:1789   */\n      dup1\n        /* \"#utility.yul\":1781:1793   */\n      revert\n        /* \"#utility.yul\":1830:2242   */\n    tag_49:\n        /* \"#utility.yul\":1959:1962   */\n      0x00\n        /* \"#utility.yul\":1997:2003   */\n      dup3\n        /* \"#utility.yul\":1991:2004   */\n      mload\n        /* \"#utility.yul\":2022:2023   */\n      0x00\n        /* \"#utility.yul\":2032:2161   */\n    tag_84:\n        /* \"#utility.yul\":2046:2052   */\n      dup2\n        /* \"#utility.yul\":2043:2044   */\n      dup2\n        /* \"#utility.yul\":2040:2053   */\n      lt\n        /* \"#utility.yul\":2032:2161   */\n      iszero\n      tag_86\n      jumpi\n        /* \"#utility.yul\":2144:2148   */\n      0x20\n        /* \"#utility.yul\":2128:2142   */\n      dup2\n      dup7\n      add\n        /* \"#utility.yul\":2124:2149   */\n      dup2\n      add\n        /* \"#utility.yul\":2118:2150   */\n      mload\n        /* \"#utility.yul\":2105:2116   */\n      dup6\n      dup4\n      add\n        /* \"#utility.yul\":2098:2151   */\n      mstore\n        /* \"#utility.yul\":2061:2073   */\n      add\n        /* \"#utility.yul\":2032:2161   */\n      jump(tag_84)\n    tag_86:\n      pop\n        /* \"#utility.yul\":2216:2217   */\n      0x00\n        /* \"#utility.yul\":2180:2196   */\n      swap3\n      add\n        /* \"#utility.yul\":2205:2218   */\n      swap2\n      dup3\n      mstore\n      pop\n        /* \"#utility.yul\":2180:2196   */\n      swap2\n        /* \"#utility.yul\":1830:2242   */\n      swap1\n      pop\n      jump\t// out\n\n    auxdata: 0xa26469706673582212201e8faa96c7dc6c8294633c62a9dc85c8573ca561fa3fb3698e0e8566d33283f364736f6c63430008140033\n}\n",
				"bytecode": {
					"linkReferences": {},
					"object": "608060405234801561000f575f80fd5b505f80546001600160a01b0319163317905561043a8061002e5f395ff3fe608060405234801561000f575f80fd5b506004361061003f575f3560e01c806313af4035146100435780638da5cb5b14610058578063d1660f9914610086575b5f80fd5b610056610051366004610367565b610099565b005b5f5461006a906001600160a01b031681565b6040516001600160a01b03909116815260200160405180910390f35b610056610094366004610380565b61010b565b5f546001600160a01b031633146100ea5760405162461bcd60e51b815260206004820152601060248201526f22a92927a92fa822a926a4a9a9a4a7a760811b60448201526064015b60405180910390fd5b5f80546001600160a01b0319166001600160a01b0392909216919091179055565b5f546001600160a01b031633146101575760405162461bcd60e51b815260206004820152601060248201526f22a92927a92fa822a926a4a9a9a4a7a760811b60448201526064016100e1565b61016b6001600160a01b0384168383610170565b505050565b604080516001600160a01b03848116602483015260448083018590528351808403909101815260649092019092526020810180516001600160e01b031663a9059cbb60e01b17905261016b918591905f906101cd9084168361021a565b905080515f141580156101f15750808060200190518101906101ef91906103b9565b155b1561016b57604051635274afe760e01b81526001600160a01b03841660048201526024016100e1565b606061022783835f61022e565b9392505050565b6060814710156102535760405163cd78605960e01b81523060048201526024016100e1565b5f80856001600160a01b0316848660405161026e91906103d8565b5f6040518083038185875af1925050503d805f81146102a8576040519150601f19603f3d011682016040523d82523d5f602084013e6102ad565b606091505b50915091506102bd8683836102c7565b9695505050505050565b6060826102dc576102d782610323565b610227565b81511580156102f357506001600160a01b0384163b155b1561031c57604051639996b31560e01b81526001600160a01b03851660048201526024016100e1565b5080610227565b8051156103335780518082602001fd5b604051630a12f52160e11b815260040160405180910390fd5b80356001600160a01b0381168114610362575f80fd5b919050565b5f60208284031215610377575f80fd5b6102278261034c565b5f805f60608486031215610392575f80fd5b61039b8461034c565b92506103a96020850161034c565b9150604084013590509250925092565b5f602082840312156103c9575f80fd5b81518015158114610227575f80fd5b5f82515f5b818110156103f757602081860181015185830152016103dd565b505f92019182525091905056fea26469706673582212201e8faa96c7dc6c8294633c62a9dc85c8573ca561fa3fb3698e0e8566d33283f364736f6c63430008140033",
					"opcodes": "PUSH1 0x80 PUSH1 0x40 MSTORE CALLVALUE DUP1 ISZERO PUSH2 0xF JUMPI PUSH0 DUP1 REVERT JUMPDEST POP PUSH0 DUP1 SLOAD PUSH1 0x1 PUSH1 0x1 PUSH1 0xA0 SHL SUB NOT AND CALLER OR SWAP1 SSTORE PUSH2 0x43A DUP1 PUSH2 0x2E PUSH0 CODECOPY PUSH0 RETURN INVALID PUSH1 0x80 PUSH1 0x40 MSTORE CALLVALUE DUP1 ISZERO PUSH2 0xF JUMPI PUSH0 DUP1 REVERT JUMPDEST POP PUSH1 0x4 CALLDATASIZE LT PUSH2 0x3F JUMPI PUSH0 CALLDATALOAD PUSH1 0xE0 SHR DUP1 PUSH4 0x13AF4035 EQ PUSH2 0x43 JUMPI DUP1 PUSH4 0x8DA5CB5B EQ PUSH2 0x58 JUMPI DUP1 PUSH4 0xD1660F99 EQ PUSH2 0x86 JUMPI JUMPDEST PUSH0 DUP1 REVERT JUMPDEST PUSH2 0x56 PUSH2 0x51 CALLDATASIZE PUSH1 0x4 PUSH2 0x367 JUMP JUMPDEST PUSH2 0x99 JUMP JUMPDEST STOP JUMPDEST PUSH0 SLOAD PUSH2 0x6A SWAP1 PUSH1 0x1 PUSH1 0x1 PUSH1 0xA0 SHL SUB AND DUP2 JUMP JUMPDEST PUSH1 0x40 MLOAD PUSH1 0x1 PUSH1 0x1 PUSH1 0xA0 SHL SUB SWAP1 SWAP2 AND DUP2 MSTORE PUSH1 0x20 ADD PUSH1 0x40 MLOAD DUP1 SWAP2 SUB SWAP1 RETURN JUMPDEST PUSH2 0x56 PUSH2 0x94 CALLDATASIZE PUSH1 0x4 PUSH2 0x380 JUMP JUMPDEST PUSH2 0x10B JUMP JUMPDEST PUSH0 SLOAD PUSH1 0x1 PUSH1 0x1 PUSH1 0xA0 SHL SUB AND CALLER EQ PUSH2 0xEA JUMPI PUSH1 0x40 MLOAD PUSH3 0x461BCD PUSH1 0xE5 SHL DUP2 MSTORE PUSH1 0x20 PUSH1 0x4 DUP3 ADD MSTORE PUSH1 0x10 PUSH1 0x24 DUP3 ADD MSTORE PUSH16 0x22A92927A92FA822A926A4A9A9A4A7A7 PUSH1 0x81 SHL PUSH1 0x44 DUP3 ADD MSTORE PUSH1 0x64 ADD JUMPDEST PUSH1 0x40 MLOAD DUP1 SWAP2 SUB SWAP1 REVERT JUMPDEST PUSH0 DUP1 SLOAD PUSH1 0x1 PUSH1 0x1 PUSH1 0xA0 SHL SUB NOT AND PUSH1 0x1 PUSH1 0x1 PUSH1 0xA0 SHL SUB SWAP3 SWAP1 SWAP3 AND SWAP2 SWAP1 SWAP2 OR SWAP1 SSTORE JUMP JUMPDEST PUSH0 SLOAD PUSH1 0x1 PUSH1 0x1 PUSH1 0xA0 SHL SUB AND CALLER EQ PUSH2 0x157 JUMPI PUSH1 0x40 MLOAD PUSH3 0x461BCD PUSH1 0xE5 SHL DUP2 MSTORE PUSH1 0x20 PUSH1 0x4 DUP3 ADD MSTORE PUSH1 0x10 PUSH1 0x24 DUP3 ADD MSTORE PUSH16 0x22A92927A92FA822A926A4A9A9A4A7A7 PUSH1 0x81 SHL PUSH1 0x44 DUP3 ADD MSTORE PUSH1 0x64 ADD PUSH2 0xE1 JUMP JUMPDEST PUSH2 0x16B PUSH1 0x1 PUSH1 0x1 PUSH1 0xA0 SHL SUB DUP5 AND DUP4 DUP4 PUSH2 0x170 JUMP JUMPDEST POP POP POP JUMP JUMPDEST PUSH1 0x40 DUP1 MLOAD PUSH1 0x1 PUSH1 0x1 PUSH1 0xA0 SHL SUB DUP5 DUP2 AND PUSH1 0x24 DUP4 ADD MSTORE PUSH1 0x44 DUP1 DUP4 ADD DUP6 SWAP1 MSTORE DUP4 MLOAD DUP1 DUP5 SUB SWAP1 SWAP2 ADD DUP2 MSTORE PUSH1 0x64 SWAP1 SWAP3 ADD SWAP1 SWAP3 MSTORE PUSH1 0x20 DUP2 ADD DUP1 MLOAD PUSH1 0x1 PUSH1 0x1 PUSH1 0xE0 SHL SUB AND PUSH4 0xA9059CBB PUSH1 0xE0 SHL OR SWAP1 MSTORE PUSH2 0x16B SWAP2 DUP6 SWAP2 SWAP1 PUSH0 SWAP1 PUSH2 0x1CD SWAP1 DUP5 AND DUP4 PUSH2 0x21A JUMP JUMPDEST SWAP1 POP DUP1 MLOAD PUSH0 EQ ISZERO DUP1 ISZERO PUSH2 0x1F1 JUMPI POP DUP1 DUP1 PUSH1 0x20 ADD SWAP1 MLOAD DUP2 ADD SWAP1 PUSH2 0x1EF SWAP2 SWAP1 PUSH2 0x3B9 JUMP JUMPDEST ISZERO JUMPDEST ISZERO PUSH2 0x16B JUMPI PUSH1 0x40 MLOAD PUSH4 0x5274AFE7 PUSH1 0xE0 SHL DUP2 MSTORE PUSH1 0x1 PUSH1 0x1 PUSH1 0xA0 SHL SUB DUP5 AND PUSH1 0x4 DUP3 ADD MSTORE PUSH1 0x24 ADD PUSH2 0xE1 JUMP JUMPDEST PUSH1 0x60 PUSH2 0x227 DUP4 DUP4 PUSH0 PUSH2 0x22E JUMP JUMPDEST SWAP4 SWAP3 POP POP POP JUMP JUMPDEST PUSH1 0x60 DUP2 SELFBALANCE LT ISZERO PUSH2 0x253 JUMPI PUSH1 0x40 MLOAD PUSH4 0xCD786059 PUSH1 0xE0 SHL DUP2 MSTORE ADDRESS PUSH1 0x4 DUP3 ADD MSTORE PUSH1 0x24 ADD PUSH2 0xE1 JUMP JUMPDEST PUSH0 DUP1 DUP6 PUSH1 0x1 PUSH1 0x1 PUSH1 0xA0 SHL SUB AND DUP5 DUP7 PUSH1 0x40 MLOAD PUSH2 0x26E SWAP2 SWAP1 PUSH2 0x3D8 JUMP JUMPDEST PUSH0 PUSH1 0x40 MLOAD DUP1 DUP4 SUB DUP2 DUP6 DUP8 GAS CALL SWAP3 POP POP POP RETURNDATASIZE DUP1 PUSH0 DUP2 EQ PUSH2 0x2A8 JUMPI PUSH1 0x40 MLOAD SWAP2 POP PUSH1 0x1F NOT PUSH1 0x3F RETURNDATASIZE ADD AND DUP3 ADD PUSH1 0x40 MSTORE RETURNDATASIZE DUP3 MSTORE RETURNDATASIZE PUSH0 PUSH1 0x20 DUP5 ADD RETURNDATACOPY PUSH2 0x2AD JUMP JUMPDEST PUSH1 0x60 SWAP2 POP JUMPDEST POP SWAP2 POP SWAP2 POP PUSH2 0x2BD DUP7 DUP4 DUP4 PUSH2 0x2C7 JUMP JUMPDEST SWAP7 SWAP6 POP POP POP POP POP POP JUMP JUMPDEST PUSH1 0x60 DUP3 PUSH2 0x2DC JUMPI PUSH2 0x2D7 DUP3 PUSH2 0x323 JUMP JUMPDEST PUSH2 0x227 JUMP JUMPDEST DUP2 MLOAD ISZERO DUP1 ISZERO PUSH2 0x2F3 JUMPI POP PUSH1 0x1 PUSH1 0x1 PUSH1 0xA0 SHL SUB DUP5 AND EXTCODESIZE ISZERO JUMPDEST ISZERO PUSH2 0x31C JUMPI PUSH1 0x40 MLOAD PUSH4 0x9996B315 PUSH1 0xE0 SHL DUP2 MSTORE PUSH1 0x1 PUSH1 0x1 PUSH1 0xA0 SHL SUB DUP6 AND PUSH1 0x4 DUP3 ADD MSTORE PUSH1 0x24 ADD PUSH2 0xE1 JUMP JUMPDEST POP DUP1 PUSH2 0x227 JUMP JUMPDEST DUP1 MLOAD ISZERO PUSH2 0x333 JUMPI DUP1 MLOAD DUP1 DUP3 PUSH1 0x20 ADD REVERT JUMPDEST PUSH1 0x40 MLOAD PUSH4 0xA12F521 PUSH1 0xE1 SHL DUP2 MSTORE PUSH1 0x4 ADD PUSH1 0x40 MLOAD DUP1 SWAP2 SUB SWAP1 REVERT JUMPDEST DUP1 CALLDATALOAD PUSH1 0x1 PUSH1 0x1 PUSH1 0xA0 SHL SUB DUP2 AND DUP2 EQ PUSH2 0x362 JUMPI PUSH0 DUP1 REVERT JUMPDEST SWAP2 SWAP1 POP JUMP JUMPDEST PUSH0 PUSH1 0x20 DUP3 DUP5 SUB SLT ISZERO PUSH2 0x377 JUMPI PUSH0 DUP1 REVERT JUMPDEST PUSH2 0x227 DUP3 PUSH2 0x34C JUMP JUMPDEST PUSH0 DUP1 PUSH0 PUSH1 0x60 DUP5 DUP7 SUB SLT ISZERO PUSH2 0x392 JUMPI PUSH0 DUP1 REVERT JUMPDEST PUSH2 0x39B DUP5 PUSH2 0x34C JUMP JUMPDEST SWAP3 POP PUSH2 0x3A9 PUSH1 0x20 DUP6 ADD PUSH2 0x34C JUMP JUMPDEST SWAP2 POP PUSH1 0x40 DUP5 ADD CALLDATALOAD SWAP1 POP SWAP3 POP SWAP3 POP SWAP3 JUMP JUMPDEST PUSH0 PUSH1 0x20 DUP3 DUP5 SUB SLT ISZERO PUSH2 0x3C9 JUMPI PUSH0 DUP1 REVERT JUMPDEST DUP2 MLOAD DUP1 ISZERO ISZERO DUP2 EQ PUSH2 0x227 JUMPI PUSH0 DUP1 REVERT JUMPDEST PUSH0 DUP3 MLOAD PUSH0 JUMPDEST DUP2 DUP2 LT ISZERO PUSH2 0x3F7 JUMPI PUSH1 0x20 DUP2 DUP7 ADD DUP2 ADD MLOAD DUP6 DUP4 ADD MSTORE ADD PUSH2 0x3DD JUMP JUMPDEST POP PUSH0 SWAP3 ADD SWAP2 DUP3 MSTORE POP SWAP2 SWAP1 POP JUMP INVALID LOG2 PUSH5 0x6970667358 0x22 SLT KECCAK256 0x1E DUP16 0xAA SWAP7 0xC7 0xDC PUSH13 0x8294633C62A9DC85C8573CA561 STATICCALL EXTCODEHASH 0xB3 PUSH10 0x8E0E8566D33283F36473 PUSH16 0x6C634300081400330000000000000000 "
				},
				"gasEstimates": {
					"creation": {
						"codeDepositCost": "216400",
						"executionCost": "24489",
						"totalCost": "240889"
					},
					"external": {
						"owner()": "2323",
						"safeTransfer(address,address,uint256)": "infinite",
						"setOwner(address)": "26685"
					}
				},
				"methodIdentifiers": {
					"owner()": "8da5cb5b",
					"safeTransfer(address,address,uint256)": "d1660f99",
					"setOwner(address)": "13af4035"
				}
			},
			"storageLayout": {
				"storage": [
					{
						"astId": 650,
						"contract": "NFT_dive_engine/testTransfer.sol:Bank",
						"label": "owner",
						"offset": 0,
						"slot": "0",
						"type": "t_address"
					}
				],
				"types": {
					"t_address": {
						"encoding": "inplace",
						"label": "address",
						"numberOfBytes": "20"
					}
				}
			},
			"userdoc": {
				"kind": "user",
				"methods": {},
				"version": 1
			}
		}
	}
}