{
	"data": {
		"bytecode": {
			"linkReferences": {},
			"object": "60a060405273c2132d05d31c914a87c6611c10748aeb04b58e8f60055f6101000a81548173ffffffffffffffffffffffffffffffffffffffff021916908373ffffffffffffffffffffffffffffffffffffffff160217905550733c499c542cef5e3811e1192ce70d8cc03d5c335960065f6101000a81548173ffffffffffffffffffffffffffffffffffffffff021916908373ffffffffffffffffffffffffffffffffffffffff1602179055505f60075f6101000a81548173ffffffffffffffffffffffffffffffffffffffff021916908373ffffffffffffffffffffffffffffffffffffffff1602179055505f60085f6101000a81548173ffffffffffffffffffffffffffffffffffffffff021916908373ffffffffffffffffffffffffffffffffffffffff1602179055506101ea60095560d2600a5561012c600b556001600d5534801561014d575f80fd5b50604051613692380380613692833981810160405281019061016f9190610387565b848073ffffffffffffffffffffffffffffffffffffffff1660808173ffffffffffffffffffffffffffffffffffffffff168152505050335f806101000a81548173ffffffffffffffffffffffffffffffffffffffff021916908373ffffffffffffffffffffffffffffffffffffffff1602179055508260025f6101000a81548173ffffffffffffffffffffffffffffffffffffffff021916908373ffffffffffffffffffffffffffffffffffffffff1602179055508160035f6101000a81548173ffffffffffffffffffffffffffffffffffffffff021916908373ffffffffffffffffffffffffffffffffffffffff1602179055508060015f6101000a81548173ffffffffffffffffffffffffffffffffffffffff021916908373ffffffffffffffffffffffffffffffffffffffff1602179055508360045f6101000a81548173ffffffffffffffffffffffffffffffffffffffff021916908373ffffffffffffffffffffffffffffffffffffffff16021790555050505050506103fe565b5f80fd5b5f73ffffffffffffffffffffffffffffffffffffffff82169050919050565b5f61031b826102f2565b9050919050565b61032b81610311565b8114610335575f80fd5b50565b5f8151905061034681610322565b92915050565b5f61035682610311565b9050919050565b6103668161034c565b8114610370575f80fd5b50565b5f815190506103818161035d565b92915050565b5f805f805f60a086880312156103a05761039f6102ee565b5b5f6103ad88828901610338565b95505060206103be88828901610373565b94505060406103cf88828901610338565b93505060606103e088828901610338565b92505060806103f188828901610338565b9150509295509295909350565b60805161327c6104165f395f611075015261327c5ff3fe608060405234801561000f575f80fd5b506004361061018c575f3560e01c80635b7633d0116100dc5780639f2585a111610095578063c46acff51161006f578063c46acff514610474578063cb14687914610492578063d1faf157146104ae578063d339db94146104cc5761018c565b80639f2585a1146103e0578063a85c38ef14610410578063bbb99baa146104445761018c565b80635b7633d01461032e578063845a51ec1461034c5780638b225f061461036a5780638c7c9e0c146103865780638da5cb5b146103a457806394dd453a146103c25761018c565b80633e413bee1161014957806356acfe291161012357806356acfe29146102aa578063572b6c05146102c657806358979bfe146102f65780635b65b9ab146103125761018c565b80633e413bee146102525780633fd0224114610270578063412753581461028c5761018c565b80630d3652ec14610190578063122c6fd7146101c057806314754e66146101dc5780632983a97c146101fa5780632a58b330146102165780632f48ab7d14610234575b5f80fd5b6101aa60048036038101906101a59190611ec7565b6104ea565b6040516101b79190611f28565b60405180910390f35b6101da60048036038101906101d59190611f9b565b610649565b005b6101e4610719565b6040516101f19190611fde565b60405180910390f35b610214600480360381019061020f9190612032565b61071f565b005b61021e6108b2565b60405161022b9190611fde565b60405180910390f35b61023c6108b8565b60405161024991906120f1565b60405180910390f35b61025a6108dd565b60405161026791906120f1565b60405180910390f35b61028a600480360381019061028591906121d2565b610902565b005b610294610f7d565b6040516102a191906122b6565b60405180910390f35b6102c460048036038101906102bf91906122cf565b610fa2565b005b6102e060048036038101906102db9190611f9b565b611072565b6040516102ed9190611f28565b60405180910390f35b610310600480360381019061030b9190611f9b565b6110c9565b005b61032c600480360381019061032791906122fa565b611199565b005b610336611240565b60405161034391906122b6565b60405180910390f35b610354611265565b60405161036191906122b6565b60405180910390f35b610384600480360381019061037f9190611f9b565b61128a565b005b61038e61135a565b60405161039b91906120f1565b60405180910390f35b6103ac61137f565b6040516103b991906122b6565b60405180910390f35b6103ca6113a2565b6040516103d791906120f1565b60405180910390f35b6103fa60048036038101906103f5919061237d565b6113c7565b60405161040791906122b6565b60405180910390f35b61042a600480360381019061042591906123d7565b611431565b60405161043b959493929190612462565b60405180910390f35b61045e600480360381019061045991906124ba565b611527565b60405161046b919061256e565b60405180910390f35b61047c6115ad565b60405161048991906125a7565b60405180910390f35b6104ac60048036038101906104a79190611f9b565b6115d2565b005b6104b66116a2565b6040516104c39190611fde565b60405180910390f35b6104d46116a8565b6040516104e19190611fde565b60405180910390f35b5f61052a826040518060400160405280600481526020017f75736474000000000000000000000000000000000000000000000000000000008152506116ae565b80610570575061056f826040518060400160405280600481526020017f75736463000000000000000000000000000000000000000000000000000000008152506116ae565b5b806105b657506105b5826040518060400160405280600381526020017f756d6900000000000000000000000000000000000000000000000000000000008152506116ae565b5b806105fc57506105fb826040518060400160405280600981526020017f64697665706f696e7400000000000000000000000000000000000000000000008152506116ae565b5b806106425750610641826040518060400160405280600381526020017f65746800000000000000000000000000000000000000000000000000000000008152506116ae565b5b9050919050565b5f8054906101000a900473ffffffffffffffffffffffffffffffffffffffff1673ffffffffffffffffffffffffffffffffffffffff163373ffffffffffffffffffffffffffffffffffffffff16146106d6576040517f08c379a00000000000000000000000000000000000000000000000000000000081526004016106cd90612630565b60405180910390fd5b8060085f6101000a81548173ffffffffffffffffffffffffffffffffffffffff021916908373ffffffffffffffffffffffffffffffffffffffff16021790555050565b600b5481565b5f8054906101000a900473ffffffffffffffffffffffffffffffffffffffff1673ffffffffffffffffffffffffffffffffffffffff163373ffffffffffffffffffffffffffffffffffffffff16146107ac576040517f08c379a00000000000000000000000000000000000000000000000000000000081526004016107a390612630565b60405180910390fd5b8260025f6101000a81548173ffffffffffffffffffffffffffffffffffffffff021916908373ffffffffffffffffffffffffffffffffffffffff1602179055508160035f6101000a81548173ffffffffffffffffffffffffffffffffffffffff021916908373ffffffffffffffffffffffffffffffffffffffff1602179055508060015f6101000a81548173ffffffffffffffffffffffffffffffffffffffff021916908373ffffffffffffffffffffffffffffffffffffffff1602179055508360045f6101000a81548173ffffffffffffffffffffffffffffffffffffffff021916908373ffffffffffffffffffffffffffffffffffffffff16021790555050505050565b600d5481565b60055f9054906101000a900473ffffffffffffffffffffffffffffffffffffffff1681565b60065f9054906101000a900473ffffffffffffffffffffffffffffffffffffffff1681565b61090b33611072565b61094a576040517f08c379a0000000000000000000000000000000000000000000000000000000008152600401610941906126be565b60405180910390fd5b5f73ffffffffffffffffffffffffffffffffffffffff168773ffffffffffffffffffffffffffffffffffffffff16036109b8576040517f08c379a00000000000000000000000000000000000000000000000000000000081526004016109af90612726565b60405180910390fd5b6109c787878787878787611706565b610a06576040517f08c379a00000000000000000000000000000000000000000000000000000000081526004016109fd9061278e565b60405180910390fd5b5f80851115610dfc57610a4e846040518060400160405280600481526020017f75736474000000000000000000000000000000000000000000000000000000008152506116ae565b15610b07575f73ffffffffffffffffffffffffffffffffffffffff1660055f9054906101000a900473ffffffffffffffffffffffffffffffffffffffff1673ffffffffffffffffffffffffffffffffffffffff1603610ae2576040517f08c379a0000000000000000000000000000000000000000000000000000000008152600401610ad9906127f6565b60405180910390fd5b60055f9054906101000a900473ffffffffffffffffffffffffffffffffffffffff1690505b610b46846040518060400160405280600481526020017f75736463000000000000000000000000000000000000000000000000000000008152506116ae565b15610bff575f73ffffffffffffffffffffffffffffffffffffffff1660065f9054906101000a900473ffffffffffffffffffffffffffffffffffffffff1673ffffffffffffffffffffffffffffffffffffffff1603610bda576040517f08c379a0000000000000000000000000000000000000000000000000000000008152600401610bd19061285e565b60405180910390fd5b60065f9054906101000a900473ffffffffffffffffffffffffffffffffffffffff1690505b610c3e846040518060400160405280600381526020017f65746800000000000000000000000000000000000000000000000000000000008152506116ae565b15610cf7575f73ffffffffffffffffffffffffffffffffffffffff1660085f9054906101000a900473ffffffffffffffffffffffffffffffffffffffff1673ffffffffffffffffffffffffffffffffffffffff1603610cd2576040517f08c379a0000000000000000000000000000000000000000000000000000000008152600401610cc9906128c6565b60405180910390fd5b60085f9054906101000a900473ffffffffffffffffffffffffffffffffffffffff1690505b610d36846040518060400160405280600381526020017f756d6900000000000000000000000000000000000000000000000000000000008152506116ae565b15610def575f73ffffffffffffffffffffffffffffffffffffffff1660075f9054906101000a900473ffffffffffffffffffffffffffffffffffffffff1673ffffffffffffffffffffffffffffffffffffffff1603610dca576040517f08c379a0000000000000000000000000000000000000000000000000000000008152600401610dc19061292e565b60405180910390fd5b60075f9054906101000a900473ffffffffffffffffffffffffffffffffffffffff1690505b610dfb818989886117d4565b5b6040518060a001604052808973ffffffffffffffffffffffffffffffffffffffff1681526020018873ffffffffffffffffffffffffffffffffffffffff16815260200186815260200185815260200184815250600c5f8881526020019081526020015f205f820151815f015f6101000a81548173ffffffffffffffffffffffffffffffffffffffff021916908373ffffffffffffffffffffffffffffffffffffffff1602179055506020820151816001015f6101000a81548173ffffffffffffffffffffffffffffffffffffffff021916908373ffffffffffffffffffffffffffffffffffffffff160217905550604082015181600201556060820151816003019081610f099190612b3d565b50608082015181600401559050506001600d5f828254610f299190612c39565b925050819055507f2268ab9b9320238677491b8b3a2649b4f67b116ad5040146bb337462a0d7041f88888888888888604051610f6b9796959493929190612cbe565b60405180910390a15050505050505050565b60025f9054906101000a900473ffffffffffffffffffffffffffffffffffffffff1681565b5f8054906101000a900473ffffffffffffffffffffffffffffffffffffffff1673ffffffffffffffffffffffffffffffffffffffff163373ffffffffffffffffffffffffffffffffffffffff161461102f576040517f08c379a000000000000000000000000000000000000000000000000000000000815260040161102690612630565b60405180910390fd5b8060045f6101000a81548173ffffffffffffffffffffffffffffffffffffffff021916908373ffffffffffffffffffffffffffffffffffffffff16021790555050565b5f7f000000000000000000000000000000000000000000000000000000000000000073ffffffffffffffffffffffffffffffffffffffff168273ffffffffffffffffffffffffffffffffffffffff16149050919050565b5f8054906101000a900473ffffffffffffffffffffffffffffffffffffffff1673ffffffffffffffffffffffffffffffffffffffff163373ffffffffffffffffffffffffffffffffffffffff1614611156576040517f08c379a000000000000000000000000000000000000000000000000000000000815260040161114d90612630565b60405180910390fd5b8060055f6101000a81548173ffffffffffffffffffffffffffffffffffffffff021916908373ffffffffffffffffffffffffffffffffffffffff16021790555050565b5f8054906101000a900473ffffffffffffffffffffffffffffffffffffffff1673ffffffffffffffffffffffffffffffffffffffff163373ffffffffffffffffffffffffffffffffffffffff1614611226576040517f08c379a000000000000000000000000000000000000000000000000000000000815260040161121d90612630565b60405180910390fd5b8260098190555081600a8190555080600b81905550505050565b60015f9054906101000a900473ffffffffffffffffffffffffffffffffffffffff1681565b60035f9054906101000a900473ffffffffffffffffffffffffffffffffffffffff1681565b5f8054906101000a900473ffffffffffffffffffffffffffffffffffffffff1673ffffffffffffffffffffffffffffffffffffffff163373ffffffffffffffffffffffffffffffffffffffff1614611317576040517f08c379a000000000000000000000000000000000000000000000000000000000815260040161130e90612630565b60405180910390fd5b8060075f6101000a81548173ffffffffffffffffffffffffffffffffffffffff021916908373ffffffffffffffffffffffffffffffffffffffff16021790555050565b60085f9054906101000a900473ffffffffffffffffffffffffffffffffffffffff1681565b5f8054906101000a900473ffffffffffffffffffffffffffffffffffffffff1681565b60075f9054906101000a900473ffffffffffffffffffffffffffffffffffffffff1681565b5f805f806113d485611b5b565b9250925092506001868285856040515f81526020016040526040516113fc9493929190612d54565b6020604051602081039080840390855afa15801561141c573d5f803e3d5ffd5b50505060206040510351935050505092915050565b600c602052805f5260405f205f91509050805f015f9054906101000a900473ffffffffffffffffffffffffffffffffffffffff1690806001015f9054906101000a900473ffffffffffffffffffffffffffffffffffffffff16908060020154908060030180546114a090612979565b80601f01602080910402602001604051908101604052809291908181526020018280546114cc90612979565b80156115175780601f106114ee57610100808354040283529160200191611517565b820191905f5260205f20905b8154815290600101906020018083116114fa57829003601f168201915b5050505050908060040154905085565b5f611531836104ea565b611570576040517f08c379a000000000000000000000000000000000000000000000000000000000815260040161156790612de1565b60405180910390fd5b86868686868660405160200161158b96959493929190612e9e565b6040516020818303038152906040528051906020012090509695505050505050565b60045f9054906101000a900473ffffffffffffffffffffffffffffffffffffffff1681565b5f8054906101000a900473ffffffffffffffffffffffffffffffffffffffff1673ffffffffffffffffffffffffffffffffffffffff163373ffffffffffffffffffffffffffffffffffffffff161461165f576040517f08c379a000000000000000000000000000000000000000000000000000000000815260040161165690612630565b60405180910390fd5b8060065f6101000a81548173ffffffffffffffffffffffffffffffffffffffff021916908373ffffffffffffffffffffffffffffffffffffffff16021790555050565b60095481565b600a5481565b5f816040516020016116c09190612f09565b60405160208183030381529060405280519060200120836040516020016116e79190612f09565b6040516020818303038152906040528051906020012014905092915050565b5f611710846104ea565b61174f576040517f08c379a000000000000000000000000000000000000000000000000000000000815260040161174690612de1565b60405180910390fd5b5f61175e898989898989611527565b90505f61176a82611bc0565b905060015f9054906101000a900473ffffffffffffffffffffffffffffffffffffffff1673ffffffffffffffffffffffffffffffffffffffff166117ae8286611bef565b73ffffffffffffffffffffffffffffffffffffffff161492505050979650505050505050565b5f805f8673ffffffffffffffffffffffffffffffffffffffff166323b872dd8730876040518463ffffffff1660e01b815260040161181493929190612f1f565b6020604051808303815f875af1158015611830573d5f803e3d5ffd5b505050506040513d601f19601f820116820180604052508101906118549190612f7e565b5061187e6103e861187060095487611c5990919063ffffffff16565b611cd090919063ffffffff16565b92506118a96103e861189b600a5487611c5990919063ffffffff16565b611cd090919063ffffffff16565b91506118d46103e86118c6600b5487611c5990919063ffffffff16565b611cd090919063ffffffff16565b90505f818385876118e59190612fa9565b6118ef9190612fa9565b6118f99190612fa9565b90505f841115611980578773ffffffffffffffffffffffffffffffffffffffff1663a9059cbb87866040518363ffffffff1660e01b815260040161193e929190612fdc565b6020604051808303815f875af115801561195a573d5f803e3d5ffd5b505050506040513d601f19601f8201168201806040525081019061197e9190612f7e565b505b5f831115611a26578773ffffffffffffffffffffffffffffffffffffffff1663a9059cbb60025f9054906101000a900473ffffffffffffffffffffffffffffffffffffffff16856040518363ffffffff1660e01b81526004016119e4929190612fdc565b6020604051808303815f875af1158015611a00573d5f803e3d5ffd5b505050506040513d601f19601f82011682018060405250810190611a249190612f7e565b505b5f821115611acc578773ffffffffffffffffffffffffffffffffffffffff1663a9059cbb60035f9054906101000a900473ffffffffffffffffffffffffffffffffffffffff16846040518363ffffffff1660e01b8152600401611a8a929190612fdc565b6020604051808303815f875af1158015611aa6573d5f803e3d5ffd5b505050506040513d601f19601f82011682018060405250810190611aca9190612f7e565b505b5f811115611b51578773ffffffffffffffffffffffffffffffffffffffff1663a9059cbb87836040518363ffffffff1660e01b8152600401611b0f929190612fdc565b6020604051808303815f875af1158015611b2b573d5f803e3d5ffd5b505050506040513d601f19601f82011682018060405250810190611b4f9190612f7e565b505b5050505050505050565b5f805f6041845114611ba2576040517f08c379a0000000000000000000000000000000000000000000000000000000008152600401611b999061304d565b60405180910390fd5b602084015192506040840151915060608401515f1a90509193909250565b5f81604051602001611bd291906130d5565b604051602081830303815290604052805190602001209050919050565b5f805f80611bfc85611b5b565b9250925092506001868285856040515f8152602001604052604051611c249493929190612d54565b6020604051602081039080840390855afa158015611c44573d5f803e3d5ffd5b50505060206040510351935050505092915050565b5f808303611c69575f9050611cca565b5f8284611c7691906130fa565b9050828482611c859190613168565b14611cc5576040517f08c379a0000000000000000000000000000000000000000000000000000000008152600401611cbc90613208565b60405180910390fd5b809150505b92915050565b5f611d1183836040518060400160405280601a81526020017f536166654d6174683a206469766973696f6e206279207a65726f000000000000815250611d19565b905092915050565b5f8083118290611d5f576040517f08c379a0000000000000000000000000000000000000000000000000000000008152600401611d569190613226565b60405180910390fd5b505f8385611d6d9190613168565b9050809150509392505050565b5f604051905090565b5f80fd5b5f80fd5b5f80fd5b5f80fd5b5f601f19601f8301169050919050565b7f4e487b71000000000000000000000000000000000000000000000000000000005f52604160045260245ffd5b611dd982611d93565b810181811067ffffffffffffffff82111715611df857611df7611da3565b5b80604052505050565b5f611e0a611d7a565b9050611e168282611dd0565b919050565b5f67ffffffffffffffff821115611e3557611e34611da3565b5b611e3e82611d93565b9050602081019050919050565b828183375f83830152505050565b5f611e6b611e6684611e1b565b611e01565b905082815260208101848484011115611e8757611e86611d8f565b5b611e92848285611e4b565b509392505050565b5f82601f830112611eae57611ead611d8b565b5b8135611ebe848260208601611e59565b91505092915050565b5f60208284031215611edc57611edb611d83565b5b5f82013567ffffffffffffffff811115611ef957611ef8611d87565b5b611f0584828501611e9a565b91505092915050565b5f8115159050919050565b611f2281611f0e565b82525050565b5f602082019050611f3b5f830184611f19565b92915050565b5f73ffffffffffffffffffffffffffffffffffffffff82169050919050565b5f611f6a82611f41565b9050919050565b611f7a81611f60565b8114611f84575f80fd5b50565b5f81359050611f9581611f71565b92915050565b5f60208284031215611fb057611faf611d83565b5b5f611fbd84828501611f87565b91505092915050565b5f819050919050565b611fd881611fc6565b82525050565b5f602082019050611ff15f830184611fcf565b92915050565b5f61200182611f60565b9050919050565b61201181611ff7565b811461201b575f80fd5b50565b5f8135905061202c81612008565b92915050565b5f805f806080858703121561204a57612049611d83565b5b5f6120578782880161201e565b945050602061206887828801611f87565b935050604061207987828801611f87565b925050606061208a87828801611f87565b91505092959194509250565b5f819050919050565b5f6120b96120b46120af84611f41565b612096565b611f41565b9050919050565b5f6120ca8261209f565b9050919050565b5f6120db826120c0565b9050919050565b6120eb816120d1565b82525050565b5f6020820190506121045f8301846120e2565b92915050565b61211381611fc6565b811461211d575f80fd5b50565b5f8135905061212e8161210a565b92915050565b5f67ffffffffffffffff82111561214e5761214d611da3565b5b61215782611d93565b9050602081019050919050565b5f61217661217184612134565b611e01565b90508281526020810184848401111561219257612191611d8f565b5b61219d848285611e4b565b509392505050565b5f82601f8301126121b9576121b8611d8b565b5b81356121c9848260208601612164565b91505092915050565b5f805f805f805f60e0888a0312156121ed576121ec611d83565b5b5f6121fa8a828b01611f87565b975050602061220b8a828b01611f87565b965050604061221c8a828b01612120565b955050606061222d8a828b01612120565b945050608088013567ffffffffffffffff81111561224e5761224d611d87565b5b61225a8a828b01611e9a565b93505060a061226b8a828b01612120565b92505060c088013567ffffffffffffffff81111561228c5761228b611d87565b5b6122988a828b016121a5565b91505092959891949750929550565b6122b081611f60565b82525050565b5f6020820190506122c95f8301846122a7565b92915050565b5f602082840312156122e4576122e3611d83565b5b5f6122f18482850161201e565b91505092915050565b5f805f6060848603121561231157612310611d83565b5b5f61231e86828701612120565b935050602061232f86828701612120565b925050604061234086828701612120565b9150509250925092565b5f819050919050565b61235c8161234a565b8114612366575f80fd5b50565b5f8135905061237781612353565b92915050565b5f806040838503121561239357612392611d83565b5b5f6123a085828601612369565b925050602083013567ffffffffffffffff8111156123c1576123c0611d87565b5b6123cd858286016121a5565b9150509250929050565b5f602082840312156123ec576123eb611d83565b5b5f6123f984828501612120565b91505092915050565b5f81519050919050565b5f82825260208201905092915050565b8281835e5f83830152505050565b5f61243482612402565b61243e818561240c565b935061244e81856020860161241c565b61245781611d93565b840191505092915050565b5f60a0820190506124755f8301886122a7565b61248260208301876122a7565b61248f6040830186611fcf565b81810360608301526124a1818561242a565b90506124b06080830184611fcf565b9695505050505050565b5f805f805f8060c087890312156124d4576124d3611d83565b5b5f6124e189828a01611f87565b96505060206124f289828a01611f87565b955050604061250389828a01612120565b945050606061251489828a01612120565b935050608087013567ffffffffffffffff81111561253557612534611d87565b5b61254189828a01611e9a565b92505060a061255289828a01612120565b9150509295509295509295565b6125688161234a565b82525050565b5f6020820190506125815f83018461255f565b92915050565b5f612591826120c0565b9050919050565b6125a181612587565b82525050565b5f6020820190506125ba5f830184612598565b92915050565b7f4f6e6c79206f776e65722063616e2063616c6c20746869732066756e6374696f5f8201527f6e00000000000000000000000000000000000000000000000000000000000000602082015250565b5f61261a60218361240c565b9150612625826125c0565b604082019050919050565b5f6020820190508181035f8301526126478161260e565b9050919050565b7f4f6e6c792063616c6c61626c65206279205472757374656420466f72776172645f8201527f6572000000000000000000000000000000000000000000000000000000000000602082015250565b5f6126a860228361240c565b91506126b38261264e565b604082019050919050565b5f6020820190508181035f8301526126d58161269c565b9050919050565b7f43563a20627579657220746f20746865207a65726f20616464726573730000005f82015250565b5f612710601d8361240c565b915061271b826126dc565b602082019050919050565b5f6020820190508181035f83015261273d81612704565b9050919050565b7f43563a20696e76616c6964205f7369676e6174757265000000000000000000005f82015250565b5f61277860168361240c565b915061278382612744565b602082019050919050565b5f6020820190508181035f8301526127a58161276c565b9050919050565b7f757364742061646472657373206e6f7420636f6e6669670000000000000000005f82015250565b5f6127e060178361240c565b91506127eb826127ac565b602082019050919050565b5f6020820190508181035f83015261280d816127d4565b9050919050565b7f757364632061646472657373206e6f7420636f6e6669670000000000000000005f82015250565b5f61284860178361240c565b915061285382612814565b602082019050919050565b5f6020820190508181035f8301526128758161283c565b9050919050565b7f6574682061646472657373206e6f7420636f6e666967000000000000000000005f82015250565b5f6128b060168361240c565b91506128bb8261287c565b602082019050919050565b5f6020820190508181035f8301526128dd816128a4565b9050919050565b7f756d692061646472657373206e6f7420636f6e666967000000000000000000005f82015250565b5f61291860168361240c565b9150612923826128e4565b602082019050919050565b5f6020820190508181035f8301526129458161290c565b9050919050565b7f4e487b71000000000000000000000000000000000000000000000000000000005f52602260045260245ffd5b5f600282049050600182168061299057607f821691505b6020821081036129a3576129a261294c565b5b50919050565b5f819050815f5260205f209050919050565b5f6020601f8301049050919050565b5f82821b905092915050565b5f60088302612a057fffffffffffffffffffffffffffffffffffffffffffffffffffffffffffffffff826129ca565b612a0f86836129ca565b95508019841693508086168417925050509392505050565b5f612a41612a3c612a3784611fc6565b612096565b611fc6565b9050919050565b5f819050919050565b612a5a83612a27565b612a6e612a6682612a48565b8484546129d6565b825550505050565b5f90565b612a82612a76565b612a8d818484612a51565b505050565b5b81811015612ab057612aa55f82612a7a565b600181019050612a93565b5050565b601f821115612af557612ac6816129a9565b612acf846129bb565b81016020851015612ade578190505b612af2612aea856129bb565b830182612a92565b50505b505050565b5f82821c905092915050565b5f612b155f1984600802612afa565b1980831691505092915050565b5f612b2d8383612b06565b9150826002028217905092915050565b612b4682612402565b67ffffffffffffffff811115612b5f57612b5e611da3565b5b612b698254612979565b612b74828285612ab4565b5f60209050601f831160018114612ba5575f8415612b93578287015190505b612b9d8582612b22565b865550612c04565b601f198416612bb3866129a9565b5f5b82811015612bda57848901518255600182019150602085019450602081019050612bb5565b86831015612bf75784890151612bf3601f891682612b06565b8355505b6001600288020188555050505b505050505050565b7f4e487b71000000000000000000000000000000000000000000000000000000005f52601160045260245ffd5b5f612c4382611fc6565b9150612c4e83611fc6565b9250828201905080821115612c6657612c65612c0c565b5b92915050565b5f81519050919050565b5f82825260208201905092915050565b5f612c9082612c6c565b612c9a8185612c76565b9350612caa81856020860161241c565b612cb381611d93565b840191505092915050565b5f60e082019050612cd15f83018a6122a7565b612cde60208301896122a7565b612ceb6040830188611fcf565b612cf86060830187611fcf565b8181036080830152612d0a818661242a565b9050612d1960a0830185611fcf565b81810360c0830152612d2b8184612c86565b905098975050505050505050565b5f60ff82169050919050565b612d4e81612d39565b82525050565b5f608082019050612d675f83018761255f565b612d746020830186612d45565b612d81604083018561255f565b612d8e606083018461255f565b95945050505050565b7f746f6b656e206e6f7420737570706f72740000000000000000000000000000005f82015250565b5f612dcb60118361240c565b9150612dd682612d97565b602082019050919050565b5f6020820190508181035f830152612df881612dbf565b9050919050565b5f8160601b9050919050565b5f612e1582612dff565b9050919050565b5f612e2682612e0b565b9050919050565b612e3e612e3982611f60565b612e1c565b82525050565b5f819050919050565b612e5e612e5982611fc6565b612e44565b82525050565b5f81905092915050565b5f612e7882612402565b612e828185612e64565b9350612e9281856020860161241c565b80840191505092915050565b5f612ea98289612e2d565b601482019150612eb98288612e2d565b601482019150612ec98287612e4d565b602082019150612ed98286612e4d565b602082019150612ee98285612e6e565b9150612ef58284612e4d565b602082019150819050979650505050505050565b5f612f148284612e6e565b915081905092915050565b5f606082019050612f325f8301866122a7565b612f3f60208301856122a7565b612f4c6040830184611fcf565b949350505050565b612f5d81611f0e565b8114612f67575f80fd5b50565b5f81519050612f7881612f54565b92915050565b5f60208284031215612f9357612f92611d83565b5b5f612fa084828501612f6a565b91505092915050565b5f612fb382611fc6565b9150612fbe83611fc6565b9250828203905081811115612fd657612fd5612c0c565b5b92915050565b5f604082019050612fef5f8301856122a7565b612ffc6020830184611fcf565b9392505050565b7f696e76616c6964207369676e6174757265206c656e67746800000000000000005f82015250565b5f61303760188361240c565b915061304282613003565b602082019050919050565b5f6020820190508181035f8301526130648161302b565b9050919050565b7f19457468657265756d205369676e6564204d6573736167653a0a3332000000005f82015250565b5f61309f601c83612e64565b91506130aa8261306b565b601c82019050919050565b5f819050919050565b6130cf6130ca8261234a565b6130b5565b82525050565b5f6130df82613093565b91506130eb82846130be565b60208201915081905092915050565b5f61310482611fc6565b915061310f83611fc6565b925082820261311d81611fc6565b9150828204841483151761313457613133612c0c565b5b5092915050565b7f4e487b71000000000000000000000000000000000000000000000000000000005f52601260045260245ffd5b5f61317282611fc6565b915061317d83611fc6565b92508261318d5761318c61313b565b5b828204905092915050565b7f536166654d6174683a206d756c7469706c69636174696f6e206f766572666c6f5f8201527f7700000000000000000000000000000000000000000000000000000000000000602082015250565b5f6131f260218361240c565b91506131fd82613198565b604082019050919050565b5f6020820190508181035f83015261321f816131e6565b9050919050565b5f6020820190508181035f83015261323e818461242a565b90509291505056fea2646970667358221220a48f5d2ac7eaa9e4488001e27ce510c18b1ce8fdfb129d95c34872a0aa21f61764736f6c63430008190033",
			"opcodes": "PUSH1 0xA0 PUSH1 0x40 MSTORE PUSH20 0xC2132D05D31C914A87C6611C10748AEB04B58E8F PUSH1 0x5 PUSH0 PUSH2 0x100 EXP DUP2 SLOAD DUP2 PUSH20 0xFFFFFFFFFFFFFFFFFFFFFFFFFFFFFFFFFFFFFFFF MUL NOT AND SWAP1 DUP4 PUSH20 0xFFFFFFFFFFFFFFFFFFFFFFFFFFFFFFFFFFFFFFFF AND MUL OR SWAP1 SSTORE POP PUSH20 0x3C499C542CEF5E3811E1192CE70D8CC03D5C3359 PUSH1 0x6 PUSH0 PUSH2 0x100 EXP DUP2 SLOAD DUP2 PUSH20 0xFFFFFFFFFFFFFFFFFFFFFFFFFFFFFFFFFFFFFFFF MUL NOT AND SWAP1 DUP4 PUSH20 0xFFFFFFFFFFFFFFFFFFFFFFFFFFFFFFFFFFFFFFFF AND MUL OR SWAP1 SSTORE POP PUSH0 PUSH1 0x7 PUSH0 PUSH2 0x100 EXP DUP2 SLOAD DUP2 PUSH20 0xFFFFFFFFFFFFFFFFFFFFFFFFFFFFFFFFFFFFFFFF MUL NOT AND SWAP1 DUP4 PUSH20 0xFFFFFFFFFFFFFFFFFFFFFFFFFFFFFFFFFFFFFFFF AND MUL OR SWAP1 SSTORE POP PUSH0 PUSH1 0x8 PUSH0 PUSH2 0x100 EXP DUP2 SLOAD DUP2 PUSH20 0xFFFFFFFFFFFFFFFFFFFFFFFFFFFFFFFFFFFFFFFF MUL NOT AND SWAP1 DUP4 PUSH20 0xFFFFFFFFFFFFFFFFFFFFFFFFFFFFFFFFFFFFFFFF AND MUL OR SWAP1 SSTORE POP PUSH2 0x1EA PUSH1 0x9 SSTORE PUSH1 0xD2 PUSH1 0xA SSTORE PUSH2 0x12C PUSH1 0xB SSTORE PUSH1 0x1 PUSH1 0xD SSTORE CALLVALUE DUP1 ISZERO PUSH2 0x14D JUMPI PUSH0 DUP1 REVERT JUMPDEST POP PUSH1 0x40 MLOAD PUSH2 0x3692 CODESIZE SUB DUP1 PUSH2 0x3692 DUP4 CODECOPY DUP2 DUP2 ADD PUSH1 0x40 MSTORE DUP2 ADD SWAP1 PUSH2 0x16F SWAP2 SWAP1 PUSH2 0x387 JUMP JUMPDEST DUP5 DUP1 PUSH20 0xFFFFFFFFFFFFFFFFFFFFFFFFFFFFFFFFFFFFFFFF AND PUSH1 0x80 DUP2 PUSH20 0xFFFFFFFFFFFFFFFFFFFFFFFFFFFFFFFFFFFFFFFF AND DUP2 MSTORE POP POP POP CALLER PUSH0 DUP1 PUSH2 0x100 EXP DUP2 SLOAD DUP2 PUSH20 0xFFFFFFFFFFFFFFFFFFFFFFFFFFFFFFFFFFFFFFFF MUL NOT AND SWAP1 DUP4 PUSH20 0xFFFFFFFFFFFFFFFFFFFFFFFFFFFFFFFFFFFFFFFF AND MUL OR SWAP1 SSTORE POP DUP3 PUSH1 0x2 PUSH0 PUSH2 0x100 EXP DUP2 SLOAD DUP2 PUSH20 0xFFFFFFFFFFFFFFFFFFFFFFFFFFFFFFFFFFFFFFFF MUL NOT AND SWAP1 DUP4 PUSH20 0xFFFFFFFFFFFFFFFFFFFFFFFFFFFFFFFFFFFFFFFF AND MUL OR SWAP1 SSTORE POP DUP2 PUSH1 0x3 PUSH0 PUSH2 0x100 EXP DUP2 SLOAD DUP2 PUSH20 0xFFFFFFFFFFFFFFFFFFFFFFFFFFFFFFFFFFFFFFFF MUL NOT AND SWAP1 DUP4 PUSH20 0xFFFFFFFFFFFFFFFFFFFFFFFFFFFFFFFFFFFFFFFF AND MUL OR SWAP1 SSTORE POP DUP1 PUSH1 0x1 PUSH0 PUSH2 0x100 EXP DUP2 SLOAD DUP2 PUSH20 0xFFFFFFFFFFFFFFFFFFFFFFFFFFFFFFFFFFFFFFFF MUL NOT AND SWAP1 DUP4 PUSH20 0xFFFFFFFFFFFFFFFFFFFFFFFFFFFFFFFFFFFFFFFF AND MUL OR SWAP1 SSTORE POP DUP4 PUSH1 0x4 PUSH0 PUSH2 0x100 EXP DUP2 SLOAD DUP2 PUSH20 0xFFFFFFFFFFFFFFFFFFFFFFFFFFFFFFFFFFFFFFFF MUL NOT AND SWAP1 DUP4 PUSH20 0xFFFFFFFFFFFFFFFFFFFFFFFFFFFFFFFFFFFFFFFF AND MUL OR SWAP1 SSTORE POP POP POP POP POP POP PUSH2 0x3FE JUMP JUMPDEST PUSH0 DUP1 REVERT JUMPDEST PUSH0 PUSH20 0xFFFFFFFFFFFFFFFFFFFFFFFFFFFFFFFFFFFFFFFF DUP3 AND SWAP1 POP SWAP2 SWAP1 POP JUMP JUMPDEST PUSH0 PUSH2 0x31B DUP3 PUSH2 0x2F2 JUMP JUMPDEST SWAP1 POP SWAP2 SWAP1 POP JUMP JUMPDEST PUSH2 0x32B DUP2 PUSH2 0x311 JUMP JUMPDEST DUP2 EQ PUSH2 0x335 JUMPI PUSH0 DUP1 REVERT JUMPDEST POP JUMP JUMPDEST PUSH0 DUP2 MLOAD SWAP1 POP PUSH2 0x346 DUP2 PUSH2 0x322 JUMP JUMPDEST SWAP3 SWAP2 POP POP JUMP JUMPDEST PUSH0 PUSH2 0x356 DUP3 PUSH2 0x311 JUMP JUMPDEST SWAP1 POP SWAP2 SWAP1 POP JUMP JUMPDEST PUSH2 0x366 DUP2 PUSH2 0x34C JUMP JUMPDEST DUP2 EQ PUSH2 0x370 JUMPI PUSH0 DUP1 REVERT JUMPDEST POP JUMP JUMPDEST PUSH0 DUP2 MLOAD SWAP1 POP PUSH2 0x381 DUP2 PUSH2 0x35D JUMP JUMPDEST SWAP3 SWAP2 POP POP JUMP JUMPDEST PUSH0 DUP1 PUSH0 DUP1 PUSH0 PUSH1 0xA0 DUP7 DUP9 SUB SLT ISZERO PUSH2 0x3A0 JUMPI PUSH2 0x39F PUSH2 0x2EE JUMP JUMPDEST JUMPDEST PUSH0 PUSH2 0x3AD DUP9 DUP3 DUP10 ADD PUSH2 0x338 JUMP JUMPDEST SWAP6 POP POP PUSH1 0x20 PUSH2 0x3BE DUP9 DUP3 DUP10 ADD PUSH2 0x373 JUMP JUMPDEST SWAP5 POP POP PUSH1 0x40 PUSH2 0x3CF DUP9 DUP3 DUP10 ADD PUSH2 0x338 JUMP JUMPDEST SWAP4 POP POP PUSH1 0x60 PUSH2 0x3E0 DUP9 DUP3 DUP10 ADD PUSH2 0x338 JUMP JUMPDEST SWAP3 POP POP PUSH1 0x80 PUSH2 0x3F1 DUP9 DUP3 DUP10 ADD PUSH2 0x338 JUMP JUMPDEST SWAP2 POP POP SWAP3 SWAP6 POP SWAP3 SWAP6 SWAP1 SWAP4 POP JUMP JUMPDEST PUSH1 0x80 MLOAD PUSH2 0x327C PUSH2 0x416 PUSH0 CODECOPY PUSH0 PUSH2 0x1075 ADD MSTORE PUSH2 0x327C PUSH0 RETURN INVALID PUSH1 0x80 PUSH1 0x40 MSTORE CALLVALUE DUP1 ISZERO PUSH2 0xF JUMPI PUSH0 DUP1 REVERT JUMPDEST POP PUSH1 0x4 CALLDATASIZE LT PUSH2 0x18C JUMPI PUSH0 CALLDATALOAD PUSH1 0xE0 SHR DUP1 PUSH4 0x5B7633D0 GT PUSH2 0xDC JUMPI DUP1 PUSH4 0x9F2585A1 GT PUSH2 0x95 JUMPI DUP1 PUSH4 0xC46ACFF5 GT PUSH2 0x6F JUMPI DUP1 PUSH4 0xC46ACFF5 EQ PUSH2 0x474 JUMPI DUP1 PUSH4 0xCB146879 EQ PUSH2 0x492 JUMPI DUP1 PUSH4 0xD1FAF157 EQ PUSH2 0x4AE JUMPI DUP1 PUSH4 0xD339DB94 EQ PUSH2 0x4CC JUMPI PUSH2 0x18C JUMP JUMPDEST DUP1 PUSH4 0x9F2585A1 EQ PUSH2 0x3E0 JUMPI DUP1 PUSH4 0xA85C38EF EQ PUSH2 0x410 JUMPI DUP1 PUSH4 0xBBB99BAA EQ PUSH2 0x444 JUMPI PUSH2 0x18C JUMP JUMPDEST DUP1 PUSH4 0x5B7633D0 EQ PUSH2 0x32E JUMPI DUP1 PUSH4 0x845A51EC EQ PUSH2 0x34C JUMPI DUP1 PUSH4 0x8B225F06 EQ PUSH2 0x36A JUMPI DUP1 PUSH4 0x8C7C9E0C EQ PUSH2 0x386 JUMPI DUP1 PUSH4 0x8DA5CB5B EQ PUSH2 0x3A4 JUMPI DUP1 PUSH4 0x94DD453A EQ PUSH2 0x3C2 JUMPI PUSH2 0x18C JUMP JUMPDEST DUP1 PUSH4 0x3E413BEE GT PUSH2 0x149 JUMPI DUP1 PUSH4 0x56ACFE29 GT PUSH2 0x123 JUMPI DUP1 PUSH4 0x56ACFE29 EQ PUSH2 0x2AA JUMPI DUP1 PUSH4 0x572B6C05 EQ PUSH2 0x2C6 JUMPI DUP1 PUSH4 0x58979BFE EQ PUSH2 0x2F6 JUMPI DUP1 PUSH4 0x5B65B9AB EQ PUSH2 0x312 JUMPI PUSH2 0x18C JUMP JUMPDEST DUP1 PUSH4 0x3E413BEE EQ PUSH2 0x252 JUMPI DUP1 PUSH4 0x3FD02241 EQ PUSH2 0x270 JUMPI DUP1 PUSH4 0x41275358 EQ PUSH2 0x28C JUMPI PUSH2 0x18C JUMP JUMPDEST DUP1 PUSH4 0xD3652EC EQ PUSH2 0x190 JUMPI DUP1 PUSH4 0x122C6FD7 EQ PUSH2 0x1C0 JUMPI DUP1 PUSH4 0x14754E66 EQ PUSH2 0x1DC JUMPI DUP1 PUSH4 0x2983A97C EQ PUSH2 0x1FA JUMPI DUP1 PUSH4 0x2A58B330 EQ PUSH2 0x216 JUMPI DUP1 PUSH4 0x2F48AB7D EQ PUSH2 0x234 JUMPI JUMPDEST PUSH0 DUP1 REVERT JUMPDEST PUSH2 0x1AA PUSH1 0x4 DUP1 CALLDATASIZE SUB DUP2 ADD SWAP1 PUSH2 0x1A5 SWAP2 SWAP1 PUSH2 0x1EC7 JUMP JUMPDEST PUSH2 0x4EA JUMP JUMPDEST PUSH1 0x40 MLOAD PUSH2 0x1B7 SWAP2 SWAP1 PUSH2 0x1F28 JUMP JUMPDEST PUSH1 0x40 MLOAD DUP1 SWAP2 SUB SWAP1 RETURN JUMPDEST PUSH2 0x1DA PUSH1 0x4 DUP1 CALLDATASIZE SUB DUP2 ADD SWAP1 PUSH2 0x1D5 SWAP2 SWAP1 PUSH2 0x1F9B JUMP JUMPDEST PUSH2 0x649 JUMP JUMPDEST STOP JUMPDEST PUSH2 0x1E4 PUSH2 0x719 JUMP JUMPDEST PUSH1 0x40 MLOAD PUSH2 0x1F1 SWAP2 SWAP1 PUSH2 0x1FDE JUMP JUMPDEST PUSH1 0x40 MLOAD DUP1 SWAP2 SUB SWAP1 RETURN JUMPDEST PUSH2 0x214 PUSH1 0x4 DUP1 CALLDATASIZE SUB DUP2 ADD SWAP1 PUSH2 0x20F SWAP2 SWAP1 PUSH2 0x2032 JUMP JUMPDEST PUSH2 0x71F JUMP JUMPDEST STOP JUMPDEST PUSH2 0x21E PUSH2 0x8B2 JUMP JUMPDEST PUSH1 0x40 MLOAD PUSH2 0x22B SWAP2 SWAP1 PUSH2 0x1FDE JUMP JUMPDEST PUSH1 0x40 MLOAD DUP1 SWAP2 SUB SWAP1 RETURN JUMPDEST PUSH2 0x23C PUSH2 0x8B8 JUMP JUMPDEST PUSH1 0x40 MLOAD PUSH2 0x249 SWAP2 SWAP1 PUSH2 0x20F1 JUMP JUMPDEST PUSH1 0x40 MLOAD DUP1 SWAP2 SUB SWAP1 RETURN JUMPDEST PUSH2 0x25A PUSH2 0x8DD JUMP JUMPDEST PUSH1 0x40 MLOAD PUSH2 0x267 SWAP2 SWAP1 PUSH2 0x20F1 JUMP JUMPDEST PUSH1 0x40 MLOAD DUP1 SWAP2 SUB SWAP1 RETURN JUMPDEST PUSH2 0x28A PUSH1 0x4 DUP1 CALLDATASIZE SUB DUP2 ADD SWAP1 PUSH2 0x285 SWAP2 SWAP1 PUSH2 0x21D2 JUMP JUMPDEST PUSH2 0x902 JUMP JUMPDEST STOP JUMPDEST PUSH2 0x294 PUSH2 0xF7D JUMP JUMPDEST PUSH1 0x40 MLOAD PUSH2 0x2A1 SWAP2 SWAP1 PUSH2 0x22B6 JUMP JUMPDEST PUSH1 0x40 MLOAD DUP1 SWAP2 SUB SWAP1 RETURN JUMPDEST PUSH2 0x2C4 PUSH1 0x4 DUP1 CALLDATASIZE SUB DUP2 ADD SWAP1 PUSH2 0x2BF SWAP2 SWAP1 PUSH2 0x22CF JUMP JUMPDEST PUSH2 0xFA2 JUMP JUMPDEST STOP JUMPDEST PUSH2 0x2E0 PUSH1 0x4 DUP1 CALLDATASIZE SUB DUP2 ADD SWAP1 PUSH2 0x2DB SWAP2 SWAP1 PUSH2 0x1F9B JUMP JUMPDEST PUSH2 0x1072 JUMP JUMPDEST PUSH1 0x40 MLOAD PUSH2 0x2ED SWAP2 SWAP1 PUSH2 0x1F28 JUMP JUMPDEST PUSH1 0x40 MLOAD DUP1 SWAP2 SUB SWAP1 RETURN JUMPDEST PUSH2 0x310 PUSH1 0x4 DUP1 CALLDATASIZE SUB DUP2 ADD SWAP1 PUSH2 0x30B SWAP2 SWAP1 PUSH2 0x1F9B JUMP JUMPDEST PUSH2 0x10C9 JUMP JUMPDEST STOP JUMPDEST PUSH2 0x32C PUSH1 0x4 DUP1 CALLDATASIZE SUB DUP2 ADD SWAP1 PUSH2 0x327 SWAP2 SWAP1 PUSH2 0x22FA JUMP JUMPDEST PUSH2 0x1199 JUMP JUMPDEST STOP JUMPDEST PUSH2 0x336 PUSH2 0x1240 JUMP JUMPDEST PUSH1 0x40 MLOAD PUSH2 0x343 SWAP2 SWAP1 PUSH2 0x22B6 JUMP JUMPDEST PUSH1 0x40 MLOAD DUP1 SWAP2 SUB SWAP1 RETURN JUMPDEST PUSH2 0x354 PUSH2 0x1265 JUMP JUMPDEST PUSH1 0x40 MLOAD PUSH2 0x361 SWAP2 SWAP1 PUSH2 0x22B6 JUMP JUMPDEST PUSH1 0x40 MLOAD DUP1 SWAP2 SUB SWAP1 RETURN JUMPDEST PUSH2 0x384 PUSH1 0x4 DUP1 CALLDATASIZE SUB DUP2 ADD SWAP1 PUSH2 0x37F SWAP2 SWAP1 PUSH2 0x1F9B JUMP JUMPDEST PUSH2 0x128A JUMP JUMPDEST STOP JUMPDEST PUSH2 0x38E PUSH2 0x135A JUMP JUMPDEST PUSH1 0x40 MLOAD PUSH2 0x39B SWAP2 SWAP1 PUSH2 0x20F1 JUMP JUMPDEST PUSH1 0x40 MLOAD DUP1 SWAP2 SUB SWAP1 RETURN JUMPDEST PUSH2 0x3AC PUSH2 0x137F JUMP JUMPDEST PUSH1 0x40 MLOAD PUSH2 0x3B9 SWAP2 SWAP1 PUSH2 0x22B6 JUMP JUMPDEST PUSH1 0x40 MLOAD DUP1 SWAP2 SUB SWAP1 RETURN JUMPDEST PUSH2 0x3CA PUSH2 0x13A2 JUMP JUMPDEST PUSH1 0x40 MLOAD PUSH2 0x3D7 SWAP2 SWAP1 PUSH2 0x20F1 JUMP JUMPDEST PUSH1 0x40 MLOAD DUP1 SWAP2 SUB SWAP1 RETURN JUMPDEST PUSH2 0x3FA PUSH1 0x4 DUP1 CALLDATASIZE SUB DUP2 ADD SWAP1 PUSH2 0x3F5 SWAP2 SWAP1 PUSH2 0x237D JUMP JUMPDEST PUSH2 0x13C7 JUMP JUMPDEST PUSH1 0x40 MLOAD PUSH2 0x407 SWAP2 SWAP1 PUSH2 0x22B6 JUMP JUMPDEST PUSH1 0x40 MLOAD DUP1 SWAP2 SUB SWAP1 RETURN JUMPDEST PUSH2 0x42A PUSH1 0x4 DUP1 CALLDATASIZE SUB DUP2 ADD SWAP1 PUSH2 0x425 SWAP2 SWAP1 PUSH2 0x23D7 JUMP JUMPDEST PUSH2 0x1431 JUMP JUMPDEST PUSH1 0x40 MLOAD PUSH2 0x43B SWAP6 SWAP5 SWAP4 SWAP3 SWAP2 SWAP1 PUSH2 0x2462 JUMP JUMPDEST PUSH1 0x40 MLOAD DUP1 SWAP2 SUB SWAP1 RETURN JUMPDEST PUSH2 0x45E PUSH1 0x4 DUP1 CALLDATASIZE SUB DUP2 ADD SWAP1 PUSH2 0x459 SWAP2 SWAP1 PUSH2 0x24BA JUMP JUMPDEST PUSH2 0x1527 JUMP JUMPDEST PUSH1 0x40 MLOAD PUSH2 0x46B SWAP2 SWAP1 PUSH2 0x256E JUMP JUMPDEST PUSH1 0x40 MLOAD DUP1 SWAP2 SUB SWAP1 RETURN JUMPDEST PUSH2 0x47C PUSH2 0x15AD JUMP JUMPDEST PUSH1 0x40 MLOAD PUSH2 0x489 SWAP2 SWAP1 PUSH2 0x25A7 JUMP JUMPDEST PUSH1 0x40 MLOAD DUP1 SWAP2 SUB SWAP1 RETURN JUMPDEST PUSH2 0x4AC PUSH1 0x4 DUP1 CALLDATASIZE SUB DUP2 ADD SWAP1 PUSH2 0x4A7 SWAP2 SWAP1 PUSH2 0x1F9B JUMP JUMPDEST PUSH2 0x15D2 JUMP JUMPDEST STOP JUMPDEST PUSH2 0x4B6 PUSH2 0x16A2 JUMP JUMPDEST PUSH1 0x40 MLOAD PUSH2 0x4C3 SWAP2 SWAP1 PUSH2 0x1FDE JUMP JUMPDEST PUSH1 0x40 MLOAD DUP1 SWAP2 SUB SWAP1 RETURN JUMPDEST PUSH2 0x4D4 PUSH2 0x16A8 JUMP JUMPDEST PUSH1 0x40 MLOAD PUSH2 0x4E1 SWAP2 SWAP1 PUSH2 0x1FDE JUMP JUMPDEST PUSH1 0x40 MLOAD DUP1 SWAP2 SUB SWAP1 RETURN JUMPDEST PUSH0 PUSH2 0x52A DUP3 PUSH1 0x40 MLOAD DUP1 PUSH1 0x40 ADD PUSH1 0x40 MSTORE DUP1 PUSH1 0x4 DUP2 MSTORE PUSH1 0x20 ADD PUSH32 0x7573647400000000000000000000000000000000000000000000000000000000 DUP2 MSTORE POP PUSH2 0x16AE JUMP JUMPDEST DUP1 PUSH2 0x570 JUMPI POP PUSH2 0x56F DUP3 PUSH1 0x40 MLOAD DUP1 PUSH1 0x40 ADD PUSH1 0x40 MSTORE DUP1 PUSH1 0x4 DUP2 MSTORE PUSH1 0x20 ADD PUSH32 0x7573646300000000000000000000000000000000000000000000000000000000 DUP2 MSTORE POP PUSH2 0x16AE JUMP JUMPDEST JUMPDEST DUP1 PUSH2 0x5B6 JUMPI POP PUSH2 0x5B5 DUP3 PUSH1 0x40 MLOAD DUP1 PUSH1 0x40 ADD PUSH1 0x40 MSTORE DUP1 PUSH1 0x3 DUP2 MSTORE PUSH1 0x20 ADD PUSH32 0x756D690000000000000000000000000000000000000000000000000000000000 DUP2 MSTORE POP PUSH2 0x16AE JUMP JUMPDEST JUMPDEST DUP1 PUSH2 0x5FC JUMPI POP PUSH2 0x5FB DUP3 PUSH1 0x40 MLOAD DUP1 PUSH1 0x40 ADD PUSH1 0x40 MSTORE DUP1 PUSH1 0x9 DUP2 MSTORE PUSH1 0x20 ADD PUSH32 0x64697665706F696E740000000000000000000000000000000000000000000000 DUP2 MSTORE POP PUSH2 0x16AE JUMP JUMPDEST JUMPDEST DUP1 PUSH2 0x642 JUMPI POP PUSH2 0x641 DUP3 PUSH1 0x40 MLOAD DUP1 PUSH1 0x40 ADD PUSH1 0x40 MSTORE DUP1 PUSH1 0x3 DUP2 MSTORE PUSH1 0x20 ADD PUSH32 0x6574680000000000000000000000000000000000000000000000000000000000 DUP2 MSTORE POP PUSH2 0x16AE JUMP JUMPDEST JUMPDEST SWAP1 POP SWAP2 SWAP1 POP JUMP JUMPDEST PUSH0 DUP1 SLOAD SWAP1 PUSH2 0x100 EXP SWAP1 DIV PUSH20 0xFFFFFFFFFFFFFFFFFFFFFFFFFFFFFFFFFFFFFFFF AND PUSH20 0xFFFFFFFFFFFFFFFFFFFFFFFFFFFFFFFFFFFFFFFF AND CALLER PUSH20 0xFFFFFFFFFFFFFFFFFFFFFFFFFFFFFFFFFFFFFFFF AND EQ PUSH2 0x6D6 JUMPI PUSH1 0x40 MLOAD PUSH32 0x8C379A000000000000000000000000000000000000000000000000000000000 DUP2 MSTORE PUSH1 0x4 ADD PUSH2 0x6CD SWAP1 PUSH2 0x2630 JUMP JUMPDEST PUSH1 0x40 MLOAD DUP1 SWAP2 SUB SWAP1 REVERT JUMPDEST DUP1 PUSH1 0x8 PUSH0 PUSH2 0x100 EXP DUP2 SLOAD DUP2 PUSH20 0xFFFFFFFFFFFFFFFFFFFFFFFFFFFFFFFFFFFFFFFF MUL NOT AND SWAP1 DUP4 PUSH20 0xFFFFFFFFFFFFFFFFFFFFFFFFFFFFFFFFFFFFFFFF AND MUL OR SWAP1 SSTORE POP POP JUMP JUMPDEST PUSH1 0xB SLOAD DUP2 JUMP JUMPDEST PUSH0 DUP1 SLOAD SWAP1 PUSH2 0x100 EXP SWAP1 DIV PUSH20 0xFFFFFFFFFFFFFFFFFFFFFFFFFFFFFFFFFFFFFFFF AND PUSH20 0xFFFFFFFFFFFFFFFFFFFFFFFFFFFFFFFFFFFFFFFF AND CALLER PUSH20 0xFFFFFFFFFFFFFFFFFFFFFFFFFFFFFFFFFFFFFFFF AND EQ PUSH2 0x7AC JUMPI PUSH1 0x40 MLOAD PUSH32 0x8C379A000000000000000000000000000000000000000000000000000000000 DUP2 MSTORE PUSH1 0x4 ADD PUSH2 0x7A3 SWAP1 PUSH2 0x2630 JUMP JUMPDEST PUSH1 0x40 MLOAD DUP1 SWAP2 SUB SWAP1 REVERT JUMPDEST DUP3 PUSH1 0x2 PUSH0 PUSH2 0x100 EXP DUP2 SLOAD DUP2 PUSH20 0xFFFFFFFFFFFFFFFFFFFFFFFFFFFFFFFFFFFFFFFF MUL NOT AND SWAP1 DUP4 PUSH20 0xFFFFFFFFFFFFFFFFFFFFFFFFFFFFFFFFFFFFFFFF AND MUL OR SWAP1 SSTORE POP DUP2 PUSH1 0x3 PUSH0 PUSH2 0x100 EXP DUP2 SLOAD DUP2 PUSH20 0xFFFFFFFFFFFFFFFFFFFFFFFFFFFFFFFFFFFFFFFF MUL NOT AND SWAP1 DUP4 PUSH20 0xFFFFFFFFFFFFFFFFFFFFFFFFFFFFFFFFFFFFFFFF AND MUL OR SWAP1 SSTORE POP DUP1 PUSH1 0x1 PUSH0 PUSH2 0x100 EXP DUP2 SLOAD DUP2 PUSH20 0xFFFFFFFFFFFFFFFFFFFFFFFFFFFFFFFFFFFFFFFF MUL NOT AND SWAP1 DUP4 PUSH20 0xFFFFFFFFFFFFFFFFFFFFFFFFFFFFFFFFFFFFFFFF AND MUL OR SWAP1 SSTORE POP DUP4 PUSH1 0x4 PUSH0 PUSH2 0x100 EXP DUP2 SLOAD DUP2 PUSH20 0xFFFFFFFFFFFFFFFFFFFFFFFFFFFFFFFFFFFFFFFF MUL NOT AND SWAP1 DUP4 PUSH20 0xFFFFFFFFFFFFFFFFFFFFFFFFFFFFFFFFFFFFFFFF AND MUL OR SWAP1 SSTORE POP POP POP POP POP JUMP JUMPDEST PUSH1 0xD SLOAD DUP2 JUMP JUMPDEST PUSH1 0x5 PUSH0 SWAP1 SLOAD SWAP1 PUSH2 0x100 EXP SWAP1 DIV PUSH20 0xFFFFFFFFFFFFFFFFFFFFFFFFFFFFFFFFFFFFFFFF AND DUP2 JUMP JUMPDEST PUSH1 0x6 PUSH0 SWAP1 SLOAD SWAP1 PUSH2 0x100 EXP SWAP1 DIV PUSH20 0xFFFFFFFFFFFFFFFFFFFFFFFFFFFFFFFFFFFFFFFF AND DUP2 JUMP JUMPDEST PUSH2 0x90B CALLER PUSH2 0x1072 JUMP JUMPDEST PUSH2 0x94A JUMPI PUSH1 0x40 MLOAD PUSH32 0x8C379A000000000000000000000000000000000000000000000000000000000 DUP2 MSTORE PUSH1 0x4 ADD PUSH2 0x941 SWAP1 PUSH2 0x26BE JUMP JUMPDEST PUSH1 0x40 MLOAD DUP1 SWAP2 SUB SWAP1 REVERT JUMPDEST PUSH0 PUSH20 0xFFFFFFFFFFFFFFFFFFFFFFFFFFFFFFFFFFFFFFFF AND DUP8 PUSH20 0xFFFFFFFFFFFFFFFFFFFFFFFFFFFFFFFFFFFFFFFF AND SUB PUSH2 0x9B8 JUMPI PUSH1 0x40 MLOAD PUSH32 0x8C379A000000000000000000000000000000000000000000000000000000000 DUP2 MSTORE PUSH1 0x4 ADD PUSH2 0x9AF SWAP1 PUSH2 0x2726 JUMP JUMPDEST PUSH1 0x40 MLOAD DUP1 SWAP2 SUB SWAP1 REVERT JUMPDEST PUSH2 0x9C7 DUP8 DUP8 DUP8 DUP8 DUP8 DUP8 DUP8 PUSH2 0x1706 JUMP JUMPDEST PUSH2 0xA06 JUMPI PUSH1 0x40 MLOAD PUSH32 0x8C379A000000000000000000000000000000000000000000000000000000000 DUP2 MSTORE PUSH1 0x4 ADD PUSH2 0x9FD SWAP1 PUSH2 0x278E JUMP JUMPDEST PUSH1 0x40 MLOAD DUP1 SWAP2 SUB SWAP1 REVERT JUMPDEST PUSH0 DUP1 DUP6 GT ISZERO PUSH2 0xDFC JUMPI PUSH2 0xA4E DUP5 PUSH1 0x40 MLOAD DUP1 PUSH1 0x40 ADD PUSH1 0x40 MSTORE DUP1 PUSH1 0x4 DUP2 MSTORE PUSH1 0x20 ADD PUSH32 0x7573647400000000000000000000000000000000000000000000000000000000 DUP2 MSTORE POP PUSH2 0x16AE JUMP JUMPDEST ISZERO PUSH2 0xB07 JUMPI PUSH0 PUSH20 0xFFFFFFFFFFFFFFFFFFFFFFFFFFFFFFFFFFFFFFFF AND PUSH1 0x5 PUSH0 SWAP1 SLOAD SWAP1 PUSH2 0x100 EXP SWAP1 DIV PUSH20 0xFFFFFFFFFFFFFFFFFFFFFFFFFFFFFFFFFFFFFFFF AND PUSH20 0xFFFFFFFFFFFFFFFFFFFFFFFFFFFFFFFFFFFFFFFF AND SUB PUSH2 0xAE2 JUMPI PUSH1 0x40 MLOAD PUSH32 0x8C379A000000000000000000000000000000000000000000000000000000000 DUP2 MSTORE PUSH1 0x4 ADD PUSH2 0xAD9 SWAP1 PUSH2 0x27F6 JUMP JUMPDEST PUSH1 0x40 MLOAD DUP1 SWAP2 SUB SWAP1 REVERT JUMPDEST PUSH1 0x5 PUSH0 SWAP1 SLOAD SWAP1 PUSH2 0x100 EXP SWAP1 DIV PUSH20 0xFFFFFFFFFFFFFFFFFFFFFFFFFFFFFFFFFFFFFFFF AND SWAP1 POP JUMPDEST PUSH2 0xB46 DUP5 PUSH1 0x40 MLOAD DUP1 PUSH1 0x40 ADD PUSH1 0x40 MSTORE DUP1 PUSH1 0x4 DUP2 MSTORE PUSH1 0x20 ADD PUSH32 0x7573646300000000000000000000000000000000000000000000000000000000 DUP2 MSTORE POP PUSH2 0x16AE JUMP JUMPDEST ISZERO PUSH2 0xBFF JUMPI PUSH0 PUSH20 0xFFFFFFFFFFFFFFFFFFFFFFFFFFFFFFFFFFFFFFFF AND PUSH1 0x6 PUSH0 SWAP1 SLOAD SWAP1 PUSH2 0x100 EXP SWAP1 DIV PUSH20 0xFFFFFFFFFFFFFFFFFFFFFFFFFFFFFFFFFFFFFFFF AND PUSH20 0xFFFFFFFFFFFFFFFFFFFFFFFFFFFFFFFFFFFFFFFF AND SUB PUSH2 0xBDA JUMPI PUSH1 0x40 MLOAD PUSH32 0x8C379A000000000000000000000000000000000000000000000000000000000 DUP2 MSTORE PUSH1 0x4 ADD PUSH2 0xBD1 SWAP1 PUSH2 0x285E JUMP JUMPDEST PUSH1 0x40 MLOAD DUP1 SWAP2 SUB SWAP1 REVERT JUMPDEST PUSH1 0x6 PUSH0 SWAP1 SLOAD SWAP1 PUSH2 0x100 EXP SWAP1 DIV PUSH20 0xFFFFFFFFFFFFFFFFFFFFFFFFFFFFFFFFFFFFFFFF AND SWAP1 POP JUMPDEST PUSH2 0xC3E DUP5 PUSH1 0x40 MLOAD DUP1 PUSH1 0x40 ADD PUSH1 0x40 MSTORE DUP1 PUSH1 0x3 DUP2 MSTORE PUSH1 0x20 ADD PUSH32 0x6574680000000000000000000000000000000000000000000000000000000000 DUP2 MSTORE POP PUSH2 0x16AE JUMP JUMPDEST ISZERO PUSH2 0xCF7 JUMPI PUSH0 PUSH20 0xFFFFFFFFFFFFFFFFFFFFFFFFFFFFFFFFFFFFFFFF AND PUSH1 0x8 PUSH0 SWAP1 SLOAD SWAP1 PUSH2 0x100 EXP SWAP1 DIV PUSH20 0xFFFFFFFFFFFFFFFFFFFFFFFFFFFFFFFFFFFFFFFF AND PUSH20 0xFFFFFFFFFFFFFFFFFFFFFFFFFFFFFFFFFFFFFFFF AND SUB PUSH2 0xCD2 JUMPI PUSH1 0x40 MLOAD PUSH32 0x8C379A000000000000000000000000000000000000000000000000000000000 DUP2 MSTORE PUSH1 0x4 ADD PUSH2 0xCC9 SWAP1 PUSH2 0x28C6 JUMP JUMPDEST PUSH1 0x40 MLOAD DUP1 SWAP2 SUB SWAP1 REVERT JUMPDEST PUSH1 0x8 PUSH0 SWAP1 SLOAD SWAP1 PUSH2 0x100 EXP SWAP1 DIV PUSH20 0xFFFFFFFFFFFFFFFFFFFFFFFFFFFFFFFFFFFFFFFF AND SWAP1 POP JUMPDEST PUSH2 0xD36 DUP5 PUSH1 0x40 MLOAD DUP1 PUSH1 0x40 ADD PUSH1 0x40 MSTORE DUP1 PUSH1 0x3 DUP2 MSTORE PUSH1 0x20 ADD PUSH32 0x756D690000000000000000000000000000000000000000000000000000000000 DUP2 MSTORE POP PUSH2 0x16AE JUMP JUMPDEST ISZERO PUSH2 0xDEF JUMPI PUSH0 PUSH20 0xFFFFFFFFFFFFFFFFFFFFFFFFFFFFFFFFFFFFFFFF AND PUSH1 0x7 PUSH0 SWAP1 SLOAD SWAP1 PUSH2 0x100 EXP SWAP1 DIV PUSH20 0xFFFFFFFFFFFFFFFFFFFFFFFFFFFFFFFFFFFFFFFF AND PUSH20 0xFFFFFFFFFFFFFFFFFFFFFFFFFFFFFFFFFFFFFFFF AND SUB PUSH2 0xDCA JUMPI PUSH1 0x40 MLOAD PUSH32 0x8C379A000000000000000000000000000000000000000000000000000000000 DUP2 MSTORE PUSH1 0x4 ADD PUSH2 0xDC1 SWAP1 PUSH2 0x292E JUMP JUMPDEST PUSH1 0x40 MLOAD DUP1 SWAP2 SUB SWAP1 REVERT JUMPDEST PUSH1 0x7 PUSH0 SWAP1 SLOAD SWAP1 PUSH2 0x100 EXP SWAP1 DIV PUSH20 0xFFFFFFFFFFFFFFFFFFFFFFFFFFFFFFFFFFFFFFFF AND SWAP1 POP JUMPDEST PUSH2 0xDFB DUP2 DUP10 DUP10 DUP9 PUSH2 0x17D4 JUMP JUMPDEST JUMPDEST PUSH1 0x40 MLOAD DUP1 PUSH1 0xA0 ADD PUSH1 0x40 MSTORE DUP1 DUP10 PUSH20 0xFFFFFFFFFFFFFFFFFFFFFFFFFFFFFFFFFFFFFFFF AND DUP2 MSTORE PUSH1 0x20 ADD DUP9 PUSH20 0xFFFFFFFFFFFFFFFFFFFFFFFFFFFFFFFFFFFFFFFF AND DUP2 MSTORE PUSH1 0x20 ADD DUP7 DUP2 MSTORE PUSH1 0x20 ADD DUP6 DUP2 MSTORE PUSH1 0x20 ADD DUP5 DUP2 MSTORE POP PUSH1 0xC PUSH0 DUP9 DUP2 MSTORE PUSH1 0x20 ADD SWAP1 DUP2 MSTORE PUSH1 0x20 ADD PUSH0 KECCAK256 PUSH0 DUP3 ADD MLOAD DUP2 PUSH0 ADD PUSH0 PUSH2 0x100 EXP DUP2 SLOAD DUP2 PUSH20 0xFFFFFFFFFFFFFFFFFFFFFFFFFFFFFFFFFFFFFFFF MUL NOT AND SWAP1 DUP4 PUSH20 0xFFFFFFFFFFFFFFFFFFFFFFFFFFFFFFFFFFFFFFFF AND MUL OR SWAP1 SSTORE POP PUSH1 0x20 DUP3 ADD MLOAD DUP2 PUSH1 0x1 ADD PUSH0 PUSH2 0x100 EXP DUP2 SLOAD DUP2 PUSH20 0xFFFFFFFFFFFFFFFFFFFFFFFFFFFFFFFFFFFFFFFF MUL NOT AND SWAP1 DUP4 PUSH20 0xFFFFFFFFFFFFFFFFFFFFFFFFFFFFFFFFFFFFFFFF AND MUL OR SWAP1 SSTORE POP PUSH1 0x40 DUP3 ADD MLOAD DUP2 PUSH1 0x2 ADD SSTORE PUSH1 0x60 DUP3 ADD MLOAD DUP2 PUSH1 0x3 ADD SWAP1 DUP2 PUSH2 0xF09 SWAP2 SWAP1 PUSH2 0x2B3D JUMP JUMPDEST POP PUSH1 0x80 DUP3 ADD MLOAD DUP2 PUSH1 0x4 ADD SSTORE SWAP1 POP POP PUSH1 0x1 PUSH1 0xD PUSH0 DUP3 DUP3 SLOAD PUSH2 0xF29 SWAP2 SWAP1 PUSH2 0x2C39 JUMP JUMPDEST SWAP3 POP POP DUP2 SWAP1 SSTORE POP PUSH32 0x2268AB9B9320238677491B8B3A2649B4F67B116AD5040146BB337462A0D7041F DUP9 DUP9 DUP9 DUP9 DUP9 DUP9 DUP9 PUSH1 0x40 MLOAD PUSH2 0xF6B SWAP8 SWAP7 SWAP6 SWAP5 SWAP4 SWAP3 SWAP2 SWAP1 PUSH2 0x2CBE JUMP JUMPDEST PUSH1 0x40 MLOAD DUP1 SWAP2 SUB SWAP1 LOG1 POP POP POP POP POP POP POP POP JUMP JUMPDEST PUSH1 0x2 PUSH0 SWAP1 SLOAD SWAP1 PUSH2 0x100 EXP SWAP1 DIV PUSH20 0xFFFFFFFFFFFFFFFFFFFFFFFFFFFFFFFFFFFFFFFF AND DUP2 JUMP JUMPDEST PUSH0 DUP1 SLOAD SWAP1 PUSH2 0x100 EXP SWAP1 DIV PUSH20 0xFFFFFFFFFFFFFFFFFFFFFFFFFFFFFFFFFFFFFFFF AND PUSH20 0xFFFFFFFFFFFFFFFFFFFFFFFFFFFFFFFFFFFFFFFF AND CALLER PUSH20 0xFFFFFFFFFFFFFFFFFFFFFFFFFFFFFFFFFFFFFFFF AND EQ PUSH2 0x102F JUMPI PUSH1 0x40 MLOAD PUSH32 0x8C379A000000000000000000000000000000000000000000000000000000000 DUP2 MSTORE PUSH1 0x4 ADD PUSH2 0x1026 SWAP1 PUSH2 0x2630 JUMP JUMPDEST PUSH1 0x40 MLOAD DUP1 SWAP2 SUB SWAP1 REVERT JUMPDEST DUP1 PUSH1 0x4 PUSH0 PUSH2 0x100 EXP DUP2 SLOAD DUP2 PUSH20 0xFFFFFFFFFFFFFFFFFFFFFFFFFFFFFFFFFFFFFFFF MUL NOT AND SWAP1 DUP4 PUSH20 0xFFFFFFFFFFFFFFFFFFFFFFFFFFFFFFFFFFFFFFFF AND MUL OR SWAP1 SSTORE POP POP JUMP JUMPDEST PUSH0 PUSH32 0x0 PUSH20 0xFFFFFFFFFFFFFFFFFFFFFFFFFFFFFFFFFFFFFFFF AND DUP3 PUSH20 0xFFFFFFFFFFFFFFFFFFFFFFFFFFFFFFFFFFFFFFFF AND EQ SWAP1 POP SWAP2 SWAP1 POP JUMP JUMPDEST PUSH0 DUP1 SLOAD SWAP1 PUSH2 0x100 EXP SWAP1 DIV PUSH20 0xFFFFFFFFFFFFFFFFFFFFFFFFFFFFFFFFFFFFFFFF AND PUSH20 0xFFFFFFFFFFFFFFFFFFFFFFFFFFFFFFFFFFFFFFFF AND CALLER PUSH20 0xFFFFFFFFFFFFFFFFFFFFFFFFFFFFFFFFFFFFFFFF AND EQ PUSH2 0x1156 JUMPI PUSH1 0x40 MLOAD PUSH32 0x8C379A000000000000000000000000000000000000000000000000000000000 DUP2 MSTORE PUSH1 0x4 ADD PUSH2 0x114D SWAP1 PUSH2 0x2630 JUMP JUMPDEST PUSH1 0x40 MLOAD DUP1 SWAP2 SUB SWAP1 REVERT JUMPDEST DUP1 PUSH1 0x5 PUSH0 PUSH2 0x100 EXP DUP2 SLOAD DUP2 PUSH20 0xFFFFFFFFFFFFFFFFFFFFFFFFFFFFFFFFFFFFFFFF MUL NOT AND SWAP1 DUP4 PUSH20 0xFFFFFFFFFFFFFFFFFFFFFFFFFFFFFFFFFFFFFFFF AND MUL OR SWAP1 SSTORE POP POP JUMP JUMPDEST PUSH0 DUP1 SLOAD SWAP1 PUSH2 0x100 EXP SWAP1 DIV PUSH20 0xFFFFFFFFFFFFFFFFFFFFFFFFFFFFFFFFFFFFFFFF AND PUSH20 0xFFFFFFFFFFFFFFFFFFFFFFFFFFFFFFFFFFFFFFFF AND CALLER PUSH20 0xFFFFFFFFFFFFFFFFFFFFFFFFFFFFFFFFFFFFFFFF AND EQ PUSH2 0x1226 JUMPI PUSH1 0x40 MLOAD PUSH32 0x8C379A000000000000000000000000000000000000000000000000000000000 DUP2 MSTORE PUSH1 0x4 ADD PUSH2 0x121D SWAP1 PUSH2 0x2630 JUMP JUMPDEST PUSH1 0x40 MLOAD DUP1 SWAP2 SUB SWAP1 REVERT JUMPDEST DUP3 PUSH1 0x9 DUP2 SWAP1 SSTORE POP DUP2 PUSH1 0xA DUP2 SWAP1 SSTORE POP DUP1 PUSH1 0xB DUP2 SWAP1 SSTORE POP POP POP POP JUMP JUMPDEST PUSH1 0x1 PUSH0 SWAP1 SLOAD SWAP1 PUSH2 0x100 EXP SWAP1 DIV PUSH20 0xFFFFFFFFFFFFFFFFFFFFFFFFFFFFFFFFFFFFFFFF AND DUP2 JUMP JUMPDEST PUSH1 0x3 PUSH0 SWAP1 SLOAD SWAP1 PUSH2 0x100 EXP SWAP1 DIV PUSH20 0xFFFFFFFFFFFFFFFFFFFFFFFFFFFFFFFFFFFFFFFF AND DUP2 JUMP JUMPDEST PUSH0 DUP1 SLOAD SWAP1 PUSH2 0x100 EXP SWAP1 DIV PUSH20 0xFFFFFFFFFFFFFFFFFFFFFFFFFFFFFFFFFFFFFFFF AND PUSH20 0xFFFFFFFFFFFFFFFFFFFFFFFFFFFFFFFFFFFFFFFF AND CALLER PUSH20 0xFFFFFFFFFFFFFFFFFFFFFFFFFFFFFFFFFFFFFFFF AND EQ PUSH2 0x1317 JUMPI PUSH1 0x40 MLOAD PUSH32 0x8C379A000000000000000000000000000000000000000000000000000000000 DUP2 MSTORE PUSH1 0x4 ADD PUSH2 0x130E SWAP1 PUSH2 0x2630 JUMP JUMPDEST PUSH1 0x40 MLOAD DUP1 SWAP2 SUB SWAP1 REVERT JUMPDEST DUP1 PUSH1 0x7 PUSH0 PUSH2 0x100 EXP DUP2 SLOAD DUP2 PUSH20 0xFFFFFFFFFFFFFFFFFFFFFFFFFFFFFFFFFFFFFFFF MUL NOT AND SWAP1 DUP4 PUSH20 0xFFFFFFFFFFFFFFFFFFFFFFFFFFFFFFFFFFFFFFFF AND MUL OR SWAP1 SSTORE POP POP JUMP JUMPDEST PUSH1 0x8 PUSH0 SWAP1 SLOAD SWAP1 PUSH2 0x100 EXP SWAP1 DIV PUSH20 0xFFFFFFFFFFFFFFFFFFFFFFFFFFFFFFFFFFFFFFFF AND DUP2 JUMP JUMPDEST PUSH0 DUP1 SLOAD SWAP1 PUSH2 0x100 EXP SWAP1 DIV PUSH20 0xFFFFFFFFFFFFFFFFFFFFFFFFFFFFFFFFFFFFFFFF AND DUP2 JUMP JUMPDEST PUSH1 0x7 PUSH0 SWAP1 SLOAD SWAP1 PUSH2 0x100 EXP SWAP1 DIV PUSH20 0xFFFFFFFFFFFFFFFFFFFFFFFFFFFFFFFFFFFFFFFF AND DUP2 JUMP JUMPDEST PUSH0 DUP1 PUSH0 DUP1 PUSH2 0x13D4 DUP6 PUSH2 0x1B5B JUMP JUMPDEST SWAP3 POP SWAP3 POP SWAP3 POP PUSH1 0x1 DUP7 DUP3 DUP6 DUP6 PUSH1 0x40 MLOAD PUSH0 DUP2 MSTORE PUSH1 0x20 ADD PUSH1 0x40 MSTORE PUSH1 0x40 MLOAD PUSH2 0x13FC SWAP5 SWAP4 SWAP3 SWAP2 SWAP1 PUSH2 0x2D54 JUMP JUMPDEST PUSH1 0x20 PUSH1 0x40 MLOAD PUSH1 0x20 DUP2 SUB SWAP1 DUP1 DUP5 SUB SWAP1 DUP6 GAS STATICCALL ISZERO DUP1 ISZERO PUSH2 0x141C JUMPI RETURNDATASIZE PUSH0 DUP1 RETURNDATACOPY RETURNDATASIZE PUSH0 REVERT JUMPDEST POP POP POP PUSH1 0x20 PUSH1 0x40 MLOAD SUB MLOAD SWAP4 POP POP POP POP SWAP3 SWAP2 POP POP JUMP JUMPDEST PUSH1 0xC PUSH1 0x20 MSTORE DUP1 PUSH0 MSTORE PUSH1 0x40 PUSH0 KECCAK256 PUSH0 SWAP2 POP SWAP1 POP DUP1 PUSH0 ADD PUSH0 SWAP1 SLOAD SWAP1 PUSH2 0x100 EXP SWAP1 DIV PUSH20 0xFFFFFFFFFFFFFFFFFFFFFFFFFFFFFFFFFFFFFFFF AND SWAP1 DUP1 PUSH1 0x1 ADD PUSH0 SWAP1 SLOAD SWAP1 PUSH2 0x100 EXP SWAP1 DIV PUSH20 0xFFFFFFFFFFFFFFFFFFFFFFFFFFFFFFFFFFFFFFFF AND SWAP1 DUP1 PUSH1 0x2 ADD SLOAD SWAP1 DUP1 PUSH1 0x3 ADD DUP1 SLOAD PUSH2 0x14A0 SWAP1 PUSH2 0x2979 JUMP JUMPDEST DUP1 PUSH1 0x1F ADD PUSH1 0x20 DUP1 SWAP2 DIV MUL PUSH1 0x20 ADD PUSH1 0x40 MLOAD SWAP1 DUP2 ADD PUSH1 0x40 MSTORE DUP1 SWAP3 SWAP2 SWAP1 DUP2 DUP2 MSTORE PUSH1 0x20 ADD DUP3 DUP1 SLOAD PUSH2 0x14CC SWAP1 PUSH2 0x2979 JUMP JUMPDEST DUP1 ISZERO PUSH2 0x1517 JUMPI DUP1 PUSH1 0x1F LT PUSH2 0x14EE JUMPI PUSH2 0x100 DUP1 DUP4 SLOAD DIV MUL DUP4 MSTORE SWAP2 PUSH1 0x20 ADD SWAP2 PUSH2 0x1517 JUMP JUMPDEST DUP3 ADD SWAP2 SWAP1 PUSH0 MSTORE PUSH1 0x20 PUSH0 KECCAK256 SWAP1 JUMPDEST DUP2 SLOAD DUP2 MSTORE SWAP1 PUSH1 0x1 ADD SWAP1 PUSH1 0x20 ADD DUP1 DUP4 GT PUSH2 0x14FA JUMPI DUP3 SWAP1 SUB PUSH1 0x1F AND DUP3 ADD SWAP2 JUMPDEST POP POP POP POP POP SWAP1 DUP1 PUSH1 0x4 ADD SLOAD SWAP1 POP DUP6 JUMP JUMPDEST PUSH0 PUSH2 0x1531 DUP4 PUSH2 0x4EA JUMP JUMPDEST PUSH2 0x1570 JUMPI PUSH1 0x40 MLOAD PUSH32 0x8C379A000000000000000000000000000000000000000000000000000000000 DUP2 MSTORE PUSH1 0x4 ADD PUSH2 0x1567 SWAP1 PUSH2 0x2DE1 JUMP JUMPDEST PUSH1 0x40 MLOAD DUP1 SWAP2 SUB SWAP1 REVERT JUMPDEST DUP7 DUP7 DUP7 DUP7 DUP7 DUP7 PUSH1 0x40 MLOAD PUSH1 0x20 ADD PUSH2 0x158B SWAP7 SWAP6 SWAP5 SWAP4 SWAP3 SWAP2 SWAP1 PUSH2 0x2E9E JUMP JUMPDEST PUSH1 0x40 MLOAD PUSH1 0x20 DUP2 DUP4 SUB SUB DUP2 MSTORE SWAP1 PUSH1 0x40 MSTORE DUP1 MLOAD SWAP1 PUSH1 0x20 ADD KECCAK256 SWAP1 POP SWAP7 SWAP6 POP POP POP POP POP POP JUMP JUMPDEST PUSH1 0x4 PUSH0 SWAP1 SLOAD SWAP1 PUSH2 0x100 EXP SWAP1 DIV PUSH20 0xFFFFFFFFFFFFFFFFFFFFFFFFFFFFFFFFFFFFFFFF AND DUP2 JUMP JUMPDEST PUSH0 DUP1 SLOAD SWAP1 PUSH2 0x100 EXP SWAP1 DIV PUSH20 0xFFFFFFFFFFFFFFFFFFFFFFFFFFFFFFFFFFFFFFFF AND PUSH20 0xFFFFFFFFFFFFFFFFFFFFFFFFFFFFFFFFFFFFFFFF AND CALLER PUSH20 0xFFFFFFFFFFFFFFFFFFFFFFFFFFFFFFFFFFFFFFFF AND EQ PUSH2 0x165F JUMPI PUSH1 0x40 MLOAD PUSH32 0x8C379A000000000000000000000000000000000000000000000000000000000 DUP2 MSTORE PUSH1 0x4 ADD PUSH2 0x1656 SWAP1 PUSH2 0x2630 JUMP JUMPDEST PUSH1 0x40 MLOAD DUP1 SWAP2 SUB SWAP1 REVERT JUMPDEST DUP1 PUSH1 0x6 PUSH0 PUSH2 0x100 EXP DUP2 SLOAD DUP2 PUSH20 0xFFFFFFFFFFFFFFFFFFFFFFFFFFFFFFFFFFFFFFFF MUL NOT AND SWAP1 DUP4 PUSH20 0xFFFFFFFFFFFFFFFFFFFFFFFFFFFFFFFFFFFFFFFF AND MUL OR SWAP1 SSTORE POP POP JUMP JUMPDEST PUSH1 0x9 SLOAD DUP2 JUMP JUMPDEST PUSH1 0xA SLOAD DUP2 JUMP JUMPDEST PUSH0 DUP2 PUSH1 0x40 MLOAD PUSH1 0x20 ADD PUSH2 0x16C0 SWAP2 SWAP1 PUSH2 0x2F09 JUMP JUMPDEST PUSH1 0x40 MLOAD PUSH1 0x20 DUP2 DUP4 SUB SUB DUP2 MSTORE SWAP1 PUSH1 0x40 MSTORE DUP1 MLOAD SWAP1 PUSH1 0x20 ADD KECCAK256 DUP4 PUSH1 0x40 MLOAD PUSH1 0x20 ADD PUSH2 0x16E7 SWAP2 SWAP1 PUSH2 0x2F09 JUMP JUMPDEST PUSH1 0x40 MLOAD PUSH1 0x20 DUP2 DUP4 SUB SUB DUP2 MSTORE SWAP1 PUSH1 0x40 MSTORE DUP1 MLOAD SWAP1 PUSH1 0x20 ADD KECCAK256 EQ SWAP1 POP SWAP3 SWAP2 POP POP JUMP JUMPDEST PUSH0 PUSH2 0x1710 DUP5 PUSH2 0x4EA JUMP JUMPDEST PUSH2 0x174F JUMPI PUSH1 0x40 MLOAD PUSH32 0x8C379A000000000000000000000000000000000000000000000000000000000 DUP2 MSTORE PUSH1 0x4 ADD PUSH2 0x1746 SWAP1 PUSH2 0x2DE1 JUMP JUMPDEST PUSH1 0x40 MLOAD DUP1 SWAP2 SUB SWAP1 REVERT JUMPDEST PUSH0 PUSH2 0x175E DUP10 DUP10 DUP10 DUP10 DUP10 DUP10 PUSH2 0x1527 JUMP JUMPDEST SWAP1 POP PUSH0 PUSH2 0x176A DUP3 PUSH2 0x1BC0 JUMP JUMPDEST SWAP1 POP PUSH1 0x1 PUSH0 SWAP1 SLOAD SWAP1 PUSH2 0x100 EXP SWAP1 DIV PUSH20 0xFFFFFFFFFFFFFFFFFFFFFFFFFFFFFFFFFFFFFFFF AND PUSH20 0xFFFFFFFFFFFFFFFFFFFFFFFFFFFFFFFFFFFFFFFF AND PUSH2 0x17AE DUP3 DUP7 PUSH2 0x1BEF JUMP JUMPDEST PUSH20 0xFFFFFFFFFFFFFFFFFFFFFFFFFFFFFFFFFFFFFFFF AND EQ SWAP3 POP POP POP SWAP8 SWAP7 POP POP POP POP POP POP POP JUMP JUMPDEST PUSH0 DUP1 PUSH0 DUP7 PUSH20 0xFFFFFFFFFFFFFFFFFFFFFFFFFFFFFFFFFFFFFFFF AND PUSH4 0x23B872DD DUP8 ADDRESS DUP8 PUSH1 0x40 MLOAD DUP5 PUSH4 0xFFFFFFFF AND PUSH1 0xE0 SHL DUP2 MSTORE PUSH1 0x4 ADD PUSH2 0x1814 SWAP4 SWAP3 SWAP2 SWAP1 PUSH2 0x2F1F JUMP JUMPDEST PUSH1 0x20 PUSH1 0x40 MLOAD DUP1 DUP4 SUB DUP2 PUSH0 DUP8 GAS CALL ISZERO DUP1 ISZERO PUSH2 0x1830 JUMPI RETURNDATASIZE PUSH0 DUP1 RETURNDATACOPY RETURNDATASIZE PUSH0 REVERT JUMPDEST POP POP POP POP PUSH1 0x40 MLOAD RETURNDATASIZE PUSH1 0x1F NOT PUSH1 0x1F DUP3 ADD AND DUP3 ADD DUP1 PUSH1 0x40 MSTORE POP DUP2 ADD SWAP1 PUSH2 0x1854 SWAP2 SWAP1 PUSH2 0x2F7E JUMP JUMPDEST POP PUSH2 0x187E PUSH2 0x3E8 PUSH2 0x1870 PUSH1 0x9 SLOAD DUP8 PUSH2 0x1C59 SWAP1 SWAP2 SWAP1 PUSH4 0xFFFFFFFF AND JUMP JUMPDEST PUSH2 0x1CD0 SWAP1 SWAP2 SWAP1 PUSH4 0xFFFFFFFF AND JUMP JUMPDEST SWAP3 POP PUSH2 0x18A9 PUSH2 0x3E8 PUSH2 0x189B PUSH1 0xA SLOAD DUP8 PUSH2 0x1C59 SWAP1 SWAP2 SWAP1 PUSH4 0xFFFFFFFF AND JUMP JUMPDEST PUSH2 0x1CD0 SWAP1 SWAP2 SWAP1 PUSH4 0xFFFFFFFF AND JUMP JUMPDEST SWAP2 POP PUSH2 0x18D4 PUSH2 0x3E8 PUSH2 0x18C6 PUSH1 0xB SLOAD DUP8 PUSH2 0x1C59 SWAP1 SWAP2 SWAP1 PUSH4 0xFFFFFFFF AND JUMP JUMPDEST PUSH2 0x1CD0 SWAP1 SWAP2 SWAP1 PUSH4 0xFFFFFFFF AND JUMP JUMPDEST SWAP1 POP PUSH0 DUP2 DUP4 DUP6 DUP8 PUSH2 0x18E5 SWAP2 SWAP1 PUSH2 0x2FA9 JUMP JUMPDEST PUSH2 0x18EF SWAP2 SWAP1 PUSH2 0x2FA9 JUMP JUMPDEST PUSH2 0x18F9 SWAP2 SWAP1 PUSH2 0x2FA9 JUMP JUMPDEST SWAP1 POP PUSH0 DUP5 GT ISZERO PUSH2 0x1980 JUMPI DUP8 PUSH20 0xFFFFFFFFFFFFFFFFFFFFFFFFFFFFFFFFFFFFFFFF AND PUSH4 0xA9059CBB DUP8 DUP7 PUSH1 0x40 MLOAD DUP4 PUSH4 0xFFFFFFFF AND PUSH1 0xE0 SHL DUP2 MSTORE PUSH1 0x4 ADD PUSH2 0x193E SWAP3 SWAP2 SWAP1 PUSH2 0x2FDC JUMP JUMPDEST PUSH1 0x20 PUSH1 0x40 MLOAD DUP1 DUP4 SUB DUP2 PUSH0 DUP8 GAS CALL ISZERO DUP1 ISZERO PUSH2 0x195A JUMPI RETURNDATASIZE PUSH0 DUP1 RETURNDATACOPY RETURNDATASIZE PUSH0 REVERT JUMPDEST POP POP POP POP PUSH1 0x40 MLOAD RETURNDATASIZE PUSH1 0x1F NOT PUSH1 0x1F DUP3 ADD AND DUP3 ADD DUP1 PUSH1 0x40 MSTORE POP DUP2 ADD SWAP1 PUSH2 0x197E SWAP2 SWAP1 PUSH2 0x2F7E JUMP JUMPDEST POP JUMPDEST PUSH0 DUP4 GT ISZERO PUSH2 0x1A26 JUMPI DUP8 PUSH20 0xFFFFFFFFFFFFFFFFFFFFFFFFFFFFFFFFFFFFFFFF AND PUSH4 0xA9059CBB PUSH1 0x2 PUSH0 SWAP1 SLOAD SWAP1 PUSH2 0x100 EXP SWAP1 DIV PUSH20 0xFFFFFFFFFFFFFFFFFFFFFFFFFFFFFFFFFFFFFFFF AND DUP6 PUSH1 0x40 MLOAD DUP4 PUSH4 0xFFFFFFFF AND PUSH1 0xE0 SHL DUP2 MSTORE PUSH1 0x4 ADD PUSH2 0x19E4 SWAP3 SWAP2 SWAP1 PUSH2 0x2FDC JUMP JUMPDEST PUSH1 0x20 PUSH1 0x40 MLOAD DUP1 DUP4 SUB DUP2 PUSH0 DUP8 GAS CALL ISZERO DUP1 ISZERO PUSH2 0x1A00 JUMPI RETURNDATASIZE PUSH0 DUP1 RETURNDATACOPY RETURNDATASIZE PUSH0 REVERT JUMPDEST POP POP POP POP PUSH1 0x40 MLOAD RETURNDATASIZE PUSH1 0x1F NOT PUSH1 0x1F DUP3 ADD AND DUP3 ADD DUP1 PUSH1 0x40 MSTORE POP DUP2 ADD SWAP1 PUSH2 0x1A24 SWAP2 SWAP1 PUSH2 0x2F7E JUMP JUMPDEST POP JUMPDEST PUSH0 DUP3 GT ISZERO PUSH2 0x1ACC JUMPI DUP8 PUSH20 0xFFFFFFFFFFFFFFFFFFFFFFFFFFFFFFFFFFFFFFFF AND PUSH4 0xA9059CBB PUSH1 0x3 PUSH0 SWAP1 SLOAD SWAP1 PUSH2 0x100 EXP SWAP1 DIV PUSH20 0xFFFFFFFFFFFFFFFFFFFFFFFFFFFFFFFFFFFFFFFF AND DUP5 PUSH1 0x40 MLOAD DUP4 PUSH4 0xFFFFFFFF AND PUSH1 0xE0 SHL DUP2 MSTORE PUSH1 0x4 ADD PUSH2 0x1A8A SWAP3 SWAP2 SWAP1 PUSH2 0x2FDC JUMP JUMPDEST PUSH1 0x20 PUSH1 0x40 MLOAD DUP1 DUP4 SUB DUP2 PUSH0 DUP8 GAS CALL ISZERO DUP1 ISZERO PUSH2 0x1AA6 JUMPI RETURNDATASIZE PUSH0 DUP1 RETURNDATACOPY RETURNDATASIZE PUSH0 REVERT JUMPDEST POP POP POP POP PUSH1 0x40 MLOAD RETURNDATASIZE PUSH1 0x1F NOT PUSH1 0x1F DUP3 ADD AND DUP3 ADD DUP1 PUSH1 0x40 MSTORE POP DUP2 ADD SWAP1 PUSH2 0x1ACA SWAP2 SWAP1 PUSH2 0x2F7E JUMP JUMPDEST POP JUMPDEST PUSH0 DUP2 GT ISZERO PUSH2 0x1B51 JUMPI DUP8 PUSH20 0xFFFFFFFFFFFFFFFFFFFFFFFFFFFFFFFFFFFFFFFF AND PUSH4 0xA9059CBB DUP8 DUP4 PUSH1 0x40 MLOAD DUP4 PUSH4 0xFFFFFFFF AND PUSH1 0xE0 SHL DUP2 MSTORE PUSH1 0x4 ADD PUSH2 0x1B0F SWAP3 SWAP2 SWAP1 PUSH2 0x2FDC JUMP JUMPDEST PUSH1 0x20 PUSH1 0x40 MLOAD DUP1 DUP4 SUB DUP2 PUSH0 DUP8 GAS CALL ISZERO DUP1 ISZERO PUSH2 0x1B2B JUMPI RETURNDATASIZE PUSH0 DUP1 RETURNDATACOPY RETURNDATASIZE PUSH0 REVERT JUMPDEST POP POP POP POP PUSH1 0x40 MLOAD RETURNDATASIZE PUSH1 0x1F NOT PUSH1 0x1F DUP3 ADD AND DUP3 ADD DUP1 PUSH1 0x40 MSTORE POP DUP2 ADD SWAP1 PUSH2 0x1B4F SWAP2 SWAP1 PUSH2 0x2F7E JUMP JUMPDEST POP JUMPDEST POP POP POP POP POP POP POP POP JUMP JUMPDEST PUSH0 DUP1 PUSH0 PUSH1 0x41 DUP5 MLOAD EQ PUSH2 0x1BA2 JUMPI PUSH1 0x40 MLOAD PUSH32 0x8C379A000000000000000000000000000000000000000000000000000000000 DUP2 MSTORE PUSH1 0x4 ADD PUSH2 0x1B99 SWAP1 PUSH2 0x304D JUMP JUMPDEST PUSH1 0x40 MLOAD DUP1 SWAP2 SUB SWAP1 REVERT JUMPDEST PUSH1 0x20 DUP5 ADD MLOAD SWAP3 POP PUSH1 0x40 DUP5 ADD MLOAD SWAP2 POP PUSH1 0x60 DUP5 ADD MLOAD PUSH0 BYTE SWAP1 POP SWAP2 SWAP4 SWAP1 SWAP3 POP JUMP JUMPDEST PUSH0 DUP2 PUSH1 0x40 MLOAD PUSH1 0x20 ADD PUSH2 0x1BD2 SWAP2 SWAP1 PUSH2 0x30D5 JUMP JUMPDEST PUSH1 0x40 MLOAD PUSH1 0x20 DUP2 DUP4 SUB SUB DUP2 MSTORE SWAP1 PUSH1 0x40 MSTORE DUP1 MLOAD SWAP1 PUSH1 0x20 ADD KECCAK256 SWAP1 POP SWAP2 SWAP1 POP JUMP JUMPDEST PUSH0 DUP1 PUSH0 DUP1 PUSH2 0x1BFC DUP6 PUSH2 0x1B5B JUMP JUMPDEST SWAP3 POP SWAP3 POP SWAP3 POP PUSH1 0x1 DUP7 DUP3 DUP6 DUP6 PUSH1 0x40 MLOAD PUSH0 DUP2 MSTORE PUSH1 0x20 ADD PUSH1 0x40 MSTORE PUSH1 0x40 MLOAD PUSH2 0x1C24 SWAP5 SWAP4 SWAP3 SWAP2 SWAP1 PUSH2 0x2D54 JUMP JUMPDEST PUSH1 0x20 PUSH1 0x40 MLOAD PUSH1 0x20 DUP2 SUB SWAP1 DUP1 DUP5 SUB SWAP1 DUP6 GAS STATICCALL ISZERO DUP1 ISZERO PUSH2 0x1C44 JUMPI RETURNDATASIZE PUSH0 DUP1 RETURNDATACOPY RETURNDATASIZE PUSH0 REVERT JUMPDEST POP POP POP PUSH1 0x20 PUSH1 0x40 MLOAD SUB MLOAD SWAP4 POP POP POP POP SWAP3 SWAP2 POP POP JUMP JUMPDEST PUSH0 DUP1 DUP4 SUB PUSH2 0x1C69 JUMPI PUSH0 SWAP1 POP PUSH2 0x1CCA JUMP JUMPDEST PUSH0 DUP3 DUP5 PUSH2 0x1C76 SWAP2 SWAP1 PUSH2 0x30FA JUMP JUMPDEST SWAP1 POP DUP3 DUP5 DUP3 PUSH2 0x1C85 SWAP2 SWAP1 PUSH2 0x3168 JUMP JUMPDEST EQ PUSH2 0x1CC5 JUMPI PUSH1 0x40 MLOAD PUSH32 0x8C379A000000000000000000000000000000000000000000000000000000000 DUP2 MSTORE PUSH1 0x4 ADD PUSH2 0x1CBC SWAP1 PUSH2 0x3208 JUMP JUMPDEST PUSH1 0x40 MLOAD DUP1 SWAP2 SUB SWAP1 REVERT JUMPDEST DUP1 SWAP2 POP POP JUMPDEST SWAP3 SWAP2 POP POP JUMP JUMPDEST PUSH0 PUSH2 0x1D11 DUP4 DUP4 PUSH1 0x40 MLOAD DUP1 PUSH1 0x40 ADD PUSH1 0x40 MSTORE DUP1 PUSH1 0x1A DUP2 MSTORE PUSH1 0x20 ADD PUSH32 0x536166654D6174683A206469766973696F6E206279207A65726F000000000000 DUP2 MSTORE POP PUSH2 0x1D19 JUMP JUMPDEST SWAP1 POP SWAP3 SWAP2 POP POP JUMP JUMPDEST PUSH0 DUP1 DUP4 GT DUP3 SWAP1 PUSH2 0x1D5F JUMPI PUSH1 0x40 MLOAD PUSH32 0x8C379A000000000000000000000000000000000000000000000000000000000 DUP2 MSTORE PUSH1 0x4 ADD PUSH2 0x1D56 SWAP2 SWAP1 PUSH2 0x3226 JUMP JUMPDEST PUSH1 0x40 MLOAD DUP1 SWAP2 SUB SWAP1 REVERT JUMPDEST POP PUSH0 DUP4 DUP6 PUSH2 0x1D6D SWAP2 SWAP1 PUSH2 0x3168 JUMP JUMPDEST SWAP1 POP DUP1 SWAP2 POP POP SWAP4 SWAP3 POP POP POP JUMP JUMPDEST PUSH0 PUSH1 0x40 MLOAD SWAP1 POP SWAP1 JUMP JUMPDEST PUSH0 DUP1 REVERT JUMPDEST PUSH0 DUP1 REVERT JUMPDEST PUSH0 DUP1 REVERT JUMPDEST PUSH0 DUP1 REVERT JUMPDEST PUSH0 PUSH1 0x1F NOT PUSH1 0x1F DUP4 ADD AND SWAP1 POP SWAP2 SWAP1 POP JUMP JUMPDEST PUSH32 0x4E487B7100000000000000000000000000000000000000000000000000000000 PUSH0 MSTORE PUSH1 0x41 PUSH1 0x4 MSTORE PUSH1 0x24 PUSH0 REVERT JUMPDEST PUSH2 0x1DD9 DUP3 PUSH2 0x1D93 JUMP JUMPDEST DUP2 ADD DUP2 DUP2 LT PUSH8 0xFFFFFFFFFFFFFFFF DUP3 GT OR ISZERO PUSH2 0x1DF8 JUMPI PUSH2 0x1DF7 PUSH2 0x1DA3 JUMP JUMPDEST JUMPDEST DUP1 PUSH1 0x40 MSTORE POP POP POP JUMP JUMPDEST PUSH0 PUSH2 0x1E0A PUSH2 0x1D7A JUMP JUMPDEST SWAP1 POP PUSH2 0x1E16 DUP3 DUP3 PUSH2 0x1DD0 JUMP JUMPDEST SWAP2 SWAP1 POP JUMP JUMPDEST PUSH0 PUSH8 0xFFFFFFFFFFFFFFFF DUP3 GT ISZERO PUSH2 0x1E35 JUMPI PUSH2 0x1E34 PUSH2 0x1DA3 JUMP JUMPDEST JUMPDEST PUSH2 0x1E3E DUP3 PUSH2 0x1D93 JUMP JUMPDEST SWAP1 POP PUSH1 0x20 DUP2 ADD SWAP1 POP SWAP2 SWAP1 POP JUMP JUMPDEST DUP3 DUP2 DUP4 CALLDATACOPY PUSH0 DUP4 DUP4 ADD MSTORE POP POP POP JUMP JUMPDEST PUSH0 PUSH2 0x1E6B PUSH2 0x1E66 DUP5 PUSH2 0x1E1B JUMP JUMPDEST PUSH2 0x1E01 JUMP JUMPDEST SWAP1 POP DUP3 DUP2 MSTORE PUSH1 0x20 DUP2 ADD DUP5 DUP5 DUP5 ADD GT ISZERO PUSH2 0x1E87 JUMPI PUSH2 0x1E86 PUSH2 0x1D8F JUMP JUMPDEST JUMPDEST PUSH2 0x1E92 DUP5 DUP3 DUP6 PUSH2 0x1E4B JUMP JUMPDEST POP SWAP4 SWAP3 POP POP POP JUMP JUMPDEST PUSH0 DUP3 PUSH1 0x1F DUP4 ADD SLT PUSH2 0x1EAE JUMPI PUSH2 0x1EAD PUSH2 0x1D8B JUMP JUMPDEST JUMPDEST DUP2 CALLDATALOAD PUSH2 0x1EBE DUP5 DUP3 PUSH1 0x20 DUP7 ADD PUSH2 0x1E59 JUMP JUMPDEST SWAP2 POP POP SWAP3 SWAP2 POP POP JUMP JUMPDEST PUSH0 PUSH1 0x20 DUP3 DUP5 SUB SLT ISZERO PUSH2 0x1EDC JUMPI PUSH2 0x1EDB PUSH2 0x1D83 JUMP JUMPDEST JUMPDEST PUSH0 DUP3 ADD CALLDATALOAD PUSH8 0xFFFFFFFFFFFFFFFF DUP2 GT ISZERO PUSH2 0x1EF9 JUMPI PUSH2 0x1EF8 PUSH2 0x1D87 JUMP JUMPDEST JUMPDEST PUSH2 0x1F05 DUP5 DUP3 DUP6 ADD PUSH2 0x1E9A JUMP JUMPDEST SWAP2 POP POP SWAP3 SWAP2 POP POP JUMP JUMPDEST PUSH0 DUP2 ISZERO ISZERO SWAP1 POP SWAP2 SWAP1 POP JUMP JUMPDEST PUSH2 0x1F22 DUP2 PUSH2 0x1F0E JUMP JUMPDEST DUP3 MSTORE POP POP JUMP JUMPDEST PUSH0 PUSH1 0x20 DUP3 ADD SWAP1 POP PUSH2 0x1F3B PUSH0 DUP4 ADD DUP5 PUSH2 0x1F19 JUMP JUMPDEST SWAP3 SWAP2 POP POP JUMP JUMPDEST PUSH0 PUSH20 0xFFFFFFFFFFFFFFFFFFFFFFFFFFFFFFFFFFFFFFFF DUP3 AND SWAP1 POP SWAP2 SWAP1 POP JUMP JUMPDEST PUSH0 PUSH2 0x1F6A DUP3 PUSH2 0x1F41 JUMP JUMPDEST SWAP1 POP SWAP2 SWAP1 POP JUMP JUMPDEST PUSH2 0x1F7A DUP2 PUSH2 0x1F60 JUMP JUMPDEST DUP2 EQ PUSH2 0x1F84 JUMPI PUSH0 DUP1 REVERT JUMPDEST POP JUMP JUMPDEST PUSH0 DUP2 CALLDATALOAD SWAP1 POP PUSH2 0x1F95 DUP2 PUSH2 0x1F71 JUMP JUMPDEST SWAP3 SWAP2 POP POP JUMP JUMPDEST PUSH0 PUSH1 0x20 DUP3 DUP5 SUB SLT ISZERO PUSH2 0x1FB0 JUMPI PUSH2 0x1FAF PUSH2 0x1D83 JUMP JUMPDEST JUMPDEST PUSH0 PUSH2 0x1FBD DUP5 DUP3 DUP6 ADD PUSH2 0x1F87 JUMP JUMPDEST SWAP2 POP POP SWAP3 SWAP2 POP POP JUMP JUMPDEST PUSH0 DUP2 SWAP1 POP SWAP2 SWAP1 POP JUMP JUMPDEST PUSH2 0x1FD8 DUP2 PUSH2 0x1FC6 JUMP JUMPDEST DUP3 MSTORE POP POP JUMP JUMPDEST PUSH0 PUSH1 0x20 DUP3 ADD SWAP1 POP PUSH2 0x1FF1 PUSH0 DUP4 ADD DUP5 PUSH2 0x1FCF JUMP JUMPDEST SWAP3 SWAP2 POP POP JUMP JUMPDEST PUSH0 PUSH2 0x2001 DUP3 PUSH2 0x1F60 JUMP JUMPDEST SWAP1 POP SWAP2 SWAP1 POP JUMP JUMPDEST PUSH2 0x2011 DUP2 PUSH2 0x1FF7 JUMP JUMPDEST DUP2 EQ PUSH2 0x201B JUMPI PUSH0 DUP1 REVERT JUMPDEST POP JUMP JUMPDEST PUSH0 DUP2 CALLDATALOAD SWAP1 POP PUSH2 0x202C DUP2 PUSH2 0x2008 JUMP JUMPDEST SWAP3 SWAP2 POP POP JUMP JUMPDEST PUSH0 DUP1 PUSH0 DUP1 PUSH1 0x80 DUP6 DUP8 SUB SLT ISZERO PUSH2 0x204A JUMPI PUSH2 0x2049 PUSH2 0x1D83 JUMP JUMPDEST JUMPDEST PUSH0 PUSH2 0x2057 DUP8 DUP3 DUP9 ADD PUSH2 0x201E JUMP JUMPDEST SWAP5 POP POP PUSH1 0x20 PUSH2 0x2068 DUP8 DUP3 DUP9 ADD PUSH2 0x1F87 JUMP JUMPDEST SWAP4 POP POP PUSH1 0x40 PUSH2 0x2079 DUP8 DUP3 DUP9 ADD PUSH2 0x1F87 JUMP JUMPDEST SWAP3 POP POP PUSH1 0x60 PUSH2 0x208A DUP8 DUP3 DUP9 ADD PUSH2 0x1F87 JUMP JUMPDEST SWAP2 POP POP SWAP3 SWAP6 SWAP2 SWAP5 POP SWAP3 POP JUMP JUMPDEST PUSH0 DUP2 SWAP1 POP SWAP2 SWAP1 POP JUMP JUMPDEST PUSH0 PUSH2 0x20B9 PUSH2 0x20B4 PUSH2 0x20AF DUP5 PUSH2 0x1F41 JUMP JUMPDEST PUSH2 0x2096 JUMP JUMPDEST PUSH2 0x1F41 JUMP JUMPDEST SWAP1 POP SWAP2 SWAP1 POP JUMP JUMPDEST PUSH0 PUSH2 0x20CA DUP3 PUSH2 0x209F JUMP JUMPDEST SWAP1 POP SWAP2 SWAP1 POP JUMP JUMPDEST PUSH0 PUSH2 0x20DB DUP3 PUSH2 0x20C0 JUMP JUMPDEST SWAP1 POP SWAP2 SWAP1 POP JUMP JUMPDEST PUSH2 0x20EB DUP2 PUSH2 0x20D1 JUMP JUMPDEST DUP3 MSTORE POP POP JUMP JUMPDEST PUSH0 PUSH1 0x20 DUP3 ADD SWAP1 POP PUSH2 0x2104 PUSH0 DUP4 ADD DUP5 PUSH2 0x20E2 JUMP JUMPDEST SWAP3 SWAP2 POP POP JUMP JUMPDEST PUSH2 0x2113 DUP2 PUSH2 0x1FC6 JUMP JUMPDEST DUP2 EQ PUSH2 0x211D JUMPI PUSH0 DUP1 REVERT JUMPDEST POP JUMP JUMPDEST PUSH0 DUP2 CALLDATALOAD SWAP1 POP PUSH2 0x212E DUP2 PUSH2 0x210A JUMP JUMPDEST SWAP3 SWAP2 POP POP JUMP JUMPDEST PUSH0 PUSH8 0xFFFFFFFFFFFFFFFF DUP3 GT ISZERO PUSH2 0x214E JUMPI PUSH2 0x214D PUSH2 0x1DA3 JUMP JUMPDEST JUMPDEST PUSH2 0x2157 DUP3 PUSH2 0x1D93 JUMP JUMPDEST SWAP1 POP PUSH1 0x20 DUP2 ADD SWAP1 POP SWAP2 SWAP1 POP JUMP JUMPDEST PUSH0 PUSH2 0x2176 PUSH2 0x2171 DUP5 PUSH2 0x2134 JUMP JUMPDEST PUSH2 0x1E01 JUMP JUMPDEST SWAP1 POP DUP3 DUP2 MSTORE PUSH1 0x20 DUP2 ADD DUP5 DUP5 DUP5 ADD GT ISZERO PUSH2 0x2192 JUMPI PUSH2 0x2191 PUSH2 0x1D8F JUMP JUMPDEST JUMPDEST PUSH2 0x219D DUP5 DUP3 DUP6 PUSH2 0x1E4B JUMP JUMPDEST POP SWAP4 SWAP3 POP POP POP JUMP JUMPDEST PUSH0 DUP3 PUSH1 0x1F DUP4 ADD SLT PUSH2 0x21B9 JUMPI PUSH2 0x21B8 PUSH2 0x1D8B JUMP JUMPDEST JUMPDEST DUP2 CALLDATALOAD PUSH2 0x21C9 DUP5 DUP3 PUSH1 0x20 DUP7 ADD PUSH2 0x2164 JUMP JUMPDEST SWAP2 POP POP SWAP3 SWAP2 POP POP JUMP JUMPDEST PUSH0 DUP1 PUSH0 DUP1 PUSH0 DUP1 PUSH0 PUSH1 0xE0 DUP9 DUP11 SUB SLT ISZERO PUSH2 0x21ED JUMPI PUSH2 0x21EC PUSH2 0x1D83 JUMP JUMPDEST JUMPDEST PUSH0 PUSH2 0x21FA DUP11 DUP3 DUP12 ADD PUSH2 0x1F87 JUMP JUMPDEST SWAP8 POP POP PUSH1 0x20 PUSH2 0x220B DUP11 DUP3 DUP12 ADD PUSH2 0x1F87 JUMP JUMPDEST SWAP7 POP POP PUSH1 0x40 PUSH2 0x221C DUP11 DUP3 DUP12 ADD PUSH2 0x2120 JUMP JUMPDEST SWAP6 POP POP PUSH1 0x60 PUSH2 0x222D DUP11 DUP3 DUP12 ADD PUSH2 0x2120 JUMP JUMPDEST SWAP5 POP POP PUSH1 0x80 DUP9 ADD CALLDATALOAD PUSH8 0xFFFFFFFFFFFFFFFF DUP2 GT ISZERO PUSH2 0x224E JUMPI PUSH2 0x224D PUSH2 0x1D87 JUMP JUMPDEST JUMPDEST PUSH2 0x225A DUP11 DUP3 DUP12 ADD PUSH2 0x1E9A JUMP JUMPDEST SWAP4 POP POP PUSH1 0xA0 PUSH2 0x226B DUP11 DUP3 DUP12 ADD PUSH2 0x2120 JUMP JUMPDEST SWAP3 POP POP PUSH1 0xC0 DUP9 ADD CALLDATALOAD PUSH8 0xFFFFFFFFFFFFFFFF DUP2 GT ISZERO PUSH2 0x228C JUMPI PUSH2 0x228B PUSH2 0x1D87 JUMP JUMPDEST JUMPDEST PUSH2 0x2298 DUP11 DUP3 DUP12 ADD PUSH2 0x21A5 JUMP JUMPDEST SWAP2 POP POP SWAP3 SWAP6 SWAP9 SWAP2 SWAP5 SWAP8 POP SWAP3 SWAP6 POP JUMP JUMPDEST PUSH2 0x22B0 DUP2 PUSH2 0x1F60 JUMP JUMPDEST DUP3 MSTORE POP POP JUMP JUMPDEST PUSH0 PUSH1 0x20 DUP3 ADD SWAP1 POP PUSH2 0x22C9 PUSH0 DUP4 ADD DUP5 PUSH2 0x22A7 JUMP JUMPDEST SWAP3 SWAP2 POP POP JUMP JUMPDEST PUSH0 PUSH1 0x20 DUP3 DUP5 SUB SLT ISZERO PUSH2 0x22E4 JUMPI PUSH2 0x22E3 PUSH2 0x1D83 JUMP JUMPDEST JUMPDEST PUSH0 PUSH2 0x22F1 DUP5 DUP3 DUP6 ADD PUSH2 0x201E JUMP JUMPDEST SWAP2 POP POP SWAP3 SWAP2 POP POP JUMP JUMPDEST PUSH0 DUP1 PUSH0 PUSH1 0x60 DUP5 DUP7 SUB SLT ISZERO PUSH2 0x2311 JUMPI PUSH2 0x2310 PUSH2 0x1D83 JUMP JUMPDEST JUMPDEST PUSH0 PUSH2 0x231E DUP7 DUP3 DUP8 ADD PUSH2 0x2120 JUMP JUMPDEST SWAP4 POP POP PUSH1 0x20 PUSH2 0x232F DUP7 DUP3 DUP8 ADD PUSH2 0x2120 JUMP JUMPDEST SWAP3 POP POP PUSH1 0x40 PUSH2 0x2340 DUP7 DUP3 DUP8 ADD PUSH2 0x2120 JUMP JUMPDEST SWAP2 POP POP SWAP3 POP SWAP3 POP SWAP3 JUMP JUMPDEST PUSH0 DUP2 SWAP1 POP SWAP2 SWAP1 POP JUMP JUMPDEST PUSH2 0x235C DUP2 PUSH2 0x234A JUMP JUMPDEST DUP2 EQ PUSH2 0x2366 JUMPI PUSH0 DUP1 REVERT JUMPDEST POP JUMP JUMPDEST PUSH0 DUP2 CALLDATALOAD SWAP1 POP PUSH2 0x2377 DUP2 PUSH2 0x2353 JUMP JUMPDEST SWAP3 SWAP2 POP POP JUMP JUMPDEST PUSH0 DUP1 PUSH1 0x40 DUP4 DUP6 SUB SLT ISZERO PUSH2 0x2393 JUMPI PUSH2 0x2392 PUSH2 0x1D83 JUMP JUMPDEST JUMPDEST PUSH0 PUSH2 0x23A0 DUP6 DUP3 DUP7 ADD PUSH2 0x2369 JUMP JUMPDEST SWAP3 POP POP PUSH1 0x20 DUP4 ADD CALLDATALOAD PUSH8 0xFFFFFFFFFFFFFFFF DUP2 GT ISZERO PUSH2 0x23C1 JUMPI PUSH2 0x23C0 PUSH2 0x1D87 JUMP JUMPDEST JUMPDEST PUSH2 0x23CD DUP6 DUP3 DUP7 ADD PUSH2 0x21A5 JUMP JUMPDEST SWAP2 POP POP SWAP3 POP SWAP3 SWAP1 POP JUMP JUMPDEST PUSH0 PUSH1 0x20 DUP3 DUP5 SUB SLT ISZERO PUSH2 0x23EC JUMPI PUSH2 0x23EB PUSH2 0x1D83 JUMP JUMPDEST JUMPDEST PUSH0 PUSH2 0x23F9 DUP5 DUP3 DUP6 ADD PUSH2 0x2120 JUMP JUMPDEST SWAP2 POP POP SWAP3 SWAP2 POP POP JUMP JUMPDEST PUSH0 DUP2 MLOAD SWAP1 POP SWAP2 SWAP1 POP JUMP JUMPDEST PUSH0 DUP3 DUP3 MSTORE PUSH1 0x20 DUP3 ADD SWAP1 POP SWAP3 SWAP2 POP POP JUMP JUMPDEST DUP3 DUP2 DUP4 MCOPY PUSH0 DUP4 DUP4 ADD MSTORE POP POP POP JUMP JUMPDEST PUSH0 PUSH2 0x2434 DUP3 PUSH2 0x2402 JUMP JUMPDEST PUSH2 0x243E DUP2 DUP6 PUSH2 0x240C JUMP JUMPDEST SWAP4 POP PUSH2 0x244E DUP2 DUP6 PUSH1 0x20 DUP7 ADD PUSH2 0x241C JUMP JUMPDEST PUSH2 0x2457 DUP2 PUSH2 0x1D93 JUMP JUMPDEST DUP5 ADD SWAP2 POP POP SWAP3 SWAP2 POP POP JUMP JUMPDEST PUSH0 PUSH1 0xA0 DUP3 ADD SWAP1 POP PUSH2 0x2475 PUSH0 DUP4 ADD DUP9 PUSH2 0x22A7 JUMP JUMPDEST PUSH2 0x2482 PUSH1 0x20 DUP4 ADD DUP8 PUSH2 0x22A7 JUMP JUMPDEST PUSH2 0x248F PUSH1 0x40 DUP4 ADD DUP7 PUSH2 0x1FCF JUMP JUMPDEST DUP2 DUP2 SUB PUSH1 0x60 DUP4 ADD MSTORE PUSH2 0x24A1 DUP2 DUP6 PUSH2 0x242A JUMP JUMPDEST SWAP1 POP PUSH2 0x24B0 PUSH1 0x80 DUP4 ADD DUP5 PUSH2 0x1FCF JUMP JUMPDEST SWAP7 SWAP6 POP POP POP POP POP POP JUMP JUMPDEST PUSH0 DUP1 PUSH0 DUP1 PUSH0 DUP1 PUSH1 0xC0 DUP8 DUP10 SUB SLT ISZERO PUSH2 0x24D4 JUMPI PUSH2 0x24D3 PUSH2 0x1D83 JUMP JUMPDEST JUMPDEST PUSH0 PUSH2 0x24E1 DUP10 DUP3 DUP11 ADD PUSH2 0x1F87 JUMP JUMPDEST SWAP7 POP POP PUSH1 0x20 PUSH2 0x24F2 DUP10 DUP3 DUP11 ADD PUSH2 0x1F87 JUMP JUMPDEST SWAP6 POP POP PUSH1 0x40 PUSH2 0x2503 DUP10 DUP3 DUP11 ADD PUSH2 0x2120 JUMP JUMPDEST SWAP5 POP POP PUSH1 0x60 PUSH2 0x2514 DUP10 DUP3 DUP11 ADD PUSH2 0x2120 JUMP JUMPDEST SWAP4 POP POP PUSH1 0x80 DUP8 ADD CALLDATALOAD PUSH8 0xFFFFFFFFFFFFFFFF DUP2 GT ISZERO PUSH2 0x2535 JUMPI PUSH2 0x2534 PUSH2 0x1D87 JUMP JUMPDEST JUMPDEST PUSH2 0x2541 DUP10 DUP3 DUP11 ADD PUSH2 0x1E9A JUMP JUMPDEST SWAP3 POP POP PUSH1 0xA0 PUSH2 0x2552 DUP10 DUP3 DUP11 ADD PUSH2 0x2120 JUMP JUMPDEST SWAP2 POP POP SWAP3 SWAP6 POP SWAP3 SWAP6 POP SWAP3 SWAP6 JUMP JUMPDEST PUSH2 0x2568 DUP2 PUSH2 0x234A JUMP JUMPDEST DUP3 MSTORE POP POP JUMP JUMPDEST PUSH0 PUSH1 0x20 DUP3 ADD SWAP1 POP PUSH2 0x2581 PUSH0 DUP4 ADD DUP5 PUSH2 0x255F JUMP JUMPDEST SWAP3 SWAP2 POP POP JUMP JUMPDEST PUSH0 PUSH2 0x2591 DUP3 PUSH2 0x20C0 JUMP JUMPDEST SWAP1 POP SWAP2 SWAP1 POP JUMP JUMPDEST PUSH2 0x25A1 DUP2 PUSH2 0x2587 JUMP JUMPDEST DUP3 MSTORE POP POP JUMP JUMPDEST PUSH0 PUSH1 0x20 DUP3 ADD SWAP1 POP PUSH2 0x25BA PUSH0 DUP4 ADD DUP5 PUSH2 0x2598 JUMP JUMPDEST SWAP3 SWAP2 POP POP JUMP JUMPDEST PUSH32 0x4F6E6C79206F776E65722063616E2063616C6C20746869732066756E6374696F PUSH0 DUP3 ADD MSTORE PUSH32 0x6E00000000000000000000000000000000000000000000000000000000000000 PUSH1 0x20 DUP3 ADD MSTORE POP JUMP JUMPDEST PUSH0 PUSH2 0x261A PUSH1 0x21 DUP4 PUSH2 0x240C JUMP JUMPDEST SWAP2 POP PUSH2 0x2625 DUP3 PUSH2 0x25C0 JUMP JUMPDEST PUSH1 0x40 DUP3 ADD SWAP1 POP SWAP2 SWAP1 POP JUMP JUMPDEST PUSH0 PUSH1 0x20 DUP3 ADD SWAP1 POP DUP2 DUP2 SUB PUSH0 DUP4 ADD MSTORE PUSH2 0x2647 DUP2 PUSH2 0x260E JUMP JUMPDEST SWAP1 POP SWAP2 SWAP1 POP JUMP JUMPDEST PUSH32 0x4F6E6C792063616C6C61626C65206279205472757374656420466F7277617264 PUSH0 DUP3 ADD MSTORE PUSH32 0x6572000000000000000000000000000000000000000000000000000000000000 PUSH1 0x20 DUP3 ADD MSTORE POP JUMP JUMPDEST PUSH0 PUSH2 0x26A8 PUSH1 0x22 DUP4 PUSH2 0x240C JUMP JUMPDEST SWAP2 POP PUSH2 0x26B3 DUP3 PUSH2 0x264E JUMP JUMPDEST PUSH1 0x40 DUP3 ADD SWAP1 POP SWAP2 SWAP1 POP JUMP JUMPDEST PUSH0 PUSH1 0x20 DUP3 ADD SWAP1 POP DUP2 DUP2 SUB PUSH0 DUP4 ADD MSTORE PUSH2 0x26D5 DUP2 PUSH2 0x269C JUMP JUMPDEST SWAP1 POP SWAP2 SWAP1 POP JUMP JUMPDEST PUSH32 0x43563A20627579657220746F20746865207A65726F2061646472657373000000 PUSH0 DUP3 ADD MSTORE POP JUMP JUMPDEST PUSH0 PUSH2 0x2710 PUSH1 0x1D DUP4 PUSH2 0x240C JUMP JUMPDEST SWAP2 POP PUSH2 0x271B DUP3 PUSH2 0x26DC JUMP JUMPDEST PUSH1 0x20 DUP3 ADD SWAP1 POP SWAP2 SWAP1 POP JUMP JUMPDEST PUSH0 PUSH1 0x20 DUP3 ADD SWAP1 POP DUP2 DUP2 SUB PUSH0 DUP4 ADD MSTORE PUSH2 0x273D DUP2 PUSH2 0x2704 JUMP JUMPDEST SWAP1 POP SWAP2 SWAP1 POP JUMP JUMPDEST PUSH32 0x43563A20696E76616C6964205F7369676E617475726500000000000000000000 PUSH0 DUP3 ADD MSTORE POP JUMP JUMPDEST PUSH0 PUSH2 0x2778 PUSH1 0x16 DUP4 PUSH2 0x240C JUMP JUMPDEST SWAP2 POP PUSH2 0x2783 DUP3 PUSH2 0x2744 JUMP JUMPDEST PUSH1 0x20 DUP3 ADD SWAP1 POP SWAP2 SWAP1 POP JUMP JUMPDEST PUSH0 PUSH1 0x20 DUP3 ADD SWAP1 POP DUP2 DUP2 SUB PUSH0 DUP4 ADD MSTORE PUSH2 0x27A5 DUP2 PUSH2 0x276C JUMP JUMPDEST SWAP1 POP SWAP2 SWAP1 POP JUMP JUMPDEST PUSH32 0x757364742061646472657373206E6F7420636F6E666967000000000000000000 PUSH0 DUP3 ADD MSTORE POP JUMP JUMPDEST PUSH0 PUSH2 0x27E0 PUSH1 0x17 DUP4 PUSH2 0x240C JUMP JUMPDEST SWAP2 POP PUSH2 0x27EB DUP3 PUSH2 0x27AC JUMP JUMPDEST PUSH1 0x20 DUP3 ADD SWAP1 POP SWAP2 SWAP1 POP JUMP JUMPDEST PUSH0 PUSH1 0x20 DUP3 ADD SWAP1 POP DUP2 DUP2 SUB PUSH0 DUP4 ADD MSTORE PUSH2 0x280D DUP2 PUSH2 0x27D4 JUMP JUMPDEST SWAP1 POP SWAP2 SWAP1 POP JUMP JUMPDEST PUSH32 0x757364632061646472657373206E6F7420636F6E666967000000000000000000 PUSH0 DUP3 ADD MSTORE POP JUMP JUMPDEST PUSH0 PUSH2 0x2848 PUSH1 0x17 DUP4 PUSH2 0x240C JUMP JUMPDEST SWAP2 POP PUSH2 0x2853 DUP3 PUSH2 0x2814 JUMP JUMPDEST PUSH1 0x20 DUP3 ADD SWAP1 POP SWAP2 SWAP1 POP JUMP JUMPDEST PUSH0 PUSH1 0x20 DUP3 ADD SWAP1 POP DUP2 DUP2 SUB PUSH0 DUP4 ADD MSTORE PUSH2 0x2875 DUP2 PUSH2 0x283C JUMP JUMPDEST SWAP1 POP SWAP2 SWAP1 POP JUMP JUMPDEST PUSH32 0x6574682061646472657373206E6F7420636F6E66696700000000000000000000 PUSH0 DUP3 ADD MSTORE POP JUMP JUMPDEST PUSH0 PUSH2 0x28B0 PUSH1 0x16 DUP4 PUSH2 0x240C JUMP JUMPDEST SWAP2 POP PUSH2 0x28BB DUP3 PUSH2 0x287C JUMP JUMPDEST PUSH1 0x20 DUP3 ADD SWAP1 POP SWAP2 SWAP1 POP JUMP JUMPDEST PUSH0 PUSH1 0x20 DUP3 ADD SWAP1 POP DUP2 DUP2 SUB PUSH0 DUP4 ADD MSTORE PUSH2 0x28DD DUP2 PUSH2 0x28A4 JUMP JUMPDEST SWAP1 POP SWAP2 SWAP1 POP JUMP JUMPDEST PUSH32 0x756D692061646472657373206E6F7420636F6E66696700000000000000000000 PUSH0 DUP3 ADD MSTORE POP JUMP JUMPDEST PUSH0 PUSH2 0x2918 PUSH1 0x16 DUP4 PUSH2 0x240C JUMP JUMPDEST SWAP2 POP PUSH2 0x2923 DUP3 PUSH2 0x28E4 JUMP JUMPDEST PUSH1 0x20 DUP3 ADD SWAP1 POP SWAP2 SWAP1 POP JUMP JUMPDEST PUSH0 PUSH1 0x20 DUP3 ADD SWAP1 POP DUP2 DUP2 SUB PUSH0 DUP4 ADD MSTORE PUSH2 0x2945 DUP2 PUSH2 0x290C JUMP JUMPDEST SWAP1 POP SWAP2 SWAP1 POP JUMP JUMPDEST PUSH32 0x4E487B7100000000000000000000000000000000000000000000000000000000 PUSH0 MSTORE PUSH1 0x22 PUSH1 0x4 MSTORE PUSH1 0x24 PUSH0 REVERT JUMPDEST PUSH0 PUSH1 0x2 DUP3 DIV SWAP1 POP PUSH1 0x1 DUP3 AND DUP1 PUSH2 0x2990 JUMPI PUSH1 0x7F DUP3 AND SWAP2 POP JUMPDEST PUSH1 0x20 DUP3 LT DUP2 SUB PUSH2 0x29A3 JUMPI PUSH2 0x29A2 PUSH2 0x294C JUMP JUMPDEST JUMPDEST POP SWAP2 SWAP1 POP JUMP JUMPDEST PUSH0 DUP2 SWAP1 POP DUP2 PUSH0 MSTORE PUSH1 0x20 PUSH0 KECCAK256 SWAP1 POP SWAP2 SWAP1 POP JUMP JUMPDEST PUSH0 PUSH1 0x20 PUSH1 0x1F DUP4 ADD DIV SWAP1 POP SWAP2 SWAP1 POP JUMP JUMPDEST PUSH0 DUP3 DUP3 SHL SWAP1 POP SWAP3 SWAP2 POP POP JUMP JUMPDEST PUSH0 PUSH1 0x8 DUP4 MUL PUSH2 0x2A05 PUSH32 0xFFFFFFFFFFFFFFFFFFFFFFFFFFFFFFFFFFFFFFFFFFFFFFFFFFFFFFFFFFFFFFFF DUP3 PUSH2 0x29CA JUMP JUMPDEST PUSH2 0x2A0F DUP7 DUP4 PUSH2 0x29CA JUMP JUMPDEST SWAP6 POP DUP1 NOT DUP5 AND SWAP4 POP DUP1 DUP7 AND DUP5 OR SWAP3 POP POP POP SWAP4 SWAP3 POP POP POP JUMP JUMPDEST PUSH0 PUSH2 0x2A41 PUSH2 0x2A3C PUSH2 0x2A37 DUP5 PUSH2 0x1FC6 JUMP JUMPDEST PUSH2 0x2096 JUMP JUMPDEST PUSH2 0x1FC6 JUMP JUMPDEST SWAP1 POP SWAP2 SWAP1 POP JUMP JUMPDEST PUSH0 DUP2 SWAP1 POP SWAP2 SWAP1 POP JUMP JUMPDEST PUSH2 0x2A5A DUP4 PUSH2 0x2A27 JUMP JUMPDEST PUSH2 0x2A6E PUSH2 0x2A66 DUP3 PUSH2 0x2A48 JUMP JUMPDEST DUP5 DUP5 SLOAD PUSH2 0x29D6 JUMP JUMPDEST DUP3 SSTORE POP POP POP POP JUMP JUMPDEST PUSH0 SWAP1 JUMP JUMPDEST PUSH2 0x2A82 PUSH2 0x2A76 JUMP JUMPDEST PUSH2 0x2A8D DUP2 DUP5 DUP5 PUSH2 0x2A51 JUMP JUMPDEST POP POP POP JUMP JUMPDEST JUMPDEST DUP2 DUP2 LT ISZERO PUSH2 0x2AB0 JUMPI PUSH2 0x2AA5 PUSH0 DUP3 PUSH2 0x2A7A JUMP JUMPDEST PUSH1 0x1 DUP2 ADD SWAP1 POP PUSH2 0x2A93 JUMP JUMPDEST POP POP JUMP JUMPDEST PUSH1 0x1F DUP3 GT ISZERO PUSH2 0x2AF5 JUMPI PUSH2 0x2AC6 DUP2 PUSH2 0x29A9 JUMP JUMPDEST PUSH2 0x2ACF DUP5 PUSH2 0x29BB JUMP JUMPDEST DUP2 ADD PUSH1 0x20 DUP6 LT ISZERO PUSH2 0x2ADE JUMPI DUP2 SWAP1 POP JUMPDEST PUSH2 0x2AF2 PUSH2 0x2AEA DUP6 PUSH2 0x29BB JUMP JUMPDEST DUP4 ADD DUP3 PUSH2 0x2A92 JUMP JUMPDEST POP POP JUMPDEST POP POP POP JUMP JUMPDEST PUSH0 DUP3 DUP3 SHR SWAP1 POP SWAP3 SWAP2 POP POP JUMP JUMPDEST PUSH0 PUSH2 0x2B15 PUSH0 NOT DUP5 PUSH1 0x8 MUL PUSH2 0x2AFA JUMP JUMPDEST NOT DUP1 DUP4 AND SWAP2 POP POP SWAP3 SWAP2 POP POP JUMP JUMPDEST PUSH0 PUSH2 0x2B2D DUP4 DUP4 PUSH2 0x2B06 JUMP JUMPDEST SWAP2 POP DUP3 PUSH1 0x2 MUL DUP3 OR SWAP1 POP SWAP3 SWAP2 POP POP JUMP JUMPDEST PUSH2 0x2B46 DUP3 PUSH2 0x2402 JUMP JUMPDEST PUSH8 0xFFFFFFFFFFFFFFFF DUP2 GT ISZERO PUSH2 0x2B5F JUMPI PUSH2 0x2B5E PUSH2 0x1DA3 JUMP JUMPDEST JUMPDEST PUSH2 0x2B69 DUP3 SLOAD PUSH2 0x2979 JUMP JUMPDEST PUSH2 0x2B74 DUP3 DUP3 DUP6 PUSH2 0x2AB4 JUMP JUMPDEST PUSH0 PUSH1 0x20 SWAP1 POP PUSH1 0x1F DUP4 GT PUSH1 0x1 DUP2 EQ PUSH2 0x2BA5 JUMPI PUSH0 DUP5 ISZERO PUSH2 0x2B93 JUMPI DUP3 DUP8 ADD MLOAD SWAP1 POP JUMPDEST PUSH2 0x2B9D DUP6 DUP3 PUSH2 0x2B22 JUMP JUMPDEST DUP7 SSTORE POP PUSH2 0x2C04 JUMP JUMPDEST PUSH1 0x1F NOT DUP5 AND PUSH2 0x2BB3 DUP7 PUSH2 0x29A9 JUMP JUMPDEST PUSH0 JUMPDEST DUP3 DUP2 LT ISZERO PUSH2 0x2BDA JUMPI DUP5 DUP10 ADD MLOAD DUP3 SSTORE PUSH1 0x1 DUP3 ADD SWAP2 POP PUSH1 0x20 DUP6 ADD SWAP5 POP PUSH1 0x20 DUP2 ADD SWAP1 POP PUSH2 0x2BB5 JUMP JUMPDEST DUP7 DUP4 LT ISZERO PUSH2 0x2BF7 JUMPI DUP5 DUP10 ADD MLOAD PUSH2 0x2BF3 PUSH1 0x1F DUP10 AND DUP3 PUSH2 0x2B06 JUMP JUMPDEST DUP4 SSTORE POP JUMPDEST PUSH1 0x1 PUSH1 0x2 DUP9 MUL ADD DUP9 SSTORE POP POP POP JUMPDEST POP POP POP POP POP POP JUMP JUMPDEST PUSH32 0x4E487B7100000000000000000000000000000000000000000000000000000000 PUSH0 MSTORE PUSH1 0x11 PUSH1 0x4 MSTORE PUSH1 0x24 PUSH0 REVERT JUMPDEST PUSH0 PUSH2 0x2C43 DUP3 PUSH2 0x1FC6 JUMP JUMPDEST SWAP2 POP PUSH2 0x2C4E DUP4 PUSH2 0x1FC6 JUMP JUMPDEST SWAP3 POP DUP3 DUP3 ADD SWAP1 POP DUP1 DUP3 GT ISZERO PUSH2 0x2C66 JUMPI PUSH2 0x2C65 PUSH2 0x2C0C JUMP JUMPDEST JUMPDEST SWAP3 SWAP2 POP POP JUMP JUMPDEST PUSH0 DUP2 MLOAD SWAP1 POP SWAP2 SWAP1 POP JUMP JUMPDEST PUSH0 DUP3 DUP3 MSTORE PUSH1 0x20 DUP3 ADD SWAP1 POP SWAP3 SWAP2 POP POP JUMP JUMPDEST PUSH0 PUSH2 0x2C90 DUP3 PUSH2 0x2C6C JUMP JUMPDEST PUSH2 0x2C9A DUP2 DUP6 PUSH2 0x2C76 JUMP JUMPDEST SWAP4 POP PUSH2 0x2CAA DUP2 DUP6 PUSH1 0x20 DUP7 ADD PUSH2 0x241C JUMP JUMPDEST PUSH2 0x2CB3 DUP2 PUSH2 0x1D93 JUMP JUMPDEST DUP5 ADD SWAP2 POP POP SWAP3 SWAP2 POP POP JUMP JUMPDEST PUSH0 PUSH1 0xE0 DUP3 ADD SWAP1 POP PUSH2 0x2CD1 PUSH0 DUP4 ADD DUP11 PUSH2 0x22A7 JUMP JUMPDEST PUSH2 0x2CDE PUSH1 0x20 DUP4 ADD DUP10 PUSH2 0x22A7 JUMP JUMPDEST PUSH2 0x2CEB PUSH1 0x40 DUP4 ADD DUP9 PUSH2 0x1FCF JUMP JUMPDEST PUSH2 0x2CF8 PUSH1 0x60 DUP4 ADD DUP8 PUSH2 0x1FCF JUMP JUMPDEST DUP2 DUP2 SUB PUSH1 0x80 DUP4 ADD MSTORE PUSH2 0x2D0A DUP2 DUP7 PUSH2 0x242A JUMP JUMPDEST SWAP1 POP PUSH2 0x2D19 PUSH1 0xA0 DUP4 ADD DUP6 PUSH2 0x1FCF JUMP JUMPDEST DUP2 DUP2 SUB PUSH1 0xC0 DUP4 ADD MSTORE PUSH2 0x2D2B DUP2 DUP5 PUSH2 0x2C86 JUMP JUMPDEST SWAP1 POP SWAP9 SWAP8 POP POP POP POP POP POP POP POP JUMP JUMPDEST PUSH0 PUSH1 0xFF DUP3 AND SWAP1 POP SWAP2 SWAP1 POP JUMP JUMPDEST PUSH2 0x2D4E DUP2 PUSH2 0x2D39 JUMP JUMPDEST DUP3 MSTORE POP POP JUMP JUMPDEST PUSH0 PUSH1 0x80 DUP3 ADD SWAP1 POP PUSH2 0x2D67 PUSH0 DUP4 ADD DUP8 PUSH2 0x255F JUMP JUMPDEST PUSH2 0x2D74 PUSH1 0x20 DUP4 ADD DUP7 PUSH2 0x2D45 JUMP JUMPDEST PUSH2 0x2D81 PUSH1 0x40 DUP4 ADD DUP6 PUSH2 0x255F JUMP JUMPDEST PUSH2 0x2D8E PUSH1 0x60 DUP4 ADD DUP5 PUSH2 0x255F JUMP JUMPDEST SWAP6 SWAP5 POP POP POP POP POP JUMP JUMPDEST PUSH32 0x746F6B656E206E6F7420737570706F7274000000000000000000000000000000 PUSH0 DUP3 ADD MSTORE POP JUMP JUMPDEST PUSH0 PUSH2 0x2DCB PUSH1 0x11 DUP4 PUSH2 0x240C JUMP JUMPDEST SWAP2 POP PUSH2 0x2DD6 DUP3 PUSH2 0x2D97 JUMP JUMPDEST PUSH1 0x20 DUP3 ADD SWAP1 POP SWAP2 SWAP1 POP JUMP JUMPDEST PUSH0 PUSH1 0x20 DUP3 ADD SWAP1 POP DUP2 DUP2 SUB PUSH0 DUP4 ADD MSTORE PUSH2 0x2DF8 DUP2 PUSH2 0x2DBF JUMP JUMPDEST SWAP1 POP SWAP2 SWAP1 POP JUMP JUMPDEST PUSH0 DUP2 PUSH1 0x60 SHL SWAP1 POP SWAP2 SWAP1 POP JUMP JUMPDEST PUSH0 PUSH2 0x2E15 DUP3 PUSH2 0x2DFF JUMP JUMPDEST SWAP1 POP SWAP2 SWAP1 POP JUMP JUMPDEST PUSH0 PUSH2 0x2E26 DUP3 PUSH2 0x2E0B JUMP JUMPDEST SWAP1 POP SWAP2 SWAP1 POP JUMP JUMPDEST PUSH2 0x2E3E PUSH2 0x2E39 DUP3 PUSH2 0x1F60 JUMP JUMPDEST PUSH2 0x2E1C JUMP JUMPDEST DUP3 MSTORE POP POP JUMP JUMPDEST PUSH0 DUP2 SWAP1 POP SWAP2 SWAP1 POP JUMP JUMPDEST PUSH2 0x2E5E PUSH2 0x2E59 DUP3 PUSH2 0x1FC6 JUMP JUMPDEST PUSH2 0x2E44 JUMP JUMPDEST DUP3 MSTORE POP POP JUMP JUMPDEST PUSH0 DUP2 SWAP1 POP SWAP3 SWAP2 POP POP JUMP JUMPDEST PUSH0 PUSH2 0x2E78 DUP3 PUSH2 0x2402 JUMP JUMPDEST PUSH2 0x2E82 DUP2 DUP6 PUSH2 0x2E64 JUMP JUMPDEST SWAP4 POP PUSH2 0x2E92 DUP2 DUP6 PUSH1 0x20 DUP7 ADD PUSH2 0x241C JUMP JUMPDEST DUP1 DUP5 ADD SWAP2 POP POP SWAP3 SWAP2 POP POP JUMP JUMPDEST PUSH0 PUSH2 0x2EA9 DUP3 DUP10 PUSH2 0x2E2D JUMP JUMPDEST PUSH1 0x14 DUP3 ADD SWAP2 POP PUSH2 0x2EB9 DUP3 DUP9 PUSH2 0x2E2D JUMP JUMPDEST PUSH1 0x14 DUP3 ADD SWAP2 POP PUSH2 0x2EC9 DUP3 DUP8 PUSH2 0x2E4D JUMP JUMPDEST PUSH1 0x20 DUP3 ADD SWAP2 POP PUSH2 0x2ED9 DUP3 DUP7 PUSH2 0x2E4D JUMP JUMPDEST PUSH1 0x20 DUP3 ADD SWAP2 POP PUSH2 0x2EE9 DUP3 DUP6 PUSH2 0x2E6E JUMP JUMPDEST SWAP2 POP PUSH2 0x2EF5 DUP3 DUP5 PUSH2 0x2E4D JUMP JUMPDEST PUSH1 0x20 DUP3 ADD SWAP2 POP DUP2 SWAP1 POP SWAP8 SWAP7 POP POP POP POP POP POP POP JUMP JUMPDEST PUSH0 PUSH2 0x2F14 DUP3 DUP5 PUSH2 0x2E6E JUMP JUMPDEST SWAP2 POP DUP2 SWAP1 POP SWAP3 SWAP2 POP POP JUMP JUMPDEST PUSH0 PUSH1 0x60 DUP3 ADD SWAP1 POP PUSH2 0x2F32 PUSH0 DUP4 ADD DUP7 PUSH2 0x22A7 JUMP JUMPDEST PUSH2 0x2F3F PUSH1 0x20 DUP4 ADD DUP6 PUSH2 0x22A7 JUMP JUMPDEST PUSH2 0x2F4C PUSH1 0x40 DUP4 ADD DUP5 PUSH2 0x1FCF JUMP JUMPDEST SWAP5 SWAP4 POP POP POP POP JUMP JUMPDEST PUSH2 0x2F5D DUP2 PUSH2 0x1F0E JUMP JUMPDEST DUP2 EQ PUSH2 0x2F67 JUMPI PUSH0 DUP1 REVERT JUMPDEST POP JUMP JUMPDEST PUSH0 DUP2 MLOAD SWAP1 POP PUSH2 0x2F78 DUP2 PUSH2 0x2F54 JUMP JUMPDEST SWAP3 SWAP2 POP POP JUMP JUMPDEST PUSH0 PUSH1 0x20 DUP3 DUP5 SUB SLT ISZERO PUSH2 0x2F93 JUMPI PUSH2 0x2F92 PUSH2 0x1D83 JUMP JUMPDEST JUMPDEST PUSH0 PUSH2 0x2FA0 DUP5 DUP3 DUP6 ADD PUSH2 0x2F6A JUMP JUMPDEST SWAP2 POP POP SWAP3 SWAP2 POP POP JUMP JUMPDEST PUSH0 PUSH2 0x2FB3 DUP3 PUSH2 0x1FC6 JUMP JUMPDEST SWAP2 POP PUSH2 0x2FBE DUP4 PUSH2 0x1FC6 JUMP JUMPDEST SWAP3 POP DUP3 DUP3 SUB SWAP1 POP DUP2 DUP2 GT ISZERO PUSH2 0x2FD6 JUMPI PUSH2 0x2FD5 PUSH2 0x2C0C JUMP JUMPDEST JUMPDEST SWAP3 SWAP2 POP POP JUMP JUMPDEST PUSH0 PUSH1 0x40 DUP3 ADD SWAP1 POP PUSH2 0x2FEF PUSH0 DUP4 ADD DUP6 PUSH2 0x22A7 JUMP JUMPDEST PUSH2 0x2FFC PUSH1 0x20 DUP4 ADD DUP5 PUSH2 0x1FCF JUMP JUMPDEST SWAP4 SWAP3 POP POP POP JUMP JUMPDEST PUSH32 0x696E76616C6964207369676E6174757265206C656E6774680000000000000000 PUSH0 DUP3 ADD MSTORE POP JUMP JUMPDEST PUSH0 PUSH2 0x3037 PUSH1 0x18 DUP4 PUSH2 0x240C JUMP JUMPDEST SWAP2 POP PUSH2 0x3042 DUP3 PUSH2 0x3003 JUMP JUMPDEST PUSH1 0x20 DUP3 ADD SWAP1 POP SWAP2 SWAP1 POP JUMP JUMPDEST PUSH0 PUSH1 0x20 DUP3 ADD SWAP1 POP DUP2 DUP2 SUB PUSH0 DUP4 ADD MSTORE PUSH2 0x3064 DUP2 PUSH2 0x302B JUMP JUMPDEST SWAP1 POP SWAP2 SWAP1 POP JUMP JUMPDEST PUSH32 0x19457468657265756D205369676E6564204D6573736167653A0A333200000000 PUSH0 DUP3 ADD MSTORE POP JUMP JUMPDEST PUSH0 PUSH2 0x309F PUSH1 0x1C DUP4 PUSH2 0x2E64 JUMP JUMPDEST SWAP2 POP PUSH2 0x30AA DUP3 PUSH2 0x306B JUMP JUMPDEST PUSH1 0x1C DUP3 ADD SWAP1 POP SWAP2 SWAP1 POP JUMP JUMPDEST PUSH0 DUP2 SWAP1 POP SWAP2 SWAP1 POP JUMP JUMPDEST PUSH2 0x30CF PUSH2 0x30CA DUP3 PUSH2 0x234A JUMP JUMPDEST PUSH2 0x30B5 JUMP JUMPDEST DUP3 MSTORE POP POP JUMP JUMPDEST PUSH0 PUSH2 0x30DF DUP3 PUSH2 0x3093 JUMP JUMPDEST SWAP2 POP PUSH2 0x30EB DUP3 DUP5 PUSH2 0x30BE JUMP JUMPDEST PUSH1 0x20 DUP3 ADD SWAP2 POP DUP2 SWAP1 POP SWAP3 SWAP2 POP POP JUMP JUMPDEST PUSH0 PUSH2 0x3104 DUP3 PUSH2 0x1FC6 JUMP JUMPDEST SWAP2 POP PUSH2 0x310F DUP4 PUSH2 0x1FC6 JUMP JUMPDEST SWAP3 POP DUP3 DUP3 MUL PUSH2 0x311D DUP2 PUSH2 0x1FC6 JUMP JUMPDEST SWAP2 POP DUP3 DUP3 DIV DUP5 EQ DUP4 ISZERO OR PUSH2 0x3134 JUMPI PUSH2 0x3133 PUSH2 0x2C0C JUMP JUMPDEST JUMPDEST POP SWAP3 SWAP2 POP POP JUMP JUMPDEST PUSH32 0x4E487B7100000000000000000000000000000000000000000000000000000000 PUSH0 MSTORE PUSH1 0x12 PUSH1 0x4 MSTORE PUSH1 0x24 PUSH0 REVERT JUMPDEST PUSH0 PUSH2 0x3172 DUP3 PUSH2 0x1FC6 JUMP JUMPDEST SWAP2 POP PUSH2 0x317D DUP4 PUSH2 0x1FC6 JUMP JUMPDEST SWAP3 POP DUP3 PUSH2 0x318D JUMPI PUSH2 0x318C PUSH2 0x313B JUMP JUMPDEST JUMPDEST DUP3 DUP3 DIV SWAP1 POP SWAP3 SWAP2 POP POP JUMP JUMPDEST PUSH32 0x536166654D6174683A206D756C7469706C69636174696F6E206F766572666C6F PUSH0 DUP3 ADD MSTORE PUSH32 0x7700000000000000000000000000000000000000000000000000000000000000 PUSH1 0x20 DUP3 ADD MSTORE POP JUMP JUMPDEST PUSH0 PUSH2 0x31F2 PUSH1 0x21 DUP4 PUSH2 0x240C JUMP JUMPDEST SWAP2 POP PUSH2 0x31FD DUP3 PUSH2 0x3198 JUMP JUMPDEST PUSH1 0x40 DUP3 ADD SWAP1 POP SWAP2 SWAP1 POP JUMP JUMPDEST PUSH0 PUSH1 0x20 DUP3 ADD SWAP1 POP DUP2 DUP2 SUB PUSH0 DUP4 ADD MSTORE PUSH2 0x321F DUP2 PUSH2 0x31E6 JUMP JUMPDEST SWAP1 POP SWAP2 SWAP1 POP JUMP JUMPDEST PUSH0 PUSH1 0x20 DUP3 ADD SWAP1 POP DUP2 DUP2 SUB PUSH0 DUP4 ADD MSTORE PUSH2 0x323E DUP2 DUP5 PUSH2 0x242A JUMP JUMPDEST SWAP1 POP SWAP3 SWAP2 POP POP JUMP INVALID LOG2 PUSH5 0x6970667358 0x22 SLT KECCAK256 LOG4 DUP16 TSTORE 0x2A 0xC7 0xEA 0xA9 0xE4 BASEFEE DUP1 ADD 0xE2 PUSH29 0xE510C18B1CE8FDFB129D95C34872A0AA21F61764736F6C634300081900 CALLER "
		},
		"gasEstimates": {
			"creation": {
				"codeDepositCost": "2584800",
				"executionCost": "infinite",
				"totalCost": "infinite"
			},
			"external": {
				"config(address,address,address,address)": "infinite",
				"eth()": "infinite",
				"feeAddress()": "2598",
				"getMessageHash(address,address,uint256,uint256,string,uint256)": "infinite",
				"isTokenSupported(string)": "infinite",
				"isTrustedForwarder(address)": "infinite",
				"nextOrderId()": "2537",
				"orders(uint256)": "infinite",
				"owner()": "2616",
				"presale(address,address,uint256,uint256,string,uint256,bytes)": "infinite",
				"presaleFeeToDeveloper()": "2513",
				"presaleFeeToRewardFund()": "2493",
				"presaleFeeToUmi()": "2535",
				"recoverSignerPublic(bytes32,bytes)": "infinite",
				"rewardPoolAddress()": "2553",
				"setEth(address)": "26927",
				"setFee(uint256,uint256,uint256)": "infinite",
				"setUmi(address)": "26948",
				"setUmiverseNFT(address)": "26968",
				"setUsdc(address)": "26947",
				"setUsdt(address)": "26970",
				"signerAddress()": "2531",
				"umi()": "infinite",
				"umiverseNFT()": "infinite",
				"usdc()": "infinite",
				"usdt()": "infinite"
			},
			"internal": {
				"compareStrings(string memory,string memory)": "infinite",
				"getEthSignedMessageHash(bytes32)": "infinite",
				"processTrade(contract IERC20,address,address,uint256)": "infinite",
				"recoverSigner(bytes32,bytes memory)": "infinite",
				"splitSignature(bytes memory)": "infinite",
				"verify(address,address,uint256,uint256,string memory,uint256,bytes memory)": "infinite"
			}
		},
		"methodIdentifiers": {
			"config(address,address,address,address)": "2983a97c",
			"eth()": "8c7c9e0c",
			"feeAddress()": "41275358",
			"getMessageHash(address,address,uint256,uint256,string,uint256)": "bbb99baa",
			"isTokenSupported(string)": "0d3652ec",
			"isTrustedForwarder(address)": "572b6c05",
			"nextOrderId()": "2a58b330",
			"orders(uint256)": "a85c38ef",
			"owner()": "8da5cb5b",
			"presale(address,address,uint256,uint256,string,uint256,bytes)": "3fd02241",
			"presaleFeeToDeveloper()": "d1faf157",
			"presaleFeeToRewardFund()": "14754e66",
			"presaleFeeToUmi()": "d339db94",
			"recoverSignerPublic(bytes32,bytes)": "9f2585a1",
			"rewardPoolAddress()": "845a51ec",
			"setEth(address)": "122c6fd7",
			"setFee(uint256,uint256,uint256)": "5b65b9ab",
			"setUmi(address)": "8b225f06",
			"setUmiverseNFT(address)": "56acfe29",
			"setUsdc(address)": "cb146879",
			"setUsdt(address)": "58979bfe",
			"signerAddress()": "5b7633d0",
			"umi()": "94dd453a",
			"umiverseNFT()": "c46acff5",
			"usdc()": "3e413bee",
			"usdt()": "2f48ab7d"
		}
	},
	"abi": [
		{
			"inputs": [
				{
					"internalType": "address",
					"name": "trustedForwarder",
					"type": "address"
				},
				{
					"internalType": "contract UMIVERSE",
					"name": "_umiverseNFT",
					"type": "address"
				},
				{
					"internalType": "address",
					"name": "_feeAddress",
					"type": "address"
				},
				{
					"internalType": "address",
					"name": "_rewardPoolAddress",
					"type": "address"
				},
				{
					"internalType": "address",
					"name": "_signerAddress",
					"type": "address"
				}
			],
			"stateMutability": "nonpayable",
			"type": "constructor"
		},
		{
			"anonymous": false,
			"inputs": [
				{
					"indexed": false,
					"internalType": "address",
					"name": "sender",
					"type": "address"
				},
				{
					"indexed": false,
					"internalType": "address",
					"name": "receiver",
					"type": "address"
				},
				{
					"indexed": false,
					"internalType": "uint256",
					"name": "nftid",
					"type": "uint256"
				},
				{
					"indexed": false,
					"internalType": "uint256",
					"name": "price",
					"type": "uint256"
				},
				{
					"indexed": false,
					"internalType": "string",
					"name": "_priceType",
					"type": "string"
				},
				{
					"indexed": false,
					"internalType": "uint256",
					"name": "timestamp",
					"type": "uint256"
				},
				{
					"indexed": false,
					"internalType": "bytes",
					"name": "_signature",
					"type": "bytes"
				}
			],
			"name": "Presale",
			"type": "event"
		},
		{
			"inputs": [
				{
					"internalType": "contract UMIVERSE",
					"name": "_umiverseNFT",
					"type": "address"
				},
				{
					"internalType": "address",
					"name": "_feeAddress",
					"type": "address"
				},
				{
					"internalType": "address",
					"name": "_rewardPoolAddress",
					"type": "address"
				},
				{
					"internalType": "address",
					"name": "_signerAddress",
					"type": "address"
				}
			],
			"name": "config",
			"outputs": [],
			"stateMutability": "nonpayable",
			"type": "function"
		},
		{
			"inputs": [],
			"name": "eth",
			"outputs": [
				{
					"internalType": "contract IERC20",
					"name": "",
					"type": "address"
				}
			],
			"stateMutability": "view",
			"type": "function"
		},
		{
			"inputs": [],
			"name": "feeAddress",
			"outputs": [
				{
					"internalType": "address",
					"name": "",
					"type": "address"
				}
			],
			"stateMutability": "view",
			"type": "function"
		},
		{
			"inputs": [
				{
					"internalType": "address",
					"name": "sender",
					"type": "address"
				},
				{
					"internalType": "address",
					"name": "receiver",
					"type": "address"
				},
				{
					"internalType": "uint256",
					"name": "nftid",
					"type": "uint256"
				},
				{
					"internalType": "uint256",
					"name": "price",
					"type": "uint256"
				},
				{
					"internalType": "string",
					"name": "priceType",
					"type": "string"
				},
				{
					"internalType": "uint256",
					"name": "timestamp",
					"type": "uint256"
				}
			],
			"name": "getMessageHash",
			"outputs": [
				{
					"internalType": "bytes32",
					"name": "",
					"type": "bytes32"
				}
			],
			"stateMutability": "pure",
			"type": "function"
		},
		{
			"inputs": [
				{
					"internalType": "string",
					"name": "token",
					"type": "string"
				}
			],
			"name": "isTokenSupported",
			"outputs": [
				{
					"internalType": "bool",
					"name": "",
					"type": "bool"
				}
			],
			"stateMutability": "pure",
			"type": "function"
		},
		{
			"inputs": [
				{
					"internalType": "address",
					"name": "forwarder",
					"type": "address"
				}
			],
			"name": "isTrustedForwarder",
			"outputs": [
				{
					"internalType": "bool",
					"name": "",
					"type": "bool"
				}
			],
			"stateMutability": "view",
			"type": "function"
		},
		{
			"inputs": [],
			"name": "nextOrderId",
			"outputs": [
				{
					"internalType": "uint256",
					"name": "",
					"type": "uint256"
				}
			],
			"stateMutability": "view",
			"type": "function"
		},
		{
			"inputs": [
				{
					"internalType": "uint256",
					"name": "",
					"type": "uint256"
				}
			],
			"name": "orders",
			"outputs": [
				{
					"internalType": "address",
					"name": "sender",
					"type": "address"
				},
				{
					"internalType": "address",
					"name": "receiver",
					"type": "address"
				},
				{
					"internalType": "uint256",
					"name": "price",
					"type": "uint256"
				},
				{
					"internalType": "string",
					"name": "_priceType",
					"type": "string"
				},
				{
					"internalType": "uint256",
					"name": "timestamp",
					"type": "uint256"
				}
			],
			"stateMutability": "view",
			"type": "function"
		},
		{
			"inputs": [],
			"name": "owner",
			"outputs": [
				{
					"internalType": "address",
					"name": "",
					"type": "address"
				}
			],
			"stateMutability": "view",
			"type": "function"
		},
		{
			"inputs": [
				{
					"internalType": "address",
					"name": "sender",
					"type": "address"
				},
				{
					"internalType": "address",
					"name": "receiver",
					"type": "address"
				},
				{
					"internalType": "uint256",
					"name": "nftid",
					"type": "uint256"
				},
				{
					"internalType": "uint256",
					"name": "price",
					"type": "uint256"
				},
				{
					"internalType": "string",
					"name": "_priceType",
					"type": "string"
				},
				{
					"internalType": "uint256",
					"name": "timestamp",
					"type": "uint256"
				},
				{
					"internalType": "bytes",
					"name": "_signature",
					"type": "bytes"
				}
			],
			"name": "presale",
			"outputs": [],
			"stateMutability": "nonpayable",
			"type": "function"
		},
		{
			"inputs": [],
			"name": "presaleFeeToDeveloper",
			"outputs": [
				{
					"internalType": "uint256",
					"name": "",
					"type": "uint256"
				}
			],
			"stateMutability": "view",
			"type": "function"
		},
		{
			"inputs": [],
			"name": "presaleFeeToRewardFund",
			"outputs": [
				{
					"internalType": "uint256",
					"name": "",
					"type": "uint256"
				}
			],
			"stateMutability": "view",
			"type": "function"
		},
		{
			"inputs": [],
			"name": "presaleFeeToUmi",
			"outputs": [
				{
					"internalType": "uint256",
					"name": "",
					"type": "uint256"
				}
			],
			"stateMutability": "view",
			"type": "function"
		},
		{
			"inputs": [
				{
					"internalType": "bytes32",
					"name": "_ethSignedMessageHash",
					"type": "bytes32"
				},
				{
					"internalType": "bytes",
					"name": "_signature",
					"type": "bytes"
				}
			],
			"name": "recoverSignerPublic",
			"outputs": [
				{
					"internalType": "address",
					"name": "",
					"type": "address"
				}
			],
			"stateMutability": "pure",
			"type": "function"
		},
		{
			"inputs": [],
			"name": "rewardPoolAddress",
			"outputs": [
				{
					"internalType": "address",
					"name": "",
					"type": "address"
				}
			],
			"stateMutability": "view",
			"type": "function"
		},
		{
			"inputs": [
				{
					"internalType": "address",
					"name": "_eth",
					"type": "address"
				}
			],
			"name": "setEth",
			"outputs": [],
			"stateMutability": "nonpayable",
			"type": "function"
		},
		{
			"inputs": [
				{
					"internalType": "uint256",
					"name": "_presaleFeeToDeveloper",
					"type": "uint256"
				},
				{
					"internalType": "uint256",
					"name": "_presaleFeeToUmi",
					"type": "uint256"
				},
				{
					"internalType": "uint256",
					"name": "_presaleFeeToRewardFund",
					"type": "uint256"
				}
			],
			"name": "setFee",
			"outputs": [],
			"stateMutability": "nonpayable",
			"type": "function"
		},
		{
			"inputs": [
				{
					"internalType": "address",
					"name": "_umi",
					"type": "address"
				}
			],
			"name": "setUmi",
			"outputs": [],
			"stateMutability": "nonpayable",
			"type": "function"
		},
		{
			"inputs": [
				{
					"internalType": "contract UMIVERSE",
					"name": "_umiverseNFT",
					"type": "address"
				}
			],
			"name": "setUmiverseNFT",
			"outputs": [],
			"stateMutability": "nonpayable",
			"type": "function"
		},
		{
			"inputs": [
				{
					"internalType": "address",
					"name": "_usdc",
					"type": "address"
				}
			],
			"name": "setUsdc",
			"outputs": [],
			"stateMutability": "nonpayable",
			"type": "function"
		},
		{
			"inputs": [
				{
					"internalType": "address",
					"name": "_usdt",
					"type": "address"
				}
			],
			"name": "setUsdt",
			"outputs": [],
			"stateMutability": "nonpayable",
			"type": "function"
		},
		{
			"inputs": [],
			"name": "signerAddress",
			"outputs": [
				{
					"internalType": "address",
					"name": "",
					"type": "address"
				}
			],
			"stateMutability": "view",
			"type": "function"
		},
		{
			"inputs": [],
			"name": "umi",
			"outputs": [
				{
					"internalType": "contract IERC20",
					"name": "",
					"type": "address"
				}
			],
			"stateMutability": "view",
			"type": "function"
		},
		{
			"inputs": [],
			"name": "umiverseNFT",
			"outputs": [
				{
					"internalType": "contract UMIVERSE",
					"name": "",
					"type": "address"
				}
			],
			"stateMutability": "view",
			"type": "function"
		},
		{
			"inputs": [],
			"name": "usdc",
			"outputs": [
				{
					"internalType": "contract IERC20",
					"name": "",
					"type": "address"
				}
			],
			"stateMutability": "view",
			"type": "function"
		},
		{
			"inputs": [],
			"name": "usdt",
			"outputs": [
				{
					"internalType": "contract IERC20",
					"name": "",
					"type": "address"
				}
			],
			"stateMutability": "view",
			"type": "function"
		}
	]
}