{
	"data": {
		"bytecode": {
			"linkReferences": {},
			"object": "60806040525f600e5534801562000014575f80fd5b50604051620031db380380620031db83398181016040528101906200003a9190620003d9565b8181335f73ffffffffffffffffffffffffffffffffffffffff168173ffffffffffffffffffffffffffffffffffffffff1603620000b0575f6040517f1e4fbdf7000000000000000000000000000000000000000000000000000000008152600401620000a79190620004d2565b60405180910390fd5b620000c1816200015960201b60201c565b508160039081620000d3919062000724565b508060049081620000e5919062000724565b50620000f66200021a60201b60201c565b6001819055506200010c6200021a60201b60201c565b6200011c6200022560201b60201c565b10156200013c576200013b63fed8210f60e01b6200024c60201b60201c565b5b505082600a90816200014f919062000724565b5050505062000808565b5f805f9054906101000a900473ffffffffffffffffffffffffffffffffffffffff169050815f806101000a81548173ffffffffffffffffffffffffffffffffffffffff021916908373ffffffffffffffffffffffffffffffffffffffff1602179055508173ffffffffffffffffffffffffffffffffffffffff168173ffffffffffffffffffffffffffffffffffffffff167f8be0079c531659141344cd1fd0a4f28419497f9722a3daafe3b4186f6b6457e060405160405180910390a35050565b5f6305f5e100905090565b5f7fffffffffffffffffffffffffffffffffffffffffffffffffffffffffffffffff905090565b805f5260045ffd5b5f604051905090565b5f80fd5b5f80fd5b5f80fd5b5f80fd5b5f601f19601f8301169050919050565b7f4e487b71000000000000000000000000000000000000000000000000000000005f52604160045260245ffd5b620002b5826200026d565b810181811067ffffffffffffffff82111715620002d757620002d66200027d565b5b80604052505050565b5f620002eb62000254565b9050620002f98282620002aa565b919050565b5f67ffffffffffffffff8211156200031b576200031a6200027d565b5b62000326826200026d565b9050602081019050919050565b5f5b838110156200035257808201518184015260208101905062000335565b5f8484015250505050565b5f620003736200036d84620002fe565b620002e0565b90508281526020810184848401111562000392576200039162000269565b5b6200039f84828562000333565b509392505050565b5f82601f830112620003be57620003bd62000265565b5b8151620003d08482602086016200035d565b91505092915050565b5f805f60608486031215620003f357620003f26200025d565b5b5f84015167ffffffffffffffff81111562000413576200041262000261565b5b6200042186828701620003a7565b935050602084015167ffffffffffffffff81111562000445576200044462000261565b5b6200045386828701620003a7565b925050604084015167ffffffffffffffff81111562000477576200047662000261565b5b6200048586828701620003a7565b9150509250925092565b5f73ffffffffffffffffffffffffffffffffffffffff82169050919050565b5f620004ba826200048f565b9050919050565b620004cc81620004ae565b82525050565b5f602082019050620004e75f830184620004c1565b92915050565b5f81519050919050565b7f4e487b71000000000000000000000000000000000000000000000000000000005f52602260045260245ffd5b5f60028204905060018216806200053c57607f821691505b602082108103620005525762000551620004f7565b5b50919050565b5f819050815f5260205f209050919050565b5f6020601f8301049050919050565b5f82821b905092915050565b5f60088302620005b67fffffffffffffffffffffffffffffffffffffffffffffffffffffffffffffffff8262000579565b620005c2868362000579565b95508019841693508086168417925050509392505050565b5f819050919050565b5f819050919050565b5f6200060c620006066200060084620005da565b620005e3565b620005da565b9050919050565b5f819050919050565b6200062783620005ec565b6200063f620006368262000613565b84845462000585565b825550505050565b5f90565b6200065562000647565b620006628184846200061c565b505050565b5b8181101562000689576200067d5f826200064b565b60018101905062000668565b5050565b601f821115620006d857620006a28162000558565b620006ad846200056a565b81016020851015620006bd578190505b620006d5620006cc856200056a565b83018262000667565b50505b505050565b5f82821c905092915050565b5f620006fa5f1984600802620006dd565b1980831691505092915050565b5f620007148383620006e9565b9150826002028217905092915050565b6200072f82620004ed565b67ffffffffffffffff8111156200074b576200074a6200027d565b5b62000757825462000524565b620007648282856200068d565b5f60209050601f8311600181146200079a575f841562000785578287015190505b62000791858262000707565b86555062000800565b601f198416620007aa8662000558565b5f5b82811015620007d357848901518255600182019150602085019450602081019050620007ac565b86831015620007f35784890151620007ef601f891682620006e9565b8355505b6001600288020188555050505b505050505050565b6129c580620008165f395ff3fe608060405260043610610165575f3560e01c8063715018a6116100d0578063b73b99a211610089578063db006a7511610063578063db006a7514610519578063e985e9c514610541578063eb699f221461057d578063f2fde38b146105a557610165565b8063b73b99a214610485578063b88d4fde146104c1578063c87b56dd146104dd57610165565b8063715018a61461038f5780638da5cb5b146103a557806395d89b41146103cf578063a0712d68146103f9578063a22cb46514610421578063a65e06e81461044957610165565b806323b872dd1161012257806323b872dd1461027b57806342842e0e1461029757806351e164b7146102b357806355f804b3146102ef5780636352211e1461031757806370a082311461035357610165565b806301ffc9a71461016957806306fdde03146101a5578063081812fc146101cf578063095ea7b31461020b5780630d9005ae1461022757806318160ddd14610251575b5f80fd5b348015610174575f80fd5b5061018f600480360381019061018a9190611d79565b6105cd565b60405161019c9190611dbe565b60405180910390f35b3480156101b0575f80fd5b506101b961065e565b6040516101c69190611e61565b60405180910390f35b3480156101da575f80fd5b506101f560048036038101906101f09190611eb4565b6106ee565b6040516102029190611f1e565b60405180910390f35b61022560048036038101906102209190611f61565b610747565b005b348015610232575f80fd5b5061023b610757565b6040516102489190611fae565b60405180910390f35b34801561025c575f80fd5b50610265610765565b6040516102729190611fae565b60405180910390f35b61029560048036038101906102909190611fc7565b6107b1565b005b6102b160048036038101906102ac9190611fc7565b610a5d565b005b3480156102be575f80fd5b506102d960048036038101906102d49190611eb4565b610a7c565b6040516102e69190611fae565b60405180910390f35b3480156102fa575f80fd5b5061031560048036038101906103109190612078565b610a91565b005b348015610322575f80fd5b5061033d60048036038101906103389190611eb4565b610aaf565b60405161034a9190611f1e565b60405180910390f35b34801561035e575f80fd5b50610379600480360381019061037491906120c3565b610ac0565b6040516103869190611fae565b60405180910390f35b34801561039a575f80fd5b506103a3610b54565b005b3480156103b0575f80fd5b506103b9610b67565b6040516103c69190611f1e565b60405180910390f35b3480156103da575f80fd5b506103e3610b8e565b6040516103f09190611e61565b60405180910390f35b348015610404575f80fd5b5061041f600480360381019061041a9190611eb4565b610c1e565b005b34801561042c575f80fd5b5061044760048036038101906104429190612118565b610ced565b005b348015610454575f80fd5b5061046f600480360381019061046a9190611eb4565b610df3565b60405161047c9190611dbe565b60405180910390f35b348015610490575f80fd5b506104ab60048036038101906104a69190611eb4565b610e10565b6040516104b89190611fae565b60405180910390f35b6104db60048036038101906104d6919061227e565b610e25565b005b3480156104e8575f80fd5b5061050360048036038101906104fe9190611eb4565b610e76565b6040516105109190611e61565b60405180910390f35b348015610524575f80fd5b5061053f600480360381019061053a9190611eb4565b610f11565b005b34801561054c575f80fd5b50610567600480360381019061056291906122fe565b610f25565b6040516105749190611dbe565b60405180910390f35b348015610588575f80fd5b506105a3600480360381019061059e91906123fc565b610fb3565b005b3480156105b0575f80fd5b506105cb60048036038101906105c691906120c3565b6110c1565b005b5f6301ffc9a760e01b827bffffffffffffffffffffffffffffffffffffffffffffffffffffffff1916148061062757506380ac58cd60e01b827bffffffffffffffffffffffffffffffffffffffffffffffffffffffff1916145b806106575750635b5e139f60e01b827bffffffffffffffffffffffffffffffffffffffffffffffffffffffff1916145b9050919050565b60606003805461066d90612483565b80601f016020809104026020016040519081016040528092919081815260200182805461069990612483565b80156106e45780601f106106bb576101008083540402835291602001916106e4565b820191905f5260205f20905b8154815290600101906020018083116106c757829003601f168201915b5050505050905090565b5f6106f882611145565b61070d5761070c63cf4700e460e01b6111e9565b5b60075f8381526020019081526020015f205f015f9054906101000a900473ffffffffffffffffffffffffffffffffffffffff169050919050565b610753828260016111f1565b5050565b5f61076061131b565b905090565b5f61076e611324565b600254600154030390507fffffffffffffffffffffffffffffffffffffffffffffffffffffffffffffffff6107a161132f565b146107ae57600954810190505b90565b5f6107bb82611356565b905073ffffffffffffffffffffffffffffffffffffffff8473ffffffffffffffffffffffffffffffffffffffff161693508373ffffffffffffffffffffffffffffffffffffffff168173ffffffffffffffffffffffffffffffffffffffff16146108305761082f63a114810060e01b6111e9565b5b5f8061083b84611466565b91509150610851818761084c611489565b611490565b61087c5761086686610861611489565b610f25565b61087b5761087a6359c896be60e01b6111e9565b5b5b61088986868660016114d3565b8015610893575f82555b60065f8773ffffffffffffffffffffffffffffffffffffffff1673ffffffffffffffffffffffffffffffffffffffff1681526020019081526020015f205f8154600190039190508190555060065f8673ffffffffffffffffffffffffffffffffffffffff1673ffffffffffffffffffffffffffffffffffffffff1681526020019081526020015f205f81546001019190508190555061095b856109378888876114d9565b7c020000000000000000000000000000000000000000000000000000000017611500565b60055f8681526020019081526020015f20819055505f7c02000000000000000000000000000000000000000000000000000000008416036109d8575f6001850190505f60055f8381526020019081526020015f2054036109d65760015481146109d5578360055f8381526020019081526020015f20819055505b5b505b5f73ffffffffffffffffffffffffffffffffffffffff8673ffffffffffffffffffffffffffffffffffffffff161690508481887fddf252ad1be2c89b69c2b068fc378daa952ba7f163c4a11628f55a4df523b3ef5f80a45f8103610a4757610a4663ea553b3460e01b6111e9565b5b610a54878787600161152a565b50505050505050565b610a7783838360405180602001604052805f815250610e25565b505050565b600c602052805f5260405f205f915090505481565b610a99611530565b8181600a9182610aaa92919061265a565b505050565b5f610ab982611356565b9050919050565b5f8073ffffffffffffffffffffffffffffffffffffffff168273ffffffffffffffffffffffffffffffffffffffff1603610b0557610b04638f4eb60460e01b6111e9565b5b67ffffffffffffffff60065f8473ffffffffffffffffffffffffffffffffffffffff1673ffffffffffffffffffffffffffffffffffffffff1681526020019081526020015f2054169050919050565b610b5c611530565b610b655f6115b7565b565b5f805f9054906101000a900473ffffffffffffffffffffffffffffffffffffffff16905090565b606060048054610b9d90612483565b80601f0160208091040260200160405190810160405280929190818152602001828054610bc990612483565b8015610c145780601f10610beb57610100808354040283529160200191610c14565b820191905f5260205f20905b815481529060010190602001808311610bf757829003601f168201915b5050505050905090565b600d5f8281526020019081526020015f205f9054906101000a900460ff1615610c7c576040517f08c379a0000000000000000000000000000000000000000000000000000000008152600401610c7390612771565b60405180910390fd5b610c8461131b565b600b5f8381526020019081526020015f208190555080600c5f610ca561131b565b81526020019081526020015f20819055506001600d5f8381526020019081526020015f205f6101000a81548160ff021916908315150217905550610cea336001611678565b50565b8060085f610cf9611489565b73ffffffffffffffffffffffffffffffffffffffff1673ffffffffffffffffffffffffffffffffffffffff1681526020019081526020015f205f8473ffffffffffffffffffffffffffffffffffffffff1673ffffffffffffffffffffffffffffffffffffffff1681526020019081526020015f205f6101000a81548160ff0219169083151502179055508173ffffffffffffffffffffffffffffffffffffffff16610da2611489565b73ffffffffffffffffffffffffffffffffffffffff167f17307eab39ab6107e8899845ad3d59bd9653f200f220920489ca2b5937696c3183604051610de79190611dbe565b60405180910390a35050565b600d602052805f5260405f205f915054906101000a900460ff1681565b600b602052805f5260405f205f915090505481565b610e308484846107b1565b5f8373ffffffffffffffffffffffffffffffffffffffff163b14610e7057610e5a84848484611695565b610e6f57610e6e63d1a57ed660e01b6111e9565b5b5b50505050565b6060610e8182611145565b610eb7576040517fa14c4b5000000000000000000000000000000000000000000000000000000000815260040160405180910390fd5b5f610ec06117bf565b90505f815103610ede5760405180602001604052805f815250610f09565b80610ee88461184f565b604051602001610ef99291906127c9565b6040516020818303038152906040525b915050919050565b610f19611530565b610f228161189e565b50565b5f60085f8473ffffffffffffffffffffffffffffffffffffffff1673ffffffffffffffffffffffffffffffffffffffff1681526020019081526020015f205f8373ffffffffffffffffffffffffffffffffffffffff1673ffffffffffffffffffffffffffffffffffffffff1681526020019081526020015f205f9054906101000a900460ff16905092915050565b5f5b82518110156110bc575f838281518110610fd257610fd16127ec565b5b60200260200101519050600d5f8281526020019081526020015f205f9054906101000a900460ff161561103a576040517f08c379a000000000000000000000000000000000000000000000000000000000815260040161103190612771565b60405180910390fd5b61104261131b565b600b5f8381526020019081526020015f208190555080600c5f61106361131b565b81526020019081526020015f20819055506001600d5f8381526020019081526020015f205f6101000a81548160ff0219169083151502179055506110a8836001611678565b5080806110b490612846565b915050610fb5565b505050565b6110c9611530565b5f73ffffffffffffffffffffffffffffffffffffffff168173ffffffffffffffffffffffffffffffffffffffff1603611139575f6040517f1e4fbdf70000000000000000000000000000000000000000000000000000000081526004016111309190611f1e565b60405180910390fd5b611142816115b7565b50565b5f8161114f611324565b116111e35761115c61132f565b8211156111845761117d60055f8481526020019081526020015f20546118ab565b90506111e4565b6001548210156111e2575f5b5f60055f8581526020019081526020015f2054915081036111bc57826111b59061288d565b9250611190565b5f7c01000000000000000000000000000000000000000000000000000000008216149150505b5b5b919050565b805f5260045ffd5b5f6111fb83610aaf565b905081801561123d57508073ffffffffffffffffffffffffffffffffffffffff16611224611489565b73ffffffffffffffffffffffffffffffffffffffff1614155b15611269576112538161124e611489565b610f25565b6112685761126763cfb3b94260e01b6111e9565b5b5b8360075f8581526020019081526020015f205f015f6101000a81548173ffffffffffffffffffffffffffffffffffffffff021916908373ffffffffffffffffffffffffffffffffffffffff160217905550828473ffffffffffffffffffffffffffffffffffffffff168273ffffffffffffffffffffffffffffffffffffffff167f8c5be1e5ebec7d5bd14f71427d1e84f3dd0314c0f7b2291e5b200ac8c7c3b92560405160405180910390a450505050565b5f600154905090565b5f6305f5e100905090565b5f7fffffffffffffffffffffffffffffffffffffffffffffffffffffffffffffffff905090565b5f81611360611324565b116114505760055f8381526020019081526020015f2054905061138161132f565b8211156113a657611391816118ab565b611461576113a563df2d9b4260e01b6111e9565b5b5f81036114285760015482106113c7576113c663df2d9b4260e01b6111e9565b5b5b60055f836001900393508381526020019081526020015f205490505f810315611423575f7c0100000000000000000000000000000000000000000000000000000000821603156114615761142263df2d9b4260e01b6111e9565b5b6113c8565b5f7c010000000000000000000000000000000000000000000000000000000082160315611461575b61146063df2d9b4260e01b6111e9565b5b919050565b5f805f60075f8581526020019081526020015f2090508092508254915050915091565b5f33905090565b5f73ffffffffffffffffffffffffffffffffffffffff8316925073ffffffffffffffffffffffffffffffffffffffff821691508382148383141790509392505050565b50505050565b5f8060e883901c905060e86114ef8686846118eb565b62ffffff16901b9150509392505050565b5f73ffffffffffffffffffffffffffffffffffffffff83169250814260a01b178317905092915050565b50505050565b6115386118f3565b73ffffffffffffffffffffffffffffffffffffffff16611556610b67565b73ffffffffffffffffffffffffffffffffffffffff16146115b5576115796118f3565b6040517f118cdaa70000000000000000000000000000000000000000000000000000000081526004016115ac9190611f1e565b60405180910390fd5b565b5f805f9054906101000a900473ffffffffffffffffffffffffffffffffffffffff169050815f806101000a81548173ffffffffffffffffffffffffffffffffffffffff021916908373ffffffffffffffffffffffffffffffffffffffff1602179055508173ffffffffffffffffffffffffffffffffffffffff168173ffffffffffffffffffffffffffffffffffffffff167f8be0079c531659141344cd1fd0a4f28419497f9722a3daafe3b4186f6b6457e060405160405180910390a35050565b611691828260405180602001604052805f8152506118fa565b5050565b5f8373ffffffffffffffffffffffffffffffffffffffff1663150b7a026116ba611489565b8786866040518563ffffffff1660e01b81526004016116dc9493929190612906565b6020604051808303815f875af192505050801561171757506040513d601f19601f820116820180604052508101906117149190612964565b60015b61176c573d805f8114611745576040519150601f19603f3d011682016040523d82523d5f602084013e61174a565b606091505b505f8151036117645761176363d1a57ed660e01b6111e9565b5b805181602001fd5b63150b7a0260e01b7bffffffffffffffffffffffffffffffffffffffffffffffffffffffff1916817bffffffffffffffffffffffffffffffffffffffffffffffffffffffff191614915050949350505050565b6060600a80546117ce90612483565b80601f01602080910402602001604051908101604052809291908181526020018280546117fa90612483565b80156118455780601f1061181c57610100808354040283529160200191611845565b820191905f5260205f20905b81548152906001019060200180831161182857829003601f168201915b5050505050905090565b606060a060405101806040526020810391505f825281835b60011561188957600184039350600a81066030018453600a8104905080611867575b50828103602084039350808452505050919050565b6118a8815f611972565b50565b5f7c0100000000000000000000000000000000000000000000000000000000821673ffffffffffffffffffffffffffffffffffffffff8316119050919050565b5f9392505050565b5f33905090565b6119048383611b8e565b5f8373ffffffffffffffffffffffffffffffffffffffff163b1461196d575f60015490505f83820390505b6119415f868380600101945086611695565b6119565761195563d1a57ed660e01b6111e9565b5b81811061192f57816001541461196a575f80fd5b50505b505050565b5f61197c83611356565b90505f8190505f8061198d86611466565b9150915084156119d5576119a981846119a4611489565b611490565b6119d4576119be836119b9611489565b610f25565b6119d3576119d26359c896be60e01b6111e9565b5b5b5b6119e2835f8860016114d3565b80156119ec575f82555b600160806001901b0360065f8573ffffffffffffffffffffffffffffffffffffffff1673ffffffffffffffffffffffffffffffffffffffff1681526020019081526020015f205f8282540192505081905550611a9083611a4d855f886114d9565b7c02000000000000000000000000000000000000000000000000000000007c01000000000000000000000000000000000000000000000000000000001717611500565b60055f8881526020019081526020015f20819055505f7c0200000000000000000000000000000000000000000000000000000000851603611b0d575f6001870190505f60055f8381526020019081526020015f205403611b0b576001548114611b0a578460055f8381526020019081526020015f20819055505b5b505b855f73ffffffffffffffffffffffffffffffffffffffff168473ffffffffffffffffffffffffffffffffffffffff167fddf252ad1be2c89b69c2b068fc378daa952ba7f163c4a11628f55a4df523b3ef60405160405180910390a4611b75835f88600161152a565b60025f8154809291906001019190505550505050505050565b5f60015490505f8203611bac57611bab63b562e8dd60e01b6111e9565b5b611bb85f8483856114d3565b611bd683611bc75f865f6114d9565b611bd085611d04565b17611500565b60055f8381526020019081526020015f2081905550600160406001901b17820260065f8573ffffffffffffffffffffffffffffffffffffffff1673ffffffffffffffffffffffffffffffffffffffff1681526020019081526020015f205f82825401925050819055505f73ffffffffffffffffffffffffffffffffffffffff8473ffffffffffffffffffffffffffffffffffffffff161690505f8103611c8757611c86632e07630060e01b6111e9565b5b5f83830190505f839050611c9961132f565b600183031115611cb457611cb36381647e3a60e01b6111e9565b5b5b80835f7fddf252ad1be2c89b69c2b068fc378daa952ba7f163c4a11628f55a4df523b3ef5f80a4818160010191508103611cb55781600181905550505050611cff5f84838561152a565b505050565b5f6001821460e11b9050919050565b5f604051905090565b5f80fd5b5f80fd5b5f7fffffffff0000000000000000000000000000000000000000000000000000000082169050919050565b611d5881611d24565b8114611d62575f80fd5b50565b5f81359050611d7381611d4f565b92915050565b5f60208284031215611d8e57611d8d611d1c565b5b5f611d9b84828501611d65565b91505092915050565b5f8115159050919050565b611db881611da4565b82525050565b5f602082019050611dd15f830184611daf565b92915050565b5f81519050919050565b5f82825260208201905092915050565b5f5b83811015611e0e578082015181840152602081019050611df3565b5f8484015250505050565b5f601f19601f8301169050919050565b5f611e3382611dd7565b611e3d8185611de1565b9350611e4d818560208601611df1565b611e5681611e19565b840191505092915050565b5f6020820190508181035f830152611e798184611e29565b905092915050565b5f819050919050565b611e9381611e81565b8114611e9d575f80fd5b50565b5f81359050611eae81611e8a565b92915050565b5f60208284031215611ec957611ec8611d1c565b5b5f611ed684828501611ea0565b91505092915050565b5f73ffffffffffffffffffffffffffffffffffffffff82169050919050565b5f611f0882611edf565b9050919050565b611f1881611efe565b82525050565b5f602082019050611f315f830184611f0f565b92915050565b611f4081611efe565b8114611f4a575f80fd5b50565b5f81359050611f5b81611f37565b92915050565b5f8060408385031215611f7757611f76611d1c565b5b5f611f8485828601611f4d565b9250506020611f9585828601611ea0565b9150509250929050565b611fa881611e81565b82525050565b5f602082019050611fc15f830184611f9f565b92915050565b5f805f60608486031215611fde57611fdd611d1c565b5b5f611feb86828701611f4d565b9350506020611ffc86828701611f4d565b925050604061200d86828701611ea0565b9150509250925092565b5f80fd5b5f80fd5b5f80fd5b5f8083601f84011261203857612037612017565b5b8235905067ffffffffffffffff8111156120555761205461201b565b5b6020830191508360018202830111156120715761207061201f565b5b9250929050565b5f806020838503121561208e5761208d611d1c565b5b5f83013567ffffffffffffffff8111156120ab576120aa611d20565b5b6120b785828601612023565b92509250509250929050565b5f602082840312156120d8576120d7611d1c565b5b5f6120e584828501611f4d565b91505092915050565b6120f781611da4565b8114612101575f80fd5b50565b5f81359050612112816120ee565b92915050565b5f806040838503121561212e5761212d611d1c565b5b5f61213b85828601611f4d565b925050602061214c85828601612104565b9150509250929050565b5f80fd5b7f4e487b71000000000000000000000000000000000000000000000000000000005f52604160045260245ffd5b61219082611e19565b810181811067ffffffffffffffff821117156121af576121ae61215a565b5b80604052505050565b5f6121c1611d13565b90506121cd8282612187565b919050565b5f67ffffffffffffffff8211156121ec576121eb61215a565b5b6121f582611e19565b9050602081019050919050565b828183375f83830152505050565b5f61222261221d846121d2565b6121b8565b90508281526020810184848401111561223e5761223d612156565b5b612249848285612202565b509392505050565b5f82601f83011261226557612264612017565b5b8135612275848260208601612210565b91505092915050565b5f805f806080858703121561229657612295611d1c565b5b5f6122a387828801611f4d565b94505060206122b487828801611f4d565b93505060406122c587828801611ea0565b925050606085013567ffffffffffffffff8111156122e6576122e5611d20565b5b6122f287828801612251565b91505092959194509250565b5f806040838503121561231457612313611d1c565b5b5f61232185828601611f4d565b925050602061233285828601611f4d565b9150509250929050565b5f67ffffffffffffffff8211156123565761235561215a565b5b602082029050602081019050919050565b5f6123796123748461233c565b6121b8565b9050808382526020820190506020840283018581111561239c5761239b61201f565b5b835b818110156123c557806123b18882611ea0565b84526020840193505060208101905061239e565b5050509392505050565b5f82601f8301126123e3576123e2612017565b5b81356123f3848260208601612367565b91505092915050565b5f806040838503121561241257612411611d1c565b5b5f83013567ffffffffffffffff81111561242f5761242e611d20565b5b61243b858286016123cf565b925050602061244c85828601611f4d565b9150509250929050565b7f4e487b71000000000000000000000000000000000000000000000000000000005f52602260045260245ffd5b5f600282049050600182168061249a57607f821691505b6020821081036124ad576124ac612456565b5b50919050565b5f82905092915050565b5f819050815f5260205f209050919050565b5f6020601f8301049050919050565b5f82821b905092915050565b5f600883026125197fffffffffffffffffffffffffffffffffffffffffffffffffffffffffffffffff826124de565b61252386836124de565b95508019841693508086168417925050509392505050565b5f819050919050565b5f61255e61255961255484611e81565b61253b565b611e81565b9050919050565b5f819050919050565b61257783612544565b61258b61258382612565565b8484546124ea565b825550505050565b5f90565b61259f612593565b6125aa81848461256e565b505050565b5b818110156125cd576125c25f82612597565b6001810190506125b0565b5050565b601f821115612612576125e3816124bd565b6125ec846124cf565b810160208510156125fb578190505b61260f612607856124cf565b8301826125af565b50505b505050565b5f82821c905092915050565b5f6126325f1984600802612617565b1980831691505092915050565b5f61264a8383612623565b9150826002028217905092915050565b61266483836124b3565b67ffffffffffffffff81111561267d5761267c61215a565b5b6126878254612483565b6126928282856125d1565b5f601f8311600181146126bf575f84156126ad578287013590505b6126b7858261263f565b86555061271e565b601f1984166126cd866124bd565b5f5b828110156126f4578489013582556001820191506020850194506020810190506126cf565b86831015612711578489013561270d601f891682612623565b8355505b6001600288020188555050505b50505050505050565b7f6e667469642065786973742121210000000000000000000000000000000000005f82015250565b5f61275b600e83611de1565b915061276682612727565b602082019050919050565b5f6020820190508181035f8301526127888161274f565b9050919050565b5f81905092915050565b5f6127a382611dd7565b6127ad818561278f565b93506127bd818560208601611df1565b80840191505092915050565b5f6127d48285612799565b91506127e08284612799565b91508190509392505050565b7f4e487b71000000000000000000000000000000000000000000000000000000005f52603260045260245ffd5b7f4e487b71000000000000000000000000000000000000000000000000000000005f52601160045260245ffd5b5f61285082611e81565b91507fffffffffffffffffffffffffffffffffffffffffffffffffffffffffffffffff820361288257612881612819565b5b600182019050919050565b5f61289782611e81565b91505f82036128a9576128a8612819565b5b600182039050919050565b5f81519050919050565b5f82825260208201905092915050565b5f6128d8826128b4565b6128e281856128be565b93506128f2818560208601611df1565b6128fb81611e19565b840191505092915050565b5f6080820190506129195f830187611f0f565b6129266020830186611f0f565b6129336040830185611f9f565b818103606083015261294581846128ce565b905095945050505050565b5f8151905061295e81611d4f565b92915050565b5f6020828403121561297957612978611d1c565b5b5f61298684828501612950565b9150509291505056fea26469706673582212203ccfd3ed5ef1f219d91cfaff07ffde1c0488aab21305625304b1f4ee2f44c16a64736f6c63430008140033",
			"opcodes": "PUSH1 0x80 PUSH1 0x40 MSTORE PUSH0 PUSH1 0xE SSTORE CALLVALUE DUP1 ISZERO PUSH3 0x14 JUMPI PUSH0 DUP1 REVERT JUMPDEST POP PUSH1 0x40 MLOAD PUSH3 0x31DB CODESIZE SUB DUP1 PUSH3 0x31DB DUP4 CODECOPY DUP2 DUP2 ADD PUSH1 0x40 MSTORE DUP2 ADD SWAP1 PUSH3 0x3A SWAP2 SWAP1 PUSH3 0x3D9 JUMP JUMPDEST DUP2 DUP2 CALLER PUSH0 PUSH20 0xFFFFFFFFFFFFFFFFFFFFFFFFFFFFFFFFFFFFFFFF AND DUP2 PUSH20 0xFFFFFFFFFFFFFFFFFFFFFFFFFFFFFFFFFFFFFFFF AND SUB PUSH3 0xB0 JUMPI PUSH0 PUSH1 0x40 MLOAD PUSH32 0x1E4FBDF700000000000000000000000000000000000000000000000000000000 DUP2 MSTORE PUSH1 0x4 ADD PUSH3 0xA7 SWAP2 SWAP1 PUSH3 0x4D2 JUMP JUMPDEST PUSH1 0x40 MLOAD DUP1 SWAP2 SUB SWAP1 REVERT JUMPDEST PUSH3 0xC1 DUP2 PUSH3 0x159 PUSH1 0x20 SHL PUSH1 0x20 SHR JUMP JUMPDEST POP DUP2 PUSH1 0x3 SWAP1 DUP2 PUSH3 0xD3 SWAP2 SWAP1 PUSH3 0x724 JUMP JUMPDEST POP DUP1 PUSH1 0x4 SWAP1 DUP2 PUSH3 0xE5 SWAP2 SWAP1 PUSH3 0x724 JUMP JUMPDEST POP PUSH3 0xF6 PUSH3 0x21A PUSH1 0x20 SHL PUSH1 0x20 SHR JUMP JUMPDEST PUSH1 0x1 DUP2 SWAP1 SSTORE POP PUSH3 0x10C PUSH3 0x21A PUSH1 0x20 SHL PUSH1 0x20 SHR JUMP JUMPDEST PUSH3 0x11C PUSH3 0x225 PUSH1 0x20 SHL PUSH1 0x20 SHR JUMP JUMPDEST LT ISZERO PUSH3 0x13C JUMPI PUSH3 0x13B PUSH4 0xFED8210F PUSH1 0xE0 SHL PUSH3 0x24C PUSH1 0x20 SHL PUSH1 0x20 SHR JUMP JUMPDEST JUMPDEST POP POP DUP3 PUSH1 0xA SWAP1 DUP2 PUSH3 0x14F SWAP2 SWAP1 PUSH3 0x724 JUMP JUMPDEST POP POP POP POP PUSH3 0x808 JUMP JUMPDEST PUSH0 DUP1 PUSH0 SWAP1 SLOAD SWAP1 PUSH2 0x100 EXP SWAP1 DIV PUSH20 0xFFFFFFFFFFFFFFFFFFFFFFFFFFFFFFFFFFFFFFFF AND SWAP1 POP DUP2 PUSH0 DUP1 PUSH2 0x100 EXP DUP2 SLOAD DUP2 PUSH20 0xFFFFFFFFFFFFFFFFFFFFFFFFFFFFFFFFFFFFFFFF MUL NOT AND SWAP1 DUP4 PUSH20 0xFFFFFFFFFFFFFFFFFFFFFFFFFFFFFFFFFFFFFFFF AND MUL OR SWAP1 SSTORE POP DUP2 PUSH20 0xFFFFFFFFFFFFFFFFFFFFFFFFFFFFFFFFFFFFFFFF AND DUP2 PUSH20 0xFFFFFFFFFFFFFFFFFFFFFFFFFFFFFFFFFFFFFFFF AND PUSH32 0x8BE0079C531659141344CD1FD0A4F28419497F9722A3DAAFE3B4186F6B6457E0 PUSH1 0x40 MLOAD PUSH1 0x40 MLOAD DUP1 SWAP2 SUB SWAP1 LOG3 POP POP JUMP JUMPDEST PUSH0 PUSH4 0x5F5E100 SWAP1 POP SWAP1 JUMP JUMPDEST PUSH0 PUSH32 0xFFFFFFFFFFFFFFFFFFFFFFFFFFFFFFFFFFFFFFFFFFFFFFFFFFFFFFFFFFFFFFFF SWAP1 POP SWAP1 JUMP JUMPDEST DUP1 PUSH0 MSTORE PUSH1 0x4 PUSH0 REVERT JUMPDEST PUSH0 PUSH1 0x40 MLOAD SWAP1 POP SWAP1 JUMP JUMPDEST PUSH0 DUP1 REVERT JUMPDEST PUSH0 DUP1 REVERT JUMPDEST PUSH0 DUP1 REVERT JUMPDEST PUSH0 DUP1 REVERT JUMPDEST PUSH0 PUSH1 0x1F NOT PUSH1 0x1F DUP4 ADD AND SWAP1 POP SWAP2 SWAP1 POP JUMP JUMPDEST PUSH32 0x4E487B7100000000000000000000000000000000000000000000000000000000 PUSH0 MSTORE PUSH1 0x41 PUSH1 0x4 MSTORE PUSH1 0x24 PUSH0 REVERT JUMPDEST PUSH3 0x2B5 DUP3 PUSH3 0x26D JUMP JUMPDEST DUP2 ADD DUP2 DUP2 LT PUSH8 0xFFFFFFFFFFFFFFFF DUP3 GT OR ISZERO PUSH3 0x2D7 JUMPI PUSH3 0x2D6 PUSH3 0x27D JUMP JUMPDEST JUMPDEST DUP1 PUSH1 0x40 MSTORE POP POP POP JUMP JUMPDEST PUSH0 PUSH3 0x2EB PUSH3 0x254 JUMP JUMPDEST SWAP1 POP PUSH3 0x2F9 DUP3 DUP3 PUSH3 0x2AA JUMP JUMPDEST SWAP2 SWAP1 POP JUMP JUMPDEST PUSH0 PUSH8 0xFFFFFFFFFFFFFFFF DUP3 GT ISZERO PUSH3 0x31B JUMPI PUSH3 0x31A PUSH3 0x27D JUMP JUMPDEST JUMPDEST PUSH3 0x326 DUP3 PUSH3 0x26D JUMP JUMPDEST SWAP1 POP PUSH1 0x20 DUP2 ADD SWAP1 POP SWAP2 SWAP1 POP JUMP JUMPDEST PUSH0 JUMPDEST DUP4 DUP2 LT ISZERO PUSH3 0x352 JUMPI DUP1 DUP3 ADD MLOAD DUP2 DUP5 ADD MSTORE PUSH1 0x20 DUP2 ADD SWAP1 POP PUSH3 0x335 JUMP JUMPDEST PUSH0 DUP5 DUP5 ADD MSTORE POP POP POP POP JUMP JUMPDEST PUSH0 PUSH3 0x373 PUSH3 0x36D DUP5 PUSH3 0x2FE JUMP JUMPDEST PUSH3 0x2E0 JUMP JUMPDEST SWAP1 POP DUP3 DUP2 MSTORE PUSH1 0x20 DUP2 ADD DUP5 DUP5 DUP5 ADD GT ISZERO PUSH3 0x392 JUMPI PUSH3 0x391 PUSH3 0x269 JUMP JUMPDEST JUMPDEST PUSH3 0x39F DUP5 DUP3 DUP6 PUSH3 0x333 JUMP JUMPDEST POP SWAP4 SWAP3 POP POP POP JUMP JUMPDEST PUSH0 DUP3 PUSH1 0x1F DUP4 ADD SLT PUSH3 0x3BE JUMPI PUSH3 0x3BD PUSH3 0x265 JUMP JUMPDEST JUMPDEST DUP2 MLOAD PUSH3 0x3D0 DUP5 DUP3 PUSH1 0x20 DUP7 ADD PUSH3 0x35D JUMP JUMPDEST SWAP2 POP POP SWAP3 SWAP2 POP POP JUMP JUMPDEST PUSH0 DUP1 PUSH0 PUSH1 0x60 DUP5 DUP7 SUB SLT ISZERO PUSH3 0x3F3 JUMPI PUSH3 0x3F2 PUSH3 0x25D JUMP JUMPDEST JUMPDEST PUSH0 DUP5 ADD MLOAD PUSH8 0xFFFFFFFFFFFFFFFF DUP2 GT ISZERO PUSH3 0x413 JUMPI PUSH3 0x412 PUSH3 0x261 JUMP JUMPDEST JUMPDEST PUSH3 0x421 DUP7 DUP3 DUP8 ADD PUSH3 0x3A7 JUMP JUMPDEST SWAP4 POP POP PUSH1 0x20 DUP5 ADD MLOAD PUSH8 0xFFFFFFFFFFFFFFFF DUP2 GT ISZERO PUSH3 0x445 JUMPI PUSH3 0x444 PUSH3 0x261 JUMP JUMPDEST JUMPDEST PUSH3 0x453 DUP7 DUP3 DUP8 ADD PUSH3 0x3A7 JUMP JUMPDEST SWAP3 POP POP PUSH1 0x40 DUP5 ADD MLOAD PUSH8 0xFFFFFFFFFFFFFFFF DUP2 GT ISZERO PUSH3 0x477 JUMPI PUSH3 0x476 PUSH3 0x261 JUMP JUMPDEST JUMPDEST PUSH3 0x485 DUP7 DUP3 DUP8 ADD PUSH3 0x3A7 JUMP JUMPDEST SWAP2 POP POP SWAP3 POP SWAP3 POP SWAP3 JUMP JUMPDEST PUSH0 PUSH20 0xFFFFFFFFFFFFFFFFFFFFFFFFFFFFFFFFFFFFFFFF DUP3 AND SWAP1 POP SWAP2 SWAP1 POP JUMP JUMPDEST PUSH0 PUSH3 0x4BA DUP3 PUSH3 0x48F JUMP JUMPDEST SWAP1 POP SWAP2 SWAP1 POP JUMP JUMPDEST PUSH3 0x4CC DUP2 PUSH3 0x4AE JUMP JUMPDEST DUP3 MSTORE POP POP JUMP JUMPDEST PUSH0 PUSH1 0x20 DUP3 ADD SWAP1 POP PUSH3 0x4E7 PUSH0 DUP4 ADD DUP5 PUSH3 0x4C1 JUMP JUMPDEST SWAP3 SWAP2 POP POP JUMP JUMPDEST PUSH0 DUP2 MLOAD SWAP1 POP SWAP2 SWAP1 POP JUMP JUMPDEST PUSH32 0x4E487B7100000000000000000000000000000000000000000000000000000000 PUSH0 MSTORE PUSH1 0x22 PUSH1 0x4 MSTORE PUSH1 0x24 PUSH0 REVERT JUMPDEST PUSH0 PUSH1 0x2 DUP3 DIV SWAP1 POP PUSH1 0x1 DUP3 AND DUP1 PUSH3 0x53C JUMPI PUSH1 0x7F DUP3 AND SWAP2 POP JUMPDEST PUSH1 0x20 DUP3 LT DUP2 SUB PUSH3 0x552 JUMPI PUSH3 0x551 PUSH3 0x4F7 JUMP JUMPDEST JUMPDEST POP SWAP2 SWAP1 POP JUMP JUMPDEST PUSH0 DUP2 SWAP1 POP DUP2 PUSH0 MSTORE PUSH1 0x20 PUSH0 KECCAK256 SWAP1 POP SWAP2 SWAP1 POP JUMP JUMPDEST PUSH0 PUSH1 0x20 PUSH1 0x1F DUP4 ADD DIV SWAP1 POP SWAP2 SWAP1 POP JUMP JUMPDEST PUSH0 DUP3 DUP3 SHL SWAP1 POP SWAP3 SWAP2 POP POP JUMP JUMPDEST PUSH0 PUSH1 0x8 DUP4 MUL PUSH3 0x5B6 PUSH32 0xFFFFFFFFFFFFFFFFFFFFFFFFFFFFFFFFFFFFFFFFFFFFFFFFFFFFFFFFFFFFFFFF DUP3 PUSH3 0x579 JUMP JUMPDEST PUSH3 0x5C2 DUP7 DUP4 PUSH3 0x579 JUMP JUMPDEST SWAP6 POP DUP1 NOT DUP5 AND SWAP4 POP DUP1 DUP7 AND DUP5 OR SWAP3 POP POP POP SWAP4 SWAP3 POP POP POP JUMP JUMPDEST PUSH0 DUP2 SWAP1 POP SWAP2 SWAP1 POP JUMP JUMPDEST PUSH0 DUP2 SWAP1 POP SWAP2 SWAP1 POP JUMP JUMPDEST PUSH0 PUSH3 0x60C PUSH3 0x606 PUSH3 0x600 DUP5 PUSH3 0x5DA JUMP JUMPDEST PUSH3 0x5E3 JUMP JUMPDEST PUSH3 0x5DA JUMP JUMPDEST SWAP1 POP SWAP2 SWAP1 POP JUMP JUMPDEST PUSH0 DUP2 SWAP1 POP SWAP2 SWAP1 POP JUMP JUMPDEST PUSH3 0x627 DUP4 PUSH3 0x5EC JUMP JUMPDEST PUSH3 0x63F PUSH3 0x636 DUP3 PUSH3 0x613 JUMP JUMPDEST DUP5 DUP5 SLOAD PUSH3 0x585 JUMP JUMPDEST DUP3 SSTORE POP POP POP POP JUMP JUMPDEST PUSH0 SWAP1 JUMP JUMPDEST PUSH3 0x655 PUSH3 0x647 JUMP JUMPDEST PUSH3 0x662 DUP2 DUP5 DUP5 PUSH3 0x61C JUMP JUMPDEST POP POP POP JUMP JUMPDEST JUMPDEST DUP2 DUP2 LT ISZERO PUSH3 0x689 JUMPI PUSH3 0x67D PUSH0 DUP3 PUSH3 0x64B JUMP JUMPDEST PUSH1 0x1 DUP2 ADD SWAP1 POP PUSH3 0x668 JUMP JUMPDEST POP POP JUMP JUMPDEST PUSH1 0x1F DUP3 GT ISZERO PUSH3 0x6D8 JUMPI PUSH3 0x6A2 DUP2 PUSH3 0x558 JUMP JUMPDEST PUSH3 0x6AD DUP5 PUSH3 0x56A JUMP JUMPDEST DUP2 ADD PUSH1 0x20 DUP6 LT ISZERO PUSH3 0x6BD JUMPI DUP2 SWAP1 POP JUMPDEST PUSH3 0x6D5 PUSH3 0x6CC DUP6 PUSH3 0x56A JUMP JUMPDEST DUP4 ADD DUP3 PUSH3 0x667 JUMP JUMPDEST POP POP JUMPDEST POP POP POP JUMP JUMPDEST PUSH0 DUP3 DUP3 SHR SWAP1 POP SWAP3 SWAP2 POP POP JUMP JUMPDEST PUSH0 PUSH3 0x6FA PUSH0 NOT DUP5 PUSH1 0x8 MUL PUSH3 0x6DD JUMP JUMPDEST NOT DUP1 DUP4 AND SWAP2 POP POP SWAP3 SWAP2 POP POP JUMP JUMPDEST PUSH0 PUSH3 0x714 DUP4 DUP4 PUSH3 0x6E9 JUMP JUMPDEST SWAP2 POP DUP3 PUSH1 0x2 MUL DUP3 OR SWAP1 POP SWAP3 SWAP2 POP POP JUMP JUMPDEST PUSH3 0x72F DUP3 PUSH3 0x4ED JUMP JUMPDEST PUSH8 0xFFFFFFFFFFFFFFFF DUP2 GT ISZERO PUSH3 0x74B JUMPI PUSH3 0x74A PUSH3 0x27D JUMP JUMPDEST JUMPDEST PUSH3 0x757 DUP3 SLOAD PUSH3 0x524 JUMP JUMPDEST PUSH3 0x764 DUP3 DUP3 DUP6 PUSH3 0x68D JUMP JUMPDEST PUSH0 PUSH1 0x20 SWAP1 POP PUSH1 0x1F DUP4 GT PUSH1 0x1 DUP2 EQ PUSH3 0x79A JUMPI PUSH0 DUP5 ISZERO PUSH3 0x785 JUMPI DUP3 DUP8 ADD MLOAD SWAP1 POP JUMPDEST PUSH3 0x791 DUP6 DUP3 PUSH3 0x707 JUMP JUMPDEST DUP7 SSTORE POP PUSH3 0x800 JUMP JUMPDEST PUSH1 0x1F NOT DUP5 AND PUSH3 0x7AA DUP7 PUSH3 0x558 JUMP JUMPDEST PUSH0 JUMPDEST DUP3 DUP2 LT ISZERO PUSH3 0x7D3 JUMPI DUP5 DUP10 ADD MLOAD DUP3 SSTORE PUSH1 0x1 DUP3 ADD SWAP2 POP PUSH1 0x20 DUP6 ADD SWAP5 POP PUSH1 0x20 DUP2 ADD SWAP1 POP PUSH3 0x7AC JUMP JUMPDEST DUP7 DUP4 LT ISZERO PUSH3 0x7F3 JUMPI DUP5 DUP10 ADD MLOAD PUSH3 0x7EF PUSH1 0x1F DUP10 AND DUP3 PUSH3 0x6E9 JUMP JUMPDEST DUP4 SSTORE POP JUMPDEST PUSH1 0x1 PUSH1 0x2 DUP9 MUL ADD DUP9 SSTORE POP POP POP JUMPDEST POP POP POP POP POP POP JUMP JUMPDEST PUSH2 0x29C5 DUP1 PUSH3 0x816 PUSH0 CODECOPY PUSH0 RETURN INVALID PUSH1 0x80 PUSH1 0x40 MSTORE PUSH1 0x4 CALLDATASIZE LT PUSH2 0x165 JUMPI PUSH0 CALLDATALOAD PUSH1 0xE0 SHR DUP1 PUSH4 0x715018A6 GT PUSH2 0xD0 JUMPI DUP1 PUSH4 0xB73B99A2 GT PUSH2 0x89 JUMPI DUP1 PUSH4 0xDB006A75 GT PUSH2 0x63 JUMPI DUP1 PUSH4 0xDB006A75 EQ PUSH2 0x519 JUMPI DUP1 PUSH4 0xE985E9C5 EQ PUSH2 0x541 JUMPI DUP1 PUSH4 0xEB699F22 EQ PUSH2 0x57D JUMPI DUP1 PUSH4 0xF2FDE38B EQ PUSH2 0x5A5 JUMPI PUSH2 0x165 JUMP JUMPDEST DUP1 PUSH4 0xB73B99A2 EQ PUSH2 0x485 JUMPI DUP1 PUSH4 0xB88D4FDE EQ PUSH2 0x4C1 JUMPI DUP1 PUSH4 0xC87B56DD EQ PUSH2 0x4DD JUMPI PUSH2 0x165 JUMP JUMPDEST DUP1 PUSH4 0x715018A6 EQ PUSH2 0x38F JUMPI DUP1 PUSH4 0x8DA5CB5B EQ PUSH2 0x3A5 JUMPI DUP1 PUSH4 0x95D89B41 EQ PUSH2 0x3CF JUMPI DUP1 PUSH4 0xA0712D68 EQ PUSH2 0x3F9 JUMPI DUP1 PUSH4 0xA22CB465 EQ PUSH2 0x421 JUMPI DUP1 PUSH4 0xA65E06E8 EQ PUSH2 0x449 JUMPI PUSH2 0x165 JUMP JUMPDEST DUP1 PUSH4 0x23B872DD GT PUSH2 0x122 JUMPI DUP1 PUSH4 0x23B872DD EQ PUSH2 0x27B JUMPI DUP1 PUSH4 0x42842E0E EQ PUSH2 0x297 JUMPI DUP1 PUSH4 0x51E164B7 EQ PUSH2 0x2B3 JUMPI DUP1 PUSH4 0x55F804B3 EQ PUSH2 0x2EF JUMPI DUP1 PUSH4 0x6352211E EQ PUSH2 0x317 JUMPI DUP1 PUSH4 0x70A08231 EQ PUSH2 0x353 JUMPI PUSH2 0x165 JUMP JUMPDEST DUP1 PUSH4 0x1FFC9A7 EQ PUSH2 0x169 JUMPI DUP1 PUSH4 0x6FDDE03 EQ PUSH2 0x1A5 JUMPI DUP1 PUSH4 0x81812FC EQ PUSH2 0x1CF JUMPI DUP1 PUSH4 0x95EA7B3 EQ PUSH2 0x20B JUMPI DUP1 PUSH4 0xD9005AE EQ PUSH2 0x227 JUMPI DUP1 PUSH4 0x18160DDD EQ PUSH2 0x251 JUMPI JUMPDEST PUSH0 DUP1 REVERT JUMPDEST CALLVALUE DUP1 ISZERO PUSH2 0x174 JUMPI PUSH0 DUP1 REVERT JUMPDEST POP PUSH2 0x18F PUSH1 0x4 DUP1 CALLDATASIZE SUB DUP2 ADD SWAP1 PUSH2 0x18A SWAP2 SWAP1 PUSH2 0x1D79 JUMP JUMPDEST PUSH2 0x5CD JUMP JUMPDEST PUSH1 0x40 MLOAD PUSH2 0x19C SWAP2 SWAP1 PUSH2 0x1DBE JUMP JUMPDEST PUSH1 0x40 MLOAD DUP1 SWAP2 SUB SWAP1 RETURN JUMPDEST CALLVALUE DUP1 ISZERO PUSH2 0x1B0 JUMPI PUSH0 DUP1 REVERT JUMPDEST POP PUSH2 0x1B9 PUSH2 0x65E JUMP JUMPDEST PUSH1 0x40 MLOAD PUSH2 0x1C6 SWAP2 SWAP1 PUSH2 0x1E61 JUMP JUMPDEST PUSH1 0x40 MLOAD DUP1 SWAP2 SUB SWAP1 RETURN JUMPDEST CALLVALUE DUP1 ISZERO PUSH2 0x1DA JUMPI PUSH0 DUP1 REVERT JUMPDEST POP PUSH2 0x1F5 PUSH1 0x4 DUP1 CALLDATASIZE SUB DUP2 ADD SWAP1 PUSH2 0x1F0 SWAP2 SWAP1 PUSH2 0x1EB4 JUMP JUMPDEST PUSH2 0x6EE JUMP JUMPDEST PUSH1 0x40 MLOAD PUSH2 0x202 SWAP2 SWAP1 PUSH2 0x1F1E JUMP JUMPDEST PUSH1 0x40 MLOAD DUP1 SWAP2 SUB SWAP1 RETURN JUMPDEST PUSH2 0x225 PUSH1 0x4 DUP1 CALLDATASIZE SUB DUP2 ADD SWAP1 PUSH2 0x220 SWAP2 SWAP1 PUSH2 0x1F61 JUMP JUMPDEST PUSH2 0x747 JUMP JUMPDEST STOP JUMPDEST CALLVALUE DUP1 ISZERO PUSH2 0x232 JUMPI PUSH0 DUP1 REVERT JUMPDEST POP PUSH2 0x23B PUSH2 0x757 JUMP JUMPDEST PUSH1 0x40 MLOAD PUSH2 0x248 SWAP2 SWAP1 PUSH2 0x1FAE JUMP JUMPDEST PUSH1 0x40 MLOAD DUP1 SWAP2 SUB SWAP1 RETURN JUMPDEST CALLVALUE DUP1 ISZERO PUSH2 0x25C JUMPI PUSH0 DUP1 REVERT JUMPDEST POP PUSH2 0x265 PUSH2 0x765 JUMP JUMPDEST PUSH1 0x40 MLOAD PUSH2 0x272 SWAP2 SWAP1 PUSH2 0x1FAE JUMP JUMPDEST PUSH1 0x40 MLOAD DUP1 SWAP2 SUB SWAP1 RETURN JUMPDEST PUSH2 0x295 PUSH1 0x4 DUP1 CALLDATASIZE SUB DUP2 ADD SWAP1 PUSH2 0x290 SWAP2 SWAP1 PUSH2 0x1FC7 JUMP JUMPDEST PUSH2 0x7B1 JUMP JUMPDEST STOP JUMPDEST PUSH2 0x2B1 PUSH1 0x4 DUP1 CALLDATASIZE SUB DUP2 ADD SWAP1 PUSH2 0x2AC SWAP2 SWAP1 PUSH2 0x1FC7 JUMP JUMPDEST PUSH2 0xA5D JUMP JUMPDEST STOP JUMPDEST CALLVALUE DUP1 ISZERO PUSH2 0x2BE JUMPI PUSH0 DUP1 REVERT JUMPDEST POP PUSH2 0x2D9 PUSH1 0x4 DUP1 CALLDATASIZE SUB DUP2 ADD SWAP1 PUSH2 0x2D4 SWAP2 SWAP1 PUSH2 0x1EB4 JUMP JUMPDEST PUSH2 0xA7C JUMP JUMPDEST PUSH1 0x40 MLOAD PUSH2 0x2E6 SWAP2 SWAP1 PUSH2 0x1FAE JUMP JUMPDEST PUSH1 0x40 MLOAD DUP1 SWAP2 SUB SWAP1 RETURN JUMPDEST CALLVALUE DUP1 ISZERO PUSH2 0x2FA JUMPI PUSH0 DUP1 REVERT JUMPDEST POP PUSH2 0x315 PUSH1 0x4 DUP1 CALLDATASIZE SUB DUP2 ADD SWAP1 PUSH2 0x310 SWAP2 SWAP1 PUSH2 0x2078 JUMP JUMPDEST PUSH2 0xA91 JUMP JUMPDEST STOP JUMPDEST CALLVALUE DUP1 ISZERO PUSH2 0x322 JUMPI PUSH0 DUP1 REVERT JUMPDEST POP PUSH2 0x33D PUSH1 0x4 DUP1 CALLDATASIZE SUB DUP2 ADD SWAP1 PUSH2 0x338 SWAP2 SWAP1 PUSH2 0x1EB4 JUMP JUMPDEST PUSH2 0xAAF JUMP JUMPDEST PUSH1 0x40 MLOAD PUSH2 0x34A SWAP2 SWAP1 PUSH2 0x1F1E JUMP JUMPDEST PUSH1 0x40 MLOAD DUP1 SWAP2 SUB SWAP1 RETURN JUMPDEST CALLVALUE DUP1 ISZERO PUSH2 0x35E JUMPI PUSH0 DUP1 REVERT JUMPDEST POP PUSH2 0x379 PUSH1 0x4 DUP1 CALLDATASIZE SUB DUP2 ADD SWAP1 PUSH2 0x374 SWAP2 SWAP1 PUSH2 0x20C3 JUMP JUMPDEST PUSH2 0xAC0 JUMP JUMPDEST PUSH1 0x40 MLOAD PUSH2 0x386 SWAP2 SWAP1 PUSH2 0x1FAE JUMP JUMPDEST PUSH1 0x40 MLOAD DUP1 SWAP2 SUB SWAP1 RETURN JUMPDEST CALLVALUE DUP1 ISZERO PUSH2 0x39A JUMPI PUSH0 DUP1 REVERT JUMPDEST POP PUSH2 0x3A3 PUSH2 0xB54 JUMP JUMPDEST STOP JUMPDEST CALLVALUE DUP1 ISZERO PUSH2 0x3B0 JUMPI PUSH0 DUP1 REVERT JUMPDEST POP PUSH2 0x3B9 PUSH2 0xB67 JUMP JUMPDEST PUSH1 0x40 MLOAD PUSH2 0x3C6 SWAP2 SWAP1 PUSH2 0x1F1E JUMP JUMPDEST PUSH1 0x40 MLOAD DUP1 SWAP2 SUB SWAP1 RETURN JUMPDEST CALLVALUE DUP1 ISZERO PUSH2 0x3DA JUMPI PUSH0 DUP1 REVERT JUMPDEST POP PUSH2 0x3E3 PUSH2 0xB8E JUMP JUMPDEST PUSH1 0x40 MLOAD PUSH2 0x3F0 SWAP2 SWAP1 PUSH2 0x1E61 JUMP JUMPDEST PUSH1 0x40 MLOAD DUP1 SWAP2 SUB SWAP1 RETURN JUMPDEST CALLVALUE DUP1 ISZERO PUSH2 0x404 JUMPI PUSH0 DUP1 REVERT JUMPDEST POP PUSH2 0x41F PUSH1 0x4 DUP1 CALLDATASIZE SUB DUP2 ADD SWAP1 PUSH2 0x41A SWAP2 SWAP1 PUSH2 0x1EB4 JUMP JUMPDEST PUSH2 0xC1E JUMP JUMPDEST STOP JUMPDEST CALLVALUE DUP1 ISZERO PUSH2 0x42C JUMPI PUSH0 DUP1 REVERT JUMPDEST POP PUSH2 0x447 PUSH1 0x4 DUP1 CALLDATASIZE SUB DUP2 ADD SWAP1 PUSH2 0x442 SWAP2 SWAP1 PUSH2 0x2118 JUMP JUMPDEST PUSH2 0xCED JUMP JUMPDEST STOP JUMPDEST CALLVALUE DUP1 ISZERO PUSH2 0x454 JUMPI PUSH0 DUP1 REVERT JUMPDEST POP PUSH2 0x46F PUSH1 0x4 DUP1 CALLDATASIZE SUB DUP2 ADD SWAP1 PUSH2 0x46A SWAP2 SWAP1 PUSH2 0x1EB4 JUMP JUMPDEST PUSH2 0xDF3 JUMP JUMPDEST PUSH1 0x40 MLOAD PUSH2 0x47C SWAP2 SWAP1 PUSH2 0x1DBE JUMP JUMPDEST PUSH1 0x40 MLOAD DUP1 SWAP2 SUB SWAP1 RETURN JUMPDEST CALLVALUE DUP1 ISZERO PUSH2 0x490 JUMPI PUSH0 DUP1 REVERT JUMPDEST POP PUSH2 0x4AB PUSH1 0x4 DUP1 CALLDATASIZE SUB DUP2 ADD SWAP1 PUSH2 0x4A6 SWAP2 SWAP1 PUSH2 0x1EB4 JUMP JUMPDEST PUSH2 0xE10 JUMP JUMPDEST PUSH1 0x40 MLOAD PUSH2 0x4B8 SWAP2 SWAP1 PUSH2 0x1FAE JUMP JUMPDEST PUSH1 0x40 MLOAD DUP1 SWAP2 SUB SWAP1 RETURN JUMPDEST PUSH2 0x4DB PUSH1 0x4 DUP1 CALLDATASIZE SUB DUP2 ADD SWAP1 PUSH2 0x4D6 SWAP2 SWAP1 PUSH2 0x227E JUMP JUMPDEST PUSH2 0xE25 JUMP JUMPDEST STOP JUMPDEST CALLVALUE DUP1 ISZERO PUSH2 0x4E8 JUMPI PUSH0 DUP1 REVERT JUMPDEST POP PUSH2 0x503 PUSH1 0x4 DUP1 CALLDATASIZE SUB DUP2 ADD SWAP1 PUSH2 0x4FE SWAP2 SWAP1 PUSH2 0x1EB4 JUMP JUMPDEST PUSH2 0xE76 JUMP JUMPDEST PUSH1 0x40 MLOAD PUSH2 0x510 SWAP2 SWAP1 PUSH2 0x1E61 JUMP JUMPDEST PUSH1 0x40 MLOAD DUP1 SWAP2 SUB SWAP1 RETURN JUMPDEST CALLVALUE DUP1 ISZERO PUSH2 0x524 JUMPI PUSH0 DUP1 REVERT JUMPDEST POP PUSH2 0x53F PUSH1 0x4 DUP1 CALLDATASIZE SUB DUP2 ADD SWAP1 PUSH2 0x53A SWAP2 SWAP1 PUSH2 0x1EB4 JUMP JUMPDEST PUSH2 0xF11 JUMP JUMPDEST STOP JUMPDEST CALLVALUE DUP1 ISZERO PUSH2 0x54C JUMPI PUSH0 DUP1 REVERT JUMPDEST POP PUSH2 0x567 PUSH1 0x4 DUP1 CALLDATASIZE SUB DUP2 ADD SWAP1 PUSH2 0x562 SWAP2 SWAP1 PUSH2 0x22FE JUMP JUMPDEST PUSH2 0xF25 JUMP JUMPDEST PUSH1 0x40 MLOAD PUSH2 0x574 SWAP2 SWAP1 PUSH2 0x1DBE JUMP JUMPDEST PUSH1 0x40 MLOAD DUP1 SWAP2 SUB SWAP1 RETURN JUMPDEST CALLVALUE DUP1 ISZERO PUSH2 0x588 JUMPI PUSH0 DUP1 REVERT JUMPDEST POP PUSH2 0x5A3 PUSH1 0x4 DUP1 CALLDATASIZE SUB DUP2 ADD SWAP1 PUSH2 0x59E SWAP2 SWAP1 PUSH2 0x23FC JUMP JUMPDEST PUSH2 0xFB3 JUMP JUMPDEST STOP JUMPDEST CALLVALUE DUP1 ISZERO PUSH2 0x5B0 JUMPI PUSH0 DUP1 REVERT JUMPDEST POP PUSH2 0x5CB PUSH1 0x4 DUP1 CALLDATASIZE SUB DUP2 ADD SWAP1 PUSH2 0x5C6 SWAP2 SWAP1 PUSH2 0x20C3 JUMP JUMPDEST PUSH2 0x10C1 JUMP JUMPDEST STOP JUMPDEST PUSH0 PUSH4 0x1FFC9A7 PUSH1 0xE0 SHL DUP3 PUSH28 0xFFFFFFFFFFFFFFFFFFFFFFFFFFFFFFFFFFFFFFFFFFFFFFFFFFFFFFFF NOT AND EQ DUP1 PUSH2 0x627 JUMPI POP PUSH4 0x80AC58CD PUSH1 0xE0 SHL DUP3 PUSH28 0xFFFFFFFFFFFFFFFFFFFFFFFFFFFFFFFFFFFFFFFFFFFFFFFFFFFFFFFF NOT AND EQ JUMPDEST DUP1 PUSH2 0x657 JUMPI POP PUSH4 0x5B5E139F PUSH1 0xE0 SHL DUP3 PUSH28 0xFFFFFFFFFFFFFFFFFFFFFFFFFFFFFFFFFFFFFFFFFFFFFFFFFFFFFFFF NOT AND EQ JUMPDEST SWAP1 POP SWAP2 SWAP1 POP JUMP JUMPDEST PUSH1 0x60 PUSH1 0x3 DUP1 SLOAD PUSH2 0x66D SWAP1 PUSH2 0x2483 JUMP JUMPDEST DUP1 PUSH1 0x1F ADD PUSH1 0x20 DUP1 SWAP2 DIV MUL PUSH1 0x20 ADD PUSH1 0x40 MLOAD SWAP1 DUP2 ADD PUSH1 0x40 MSTORE DUP1 SWAP3 SWAP2 SWAP1 DUP2 DUP2 MSTORE PUSH1 0x20 ADD DUP3 DUP1 SLOAD PUSH2 0x699 SWAP1 PUSH2 0x2483 JUMP JUMPDEST DUP1 ISZERO PUSH2 0x6E4 JUMPI DUP1 PUSH1 0x1F LT PUSH2 0x6BB JUMPI PUSH2 0x100 DUP1 DUP4 SLOAD DIV MUL DUP4 MSTORE SWAP2 PUSH1 0x20 ADD SWAP2 PUSH2 0x6E4 JUMP JUMPDEST DUP3 ADD SWAP2 SWAP1 PUSH0 MSTORE PUSH1 0x20 PUSH0 KECCAK256 SWAP1 JUMPDEST DUP2 SLOAD DUP2 MSTORE SWAP1 PUSH1 0x1 ADD SWAP1 PUSH1 0x20 ADD DUP1 DUP4 GT PUSH2 0x6C7 JUMPI DUP3 SWAP1 SUB PUSH1 0x1F AND DUP3 ADD SWAP2 JUMPDEST POP POP POP POP POP SWAP1 POP SWAP1 JUMP JUMPDEST PUSH0 PUSH2 0x6F8 DUP3 PUSH2 0x1145 JUMP JUMPDEST PUSH2 0x70D JUMPI PUSH2 0x70C PUSH4 0xCF4700E4 PUSH1 0xE0 SHL PUSH2 0x11E9 JUMP JUMPDEST JUMPDEST PUSH1 0x7 PUSH0 DUP4 DUP2 MSTORE PUSH1 0x20 ADD SWAP1 DUP2 MSTORE PUSH1 0x20 ADD PUSH0 KECCAK256 PUSH0 ADD PUSH0 SWAP1 SLOAD SWAP1 PUSH2 0x100 EXP SWAP1 DIV PUSH20 0xFFFFFFFFFFFFFFFFFFFFFFFFFFFFFFFFFFFFFFFF AND SWAP1 POP SWAP2 SWAP1 POP JUMP JUMPDEST PUSH2 0x753 DUP3 DUP3 PUSH1 0x1 PUSH2 0x11F1 JUMP JUMPDEST POP POP JUMP JUMPDEST PUSH0 PUSH2 0x760 PUSH2 0x131B JUMP JUMPDEST SWAP1 POP SWAP1 JUMP JUMPDEST PUSH0 PUSH2 0x76E PUSH2 0x1324 JUMP JUMPDEST PUSH1 0x2 SLOAD PUSH1 0x1 SLOAD SUB SUB SWAP1 POP PUSH32 0xFFFFFFFFFFFFFFFFFFFFFFFFFFFFFFFFFFFFFFFFFFFFFFFFFFFFFFFFFFFFFFFF PUSH2 0x7A1 PUSH2 0x132F JUMP JUMPDEST EQ PUSH2 0x7AE JUMPI PUSH1 0x9 SLOAD DUP2 ADD SWAP1 POP JUMPDEST SWAP1 JUMP JUMPDEST PUSH0 PUSH2 0x7BB DUP3 PUSH2 0x1356 JUMP JUMPDEST SWAP1 POP PUSH20 0xFFFFFFFFFFFFFFFFFFFFFFFFFFFFFFFFFFFFFFFF DUP5 PUSH20 0xFFFFFFFFFFFFFFFFFFFFFFFFFFFFFFFFFFFFFFFF AND AND SWAP4 POP DUP4 PUSH20 0xFFFFFFFFFFFFFFFFFFFFFFFFFFFFFFFFFFFFFFFF AND DUP2 PUSH20 0xFFFFFFFFFFFFFFFFFFFFFFFFFFFFFFFFFFFFFFFF AND EQ PUSH2 0x830 JUMPI PUSH2 0x82F PUSH4 0xA1148100 PUSH1 0xE0 SHL PUSH2 0x11E9 JUMP JUMPDEST JUMPDEST PUSH0 DUP1 PUSH2 0x83B DUP5 PUSH2 0x1466 JUMP JUMPDEST SWAP2 POP SWAP2 POP PUSH2 0x851 DUP2 DUP8 PUSH2 0x84C PUSH2 0x1489 JUMP JUMPDEST PUSH2 0x1490 JUMP JUMPDEST PUSH2 0x87C JUMPI PUSH2 0x866 DUP7 PUSH2 0x861 PUSH2 0x1489 JUMP JUMPDEST PUSH2 0xF25 JUMP JUMPDEST PUSH2 0x87B JUMPI PUSH2 0x87A PUSH4 0x59C896BE PUSH1 0xE0 SHL PUSH2 0x11E9 JUMP JUMPDEST JUMPDEST JUMPDEST PUSH2 0x889 DUP7 DUP7 DUP7 PUSH1 0x1 PUSH2 0x14D3 JUMP JUMPDEST DUP1 ISZERO PUSH2 0x893 JUMPI PUSH0 DUP3 SSTORE JUMPDEST PUSH1 0x6 PUSH0 DUP8 PUSH20 0xFFFFFFFFFFFFFFFFFFFFFFFFFFFFFFFFFFFFFFFF AND PUSH20 0xFFFFFFFFFFFFFFFFFFFFFFFFFFFFFFFFFFFFFFFF AND DUP2 MSTORE PUSH1 0x20 ADD SWAP1 DUP2 MSTORE PUSH1 0x20 ADD PUSH0 KECCAK256 PUSH0 DUP2 SLOAD PUSH1 0x1 SWAP1 SUB SWAP2 SWAP1 POP DUP2 SWAP1 SSTORE POP PUSH1 0x6 PUSH0 DUP7 PUSH20 0xFFFFFFFFFFFFFFFFFFFFFFFFFFFFFFFFFFFFFFFF AND PUSH20 0xFFFFFFFFFFFFFFFFFFFFFFFFFFFFFFFFFFFFFFFF AND DUP2 MSTORE PUSH1 0x20 ADD SWAP1 DUP2 MSTORE PUSH1 0x20 ADD PUSH0 KECCAK256 PUSH0 DUP2 SLOAD PUSH1 0x1 ADD SWAP2 SWAP1 POP DUP2 SWAP1 SSTORE POP PUSH2 0x95B DUP6 PUSH2 0x937 DUP9 DUP9 DUP8 PUSH2 0x14D9 JUMP JUMPDEST PUSH29 0x200000000000000000000000000000000000000000000000000000000 OR PUSH2 0x1500 JUMP JUMPDEST PUSH1 0x5 PUSH0 DUP7 DUP2 MSTORE PUSH1 0x20 ADD SWAP1 DUP2 MSTORE PUSH1 0x20 ADD PUSH0 KECCAK256 DUP2 SWAP1 SSTORE POP PUSH0 PUSH29 0x200000000000000000000000000000000000000000000000000000000 DUP5 AND SUB PUSH2 0x9D8 JUMPI PUSH0 PUSH1 0x1 DUP6 ADD SWAP1 POP PUSH0 PUSH1 0x5 PUSH0 DUP4 DUP2 MSTORE PUSH1 0x20 ADD SWAP1 DUP2 MSTORE PUSH1 0x20 ADD PUSH0 KECCAK256 SLOAD SUB PUSH2 0x9D6 JUMPI PUSH1 0x1 SLOAD DUP2 EQ PUSH2 0x9D5 JUMPI DUP4 PUSH1 0x5 PUSH0 DUP4 DUP2 MSTORE PUSH1 0x20 ADD SWAP1 DUP2 MSTORE PUSH1 0x20 ADD PUSH0 KECCAK256 DUP2 SWAP1 SSTORE POP JUMPDEST JUMPDEST POP JUMPDEST PUSH0 PUSH20 0xFFFFFFFFFFFFFFFFFFFFFFFFFFFFFFFFFFFFFFFF DUP7 PUSH20 0xFFFFFFFFFFFFFFFFFFFFFFFFFFFFFFFFFFFFFFFF AND AND SWAP1 POP DUP5 DUP2 DUP9 PUSH32 0xDDF252AD1BE2C89B69C2B068FC378DAA952BA7F163C4A11628F55A4DF523B3EF PUSH0 DUP1 LOG4 PUSH0 DUP2 SUB PUSH2 0xA47 JUMPI PUSH2 0xA46 PUSH4 0xEA553B34 PUSH1 0xE0 SHL PUSH2 0x11E9 JUMP JUMPDEST JUMPDEST PUSH2 0xA54 DUP8 DUP8 DUP8 PUSH1 0x1 PUSH2 0x152A JUMP JUMPDEST POP POP POP POP POP POP POP JUMP JUMPDEST PUSH2 0xA77 DUP4 DUP4 DUP4 PUSH1 0x40 MLOAD DUP1 PUSH1 0x20 ADD PUSH1 0x40 MSTORE DUP1 PUSH0 DUP2 MSTORE POP PUSH2 0xE25 JUMP JUMPDEST POP POP POP JUMP JUMPDEST PUSH1 0xC PUSH1 0x20 MSTORE DUP1 PUSH0 MSTORE PUSH1 0x40 PUSH0 KECCAK256 PUSH0 SWAP2 POP SWAP1 POP SLOAD DUP2 JUMP JUMPDEST PUSH2 0xA99 PUSH2 0x1530 JUMP JUMPDEST DUP2 DUP2 PUSH1 0xA SWAP2 DUP3 PUSH2 0xAAA SWAP3 SWAP2 SWAP1 PUSH2 0x265A JUMP JUMPDEST POP POP POP JUMP JUMPDEST PUSH0 PUSH2 0xAB9 DUP3 PUSH2 0x1356 JUMP JUMPDEST SWAP1 POP SWAP2 SWAP1 POP JUMP JUMPDEST PUSH0 DUP1 PUSH20 0xFFFFFFFFFFFFFFFFFFFFFFFFFFFFFFFFFFFFFFFF AND DUP3 PUSH20 0xFFFFFFFFFFFFFFFFFFFFFFFFFFFFFFFFFFFFFFFF AND SUB PUSH2 0xB05 JUMPI PUSH2 0xB04 PUSH4 0x8F4EB604 PUSH1 0xE0 SHL PUSH2 0x11E9 JUMP JUMPDEST JUMPDEST PUSH8 0xFFFFFFFFFFFFFFFF PUSH1 0x6 PUSH0 DUP5 PUSH20 0xFFFFFFFFFFFFFFFFFFFFFFFFFFFFFFFFFFFFFFFF AND PUSH20 0xFFFFFFFFFFFFFFFFFFFFFFFFFFFFFFFFFFFFFFFF AND DUP2 MSTORE PUSH1 0x20 ADD SWAP1 DUP2 MSTORE PUSH1 0x20 ADD PUSH0 KECCAK256 SLOAD AND SWAP1 POP SWAP2 SWAP1 POP JUMP JUMPDEST PUSH2 0xB5C PUSH2 0x1530 JUMP JUMPDEST PUSH2 0xB65 PUSH0 PUSH2 0x15B7 JUMP JUMPDEST JUMP JUMPDEST PUSH0 DUP1 PUSH0 SWAP1 SLOAD SWAP1 PUSH2 0x100 EXP SWAP1 DIV PUSH20 0xFFFFFFFFFFFFFFFFFFFFFFFFFFFFFFFFFFFFFFFF AND SWAP1 POP SWAP1 JUMP JUMPDEST PUSH1 0x60 PUSH1 0x4 DUP1 SLOAD PUSH2 0xB9D SWAP1 PUSH2 0x2483 JUMP JUMPDEST DUP1 PUSH1 0x1F ADD PUSH1 0x20 DUP1 SWAP2 DIV MUL PUSH1 0x20 ADD PUSH1 0x40 MLOAD SWAP1 DUP2 ADD PUSH1 0x40 MSTORE DUP1 SWAP3 SWAP2 SWAP1 DUP2 DUP2 MSTORE PUSH1 0x20 ADD DUP3 DUP1 SLOAD PUSH2 0xBC9 SWAP1 PUSH2 0x2483 JUMP JUMPDEST DUP1 ISZERO PUSH2 0xC14 JUMPI DUP1 PUSH1 0x1F LT PUSH2 0xBEB JUMPI PUSH2 0x100 DUP1 DUP4 SLOAD DIV MUL DUP4 MSTORE SWAP2 PUSH1 0x20 ADD SWAP2 PUSH2 0xC14 JUMP JUMPDEST DUP3 ADD SWAP2 SWAP1 PUSH0 MSTORE PUSH1 0x20 PUSH0 KECCAK256 SWAP1 JUMPDEST DUP2 SLOAD DUP2 MSTORE SWAP1 PUSH1 0x1 ADD SWAP1 PUSH1 0x20 ADD DUP1 DUP4 GT PUSH2 0xBF7 JUMPI DUP3 SWAP1 SUB PUSH1 0x1F AND DUP3 ADD SWAP2 JUMPDEST POP POP POP POP POP SWAP1 POP SWAP1 JUMP JUMPDEST PUSH1 0xD PUSH0 DUP3 DUP2 MSTORE PUSH1 0x20 ADD SWAP1 DUP2 MSTORE PUSH1 0x20 ADD PUSH0 KECCAK256 PUSH0 SWAP1 SLOAD SWAP1 PUSH2 0x100 EXP SWAP1 DIV PUSH1 0xFF AND ISZERO PUSH2 0xC7C JUMPI PUSH1 0x40 MLOAD PUSH32 0x8C379A000000000000000000000000000000000000000000000000000000000 DUP2 MSTORE PUSH1 0x4 ADD PUSH2 0xC73 SWAP1 PUSH2 0x2771 JUMP JUMPDEST PUSH1 0x40 MLOAD DUP1 SWAP2 SUB SWAP1 REVERT JUMPDEST PUSH2 0xC84 PUSH2 0x131B JUMP JUMPDEST PUSH1 0xB PUSH0 DUP4 DUP2 MSTORE PUSH1 0x20 ADD SWAP1 DUP2 MSTORE PUSH1 0x20 ADD PUSH0 KECCAK256 DUP2 SWAP1 SSTORE POP DUP1 PUSH1 0xC PUSH0 PUSH2 0xCA5 PUSH2 0x131B JUMP JUMPDEST DUP2 MSTORE PUSH1 0x20 ADD SWAP1 DUP2 MSTORE PUSH1 0x20 ADD PUSH0 KECCAK256 DUP2 SWAP1 SSTORE POP PUSH1 0x1 PUSH1 0xD PUSH0 DUP4 DUP2 MSTORE PUSH1 0x20 ADD SWAP1 DUP2 MSTORE PUSH1 0x20 ADD PUSH0 KECCAK256 PUSH0 PUSH2 0x100 EXP DUP2 SLOAD DUP2 PUSH1 0xFF MUL NOT AND SWAP1 DUP4 ISZERO ISZERO MUL OR SWAP1 SSTORE POP PUSH2 0xCEA CALLER PUSH1 0x1 PUSH2 0x1678 JUMP JUMPDEST POP JUMP JUMPDEST DUP1 PUSH1 0x8 PUSH0 PUSH2 0xCF9 PUSH2 0x1489 JUMP JUMPDEST PUSH20 0xFFFFFFFFFFFFFFFFFFFFFFFFFFFFFFFFFFFFFFFF AND PUSH20 0xFFFFFFFFFFFFFFFFFFFFFFFFFFFFFFFFFFFFFFFF AND DUP2 MSTORE PUSH1 0x20 ADD SWAP1 DUP2 MSTORE PUSH1 0x20 ADD PUSH0 KECCAK256 PUSH0 DUP5 PUSH20 0xFFFFFFFFFFFFFFFFFFFFFFFFFFFFFFFFFFFFFFFF AND PUSH20 0xFFFFFFFFFFFFFFFFFFFFFFFFFFFFFFFFFFFFFFFF AND DUP2 MSTORE PUSH1 0x20 ADD SWAP1 DUP2 MSTORE PUSH1 0x20 ADD PUSH0 KECCAK256 PUSH0 PUSH2 0x100 EXP DUP2 SLOAD DUP2 PUSH1 0xFF MUL NOT AND SWAP1 DUP4 ISZERO ISZERO MUL OR SWAP1 SSTORE POP DUP2 PUSH20 0xFFFFFFFFFFFFFFFFFFFFFFFFFFFFFFFFFFFFFFFF AND PUSH2 0xDA2 PUSH2 0x1489 JUMP JUMPDEST PUSH20 0xFFFFFFFFFFFFFFFFFFFFFFFFFFFFFFFFFFFFFFFF AND PUSH32 0x17307EAB39AB6107E8899845AD3D59BD9653F200F220920489CA2B5937696C31 DUP4 PUSH1 0x40 MLOAD PUSH2 0xDE7 SWAP2 SWAP1 PUSH2 0x1DBE JUMP JUMPDEST PUSH1 0x40 MLOAD DUP1 SWAP2 SUB SWAP1 LOG3 POP POP JUMP JUMPDEST PUSH1 0xD PUSH1 0x20 MSTORE DUP1 PUSH0 MSTORE PUSH1 0x40 PUSH0 KECCAK256 PUSH0 SWAP2 POP SLOAD SWAP1 PUSH2 0x100 EXP SWAP1 DIV PUSH1 0xFF AND DUP2 JUMP JUMPDEST PUSH1 0xB PUSH1 0x20 MSTORE DUP1 PUSH0 MSTORE PUSH1 0x40 PUSH0 KECCAK256 PUSH0 SWAP2 POP SWAP1 POP SLOAD DUP2 JUMP JUMPDEST PUSH2 0xE30 DUP5 DUP5 DUP5 PUSH2 0x7B1 JUMP JUMPDEST PUSH0 DUP4 PUSH20 0xFFFFFFFFFFFFFFFFFFFFFFFFFFFFFFFFFFFFFFFF AND EXTCODESIZE EQ PUSH2 0xE70 JUMPI PUSH2 0xE5A DUP5 DUP5 DUP5 DUP5 PUSH2 0x1695 JUMP JUMPDEST PUSH2 0xE6F JUMPI PUSH2 0xE6E PUSH4 0xD1A57ED6 PUSH1 0xE0 SHL PUSH2 0x11E9 JUMP JUMPDEST JUMPDEST JUMPDEST POP POP POP POP JUMP JUMPDEST PUSH1 0x60 PUSH2 0xE81 DUP3 PUSH2 0x1145 JUMP JUMPDEST PUSH2 0xEB7 JUMPI PUSH1 0x40 MLOAD PUSH32 0xA14C4B5000000000000000000000000000000000000000000000000000000000 DUP2 MSTORE PUSH1 0x4 ADD PUSH1 0x40 MLOAD DUP1 SWAP2 SUB SWAP1 REVERT JUMPDEST PUSH0 PUSH2 0xEC0 PUSH2 0x17BF JUMP JUMPDEST SWAP1 POP PUSH0 DUP2 MLOAD SUB PUSH2 0xEDE JUMPI PUSH1 0x40 MLOAD DUP1 PUSH1 0x20 ADD PUSH1 0x40 MSTORE DUP1 PUSH0 DUP2 MSTORE POP PUSH2 0xF09 JUMP JUMPDEST DUP1 PUSH2 0xEE8 DUP5 PUSH2 0x184F JUMP JUMPDEST PUSH1 0x40 MLOAD PUSH1 0x20 ADD PUSH2 0xEF9 SWAP3 SWAP2 SWAP1 PUSH2 0x27C9 JUMP JUMPDEST PUSH1 0x40 MLOAD PUSH1 0x20 DUP2 DUP4 SUB SUB DUP2 MSTORE SWAP1 PUSH1 0x40 MSTORE JUMPDEST SWAP2 POP POP SWAP2 SWAP1 POP JUMP JUMPDEST PUSH2 0xF19 PUSH2 0x1530 JUMP JUMPDEST PUSH2 0xF22 DUP2 PUSH2 0x189E JUMP JUMPDEST POP JUMP JUMPDEST PUSH0 PUSH1 0x8 PUSH0 DUP5 PUSH20 0xFFFFFFFFFFFFFFFFFFFFFFFFFFFFFFFFFFFFFFFF AND PUSH20 0xFFFFFFFFFFFFFFFFFFFFFFFFFFFFFFFFFFFFFFFF AND DUP2 MSTORE PUSH1 0x20 ADD SWAP1 DUP2 MSTORE PUSH1 0x20 ADD PUSH0 KECCAK256 PUSH0 DUP4 PUSH20 0xFFFFFFFFFFFFFFFFFFFFFFFFFFFFFFFFFFFFFFFF AND PUSH20 0xFFFFFFFFFFFFFFFFFFFFFFFFFFFFFFFFFFFFFFFF AND DUP2 MSTORE PUSH1 0x20 ADD SWAP1 DUP2 MSTORE PUSH1 0x20 ADD PUSH0 KECCAK256 PUSH0 SWAP1 SLOAD SWAP1 PUSH2 0x100 EXP SWAP1 DIV PUSH1 0xFF AND SWAP1 POP SWAP3 SWAP2 POP POP JUMP JUMPDEST PUSH0 JUMPDEST DUP3 MLOAD DUP2 LT ISZERO PUSH2 0x10BC JUMPI PUSH0 DUP4 DUP3 DUP2 MLOAD DUP2 LT PUSH2 0xFD2 JUMPI PUSH2 0xFD1 PUSH2 0x27EC JUMP JUMPDEST JUMPDEST PUSH1 0x20 MUL PUSH1 0x20 ADD ADD MLOAD SWAP1 POP PUSH1 0xD PUSH0 DUP3 DUP2 MSTORE PUSH1 0x20 ADD SWAP1 DUP2 MSTORE PUSH1 0x20 ADD PUSH0 KECCAK256 PUSH0 SWAP1 SLOAD SWAP1 PUSH2 0x100 EXP SWAP1 DIV PUSH1 0xFF AND ISZERO PUSH2 0x103A JUMPI PUSH1 0x40 MLOAD PUSH32 0x8C379A000000000000000000000000000000000000000000000000000000000 DUP2 MSTORE PUSH1 0x4 ADD PUSH2 0x1031 SWAP1 PUSH2 0x2771 JUMP JUMPDEST PUSH1 0x40 MLOAD DUP1 SWAP2 SUB SWAP1 REVERT JUMPDEST PUSH2 0x1042 PUSH2 0x131B JUMP JUMPDEST PUSH1 0xB PUSH0 DUP4 DUP2 MSTORE PUSH1 0x20 ADD SWAP1 DUP2 MSTORE PUSH1 0x20 ADD PUSH0 KECCAK256 DUP2 SWAP1 SSTORE POP DUP1 PUSH1 0xC PUSH0 PUSH2 0x1063 PUSH2 0x131B JUMP JUMPDEST DUP2 MSTORE PUSH1 0x20 ADD SWAP1 DUP2 MSTORE PUSH1 0x20 ADD PUSH0 KECCAK256 DUP2 SWAP1 SSTORE POP PUSH1 0x1 PUSH1 0xD PUSH0 DUP4 DUP2 MSTORE PUSH1 0x20 ADD SWAP1 DUP2 MSTORE PUSH1 0x20 ADD PUSH0 KECCAK256 PUSH0 PUSH2 0x100 EXP DUP2 SLOAD DUP2 PUSH1 0xFF MUL NOT AND SWAP1 DUP4 ISZERO ISZERO MUL OR SWAP1 SSTORE POP PUSH2 0x10A8 DUP4 PUSH1 0x1 PUSH2 0x1678 JUMP JUMPDEST POP DUP1 DUP1 PUSH2 0x10B4 SWAP1 PUSH2 0x2846 JUMP JUMPDEST SWAP2 POP POP PUSH2 0xFB5 JUMP JUMPDEST POP POP POP JUMP JUMPDEST PUSH2 0x10C9 PUSH2 0x1530 JUMP JUMPDEST PUSH0 PUSH20 0xFFFFFFFFFFFFFFFFFFFFFFFFFFFFFFFFFFFFFFFF AND DUP2 PUSH20 0xFFFFFFFFFFFFFFFFFFFFFFFFFFFFFFFFFFFFFFFF AND SUB PUSH2 0x1139 JUMPI PUSH0 PUSH1 0x40 MLOAD PUSH32 0x1E4FBDF700000000000000000000000000000000000000000000000000000000 DUP2 MSTORE PUSH1 0x4 ADD PUSH2 0x1130 SWAP2 SWAP1 PUSH2 0x1F1E JUMP JUMPDEST PUSH1 0x40 MLOAD DUP1 SWAP2 SUB SWAP1 REVERT JUMPDEST PUSH2 0x1142 DUP2 PUSH2 0x15B7 JUMP JUMPDEST POP JUMP JUMPDEST PUSH0 DUP2 PUSH2 0x114F PUSH2 0x1324 JUMP JUMPDEST GT PUSH2 0x11E3 JUMPI PUSH2 0x115C PUSH2 0x132F JUMP JUMPDEST DUP3 GT ISZERO PUSH2 0x1184 JUMPI PUSH2 0x117D PUSH1 0x5 PUSH0 DUP5 DUP2 MSTORE PUSH1 0x20 ADD SWAP1 DUP2 MSTORE PUSH1 0x20 ADD PUSH0 KECCAK256 SLOAD PUSH2 0x18AB JUMP JUMPDEST SWAP1 POP PUSH2 0x11E4 JUMP JUMPDEST PUSH1 0x1 SLOAD DUP3 LT ISZERO PUSH2 0x11E2 JUMPI PUSH0 JUMPDEST PUSH0 PUSH1 0x5 PUSH0 DUP6 DUP2 MSTORE PUSH1 0x20 ADD SWAP1 DUP2 MSTORE PUSH1 0x20 ADD PUSH0 KECCAK256 SLOAD SWAP2 POP DUP2 SUB PUSH2 0x11BC JUMPI DUP3 PUSH2 0x11B5 SWAP1 PUSH2 0x288D JUMP JUMPDEST SWAP3 POP PUSH2 0x1190 JUMP JUMPDEST PUSH0 PUSH29 0x100000000000000000000000000000000000000000000000000000000 DUP3 AND EQ SWAP2 POP POP JUMPDEST JUMPDEST JUMPDEST SWAP2 SWAP1 POP JUMP JUMPDEST DUP1 PUSH0 MSTORE PUSH1 0x4 PUSH0 REVERT JUMPDEST PUSH0 PUSH2 0x11FB DUP4 PUSH2 0xAAF JUMP JUMPDEST SWAP1 POP DUP2 DUP1 ISZERO PUSH2 0x123D JUMPI POP DUP1 PUSH20 0xFFFFFFFFFFFFFFFFFFFFFFFFFFFFFFFFFFFFFFFF AND PUSH2 0x1224 PUSH2 0x1489 JUMP JUMPDEST PUSH20 0xFFFFFFFFFFFFFFFFFFFFFFFFFFFFFFFFFFFFFFFF AND EQ ISZERO JUMPDEST ISZERO PUSH2 0x1269 JUMPI PUSH2 0x1253 DUP2 PUSH2 0x124E PUSH2 0x1489 JUMP JUMPDEST PUSH2 0xF25 JUMP JUMPDEST PUSH2 0x1268 JUMPI PUSH2 0x1267 PUSH4 0xCFB3B942 PUSH1 0xE0 SHL PUSH2 0x11E9 JUMP JUMPDEST JUMPDEST JUMPDEST DUP4 PUSH1 0x7 PUSH0 DUP6 DUP2 MSTORE PUSH1 0x20 ADD SWAP1 DUP2 MSTORE PUSH1 0x20 ADD PUSH0 KECCAK256 PUSH0 ADD PUSH0 PUSH2 0x100 EXP DUP2 SLOAD DUP2 PUSH20 0xFFFFFFFFFFFFFFFFFFFFFFFFFFFFFFFFFFFFFFFF MUL NOT AND SWAP1 DUP4 PUSH20 0xFFFFFFFFFFFFFFFFFFFFFFFFFFFFFFFFFFFFFFFF AND MUL OR SWAP1 SSTORE POP DUP3 DUP5 PUSH20 0xFFFFFFFFFFFFFFFFFFFFFFFFFFFFFFFFFFFFFFFF AND DUP3 PUSH20 0xFFFFFFFFFFFFFFFFFFFFFFFFFFFFFFFFFFFFFFFF AND PUSH32 0x8C5BE1E5EBEC7D5BD14F71427D1E84F3DD0314C0F7B2291E5B200AC8C7C3B925 PUSH1 0x40 MLOAD PUSH1 0x40 MLOAD DUP1 SWAP2 SUB SWAP1 LOG4 POP POP POP POP JUMP JUMPDEST PUSH0 PUSH1 0x1 SLOAD SWAP1 POP SWAP1 JUMP JUMPDEST PUSH0 PUSH4 0x5F5E100 SWAP1 POP SWAP1 JUMP JUMPDEST PUSH0 PUSH32 0xFFFFFFFFFFFFFFFFFFFFFFFFFFFFFFFFFFFFFFFFFFFFFFFFFFFFFFFFFFFFFFFF SWAP1 POP SWAP1 JUMP JUMPDEST PUSH0 DUP2 PUSH2 0x1360 PUSH2 0x1324 JUMP JUMPDEST GT PUSH2 0x1450 JUMPI PUSH1 0x5 PUSH0 DUP4 DUP2 MSTORE PUSH1 0x20 ADD SWAP1 DUP2 MSTORE PUSH1 0x20 ADD PUSH0 KECCAK256 SLOAD SWAP1 POP PUSH2 0x1381 PUSH2 0x132F JUMP JUMPDEST DUP3 GT ISZERO PUSH2 0x13A6 JUMPI PUSH2 0x1391 DUP2 PUSH2 0x18AB JUMP JUMPDEST PUSH2 0x1461 JUMPI PUSH2 0x13A5 PUSH4 0xDF2D9B42 PUSH1 0xE0 SHL PUSH2 0x11E9 JUMP JUMPDEST JUMPDEST PUSH0 DUP2 SUB PUSH2 0x1428 JUMPI PUSH1 0x1 SLOAD DUP3 LT PUSH2 0x13C7 JUMPI PUSH2 0x13C6 PUSH4 0xDF2D9B42 PUSH1 0xE0 SHL PUSH2 0x11E9 JUMP JUMPDEST JUMPDEST JUMPDEST PUSH1 0x5 PUSH0 DUP4 PUSH1 0x1 SWAP1 SUB SWAP4 POP DUP4 DUP2 MSTORE PUSH1 0x20 ADD SWAP1 DUP2 MSTORE PUSH1 0x20 ADD PUSH0 KECCAK256 SLOAD SWAP1 POP PUSH0 DUP2 SUB ISZERO PUSH2 0x1423 JUMPI PUSH0 PUSH29 0x100000000000000000000000000000000000000000000000000000000 DUP3 AND SUB ISZERO PUSH2 0x1461 JUMPI PUSH2 0x1422 PUSH4 0xDF2D9B42 PUSH1 0xE0 SHL PUSH2 0x11E9 JUMP JUMPDEST JUMPDEST PUSH2 0x13C8 JUMP JUMPDEST PUSH0 PUSH29 0x100000000000000000000000000000000000000000000000000000000 DUP3 AND SUB ISZERO PUSH2 0x1461 JUMPI JUMPDEST PUSH2 0x1460 PUSH4 0xDF2D9B42 PUSH1 0xE0 SHL PUSH2 0x11E9 JUMP JUMPDEST JUMPDEST SWAP2 SWAP1 POP JUMP JUMPDEST PUSH0 DUP1 PUSH0 PUSH1 0x7 PUSH0 DUP6 DUP2 MSTORE PUSH1 0x20 ADD SWAP1 DUP2 MSTORE PUSH1 0x20 ADD PUSH0 KECCAK256 SWAP1 POP DUP1 SWAP3 POP DUP3 SLOAD SWAP2 POP POP SWAP2 POP SWAP2 JUMP JUMPDEST PUSH0 CALLER SWAP1 POP SWAP1 JUMP JUMPDEST PUSH0 PUSH20 0xFFFFFFFFFFFFFFFFFFFFFFFFFFFFFFFFFFFFFFFF DUP4 AND SWAP3 POP PUSH20 0xFFFFFFFFFFFFFFFFFFFFFFFFFFFFFFFFFFFFFFFF DUP3 AND SWAP2 POP DUP4 DUP3 EQ DUP4 DUP4 EQ OR SWAP1 POP SWAP4 SWAP3 POP POP POP JUMP JUMPDEST POP POP POP POP JUMP JUMPDEST PUSH0 DUP1 PUSH1 0xE8 DUP4 SWAP1 SHR SWAP1 POP PUSH1 0xE8 PUSH2 0x14EF DUP7 DUP7 DUP5 PUSH2 0x18EB JUMP JUMPDEST PUSH3 0xFFFFFF AND SWAP1 SHL SWAP2 POP POP SWAP4 SWAP3 POP POP POP JUMP JUMPDEST PUSH0 PUSH20 0xFFFFFFFFFFFFFFFFFFFFFFFFFFFFFFFFFFFFFFFF DUP4 AND SWAP3 POP DUP2 TIMESTAMP PUSH1 0xA0 SHL OR DUP4 OR SWAP1 POP SWAP3 SWAP2 POP POP JUMP JUMPDEST POP POP POP POP JUMP JUMPDEST PUSH2 0x1538 PUSH2 0x18F3 JUMP JUMPDEST PUSH20 0xFFFFFFFFFFFFFFFFFFFFFFFFFFFFFFFFFFFFFFFF AND PUSH2 0x1556 PUSH2 0xB67 JUMP JUMPDEST PUSH20 0xFFFFFFFFFFFFFFFFFFFFFFFFFFFFFFFFFFFFFFFF AND EQ PUSH2 0x15B5 JUMPI PUSH2 0x1579 PUSH2 0x18F3 JUMP JUMPDEST PUSH1 0x40 MLOAD PUSH32 0x118CDAA700000000000000000000000000000000000000000000000000000000 DUP2 MSTORE PUSH1 0x4 ADD PUSH2 0x15AC SWAP2 SWAP1 PUSH2 0x1F1E JUMP JUMPDEST PUSH1 0x40 MLOAD DUP1 SWAP2 SUB SWAP1 REVERT JUMPDEST JUMP JUMPDEST PUSH0 DUP1 PUSH0 SWAP1 SLOAD SWAP1 PUSH2 0x100 EXP SWAP1 DIV PUSH20 0xFFFFFFFFFFFFFFFFFFFFFFFFFFFFFFFFFFFFFFFF AND SWAP1 POP DUP2 PUSH0 DUP1 PUSH2 0x100 EXP DUP2 SLOAD DUP2 PUSH20 0xFFFFFFFFFFFFFFFFFFFFFFFFFFFFFFFFFFFFFFFF MUL NOT AND SWAP1 DUP4 PUSH20 0xFFFFFFFFFFFFFFFFFFFFFFFFFFFFFFFFFFFFFFFF AND MUL OR SWAP1 SSTORE POP DUP2 PUSH20 0xFFFFFFFFFFFFFFFFFFFFFFFFFFFFFFFFFFFFFFFF AND DUP2 PUSH20 0xFFFFFFFFFFFFFFFFFFFFFFFFFFFFFFFFFFFFFFFF AND PUSH32 0x8BE0079C531659141344CD1FD0A4F28419497F9722A3DAAFE3B4186F6B6457E0 PUSH1 0x40 MLOAD PUSH1 0x40 MLOAD DUP1 SWAP2 SUB SWAP1 LOG3 POP POP JUMP JUMPDEST PUSH2 0x1691 DUP3 DUP3 PUSH1 0x40 MLOAD DUP1 PUSH1 0x20 ADD PUSH1 0x40 MSTORE DUP1 PUSH0 DUP2 MSTORE POP PUSH2 0x18FA JUMP JUMPDEST POP POP JUMP JUMPDEST PUSH0 DUP4 PUSH20 0xFFFFFFFFFFFFFFFFFFFFFFFFFFFFFFFFFFFFFFFF AND PUSH4 0x150B7A02 PUSH2 0x16BA PUSH2 0x1489 JUMP JUMPDEST DUP8 DUP7 DUP7 PUSH1 0x40 MLOAD DUP6 PUSH4 0xFFFFFFFF AND PUSH1 0xE0 SHL DUP2 MSTORE PUSH1 0x4 ADD PUSH2 0x16DC SWAP5 SWAP4 SWAP3 SWAP2 SWAP1 PUSH2 0x2906 JUMP JUMPDEST PUSH1 0x20 PUSH1 0x40 MLOAD DUP1 DUP4 SUB DUP2 PUSH0 DUP8 GAS CALL SWAP3 POP POP POP DUP1 ISZERO PUSH2 0x1717 JUMPI POP PUSH1 0x40 MLOAD RETURNDATASIZE PUSH1 0x1F NOT PUSH1 0x1F DUP3 ADD AND DUP3 ADD DUP1 PUSH1 0x40 MSTORE POP DUP2 ADD SWAP1 PUSH2 0x1714 SWAP2 SWAP1 PUSH2 0x2964 JUMP JUMPDEST PUSH1 0x1 JUMPDEST PUSH2 0x176C JUMPI RETURNDATASIZE DUP1 PUSH0 DUP2 EQ PUSH2 0x1745 JUMPI PUSH1 0x40 MLOAD SWAP2 POP PUSH1 0x1F NOT PUSH1 0x3F RETURNDATASIZE ADD AND DUP3 ADD PUSH1 0x40 MSTORE RETURNDATASIZE DUP3 MSTORE RETURNDATASIZE PUSH0 PUSH1 0x20 DUP5 ADD RETURNDATACOPY PUSH2 0x174A JUMP JUMPDEST PUSH1 0x60 SWAP2 POP JUMPDEST POP PUSH0 DUP2 MLOAD SUB PUSH2 0x1764 JUMPI PUSH2 0x1763 PUSH4 0xD1A57ED6 PUSH1 0xE0 SHL PUSH2 0x11E9 JUMP JUMPDEST JUMPDEST DUP1 MLOAD DUP2 PUSH1 0x20 ADD REVERT JUMPDEST PUSH4 0x150B7A02 PUSH1 0xE0 SHL PUSH28 0xFFFFFFFFFFFFFFFFFFFFFFFFFFFFFFFFFFFFFFFFFFFFFFFFFFFFFFFF NOT AND DUP2 PUSH28 0xFFFFFFFFFFFFFFFFFFFFFFFFFFFFFFFFFFFFFFFFFFFFFFFFFFFFFFFF NOT AND EQ SWAP2 POP POP SWAP5 SWAP4 POP POP POP POP JUMP JUMPDEST PUSH1 0x60 PUSH1 0xA DUP1 SLOAD PUSH2 0x17CE SWAP1 PUSH2 0x2483 JUMP JUMPDEST DUP1 PUSH1 0x1F ADD PUSH1 0x20 DUP1 SWAP2 DIV MUL PUSH1 0x20 ADD PUSH1 0x40 MLOAD SWAP1 DUP2 ADD PUSH1 0x40 MSTORE DUP1 SWAP3 SWAP2 SWAP1 DUP2 DUP2 MSTORE PUSH1 0x20 ADD DUP3 DUP1 SLOAD PUSH2 0x17FA SWAP1 PUSH2 0x2483 JUMP JUMPDEST DUP1 ISZERO PUSH2 0x1845 JUMPI DUP1 PUSH1 0x1F LT PUSH2 0x181C JUMPI PUSH2 0x100 DUP1 DUP4 SLOAD DIV MUL DUP4 MSTORE SWAP2 PUSH1 0x20 ADD SWAP2 PUSH2 0x1845 JUMP JUMPDEST DUP3 ADD SWAP2 SWAP1 PUSH0 MSTORE PUSH1 0x20 PUSH0 KECCAK256 SWAP1 JUMPDEST DUP2 SLOAD DUP2 MSTORE SWAP1 PUSH1 0x1 ADD SWAP1 PUSH1 0x20 ADD DUP1 DUP4 GT PUSH2 0x1828 JUMPI DUP3 SWAP1 SUB PUSH1 0x1F AND DUP3 ADD SWAP2 JUMPDEST POP POP POP POP POP SWAP1 POP SWAP1 JUMP JUMPDEST PUSH1 0x60 PUSH1 0xA0 PUSH1 0x40 MLOAD ADD DUP1 PUSH1 0x40 MSTORE PUSH1 0x20 DUP2 SUB SWAP2 POP PUSH0 DUP3 MSTORE DUP2 DUP4 JUMPDEST PUSH1 0x1 ISZERO PUSH2 0x1889 JUMPI PUSH1 0x1 DUP5 SUB SWAP4 POP PUSH1 0xA DUP2 MOD PUSH1 0x30 ADD DUP5 MSTORE8 PUSH1 0xA DUP2 DIV SWAP1 POP DUP1 PUSH2 0x1867 JUMPI JUMPDEST POP DUP3 DUP2 SUB PUSH1 0x20 DUP5 SUB SWAP4 POP DUP1 DUP5 MSTORE POP POP POP SWAP2 SWAP1 POP JUMP JUMPDEST PUSH2 0x18A8 DUP2 PUSH0 PUSH2 0x1972 JUMP JUMPDEST POP JUMP JUMPDEST PUSH0 PUSH29 0x100000000000000000000000000000000000000000000000000000000 DUP3 AND PUSH20 0xFFFFFFFFFFFFFFFFFFFFFFFFFFFFFFFFFFFFFFFF DUP4 AND GT SWAP1 POP SWAP2 SWAP1 POP JUMP JUMPDEST PUSH0 SWAP4 SWAP3 POP POP POP JUMP JUMPDEST PUSH0 CALLER SWAP1 POP SWAP1 JUMP JUMPDEST PUSH2 0x1904 DUP4 DUP4 PUSH2 0x1B8E JUMP JUMPDEST PUSH0 DUP4 PUSH20 0xFFFFFFFFFFFFFFFFFFFFFFFFFFFFFFFFFFFFFFFF AND EXTCODESIZE EQ PUSH2 0x196D JUMPI PUSH0 PUSH1 0x1 SLOAD SWAP1 POP PUSH0 DUP4 DUP3 SUB SWAP1 POP JUMPDEST PUSH2 0x1941 PUSH0 DUP7 DUP4 DUP1 PUSH1 0x1 ADD SWAP5 POP DUP7 PUSH2 0x1695 JUMP JUMPDEST PUSH2 0x1956 JUMPI PUSH2 0x1955 PUSH4 0xD1A57ED6 PUSH1 0xE0 SHL PUSH2 0x11E9 JUMP JUMPDEST JUMPDEST DUP2 DUP2 LT PUSH2 0x192F JUMPI DUP2 PUSH1 0x1 SLOAD EQ PUSH2 0x196A JUMPI PUSH0 DUP1 REVERT JUMPDEST POP POP JUMPDEST POP POP POP JUMP JUMPDEST PUSH0 PUSH2 0x197C DUP4 PUSH2 0x1356 JUMP JUMPDEST SWAP1 POP PUSH0 DUP2 SWAP1 POP PUSH0 DUP1 PUSH2 0x198D DUP7 PUSH2 0x1466 JUMP JUMPDEST SWAP2 POP SWAP2 POP DUP5 ISZERO PUSH2 0x19D5 JUMPI PUSH2 0x19A9 DUP2 DUP5 PUSH2 0x19A4 PUSH2 0x1489 JUMP JUMPDEST PUSH2 0x1490 JUMP JUMPDEST PUSH2 0x19D4 JUMPI PUSH2 0x19BE DUP4 PUSH2 0x19B9 PUSH2 0x1489 JUMP JUMPDEST PUSH2 0xF25 JUMP JUMPDEST PUSH2 0x19D3 JUMPI PUSH2 0x19D2 PUSH4 0x59C896BE PUSH1 0xE0 SHL PUSH2 0x11E9 JUMP JUMPDEST JUMPDEST JUMPDEST JUMPDEST PUSH2 0x19E2 DUP4 PUSH0 DUP9 PUSH1 0x1 PUSH2 0x14D3 JUMP JUMPDEST DUP1 ISZERO PUSH2 0x19EC JUMPI PUSH0 DUP3 SSTORE JUMPDEST PUSH1 0x1 PUSH1 0x80 PUSH1 0x1 SWAP1 SHL SUB PUSH1 0x6 PUSH0 DUP6 PUSH20 0xFFFFFFFFFFFFFFFFFFFFFFFFFFFFFFFFFFFFFFFF AND PUSH20 0xFFFFFFFFFFFFFFFFFFFFFFFFFFFFFFFFFFFFFFFF AND DUP2 MSTORE PUSH1 0x20 ADD SWAP1 DUP2 MSTORE PUSH1 0x20 ADD PUSH0 KECCAK256 PUSH0 DUP3 DUP3 SLOAD ADD SWAP3 POP POP DUP2 SWAP1 SSTORE POP PUSH2 0x1A90 DUP4 PUSH2 0x1A4D DUP6 PUSH0 DUP9 PUSH2 0x14D9 JUMP JUMPDEST PUSH29 0x200000000000000000000000000000000000000000000000000000000 PUSH29 0x100000000000000000000000000000000000000000000000000000000 OR OR PUSH2 0x1500 JUMP JUMPDEST PUSH1 0x5 PUSH0 DUP9 DUP2 MSTORE PUSH1 0x20 ADD SWAP1 DUP2 MSTORE PUSH1 0x20 ADD PUSH0 KECCAK256 DUP2 SWAP1 SSTORE POP PUSH0 PUSH29 0x200000000000000000000000000000000000000000000000000000000 DUP6 AND SUB PUSH2 0x1B0D JUMPI PUSH0 PUSH1 0x1 DUP8 ADD SWAP1 POP PUSH0 PUSH1 0x5 PUSH0 DUP4 DUP2 MSTORE PUSH1 0x20 ADD SWAP1 DUP2 MSTORE PUSH1 0x20 ADD PUSH0 KECCAK256 SLOAD SUB PUSH2 0x1B0B JUMPI PUSH1 0x1 SLOAD DUP2 EQ PUSH2 0x1B0A JUMPI DUP5 PUSH1 0x5 PUSH0 DUP4 DUP2 MSTORE PUSH1 0x20 ADD SWAP1 DUP2 MSTORE PUSH1 0x20 ADD PUSH0 KECCAK256 DUP2 SWAP1 SSTORE POP JUMPDEST JUMPDEST POP JUMPDEST DUP6 PUSH0 PUSH20 0xFFFFFFFFFFFFFFFFFFFFFFFFFFFFFFFFFFFFFFFF AND DUP5 PUSH20 0xFFFFFFFFFFFFFFFFFFFFFFFFFFFFFFFFFFFFFFFF AND PUSH32 0xDDF252AD1BE2C89B69C2B068FC378DAA952BA7F163C4A11628F55A4DF523B3EF PUSH1 0x40 MLOAD PUSH1 0x40 MLOAD DUP1 SWAP2 SUB SWAP1 LOG4 PUSH2 0x1B75 DUP4 PUSH0 DUP9 PUSH1 0x1 PUSH2 0x152A JUMP JUMPDEST PUSH1 0x2 PUSH0 DUP2 SLOAD DUP1 SWAP3 SWAP2 SWAP1 PUSH1 0x1 ADD SWAP2 SWAP1 POP SSTORE POP POP POP POP POP POP POP JUMP JUMPDEST PUSH0 PUSH1 0x1 SLOAD SWAP1 POP PUSH0 DUP3 SUB PUSH2 0x1BAC JUMPI PUSH2 0x1BAB PUSH4 0xB562E8DD PUSH1 0xE0 SHL PUSH2 0x11E9 JUMP JUMPDEST JUMPDEST PUSH2 0x1BB8 PUSH0 DUP5 DUP4 DUP6 PUSH2 0x14D3 JUMP JUMPDEST PUSH2 0x1BD6 DUP4 PUSH2 0x1BC7 PUSH0 DUP7 PUSH0 PUSH2 0x14D9 JUMP JUMPDEST PUSH2 0x1BD0 DUP6 PUSH2 0x1D04 JUMP JUMPDEST OR PUSH2 0x1500 JUMP JUMPDEST PUSH1 0x5 PUSH0 DUP4 DUP2 MSTORE PUSH1 0x20 ADD SWAP1 DUP2 MSTORE PUSH1 0x20 ADD PUSH0 KECCAK256 DUP2 SWAP1 SSTORE POP PUSH1 0x1 PUSH1 0x40 PUSH1 0x1 SWAP1 SHL OR DUP3 MUL PUSH1 0x6 PUSH0 DUP6 PUSH20 0xFFFFFFFFFFFFFFFFFFFFFFFFFFFFFFFFFFFFFFFF AND PUSH20 0xFFFFFFFFFFFFFFFFFFFFFFFFFFFFFFFFFFFFFFFF AND DUP2 MSTORE PUSH1 0x20 ADD SWAP1 DUP2 MSTORE PUSH1 0x20 ADD PUSH0 KECCAK256 PUSH0 DUP3 DUP3 SLOAD ADD SWAP3 POP POP DUP2 SWAP1 SSTORE POP PUSH0 PUSH20 0xFFFFFFFFFFFFFFFFFFFFFFFFFFFFFFFFFFFFFFFF DUP5 PUSH20 0xFFFFFFFFFFFFFFFFFFFFFFFFFFFFFFFFFFFFFFFF AND AND SWAP1 POP PUSH0 DUP2 SUB PUSH2 0x1C87 JUMPI PUSH2 0x1C86 PUSH4 0x2E076300 PUSH1 0xE0 SHL PUSH2 0x11E9 JUMP JUMPDEST JUMPDEST PUSH0 DUP4 DUP4 ADD SWAP1 POP PUSH0 DUP4 SWAP1 POP PUSH2 0x1C99 PUSH2 0x132F JUMP JUMPDEST PUSH1 0x1 DUP4 SUB GT ISZERO PUSH2 0x1CB4 JUMPI PUSH2 0x1CB3 PUSH4 0x81647E3A PUSH1 0xE0 SHL PUSH2 0x11E9 JUMP JUMPDEST JUMPDEST JUMPDEST DUP1 DUP4 PUSH0 PUSH32 0xDDF252AD1BE2C89B69C2B068FC378DAA952BA7F163C4A11628F55A4DF523B3EF PUSH0 DUP1 LOG4 DUP2 DUP2 PUSH1 0x1 ADD SWAP2 POP DUP2 SUB PUSH2 0x1CB5 JUMPI DUP2 PUSH1 0x1 DUP2 SWAP1 SSTORE POP POP POP POP PUSH2 0x1CFF PUSH0 DUP5 DUP4 DUP6 PUSH2 0x152A JUMP JUMPDEST POP POP POP JUMP JUMPDEST PUSH0 PUSH1 0x1 DUP3 EQ PUSH1 0xE1 SHL SWAP1 POP SWAP2 SWAP1 POP JUMP JUMPDEST PUSH0 PUSH1 0x40 MLOAD SWAP1 POP SWAP1 JUMP JUMPDEST PUSH0 DUP1 REVERT JUMPDEST PUSH0 DUP1 REVERT JUMPDEST PUSH0 PUSH32 0xFFFFFFFF00000000000000000000000000000000000000000000000000000000 DUP3 AND SWAP1 POP SWAP2 SWAP1 POP JUMP JUMPDEST PUSH2 0x1D58 DUP2 PUSH2 0x1D24 JUMP JUMPDEST DUP2 EQ PUSH2 0x1D62 JUMPI PUSH0 DUP1 REVERT JUMPDEST POP JUMP JUMPDEST PUSH0 DUP2 CALLDATALOAD SWAP1 POP PUSH2 0x1D73 DUP2 PUSH2 0x1D4F JUMP JUMPDEST SWAP3 SWAP2 POP POP JUMP JUMPDEST PUSH0 PUSH1 0x20 DUP3 DUP5 SUB SLT ISZERO PUSH2 0x1D8E JUMPI PUSH2 0x1D8D PUSH2 0x1D1C JUMP JUMPDEST JUMPDEST PUSH0 PUSH2 0x1D9B DUP5 DUP3 DUP6 ADD PUSH2 0x1D65 JUMP JUMPDEST SWAP2 POP POP SWAP3 SWAP2 POP POP JUMP JUMPDEST PUSH0 DUP2 ISZERO ISZERO SWAP1 POP SWAP2 SWAP1 POP JUMP JUMPDEST PUSH2 0x1DB8 DUP2 PUSH2 0x1DA4 JUMP JUMPDEST DUP3 MSTORE POP POP JUMP JUMPDEST PUSH0 PUSH1 0x20 DUP3 ADD SWAP1 POP PUSH2 0x1DD1 PUSH0 DUP4 ADD DUP5 PUSH2 0x1DAF JUMP JUMPDEST SWAP3 SWAP2 POP POP JUMP JUMPDEST PUSH0 DUP2 MLOAD SWAP1 POP SWAP2 SWAP1 POP JUMP JUMPDEST PUSH0 DUP3 DUP3 MSTORE PUSH1 0x20 DUP3 ADD SWAP1 POP SWAP3 SWAP2 POP POP JUMP JUMPDEST PUSH0 JUMPDEST DUP4 DUP2 LT ISZERO PUSH2 0x1E0E JUMPI DUP1 DUP3 ADD MLOAD DUP2 DUP5 ADD MSTORE PUSH1 0x20 DUP2 ADD SWAP1 POP PUSH2 0x1DF3 JUMP JUMPDEST PUSH0 DUP5 DUP5 ADD MSTORE POP POP POP POP JUMP JUMPDEST PUSH0 PUSH1 0x1F NOT PUSH1 0x1F DUP4 ADD AND SWAP1 POP SWAP2 SWAP1 POP JUMP JUMPDEST PUSH0 PUSH2 0x1E33 DUP3 PUSH2 0x1DD7 JUMP JUMPDEST PUSH2 0x1E3D DUP2 DUP6 PUSH2 0x1DE1 JUMP JUMPDEST SWAP4 POP PUSH2 0x1E4D DUP2 DUP6 PUSH1 0x20 DUP7 ADD PUSH2 0x1DF1 JUMP JUMPDEST PUSH2 0x1E56 DUP2 PUSH2 0x1E19 JUMP JUMPDEST DUP5 ADD SWAP2 POP POP SWAP3 SWAP2 POP POP JUMP JUMPDEST PUSH0 PUSH1 0x20 DUP3 ADD SWAP1 POP DUP2 DUP2 SUB PUSH0 DUP4 ADD MSTORE PUSH2 0x1E79 DUP2 DUP5 PUSH2 0x1E29 JUMP JUMPDEST SWAP1 POP SWAP3 SWAP2 POP POP JUMP JUMPDEST PUSH0 DUP2 SWAP1 POP SWAP2 SWAP1 POP JUMP JUMPDEST PUSH2 0x1E93 DUP2 PUSH2 0x1E81 JUMP JUMPDEST DUP2 EQ PUSH2 0x1E9D JUMPI PUSH0 DUP1 REVERT JUMPDEST POP JUMP JUMPDEST PUSH0 DUP2 CALLDATALOAD SWAP1 POP PUSH2 0x1EAE DUP2 PUSH2 0x1E8A JUMP JUMPDEST SWAP3 SWAP2 POP POP JUMP JUMPDEST PUSH0 PUSH1 0x20 DUP3 DUP5 SUB SLT ISZERO PUSH2 0x1EC9 JUMPI PUSH2 0x1EC8 PUSH2 0x1D1C JUMP JUMPDEST JUMPDEST PUSH0 PUSH2 0x1ED6 DUP5 DUP3 DUP6 ADD PUSH2 0x1EA0 JUMP JUMPDEST SWAP2 POP POP SWAP3 SWAP2 POP POP JUMP JUMPDEST PUSH0 PUSH20 0xFFFFFFFFFFFFFFFFFFFFFFFFFFFFFFFFFFFFFFFF DUP3 AND SWAP1 POP SWAP2 SWAP1 POP JUMP JUMPDEST PUSH0 PUSH2 0x1F08 DUP3 PUSH2 0x1EDF JUMP JUMPDEST SWAP1 POP SWAP2 SWAP1 POP JUMP JUMPDEST PUSH2 0x1F18 DUP2 PUSH2 0x1EFE JUMP JUMPDEST DUP3 MSTORE POP POP JUMP JUMPDEST PUSH0 PUSH1 0x20 DUP3 ADD SWAP1 POP PUSH2 0x1F31 PUSH0 DUP4 ADD DUP5 PUSH2 0x1F0F JUMP JUMPDEST SWAP3 SWAP2 POP POP JUMP JUMPDEST PUSH2 0x1F40 DUP2 PUSH2 0x1EFE JUMP JUMPDEST DUP2 EQ PUSH2 0x1F4A JUMPI PUSH0 DUP1 REVERT JUMPDEST POP JUMP JUMPDEST PUSH0 DUP2 CALLDATALOAD SWAP1 POP PUSH2 0x1F5B DUP2 PUSH2 0x1F37 JUMP JUMPDEST SWAP3 SWAP2 POP POP JUMP JUMPDEST PUSH0 DUP1 PUSH1 0x40 DUP4 DUP6 SUB SLT ISZERO PUSH2 0x1F77 JUMPI PUSH2 0x1F76 PUSH2 0x1D1C JUMP JUMPDEST JUMPDEST PUSH0 PUSH2 0x1F84 DUP6 DUP3 DUP7 ADD PUSH2 0x1F4D JUMP JUMPDEST SWAP3 POP POP PUSH1 0x20 PUSH2 0x1F95 DUP6 DUP3 DUP7 ADD PUSH2 0x1EA0 JUMP JUMPDEST SWAP2 POP POP SWAP3 POP SWAP3 SWAP1 POP JUMP JUMPDEST PUSH2 0x1FA8 DUP2 PUSH2 0x1E81 JUMP JUMPDEST DUP3 MSTORE POP POP JUMP JUMPDEST PUSH0 PUSH1 0x20 DUP3 ADD SWAP1 POP PUSH2 0x1FC1 PUSH0 DUP4 ADD DUP5 PUSH2 0x1F9F JUMP JUMPDEST SWAP3 SWAP2 POP POP JUMP JUMPDEST PUSH0 DUP1 PUSH0 PUSH1 0x60 DUP5 DUP7 SUB SLT ISZERO PUSH2 0x1FDE JUMPI PUSH2 0x1FDD PUSH2 0x1D1C JUMP JUMPDEST JUMPDEST PUSH0 PUSH2 0x1FEB DUP7 DUP3 DUP8 ADD PUSH2 0x1F4D JUMP JUMPDEST SWAP4 POP POP PUSH1 0x20 PUSH2 0x1FFC DUP7 DUP3 DUP8 ADD PUSH2 0x1F4D JUMP JUMPDEST SWAP3 POP POP PUSH1 0x40 PUSH2 0x200D DUP7 DUP3 DUP8 ADD PUSH2 0x1EA0 JUMP JUMPDEST SWAP2 POP POP SWAP3 POP SWAP3 POP SWAP3 JUMP JUMPDEST PUSH0 DUP1 REVERT JUMPDEST PUSH0 DUP1 REVERT JUMPDEST PUSH0 DUP1 REVERT JUMPDEST PUSH0 DUP1 DUP4 PUSH1 0x1F DUP5 ADD SLT PUSH2 0x2038 JUMPI PUSH2 0x2037 PUSH2 0x2017 JUMP JUMPDEST JUMPDEST DUP3 CALLDATALOAD SWAP1 POP PUSH8 0xFFFFFFFFFFFFFFFF DUP2 GT ISZERO PUSH2 0x2055 JUMPI PUSH2 0x2054 PUSH2 0x201B JUMP JUMPDEST JUMPDEST PUSH1 0x20 DUP4 ADD SWAP2 POP DUP4 PUSH1 0x1 DUP3 MUL DUP4 ADD GT ISZERO PUSH2 0x2071 JUMPI PUSH2 0x2070 PUSH2 0x201F JUMP JUMPDEST JUMPDEST SWAP3 POP SWAP3 SWAP1 POP JUMP JUMPDEST PUSH0 DUP1 PUSH1 0x20 DUP4 DUP6 SUB SLT ISZERO PUSH2 0x208E JUMPI PUSH2 0x208D PUSH2 0x1D1C JUMP JUMPDEST JUMPDEST PUSH0 DUP4 ADD CALLDATALOAD PUSH8 0xFFFFFFFFFFFFFFFF DUP2 GT ISZERO PUSH2 0x20AB JUMPI PUSH2 0x20AA PUSH2 0x1D20 JUMP JUMPDEST JUMPDEST PUSH2 0x20B7 DUP6 DUP3 DUP7 ADD PUSH2 0x2023 JUMP JUMPDEST SWAP3 POP SWAP3 POP POP SWAP3 POP SWAP3 SWAP1 POP JUMP JUMPDEST PUSH0 PUSH1 0x20 DUP3 DUP5 SUB SLT ISZERO PUSH2 0x20D8 JUMPI PUSH2 0x20D7 PUSH2 0x1D1C JUMP JUMPDEST JUMPDEST PUSH0 PUSH2 0x20E5 DUP5 DUP3 DUP6 ADD PUSH2 0x1F4D JUMP JUMPDEST SWAP2 POP POP SWAP3 SWAP2 POP POP JUMP JUMPDEST PUSH2 0x20F7 DUP2 PUSH2 0x1DA4 JUMP JUMPDEST DUP2 EQ PUSH2 0x2101 JUMPI PUSH0 DUP1 REVERT JUMPDEST POP JUMP JUMPDEST PUSH0 DUP2 CALLDATALOAD SWAP1 POP PUSH2 0x2112 DUP2 PUSH2 0x20EE JUMP JUMPDEST SWAP3 SWAP2 POP POP JUMP JUMPDEST PUSH0 DUP1 PUSH1 0x40 DUP4 DUP6 SUB SLT ISZERO PUSH2 0x212E JUMPI PUSH2 0x212D PUSH2 0x1D1C JUMP JUMPDEST JUMPDEST PUSH0 PUSH2 0x213B DUP6 DUP3 DUP7 ADD PUSH2 0x1F4D JUMP JUMPDEST SWAP3 POP POP PUSH1 0x20 PUSH2 0x214C DUP6 DUP3 DUP7 ADD PUSH2 0x2104 JUMP JUMPDEST SWAP2 POP POP SWAP3 POP SWAP3 SWAP1 POP JUMP JUMPDEST PUSH0 DUP1 REVERT JUMPDEST PUSH32 0x4E487B7100000000000000000000000000000000000000000000000000000000 PUSH0 MSTORE PUSH1 0x41 PUSH1 0x4 MSTORE PUSH1 0x24 PUSH0 REVERT JUMPDEST PUSH2 0x2190 DUP3 PUSH2 0x1E19 JUMP JUMPDEST DUP2 ADD DUP2 DUP2 LT PUSH8 0xFFFFFFFFFFFFFFFF DUP3 GT OR ISZERO PUSH2 0x21AF JUMPI PUSH2 0x21AE PUSH2 0x215A JUMP JUMPDEST JUMPDEST DUP1 PUSH1 0x40 MSTORE POP POP POP JUMP JUMPDEST PUSH0 PUSH2 0x21C1 PUSH2 0x1D13 JUMP JUMPDEST SWAP1 POP PUSH2 0x21CD DUP3 DUP3 PUSH2 0x2187 JUMP JUMPDEST SWAP2 SWAP1 POP JUMP JUMPDEST PUSH0 PUSH8 0xFFFFFFFFFFFFFFFF DUP3 GT ISZERO PUSH2 0x21EC JUMPI PUSH2 0x21EB PUSH2 0x215A JUMP JUMPDEST JUMPDEST PUSH2 0x21F5 DUP3 PUSH2 0x1E19 JUMP JUMPDEST SWAP1 POP PUSH1 0x20 DUP2 ADD SWAP1 POP SWAP2 SWAP1 POP JUMP JUMPDEST DUP3 DUP2 DUP4 CALLDATACOPY PUSH0 DUP4 DUP4 ADD MSTORE POP POP POP JUMP JUMPDEST PUSH0 PUSH2 0x2222 PUSH2 0x221D DUP5 PUSH2 0x21D2 JUMP JUMPDEST PUSH2 0x21B8 JUMP JUMPDEST SWAP1 POP DUP3 DUP2 MSTORE PUSH1 0x20 DUP2 ADD DUP5 DUP5 DUP5 ADD GT ISZERO PUSH2 0x223E JUMPI PUSH2 0x223D PUSH2 0x2156 JUMP JUMPDEST JUMPDEST PUSH2 0x2249 DUP5 DUP3 DUP6 PUSH2 0x2202 JUMP JUMPDEST POP SWAP4 SWAP3 POP POP POP JUMP JUMPDEST PUSH0 DUP3 PUSH1 0x1F DUP4 ADD SLT PUSH2 0x2265 JUMPI PUSH2 0x2264 PUSH2 0x2017 JUMP JUMPDEST JUMPDEST DUP2 CALLDATALOAD PUSH2 0x2275 DUP5 DUP3 PUSH1 0x20 DUP7 ADD PUSH2 0x2210 JUMP JUMPDEST SWAP2 POP POP SWAP3 SWAP2 POP POP JUMP JUMPDEST PUSH0 DUP1 PUSH0 DUP1 PUSH1 0x80 DUP6 DUP8 SUB SLT ISZERO PUSH2 0x2296 JUMPI PUSH2 0x2295 PUSH2 0x1D1C JUMP JUMPDEST JUMPDEST PUSH0 PUSH2 0x22A3 DUP8 DUP3 DUP9 ADD PUSH2 0x1F4D JUMP JUMPDEST SWAP5 POP POP PUSH1 0x20 PUSH2 0x22B4 DUP8 DUP3 DUP9 ADD PUSH2 0x1F4D JUMP JUMPDEST SWAP4 POP POP PUSH1 0x40 PUSH2 0x22C5 DUP8 DUP3 DUP9 ADD PUSH2 0x1EA0 JUMP JUMPDEST SWAP3 POP POP PUSH1 0x60 DUP6 ADD CALLDATALOAD PUSH8 0xFFFFFFFFFFFFFFFF DUP2 GT ISZERO PUSH2 0x22E6 JUMPI PUSH2 0x22E5 PUSH2 0x1D20 JUMP JUMPDEST JUMPDEST PUSH2 0x22F2 DUP8 DUP3 DUP9 ADD PUSH2 0x2251 JUMP JUMPDEST SWAP2 POP POP SWAP3 SWAP6 SWAP2 SWAP5 POP SWAP3 POP JUMP JUMPDEST PUSH0 DUP1 PUSH1 0x40 DUP4 DUP6 SUB SLT ISZERO PUSH2 0x2314 JUMPI PUSH2 0x2313 PUSH2 0x1D1C JUMP JUMPDEST JUMPDEST PUSH0 PUSH2 0x2321 DUP6 DUP3 DUP7 ADD PUSH2 0x1F4D JUMP JUMPDEST SWAP3 POP POP PUSH1 0x20 PUSH2 0x2332 DUP6 DUP3 DUP7 ADD PUSH2 0x1F4D JUMP JUMPDEST SWAP2 POP POP SWAP3 POP SWAP3 SWAP1 POP JUMP JUMPDEST PUSH0 PUSH8 0xFFFFFFFFFFFFFFFF DUP3 GT ISZERO PUSH2 0x2356 JUMPI PUSH2 0x2355 PUSH2 0x215A JUMP JUMPDEST JUMPDEST PUSH1 0x20 DUP3 MUL SWAP1 POP PUSH1 0x20 DUP2 ADD SWAP1 POP SWAP2 SWAP1 POP JUMP JUMPDEST PUSH0 PUSH2 0x2379 PUSH2 0x2374 DUP5 PUSH2 0x233C JUMP JUMPDEST PUSH2 0x21B8 JUMP JUMPDEST SWAP1 POP DUP1 DUP4 DUP3 MSTORE PUSH1 0x20 DUP3 ADD SWAP1 POP PUSH1 0x20 DUP5 MUL DUP4 ADD DUP6 DUP2 GT ISZERO PUSH2 0x239C JUMPI PUSH2 0x239B PUSH2 0x201F JUMP JUMPDEST JUMPDEST DUP4 JUMPDEST DUP2 DUP2 LT ISZERO PUSH2 0x23C5 JUMPI DUP1 PUSH2 0x23B1 DUP9 DUP3 PUSH2 0x1EA0 JUMP JUMPDEST DUP5 MSTORE PUSH1 0x20 DUP5 ADD SWAP4 POP POP PUSH1 0x20 DUP2 ADD SWAP1 POP PUSH2 0x239E JUMP JUMPDEST POP POP POP SWAP4 SWAP3 POP POP POP JUMP JUMPDEST PUSH0 DUP3 PUSH1 0x1F DUP4 ADD SLT PUSH2 0x23E3 JUMPI PUSH2 0x23E2 PUSH2 0x2017 JUMP JUMPDEST JUMPDEST DUP2 CALLDATALOAD PUSH2 0x23F3 DUP5 DUP3 PUSH1 0x20 DUP7 ADD PUSH2 0x2367 JUMP JUMPDEST SWAP2 POP POP SWAP3 SWAP2 POP POP JUMP JUMPDEST PUSH0 DUP1 PUSH1 0x40 DUP4 DUP6 SUB SLT ISZERO PUSH2 0x2412 JUMPI PUSH2 0x2411 PUSH2 0x1D1C JUMP JUMPDEST JUMPDEST PUSH0 DUP4 ADD CALLDATALOAD PUSH8 0xFFFFFFFFFFFFFFFF DUP2 GT ISZERO PUSH2 0x242F JUMPI PUSH2 0x242E PUSH2 0x1D20 JUMP JUMPDEST JUMPDEST PUSH2 0x243B DUP6 DUP3 DUP7 ADD PUSH2 0x23CF JUMP JUMPDEST SWAP3 POP POP PUSH1 0x20 PUSH2 0x244C DUP6 DUP3 DUP7 ADD PUSH2 0x1F4D JUMP JUMPDEST SWAP2 POP POP SWAP3 POP SWAP3 SWAP1 POP JUMP JUMPDEST PUSH32 0x4E487B7100000000000000000000000000000000000000000000000000000000 PUSH0 MSTORE PUSH1 0x22 PUSH1 0x4 MSTORE PUSH1 0x24 PUSH0 REVERT JUMPDEST PUSH0 PUSH1 0x2 DUP3 DIV SWAP1 POP PUSH1 0x1 DUP3 AND DUP1 PUSH2 0x249A JUMPI PUSH1 0x7F DUP3 AND SWAP2 POP JUMPDEST PUSH1 0x20 DUP3 LT DUP2 SUB PUSH2 0x24AD JUMPI PUSH2 0x24AC PUSH2 0x2456 JUMP JUMPDEST JUMPDEST POP SWAP2 SWAP1 POP JUMP JUMPDEST PUSH0 DUP3 SWAP1 POP SWAP3 SWAP2 POP POP JUMP JUMPDEST PUSH0 DUP2 SWAP1 POP DUP2 PUSH0 MSTORE PUSH1 0x20 PUSH0 KECCAK256 SWAP1 POP SWAP2 SWAP1 POP JUMP JUMPDEST PUSH0 PUSH1 0x20 PUSH1 0x1F DUP4 ADD DIV SWAP1 POP SWAP2 SWAP1 POP JUMP JUMPDEST PUSH0 DUP3 DUP3 SHL SWAP1 POP SWAP3 SWAP2 POP POP JUMP JUMPDEST PUSH0 PUSH1 0x8 DUP4 MUL PUSH2 0x2519 PUSH32 0xFFFFFFFFFFFFFFFFFFFFFFFFFFFFFFFFFFFFFFFFFFFFFFFFFFFFFFFFFFFFFFFF DUP3 PUSH2 0x24DE JUMP JUMPDEST PUSH2 0x2523 DUP7 DUP4 PUSH2 0x24DE JUMP JUMPDEST SWAP6 POP DUP1 NOT DUP5 AND SWAP4 POP DUP1 DUP7 AND DUP5 OR SWAP3 POP POP POP SWAP4 SWAP3 POP POP POP JUMP JUMPDEST PUSH0 DUP2 SWAP1 POP SWAP2 SWAP1 POP JUMP JUMPDEST PUSH0 PUSH2 0x255E PUSH2 0x2559 PUSH2 0x2554 DUP5 PUSH2 0x1E81 JUMP JUMPDEST PUSH2 0x253B JUMP JUMPDEST PUSH2 0x1E81 JUMP JUMPDEST SWAP1 POP SWAP2 SWAP1 POP JUMP JUMPDEST PUSH0 DUP2 SWAP1 POP SWAP2 SWAP1 POP JUMP JUMPDEST PUSH2 0x2577 DUP4 PUSH2 0x2544 JUMP JUMPDEST PUSH2 0x258B PUSH2 0x2583 DUP3 PUSH2 0x2565 JUMP JUMPDEST DUP5 DUP5 SLOAD PUSH2 0x24EA JUMP JUMPDEST DUP3 SSTORE POP POP POP POP JUMP JUMPDEST PUSH0 SWAP1 JUMP JUMPDEST PUSH2 0x259F PUSH2 0x2593 JUMP JUMPDEST PUSH2 0x25AA DUP2 DUP5 DUP5 PUSH2 0x256E JUMP JUMPDEST POP POP POP JUMP JUMPDEST JUMPDEST DUP2 DUP2 LT ISZERO PUSH2 0x25CD JUMPI PUSH2 0x25C2 PUSH0 DUP3 PUSH2 0x2597 JUMP JUMPDEST PUSH1 0x1 DUP2 ADD SWAP1 POP PUSH2 0x25B0 JUMP JUMPDEST POP POP JUMP JUMPDEST PUSH1 0x1F DUP3 GT ISZERO PUSH2 0x2612 JUMPI PUSH2 0x25E3 DUP2 PUSH2 0x24BD JUMP JUMPDEST PUSH2 0x25EC DUP5 PUSH2 0x24CF JUMP JUMPDEST DUP2 ADD PUSH1 0x20 DUP6 LT ISZERO PUSH2 0x25FB JUMPI DUP2 SWAP1 POP JUMPDEST PUSH2 0x260F PUSH2 0x2607 DUP6 PUSH2 0x24CF JUMP JUMPDEST DUP4 ADD DUP3 PUSH2 0x25AF JUMP JUMPDEST POP POP JUMPDEST POP POP POP JUMP JUMPDEST PUSH0 DUP3 DUP3 SHR SWAP1 POP SWAP3 SWAP2 POP POP JUMP JUMPDEST PUSH0 PUSH2 0x2632 PUSH0 NOT DUP5 PUSH1 0x8 MUL PUSH2 0x2617 JUMP JUMPDEST NOT DUP1 DUP4 AND SWAP2 POP POP SWAP3 SWAP2 POP POP JUMP JUMPDEST PUSH0 PUSH2 0x264A DUP4 DUP4 PUSH2 0x2623 JUMP JUMPDEST SWAP2 POP DUP3 PUSH1 0x2 MUL DUP3 OR SWAP1 POP SWAP3 SWAP2 POP POP JUMP JUMPDEST PUSH2 0x2664 DUP4 DUP4 PUSH2 0x24B3 JUMP JUMPDEST PUSH8 0xFFFFFFFFFFFFFFFF DUP2 GT ISZERO PUSH2 0x267D JUMPI PUSH2 0x267C PUSH2 0x215A JUMP JUMPDEST JUMPDEST PUSH2 0x2687 DUP3 SLOAD PUSH2 0x2483 JUMP JUMPDEST PUSH2 0x2692 DUP3 DUP3 DUP6 PUSH2 0x25D1 JUMP JUMPDEST PUSH0 PUSH1 0x1F DUP4 GT PUSH1 0x1 DUP2 EQ PUSH2 0x26BF JUMPI PUSH0 DUP5 ISZERO PUSH2 0x26AD JUMPI DUP3 DUP8 ADD CALLDATALOAD SWAP1 POP JUMPDEST PUSH2 0x26B7 DUP6 DUP3 PUSH2 0x263F JUMP JUMPDEST DUP7 SSTORE POP PUSH2 0x271E JUMP JUMPDEST PUSH1 0x1F NOT DUP5 AND PUSH2 0x26CD DUP7 PUSH2 0x24BD JUMP JUMPDEST PUSH0 JUMPDEST DUP3 DUP2 LT ISZERO PUSH2 0x26F4 JUMPI DUP5 DUP10 ADD CALLDATALOAD DUP3 SSTORE PUSH1 0x1 DUP3 ADD SWAP2 POP PUSH1 0x20 DUP6 ADD SWAP5 POP PUSH1 0x20 DUP2 ADD SWAP1 POP PUSH2 0x26CF JUMP JUMPDEST DUP7 DUP4 LT ISZERO PUSH2 0x2711 JUMPI DUP5 DUP10 ADD CALLDATALOAD PUSH2 0x270D PUSH1 0x1F DUP10 AND DUP3 PUSH2 0x2623 JUMP JUMPDEST DUP4 SSTORE POP JUMPDEST PUSH1 0x1 PUSH1 0x2 DUP9 MUL ADD DUP9 SSTORE POP POP POP JUMPDEST POP POP POP POP POP POP POP JUMP JUMPDEST PUSH32 0x6E66746964206578697374212121000000000000000000000000000000000000 PUSH0 DUP3 ADD MSTORE POP JUMP JUMPDEST PUSH0 PUSH2 0x275B PUSH1 0xE DUP4 PUSH2 0x1DE1 JUMP JUMPDEST SWAP2 POP PUSH2 0x2766 DUP3 PUSH2 0x2727 JUMP JUMPDEST PUSH1 0x20 DUP3 ADD SWAP1 POP SWAP2 SWAP1 POP JUMP JUMPDEST PUSH0 PUSH1 0x20 DUP3 ADD SWAP1 POP DUP2 DUP2 SUB PUSH0 DUP4 ADD MSTORE PUSH2 0x2788 DUP2 PUSH2 0x274F JUMP JUMPDEST SWAP1 POP SWAP2 SWAP1 POP JUMP JUMPDEST PUSH0 DUP2 SWAP1 POP SWAP3 SWAP2 POP POP JUMP JUMPDEST PUSH0 PUSH2 0x27A3 DUP3 PUSH2 0x1DD7 JUMP JUMPDEST PUSH2 0x27AD DUP2 DUP6 PUSH2 0x278F JUMP JUMPDEST SWAP4 POP PUSH2 0x27BD DUP2 DUP6 PUSH1 0x20 DUP7 ADD PUSH2 0x1DF1 JUMP JUMPDEST DUP1 DUP5 ADD SWAP2 POP POP SWAP3 SWAP2 POP POP JUMP JUMPDEST PUSH0 PUSH2 0x27D4 DUP3 DUP6 PUSH2 0x2799 JUMP JUMPDEST SWAP2 POP PUSH2 0x27E0 DUP3 DUP5 PUSH2 0x2799 JUMP JUMPDEST SWAP2 POP DUP2 SWAP1 POP SWAP4 SWAP3 POP POP POP JUMP JUMPDEST PUSH32 0x4E487B7100000000000000000000000000000000000000000000000000000000 PUSH0 MSTORE PUSH1 0x32 PUSH1 0x4 MSTORE PUSH1 0x24 PUSH0 REVERT JUMPDEST PUSH32 0x4E487B7100000000000000000000000000000000000000000000000000000000 PUSH0 MSTORE PUSH1 0x11 PUSH1 0x4 MSTORE PUSH1 0x24 PUSH0 REVERT JUMPDEST PUSH0 PUSH2 0x2850 DUP3 PUSH2 0x1E81 JUMP JUMPDEST SWAP2 POP PUSH32 0xFFFFFFFFFFFFFFFFFFFFFFFFFFFFFFFFFFFFFFFFFFFFFFFFFFFFFFFFFFFFFFFF DUP3 SUB PUSH2 0x2882 JUMPI PUSH2 0x2881 PUSH2 0x2819 JUMP JUMPDEST JUMPDEST PUSH1 0x1 DUP3 ADD SWAP1 POP SWAP2 SWAP1 POP JUMP JUMPDEST PUSH0 PUSH2 0x2897 DUP3 PUSH2 0x1E81 JUMP JUMPDEST SWAP2 POP PUSH0 DUP3 SUB PUSH2 0x28A9 JUMPI PUSH2 0x28A8 PUSH2 0x2819 JUMP JUMPDEST JUMPDEST PUSH1 0x1 DUP3 SUB SWAP1 POP SWAP2 SWAP1 POP JUMP JUMPDEST PUSH0 DUP2 MLOAD SWAP1 POP SWAP2 SWAP1 POP JUMP JUMPDEST PUSH0 DUP3 DUP3 MSTORE PUSH1 0x20 DUP3 ADD SWAP1 POP SWAP3 SWAP2 POP POP JUMP JUMPDEST PUSH0 PUSH2 0x28D8 DUP3 PUSH2 0x28B4 JUMP JUMPDEST PUSH2 0x28E2 DUP2 DUP6 PUSH2 0x28BE JUMP JUMPDEST SWAP4 POP PUSH2 0x28F2 DUP2 DUP6 PUSH1 0x20 DUP7 ADD PUSH2 0x1DF1 JUMP JUMPDEST PUSH2 0x28FB DUP2 PUSH2 0x1E19 JUMP JUMPDEST DUP5 ADD SWAP2 POP POP SWAP3 SWAP2 POP POP JUMP JUMPDEST PUSH0 PUSH1 0x80 DUP3 ADD SWAP1 POP PUSH2 0x2919 PUSH0 DUP4 ADD DUP8 PUSH2 0x1F0F JUMP JUMPDEST PUSH2 0x2926 PUSH1 0x20 DUP4 ADD DUP7 PUSH2 0x1F0F JUMP JUMPDEST PUSH2 0x2933 PUSH1 0x40 DUP4 ADD DUP6 PUSH2 0x1F9F JUMP JUMPDEST DUP2 DUP2 SUB PUSH1 0x60 DUP4 ADD MSTORE PUSH2 0x2945 DUP2 DUP5 PUSH2 0x28CE JUMP JUMPDEST SWAP1 POP SWAP6 SWAP5 POP POP POP POP POP JUMP JUMPDEST PUSH0 DUP2 MLOAD SWAP1 POP PUSH2 0x295E DUP2 PUSH2 0x1D4F JUMP JUMPDEST SWAP3 SWAP2 POP POP JUMP JUMPDEST PUSH0 PUSH1 0x20 DUP3 DUP5 SUB SLT ISZERO PUSH2 0x2979 JUMPI PUSH2 0x2978 PUSH2 0x1D1C JUMP JUMPDEST JUMPDEST PUSH0 PUSH2 0x2986 DUP5 DUP3 DUP6 ADD PUSH2 0x2950 JUMP JUMPDEST SWAP2 POP POP SWAP3 SWAP2 POP POP JUMP INVALID LOG2 PUSH5 0x6970667358 0x22 SLT KECCAK256 EXTCODECOPY 0xCF 0xD3 0xED 0x5E CALL CALLCODE NOT 0xD9 SHR STATICCALL SELFDESTRUCT SMOD SELFDESTRUCT 0xDE SHR DIV DUP9 0xAA 0xB2 SGT SDIV PUSH3 0x5304B1 DELEGATECALL 0xEE 0x2F PREVRANDAO 0xC1 PUSH11 0x64736F6C63430008140033 "
		},
		"gasEstimates": {
			"creation": {
				"codeDepositCost": "2138600",
				"executionCost": "infinite",
				"totalCost": "infinite"
			},
			"external": {
				"approve(address,uint256)": "infinite",
				"balanceOf(address)": "3003",
				"batchMint(uint256[],address)": "infinite",
				"getApproved(uint256)": "infinite",
				"getCurrentIndex()": "2578",
				"isApprovedForAll(address,address)": "infinite",
				"mint(uint256)": "infinite",
				"name()": "infinite",
				"nftExist(uint256)": "2918",
				"owner()": "2560",
				"ownerOf(uint256)": "infinite",
				"redeem(uint256)": "infinite",
				"renounceOwnership()": "infinite",
				"safeTransferFrom(address,address,uint256)": "infinite",
				"safeTransferFrom(address,address,uint256,bytes)": "infinite",
				"setApprovalForAll(address,bool)": "infinite",
				"setBaseURI(string)": "infinite",
				"supportsInterface(bytes4)": "736",
				"symbol()": "infinite",
				"tokenMapper(uint256)": "infinite",
				"tokenMapper2(uint256)": "infinite",
				"tokenURI(uint256)": "infinite",
				"totalSupply()": "4769",
				"transferFrom(address,address,uint256)": "infinite",
				"transferOwnership(address)": "infinite"
			},
			"internal": {
				"_baseURI()": "infinite",
				"_startTokenId()": "22"
			}
		},
		"methodIdentifiers": {
			"approve(address,uint256)": "095ea7b3",
			"balanceOf(address)": "70a08231",
			"batchMint(uint256[],address)": "eb699f22",
			"getApproved(uint256)": "081812fc",
			"getCurrentIndex()": "0d9005ae",
			"isApprovedForAll(address,address)": "e985e9c5",
			"mint(uint256)": "a0712d68",
			"name()": "06fdde03",
			"nftExist(uint256)": "a65e06e8",
			"owner()": "8da5cb5b",
			"ownerOf(uint256)": "6352211e",
			"redeem(uint256)": "db006a75",
			"renounceOwnership()": "715018a6",
			"safeTransferFrom(address,address,uint256)": "42842e0e",
			"safeTransferFrom(address,address,uint256,bytes)": "b88d4fde",
			"setApprovalForAll(address,bool)": "a22cb465",
			"setBaseURI(string)": "55f804b3",
			"supportsInterface(bytes4)": "01ffc9a7",
			"symbol()": "95d89b41",
			"tokenMapper(uint256)": "b73b99a2",
			"tokenMapper2(uint256)": "51e164b7",
			"tokenURI(uint256)": "c87b56dd",
			"totalSupply()": "18160ddd",
			"transferFrom(address,address,uint256)": "23b872dd",
			"transferOwnership(address)": "f2fde38b"
		}
	},
	"abi": [
		{
			"inputs": [
				{
					"internalType": "string",
					"name": "_uri",
					"type": "string"
				},
				{
					"internalType": "string",
					"name": "_name",
					"type": "string"
				},
				{
					"internalType": "string",
					"name": "_symbol",
					"type": "string"
				}
			],
			"stateMutability": "nonpayable",
			"type": "constructor"
		},
		{
			"inputs": [],
			"name": "ApprovalCallerNotOwnerNorApproved",
			"type": "error"
		},
		{
			"inputs": [],
			"name": "ApprovalQueryForNonexistentToken",
			"type": "error"
		},
		{
			"inputs": [],
			"name": "BalanceQueryForZeroAddress",
			"type": "error"
		},
		{
			"inputs": [],
			"name": "MintERC2309QuantityExceedsLimit",
			"type": "error"
		},
		{
			"inputs": [],
			"name": "MintToZeroAddress",
			"type": "error"
		},
		{
			"inputs": [],
			"name": "MintZeroQuantity",
			"type": "error"
		},
		{
			"inputs": [],
			"name": "NotCompatibleWithSpotMints",
			"type": "error"
		},
		{
			"inputs": [
				{
					"internalType": "address",
					"name": "owner",
					"type": "address"
				}
			],
			"name": "OwnableInvalidOwner",
			"type": "error"
		},
		{
			"inputs": [
				{
					"internalType": "address",
					"name": "account",
					"type": "address"
				}
			],
			"name": "OwnableUnauthorizedAccount",
			"type": "error"
		},
		{
			"inputs": [],
			"name": "OwnerQueryForNonexistentToken",
			"type": "error"
		},
		{
			"inputs": [],
			"name": "OwnershipNotInitializedForExtraData",
			"type": "error"
		},
		{
			"inputs": [],
			"name": "SequentialMintExceedsLimit",
			"type": "error"
		},
		{
			"inputs": [],
			"name": "SequentialUpToTooSmall",
			"type": "error"
		},
		{
			"inputs": [],
			"name": "SpotMintTokenIdTooSmall",
			"type": "error"
		},
		{
			"inputs": [],
			"name": "TokenAlreadyExists",
			"type": "error"
		},
		{
			"inputs": [],
			"name": "TransferCallerNotOwnerNorApproved",
			"type": "error"
		},
		{
			"inputs": [],
			"name": "TransferFromIncorrectOwner",
			"type": "error"
		},
		{
			"inputs": [],
			"name": "TransferToNonERC721ReceiverImplementer",
			"type": "error"
		},
		{
			"inputs": [],
			"name": "TransferToZeroAddress",
			"type": "error"
		},
		{
			"inputs": [],
			"name": "URIQueryForNonexistentToken",
			"type": "error"
		},
		{
			"anonymous": false,
			"inputs": [
				{
					"indexed": true,
					"internalType": "address",
					"name": "owner",
					"type": "address"
				},
				{
					"indexed": true,
					"internalType": "address",
					"name": "approved",
					"type": "address"
				},
				{
					"indexed": true,
					"internalType": "uint256",
					"name": "tokenId",
					"type": "uint256"
				}
			],
			"name": "Approval",
			"type": "event"
		},
		{
			"anonymous": false,
			"inputs": [
				{
					"indexed": true,
					"internalType": "address",
					"name": "owner",
					"type": "address"
				},
				{
					"indexed": true,
					"internalType": "address",
					"name": "operator",
					"type": "address"
				},
				{
					"indexed": false,
					"internalType": "bool",
					"name": "approved",
					"type": "bool"
				}
			],
			"name": "ApprovalForAll",
			"type": "event"
		},
		{
			"anonymous": false,
			"inputs": [
				{
					"indexed": true,
					"internalType": "uint256",
					"name": "fromTokenId",
					"type": "uint256"
				},
				{
					"indexed": false,
					"internalType": "uint256",
					"name": "toTokenId",
					"type": "uint256"
				},
				{
					"indexed": true,
					"internalType": "address",
					"name": "from",
					"type": "address"
				},
				{
					"indexed": true,
					"internalType": "address",
					"name": "to",
					"type": "address"
				}
			],
			"name": "ConsecutiveTransfer",
			"type": "event"
		},
		{
			"anonymous": false,
			"inputs": [
				{
					"indexed": true,
					"internalType": "address",
					"name": "previousOwner",
					"type": "address"
				},
				{
					"indexed": true,
					"internalType": "address",
					"name": "newOwner",
					"type": "address"
				}
			],
			"name": "OwnershipTransferred",
			"type": "event"
		},
		{
			"anonymous": false,
			"inputs": [
				{
					"indexed": true,
					"internalType": "address",
					"name": "from",
					"type": "address"
				},
				{
					"indexed": true,
					"internalType": "address",
					"name": "to",
					"type": "address"
				},
				{
					"indexed": true,
					"internalType": "uint256",
					"name": "tokenId",
					"type": "uint256"
				}
			],
			"name": "Transfer",
			"type": "event"
		},
		{
			"inputs": [
				{
					"internalType": "address",
					"name": "to",
					"type": "address"
				},
				{
					"internalType": "uint256",
					"name": "tokenId",
					"type": "uint256"
				}
			],
			"name": "approve",
			"outputs": [],
			"stateMutability": "payable",
			"type": "function"
		},
		{
			"inputs": [
				{
					"internalType": "address",
					"name": "owner",
					"type": "address"
				}
			],
			"name": "balanceOf",
			"outputs": [
				{
					"internalType": "uint256",
					"name": "",
					"type": "uint256"
				}
			],
			"stateMutability": "view",
			"type": "function"
		},
		{
			"inputs": [
				{
					"internalType": "uint256[]",
					"name": "nftids",
					"type": "uint256[]"
				},
				{
					"internalType": "address",
					"name": "nftOwner",
					"type": "address"
				}
			],
			"name": "batchMint",
			"outputs": [],
			"stateMutability": "nonpayable",
			"type": "function"
		},
		{
			"inputs": [
				{
					"internalType": "uint256",
					"name": "tokenId",
					"type": "uint256"
				}
			],
			"name": "getApproved",
			"outputs": [
				{
					"internalType": "address",
					"name": "",
					"type": "address"
				}
			],
			"stateMutability": "view",
			"type": "function"
		},
		{
			"inputs": [],
			"name": "getCurrentIndex",
			"outputs": [
				{
					"internalType": "uint256",
					"name": "",
					"type": "uint256"
				}
			],
			"stateMutability": "view",
			"type": "function"
		},
		{
			"inputs": [
				{
					"internalType": "address",
					"name": "owner",
					"type": "address"
				},
				{
					"internalType": "address",
					"name": "operator",
					"type": "address"
				}
			],
			"name": "isApprovedForAll",
			"outputs": [
				{
					"internalType": "bool",
					"name": "",
					"type": "bool"
				}
			],
			"stateMutability": "view",
			"type": "function"
		},
		{
			"inputs": [
				{
					"internalType": "uint256",
					"name": "nftid",
					"type": "uint256"
				}
			],
			"name": "mint",
			"outputs": [],
			"stateMutability": "nonpayable",
			"type": "function"
		},
		{
			"inputs": [],
			"name": "name",
			"outputs": [
				{
					"internalType": "string",
					"name": "",
					"type": "string"
				}
			],
			"stateMutability": "view",
			"type": "function"
		},
		{
			"inputs": [
				{
					"internalType": "uint256",
					"name": "",
					"type": "uint256"
				}
			],
			"name": "nftExist",
			"outputs": [
				{
					"internalType": "bool",
					"name": "",
					"type": "bool"
				}
			],
			"stateMutability": "view",
			"type": "function"
		},
		{
			"inputs": [],
			"name": "owner",
			"outputs": [
				{
					"internalType": "address",
					"name": "",
					"type": "address"
				}
			],
			"stateMutability": "view",
			"type": "function"
		},
		{
			"inputs": [
				{
					"internalType": "uint256",
					"name": "tokenId",
					"type": "uint256"
				}
			],
			"name": "ownerOf",
			"outputs": [
				{
					"internalType": "address",
					"name": "",
					"type": "address"
				}
			],
			"stateMutability": "view",
			"type": "function"
		},
		{
			"inputs": [
				{
					"internalType": "uint256",
					"name": "tokenId",
					"type": "uint256"
				}
			],
			"name": "redeem",
			"outputs": [],
			"stateMutability": "nonpayable",
			"type": "function"
		},
		{
			"inputs": [],
			"name": "renounceOwnership",
			"outputs": [],
			"stateMutability": "nonpayable",
			"type": "function"
		},
		{
			"inputs": [
				{
					"internalType": "address",
					"name": "from",
					"type": "address"
				},
				{
					"internalType": "address",
					"name": "to",
					"type": "address"
				},
				{
					"internalType": "uint256",
					"name": "tokenId",
					"type": "uint256"
				}
			],
			"name": "safeTransferFrom",
			"outputs": [],
			"stateMutability": "payable",
			"type": "function"
		},
		{
			"inputs": [
				{
					"internalType": "address",
					"name": "from",
					"type": "address"
				},
				{
					"internalType": "address",
					"name": "to",
					"type": "address"
				},
				{
					"internalType": "uint256",
					"name": "tokenId",
					"type": "uint256"
				},
				{
					"internalType": "bytes",
					"name": "_data",
					"type": "bytes"
				}
			],
			"name": "safeTransferFrom",
			"outputs": [],
			"stateMutability": "payable",
			"type": "function"
		},
		{
			"inputs": [
				{
					"internalType": "address",
					"name": "operator",
					"type": "address"
				},
				{
					"internalType": "bool",
					"name": "approved",
					"type": "bool"
				}
			],
			"name": "setApprovalForAll",
			"outputs": [],
			"stateMutability": "nonpayable",
			"type": "function"
		},
		{
			"inputs": [
				{
					"internalType": "string",
					"name": "baseURI",
					"type": "string"
				}
			],
			"name": "setBaseURI",
			"outputs": [],
			"stateMutability": "nonpayable",
			"type": "function"
		},
		{
			"inputs": [
				{
					"internalType": "bytes4",
					"name": "interfaceId",
					"type": "bytes4"
				}
			],
			"name": "supportsInterface",
			"outputs": [
				{
					"internalType": "bool",
					"name": "",
					"type": "bool"
				}
			],
			"stateMutability": "view",
			"type": "function"
		},
		{
			"inputs": [],
			"name": "symbol",
			"outputs": [
				{
					"internalType": "string",
					"name": "",
					"type": "string"
				}
			],
			"stateMutability": "view",
			"type": "function"
		},
		{
			"inputs": [
				{
					"internalType": "uint256",
					"name": "",
					"type": "uint256"
				}
			],
			"name": "tokenMapper",
			"outputs": [
				{
					"internalType": "uint256",
					"name": "",
					"type": "uint256"
				}
			],
			"stateMutability": "view",
			"type": "function"
		},
		{
			"inputs": [
				{
					"internalType": "uint256",
					"name": "",
					"type": "uint256"
				}
			],
			"name": "tokenMapper2",
			"outputs": [
				{
					"internalType": "uint256",
					"name": "",
					"type": "uint256"
				}
			],
			"stateMutability": "view",
			"type": "function"
		},
		{
			"inputs": [
				{
					"internalType": "uint256",
					"name": "tokenId",
					"type": "uint256"
				}
			],
			"name": "tokenURI",
			"outputs": [
				{
					"internalType": "string",
					"name": "",
					"type": "string"
				}
			],
			"stateMutability": "view",
			"type": "function"
		},
		{
			"inputs": [],
			"name": "totalSupply",
			"outputs": [
				{
					"internalType": "uint256",
					"name": "result",
					"type": "uint256"
				}
			],
			"stateMutability": "view",
			"type": "function"
		},
		{
			"inputs": [
				{
					"internalType": "address",
					"name": "from",
					"type": "address"
				},
				{
					"internalType": "address",
					"name": "to",
					"type": "address"
				},
				{
					"internalType": "uint256",
					"name": "tokenId",
					"type": "uint256"
				}
			],
			"name": "transferFrom",
			"outputs": [],
			"stateMutability": "payable",
			"type": "function"
		},
		{
			"inputs": [
				{
					"internalType": "address",
					"name": "newOwner",
					"type": "address"
				}
			],
			"name": "transferOwnership",
			"outputs": [],
			"stateMutability": "nonpayable",
			"type": "function"
		}
	]
}