{
	"data": {
		"bytecode": {
			"linkReferences": {},
			"object": "60a0604052730e9bb892a38d60b53085af77eda888790ef1dd3360055f6101000a81548173ffffffffffffffffffffffffffffffffffffffff021916908373ffffffffffffffffffffffffffffffffffffffff160217905550737fc5e3e61700e34218a00cc01e92957a4e6c888360065f6101000a81548173ffffffffffffffffffffffffffffffffffffffff021916908373ffffffffffffffffffffffffffffffffffffffff1602179055505f60075f6101000a81548173ffffffffffffffffffffffffffffffffffffffff021916908373ffffffffffffffffffffffffffffffffffffffff1602179055505f60085f6101000a81548173ffffffffffffffffffffffffffffffffffffffff021916908373ffffffffffffffffffffffffffffffffffffffff1602179055506101ea60095560d2600a5561012c600b55600a600c55600a600d556005600e55348015610157575f80fd5b50604051613c65380380613c6583398181016040528101906101799190610356565b84335f806101000a81548173ffffffffffffffffffffffffffffffffffffffff021916908373ffffffffffffffffffffffffffffffffffffffff1602179055508073ffffffffffffffffffffffffffffffffffffffff1660808173ffffffffffffffffffffffffffffffffffffffff1681525050508360015f6101000a81548173ffffffffffffffffffffffffffffffffffffffff021916908373ffffffffffffffffffffffffffffffffffffffff1602179055508260025f6101000a81548173ffffffffffffffffffffffffffffffffffffffff021916908373ffffffffffffffffffffffffffffffffffffffff1602179055508160045f6101000a81548173ffffffffffffffffffffffffffffffffffffffff021916908373ffffffffffffffffffffffffffffffffffffffff1602179055508060035f6101000a81548173ffffffffffffffffffffffffffffffffffffffff021916908373ffffffffffffffffffffffffffffffffffffffff16021790555050505050506103cd565b5f80fd5b5f73ffffffffffffffffffffffffffffffffffffffff82169050919050565b5f610325826102fc565b9050919050565b6103358161031b565b811461033f575f80fd5b50565b5f815190506103508161032c565b92915050565b5f805f805f60a0868803121561036f5761036e6102f8565b5b5f61037c88828901610342565b955050602061038d88828901610342565b945050604061039e88828901610342565b93505060606103af88828901610342565b92505060806103c088828901610342565b9150509295509295909350565b6080516138806103e55f395f610f9601526138805ff3fe608060405234801561000f575f80fd5b50600436106101ee575f3560e01c8063845a51ec1161010d578063bd9a3b6d116100a0578063d339db941161006f578063d339db941461055a578063f2699d5914610578578063f2fde38b14610594578063f851a440146105b0576101ee565b8063bd9a3b6d146104e6578063cb14687914610502578063cfd79d5d1461051e578063d1faf1571461053c576101ee565b80638da5cb5b116100dc5780638da5cb5b1461045e57806394dd453a1461047c5780639f2585a11461049a578063b24cf5d7146104ca576101ee565b8063845a51ec146103ea5780638705fcd4146104085780638b225f06146104245780638c7c9e0c14610440576101ee565b80633e413bee116101855780635b7633d0116101545780635b7633d01461038857806360f688ea146103a6578063704b6c02146103c4578063715018a6146103e0576101ee565b80633e413bee14610300578063412753581461031e578063572b6c051461033c57806358979bfe1461036c576101ee565b806314754e66116101c157806314754e6614610276578063228b03fa146102945780632515af37146102c45780632f48ab7d146102e2576101ee565b8063046dc166146101f25780630d3652ec1461020e57806310b8097c1461023e578063122c6fd71461025a575b5f80fd5b61020c6004803603810190610207919061265c565b6105ce565b005b610228600480360381019061022391906127c3565b610669565b6040516102359190612824565b60405180910390f35b61025860048036038101906102539190612973565b6107c8565b005b610274600480360381019061026f919061265c565b610dee565b005b61027e610e89565b60405161028b9190612aa7565b60405180910390f35b6102ae60048036038101906102a99190612ac0565b610e8f565b6040516102bb9190612bb8565b60405180910390f35b6102cc610f1e565b6040516102d99190612aa7565b60405180910390f35b6102ea610f24565b6040516102f79190612c2c565b60405180910390f35b610308610f49565b6040516103159190612c2c565b60405180910390f35b610326610f6e565b6040516103339190612c54565b60405180910390f35b6103566004803603810190610351919061265c565b610f93565b6040516103639190612824565b60405180910390f35b6103866004803603810190610381919061265c565b610fea565b005b610390611085565b60405161039d9190612c54565b60405180910390f35b6103ae6110aa565b6040516103bb9190612aa7565b60405180910390f35b6103de60048036038101906103d9919061265c565b6110b0565b005b6103e8611149565b005b6103f2611242565b6040516103ff9190612c54565b60405180910390f35b610422600480360381019061041d919061265c565b611267565b005b61043e6004803603810190610439919061265c565b611302565b005b61044861139d565b6040516104559190612c2c565b60405180910390f35b6104666113c2565b6040516104739190612c54565b60405180910390f35b6104846113e5565b6040516104919190612c2c565b60405180910390f35b6104b460048036038101906104af9190612c97565b61140a565b6040516104c19190612c54565b60405180910390f35b6104e460048036038101906104df919061265c565b611474565b005b61050060048036038101906104fb9190612cf1565b61150f565b005b61051c6004803603810190610517919061265c565b611597565b005b610526611632565b6040516105339190612aa7565b60405180910390f35b610544611638565b6040516105519190612aa7565b60405180910390f35b61056261163e565b60405161056f9190612aa7565b60405180910390f35b610592600480360381019061058d9190612973565b611644565b005b6105ae60048036038101906105a9919061265c565b611d23565b005b6105b8611e6b565b6040516105c59190612c54565b60405180910390f35b60015f9054906101000a900473ffffffffffffffffffffffffffffffffffffffff1673ffffffffffffffffffffffffffffffffffffffff163373ffffffffffffffffffffffffffffffffffffffff1614610626575f80fd5b8060045f6101000a81548173ffffffffffffffffffffffffffffffffffffffff021916908373ffffffffffffffffffffffffffffffffffffffff16021790555050565b5f6106a9826040518060400160405280600481526020017f7573647400000000000000000000000000000000000000000000000000000000815250611e90565b806106ef57506106ee826040518060400160405280600481526020017f7573646300000000000000000000000000000000000000000000000000000000815250611e90565b5b806107355750610734826040518060400160405280600381526020017f756d690000000000000000000000000000000000000000000000000000000000815250611e90565b5b8061077b575061077a826040518060400160405280600981526020017f64697665706f696e740000000000000000000000000000000000000000000000815250611e90565b5b806107c157506107c0826040518060400160405280600381526020017f6574680000000000000000000000000000000000000000000000000000000000815250611e90565b5b9050919050565b6107d133610f93565b610810576040517f08c379a000000000000000000000000000000000000000000000000000000000815260040161080790612dfa565b60405180910390fd5b5f73ffffffffffffffffffffffffffffffffffffffff168273ffffffffffffffffffffffffffffffffffffffff160361087e576040517f08c379a000000000000000000000000000000000000000000000000000000000815260040161087590612e62565b60405180910390fd5b610890828b8b8b8b8b8b8b8b8a611ee8565b6108cf576040517f08c379a00000000000000000000000000000000000000000000000000000000081526004016108c690612eca565b60405180910390fd5b868814610911576040517f08c379a000000000000000000000000000000000000000000000000000000000815260040161090890612f32565b60405180910390fd5b5f871115610d2657610958866040518060400160405280600481526020017f7573647400000000000000000000000000000000000000000000000000000000815250611e90565b15610a1c575f73ffffffffffffffffffffffffffffffffffffffff1660055f9054906101000a900473ffffffffffffffffffffffffffffffffffffffff1673ffffffffffffffffffffffffffffffffffffffff16036109ec576040517f08c379a00000000000000000000000000000000000000000000000000000000081526004016109e390612f9a565b60405180910390fd5b610a1b60055f9054906101000a900473ffffffffffffffffffffffffffffffffffffffff16838c88888c611fbc565b5b610a5b866040518060400160405280600481526020017f7573646300000000000000000000000000000000000000000000000000000000815250611e90565b15610b1f575f73ffffffffffffffffffffffffffffffffffffffff1660065f9054906101000a900473ffffffffffffffffffffffffffffffffffffffff1673ffffffffffffffffffffffffffffffffffffffff1603610aef576040517f08c379a0000000000000000000000000000000000000000000000000000000008152600401610ae690613002565b60405180910390fd5b610b1e60065f9054906101000a900473ffffffffffffffffffffffffffffffffffffffff16838c88888c611fbc565b5b610b5e866040518060400160405280600381526020017f6574680000000000000000000000000000000000000000000000000000000000815250611e90565b15610c22575f73ffffffffffffffffffffffffffffffffffffffff1660055f9054906101000a900473ffffffffffffffffffffffffffffffffffffffff1673ffffffffffffffffffffffffffffffffffffffff1603610bf2576040517f08c379a0000000000000000000000000000000000000000000000000000000008152600401610be99061306a565b60405180910390fd5b610c2160085f9054906101000a900473ffffffffffffffffffffffffffffffffffffffff16838c88888c611fbc565b5b610c61866040518060400160405280600381526020017f756d690000000000000000000000000000000000000000000000000000000000815250611e90565b15610d25575f73ffffffffffffffffffffffffffffffffffffffff1660075f9054906101000a900473ffffffffffffffffffffffffffffffffffffffff1673ffffffffffffffffffffffffffffffffffffffff1603610cf5576040517f08c379a0000000000000000000000000000000000000000000000000000000008152600401610cec906130d2565b60405180910390fd5b610d2460075f9054906101000a900473ffffffffffffffffffffffffffffffffffffffff16838c88888c611fbc565b5b5b60608b73ffffffffffffffffffffffffffffffffffffffff1663b88d4fde8c858d856040518563ffffffff1660e01b8152600401610d679493929190613150565b5f604051808303815f87803b158015610d7e575f80fd5b505af1158015610d90573d5f803e3d5ffd5b505050507fff8e373201d0e8ead3e3a60928e02004c2bcb407405f2f21e95283617f8b350c6305f5e1008b610dc591906131c7565b8a8d86604051610dd89493929190613208565b60405180910390a1505050505050505050505050565b60015f9054906101000a900473ffffffffffffffffffffffffffffffffffffffff1673ffffffffffffffffffffffffffffffffffffffff163373ffffffffffffffffffffffffffffffffffffffff1614610e46575f80fd5b8060085f6101000a81548173ffffffffffffffffffffffffffffffffffffffff021916908373ffffffffffffffffffffffffffffffffffffffff16021790555050565b600b5481565b5f610e9985610669565b610ed8576040517f08c379a0000000000000000000000000000000000000000000000000000000008152600401610ecf90613295565b60405180910390fd5b898989898989898989604051602001610ef9999897969594939291906133a1565b6040516020818303038152906040528051906020012090509998505050505050505050565b600e5481565b60055f9054906101000a900473ffffffffffffffffffffffffffffffffffffffff1681565b60065f9054906101000a900473ffffffffffffffffffffffffffffffffffffffff1681565b60025f9054906101000a900473ffffffffffffffffffffffffffffffffffffffff1681565b5f7f000000000000000000000000000000000000000000000000000000000000000073ffffffffffffffffffffffffffffffffffffffff168273ffffffffffffffffffffffffffffffffffffffff16149050919050565b60015f9054906101000a900473ffffffffffffffffffffffffffffffffffffffff1673ffffffffffffffffffffffffffffffffffffffff163373ffffffffffffffffffffffffffffffffffffffff1614611042575f80fd5b8060055f6101000a81548173ffffffffffffffffffffffffffffffffffffffff021916908373ffffffffffffffffffffffffffffffffffffffff16021790555050565b60045f9054906101000a900473ffffffffffffffffffffffffffffffffffffffff1681565b600c5481565b5f8054906101000a900473ffffffffffffffffffffffffffffffffffffffff1673ffffffffffffffffffffffffffffffffffffffff163373ffffffffffffffffffffffffffffffffffffffff1614611106575f80fd5b8060015f6101000a81548173ffffffffffffffffffffffffffffffffffffffff021916908373ffffffffffffffffffffffffffffffffffffffff16021790555050565b5f8054906101000a900473ffffffffffffffffffffffffffffffffffffffff1673ffffffffffffffffffffffffffffffffffffffff163373ffffffffffffffffffffffffffffffffffffffff161461119f575f80fd5b5f8054906101000a900473ffffffffffffffffffffffffffffffffffffffff1673ffffffffffffffffffffffffffffffffffffffff167ff8df31144d9c2f0f6b59d69b8b98abd5459d07f2742c4df920b25aae33c6482060405160405180910390a25f805f6101000a81548173ffffffffffffffffffffffffffffffffffffffff021916908373ffffffffffffffffffffffffffffffffffffffff160217905550565b60035f9054906101000a900473ffffffffffffffffffffffffffffffffffffffff1681565b60015f9054906101000a900473ffffffffffffffffffffffffffffffffffffffff1673ffffffffffffffffffffffffffffffffffffffff163373ffffffffffffffffffffffffffffffffffffffff16146112bf575f80fd5b8060025f6101000a81548173ffffffffffffffffffffffffffffffffffffffff021916908373ffffffffffffffffffffffffffffffffffffffff16021790555050565b60015f9054906101000a900473ffffffffffffffffffffffffffffffffffffffff1673ffffffffffffffffffffffffffffffffffffffff163373ffffffffffffffffffffffffffffffffffffffff161461135a575f80fd5b8060075f6101000a81548173ffffffffffffffffffffffffffffffffffffffff021916908373ffffffffffffffffffffffffffffffffffffffff16021790555050565b60085f9054906101000a900473ffffffffffffffffffffffffffffffffffffffff1681565b5f8054906101000a900473ffffffffffffffffffffffffffffffffffffffff1681565b60075f9054906101000a900473ffffffffffffffffffffffffffffffffffffffff1681565b5f805f80611417856123d2565b9250925092506001868285856040515f815260200160405260405161143f949392919061345a565b6020604051602081039080840390855afa15801561145f573d5f803e3d5ffd5b50505060206040510351935050505092915050565b60015f9054906101000a900473ffffffffffffffffffffffffffffffffffffffff1673ffffffffffffffffffffffffffffffffffffffff163373ffffffffffffffffffffffffffffffffffffffff16146114cc575f80fd5b8060035f6101000a81548173ffffffffffffffffffffffffffffffffffffffff021916908373ffffffffffffffffffffffffffffffffffffffff16021790555050565b5f8054906101000a900473ffffffffffffffffffffffffffffffffffffffff1673ffffffffffffffffffffffffffffffffffffffff163373ffffffffffffffffffffffffffffffffffffffff1614611565575f80fd5b8560098190555084600a8190555083600b8190555082600c8190555081600d8190555080600e81905550505050505050565b60015f9054906101000a900473ffffffffffffffffffffffffffffffffffffffff1673ffffffffffffffffffffffffffffffffffffffff163373ffffffffffffffffffffffffffffffffffffffff16146115ef575f80fd5b8060065f6101000a81548173ffffffffffffffffffffffffffffffffffffffff021916908373ffffffffffffffffffffffffffffffffffffffff16021790555050565b600d5481565b60095481565b600a5481565b61164d33610f93565b61168c576040517f08c379a000000000000000000000000000000000000000000000000000000000815260040161168390612dfa565b60405180910390fd5b5f73ffffffffffffffffffffffffffffffffffffffff168a73ffffffffffffffffffffffffffffffffffffffff16036116fa576040517f08c379a00000000000000000000000000000000000000000000000000000000081526004016116f190612e62565b60405180910390fd5b61170c8a838b8b8b8b8b8b8b8a611ee8565b61174b576040517f08c379a000000000000000000000000000000000000000000000000000000000815260040161174290612eca565b60405180910390fd5b86881461178d576040517f08c379a000000000000000000000000000000000000000000000000000000000815260040161178490612f32565b60405180910390fd5b5f871115611ba2576117d4866040518060400160405280600481526020017f7573647400000000000000000000000000000000000000000000000000000000815250611e90565b15611898575f73ffffffffffffffffffffffffffffffffffffffff1660055f9054906101000a900473ffffffffffffffffffffffffffffffffffffffff1673ffffffffffffffffffffffffffffffffffffffff1603611868576040517f08c379a000000000000000000000000000000000000000000000000000000000815260040161185f90612f9a565b60405180910390fd5b61189760055f9054906101000a900473ffffffffffffffffffffffffffffffffffffffff168b8488888c611fbc565b5b6118d7866040518060400160405280600481526020017f7573646300000000000000000000000000000000000000000000000000000000815250611e90565b1561199b575f73ffffffffffffffffffffffffffffffffffffffff1660065f9054906101000a900473ffffffffffffffffffffffffffffffffffffffff1673ffffffffffffffffffffffffffffffffffffffff160361196b576040517f08c379a000000000000000000000000000000000000000000000000000000000815260040161196290613002565b60405180910390fd5b61199a60065f9054906101000a900473ffffffffffffffffffffffffffffffffffffffff168b8488888c611fbc565b5b6119da866040518060400160405280600381526020017f6574680000000000000000000000000000000000000000000000000000000000815250611e90565b15611a9e575f73ffffffffffffffffffffffffffffffffffffffff1660085f9054906101000a900473ffffffffffffffffffffffffffffffffffffffff1673ffffffffffffffffffffffffffffffffffffffff1603611a6e576040517f08c379a0000000000000000000000000000000000000000000000000000000008152600401611a659061306a565b60405180910390fd5b611a9d60085f9054906101000a900473ffffffffffffffffffffffffffffffffffffffff168b8488888c611fbc565b5b611add866040518060400160405280600381526020017f756d690000000000000000000000000000000000000000000000000000000000815250611e90565b15611ba1575f73ffffffffffffffffffffffffffffffffffffffff1660075f9054906101000a900473ffffffffffffffffffffffffffffffffffffffff1673ffffffffffffffffffffffffffffffffffffffff1603611b71576040517f08c379a0000000000000000000000000000000000000000000000000000000008152600401611b68906130d2565b60405180910390fd5b611ba060075f9054906101000a900473ffffffffffffffffffffffffffffffffffffffff168b8488888c611fbc565b5b5b60608b73ffffffffffffffffffffffffffffffffffffffff1663e985e9c584306040518363ffffffff1660e01b8152600401611bdf92919061349d565b602060405180830381865afa158015611bfa573d5f803e3d5ffd5b505050506040513d601f19601f82011682018060405250810190611c1e91906134d8565b611c5d576040517f08c379a0000000000000000000000000000000000000000000000000000000008152600401611c549061354d565b60405180910390fd5b8b73ffffffffffffffffffffffffffffffffffffffff1663b88d4fde848d8d856040518563ffffffff1660e01b8152600401611c9c9493929190613150565b5f604051808303815f87803b158015611cb3575f80fd5b505af1158015611cc5573d5f803e3d5ffd5b505050507f73ee6083753970c82cf2d93ff7bb0432e00e0155c4096741ea134c74f67eb02b6305f5e1008b611cfa91906131c7565b8a8d86604051611d0d9493929190613208565b60405180910390a1505050505050505050505050565b5f8054906101000a900473ffffffffffffffffffffffffffffffffffffffff1673ffffffffffffffffffffffffffffffffffffffff163373ffffffffffffffffffffffffffffffffffffffff1614611d79575f80fd5b5f73ffffffffffffffffffffffffffffffffffffffff168173ffffffffffffffffffffffffffffffffffffffff1603611db0575f80fd5b8073ffffffffffffffffffffffffffffffffffffffff165f8054906101000a900473ffffffffffffffffffffffffffffffffffffffff1673ffffffffffffffffffffffffffffffffffffffff167f8be0079c531659141344cd1fd0a4f28419497f9722a3daafe3b4186f6b6457e060405160405180910390a3805f806101000a81548173ffffffffffffffffffffffffffffffffffffffff021916908373ffffffffffffffffffffffffffffffffffffffff16021790555050565b60015f9054906101000a900473ffffffffffffffffffffffffffffffffffffffff1681565b5f81604051602001611ea2919061356b565b6040516020818303038152906040528051906020012083604051602001611ec9919061356b565b6040516020818303038152906040528051906020012014905092915050565b5f611ef286610669565b611f31576040517f08c379a0000000000000000000000000000000000000000000000000000000008152600401611f2890613295565b60405180910390fd5b5f611f438c8c8c8c8c8c8c8c8c610e8f565b90505f611f4f82612437565b905060045f9054906101000a900473ffffffffffffffffffffffffffffffffffffffff1673ffffffffffffffffffffffffffffffffffffffff16611f938286612466565b73ffffffffffffffffffffffffffffffffffffffff1614925050509a9950505050505050505050565b5f805f8873ffffffffffffffffffffffffffffffffffffffff166323b872dd8930876040518463ffffffff1660e01b8152600401611ffc93929190613581565b6020604051808303815f875af1158015612018573d5f803e3d5ffd5b505050506040513d601f19601f8201168201806040525081019061203c91906134d8565b5084156120c95761206c6103e861205e600954876124d090919063ffffffff16565b61254790919063ffffffff16565b92506120976103e8612089600a54876124d090919063ffffffff16565b61254790919063ffffffff16565b91506120c26103e86120b4600b54876124d090919063ffffffff16565b61254790919063ffffffff16565b905061214b565b6120f26103e86120e4600d54876124d090919063ffffffff16565b61254790919063ffffffff16565b925061211d6103e861210f600c54876124d090919063ffffffff16565b61254790919063ffffffff16565b91506121486103e861213a600e54876124d090919063ffffffff16565b61254790919063ffffffff16565b90505b5f8183858761215a91906135b6565b61216491906135b6565b61216e91906135b6565b90505f8411156121f5578973ffffffffffffffffffffffffffffffffffffffff1663a9059cbb88866040518363ffffffff1660e01b81526004016121b39291906135e9565b6020604051808303815f875af11580156121cf573d5f803e3d5ffd5b505050506040513d601f19601f820116820180604052508101906121f391906134d8565b505b5f83111561229b578973ffffffffffffffffffffffffffffffffffffffff1663a9059cbb60025f9054906101000a900473ffffffffffffffffffffffffffffffffffffffff16856040518363ffffffff1660e01b81526004016122599291906135e9565b6020604051808303815f875af1158015612275573d5f803e3d5ffd5b505050506040513d601f19601f8201168201806040525081019061229991906134d8565b505b5f821115612341578973ffffffffffffffffffffffffffffffffffffffff1663a9059cbb60035f9054906101000a900473ffffffffffffffffffffffffffffffffffffffff16846040518363ffffffff1660e01b81526004016122ff9291906135e9565b6020604051808303815f875af115801561231b573d5f803e3d5ffd5b505050506040513d601f19601f8201168201806040525081019061233f91906134d8565b505b5f8111156123c6578973ffffffffffffffffffffffffffffffffffffffff1663a9059cbb89836040518363ffffffff1660e01b81526004016123849291906135e9565b6020604051808303815f875af11580156123a0573d5f803e3d5ffd5b505050506040513d601f19601f820116820180604052508101906123c491906134d8565b505b50505050505050505050565b5f805f6041845114612419576040517f08c379a00000000000000000000000000000000000000000000000000000000081526004016124109061365a565b60405180910390fd5b602084015192506040840151915060608401515f1a90509193909250565b5f8160405160200161244991906136e2565b604051602081830303815290604052805190602001209050919050565b5f805f80612473856123d2565b9250925092506001868285856040515f815260200160405260405161249b949392919061345a565b6020604051602081039080840390855afa1580156124bb573d5f803e3d5ffd5b50505060206040510351935050505092915050565b5f8083036124e0575f9050612541565b5f82846124ed91906131c7565b90508284826124fc9190613734565b1461253c576040517f08c379a0000000000000000000000000000000000000000000000000000000008152600401612533906137d4565b60405180910390fd5b809150505b92915050565b5f61258883836040518060400160405280601a81526020017f536166654d6174683a206469766973696f6e206279207a65726f000000000000815250612590565b905092915050565b5f80831182906125d6576040517f08c379a00000000000000000000000000000000000000000000000000000000081526004016125cd919061382a565b60405180910390fd5b505f83856125e49190613734565b9050809150509392505050565b5f604051905090565b5f80fd5b5f80fd5b5f73ffffffffffffffffffffffffffffffffffffffff82169050919050565b5f61262b82612602565b9050919050565b61263b81612621565b8114612645575f80fd5b50565b5f8135905061265681612632565b92915050565b5f60208284031215612671576126706125fa565b5b5f61267e84828501612648565b91505092915050565b5f80fd5b5f80fd5b5f601f19601f8301169050919050565b7f4e487b71000000000000000000000000000000000000000000000000000000005f52604160045260245ffd5b6126d58261268f565b810181811067ffffffffffffffff821117156126f4576126f361269f565b5b80604052505050565b5f6127066125f1565b905061271282826126cc565b919050565b5f67ffffffffffffffff8211156127315761273061269f565b5b61273a8261268f565b9050602081019050919050565b828183375f83830152505050565b5f61276761276284612717565b6126fd565b9050828152602081018484840111156127835761278261268b565b5b61278e848285612747565b509392505050565b5f82601f8301126127aa576127a9612687565b5b81356127ba848260208601612755565b91505092915050565b5f602082840312156127d8576127d76125fa565b5b5f82013567ffffffffffffffff8111156127f5576127f46125fe565b5b61280184828501612796565b91505092915050565b5f8115159050919050565b61281e8161280a565b82525050565b5f6020820190506128375f830184612815565b92915050565b5f61284782612621565b9050919050565b6128578161283d565b8114612861575f80fd5b50565b5f813590506128728161284e565b92915050565b5f819050919050565b61288a81612878565b8114612894575f80fd5b50565b5f813590506128a581612881565b92915050565b6128b48161280a565b81146128be575f80fd5b50565b5f813590506128cf816128ab565b92915050565b5f67ffffffffffffffff8211156128ef576128ee61269f565b5b6128f88261268f565b9050602081019050919050565b5f612917612912846128d5565b6126fd565b9050828152602081018484840111156129335761293261268b565b5b61293e848285612747565b509392505050565b5f82601f83011261295a57612959612687565b5b813561296a848260208601612905565b91505092915050565b5f805f805f805f805f805f6101608c8e031215612993576129926125fa565b5b5f6129a08e828f01612864565b9b505060206129b18e828f01612648565b9a505060406129c28e828f01612897565b99505060606129d38e828f01612897565b98505060806129e48e828f01612897565b97505060a08c013567ffffffffffffffff811115612a0557612a046125fe565b5b612a118e828f01612796565b96505060c0612a228e828f01612648565b95505060e0612a338e828f016128c1565b945050610100612a458e828f01612897565b935050610120612a578e828f01612648565b9250506101408c013567ffffffffffffffff811115612a7957612a786125fe565b5b612a858e828f01612946565b9150509295989b509295989b9093969950565b612aa181612878565b82525050565b5f602082019050612aba5f830184612a98565b92915050565b5f805f805f805f805f6101208a8c031215612ade57612add6125fa565b5b5f612aeb8c828d01612648565b9950506020612afc8c828d01612648565b9850506040612b0d8c828d01612897565b9750506060612b1e8c828d01612897565b9650506080612b2f8c828d01612897565b95505060a08a013567ffffffffffffffff811115612b5057612b4f6125fe565b5b612b5c8c828d01612796565b94505060c0612b6d8c828d01612648565b93505060e0612b7e8c828d016128c1565b925050610100612b908c828d01612897565b9150509295985092959850929598565b5f819050919050565b612bb281612ba0565b82525050565b5f602082019050612bcb5f830184612ba9565b92915050565b5f819050919050565b5f612bf4612bef612bea84612602565b612bd1565b612602565b9050919050565b5f612c0582612bda565b9050919050565b5f612c1682612bfb565b9050919050565b612c2681612c0c565b82525050565b5f602082019050612c3f5f830184612c1d565b92915050565b612c4e81612621565b82525050565b5f602082019050612c675f830184612c45565b92915050565b612c7681612ba0565b8114612c80575f80fd5b50565b5f81359050612c9181612c6d565b92915050565b5f8060408385031215612cad57612cac6125fa565b5b5f612cba85828601612c83565b925050602083013567ffffffffffffffff811115612cdb57612cda6125fe565b5b612ce785828601612946565b9150509250929050565b5f805f805f8060c08789031215612d0b57612d0a6125fa565b5b5f612d1889828a01612897565b9650506020612d2989828a01612897565b9550506040612d3a89828a01612897565b9450506060612d4b89828a01612897565b9350506080612d5c89828a01612897565b92505060a0612d6d89828a01612897565b9150509295509295509295565b5f82825260208201905092915050565b7f4f6e6c792063616c6c61626c65206279205472757374656420466f72776172645f8201527f6572000000000000000000000000000000000000000000000000000000000000602082015250565b5f612de4602283612d7a565b9150612def82612d8a565b604082019050919050565b5f6020820190508181035f830152612e1181612dd8565b9050919050565b7f43563a20627579657220746f20746865207a65726f20616464726573730000005f82015250565b5f612e4c601d83612d7a565b9150612e5782612e18565b602082019050919050565b5f6020820190508181035f830152612e7981612e40565b9050919050565b7f43563a20696e76616c6964205f7369676e6174757265000000000000000000005f82015250565b5f612eb4601683612d7a565b9150612ebf82612e80565b602082019050919050565b5f6020820190508181035f830152612ee181612ea8565b9050919050565b7f43563a20696e76616c696420616d6f756e7400000000000000000000000000005f82015250565b5f612f1c601283612d7a565b9150612f2782612ee8565b602082019050919050565b5f6020820190508181035f830152612f4981612f10565b9050919050565b7f757364742061646472657373206e6f7420636f6e6669670000000000000000005f82015250565b5f612f84601783612d7a565b9150612f8f82612f50565b602082019050919050565b5f6020820190508181035f830152612fb181612f78565b9050919050565b7f757364632061646472657373206e6f7420636f6e6669670000000000000000005f82015250565b5f612fec601783612d7a565b9150612ff782612fb8565b602082019050919050565b5f6020820190508181035f83015261301981612fe0565b9050919050565b7f6574682061646472657373206e6f7420636f6e666967000000000000000000005f82015250565b5f613054601683612d7a565b915061305f82613020565b602082019050919050565b5f6020820190508181035f83015261308181613048565b9050919050565b7f756d692061646472657373206e6f7420636f6e666967000000000000000000005f82015250565b5f6130bc601683612d7a565b91506130c782613088565b602082019050919050565b5f6020820190508181035f8301526130e9816130b0565b9050919050565b5f81519050919050565b5f82825260208201905092915050565b8281835e5f83830152505050565b5f613122826130f0565b61312c81856130fa565b935061313c81856020860161310a565b6131458161268f565b840191505092915050565b5f6080820190506131635f830187612c45565b6131706020830186612c45565b61317d6040830185612a98565b818103606083015261318f8184613118565b905095945050505050565b7f4e487b71000000000000000000000000000000000000000000000000000000005f52601160045260245ffd5b5f6131d182612878565b91506131dc83612878565b92508282026131ea81612878565b915082820484148315176132015761320061319a565b5b5092915050565b5f60808201905061321b5f830187612a98565b6132286020830186612a98565b6132356040830185612c45565b6132426060830184612c45565b95945050505050565b7f746f6b656e206e6f7420737570706f72740000000000000000000000000000005f82015250565b5f61327f601183612d7a565b915061328a8261324b565b602082019050919050565b5f6020820190508181035f8301526132ac81613273565b9050919050565b5f8160601b9050919050565b5f6132c9826132b3565b9050919050565b5f6132da826132bf565b9050919050565b6132f26132ed82612621565b6132d0565b82525050565b5f819050919050565b61331261330d82612878565b6132f8565b82525050565b5f81519050919050565b5f81905092915050565b5f61333682613318565b6133408185613322565b935061335081856020860161310a565b80840191505092915050565b5f8160f81b9050919050565b5f6133728261335c565b9050919050565b5f61338382613368565b9050919050565b61339b6133968261280a565b613379565b82525050565b5f6133ac828c6132e1565b6014820191506133bc828b6132e1565b6014820191506133cc828a613301565b6020820191506133dc8289613301565b6020820191506133ec8288613301565b6020820191506133fc828761332c565b915061340882866132e1565b601482019150613418828561338a565b6001820191506134288284613301565b6020820191508190509a9950505050505050505050565b5f60ff82169050919050565b6134548161343f565b82525050565b5f60808201905061346d5f830187612ba9565b61347a602083018661344b565b6134876040830185612ba9565b6134946060830184612ba9565b95945050505050565b5f6040820190506134b05f830185612c45565b6134bd6020830184612c45565b9392505050565b5f815190506134d2816128ab565b92915050565b5f602082840312156134ed576134ec6125fa565b5b5f6134fa848285016134c4565b91505092915050565b7f43563a2073656c6c6572206973206e6f7420617070726f7665640000000000005f82015250565b5f613537601a83612d7a565b915061354282613503565b602082019050919050565b5f6020820190508181035f8301526135648161352b565b9050919050565b5f613576828461332c565b915081905092915050565b5f6060820190506135945f830186612c45565b6135a16020830185612c45565b6135ae6040830184612a98565b949350505050565b5f6135c082612878565b91506135cb83612878565b92508282039050818111156135e3576135e261319a565b5b92915050565b5f6040820190506135fc5f830185612c45565b6136096020830184612a98565b9392505050565b7f696e76616c6964207369676e6174757265206c656e67746800000000000000005f82015250565b5f613644601883612d7a565b915061364f82613610565b602082019050919050565b5f6020820190508181035f83015261367181613638565b9050919050565b7f19457468657265756d205369676e6564204d6573736167653a0a3332000000005f82015250565b5f6136ac601c83613322565b91506136b782613678565b601c82019050919050565b5f819050919050565b6136dc6136d782612ba0565b6136c2565b82525050565b5f6136ec826136a0565b91506136f882846136cb565b60208201915081905092915050565b7f4e487b71000000000000000000000000000000000000000000000000000000005f52601260045260245ffd5b5f61373e82612878565b915061374983612878565b92508261375957613758613707565b5b828204905092915050565b7f536166654d6174683a206d756c7469706c69636174696f6e206f766572666c6f5f8201527f7700000000000000000000000000000000000000000000000000000000000000602082015250565b5f6137be602183612d7a565b91506137c982613764565b604082019050919050565b5f6020820190508181035f8301526137eb816137b2565b9050919050565b5f6137fc82613318565b6138068185612d7a565b935061381681856020860161310a565b61381f8161268f565b840191505092915050565b5f6020820190508181035f83015261384281846137f2565b90509291505056fea26469706673582212205ca9f827aadebf4e9c0f1cd357f5ab4cebfcc5daafec826126f59a2e2545098e64736f6c63430008190033",
			"opcodes": "PUSH1 0xA0 PUSH1 0x40 MSTORE PUSH20 0xE9BB892A38D60B53085AF77EDA888790EF1DD33 PUSH1 0x5 PUSH0 PUSH2 0x100 EXP DUP2 SLOAD DUP2 PUSH20 0xFFFFFFFFFFFFFFFFFFFFFFFFFFFFFFFFFFFFFFFF MUL NOT AND SWAP1 DUP4 PUSH20 0xFFFFFFFFFFFFFFFFFFFFFFFFFFFFFFFFFFFFFFFF AND MUL OR SWAP1 SSTORE POP PUSH20 0x7FC5E3E61700E34218A00CC01E92957A4E6C8883 PUSH1 0x6 PUSH0 PUSH2 0x100 EXP DUP2 SLOAD DUP2 PUSH20 0xFFFFFFFFFFFFFFFFFFFFFFFFFFFFFFFFFFFFFFFF MUL NOT AND SWAP1 DUP4 PUSH20 0xFFFFFFFFFFFFFFFFFFFFFFFFFFFFFFFFFFFFFFFF AND MUL OR SWAP1 SSTORE POP PUSH0 PUSH1 0x7 PUSH0 PUSH2 0x100 EXP DUP2 SLOAD DUP2 PUSH20 0xFFFFFFFFFFFFFFFFFFFFFFFFFFFFFFFFFFFFFFFF MUL NOT AND SWAP1 DUP4 PUSH20 0xFFFFFFFFFFFFFFFFFFFFFFFFFFFFFFFFFFFFFFFF AND MUL OR SWAP1 SSTORE POP PUSH0 PUSH1 0x8 PUSH0 PUSH2 0x100 EXP DUP2 SLOAD DUP2 PUSH20 0xFFFFFFFFFFFFFFFFFFFFFFFFFFFFFFFFFFFFFFFF MUL NOT AND SWAP1 DUP4 PUSH20 0xFFFFFFFFFFFFFFFFFFFFFFFFFFFFFFFFFFFFFFFF AND MUL OR SWAP1 SSTORE POP PUSH2 0x1EA PUSH1 0x9 SSTORE PUSH1 0xD2 PUSH1 0xA SSTORE PUSH2 0x12C PUSH1 0xB SSTORE PUSH1 0xA PUSH1 0xC SSTORE PUSH1 0xA PUSH1 0xD SSTORE PUSH1 0x5 PUSH1 0xE SSTORE CALLVALUE DUP1 ISZERO PUSH2 0x157 JUMPI PUSH0 DUP1 REVERT JUMPDEST POP PUSH1 0x40 MLOAD PUSH2 0x3C65 CODESIZE SUB DUP1 PUSH2 0x3C65 DUP4 CODECOPY DUP2 DUP2 ADD PUSH1 0x40 MSTORE DUP2 ADD SWAP1 PUSH2 0x179 SWAP2 SWAP1 PUSH2 0x356 JUMP JUMPDEST DUP5 CALLER PUSH0 DUP1 PUSH2 0x100 EXP DUP2 SLOAD DUP2 PUSH20 0xFFFFFFFFFFFFFFFFFFFFFFFFFFFFFFFFFFFFFFFF MUL NOT AND SWAP1 DUP4 PUSH20 0xFFFFFFFFFFFFFFFFFFFFFFFFFFFFFFFFFFFFFFFF AND MUL OR SWAP1 SSTORE POP DUP1 PUSH20 0xFFFFFFFFFFFFFFFFFFFFFFFFFFFFFFFFFFFFFFFF AND PUSH1 0x80 DUP2 PUSH20 0xFFFFFFFFFFFFFFFFFFFFFFFFFFFFFFFFFFFFFFFF AND DUP2 MSTORE POP POP POP DUP4 PUSH1 0x1 PUSH0 PUSH2 0x100 EXP DUP2 SLOAD DUP2 PUSH20 0xFFFFFFFFFFFFFFFFFFFFFFFFFFFFFFFFFFFFFFFF MUL NOT AND SWAP1 DUP4 PUSH20 0xFFFFFFFFFFFFFFFFFFFFFFFFFFFFFFFFFFFFFFFF AND MUL OR SWAP1 SSTORE POP DUP3 PUSH1 0x2 PUSH0 PUSH2 0x100 EXP DUP2 SLOAD DUP2 PUSH20 0xFFFFFFFFFFFFFFFFFFFFFFFFFFFFFFFFFFFFFFFF MUL NOT AND SWAP1 DUP4 PUSH20 0xFFFFFFFFFFFFFFFFFFFFFFFFFFFFFFFFFFFFFFFF AND MUL OR SWAP1 SSTORE POP DUP2 PUSH1 0x4 PUSH0 PUSH2 0x100 EXP DUP2 SLOAD DUP2 PUSH20 0xFFFFFFFFFFFFFFFFFFFFFFFFFFFFFFFFFFFFFFFF MUL NOT AND SWAP1 DUP4 PUSH20 0xFFFFFFFFFFFFFFFFFFFFFFFFFFFFFFFFFFFFFFFF AND MUL OR SWAP1 SSTORE POP DUP1 PUSH1 0x3 PUSH0 PUSH2 0x100 EXP DUP2 SLOAD DUP2 PUSH20 0xFFFFFFFFFFFFFFFFFFFFFFFFFFFFFFFFFFFFFFFF MUL NOT AND SWAP1 DUP4 PUSH20 0xFFFFFFFFFFFFFFFFFFFFFFFFFFFFFFFFFFFFFFFF AND MUL OR SWAP1 SSTORE POP POP POP POP POP POP PUSH2 0x3CD JUMP JUMPDEST PUSH0 DUP1 REVERT JUMPDEST PUSH0 PUSH20 0xFFFFFFFFFFFFFFFFFFFFFFFFFFFFFFFFFFFFFFFF DUP3 AND SWAP1 POP SWAP2 SWAP1 POP JUMP JUMPDEST PUSH0 PUSH2 0x325 DUP3 PUSH2 0x2FC JUMP JUMPDEST SWAP1 POP SWAP2 SWAP1 POP JUMP JUMPDEST PUSH2 0x335 DUP2 PUSH2 0x31B JUMP JUMPDEST DUP2 EQ PUSH2 0x33F JUMPI PUSH0 DUP1 REVERT JUMPDEST POP JUMP JUMPDEST PUSH0 DUP2 MLOAD SWAP1 POP PUSH2 0x350 DUP2 PUSH2 0x32C JUMP JUMPDEST SWAP3 SWAP2 POP POP JUMP JUMPDEST PUSH0 DUP1 PUSH0 DUP1 PUSH0 PUSH1 0xA0 DUP7 DUP9 SUB SLT ISZERO PUSH2 0x36F JUMPI PUSH2 0x36E PUSH2 0x2F8 JUMP JUMPDEST JUMPDEST PUSH0 PUSH2 0x37C DUP9 DUP3 DUP10 ADD PUSH2 0x342 JUMP JUMPDEST SWAP6 POP POP PUSH1 0x20 PUSH2 0x38D DUP9 DUP3 DUP10 ADD PUSH2 0x342 JUMP JUMPDEST SWAP5 POP POP PUSH1 0x40 PUSH2 0x39E DUP9 DUP3 DUP10 ADD PUSH2 0x342 JUMP JUMPDEST SWAP4 POP POP PUSH1 0x60 PUSH2 0x3AF DUP9 DUP3 DUP10 ADD PUSH2 0x342 JUMP JUMPDEST SWAP3 POP POP PUSH1 0x80 PUSH2 0x3C0 DUP9 DUP3 DUP10 ADD PUSH2 0x342 JUMP JUMPDEST SWAP2 POP POP SWAP3 SWAP6 POP SWAP3 SWAP6 SWAP1 SWAP4 POP JUMP JUMPDEST PUSH1 0x80 MLOAD PUSH2 0x3880 PUSH2 0x3E5 PUSH0 CODECOPY PUSH0 PUSH2 0xF96 ADD MSTORE PUSH2 0x3880 PUSH0 RETURN INVALID PUSH1 0x80 PUSH1 0x40 MSTORE CALLVALUE DUP1 ISZERO PUSH2 0xF JUMPI PUSH0 DUP1 REVERT JUMPDEST POP PUSH1 0x4 CALLDATASIZE LT PUSH2 0x1EE JUMPI PUSH0 CALLDATALOAD PUSH1 0xE0 SHR DUP1 PUSH4 0x845A51EC GT PUSH2 0x10D JUMPI DUP1 PUSH4 0xBD9A3B6D GT PUSH2 0xA0 JUMPI DUP1 PUSH4 0xD339DB94 GT PUSH2 0x6F JUMPI DUP1 PUSH4 0xD339DB94 EQ PUSH2 0x55A JUMPI DUP1 PUSH4 0xF2699D59 EQ PUSH2 0x578 JUMPI DUP1 PUSH4 0xF2FDE38B EQ PUSH2 0x594 JUMPI DUP1 PUSH4 0xF851A440 EQ PUSH2 0x5B0 JUMPI PUSH2 0x1EE JUMP JUMPDEST DUP1 PUSH4 0xBD9A3B6D EQ PUSH2 0x4E6 JUMPI DUP1 PUSH4 0xCB146879 EQ PUSH2 0x502 JUMPI DUP1 PUSH4 0xCFD79D5D EQ PUSH2 0x51E JUMPI DUP1 PUSH4 0xD1FAF157 EQ PUSH2 0x53C JUMPI PUSH2 0x1EE JUMP JUMPDEST DUP1 PUSH4 0x8DA5CB5B GT PUSH2 0xDC JUMPI DUP1 PUSH4 0x8DA5CB5B EQ PUSH2 0x45E JUMPI DUP1 PUSH4 0x94DD453A EQ PUSH2 0x47C JUMPI DUP1 PUSH4 0x9F2585A1 EQ PUSH2 0x49A JUMPI DUP1 PUSH4 0xB24CF5D7 EQ PUSH2 0x4CA JUMPI PUSH2 0x1EE JUMP JUMPDEST DUP1 PUSH4 0x845A51EC EQ PUSH2 0x3EA JUMPI DUP1 PUSH4 0x8705FCD4 EQ PUSH2 0x408 JUMPI DUP1 PUSH4 0x8B225F06 EQ PUSH2 0x424 JUMPI DUP1 PUSH4 0x8C7C9E0C EQ PUSH2 0x440 JUMPI PUSH2 0x1EE JUMP JUMPDEST DUP1 PUSH4 0x3E413BEE GT PUSH2 0x185 JUMPI DUP1 PUSH4 0x5B7633D0 GT PUSH2 0x154 JUMPI DUP1 PUSH4 0x5B7633D0 EQ PUSH2 0x388 JUMPI DUP1 PUSH4 0x60F688EA EQ PUSH2 0x3A6 JUMPI DUP1 PUSH4 0x704B6C02 EQ PUSH2 0x3C4 JUMPI DUP1 PUSH4 0x715018A6 EQ PUSH2 0x3E0 JUMPI PUSH2 0x1EE JUMP JUMPDEST DUP1 PUSH4 0x3E413BEE EQ PUSH2 0x300 JUMPI DUP1 PUSH4 0x41275358 EQ PUSH2 0x31E JUMPI DUP1 PUSH4 0x572B6C05 EQ PUSH2 0x33C JUMPI DUP1 PUSH4 0x58979BFE EQ PUSH2 0x36C JUMPI PUSH2 0x1EE JUMP JUMPDEST DUP1 PUSH4 0x14754E66 GT PUSH2 0x1C1 JUMPI DUP1 PUSH4 0x14754E66 EQ PUSH2 0x276 JUMPI DUP1 PUSH4 0x228B03FA EQ PUSH2 0x294 JUMPI DUP1 PUSH4 0x2515AF37 EQ PUSH2 0x2C4 JUMPI DUP1 PUSH4 0x2F48AB7D EQ PUSH2 0x2E2 JUMPI PUSH2 0x1EE JUMP JUMPDEST DUP1 PUSH4 0x46DC166 EQ PUSH2 0x1F2 JUMPI DUP1 PUSH4 0xD3652EC EQ PUSH2 0x20E JUMPI DUP1 PUSH4 0x10B8097C EQ PUSH2 0x23E JUMPI DUP1 PUSH4 0x122C6FD7 EQ PUSH2 0x25A JUMPI JUMPDEST PUSH0 DUP1 REVERT JUMPDEST PUSH2 0x20C PUSH1 0x4 DUP1 CALLDATASIZE SUB DUP2 ADD SWAP1 PUSH2 0x207 SWAP2 SWAP1 PUSH2 0x265C JUMP JUMPDEST PUSH2 0x5CE JUMP JUMPDEST STOP JUMPDEST PUSH2 0x228 PUSH1 0x4 DUP1 CALLDATASIZE SUB DUP2 ADD SWAP1 PUSH2 0x223 SWAP2 SWAP1 PUSH2 0x27C3 JUMP JUMPDEST PUSH2 0x669 JUMP JUMPDEST PUSH1 0x40 MLOAD PUSH2 0x235 SWAP2 SWAP1 PUSH2 0x2824 JUMP JUMPDEST PUSH1 0x40 MLOAD DUP1 SWAP2 SUB SWAP1 RETURN JUMPDEST PUSH2 0x258 PUSH1 0x4 DUP1 CALLDATASIZE SUB DUP2 ADD SWAP1 PUSH2 0x253 SWAP2 SWAP1 PUSH2 0x2973 JUMP JUMPDEST PUSH2 0x7C8 JUMP JUMPDEST STOP JUMPDEST PUSH2 0x274 PUSH1 0x4 DUP1 CALLDATASIZE SUB DUP2 ADD SWAP1 PUSH2 0x26F SWAP2 SWAP1 PUSH2 0x265C JUMP JUMPDEST PUSH2 0xDEE JUMP JUMPDEST STOP JUMPDEST PUSH2 0x27E PUSH2 0xE89 JUMP JUMPDEST PUSH1 0x40 MLOAD PUSH2 0x28B SWAP2 SWAP1 PUSH2 0x2AA7 JUMP JUMPDEST PUSH1 0x40 MLOAD DUP1 SWAP2 SUB SWAP1 RETURN JUMPDEST PUSH2 0x2AE PUSH1 0x4 DUP1 CALLDATASIZE SUB DUP2 ADD SWAP1 PUSH2 0x2A9 SWAP2 SWAP1 PUSH2 0x2AC0 JUMP JUMPDEST PUSH2 0xE8F JUMP JUMPDEST PUSH1 0x40 MLOAD PUSH2 0x2BB SWAP2 SWAP1 PUSH2 0x2BB8 JUMP JUMPDEST PUSH1 0x40 MLOAD DUP1 SWAP2 SUB SWAP1 RETURN JUMPDEST PUSH2 0x2CC PUSH2 0xF1E JUMP JUMPDEST PUSH1 0x40 MLOAD PUSH2 0x2D9 SWAP2 SWAP1 PUSH2 0x2AA7 JUMP JUMPDEST PUSH1 0x40 MLOAD DUP1 SWAP2 SUB SWAP1 RETURN JUMPDEST PUSH2 0x2EA PUSH2 0xF24 JUMP JUMPDEST PUSH1 0x40 MLOAD PUSH2 0x2F7 SWAP2 SWAP1 PUSH2 0x2C2C JUMP JUMPDEST PUSH1 0x40 MLOAD DUP1 SWAP2 SUB SWAP1 RETURN JUMPDEST PUSH2 0x308 PUSH2 0xF49 JUMP JUMPDEST PUSH1 0x40 MLOAD PUSH2 0x315 SWAP2 SWAP1 PUSH2 0x2C2C JUMP JUMPDEST PUSH1 0x40 MLOAD DUP1 SWAP2 SUB SWAP1 RETURN JUMPDEST PUSH2 0x326 PUSH2 0xF6E JUMP JUMPDEST PUSH1 0x40 MLOAD PUSH2 0x333 SWAP2 SWAP1 PUSH2 0x2C54 JUMP JUMPDEST PUSH1 0x40 MLOAD DUP1 SWAP2 SUB SWAP1 RETURN JUMPDEST PUSH2 0x356 PUSH1 0x4 DUP1 CALLDATASIZE SUB DUP2 ADD SWAP1 PUSH2 0x351 SWAP2 SWAP1 PUSH2 0x265C JUMP JUMPDEST PUSH2 0xF93 JUMP JUMPDEST PUSH1 0x40 MLOAD PUSH2 0x363 SWAP2 SWAP1 PUSH2 0x2824 JUMP JUMPDEST PUSH1 0x40 MLOAD DUP1 SWAP2 SUB SWAP1 RETURN JUMPDEST PUSH2 0x386 PUSH1 0x4 DUP1 CALLDATASIZE SUB DUP2 ADD SWAP1 PUSH2 0x381 SWAP2 SWAP1 PUSH2 0x265C JUMP JUMPDEST PUSH2 0xFEA JUMP JUMPDEST STOP JUMPDEST PUSH2 0x390 PUSH2 0x1085 JUMP JUMPDEST PUSH1 0x40 MLOAD PUSH2 0x39D SWAP2 SWAP1 PUSH2 0x2C54 JUMP JUMPDEST PUSH1 0x40 MLOAD DUP1 SWAP2 SUB SWAP1 RETURN JUMPDEST PUSH2 0x3AE PUSH2 0x10AA JUMP JUMPDEST PUSH1 0x40 MLOAD PUSH2 0x3BB SWAP2 SWAP1 PUSH2 0x2AA7 JUMP JUMPDEST PUSH1 0x40 MLOAD DUP1 SWAP2 SUB SWAP1 RETURN JUMPDEST PUSH2 0x3DE PUSH1 0x4 DUP1 CALLDATASIZE SUB DUP2 ADD SWAP1 PUSH2 0x3D9 SWAP2 SWAP1 PUSH2 0x265C JUMP JUMPDEST PUSH2 0x10B0 JUMP JUMPDEST STOP JUMPDEST PUSH2 0x3E8 PUSH2 0x1149 JUMP JUMPDEST STOP JUMPDEST PUSH2 0x3F2 PUSH2 0x1242 JUMP JUMPDEST PUSH1 0x40 MLOAD PUSH2 0x3FF SWAP2 SWAP1 PUSH2 0x2C54 JUMP JUMPDEST PUSH1 0x40 MLOAD DUP1 SWAP2 SUB SWAP1 RETURN JUMPDEST PUSH2 0x422 PUSH1 0x4 DUP1 CALLDATASIZE SUB DUP2 ADD SWAP1 PUSH2 0x41D SWAP2 SWAP1 PUSH2 0x265C JUMP JUMPDEST PUSH2 0x1267 JUMP JUMPDEST STOP JUMPDEST PUSH2 0x43E PUSH1 0x4 DUP1 CALLDATASIZE SUB DUP2 ADD SWAP1 PUSH2 0x439 SWAP2 SWAP1 PUSH2 0x265C JUMP JUMPDEST PUSH2 0x1302 JUMP JUMPDEST STOP JUMPDEST PUSH2 0x448 PUSH2 0x139D JUMP JUMPDEST PUSH1 0x40 MLOAD PUSH2 0x455 SWAP2 SWAP1 PUSH2 0x2C2C JUMP JUMPDEST PUSH1 0x40 MLOAD DUP1 SWAP2 SUB SWAP1 RETURN JUMPDEST PUSH2 0x466 PUSH2 0x13C2 JUMP JUMPDEST PUSH1 0x40 MLOAD PUSH2 0x473 SWAP2 SWAP1 PUSH2 0x2C54 JUMP JUMPDEST PUSH1 0x40 MLOAD DUP1 SWAP2 SUB SWAP1 RETURN JUMPDEST PUSH2 0x484 PUSH2 0x13E5 JUMP JUMPDEST PUSH1 0x40 MLOAD PUSH2 0x491 SWAP2 SWAP1 PUSH2 0x2C2C JUMP JUMPDEST PUSH1 0x40 MLOAD DUP1 SWAP2 SUB SWAP1 RETURN JUMPDEST PUSH2 0x4B4 PUSH1 0x4 DUP1 CALLDATASIZE SUB DUP2 ADD SWAP1 PUSH2 0x4AF SWAP2 SWAP1 PUSH2 0x2C97 JUMP JUMPDEST PUSH2 0x140A JUMP JUMPDEST PUSH1 0x40 MLOAD PUSH2 0x4C1 SWAP2 SWAP1 PUSH2 0x2C54 JUMP JUMPDEST PUSH1 0x40 MLOAD DUP1 SWAP2 SUB SWAP1 RETURN JUMPDEST PUSH2 0x4E4 PUSH1 0x4 DUP1 CALLDATASIZE SUB DUP2 ADD SWAP1 PUSH2 0x4DF SWAP2 SWAP1 PUSH2 0x265C JUMP JUMPDEST PUSH2 0x1474 JUMP JUMPDEST STOP JUMPDEST PUSH2 0x500 PUSH1 0x4 DUP1 CALLDATASIZE SUB DUP2 ADD SWAP1 PUSH2 0x4FB SWAP2 SWAP1 PUSH2 0x2CF1 JUMP JUMPDEST PUSH2 0x150F JUMP JUMPDEST STOP JUMPDEST PUSH2 0x51C PUSH1 0x4 DUP1 CALLDATASIZE SUB DUP2 ADD SWAP1 PUSH2 0x517 SWAP2 SWAP1 PUSH2 0x265C JUMP JUMPDEST PUSH2 0x1597 JUMP JUMPDEST STOP JUMPDEST PUSH2 0x526 PUSH2 0x1632 JUMP JUMPDEST PUSH1 0x40 MLOAD PUSH2 0x533 SWAP2 SWAP1 PUSH2 0x2AA7 JUMP JUMPDEST PUSH1 0x40 MLOAD DUP1 SWAP2 SUB SWAP1 RETURN JUMPDEST PUSH2 0x544 PUSH2 0x1638 JUMP JUMPDEST PUSH1 0x40 MLOAD PUSH2 0x551 SWAP2 SWAP1 PUSH2 0x2AA7 JUMP JUMPDEST PUSH1 0x40 MLOAD DUP1 SWAP2 SUB SWAP1 RETURN JUMPDEST PUSH2 0x562 PUSH2 0x163E JUMP JUMPDEST PUSH1 0x40 MLOAD PUSH2 0x56F SWAP2 SWAP1 PUSH2 0x2AA7 JUMP JUMPDEST PUSH1 0x40 MLOAD DUP1 SWAP2 SUB SWAP1 RETURN JUMPDEST PUSH2 0x592 PUSH1 0x4 DUP1 CALLDATASIZE SUB DUP2 ADD SWAP1 PUSH2 0x58D SWAP2 SWAP1 PUSH2 0x2973 JUMP JUMPDEST PUSH2 0x1644 JUMP JUMPDEST STOP JUMPDEST PUSH2 0x5AE PUSH1 0x4 DUP1 CALLDATASIZE SUB DUP2 ADD SWAP1 PUSH2 0x5A9 SWAP2 SWAP1 PUSH2 0x265C JUMP JUMPDEST PUSH2 0x1D23 JUMP JUMPDEST STOP JUMPDEST PUSH2 0x5B8 PUSH2 0x1E6B JUMP JUMPDEST PUSH1 0x40 MLOAD PUSH2 0x5C5 SWAP2 SWAP1 PUSH2 0x2C54 JUMP JUMPDEST PUSH1 0x40 MLOAD DUP1 SWAP2 SUB SWAP1 RETURN JUMPDEST PUSH1 0x1 PUSH0 SWAP1 SLOAD SWAP1 PUSH2 0x100 EXP SWAP1 DIV PUSH20 0xFFFFFFFFFFFFFFFFFFFFFFFFFFFFFFFFFFFFFFFF AND PUSH20 0xFFFFFFFFFFFFFFFFFFFFFFFFFFFFFFFFFFFFFFFF AND CALLER PUSH20 0xFFFFFFFFFFFFFFFFFFFFFFFFFFFFFFFFFFFFFFFF AND EQ PUSH2 0x626 JUMPI PUSH0 DUP1 REVERT JUMPDEST DUP1 PUSH1 0x4 PUSH0 PUSH2 0x100 EXP DUP2 SLOAD DUP2 PUSH20 0xFFFFFFFFFFFFFFFFFFFFFFFFFFFFFFFFFFFFFFFF MUL NOT AND SWAP1 DUP4 PUSH20 0xFFFFFFFFFFFFFFFFFFFFFFFFFFFFFFFFFFFFFFFF AND MUL OR SWAP1 SSTORE POP POP JUMP JUMPDEST PUSH0 PUSH2 0x6A9 DUP3 PUSH1 0x40 MLOAD DUP1 PUSH1 0x40 ADD PUSH1 0x40 MSTORE DUP1 PUSH1 0x4 DUP2 MSTORE PUSH1 0x20 ADD PUSH32 0x7573647400000000000000000000000000000000000000000000000000000000 DUP2 MSTORE POP PUSH2 0x1E90 JUMP JUMPDEST DUP1 PUSH2 0x6EF JUMPI POP PUSH2 0x6EE DUP3 PUSH1 0x40 MLOAD DUP1 PUSH1 0x40 ADD PUSH1 0x40 MSTORE DUP1 PUSH1 0x4 DUP2 MSTORE PUSH1 0x20 ADD PUSH32 0x7573646300000000000000000000000000000000000000000000000000000000 DUP2 MSTORE POP PUSH2 0x1E90 JUMP JUMPDEST JUMPDEST DUP1 PUSH2 0x735 JUMPI POP PUSH2 0x734 DUP3 PUSH1 0x40 MLOAD DUP1 PUSH1 0x40 ADD PUSH1 0x40 MSTORE DUP1 PUSH1 0x3 DUP2 MSTORE PUSH1 0x20 ADD PUSH32 0x756D690000000000000000000000000000000000000000000000000000000000 DUP2 MSTORE POP PUSH2 0x1E90 JUMP JUMPDEST JUMPDEST DUP1 PUSH2 0x77B JUMPI POP PUSH2 0x77A DUP3 PUSH1 0x40 MLOAD DUP1 PUSH1 0x40 ADD PUSH1 0x40 MSTORE DUP1 PUSH1 0x9 DUP2 MSTORE PUSH1 0x20 ADD PUSH32 0x64697665706F696E740000000000000000000000000000000000000000000000 DUP2 MSTORE POP PUSH2 0x1E90 JUMP JUMPDEST JUMPDEST DUP1 PUSH2 0x7C1 JUMPI POP PUSH2 0x7C0 DUP3 PUSH1 0x40 MLOAD DUP1 PUSH1 0x40 ADD PUSH1 0x40 MSTORE DUP1 PUSH1 0x3 DUP2 MSTORE PUSH1 0x20 ADD PUSH32 0x6574680000000000000000000000000000000000000000000000000000000000 DUP2 MSTORE POP PUSH2 0x1E90 JUMP JUMPDEST JUMPDEST SWAP1 POP SWAP2 SWAP1 POP JUMP JUMPDEST PUSH2 0x7D1 CALLER PUSH2 0xF93 JUMP JUMPDEST PUSH2 0x810 JUMPI PUSH1 0x40 MLOAD PUSH32 0x8C379A000000000000000000000000000000000000000000000000000000000 DUP2 MSTORE PUSH1 0x4 ADD PUSH2 0x807 SWAP1 PUSH2 0x2DFA JUMP JUMPDEST PUSH1 0x40 MLOAD DUP1 SWAP2 SUB SWAP1 REVERT JUMPDEST PUSH0 PUSH20 0xFFFFFFFFFFFFFFFFFFFFFFFFFFFFFFFFFFFFFFFF AND DUP3 PUSH20 0xFFFFFFFFFFFFFFFFFFFFFFFFFFFFFFFFFFFFFFFF AND SUB PUSH2 0x87E JUMPI PUSH1 0x40 MLOAD PUSH32 0x8C379A000000000000000000000000000000000000000000000000000000000 DUP2 MSTORE PUSH1 0x4 ADD PUSH2 0x875 SWAP1 PUSH2 0x2E62 JUMP JUMPDEST PUSH1 0x40 MLOAD DUP1 SWAP2 SUB SWAP1 REVERT JUMPDEST PUSH2 0x890 DUP3 DUP12 DUP12 DUP12 DUP12 DUP12 DUP12 DUP12 DUP12 DUP11 PUSH2 0x1EE8 JUMP JUMPDEST PUSH2 0x8CF JUMPI PUSH1 0x40 MLOAD PUSH32 0x8C379A000000000000000000000000000000000000000000000000000000000 DUP2 MSTORE PUSH1 0x4 ADD PUSH2 0x8C6 SWAP1 PUSH2 0x2ECA JUMP JUMPDEST PUSH1 0x40 MLOAD DUP1 SWAP2 SUB SWAP1 REVERT JUMPDEST DUP7 DUP9 EQ PUSH2 0x911 JUMPI PUSH1 0x40 MLOAD PUSH32 0x8C379A000000000000000000000000000000000000000000000000000000000 DUP2 MSTORE PUSH1 0x4 ADD PUSH2 0x908 SWAP1 PUSH2 0x2F32 JUMP JUMPDEST PUSH1 0x40 MLOAD DUP1 SWAP2 SUB SWAP1 REVERT JUMPDEST PUSH0 DUP8 GT ISZERO PUSH2 0xD26 JUMPI PUSH2 0x958 DUP7 PUSH1 0x40 MLOAD DUP1 PUSH1 0x40 ADD PUSH1 0x40 MSTORE DUP1 PUSH1 0x4 DUP2 MSTORE PUSH1 0x20 ADD PUSH32 0x7573647400000000000000000000000000000000000000000000000000000000 DUP2 MSTORE POP PUSH2 0x1E90 JUMP JUMPDEST ISZERO PUSH2 0xA1C JUMPI PUSH0 PUSH20 0xFFFFFFFFFFFFFFFFFFFFFFFFFFFFFFFFFFFFFFFF AND PUSH1 0x5 PUSH0 SWAP1 SLOAD SWAP1 PUSH2 0x100 EXP SWAP1 DIV PUSH20 0xFFFFFFFFFFFFFFFFFFFFFFFFFFFFFFFFFFFFFFFF AND PUSH20 0xFFFFFFFFFFFFFFFFFFFFFFFFFFFFFFFFFFFFFFFF AND SUB PUSH2 0x9EC JUMPI PUSH1 0x40 MLOAD PUSH32 0x8C379A000000000000000000000000000000000000000000000000000000000 DUP2 MSTORE PUSH1 0x4 ADD PUSH2 0x9E3 SWAP1 PUSH2 0x2F9A JUMP JUMPDEST PUSH1 0x40 MLOAD DUP1 SWAP2 SUB SWAP1 REVERT JUMPDEST PUSH2 0xA1B PUSH1 0x5 PUSH0 SWAP1 SLOAD SWAP1 PUSH2 0x100 EXP SWAP1 DIV PUSH20 0xFFFFFFFFFFFFFFFFFFFFFFFFFFFFFFFFFFFFFFFF AND DUP4 DUP13 DUP9 DUP9 DUP13 PUSH2 0x1FBC JUMP JUMPDEST JUMPDEST PUSH2 0xA5B DUP7 PUSH1 0x40 MLOAD DUP1 PUSH1 0x40 ADD PUSH1 0x40 MSTORE DUP1 PUSH1 0x4 DUP2 MSTORE PUSH1 0x20 ADD PUSH32 0x7573646300000000000000000000000000000000000000000000000000000000 DUP2 MSTORE POP PUSH2 0x1E90 JUMP JUMPDEST ISZERO PUSH2 0xB1F JUMPI PUSH0 PUSH20 0xFFFFFFFFFFFFFFFFFFFFFFFFFFFFFFFFFFFFFFFF AND PUSH1 0x6 PUSH0 SWAP1 SLOAD SWAP1 PUSH2 0x100 EXP SWAP1 DIV PUSH20 0xFFFFFFFFFFFFFFFFFFFFFFFFFFFFFFFFFFFFFFFF AND PUSH20 0xFFFFFFFFFFFFFFFFFFFFFFFFFFFFFFFFFFFFFFFF AND SUB PUSH2 0xAEF JUMPI PUSH1 0x40 MLOAD PUSH32 0x8C379A000000000000000000000000000000000000000000000000000000000 DUP2 MSTORE PUSH1 0x4 ADD PUSH2 0xAE6 SWAP1 PUSH2 0x3002 JUMP JUMPDEST PUSH1 0x40 MLOAD DUP1 SWAP2 SUB SWAP1 REVERT JUMPDEST PUSH2 0xB1E PUSH1 0x6 PUSH0 SWAP1 SLOAD SWAP1 PUSH2 0x100 EXP SWAP1 DIV PUSH20 0xFFFFFFFFFFFFFFFFFFFFFFFFFFFFFFFFFFFFFFFF AND DUP4 DUP13 DUP9 DUP9 DUP13 PUSH2 0x1FBC JUMP JUMPDEST JUMPDEST PUSH2 0xB5E DUP7 PUSH1 0x40 MLOAD DUP1 PUSH1 0x40 ADD PUSH1 0x40 MSTORE DUP1 PUSH1 0x3 DUP2 MSTORE PUSH1 0x20 ADD PUSH32 0x6574680000000000000000000000000000000000000000000000000000000000 DUP2 MSTORE POP PUSH2 0x1E90 JUMP JUMPDEST ISZERO PUSH2 0xC22 JUMPI PUSH0 PUSH20 0xFFFFFFFFFFFFFFFFFFFFFFFFFFFFFFFFFFFFFFFF AND PUSH1 0x5 PUSH0 SWAP1 SLOAD SWAP1 PUSH2 0x100 EXP SWAP1 DIV PUSH20 0xFFFFFFFFFFFFFFFFFFFFFFFFFFFFFFFFFFFFFFFF AND PUSH20 0xFFFFFFFFFFFFFFFFFFFFFFFFFFFFFFFFFFFFFFFF AND SUB PUSH2 0xBF2 JUMPI PUSH1 0x40 MLOAD PUSH32 0x8C379A000000000000000000000000000000000000000000000000000000000 DUP2 MSTORE PUSH1 0x4 ADD PUSH2 0xBE9 SWAP1 PUSH2 0x306A JUMP JUMPDEST PUSH1 0x40 MLOAD DUP1 SWAP2 SUB SWAP1 REVERT JUMPDEST PUSH2 0xC21 PUSH1 0x8 PUSH0 SWAP1 SLOAD SWAP1 PUSH2 0x100 EXP SWAP1 DIV PUSH20 0xFFFFFFFFFFFFFFFFFFFFFFFFFFFFFFFFFFFFFFFF AND DUP4 DUP13 DUP9 DUP9 DUP13 PUSH2 0x1FBC JUMP JUMPDEST JUMPDEST PUSH2 0xC61 DUP7 PUSH1 0x40 MLOAD DUP1 PUSH1 0x40 ADD PUSH1 0x40 MSTORE DUP1 PUSH1 0x3 DUP2 MSTORE PUSH1 0x20 ADD PUSH32 0x756D690000000000000000000000000000000000000000000000000000000000 DUP2 MSTORE POP PUSH2 0x1E90 JUMP JUMPDEST ISZERO PUSH2 0xD25 JUMPI PUSH0 PUSH20 0xFFFFFFFFFFFFFFFFFFFFFFFFFFFFFFFFFFFFFFFF AND PUSH1 0x7 PUSH0 SWAP1 SLOAD SWAP1 PUSH2 0x100 EXP SWAP1 DIV PUSH20 0xFFFFFFFFFFFFFFFFFFFFFFFFFFFFFFFFFFFFFFFF AND PUSH20 0xFFFFFFFFFFFFFFFFFFFFFFFFFFFFFFFFFFFFFFFF AND SUB PUSH2 0xCF5 JUMPI PUSH1 0x40 MLOAD PUSH32 0x8C379A000000000000000000000000000000000000000000000000000000000 DUP2 MSTORE PUSH1 0x4 ADD PUSH2 0xCEC SWAP1 PUSH2 0x30D2 JUMP JUMPDEST PUSH1 0x40 MLOAD DUP1 SWAP2 SUB SWAP1 REVERT JUMPDEST PUSH2 0xD24 PUSH1 0x7 PUSH0 SWAP1 SLOAD SWAP1 PUSH2 0x100 EXP SWAP1 DIV PUSH20 0xFFFFFFFFFFFFFFFFFFFFFFFFFFFFFFFFFFFFFFFF AND DUP4 DUP13 DUP9 DUP9 DUP13 PUSH2 0x1FBC JUMP JUMPDEST JUMPDEST JUMPDEST PUSH1 0x60 DUP12 PUSH20 0xFFFFFFFFFFFFFFFFFFFFFFFFFFFFFFFFFFFFFFFF AND PUSH4 0xB88D4FDE DUP13 DUP6 DUP14 DUP6 PUSH1 0x40 MLOAD DUP6 PUSH4 0xFFFFFFFF AND PUSH1 0xE0 SHL DUP2 MSTORE PUSH1 0x4 ADD PUSH2 0xD67 SWAP5 SWAP4 SWAP3 SWAP2 SWAP1 PUSH2 0x3150 JUMP JUMPDEST PUSH0 PUSH1 0x40 MLOAD DUP1 DUP4 SUB DUP2 PUSH0 DUP8 DUP1 EXTCODESIZE ISZERO DUP1 ISZERO PUSH2 0xD7E JUMPI PUSH0 DUP1 REVERT JUMPDEST POP GAS CALL ISZERO DUP1 ISZERO PUSH2 0xD90 JUMPI RETURNDATASIZE PUSH0 DUP1 RETURNDATACOPY RETURNDATASIZE PUSH0 REVERT JUMPDEST POP POP POP POP PUSH32 0xFF8E373201D0E8EAD3E3A60928E02004C2BCB407405F2F21E95283617F8B350C PUSH4 0x5F5E100 DUP12 PUSH2 0xDC5 SWAP2 SWAP1 PUSH2 0x31C7 JUMP JUMPDEST DUP11 DUP14 DUP7 PUSH1 0x40 MLOAD PUSH2 0xDD8 SWAP5 SWAP4 SWAP3 SWAP2 SWAP1 PUSH2 0x3208 JUMP JUMPDEST PUSH1 0x40 MLOAD DUP1 SWAP2 SUB SWAP1 LOG1 POP POP POP POP POP POP POP POP POP POP POP POP JUMP JUMPDEST PUSH1 0x1 PUSH0 SWAP1 SLOAD SWAP1 PUSH2 0x100 EXP SWAP1 DIV PUSH20 0xFFFFFFFFFFFFFFFFFFFFFFFFFFFFFFFFFFFFFFFF AND PUSH20 0xFFFFFFFFFFFFFFFFFFFFFFFFFFFFFFFFFFFFFFFF AND CALLER PUSH20 0xFFFFFFFFFFFFFFFFFFFFFFFFFFFFFFFFFFFFFFFF AND EQ PUSH2 0xE46 JUMPI PUSH0 DUP1 REVERT JUMPDEST DUP1 PUSH1 0x8 PUSH0 PUSH2 0x100 EXP DUP2 SLOAD DUP2 PUSH20 0xFFFFFFFFFFFFFFFFFFFFFFFFFFFFFFFFFFFFFFFF MUL NOT AND SWAP1 DUP4 PUSH20 0xFFFFFFFFFFFFFFFFFFFFFFFFFFFFFFFFFFFFFFFF AND MUL OR SWAP1 SSTORE POP POP JUMP JUMPDEST PUSH1 0xB SLOAD DUP2 JUMP JUMPDEST PUSH0 PUSH2 0xE99 DUP6 PUSH2 0x669 JUMP JUMPDEST PUSH2 0xED8 JUMPI PUSH1 0x40 MLOAD PUSH32 0x8C379A000000000000000000000000000000000000000000000000000000000 DUP2 MSTORE PUSH1 0x4 ADD PUSH2 0xECF SWAP1 PUSH2 0x3295 JUMP JUMPDEST PUSH1 0x40 MLOAD DUP1 SWAP2 SUB SWAP1 REVERT JUMPDEST DUP10 DUP10 DUP10 DUP10 DUP10 DUP10 DUP10 DUP10 DUP10 PUSH1 0x40 MLOAD PUSH1 0x20 ADD PUSH2 0xEF9 SWAP10 SWAP9 SWAP8 SWAP7 SWAP6 SWAP5 SWAP4 SWAP3 SWAP2 SWAP1 PUSH2 0x33A1 JUMP JUMPDEST PUSH1 0x40 MLOAD PUSH1 0x20 DUP2 DUP4 SUB SUB DUP2 MSTORE SWAP1 PUSH1 0x40 MSTORE DUP1 MLOAD SWAP1 PUSH1 0x20 ADD KECCAK256 SWAP1 POP SWAP10 SWAP9 POP POP POP POP POP POP POP POP POP JUMP JUMPDEST PUSH1 0xE SLOAD DUP2 JUMP JUMPDEST PUSH1 0x5 PUSH0 SWAP1 SLOAD SWAP1 PUSH2 0x100 EXP SWAP1 DIV PUSH20 0xFFFFFFFFFFFFFFFFFFFFFFFFFFFFFFFFFFFFFFFF AND DUP2 JUMP JUMPDEST PUSH1 0x6 PUSH0 SWAP1 SLOAD SWAP1 PUSH2 0x100 EXP SWAP1 DIV PUSH20 0xFFFFFFFFFFFFFFFFFFFFFFFFFFFFFFFFFFFFFFFF AND DUP2 JUMP JUMPDEST PUSH1 0x2 PUSH0 SWAP1 SLOAD SWAP1 PUSH2 0x100 EXP SWAP1 DIV PUSH20 0xFFFFFFFFFFFFFFFFFFFFFFFFFFFFFFFFFFFFFFFF AND DUP2 JUMP JUMPDEST PUSH0 PUSH32 0x0 PUSH20 0xFFFFFFFFFFFFFFFFFFFFFFFFFFFFFFFFFFFFFFFF AND DUP3 PUSH20 0xFFFFFFFFFFFFFFFFFFFFFFFFFFFFFFFFFFFFFFFF AND EQ SWAP1 POP SWAP2 SWAP1 POP JUMP JUMPDEST PUSH1 0x1 PUSH0 SWAP1 SLOAD SWAP1 PUSH2 0x100 EXP SWAP1 DIV PUSH20 0xFFFFFFFFFFFFFFFFFFFFFFFFFFFFFFFFFFFFFFFF AND PUSH20 0xFFFFFFFFFFFFFFFFFFFFFFFFFFFFFFFFFFFFFFFF AND CALLER PUSH20 0xFFFFFFFFFFFFFFFFFFFFFFFFFFFFFFFFFFFFFFFF AND EQ PUSH2 0x1042 JUMPI PUSH0 DUP1 REVERT JUMPDEST DUP1 PUSH1 0x5 PUSH0 PUSH2 0x100 EXP DUP2 SLOAD DUP2 PUSH20 0xFFFFFFFFFFFFFFFFFFFFFFFFFFFFFFFFFFFFFFFF MUL NOT AND SWAP1 DUP4 PUSH20 0xFFFFFFFFFFFFFFFFFFFFFFFFFFFFFFFFFFFFFFFF AND MUL OR SWAP1 SSTORE POP POP JUMP JUMPDEST PUSH1 0x4 PUSH0 SWAP1 SLOAD SWAP1 PUSH2 0x100 EXP SWAP1 DIV PUSH20 0xFFFFFFFFFFFFFFFFFFFFFFFFFFFFFFFFFFFFFFFF AND DUP2 JUMP JUMPDEST PUSH1 0xC SLOAD DUP2 JUMP JUMPDEST PUSH0 DUP1 SLOAD SWAP1 PUSH2 0x100 EXP SWAP1 DIV PUSH20 0xFFFFFFFFFFFFFFFFFFFFFFFFFFFFFFFFFFFFFFFF AND PUSH20 0xFFFFFFFFFFFFFFFFFFFFFFFFFFFFFFFFFFFFFFFF AND CALLER PUSH20 0xFFFFFFFFFFFFFFFFFFFFFFFFFFFFFFFFFFFFFFFF AND EQ PUSH2 0x1106 JUMPI PUSH0 DUP1 REVERT JUMPDEST DUP1 PUSH1 0x1 PUSH0 PUSH2 0x100 EXP DUP2 SLOAD DUP2 PUSH20 0xFFFFFFFFFFFFFFFFFFFFFFFFFFFFFFFFFFFFFFFF MUL NOT AND SWAP1 DUP4 PUSH20 0xFFFFFFFFFFFFFFFFFFFFFFFFFFFFFFFFFFFFFFFF AND MUL OR SWAP1 SSTORE POP POP JUMP JUMPDEST PUSH0 DUP1 SLOAD SWAP1 PUSH2 0x100 EXP SWAP1 DIV PUSH20 0xFFFFFFFFFFFFFFFFFFFFFFFFFFFFFFFFFFFFFFFF AND PUSH20 0xFFFFFFFFFFFFFFFFFFFFFFFFFFFFFFFFFFFFFFFF AND CALLER PUSH20 0xFFFFFFFFFFFFFFFFFFFFFFFFFFFFFFFFFFFFFFFF AND EQ PUSH2 0x119F JUMPI PUSH0 DUP1 REVERT JUMPDEST PUSH0 DUP1 SLOAD SWAP1 PUSH2 0x100 EXP SWAP1 DIV PUSH20 0xFFFFFFFFFFFFFFFFFFFFFFFFFFFFFFFFFFFFFFFF AND PUSH20 0xFFFFFFFFFFFFFFFFFFFFFFFFFFFFFFFFFFFFFFFF AND PUSH32 0xF8DF31144D9C2F0F6B59D69B8B98ABD5459D07F2742C4DF920B25AAE33C64820 PUSH1 0x40 MLOAD PUSH1 0x40 MLOAD DUP1 SWAP2 SUB SWAP1 LOG2 PUSH0 DUP1 PUSH0 PUSH2 0x100 EXP DUP2 SLOAD DUP2 PUSH20 0xFFFFFFFFFFFFFFFFFFFFFFFFFFFFFFFFFFFFFFFF MUL NOT AND SWAP1 DUP4 PUSH20 0xFFFFFFFFFFFFFFFFFFFFFFFFFFFFFFFFFFFFFFFF AND MUL OR SWAP1 SSTORE POP JUMP JUMPDEST PUSH1 0x3 PUSH0 SWAP1 SLOAD SWAP1 PUSH2 0x100 EXP SWAP1 DIV PUSH20 0xFFFFFFFFFFFFFFFFFFFFFFFFFFFFFFFFFFFFFFFF AND DUP2 JUMP JUMPDEST PUSH1 0x1 PUSH0 SWAP1 SLOAD SWAP1 PUSH2 0x100 EXP SWAP1 DIV PUSH20 0xFFFFFFFFFFFFFFFFFFFFFFFFFFFFFFFFFFFFFFFF AND PUSH20 0xFFFFFFFFFFFFFFFFFFFFFFFFFFFFFFFFFFFFFFFF AND CALLER PUSH20 0xFFFFFFFFFFFFFFFFFFFFFFFFFFFFFFFFFFFFFFFF AND EQ PUSH2 0x12BF JUMPI PUSH0 DUP1 REVERT JUMPDEST DUP1 PUSH1 0x2 PUSH0 PUSH2 0x100 EXP DUP2 SLOAD DUP2 PUSH20 0xFFFFFFFFFFFFFFFFFFFFFFFFFFFFFFFFFFFFFFFF MUL NOT AND SWAP1 DUP4 PUSH20 0xFFFFFFFFFFFFFFFFFFFFFFFFFFFFFFFFFFFFFFFF AND MUL OR SWAP1 SSTORE POP POP JUMP JUMPDEST PUSH1 0x1 PUSH0 SWAP1 SLOAD SWAP1 PUSH2 0x100 EXP SWAP1 DIV PUSH20 0xFFFFFFFFFFFFFFFFFFFFFFFFFFFFFFFFFFFFFFFF AND PUSH20 0xFFFFFFFFFFFFFFFFFFFFFFFFFFFFFFFFFFFFFFFF AND CALLER PUSH20 0xFFFFFFFFFFFFFFFFFFFFFFFFFFFFFFFFFFFFFFFF AND EQ PUSH2 0x135A JUMPI PUSH0 DUP1 REVERT JUMPDEST DUP1 PUSH1 0x7 PUSH0 PUSH2 0x100 EXP DUP2 SLOAD DUP2 PUSH20 0xFFFFFFFFFFFFFFFFFFFFFFFFFFFFFFFFFFFFFFFF MUL NOT AND SWAP1 DUP4 PUSH20 0xFFFFFFFFFFFFFFFFFFFFFFFFFFFFFFFFFFFFFFFF AND MUL OR SWAP1 SSTORE POP POP JUMP JUMPDEST PUSH1 0x8 PUSH0 SWAP1 SLOAD SWAP1 PUSH2 0x100 EXP SWAP1 DIV PUSH20 0xFFFFFFFFFFFFFFFFFFFFFFFFFFFFFFFFFFFFFFFF AND DUP2 JUMP JUMPDEST PUSH0 DUP1 SLOAD SWAP1 PUSH2 0x100 EXP SWAP1 DIV PUSH20 0xFFFFFFFFFFFFFFFFFFFFFFFFFFFFFFFFFFFFFFFF AND DUP2 JUMP JUMPDEST PUSH1 0x7 PUSH0 SWAP1 SLOAD SWAP1 PUSH2 0x100 EXP SWAP1 DIV PUSH20 0xFFFFFFFFFFFFFFFFFFFFFFFFFFFFFFFFFFFFFFFF AND DUP2 JUMP JUMPDEST PUSH0 DUP1 PUSH0 DUP1 PUSH2 0x1417 DUP6 PUSH2 0x23D2 JUMP JUMPDEST SWAP3 POP SWAP3 POP SWAP3 POP PUSH1 0x1 DUP7 DUP3 DUP6 DUP6 PUSH1 0x40 MLOAD PUSH0 DUP2 MSTORE PUSH1 0x20 ADD PUSH1 0x40 MSTORE PUSH1 0x40 MLOAD PUSH2 0x143F SWAP5 SWAP4 SWAP3 SWAP2 SWAP1 PUSH2 0x345A JUMP JUMPDEST PUSH1 0x20 PUSH1 0x40 MLOAD PUSH1 0x20 DUP2 SUB SWAP1 DUP1 DUP5 SUB SWAP1 DUP6 GAS STATICCALL ISZERO DUP1 ISZERO PUSH2 0x145F JUMPI RETURNDATASIZE PUSH0 DUP1 RETURNDATACOPY RETURNDATASIZE PUSH0 REVERT JUMPDEST POP POP POP PUSH1 0x20 PUSH1 0x40 MLOAD SUB MLOAD SWAP4 POP POP POP POP SWAP3 SWAP2 POP POP JUMP JUMPDEST PUSH1 0x1 PUSH0 SWAP1 SLOAD SWAP1 PUSH2 0x100 EXP SWAP1 DIV PUSH20 0xFFFFFFFFFFFFFFFFFFFFFFFFFFFFFFFFFFFFFFFF AND PUSH20 0xFFFFFFFFFFFFFFFFFFFFFFFFFFFFFFFFFFFFFFFF AND CALLER PUSH20 0xFFFFFFFFFFFFFFFFFFFFFFFFFFFFFFFFFFFFFFFF AND EQ PUSH2 0x14CC JUMPI PUSH0 DUP1 REVERT JUMPDEST DUP1 PUSH1 0x3 PUSH0 PUSH2 0x100 EXP DUP2 SLOAD DUP2 PUSH20 0xFFFFFFFFFFFFFFFFFFFFFFFFFFFFFFFFFFFFFFFF MUL NOT AND SWAP1 DUP4 PUSH20 0xFFFFFFFFFFFFFFFFFFFFFFFFFFFFFFFFFFFFFFFF AND MUL OR SWAP1 SSTORE POP POP JUMP JUMPDEST PUSH0 DUP1 SLOAD SWAP1 PUSH2 0x100 EXP SWAP1 DIV PUSH20 0xFFFFFFFFFFFFFFFFFFFFFFFFFFFFFFFFFFFFFFFF AND PUSH20 0xFFFFFFFFFFFFFFFFFFFFFFFFFFFFFFFFFFFFFFFF AND CALLER PUSH20 0xFFFFFFFFFFFFFFFFFFFFFFFFFFFFFFFFFFFFFFFF AND EQ PUSH2 0x1565 JUMPI PUSH0 DUP1 REVERT JUMPDEST DUP6 PUSH1 0x9 DUP2 SWAP1 SSTORE POP DUP5 PUSH1 0xA DUP2 SWAP1 SSTORE POP DUP4 PUSH1 0xB DUP2 SWAP1 SSTORE POP DUP3 PUSH1 0xC DUP2 SWAP1 SSTORE POP DUP2 PUSH1 0xD DUP2 SWAP1 SSTORE POP DUP1 PUSH1 0xE DUP2 SWAP1 SSTORE POP POP POP POP POP POP POP JUMP JUMPDEST PUSH1 0x1 PUSH0 SWAP1 SLOAD SWAP1 PUSH2 0x100 EXP SWAP1 DIV PUSH20 0xFFFFFFFFFFFFFFFFFFFFFFFFFFFFFFFFFFFFFFFF AND PUSH20 0xFFFFFFFFFFFFFFFFFFFFFFFFFFFFFFFFFFFFFFFF AND CALLER PUSH20 0xFFFFFFFFFFFFFFFFFFFFFFFFFFFFFFFFFFFFFFFF AND EQ PUSH2 0x15EF JUMPI PUSH0 DUP1 REVERT JUMPDEST DUP1 PUSH1 0x6 PUSH0 PUSH2 0x100 EXP DUP2 SLOAD DUP2 PUSH20 0xFFFFFFFFFFFFFFFFFFFFFFFFFFFFFFFFFFFFFFFF MUL NOT AND SWAP1 DUP4 PUSH20 0xFFFFFFFFFFFFFFFFFFFFFFFFFFFFFFFFFFFFFFFF AND MUL OR SWAP1 SSTORE POP POP JUMP JUMPDEST PUSH1 0xD SLOAD DUP2 JUMP JUMPDEST PUSH1 0x9 SLOAD DUP2 JUMP JUMPDEST PUSH1 0xA SLOAD DUP2 JUMP JUMPDEST PUSH2 0x164D CALLER PUSH2 0xF93 JUMP JUMPDEST PUSH2 0x168C JUMPI PUSH1 0x40 MLOAD PUSH32 0x8C379A000000000000000000000000000000000000000000000000000000000 DUP2 MSTORE PUSH1 0x4 ADD PUSH2 0x1683 SWAP1 PUSH2 0x2DFA JUMP JUMPDEST PUSH1 0x40 MLOAD DUP1 SWAP2 SUB SWAP1 REVERT JUMPDEST PUSH0 PUSH20 0xFFFFFFFFFFFFFFFFFFFFFFFFFFFFFFFFFFFFFFFF AND DUP11 PUSH20 0xFFFFFFFFFFFFFFFFFFFFFFFFFFFFFFFFFFFFFFFF AND SUB PUSH2 0x16FA JUMPI PUSH1 0x40 MLOAD PUSH32 0x8C379A000000000000000000000000000000000000000000000000000000000 DUP2 MSTORE PUSH1 0x4 ADD PUSH2 0x16F1 SWAP1 PUSH2 0x2E62 JUMP JUMPDEST PUSH1 0x40 MLOAD DUP1 SWAP2 SUB SWAP1 REVERT JUMPDEST PUSH2 0x170C DUP11 DUP4 DUP12 DUP12 DUP12 DUP12 DUP12 DUP12 DUP12 DUP11 PUSH2 0x1EE8 JUMP JUMPDEST PUSH2 0x174B JUMPI PUSH1 0x40 MLOAD PUSH32 0x8C379A000000000000000000000000000000000000000000000000000000000 DUP2 MSTORE PUSH1 0x4 ADD PUSH2 0x1742 SWAP1 PUSH2 0x2ECA JUMP JUMPDEST PUSH1 0x40 MLOAD DUP1 SWAP2 SUB SWAP1 REVERT JUMPDEST DUP7 DUP9 EQ PUSH2 0x178D JUMPI PUSH1 0x40 MLOAD PUSH32 0x8C379A000000000000000000000000000000000000000000000000000000000 DUP2 MSTORE PUSH1 0x4 ADD PUSH2 0x1784 SWAP1 PUSH2 0x2F32 JUMP JUMPDEST PUSH1 0x40 MLOAD DUP1 SWAP2 SUB SWAP1 REVERT JUMPDEST PUSH0 DUP8 GT ISZERO PUSH2 0x1BA2 JUMPI PUSH2 0x17D4 DUP7 PUSH1 0x40 MLOAD DUP1 PUSH1 0x40 ADD PUSH1 0x40 MSTORE DUP1 PUSH1 0x4 DUP2 MSTORE PUSH1 0x20 ADD PUSH32 0x7573647400000000000000000000000000000000000000000000000000000000 DUP2 MSTORE POP PUSH2 0x1E90 JUMP JUMPDEST ISZERO PUSH2 0x1898 JUMPI PUSH0 PUSH20 0xFFFFFFFFFFFFFFFFFFFFFFFFFFFFFFFFFFFFFFFF AND PUSH1 0x5 PUSH0 SWAP1 SLOAD SWAP1 PUSH2 0x100 EXP SWAP1 DIV PUSH20 0xFFFFFFFFFFFFFFFFFFFFFFFFFFFFFFFFFFFFFFFF AND PUSH20 0xFFFFFFFFFFFFFFFFFFFFFFFFFFFFFFFFFFFFFFFF AND SUB PUSH2 0x1868 JUMPI PUSH1 0x40 MLOAD PUSH32 0x8C379A000000000000000000000000000000000000000000000000000000000 DUP2 MSTORE PUSH1 0x4 ADD PUSH2 0x185F SWAP1 PUSH2 0x2F9A JUMP JUMPDEST PUSH1 0x40 MLOAD DUP1 SWAP2 SUB SWAP1 REVERT JUMPDEST PUSH2 0x1897 PUSH1 0x5 PUSH0 SWAP1 SLOAD SWAP1 PUSH2 0x100 EXP SWAP1 DIV PUSH20 0xFFFFFFFFFFFFFFFFFFFFFFFFFFFFFFFFFFFFFFFF AND DUP12 DUP5 DUP9 DUP9 DUP13 PUSH2 0x1FBC JUMP JUMPDEST JUMPDEST PUSH2 0x18D7 DUP7 PUSH1 0x40 MLOAD DUP1 PUSH1 0x40 ADD PUSH1 0x40 MSTORE DUP1 PUSH1 0x4 DUP2 MSTORE PUSH1 0x20 ADD PUSH32 0x7573646300000000000000000000000000000000000000000000000000000000 DUP2 MSTORE POP PUSH2 0x1E90 JUMP JUMPDEST ISZERO PUSH2 0x199B JUMPI PUSH0 PUSH20 0xFFFFFFFFFFFFFFFFFFFFFFFFFFFFFFFFFFFFFFFF AND PUSH1 0x6 PUSH0 SWAP1 SLOAD SWAP1 PUSH2 0x100 EXP SWAP1 DIV PUSH20 0xFFFFFFFFFFFFFFFFFFFFFFFFFFFFFFFFFFFFFFFF AND PUSH20 0xFFFFFFFFFFFFFFFFFFFFFFFFFFFFFFFFFFFFFFFF AND SUB PUSH2 0x196B JUMPI PUSH1 0x40 MLOAD PUSH32 0x8C379A000000000000000000000000000000000000000000000000000000000 DUP2 MSTORE PUSH1 0x4 ADD PUSH2 0x1962 SWAP1 PUSH2 0x3002 JUMP JUMPDEST PUSH1 0x40 MLOAD DUP1 SWAP2 SUB SWAP1 REVERT JUMPDEST PUSH2 0x199A PUSH1 0x6 PUSH0 SWAP1 SLOAD SWAP1 PUSH2 0x100 EXP SWAP1 DIV PUSH20 0xFFFFFFFFFFFFFFFFFFFFFFFFFFFFFFFFFFFFFFFF AND DUP12 DUP5 DUP9 DUP9 DUP13 PUSH2 0x1FBC JUMP JUMPDEST JUMPDEST PUSH2 0x19DA DUP7 PUSH1 0x40 MLOAD DUP1 PUSH1 0x40 ADD PUSH1 0x40 MSTORE DUP1 PUSH1 0x3 DUP2 MSTORE PUSH1 0x20 ADD PUSH32 0x6574680000000000000000000000000000000000000000000000000000000000 DUP2 MSTORE POP PUSH2 0x1E90 JUMP JUMPDEST ISZERO PUSH2 0x1A9E JUMPI PUSH0 PUSH20 0xFFFFFFFFFFFFFFFFFFFFFFFFFFFFFFFFFFFFFFFF AND PUSH1 0x8 PUSH0 SWAP1 SLOAD SWAP1 PUSH2 0x100 EXP SWAP1 DIV PUSH20 0xFFFFFFFFFFFFFFFFFFFFFFFFFFFFFFFFFFFFFFFF AND PUSH20 0xFFFFFFFFFFFFFFFFFFFFFFFFFFFFFFFFFFFFFFFF AND SUB PUSH2 0x1A6E JUMPI PUSH1 0x40 MLOAD PUSH32 0x8C379A000000000000000000000000000000000000000000000000000000000 DUP2 MSTORE PUSH1 0x4 ADD PUSH2 0x1A65 SWAP1 PUSH2 0x306A JUMP JUMPDEST PUSH1 0x40 MLOAD DUP1 SWAP2 SUB SWAP1 REVERT JUMPDEST PUSH2 0x1A9D PUSH1 0x8 PUSH0 SWAP1 SLOAD SWAP1 PUSH2 0x100 EXP SWAP1 DIV PUSH20 0xFFFFFFFFFFFFFFFFFFFFFFFFFFFFFFFFFFFFFFFF AND DUP12 DUP5 DUP9 DUP9 DUP13 PUSH2 0x1FBC JUMP JUMPDEST JUMPDEST PUSH2 0x1ADD DUP7 PUSH1 0x40 MLOAD DUP1 PUSH1 0x40 ADD PUSH1 0x40 MSTORE DUP1 PUSH1 0x3 DUP2 MSTORE PUSH1 0x20 ADD PUSH32 0x756D690000000000000000000000000000000000000000000000000000000000 DUP2 MSTORE POP PUSH2 0x1E90 JUMP JUMPDEST ISZERO PUSH2 0x1BA1 JUMPI PUSH0 PUSH20 0xFFFFFFFFFFFFFFFFFFFFFFFFFFFFFFFFFFFFFFFF AND PUSH1 0x7 PUSH0 SWAP1 SLOAD SWAP1 PUSH2 0x100 EXP SWAP1 DIV PUSH20 0xFFFFFFFFFFFFFFFFFFFFFFFFFFFFFFFFFFFFFFFF AND PUSH20 0xFFFFFFFFFFFFFFFFFFFFFFFFFFFFFFFFFFFFFFFF AND SUB PUSH2 0x1B71 JUMPI PUSH1 0x40 MLOAD PUSH32 0x8C379A000000000000000000000000000000000000000000000000000000000 DUP2 MSTORE PUSH1 0x4 ADD PUSH2 0x1B68 SWAP1 PUSH2 0x30D2 JUMP JUMPDEST PUSH1 0x40 MLOAD DUP1 SWAP2 SUB SWAP1 REVERT JUMPDEST PUSH2 0x1BA0 PUSH1 0x7 PUSH0 SWAP1 SLOAD SWAP1 PUSH2 0x100 EXP SWAP1 DIV PUSH20 0xFFFFFFFFFFFFFFFFFFFFFFFFFFFFFFFFFFFFFFFF AND DUP12 DUP5 DUP9 DUP9 DUP13 PUSH2 0x1FBC JUMP JUMPDEST JUMPDEST JUMPDEST PUSH1 0x60 DUP12 PUSH20 0xFFFFFFFFFFFFFFFFFFFFFFFFFFFFFFFFFFFFFFFF AND PUSH4 0xE985E9C5 DUP5 ADDRESS PUSH1 0x40 MLOAD DUP4 PUSH4 0xFFFFFFFF AND PUSH1 0xE0 SHL DUP2 MSTORE PUSH1 0x4 ADD PUSH2 0x1BDF SWAP3 SWAP2 SWAP1 PUSH2 0x349D JUMP JUMPDEST PUSH1 0x20 PUSH1 0x40 MLOAD DUP1 DUP4 SUB DUP2 DUP7 GAS STATICCALL ISZERO DUP1 ISZERO PUSH2 0x1BFA JUMPI RETURNDATASIZE PUSH0 DUP1 RETURNDATACOPY RETURNDATASIZE PUSH0 REVERT JUMPDEST POP POP POP POP PUSH1 0x40 MLOAD RETURNDATASIZE PUSH1 0x1F NOT PUSH1 0x1F DUP3 ADD AND DUP3 ADD DUP1 PUSH1 0x40 MSTORE POP DUP2 ADD SWAP1 PUSH2 0x1C1E SWAP2 SWAP1 PUSH2 0x34D8 JUMP JUMPDEST PUSH2 0x1C5D JUMPI PUSH1 0x40 MLOAD PUSH32 0x8C379A000000000000000000000000000000000000000000000000000000000 DUP2 MSTORE PUSH1 0x4 ADD PUSH2 0x1C54 SWAP1 PUSH2 0x354D JUMP JUMPDEST PUSH1 0x40 MLOAD DUP1 SWAP2 SUB SWAP1 REVERT JUMPDEST DUP12 PUSH20 0xFFFFFFFFFFFFFFFFFFFFFFFFFFFFFFFFFFFFFFFF AND PUSH4 0xB88D4FDE DUP5 DUP14 DUP14 DUP6 PUSH1 0x40 MLOAD DUP6 PUSH4 0xFFFFFFFF AND PUSH1 0xE0 SHL DUP2 MSTORE PUSH1 0x4 ADD PUSH2 0x1C9C SWAP5 SWAP4 SWAP3 SWAP2 SWAP1 PUSH2 0x3150 JUMP JUMPDEST PUSH0 PUSH1 0x40 MLOAD DUP1 DUP4 SUB DUP2 PUSH0 DUP8 DUP1 EXTCODESIZE ISZERO DUP1 ISZERO PUSH2 0x1CB3 JUMPI PUSH0 DUP1 REVERT JUMPDEST POP GAS CALL ISZERO DUP1 ISZERO PUSH2 0x1CC5 JUMPI RETURNDATASIZE PUSH0 DUP1 RETURNDATACOPY RETURNDATASIZE PUSH0 REVERT JUMPDEST POP POP POP POP PUSH32 0x73EE6083753970C82CF2D93FF7BB0432E00E0155C4096741EA134C74F67EB02B PUSH4 0x5F5E100 DUP12 PUSH2 0x1CFA SWAP2 SWAP1 PUSH2 0x31C7 JUMP JUMPDEST DUP11 DUP14 DUP7 PUSH1 0x40 MLOAD PUSH2 0x1D0D SWAP5 SWAP4 SWAP3 SWAP2 SWAP1 PUSH2 0x3208 JUMP JUMPDEST PUSH1 0x40 MLOAD DUP1 SWAP2 SUB SWAP1 LOG1 POP POP POP POP POP POP POP POP POP POP POP POP JUMP JUMPDEST PUSH0 DUP1 SLOAD SWAP1 PUSH2 0x100 EXP SWAP1 DIV PUSH20 0xFFFFFFFFFFFFFFFFFFFFFFFFFFFFFFFFFFFFFFFF AND PUSH20 0xFFFFFFFFFFFFFFFFFFFFFFFFFFFFFFFFFFFFFFFF AND CALLER PUSH20 0xFFFFFFFFFFFFFFFFFFFFFFFFFFFFFFFFFFFFFFFF AND EQ PUSH2 0x1D79 JUMPI PUSH0 DUP1 REVERT JUMPDEST PUSH0 PUSH20 0xFFFFFFFFFFFFFFFFFFFFFFFFFFFFFFFFFFFFFFFF AND DUP2 PUSH20 0xFFFFFFFFFFFFFFFFFFFFFFFFFFFFFFFFFFFFFFFF AND SUB PUSH2 0x1DB0 JUMPI PUSH0 DUP1 REVERT JUMPDEST DUP1 PUSH20 0xFFFFFFFFFFFFFFFFFFFFFFFFFFFFFFFFFFFFFFFF AND PUSH0 DUP1 SLOAD SWAP1 PUSH2 0x100 EXP SWAP1 DIV PUSH20 0xFFFFFFFFFFFFFFFFFFFFFFFFFFFFFFFFFFFFFFFF AND PUSH20 0xFFFFFFFFFFFFFFFFFFFFFFFFFFFFFFFFFFFFFFFF AND PUSH32 0x8BE0079C531659141344CD1FD0A4F28419497F9722A3DAAFE3B4186F6B6457E0 PUSH1 0x40 MLOAD PUSH1 0x40 MLOAD DUP1 SWAP2 SUB SWAP1 LOG3 DUP1 PUSH0 DUP1 PUSH2 0x100 EXP DUP2 SLOAD DUP2 PUSH20 0xFFFFFFFFFFFFFFFFFFFFFFFFFFFFFFFFFFFFFFFF MUL NOT AND SWAP1 DUP4 PUSH20 0xFFFFFFFFFFFFFFFFFFFFFFFFFFFFFFFFFFFFFFFF AND MUL OR SWAP1 SSTORE POP POP JUMP JUMPDEST PUSH1 0x1 PUSH0 SWAP1 SLOAD SWAP1 PUSH2 0x100 EXP SWAP1 DIV PUSH20 0xFFFFFFFFFFFFFFFFFFFFFFFFFFFFFFFFFFFFFFFF AND DUP2 JUMP JUMPDEST PUSH0 DUP2 PUSH1 0x40 MLOAD PUSH1 0x20 ADD PUSH2 0x1EA2 SWAP2 SWAP1 PUSH2 0x356B JUMP JUMPDEST PUSH1 0x40 MLOAD PUSH1 0x20 DUP2 DUP4 SUB SUB DUP2 MSTORE SWAP1 PUSH1 0x40 MSTORE DUP1 MLOAD SWAP1 PUSH1 0x20 ADD KECCAK256 DUP4 PUSH1 0x40 MLOAD PUSH1 0x20 ADD PUSH2 0x1EC9 SWAP2 SWAP1 PUSH2 0x356B JUMP JUMPDEST PUSH1 0x40 MLOAD PUSH1 0x20 DUP2 DUP4 SUB SUB DUP2 MSTORE SWAP1 PUSH1 0x40 MSTORE DUP1 MLOAD SWAP1 PUSH1 0x20 ADD KECCAK256 EQ SWAP1 POP SWAP3 SWAP2 POP POP JUMP JUMPDEST PUSH0 PUSH2 0x1EF2 DUP7 PUSH2 0x669 JUMP JUMPDEST PUSH2 0x1F31 JUMPI PUSH1 0x40 MLOAD PUSH32 0x8C379A000000000000000000000000000000000000000000000000000000000 DUP2 MSTORE PUSH1 0x4 ADD PUSH2 0x1F28 SWAP1 PUSH2 0x3295 JUMP JUMPDEST PUSH1 0x40 MLOAD DUP1 SWAP2 SUB SWAP1 REVERT JUMPDEST PUSH0 PUSH2 0x1F43 DUP13 DUP13 DUP13 DUP13 DUP13 DUP13 DUP13 DUP13 DUP13 PUSH2 0xE8F JUMP JUMPDEST SWAP1 POP PUSH0 PUSH2 0x1F4F DUP3 PUSH2 0x2437 JUMP JUMPDEST SWAP1 POP PUSH1 0x4 PUSH0 SWAP1 SLOAD SWAP1 PUSH2 0x100 EXP SWAP1 DIV PUSH20 0xFFFFFFFFFFFFFFFFFFFFFFFFFFFFFFFFFFFFFFFF AND PUSH20 0xFFFFFFFFFFFFFFFFFFFFFFFFFFFFFFFFFFFFFFFF AND PUSH2 0x1F93 DUP3 DUP7 PUSH2 0x2466 JUMP JUMPDEST PUSH20 0xFFFFFFFFFFFFFFFFFFFFFFFFFFFFFFFFFFFFFFFF AND EQ SWAP3 POP POP POP SWAP11 SWAP10 POP POP POP POP POP POP POP POP POP POP JUMP JUMPDEST PUSH0 DUP1 PUSH0 DUP9 PUSH20 0xFFFFFFFFFFFFFFFFFFFFFFFFFFFFFFFFFFFFFFFF AND PUSH4 0x23B872DD DUP10 ADDRESS DUP8 PUSH1 0x40 MLOAD DUP5 PUSH4 0xFFFFFFFF AND PUSH1 0xE0 SHL DUP2 MSTORE PUSH1 0x4 ADD PUSH2 0x1FFC SWAP4 SWAP3 SWAP2 SWAP1 PUSH2 0x3581 JUMP JUMPDEST PUSH1 0x20 PUSH1 0x40 MLOAD DUP1 DUP4 SUB DUP2 PUSH0 DUP8 GAS CALL ISZERO DUP1 ISZERO PUSH2 0x2018 JUMPI RETURNDATASIZE PUSH0 DUP1 RETURNDATACOPY RETURNDATASIZE PUSH0 REVERT JUMPDEST POP POP POP POP PUSH1 0x40 MLOAD RETURNDATASIZE PUSH1 0x1F NOT PUSH1 0x1F DUP3 ADD AND DUP3 ADD DUP1 PUSH1 0x40 MSTORE POP DUP2 ADD SWAP1 PUSH2 0x203C SWAP2 SWAP1 PUSH2 0x34D8 JUMP JUMPDEST POP DUP5 ISZERO PUSH2 0x20C9 JUMPI PUSH2 0x206C PUSH2 0x3E8 PUSH2 0x205E PUSH1 0x9 SLOAD DUP8 PUSH2 0x24D0 SWAP1 SWAP2 SWAP1 PUSH4 0xFFFFFFFF AND JUMP JUMPDEST PUSH2 0x2547 SWAP1 SWAP2 SWAP1 PUSH4 0xFFFFFFFF AND JUMP JUMPDEST SWAP3 POP PUSH2 0x2097 PUSH2 0x3E8 PUSH2 0x2089 PUSH1 0xA SLOAD DUP8 PUSH2 0x24D0 SWAP1 SWAP2 SWAP1 PUSH4 0xFFFFFFFF AND JUMP JUMPDEST PUSH2 0x2547 SWAP1 SWAP2 SWAP1 PUSH4 0xFFFFFFFF AND JUMP JUMPDEST SWAP2 POP PUSH2 0x20C2 PUSH2 0x3E8 PUSH2 0x20B4 PUSH1 0xB SLOAD DUP8 PUSH2 0x24D0 SWAP1 SWAP2 SWAP1 PUSH4 0xFFFFFFFF AND JUMP JUMPDEST PUSH2 0x2547 SWAP1 SWAP2 SWAP1 PUSH4 0xFFFFFFFF AND JUMP JUMPDEST SWAP1 POP PUSH2 0x214B JUMP JUMPDEST PUSH2 0x20F2 PUSH2 0x3E8 PUSH2 0x20E4 PUSH1 0xD SLOAD DUP8 PUSH2 0x24D0 SWAP1 SWAP2 SWAP1 PUSH4 0xFFFFFFFF AND JUMP JUMPDEST PUSH2 0x2547 SWAP1 SWAP2 SWAP1 PUSH4 0xFFFFFFFF AND JUMP JUMPDEST SWAP3 POP PUSH2 0x211D PUSH2 0x3E8 PUSH2 0x210F PUSH1 0xC SLOAD DUP8 PUSH2 0x24D0 SWAP1 SWAP2 SWAP1 PUSH4 0xFFFFFFFF AND JUMP JUMPDEST PUSH2 0x2547 SWAP1 SWAP2 SWAP1 PUSH4 0xFFFFFFFF AND JUMP JUMPDEST SWAP2 POP PUSH2 0x2148 PUSH2 0x3E8 PUSH2 0x213A PUSH1 0xE SLOAD DUP8 PUSH2 0x24D0 SWAP1 SWAP2 SWAP1 PUSH4 0xFFFFFFFF AND JUMP JUMPDEST PUSH2 0x2547 SWAP1 SWAP2 SWAP1 PUSH4 0xFFFFFFFF AND JUMP JUMPDEST SWAP1 POP JUMPDEST PUSH0 DUP2 DUP4 DUP6 DUP8 PUSH2 0x215A SWAP2 SWAP1 PUSH2 0x35B6 JUMP JUMPDEST PUSH2 0x2164 SWAP2 SWAP1 PUSH2 0x35B6 JUMP JUMPDEST PUSH2 0x216E SWAP2 SWAP1 PUSH2 0x35B6 JUMP JUMPDEST SWAP1 POP PUSH0 DUP5 GT ISZERO PUSH2 0x21F5 JUMPI DUP10 PUSH20 0xFFFFFFFFFFFFFFFFFFFFFFFFFFFFFFFFFFFFFFFF AND PUSH4 0xA9059CBB DUP9 DUP7 PUSH1 0x40 MLOAD DUP4 PUSH4 0xFFFFFFFF AND PUSH1 0xE0 SHL DUP2 MSTORE PUSH1 0x4 ADD PUSH2 0x21B3 SWAP3 SWAP2 SWAP1 PUSH2 0x35E9 JUMP JUMPDEST PUSH1 0x20 PUSH1 0x40 MLOAD DUP1 DUP4 SUB DUP2 PUSH0 DUP8 GAS CALL ISZERO DUP1 ISZERO PUSH2 0x21CF JUMPI RETURNDATASIZE PUSH0 DUP1 RETURNDATACOPY RETURNDATASIZE PUSH0 REVERT JUMPDEST POP POP POP POP PUSH1 0x40 MLOAD RETURNDATASIZE PUSH1 0x1F NOT PUSH1 0x1F DUP3 ADD AND DUP3 ADD DUP1 PUSH1 0x40 MSTORE POP DUP2 ADD SWAP1 PUSH2 0x21F3 SWAP2 SWAP1 PUSH2 0x34D8 JUMP JUMPDEST POP JUMPDEST PUSH0 DUP4 GT ISZERO PUSH2 0x229B JUMPI DUP10 PUSH20 0xFFFFFFFFFFFFFFFFFFFFFFFFFFFFFFFFFFFFFFFF AND PUSH4 0xA9059CBB PUSH1 0x2 PUSH0 SWAP1 SLOAD SWAP1 PUSH2 0x100 EXP SWAP1 DIV PUSH20 0xFFFFFFFFFFFFFFFFFFFFFFFFFFFFFFFFFFFFFFFF AND DUP6 PUSH1 0x40 MLOAD DUP4 PUSH4 0xFFFFFFFF AND PUSH1 0xE0 SHL DUP2 MSTORE PUSH1 0x4 ADD PUSH2 0x2259 SWAP3 SWAP2 SWAP1 PUSH2 0x35E9 JUMP JUMPDEST PUSH1 0x20 PUSH1 0x40 MLOAD DUP1 DUP4 SUB DUP2 PUSH0 DUP8 GAS CALL ISZERO DUP1 ISZERO PUSH2 0x2275 JUMPI RETURNDATASIZE PUSH0 DUP1 RETURNDATACOPY RETURNDATASIZE PUSH0 REVERT JUMPDEST POP POP POP POP PUSH1 0x40 MLOAD RETURNDATASIZE PUSH1 0x1F NOT PUSH1 0x1F DUP3 ADD AND DUP3 ADD DUP1 PUSH1 0x40 MSTORE POP DUP2 ADD SWAP1 PUSH2 0x2299 SWAP2 SWAP1 PUSH2 0x34D8 JUMP JUMPDEST POP JUMPDEST PUSH0 DUP3 GT ISZERO PUSH2 0x2341 JUMPI DUP10 PUSH20 0xFFFFFFFFFFFFFFFFFFFFFFFFFFFFFFFFFFFFFFFF AND PUSH4 0xA9059CBB PUSH1 0x3 PUSH0 SWAP1 SLOAD SWAP1 PUSH2 0x100 EXP SWAP1 DIV PUSH20 0xFFFFFFFFFFFFFFFFFFFFFFFFFFFFFFFFFFFFFFFF AND DUP5 PUSH1 0x40 MLOAD DUP4 PUSH4 0xFFFFFFFF AND PUSH1 0xE0 SHL DUP2 MSTORE PUSH1 0x4 ADD PUSH2 0x22FF SWAP3 SWAP2 SWAP1 PUSH2 0x35E9 JUMP JUMPDEST PUSH1 0x20 PUSH1 0x40 MLOAD DUP1 DUP4 SUB DUP2 PUSH0 DUP8 GAS CALL ISZERO DUP1 ISZERO PUSH2 0x231B JUMPI RETURNDATASIZE PUSH0 DUP1 RETURNDATACOPY RETURNDATASIZE PUSH0 REVERT JUMPDEST POP POP POP POP PUSH1 0x40 MLOAD RETURNDATASIZE PUSH1 0x1F NOT PUSH1 0x1F DUP3 ADD AND DUP3 ADD DUP1 PUSH1 0x40 MSTORE POP DUP2 ADD SWAP1 PUSH2 0x233F SWAP2 SWAP1 PUSH2 0x34D8 JUMP JUMPDEST POP JUMPDEST PUSH0 DUP2 GT ISZERO PUSH2 0x23C6 JUMPI DUP10 PUSH20 0xFFFFFFFFFFFFFFFFFFFFFFFFFFFFFFFFFFFFFFFF AND PUSH4 0xA9059CBB DUP10 DUP4 PUSH1 0x40 MLOAD DUP4 PUSH4 0xFFFFFFFF AND PUSH1 0xE0 SHL DUP2 MSTORE PUSH1 0x4 ADD PUSH2 0x2384 SWAP3 SWAP2 SWAP1 PUSH2 0x35E9 JUMP JUMPDEST PUSH1 0x20 PUSH1 0x40 MLOAD DUP1 DUP4 SUB DUP2 PUSH0 DUP8 GAS CALL ISZERO DUP1 ISZERO PUSH2 0x23A0 JUMPI RETURNDATASIZE PUSH0 DUP1 RETURNDATACOPY RETURNDATASIZE PUSH0 REVERT JUMPDEST POP POP POP POP PUSH1 0x40 MLOAD RETURNDATASIZE PUSH1 0x1F NOT PUSH1 0x1F DUP3 ADD AND DUP3 ADD DUP1 PUSH1 0x40 MSTORE POP DUP2 ADD SWAP1 PUSH2 0x23C4 SWAP2 SWAP1 PUSH2 0x34D8 JUMP JUMPDEST POP JUMPDEST POP POP POP POP POP POP POP POP POP POP JUMP JUMPDEST PUSH0 DUP1 PUSH0 PUSH1 0x41 DUP5 MLOAD EQ PUSH2 0x2419 JUMPI PUSH1 0x40 MLOAD PUSH32 0x8C379A000000000000000000000000000000000000000000000000000000000 DUP2 MSTORE PUSH1 0x4 ADD PUSH2 0x2410 SWAP1 PUSH2 0x365A JUMP JUMPDEST PUSH1 0x40 MLOAD DUP1 SWAP2 SUB SWAP1 REVERT JUMPDEST PUSH1 0x20 DUP5 ADD MLOAD SWAP3 POP PUSH1 0x40 DUP5 ADD MLOAD SWAP2 POP PUSH1 0x60 DUP5 ADD MLOAD PUSH0 BYTE SWAP1 POP SWAP2 SWAP4 SWAP1 SWAP3 POP JUMP JUMPDEST PUSH0 DUP2 PUSH1 0x40 MLOAD PUSH1 0x20 ADD PUSH2 0x2449 SWAP2 SWAP1 PUSH2 0x36E2 JUMP JUMPDEST PUSH1 0x40 MLOAD PUSH1 0x20 DUP2 DUP4 SUB SUB DUP2 MSTORE SWAP1 PUSH1 0x40 MSTORE DUP1 MLOAD SWAP1 PUSH1 0x20 ADD KECCAK256 SWAP1 POP SWAP2 SWAP1 POP JUMP JUMPDEST PUSH0 DUP1 PUSH0 DUP1 PUSH2 0x2473 DUP6 PUSH2 0x23D2 JUMP JUMPDEST SWAP3 POP SWAP3 POP SWAP3 POP PUSH1 0x1 DUP7 DUP3 DUP6 DUP6 PUSH1 0x40 MLOAD PUSH0 DUP2 MSTORE PUSH1 0x20 ADD PUSH1 0x40 MSTORE PUSH1 0x40 MLOAD PUSH2 0x249B SWAP5 SWAP4 SWAP3 SWAP2 SWAP1 PUSH2 0x345A JUMP JUMPDEST PUSH1 0x20 PUSH1 0x40 MLOAD PUSH1 0x20 DUP2 SUB SWAP1 DUP1 DUP5 SUB SWAP1 DUP6 GAS STATICCALL ISZERO DUP1 ISZERO PUSH2 0x24BB JUMPI RETURNDATASIZE PUSH0 DUP1 RETURNDATACOPY RETURNDATASIZE PUSH0 REVERT JUMPDEST POP POP POP PUSH1 0x20 PUSH1 0x40 MLOAD SUB MLOAD SWAP4 POP POP POP POP SWAP3 SWAP2 POP POP JUMP JUMPDEST PUSH0 DUP1 DUP4 SUB PUSH2 0x24E0 JUMPI PUSH0 SWAP1 POP PUSH2 0x2541 JUMP JUMPDEST PUSH0 DUP3 DUP5 PUSH2 0x24ED SWAP2 SWAP1 PUSH2 0x31C7 JUMP JUMPDEST SWAP1 POP DUP3 DUP5 DUP3 PUSH2 0x24FC SWAP2 SWAP1 PUSH2 0x3734 JUMP JUMPDEST EQ PUSH2 0x253C JUMPI PUSH1 0x40 MLOAD PUSH32 0x8C379A000000000000000000000000000000000000000000000000000000000 DUP2 MSTORE PUSH1 0x4 ADD PUSH2 0x2533 SWAP1 PUSH2 0x37D4 JUMP JUMPDEST PUSH1 0x40 MLOAD DUP1 SWAP2 SUB SWAP1 REVERT JUMPDEST DUP1 SWAP2 POP POP JUMPDEST SWAP3 SWAP2 POP POP JUMP JUMPDEST PUSH0 PUSH2 0x2588 DUP4 DUP4 PUSH1 0x40 MLOAD DUP1 PUSH1 0x40 ADD PUSH1 0x40 MSTORE DUP1 PUSH1 0x1A DUP2 MSTORE PUSH1 0x20 ADD PUSH32 0x536166654D6174683A206469766973696F6E206279207A65726F000000000000 DUP2 MSTORE POP PUSH2 0x2590 JUMP JUMPDEST SWAP1 POP SWAP3 SWAP2 POP POP JUMP JUMPDEST PUSH0 DUP1 DUP4 GT DUP3 SWAP1 PUSH2 0x25D6 JUMPI PUSH1 0x40 MLOAD PUSH32 0x8C379A000000000000000000000000000000000000000000000000000000000 DUP2 MSTORE PUSH1 0x4 ADD PUSH2 0x25CD SWAP2 SWAP1 PUSH2 0x382A JUMP JUMPDEST PUSH1 0x40 MLOAD DUP1 SWAP2 SUB SWAP1 REVERT JUMPDEST POP PUSH0 DUP4 DUP6 PUSH2 0x25E4 SWAP2 SWAP1 PUSH2 0x3734 JUMP JUMPDEST SWAP1 POP DUP1 SWAP2 POP POP SWAP4 SWAP3 POP POP POP JUMP JUMPDEST PUSH0 PUSH1 0x40 MLOAD SWAP1 POP SWAP1 JUMP JUMPDEST PUSH0 DUP1 REVERT JUMPDEST PUSH0 DUP1 REVERT JUMPDEST PUSH0 PUSH20 0xFFFFFFFFFFFFFFFFFFFFFFFFFFFFFFFFFFFFFFFF DUP3 AND SWAP1 POP SWAP2 SWAP1 POP JUMP JUMPDEST PUSH0 PUSH2 0x262B DUP3 PUSH2 0x2602 JUMP JUMPDEST SWAP1 POP SWAP2 SWAP1 POP JUMP JUMPDEST PUSH2 0x263B DUP2 PUSH2 0x2621 JUMP JUMPDEST DUP2 EQ PUSH2 0x2645 JUMPI PUSH0 DUP1 REVERT JUMPDEST POP JUMP JUMPDEST PUSH0 DUP2 CALLDATALOAD SWAP1 POP PUSH2 0x2656 DUP2 PUSH2 0x2632 JUMP JUMPDEST SWAP3 SWAP2 POP POP JUMP JUMPDEST PUSH0 PUSH1 0x20 DUP3 DUP5 SUB SLT ISZERO PUSH2 0x2671 JUMPI PUSH2 0x2670 PUSH2 0x25FA JUMP JUMPDEST JUMPDEST PUSH0 PUSH2 0x267E DUP5 DUP3 DUP6 ADD PUSH2 0x2648 JUMP JUMPDEST SWAP2 POP POP SWAP3 SWAP2 POP POP JUMP JUMPDEST PUSH0 DUP1 REVERT JUMPDEST PUSH0 DUP1 REVERT JUMPDEST PUSH0 PUSH1 0x1F NOT PUSH1 0x1F DUP4 ADD AND SWAP1 POP SWAP2 SWAP1 POP JUMP JUMPDEST PUSH32 0x4E487B7100000000000000000000000000000000000000000000000000000000 PUSH0 MSTORE PUSH1 0x41 PUSH1 0x4 MSTORE PUSH1 0x24 PUSH0 REVERT JUMPDEST PUSH2 0x26D5 DUP3 PUSH2 0x268F JUMP JUMPDEST DUP2 ADD DUP2 DUP2 LT PUSH8 0xFFFFFFFFFFFFFFFF DUP3 GT OR ISZERO PUSH2 0x26F4 JUMPI PUSH2 0x26F3 PUSH2 0x269F JUMP JUMPDEST JUMPDEST DUP1 PUSH1 0x40 MSTORE POP POP POP JUMP JUMPDEST PUSH0 PUSH2 0x2706 PUSH2 0x25F1 JUMP JUMPDEST SWAP1 POP PUSH2 0x2712 DUP3 DUP3 PUSH2 0x26CC JUMP JUMPDEST SWAP2 SWAP1 POP JUMP JUMPDEST PUSH0 PUSH8 0xFFFFFFFFFFFFFFFF DUP3 GT ISZERO PUSH2 0x2731 JUMPI PUSH2 0x2730 PUSH2 0x269F JUMP JUMPDEST JUMPDEST PUSH2 0x273A DUP3 PUSH2 0x268F JUMP JUMPDEST SWAP1 POP PUSH1 0x20 DUP2 ADD SWAP1 POP SWAP2 SWAP1 POP JUMP JUMPDEST DUP3 DUP2 DUP4 CALLDATACOPY PUSH0 DUP4 DUP4 ADD MSTORE POP POP POP JUMP JUMPDEST PUSH0 PUSH2 0x2767 PUSH2 0x2762 DUP5 PUSH2 0x2717 JUMP JUMPDEST PUSH2 0x26FD JUMP JUMPDEST SWAP1 POP DUP3 DUP2 MSTORE PUSH1 0x20 DUP2 ADD DUP5 DUP5 DUP5 ADD GT ISZERO PUSH2 0x2783 JUMPI PUSH2 0x2782 PUSH2 0x268B JUMP JUMPDEST JUMPDEST PUSH2 0x278E DUP5 DUP3 DUP6 PUSH2 0x2747 JUMP JUMPDEST POP SWAP4 SWAP3 POP POP POP JUMP JUMPDEST PUSH0 DUP3 PUSH1 0x1F DUP4 ADD SLT PUSH2 0x27AA JUMPI PUSH2 0x27A9 PUSH2 0x2687 JUMP JUMPDEST JUMPDEST DUP2 CALLDATALOAD PUSH2 0x27BA DUP5 DUP3 PUSH1 0x20 DUP7 ADD PUSH2 0x2755 JUMP JUMPDEST SWAP2 POP POP SWAP3 SWAP2 POP POP JUMP JUMPDEST PUSH0 PUSH1 0x20 DUP3 DUP5 SUB SLT ISZERO PUSH2 0x27D8 JUMPI PUSH2 0x27D7 PUSH2 0x25FA JUMP JUMPDEST JUMPDEST PUSH0 DUP3 ADD CALLDATALOAD PUSH8 0xFFFFFFFFFFFFFFFF DUP2 GT ISZERO PUSH2 0x27F5 JUMPI PUSH2 0x27F4 PUSH2 0x25FE JUMP JUMPDEST JUMPDEST PUSH2 0x2801 DUP5 DUP3 DUP6 ADD PUSH2 0x2796 JUMP JUMPDEST SWAP2 POP POP SWAP3 SWAP2 POP POP JUMP JUMPDEST PUSH0 DUP2 ISZERO ISZERO SWAP1 POP SWAP2 SWAP1 POP JUMP JUMPDEST PUSH2 0x281E DUP2 PUSH2 0x280A JUMP JUMPDEST DUP3 MSTORE POP POP JUMP JUMPDEST PUSH0 PUSH1 0x20 DUP3 ADD SWAP1 POP PUSH2 0x2837 PUSH0 DUP4 ADD DUP5 PUSH2 0x2815 JUMP JUMPDEST SWAP3 SWAP2 POP POP JUMP JUMPDEST PUSH0 PUSH2 0x2847 DUP3 PUSH2 0x2621 JUMP JUMPDEST SWAP1 POP SWAP2 SWAP1 POP JUMP JUMPDEST PUSH2 0x2857 DUP2 PUSH2 0x283D JUMP JUMPDEST DUP2 EQ PUSH2 0x2861 JUMPI PUSH0 DUP1 REVERT JUMPDEST POP JUMP JUMPDEST PUSH0 DUP2 CALLDATALOAD SWAP1 POP PUSH2 0x2872 DUP2 PUSH2 0x284E JUMP JUMPDEST SWAP3 SWAP2 POP POP JUMP JUMPDEST PUSH0 DUP2 SWAP1 POP SWAP2 SWAP1 POP JUMP JUMPDEST PUSH2 0x288A DUP2 PUSH2 0x2878 JUMP JUMPDEST DUP2 EQ PUSH2 0x2894 JUMPI PUSH0 DUP1 REVERT JUMPDEST POP JUMP JUMPDEST PUSH0 DUP2 CALLDATALOAD SWAP1 POP PUSH2 0x28A5 DUP2 PUSH2 0x2881 JUMP JUMPDEST SWAP3 SWAP2 POP POP JUMP JUMPDEST PUSH2 0x28B4 DUP2 PUSH2 0x280A JUMP JUMPDEST DUP2 EQ PUSH2 0x28BE JUMPI PUSH0 DUP1 REVERT JUMPDEST POP JUMP JUMPDEST PUSH0 DUP2 CALLDATALOAD SWAP1 POP PUSH2 0x28CF DUP2 PUSH2 0x28AB JUMP JUMPDEST SWAP3 SWAP2 POP POP JUMP JUMPDEST PUSH0 PUSH8 0xFFFFFFFFFFFFFFFF DUP3 GT ISZERO PUSH2 0x28EF JUMPI PUSH2 0x28EE PUSH2 0x269F JUMP JUMPDEST JUMPDEST PUSH2 0x28F8 DUP3 PUSH2 0x268F JUMP JUMPDEST SWAP1 POP PUSH1 0x20 DUP2 ADD SWAP1 POP SWAP2 SWAP1 POP JUMP JUMPDEST PUSH0 PUSH2 0x2917 PUSH2 0x2912 DUP5 PUSH2 0x28D5 JUMP JUMPDEST PUSH2 0x26FD JUMP JUMPDEST SWAP1 POP DUP3 DUP2 MSTORE PUSH1 0x20 DUP2 ADD DUP5 DUP5 DUP5 ADD GT ISZERO PUSH2 0x2933 JUMPI PUSH2 0x2932 PUSH2 0x268B JUMP JUMPDEST JUMPDEST PUSH2 0x293E DUP5 DUP3 DUP6 PUSH2 0x2747 JUMP JUMPDEST POP SWAP4 SWAP3 POP POP POP JUMP JUMPDEST PUSH0 DUP3 PUSH1 0x1F DUP4 ADD SLT PUSH2 0x295A JUMPI PUSH2 0x2959 PUSH2 0x2687 JUMP JUMPDEST JUMPDEST DUP2 CALLDATALOAD PUSH2 0x296A DUP5 DUP3 PUSH1 0x20 DUP7 ADD PUSH2 0x2905 JUMP JUMPDEST SWAP2 POP POP SWAP3 SWAP2 POP POP JUMP JUMPDEST PUSH0 DUP1 PUSH0 DUP1 PUSH0 DUP1 PUSH0 DUP1 PUSH0 DUP1 PUSH0 PUSH2 0x160 DUP13 DUP15 SUB SLT ISZERO PUSH2 0x2993 JUMPI PUSH2 0x2992 PUSH2 0x25FA JUMP JUMPDEST JUMPDEST PUSH0 PUSH2 0x29A0 DUP15 DUP3 DUP16 ADD PUSH2 0x2864 JUMP JUMPDEST SWAP12 POP POP PUSH1 0x20 PUSH2 0x29B1 DUP15 DUP3 DUP16 ADD PUSH2 0x2648 JUMP JUMPDEST SWAP11 POP POP PUSH1 0x40 PUSH2 0x29C2 DUP15 DUP3 DUP16 ADD PUSH2 0x2897 JUMP JUMPDEST SWAP10 POP POP PUSH1 0x60 PUSH2 0x29D3 DUP15 DUP3 DUP16 ADD PUSH2 0x2897 JUMP JUMPDEST SWAP9 POP POP PUSH1 0x80 PUSH2 0x29E4 DUP15 DUP3 DUP16 ADD PUSH2 0x2897 JUMP JUMPDEST SWAP8 POP POP PUSH1 0xA0 DUP13 ADD CALLDATALOAD PUSH8 0xFFFFFFFFFFFFFFFF DUP2 GT ISZERO PUSH2 0x2A05 JUMPI PUSH2 0x2A04 PUSH2 0x25FE JUMP JUMPDEST JUMPDEST PUSH2 0x2A11 DUP15 DUP3 DUP16 ADD PUSH2 0x2796 JUMP JUMPDEST SWAP7 POP POP PUSH1 0xC0 PUSH2 0x2A22 DUP15 DUP3 DUP16 ADD PUSH2 0x2648 JUMP JUMPDEST SWAP6 POP POP PUSH1 0xE0 PUSH2 0x2A33 DUP15 DUP3 DUP16 ADD PUSH2 0x28C1 JUMP JUMPDEST SWAP5 POP POP PUSH2 0x100 PUSH2 0x2A45 DUP15 DUP3 DUP16 ADD PUSH2 0x2897 JUMP JUMPDEST SWAP4 POP POP PUSH2 0x120 PUSH2 0x2A57 DUP15 DUP3 DUP16 ADD PUSH2 0x2648 JUMP JUMPDEST SWAP3 POP POP PUSH2 0x140 DUP13 ADD CALLDATALOAD PUSH8 0xFFFFFFFFFFFFFFFF DUP2 GT ISZERO PUSH2 0x2A79 JUMPI PUSH2 0x2A78 PUSH2 0x25FE JUMP JUMPDEST JUMPDEST PUSH2 0x2A85 DUP15 DUP3 DUP16 ADD PUSH2 0x2946 JUMP JUMPDEST SWAP2 POP POP SWAP3 SWAP6 SWAP9 SWAP12 POP SWAP3 SWAP6 SWAP9 SWAP12 SWAP1 SWAP4 SWAP7 SWAP10 POP JUMP JUMPDEST PUSH2 0x2AA1 DUP2 PUSH2 0x2878 JUMP JUMPDEST DUP3 MSTORE POP POP JUMP JUMPDEST PUSH0 PUSH1 0x20 DUP3 ADD SWAP1 POP PUSH2 0x2ABA PUSH0 DUP4 ADD DUP5 PUSH2 0x2A98 JUMP JUMPDEST SWAP3 SWAP2 POP POP JUMP JUMPDEST PUSH0 DUP1 PUSH0 DUP1 PUSH0 DUP1 PUSH0 DUP1 PUSH0 PUSH2 0x120 DUP11 DUP13 SUB SLT ISZERO PUSH2 0x2ADE JUMPI PUSH2 0x2ADD PUSH2 0x25FA JUMP JUMPDEST JUMPDEST PUSH0 PUSH2 0x2AEB DUP13 DUP3 DUP14 ADD PUSH2 0x2648 JUMP JUMPDEST SWAP10 POP POP PUSH1 0x20 PUSH2 0x2AFC DUP13 DUP3 DUP14 ADD PUSH2 0x2648 JUMP JUMPDEST SWAP9 POP POP PUSH1 0x40 PUSH2 0x2B0D DUP13 DUP3 DUP14 ADD PUSH2 0x2897 JUMP JUMPDEST SWAP8 POP POP PUSH1 0x60 PUSH2 0x2B1E DUP13 DUP3 DUP14 ADD PUSH2 0x2897 JUMP JUMPDEST SWAP7 POP POP PUSH1 0x80 PUSH2 0x2B2F DUP13 DUP3 DUP14 ADD PUSH2 0x2897 JUMP JUMPDEST SWAP6 POP POP PUSH1 0xA0 DUP11 ADD CALLDATALOAD PUSH8 0xFFFFFFFFFFFFFFFF DUP2 GT ISZERO PUSH2 0x2B50 JUMPI PUSH2 0x2B4F PUSH2 0x25FE JUMP JUMPDEST JUMPDEST PUSH2 0x2B5C DUP13 DUP3 DUP14 ADD PUSH2 0x2796 JUMP JUMPDEST SWAP5 POP POP PUSH1 0xC0 PUSH2 0x2B6D DUP13 DUP3 DUP14 ADD PUSH2 0x2648 JUMP JUMPDEST SWAP4 POP POP PUSH1 0xE0 PUSH2 0x2B7E DUP13 DUP3 DUP14 ADD PUSH2 0x28C1 JUMP JUMPDEST SWAP3 POP POP PUSH2 0x100 PUSH2 0x2B90 DUP13 DUP3 DUP14 ADD PUSH2 0x2897 JUMP JUMPDEST SWAP2 POP POP SWAP3 SWAP6 SWAP9 POP SWAP3 SWAP6 SWAP9 POP SWAP3 SWAP6 SWAP9 JUMP JUMPDEST PUSH0 DUP2 SWAP1 POP SWAP2 SWAP1 POP JUMP JUMPDEST PUSH2 0x2BB2 DUP2 PUSH2 0x2BA0 JUMP JUMPDEST DUP3 MSTORE POP POP JUMP JUMPDEST PUSH0 PUSH1 0x20 DUP3 ADD SWAP1 POP PUSH2 0x2BCB PUSH0 DUP4 ADD DUP5 PUSH2 0x2BA9 JUMP JUMPDEST SWAP3 SWAP2 POP POP JUMP JUMPDEST PUSH0 DUP2 SWAP1 POP SWAP2 SWAP1 POP JUMP JUMPDEST PUSH0 PUSH2 0x2BF4 PUSH2 0x2BEF PUSH2 0x2BEA DUP5 PUSH2 0x2602 JUMP JUMPDEST PUSH2 0x2BD1 JUMP JUMPDEST PUSH2 0x2602 JUMP JUMPDEST SWAP1 POP SWAP2 SWAP1 POP JUMP JUMPDEST PUSH0 PUSH2 0x2C05 DUP3 PUSH2 0x2BDA JUMP JUMPDEST SWAP1 POP SWAP2 SWAP1 POP JUMP JUMPDEST PUSH0 PUSH2 0x2C16 DUP3 PUSH2 0x2BFB JUMP JUMPDEST SWAP1 POP SWAP2 SWAP1 POP JUMP JUMPDEST PUSH2 0x2C26 DUP2 PUSH2 0x2C0C JUMP JUMPDEST DUP3 MSTORE POP POP JUMP JUMPDEST PUSH0 PUSH1 0x20 DUP3 ADD SWAP1 POP PUSH2 0x2C3F PUSH0 DUP4 ADD DUP5 PUSH2 0x2C1D JUMP JUMPDEST SWAP3 SWAP2 POP POP JUMP JUMPDEST PUSH2 0x2C4E DUP2 PUSH2 0x2621 JUMP JUMPDEST DUP3 MSTORE POP POP JUMP JUMPDEST PUSH0 PUSH1 0x20 DUP3 ADD SWAP1 POP PUSH2 0x2C67 PUSH0 DUP4 ADD DUP5 PUSH2 0x2C45 JUMP JUMPDEST SWAP3 SWAP2 POP POP JUMP JUMPDEST PUSH2 0x2C76 DUP2 PUSH2 0x2BA0 JUMP JUMPDEST DUP2 EQ PUSH2 0x2C80 JUMPI PUSH0 DUP1 REVERT JUMPDEST POP JUMP JUMPDEST PUSH0 DUP2 CALLDATALOAD SWAP1 POP PUSH2 0x2C91 DUP2 PUSH2 0x2C6D JUMP JUMPDEST SWAP3 SWAP2 POP POP JUMP JUMPDEST PUSH0 DUP1 PUSH1 0x40 DUP4 DUP6 SUB SLT ISZERO PUSH2 0x2CAD JUMPI PUSH2 0x2CAC PUSH2 0x25FA JUMP JUMPDEST JUMPDEST PUSH0 PUSH2 0x2CBA DUP6 DUP3 DUP7 ADD PUSH2 0x2C83 JUMP JUMPDEST SWAP3 POP POP PUSH1 0x20 DUP4 ADD CALLDATALOAD PUSH8 0xFFFFFFFFFFFFFFFF DUP2 GT ISZERO PUSH2 0x2CDB JUMPI PUSH2 0x2CDA PUSH2 0x25FE JUMP JUMPDEST JUMPDEST PUSH2 0x2CE7 DUP6 DUP3 DUP7 ADD PUSH2 0x2946 JUMP JUMPDEST SWAP2 POP POP SWAP3 POP SWAP3 SWAP1 POP JUMP JUMPDEST PUSH0 DUP1 PUSH0 DUP1 PUSH0 DUP1 PUSH1 0xC0 DUP8 DUP10 SUB SLT ISZERO PUSH2 0x2D0B JUMPI PUSH2 0x2D0A PUSH2 0x25FA JUMP JUMPDEST JUMPDEST PUSH0 PUSH2 0x2D18 DUP10 DUP3 DUP11 ADD PUSH2 0x2897 JUMP JUMPDEST SWAP7 POP POP PUSH1 0x20 PUSH2 0x2D29 DUP10 DUP3 DUP11 ADD PUSH2 0x2897 JUMP JUMPDEST SWAP6 POP POP PUSH1 0x40 PUSH2 0x2D3A DUP10 DUP3 DUP11 ADD PUSH2 0x2897 JUMP JUMPDEST SWAP5 POP POP PUSH1 0x60 PUSH2 0x2D4B DUP10 DUP3 DUP11 ADD PUSH2 0x2897 JUMP JUMPDEST SWAP4 POP POP PUSH1 0x80 PUSH2 0x2D5C DUP10 DUP3 DUP11 ADD PUSH2 0x2897 JUMP JUMPDEST SWAP3 POP POP PUSH1 0xA0 PUSH2 0x2D6D DUP10 DUP3 DUP11 ADD PUSH2 0x2897 JUMP JUMPDEST SWAP2 POP POP SWAP3 SWAP6 POP SWAP3 SWAP6 POP SWAP3 SWAP6 JUMP JUMPDEST PUSH0 DUP3 DUP3 MSTORE PUSH1 0x20 DUP3 ADD SWAP1 POP SWAP3 SWAP2 POP POP JUMP JUMPDEST PUSH32 0x4F6E6C792063616C6C61626C65206279205472757374656420466F7277617264 PUSH0 DUP3 ADD MSTORE PUSH32 0x6572000000000000000000000000000000000000000000000000000000000000 PUSH1 0x20 DUP3 ADD MSTORE POP JUMP JUMPDEST PUSH0 PUSH2 0x2DE4 PUSH1 0x22 DUP4 PUSH2 0x2D7A JUMP JUMPDEST SWAP2 POP PUSH2 0x2DEF DUP3 PUSH2 0x2D8A JUMP JUMPDEST PUSH1 0x40 DUP3 ADD SWAP1 POP SWAP2 SWAP1 POP JUMP JUMPDEST PUSH0 PUSH1 0x20 DUP3 ADD SWAP1 POP DUP2 DUP2 SUB PUSH0 DUP4 ADD MSTORE PUSH2 0x2E11 DUP2 PUSH2 0x2DD8 JUMP JUMPDEST SWAP1 POP SWAP2 SWAP1 POP JUMP JUMPDEST PUSH32 0x43563A20627579657220746F20746865207A65726F2061646472657373000000 PUSH0 DUP3 ADD MSTORE POP JUMP JUMPDEST PUSH0 PUSH2 0x2E4C PUSH1 0x1D DUP4 PUSH2 0x2D7A JUMP JUMPDEST SWAP2 POP PUSH2 0x2E57 DUP3 PUSH2 0x2E18 JUMP JUMPDEST PUSH1 0x20 DUP3 ADD SWAP1 POP SWAP2 SWAP1 POP JUMP JUMPDEST PUSH0 PUSH1 0x20 DUP3 ADD SWAP1 POP DUP2 DUP2 SUB PUSH0 DUP4 ADD MSTORE PUSH2 0x2E79 DUP2 PUSH2 0x2E40 JUMP JUMPDEST SWAP1 POP SWAP2 SWAP1 POP JUMP JUMPDEST PUSH32 0x43563A20696E76616C6964205F7369676E617475726500000000000000000000 PUSH0 DUP3 ADD MSTORE POP JUMP JUMPDEST PUSH0 PUSH2 0x2EB4 PUSH1 0x16 DUP4 PUSH2 0x2D7A JUMP JUMPDEST SWAP2 POP PUSH2 0x2EBF DUP3 PUSH2 0x2E80 JUMP JUMPDEST PUSH1 0x20 DUP3 ADD SWAP1 POP SWAP2 SWAP1 POP JUMP JUMPDEST PUSH0 PUSH1 0x20 DUP3 ADD SWAP1 POP DUP2 DUP2 SUB PUSH0 DUP4 ADD MSTORE PUSH2 0x2EE1 DUP2 PUSH2 0x2EA8 JUMP JUMPDEST SWAP1 POP SWAP2 SWAP1 POP JUMP JUMPDEST PUSH32 0x43563A20696E76616C696420616D6F756E740000000000000000000000000000 PUSH0 DUP3 ADD MSTORE POP JUMP JUMPDEST PUSH0 PUSH2 0x2F1C PUSH1 0x12 DUP4 PUSH2 0x2D7A JUMP JUMPDEST SWAP2 POP PUSH2 0x2F27 DUP3 PUSH2 0x2EE8 JUMP JUMPDEST PUSH1 0x20 DUP3 ADD SWAP1 POP SWAP2 SWAP1 POP JUMP JUMPDEST PUSH0 PUSH1 0x20 DUP3 ADD SWAP1 POP DUP2 DUP2 SUB PUSH0 DUP4 ADD MSTORE PUSH2 0x2F49 DUP2 PUSH2 0x2F10 JUMP JUMPDEST SWAP1 POP SWAP2 SWAP1 POP JUMP JUMPDEST PUSH32 0x757364742061646472657373206E6F7420636F6E666967000000000000000000 PUSH0 DUP3 ADD MSTORE POP JUMP JUMPDEST PUSH0 PUSH2 0x2F84 PUSH1 0x17 DUP4 PUSH2 0x2D7A JUMP JUMPDEST SWAP2 POP PUSH2 0x2F8F DUP3 PUSH2 0x2F50 JUMP JUMPDEST PUSH1 0x20 DUP3 ADD SWAP1 POP SWAP2 SWAP1 POP JUMP JUMPDEST PUSH0 PUSH1 0x20 DUP3 ADD SWAP1 POP DUP2 DUP2 SUB PUSH0 DUP4 ADD MSTORE PUSH2 0x2FB1 DUP2 PUSH2 0x2F78 JUMP JUMPDEST SWAP1 POP SWAP2 SWAP1 POP JUMP JUMPDEST PUSH32 0x757364632061646472657373206E6F7420636F6E666967000000000000000000 PUSH0 DUP3 ADD MSTORE POP JUMP JUMPDEST PUSH0 PUSH2 0x2FEC PUSH1 0x17 DUP4 PUSH2 0x2D7A JUMP JUMPDEST SWAP2 POP PUSH2 0x2FF7 DUP3 PUSH2 0x2FB8 JUMP JUMPDEST PUSH1 0x20 DUP3 ADD SWAP1 POP SWAP2 SWAP1 POP JUMP JUMPDEST PUSH0 PUSH1 0x20 DUP3 ADD SWAP1 POP DUP2 DUP2 SUB PUSH0 DUP4 ADD MSTORE PUSH2 0x3019 DUP2 PUSH2 0x2FE0 JUMP JUMPDEST SWAP1 POP SWAP2 SWAP1 POP JUMP JUMPDEST PUSH32 0x6574682061646472657373206E6F7420636F6E66696700000000000000000000 PUSH0 DUP3 ADD MSTORE POP JUMP JUMPDEST PUSH0 PUSH2 0x3054 PUSH1 0x16 DUP4 PUSH2 0x2D7A JUMP JUMPDEST SWAP2 POP PUSH2 0x305F DUP3 PUSH2 0x3020 JUMP JUMPDEST PUSH1 0x20 DUP3 ADD SWAP1 POP SWAP2 SWAP1 POP JUMP JUMPDEST PUSH0 PUSH1 0x20 DUP3 ADD SWAP1 POP DUP2 DUP2 SUB PUSH0 DUP4 ADD MSTORE PUSH2 0x3081 DUP2 PUSH2 0x3048 JUMP JUMPDEST SWAP1 POP SWAP2 SWAP1 POP JUMP JUMPDEST PUSH32 0x756D692061646472657373206E6F7420636F6E66696700000000000000000000 PUSH0 DUP3 ADD MSTORE POP JUMP JUMPDEST PUSH0 PUSH2 0x30BC PUSH1 0x16 DUP4 PUSH2 0x2D7A JUMP JUMPDEST SWAP2 POP PUSH2 0x30C7 DUP3 PUSH2 0x3088 JUMP JUMPDEST PUSH1 0x20 DUP3 ADD SWAP1 POP SWAP2 SWAP1 POP JUMP JUMPDEST PUSH0 PUSH1 0x20 DUP3 ADD SWAP1 POP DUP2 DUP2 SUB PUSH0 DUP4 ADD MSTORE PUSH2 0x30E9 DUP2 PUSH2 0x30B0 JUMP JUMPDEST SWAP1 POP SWAP2 SWAP1 POP JUMP JUMPDEST PUSH0 DUP2 MLOAD SWAP1 POP SWAP2 SWAP1 POP JUMP JUMPDEST PUSH0 DUP3 DUP3 MSTORE PUSH1 0x20 DUP3 ADD SWAP1 POP SWAP3 SWAP2 POP POP JUMP JUMPDEST DUP3 DUP2 DUP4 MCOPY PUSH0 DUP4 DUP4 ADD MSTORE POP POP POP JUMP JUMPDEST PUSH0 PUSH2 0x3122 DUP3 PUSH2 0x30F0 JUMP JUMPDEST PUSH2 0x312C DUP2 DUP6 PUSH2 0x30FA JUMP JUMPDEST SWAP4 POP PUSH2 0x313C DUP2 DUP6 PUSH1 0x20 DUP7 ADD PUSH2 0x310A JUMP JUMPDEST PUSH2 0x3145 DUP2 PUSH2 0x268F JUMP JUMPDEST DUP5 ADD SWAP2 POP POP SWAP3 SWAP2 POP POP JUMP JUMPDEST PUSH0 PUSH1 0x80 DUP3 ADD SWAP1 POP PUSH2 0x3163 PUSH0 DUP4 ADD DUP8 PUSH2 0x2C45 JUMP JUMPDEST PUSH2 0x3170 PUSH1 0x20 DUP4 ADD DUP7 PUSH2 0x2C45 JUMP JUMPDEST PUSH2 0x317D PUSH1 0x40 DUP4 ADD DUP6 PUSH2 0x2A98 JUMP JUMPDEST DUP2 DUP2 SUB PUSH1 0x60 DUP4 ADD MSTORE PUSH2 0x318F DUP2 DUP5 PUSH2 0x3118 JUMP JUMPDEST SWAP1 POP SWAP6 SWAP5 POP POP POP POP POP JUMP JUMPDEST PUSH32 0x4E487B7100000000000000000000000000000000000000000000000000000000 PUSH0 MSTORE PUSH1 0x11 PUSH1 0x4 MSTORE PUSH1 0x24 PUSH0 REVERT JUMPDEST PUSH0 PUSH2 0x31D1 DUP3 PUSH2 0x2878 JUMP JUMPDEST SWAP2 POP PUSH2 0x31DC DUP4 PUSH2 0x2878 JUMP JUMPDEST SWAP3 POP DUP3 DUP3 MUL PUSH2 0x31EA DUP2 PUSH2 0x2878 JUMP JUMPDEST SWAP2 POP DUP3 DUP3 DIV DUP5 EQ DUP4 ISZERO OR PUSH2 0x3201 JUMPI PUSH2 0x3200 PUSH2 0x319A JUMP JUMPDEST JUMPDEST POP SWAP3 SWAP2 POP POP JUMP JUMPDEST PUSH0 PUSH1 0x80 DUP3 ADD SWAP1 POP PUSH2 0x321B PUSH0 DUP4 ADD DUP8 PUSH2 0x2A98 JUMP JUMPDEST PUSH2 0x3228 PUSH1 0x20 DUP4 ADD DUP7 PUSH2 0x2A98 JUMP JUMPDEST PUSH2 0x3235 PUSH1 0x40 DUP4 ADD DUP6 PUSH2 0x2C45 JUMP JUMPDEST PUSH2 0x3242 PUSH1 0x60 DUP4 ADD DUP5 PUSH2 0x2C45 JUMP JUMPDEST SWAP6 SWAP5 POP POP POP POP POP JUMP JUMPDEST PUSH32 0x746F6B656E206E6F7420737570706F7274000000000000000000000000000000 PUSH0 DUP3 ADD MSTORE POP JUMP JUMPDEST PUSH0 PUSH2 0x327F PUSH1 0x11 DUP4 PUSH2 0x2D7A JUMP JUMPDEST SWAP2 POP PUSH2 0x328A DUP3 PUSH2 0x324B JUMP JUMPDEST PUSH1 0x20 DUP3 ADD SWAP1 POP SWAP2 SWAP1 POP JUMP JUMPDEST PUSH0 PUSH1 0x20 DUP3 ADD SWAP1 POP DUP2 DUP2 SUB PUSH0 DUP4 ADD MSTORE PUSH2 0x32AC DUP2 PUSH2 0x3273 JUMP JUMPDEST SWAP1 POP SWAP2 SWAP1 POP JUMP JUMPDEST PUSH0 DUP2 PUSH1 0x60 SHL SWAP1 POP SWAP2 SWAP1 POP JUMP JUMPDEST PUSH0 PUSH2 0x32C9 DUP3 PUSH2 0x32B3 JUMP JUMPDEST SWAP1 POP SWAP2 SWAP1 POP JUMP JUMPDEST PUSH0 PUSH2 0x32DA DUP3 PUSH2 0x32BF JUMP JUMPDEST SWAP1 POP SWAP2 SWAP1 POP JUMP JUMPDEST PUSH2 0x32F2 PUSH2 0x32ED DUP3 PUSH2 0x2621 JUMP JUMPDEST PUSH2 0x32D0 JUMP JUMPDEST DUP3 MSTORE POP POP JUMP JUMPDEST PUSH0 DUP2 SWAP1 POP SWAP2 SWAP1 POP JUMP JUMPDEST PUSH2 0x3312 PUSH2 0x330D DUP3 PUSH2 0x2878 JUMP JUMPDEST PUSH2 0x32F8 JUMP JUMPDEST DUP3 MSTORE POP POP JUMP JUMPDEST PUSH0 DUP2 MLOAD SWAP1 POP SWAP2 SWAP1 POP JUMP JUMPDEST PUSH0 DUP2 SWAP1 POP SWAP3 SWAP2 POP POP JUMP JUMPDEST PUSH0 PUSH2 0x3336 DUP3 PUSH2 0x3318 JUMP JUMPDEST PUSH2 0x3340 DUP2 DUP6 PUSH2 0x3322 JUMP JUMPDEST SWAP4 POP PUSH2 0x3350 DUP2 DUP6 PUSH1 0x20 DUP7 ADD PUSH2 0x310A JUMP JUMPDEST DUP1 DUP5 ADD SWAP2 POP POP SWAP3 SWAP2 POP POP JUMP JUMPDEST PUSH0 DUP2 PUSH1 0xF8 SHL SWAP1 POP SWAP2 SWAP1 POP JUMP JUMPDEST PUSH0 PUSH2 0x3372 DUP3 PUSH2 0x335C JUMP JUMPDEST SWAP1 POP SWAP2 SWAP1 POP JUMP JUMPDEST PUSH0 PUSH2 0x3383 DUP3 PUSH2 0x3368 JUMP JUMPDEST SWAP1 POP SWAP2 SWAP1 POP JUMP JUMPDEST PUSH2 0x339B PUSH2 0x3396 DUP3 PUSH2 0x280A JUMP JUMPDEST PUSH2 0x3379 JUMP JUMPDEST DUP3 MSTORE POP POP JUMP JUMPDEST PUSH0 PUSH2 0x33AC DUP3 DUP13 PUSH2 0x32E1 JUMP JUMPDEST PUSH1 0x14 DUP3 ADD SWAP2 POP PUSH2 0x33BC DUP3 DUP12 PUSH2 0x32E1 JUMP JUMPDEST PUSH1 0x14 DUP3 ADD SWAP2 POP PUSH2 0x33CC DUP3 DUP11 PUSH2 0x3301 JUMP JUMPDEST PUSH1 0x20 DUP3 ADD SWAP2 POP PUSH2 0x33DC DUP3 DUP10 PUSH2 0x3301 JUMP JUMPDEST PUSH1 0x20 DUP3 ADD SWAP2 POP PUSH2 0x33EC DUP3 DUP9 PUSH2 0x3301 JUMP JUMPDEST PUSH1 0x20 DUP3 ADD SWAP2 POP PUSH2 0x33FC DUP3 DUP8 PUSH2 0x332C JUMP JUMPDEST SWAP2 POP PUSH2 0x3408 DUP3 DUP7 PUSH2 0x32E1 JUMP JUMPDEST PUSH1 0x14 DUP3 ADD SWAP2 POP PUSH2 0x3418 DUP3 DUP6 PUSH2 0x338A JUMP JUMPDEST PUSH1 0x1 DUP3 ADD SWAP2 POP PUSH2 0x3428 DUP3 DUP5 PUSH2 0x3301 JUMP JUMPDEST PUSH1 0x20 DUP3 ADD SWAP2 POP DUP2 SWAP1 POP SWAP11 SWAP10 POP POP POP POP POP POP POP POP POP POP JUMP JUMPDEST PUSH0 PUSH1 0xFF DUP3 AND SWAP1 POP SWAP2 SWAP1 POP JUMP JUMPDEST PUSH2 0x3454 DUP2 PUSH2 0x343F JUMP JUMPDEST DUP3 MSTORE POP POP JUMP JUMPDEST PUSH0 PUSH1 0x80 DUP3 ADD SWAP1 POP PUSH2 0x346D PUSH0 DUP4 ADD DUP8 PUSH2 0x2BA9 JUMP JUMPDEST PUSH2 0x347A PUSH1 0x20 DUP4 ADD DUP7 PUSH2 0x344B JUMP JUMPDEST PUSH2 0x3487 PUSH1 0x40 DUP4 ADD DUP6 PUSH2 0x2BA9 JUMP JUMPDEST PUSH2 0x3494 PUSH1 0x60 DUP4 ADD DUP5 PUSH2 0x2BA9 JUMP JUMPDEST SWAP6 SWAP5 POP POP POP POP POP JUMP JUMPDEST PUSH0 PUSH1 0x40 DUP3 ADD SWAP1 POP PUSH2 0x34B0 PUSH0 DUP4 ADD DUP6 PUSH2 0x2C45 JUMP JUMPDEST PUSH2 0x34BD PUSH1 0x20 DUP4 ADD DUP5 PUSH2 0x2C45 JUMP JUMPDEST SWAP4 SWAP3 POP POP POP JUMP JUMPDEST PUSH0 DUP2 MLOAD SWAP1 POP PUSH2 0x34D2 DUP2 PUSH2 0x28AB JUMP JUMPDEST SWAP3 SWAP2 POP POP JUMP JUMPDEST PUSH0 PUSH1 0x20 DUP3 DUP5 SUB SLT ISZERO PUSH2 0x34ED JUMPI PUSH2 0x34EC PUSH2 0x25FA JUMP JUMPDEST JUMPDEST PUSH0 PUSH2 0x34FA DUP5 DUP3 DUP6 ADD PUSH2 0x34C4 JUMP JUMPDEST SWAP2 POP POP SWAP3 SWAP2 POP POP JUMP JUMPDEST PUSH32 0x43563A2073656C6C6572206973206E6F7420617070726F766564000000000000 PUSH0 DUP3 ADD MSTORE POP JUMP JUMPDEST PUSH0 PUSH2 0x3537 PUSH1 0x1A DUP4 PUSH2 0x2D7A JUMP JUMPDEST SWAP2 POP PUSH2 0x3542 DUP3 PUSH2 0x3503 JUMP JUMPDEST PUSH1 0x20 DUP3 ADD SWAP1 POP SWAP2 SWAP1 POP JUMP JUMPDEST PUSH0 PUSH1 0x20 DUP3 ADD SWAP1 POP DUP2 DUP2 SUB PUSH0 DUP4 ADD MSTORE PUSH2 0x3564 DUP2 PUSH2 0x352B JUMP JUMPDEST SWAP1 POP SWAP2 SWAP1 POP JUMP JUMPDEST PUSH0 PUSH2 0x3576 DUP3 DUP5 PUSH2 0x332C JUMP JUMPDEST SWAP2 POP DUP2 SWAP1 POP SWAP3 SWAP2 POP POP JUMP JUMPDEST PUSH0 PUSH1 0x60 DUP3 ADD SWAP1 POP PUSH2 0x3594 PUSH0 DUP4 ADD DUP7 PUSH2 0x2C45 JUMP JUMPDEST PUSH2 0x35A1 PUSH1 0x20 DUP4 ADD DUP6 PUSH2 0x2C45 JUMP JUMPDEST PUSH2 0x35AE PUSH1 0x40 DUP4 ADD DUP5 PUSH2 0x2A98 JUMP JUMPDEST SWAP5 SWAP4 POP POP POP POP JUMP JUMPDEST PUSH0 PUSH2 0x35C0 DUP3 PUSH2 0x2878 JUMP JUMPDEST SWAP2 POP PUSH2 0x35CB DUP4 PUSH2 0x2878 JUMP JUMPDEST SWAP3 POP DUP3 DUP3 SUB SWAP1 POP DUP2 DUP2 GT ISZERO PUSH2 0x35E3 JUMPI PUSH2 0x35E2 PUSH2 0x319A JUMP JUMPDEST JUMPDEST SWAP3 SWAP2 POP POP JUMP JUMPDEST PUSH0 PUSH1 0x40 DUP3 ADD SWAP1 POP PUSH2 0x35FC PUSH0 DUP4 ADD DUP6 PUSH2 0x2C45 JUMP JUMPDEST PUSH2 0x3609 PUSH1 0x20 DUP4 ADD DUP5 PUSH2 0x2A98 JUMP JUMPDEST SWAP4 SWAP3 POP POP POP JUMP JUMPDEST PUSH32 0x696E76616C6964207369676E6174757265206C656E6774680000000000000000 PUSH0 DUP3 ADD MSTORE POP JUMP JUMPDEST PUSH0 PUSH2 0x3644 PUSH1 0x18 DUP4 PUSH2 0x2D7A JUMP JUMPDEST SWAP2 POP PUSH2 0x364F DUP3 PUSH2 0x3610 JUMP JUMPDEST PUSH1 0x20 DUP3 ADD SWAP1 POP SWAP2 SWAP1 POP JUMP JUMPDEST PUSH0 PUSH1 0x20 DUP3 ADD SWAP1 POP DUP2 DUP2 SUB PUSH0 DUP4 ADD MSTORE PUSH2 0x3671 DUP2 PUSH2 0x3638 JUMP JUMPDEST SWAP1 POP SWAP2 SWAP1 POP JUMP JUMPDEST PUSH32 0x19457468657265756D205369676E6564204D6573736167653A0A333200000000 PUSH0 DUP3 ADD MSTORE POP JUMP JUMPDEST PUSH0 PUSH2 0x36AC PUSH1 0x1C DUP4 PUSH2 0x3322 JUMP JUMPDEST SWAP2 POP PUSH2 0x36B7 DUP3 PUSH2 0x3678 JUMP JUMPDEST PUSH1 0x1C DUP3 ADD SWAP1 POP SWAP2 SWAP1 POP JUMP JUMPDEST PUSH0 DUP2 SWAP1 POP SWAP2 SWAP1 POP JUMP JUMPDEST PUSH2 0x36DC PUSH2 0x36D7 DUP3 PUSH2 0x2BA0 JUMP JUMPDEST PUSH2 0x36C2 JUMP JUMPDEST DUP3 MSTORE POP POP JUMP JUMPDEST PUSH0 PUSH2 0x36EC DUP3 PUSH2 0x36A0 JUMP JUMPDEST SWAP2 POP PUSH2 0x36F8 DUP3 DUP5 PUSH2 0x36CB JUMP JUMPDEST PUSH1 0x20 DUP3 ADD SWAP2 POP DUP2 SWAP1 POP SWAP3 SWAP2 POP POP JUMP JUMPDEST PUSH32 0x4E487B7100000000000000000000000000000000000000000000000000000000 PUSH0 MSTORE PUSH1 0x12 PUSH1 0x4 MSTORE PUSH1 0x24 PUSH0 REVERT JUMPDEST PUSH0 PUSH2 0x373E DUP3 PUSH2 0x2878 JUMP JUMPDEST SWAP2 POP PUSH2 0x3749 DUP4 PUSH2 0x2878 JUMP JUMPDEST SWAP3 POP DUP3 PUSH2 0x3759 JUMPI PUSH2 0x3758 PUSH2 0x3707 JUMP JUMPDEST JUMPDEST DUP3 DUP3 DIV SWAP1 POP SWAP3 SWAP2 POP POP JUMP JUMPDEST PUSH32 0x536166654D6174683A206D756C7469706C69636174696F6E206F766572666C6F PUSH0 DUP3 ADD MSTORE PUSH32 0x7700000000000000000000000000000000000000000000000000000000000000 PUSH1 0x20 DUP3 ADD MSTORE POP JUMP JUMPDEST PUSH0 PUSH2 0x37BE PUSH1 0x21 DUP4 PUSH2 0x2D7A JUMP JUMPDEST SWAP2 POP PUSH2 0x37C9 DUP3 PUSH2 0x3764 JUMP JUMPDEST PUSH1 0x40 DUP3 ADD SWAP1 POP SWAP2 SWAP1 POP JUMP JUMPDEST PUSH0 PUSH1 0x20 DUP3 ADD SWAP1 POP DUP2 DUP2 SUB PUSH0 DUP4 ADD MSTORE PUSH2 0x37EB DUP2 PUSH2 0x37B2 JUMP JUMPDEST SWAP1 POP SWAP2 SWAP1 POP JUMP JUMPDEST PUSH0 PUSH2 0x37FC DUP3 PUSH2 0x3318 JUMP JUMPDEST PUSH2 0x3806 DUP2 DUP6 PUSH2 0x2D7A JUMP JUMPDEST SWAP4 POP PUSH2 0x3816 DUP2 DUP6 PUSH1 0x20 DUP7 ADD PUSH2 0x310A JUMP JUMPDEST PUSH2 0x381F DUP2 PUSH2 0x268F JUMP JUMPDEST DUP5 ADD SWAP2 POP POP SWAP3 SWAP2 POP POP JUMP JUMPDEST PUSH0 PUSH1 0x20 DUP3 ADD SWAP1 POP DUP2 DUP2 SUB PUSH0 DUP4 ADD MSTORE PUSH2 0x3842 DUP2 DUP5 PUSH2 0x37F2 JUMP JUMPDEST SWAP1 POP SWAP3 SWAP2 POP POP JUMP INVALID LOG2 PUSH5 0x6970667358 0x22 SLT KECCAK256 TLOAD 0xA9 0xF8 0x27 0xAA 0xDE 0xBF 0x4E SWAP13 0xF SHR 0xD3 JUMPI CREATE2 0xAB 0x4C 0xEB 0xFC 0xC5 0xDA 0xAF 0xEC DUP3 PUSH2 0x26F5 SWAP11 0x2E 0x25 GASLIMIT MULMOD DUP15 PUSH5 0x736F6C6343 STOP ADDMOD NOT STOP CALLER "
		},
		"gasEstimates": {
			"creation": {
				"codeDepositCost": "2892800",
				"executionCost": "infinite",
				"totalCost": "infinite"
			},
			"external": {
				"admin()": "2618",
				"buy(address,address,uint256,uint256,uint256,string,address,bool,uint256,address,bytes)": "infinite",
				"eth()": "infinite",
				"feeAddress()": "2576",
				"getMessageHash(address,address,uint256,uint256,uint256,string,address,bool,uint256)": "infinite",
				"isTokenSupported(string)": "infinite",
				"isTrustedForwarder(address)": "infinite",
				"owner()": "2550",
				"presaleFeeToDeveloper()": "2536",
				"presaleFeeToRewardFund()": "2471",
				"presaleFeeToUmi()": "2469",
				"recoverSignerPublic(bytes32,bytes)": "infinite",
				"renounceOwnership()": "29978",
				"rewardPoolAddress()": "2554",
				"sell(address,address,uint256,uint256,uint256,string,address,bool,uint256,address,bytes)": "infinite",
				"setAdmin(address)": "26970",
				"setEth(address)": "26997",
				"setFee(uint256,uint256,uint256,uint256,uint256,uint256)": "infinite",
				"setFeeAddress(address)": "26952",
				"setRewardPoolAddress(address)": "26995",
				"setSignerAddress(address)": "26931",
				"setUmi(address)": "26974",
				"setUsdc(address)": "26951",
				"setUsdt(address)": "26996",
				"signerAddress()": "2553",
				"tradeFeeToDeveloper()": "2514",
				"tradeFeeToRewardFund()": "2515",
				"tradeFeeToUmi()": "2492",
				"transferOwnership(address)": "30680",
				"umi()": "infinite",
				"usdc()": "infinite",
				"usdt()": "infinite"
			},
			"internal": {
				"compareStrings(string memory,string memory)": "infinite",
				"getEthSignedMessageHash(bytes32)": "infinite",
				"processTrade(contract IERC20,address,address,address,bool,uint256)": "infinite",
				"recoverSigner(bytes32,bytes memory)": "infinite",
				"splitSignature(bytes memory)": "infinite",
				"verify(address,address,uint256,uint256,uint256,string memory,address,bool,uint256,bytes memory)": "infinite"
			}
		},
		"methodIdentifiers": {
			"admin()": "f851a440",
			"buy(address,address,uint256,uint256,uint256,string,address,bool,uint256,address,bytes)": "f2699d59",
			"eth()": "8c7c9e0c",
			"feeAddress()": "41275358",
			"getMessageHash(address,address,uint256,uint256,uint256,string,address,bool,uint256)": "228b03fa",
			"isTokenSupported(string)": "0d3652ec",
			"isTrustedForwarder(address)": "572b6c05",
			"owner()": "8da5cb5b",
			"presaleFeeToDeveloper()": "d1faf157",
			"presaleFeeToRewardFund()": "14754e66",
			"presaleFeeToUmi()": "d339db94",
			"recoverSignerPublic(bytes32,bytes)": "9f2585a1",
			"renounceOwnership()": "715018a6",
			"rewardPoolAddress()": "845a51ec",
			"sell(address,address,uint256,uint256,uint256,string,address,bool,uint256,address,bytes)": "10b8097c",
			"setAdmin(address)": "704b6c02",
			"setEth(address)": "122c6fd7",
			"setFee(uint256,uint256,uint256,uint256,uint256,uint256)": "bd9a3b6d",
			"setFeeAddress(address)": "8705fcd4",
			"setRewardPoolAddress(address)": "b24cf5d7",
			"setSignerAddress(address)": "046dc166",
			"setUmi(address)": "8b225f06",
			"setUsdc(address)": "cb146879",
			"setUsdt(address)": "58979bfe",
			"signerAddress()": "5b7633d0",
			"tradeFeeToDeveloper()": "cfd79d5d",
			"tradeFeeToRewardFund()": "2515af37",
			"tradeFeeToUmi()": "60f688ea",
			"transferOwnership(address)": "f2fde38b",
			"umi()": "94dd453a",
			"usdc()": "3e413bee",
			"usdt()": "2f48ab7d"
		}
	},
	"abi": [
		{
			"inputs": [
				{
					"internalType": "address",
					"name": "trustedForwarder",
					"type": "address"
				},
				{
					"internalType": "address",
					"name": "_admin",
					"type": "address"
				},
				{
					"internalType": "address",
					"name": "_feeAddress",
					"type": "address"
				},
				{
					"internalType": "address",
					"name": "_signerAddress",
					"type": "address"
				},
				{
					"internalType": "address",
					"name": "_rewardPoolAddess",
					"type": "address"
				}
			],
			"stateMutability": "nonpayable",
			"type": "constructor"
		},
		{
			"anonymous": false,
			"inputs": [
				{
					"indexed": false,
					"internalType": "uint256",
					"name": "gold",
					"type": "uint256"
				},
				{
					"indexed": false,
					"internalType": "uint256",
					"name": "price",
					"type": "uint256"
				},
				{
					"indexed": false,
					"internalType": "address",
					"name": "buyer",
					"type": "address"
				},
				{
					"indexed": false,
					"internalType": "address",
					"name": "seller",
					"type": "address"
				}
			],
			"name": "Buy",
			"type": "event"
		},
		{
			"anonymous": false,
			"inputs": [
				{
					"indexed": true,
					"internalType": "address",
					"name": "previousOwner",
					"type": "address"
				}
			],
			"name": "OwnershipRenounced",
			"type": "event"
		},
		{
			"anonymous": false,
			"inputs": [
				{
					"indexed": true,
					"internalType": "address",
					"name": "previousOwner",
					"type": "address"
				},
				{
					"indexed": true,
					"internalType": "address",
					"name": "newOwner",
					"type": "address"
				}
			],
			"name": "OwnershipTransferred",
			"type": "event"
		},
		{
			"anonymous": false,
			"inputs": [
				{
					"indexed": false,
					"internalType": "uint256",
					"name": "gold",
					"type": "uint256"
				},
				{
					"indexed": false,
					"internalType": "uint256",
					"name": "price",
					"type": "uint256"
				},
				{
					"indexed": false,
					"internalType": "address",
					"name": "seller",
					"type": "address"
				},
				{
					"indexed": false,
					"internalType": "address",
					"name": "buyer",
					"type": "address"
				}
			],
			"name": "Sell",
			"type": "event"
		},
		{
			"inputs": [],
			"name": "admin",
			"outputs": [
				{
					"internalType": "address",
					"name": "",
					"type": "address"
				}
			],
			"stateMutability": "view",
			"type": "function"
		},
		{
			"inputs": [
				{
					"internalType": "contract IERC721",
					"name": "nft",
					"type": "address"
				},
				{
					"internalType": "address",
					"name": "_buyer",
					"type": "address"
				},
				{
					"internalType": "uint256",
					"name": "_tokenid",
					"type": "uint256"
				},
				{
					"internalType": "uint256",
					"name": "_price",
					"type": "uint256"
				},
				{
					"internalType": "uint256",
					"name": "_amount",
					"type": "uint256"
				},
				{
					"internalType": "string",
					"name": "_priceType",
					"type": "string"
				},
				{
					"internalType": "address",
					"name": "_developerAddress",
					"type": "address"
				},
				{
					"internalType": "bool",
					"name": "_presale",
					"type": "bool"
				},
				{
					"internalType": "uint256",
					"name": "_timestamp",
					"type": "uint256"
				},
				{
					"internalType": "address",
					"name": "_seller",
					"type": "address"
				},
				{
					"internalType": "bytes",
					"name": "_signature",
					"type": "bytes"
				}
			],
			"name": "buy",
			"outputs": [],
			"stateMutability": "nonpayable",
			"type": "function"
		},
		{
			"inputs": [],
			"name": "eth",
			"outputs": [
				{
					"internalType": "contract IERC20",
					"name": "",
					"type": "address"
				}
			],
			"stateMutability": "view",
			"type": "function"
		},
		{
			"inputs": [],
			"name": "feeAddress",
			"outputs": [
				{
					"internalType": "address",
					"name": "",
					"type": "address"
				}
			],
			"stateMutability": "view",
			"type": "function"
		},
		{
			"inputs": [
				{
					"internalType": "address",
					"name": "_buyer",
					"type": "address"
				},
				{
					"internalType": "address",
					"name": "_seller",
					"type": "address"
				},
				{
					"internalType": "uint256",
					"name": "_tokenid",
					"type": "uint256"
				},
				{
					"internalType": "uint256",
					"name": "_price",
					"type": "uint256"
				},
				{
					"internalType": "uint256",
					"name": "_amount",
					"type": "uint256"
				},
				{
					"internalType": "string",
					"name": "_priceType",
					"type": "string"
				},
				{
					"internalType": "address",
					"name": "_developerAddress",
					"type": "address"
				},
				{
					"internalType": "bool",
					"name": "_presale",
					"type": "bool"
				},
				{
					"internalType": "uint256",
					"name": "_timestamp",
					"type": "uint256"
				}
			],
			"name": "getMessageHash",
			"outputs": [
				{
					"internalType": "bytes32",
					"name": "",
					"type": "bytes32"
				}
			],
			"stateMutability": "pure",
			"type": "function"
		},
		{
			"inputs": [
				{
					"internalType": "string",
					"name": "token",
					"type": "string"
				}
			],
			"name": "isTokenSupported",
			"outputs": [
				{
					"internalType": "bool",
					"name": "",
					"type": "bool"
				}
			],
			"stateMutability": "pure",
			"type": "function"
		},
		{
			"inputs": [
				{
					"internalType": "address",
					"name": "forwarder",
					"type": "address"
				}
			],
			"name": "isTrustedForwarder",
			"outputs": [
				{
					"internalType": "bool",
					"name": "",
					"type": "bool"
				}
			],
			"stateMutability": "view",
			"type": "function"
		},
		{
			"inputs": [],
			"name": "owner",
			"outputs": [
				{
					"internalType": "address",
					"name": "",
					"type": "address"
				}
			],
			"stateMutability": "view",
			"type": "function"
		},
		{
			"inputs": [],
			"name": "presaleFeeToDeveloper",
			"outputs": [
				{
					"internalType": "uint256",
					"name": "",
					"type": "uint256"
				}
			],
			"stateMutability": "view",
			"type": "function"
		},
		{
			"inputs": [],
			"name": "presaleFeeToRewardFund",
			"outputs": [
				{
					"internalType": "uint256",
					"name": "",
					"type": "uint256"
				}
			],
			"stateMutability": "view",
			"type": "function"
		},
		{
			"inputs": [],
			"name": "presaleFeeToUmi",
			"outputs": [
				{
					"internalType": "uint256",
					"name": "",
					"type": "uint256"
				}
			],
			"stateMutability": "view",
			"type": "function"
		},
		{
			"inputs": [
				{
					"internalType": "bytes32",
					"name": "_ethSignedMessageHash",
					"type": "bytes32"
				},
				{
					"internalType": "bytes",
					"name": "_signature",
					"type": "bytes"
				}
			],
			"name": "recoverSignerPublic",
			"outputs": [
				{
					"internalType": "address",
					"name": "",
					"type": "address"
				}
			],
			"stateMutability": "pure",
			"type": "function"
		},
		{
			"inputs": [],
			"name": "renounceOwnership",
			"outputs": [],
			"stateMutability": "nonpayable",
			"type": "function"
		},
		{
			"inputs": [],
			"name": "rewardPoolAddress",
			"outputs": [
				{
					"internalType": "address",
					"name": "",
					"type": "address"
				}
			],
			"stateMutability": "view",
			"type": "function"
		},
		{
			"inputs": [
				{
					"internalType": "contract IERC721",
					"name": "nft",
					"type": "address"
				},
				{
					"internalType": "address",
					"name": "_seller",
					"type": "address"
				},
				{
					"internalType": "uint256",
					"name": "_tokenid",
					"type": "uint256"
				},
				{
					"internalType": "uint256",
					"name": "_price",
					"type": "uint256"
				},
				{
					"internalType": "uint256",
					"name": "_amount",
					"type": "uint256"
				},
				{
					"internalType": "string",
					"name": "_priceType",
					"type": "string"
				},
				{
					"internalType": "address",
					"name": "_developerAddress",
					"type": "address"
				},
				{
					"internalType": "bool",
					"name": "_presale",
					"type": "bool"
				},
				{
					"internalType": "uint256",
					"name": "_timestamp",
					"type": "uint256"
				},
				{
					"internalType": "address",
					"name": "_buyer",
					"type": "address"
				},
				{
					"internalType": "bytes",
					"name": "_signature",
					"type": "bytes"
				}
			],
			"name": "sell",
			"outputs": [],
			"stateMutability": "nonpayable",
			"type": "function"
		},
		{
			"inputs": [
				{
					"internalType": "address",
					"name": "_address",
					"type": "address"
				}
			],
			"name": "setAdmin",
			"outputs": [],
			"stateMutability": "nonpayable",
			"type": "function"
		},
		{
			"inputs": [
				{
					"internalType": "address",
					"name": "_eth",
					"type": "address"
				}
			],
			"name": "setEth",
			"outputs": [],
			"stateMutability": "nonpayable",
			"type": "function"
		},
		{
			"inputs": [
				{
					"internalType": "uint256",
					"name": "_presaleFeeToDeveloper",
					"type": "uint256"
				},
				{
					"internalType": "uint256",
					"name": "_presaleFeeToUmi",
					"type": "uint256"
				},
				{
					"internalType": "uint256",
					"name": "_presaleFeeToRewardFund",
					"type": "uint256"
				},
				{
					"internalType": "uint256",
					"name": "_tradeFeeToUmi",
					"type": "uint256"
				},
				{
					"internalType": "uint256",
					"name": "_tradeFeeToDeveloper",
					"type": "uint256"
				},
				{
					"internalType": "uint256",
					"name": "_tradeFeeToRewardFund",
					"type": "uint256"
				}
			],
			"name": "setFee",
			"outputs": [],
			"stateMutability": "nonpayable",
			"type": "function"
		},
		{
			"inputs": [
				{
					"internalType": "address",
					"name": "_address",
					"type": "address"
				}
			],
			"name": "setFeeAddress",
			"outputs": [],
			"stateMutability": "nonpayable",
			"type": "function"
		},
		{
			"inputs": [
				{
					"internalType": "address",
					"name": "_rewardPoolAddress",
					"type": "address"
				}
			],
			"name": "setRewardPoolAddress",
			"outputs": [],
			"stateMutability": "nonpayable",
			"type": "function"
		},
		{
			"inputs": [
				{
					"internalType": "address",
					"name": "_address",
					"type": "address"
				}
			],
			"name": "setSignerAddress",
			"outputs": [],
			"stateMutability": "nonpayable",
			"type": "function"
		},
		{
			"inputs": [
				{
					"internalType": "address",
					"name": "_umi",
					"type": "address"
				}
			],
			"name": "setUmi",
			"outputs": [],
			"stateMutability": "nonpayable",
			"type": "function"
		},
		{
			"inputs": [
				{
					"internalType": "address",
					"name": "_usdc",
					"type": "address"
				}
			],
			"name": "setUsdc",
			"outputs": [],
			"stateMutability": "nonpayable",
			"type": "function"
		},
		{
			"inputs": [
				{
					"internalType": "address",
					"name": "_usdt",
					"type": "address"
				}
			],
			"name": "setUsdt",
			"outputs": [],
			"stateMutability": "nonpayable",
			"type": "function"
		},
		{
			"inputs": [],
			"name": "signerAddress",
			"outputs": [
				{
					"internalType": "address",
					"name": "",
					"type": "address"
				}
			],
			"stateMutability": "view",
			"type": "function"
		},
		{
			"inputs": [],
			"name": "tradeFeeToDeveloper",
			"outputs": [
				{
					"internalType": "uint256",
					"name": "",
					"type": "uint256"
				}
			],
			"stateMutability": "view",
			"type": "function"
		},
		{
			"inputs": [],
			"name": "tradeFeeToRewardFund",
			"outputs": [
				{
					"internalType": "uint256",
					"name": "",
					"type": "uint256"
				}
			],
			"stateMutability": "view",
			"type": "function"
		},
		{
			"inputs": [],
			"name": "tradeFeeToUmi",
			"outputs": [
				{
					"internalType": "uint256",
					"name": "",
					"type": "uint256"
				}
			],
			"stateMutability": "view",
			"type": "function"
		},
		{
			"inputs": [
				{
					"internalType": "address",
					"name": "newOwner",
					"type": "address"
				}
			],
			"name": "transferOwnership",
			"outputs": [],
			"stateMutability": "nonpayable",
			"type": "function"
		},
		{
			"inputs": [],
			"name": "umi",
			"outputs": [
				{
					"internalType": "contract IERC20",
					"name": "",
					"type": "address"
				}
			],
			"stateMutability": "view",
			"type": "function"
		},
		{
			"inputs": [],
			"name": "usdc",
			"outputs": [
				{
					"internalType": "contract IERC20",
					"name": "",
					"type": "address"
				}
			],
			"stateMutability": "view",
			"type": "function"
		},
		{
			"inputs": [],
			"name": "usdt",
			"outputs": [
				{
					"internalType": "contract IERC20",
					"name": "",
					"type": "address"
				}
			],
			"stateMutability": "view",
			"type": "function"
		}
	]
}